{
	"contracts/Test1.sol": {
		"Test1": {
			"abi": [
				{
					"inputs": [],
					"stateMutability": "nonpayable",
					"type": "constructor"
				},
				{
					"inputs": [
						{
							"internalType": "address",
							"name": "walletAddress",
							"type": "address"
						},
						{
							"internalType": "uint256",
							"name": "amount",
							"type": "uint256"
						}
					],
					"name": "addToInvestors",
					"outputs": [],
					"stateMutability": "nonpayable",
					"type": "function"
				},
				{
					"inputs": [
						{
							"internalType": "address",
							"name": "walletAddress",
							"type": "address"
						},
						{
							"internalType": "string",
							"name": "name",
							"type": "string"
						},
						{
							"internalType": "uint256",
							"name": "amount",
							"type": "uint256"
						},
						{
							"internalType": "bool",
							"name": "isInvestor",
							"type": "bool"
						}
					],
					"name": "addUser",
					"outputs": [],
					"stateMutability": "nonpayable",
					"type": "function"
				},
				{
					"inputs": [
						{
							"internalType": "address",
							"name": "walletAddress",
							"type": "address"
						}
					],
					"name": "balanceOf",
					"outputs": [
						{
							"internalType": "uint256",
							"name": "",
							"type": "uint256"
						}
					],
					"stateMutability": "view",
					"type": "function"
				},
				{
					"inputs": [
						{
							"internalType": "address",
							"name": "",
							"type": "address"
						}
					],
					"name": "investors",
					"outputs": [
						{
							"internalType": "uint256",
							"name": "",
							"type": "uint256"
						}
					],
					"stateMutability": "view",
					"type": "function"
				},
				{
					"inputs": [
						{
							"internalType": "address",
							"name": "walletAddress",
							"type": "address"
						}
					],
					"name": "transfer",
					"outputs": [],
					"stateMutability": "payable",
					"type": "function"
				},
				{
					"inputs": [
						{
							"internalType": "uint256",
							"name": "",
							"type": "uint256"
						}
					],
					"name": "users",
					"outputs": [
						{
							"internalType": "address",
							"name": "walletAddress",
							"type": "address"
						},
						{
							"internalType": "string",
							"name": "name",
							"type": "string"
						},
						{
							"internalType": "uint256",
							"name": "amount",
							"type": "uint256"
						},
						{
							"internalType": "bool",
							"name": "isInvestor",
							"type": "bool"
						}
					],
					"stateMutability": "view",
					"type": "function"
				}
			],
			"devdoc": {
				"kind": "dev",
				"methods": {},
				"version": 1
			},
			"evm": {
				"assembly": "    /* \"contracts/Test1.sol\":65:1291  contract Test1{... */\n  mstore(0x40, 0x80)\n    /* \"contracts/Test1.sol\":106:154  constructor(){... */\n  callvalue\n  dup1\n  iszero\n  tag_1\n  jumpi\n  0x00\n  dup1\n  revert\ntag_1:\n  pop\n    /* \"contracts/Test1.sol\":137:147  msg.sender */\n  caller\n    /* \"contracts/Test1.sol\":129:134  owner */\n  0x00\n  dup1\n    /* \"contracts/Test1.sol\":129:147  owner = msg.sender */\n  0x0100\n  exp\n  dup2\n  sload\n  dup2\n  0xffffffffffffffffffffffffffffffffffffffff\n  mul\n  not\n  and\n  swap1\n  dup4\n  0xffffffffffffffffffffffffffffffffffffffff\n  and\n  mul\n  or\n  swap1\n  sstore\n  pop\n    /* \"contracts/Test1.sol\":65:1291  contract Test1{... */\n  dataSize(sub_0)\n  dup1\n  dataOffset(sub_0)\n  0x00\n  codecopy\n  0x00\n  return\nstop\n\nsub_0: assembly {\n        /* \"contracts/Test1.sol\":65:1291  contract Test1{... */\n      mstore(0x40, 0x80)\n      jumpi(tag_1, lt(calldatasize, 0x04))\n      shr(0xe0, calldataload(0x00))\n      dup1\n      0x0b1019f0\n      eq\n      tag_2\n      jumpi\n      dup1\n      0x1a695230\n      eq\n      tag_3\n      jumpi\n      dup1\n      0x280879e7\n      eq\n      tag_4\n      jumpi\n      dup1\n      0x365b98b2\n      eq\n      tag_5\n      jumpi\n      dup1\n      0x6f7bc9be\n      eq\n      tag_6\n      jumpi\n      dup1\n      0x70a08231\n      eq\n      tag_7\n      jumpi\n    tag_1:\n      0x00\n      dup1\n      revert\n        /* \"contracts/Test1.sol\":541:658  function addToInvestors(address walletAddress, uint amount) public {... */\n    tag_2:\n      callvalue\n      dup1\n      iszero\n      tag_8\n      jumpi\n      0x00\n      dup1\n      revert\n    tag_8:\n      pop\n      tag_9\n      0x04\n      dup1\n      calldatasize\n      sub\n      dup2\n      add\n      swap1\n      tag_10\n      swap2\n      swap1\n      tag_11\n      jump\t// in\n    tag_10:\n      tag_12\n      jump\t// in\n    tag_9:\n      stop\n        /* \"contracts/Test1.sol\":664:769  function transfer(address walletAddress) payable public {... */\n    tag_3:\n      tag_13\n      0x04\n      dup1\n      calldatasize\n      sub\n      dup2\n      add\n      swap1\n      tag_14\n      swap2\n      swap1\n      tag_15\n      jump\t// in\n    tag_14:\n      tag_16\n      jump\t// in\n    tag_13:\n      stop\n        /* \"contracts/Test1.sol\":360:531  function addUser(address walletAddress, string memory name, uint amount, bool isInvestor) public {... */\n    tag_4:\n      callvalue\n      dup1\n      iszero\n      tag_17\n      jumpi\n      0x00\n      dup1\n      revert\n    tag_17:\n      pop\n      tag_18\n      0x04\n      dup1\n      calldatasize\n      sub\n      dup2\n      add\n      swap1\n      tag_19\n      swap2\n      swap1\n      tag_20\n      jump\t// in\n    tag_19:\n      tag_21\n      jump\t// in\n    tag_18:\n      stop\n        /* \"contracts/Test1.sol\":286:305  User[] public users */\n    tag_5:\n      callvalue\n      dup1\n      iszero\n      tag_22\n      jumpi\n      0x00\n      dup1\n      revert\n    tag_22:\n      pop\n      tag_23\n      0x04\n      dup1\n      calldatasize\n      sub\n      dup2\n      add\n      swap1\n      tag_24\n      swap2\n      swap1\n      tag_25\n      jump\t// in\n    tag_24:\n      tag_26\n      jump\t// in\n    tag_23:\n      mload(0x40)\n      tag_27\n      swap5\n      swap4\n      swap3\n      swap2\n      swap1\n      tag_28\n      jump\t// in\n    tag_27:\n      mload(0x40)\n      dup1\n      swap2\n      sub\n      swap1\n      return\n        /* \"contracts/Test1.sol\":311:352  mapping(address => uint) public investors */\n    tag_6:\n      callvalue\n      dup1\n      iszero\n      tag_29\n      jumpi\n      0x00\n      dup1\n      revert\n    tag_29:\n      pop\n      tag_30\n      0x04\n      dup1\n      calldatasize\n      sub\n      dup2\n      add\n      swap1\n      tag_31\n      swap2\n      swap1\n      tag_15\n      jump\t// in\n    tag_31:\n      tag_32\n      jump\t// in\n    tag_30:\n      mload(0x40)\n      tag_33\n      swap2\n      swap1\n      tag_34\n      jump\t// in\n    tag_33:\n      mload(0x40)\n      dup1\n      swap2\n      sub\n      swap1\n      return\n        /* \"contracts/Test1.sol\":1021:1285  function balanceOf(address walletAddress) public view returns(uint){... */\n    tag_7:\n      callvalue\n      dup1\n      iszero\n      tag_35\n      jumpi\n      0x00\n      dup1\n      revert\n    tag_35:\n      pop\n      tag_36\n      0x04\n      dup1\n      calldatasize\n      sub\n      dup2\n      add\n      swap1\n      tag_37\n      swap2\n      swap1\n      tag_15\n      jump\t// in\n    tag_37:\n      tag_38\n      jump\t// in\n    tag_36:\n      mload(0x40)\n      tag_39\n      swap2\n      swap1\n      tag_34\n      jump\t// in\n    tag_39:\n      mload(0x40)\n      dup1\n      swap2\n      sub\n      swap1\n      return\n        /* \"contracts/Test1.sol\":541:658  function addToInvestors(address walletAddress, uint amount) public {... */\n    tag_12:\n        /* \"contracts/Test1.sol\":645:651  amount */\n      dup1\n        /* \"contracts/Test1.sol\":618:627  investors */\n      0x02\n        /* \"contracts/Test1.sol\":618:642  investors[walletAddress] */\n      0x00\n        /* \"contracts/Test1.sol\":628:641  walletAddress */\n      dup5\n        /* \"contracts/Test1.sol\":618:642  investors[walletAddress] */\n      0xffffffffffffffffffffffffffffffffffffffff\n      and\n      0xffffffffffffffffffffffffffffffffffffffff\n      and\n      dup2\n      mstore\n      0x20\n      add\n      swap1\n      dup2\n      mstore\n      0x20\n      add\n      0x00\n      keccak256\n        /* \"contracts/Test1.sol\":618:651  investors[walletAddress] = amount */\n      dup2\n      swap1\n      sstore\n      pop\n        /* \"contracts/Test1.sol\":541:658  function addToInvestors(address walletAddress, uint amount) public {... */\n      pop\n      pop\n      jump\t// out\n        /* \"contracts/Test1.sol\":664:769  function transfer(address walletAddress) payable public {... */\n    tag_16:\n        /* \"contracts/Test1.sol\":730:762  transferToAddress(walletAddress) */\n      tag_42\n        /* \"contracts/Test1.sol\":748:761  walletAddress */\n      dup2\n        /* \"contracts/Test1.sol\":730:747  transferToAddress */\n      tag_43\n        /* \"contracts/Test1.sol\":730:762  transferToAddress(walletAddress) */\n      jump\t// in\n    tag_42:\n        /* \"contracts/Test1.sol\":664:769  function transfer(address walletAddress) payable public {... */\n      pop\n      jump\t// out\n        /* \"contracts/Test1.sol\":360:531  function addUser(address walletAddress, string memory name, uint amount, bool isInvestor) public {... */\n    tag_21:\n        /* \"contracts/Test1.sol\":467:472  users */\n      0x01\n        /* \"contracts/Test1.sol\":478:523  User(walletAddress, name, amount, isInvestor) */\n      mload(0x40)\n      dup1\n      0x80\n      add\n      0x40\n      mstore\n      dup1\n        /* \"contracts/Test1.sol\":483:496  walletAddress */\n      dup7\n        /* \"contracts/Test1.sol\":478:523  User(walletAddress, name, amount, isInvestor) */\n      0xffffffffffffffffffffffffffffffffffffffff\n      and\n      dup2\n      mstore\n      0x20\n      add\n        /* \"contracts/Test1.sol\":498:502  name */\n      dup6\n        /* \"contracts/Test1.sol\":478:523  User(walletAddress, name, amount, isInvestor) */\n      dup2\n      mstore\n      0x20\n      add\n        /* \"contracts/Test1.sol\":504:510  amount */\n      dup5\n        /* \"contracts/Test1.sol\":478:523  User(walletAddress, name, amount, isInvestor) */\n      dup2\n      mstore\n      0x20\n      add\n        /* \"contracts/Test1.sol\":512:522  isInvestor */\n      dup4\n        /* \"contracts/Test1.sol\":478:523  User(walletAddress, name, amount, isInvestor) */\n      iszero\n      iszero\n      dup2\n      mstore\n      pop\n        /* \"contracts/Test1.sol\":467:524  users.push(User(walletAddress, name, amount, isInvestor)) */\n      swap1\n      dup1\n      0x01\n      dup2\n      sload\n      add\n      dup1\n      dup3\n      sstore\n      dup1\n      swap2\n      pop\n      pop\n      0x01\n      swap1\n      sub\n      swap1\n      0x00\n      mstore\n      keccak256(0x00, 0x20)\n      swap1\n      0x04\n      mul\n      add\n      0x00\n      swap1\n      swap2\n      swap1\n      swap2\n      swap1\n      swap2\n      pop\n      0x00\n      dup3\n      add\n      mload\n      dup2\n      0x00\n      add\n      exp(0x0100, 0x00)\n      dup2\n      sload\n      dup2\n      0xffffffffffffffffffffffffffffffffffffffff\n      mul\n      not\n      and\n      swap1\n      dup4\n      0xffffffffffffffffffffffffffffffffffffffff\n      and\n      mul\n      or\n      swap1\n      sstore\n      pop\n      0x20\n      dup3\n      add\n      mload\n      dup2\n      0x01\n      add\n      swap1\n      dup1\n      mload\n      swap1\n      0x20\n      add\n      swap1\n      tag_46\n      swap3\n      swap2\n      swap1\n      tag_47\n      jump\t// in\n    tag_46:\n      pop\n      0x40\n      dup3\n      add\n      mload\n      dup2\n      0x02\n      add\n      sstore\n      0x60\n      dup3\n      add\n      mload\n      dup2\n      0x03\n      add\n      exp(0x0100, 0x00)\n      dup2\n      sload\n      dup2\n      0xff\n      mul\n      not\n      and\n      swap1\n      dup4\n      iszero\n      iszero\n      mul\n      or\n      swap1\n      sstore\n      pop\n      pop\n      pop\n        /* \"contracts/Test1.sol\":360:531  function addUser(address walletAddress, string memory name, uint amount, bool isInvestor) public {... */\n      pop\n      pop\n      pop\n      pop\n      jump\t// out\n        /* \"contracts/Test1.sol\":286:305  User[] public users */\n    tag_26:\n      0x01\n      dup2\n      dup2\n      sload\n      dup2\n      lt\n      tag_48\n      jumpi\n      0x00\n      dup1\n      revert\n    tag_48:\n      swap1\n      0x00\n      mstore\n      keccak256(0x00, 0x20)\n      swap1\n      0x04\n      mul\n      add\n      0x00\n      swap2\n      pop\n      swap1\n      pop\n      dup1\n      0x00\n      add\n      0x00\n      swap1\n      sload\n      swap1\n      0x0100\n      exp\n      swap1\n      div\n      0xffffffffffffffffffffffffffffffffffffffff\n      and\n      swap1\n      dup1\n      0x01\n      add\n      dup1\n      sload\n      tag_50\n      swap1\n      tag_51\n      jump\t// in\n    tag_50:\n      dup1\n      0x1f\n      add\n      0x20\n      dup1\n      swap2\n      div\n      mul\n      0x20\n      add\n      mload(0x40)\n      swap1\n      dup2\n      add\n      0x40\n      mstore\n      dup1\n      swap3\n      swap2\n      swap1\n      dup2\n      dup2\n      mstore\n      0x20\n      add\n      dup3\n      dup1\n      sload\n      tag_52\n      swap1\n      tag_51\n      jump\t// in\n    tag_52:\n      dup1\n      iszero\n      tag_53\n      jumpi\n      dup1\n      0x1f\n      lt\n      tag_54\n      jumpi\n      0x0100\n      dup1\n      dup4\n      sload\n      div\n      mul\n      dup4\n      mstore\n      swap2\n      0x20\n      add\n      swap2\n      jump(tag_53)\n    tag_54:\n      dup3\n      add\n      swap2\n      swap1\n      0x00\n      mstore\n      keccak256(0x00, 0x20)\n      swap1\n    tag_55:\n      dup2\n      sload\n      dup2\n      mstore\n      swap1\n      0x01\n      add\n      swap1\n      0x20\n      add\n      dup1\n      dup4\n      gt\n      tag_55\n      jumpi\n      dup3\n      swap1\n      sub\n      0x1f\n      and\n      dup3\n      add\n      swap2\n    tag_53:\n      pop\n      pop\n      pop\n      pop\n      pop\n      swap1\n      dup1\n      0x02\n      add\n      sload\n      swap1\n      dup1\n      0x03\n      add\n      0x00\n      swap1\n      sload\n      swap1\n      0x0100\n      exp\n      swap1\n      div\n      0xff\n      and\n      swap1\n      pop\n      dup5\n      jump\t// out\n        /* \"contracts/Test1.sol\":311:352  mapping(address => uint) public investors */\n    tag_32:\n      mstore(0x20, 0x02)\n      dup1\n      0x00\n      mstore\n      keccak256(0x00, 0x40)\n      0x00\n      swap2\n      pop\n      swap1\n      pop\n      sload\n      dup2\n      jump\t// out\n        /* \"contracts/Test1.sol\":1021:1285  function balanceOf(address walletAddress) public view returns(uint){... */\n    tag_38:\n        /* \"contracts/Test1.sol\":1083:1087  uint */\n      0x00\n        /* \"contracts/Test1.sol\":1102:1108  uint i */\n      dup1\n        /* \"contracts/Test1.sol\":1111:1112  0 */\n      0x00\n        /* \"contracts/Test1.sol\":1102:1112  uint i = 0 */\n      swap1\n      pop\n        /* \"contracts/Test1.sol\":1098:1258  for(uint i = 0; i < users.length; i++){... */\n    tag_57:\n        /* \"contracts/Test1.sol\":1118:1123  users */\n      0x01\n        /* \"contracts/Test1.sol\":1118:1130  users.length */\n      dup1\n      sload\n      swap1\n      pop\n        /* \"contracts/Test1.sol\":1114:1115  i */\n      dup2\n        /* \"contracts/Test1.sol\":1114:1130  i < users.length */\n      lt\n        /* \"contracts/Test1.sol\":1098:1258  for(uint i = 0; i < users.length; i++){... */\n      iszero\n      tag_58\n      jumpi\n        /* \"contracts/Test1.sol\":1179:1192  walletAddress */\n      dup3\n        /* \"contracts/Test1.sol\":1153:1192  users[i].walletAddress == walletAddress */\n      0xffffffffffffffffffffffffffffffffffffffff\n      and\n        /* \"contracts/Test1.sol\":1153:1158  users */\n      0x01\n        /* \"contracts/Test1.sol\":1159:1160  i */\n      dup3\n        /* \"contracts/Test1.sol\":1153:1161  users[i] */\n      dup2\n      sload\n      dup2\n      lt\n      tag_60\n      jumpi\n      tag_61\n      tag_62\n      jump\t// in\n    tag_61:\n    tag_60:\n      swap1\n      0x00\n      mstore\n      keccak256(0x00, 0x20)\n      swap1\n      0x04\n      mul\n      add\n        /* \"contracts/Test1.sol\":1153:1175  users[i].walletAddress */\n      0x00\n      add\n      0x00\n      swap1\n      sload\n      swap1\n      0x0100\n      exp\n      swap1\n      div\n      0xffffffffffffffffffffffffffffffffffffffff\n      and\n        /* \"contracts/Test1.sol\":1153:1192  users[i].walletAddress == walletAddress */\n      0xffffffffffffffffffffffffffffffffffffffff\n      and\n      eq\n        /* \"contracts/Test1.sol\":1150:1248  if(users[i].walletAddress == walletAddress){... */\n      iszero\n      tag_64\n      jumpi\n        /* \"contracts/Test1.sol\":1218:1223  users */\n      0x01\n        /* \"contracts/Test1.sol\":1224:1225  i */\n      dup2\n        /* \"contracts/Test1.sol\":1218:1226  users[i] */\n      dup2\n      sload\n      dup2\n      lt\n      tag_65\n      jumpi\n      tag_66\n      tag_62\n      jump\t// in\n    tag_66:\n    tag_65:\n      swap1\n      0x00\n      mstore\n      keccak256(0x00, 0x20)\n      swap1\n      0x04\n      mul\n      add\n        /* \"contracts/Test1.sol\":1218:1233  users[i].amount */\n      0x02\n      add\n      sload\n        /* \"contracts/Test1.sol\":1211:1233  return users[i].amount */\n      swap2\n      pop\n      pop\n      jump(tag_56)\n        /* \"contracts/Test1.sol\":1150:1248  if(users[i].walletAddress == walletAddress){... */\n    tag_64:\n        /* \"contracts/Test1.sol\":1132:1135  i++ */\n      dup1\n      dup1\n      tag_68\n      swap1\n      tag_69\n      jump\t// in\n    tag_68:\n      swap2\n      pop\n      pop\n        /* \"contracts/Test1.sol\":1098:1258  for(uint i = 0; i < users.length; i++){... */\n      jump(tag_57)\n    tag_58:\n      pop\n        /* \"contracts/Test1.sol\":1275:1278  999 */\n      0x03e7\n        /* \"contracts/Test1.sol\":1268:1278  return 999 */\n      swap1\n      pop\n        /* \"contracts/Test1.sol\":1021:1285  function balanceOf(address walletAddress) public view returns(uint){... */\n    tag_56:\n      swap2\n      swap1\n      pop\n      jump\t// out\n        /* \"contracts/Test1.sol\":775:1015  function transferToAddress(address walletAddress) private {... */\n    tag_43:\n        /* \"contracts/Test1.sol\":847:853  uint i */\n      0x00\n        /* \"contracts/Test1.sol\":843:1009  for(uint i = 0; i < users.length; i++){... */\n    tag_71:\n        /* \"contracts/Test1.sol\":863:868  users */\n      0x01\n        /* \"contracts/Test1.sol\":863:875  users.length */\n      dup1\n      sload\n      swap1\n      pop\n        /* \"contracts/Test1.sol\":859:860  i */\n      dup2\n        /* \"contracts/Test1.sol\":859:875  i < users.length */\n      lt\n        /* \"contracts/Test1.sol\":843:1009  for(uint i = 0; i < users.length; i++){... */\n      iszero\n      tag_72\n      jumpi\n        /* \"contracts/Test1.sol\":924:937  walletAddress */\n      dup2\n        /* \"contracts/Test1.sol\":898:937  users[i].walletAddress == walletAddress */\n      0xffffffffffffffffffffffffffffffffffffffff\n      and\n        /* \"contracts/Test1.sol\":898:903  users */\n      0x01\n        /* \"contracts/Test1.sol\":904:905  i */\n      dup3\n        /* \"contracts/Test1.sol\":898:906  users[i] */\n      dup2\n      sload\n      dup2\n      lt\n      tag_74\n      jumpi\n      tag_75\n      tag_62\n      jump\t// in\n    tag_75:\n    tag_74:\n      swap1\n      0x00\n      mstore\n      keccak256(0x00, 0x20)\n      swap1\n      0x04\n      mul\n      add\n        /* \"contracts/Test1.sol\":898:920  users[i].walletAddress */\n      0x00\n      add\n      0x00\n      swap1\n      sload\n      swap1\n      0x0100\n      exp\n      swap1\n      div\n      0xffffffffffffffffffffffffffffffffffffffff\n      and\n        /* \"contracts/Test1.sol\":898:937  users[i].walletAddress == walletAddress */\n      0xffffffffffffffffffffffffffffffffffffffff\n      and\n      eq\n        /* \"contracts/Test1.sol\":895:999  if(users[i].walletAddress == walletAddress){... */\n      iszero\n      tag_77\n      jumpi\n        /* \"contracts/Test1.sol\":975:984  msg.value */\n      callvalue\n        /* \"contracts/Test1.sol\":956:961  users */\n      0x01\n        /* \"contracts/Test1.sol\":962:963  i */\n      dup3\n        /* \"contracts/Test1.sol\":956:964  users[i] */\n      dup2\n      sload\n      dup2\n      lt\n      tag_78\n      jumpi\n      tag_79\n      tag_62\n      jump\t// in\n    tag_79:\n    tag_78:\n      swap1\n      0x00\n      mstore\n      keccak256(0x00, 0x20)\n      swap1\n      0x04\n      mul\n      add\n        /* \"contracts/Test1.sol\":956:971  users[i].amount */\n      0x02\n      add\n      0x00\n        /* \"contracts/Test1.sol\":956:984  users[i].amount += msg.value */\n      dup3\n      dup3\n      sload\n      tag_81\n      swap2\n      swap1\n      tag_82\n      jump\t// in\n    tag_81:\n      swap3\n      pop\n      pop\n      dup2\n      swap1\n      sstore\n      pop\n        /* \"contracts/Test1.sol\":895:999  if(users[i].walletAddress == walletAddress){... */\n    tag_77:\n        /* \"contracts/Test1.sol\":877:880  i++ */\n      dup1\n      dup1\n      tag_83\n      swap1\n      tag_69\n      jump\t// in\n    tag_83:\n      swap2\n      pop\n      pop\n        /* \"contracts/Test1.sol\":843:1009  for(uint i = 0; i < users.length; i++){... */\n      jump(tag_71)\n    tag_72:\n      pop\n        /* \"contracts/Test1.sol\":775:1015  function transferToAddress(address walletAddress) private {... */\n      pop\n      jump\t// out\n    tag_47:\n      dup3\n      dup1\n      sload\n      tag_84\n      swap1\n      tag_51\n      jump\t// in\n    tag_84:\n      swap1\n      0x00\n      mstore\n      keccak256(0x00, 0x20)\n      swap1\n      0x1f\n      add\n      0x20\n      swap1\n      div\n      dup2\n      add\n      swap3\n      dup3\n      tag_86\n      jumpi\n      0x00\n      dup6\n      sstore\n      jump(tag_85)\n    tag_86:\n      dup3\n      0x1f\n      lt\n      tag_87\n      jumpi\n      dup1\n      mload\n      not(0xff)\n      and\n      dup4\n      dup1\n      add\n      or\n      dup6\n      sstore\n      jump(tag_85)\n    tag_87:\n      dup3\n      dup1\n      add\n      0x01\n      add\n      dup6\n      sstore\n      dup3\n      iszero\n      tag_85\n      jumpi\n      swap2\n      dup3\n      add\n    tag_88:\n      dup3\n      dup2\n      gt\n      iszero\n      tag_89\n      jumpi\n      dup3\n      mload\n      dup3\n      sstore\n      swap2\n      0x20\n      add\n      swap2\n      swap1\n      0x01\n      add\n      swap1\n      jump(tag_88)\n    tag_89:\n    tag_85:\n      pop\n      swap1\n      pop\n      tag_90\n      swap2\n      swap1\n      tag_91\n      jump\t// in\n    tag_90:\n      pop\n      swap1\n      jump\t// out\n    tag_91:\n    tag_92:\n      dup1\n      dup3\n      gt\n      iszero\n      tag_93\n      jumpi\n      0x00\n      dup2\n      0x00\n      swap1\n      sstore\n      pop\n      0x01\n      add\n      jump(tag_92)\n    tag_93:\n      pop\n      swap1\n      jump\t// out\n        /* \"#utility.yul\":7:419   */\n    tag_95:\n        /* \"#utility.yul\":85:90   */\n      0x00\n        /* \"#utility.yul\":110:176   */\n      tag_97\n        /* \"#utility.yul\":126:175   */\n      tag_98\n        /* \"#utility.yul\":168:174   */\n      dup5\n        /* \"#utility.yul\":126:175   */\n      tag_99\n      jump\t// in\n    tag_98:\n        /* \"#utility.yul\":110:176   */\n      tag_100\n      jump\t// in\n    tag_97:\n        /* \"#utility.yul\":101:176   */\n      swap1\n      pop\n        /* \"#utility.yul\":199:205   */\n      dup3\n        /* \"#utility.yul\":192:197   */\n      dup2\n        /* \"#utility.yul\":185:206   */\n      mstore\n        /* \"#utility.yul\":237:241   */\n      0x20\n        /* \"#utility.yul\":230:235   */\n      dup2\n        /* \"#utility.yul\":226:242   */\n      add\n        /* \"#utility.yul\":275:278   */\n      dup5\n        /* \"#utility.yul\":266:272   */\n      dup5\n        /* \"#utility.yul\":261:264   */\n      dup5\n        /* \"#utility.yul\":257:273   */\n      add\n        /* \"#utility.yul\":254:279   */\n      gt\n        /* \"#utility.yul\":251:363   */\n      iszero\n      tag_101\n      jumpi\n        /* \"#utility.yul\":282:361   */\n      tag_102\n      tag_103\n      jump\t// in\n    tag_102:\n        /* \"#utility.yul\":251:363   */\n    tag_101:\n        /* \"#utility.yul\":372:413   */\n      tag_104\n        /* \"#utility.yul\":406:412   */\n      dup5\n        /* \"#utility.yul\":401:404   */\n      dup3\n        /* \"#utility.yul\":396:399   */\n      dup6\n        /* \"#utility.yul\":372:413   */\n      tag_105\n      jump\t// in\n    tag_104:\n        /* \"#utility.yul\":91:419   */\n      pop\n        /* \"#utility.yul\":7:419   */\n      swap4\n      swap3\n      pop\n      pop\n      pop\n      jump\t// out\n        /* \"#utility.yul\":425:564   */\n    tag_106:\n        /* \"#utility.yul\":471:476   */\n      0x00\n        /* \"#utility.yul\":509:515   */\n      dup2\n        /* \"#utility.yul\":496:516   */\n      calldataload\n        /* \"#utility.yul\":487:516   */\n      swap1\n      pop\n        /* \"#utility.yul\":525:558   */\n      tag_108\n        /* \"#utility.yul\":552:557   */\n      dup2\n        /* \"#utility.yul\":525:558   */\n      tag_109\n      jump\t// in\n    tag_108:\n        /* \"#utility.yul\":425:564   */\n      swap3\n      swap2\n      pop\n      pop\n      jump\t// out\n        /* \"#utility.yul\":570:703   */\n    tag_110:\n        /* \"#utility.yul\":613:618   */\n      0x00\n        /* \"#utility.yul\":651:657   */\n      dup2\n        /* \"#utility.yul\":638:658   */\n      calldataload\n        /* \"#utility.yul\":629:658   */\n      swap1\n      pop\n        /* \"#utility.yul\":667:697   */\n      tag_112\n        /* \"#utility.yul\":691:696   */\n      dup2\n        /* \"#utility.yul\":667:697   */\n      tag_113\n      jump\t// in\n    tag_112:\n        /* \"#utility.yul\":570:703   */\n      swap3\n      swap2\n      pop\n      pop\n      jump\t// out\n        /* \"#utility.yul\":723:1063   */\n    tag_114:\n        /* \"#utility.yul\":779:784   */\n      0x00\n        /* \"#utility.yul\":828:831   */\n      dup3\n        /* \"#utility.yul\":821:825   */\n      0x1f\n        /* \"#utility.yul\":813:819   */\n      dup4\n        /* \"#utility.yul\":809:826   */\n      add\n        /* \"#utility.yul\":805:832   */\n      slt\n        /* \"#utility.yul\":795:917   */\n      tag_116\n      jumpi\n        /* \"#utility.yul\":836:915   */\n      tag_117\n      tag_118\n      jump\t// in\n    tag_117:\n        /* \"#utility.yul\":795:917   */\n    tag_116:\n        /* \"#utility.yul\":953:959   */\n      dup2\n        /* \"#utility.yul\":940:960   */\n      calldataload\n        /* \"#utility.yul\":978:1057   */\n      tag_119\n        /* \"#utility.yul\":1053:1056   */\n      dup5\n        /* \"#utility.yul\":1045:1051   */\n      dup3\n        /* \"#utility.yul\":1038:1042   */\n      0x20\n        /* \"#utility.yul\":1030:1036   */\n      dup7\n        /* \"#utility.yul\":1026:1043   */\n      add\n        /* \"#utility.yul\":978:1057   */\n      tag_95\n      jump\t// in\n    tag_119:\n        /* \"#utility.yul\":969:1057   */\n      swap2\n      pop\n        /* \"#utility.yul\":785:1063   */\n      pop\n        /* \"#utility.yul\":723:1063   */\n      swap3\n      swap2\n      pop\n      pop\n      jump\t// out\n        /* \"#utility.yul\":1069:1208   */\n    tag_120:\n        /* \"#utility.yul\":1115:1120   */\n      0x00\n        /* \"#utility.yul\":1153:1159   */\n      dup2\n        /* \"#utility.yul\":1140:1160   */\n      calldataload\n        /* \"#utility.yul\":1131:1160   */\n      swap1\n      pop\n        /* \"#utility.yul\":1169:1202   */\n      tag_122\n        /* \"#utility.yul\":1196:1201   */\n      dup2\n        /* \"#utility.yul\":1169:1202   */\n      tag_123\n      jump\t// in\n    tag_122:\n        /* \"#utility.yul\":1069:1208   */\n      swap3\n      swap2\n      pop\n      pop\n      jump\t// out\n        /* \"#utility.yul\":1214:1543   */\n    tag_15:\n        /* \"#utility.yul\":1273:1279   */\n      0x00\n        /* \"#utility.yul\":1322:1324   */\n      0x20\n        /* \"#utility.yul\":1310:1319   */\n      dup3\n        /* \"#utility.yul\":1301:1308   */\n      dup5\n        /* \"#utility.yul\":1297:1320   */\n      sub\n        /* \"#utility.yul\":1293:1325   */\n      slt\n        /* \"#utility.yul\":1290:1409   */\n      iszero\n      tag_125\n      jumpi\n        /* \"#utility.yul\":1328:1407   */\n      tag_126\n      tag_127\n      jump\t// in\n    tag_126:\n        /* \"#utility.yul\":1290:1409   */\n    tag_125:\n        /* \"#utility.yul\":1448:1449   */\n      0x00\n        /* \"#utility.yul\":1473:1526   */\n      tag_128\n        /* \"#utility.yul\":1518:1525   */\n      dup5\n        /* \"#utility.yul\":1509:1515   */\n      dup3\n        /* \"#utility.yul\":1498:1507   */\n      dup6\n        /* \"#utility.yul\":1494:1516   */\n      add\n        /* \"#utility.yul\":1473:1526   */\n      tag_106\n      jump\t// in\n    tag_128:\n        /* \"#utility.yul\":1463:1526   */\n      swap2\n      pop\n        /* \"#utility.yul\":1419:1536   */\n      pop\n        /* \"#utility.yul\":1214:1543   */\n      swap3\n      swap2\n      pop\n      pop\n      jump\t// out\n        /* \"#utility.yul\":1549:2488   */\n    tag_20:\n        /* \"#utility.yul\":1642:1648   */\n      0x00\n        /* \"#utility.yul\":1650:1656   */\n      dup1\n        /* \"#utility.yul\":1658:1664   */\n      0x00\n        /* \"#utility.yul\":1666:1672   */\n      dup1\n        /* \"#utility.yul\":1715:1718   */\n      0x80\n        /* \"#utility.yul\":1703:1712   */\n      dup6\n        /* \"#utility.yul\":1694:1701   */\n      dup8\n        /* \"#utility.yul\":1690:1713   */\n      sub\n        /* \"#utility.yul\":1686:1719   */\n      slt\n        /* \"#utility.yul\":1683:1803   */\n      iszero\n      tag_130\n      jumpi\n        /* \"#utility.yul\":1722:1801   */\n      tag_131\n      tag_127\n      jump\t// in\n    tag_131:\n        /* \"#utility.yul\":1683:1803   */\n    tag_130:\n        /* \"#utility.yul\":1842:1843   */\n      0x00\n        /* \"#utility.yul\":1867:1920   */\n      tag_132\n        /* \"#utility.yul\":1912:1919   */\n      dup8\n        /* \"#utility.yul\":1903:1909   */\n      dup3\n        /* \"#utility.yul\":1892:1901   */\n      dup9\n        /* \"#utility.yul\":1888:1910   */\n      add\n        /* \"#utility.yul\":1867:1920   */\n      tag_106\n      jump\t// in\n    tag_132:\n        /* \"#utility.yul\":1857:1920   */\n      swap5\n      pop\n        /* \"#utility.yul\":1813:1930   */\n      pop\n        /* \"#utility.yul\":1997:1999   */\n      0x20\n        /* \"#utility.yul\":1986:1995   */\n      dup6\n        /* \"#utility.yul\":1982:2000   */\n      add\n        /* \"#utility.yul\":1969:2001   */\n      calldataload\n        /* \"#utility.yul\":2028:2046   */\n      0xffffffffffffffff\n        /* \"#utility.yul\":2020:2026   */\n      dup2\n        /* \"#utility.yul\":2017:2047   */\n      gt\n        /* \"#utility.yul\":2014:2131   */\n      iszero\n      tag_133\n      jumpi\n        /* \"#utility.yul\":2050:2129   */\n      tag_134\n      tag_135\n      jump\t// in\n    tag_134:\n        /* \"#utility.yul\":2014:2131   */\n    tag_133:\n        /* \"#utility.yul\":2155:2218   */\n      tag_136\n        /* \"#utility.yul\":2210:2217   */\n      dup8\n        /* \"#utility.yul\":2201:2207   */\n      dup3\n        /* \"#utility.yul\":2190:2199   */\n      dup9\n        /* \"#utility.yul\":2186:2208   */\n      add\n        /* \"#utility.yul\":2155:2218   */\n      tag_114\n      jump\t// in\n    tag_136:\n        /* \"#utility.yul\":2145:2218   */\n      swap4\n      pop\n        /* \"#utility.yul\":1940:2228   */\n      pop\n        /* \"#utility.yul\":2267:2269   */\n      0x40\n        /* \"#utility.yul\":2293:2346   */\n      tag_137\n        /* \"#utility.yul\":2338:2345   */\n      dup8\n        /* \"#utility.yul\":2329:2335   */\n      dup3\n        /* \"#utility.yul\":2318:2327   */\n      dup9\n        /* \"#utility.yul\":2314:2336   */\n      add\n        /* \"#utility.yul\":2293:2346   */\n      tag_120\n      jump\t// in\n    tag_137:\n        /* \"#utility.yul\":2283:2346   */\n      swap3\n      pop\n        /* \"#utility.yul\":2238:2356   */\n      pop\n        /* \"#utility.yul\":2395:2397   */\n      0x60\n        /* \"#utility.yul\":2421:2471   */\n      tag_138\n        /* \"#utility.yul\":2463:2470   */\n      dup8\n        /* \"#utility.yul\":2454:2460   */\n      dup3\n        /* \"#utility.yul\":2443:2452   */\n      dup9\n        /* \"#utility.yul\":2439:2461   */\n      add\n        /* \"#utility.yul\":2421:2471   */\n      tag_110\n      jump\t// in\n    tag_138:\n        /* \"#utility.yul\":2411:2471   */\n      swap2\n      pop\n        /* \"#utility.yul\":2366:2481   */\n      pop\n        /* \"#utility.yul\":1549:2488   */\n      swap3\n      swap6\n      swap2\n      swap5\n      pop\n      swap3\n      pop\n      jump\t// out\n        /* \"#utility.yul\":2494:2968   */\n    tag_11:\n        /* \"#utility.yul\":2562:2568   */\n      0x00\n        /* \"#utility.yul\":2570:2576   */\n      dup1\n        /* \"#utility.yul\":2619:2621   */\n      0x40\n        /* \"#utility.yul\":2607:2616   */\n      dup4\n        /* \"#utility.yul\":2598:2605   */\n      dup6\n        /* \"#utility.yul\":2594:2617   */\n      sub\n        /* \"#utility.yul\":2590:2622   */\n      slt\n        /* \"#utility.yul\":2587:2706   */\n      iszero\n      tag_140\n      jumpi\n        /* \"#utility.yul\":2625:2704   */\n      tag_141\n      tag_127\n      jump\t// in\n    tag_141:\n        /* \"#utility.yul\":2587:2706   */\n    tag_140:\n        /* \"#utility.yul\":2745:2746   */\n      0x00\n        /* \"#utility.yul\":2770:2823   */\n      tag_142\n        /* \"#utility.yul\":2815:2822   */\n      dup6\n        /* \"#utility.yul\":2806:2812   */\n      dup3\n        /* \"#utility.yul\":2795:2804   */\n      dup7\n        /* \"#utility.yul\":2791:2813   */\n      add\n        /* \"#utility.yul\":2770:2823   */\n      tag_106\n      jump\t// in\n    tag_142:\n        /* \"#utility.yul\":2760:2823   */\n      swap3\n      pop\n        /* \"#utility.yul\":2716:2833   */\n      pop\n        /* \"#utility.yul\":2872:2874   */\n      0x20\n        /* \"#utility.yul\":2898:2951   */\n      tag_143\n        /* \"#utility.yul\":2943:2950   */\n      dup6\n        /* \"#utility.yul\":2934:2940   */\n      dup3\n        /* \"#utility.yul\":2923:2932   */\n      dup7\n        /* \"#utility.yul\":2919:2941   */\n      add\n        /* \"#utility.yul\":2898:2951   */\n      tag_120\n      jump\t// in\n    tag_143:\n        /* \"#utility.yul\":2888:2951   */\n      swap2\n      pop\n        /* \"#utility.yul\":2843:2961   */\n      pop\n        /* \"#utility.yul\":2494:2968   */\n      swap3\n      pop\n      swap3\n      swap1\n      pop\n      jump\t// out\n        /* \"#utility.yul\":2974:3303   */\n    tag_25:\n        /* \"#utility.yul\":3033:3039   */\n      0x00\n        /* \"#utility.yul\":3082:3084   */\n      0x20\n        /* \"#utility.yul\":3070:3079   */\n      dup3\n        /* \"#utility.yul\":3061:3068   */\n      dup5\n        /* \"#utility.yul\":3057:3080   */\n      sub\n        /* \"#utility.yul\":3053:3085   */\n      slt\n        /* \"#utility.yul\":3050:3169   */\n      iszero\n      tag_145\n      jumpi\n        /* \"#utility.yul\":3088:3167   */\n      tag_146\n      tag_127\n      jump\t// in\n    tag_146:\n        /* \"#utility.yul\":3050:3169   */\n    tag_145:\n        /* \"#utility.yul\":3208:3209   */\n      0x00\n        /* \"#utility.yul\":3233:3286   */\n      tag_147\n        /* \"#utility.yul\":3278:3285   */\n      dup5\n        /* \"#utility.yul\":3269:3275   */\n      dup3\n        /* \"#utility.yul\":3258:3267   */\n      dup6\n        /* \"#utility.yul\":3254:3276   */\n      add\n        /* \"#utility.yul\":3233:3286   */\n      tag_120\n      jump\t// in\n    tag_147:\n        /* \"#utility.yul\":3223:3286   */\n      swap2\n      pop\n        /* \"#utility.yul\":3179:3296   */\n      pop\n        /* \"#utility.yul\":2974:3303   */\n      swap3\n      swap2\n      pop\n      pop\n      jump\t// out\n        /* \"#utility.yul\":3309:3427   */\n    tag_148:\n        /* \"#utility.yul\":3396:3420   */\n      tag_150\n        /* \"#utility.yul\":3414:3419   */\n      dup2\n        /* \"#utility.yul\":3396:3420   */\n      tag_151\n      jump\t// in\n    tag_150:\n        /* \"#utility.yul\":3391:3394   */\n      dup3\n        /* \"#utility.yul\":3384:3421   */\n      mstore\n        /* \"#utility.yul\":3309:3427   */\n      pop\n      pop\n      jump\t// out\n        /* \"#utility.yul\":3433:3542   */\n    tag_152:\n        /* \"#utility.yul\":3514:3535   */\n      tag_154\n        /* \"#utility.yul\":3529:3534   */\n      dup2\n        /* \"#utility.yul\":3514:3535   */\n      tag_155\n      jump\t// in\n    tag_154:\n        /* \"#utility.yul\":3509:3512   */\n      dup3\n        /* \"#utility.yul\":3502:3536   */\n      mstore\n        /* \"#utility.yul\":3433:3542   */\n      pop\n      pop\n      jump\t// out\n        /* \"#utility.yul\":3548:3912   */\n    tag_156:\n        /* \"#utility.yul\":3636:3639   */\n      0x00\n        /* \"#utility.yul\":3664:3703   */\n      tag_158\n        /* \"#utility.yul\":3697:3702   */\n      dup3\n        /* \"#utility.yul\":3664:3703   */\n      tag_159\n      jump\t// in\n    tag_158:\n        /* \"#utility.yul\":3719:3790   */\n      tag_160\n        /* \"#utility.yul\":3783:3789   */\n      dup2\n        /* \"#utility.yul\":3778:3781   */\n      dup6\n        /* \"#utility.yul\":3719:3790   */\n      tag_161\n      jump\t// in\n    tag_160:\n        /* \"#utility.yul\":3712:3790   */\n      swap4\n      pop\n        /* \"#utility.yul\":3799:3851   */\n      tag_162\n        /* \"#utility.yul\":3844:3850   */\n      dup2\n        /* \"#utility.yul\":3839:3842   */\n      dup6\n        /* \"#utility.yul\":3832:3836   */\n      0x20\n        /* \"#utility.yul\":3825:3830   */\n      dup7\n        /* \"#utility.yul\":3821:3837   */\n      add\n        /* \"#utility.yul\":3799:3851   */\n      tag_163\n      jump\t// in\n    tag_162:\n        /* \"#utility.yul\":3876:3905   */\n      tag_164\n        /* \"#utility.yul\":3898:3904   */\n      dup2\n        /* \"#utility.yul\":3876:3905   */\n      tag_165\n      jump\t// in\n    tag_164:\n        /* \"#utility.yul\":3871:3874   */\n      dup5\n        /* \"#utility.yul\":3867:3906   */\n      add\n        /* \"#utility.yul\":3860:3906   */\n      swap2\n      pop\n        /* \"#utility.yul\":3640:3912   */\n      pop\n        /* \"#utility.yul\":3548:3912   */\n      swap3\n      swap2\n      pop\n      pop\n      jump\t// out\n        /* \"#utility.yul\":3918:4036   */\n    tag_166:\n        /* \"#utility.yul\":4005:4029   */\n      tag_168\n        /* \"#utility.yul\":4023:4028   */\n      dup2\n        /* \"#utility.yul\":4005:4029   */\n      tag_169\n      jump\t// in\n    tag_168:\n        /* \"#utility.yul\":4000:4003   */\n      dup3\n        /* \"#utility.yul\":3993:4030   */\n      mstore\n        /* \"#utility.yul\":3918:4036   */\n      pop\n      pop\n      jump\t// out\n        /* \"#utility.yul\":4042:4674   */\n    tag_28:\n        /* \"#utility.yul\":4233:4237   */\n      0x00\n        /* \"#utility.yul\":4271:4274   */\n      0x80\n        /* \"#utility.yul\":4260:4269   */\n      dup3\n        /* \"#utility.yul\":4256:4275   */\n      add\n        /* \"#utility.yul\":4248:4275   */\n      swap1\n      pop\n        /* \"#utility.yul\":4285:4356   */\n      tag_171\n        /* \"#utility.yul\":4353:4354   */\n      0x00\n        /* \"#utility.yul\":4342:4351   */\n      dup4\n        /* \"#utility.yul\":4338:4355   */\n      add\n        /* \"#utility.yul\":4329:4335   */\n      dup8\n        /* \"#utility.yul\":4285:4356   */\n      tag_148\n      jump\t// in\n    tag_171:\n        /* \"#utility.yul\":4403:4412   */\n      dup2\n        /* \"#utility.yul\":4397:4401   */\n      dup2\n        /* \"#utility.yul\":4393:4413   */\n      sub\n        /* \"#utility.yul\":4388:4390   */\n      0x20\n        /* \"#utility.yul\":4377:4386   */\n      dup4\n        /* \"#utility.yul\":4373:4391   */\n      add\n        /* \"#utility.yul\":4366:4414   */\n      mstore\n        /* \"#utility.yul\":4431:4509   */\n      tag_172\n        /* \"#utility.yul\":4504:4508   */\n      dup2\n        /* \"#utility.yul\":4495:4501   */\n      dup7\n        /* \"#utility.yul\":4431:4509   */\n      tag_156\n      jump\t// in\n    tag_172:\n        /* \"#utility.yul\":4423:4509   */\n      swap1\n      pop\n        /* \"#utility.yul\":4519:4591   */\n      tag_173\n        /* \"#utility.yul\":4587:4589   */\n      0x40\n        /* \"#utility.yul\":4576:4585   */\n      dup4\n        /* \"#utility.yul\":4572:4590   */\n      add\n        /* \"#utility.yul\":4563:4569   */\n      dup6\n        /* \"#utility.yul\":4519:4591   */\n      tag_166\n      jump\t// in\n    tag_173:\n        /* \"#utility.yul\":4601:4667   */\n      tag_174\n        /* \"#utility.yul\":4663:4665   */\n      0x60\n        /* \"#utility.yul\":4652:4661   */\n      dup4\n        /* \"#utility.yul\":4648:4666   */\n      add\n        /* \"#utility.yul\":4639:4645   */\n      dup5\n        /* \"#utility.yul\":4601:4667   */\n      tag_152\n      jump\t// in\n    tag_174:\n        /* \"#utility.yul\":4042:4674   */\n      swap6\n      swap5\n      pop\n      pop\n      pop\n      pop\n      pop\n      jump\t// out\n        /* \"#utility.yul\":4680:4902   */\n    tag_34:\n        /* \"#utility.yul\":4773:4777   */\n      0x00\n        /* \"#utility.yul\":4811:4813   */\n      0x20\n        /* \"#utility.yul\":4800:4809   */\n      dup3\n        /* \"#utility.yul\":4796:4814   */\n      add\n        /* \"#utility.yul\":4788:4814   */\n      swap1\n      pop\n        /* \"#utility.yul\":4824:4895   */\n      tag_176\n        /* \"#utility.yul\":4892:4893   */\n      0x00\n        /* \"#utility.yul\":4881:4890   */\n      dup4\n        /* \"#utility.yul\":4877:4894   */\n      add\n        /* \"#utility.yul\":4868:4874   */\n      dup5\n        /* \"#utility.yul\":4824:4895   */\n      tag_166\n      jump\t// in\n    tag_176:\n        /* \"#utility.yul\":4680:4902   */\n      swap3\n      swap2\n      pop\n      pop\n      jump\t// out\n        /* \"#utility.yul\":4908:5037   */\n    tag_100:\n        /* \"#utility.yul\":4942:4948   */\n      0x00\n        /* \"#utility.yul\":4969:4989   */\n      tag_178\n      tag_179\n      jump\t// in\n    tag_178:\n        /* \"#utility.yul\":4959:4989   */\n      swap1\n      pop\n        /* \"#utility.yul\":4998:5031   */\n      tag_180\n        /* \"#utility.yul\":5026:5030   */\n      dup3\n        /* \"#utility.yul\":5018:5024   */\n      dup3\n        /* \"#utility.yul\":4998:5031   */\n      tag_181\n      jump\t// in\n    tag_180:\n        /* \"#utility.yul\":4908:5037   */\n      swap2\n      swap1\n      pop\n      jump\t// out\n        /* \"#utility.yul\":5043:5118   */\n    tag_179:\n        /* \"#utility.yul\":5076:5082   */\n      0x00\n        /* \"#utility.yul\":5109:5111   */\n      0x40\n        /* \"#utility.yul\":5103:5112   */\n      mload\n        /* \"#utility.yul\":5093:5112   */\n      swap1\n      pop\n        /* \"#utility.yul\":5043:5118   */\n      swap1\n      jump\t// out\n        /* \"#utility.yul\":5124:5432   */\n    tag_99:\n        /* \"#utility.yul\":5186:5190   */\n      0x00\n        /* \"#utility.yul\":5276:5294   */\n      0xffffffffffffffff\n        /* \"#utility.yul\":5268:5274   */\n      dup3\n        /* \"#utility.yul\":5265:5295   */\n      gt\n        /* \"#utility.yul\":5262:5318   */\n      iszero\n      tag_184\n      jumpi\n        /* \"#utility.yul\":5298:5316   */\n      tag_185\n      tag_186\n      jump\t// in\n    tag_185:\n        /* \"#utility.yul\":5262:5318   */\n    tag_184:\n        /* \"#utility.yul\":5336:5365   */\n      tag_187\n        /* \"#utility.yul\":5358:5364   */\n      dup3\n        /* \"#utility.yul\":5336:5365   */\n      tag_165\n      jump\t// in\n    tag_187:\n        /* \"#utility.yul\":5328:5365   */\n      swap1\n      pop\n        /* \"#utility.yul\":5420:5424   */\n      0x20\n        /* \"#utility.yul\":5414:5418   */\n      dup2\n        /* \"#utility.yul\":5410:5425   */\n      add\n        /* \"#utility.yul\":5402:5425   */\n      swap1\n      pop\n        /* \"#utility.yul\":5124:5432   */\n      swap2\n      swap1\n      pop\n      jump\t// out\n        /* \"#utility.yul\":5438:5537   */\n    tag_159:\n        /* \"#utility.yul\":5490:5496   */\n      0x00\n        /* \"#utility.yul\":5524:5529   */\n      dup2\n        /* \"#utility.yul\":5518:5530   */\n      mload\n        /* \"#utility.yul\":5508:5530   */\n      swap1\n      pop\n        /* \"#utility.yul\":5438:5537   */\n      swap2\n      swap1\n      pop\n      jump\t// out\n        /* \"#utility.yul\":5543:5712   */\n    tag_161:\n        /* \"#utility.yul\":5627:5638   */\n      0x00\n        /* \"#utility.yul\":5661:5667   */\n      dup3\n        /* \"#utility.yul\":5656:5659   */\n      dup3\n        /* \"#utility.yul\":5649:5668   */\n      mstore\n        /* \"#utility.yul\":5701:5705   */\n      0x20\n        /* \"#utility.yul\":5696:5699   */\n      dup3\n        /* \"#utility.yul\":5692:5706   */\n      add\n        /* \"#utility.yul\":5677:5706   */\n      swap1\n      pop\n        /* \"#utility.yul\":5543:5712   */\n      swap3\n      swap2\n      pop\n      pop\n      jump\t// out\n        /* \"#utility.yul\":5718:6023   */\n    tag_82:\n        /* \"#utility.yul\":5758:5761   */\n      0x00\n        /* \"#utility.yul\":5777:5797   */\n      tag_191\n        /* \"#utility.yul\":5795:5796   */\n      dup3\n        /* \"#utility.yul\":5777:5797   */\n      tag_169\n      jump\t// in\n    tag_191:\n        /* \"#utility.yul\":5772:5797   */\n      swap2\n      pop\n        /* \"#utility.yul\":5811:5831   */\n      tag_192\n        /* \"#utility.yul\":5829:5830   */\n      dup4\n        /* \"#utility.yul\":5811:5831   */\n      tag_169\n      jump\t// in\n    tag_192:\n        /* \"#utility.yul\":5806:5831   */\n      swap3\n      pop\n        /* \"#utility.yul\":5965:5966   */\n      dup3\n        /* \"#utility.yul\":5897:5963   */\n      0xffffffffffffffffffffffffffffffffffffffffffffffffffffffffffffffff\n        /* \"#utility.yul\":5893:5967   */\n      sub\n        /* \"#utility.yul\":5890:5891   */\n      dup3\n        /* \"#utility.yul\":5887:5968   */\n      gt\n        /* \"#utility.yul\":5884:5991   */\n      iszero\n      tag_193\n      jumpi\n        /* \"#utility.yul\":5971:5989   */\n      tag_194\n      tag_195\n      jump\t// in\n    tag_194:\n        /* \"#utility.yul\":5884:5991   */\n    tag_193:\n        /* \"#utility.yul\":6015:6016   */\n      dup3\n        /* \"#utility.yul\":6012:6013   */\n      dup3\n        /* \"#utility.yul\":6008:6017   */\n      add\n        /* \"#utility.yul\":6001:6017   */\n      swap1\n      pop\n        /* \"#utility.yul\":5718:6023   */\n      swap3\n      swap2\n      pop\n      pop\n      jump\t// out\n        /* \"#utility.yul\":6029:6125   */\n    tag_151:\n        /* \"#utility.yul\":6066:6073   */\n      0x00\n        /* \"#utility.yul\":6095:6119   */\n      tag_197\n        /* \"#utility.yul\":6113:6118   */\n      dup3\n        /* \"#utility.yul\":6095:6119   */\n      tag_198\n      jump\t// in\n    tag_197:\n        /* \"#utility.yul\":6084:6119   */\n      swap1\n      pop\n        /* \"#utility.yul\":6029:6125   */\n      swap2\n      swap1\n      pop\n      jump\t// out\n        /* \"#utility.yul\":6131:6221   */\n    tag_155:\n        /* \"#utility.yul\":6165:6172   */\n      0x00\n        /* \"#utility.yul\":6208:6213   */\n      dup2\n        /* \"#utility.yul\":6201:6214   */\n      iszero\n        /* \"#utility.yul\":6194:6215   */\n      iszero\n        /* \"#utility.yul\":6183:6215   */\n      swap1\n      pop\n        /* \"#utility.yul\":6131:6221   */\n      swap2\n      swap1\n      pop\n      jump\t// out\n        /* \"#utility.yul\":6227:6353   */\n    tag_198:\n        /* \"#utility.yul\":6264:6271   */\n      0x00\n        /* \"#utility.yul\":6304:6346   */\n      0xffffffffffffffffffffffffffffffffffffffff\n        /* \"#utility.yul\":6297:6302   */\n      dup3\n        /* \"#utility.yul\":6293:6347   */\n      and\n        /* \"#utility.yul\":6282:6347   */\n      swap1\n      pop\n        /* \"#utility.yul\":6227:6353   */\n      swap2\n      swap1\n      pop\n      jump\t// out\n        /* \"#utility.yul\":6359:6436   */\n    tag_169:\n        /* \"#utility.yul\":6396:6403   */\n      0x00\n        /* \"#utility.yul\":6425:6430   */\n      dup2\n        /* \"#utility.yul\":6414:6430   */\n      swap1\n      pop\n        /* \"#utility.yul\":6359:6436   */\n      swap2\n      swap1\n      pop\n      jump\t// out\n        /* \"#utility.yul\":6442:6596   */\n    tag_105:\n        /* \"#utility.yul\":6526:6532   */\n      dup3\n        /* \"#utility.yul\":6521:6524   */\n      dup2\n        /* \"#utility.yul\":6516:6519   */\n      dup4\n        /* \"#utility.yul\":6503:6533   */\n      calldatacopy\n        /* \"#utility.yul\":6588:6589   */\n      0x00\n        /* \"#utility.yul\":6579:6585   */\n      dup4\n        /* \"#utility.yul\":6574:6577   */\n      dup4\n        /* \"#utility.yul\":6570:6586   */\n      add\n        /* \"#utility.yul\":6563:6590   */\n      mstore\n        /* \"#utility.yul\":6442:6596   */\n      pop\n      pop\n      pop\n      jump\t// out\n        /* \"#utility.yul\":6602:6909   */\n    tag_163:\n        /* \"#utility.yul\":6670:6671   */\n      0x00\n        /* \"#utility.yul\":6680:6793   */\n    tag_204:\n        /* \"#utility.yul\":6694:6700   */\n      dup4\n        /* \"#utility.yul\":6691:6692   */\n      dup2\n        /* \"#utility.yul\":6688:6701   */\n      lt\n        /* \"#utility.yul\":6680:6793   */\n      iszero\n      tag_206\n      jumpi\n        /* \"#utility.yul\":6779:6780   */\n      dup1\n        /* \"#utility.yul\":6774:6777   */\n      dup3\n        /* \"#utility.yul\":6770:6781   */\n      add\n        /* \"#utility.yul\":6764:6782   */\n      mload\n        /* \"#utility.yul\":6760:6761   */\n      dup2\n        /* \"#utility.yul\":6755:6758   */\n      dup5\n        /* \"#utility.yul\":6751:6762   */\n      add\n        /* \"#utility.yul\":6744:6783   */\n      mstore\n        /* \"#utility.yul\":6716:6718   */\n      0x20\n        /* \"#utility.yul\":6713:6714   */\n      dup2\n        /* \"#utility.yul\":6709:6719   */\n      add\n        /* \"#utility.yul\":6704:6719   */\n      swap1\n      pop\n        /* \"#utility.yul\":6680:6793   */\n      jump(tag_204)\n    tag_206:\n        /* \"#utility.yul\":6811:6817   */\n      dup4\n        /* \"#utility.yul\":6808:6809   */\n      dup2\n        /* \"#utility.yul\":6805:6818   */\n      gt\n        /* \"#utility.yul\":6802:6903   */\n      iszero\n      tag_207\n      jumpi\n        /* \"#utility.yul\":6891:6892   */\n      0x00\n        /* \"#utility.yul\":6882:6888   */\n      dup5\n        /* \"#utility.yul\":6877:6880   */\n      dup5\n        /* \"#utility.yul\":6873:6889   */\n      add\n        /* \"#utility.yul\":6866:6893   */\n      mstore\n        /* \"#utility.yul\":6802:6903   */\n    tag_207:\n        /* \"#utility.yul\":6651:6909   */\n      pop\n        /* \"#utility.yul\":6602:6909   */\n      pop\n      pop\n      pop\n      jump\t// out\n        /* \"#utility.yul\":6915:7235   */\n    tag_51:\n        /* \"#utility.yul\":6959:6965   */\n      0x00\n        /* \"#utility.yul\":6996:6997   */\n      0x02\n        /* \"#utility.yul\":6990:6994   */\n      dup3\n        /* \"#utility.yul\":6986:6998   */\n      div\n        /* \"#utility.yul\":6976:6998   */\n      swap1\n      pop\n        /* \"#utility.yul\":7043:7044   */\n      0x01\n        /* \"#utility.yul\":7037:7041   */\n      dup3\n        /* \"#utility.yul\":7033:7045   */\n      and\n        /* \"#utility.yul\":7064:7082   */\n      dup1\n        /* \"#utility.yul\":7054:7135   */\n      tag_209\n      jumpi\n        /* \"#utility.yul\":7120:7124   */\n      0x7f\n        /* \"#utility.yul\":7112:7118   */\n      dup3\n        /* \"#utility.yul\":7108:7125   */\n      and\n        /* \"#utility.yul\":7098:7125   */\n      swap2\n      pop\n        /* \"#utility.yul\":7054:7135   */\n    tag_209:\n        /* \"#utility.yul\":7182:7184   */\n      0x20\n        /* \"#utility.yul\":7174:7180   */\n      dup3\n        /* \"#utility.yul\":7171:7185   */\n      lt\n        /* \"#utility.yul\":7151:7169   */\n      dup2\n        /* \"#utility.yul\":7148:7186   */\n      eq\n        /* \"#utility.yul\":7145:7229   */\n      iszero\n      tag_210\n      jumpi\n        /* \"#utility.yul\":7201:7219   */\n      tag_211\n      tag_212\n      jump\t// in\n    tag_211:\n        /* \"#utility.yul\":7145:7229   */\n    tag_210:\n        /* \"#utility.yul\":6966:7235   */\n      pop\n        /* \"#utility.yul\":6915:7235   */\n      swap2\n      swap1\n      pop\n      jump\t// out\n        /* \"#utility.yul\":7241:7522   */\n    tag_181:\n        /* \"#utility.yul\":7324:7351   */\n      tag_214\n        /* \"#utility.yul\":7346:7350   */\n      dup3\n        /* \"#utility.yul\":7324:7351   */\n      tag_165\n      jump\t// in\n    tag_214:\n        /* \"#utility.yul\":7316:7322   */\n      dup2\n        /* \"#utility.yul\":7312:7352   */\n      add\n        /* \"#utility.yul\":7454:7460   */\n      dup2\n        /* \"#utility.yul\":7442:7452   */\n      dup2\n        /* \"#utility.yul\":7439:7461   */\n      lt\n        /* \"#utility.yul\":7418:7436   */\n      0xffffffffffffffff\n        /* \"#utility.yul\":7406:7416   */\n      dup3\n        /* \"#utility.yul\":7403:7437   */\n      gt\n        /* \"#utility.yul\":7400:7462   */\n      or\n        /* \"#utility.yul\":7397:7485   */\n      iszero\n      tag_215\n      jumpi\n        /* \"#utility.yul\":7465:7483   */\n      tag_216\n      tag_186\n      jump\t// in\n    tag_216:\n        /* \"#utility.yul\":7397:7485   */\n    tag_215:\n        /* \"#utility.yul\":7505:7515   */\n      dup1\n        /* \"#utility.yul\":7501:7503   */\n      0x40\n        /* \"#utility.yul\":7494:7516   */\n      mstore\n        /* \"#utility.yul\":7284:7522   */\n      pop\n        /* \"#utility.yul\":7241:7522   */\n      pop\n      pop\n      jump\t// out\n        /* \"#utility.yul\":7528:7761   */\n    tag_69:\n        /* \"#utility.yul\":7567:7570   */\n      0x00\n        /* \"#utility.yul\":7590:7614   */\n      tag_218\n        /* \"#utility.yul\":7608:7613   */\n      dup3\n        /* \"#utility.yul\":7590:7614   */\n      tag_169\n      jump\t// in\n    tag_218:\n        /* \"#utility.yul\":7581:7614   */\n      swap2\n      pop\n        /* \"#utility.yul\":7636:7702   */\n      0xffffffffffffffffffffffffffffffffffffffffffffffffffffffffffffffff\n        /* \"#utility.yul\":7629:7634   */\n      dup3\n        /* \"#utility.yul\":7626:7703   */\n      eq\n        /* \"#utility.yul\":7623:7726   */\n      iszero\n      tag_219\n      jumpi\n        /* \"#utility.yul\":7706:7724   */\n      tag_220\n      tag_195\n      jump\t// in\n    tag_220:\n        /* \"#utility.yul\":7623:7726   */\n    tag_219:\n        /* \"#utility.yul\":7753:7754   */\n      0x01\n        /* \"#utility.yul\":7746:7751   */\n      dup3\n        /* \"#utility.yul\":7742:7755   */\n      add\n        /* \"#utility.yul\":7735:7755   */\n      swap1\n      pop\n        /* \"#utility.yul\":7528:7761   */\n      swap2\n      swap1\n      pop\n      jump\t// out\n        /* \"#utility.yul\":7767:7947   */\n    tag_195:\n        /* \"#utility.yul\":7815:7892   */\n      0x4e487b7100000000000000000000000000000000000000000000000000000000\n        /* \"#utility.yul\":7812:7813   */\n      0x00\n        /* \"#utility.yul\":7805:7893   */\n      mstore\n        /* \"#utility.yul\":7912:7916   */\n      0x11\n        /* \"#utility.yul\":7909:7910   */\n      0x04\n        /* \"#utility.yul\":7902:7917   */\n      mstore\n        /* \"#utility.yul\":7936:7940   */\n      0x24\n        /* \"#utility.yul\":7933:7934   */\n      0x00\n        /* \"#utility.yul\":7926:7941   */\n      revert\n        /* \"#utility.yul\":7953:8133   */\n    tag_212:\n        /* \"#utility.yul\":8001:8078   */\n      0x4e487b7100000000000000000000000000000000000000000000000000000000\n        /* \"#utility.yul\":7998:7999   */\n      0x00\n        /* \"#utility.yul\":7991:8079   */\n      mstore\n        /* \"#utility.yul\":8098:8102   */\n      0x22\n        /* \"#utility.yul\":8095:8096   */\n      0x04\n        /* \"#utility.yul\":8088:8103   */\n      mstore\n        /* \"#utility.yul\":8122:8126   */\n      0x24\n        /* \"#utility.yul\":8119:8120   */\n      0x00\n        /* \"#utility.yul\":8112:8127   */\n      revert\n        /* \"#utility.yul\":8139:8319   */\n    tag_62:\n        /* \"#utility.yul\":8187:8264   */\n      0x4e487b7100000000000000000000000000000000000000000000000000000000\n        /* \"#utility.yul\":8184:8185   */\n      0x00\n        /* \"#utility.yul\":8177:8265   */\n      mstore\n        /* \"#utility.yul\":8284:8288   */\n      0x32\n        /* \"#utility.yul\":8281:8282   */\n      0x04\n        /* \"#utility.yul\":8274:8289   */\n      mstore\n        /* \"#utility.yul\":8308:8312   */\n      0x24\n        /* \"#utility.yul\":8305:8306   */\n      0x00\n        /* \"#utility.yul\":8298:8313   */\n      revert\n        /* \"#utility.yul\":8325:8505   */\n    tag_186:\n        /* \"#utility.yul\":8373:8450   */\n      0x4e487b7100000000000000000000000000000000000000000000000000000000\n        /* \"#utility.yul\":8370:8371   */\n      0x00\n        /* \"#utility.yul\":8363:8451   */\n      mstore\n        /* \"#utility.yul\":8470:8474   */\n      0x41\n        /* \"#utility.yul\":8467:8468   */\n      0x04\n        /* \"#utility.yul\":8460:8475   */\n      mstore\n        /* \"#utility.yul\":8494:8498   */\n      0x24\n        /* \"#utility.yul\":8491:8492   */\n      0x00\n        /* \"#utility.yul\":8484:8499   */\n      revert\n        /* \"#utility.yul\":8511:8628   */\n    tag_118:\n        /* \"#utility.yul\":8620:8621   */\n      0x00\n        /* \"#utility.yul\":8617:8618   */\n      dup1\n        /* \"#utility.yul\":8610:8622   */\n      revert\n        /* \"#utility.yul\":8634:8751   */\n    tag_103:\n        /* \"#utility.yul\":8743:8744   */\n      0x00\n        /* \"#utility.yul\":8740:8741   */\n      dup1\n        /* \"#utility.yul\":8733:8745   */\n      revert\n        /* \"#utility.yul\":8757:8874   */\n    tag_135:\n        /* \"#utility.yul\":8866:8867   */\n      0x00\n        /* \"#utility.yul\":8863:8864   */\n      dup1\n        /* \"#utility.yul\":8856:8868   */\n      revert\n        /* \"#utility.yul\":8880:8997   */\n    tag_127:\n        /* \"#utility.yul\":8989:8990   */\n      0x00\n        /* \"#utility.yul\":8986:8987   */\n      dup1\n        /* \"#utility.yul\":8979:8991   */\n      revert\n        /* \"#utility.yul\":9003:9105   */\n    tag_165:\n        /* \"#utility.yul\":9044:9050   */\n      0x00\n        /* \"#utility.yul\":9095:9097   */\n      0x1f\n        /* \"#utility.yul\":9091:9098   */\n      not\n        /* \"#utility.yul\":9086:9088   */\n      0x1f\n        /* \"#utility.yul\":9079:9084   */\n      dup4\n        /* \"#utility.yul\":9075:9089   */\n      add\n        /* \"#utility.yul\":9071:9099   */\n      and\n        /* \"#utility.yul\":9061:9099   */\n      swap1\n      pop\n        /* \"#utility.yul\":9003:9105   */\n      swap2\n      swap1\n      pop\n      jump\t// out\n        /* \"#utility.yul\":9111:9233   */\n    tag_109:\n        /* \"#utility.yul\":9184:9208   */\n      tag_231\n        /* \"#utility.yul\":9202:9207   */\n      dup2\n        /* \"#utility.yul\":9184:9208   */\n      tag_151\n      jump\t// in\n    tag_231:\n        /* \"#utility.yul\":9177:9182   */\n      dup2\n        /* \"#utility.yul\":9174:9209   */\n      eq\n        /* \"#utility.yul\":9164:9227   */\n      tag_232\n      jumpi\n        /* \"#utility.yul\":9223:9224   */\n      0x00\n        /* \"#utility.yul\":9220:9221   */\n      dup1\n        /* \"#utility.yul\":9213:9225   */\n      revert\n        /* \"#utility.yul\":9164:9227   */\n    tag_232:\n        /* \"#utility.yul\":9111:9233   */\n      pop\n      jump\t// out\n        /* \"#utility.yul\":9239:9355   */\n    tag_113:\n        /* \"#utility.yul\":9309:9330   */\n      tag_234\n        /* \"#utility.yul\":9324:9329   */\n      dup2\n        /* \"#utility.yul\":9309:9330   */\n      tag_155\n      jump\t// in\n    tag_234:\n        /* \"#utility.yul\":9302:9307   */\n      dup2\n        /* \"#utility.yul\":9299:9331   */\n      eq\n        /* \"#utility.yul\":9289:9349   */\n      tag_235\n      jumpi\n        /* \"#utility.yul\":9345:9346   */\n      0x00\n        /* \"#utility.yul\":9342:9343   */\n      dup1\n        /* \"#utility.yul\":9335:9347   */\n      revert\n        /* \"#utility.yul\":9289:9349   */\n    tag_235:\n        /* \"#utility.yul\":9239:9355   */\n      pop\n      jump\t// out\n        /* \"#utility.yul\":9361:9483   */\n    tag_123:\n        /* \"#utility.yul\":9434:9458   */\n      tag_237\n        /* \"#utility.yul\":9452:9457   */\n      dup2\n        /* \"#utility.yul\":9434:9458   */\n      tag_169\n      jump\t// in\n    tag_237:\n        /* \"#utility.yul\":9427:9432   */\n      dup2\n        /* \"#utility.yul\":9424:9459   */\n      eq\n        /* \"#utility.yul\":9414:9477   */\n      tag_238\n      jumpi\n        /* \"#utility.yul\":9473:9474   */\n      0x00\n        /* \"#utility.yul\":9470:9471   */\n      dup1\n        /* \"#utility.yul\":9463:9475   */\n      revert\n        /* \"#utility.yul\":9414:9477   */\n    tag_238:\n        /* \"#utility.yul\":9361:9483   */\n      pop\n      jump\t// out\n\n    auxdata: 0xa2646970667358221220832b7e9b9f5e4e439e9c3904c1c14c8dac3b3a639461e562e107617e554c69e164736f6c63430008070033\n}\n",
				"bytecode": {
					"linkReferences": {},
					"object": "608060405234801561001057600080fd5b50336000806101000a81548173ffffffffffffffffffffffffffffffffffffffff021916908373ffffffffffffffffffffffffffffffffffffffff160217905550610c2b806100606000396000f3fe6080604052600436106100555760003560e01c80630b1019f01461005a5780631a69523014610083578063280879e71461009f578063365b98b2146100c85780636f7bc9be1461010857806370a0823114610145575b600080fd5b34801561006657600080fd5b50610081600480360381019061007c9190610797565b610182565b005b61009d600480360381019061009891906106e7565b6101ca565b005b3480156100ab57600080fd5b506100c660048036038101906100c19190610714565b6101d6565b005b3480156100d457600080fd5b506100ef60048036038101906100ea91906107d7565b6102d0565b6040516100ff949392919061086a565b60405180910390f35b34801561011457600080fd5b5061012f600480360381019061012a91906106e7565b6103c5565b60405161013c91906108b6565b60405180910390f35b34801561015157600080fd5b5061016c600480360381019061016791906106e7565b6103dd565b60405161017991906108b6565b60405180910390f35b80600260008473ffffffffffffffffffffffffffffffffffffffff1673ffffffffffffffffffffffffffffffffffffffff168152602001908152602001600020819055505050565b6101d3816104b8565b50565b600160405180608001604052808673ffffffffffffffffffffffffffffffffffffffff168152602001858152602001848152602001831515815250908060018154018082558091505060019003906000526020600020906004020160009091909190915060008201518160000160006101000a81548173ffffffffffffffffffffffffffffffffffffffff021916908373ffffffffffffffffffffffffffffffffffffffff160217905550602082015181600101908051906020019061029d929190610595565b506040820151816002015560608201518160030160006101000a81548160ff021916908315150217905550505050505050565b600181815481106102e057600080fd5b90600052602060002090600402016000915090508060000160009054906101000a900473ffffffffffffffffffffffffffffffffffffffff169080600101805461032990610a23565b80601f016020809104026020016040519081016040528092919081815260200182805461035590610a23565b80156103a25780601f10610377576101008083540402835291602001916103a2565b820191906000526020600020905b81548152906001019060200180831161038557829003601f168201915b5050505050908060020154908060030160009054906101000a900460ff16905084565b60026020528060005260406000206000915090505481565b600080600090505b6001805490508110156104ac578273ffffffffffffffffffffffffffffffffffffffff166001828154811061041d5761041c610b2d565b5b906000526020600020906004020160000160009054906101000a900473ffffffffffffffffffffffffffffffffffffffff1673ffffffffffffffffffffffffffffffffffffffff161415610499576001818154811061047f5761047e610b2d565b5b9060005260206000209060040201600201549150506104b3565b80806104a490610a86565b9150506103e5565b506103e790505b919050565b60005b600180549050811015610591578173ffffffffffffffffffffffffffffffffffffffff16600182815481106104f3576104f2610b2d565b5b906000526020600020906004020160000160009054906101000a900473ffffffffffffffffffffffffffffffffffffffff1673ffffffffffffffffffffffffffffffffffffffff16141561057e57346001828154811061055657610555610b2d565b5b906000526020600020906004020160020160008282546105769190610943565b925050819055505b808061058990610a86565b9150506104bb565b5050565b8280546105a190610a23565b90600052602060002090601f0160209004810192826105c3576000855561060a565b82601f106105dc57805160ff191683800117855561060a565b8280016001018555821561060a579182015b828111156106095782518255916020019190600101906105ee565b5b509050610617919061061b565b5090565b5b8082111561063457600081600090555060010161061c565b5090565b600061064b610646846108f6565b6108d1565b90508281526020810184848401111561066757610666610b90565b5b6106728482856109e1565b509392505050565b60008135905061068981610bb0565b92915050565b60008135905061069e81610bc7565b92915050565b600082601f8301126106b9576106b8610b8b565b5b81356106c9848260208601610638565b91505092915050565b6000813590506106e181610bde565b92915050565b6000602082840312156106fd576106fc610b9a565b5b600061070b8482850161067a565b91505092915050565b6000806000806080858703121561072e5761072d610b9a565b5b600061073c8782880161067a565b945050602085013567ffffffffffffffff81111561075d5761075c610b95565b5b610769878288016106a4565b935050604061077a878288016106d2565b925050606061078b8782880161068f565b91505092959194509250565b600080604083850312156107ae576107ad610b9a565b5b60006107bc8582860161067a565b92505060206107cd858286016106d2565b9150509250929050565b6000602082840312156107ed576107ec610b9a565b5b60006107fb848285016106d2565b91505092915050565b61080d81610999565b82525050565b61081c816109ab565b82525050565b600061082d82610927565b6108378185610932565b93506108478185602086016109f0565b61085081610b9f565b840191505092915050565b610864816109d7565b82525050565b600060808201905061087f6000830187610804565b81810360208301526108918186610822565b90506108a0604083018561085b565b6108ad6060830184610813565b95945050505050565b60006020820190506108cb600083018461085b565b92915050565b60006108db6108ec565b90506108e78282610a55565b919050565b6000604051905090565b600067ffffffffffffffff82111561091157610910610b5c565b5b61091a82610b9f565b9050602081019050919050565b600081519050919050565b600082825260208201905092915050565b600061094e826109d7565b9150610959836109d7565b9250827fffffffffffffffffffffffffffffffffffffffffffffffffffffffffffffffff0382111561098e5761098d610acf565b5b828201905092915050565b60006109a4826109b7565b9050919050565b60008115159050919050565b600073ffffffffffffffffffffffffffffffffffffffff82169050919050565b6000819050919050565b82818337600083830152505050565b60005b83811015610a0e5780820151818401526020810190506109f3565b83811115610a1d576000848401525b50505050565b60006002820490506001821680610a3b57607f821691505b60208210811415610a4f57610a4e610afe565b5b50919050565b610a5e82610b9f565b810181811067ffffffffffffffff82111715610a7d57610a7c610b5c565b5b80604052505050565b6000610a91826109d7565b91507fffffffffffffffffffffffffffffffffffffffffffffffffffffffffffffffff821415610ac457610ac3610acf565b5b600182019050919050565b7f4e487b7100000000000000000000000000000000000000000000000000000000600052601160045260246000fd5b7f4e487b7100000000000000000000000000000000000000000000000000000000600052602260045260246000fd5b7f4e487b7100000000000000000000000000000000000000000000000000000000600052603260045260246000fd5b7f4e487b7100000000000000000000000000000000000000000000000000000000600052604160045260246000fd5b600080fd5b600080fd5b600080fd5b600080fd5b6000601f19601f8301169050919050565b610bb981610999565b8114610bc457600080fd5b50565b610bd0816109ab565b8114610bdb57600080fd5b50565b610be7816109d7565b8114610bf257600080fd5b5056fea2646970667358221220832b7e9b9f5e4e439e9c3904c1c14c8dac3b3a639461e562e107617e554c69e164736f6c63430008070033",
					"opcodes": "PUSH1 0x80 PUSH1 0x40 MSTORE CALLVALUE DUP1 ISZERO PUSH2 0x10 JUMPI PUSH1 0x0 DUP1 REVERT JUMPDEST POP CALLER PUSH1 0x0 DUP1 PUSH2 0x100 EXP DUP2 SLOAD DUP2 PUSH20 0xFFFFFFFFFFFFFFFFFFFFFFFFFFFFFFFFFFFFFFFF MUL NOT AND SWAP1 DUP4 PUSH20 0xFFFFFFFFFFFFFFFFFFFFFFFFFFFFFFFFFFFFFFFF AND MUL OR SWAP1 SSTORE POP PUSH2 0xC2B DUP1 PUSH2 0x60 PUSH1 0x0 CODECOPY PUSH1 0x0 RETURN INVALID PUSH1 0x80 PUSH1 0x40 MSTORE PUSH1 0x4 CALLDATASIZE LT PUSH2 0x55 JUMPI PUSH1 0x0 CALLDATALOAD PUSH1 0xE0 SHR DUP1 PUSH4 0xB1019F0 EQ PUSH2 0x5A JUMPI DUP1 PUSH4 0x1A695230 EQ PUSH2 0x83 JUMPI DUP1 PUSH4 0x280879E7 EQ PUSH2 0x9F JUMPI DUP1 PUSH4 0x365B98B2 EQ PUSH2 0xC8 JUMPI DUP1 PUSH4 0x6F7BC9BE EQ PUSH2 0x108 JUMPI DUP1 PUSH4 0x70A08231 EQ PUSH2 0x145 JUMPI JUMPDEST PUSH1 0x0 DUP1 REVERT JUMPDEST CALLVALUE DUP1 ISZERO PUSH2 0x66 JUMPI PUSH1 0x0 DUP1 REVERT JUMPDEST POP PUSH2 0x81 PUSH1 0x4 DUP1 CALLDATASIZE SUB DUP2 ADD SWAP1 PUSH2 0x7C SWAP2 SWAP1 PUSH2 0x797 JUMP JUMPDEST PUSH2 0x182 JUMP JUMPDEST STOP JUMPDEST PUSH2 0x9D PUSH1 0x4 DUP1 CALLDATASIZE SUB DUP2 ADD SWAP1 PUSH2 0x98 SWAP2 SWAP1 PUSH2 0x6E7 JUMP JUMPDEST PUSH2 0x1CA JUMP JUMPDEST STOP JUMPDEST CALLVALUE DUP1 ISZERO PUSH2 0xAB JUMPI PUSH1 0x0 DUP1 REVERT JUMPDEST POP PUSH2 0xC6 PUSH1 0x4 DUP1 CALLDATASIZE SUB DUP2 ADD SWAP1 PUSH2 0xC1 SWAP2 SWAP1 PUSH2 0x714 JUMP JUMPDEST PUSH2 0x1D6 JUMP JUMPDEST STOP JUMPDEST CALLVALUE DUP1 ISZERO PUSH2 0xD4 JUMPI PUSH1 0x0 DUP1 REVERT JUMPDEST POP PUSH2 0xEF PUSH1 0x4 DUP1 CALLDATASIZE SUB DUP2 ADD SWAP1 PUSH2 0xEA SWAP2 SWAP1 PUSH2 0x7D7 JUMP JUMPDEST PUSH2 0x2D0 JUMP JUMPDEST PUSH1 0x40 MLOAD PUSH2 0xFF SWAP5 SWAP4 SWAP3 SWAP2 SWAP1 PUSH2 0x86A JUMP JUMPDEST PUSH1 0x40 MLOAD DUP1 SWAP2 SUB SWAP1 RETURN JUMPDEST CALLVALUE DUP1 ISZERO PUSH2 0x114 JUMPI PUSH1 0x0 DUP1 REVERT JUMPDEST POP PUSH2 0x12F PUSH1 0x4 DUP1 CALLDATASIZE SUB DUP2 ADD SWAP1 PUSH2 0x12A SWAP2 SWAP1 PUSH2 0x6E7 JUMP JUMPDEST PUSH2 0x3C5 JUMP JUMPDEST PUSH1 0x40 MLOAD PUSH2 0x13C SWAP2 SWAP1 PUSH2 0x8B6 JUMP JUMPDEST PUSH1 0x40 MLOAD DUP1 SWAP2 SUB SWAP1 RETURN JUMPDEST CALLVALUE DUP1 ISZERO PUSH2 0x151 JUMPI PUSH1 0x0 DUP1 REVERT JUMPDEST POP PUSH2 0x16C PUSH1 0x4 DUP1 CALLDATASIZE SUB DUP2 ADD SWAP1 PUSH2 0x167 SWAP2 SWAP1 PUSH2 0x6E7 JUMP JUMPDEST PUSH2 0x3DD JUMP JUMPDEST PUSH1 0x40 MLOAD PUSH2 0x179 SWAP2 SWAP1 PUSH2 0x8B6 JUMP JUMPDEST PUSH1 0x40 MLOAD DUP1 SWAP2 SUB SWAP1 RETURN JUMPDEST DUP1 PUSH1 0x2 PUSH1 0x0 DUP5 PUSH20 0xFFFFFFFFFFFFFFFFFFFFFFFFFFFFFFFFFFFFFFFF AND PUSH20 0xFFFFFFFFFFFFFFFFFFFFFFFFFFFFFFFFFFFFFFFF AND DUP2 MSTORE PUSH1 0x20 ADD SWAP1 DUP2 MSTORE PUSH1 0x20 ADD PUSH1 0x0 KECCAK256 DUP2 SWAP1 SSTORE POP POP POP JUMP JUMPDEST PUSH2 0x1D3 DUP2 PUSH2 0x4B8 JUMP JUMPDEST POP JUMP JUMPDEST PUSH1 0x1 PUSH1 0x40 MLOAD DUP1 PUSH1 0x80 ADD PUSH1 0x40 MSTORE DUP1 DUP7 PUSH20 0xFFFFFFFFFFFFFFFFFFFFFFFFFFFFFFFFFFFFFFFF AND DUP2 MSTORE PUSH1 0x20 ADD DUP6 DUP2 MSTORE PUSH1 0x20 ADD DUP5 DUP2 MSTORE PUSH1 0x20 ADD DUP4 ISZERO ISZERO DUP2 MSTORE POP SWAP1 DUP1 PUSH1 0x1 DUP2 SLOAD ADD DUP1 DUP3 SSTORE DUP1 SWAP2 POP POP PUSH1 0x1 SWAP1 SUB SWAP1 PUSH1 0x0 MSTORE PUSH1 0x20 PUSH1 0x0 KECCAK256 SWAP1 PUSH1 0x4 MUL ADD PUSH1 0x0 SWAP1 SWAP2 SWAP1 SWAP2 SWAP1 SWAP2 POP PUSH1 0x0 DUP3 ADD MLOAD DUP2 PUSH1 0x0 ADD PUSH1 0x0 PUSH2 0x100 EXP DUP2 SLOAD DUP2 PUSH20 0xFFFFFFFFFFFFFFFFFFFFFFFFFFFFFFFFFFFFFFFF MUL NOT AND SWAP1 DUP4 PUSH20 0xFFFFFFFFFFFFFFFFFFFFFFFFFFFFFFFFFFFFFFFF AND MUL OR SWAP1 SSTORE POP PUSH1 0x20 DUP3 ADD MLOAD DUP2 PUSH1 0x1 ADD SWAP1 DUP1 MLOAD SWAP1 PUSH1 0x20 ADD SWAP1 PUSH2 0x29D SWAP3 SWAP2 SWAP1 PUSH2 0x595 JUMP JUMPDEST POP PUSH1 0x40 DUP3 ADD MLOAD DUP2 PUSH1 0x2 ADD SSTORE PUSH1 0x60 DUP3 ADD MLOAD DUP2 PUSH1 0x3 ADD PUSH1 0x0 PUSH2 0x100 EXP DUP2 SLOAD DUP2 PUSH1 0xFF MUL NOT AND SWAP1 DUP4 ISZERO ISZERO MUL OR SWAP1 SSTORE POP POP POP POP POP POP POP JUMP JUMPDEST PUSH1 0x1 DUP2 DUP2 SLOAD DUP2 LT PUSH2 0x2E0 JUMPI PUSH1 0x0 DUP1 REVERT JUMPDEST SWAP1 PUSH1 0x0 MSTORE PUSH1 0x20 PUSH1 0x0 KECCAK256 SWAP1 PUSH1 0x4 MUL ADD PUSH1 0x0 SWAP2 POP SWAP1 POP DUP1 PUSH1 0x0 ADD PUSH1 0x0 SWAP1 SLOAD SWAP1 PUSH2 0x100 EXP SWAP1 DIV PUSH20 0xFFFFFFFFFFFFFFFFFFFFFFFFFFFFFFFFFFFFFFFF AND SWAP1 DUP1 PUSH1 0x1 ADD DUP1 SLOAD PUSH2 0x329 SWAP1 PUSH2 0xA23 JUMP JUMPDEST DUP1 PUSH1 0x1F ADD PUSH1 0x20 DUP1 SWAP2 DIV MUL PUSH1 0x20 ADD PUSH1 0x40 MLOAD SWAP1 DUP2 ADD PUSH1 0x40 MSTORE DUP1 SWAP3 SWAP2 SWAP1 DUP2 DUP2 MSTORE PUSH1 0x20 ADD DUP3 DUP1 SLOAD PUSH2 0x355 SWAP1 PUSH2 0xA23 JUMP JUMPDEST DUP1 ISZERO PUSH2 0x3A2 JUMPI DUP1 PUSH1 0x1F LT PUSH2 0x377 JUMPI PUSH2 0x100 DUP1 DUP4 SLOAD DIV MUL DUP4 MSTORE SWAP2 PUSH1 0x20 ADD SWAP2 PUSH2 0x3A2 JUMP JUMPDEST DUP3 ADD SWAP2 SWAP1 PUSH1 0x0 MSTORE PUSH1 0x20 PUSH1 0x0 KECCAK256 SWAP1 JUMPDEST DUP2 SLOAD DUP2 MSTORE SWAP1 PUSH1 0x1 ADD SWAP1 PUSH1 0x20 ADD DUP1 DUP4 GT PUSH2 0x385 JUMPI DUP3 SWAP1 SUB PUSH1 0x1F AND DUP3 ADD SWAP2 JUMPDEST POP POP POP POP POP SWAP1 DUP1 PUSH1 0x2 ADD SLOAD SWAP1 DUP1 PUSH1 0x3 ADD PUSH1 0x0 SWAP1 SLOAD SWAP1 PUSH2 0x100 EXP SWAP1 DIV PUSH1 0xFF AND SWAP1 POP DUP5 JUMP JUMPDEST PUSH1 0x2 PUSH1 0x20 MSTORE DUP1 PUSH1 0x0 MSTORE PUSH1 0x40 PUSH1 0x0 KECCAK256 PUSH1 0x0 SWAP2 POP SWAP1 POP SLOAD DUP2 JUMP JUMPDEST PUSH1 0x0 DUP1 PUSH1 0x0 SWAP1 POP JUMPDEST PUSH1 0x1 DUP1 SLOAD SWAP1 POP DUP2 LT ISZERO PUSH2 0x4AC JUMPI DUP3 PUSH20 0xFFFFFFFFFFFFFFFFFFFFFFFFFFFFFFFFFFFFFFFF AND PUSH1 0x1 DUP3 DUP2 SLOAD DUP2 LT PUSH2 0x41D JUMPI PUSH2 0x41C PUSH2 0xB2D JUMP JUMPDEST JUMPDEST SWAP1 PUSH1 0x0 MSTORE PUSH1 0x20 PUSH1 0x0 KECCAK256 SWAP1 PUSH1 0x4 MUL ADD PUSH1 0x0 ADD PUSH1 0x0 SWAP1 SLOAD SWAP1 PUSH2 0x100 EXP SWAP1 DIV PUSH20 0xFFFFFFFFFFFFFFFFFFFFFFFFFFFFFFFFFFFFFFFF AND PUSH20 0xFFFFFFFFFFFFFFFFFFFFFFFFFFFFFFFFFFFFFFFF AND EQ ISZERO PUSH2 0x499 JUMPI PUSH1 0x1 DUP2 DUP2 SLOAD DUP2 LT PUSH2 0x47F JUMPI PUSH2 0x47E PUSH2 0xB2D JUMP JUMPDEST JUMPDEST SWAP1 PUSH1 0x0 MSTORE PUSH1 0x20 PUSH1 0x0 KECCAK256 SWAP1 PUSH1 0x4 MUL ADD PUSH1 0x2 ADD SLOAD SWAP2 POP POP PUSH2 0x4B3 JUMP JUMPDEST DUP1 DUP1 PUSH2 0x4A4 SWAP1 PUSH2 0xA86 JUMP JUMPDEST SWAP2 POP POP PUSH2 0x3E5 JUMP JUMPDEST POP PUSH2 0x3E7 SWAP1 POP JUMPDEST SWAP2 SWAP1 POP JUMP JUMPDEST PUSH1 0x0 JUMPDEST PUSH1 0x1 DUP1 SLOAD SWAP1 POP DUP2 LT ISZERO PUSH2 0x591 JUMPI DUP2 PUSH20 0xFFFFFFFFFFFFFFFFFFFFFFFFFFFFFFFFFFFFFFFF AND PUSH1 0x1 DUP3 DUP2 SLOAD DUP2 LT PUSH2 0x4F3 JUMPI PUSH2 0x4F2 PUSH2 0xB2D JUMP JUMPDEST JUMPDEST SWAP1 PUSH1 0x0 MSTORE PUSH1 0x20 PUSH1 0x0 KECCAK256 SWAP1 PUSH1 0x4 MUL ADD PUSH1 0x0 ADD PUSH1 0x0 SWAP1 SLOAD SWAP1 PUSH2 0x100 EXP SWAP1 DIV PUSH20 0xFFFFFFFFFFFFFFFFFFFFFFFFFFFFFFFFFFFFFFFF AND PUSH20 0xFFFFFFFFFFFFFFFFFFFFFFFFFFFFFFFFFFFFFFFF AND EQ ISZERO PUSH2 0x57E JUMPI CALLVALUE PUSH1 0x1 DUP3 DUP2 SLOAD DUP2 LT PUSH2 0x556 JUMPI PUSH2 0x555 PUSH2 0xB2D JUMP JUMPDEST JUMPDEST SWAP1 PUSH1 0x0 MSTORE PUSH1 0x20 PUSH1 0x0 KECCAK256 SWAP1 PUSH1 0x4 MUL ADD PUSH1 0x2 ADD PUSH1 0x0 DUP3 DUP3 SLOAD PUSH2 0x576 SWAP2 SWAP1 PUSH2 0x943 JUMP JUMPDEST SWAP3 POP POP DUP2 SWAP1 SSTORE POP JUMPDEST DUP1 DUP1 PUSH2 0x589 SWAP1 PUSH2 0xA86 JUMP JUMPDEST SWAP2 POP POP PUSH2 0x4BB JUMP JUMPDEST POP POP JUMP JUMPDEST DUP3 DUP1 SLOAD PUSH2 0x5A1 SWAP1 PUSH2 0xA23 JUMP JUMPDEST SWAP1 PUSH1 0x0 MSTORE PUSH1 0x20 PUSH1 0x0 KECCAK256 SWAP1 PUSH1 0x1F ADD PUSH1 0x20 SWAP1 DIV DUP2 ADD SWAP3 DUP3 PUSH2 0x5C3 JUMPI PUSH1 0x0 DUP6 SSTORE PUSH2 0x60A JUMP JUMPDEST DUP3 PUSH1 0x1F LT PUSH2 0x5DC JUMPI DUP1 MLOAD PUSH1 0xFF NOT AND DUP4 DUP1 ADD OR DUP6 SSTORE PUSH2 0x60A JUMP JUMPDEST DUP3 DUP1 ADD PUSH1 0x1 ADD DUP6 SSTORE DUP3 ISZERO PUSH2 0x60A JUMPI SWAP2 DUP3 ADD JUMPDEST DUP3 DUP2 GT ISZERO PUSH2 0x609 JUMPI DUP3 MLOAD DUP3 SSTORE SWAP2 PUSH1 0x20 ADD SWAP2 SWAP1 PUSH1 0x1 ADD SWAP1 PUSH2 0x5EE JUMP JUMPDEST JUMPDEST POP SWAP1 POP PUSH2 0x617 SWAP2 SWAP1 PUSH2 0x61B JUMP JUMPDEST POP SWAP1 JUMP JUMPDEST JUMPDEST DUP1 DUP3 GT ISZERO PUSH2 0x634 JUMPI PUSH1 0x0 DUP2 PUSH1 0x0 SWAP1 SSTORE POP PUSH1 0x1 ADD PUSH2 0x61C JUMP JUMPDEST POP SWAP1 JUMP JUMPDEST PUSH1 0x0 PUSH2 0x64B PUSH2 0x646 DUP5 PUSH2 0x8F6 JUMP JUMPDEST PUSH2 0x8D1 JUMP JUMPDEST SWAP1 POP DUP3 DUP2 MSTORE PUSH1 0x20 DUP2 ADD DUP5 DUP5 DUP5 ADD GT ISZERO PUSH2 0x667 JUMPI PUSH2 0x666 PUSH2 0xB90 JUMP JUMPDEST JUMPDEST PUSH2 0x672 DUP5 DUP3 DUP6 PUSH2 0x9E1 JUMP JUMPDEST POP SWAP4 SWAP3 POP POP POP JUMP JUMPDEST PUSH1 0x0 DUP2 CALLDATALOAD SWAP1 POP PUSH2 0x689 DUP2 PUSH2 0xBB0 JUMP JUMPDEST SWAP3 SWAP2 POP POP JUMP JUMPDEST PUSH1 0x0 DUP2 CALLDATALOAD SWAP1 POP PUSH2 0x69E DUP2 PUSH2 0xBC7 JUMP JUMPDEST SWAP3 SWAP2 POP POP JUMP JUMPDEST PUSH1 0x0 DUP3 PUSH1 0x1F DUP4 ADD SLT PUSH2 0x6B9 JUMPI PUSH2 0x6B8 PUSH2 0xB8B JUMP JUMPDEST JUMPDEST DUP2 CALLDATALOAD PUSH2 0x6C9 DUP5 DUP3 PUSH1 0x20 DUP7 ADD PUSH2 0x638 JUMP JUMPDEST SWAP2 POP POP SWAP3 SWAP2 POP POP JUMP JUMPDEST PUSH1 0x0 DUP2 CALLDATALOAD SWAP1 POP PUSH2 0x6E1 DUP2 PUSH2 0xBDE JUMP JUMPDEST SWAP3 SWAP2 POP POP JUMP JUMPDEST PUSH1 0x0 PUSH1 0x20 DUP3 DUP5 SUB SLT ISZERO PUSH2 0x6FD JUMPI PUSH2 0x6FC PUSH2 0xB9A JUMP JUMPDEST JUMPDEST PUSH1 0x0 PUSH2 0x70B DUP5 DUP3 DUP6 ADD PUSH2 0x67A JUMP JUMPDEST SWAP2 POP POP SWAP3 SWAP2 POP POP JUMP JUMPDEST PUSH1 0x0 DUP1 PUSH1 0x0 DUP1 PUSH1 0x80 DUP6 DUP8 SUB SLT ISZERO PUSH2 0x72E JUMPI PUSH2 0x72D PUSH2 0xB9A JUMP JUMPDEST JUMPDEST PUSH1 0x0 PUSH2 0x73C DUP8 DUP3 DUP9 ADD PUSH2 0x67A JUMP JUMPDEST SWAP5 POP POP PUSH1 0x20 DUP6 ADD CALLDATALOAD PUSH8 0xFFFFFFFFFFFFFFFF DUP2 GT ISZERO PUSH2 0x75D JUMPI PUSH2 0x75C PUSH2 0xB95 JUMP JUMPDEST JUMPDEST PUSH2 0x769 DUP8 DUP3 DUP9 ADD PUSH2 0x6A4 JUMP JUMPDEST SWAP4 POP POP PUSH1 0x40 PUSH2 0x77A DUP8 DUP3 DUP9 ADD PUSH2 0x6D2 JUMP JUMPDEST SWAP3 POP POP PUSH1 0x60 PUSH2 0x78B DUP8 DUP3 DUP9 ADD PUSH2 0x68F JUMP JUMPDEST SWAP2 POP POP SWAP3 SWAP6 SWAP2 SWAP5 POP SWAP3 POP JUMP JUMPDEST PUSH1 0x0 DUP1 PUSH1 0x40 DUP4 DUP6 SUB SLT ISZERO PUSH2 0x7AE JUMPI PUSH2 0x7AD PUSH2 0xB9A JUMP JUMPDEST JUMPDEST PUSH1 0x0 PUSH2 0x7BC DUP6 DUP3 DUP7 ADD PUSH2 0x67A JUMP JUMPDEST SWAP3 POP POP PUSH1 0x20 PUSH2 0x7CD DUP6 DUP3 DUP7 ADD PUSH2 0x6D2 JUMP JUMPDEST SWAP2 POP POP SWAP3 POP SWAP3 SWAP1 POP JUMP JUMPDEST PUSH1 0x0 PUSH1 0x20 DUP3 DUP5 SUB SLT ISZERO PUSH2 0x7ED JUMPI PUSH2 0x7EC PUSH2 0xB9A JUMP JUMPDEST JUMPDEST PUSH1 0x0 PUSH2 0x7FB DUP5 DUP3 DUP6 ADD PUSH2 0x6D2 JUMP JUMPDEST SWAP2 POP POP SWAP3 SWAP2 POP POP JUMP JUMPDEST PUSH2 0x80D DUP2 PUSH2 0x999 JUMP JUMPDEST DUP3 MSTORE POP POP JUMP JUMPDEST PUSH2 0x81C DUP2 PUSH2 0x9AB JUMP JUMPDEST DUP3 MSTORE POP POP JUMP JUMPDEST PUSH1 0x0 PUSH2 0x82D DUP3 PUSH2 0x927 JUMP JUMPDEST PUSH2 0x837 DUP2 DUP6 PUSH2 0x932 JUMP JUMPDEST SWAP4 POP PUSH2 0x847 DUP2 DUP6 PUSH1 0x20 DUP7 ADD PUSH2 0x9F0 JUMP JUMPDEST PUSH2 0x850 DUP2 PUSH2 0xB9F JUMP JUMPDEST DUP5 ADD SWAP2 POP POP SWAP3 SWAP2 POP POP JUMP JUMPDEST PUSH2 0x864 DUP2 PUSH2 0x9D7 JUMP JUMPDEST DUP3 MSTORE POP POP JUMP JUMPDEST PUSH1 0x0 PUSH1 0x80 DUP3 ADD SWAP1 POP PUSH2 0x87F PUSH1 0x0 DUP4 ADD DUP8 PUSH2 0x804 JUMP JUMPDEST DUP2 DUP2 SUB PUSH1 0x20 DUP4 ADD MSTORE PUSH2 0x891 DUP2 DUP7 PUSH2 0x822 JUMP JUMPDEST SWAP1 POP PUSH2 0x8A0 PUSH1 0x40 DUP4 ADD DUP6 PUSH2 0x85B JUMP JUMPDEST PUSH2 0x8AD PUSH1 0x60 DUP4 ADD DUP5 PUSH2 0x813 JUMP JUMPDEST SWAP6 SWAP5 POP POP POP POP POP JUMP JUMPDEST PUSH1 0x0 PUSH1 0x20 DUP3 ADD SWAP1 POP PUSH2 0x8CB PUSH1 0x0 DUP4 ADD DUP5 PUSH2 0x85B JUMP JUMPDEST SWAP3 SWAP2 POP POP JUMP JUMPDEST PUSH1 0x0 PUSH2 0x8DB PUSH2 0x8EC JUMP JUMPDEST SWAP1 POP PUSH2 0x8E7 DUP3 DUP3 PUSH2 0xA55 JUMP JUMPDEST SWAP2 SWAP1 POP JUMP JUMPDEST PUSH1 0x0 PUSH1 0x40 MLOAD SWAP1 POP SWAP1 JUMP JUMPDEST PUSH1 0x0 PUSH8 0xFFFFFFFFFFFFFFFF DUP3 GT ISZERO PUSH2 0x911 JUMPI PUSH2 0x910 PUSH2 0xB5C JUMP JUMPDEST JUMPDEST PUSH2 0x91A DUP3 PUSH2 0xB9F JUMP JUMPDEST SWAP1 POP PUSH1 0x20 DUP2 ADD SWAP1 POP SWAP2 SWAP1 POP JUMP JUMPDEST PUSH1 0x0 DUP2 MLOAD SWAP1 POP SWAP2 SWAP1 POP JUMP JUMPDEST PUSH1 0x0 DUP3 DUP3 MSTORE PUSH1 0x20 DUP3 ADD SWAP1 POP SWAP3 SWAP2 POP POP JUMP JUMPDEST PUSH1 0x0 PUSH2 0x94E DUP3 PUSH2 0x9D7 JUMP JUMPDEST SWAP2 POP PUSH2 0x959 DUP4 PUSH2 0x9D7 JUMP JUMPDEST SWAP3 POP DUP3 PUSH32 0xFFFFFFFFFFFFFFFFFFFFFFFFFFFFFFFFFFFFFFFFFFFFFFFFFFFFFFFFFFFFFFFF SUB DUP3 GT ISZERO PUSH2 0x98E JUMPI PUSH2 0x98D PUSH2 0xACF JUMP JUMPDEST JUMPDEST DUP3 DUP3 ADD SWAP1 POP SWAP3 SWAP2 POP POP JUMP JUMPDEST PUSH1 0x0 PUSH2 0x9A4 DUP3 PUSH2 0x9B7 JUMP JUMPDEST SWAP1 POP SWAP2 SWAP1 POP JUMP JUMPDEST PUSH1 0x0 DUP2 ISZERO ISZERO SWAP1 POP SWAP2 SWAP1 POP JUMP JUMPDEST PUSH1 0x0 PUSH20 0xFFFFFFFFFFFFFFFFFFFFFFFFFFFFFFFFFFFFFFFF DUP3 AND SWAP1 POP SWAP2 SWAP1 POP JUMP JUMPDEST PUSH1 0x0 DUP2 SWAP1 POP SWAP2 SWAP1 POP JUMP JUMPDEST DUP3 DUP2 DUP4 CALLDATACOPY PUSH1 0x0 DUP4 DUP4 ADD MSTORE POP POP POP JUMP JUMPDEST PUSH1 0x0 JUMPDEST DUP4 DUP2 LT ISZERO PUSH2 0xA0E JUMPI DUP1 DUP3 ADD MLOAD DUP2 DUP5 ADD MSTORE PUSH1 0x20 DUP2 ADD SWAP1 POP PUSH2 0x9F3 JUMP JUMPDEST DUP4 DUP2 GT ISZERO PUSH2 0xA1D JUMPI PUSH1 0x0 DUP5 DUP5 ADD MSTORE JUMPDEST POP POP POP POP JUMP JUMPDEST PUSH1 0x0 PUSH1 0x2 DUP3 DIV SWAP1 POP PUSH1 0x1 DUP3 AND DUP1 PUSH2 0xA3B JUMPI PUSH1 0x7F DUP3 AND SWAP2 POP JUMPDEST PUSH1 0x20 DUP3 LT DUP2 EQ ISZERO PUSH2 0xA4F JUMPI PUSH2 0xA4E PUSH2 0xAFE JUMP JUMPDEST JUMPDEST POP SWAP2 SWAP1 POP JUMP JUMPDEST PUSH2 0xA5E DUP3 PUSH2 0xB9F JUMP JUMPDEST DUP2 ADD DUP2 DUP2 LT PUSH8 0xFFFFFFFFFFFFFFFF DUP3 GT OR ISZERO PUSH2 0xA7D JUMPI PUSH2 0xA7C PUSH2 0xB5C JUMP JUMPDEST JUMPDEST DUP1 PUSH1 0x40 MSTORE POP POP POP JUMP JUMPDEST PUSH1 0x0 PUSH2 0xA91 DUP3 PUSH2 0x9D7 JUMP JUMPDEST SWAP2 POP PUSH32 0xFFFFFFFFFFFFFFFFFFFFFFFFFFFFFFFFFFFFFFFFFFFFFFFFFFFFFFFFFFFFFFFF DUP3 EQ ISZERO PUSH2 0xAC4 JUMPI PUSH2 0xAC3 PUSH2 0xACF JUMP JUMPDEST JUMPDEST PUSH1 0x1 DUP3 ADD SWAP1 POP SWAP2 SWAP1 POP JUMP JUMPDEST PUSH32 0x4E487B7100000000000000000000000000000000000000000000000000000000 PUSH1 0x0 MSTORE PUSH1 0x11 PUSH1 0x4 MSTORE PUSH1 0x24 PUSH1 0x0 REVERT JUMPDEST PUSH32 0x4E487B7100000000000000000000000000000000000000000000000000000000 PUSH1 0x0 MSTORE PUSH1 0x22 PUSH1 0x4 MSTORE PUSH1 0x24 PUSH1 0x0 REVERT JUMPDEST PUSH32 0x4E487B7100000000000000000000000000000000000000000000000000000000 PUSH1 0x0 MSTORE PUSH1 0x32 PUSH1 0x4 MSTORE PUSH1 0x24 PUSH1 0x0 REVERT JUMPDEST PUSH32 0x4E487B7100000000000000000000000000000000000000000000000000000000 PUSH1 0x0 MSTORE PUSH1 0x41 PUSH1 0x4 MSTORE PUSH1 0x24 PUSH1 0x0 REVERT JUMPDEST PUSH1 0x0 DUP1 REVERT JUMPDEST PUSH1 0x0 DUP1 REVERT JUMPDEST PUSH1 0x0 DUP1 REVERT JUMPDEST PUSH1 0x0 DUP1 REVERT JUMPDEST PUSH1 0x0 PUSH1 0x1F NOT PUSH1 0x1F DUP4 ADD AND SWAP1 POP SWAP2 SWAP1 POP JUMP JUMPDEST PUSH2 0xBB9 DUP2 PUSH2 0x999 JUMP JUMPDEST DUP2 EQ PUSH2 0xBC4 JUMPI PUSH1 0x0 DUP1 REVERT JUMPDEST POP JUMP JUMPDEST PUSH2 0xBD0 DUP2 PUSH2 0x9AB JUMP JUMPDEST DUP2 EQ PUSH2 0xBDB JUMPI PUSH1 0x0 DUP1 REVERT JUMPDEST POP JUMP JUMPDEST PUSH2 0xBE7 DUP2 PUSH2 0x9D7 JUMP JUMPDEST DUP2 EQ PUSH2 0xBF2 JUMPI PUSH1 0x0 DUP1 REVERT JUMPDEST POP JUMP INVALID LOG2 PUSH5 0x6970667358 0x22 SLT KECCAK256 DUP4 0x2B PUSH31 0x9B9F5E4E439E9C3904C1C14C8DAC3B3A639461E562E107617E554C69E16473 PUSH16 0x6C634300080700330000000000000000 "
				},
				"gasEstimates": {
					"creation": {
						"codeDepositCost": "623000",
						"executionCost": "24923",
						"totalCost": "647923"
					},
					"external": {
						"addToInvestors(address,uint256)": "22810",
						"addUser(address,string,uint256,bool)": "infinite",
						"balanceOf(address)": "infinite",
						"investors(address)": "2880",
						"transfer(address)": "infinite",
						"users(uint256)": "infinite"
					},
					"internal": {
						"transferToAddress(address)": "infinite"
					}
				},
				"methodIdentifiers": {
					"addToInvestors(address,uint256)": "0b1019f0",
					"addUser(address,string,uint256,bool)": "280879e7",
					"balanceOf(address)": "70a08231",
					"investors(address)": "6f7bc9be",
					"transfer(address)": "1a695230",
					"users(uint256)": "365b98b2"
				}
			},
			"storageLayout": {
				"storage": [
					{
						"astId": 3,
						"contract": "contracts/Test1.sol:Test1",
						"label": "owner",
						"offset": 0,
						"slot": "0",
						"type": "t_address"
					},
					{
						"astId": 25,
						"contract": "contracts/Test1.sol:Test1",
						"label": "users",
						"offset": 0,
						"slot": "1",
						"type": "t_array(t_struct(User)21_storage)dyn_storage"
					},
					{
						"astId": 29,
						"contract": "contracts/Test1.sol:Test1",
						"label": "investors",
						"offset": 0,
						"slot": "2",
						"type": "t_mapping(t_address,t_uint256)"
					}
				],
				"types": {
					"t_address": {
						"encoding": "inplace",
						"label": "address",
						"numberOfBytes": "20"
					},
					"t_array(t_struct(User)21_storage)dyn_storage": {
						"base": "t_struct(User)21_storage",
						"encoding": "dynamic_array",
						"label": "struct Test1.User[]",
						"numberOfBytes": "32"
					},
					"t_bool": {
						"encoding": "inplace",
						"label": "bool",
						"numberOfBytes": "1"
					},
					"t_mapping(t_address,t_uint256)": {
						"encoding": "mapping",
						"key": "t_address",
						"label": "mapping(address => uint256)",
						"numberOfBytes": "32",
						"value": "t_uint256"
					},
					"t_string_storage": {
						"encoding": "bytes",
						"label": "string",
						"numberOfBytes": "32"
					},
					"t_struct(User)21_storage": {
						"encoding": "inplace",
						"label": "struct Test1.User",
						"members": [
							{
								"astId": 14,
								"contract": "contracts/Test1.sol:Test1",
								"label": "walletAddress",
								"offset": 0,
								"slot": "0",
								"type": "t_address"
							},
							{
								"astId": 16,
								"contract": "contracts/Test1.sol:Test1",
								"label": "name",
								"offset": 0,
								"slot": "1",
								"type": "t_string_storage"
							},
							{
								"astId": 18,
								"contract": "contracts/Test1.sol:Test1",
								"label": "amount",
								"offset": 0,
								"slot": "2",
								"type": "t_uint256"
							},
							{
								"astId": 20,
								"contract": "contracts/Test1.sol:Test1",
								"label": "isInvestor",
								"offset": 0,
								"slot": "3",
								"type": "t_bool"
							}
						],
						"numberOfBytes": "128"
					},
					"t_uint256": {
						"encoding": "inplace",
						"label": "uint256",
						"numberOfBytes": "32"
					}
				}
			},
			"userdoc": {
				"kind": "user",
				"methods": {},
				"version": 1
			}
		}
	}
}