{
	"contracts/Test1.sol": {
		"Test1": {
			"abi": [
				{
					"inputs": [],
					"stateMutability": "nonpayable",
					"type": "constructor"
				},
				{
					"inputs": [
						{
							"internalType": "address",
							"name": "walletAddress",
							"type": "address"
						},
						{
							"internalType": "string",
							"name": "name",
							"type": "string"
						},
						{
							"internalType": "uint256",
							"name": "amount",
							"type": "uint256"
						},
						{
							"internalType": "bool",
							"name": "isInvestor",
							"type": "bool"
						}
					],
					"name": "addUser",
					"outputs": [],
					"stateMutability": "nonpayable",
					"type": "function"
				},
				{
					"inputs": [
						{
							"internalType": "address",
							"name": "walletAddress",
							"type": "address"
						}
					],
					"name": "balanceOf",
					"outputs": [
						{
							"internalType": "uint256",
							"name": "",
							"type": "uint256"
						}
					],
					"stateMutability": "view",
					"type": "function"
				},
				{
					"inputs": [
						{
							"internalType": "address",
							"name": "",
							"type": "address"
						}
					],
					"name": "investors",
					"outputs": [
						{
							"internalType": "uint256",
							"name": "",
							"type": "uint256"
						}
					],
					"stateMutability": "view",
					"type": "function"
				},
				{
					"inputs": [
						{
							"internalType": "address",
							"name": "walletAddress",
							"type": "address"
						}
					],
					"name": "transfer",
					"outputs": [],
					"stateMutability": "payable",
					"type": "function"
				},
				{
					"inputs": [
						{
							"internalType": "uint256",
							"name": "",
							"type": "uint256"
						}
					],
					"name": "users",
					"outputs": [
						{
							"internalType": "address",
							"name": "walletAddress",
							"type": "address"
						},
						{
							"internalType": "string",
							"name": "name",
							"type": "string"
						},
						{
							"internalType": "uint256",
							"name": "amount",
							"type": "uint256"
						},
						{
							"internalType": "bool",
							"name": "isInvestor",
							"type": "bool"
						}
					],
					"stateMutability": "view",
					"type": "function"
				}
			],
			"devdoc": {
				"kind": "dev",
				"methods": {},
				"version": 1
			},
			"evm": {
				"assembly": "    /* \"contracts/Test1.sol\":65:1164  contract Test1{... */\n  mstore(0x40, 0x80)\n    /* \"contracts/Test1.sol\":106:154  constructor(){... */\n  callvalue\n  dup1\n  iszero\n  tag_1\n  jumpi\n  0x00\n  dup1\n  revert\ntag_1:\n  pop\n    /* \"contracts/Test1.sol\":137:147  msg.sender */\n  caller\n    /* \"contracts/Test1.sol\":129:134  owner */\n  0x00\n  dup1\n    /* \"contracts/Test1.sol\":129:147  owner = msg.sender */\n  0x0100\n  exp\n  dup2\n  sload\n  dup2\n  0xffffffffffffffffffffffffffffffffffffffff\n  mul\n  not\n  and\n  swap1\n  dup4\n  0xffffffffffffffffffffffffffffffffffffffff\n  and\n  mul\n  or\n  swap1\n  sstore\n  pop\n    /* \"contracts/Test1.sol\":65:1164  contract Test1{... */\n  dataSize(sub_0)\n  dup1\n  dataOffset(sub_0)\n  0x00\n  codecopy\n  0x00\n  return\nstop\n\nsub_0: assembly {\n        /* \"contracts/Test1.sol\":65:1164  contract Test1{... */\n      mstore(0x40, 0x80)\n      jumpi(tag_1, lt(calldatasize, 0x04))\n      shr(0xe0, calldataload(0x00))\n      dup1\n      0x1a695230\n      eq\n      tag_2\n      jumpi\n      dup1\n      0x280879e7\n      eq\n      tag_3\n      jumpi\n      dup1\n      0x365b98b2\n      eq\n      tag_4\n      jumpi\n      dup1\n      0x6f7bc9be\n      eq\n      tag_5\n      jumpi\n      dup1\n      0x70a08231\n      eq\n      tag_6\n      jumpi\n    tag_1:\n      0x00\n      dup1\n      revert\n        /* \"contracts/Test1.sol\":537:642  function transfer(address walletAddress) payable public {... */\n    tag_2:\n      tag_7\n      0x04\n      dup1\n      calldatasize\n      sub\n      dup2\n      add\n      swap1\n      tag_8\n      swap2\n      swap1\n      tag_9\n      jump\t// in\n    tag_8:\n      tag_10\n      jump\t// in\n    tag_7:\n      stop\n        /* \"contracts/Test1.sol\":356:527  function addUser(address walletAddress, string memory name, uint amount, bool isInvestor) public {... */\n    tag_3:\n      callvalue\n      dup1\n      iszero\n      tag_11\n      jumpi\n      0x00\n      dup1\n      revert\n    tag_11:\n      pop\n      tag_12\n      0x04\n      dup1\n      calldatasize\n      sub\n      dup2\n      add\n      swap1\n      tag_13\n      swap2\n      swap1\n      tag_14\n      jump\t// in\n    tag_13:\n      tag_15\n      jump\t// in\n    tag_12:\n      stop\n        /* \"contracts/Test1.sol\":282:301  User[] public users */\n    tag_4:\n      callvalue\n      dup1\n      iszero\n      tag_16\n      jumpi\n      0x00\n      dup1\n      revert\n    tag_16:\n      pop\n      tag_17\n      0x04\n      dup1\n      calldatasize\n      sub\n      dup2\n      add\n      swap1\n      tag_18\n      swap2\n      swap1\n      tag_19\n      jump\t// in\n    tag_18:\n      tag_20\n      jump\t// in\n    tag_17:\n      mload(0x40)\n      tag_21\n      swap5\n      swap4\n      swap3\n      swap2\n      swap1\n      tag_22\n      jump\t// in\n    tag_21:\n      mload(0x40)\n      dup1\n      swap2\n      sub\n      swap1\n      return\n        /* \"contracts/Test1.sol\":307:348  mapping(address => uint) public investors */\n    tag_5:\n      callvalue\n      dup1\n      iszero\n      tag_23\n      jumpi\n      0x00\n      dup1\n      revert\n    tag_23:\n      pop\n      tag_24\n      0x04\n      dup1\n      calldatasize\n      sub\n      dup2\n      add\n      swap1\n      tag_25\n      swap2\n      swap1\n      tag_9\n      jump\t// in\n    tag_25:\n      tag_26\n      jump\t// in\n    tag_24:\n      mload(0x40)\n      tag_27\n      swap2\n      swap1\n      tag_28\n      jump\t// in\n    tag_27:\n      mload(0x40)\n      dup1\n      swap2\n      sub\n      swap1\n      return\n        /* \"contracts/Test1.sol\":894:1158  function balanceOf(address walletAddress) public view returns(uint){... */\n    tag_6:\n      callvalue\n      dup1\n      iszero\n      tag_29\n      jumpi\n      0x00\n      dup1\n      revert\n    tag_29:\n      pop\n      tag_30\n      0x04\n      dup1\n      calldatasize\n      sub\n      dup2\n      add\n      swap1\n      tag_31\n      swap2\n      swap1\n      tag_9\n      jump\t// in\n    tag_31:\n      tag_32\n      jump\t// in\n    tag_30:\n      mload(0x40)\n      tag_33\n      swap2\n      swap1\n      tag_28\n      jump\t// in\n    tag_33:\n      mload(0x40)\n      dup1\n      swap2\n      sub\n      swap1\n      return\n        /* \"contracts/Test1.sol\":537:642  function transfer(address walletAddress) payable public {... */\n    tag_10:\n        /* \"contracts/Test1.sol\":603:635  transferToAddress(walletAddress) */\n      tag_35\n        /* \"contracts/Test1.sol\":621:634  walletAddress */\n      dup2\n        /* \"contracts/Test1.sol\":603:620  transferToAddress */\n      tag_36\n        /* \"contracts/Test1.sol\":603:635  transferToAddress(walletAddress) */\n      jump\t// in\n    tag_35:\n        /* \"contracts/Test1.sol\":537:642  function transfer(address walletAddress) payable public {... */\n      pop\n      jump\t// out\n        /* \"contracts/Test1.sol\":356:527  function addUser(address walletAddress, string memory name, uint amount, bool isInvestor) public {... */\n    tag_15:\n        /* \"contracts/Test1.sol\":463:468  users */\n      0x01\n        /* \"contracts/Test1.sol\":474:519  User(walletAddress, name, amount, isInvestor) */\n      mload(0x40)\n      dup1\n      0x80\n      add\n      0x40\n      mstore\n      dup1\n        /* \"contracts/Test1.sol\":479:492  walletAddress */\n      dup7\n        /* \"contracts/Test1.sol\":474:519  User(walletAddress, name, amount, isInvestor) */\n      0xffffffffffffffffffffffffffffffffffffffff\n      and\n      dup2\n      mstore\n      0x20\n      add\n        /* \"contracts/Test1.sol\":494:498  name */\n      dup6\n        /* \"contracts/Test1.sol\":474:519  User(walletAddress, name, amount, isInvestor) */\n      dup2\n      mstore\n      0x20\n      add\n        /* \"contracts/Test1.sol\":500:506  amount */\n      dup5\n        /* \"contracts/Test1.sol\":474:519  User(walletAddress, name, amount, isInvestor) */\n      dup2\n      mstore\n      0x20\n      add\n        /* \"contracts/Test1.sol\":508:518  isInvestor */\n      dup4\n        /* \"contracts/Test1.sol\":474:519  User(walletAddress, name, amount, isInvestor) */\n      iszero\n      iszero\n      dup2\n      mstore\n      pop\n        /* \"contracts/Test1.sol\":463:520  users.push(User(walletAddress, name, amount, isInvestor)) */\n      swap1\n      dup1\n      0x01\n      dup2\n      sload\n      add\n      dup1\n      dup3\n      sstore\n      dup1\n      swap2\n      pop\n      pop\n      0x01\n      swap1\n      sub\n      swap1\n      0x00\n      mstore\n      keccak256(0x00, 0x20)\n      swap1\n      0x04\n      mul\n      add\n      0x00\n      swap1\n      swap2\n      swap1\n      swap2\n      swap1\n      swap2\n      pop\n      0x00\n      dup3\n      add\n      mload\n      dup2\n      0x00\n      add\n      exp(0x0100, 0x00)\n      dup2\n      sload\n      dup2\n      0xffffffffffffffffffffffffffffffffffffffff\n      mul\n      not\n      and\n      swap1\n      dup4\n      0xffffffffffffffffffffffffffffffffffffffff\n      and\n      mul\n      or\n      swap1\n      sstore\n      pop\n      0x20\n      dup3\n      add\n      mload\n      dup2\n      0x01\n      add\n      swap1\n      dup1\n      mload\n      swap1\n      0x20\n      add\n      swap1\n      tag_39\n      swap3\n      swap2\n      swap1\n      tag_40\n      jump\t// in\n    tag_39:\n      pop\n      0x40\n      dup3\n      add\n      mload\n      dup2\n      0x02\n      add\n      sstore\n      0x60\n      dup3\n      add\n      mload\n      dup2\n      0x03\n      add\n      exp(0x0100, 0x00)\n      dup2\n      sload\n      dup2\n      0xff\n      mul\n      not\n      and\n      swap1\n      dup4\n      iszero\n      iszero\n      mul\n      or\n      swap1\n      sstore\n      pop\n      pop\n      pop\n        /* \"contracts/Test1.sol\":356:527  function addUser(address walletAddress, string memory name, uint amount, bool isInvestor) public {... */\n      pop\n      pop\n      pop\n      pop\n      jump\t// out\n        /* \"contracts/Test1.sol\":282:301  User[] public users */\n    tag_20:\n      0x01\n      dup2\n      dup2\n      sload\n      dup2\n      lt\n      tag_41\n      jumpi\n      0x00\n      dup1\n      revert\n    tag_41:\n      swap1\n      0x00\n      mstore\n      keccak256(0x00, 0x20)\n      swap1\n      0x04\n      mul\n      add\n      0x00\n      swap2\n      pop\n      swap1\n      pop\n      dup1\n      0x00\n      add\n      0x00\n      swap1\n      sload\n      swap1\n      0x0100\n      exp\n      swap1\n      div\n      0xffffffffffffffffffffffffffffffffffffffff\n      and\n      swap1\n      dup1\n      0x01\n      add\n      dup1\n      sload\n      tag_43\n      swap1\n      tag_44\n      jump\t// in\n    tag_43:\n      dup1\n      0x1f\n      add\n      0x20\n      dup1\n      swap2\n      div\n      mul\n      0x20\n      add\n      mload(0x40)\n      swap1\n      dup2\n      add\n      0x40\n      mstore\n      dup1\n      swap3\n      swap2\n      swap1\n      dup2\n      dup2\n      mstore\n      0x20\n      add\n      dup3\n      dup1\n      sload\n      tag_45\n      swap1\n      tag_44\n      jump\t// in\n    tag_45:\n      dup1\n      iszero\n      tag_46\n      jumpi\n      dup1\n      0x1f\n      lt\n      tag_47\n      jumpi\n      0x0100\n      dup1\n      dup4\n      sload\n      div\n      mul\n      dup4\n      mstore\n      swap2\n      0x20\n      add\n      swap2\n      jump(tag_46)\n    tag_47:\n      dup3\n      add\n      swap2\n      swap1\n      0x00\n      mstore\n      keccak256(0x00, 0x20)\n      swap1\n    tag_48:\n      dup2\n      sload\n      dup2\n      mstore\n      swap1\n      0x01\n      add\n      swap1\n      0x20\n      add\n      dup1\n      dup4\n      gt\n      tag_48\n      jumpi\n      dup3\n      swap1\n      sub\n      0x1f\n      and\n      dup3\n      add\n      swap2\n    tag_46:\n      pop\n      pop\n      pop\n      pop\n      pop\n      swap1\n      dup1\n      0x02\n      add\n      sload\n      swap1\n      dup1\n      0x03\n      add\n      0x00\n      swap1\n      sload\n      swap1\n      0x0100\n      exp\n      swap1\n      div\n      0xff\n      and\n      swap1\n      pop\n      dup5\n      jump\t// out\n        /* \"contracts/Test1.sol\":307:348  mapping(address => uint) public investors */\n    tag_26:\n      mstore(0x20, 0x02)\n      dup1\n      0x00\n      mstore\n      keccak256(0x00, 0x40)\n      0x00\n      swap2\n      pop\n      swap1\n      pop\n      sload\n      dup2\n      jump\t// out\n        /* \"contracts/Test1.sol\":894:1158  function balanceOf(address walletAddress) public view returns(uint){... */\n    tag_32:\n        /* \"contracts/Test1.sol\":956:960  uint */\n      0x00\n        /* \"contracts/Test1.sol\":975:981  uint i */\n      dup1\n        /* \"contracts/Test1.sol\":984:985  0 */\n      0x00\n        /* \"contracts/Test1.sol\":975:985  uint i = 0 */\n      swap1\n      pop\n        /* \"contracts/Test1.sol\":971:1131  for(uint i = 0; i < users.length; i++){... */\n    tag_50:\n        /* \"contracts/Test1.sol\":991:996  users */\n      0x01\n        /* \"contracts/Test1.sol\":991:1003  users.length */\n      dup1\n      sload\n      swap1\n      pop\n        /* \"contracts/Test1.sol\":987:988  i */\n      dup2\n        /* \"contracts/Test1.sol\":987:1003  i < users.length */\n      lt\n        /* \"contracts/Test1.sol\":971:1131  for(uint i = 0; i < users.length; i++){... */\n      iszero\n      tag_51\n      jumpi\n        /* \"contracts/Test1.sol\":1052:1065  walletAddress */\n      dup3\n        /* \"contracts/Test1.sol\":1026:1065  users[i].walletAddress == walletAddress */\n      0xffffffffffffffffffffffffffffffffffffffff\n      and\n        /* \"contracts/Test1.sol\":1026:1031  users */\n      0x01\n        /* \"contracts/Test1.sol\":1032:1033  i */\n      dup3\n        /* \"contracts/Test1.sol\":1026:1034  users[i] */\n      dup2\n      sload\n      dup2\n      lt\n      tag_53\n      jumpi\n      tag_54\n      tag_55\n      jump\t// in\n    tag_54:\n    tag_53:\n      swap1\n      0x00\n      mstore\n      keccak256(0x00, 0x20)\n      swap1\n      0x04\n      mul\n      add\n        /* \"contracts/Test1.sol\":1026:1048  users[i].walletAddress */\n      0x00\n      add\n      0x00\n      swap1\n      sload\n      swap1\n      0x0100\n      exp\n      swap1\n      div\n      0xffffffffffffffffffffffffffffffffffffffff\n      and\n        /* \"contracts/Test1.sol\":1026:1065  users[i].walletAddress == walletAddress */\n      0xffffffffffffffffffffffffffffffffffffffff\n      and\n      eq\n        /* \"contracts/Test1.sol\":1023:1121  if(users[i].walletAddress == walletAddress){... */\n      iszero\n      tag_57\n      jumpi\n        /* \"contracts/Test1.sol\":1091:1096  users */\n      0x01\n        /* \"contracts/Test1.sol\":1097:1098  i */\n      dup2\n        /* \"contracts/Test1.sol\":1091:1099  users[i] */\n      dup2\n      sload\n      dup2\n      lt\n      tag_58\n      jumpi\n      tag_59\n      tag_55\n      jump\t// in\n    tag_59:\n    tag_58:\n      swap1\n      0x00\n      mstore\n      keccak256(0x00, 0x20)\n      swap1\n      0x04\n      mul\n      add\n        /* \"contracts/Test1.sol\":1091:1106  users[i].amount */\n      0x02\n      add\n      sload\n        /* \"contracts/Test1.sol\":1084:1106  return users[i].amount */\n      swap2\n      pop\n      pop\n      jump(tag_49)\n        /* \"contracts/Test1.sol\":1023:1121  if(users[i].walletAddress == walletAddress){... */\n    tag_57:\n        /* \"contracts/Test1.sol\":1005:1008  i++ */\n      dup1\n      dup1\n      tag_61\n      swap1\n      tag_62\n      jump\t// in\n    tag_61:\n      swap2\n      pop\n      pop\n        /* \"contracts/Test1.sol\":971:1131  for(uint i = 0; i < users.length; i++){... */\n      jump(tag_50)\n    tag_51:\n      pop\n        /* \"contracts/Test1.sol\":1148:1151  999 */\n      0x03e7\n        /* \"contracts/Test1.sol\":1141:1151  return 999 */\n      swap1\n      pop\n        /* \"contracts/Test1.sol\":894:1158  function balanceOf(address walletAddress) public view returns(uint){... */\n    tag_49:\n      swap2\n      swap1\n      pop\n      jump\t// out\n        /* \"contracts/Test1.sol\":648:888  function transferToAddress(address walletAddress) private {... */\n    tag_36:\n        /* \"contracts/Test1.sol\":720:726  uint i */\n      0x00\n        /* \"contracts/Test1.sol\":716:882  for(uint i = 0; i < users.length; i++){... */\n    tag_64:\n        /* \"contracts/Test1.sol\":736:741  users */\n      0x01\n        /* \"contracts/Test1.sol\":736:748  users.length */\n      dup1\n      sload\n      swap1\n      pop\n        /* \"contracts/Test1.sol\":732:733  i */\n      dup2\n        /* \"contracts/Test1.sol\":732:748  i < users.length */\n      lt\n        /* \"contracts/Test1.sol\":716:882  for(uint i = 0; i < users.length; i++){... */\n      iszero\n      tag_65\n      jumpi\n        /* \"contracts/Test1.sol\":797:810  walletAddress */\n      dup2\n        /* \"contracts/Test1.sol\":771:810  users[i].walletAddress == walletAddress */\n      0xffffffffffffffffffffffffffffffffffffffff\n      and\n        /* \"contracts/Test1.sol\":771:776  users */\n      0x01\n        /* \"contracts/Test1.sol\":777:778  i */\n      dup3\n        /* \"contracts/Test1.sol\":771:779  users[i] */\n      dup2\n      sload\n      dup2\n      lt\n      tag_67\n      jumpi\n      tag_68\n      tag_55\n      jump\t// in\n    tag_68:\n    tag_67:\n      swap1\n      0x00\n      mstore\n      keccak256(0x00, 0x20)\n      swap1\n      0x04\n      mul\n      add\n        /* \"contracts/Test1.sol\":771:793  users[i].walletAddress */\n      0x00\n      add\n      0x00\n      swap1\n      sload\n      swap1\n      0x0100\n      exp\n      swap1\n      div\n      0xffffffffffffffffffffffffffffffffffffffff\n      and\n        /* \"contracts/Test1.sol\":771:810  users[i].walletAddress == walletAddress */\n      0xffffffffffffffffffffffffffffffffffffffff\n      and\n      eq\n        /* \"contracts/Test1.sol\":768:872  if(users[i].walletAddress == walletAddress){... */\n      iszero\n      tag_70\n      jumpi\n        /* \"contracts/Test1.sol\":848:857  msg.value */\n      callvalue\n        /* \"contracts/Test1.sol\":829:834  users */\n      0x01\n        /* \"contracts/Test1.sol\":835:836  i */\n      dup3\n        /* \"contracts/Test1.sol\":829:837  users[i] */\n      dup2\n      sload\n      dup2\n      lt\n      tag_71\n      jumpi\n      tag_72\n      tag_55\n      jump\t// in\n    tag_72:\n    tag_71:\n      swap1\n      0x00\n      mstore\n      keccak256(0x00, 0x20)\n      swap1\n      0x04\n      mul\n      add\n        /* \"contracts/Test1.sol\":829:844  users[i].amount */\n      0x02\n      add\n      0x00\n        /* \"contracts/Test1.sol\":829:857  users[i].amount += msg.value */\n      dup3\n      dup3\n      sload\n      tag_74\n      swap2\n      swap1\n      tag_75\n      jump\t// in\n    tag_74:\n      swap3\n      pop\n      pop\n      dup2\n      swap1\n      sstore\n      pop\n        /* \"contracts/Test1.sol\":768:872  if(users[i].walletAddress == walletAddress){... */\n    tag_70:\n        /* \"contracts/Test1.sol\":750:753  i++ */\n      dup1\n      dup1\n      tag_76\n      swap1\n      tag_62\n      jump\t// in\n    tag_76:\n      swap2\n      pop\n      pop\n        /* \"contracts/Test1.sol\":716:882  for(uint i = 0; i < users.length; i++){... */\n      jump(tag_64)\n    tag_65:\n      pop\n        /* \"contracts/Test1.sol\":648:888  function transferToAddress(address walletAddress) private {... */\n      pop\n      jump\t// out\n    tag_40:\n      dup3\n      dup1\n      sload\n      tag_77\n      swap1\n      tag_44\n      jump\t// in\n    tag_77:\n      swap1\n      0x00\n      mstore\n      keccak256(0x00, 0x20)\n      swap1\n      0x1f\n      add\n      0x20\n      swap1\n      div\n      dup2\n      add\n      swap3\n      dup3\n      tag_79\n      jumpi\n      0x00\n      dup6\n      sstore\n      jump(tag_78)\n    tag_79:\n      dup3\n      0x1f\n      lt\n      tag_80\n      jumpi\n      dup1\n      mload\n      not(0xff)\n      and\n      dup4\n      dup1\n      add\n      or\n      dup6\n      sstore\n      jump(tag_78)\n    tag_80:\n      dup3\n      dup1\n      add\n      0x01\n      add\n      dup6\n      sstore\n      dup3\n      iszero\n      tag_78\n      jumpi\n      swap2\n      dup3\n      add\n    tag_81:\n      dup3\n      dup2\n      gt\n      iszero\n      tag_82\n      jumpi\n      dup3\n      mload\n      dup3\n      sstore\n      swap2\n      0x20\n      add\n      swap2\n      swap1\n      0x01\n      add\n      swap1\n      jump(tag_81)\n    tag_82:\n    tag_78:\n      pop\n      swap1\n      pop\n      tag_83\n      swap2\n      swap1\n      tag_84\n      jump\t// in\n    tag_83:\n      pop\n      swap1\n      jump\t// out\n    tag_84:\n    tag_85:\n      dup1\n      dup3\n      gt\n      iszero\n      tag_86\n      jumpi\n      0x00\n      dup2\n      0x00\n      swap1\n      sstore\n      pop\n      0x01\n      add\n      jump(tag_85)\n    tag_86:\n      pop\n      swap1\n      jump\t// out\n        /* \"#utility.yul\":7:419   */\n    tag_88:\n        /* \"#utility.yul\":85:90   */\n      0x00\n        /* \"#utility.yul\":110:176   */\n      tag_90\n        /* \"#utility.yul\":126:175   */\n      tag_91\n        /* \"#utility.yul\":168:174   */\n      dup5\n        /* \"#utility.yul\":126:175   */\n      tag_92\n      jump\t// in\n    tag_91:\n        /* \"#utility.yul\":110:176   */\n      tag_93\n      jump\t// in\n    tag_90:\n        /* \"#utility.yul\":101:176   */\n      swap1\n      pop\n        /* \"#utility.yul\":199:205   */\n      dup3\n        /* \"#utility.yul\":192:197   */\n      dup2\n        /* \"#utility.yul\":185:206   */\n      mstore\n        /* \"#utility.yul\":237:241   */\n      0x20\n        /* \"#utility.yul\":230:235   */\n      dup2\n        /* \"#utility.yul\":226:242   */\n      add\n        /* \"#utility.yul\":275:278   */\n      dup5\n        /* \"#utility.yul\":266:272   */\n      dup5\n        /* \"#utility.yul\":261:264   */\n      dup5\n        /* \"#utility.yul\":257:273   */\n      add\n        /* \"#utility.yul\":254:279   */\n      gt\n        /* \"#utility.yul\":251:363   */\n      iszero\n      tag_94\n      jumpi\n        /* \"#utility.yul\":282:361   */\n      tag_95\n      tag_96\n      jump\t// in\n    tag_95:\n        /* \"#utility.yul\":251:363   */\n    tag_94:\n        /* \"#utility.yul\":372:413   */\n      tag_97\n        /* \"#utility.yul\":406:412   */\n      dup5\n        /* \"#utility.yul\":401:404   */\n      dup3\n        /* \"#utility.yul\":396:399   */\n      dup6\n        /* \"#utility.yul\":372:413   */\n      tag_98\n      jump\t// in\n    tag_97:\n        /* \"#utility.yul\":91:419   */\n      pop\n        /* \"#utility.yul\":7:419   */\n      swap4\n      swap3\n      pop\n      pop\n      pop\n      jump\t// out\n        /* \"#utility.yul\":425:564   */\n    tag_99:\n        /* \"#utility.yul\":471:476   */\n      0x00\n        /* \"#utility.yul\":509:515   */\n      dup2\n        /* \"#utility.yul\":496:516   */\n      calldataload\n        /* \"#utility.yul\":487:516   */\n      swap1\n      pop\n        /* \"#utility.yul\":525:558   */\n      tag_101\n        /* \"#utility.yul\":552:557   */\n      dup2\n        /* \"#utility.yul\":525:558   */\n      tag_102\n      jump\t// in\n    tag_101:\n        /* \"#utility.yul\":425:564   */\n      swap3\n      swap2\n      pop\n      pop\n      jump\t// out\n        /* \"#utility.yul\":570:703   */\n    tag_103:\n        /* \"#utility.yul\":613:618   */\n      0x00\n        /* \"#utility.yul\":651:657   */\n      dup2\n        /* \"#utility.yul\":638:658   */\n      calldataload\n        /* \"#utility.yul\":629:658   */\n      swap1\n      pop\n        /* \"#utility.yul\":667:697   */\n      tag_105\n        /* \"#utility.yul\":691:696   */\n      dup2\n        /* \"#utility.yul\":667:697   */\n      tag_106\n      jump\t// in\n    tag_105:\n        /* \"#utility.yul\":570:703   */\n      swap3\n      swap2\n      pop\n      pop\n      jump\t// out\n        /* \"#utility.yul\":723:1063   */\n    tag_107:\n        /* \"#utility.yul\":779:784   */\n      0x00\n        /* \"#utility.yul\":828:831   */\n      dup3\n        /* \"#utility.yul\":821:825   */\n      0x1f\n        /* \"#utility.yul\":813:819   */\n      dup4\n        /* \"#utility.yul\":809:826   */\n      add\n        /* \"#utility.yul\":805:832   */\n      slt\n        /* \"#utility.yul\":795:917   */\n      tag_109\n      jumpi\n        /* \"#utility.yul\":836:915   */\n      tag_110\n      tag_111\n      jump\t// in\n    tag_110:\n        /* \"#utility.yul\":795:917   */\n    tag_109:\n        /* \"#utility.yul\":953:959   */\n      dup2\n        /* \"#utility.yul\":940:960   */\n      calldataload\n        /* \"#utility.yul\":978:1057   */\n      tag_112\n        /* \"#utility.yul\":1053:1056   */\n      dup5\n        /* \"#utility.yul\":1045:1051   */\n      dup3\n        /* \"#utility.yul\":1038:1042   */\n      0x20\n        /* \"#utility.yul\":1030:1036   */\n      dup7\n        /* \"#utility.yul\":1026:1043   */\n      add\n        /* \"#utility.yul\":978:1057   */\n      tag_88\n      jump\t// in\n    tag_112:\n        /* \"#utility.yul\":969:1057   */\n      swap2\n      pop\n        /* \"#utility.yul\":785:1063   */\n      pop\n        /* \"#utility.yul\":723:1063   */\n      swap3\n      swap2\n      pop\n      pop\n      jump\t// out\n        /* \"#utility.yul\":1069:1208   */\n    tag_113:\n        /* \"#utility.yul\":1115:1120   */\n      0x00\n        /* \"#utility.yul\":1153:1159   */\n      dup2\n        /* \"#utility.yul\":1140:1160   */\n      calldataload\n        /* \"#utility.yul\":1131:1160   */\n      swap1\n      pop\n        /* \"#utility.yul\":1169:1202   */\n      tag_115\n        /* \"#utility.yul\":1196:1201   */\n      dup2\n        /* \"#utility.yul\":1169:1202   */\n      tag_116\n      jump\t// in\n    tag_115:\n        /* \"#utility.yul\":1069:1208   */\n      swap3\n      swap2\n      pop\n      pop\n      jump\t// out\n        /* \"#utility.yul\":1214:1543   */\n    tag_9:\n        /* \"#utility.yul\":1273:1279   */\n      0x00\n        /* \"#utility.yul\":1322:1324   */\n      0x20\n        /* \"#utility.yul\":1310:1319   */\n      dup3\n        /* \"#utility.yul\":1301:1308   */\n      dup5\n        /* \"#utility.yul\":1297:1320   */\n      sub\n        /* \"#utility.yul\":1293:1325   */\n      slt\n        /* \"#utility.yul\":1290:1409   */\n      iszero\n      tag_118\n      jumpi\n        /* \"#utility.yul\":1328:1407   */\n      tag_119\n      tag_120\n      jump\t// in\n    tag_119:\n        /* \"#utility.yul\":1290:1409   */\n    tag_118:\n        /* \"#utility.yul\":1448:1449   */\n      0x00\n        /* \"#utility.yul\":1473:1526   */\n      tag_121\n        /* \"#utility.yul\":1518:1525   */\n      dup5\n        /* \"#utility.yul\":1509:1515   */\n      dup3\n        /* \"#utility.yul\":1498:1507   */\n      dup6\n        /* \"#utility.yul\":1494:1516   */\n      add\n        /* \"#utility.yul\":1473:1526   */\n      tag_99\n      jump\t// in\n    tag_121:\n        /* \"#utility.yul\":1463:1526   */\n      swap2\n      pop\n        /* \"#utility.yul\":1419:1536   */\n      pop\n        /* \"#utility.yul\":1214:1543   */\n      swap3\n      swap2\n      pop\n      pop\n      jump\t// out\n        /* \"#utility.yul\":1549:2488   */\n    tag_14:\n        /* \"#utility.yul\":1642:1648   */\n      0x00\n        /* \"#utility.yul\":1650:1656   */\n      dup1\n        /* \"#utility.yul\":1658:1664   */\n      0x00\n        /* \"#utility.yul\":1666:1672   */\n      dup1\n        /* \"#utility.yul\":1715:1718   */\n      0x80\n        /* \"#utility.yul\":1703:1712   */\n      dup6\n        /* \"#utility.yul\":1694:1701   */\n      dup8\n        /* \"#utility.yul\":1690:1713   */\n      sub\n        /* \"#utility.yul\":1686:1719   */\n      slt\n        /* \"#utility.yul\":1683:1803   */\n      iszero\n      tag_123\n      jumpi\n        /* \"#utility.yul\":1722:1801   */\n      tag_124\n      tag_120\n      jump\t// in\n    tag_124:\n        /* \"#utility.yul\":1683:1803   */\n    tag_123:\n        /* \"#utility.yul\":1842:1843   */\n      0x00\n        /* \"#utility.yul\":1867:1920   */\n      tag_125\n        /* \"#utility.yul\":1912:1919   */\n      dup8\n        /* \"#utility.yul\":1903:1909   */\n      dup3\n        /* \"#utility.yul\":1892:1901   */\n      dup9\n        /* \"#utility.yul\":1888:1910   */\n      add\n        /* \"#utility.yul\":1867:1920   */\n      tag_99\n      jump\t// in\n    tag_125:\n        /* \"#utility.yul\":1857:1920   */\n      swap5\n      pop\n        /* \"#utility.yul\":1813:1930   */\n      pop\n        /* \"#utility.yul\":1997:1999   */\n      0x20\n        /* \"#utility.yul\":1986:1995   */\n      dup6\n        /* \"#utility.yul\":1982:2000   */\n      add\n        /* \"#utility.yul\":1969:2001   */\n      calldataload\n        /* \"#utility.yul\":2028:2046   */\n      0xffffffffffffffff\n        /* \"#utility.yul\":2020:2026   */\n      dup2\n        /* \"#utility.yul\":2017:2047   */\n      gt\n        /* \"#utility.yul\":2014:2131   */\n      iszero\n      tag_126\n      jumpi\n        /* \"#utility.yul\":2050:2129   */\n      tag_127\n      tag_128\n      jump\t// in\n    tag_127:\n        /* \"#utility.yul\":2014:2131   */\n    tag_126:\n        /* \"#utility.yul\":2155:2218   */\n      tag_129\n        /* \"#utility.yul\":2210:2217   */\n      dup8\n        /* \"#utility.yul\":2201:2207   */\n      dup3\n        /* \"#utility.yul\":2190:2199   */\n      dup9\n        /* \"#utility.yul\":2186:2208   */\n      add\n        /* \"#utility.yul\":2155:2218   */\n      tag_107\n      jump\t// in\n    tag_129:\n        /* \"#utility.yul\":2145:2218   */\n      swap4\n      pop\n        /* \"#utility.yul\":1940:2228   */\n      pop\n        /* \"#utility.yul\":2267:2269   */\n      0x40\n        /* \"#utility.yul\":2293:2346   */\n      tag_130\n        /* \"#utility.yul\":2338:2345   */\n      dup8\n        /* \"#utility.yul\":2329:2335   */\n      dup3\n        /* \"#utility.yul\":2318:2327   */\n      dup9\n        /* \"#utility.yul\":2314:2336   */\n      add\n        /* \"#utility.yul\":2293:2346   */\n      tag_113\n      jump\t// in\n    tag_130:\n        /* \"#utility.yul\":2283:2346   */\n      swap3\n      pop\n        /* \"#utility.yul\":2238:2356   */\n      pop\n        /* \"#utility.yul\":2395:2397   */\n      0x60\n        /* \"#utility.yul\":2421:2471   */\n      tag_131\n        /* \"#utility.yul\":2463:2470   */\n      dup8\n        /* \"#utility.yul\":2454:2460   */\n      dup3\n        /* \"#utility.yul\":2443:2452   */\n      dup9\n        /* \"#utility.yul\":2439:2461   */\n      add\n        /* \"#utility.yul\":2421:2471   */\n      tag_103\n      jump\t// in\n    tag_131:\n        /* \"#utility.yul\":2411:2471   */\n      swap2\n      pop\n        /* \"#utility.yul\":2366:2481   */\n      pop\n        /* \"#utility.yul\":1549:2488   */\n      swap3\n      swap6\n      swap2\n      swap5\n      pop\n      swap3\n      pop\n      jump\t// out\n        /* \"#utility.yul\":2494:2823   */\n    tag_19:\n        /* \"#utility.yul\":2553:2559   */\n      0x00\n        /* \"#utility.yul\":2602:2604   */\n      0x20\n        /* \"#utility.yul\":2590:2599   */\n      dup3\n        /* \"#utility.yul\":2581:2588   */\n      dup5\n        /* \"#utility.yul\":2577:2600   */\n      sub\n        /* \"#utility.yul\":2573:2605   */\n      slt\n        /* \"#utility.yul\":2570:2689   */\n      iszero\n      tag_133\n      jumpi\n        /* \"#utility.yul\":2608:2687   */\n      tag_134\n      tag_120\n      jump\t// in\n    tag_134:\n        /* \"#utility.yul\":2570:2689   */\n    tag_133:\n        /* \"#utility.yul\":2728:2729   */\n      0x00\n        /* \"#utility.yul\":2753:2806   */\n      tag_135\n        /* \"#utility.yul\":2798:2805   */\n      dup5\n        /* \"#utility.yul\":2789:2795   */\n      dup3\n        /* \"#utility.yul\":2778:2787   */\n      dup6\n        /* \"#utility.yul\":2774:2796   */\n      add\n        /* \"#utility.yul\":2753:2806   */\n      tag_113\n      jump\t// in\n    tag_135:\n        /* \"#utility.yul\":2743:2806   */\n      swap2\n      pop\n        /* \"#utility.yul\":2699:2816   */\n      pop\n        /* \"#utility.yul\":2494:2823   */\n      swap3\n      swap2\n      pop\n      pop\n      jump\t// out\n        /* \"#utility.yul\":2829:2947   */\n    tag_136:\n        /* \"#utility.yul\":2916:2940   */\n      tag_138\n        /* \"#utility.yul\":2934:2939   */\n      dup2\n        /* \"#utility.yul\":2916:2940   */\n      tag_139\n      jump\t// in\n    tag_138:\n        /* \"#utility.yul\":2911:2914   */\n      dup3\n        /* \"#utility.yul\":2904:2941   */\n      mstore\n        /* \"#utility.yul\":2829:2947   */\n      pop\n      pop\n      jump\t// out\n        /* \"#utility.yul\":2953:3062   */\n    tag_140:\n        /* \"#utility.yul\":3034:3055   */\n      tag_142\n        /* \"#utility.yul\":3049:3054   */\n      dup2\n        /* \"#utility.yul\":3034:3055   */\n      tag_143\n      jump\t// in\n    tag_142:\n        /* \"#utility.yul\":3029:3032   */\n      dup3\n        /* \"#utility.yul\":3022:3056   */\n      mstore\n        /* \"#utility.yul\":2953:3062   */\n      pop\n      pop\n      jump\t// out\n        /* \"#utility.yul\":3068:3432   */\n    tag_144:\n        /* \"#utility.yul\":3156:3159   */\n      0x00\n        /* \"#utility.yul\":3184:3223   */\n      tag_146\n        /* \"#utility.yul\":3217:3222   */\n      dup3\n        /* \"#utility.yul\":3184:3223   */\n      tag_147\n      jump\t// in\n    tag_146:\n        /* \"#utility.yul\":3239:3310   */\n      tag_148\n        /* \"#utility.yul\":3303:3309   */\n      dup2\n        /* \"#utility.yul\":3298:3301   */\n      dup6\n        /* \"#utility.yul\":3239:3310   */\n      tag_149\n      jump\t// in\n    tag_148:\n        /* \"#utility.yul\":3232:3310   */\n      swap4\n      pop\n        /* \"#utility.yul\":3319:3371   */\n      tag_150\n        /* \"#utility.yul\":3364:3370   */\n      dup2\n        /* \"#utility.yul\":3359:3362   */\n      dup6\n        /* \"#utility.yul\":3352:3356   */\n      0x20\n        /* \"#utility.yul\":3345:3350   */\n      dup7\n        /* \"#utility.yul\":3341:3357   */\n      add\n        /* \"#utility.yul\":3319:3371   */\n      tag_151\n      jump\t// in\n    tag_150:\n        /* \"#utility.yul\":3396:3425   */\n      tag_152\n        /* \"#utility.yul\":3418:3424   */\n      dup2\n        /* \"#utility.yul\":3396:3425   */\n      tag_153\n      jump\t// in\n    tag_152:\n        /* \"#utility.yul\":3391:3394   */\n      dup5\n        /* \"#utility.yul\":3387:3426   */\n      add\n        /* \"#utility.yul\":3380:3426   */\n      swap2\n      pop\n        /* \"#utility.yul\":3160:3432   */\n      pop\n        /* \"#utility.yul\":3068:3432   */\n      swap3\n      swap2\n      pop\n      pop\n      jump\t// out\n        /* \"#utility.yul\":3438:3556   */\n    tag_154:\n        /* \"#utility.yul\":3525:3549   */\n      tag_156\n        /* \"#utility.yul\":3543:3548   */\n      dup2\n        /* \"#utility.yul\":3525:3549   */\n      tag_157\n      jump\t// in\n    tag_156:\n        /* \"#utility.yul\":3520:3523   */\n      dup3\n        /* \"#utility.yul\":3513:3550   */\n      mstore\n        /* \"#utility.yul\":3438:3556   */\n      pop\n      pop\n      jump\t// out\n        /* \"#utility.yul\":3562:4194   */\n    tag_22:\n        /* \"#utility.yul\":3753:3757   */\n      0x00\n        /* \"#utility.yul\":3791:3794   */\n      0x80\n        /* \"#utility.yul\":3780:3789   */\n      dup3\n        /* \"#utility.yul\":3776:3795   */\n      add\n        /* \"#utility.yul\":3768:3795   */\n      swap1\n      pop\n        /* \"#utility.yul\":3805:3876   */\n      tag_159\n        /* \"#utility.yul\":3873:3874   */\n      0x00\n        /* \"#utility.yul\":3862:3871   */\n      dup4\n        /* \"#utility.yul\":3858:3875   */\n      add\n        /* \"#utility.yul\":3849:3855   */\n      dup8\n        /* \"#utility.yul\":3805:3876   */\n      tag_136\n      jump\t// in\n    tag_159:\n        /* \"#utility.yul\":3923:3932   */\n      dup2\n        /* \"#utility.yul\":3917:3921   */\n      dup2\n        /* \"#utility.yul\":3913:3933   */\n      sub\n        /* \"#utility.yul\":3908:3910   */\n      0x20\n        /* \"#utility.yul\":3897:3906   */\n      dup4\n        /* \"#utility.yul\":3893:3911   */\n      add\n        /* \"#utility.yul\":3886:3934   */\n      mstore\n        /* \"#utility.yul\":3951:4029   */\n      tag_160\n        /* \"#utility.yul\":4024:4028   */\n      dup2\n        /* \"#utility.yul\":4015:4021   */\n      dup7\n        /* \"#utility.yul\":3951:4029   */\n      tag_144\n      jump\t// in\n    tag_160:\n        /* \"#utility.yul\":3943:4029   */\n      swap1\n      pop\n        /* \"#utility.yul\":4039:4111   */\n      tag_161\n        /* \"#utility.yul\":4107:4109   */\n      0x40\n        /* \"#utility.yul\":4096:4105   */\n      dup4\n        /* \"#utility.yul\":4092:4110   */\n      add\n        /* \"#utility.yul\":4083:4089   */\n      dup6\n        /* \"#utility.yul\":4039:4111   */\n      tag_154\n      jump\t// in\n    tag_161:\n        /* \"#utility.yul\":4121:4187   */\n      tag_162\n        /* \"#utility.yul\":4183:4185   */\n      0x60\n        /* \"#utility.yul\":4172:4181   */\n      dup4\n        /* \"#utility.yul\":4168:4186   */\n      add\n        /* \"#utility.yul\":4159:4165   */\n      dup5\n        /* \"#utility.yul\":4121:4187   */\n      tag_140\n      jump\t// in\n    tag_162:\n        /* \"#utility.yul\":3562:4194   */\n      swap6\n      swap5\n      pop\n      pop\n      pop\n      pop\n      pop\n      jump\t// out\n        /* \"#utility.yul\":4200:4422   */\n    tag_28:\n        /* \"#utility.yul\":4293:4297   */\n      0x00\n        /* \"#utility.yul\":4331:4333   */\n      0x20\n        /* \"#utility.yul\":4320:4329   */\n      dup3\n        /* \"#utility.yul\":4316:4334   */\n      add\n        /* \"#utility.yul\":4308:4334   */\n      swap1\n      pop\n        /* \"#utility.yul\":4344:4415   */\n      tag_164\n        /* \"#utility.yul\":4412:4413   */\n      0x00\n        /* \"#utility.yul\":4401:4410   */\n      dup4\n        /* \"#utility.yul\":4397:4414   */\n      add\n        /* \"#utility.yul\":4388:4394   */\n      dup5\n        /* \"#utility.yul\":4344:4415   */\n      tag_154\n      jump\t// in\n    tag_164:\n        /* \"#utility.yul\":4200:4422   */\n      swap3\n      swap2\n      pop\n      pop\n      jump\t// out\n        /* \"#utility.yul\":4428:4557   */\n    tag_93:\n        /* \"#utility.yul\":4462:4468   */\n      0x00\n        /* \"#utility.yul\":4489:4509   */\n      tag_166\n      tag_167\n      jump\t// in\n    tag_166:\n        /* \"#utility.yul\":4479:4509   */\n      swap1\n      pop\n        /* \"#utility.yul\":4518:4551   */\n      tag_168\n        /* \"#utility.yul\":4546:4550   */\n      dup3\n        /* \"#utility.yul\":4538:4544   */\n      dup3\n        /* \"#utility.yul\":4518:4551   */\n      tag_169\n      jump\t// in\n    tag_168:\n        /* \"#utility.yul\":4428:4557   */\n      swap2\n      swap1\n      pop\n      jump\t// out\n        /* \"#utility.yul\":4563:4638   */\n    tag_167:\n        /* \"#utility.yul\":4596:4602   */\n      0x00\n        /* \"#utility.yul\":4629:4631   */\n      0x40\n        /* \"#utility.yul\":4623:4632   */\n      mload\n        /* \"#utility.yul\":4613:4632   */\n      swap1\n      pop\n        /* \"#utility.yul\":4563:4638   */\n      swap1\n      jump\t// out\n        /* \"#utility.yul\":4644:4952   */\n    tag_92:\n        /* \"#utility.yul\":4706:4710   */\n      0x00\n        /* \"#utility.yul\":4796:4814   */\n      0xffffffffffffffff\n        /* \"#utility.yul\":4788:4794   */\n      dup3\n        /* \"#utility.yul\":4785:4815   */\n      gt\n        /* \"#utility.yul\":4782:4838   */\n      iszero\n      tag_172\n      jumpi\n        /* \"#utility.yul\":4818:4836   */\n      tag_173\n      tag_174\n      jump\t// in\n    tag_173:\n        /* \"#utility.yul\":4782:4838   */\n    tag_172:\n        /* \"#utility.yul\":4856:4885   */\n      tag_175\n        /* \"#utility.yul\":4878:4884   */\n      dup3\n        /* \"#utility.yul\":4856:4885   */\n      tag_153\n      jump\t// in\n    tag_175:\n        /* \"#utility.yul\":4848:4885   */\n      swap1\n      pop\n        /* \"#utility.yul\":4940:4944   */\n      0x20\n        /* \"#utility.yul\":4934:4938   */\n      dup2\n        /* \"#utility.yul\":4930:4945   */\n      add\n        /* \"#utility.yul\":4922:4945   */\n      swap1\n      pop\n        /* \"#utility.yul\":4644:4952   */\n      swap2\n      swap1\n      pop\n      jump\t// out\n        /* \"#utility.yul\":4958:5057   */\n    tag_147:\n        /* \"#utility.yul\":5010:5016   */\n      0x00\n        /* \"#utility.yul\":5044:5049   */\n      dup2\n        /* \"#utility.yul\":5038:5050   */\n      mload\n        /* \"#utility.yul\":5028:5050   */\n      swap1\n      pop\n        /* \"#utility.yul\":4958:5057   */\n      swap2\n      swap1\n      pop\n      jump\t// out\n        /* \"#utility.yul\":5063:5232   */\n    tag_149:\n        /* \"#utility.yul\":5147:5158   */\n      0x00\n        /* \"#utility.yul\":5181:5187   */\n      dup3\n        /* \"#utility.yul\":5176:5179   */\n      dup3\n        /* \"#utility.yul\":5169:5188   */\n      mstore\n        /* \"#utility.yul\":5221:5225   */\n      0x20\n        /* \"#utility.yul\":5216:5219   */\n      dup3\n        /* \"#utility.yul\":5212:5226   */\n      add\n        /* \"#utility.yul\":5197:5226   */\n      swap1\n      pop\n        /* \"#utility.yul\":5063:5232   */\n      swap3\n      swap2\n      pop\n      pop\n      jump\t// out\n        /* \"#utility.yul\":5238:5543   */\n    tag_75:\n        /* \"#utility.yul\":5278:5281   */\n      0x00\n        /* \"#utility.yul\":5297:5317   */\n      tag_179\n        /* \"#utility.yul\":5315:5316   */\n      dup3\n        /* \"#utility.yul\":5297:5317   */\n      tag_157\n      jump\t// in\n    tag_179:\n        /* \"#utility.yul\":5292:5317   */\n      swap2\n      pop\n        /* \"#utility.yul\":5331:5351   */\n      tag_180\n        /* \"#utility.yul\":5349:5350   */\n      dup4\n        /* \"#utility.yul\":5331:5351   */\n      tag_157\n      jump\t// in\n    tag_180:\n        /* \"#utility.yul\":5326:5351   */\n      swap3\n      pop\n        /* \"#utility.yul\":5485:5486   */\n      dup3\n        /* \"#utility.yul\":5417:5483   */\n      0xffffffffffffffffffffffffffffffffffffffffffffffffffffffffffffffff\n        /* \"#utility.yul\":5413:5487   */\n      sub\n        /* \"#utility.yul\":5410:5411   */\n      dup3\n        /* \"#utility.yul\":5407:5488   */\n      gt\n        /* \"#utility.yul\":5404:5511   */\n      iszero\n      tag_181\n      jumpi\n        /* \"#utility.yul\":5491:5509   */\n      tag_182\n      tag_183\n      jump\t// in\n    tag_182:\n        /* \"#utility.yul\":5404:5511   */\n    tag_181:\n        /* \"#utility.yul\":5535:5536   */\n      dup3\n        /* \"#utility.yul\":5532:5533   */\n      dup3\n        /* \"#utility.yul\":5528:5537   */\n      add\n        /* \"#utility.yul\":5521:5537   */\n      swap1\n      pop\n        /* \"#utility.yul\":5238:5543   */\n      swap3\n      swap2\n      pop\n      pop\n      jump\t// out\n        /* \"#utility.yul\":5549:5645   */\n    tag_139:\n        /* \"#utility.yul\":5586:5593   */\n      0x00\n        /* \"#utility.yul\":5615:5639   */\n      tag_185\n        /* \"#utility.yul\":5633:5638   */\n      dup3\n        /* \"#utility.yul\":5615:5639   */\n      tag_186\n      jump\t// in\n    tag_185:\n        /* \"#utility.yul\":5604:5639   */\n      swap1\n      pop\n        /* \"#utility.yul\":5549:5645   */\n      swap2\n      swap1\n      pop\n      jump\t// out\n        /* \"#utility.yul\":5651:5741   */\n    tag_143:\n        /* \"#utility.yul\":5685:5692   */\n      0x00\n        /* \"#utility.yul\":5728:5733   */\n      dup2\n        /* \"#utility.yul\":5721:5734   */\n      iszero\n        /* \"#utility.yul\":5714:5735   */\n      iszero\n        /* \"#utility.yul\":5703:5735   */\n      swap1\n      pop\n        /* \"#utility.yul\":5651:5741   */\n      swap2\n      swap1\n      pop\n      jump\t// out\n        /* \"#utility.yul\":5747:5873   */\n    tag_186:\n        /* \"#utility.yul\":5784:5791   */\n      0x00\n        /* \"#utility.yul\":5824:5866   */\n      0xffffffffffffffffffffffffffffffffffffffff\n        /* \"#utility.yul\":5817:5822   */\n      dup3\n        /* \"#utility.yul\":5813:5867   */\n      and\n        /* \"#utility.yul\":5802:5867   */\n      swap1\n      pop\n        /* \"#utility.yul\":5747:5873   */\n      swap2\n      swap1\n      pop\n      jump\t// out\n        /* \"#utility.yul\":5879:5956   */\n    tag_157:\n        /* \"#utility.yul\":5916:5923   */\n      0x00\n        /* \"#utility.yul\":5945:5950   */\n      dup2\n        /* \"#utility.yul\":5934:5950   */\n      swap1\n      pop\n        /* \"#utility.yul\":5879:5956   */\n      swap2\n      swap1\n      pop\n      jump\t// out\n        /* \"#utility.yul\":5962:6116   */\n    tag_98:\n        /* \"#utility.yul\":6046:6052   */\n      dup3\n        /* \"#utility.yul\":6041:6044   */\n      dup2\n        /* \"#utility.yul\":6036:6039   */\n      dup4\n        /* \"#utility.yul\":6023:6053   */\n      calldatacopy\n        /* \"#utility.yul\":6108:6109   */\n      0x00\n        /* \"#utility.yul\":6099:6105   */\n      dup4\n        /* \"#utility.yul\":6094:6097   */\n      dup4\n        /* \"#utility.yul\":6090:6106   */\n      add\n        /* \"#utility.yul\":6083:6110   */\n      mstore\n        /* \"#utility.yul\":5962:6116   */\n      pop\n      pop\n      pop\n      jump\t// out\n        /* \"#utility.yul\":6122:6429   */\n    tag_151:\n        /* \"#utility.yul\":6190:6191   */\n      0x00\n        /* \"#utility.yul\":6200:6313   */\n    tag_192:\n        /* \"#utility.yul\":6214:6220   */\n      dup4\n        /* \"#utility.yul\":6211:6212   */\n      dup2\n        /* \"#utility.yul\":6208:6221   */\n      lt\n        /* \"#utility.yul\":6200:6313   */\n      iszero\n      tag_194\n      jumpi\n        /* \"#utility.yul\":6299:6300   */\n      dup1\n        /* \"#utility.yul\":6294:6297   */\n      dup3\n        /* \"#utility.yul\":6290:6301   */\n      add\n        /* \"#utility.yul\":6284:6302   */\n      mload\n        /* \"#utility.yul\":6280:6281   */\n      dup2\n        /* \"#utility.yul\":6275:6278   */\n      dup5\n        /* \"#utility.yul\":6271:6282   */\n      add\n        /* \"#utility.yul\":6264:6303   */\n      mstore\n        /* \"#utility.yul\":6236:6238   */\n      0x20\n        /* \"#utility.yul\":6233:6234   */\n      dup2\n        /* \"#utility.yul\":6229:6239   */\n      add\n        /* \"#utility.yul\":6224:6239   */\n      swap1\n      pop\n        /* \"#utility.yul\":6200:6313   */\n      jump(tag_192)\n    tag_194:\n        /* \"#utility.yul\":6331:6337   */\n      dup4\n        /* \"#utility.yul\":6328:6329   */\n      dup2\n        /* \"#utility.yul\":6325:6338   */\n      gt\n        /* \"#utility.yul\":6322:6423   */\n      iszero\n      tag_195\n      jumpi\n        /* \"#utility.yul\":6411:6412   */\n      0x00\n        /* \"#utility.yul\":6402:6408   */\n      dup5\n        /* \"#utility.yul\":6397:6400   */\n      dup5\n        /* \"#utility.yul\":6393:6409   */\n      add\n        /* \"#utility.yul\":6386:6413   */\n      mstore\n        /* \"#utility.yul\":6322:6423   */\n    tag_195:\n        /* \"#utility.yul\":6171:6429   */\n      pop\n        /* \"#utility.yul\":6122:6429   */\n      pop\n      pop\n      pop\n      jump\t// out\n        /* \"#utility.yul\":6435:6755   */\n    tag_44:\n        /* \"#utility.yul\":6479:6485   */\n      0x00\n        /* \"#utility.yul\":6516:6517   */\n      0x02\n        /* \"#utility.yul\":6510:6514   */\n      dup3\n        /* \"#utility.yul\":6506:6518   */\n      div\n        /* \"#utility.yul\":6496:6518   */\n      swap1\n      pop\n        /* \"#utility.yul\":6563:6564   */\n      0x01\n        /* \"#utility.yul\":6557:6561   */\n      dup3\n        /* \"#utility.yul\":6553:6565   */\n      and\n        /* \"#utility.yul\":6584:6602   */\n      dup1\n        /* \"#utility.yul\":6574:6655   */\n      tag_197\n      jumpi\n        /* \"#utility.yul\":6640:6644   */\n      0x7f\n        /* \"#utility.yul\":6632:6638   */\n      dup3\n        /* \"#utility.yul\":6628:6645   */\n      and\n        /* \"#utility.yul\":6618:6645   */\n      swap2\n      pop\n        /* \"#utility.yul\":6574:6655   */\n    tag_197:\n        /* \"#utility.yul\":6702:6704   */\n      0x20\n        /* \"#utility.yul\":6694:6700   */\n      dup3\n        /* \"#utility.yul\":6691:6705   */\n      lt\n        /* \"#utility.yul\":6671:6689   */\n      dup2\n        /* \"#utility.yul\":6668:6706   */\n      eq\n        /* \"#utility.yul\":6665:6749   */\n      iszero\n      tag_198\n      jumpi\n        /* \"#utility.yul\":6721:6739   */\n      tag_199\n      tag_200\n      jump\t// in\n    tag_199:\n        /* \"#utility.yul\":6665:6749   */\n    tag_198:\n        /* \"#utility.yul\":6486:6755   */\n      pop\n        /* \"#utility.yul\":6435:6755   */\n      swap2\n      swap1\n      pop\n      jump\t// out\n        /* \"#utility.yul\":6761:7042   */\n    tag_169:\n        /* \"#utility.yul\":6844:6871   */\n      tag_202\n        /* \"#utility.yul\":6866:6870   */\n      dup3\n        /* \"#utility.yul\":6844:6871   */\n      tag_153\n      jump\t// in\n    tag_202:\n        /* \"#utility.yul\":6836:6842   */\n      dup2\n        /* \"#utility.yul\":6832:6872   */\n      add\n        /* \"#utility.yul\":6974:6980   */\n      dup2\n        /* \"#utility.yul\":6962:6972   */\n      dup2\n        /* \"#utility.yul\":6959:6981   */\n      lt\n        /* \"#utility.yul\":6938:6956   */\n      0xffffffffffffffff\n        /* \"#utility.yul\":6926:6936   */\n      dup3\n        /* \"#utility.yul\":6923:6957   */\n      gt\n        /* \"#utility.yul\":6920:6982   */\n      or\n        /* \"#utility.yul\":6917:7005   */\n      iszero\n      tag_203\n      jumpi\n        /* \"#utility.yul\":6985:7003   */\n      tag_204\n      tag_174\n      jump\t// in\n    tag_204:\n        /* \"#utility.yul\":6917:7005   */\n    tag_203:\n        /* \"#utility.yul\":7025:7035   */\n      dup1\n        /* \"#utility.yul\":7021:7023   */\n      0x40\n        /* \"#utility.yul\":7014:7036   */\n      mstore\n        /* \"#utility.yul\":6804:7042   */\n      pop\n        /* \"#utility.yul\":6761:7042   */\n      pop\n      pop\n      jump\t// out\n        /* \"#utility.yul\":7048:7281   */\n    tag_62:\n        /* \"#utility.yul\":7087:7090   */\n      0x00\n        /* \"#utility.yul\":7110:7134   */\n      tag_206\n        /* \"#utility.yul\":7128:7133   */\n      dup3\n        /* \"#utility.yul\":7110:7134   */\n      tag_157\n      jump\t// in\n    tag_206:\n        /* \"#utility.yul\":7101:7134   */\n      swap2\n      pop\n        /* \"#utility.yul\":7156:7222   */\n      0xffffffffffffffffffffffffffffffffffffffffffffffffffffffffffffffff\n        /* \"#utility.yul\":7149:7154   */\n      dup3\n        /* \"#utility.yul\":7146:7223   */\n      eq\n        /* \"#utility.yul\":7143:7246   */\n      iszero\n      tag_207\n      jumpi\n        /* \"#utility.yul\":7226:7244   */\n      tag_208\n      tag_183\n      jump\t// in\n    tag_208:\n        /* \"#utility.yul\":7143:7246   */\n    tag_207:\n        /* \"#utility.yul\":7273:7274   */\n      0x01\n        /* \"#utility.yul\":7266:7271   */\n      dup3\n        /* \"#utility.yul\":7262:7275   */\n      add\n        /* \"#utility.yul\":7255:7275   */\n      swap1\n      pop\n        /* \"#utility.yul\":7048:7281   */\n      swap2\n      swap1\n      pop\n      jump\t// out\n        /* \"#utility.yul\":7287:7467   */\n    tag_183:\n        /* \"#utility.yul\":7335:7412   */\n      0x4e487b7100000000000000000000000000000000000000000000000000000000\n        /* \"#utility.yul\":7332:7333   */\n      0x00\n        /* \"#utility.yul\":7325:7413   */\n      mstore\n        /* \"#utility.yul\":7432:7436   */\n      0x11\n        /* \"#utility.yul\":7429:7430   */\n      0x04\n        /* \"#utility.yul\":7422:7437   */\n      mstore\n        /* \"#utility.yul\":7456:7460   */\n      0x24\n        /* \"#utility.yul\":7453:7454   */\n      0x00\n        /* \"#utility.yul\":7446:7461   */\n      revert\n        /* \"#utility.yul\":7473:7653   */\n    tag_200:\n        /* \"#utility.yul\":7521:7598   */\n      0x4e487b7100000000000000000000000000000000000000000000000000000000\n        /* \"#utility.yul\":7518:7519   */\n      0x00\n        /* \"#utility.yul\":7511:7599   */\n      mstore\n        /* \"#utility.yul\":7618:7622   */\n      0x22\n        /* \"#utility.yul\":7615:7616   */\n      0x04\n        /* \"#utility.yul\":7608:7623   */\n      mstore\n        /* \"#utility.yul\":7642:7646   */\n      0x24\n        /* \"#utility.yul\":7639:7640   */\n      0x00\n        /* \"#utility.yul\":7632:7647   */\n      revert\n        /* \"#utility.yul\":7659:7839   */\n    tag_55:\n        /* \"#utility.yul\":7707:7784   */\n      0x4e487b7100000000000000000000000000000000000000000000000000000000\n        /* \"#utility.yul\":7704:7705   */\n      0x00\n        /* \"#utility.yul\":7697:7785   */\n      mstore\n        /* \"#utility.yul\":7804:7808   */\n      0x32\n        /* \"#utility.yul\":7801:7802   */\n      0x04\n        /* \"#utility.yul\":7794:7809   */\n      mstore\n        /* \"#utility.yul\":7828:7832   */\n      0x24\n        /* \"#utility.yul\":7825:7826   */\n      0x00\n        /* \"#utility.yul\":7818:7833   */\n      revert\n        /* \"#utility.yul\":7845:8025   */\n    tag_174:\n        /* \"#utility.yul\":7893:7970   */\n      0x4e487b7100000000000000000000000000000000000000000000000000000000\n        /* \"#utility.yul\":7890:7891   */\n      0x00\n        /* \"#utility.yul\":7883:7971   */\n      mstore\n        /* \"#utility.yul\":7990:7994   */\n      0x41\n        /* \"#utility.yul\":7987:7988   */\n      0x04\n        /* \"#utility.yul\":7980:7995   */\n      mstore\n        /* \"#utility.yul\":8014:8018   */\n      0x24\n        /* \"#utility.yul\":8011:8012   */\n      0x00\n        /* \"#utility.yul\":8004:8019   */\n      revert\n        /* \"#utility.yul\":8031:8148   */\n    tag_111:\n        /* \"#utility.yul\":8140:8141   */\n      0x00\n        /* \"#utility.yul\":8137:8138   */\n      dup1\n        /* \"#utility.yul\":8130:8142   */\n      revert\n        /* \"#utility.yul\":8154:8271   */\n    tag_96:\n        /* \"#utility.yul\":8263:8264   */\n      0x00\n        /* \"#utility.yul\":8260:8261   */\n      dup1\n        /* \"#utility.yul\":8253:8265   */\n      revert\n        /* \"#utility.yul\":8277:8394   */\n    tag_128:\n        /* \"#utility.yul\":8386:8387   */\n      0x00\n        /* \"#utility.yul\":8383:8384   */\n      dup1\n        /* \"#utility.yul\":8376:8388   */\n      revert\n        /* \"#utility.yul\":8400:8517   */\n    tag_120:\n        /* \"#utility.yul\":8509:8510   */\n      0x00\n        /* \"#utility.yul\":8506:8507   */\n      dup1\n        /* \"#utility.yul\":8499:8511   */\n      revert\n        /* \"#utility.yul\":8523:8625   */\n    tag_153:\n        /* \"#utility.yul\":8564:8570   */\n      0x00\n        /* \"#utility.yul\":8615:8617   */\n      0x1f\n        /* \"#utility.yul\":8611:8618   */\n      not\n        /* \"#utility.yul\":8606:8608   */\n      0x1f\n        /* \"#utility.yul\":8599:8604   */\n      dup4\n        /* \"#utility.yul\":8595:8609   */\n      add\n        /* \"#utility.yul\":8591:8619   */\n      and\n        /* \"#utility.yul\":8581:8619   */\n      swap1\n      pop\n        /* \"#utility.yul\":8523:8625   */\n      swap2\n      swap1\n      pop\n      jump\t// out\n        /* \"#utility.yul\":8631:8753   */\n    tag_102:\n        /* \"#utility.yul\":8704:8728   */\n      tag_219\n        /* \"#utility.yul\":8722:8727   */\n      dup2\n        /* \"#utility.yul\":8704:8728   */\n      tag_139\n      jump\t// in\n    tag_219:\n        /* \"#utility.yul\":8697:8702   */\n      dup2\n        /* \"#utility.yul\":8694:8729   */\n      eq\n        /* \"#utility.yul\":8684:8747   */\n      tag_220\n      jumpi\n        /* \"#utility.yul\":8743:8744   */\n      0x00\n        /* \"#utility.yul\":8740:8741   */\n      dup1\n        /* \"#utility.yul\":8733:8745   */\n      revert\n        /* \"#utility.yul\":8684:8747   */\n    tag_220:\n        /* \"#utility.yul\":8631:8753   */\n      pop\n      jump\t// out\n        /* \"#utility.yul\":8759:8875   */\n    tag_106:\n        /* \"#utility.yul\":8829:8850   */\n      tag_222\n        /* \"#utility.yul\":8844:8849   */\n      dup2\n        /* \"#utility.yul\":8829:8850   */\n      tag_143\n      jump\t// in\n    tag_222:\n        /* \"#utility.yul\":8822:8827   */\n      dup2\n        /* \"#utility.yul\":8819:8851   */\n      eq\n        /* \"#utility.yul\":8809:8869   */\n      tag_223\n      jumpi\n        /* \"#utility.yul\":8865:8866   */\n      0x00\n        /* \"#utility.yul\":8862:8863   */\n      dup1\n        /* \"#utility.yul\":8855:8867   */\n      revert\n        /* \"#utility.yul\":8809:8869   */\n    tag_223:\n        /* \"#utility.yul\":8759:8875   */\n      pop\n      jump\t// out\n        /* \"#utility.yul\":8881:9003   */\n    tag_116:\n        /* \"#utility.yul\":8954:8978   */\n      tag_225\n        /* \"#utility.yul\":8972:8977   */\n      dup2\n        /* \"#utility.yul\":8954:8978   */\n      tag_157\n      jump\t// in\n    tag_225:\n        /* \"#utility.yul\":8947:8952   */\n      dup2\n        /* \"#utility.yul\":8944:8979   */\n      eq\n        /* \"#utility.yul\":8934:8997   */\n      tag_226\n      jumpi\n        /* \"#utility.yul\":8993:8994   */\n      0x00\n        /* \"#utility.yul\":8990:8991   */\n      dup1\n        /* \"#utility.yul\":8983:8995   */\n      revert\n        /* \"#utility.yul\":8934:8997   */\n    tag_226:\n        /* \"#utility.yul\":8881:9003   */\n      pop\n      jump\t// out\n\n    auxdata: 0xa2646970667358221220c6fd389338313107dfdd8796b51dd6301657e7a0f6e0f014160862ef2031704864736f6c63430008070033\n}\n",
				"bytecode": {
					"linkReferences": {},
					"object": "608060405234801561001057600080fd5b50336000806101000a81548173ffffffffffffffffffffffffffffffffffffffff021916908373ffffffffffffffffffffffffffffffffffffffff160217905550610b6f806100606000396000f3fe60806040526004361061004a5760003560e01c80631a6952301461004f578063280879e71461006b578063365b98b2146100945780636f7bc9be146100d457806370a0823114610111575b600080fd5b6100696004803603810190610064919061066b565b61014e565b005b34801561007757600080fd5b50610092600480360381019061008d9190610698565b61015a565b005b3480156100a057600080fd5b506100bb60048036038101906100b6919061071b565b610254565b6040516100cb94939291906107ae565b60405180910390f35b3480156100e057600080fd5b506100fb60048036038101906100f6919061066b565b610349565b60405161010891906107fa565b60405180910390f35b34801561011d57600080fd5b506101386004803603810190610133919061066b565b610361565b60405161014591906107fa565b60405180910390f35b6101578161043c565b50565b600160405180608001604052808673ffffffffffffffffffffffffffffffffffffffff168152602001858152602001848152602001831515815250908060018154018082558091505060019003906000526020600020906004020160009091909190915060008201518160000160006101000a81548173ffffffffffffffffffffffffffffffffffffffff021916908373ffffffffffffffffffffffffffffffffffffffff1602179055506020820151816001019080519060200190610221929190610519565b506040820151816002015560608201518160030160006101000a81548160ff021916908315150217905550505050505050565b6001818154811061026457600080fd5b90600052602060002090600402016000915090508060000160009054906101000a900473ffffffffffffffffffffffffffffffffffffffff16908060010180546102ad90610967565b80601f01602080910402602001604051908101604052809291908181526020018280546102d990610967565b80156103265780601f106102fb57610100808354040283529160200191610326565b820191906000526020600020905b81548152906001019060200180831161030957829003601f168201915b5050505050908060020154908060030160009054906101000a900460ff16905084565b60026020528060005260406000206000915090505481565b600080600090505b600180549050811015610430578273ffffffffffffffffffffffffffffffffffffffff16600182815481106103a1576103a0610a71565b5b906000526020600020906004020160000160009054906101000a900473ffffffffffffffffffffffffffffffffffffffff1673ffffffffffffffffffffffffffffffffffffffff16141561041d576001818154811061040357610402610a71565b5b906000526020600020906004020160020154915050610437565b8080610428906109ca565b915050610369565b506103e790505b919050565b60005b600180549050811015610515578173ffffffffffffffffffffffffffffffffffffffff166001828154811061047757610476610a71565b5b906000526020600020906004020160000160009054906101000a900473ffffffffffffffffffffffffffffffffffffffff1673ffffffffffffffffffffffffffffffffffffffff1614156105025734600182815481106104da576104d9610a71565b5b906000526020600020906004020160020160008282546104fa9190610887565b925050819055505b808061050d906109ca565b91505061043f565b5050565b82805461052590610967565b90600052602060002090601f016020900481019282610547576000855561058e565b82601f1061056057805160ff191683800117855561058e565b8280016001018555821561058e579182015b8281111561058d578251825591602001919060010190610572565b5b50905061059b919061059f565b5090565b5b808211156105b85760008160009055506001016105a0565b5090565b60006105cf6105ca8461083a565b610815565b9050828152602081018484840111156105eb576105ea610ad4565b5b6105f6848285610925565b509392505050565b60008135905061060d81610af4565b92915050565b60008135905061062281610b0b565b92915050565b600082601f83011261063d5761063c610acf565b5b813561064d8482602086016105bc565b91505092915050565b60008135905061066581610b22565b92915050565b60006020828403121561068157610680610ade565b5b600061068f848285016105fe565b91505092915050565b600080600080608085870312156106b2576106b1610ade565b5b60006106c0878288016105fe565b945050602085013567ffffffffffffffff8111156106e1576106e0610ad9565b5b6106ed87828801610628565b93505060406106fe87828801610656565b925050606061070f87828801610613565b91505092959194509250565b60006020828403121561073157610730610ade565b5b600061073f84828501610656565b91505092915050565b610751816108dd565b82525050565b610760816108ef565b82525050565b60006107718261086b565b61077b8185610876565b935061078b818560208601610934565b61079481610ae3565b840191505092915050565b6107a88161091b565b82525050565b60006080820190506107c36000830187610748565b81810360208301526107d58186610766565b90506107e4604083018561079f565b6107f16060830184610757565b95945050505050565b600060208201905061080f600083018461079f565b92915050565b600061081f610830565b905061082b8282610999565b919050565b6000604051905090565b600067ffffffffffffffff82111561085557610854610aa0565b5b61085e82610ae3565b9050602081019050919050565b600081519050919050565b600082825260208201905092915050565b60006108928261091b565b915061089d8361091b565b9250827fffffffffffffffffffffffffffffffffffffffffffffffffffffffffffffffff038211156108d2576108d1610a13565b5b828201905092915050565b60006108e8826108fb565b9050919050565b60008115159050919050565b600073ffffffffffffffffffffffffffffffffffffffff82169050919050565b6000819050919050565b82818337600083830152505050565b60005b83811015610952578082015181840152602081019050610937565b83811115610961576000848401525b50505050565b6000600282049050600182168061097f57607f821691505b6020821081141561099357610992610a42565b5b50919050565b6109a282610ae3565b810181811067ffffffffffffffff821117156109c1576109c0610aa0565b5b80604052505050565b60006109d58261091b565b91507fffffffffffffffffffffffffffffffffffffffffffffffffffffffffffffffff821415610a0857610a07610a13565b5b600182019050919050565b7f4e487b7100000000000000000000000000000000000000000000000000000000600052601160045260246000fd5b7f4e487b7100000000000000000000000000000000000000000000000000000000600052602260045260246000fd5b7f4e487b7100000000000000000000000000000000000000000000000000000000600052603260045260246000fd5b7f4e487b7100000000000000000000000000000000000000000000000000000000600052604160045260246000fd5b600080fd5b600080fd5b600080fd5b600080fd5b6000601f19601f8301169050919050565b610afd816108dd565b8114610b0857600080fd5b50565b610b14816108ef565b8114610b1f57600080fd5b50565b610b2b8161091b565b8114610b3657600080fd5b5056fea2646970667358221220c6fd389338313107dfdd8796b51dd6301657e7a0f6e0f014160862ef2031704864736f6c63430008070033",
					"opcodes": "PUSH1 0x80 PUSH1 0x40 MSTORE CALLVALUE DUP1 ISZERO PUSH2 0x10 JUMPI PUSH1 0x0 DUP1 REVERT JUMPDEST POP CALLER PUSH1 0x0 DUP1 PUSH2 0x100 EXP DUP2 SLOAD DUP2 PUSH20 0xFFFFFFFFFFFFFFFFFFFFFFFFFFFFFFFFFFFFFFFF MUL NOT AND SWAP1 DUP4 PUSH20 0xFFFFFFFFFFFFFFFFFFFFFFFFFFFFFFFFFFFFFFFF AND MUL OR SWAP1 SSTORE POP PUSH2 0xB6F DUP1 PUSH2 0x60 PUSH1 0x0 CODECOPY PUSH1 0x0 RETURN INVALID PUSH1 0x80 PUSH1 0x40 MSTORE PUSH1 0x4 CALLDATASIZE LT PUSH2 0x4A JUMPI PUSH1 0x0 CALLDATALOAD PUSH1 0xE0 SHR DUP1 PUSH4 0x1A695230 EQ PUSH2 0x4F JUMPI DUP1 PUSH4 0x280879E7 EQ PUSH2 0x6B JUMPI DUP1 PUSH4 0x365B98B2 EQ PUSH2 0x94 JUMPI DUP1 PUSH4 0x6F7BC9BE EQ PUSH2 0xD4 JUMPI DUP1 PUSH4 0x70A08231 EQ PUSH2 0x111 JUMPI JUMPDEST PUSH1 0x0 DUP1 REVERT JUMPDEST PUSH2 0x69 PUSH1 0x4 DUP1 CALLDATASIZE SUB DUP2 ADD SWAP1 PUSH2 0x64 SWAP2 SWAP1 PUSH2 0x66B JUMP JUMPDEST PUSH2 0x14E JUMP JUMPDEST STOP JUMPDEST CALLVALUE DUP1 ISZERO PUSH2 0x77 JUMPI PUSH1 0x0 DUP1 REVERT JUMPDEST POP PUSH2 0x92 PUSH1 0x4 DUP1 CALLDATASIZE SUB DUP2 ADD SWAP1 PUSH2 0x8D SWAP2 SWAP1 PUSH2 0x698 JUMP JUMPDEST PUSH2 0x15A JUMP JUMPDEST STOP JUMPDEST CALLVALUE DUP1 ISZERO PUSH2 0xA0 JUMPI PUSH1 0x0 DUP1 REVERT JUMPDEST POP PUSH2 0xBB PUSH1 0x4 DUP1 CALLDATASIZE SUB DUP2 ADD SWAP1 PUSH2 0xB6 SWAP2 SWAP1 PUSH2 0x71B JUMP JUMPDEST PUSH2 0x254 JUMP JUMPDEST PUSH1 0x40 MLOAD PUSH2 0xCB SWAP5 SWAP4 SWAP3 SWAP2 SWAP1 PUSH2 0x7AE JUMP JUMPDEST PUSH1 0x40 MLOAD DUP1 SWAP2 SUB SWAP1 RETURN JUMPDEST CALLVALUE DUP1 ISZERO PUSH2 0xE0 JUMPI PUSH1 0x0 DUP1 REVERT JUMPDEST POP PUSH2 0xFB PUSH1 0x4 DUP1 CALLDATASIZE SUB DUP2 ADD SWAP1 PUSH2 0xF6 SWAP2 SWAP1 PUSH2 0x66B JUMP JUMPDEST PUSH2 0x349 JUMP JUMPDEST PUSH1 0x40 MLOAD PUSH2 0x108 SWAP2 SWAP1 PUSH2 0x7FA JUMP JUMPDEST PUSH1 0x40 MLOAD DUP1 SWAP2 SUB SWAP1 RETURN JUMPDEST CALLVALUE DUP1 ISZERO PUSH2 0x11D JUMPI PUSH1 0x0 DUP1 REVERT JUMPDEST POP PUSH2 0x138 PUSH1 0x4 DUP1 CALLDATASIZE SUB DUP2 ADD SWAP1 PUSH2 0x133 SWAP2 SWAP1 PUSH2 0x66B JUMP JUMPDEST PUSH2 0x361 JUMP JUMPDEST PUSH1 0x40 MLOAD PUSH2 0x145 SWAP2 SWAP1 PUSH2 0x7FA JUMP JUMPDEST PUSH1 0x40 MLOAD DUP1 SWAP2 SUB SWAP1 RETURN JUMPDEST PUSH2 0x157 DUP2 PUSH2 0x43C JUMP JUMPDEST POP JUMP JUMPDEST PUSH1 0x1 PUSH1 0x40 MLOAD DUP1 PUSH1 0x80 ADD PUSH1 0x40 MSTORE DUP1 DUP7 PUSH20 0xFFFFFFFFFFFFFFFFFFFFFFFFFFFFFFFFFFFFFFFF AND DUP2 MSTORE PUSH1 0x20 ADD DUP6 DUP2 MSTORE PUSH1 0x20 ADD DUP5 DUP2 MSTORE PUSH1 0x20 ADD DUP4 ISZERO ISZERO DUP2 MSTORE POP SWAP1 DUP1 PUSH1 0x1 DUP2 SLOAD ADD DUP1 DUP3 SSTORE DUP1 SWAP2 POP POP PUSH1 0x1 SWAP1 SUB SWAP1 PUSH1 0x0 MSTORE PUSH1 0x20 PUSH1 0x0 KECCAK256 SWAP1 PUSH1 0x4 MUL ADD PUSH1 0x0 SWAP1 SWAP2 SWAP1 SWAP2 SWAP1 SWAP2 POP PUSH1 0x0 DUP3 ADD MLOAD DUP2 PUSH1 0x0 ADD PUSH1 0x0 PUSH2 0x100 EXP DUP2 SLOAD DUP2 PUSH20 0xFFFFFFFFFFFFFFFFFFFFFFFFFFFFFFFFFFFFFFFF MUL NOT AND SWAP1 DUP4 PUSH20 0xFFFFFFFFFFFFFFFFFFFFFFFFFFFFFFFFFFFFFFFF AND MUL OR SWAP1 SSTORE POP PUSH1 0x20 DUP3 ADD MLOAD DUP2 PUSH1 0x1 ADD SWAP1 DUP1 MLOAD SWAP1 PUSH1 0x20 ADD SWAP1 PUSH2 0x221 SWAP3 SWAP2 SWAP1 PUSH2 0x519 JUMP JUMPDEST POP PUSH1 0x40 DUP3 ADD MLOAD DUP2 PUSH1 0x2 ADD SSTORE PUSH1 0x60 DUP3 ADD MLOAD DUP2 PUSH1 0x3 ADD PUSH1 0x0 PUSH2 0x100 EXP DUP2 SLOAD DUP2 PUSH1 0xFF MUL NOT AND SWAP1 DUP4 ISZERO ISZERO MUL OR SWAP1 SSTORE POP POP POP POP POP POP POP JUMP JUMPDEST PUSH1 0x1 DUP2 DUP2 SLOAD DUP2 LT PUSH2 0x264 JUMPI PUSH1 0x0 DUP1 REVERT JUMPDEST SWAP1 PUSH1 0x0 MSTORE PUSH1 0x20 PUSH1 0x0 KECCAK256 SWAP1 PUSH1 0x4 MUL ADD PUSH1 0x0 SWAP2 POP SWAP1 POP DUP1 PUSH1 0x0 ADD PUSH1 0x0 SWAP1 SLOAD SWAP1 PUSH2 0x100 EXP SWAP1 DIV PUSH20 0xFFFFFFFFFFFFFFFFFFFFFFFFFFFFFFFFFFFFFFFF AND SWAP1 DUP1 PUSH1 0x1 ADD DUP1 SLOAD PUSH2 0x2AD SWAP1 PUSH2 0x967 JUMP JUMPDEST DUP1 PUSH1 0x1F ADD PUSH1 0x20 DUP1 SWAP2 DIV MUL PUSH1 0x20 ADD PUSH1 0x40 MLOAD SWAP1 DUP2 ADD PUSH1 0x40 MSTORE DUP1 SWAP3 SWAP2 SWAP1 DUP2 DUP2 MSTORE PUSH1 0x20 ADD DUP3 DUP1 SLOAD PUSH2 0x2D9 SWAP1 PUSH2 0x967 JUMP JUMPDEST DUP1 ISZERO PUSH2 0x326 JUMPI DUP1 PUSH1 0x1F LT PUSH2 0x2FB JUMPI PUSH2 0x100 DUP1 DUP4 SLOAD DIV MUL DUP4 MSTORE SWAP2 PUSH1 0x20 ADD SWAP2 PUSH2 0x326 JUMP JUMPDEST DUP3 ADD SWAP2 SWAP1 PUSH1 0x0 MSTORE PUSH1 0x20 PUSH1 0x0 KECCAK256 SWAP1 JUMPDEST DUP2 SLOAD DUP2 MSTORE SWAP1 PUSH1 0x1 ADD SWAP1 PUSH1 0x20 ADD DUP1 DUP4 GT PUSH2 0x309 JUMPI DUP3 SWAP1 SUB PUSH1 0x1F AND DUP3 ADD SWAP2 JUMPDEST POP POP POP POP POP SWAP1 DUP1 PUSH1 0x2 ADD SLOAD SWAP1 DUP1 PUSH1 0x3 ADD PUSH1 0x0 SWAP1 SLOAD SWAP1 PUSH2 0x100 EXP SWAP1 DIV PUSH1 0xFF AND SWAP1 POP DUP5 JUMP JUMPDEST PUSH1 0x2 PUSH1 0x20 MSTORE DUP1 PUSH1 0x0 MSTORE PUSH1 0x40 PUSH1 0x0 KECCAK256 PUSH1 0x0 SWAP2 POP SWAP1 POP SLOAD DUP2 JUMP JUMPDEST PUSH1 0x0 DUP1 PUSH1 0x0 SWAP1 POP JUMPDEST PUSH1 0x1 DUP1 SLOAD SWAP1 POP DUP2 LT ISZERO PUSH2 0x430 JUMPI DUP3 PUSH20 0xFFFFFFFFFFFFFFFFFFFFFFFFFFFFFFFFFFFFFFFF AND PUSH1 0x1 DUP3 DUP2 SLOAD DUP2 LT PUSH2 0x3A1 JUMPI PUSH2 0x3A0 PUSH2 0xA71 JUMP JUMPDEST JUMPDEST SWAP1 PUSH1 0x0 MSTORE PUSH1 0x20 PUSH1 0x0 KECCAK256 SWAP1 PUSH1 0x4 MUL ADD PUSH1 0x0 ADD PUSH1 0x0 SWAP1 SLOAD SWAP1 PUSH2 0x100 EXP SWAP1 DIV PUSH20 0xFFFFFFFFFFFFFFFFFFFFFFFFFFFFFFFFFFFFFFFF AND PUSH20 0xFFFFFFFFFFFFFFFFFFFFFFFFFFFFFFFFFFFFFFFF AND EQ ISZERO PUSH2 0x41D JUMPI PUSH1 0x1 DUP2 DUP2 SLOAD DUP2 LT PUSH2 0x403 JUMPI PUSH2 0x402 PUSH2 0xA71 JUMP JUMPDEST JUMPDEST SWAP1 PUSH1 0x0 MSTORE PUSH1 0x20 PUSH1 0x0 KECCAK256 SWAP1 PUSH1 0x4 MUL ADD PUSH1 0x2 ADD SLOAD SWAP2 POP POP PUSH2 0x437 JUMP JUMPDEST DUP1 DUP1 PUSH2 0x428 SWAP1 PUSH2 0x9CA JUMP JUMPDEST SWAP2 POP POP PUSH2 0x369 JUMP JUMPDEST POP PUSH2 0x3E7 SWAP1 POP JUMPDEST SWAP2 SWAP1 POP JUMP JUMPDEST PUSH1 0x0 JUMPDEST PUSH1 0x1 DUP1 SLOAD SWAP1 POP DUP2 LT ISZERO PUSH2 0x515 JUMPI DUP2 PUSH20 0xFFFFFFFFFFFFFFFFFFFFFFFFFFFFFFFFFFFFFFFF AND PUSH1 0x1 DUP3 DUP2 SLOAD DUP2 LT PUSH2 0x477 JUMPI PUSH2 0x476 PUSH2 0xA71 JUMP JUMPDEST JUMPDEST SWAP1 PUSH1 0x0 MSTORE PUSH1 0x20 PUSH1 0x0 KECCAK256 SWAP1 PUSH1 0x4 MUL ADD PUSH1 0x0 ADD PUSH1 0x0 SWAP1 SLOAD SWAP1 PUSH2 0x100 EXP SWAP1 DIV PUSH20 0xFFFFFFFFFFFFFFFFFFFFFFFFFFFFFFFFFFFFFFFF AND PUSH20 0xFFFFFFFFFFFFFFFFFFFFFFFFFFFFFFFFFFFFFFFF AND EQ ISZERO PUSH2 0x502 JUMPI CALLVALUE PUSH1 0x1 DUP3 DUP2 SLOAD DUP2 LT PUSH2 0x4DA JUMPI PUSH2 0x4D9 PUSH2 0xA71 JUMP JUMPDEST JUMPDEST SWAP1 PUSH1 0x0 MSTORE PUSH1 0x20 PUSH1 0x0 KECCAK256 SWAP1 PUSH1 0x4 MUL ADD PUSH1 0x2 ADD PUSH1 0x0 DUP3 DUP3 SLOAD PUSH2 0x4FA SWAP2 SWAP1 PUSH2 0x887 JUMP JUMPDEST SWAP3 POP POP DUP2 SWAP1 SSTORE POP JUMPDEST DUP1 DUP1 PUSH2 0x50D SWAP1 PUSH2 0x9CA JUMP JUMPDEST SWAP2 POP POP PUSH2 0x43F JUMP JUMPDEST POP POP JUMP JUMPDEST DUP3 DUP1 SLOAD PUSH2 0x525 SWAP1 PUSH2 0x967 JUMP JUMPDEST SWAP1 PUSH1 0x0 MSTORE PUSH1 0x20 PUSH1 0x0 KECCAK256 SWAP1 PUSH1 0x1F ADD PUSH1 0x20 SWAP1 DIV DUP2 ADD SWAP3 DUP3 PUSH2 0x547 JUMPI PUSH1 0x0 DUP6 SSTORE PUSH2 0x58E JUMP JUMPDEST DUP3 PUSH1 0x1F LT PUSH2 0x560 JUMPI DUP1 MLOAD PUSH1 0xFF NOT AND DUP4 DUP1 ADD OR DUP6 SSTORE PUSH2 0x58E JUMP JUMPDEST DUP3 DUP1 ADD PUSH1 0x1 ADD DUP6 SSTORE DUP3 ISZERO PUSH2 0x58E JUMPI SWAP2 DUP3 ADD JUMPDEST DUP3 DUP2 GT ISZERO PUSH2 0x58D JUMPI DUP3 MLOAD DUP3 SSTORE SWAP2 PUSH1 0x20 ADD SWAP2 SWAP1 PUSH1 0x1 ADD SWAP1 PUSH2 0x572 JUMP JUMPDEST JUMPDEST POP SWAP1 POP PUSH2 0x59B SWAP2 SWAP1 PUSH2 0x59F JUMP JUMPDEST POP SWAP1 JUMP JUMPDEST JUMPDEST DUP1 DUP3 GT ISZERO PUSH2 0x5B8 JUMPI PUSH1 0x0 DUP2 PUSH1 0x0 SWAP1 SSTORE POP PUSH1 0x1 ADD PUSH2 0x5A0 JUMP JUMPDEST POP SWAP1 JUMP JUMPDEST PUSH1 0x0 PUSH2 0x5CF PUSH2 0x5CA DUP5 PUSH2 0x83A JUMP JUMPDEST PUSH2 0x815 JUMP JUMPDEST SWAP1 POP DUP3 DUP2 MSTORE PUSH1 0x20 DUP2 ADD DUP5 DUP5 DUP5 ADD GT ISZERO PUSH2 0x5EB JUMPI PUSH2 0x5EA PUSH2 0xAD4 JUMP JUMPDEST JUMPDEST PUSH2 0x5F6 DUP5 DUP3 DUP6 PUSH2 0x925 JUMP JUMPDEST POP SWAP4 SWAP3 POP POP POP JUMP JUMPDEST PUSH1 0x0 DUP2 CALLDATALOAD SWAP1 POP PUSH2 0x60D DUP2 PUSH2 0xAF4 JUMP JUMPDEST SWAP3 SWAP2 POP POP JUMP JUMPDEST PUSH1 0x0 DUP2 CALLDATALOAD SWAP1 POP PUSH2 0x622 DUP2 PUSH2 0xB0B JUMP JUMPDEST SWAP3 SWAP2 POP POP JUMP JUMPDEST PUSH1 0x0 DUP3 PUSH1 0x1F DUP4 ADD SLT PUSH2 0x63D JUMPI PUSH2 0x63C PUSH2 0xACF JUMP JUMPDEST JUMPDEST DUP2 CALLDATALOAD PUSH2 0x64D DUP5 DUP3 PUSH1 0x20 DUP7 ADD PUSH2 0x5BC JUMP JUMPDEST SWAP2 POP POP SWAP3 SWAP2 POP POP JUMP JUMPDEST PUSH1 0x0 DUP2 CALLDATALOAD SWAP1 POP PUSH2 0x665 DUP2 PUSH2 0xB22 JUMP JUMPDEST SWAP3 SWAP2 POP POP JUMP JUMPDEST PUSH1 0x0 PUSH1 0x20 DUP3 DUP5 SUB SLT ISZERO PUSH2 0x681 JUMPI PUSH2 0x680 PUSH2 0xADE JUMP JUMPDEST JUMPDEST PUSH1 0x0 PUSH2 0x68F DUP5 DUP3 DUP6 ADD PUSH2 0x5FE JUMP JUMPDEST SWAP2 POP POP SWAP3 SWAP2 POP POP JUMP JUMPDEST PUSH1 0x0 DUP1 PUSH1 0x0 DUP1 PUSH1 0x80 DUP6 DUP8 SUB SLT ISZERO PUSH2 0x6B2 JUMPI PUSH2 0x6B1 PUSH2 0xADE JUMP JUMPDEST JUMPDEST PUSH1 0x0 PUSH2 0x6C0 DUP8 DUP3 DUP9 ADD PUSH2 0x5FE JUMP JUMPDEST SWAP5 POP POP PUSH1 0x20 DUP6 ADD CALLDATALOAD PUSH8 0xFFFFFFFFFFFFFFFF DUP2 GT ISZERO PUSH2 0x6E1 JUMPI PUSH2 0x6E0 PUSH2 0xAD9 JUMP JUMPDEST JUMPDEST PUSH2 0x6ED DUP8 DUP3 DUP9 ADD PUSH2 0x628 JUMP JUMPDEST SWAP4 POP POP PUSH1 0x40 PUSH2 0x6FE DUP8 DUP3 DUP9 ADD PUSH2 0x656 JUMP JUMPDEST SWAP3 POP POP PUSH1 0x60 PUSH2 0x70F DUP8 DUP3 DUP9 ADD PUSH2 0x613 JUMP JUMPDEST SWAP2 POP POP SWAP3 SWAP6 SWAP2 SWAP5 POP SWAP3 POP JUMP JUMPDEST PUSH1 0x0 PUSH1 0x20 DUP3 DUP5 SUB SLT ISZERO PUSH2 0x731 JUMPI PUSH2 0x730 PUSH2 0xADE JUMP JUMPDEST JUMPDEST PUSH1 0x0 PUSH2 0x73F DUP5 DUP3 DUP6 ADD PUSH2 0x656 JUMP JUMPDEST SWAP2 POP POP SWAP3 SWAP2 POP POP JUMP JUMPDEST PUSH2 0x751 DUP2 PUSH2 0x8DD JUMP JUMPDEST DUP3 MSTORE POP POP JUMP JUMPDEST PUSH2 0x760 DUP2 PUSH2 0x8EF JUMP JUMPDEST DUP3 MSTORE POP POP JUMP JUMPDEST PUSH1 0x0 PUSH2 0x771 DUP3 PUSH2 0x86B JUMP JUMPDEST PUSH2 0x77B DUP2 DUP6 PUSH2 0x876 JUMP JUMPDEST SWAP4 POP PUSH2 0x78B DUP2 DUP6 PUSH1 0x20 DUP7 ADD PUSH2 0x934 JUMP JUMPDEST PUSH2 0x794 DUP2 PUSH2 0xAE3 JUMP JUMPDEST DUP5 ADD SWAP2 POP POP SWAP3 SWAP2 POP POP JUMP JUMPDEST PUSH2 0x7A8 DUP2 PUSH2 0x91B JUMP JUMPDEST DUP3 MSTORE POP POP JUMP JUMPDEST PUSH1 0x0 PUSH1 0x80 DUP3 ADD SWAP1 POP PUSH2 0x7C3 PUSH1 0x0 DUP4 ADD DUP8 PUSH2 0x748 JUMP JUMPDEST DUP2 DUP2 SUB PUSH1 0x20 DUP4 ADD MSTORE PUSH2 0x7D5 DUP2 DUP7 PUSH2 0x766 JUMP JUMPDEST SWAP1 POP PUSH2 0x7E4 PUSH1 0x40 DUP4 ADD DUP6 PUSH2 0x79F JUMP JUMPDEST PUSH2 0x7F1 PUSH1 0x60 DUP4 ADD DUP5 PUSH2 0x757 JUMP JUMPDEST SWAP6 SWAP5 POP POP POP POP POP JUMP JUMPDEST PUSH1 0x0 PUSH1 0x20 DUP3 ADD SWAP1 POP PUSH2 0x80F PUSH1 0x0 DUP4 ADD DUP5 PUSH2 0x79F JUMP JUMPDEST SWAP3 SWAP2 POP POP JUMP JUMPDEST PUSH1 0x0 PUSH2 0x81F PUSH2 0x830 JUMP JUMPDEST SWAP1 POP PUSH2 0x82B DUP3 DUP3 PUSH2 0x999 JUMP JUMPDEST SWAP2 SWAP1 POP JUMP JUMPDEST PUSH1 0x0 PUSH1 0x40 MLOAD SWAP1 POP SWAP1 JUMP JUMPDEST PUSH1 0x0 PUSH8 0xFFFFFFFFFFFFFFFF DUP3 GT ISZERO PUSH2 0x855 JUMPI PUSH2 0x854 PUSH2 0xAA0 JUMP JUMPDEST JUMPDEST PUSH2 0x85E DUP3 PUSH2 0xAE3 JUMP JUMPDEST SWAP1 POP PUSH1 0x20 DUP2 ADD SWAP1 POP SWAP2 SWAP1 POP JUMP JUMPDEST PUSH1 0x0 DUP2 MLOAD SWAP1 POP SWAP2 SWAP1 POP JUMP JUMPDEST PUSH1 0x0 DUP3 DUP3 MSTORE PUSH1 0x20 DUP3 ADD SWAP1 POP SWAP3 SWAP2 POP POP JUMP JUMPDEST PUSH1 0x0 PUSH2 0x892 DUP3 PUSH2 0x91B JUMP JUMPDEST SWAP2 POP PUSH2 0x89D DUP4 PUSH2 0x91B JUMP JUMPDEST SWAP3 POP DUP3 PUSH32 0xFFFFFFFFFFFFFFFFFFFFFFFFFFFFFFFFFFFFFFFFFFFFFFFFFFFFFFFFFFFFFFFF SUB DUP3 GT ISZERO PUSH2 0x8D2 JUMPI PUSH2 0x8D1 PUSH2 0xA13 JUMP JUMPDEST JUMPDEST DUP3 DUP3 ADD SWAP1 POP SWAP3 SWAP2 POP POP JUMP JUMPDEST PUSH1 0x0 PUSH2 0x8E8 DUP3 PUSH2 0x8FB JUMP JUMPDEST SWAP1 POP SWAP2 SWAP1 POP JUMP JUMPDEST PUSH1 0x0 DUP2 ISZERO ISZERO SWAP1 POP SWAP2 SWAP1 POP JUMP JUMPDEST PUSH1 0x0 PUSH20 0xFFFFFFFFFFFFFFFFFFFFFFFFFFFFFFFFFFFFFFFF DUP3 AND SWAP1 POP SWAP2 SWAP1 POP JUMP JUMPDEST PUSH1 0x0 DUP2 SWAP1 POP SWAP2 SWAP1 POP JUMP JUMPDEST DUP3 DUP2 DUP4 CALLDATACOPY PUSH1 0x0 DUP4 DUP4 ADD MSTORE POP POP POP JUMP JUMPDEST PUSH1 0x0 JUMPDEST DUP4 DUP2 LT ISZERO PUSH2 0x952 JUMPI DUP1 DUP3 ADD MLOAD DUP2 DUP5 ADD MSTORE PUSH1 0x20 DUP2 ADD SWAP1 POP PUSH2 0x937 JUMP JUMPDEST DUP4 DUP2 GT ISZERO PUSH2 0x961 JUMPI PUSH1 0x0 DUP5 DUP5 ADD MSTORE JUMPDEST POP POP POP POP JUMP JUMPDEST PUSH1 0x0 PUSH1 0x2 DUP3 DIV SWAP1 POP PUSH1 0x1 DUP3 AND DUP1 PUSH2 0x97F JUMPI PUSH1 0x7F DUP3 AND SWAP2 POP JUMPDEST PUSH1 0x20 DUP3 LT DUP2 EQ ISZERO PUSH2 0x993 JUMPI PUSH2 0x992 PUSH2 0xA42 JUMP JUMPDEST JUMPDEST POP SWAP2 SWAP1 POP JUMP JUMPDEST PUSH2 0x9A2 DUP3 PUSH2 0xAE3 JUMP JUMPDEST DUP2 ADD DUP2 DUP2 LT PUSH8 0xFFFFFFFFFFFFFFFF DUP3 GT OR ISZERO PUSH2 0x9C1 JUMPI PUSH2 0x9C0 PUSH2 0xAA0 JUMP JUMPDEST JUMPDEST DUP1 PUSH1 0x40 MSTORE POP POP POP JUMP JUMPDEST PUSH1 0x0 PUSH2 0x9D5 DUP3 PUSH2 0x91B JUMP JUMPDEST SWAP2 POP PUSH32 0xFFFFFFFFFFFFFFFFFFFFFFFFFFFFFFFFFFFFFFFFFFFFFFFFFFFFFFFFFFFFFFFF DUP3 EQ ISZERO PUSH2 0xA08 JUMPI PUSH2 0xA07 PUSH2 0xA13 JUMP JUMPDEST JUMPDEST PUSH1 0x1 DUP3 ADD SWAP1 POP SWAP2 SWAP1 POP JUMP JUMPDEST PUSH32 0x4E487B7100000000000000000000000000000000000000000000000000000000 PUSH1 0x0 MSTORE PUSH1 0x11 PUSH1 0x4 MSTORE PUSH1 0x24 PUSH1 0x0 REVERT JUMPDEST PUSH32 0x4E487B7100000000000000000000000000000000000000000000000000000000 PUSH1 0x0 MSTORE PUSH1 0x22 PUSH1 0x4 MSTORE PUSH1 0x24 PUSH1 0x0 REVERT JUMPDEST PUSH32 0x4E487B7100000000000000000000000000000000000000000000000000000000 PUSH1 0x0 MSTORE PUSH1 0x32 PUSH1 0x4 MSTORE PUSH1 0x24 PUSH1 0x0 REVERT JUMPDEST PUSH32 0x4E487B7100000000000000000000000000000000000000000000000000000000 PUSH1 0x0 MSTORE PUSH1 0x41 PUSH1 0x4 MSTORE PUSH1 0x24 PUSH1 0x0 REVERT JUMPDEST PUSH1 0x0 DUP1 REVERT JUMPDEST PUSH1 0x0 DUP1 REVERT JUMPDEST PUSH1 0x0 DUP1 REVERT JUMPDEST PUSH1 0x0 DUP1 REVERT JUMPDEST PUSH1 0x0 PUSH1 0x1F NOT PUSH1 0x1F DUP4 ADD AND SWAP1 POP SWAP2 SWAP1 POP JUMP JUMPDEST PUSH2 0xAFD DUP2 PUSH2 0x8DD JUMP JUMPDEST DUP2 EQ PUSH2 0xB08 JUMPI PUSH1 0x0 DUP1 REVERT JUMPDEST POP JUMP JUMPDEST PUSH2 0xB14 DUP2 PUSH2 0x8EF JUMP JUMPDEST DUP2 EQ PUSH2 0xB1F JUMPI PUSH1 0x0 DUP1 REVERT JUMPDEST POP JUMP JUMPDEST PUSH2 0xB2B DUP2 PUSH2 0x91B JUMP JUMPDEST DUP2 EQ PUSH2 0xB36 JUMPI PUSH1 0x0 DUP1 REVERT JUMPDEST POP JUMP INVALID LOG2 PUSH5 0x6970667358 0x22 SLT KECCAK256 0xC6 REVERT CODESIZE SWAP4 CODESIZE BALANCE BALANCE SMOD 0xDF 0xDD DUP8 SWAP7 0xB5 SAR 0xD6 ADDRESS AND JUMPI 0xE7 LOG0 0xF6 0xE0 CREATE EQ AND ADDMOD PUSH3 0xEF2031 PUSH17 0x4864736F6C634300080700330000000000 "
				},
				"gasEstimates": {
					"creation": {
						"codeDepositCost": "585400",
						"executionCost": "24885",
						"totalCost": "610285"
					},
					"external": {
						"addUser(address,string,uint256,bool)": "infinite",
						"balanceOf(address)": "infinite",
						"investors(address)": "2858",
						"transfer(address)": "infinite",
						"users(uint256)": "infinite"
					},
					"internal": {
						"transferToAddress(address)": "infinite"
					}
				},
				"methodIdentifiers": {
					"addUser(address,string,uint256,bool)": "280879e7",
					"balanceOf(address)": "70a08231",
					"investors(address)": "6f7bc9be",
					"transfer(address)": "1a695230",
					"users(uint256)": "365b98b2"
				}
			},
			"storageLayout": {
				"storage": [
					{
						"astId": 3,
						"contract": "contracts/Test1.sol:Test1",
						"label": "owner",
						"offset": 0,
						"slot": "0",
						"type": "t_address"
					},
					{
						"astId": 25,
						"contract": "contracts/Test1.sol:Test1",
						"label": "users",
						"offset": 0,
						"slot": "1",
						"type": "t_array(t_struct(User)21_storage)dyn_storage"
					},
					{
						"astId": 29,
						"contract": "contracts/Test1.sol:Test1",
						"label": "investors",
						"offset": 0,
						"slot": "2",
						"type": "t_mapping(t_address,t_uint256)"
					}
				],
				"types": {
					"t_address": {
						"encoding": "inplace",
						"label": "address",
						"numberOfBytes": "20"
					},
					"t_array(t_struct(User)21_storage)dyn_storage": {
						"base": "t_struct(User)21_storage",
						"encoding": "dynamic_array",
						"label": "struct Test1.User[]",
						"numberOfBytes": "32"
					},
					"t_bool": {
						"encoding": "inplace",
						"label": "bool",
						"numberOfBytes": "1"
					},
					"t_mapping(t_address,t_uint256)": {
						"encoding": "mapping",
						"key": "t_address",
						"label": "mapping(address => uint256)",
						"numberOfBytes": "32",
						"value": "t_uint256"
					},
					"t_string_storage": {
						"encoding": "bytes",
						"label": "string",
						"numberOfBytes": "32"
					},
					"t_struct(User)21_storage": {
						"encoding": "inplace",
						"label": "struct Test1.User",
						"members": [
							{
								"astId": 14,
								"contract": "contracts/Test1.sol:Test1",
								"label": "walletAddress",
								"offset": 0,
								"slot": "0",
								"type": "t_address"
							},
							{
								"astId": 16,
								"contract": "contracts/Test1.sol:Test1",
								"label": "name",
								"offset": 0,
								"slot": "1",
								"type": "t_string_storage"
							},
							{
								"astId": 18,
								"contract": "contracts/Test1.sol:Test1",
								"label": "amount",
								"offset": 0,
								"slot": "2",
								"type": "t_uint256"
							},
							{
								"astId": 20,
								"contract": "contracts/Test1.sol:Test1",
								"label": "isInvestor",
								"offset": 0,
								"slot": "3",
								"type": "t_bool"
							}
						],
						"numberOfBytes": "128"
					},
					"t_uint256": {
						"encoding": "inplace",
						"label": "uint256",
						"numberOfBytes": "32"
					}
				}
			},
			"userdoc": {
				"kind": "user",
				"methods": {},
				"version": 1
			}
		}
	}
}