{
	"contracts/Test1.sol": {
		"Test1": {
			"abi": [
				{
					"inputs": [],
					"stateMutability": "nonpayable",
					"type": "constructor"
				},
				{
					"inputs": [
						{
							"internalType": "address",
							"name": "walletAddress",
							"type": "address"
						},
						{
							"internalType": "uint256",
							"name": "amount",
							"type": "uint256"
						}
					],
					"name": "addToInvestorMapping",
					"outputs": [],
					"stateMutability": "nonpayable",
					"type": "function"
				},
				{
					"inputs": [
						{
							"internalType": "address",
							"name": "walletAddress",
							"type": "address"
						},
						{
							"internalType": "string",
							"name": "name",
							"type": "string"
						},
						{
							"internalType": "uint256",
							"name": "amount",
							"type": "uint256"
						}
					],
					"name": "addUser",
					"outputs": [],
					"stateMutability": "nonpayable",
					"type": "function"
				},
				{
					"inputs": [
						{
							"internalType": "address",
							"name": "walletAddress",
							"type": "address"
						}
					],
					"name": "balanceOf",
					"outputs": [
						{
							"internalType": "uint256",
							"name": "",
							"type": "uint256"
						}
					],
					"stateMutability": "view",
					"type": "function"
				},
				{
					"inputs": [
						{
							"internalType": "address",
							"name": "walletAddress",
							"type": "address"
						}
					],
					"name": "getInvestorByAddress",
					"outputs": [
						{
							"internalType": "address",
							"name": "",
							"type": "address"
						},
						{
							"internalType": "uint256",
							"name": "",
							"type": "uint256"
						}
					],
					"stateMutability": "view",
					"type": "function"
				},
				{
					"inputs": [
						{
							"internalType": "address",
							"name": "",
							"type": "address"
						}
					],
					"name": "investors",
					"outputs": [
						{
							"internalType": "uint256",
							"name": "",
							"type": "uint256"
						}
					],
					"stateMutability": "view",
					"type": "function"
				},
				{
					"inputs": [
						{
							"internalType": "address",
							"name": "walletAddress",
							"type": "address"
						}
					],
					"name": "transfer",
					"outputs": [],
					"stateMutability": "payable",
					"type": "function"
				},
				{
					"inputs": [
						{
							"internalType": "uint256",
							"name": "",
							"type": "uint256"
						}
					],
					"name": "users",
					"outputs": [
						{
							"internalType": "address",
							"name": "walletAddress",
							"type": "address"
						},
						{
							"internalType": "string",
							"name": "name",
							"type": "string"
						},
						{
							"internalType": "uint256",
							"name": "amount",
							"type": "uint256"
						}
					],
					"stateMutability": "view",
					"type": "function"
				}
			],
			"devdoc": {
				"kind": "dev",
				"methods": {},
				"version": 1
			},
			"evm": {
				"assembly": "    /* \"contracts/Test1.sol\":65:1398  contract Test1{... */\n  mstore(0x40, 0x80)\n    /* \"contracts/Test1.sol\":106:154  constructor(){... */\n  callvalue\n  dup1\n  iszero\n  tag_1\n  jumpi\n  0x00\n  dup1\n  revert\ntag_1:\n  pop\n    /* \"contracts/Test1.sol\":137:147  msg.sender */\n  caller\n    /* \"contracts/Test1.sol\":129:134  owner */\n  0x00\n  dup1\n    /* \"contracts/Test1.sol\":129:147  owner = msg.sender */\n  0x0100\n  exp\n  dup2\n  sload\n  dup2\n  0xffffffffffffffffffffffffffffffffffffffff\n  mul\n  not\n  and\n  swap1\n  dup4\n  0xffffffffffffffffffffffffffffffffffffffff\n  and\n  mul\n  or\n  swap1\n  sstore\n  pop\n    /* \"contracts/Test1.sol\":65:1398  contract Test1{... */\n  dataSize(sub_0)\n  dup1\n  dataOffset(sub_0)\n  0x00\n  codecopy\n  0x00\n  return\nstop\n\nsub_0: assembly {\n        /* \"contracts/Test1.sol\":65:1398  contract Test1{... */\n      mstore(0x40, 0x80)\n      jumpi(tag_1, lt(calldatasize, 0x04))\n      shr(0xe0, calldataload(0x00))\n      dup1\n      0x6f7bc9be\n      gt\n      tag_9\n      jumpi\n      dup1\n      0x6f7bc9be\n      eq\n      tag_5\n      jumpi\n      dup1\n      0x70a08231\n      eq\n      tag_6\n      jumpi\n      dup1\n      0xa73a649c\n      eq\n      tag_7\n      jumpi\n      dup1\n      0xf0384fb6\n      eq\n      tag_8\n      jumpi\n      jump(tag_1)\n    tag_9:\n      dup1\n      0x1a695230\n      eq\n      tag_2\n      jumpi\n      dup1\n      0x365b98b2\n      eq\n      tag_3\n      jumpi\n      dup1\n      0x3e0dfbdf\n      eq\n      tag_4\n      jumpi\n    tag_1:\n      0x00\n      dup1\n      revert\n        /* \"contracts/Test1.sol\":771:876  function transfer(address walletAddress) payable public {... */\n    tag_2:\n      tag_10\n      0x04\n      dup1\n      calldatasize\n      sub\n      dup2\n      add\n      swap1\n      tag_11\n      swap2\n      swap1\n      tag_12\n      jump\t// in\n    tag_11:\n      tag_13\n      jump\t// in\n    tag_10:\n      stop\n        /* \"contracts/Test1.sol\":258:277  User[] public users */\n    tag_3:\n      callvalue\n      dup1\n      iszero\n      tag_14\n      jumpi\n      0x00\n      dup1\n      revert\n    tag_14:\n      pop\n      tag_15\n      0x04\n      dup1\n      calldatasize\n      sub\n      dup2\n      add\n      swap1\n      tag_16\n      swap2\n      swap1\n      tag_17\n      jump\t// in\n    tag_16:\n      tag_18\n      jump\t// in\n    tag_15:\n      mload(0x40)\n      tag_19\n      swap4\n      swap3\n      swap2\n      swap1\n      tag_20\n      jump\t// in\n    tag_19:\n      mload(0x40)\n      dup1\n      swap2\n      sub\n      swap1\n      return\n        /* \"contracts/Test1.sol\":662:765  function getInvestorByAddress(address walletAddress) public view returns(address, uint){... */\n    tag_4:\n      callvalue\n      dup1\n      iszero\n      tag_21\n      jumpi\n      0x00\n      dup1\n      revert\n    tag_21:\n      pop\n      tag_22\n      0x04\n      dup1\n      calldatasize\n      sub\n      dup2\n      add\n      swap1\n      tag_23\n      swap2\n      swap1\n      tag_12\n      jump\t// in\n    tag_23:\n      tag_24\n      jump\t// in\n    tag_22:\n      mload(0x40)\n      tag_25\n      swap3\n      swap2\n      swap1\n      tag_26\n      jump\t// in\n    tag_25:\n      mload(0x40)\n      dup1\n      swap2\n      sub\n      swap1\n      return\n        /* \"contracts/Test1.sol\":283:324  mapping(address => uint) public investors */\n    tag_5:\n      callvalue\n      dup1\n      iszero\n      tag_27\n      jumpi\n      0x00\n      dup1\n      revert\n    tag_27:\n      pop\n      tag_28\n      0x04\n      dup1\n      calldatasize\n      sub\n      dup2\n      add\n      swap1\n      tag_29\n      swap2\n      swap1\n      tag_12\n      jump\t// in\n    tag_29:\n      tag_30\n      jump\t// in\n    tag_28:\n      mload(0x40)\n      tag_31\n      swap2\n      swap1\n      tag_32\n      jump\t// in\n    tag_31:\n      mload(0x40)\n      dup1\n      swap2\n      sub\n      swap1\n      return\n        /* \"contracts/Test1.sol\":1128:1392  function balanceOf(address walletAddress) public view returns(uint){... */\n    tag_6:\n      callvalue\n      dup1\n      iszero\n      tag_33\n      jumpi\n      0x00\n      dup1\n      revert\n    tag_33:\n      pop\n      tag_34\n      0x04\n      dup1\n      calldatasize\n      sub\n      dup2\n      add\n      swap1\n      tag_35\n      swap2\n      swap1\n      tag_12\n      jump\t// in\n    tag_35:\n      tag_36\n      jump\t// in\n    tag_34:\n      mload(0x40)\n      tag_37\n      swap2\n      swap1\n      tag_32\n      jump\t// in\n    tag_37:\n      mload(0x40)\n      dup1\n      swap2\n      sub\n      swap1\n      return\n        /* \"contracts/Test1.sol\":533:656  function addToInvestorMapping(address walletAddress, uint amount) public {... */\n    tag_7:\n      callvalue\n      dup1\n      iszero\n      tag_38\n      jumpi\n      0x00\n      dup1\n      revert\n    tag_38:\n      pop\n      tag_39\n      0x04\n      dup1\n      calldatasize\n      sub\n      dup2\n      add\n      swap1\n      tag_40\n      swap2\n      swap1\n      tag_41\n      jump\t// in\n    tag_40:\n      tag_42\n      jump\t// in\n    tag_39:\n      stop\n        /* \"contracts/Test1.sol\":332:527  function addUser(address walletAddress, string memory name, uint amount) public {... */\n    tag_8:\n      callvalue\n      dup1\n      iszero\n      tag_43\n      jumpi\n      0x00\n      dup1\n      revert\n    tag_43:\n      pop\n      tag_44\n      0x04\n      dup1\n      calldatasize\n      sub\n      dup2\n      add\n      swap1\n      tag_45\n      swap2\n      swap1\n      tag_46\n      jump\t// in\n    tag_45:\n      tag_47\n      jump\t// in\n    tag_44:\n      stop\n        /* \"contracts/Test1.sol\":771:876  function transfer(address walletAddress) payable public {... */\n    tag_13:\n        /* \"contracts/Test1.sol\":837:869  transferToAddress(walletAddress) */\n      tag_49\n        /* \"contracts/Test1.sol\":855:868  walletAddress */\n      dup2\n        /* \"contracts/Test1.sol\":837:854  transferToAddress */\n      tag_50\n        /* \"contracts/Test1.sol\":837:869  transferToAddress(walletAddress) */\n      jump\t// in\n    tag_49:\n        /* \"contracts/Test1.sol\":771:876  function transfer(address walletAddress) payable public {... */\n      pop\n      jump\t// out\n        /* \"contracts/Test1.sol\":258:277  User[] public users */\n    tag_18:\n      0x01\n      dup2\n      dup2\n      sload\n      dup2\n      lt\n      tag_51\n      jumpi\n      0x00\n      dup1\n      revert\n    tag_51:\n      swap1\n      0x00\n      mstore\n      keccak256(0x00, 0x20)\n      swap1\n      0x03\n      mul\n      add\n      0x00\n      swap2\n      pop\n      swap1\n      pop\n      dup1\n      0x00\n      add\n      0x00\n      swap1\n      sload\n      swap1\n      0x0100\n      exp\n      swap1\n      div\n      0xffffffffffffffffffffffffffffffffffffffff\n      and\n      swap1\n      dup1\n      0x01\n      add\n      dup1\n      sload\n      tag_53\n      swap1\n      tag_54\n      jump\t// in\n    tag_53:\n      dup1\n      0x1f\n      add\n      0x20\n      dup1\n      swap2\n      div\n      mul\n      0x20\n      add\n      mload(0x40)\n      swap1\n      dup2\n      add\n      0x40\n      mstore\n      dup1\n      swap3\n      swap2\n      swap1\n      dup2\n      dup2\n      mstore\n      0x20\n      add\n      dup3\n      dup1\n      sload\n      tag_55\n      swap1\n      tag_54\n      jump\t// in\n    tag_55:\n      dup1\n      iszero\n      tag_56\n      jumpi\n      dup1\n      0x1f\n      lt\n      tag_57\n      jumpi\n      0x0100\n      dup1\n      dup4\n      sload\n      div\n      mul\n      dup4\n      mstore\n      swap2\n      0x20\n      add\n      swap2\n      jump(tag_56)\n    tag_57:\n      dup3\n      add\n      swap2\n      swap1\n      0x00\n      mstore\n      keccak256(0x00, 0x20)\n      swap1\n    tag_58:\n      dup2\n      sload\n      dup2\n      mstore\n      swap1\n      0x01\n      add\n      swap1\n      0x20\n      add\n      dup1\n      dup4\n      gt\n      tag_58\n      jumpi\n      dup3\n      swap1\n      sub\n      0x1f\n      and\n      dup3\n      add\n      swap2\n    tag_56:\n      pop\n      pop\n      pop\n      pop\n      pop\n      swap1\n      dup1\n      0x02\n      add\n      sload\n      swap1\n      pop\n      dup4\n      jump\t// out\n        /* \"contracts/Test1.sol\":662:765  function getInvestorByAddress(address walletAddress) public view returns(address, uint){... */\n    tag_24:\n        /* \"contracts/Test1.sol\":735:742  address */\n      0x00\n        /* \"contracts/Test1.sol\":744:748  uint */\n      dup1\n        /* \"contracts/Test1.sol\":662:765  function getInvestorByAddress(address walletAddress) public view returns(address, uint){... */\n      swap2\n      pop\n      swap2\n      jump\t// out\n        /* \"contracts/Test1.sol\":283:324  mapping(address => uint) public investors */\n    tag_30:\n      mstore(0x20, 0x02)\n      dup1\n      0x00\n      mstore\n      keccak256(0x00, 0x40)\n      0x00\n      swap2\n      pop\n      swap1\n      pop\n      sload\n      dup2\n      jump\t// out\n        /* \"contracts/Test1.sol\":1128:1392  function balanceOf(address walletAddress) public view returns(uint){... */\n    tag_36:\n        /* \"contracts/Test1.sol\":1190:1194  uint */\n      0x00\n        /* \"contracts/Test1.sol\":1209:1215  uint i */\n      dup1\n        /* \"contracts/Test1.sol\":1218:1219  0 */\n      0x00\n        /* \"contracts/Test1.sol\":1209:1219  uint i = 0 */\n      swap1\n      pop\n        /* \"contracts/Test1.sol\":1205:1365  for(uint i = 0; i < users.length; i++){... */\n    tag_61:\n        /* \"contracts/Test1.sol\":1225:1230  users */\n      0x01\n        /* \"contracts/Test1.sol\":1225:1237  users.length */\n      dup1\n      sload\n      swap1\n      pop\n        /* \"contracts/Test1.sol\":1221:1222  i */\n      dup2\n        /* \"contracts/Test1.sol\":1221:1237  i < users.length */\n      lt\n        /* \"contracts/Test1.sol\":1205:1365  for(uint i = 0; i < users.length; i++){... */\n      iszero\n      tag_62\n      jumpi\n        /* \"contracts/Test1.sol\":1286:1299  walletAddress */\n      dup3\n        /* \"contracts/Test1.sol\":1260:1299  users[i].walletAddress == walletAddress */\n      0xffffffffffffffffffffffffffffffffffffffff\n      and\n        /* \"contracts/Test1.sol\":1260:1265  users */\n      0x01\n        /* \"contracts/Test1.sol\":1266:1267  i */\n      dup3\n        /* \"contracts/Test1.sol\":1260:1268  users[i] */\n      dup2\n      sload\n      dup2\n      lt\n      tag_64\n      jumpi\n      tag_65\n      tag_66\n      jump\t// in\n    tag_65:\n    tag_64:\n      swap1\n      0x00\n      mstore\n      keccak256(0x00, 0x20)\n      swap1\n      0x03\n      mul\n      add\n        /* \"contracts/Test1.sol\":1260:1282  users[i].walletAddress */\n      0x00\n      add\n      0x00\n      swap1\n      sload\n      swap1\n      0x0100\n      exp\n      swap1\n      div\n      0xffffffffffffffffffffffffffffffffffffffff\n      and\n        /* \"contracts/Test1.sol\":1260:1299  users[i].walletAddress == walletAddress */\n      0xffffffffffffffffffffffffffffffffffffffff\n      and\n      eq\n        /* \"contracts/Test1.sol\":1257:1355  if(users[i].walletAddress == walletAddress){... */\n      iszero\n      tag_68\n      jumpi\n        /* \"contracts/Test1.sol\":1325:1330  users */\n      0x01\n        /* \"contracts/Test1.sol\":1331:1332  i */\n      dup2\n        /* \"contracts/Test1.sol\":1325:1333  users[i] */\n      dup2\n      sload\n      dup2\n      lt\n      tag_69\n      jumpi\n      tag_70\n      tag_66\n      jump\t// in\n    tag_70:\n    tag_69:\n      swap1\n      0x00\n      mstore\n      keccak256(0x00, 0x20)\n      swap1\n      0x03\n      mul\n      add\n        /* \"contracts/Test1.sol\":1325:1340  users[i].amount */\n      0x02\n      add\n      sload\n        /* \"contracts/Test1.sol\":1318:1340  return users[i].amount */\n      swap2\n      pop\n      pop\n      jump(tag_60)\n        /* \"contracts/Test1.sol\":1257:1355  if(users[i].walletAddress == walletAddress){... */\n    tag_68:\n        /* \"contracts/Test1.sol\":1239:1242  i++ */\n      dup1\n      dup1\n      tag_72\n      swap1\n      tag_73\n      jump\t// in\n    tag_72:\n      swap2\n      pop\n      pop\n        /* \"contracts/Test1.sol\":1205:1365  for(uint i = 0; i < users.length; i++){... */\n      jump(tag_61)\n    tag_62:\n      pop\n        /* \"contracts/Test1.sol\":1382:1385  999 */\n      0x03e7\n        /* \"contracts/Test1.sol\":1375:1385  return 999 */\n      swap1\n      pop\n        /* \"contracts/Test1.sol\":1128:1392  function balanceOf(address walletAddress) public view returns(uint){... */\n    tag_60:\n      swap2\n      swap1\n      pop\n      jump\t// out\n        /* \"contracts/Test1.sol\":533:656  function addToInvestorMapping(address walletAddress, uint amount) public {... */\n    tag_42:\n        /* \"contracts/Test1.sol\":643:649  amount */\n      dup1\n        /* \"contracts/Test1.sol\":616:625  investors */\n      0x02\n        /* \"contracts/Test1.sol\":616:640  investors[walletAddress] */\n      0x00\n        /* \"contracts/Test1.sol\":626:639  walletAddress */\n      dup5\n        /* \"contracts/Test1.sol\":616:640  investors[walletAddress] */\n      0xffffffffffffffffffffffffffffffffffffffff\n      and\n      0xffffffffffffffffffffffffffffffffffffffff\n      and\n      dup2\n      mstore\n      0x20\n      add\n      swap1\n      dup2\n      mstore\n      0x20\n      add\n      0x00\n      keccak256\n        /* \"contracts/Test1.sol\":616:649  investors[walletAddress] = amount */\n      dup2\n      swap1\n      sstore\n      pop\n        /* \"contracts/Test1.sol\":533:656  function addToInvestorMapping(address walletAddress, uint amount) public {... */\n      pop\n      pop\n      jump\t// out\n        /* \"contracts/Test1.sol\":332:527  function addUser(address walletAddress, string memory name, uint amount) public {... */\n    tag_47:\n        /* \"contracts/Test1.sol\":422:427  users */\n      0x01\n        /* \"contracts/Test1.sol\":433:466  User(walletAddress, name, amount) */\n      mload(0x40)\n      dup1\n      0x60\n      add\n      0x40\n      mstore\n      dup1\n        /* \"contracts/Test1.sol\":438:451  walletAddress */\n      dup6\n        /* \"contracts/Test1.sol\":433:466  User(walletAddress, name, amount) */\n      0xffffffffffffffffffffffffffffffffffffffff\n      and\n      dup2\n      mstore\n      0x20\n      add\n        /* \"contracts/Test1.sol\":453:457  name */\n      dup5\n        /* \"contracts/Test1.sol\":433:466  User(walletAddress, name, amount) */\n      dup2\n      mstore\n      0x20\n      add\n        /* \"contracts/Test1.sol\":459:465  amount */\n      dup4\n        /* \"contracts/Test1.sol\":433:466  User(walletAddress, name, amount) */\n      dup2\n      mstore\n      pop\n        /* \"contracts/Test1.sol\":422:467  users.push(User(walletAddress, name, amount)) */\n      swap1\n      dup1\n      0x01\n      dup2\n      sload\n      add\n      dup1\n      dup3\n      sstore\n      dup1\n      swap2\n      pop\n      pop\n      0x01\n      swap1\n      sub\n      swap1\n      0x00\n      mstore\n      keccak256(0x00, 0x20)\n      swap1\n      0x03\n      mul\n      add\n      0x00\n      swap1\n      swap2\n      swap1\n      swap2\n      swap1\n      swap2\n      pop\n      0x00\n      dup3\n      add\n      mload\n      dup2\n      0x00\n      add\n      exp(0x0100, 0x00)\n      dup2\n      sload\n      dup2\n      0xffffffffffffffffffffffffffffffffffffffff\n      mul\n      not\n      and\n      swap1\n      dup4\n      0xffffffffffffffffffffffffffffffffffffffff\n      and\n      mul\n      or\n      swap1\n      sstore\n      pop\n      0x20\n      dup3\n      add\n      mload\n      dup2\n      0x01\n      add\n      swap1\n      dup1\n      mload\n      swap1\n      0x20\n      add\n      swap1\n      tag_77\n      swap3\n      swap2\n      swap1\n      tag_78\n      jump\t// in\n    tag_77:\n      pop\n      0x40\n      dup3\n      add\n      mload\n      dup2\n      0x02\n      add\n      sstore\n      pop\n      pop\n        /* \"contracts/Test1.sol\":477:520  addToInvestorMapping(walletAddress, amount) */\n      tag_79\n        /* \"contracts/Test1.sol\":498:511  walletAddress */\n      dup4\n        /* \"contracts/Test1.sol\":513:519  amount */\n      dup3\n        /* \"contracts/Test1.sol\":477:497  addToInvestorMapping */\n      tag_42\n        /* \"contracts/Test1.sol\":477:520  addToInvestorMapping(walletAddress, amount) */\n      jump\t// in\n    tag_79:\n        /* \"contracts/Test1.sol\":332:527  function addUser(address walletAddress, string memory name, uint amount) public {... */\n      pop\n      pop\n      pop\n      jump\t// out\n        /* \"contracts/Test1.sol\":882:1122  function transferToAddress(address walletAddress) private {... */\n    tag_50:\n        /* \"contracts/Test1.sol\":954:960  uint i */\n      0x00\n        /* \"contracts/Test1.sol\":950:1116  for(uint i = 0; i < users.length; i++){... */\n    tag_81:\n        /* \"contracts/Test1.sol\":970:975  users */\n      0x01\n        /* \"contracts/Test1.sol\":970:982  users.length */\n      dup1\n      sload\n      swap1\n      pop\n        /* \"contracts/Test1.sol\":966:967  i */\n      dup2\n        /* \"contracts/Test1.sol\":966:982  i < users.length */\n      lt\n        /* \"contracts/Test1.sol\":950:1116  for(uint i = 0; i < users.length; i++){... */\n      iszero\n      tag_82\n      jumpi\n        /* \"contracts/Test1.sol\":1031:1044  walletAddress */\n      dup2\n        /* \"contracts/Test1.sol\":1005:1044  users[i].walletAddress == walletAddress */\n      0xffffffffffffffffffffffffffffffffffffffff\n      and\n        /* \"contracts/Test1.sol\":1005:1010  users */\n      0x01\n        /* \"contracts/Test1.sol\":1011:1012  i */\n      dup3\n        /* \"contracts/Test1.sol\":1005:1013  users[i] */\n      dup2\n      sload\n      dup2\n      lt\n      tag_84\n      jumpi\n      tag_85\n      tag_66\n      jump\t// in\n    tag_85:\n    tag_84:\n      swap1\n      0x00\n      mstore\n      keccak256(0x00, 0x20)\n      swap1\n      0x03\n      mul\n      add\n        /* \"contracts/Test1.sol\":1005:1027  users[i].walletAddress */\n      0x00\n      add\n      0x00\n      swap1\n      sload\n      swap1\n      0x0100\n      exp\n      swap1\n      div\n      0xffffffffffffffffffffffffffffffffffffffff\n      and\n        /* \"contracts/Test1.sol\":1005:1044  users[i].walletAddress == walletAddress */\n      0xffffffffffffffffffffffffffffffffffffffff\n      and\n      eq\n        /* \"contracts/Test1.sol\":1002:1106  if(users[i].walletAddress == walletAddress){... */\n      iszero\n      tag_87\n      jumpi\n        /* \"contracts/Test1.sol\":1082:1091  msg.value */\n      callvalue\n        /* \"contracts/Test1.sol\":1063:1068  users */\n      0x01\n        /* \"contracts/Test1.sol\":1069:1070  i */\n      dup3\n        /* \"contracts/Test1.sol\":1063:1071  users[i] */\n      dup2\n      sload\n      dup2\n      lt\n      tag_88\n      jumpi\n      tag_89\n      tag_66\n      jump\t// in\n    tag_89:\n    tag_88:\n      swap1\n      0x00\n      mstore\n      keccak256(0x00, 0x20)\n      swap1\n      0x03\n      mul\n      add\n        /* \"contracts/Test1.sol\":1063:1078  users[i].amount */\n      0x02\n      add\n      0x00\n        /* \"contracts/Test1.sol\":1063:1091  users[i].amount += msg.value */\n      dup3\n      dup3\n      sload\n      tag_91\n      swap2\n      swap1\n      tag_92\n      jump\t// in\n    tag_91:\n      swap3\n      pop\n      pop\n      dup2\n      swap1\n      sstore\n      pop\n        /* \"contracts/Test1.sol\":1002:1106  if(users[i].walletAddress == walletAddress){... */\n    tag_87:\n        /* \"contracts/Test1.sol\":984:987  i++ */\n      dup1\n      dup1\n      tag_93\n      swap1\n      tag_73\n      jump\t// in\n    tag_93:\n      swap2\n      pop\n      pop\n        /* \"contracts/Test1.sol\":950:1116  for(uint i = 0; i < users.length; i++){... */\n      jump(tag_81)\n    tag_82:\n      pop\n        /* \"contracts/Test1.sol\":882:1122  function transferToAddress(address walletAddress) private {... */\n      pop\n      jump\t// out\n    tag_78:\n      dup3\n      dup1\n      sload\n      tag_94\n      swap1\n      tag_54\n      jump\t// in\n    tag_94:\n      swap1\n      0x00\n      mstore\n      keccak256(0x00, 0x20)\n      swap1\n      0x1f\n      add\n      0x20\n      swap1\n      div\n      dup2\n      add\n      swap3\n      dup3\n      tag_96\n      jumpi\n      0x00\n      dup6\n      sstore\n      jump(tag_95)\n    tag_96:\n      dup3\n      0x1f\n      lt\n      tag_97\n      jumpi\n      dup1\n      mload\n      not(0xff)\n      and\n      dup4\n      dup1\n      add\n      or\n      dup6\n      sstore\n      jump(tag_95)\n    tag_97:\n      dup3\n      dup1\n      add\n      0x01\n      add\n      dup6\n      sstore\n      dup3\n      iszero\n      tag_95\n      jumpi\n      swap2\n      dup3\n      add\n    tag_98:\n      dup3\n      dup2\n      gt\n      iszero\n      tag_99\n      jumpi\n      dup3\n      mload\n      dup3\n      sstore\n      swap2\n      0x20\n      add\n      swap2\n      swap1\n      0x01\n      add\n      swap1\n      jump(tag_98)\n    tag_99:\n    tag_95:\n      pop\n      swap1\n      pop\n      tag_100\n      swap2\n      swap1\n      tag_101\n      jump\t// in\n    tag_100:\n      pop\n      swap1\n      jump\t// out\n    tag_101:\n    tag_102:\n      dup1\n      dup3\n      gt\n      iszero\n      tag_103\n      jumpi\n      0x00\n      dup2\n      0x00\n      swap1\n      sstore\n      pop\n      0x01\n      add\n      jump(tag_102)\n    tag_103:\n      pop\n      swap1\n      jump\t// out\n        /* \"#utility.yul\":7:419   */\n    tag_105:\n        /* \"#utility.yul\":85:90   */\n      0x00\n        /* \"#utility.yul\":110:176   */\n      tag_107\n        /* \"#utility.yul\":126:175   */\n      tag_108\n        /* \"#utility.yul\":168:174   */\n      dup5\n        /* \"#utility.yul\":126:175   */\n      tag_109\n      jump\t// in\n    tag_108:\n        /* \"#utility.yul\":110:176   */\n      tag_110\n      jump\t// in\n    tag_107:\n        /* \"#utility.yul\":101:176   */\n      swap1\n      pop\n        /* \"#utility.yul\":199:205   */\n      dup3\n        /* \"#utility.yul\":192:197   */\n      dup2\n        /* \"#utility.yul\":185:206   */\n      mstore\n        /* \"#utility.yul\":237:241   */\n      0x20\n        /* \"#utility.yul\":230:235   */\n      dup2\n        /* \"#utility.yul\":226:242   */\n      add\n        /* \"#utility.yul\":275:278   */\n      dup5\n        /* \"#utility.yul\":266:272   */\n      dup5\n        /* \"#utility.yul\":261:264   */\n      dup5\n        /* \"#utility.yul\":257:273   */\n      add\n        /* \"#utility.yul\":254:279   */\n      gt\n        /* \"#utility.yul\":251:363   */\n      iszero\n      tag_111\n      jumpi\n        /* \"#utility.yul\":282:361   */\n      tag_112\n      tag_113\n      jump\t// in\n    tag_112:\n        /* \"#utility.yul\":251:363   */\n    tag_111:\n        /* \"#utility.yul\":372:413   */\n      tag_114\n        /* \"#utility.yul\":406:412   */\n      dup5\n        /* \"#utility.yul\":401:404   */\n      dup3\n        /* \"#utility.yul\":396:399   */\n      dup6\n        /* \"#utility.yul\":372:413   */\n      tag_115\n      jump\t// in\n    tag_114:\n        /* \"#utility.yul\":91:419   */\n      pop\n        /* \"#utility.yul\":7:419   */\n      swap4\n      swap3\n      pop\n      pop\n      pop\n      jump\t// out\n        /* \"#utility.yul\":425:564   */\n    tag_116:\n        /* \"#utility.yul\":471:476   */\n      0x00\n        /* \"#utility.yul\":509:515   */\n      dup2\n        /* \"#utility.yul\":496:516   */\n      calldataload\n        /* \"#utility.yul\":487:516   */\n      swap1\n      pop\n        /* \"#utility.yul\":525:558   */\n      tag_118\n        /* \"#utility.yul\":552:557   */\n      dup2\n        /* \"#utility.yul\":525:558   */\n      tag_119\n      jump\t// in\n    tag_118:\n        /* \"#utility.yul\":425:564   */\n      swap3\n      swap2\n      pop\n      pop\n      jump\t// out\n        /* \"#utility.yul\":584:924   */\n    tag_120:\n        /* \"#utility.yul\":640:645   */\n      0x00\n        /* \"#utility.yul\":689:692   */\n      dup3\n        /* \"#utility.yul\":682:686   */\n      0x1f\n        /* \"#utility.yul\":674:680   */\n      dup4\n        /* \"#utility.yul\":670:687   */\n      add\n        /* \"#utility.yul\":666:693   */\n      slt\n        /* \"#utility.yul\":656:778   */\n      tag_122\n      jumpi\n        /* \"#utility.yul\":697:776   */\n      tag_123\n      tag_124\n      jump\t// in\n    tag_123:\n        /* \"#utility.yul\":656:778   */\n    tag_122:\n        /* \"#utility.yul\":814:820   */\n      dup2\n        /* \"#utility.yul\":801:821   */\n      calldataload\n        /* \"#utility.yul\":839:918   */\n      tag_125\n        /* \"#utility.yul\":914:917   */\n      dup5\n        /* \"#utility.yul\":906:912   */\n      dup3\n        /* \"#utility.yul\":899:903   */\n      0x20\n        /* \"#utility.yul\":891:897   */\n      dup7\n        /* \"#utility.yul\":887:904   */\n      add\n        /* \"#utility.yul\":839:918   */\n      tag_105\n      jump\t// in\n    tag_125:\n        /* \"#utility.yul\":830:918   */\n      swap2\n      pop\n        /* \"#utility.yul\":646:924   */\n      pop\n        /* \"#utility.yul\":584:924   */\n      swap3\n      swap2\n      pop\n      pop\n      jump\t// out\n        /* \"#utility.yul\":930:1069   */\n    tag_126:\n        /* \"#utility.yul\":976:981   */\n      0x00\n        /* \"#utility.yul\":1014:1020   */\n      dup2\n        /* \"#utility.yul\":1001:1021   */\n      calldataload\n        /* \"#utility.yul\":992:1021   */\n      swap1\n      pop\n        /* \"#utility.yul\":1030:1063   */\n      tag_128\n        /* \"#utility.yul\":1057:1062   */\n      dup2\n        /* \"#utility.yul\":1030:1063   */\n      tag_129\n      jump\t// in\n    tag_128:\n        /* \"#utility.yul\":930:1069   */\n      swap3\n      swap2\n      pop\n      pop\n      jump\t// out\n        /* \"#utility.yul\":1075:1404   */\n    tag_12:\n        /* \"#utility.yul\":1134:1140   */\n      0x00\n        /* \"#utility.yul\":1183:1185   */\n      0x20\n        /* \"#utility.yul\":1171:1180   */\n      dup3\n        /* \"#utility.yul\":1162:1169   */\n      dup5\n        /* \"#utility.yul\":1158:1181   */\n      sub\n        /* \"#utility.yul\":1154:1186   */\n      slt\n        /* \"#utility.yul\":1151:1270   */\n      iszero\n      tag_131\n      jumpi\n        /* \"#utility.yul\":1189:1268   */\n      tag_132\n      tag_133\n      jump\t// in\n    tag_132:\n        /* \"#utility.yul\":1151:1270   */\n    tag_131:\n        /* \"#utility.yul\":1309:1310   */\n      0x00\n        /* \"#utility.yul\":1334:1387   */\n      tag_134\n        /* \"#utility.yul\":1379:1386   */\n      dup5\n        /* \"#utility.yul\":1370:1376   */\n      dup3\n        /* \"#utility.yul\":1359:1368   */\n      dup6\n        /* \"#utility.yul\":1355:1377   */\n      add\n        /* \"#utility.yul\":1334:1387   */\n      tag_116\n      jump\t// in\n    tag_134:\n        /* \"#utility.yul\":1324:1387   */\n      swap2\n      pop\n        /* \"#utility.yul\":1280:1397   */\n      pop\n        /* \"#utility.yul\":1075:1404   */\n      swap3\n      swap2\n      pop\n      pop\n      jump\t// out\n        /* \"#utility.yul\":1410:2209   */\n    tag_46:\n        /* \"#utility.yul\":1497:1503   */\n      0x00\n        /* \"#utility.yul\":1505:1511   */\n      dup1\n        /* \"#utility.yul\":1513:1519   */\n      0x00\n        /* \"#utility.yul\":1562:1564   */\n      0x60\n        /* \"#utility.yul\":1550:1559   */\n      dup5\n        /* \"#utility.yul\":1541:1548   */\n      dup7\n        /* \"#utility.yul\":1537:1560   */\n      sub\n        /* \"#utility.yul\":1533:1565   */\n      slt\n        /* \"#utility.yul\":1530:1649   */\n      iszero\n      tag_136\n      jumpi\n        /* \"#utility.yul\":1568:1647   */\n      tag_137\n      tag_133\n      jump\t// in\n    tag_137:\n        /* \"#utility.yul\":1530:1649   */\n    tag_136:\n        /* \"#utility.yul\":1688:1689   */\n      0x00\n        /* \"#utility.yul\":1713:1766   */\n      tag_138\n        /* \"#utility.yul\":1758:1765   */\n      dup7\n        /* \"#utility.yul\":1749:1755   */\n      dup3\n        /* \"#utility.yul\":1738:1747   */\n      dup8\n        /* \"#utility.yul\":1734:1756   */\n      add\n        /* \"#utility.yul\":1713:1766   */\n      tag_116\n      jump\t// in\n    tag_138:\n        /* \"#utility.yul\":1703:1766   */\n      swap4\n      pop\n        /* \"#utility.yul\":1659:1776   */\n      pop\n        /* \"#utility.yul\":1843:1845   */\n      0x20\n        /* \"#utility.yul\":1832:1841   */\n      dup5\n        /* \"#utility.yul\":1828:1846   */\n      add\n        /* \"#utility.yul\":1815:1847   */\n      calldataload\n        /* \"#utility.yul\":1874:1892   */\n      0xffffffffffffffff\n        /* \"#utility.yul\":1866:1872   */\n      dup2\n        /* \"#utility.yul\":1863:1893   */\n      gt\n        /* \"#utility.yul\":1860:1977   */\n      iszero\n      tag_139\n      jumpi\n        /* \"#utility.yul\":1896:1975   */\n      tag_140\n      tag_141\n      jump\t// in\n    tag_140:\n        /* \"#utility.yul\":1860:1977   */\n    tag_139:\n        /* \"#utility.yul\":2001:2064   */\n      tag_142\n        /* \"#utility.yul\":2056:2063   */\n      dup7\n        /* \"#utility.yul\":2047:2053   */\n      dup3\n        /* \"#utility.yul\":2036:2045   */\n      dup8\n        /* \"#utility.yul\":2032:2054   */\n      add\n        /* \"#utility.yul\":2001:2064   */\n      tag_120\n      jump\t// in\n    tag_142:\n        /* \"#utility.yul\":1991:2064   */\n      swap3\n      pop\n        /* \"#utility.yul\":1786:2074   */\n      pop\n        /* \"#utility.yul\":2113:2115   */\n      0x40\n        /* \"#utility.yul\":2139:2192   */\n      tag_143\n        /* \"#utility.yul\":2184:2191   */\n      dup7\n        /* \"#utility.yul\":2175:2181   */\n      dup3\n        /* \"#utility.yul\":2164:2173   */\n      dup8\n        /* \"#utility.yul\":2160:2182   */\n      add\n        /* \"#utility.yul\":2139:2192   */\n      tag_126\n      jump\t// in\n    tag_143:\n        /* \"#utility.yul\":2129:2192   */\n      swap2\n      pop\n        /* \"#utility.yul\":2084:2202   */\n      pop\n        /* \"#utility.yul\":1410:2209   */\n      swap3\n      pop\n      swap3\n      pop\n      swap3\n      jump\t// out\n        /* \"#utility.yul\":2215:2689   */\n    tag_41:\n        /* \"#utility.yul\":2283:2289   */\n      0x00\n        /* \"#utility.yul\":2291:2297   */\n      dup1\n        /* \"#utility.yul\":2340:2342   */\n      0x40\n        /* \"#utility.yul\":2328:2337   */\n      dup4\n        /* \"#utility.yul\":2319:2326   */\n      dup6\n        /* \"#utility.yul\":2315:2338   */\n      sub\n        /* \"#utility.yul\":2311:2343   */\n      slt\n        /* \"#utility.yul\":2308:2427   */\n      iszero\n      tag_145\n      jumpi\n        /* \"#utility.yul\":2346:2425   */\n      tag_146\n      tag_133\n      jump\t// in\n    tag_146:\n        /* \"#utility.yul\":2308:2427   */\n    tag_145:\n        /* \"#utility.yul\":2466:2467   */\n      0x00\n        /* \"#utility.yul\":2491:2544   */\n      tag_147\n        /* \"#utility.yul\":2536:2543   */\n      dup6\n        /* \"#utility.yul\":2527:2533   */\n      dup3\n        /* \"#utility.yul\":2516:2525   */\n      dup7\n        /* \"#utility.yul\":2512:2534   */\n      add\n        /* \"#utility.yul\":2491:2544   */\n      tag_116\n      jump\t// in\n    tag_147:\n        /* \"#utility.yul\":2481:2544   */\n      swap3\n      pop\n        /* \"#utility.yul\":2437:2554   */\n      pop\n        /* \"#utility.yul\":2593:2595   */\n      0x20\n        /* \"#utility.yul\":2619:2672   */\n      tag_148\n        /* \"#utility.yul\":2664:2671   */\n      dup6\n        /* \"#utility.yul\":2655:2661   */\n      dup3\n        /* \"#utility.yul\":2644:2653   */\n      dup7\n        /* \"#utility.yul\":2640:2662   */\n      add\n        /* \"#utility.yul\":2619:2672   */\n      tag_126\n      jump\t// in\n    tag_148:\n        /* \"#utility.yul\":2609:2672   */\n      swap2\n      pop\n        /* \"#utility.yul\":2564:2682   */\n      pop\n        /* \"#utility.yul\":2215:2689   */\n      swap3\n      pop\n      swap3\n      swap1\n      pop\n      jump\t// out\n        /* \"#utility.yul\":2695:3024   */\n    tag_17:\n        /* \"#utility.yul\":2754:2760   */\n      0x00\n        /* \"#utility.yul\":2803:2805   */\n      0x20\n        /* \"#utility.yul\":2791:2800   */\n      dup3\n        /* \"#utility.yul\":2782:2789   */\n      dup5\n        /* \"#utility.yul\":2778:2801   */\n      sub\n        /* \"#utility.yul\":2774:2806   */\n      slt\n        /* \"#utility.yul\":2771:2890   */\n      iszero\n      tag_150\n      jumpi\n        /* \"#utility.yul\":2809:2888   */\n      tag_151\n      tag_133\n      jump\t// in\n    tag_151:\n        /* \"#utility.yul\":2771:2890   */\n    tag_150:\n        /* \"#utility.yul\":2929:2930   */\n      0x00\n        /* \"#utility.yul\":2954:3007   */\n      tag_152\n        /* \"#utility.yul\":2999:3006   */\n      dup5\n        /* \"#utility.yul\":2990:2996   */\n      dup3\n        /* \"#utility.yul\":2979:2988   */\n      dup6\n        /* \"#utility.yul\":2975:2997   */\n      add\n        /* \"#utility.yul\":2954:3007   */\n      tag_126\n      jump\t// in\n    tag_152:\n        /* \"#utility.yul\":2944:3007   */\n      swap2\n      pop\n        /* \"#utility.yul\":2900:3017   */\n      pop\n        /* \"#utility.yul\":2695:3024   */\n      swap3\n      swap2\n      pop\n      pop\n      jump\t// out\n        /* \"#utility.yul\":3030:3148   */\n    tag_153:\n        /* \"#utility.yul\":3117:3141   */\n      tag_155\n        /* \"#utility.yul\":3135:3140   */\n      dup2\n        /* \"#utility.yul\":3117:3141   */\n      tag_156\n      jump\t// in\n    tag_155:\n        /* \"#utility.yul\":3112:3115   */\n      dup3\n        /* \"#utility.yul\":3105:3142   */\n      mstore\n        /* \"#utility.yul\":3030:3148   */\n      pop\n      pop\n      jump\t// out\n        /* \"#utility.yul\":3154:3518   */\n    tag_157:\n        /* \"#utility.yul\":3242:3245   */\n      0x00\n        /* \"#utility.yul\":3270:3309   */\n      tag_159\n        /* \"#utility.yul\":3303:3308   */\n      dup3\n        /* \"#utility.yul\":3270:3309   */\n      tag_160\n      jump\t// in\n    tag_159:\n        /* \"#utility.yul\":3325:3396   */\n      tag_161\n        /* \"#utility.yul\":3389:3395   */\n      dup2\n        /* \"#utility.yul\":3384:3387   */\n      dup6\n        /* \"#utility.yul\":3325:3396   */\n      tag_162\n      jump\t// in\n    tag_161:\n        /* \"#utility.yul\":3318:3396   */\n      swap4\n      pop\n        /* \"#utility.yul\":3405:3457   */\n      tag_163\n        /* \"#utility.yul\":3450:3456   */\n      dup2\n        /* \"#utility.yul\":3445:3448   */\n      dup6\n        /* \"#utility.yul\":3438:3442   */\n      0x20\n        /* \"#utility.yul\":3431:3436   */\n      dup7\n        /* \"#utility.yul\":3427:3443   */\n      add\n        /* \"#utility.yul\":3405:3457   */\n      tag_164\n      jump\t// in\n    tag_163:\n        /* \"#utility.yul\":3482:3511   */\n      tag_165\n        /* \"#utility.yul\":3504:3510   */\n      dup2\n        /* \"#utility.yul\":3482:3511   */\n      tag_166\n      jump\t// in\n    tag_165:\n        /* \"#utility.yul\":3477:3480   */\n      dup5\n        /* \"#utility.yul\":3473:3512   */\n      add\n        /* \"#utility.yul\":3466:3512   */\n      swap2\n      pop\n        /* \"#utility.yul\":3246:3518   */\n      pop\n        /* \"#utility.yul\":3154:3518   */\n      swap3\n      swap2\n      pop\n      pop\n      jump\t// out\n        /* \"#utility.yul\":3524:3642   */\n    tag_167:\n        /* \"#utility.yul\":3611:3635   */\n      tag_169\n        /* \"#utility.yul\":3629:3634   */\n      dup2\n        /* \"#utility.yul\":3611:3635   */\n      tag_170\n      jump\t// in\n    tag_169:\n        /* \"#utility.yul\":3606:3609   */\n      dup3\n        /* \"#utility.yul\":3599:3636   */\n      mstore\n        /* \"#utility.yul\":3524:3642   */\n      pop\n      pop\n      jump\t// out\n        /* \"#utility.yul\":3648:4181   */\n    tag_20:\n        /* \"#utility.yul\":3817:3821   */\n      0x00\n        /* \"#utility.yul\":3855:3857   */\n      0x60\n        /* \"#utility.yul\":3844:3853   */\n      dup3\n        /* \"#utility.yul\":3840:3858   */\n      add\n        /* \"#utility.yul\":3832:3858   */\n      swap1\n      pop\n        /* \"#utility.yul\":3868:3939   */\n      tag_172\n        /* \"#utility.yul\":3936:3937   */\n      0x00\n        /* \"#utility.yul\":3925:3934   */\n      dup4\n        /* \"#utility.yul\":3921:3938   */\n      add\n        /* \"#utility.yul\":3912:3918   */\n      dup7\n        /* \"#utility.yul\":3868:3939   */\n      tag_153\n      jump\t// in\n    tag_172:\n        /* \"#utility.yul\":3986:3995   */\n      dup2\n        /* \"#utility.yul\":3980:3984   */\n      dup2\n        /* \"#utility.yul\":3976:3996   */\n      sub\n        /* \"#utility.yul\":3971:3973   */\n      0x20\n        /* \"#utility.yul\":3960:3969   */\n      dup4\n        /* \"#utility.yul\":3956:3974   */\n      add\n        /* \"#utility.yul\":3949:3997   */\n      mstore\n        /* \"#utility.yul\":4014:4092   */\n      tag_173\n        /* \"#utility.yul\":4087:4091   */\n      dup2\n        /* \"#utility.yul\":4078:4084   */\n      dup6\n        /* \"#utility.yul\":4014:4092   */\n      tag_157\n      jump\t// in\n    tag_173:\n        /* \"#utility.yul\":4006:4092   */\n      swap1\n      pop\n        /* \"#utility.yul\":4102:4174   */\n      tag_174\n        /* \"#utility.yul\":4170:4172   */\n      0x40\n        /* \"#utility.yul\":4159:4168   */\n      dup4\n        /* \"#utility.yul\":4155:4173   */\n      add\n        /* \"#utility.yul\":4146:4152   */\n      dup5\n        /* \"#utility.yul\":4102:4174   */\n      tag_167\n      jump\t// in\n    tag_174:\n        /* \"#utility.yul\":3648:4181   */\n      swap5\n      swap4\n      pop\n      pop\n      pop\n      pop\n      jump\t// out\n        /* \"#utility.yul\":4187:4519   */\n    tag_26:\n        /* \"#utility.yul\":4308:4312   */\n      0x00\n        /* \"#utility.yul\":4346:4348   */\n      0x40\n        /* \"#utility.yul\":4335:4344   */\n      dup3\n        /* \"#utility.yul\":4331:4349   */\n      add\n        /* \"#utility.yul\":4323:4349   */\n      swap1\n      pop\n        /* \"#utility.yul\":4359:4430   */\n      tag_176\n        /* \"#utility.yul\":4427:4428   */\n      0x00\n        /* \"#utility.yul\":4416:4425   */\n      dup4\n        /* \"#utility.yul\":4412:4429   */\n      add\n        /* \"#utility.yul\":4403:4409   */\n      dup6\n        /* \"#utility.yul\":4359:4430   */\n      tag_153\n      jump\t// in\n    tag_176:\n        /* \"#utility.yul\":4440:4512   */\n      tag_177\n        /* \"#utility.yul\":4508:4510   */\n      0x20\n        /* \"#utility.yul\":4497:4506   */\n      dup4\n        /* \"#utility.yul\":4493:4511   */\n      add\n        /* \"#utility.yul\":4484:4490   */\n      dup5\n        /* \"#utility.yul\":4440:4512   */\n      tag_167\n      jump\t// in\n    tag_177:\n        /* \"#utility.yul\":4187:4519   */\n      swap4\n      swap3\n      pop\n      pop\n      pop\n      jump\t// out\n        /* \"#utility.yul\":4525:4747   */\n    tag_32:\n        /* \"#utility.yul\":4618:4622   */\n      0x00\n        /* \"#utility.yul\":4656:4658   */\n      0x20\n        /* \"#utility.yul\":4645:4654   */\n      dup3\n        /* \"#utility.yul\":4641:4659   */\n      add\n        /* \"#utility.yul\":4633:4659   */\n      swap1\n      pop\n        /* \"#utility.yul\":4669:4740   */\n      tag_179\n        /* \"#utility.yul\":4737:4738   */\n      0x00\n        /* \"#utility.yul\":4726:4735   */\n      dup4\n        /* \"#utility.yul\":4722:4739   */\n      add\n        /* \"#utility.yul\":4713:4719   */\n      dup5\n        /* \"#utility.yul\":4669:4740   */\n      tag_167\n      jump\t// in\n    tag_179:\n        /* \"#utility.yul\":4525:4747   */\n      swap3\n      swap2\n      pop\n      pop\n      jump\t// out\n        /* \"#utility.yul\":4753:4882   */\n    tag_110:\n        /* \"#utility.yul\":4787:4793   */\n      0x00\n        /* \"#utility.yul\":4814:4834   */\n      tag_181\n      tag_182\n      jump\t// in\n    tag_181:\n        /* \"#utility.yul\":4804:4834   */\n      swap1\n      pop\n        /* \"#utility.yul\":4843:4876   */\n      tag_183\n        /* \"#utility.yul\":4871:4875   */\n      dup3\n        /* \"#utility.yul\":4863:4869   */\n      dup3\n        /* \"#utility.yul\":4843:4876   */\n      tag_184\n      jump\t// in\n    tag_183:\n        /* \"#utility.yul\":4753:4882   */\n      swap2\n      swap1\n      pop\n      jump\t// out\n        /* \"#utility.yul\":4888:4963   */\n    tag_182:\n        /* \"#utility.yul\":4921:4927   */\n      0x00\n        /* \"#utility.yul\":4954:4956   */\n      0x40\n        /* \"#utility.yul\":4948:4957   */\n      mload\n        /* \"#utility.yul\":4938:4957   */\n      swap1\n      pop\n        /* \"#utility.yul\":4888:4963   */\n      swap1\n      jump\t// out\n        /* \"#utility.yul\":4969:5277   */\n    tag_109:\n        /* \"#utility.yul\":5031:5035   */\n      0x00\n        /* \"#utility.yul\":5121:5139   */\n      0xffffffffffffffff\n        /* \"#utility.yul\":5113:5119   */\n      dup3\n        /* \"#utility.yul\":5110:5140   */\n      gt\n        /* \"#utility.yul\":5107:5163   */\n      iszero\n      tag_187\n      jumpi\n        /* \"#utility.yul\":5143:5161   */\n      tag_188\n      tag_189\n      jump\t// in\n    tag_188:\n        /* \"#utility.yul\":5107:5163   */\n    tag_187:\n        /* \"#utility.yul\":5181:5210   */\n      tag_190\n        /* \"#utility.yul\":5203:5209   */\n      dup3\n        /* \"#utility.yul\":5181:5210   */\n      tag_166\n      jump\t// in\n    tag_190:\n        /* \"#utility.yul\":5173:5210   */\n      swap1\n      pop\n        /* \"#utility.yul\":5265:5269   */\n      0x20\n        /* \"#utility.yul\":5259:5263   */\n      dup2\n        /* \"#utility.yul\":5255:5270   */\n      add\n        /* \"#utility.yul\":5247:5270   */\n      swap1\n      pop\n        /* \"#utility.yul\":4969:5277   */\n      swap2\n      swap1\n      pop\n      jump\t// out\n        /* \"#utility.yul\":5283:5382   */\n    tag_160:\n        /* \"#utility.yul\":5335:5341   */\n      0x00\n        /* \"#utility.yul\":5369:5374   */\n      dup2\n        /* \"#utility.yul\":5363:5375   */\n      mload\n        /* \"#utility.yul\":5353:5375   */\n      swap1\n      pop\n        /* \"#utility.yul\":5283:5382   */\n      swap2\n      swap1\n      pop\n      jump\t// out\n        /* \"#utility.yul\":5388:5557   */\n    tag_162:\n        /* \"#utility.yul\":5472:5483   */\n      0x00\n        /* \"#utility.yul\":5506:5512   */\n      dup3\n        /* \"#utility.yul\":5501:5504   */\n      dup3\n        /* \"#utility.yul\":5494:5513   */\n      mstore\n        /* \"#utility.yul\":5546:5550   */\n      0x20\n        /* \"#utility.yul\":5541:5544   */\n      dup3\n        /* \"#utility.yul\":5537:5551   */\n      add\n        /* \"#utility.yul\":5522:5551   */\n      swap1\n      pop\n        /* \"#utility.yul\":5388:5557   */\n      swap3\n      swap2\n      pop\n      pop\n      jump\t// out\n        /* \"#utility.yul\":5563:5868   */\n    tag_92:\n        /* \"#utility.yul\":5603:5606   */\n      0x00\n        /* \"#utility.yul\":5622:5642   */\n      tag_194\n        /* \"#utility.yul\":5640:5641   */\n      dup3\n        /* \"#utility.yul\":5622:5642   */\n      tag_170\n      jump\t// in\n    tag_194:\n        /* \"#utility.yul\":5617:5642   */\n      swap2\n      pop\n        /* \"#utility.yul\":5656:5676   */\n      tag_195\n        /* \"#utility.yul\":5674:5675   */\n      dup4\n        /* \"#utility.yul\":5656:5676   */\n      tag_170\n      jump\t// in\n    tag_195:\n        /* \"#utility.yul\":5651:5676   */\n      swap3\n      pop\n        /* \"#utility.yul\":5810:5811   */\n      dup3\n        /* \"#utility.yul\":5742:5808   */\n      0xffffffffffffffffffffffffffffffffffffffffffffffffffffffffffffffff\n        /* \"#utility.yul\":5738:5812   */\n      sub\n        /* \"#utility.yul\":5735:5736   */\n      dup3\n        /* \"#utility.yul\":5732:5813   */\n      gt\n        /* \"#utility.yul\":5729:5836   */\n      iszero\n      tag_196\n      jumpi\n        /* \"#utility.yul\":5816:5834   */\n      tag_197\n      tag_198\n      jump\t// in\n    tag_197:\n        /* \"#utility.yul\":5729:5836   */\n    tag_196:\n        /* \"#utility.yul\":5860:5861   */\n      dup3\n        /* \"#utility.yul\":5857:5858   */\n      dup3\n        /* \"#utility.yul\":5853:5862   */\n      add\n        /* \"#utility.yul\":5846:5862   */\n      swap1\n      pop\n        /* \"#utility.yul\":5563:5868   */\n      swap3\n      swap2\n      pop\n      pop\n      jump\t// out\n        /* \"#utility.yul\":5874:5970   */\n    tag_156:\n        /* \"#utility.yul\":5911:5918   */\n      0x00\n        /* \"#utility.yul\":5940:5964   */\n      tag_200\n        /* \"#utility.yul\":5958:5963   */\n      dup3\n        /* \"#utility.yul\":5940:5964   */\n      tag_201\n      jump\t// in\n    tag_200:\n        /* \"#utility.yul\":5929:5964   */\n      swap1\n      pop\n        /* \"#utility.yul\":5874:5970   */\n      swap2\n      swap1\n      pop\n      jump\t// out\n        /* \"#utility.yul\":5976:6102   */\n    tag_201:\n        /* \"#utility.yul\":6013:6020   */\n      0x00\n        /* \"#utility.yul\":6053:6095   */\n      0xffffffffffffffffffffffffffffffffffffffff\n        /* \"#utility.yul\":6046:6051   */\n      dup3\n        /* \"#utility.yul\":6042:6096   */\n      and\n        /* \"#utility.yul\":6031:6096   */\n      swap1\n      pop\n        /* \"#utility.yul\":5976:6102   */\n      swap2\n      swap1\n      pop\n      jump\t// out\n        /* \"#utility.yul\":6108:6185   */\n    tag_170:\n        /* \"#utility.yul\":6145:6152   */\n      0x00\n        /* \"#utility.yul\":6174:6179   */\n      dup2\n        /* \"#utility.yul\":6163:6179   */\n      swap1\n      pop\n        /* \"#utility.yul\":6108:6185   */\n      swap2\n      swap1\n      pop\n      jump\t// out\n        /* \"#utility.yul\":6191:6345   */\n    tag_115:\n        /* \"#utility.yul\":6275:6281   */\n      dup3\n        /* \"#utility.yul\":6270:6273   */\n      dup2\n        /* \"#utility.yul\":6265:6268   */\n      dup4\n        /* \"#utility.yul\":6252:6282   */\n      calldatacopy\n        /* \"#utility.yul\":6337:6338   */\n      0x00\n        /* \"#utility.yul\":6328:6334   */\n      dup4\n        /* \"#utility.yul\":6323:6326   */\n      dup4\n        /* \"#utility.yul\":6319:6335   */\n      add\n        /* \"#utility.yul\":6312:6339   */\n      mstore\n        /* \"#utility.yul\":6191:6345   */\n      pop\n      pop\n      pop\n      jump\t// out\n        /* \"#utility.yul\":6351:6658   */\n    tag_164:\n        /* \"#utility.yul\":6419:6420   */\n      0x00\n        /* \"#utility.yul\":6429:6542   */\n    tag_206:\n        /* \"#utility.yul\":6443:6449   */\n      dup4\n        /* \"#utility.yul\":6440:6441   */\n      dup2\n        /* \"#utility.yul\":6437:6450   */\n      lt\n        /* \"#utility.yul\":6429:6542   */\n      iszero\n      tag_208\n      jumpi\n        /* \"#utility.yul\":6528:6529   */\n      dup1\n        /* \"#utility.yul\":6523:6526   */\n      dup3\n        /* \"#utility.yul\":6519:6530   */\n      add\n        /* \"#utility.yul\":6513:6531   */\n      mload\n        /* \"#utility.yul\":6509:6510   */\n      dup2\n        /* \"#utility.yul\":6504:6507   */\n      dup5\n        /* \"#utility.yul\":6500:6511   */\n      add\n        /* \"#utility.yul\":6493:6532   */\n      mstore\n        /* \"#utility.yul\":6465:6467   */\n      0x20\n        /* \"#utility.yul\":6462:6463   */\n      dup2\n        /* \"#utility.yul\":6458:6468   */\n      add\n        /* \"#utility.yul\":6453:6468   */\n      swap1\n      pop\n        /* \"#utility.yul\":6429:6542   */\n      jump(tag_206)\n    tag_208:\n        /* \"#utility.yul\":6560:6566   */\n      dup4\n        /* \"#utility.yul\":6557:6558   */\n      dup2\n        /* \"#utility.yul\":6554:6567   */\n      gt\n        /* \"#utility.yul\":6551:6652   */\n      iszero\n      tag_209\n      jumpi\n        /* \"#utility.yul\":6640:6641   */\n      0x00\n        /* \"#utility.yul\":6631:6637   */\n      dup5\n        /* \"#utility.yul\":6626:6629   */\n      dup5\n        /* \"#utility.yul\":6622:6638   */\n      add\n        /* \"#utility.yul\":6615:6642   */\n      mstore\n        /* \"#utility.yul\":6551:6652   */\n    tag_209:\n        /* \"#utility.yul\":6400:6658   */\n      pop\n        /* \"#utility.yul\":6351:6658   */\n      pop\n      pop\n      pop\n      jump\t// out\n        /* \"#utility.yul\":6664:6984   */\n    tag_54:\n        /* \"#utility.yul\":6708:6714   */\n      0x00\n        /* \"#utility.yul\":6745:6746   */\n      0x02\n        /* \"#utility.yul\":6739:6743   */\n      dup3\n        /* \"#utility.yul\":6735:6747   */\n      div\n        /* \"#utility.yul\":6725:6747   */\n      swap1\n      pop\n        /* \"#utility.yul\":6792:6793   */\n      0x01\n        /* \"#utility.yul\":6786:6790   */\n      dup3\n        /* \"#utility.yul\":6782:6794   */\n      and\n        /* \"#utility.yul\":6813:6831   */\n      dup1\n        /* \"#utility.yul\":6803:6884   */\n      tag_211\n      jumpi\n        /* \"#utility.yul\":6869:6873   */\n      0x7f\n        /* \"#utility.yul\":6861:6867   */\n      dup3\n        /* \"#utility.yul\":6857:6874   */\n      and\n        /* \"#utility.yul\":6847:6874   */\n      swap2\n      pop\n        /* \"#utility.yul\":6803:6884   */\n    tag_211:\n        /* \"#utility.yul\":6931:6933   */\n      0x20\n        /* \"#utility.yul\":6923:6929   */\n      dup3\n        /* \"#utility.yul\":6920:6934   */\n      lt\n        /* \"#utility.yul\":6900:6918   */\n      dup2\n        /* \"#utility.yul\":6897:6935   */\n      eq\n        /* \"#utility.yul\":6894:6978   */\n      iszero\n      tag_212\n      jumpi\n        /* \"#utility.yul\":6950:6968   */\n      tag_213\n      tag_214\n      jump\t// in\n    tag_213:\n        /* \"#utility.yul\":6894:6978   */\n    tag_212:\n        /* \"#utility.yul\":6715:6984   */\n      pop\n        /* \"#utility.yul\":6664:6984   */\n      swap2\n      swap1\n      pop\n      jump\t// out\n        /* \"#utility.yul\":6990:7271   */\n    tag_184:\n        /* \"#utility.yul\":7073:7100   */\n      tag_216\n        /* \"#utility.yul\":7095:7099   */\n      dup3\n        /* \"#utility.yul\":7073:7100   */\n      tag_166\n      jump\t// in\n    tag_216:\n        /* \"#utility.yul\":7065:7071   */\n      dup2\n        /* \"#utility.yul\":7061:7101   */\n      add\n        /* \"#utility.yul\":7203:7209   */\n      dup2\n        /* \"#utility.yul\":7191:7201   */\n      dup2\n        /* \"#utility.yul\":7188:7210   */\n      lt\n        /* \"#utility.yul\":7167:7185   */\n      0xffffffffffffffff\n        /* \"#utility.yul\":7155:7165   */\n      dup3\n        /* \"#utility.yul\":7152:7186   */\n      gt\n        /* \"#utility.yul\":7149:7211   */\n      or\n        /* \"#utility.yul\":7146:7234   */\n      iszero\n      tag_217\n      jumpi\n        /* \"#utility.yul\":7214:7232   */\n      tag_218\n      tag_189\n      jump\t// in\n    tag_218:\n        /* \"#utility.yul\":7146:7234   */\n    tag_217:\n        /* \"#utility.yul\":7254:7264   */\n      dup1\n        /* \"#utility.yul\":7250:7252   */\n      0x40\n        /* \"#utility.yul\":7243:7265   */\n      mstore\n        /* \"#utility.yul\":7033:7271   */\n      pop\n        /* \"#utility.yul\":6990:7271   */\n      pop\n      pop\n      jump\t// out\n        /* \"#utility.yul\":7277:7510   */\n    tag_73:\n        /* \"#utility.yul\":7316:7319   */\n      0x00\n        /* \"#utility.yul\":7339:7363   */\n      tag_220\n        /* \"#utility.yul\":7357:7362   */\n      dup3\n        /* \"#utility.yul\":7339:7363   */\n      tag_170\n      jump\t// in\n    tag_220:\n        /* \"#utility.yul\":7330:7363   */\n      swap2\n      pop\n        /* \"#utility.yul\":7385:7451   */\n      0xffffffffffffffffffffffffffffffffffffffffffffffffffffffffffffffff\n        /* \"#utility.yul\":7378:7383   */\n      dup3\n        /* \"#utility.yul\":7375:7452   */\n      eq\n        /* \"#utility.yul\":7372:7475   */\n      iszero\n      tag_221\n      jumpi\n        /* \"#utility.yul\":7455:7473   */\n      tag_222\n      tag_198\n      jump\t// in\n    tag_222:\n        /* \"#utility.yul\":7372:7475   */\n    tag_221:\n        /* \"#utility.yul\":7502:7503   */\n      0x01\n        /* \"#utility.yul\":7495:7500   */\n      dup3\n        /* \"#utility.yul\":7491:7504   */\n      add\n        /* \"#utility.yul\":7484:7504   */\n      swap1\n      pop\n        /* \"#utility.yul\":7277:7510   */\n      swap2\n      swap1\n      pop\n      jump\t// out\n        /* \"#utility.yul\":7516:7696   */\n    tag_198:\n        /* \"#utility.yul\":7564:7641   */\n      0x4e487b7100000000000000000000000000000000000000000000000000000000\n        /* \"#utility.yul\":7561:7562   */\n      0x00\n        /* \"#utility.yul\":7554:7642   */\n      mstore\n        /* \"#utility.yul\":7661:7665   */\n      0x11\n        /* \"#utility.yul\":7658:7659   */\n      0x04\n        /* \"#utility.yul\":7651:7666   */\n      mstore\n        /* \"#utility.yul\":7685:7689   */\n      0x24\n        /* \"#utility.yul\":7682:7683   */\n      0x00\n        /* \"#utility.yul\":7675:7690   */\n      revert\n        /* \"#utility.yul\":7702:7882   */\n    tag_214:\n        /* \"#utility.yul\":7750:7827   */\n      0x4e487b7100000000000000000000000000000000000000000000000000000000\n        /* \"#utility.yul\":7747:7748   */\n      0x00\n        /* \"#utility.yul\":7740:7828   */\n      mstore\n        /* \"#utility.yul\":7847:7851   */\n      0x22\n        /* \"#utility.yul\":7844:7845   */\n      0x04\n        /* \"#utility.yul\":7837:7852   */\n      mstore\n        /* \"#utility.yul\":7871:7875   */\n      0x24\n        /* \"#utility.yul\":7868:7869   */\n      0x00\n        /* \"#utility.yul\":7861:7876   */\n      revert\n        /* \"#utility.yul\":7888:8068   */\n    tag_66:\n        /* \"#utility.yul\":7936:8013   */\n      0x4e487b7100000000000000000000000000000000000000000000000000000000\n        /* \"#utility.yul\":7933:7934   */\n      0x00\n        /* \"#utility.yul\":7926:8014   */\n      mstore\n        /* \"#utility.yul\":8033:8037   */\n      0x32\n        /* \"#utility.yul\":8030:8031   */\n      0x04\n        /* \"#utility.yul\":8023:8038   */\n      mstore\n        /* \"#utility.yul\":8057:8061   */\n      0x24\n        /* \"#utility.yul\":8054:8055   */\n      0x00\n        /* \"#utility.yul\":8047:8062   */\n      revert\n        /* \"#utility.yul\":8074:8254   */\n    tag_189:\n        /* \"#utility.yul\":8122:8199   */\n      0x4e487b7100000000000000000000000000000000000000000000000000000000\n        /* \"#utility.yul\":8119:8120   */\n      0x00\n        /* \"#utility.yul\":8112:8200   */\n      mstore\n        /* \"#utility.yul\":8219:8223   */\n      0x41\n        /* \"#utility.yul\":8216:8217   */\n      0x04\n        /* \"#utility.yul\":8209:8224   */\n      mstore\n        /* \"#utility.yul\":8243:8247   */\n      0x24\n        /* \"#utility.yul\":8240:8241   */\n      0x00\n        /* \"#utility.yul\":8233:8248   */\n      revert\n        /* \"#utility.yul\":8260:8377   */\n    tag_124:\n        /* \"#utility.yul\":8369:8370   */\n      0x00\n        /* \"#utility.yul\":8366:8367   */\n      dup1\n        /* \"#utility.yul\":8359:8371   */\n      revert\n        /* \"#utility.yul\":8383:8500   */\n    tag_113:\n        /* \"#utility.yul\":8492:8493   */\n      0x00\n        /* \"#utility.yul\":8489:8490   */\n      dup1\n        /* \"#utility.yul\":8482:8494   */\n      revert\n        /* \"#utility.yul\":8506:8623   */\n    tag_141:\n        /* \"#utility.yul\":8615:8616   */\n      0x00\n        /* \"#utility.yul\":8612:8613   */\n      dup1\n        /* \"#utility.yul\":8605:8617   */\n      revert\n        /* \"#utility.yul\":8629:8746   */\n    tag_133:\n        /* \"#utility.yul\":8738:8739   */\n      0x00\n        /* \"#utility.yul\":8735:8736   */\n      dup1\n        /* \"#utility.yul\":8728:8740   */\n      revert\n        /* \"#utility.yul\":8752:8854   */\n    tag_166:\n        /* \"#utility.yul\":8793:8799   */\n      0x00\n        /* \"#utility.yul\":8844:8846   */\n      0x1f\n        /* \"#utility.yul\":8840:8847   */\n      not\n        /* \"#utility.yul\":8835:8837   */\n      0x1f\n        /* \"#utility.yul\":8828:8833   */\n      dup4\n        /* \"#utility.yul\":8824:8838   */\n      add\n        /* \"#utility.yul\":8820:8848   */\n      and\n        /* \"#utility.yul\":8810:8848   */\n      swap1\n      pop\n        /* \"#utility.yul\":8752:8854   */\n      swap2\n      swap1\n      pop\n      jump\t// out\n        /* \"#utility.yul\":8860:8982   */\n    tag_119:\n        /* \"#utility.yul\":8933:8957   */\n      tag_233\n        /* \"#utility.yul\":8951:8956   */\n      dup2\n        /* \"#utility.yul\":8933:8957   */\n      tag_156\n      jump\t// in\n    tag_233:\n        /* \"#utility.yul\":8926:8931   */\n      dup2\n        /* \"#utility.yul\":8923:8958   */\n      eq\n        /* \"#utility.yul\":8913:8976   */\n      tag_234\n      jumpi\n        /* \"#utility.yul\":8972:8973   */\n      0x00\n        /* \"#utility.yul\":8969:8970   */\n      dup1\n        /* \"#utility.yul\":8962:8974   */\n      revert\n        /* \"#utility.yul\":8913:8976   */\n    tag_234:\n        /* \"#utility.yul\":8860:8982   */\n      pop\n      jump\t// out\n        /* \"#utility.yul\":8988:9110   */\n    tag_129:\n        /* \"#utility.yul\":9061:9085   */\n      tag_236\n        /* \"#utility.yul\":9079:9084   */\n      dup2\n        /* \"#utility.yul\":9061:9085   */\n      tag_170\n      jump\t// in\n    tag_236:\n        /* \"#utility.yul\":9054:9059   */\n      dup2\n        /* \"#utility.yul\":9051:9086   */\n      eq\n        /* \"#utility.yul\":9041:9104   */\n      tag_237\n      jumpi\n        /* \"#utility.yul\":9100:9101   */\n      0x00\n        /* \"#utility.yul\":9097:9098   */\n      dup1\n        /* \"#utility.yul\":9090:9102   */\n      revert\n        /* \"#utility.yul\":9041:9104   */\n    tag_237:\n        /* \"#utility.yul\":8988:9110   */\n      pop\n      jump\t// out\n\n    auxdata: 0xa2646970667358221220818af4e28012e82b85e5add03da256cec854b746835cdd7c71f0156dcbc43d3564736f6c63430008070033\n}\n",
				"bytecode": {
					"linkReferences": {},
					"object": "608060405234801561001057600080fd5b50336000806101000a81548173ffffffffffffffffffffffffffffffffffffffff021916908373ffffffffffffffffffffffffffffffffffffffff160217905550610c19806100606000396000f3fe6080604052600436106100705760003560e01c80636f7bc9be1161004e5780636f7bc9be1461010e57806370a082311461014b578063a73a649c14610188578063f0384fb6146101b157610070565b80631a69523014610075578063365b98b2146100915780633e0dfbdf146100d0575b600080fd5b61008f600480360381019061008a9190610700565b6101da565b005b34801561009d57600080fd5b506100b860048036038101906100b391906107dc565b6101e6565b6040516100c793929190610860565b60405180910390f35b3480156100dc57600080fd5b506100f760048036038101906100f29190610700565b6102c8565b60405161010592919061089e565b60405180910390f35b34801561011a57600080fd5b5061013560048036038101906101309190610700565b6102d0565b60405161014291906108c7565b60405180910390f35b34801561015757600080fd5b50610172600480360381019061016d9190610700565b6102e8565b60405161017f91906108c7565b60405180910390f35b34801561019457600080fd5b506101af60048036038101906101aa919061079c565b6103c3565b005b3480156101bd57600080fd5b506101d860048036038101906101d3919061072d565b61040b565b005b6101e3816104e6565b50565b600181815481106101f657600080fd5b90600052602060002090600302016000915090508060000160009054906101000a900473ffffffffffffffffffffffffffffffffffffffff169080600101805461023f90610a28565b80601f016020809104026020016040519081016040528092919081815260200182805461026b90610a28565b80156102b85780601f1061028d576101008083540402835291602001916102b8565b820191906000526020600020905b81548152906001019060200180831161029b57829003601f168201915b5050505050908060020154905083565b600080915091565b60026020528060005260406000206000915090505481565b600080600090505b6001805490508110156103b7578273ffffffffffffffffffffffffffffffffffffffff166001828154811061032857610327610b32565b5b906000526020600020906003020160000160009054906101000a900473ffffffffffffffffffffffffffffffffffffffff1673ffffffffffffffffffffffffffffffffffffffff1614156103a4576001818154811061038a57610389610b32565b5b9060005260206000209060030201600201549150506103be565b80806103af90610a8b565b9150506102f0565b506103e790505b919050565b80600260008473ffffffffffffffffffffffffffffffffffffffff1673ffffffffffffffffffffffffffffffffffffffff168152602001908152602001600020819055505050565b600160405180606001604052808573ffffffffffffffffffffffffffffffffffffffff16815260200184815260200183815250908060018154018082558091505060019003906000526020600020906003020160009091909190915060008201518160000160006101000a81548173ffffffffffffffffffffffffffffffffffffffff021916908373ffffffffffffffffffffffffffffffffffffffff16021790555060208201518160010190805190602001906104ca9291906105c3565b506040820151816002015550506104e183826103c3565b505050565b60005b6001805490508110156105bf578173ffffffffffffffffffffffffffffffffffffffff166001828154811061052157610520610b32565b5b906000526020600020906003020160000160009054906101000a900473ffffffffffffffffffffffffffffffffffffffff1673ffffffffffffffffffffffffffffffffffffffff1614156105ac57346001828154811061058457610583610b32565b5b906000526020600020906003020160020160008282546105a49190610954565b925050819055505b80806105b790610a8b565b9150506104e9565b5050565b8280546105cf90610a28565b90600052602060002090601f0160209004810192826105f15760008555610638565b82601f1061060a57805160ff1916838001178555610638565b82800160010185558215610638579182015b8281111561063757825182559160200191906001019061061c565b5b5090506106459190610649565b5090565b5b8082111561066257600081600090555060010161064a565b5090565b600061067961067484610907565b6108e2565b90508281526020810184848401111561069557610694610b95565b5b6106a08482856109e6565b509392505050565b6000813590506106b781610bb5565b92915050565b600082601f8301126106d2576106d1610b90565b5b81356106e2848260208601610666565b91505092915050565b6000813590506106fa81610bcc565b92915050565b60006020828403121561071657610715610b9f565b5b6000610724848285016106a8565b91505092915050565b60008060006060848603121561074657610745610b9f565b5b6000610754868287016106a8565b935050602084013567ffffffffffffffff81111561077557610774610b9a565b5b610781868287016106bd565b9250506040610792868287016106eb565b9150509250925092565b600080604083850312156107b3576107b2610b9f565b5b60006107c1858286016106a8565b92505060206107d2858286016106eb565b9150509250929050565b6000602082840312156107f2576107f1610b9f565b5b6000610800848285016106eb565b91505092915050565b610812816109aa565b82525050565b600061082382610938565b61082d8185610943565b935061083d8185602086016109f5565b61084681610ba4565b840191505092915050565b61085a816109dc565b82525050565b60006060820190506108756000830186610809565b81810360208301526108878185610818565b90506108966040830184610851565b949350505050565b60006040820190506108b36000830185610809565b6108c06020830184610851565b9392505050565b60006020820190506108dc6000830184610851565b92915050565b60006108ec6108fd565b90506108f88282610a5a565b919050565b6000604051905090565b600067ffffffffffffffff82111561092257610921610b61565b5b61092b82610ba4565b9050602081019050919050565b600081519050919050565b600082825260208201905092915050565b600061095f826109dc565b915061096a836109dc565b9250827fffffffffffffffffffffffffffffffffffffffffffffffffffffffffffffffff0382111561099f5761099e610ad4565b5b828201905092915050565b60006109b5826109bc565b9050919050565b600073ffffffffffffffffffffffffffffffffffffffff82169050919050565b6000819050919050565b82818337600083830152505050565b60005b83811015610a135780820151818401526020810190506109f8565b83811115610a22576000848401525b50505050565b60006002820490506001821680610a4057607f821691505b60208210811415610a5457610a53610b03565b5b50919050565b610a6382610ba4565b810181811067ffffffffffffffff82111715610a8257610a81610b61565b5b80604052505050565b6000610a96826109dc565b91507fffffffffffffffffffffffffffffffffffffffffffffffffffffffffffffffff821415610ac957610ac8610ad4565b5b600182019050919050565b7f4e487b7100000000000000000000000000000000000000000000000000000000600052601160045260246000fd5b7f4e487b7100000000000000000000000000000000000000000000000000000000600052602260045260246000fd5b7f4e487b7100000000000000000000000000000000000000000000000000000000600052603260045260246000fd5b7f4e487b7100000000000000000000000000000000000000000000000000000000600052604160045260246000fd5b600080fd5b600080fd5b600080fd5b600080fd5b6000601f19601f8301169050919050565b610bbe816109aa565b8114610bc957600080fd5b50565b610bd5816109dc565b8114610be057600080fd5b5056fea2646970667358221220818af4e28012e82b85e5add03da256cec854b746835cdd7c71f0156dcbc43d3564736f6c63430008070033",
					"opcodes": "PUSH1 0x80 PUSH1 0x40 MSTORE CALLVALUE DUP1 ISZERO PUSH2 0x10 JUMPI PUSH1 0x0 DUP1 REVERT JUMPDEST POP CALLER PUSH1 0x0 DUP1 PUSH2 0x100 EXP DUP2 SLOAD DUP2 PUSH20 0xFFFFFFFFFFFFFFFFFFFFFFFFFFFFFFFFFFFFFFFF MUL NOT AND SWAP1 DUP4 PUSH20 0xFFFFFFFFFFFFFFFFFFFFFFFFFFFFFFFFFFFFFFFF AND MUL OR SWAP1 SSTORE POP PUSH2 0xC19 DUP1 PUSH2 0x60 PUSH1 0x0 CODECOPY PUSH1 0x0 RETURN INVALID PUSH1 0x80 PUSH1 0x40 MSTORE PUSH1 0x4 CALLDATASIZE LT PUSH2 0x70 JUMPI PUSH1 0x0 CALLDATALOAD PUSH1 0xE0 SHR DUP1 PUSH4 0x6F7BC9BE GT PUSH2 0x4E JUMPI DUP1 PUSH4 0x6F7BC9BE EQ PUSH2 0x10E JUMPI DUP1 PUSH4 0x70A08231 EQ PUSH2 0x14B JUMPI DUP1 PUSH4 0xA73A649C EQ PUSH2 0x188 JUMPI DUP1 PUSH4 0xF0384FB6 EQ PUSH2 0x1B1 JUMPI PUSH2 0x70 JUMP JUMPDEST DUP1 PUSH4 0x1A695230 EQ PUSH2 0x75 JUMPI DUP1 PUSH4 0x365B98B2 EQ PUSH2 0x91 JUMPI DUP1 PUSH4 0x3E0DFBDF EQ PUSH2 0xD0 JUMPI JUMPDEST PUSH1 0x0 DUP1 REVERT JUMPDEST PUSH2 0x8F PUSH1 0x4 DUP1 CALLDATASIZE SUB DUP2 ADD SWAP1 PUSH2 0x8A SWAP2 SWAP1 PUSH2 0x700 JUMP JUMPDEST PUSH2 0x1DA JUMP JUMPDEST STOP JUMPDEST CALLVALUE DUP1 ISZERO PUSH2 0x9D JUMPI PUSH1 0x0 DUP1 REVERT JUMPDEST POP PUSH2 0xB8 PUSH1 0x4 DUP1 CALLDATASIZE SUB DUP2 ADD SWAP1 PUSH2 0xB3 SWAP2 SWAP1 PUSH2 0x7DC JUMP JUMPDEST PUSH2 0x1E6 JUMP JUMPDEST PUSH1 0x40 MLOAD PUSH2 0xC7 SWAP4 SWAP3 SWAP2 SWAP1 PUSH2 0x860 JUMP JUMPDEST PUSH1 0x40 MLOAD DUP1 SWAP2 SUB SWAP1 RETURN JUMPDEST CALLVALUE DUP1 ISZERO PUSH2 0xDC JUMPI PUSH1 0x0 DUP1 REVERT JUMPDEST POP PUSH2 0xF7 PUSH1 0x4 DUP1 CALLDATASIZE SUB DUP2 ADD SWAP1 PUSH2 0xF2 SWAP2 SWAP1 PUSH2 0x700 JUMP JUMPDEST PUSH2 0x2C8 JUMP JUMPDEST PUSH1 0x40 MLOAD PUSH2 0x105 SWAP3 SWAP2 SWAP1 PUSH2 0x89E JUMP JUMPDEST PUSH1 0x40 MLOAD DUP1 SWAP2 SUB SWAP1 RETURN JUMPDEST CALLVALUE DUP1 ISZERO PUSH2 0x11A JUMPI PUSH1 0x0 DUP1 REVERT JUMPDEST POP PUSH2 0x135 PUSH1 0x4 DUP1 CALLDATASIZE SUB DUP2 ADD SWAP1 PUSH2 0x130 SWAP2 SWAP1 PUSH2 0x700 JUMP JUMPDEST PUSH2 0x2D0 JUMP JUMPDEST PUSH1 0x40 MLOAD PUSH2 0x142 SWAP2 SWAP1 PUSH2 0x8C7 JUMP JUMPDEST PUSH1 0x40 MLOAD DUP1 SWAP2 SUB SWAP1 RETURN JUMPDEST CALLVALUE DUP1 ISZERO PUSH2 0x157 JUMPI PUSH1 0x0 DUP1 REVERT JUMPDEST POP PUSH2 0x172 PUSH1 0x4 DUP1 CALLDATASIZE SUB DUP2 ADD SWAP1 PUSH2 0x16D SWAP2 SWAP1 PUSH2 0x700 JUMP JUMPDEST PUSH2 0x2E8 JUMP JUMPDEST PUSH1 0x40 MLOAD PUSH2 0x17F SWAP2 SWAP1 PUSH2 0x8C7 JUMP JUMPDEST PUSH1 0x40 MLOAD DUP1 SWAP2 SUB SWAP1 RETURN JUMPDEST CALLVALUE DUP1 ISZERO PUSH2 0x194 JUMPI PUSH1 0x0 DUP1 REVERT JUMPDEST POP PUSH2 0x1AF PUSH1 0x4 DUP1 CALLDATASIZE SUB DUP2 ADD SWAP1 PUSH2 0x1AA SWAP2 SWAP1 PUSH2 0x79C JUMP JUMPDEST PUSH2 0x3C3 JUMP JUMPDEST STOP JUMPDEST CALLVALUE DUP1 ISZERO PUSH2 0x1BD JUMPI PUSH1 0x0 DUP1 REVERT JUMPDEST POP PUSH2 0x1D8 PUSH1 0x4 DUP1 CALLDATASIZE SUB DUP2 ADD SWAP1 PUSH2 0x1D3 SWAP2 SWAP1 PUSH2 0x72D JUMP JUMPDEST PUSH2 0x40B JUMP JUMPDEST STOP JUMPDEST PUSH2 0x1E3 DUP2 PUSH2 0x4E6 JUMP JUMPDEST POP JUMP JUMPDEST PUSH1 0x1 DUP2 DUP2 SLOAD DUP2 LT PUSH2 0x1F6 JUMPI PUSH1 0x0 DUP1 REVERT JUMPDEST SWAP1 PUSH1 0x0 MSTORE PUSH1 0x20 PUSH1 0x0 KECCAK256 SWAP1 PUSH1 0x3 MUL ADD PUSH1 0x0 SWAP2 POP SWAP1 POP DUP1 PUSH1 0x0 ADD PUSH1 0x0 SWAP1 SLOAD SWAP1 PUSH2 0x100 EXP SWAP1 DIV PUSH20 0xFFFFFFFFFFFFFFFFFFFFFFFFFFFFFFFFFFFFFFFF AND SWAP1 DUP1 PUSH1 0x1 ADD DUP1 SLOAD PUSH2 0x23F SWAP1 PUSH2 0xA28 JUMP JUMPDEST DUP1 PUSH1 0x1F ADD PUSH1 0x20 DUP1 SWAP2 DIV MUL PUSH1 0x20 ADD PUSH1 0x40 MLOAD SWAP1 DUP2 ADD PUSH1 0x40 MSTORE DUP1 SWAP3 SWAP2 SWAP1 DUP2 DUP2 MSTORE PUSH1 0x20 ADD DUP3 DUP1 SLOAD PUSH2 0x26B SWAP1 PUSH2 0xA28 JUMP JUMPDEST DUP1 ISZERO PUSH2 0x2B8 JUMPI DUP1 PUSH1 0x1F LT PUSH2 0x28D JUMPI PUSH2 0x100 DUP1 DUP4 SLOAD DIV MUL DUP4 MSTORE SWAP2 PUSH1 0x20 ADD SWAP2 PUSH2 0x2B8 JUMP JUMPDEST DUP3 ADD SWAP2 SWAP1 PUSH1 0x0 MSTORE PUSH1 0x20 PUSH1 0x0 KECCAK256 SWAP1 JUMPDEST DUP2 SLOAD DUP2 MSTORE SWAP1 PUSH1 0x1 ADD SWAP1 PUSH1 0x20 ADD DUP1 DUP4 GT PUSH2 0x29B JUMPI DUP3 SWAP1 SUB PUSH1 0x1F AND DUP3 ADD SWAP2 JUMPDEST POP POP POP POP POP SWAP1 DUP1 PUSH1 0x2 ADD SLOAD SWAP1 POP DUP4 JUMP JUMPDEST PUSH1 0x0 DUP1 SWAP2 POP SWAP2 JUMP JUMPDEST PUSH1 0x2 PUSH1 0x20 MSTORE DUP1 PUSH1 0x0 MSTORE PUSH1 0x40 PUSH1 0x0 KECCAK256 PUSH1 0x0 SWAP2 POP SWAP1 POP SLOAD DUP2 JUMP JUMPDEST PUSH1 0x0 DUP1 PUSH1 0x0 SWAP1 POP JUMPDEST PUSH1 0x1 DUP1 SLOAD SWAP1 POP DUP2 LT ISZERO PUSH2 0x3B7 JUMPI DUP3 PUSH20 0xFFFFFFFFFFFFFFFFFFFFFFFFFFFFFFFFFFFFFFFF AND PUSH1 0x1 DUP3 DUP2 SLOAD DUP2 LT PUSH2 0x328 JUMPI PUSH2 0x327 PUSH2 0xB32 JUMP JUMPDEST JUMPDEST SWAP1 PUSH1 0x0 MSTORE PUSH1 0x20 PUSH1 0x0 KECCAK256 SWAP1 PUSH1 0x3 MUL ADD PUSH1 0x0 ADD PUSH1 0x0 SWAP1 SLOAD SWAP1 PUSH2 0x100 EXP SWAP1 DIV PUSH20 0xFFFFFFFFFFFFFFFFFFFFFFFFFFFFFFFFFFFFFFFF AND PUSH20 0xFFFFFFFFFFFFFFFFFFFFFFFFFFFFFFFFFFFFFFFF AND EQ ISZERO PUSH2 0x3A4 JUMPI PUSH1 0x1 DUP2 DUP2 SLOAD DUP2 LT PUSH2 0x38A JUMPI PUSH2 0x389 PUSH2 0xB32 JUMP JUMPDEST JUMPDEST SWAP1 PUSH1 0x0 MSTORE PUSH1 0x20 PUSH1 0x0 KECCAK256 SWAP1 PUSH1 0x3 MUL ADD PUSH1 0x2 ADD SLOAD SWAP2 POP POP PUSH2 0x3BE JUMP JUMPDEST DUP1 DUP1 PUSH2 0x3AF SWAP1 PUSH2 0xA8B JUMP JUMPDEST SWAP2 POP POP PUSH2 0x2F0 JUMP JUMPDEST POP PUSH2 0x3E7 SWAP1 POP JUMPDEST SWAP2 SWAP1 POP JUMP JUMPDEST DUP1 PUSH1 0x2 PUSH1 0x0 DUP5 PUSH20 0xFFFFFFFFFFFFFFFFFFFFFFFFFFFFFFFFFFFFFFFF AND PUSH20 0xFFFFFFFFFFFFFFFFFFFFFFFFFFFFFFFFFFFFFFFF AND DUP2 MSTORE PUSH1 0x20 ADD SWAP1 DUP2 MSTORE PUSH1 0x20 ADD PUSH1 0x0 KECCAK256 DUP2 SWAP1 SSTORE POP POP POP JUMP JUMPDEST PUSH1 0x1 PUSH1 0x40 MLOAD DUP1 PUSH1 0x60 ADD PUSH1 0x40 MSTORE DUP1 DUP6 PUSH20 0xFFFFFFFFFFFFFFFFFFFFFFFFFFFFFFFFFFFFFFFF AND DUP2 MSTORE PUSH1 0x20 ADD DUP5 DUP2 MSTORE PUSH1 0x20 ADD DUP4 DUP2 MSTORE POP SWAP1 DUP1 PUSH1 0x1 DUP2 SLOAD ADD DUP1 DUP3 SSTORE DUP1 SWAP2 POP POP PUSH1 0x1 SWAP1 SUB SWAP1 PUSH1 0x0 MSTORE PUSH1 0x20 PUSH1 0x0 KECCAK256 SWAP1 PUSH1 0x3 MUL ADD PUSH1 0x0 SWAP1 SWAP2 SWAP1 SWAP2 SWAP1 SWAP2 POP PUSH1 0x0 DUP3 ADD MLOAD DUP2 PUSH1 0x0 ADD PUSH1 0x0 PUSH2 0x100 EXP DUP2 SLOAD DUP2 PUSH20 0xFFFFFFFFFFFFFFFFFFFFFFFFFFFFFFFFFFFFFFFF MUL NOT AND SWAP1 DUP4 PUSH20 0xFFFFFFFFFFFFFFFFFFFFFFFFFFFFFFFFFFFFFFFF AND MUL OR SWAP1 SSTORE POP PUSH1 0x20 DUP3 ADD MLOAD DUP2 PUSH1 0x1 ADD SWAP1 DUP1 MLOAD SWAP1 PUSH1 0x20 ADD SWAP1 PUSH2 0x4CA SWAP3 SWAP2 SWAP1 PUSH2 0x5C3 JUMP JUMPDEST POP PUSH1 0x40 DUP3 ADD MLOAD DUP2 PUSH1 0x2 ADD SSTORE POP POP PUSH2 0x4E1 DUP4 DUP3 PUSH2 0x3C3 JUMP JUMPDEST POP POP POP JUMP JUMPDEST PUSH1 0x0 JUMPDEST PUSH1 0x1 DUP1 SLOAD SWAP1 POP DUP2 LT ISZERO PUSH2 0x5BF JUMPI DUP2 PUSH20 0xFFFFFFFFFFFFFFFFFFFFFFFFFFFFFFFFFFFFFFFF AND PUSH1 0x1 DUP3 DUP2 SLOAD DUP2 LT PUSH2 0x521 JUMPI PUSH2 0x520 PUSH2 0xB32 JUMP JUMPDEST JUMPDEST SWAP1 PUSH1 0x0 MSTORE PUSH1 0x20 PUSH1 0x0 KECCAK256 SWAP1 PUSH1 0x3 MUL ADD PUSH1 0x0 ADD PUSH1 0x0 SWAP1 SLOAD SWAP1 PUSH2 0x100 EXP SWAP1 DIV PUSH20 0xFFFFFFFFFFFFFFFFFFFFFFFFFFFFFFFFFFFFFFFF AND PUSH20 0xFFFFFFFFFFFFFFFFFFFFFFFFFFFFFFFFFFFFFFFF AND EQ ISZERO PUSH2 0x5AC JUMPI CALLVALUE PUSH1 0x1 DUP3 DUP2 SLOAD DUP2 LT PUSH2 0x584 JUMPI PUSH2 0x583 PUSH2 0xB32 JUMP JUMPDEST JUMPDEST SWAP1 PUSH1 0x0 MSTORE PUSH1 0x20 PUSH1 0x0 KECCAK256 SWAP1 PUSH1 0x3 MUL ADD PUSH1 0x2 ADD PUSH1 0x0 DUP3 DUP3 SLOAD PUSH2 0x5A4 SWAP2 SWAP1 PUSH2 0x954 JUMP JUMPDEST SWAP3 POP POP DUP2 SWAP1 SSTORE POP JUMPDEST DUP1 DUP1 PUSH2 0x5B7 SWAP1 PUSH2 0xA8B JUMP JUMPDEST SWAP2 POP POP PUSH2 0x4E9 JUMP JUMPDEST POP POP JUMP JUMPDEST DUP3 DUP1 SLOAD PUSH2 0x5CF SWAP1 PUSH2 0xA28 JUMP JUMPDEST SWAP1 PUSH1 0x0 MSTORE PUSH1 0x20 PUSH1 0x0 KECCAK256 SWAP1 PUSH1 0x1F ADD PUSH1 0x20 SWAP1 DIV DUP2 ADD SWAP3 DUP3 PUSH2 0x5F1 JUMPI PUSH1 0x0 DUP6 SSTORE PUSH2 0x638 JUMP JUMPDEST DUP3 PUSH1 0x1F LT PUSH2 0x60A JUMPI DUP1 MLOAD PUSH1 0xFF NOT AND DUP4 DUP1 ADD OR DUP6 SSTORE PUSH2 0x638 JUMP JUMPDEST DUP3 DUP1 ADD PUSH1 0x1 ADD DUP6 SSTORE DUP3 ISZERO PUSH2 0x638 JUMPI SWAP2 DUP3 ADD JUMPDEST DUP3 DUP2 GT ISZERO PUSH2 0x637 JUMPI DUP3 MLOAD DUP3 SSTORE SWAP2 PUSH1 0x20 ADD SWAP2 SWAP1 PUSH1 0x1 ADD SWAP1 PUSH2 0x61C JUMP JUMPDEST JUMPDEST POP SWAP1 POP PUSH2 0x645 SWAP2 SWAP1 PUSH2 0x649 JUMP JUMPDEST POP SWAP1 JUMP JUMPDEST JUMPDEST DUP1 DUP3 GT ISZERO PUSH2 0x662 JUMPI PUSH1 0x0 DUP2 PUSH1 0x0 SWAP1 SSTORE POP PUSH1 0x1 ADD PUSH2 0x64A JUMP JUMPDEST POP SWAP1 JUMP JUMPDEST PUSH1 0x0 PUSH2 0x679 PUSH2 0x674 DUP5 PUSH2 0x907 JUMP JUMPDEST PUSH2 0x8E2 JUMP JUMPDEST SWAP1 POP DUP3 DUP2 MSTORE PUSH1 0x20 DUP2 ADD DUP5 DUP5 DUP5 ADD GT ISZERO PUSH2 0x695 JUMPI PUSH2 0x694 PUSH2 0xB95 JUMP JUMPDEST JUMPDEST PUSH2 0x6A0 DUP5 DUP3 DUP6 PUSH2 0x9E6 JUMP JUMPDEST POP SWAP4 SWAP3 POP POP POP JUMP JUMPDEST PUSH1 0x0 DUP2 CALLDATALOAD SWAP1 POP PUSH2 0x6B7 DUP2 PUSH2 0xBB5 JUMP JUMPDEST SWAP3 SWAP2 POP POP JUMP JUMPDEST PUSH1 0x0 DUP3 PUSH1 0x1F DUP4 ADD SLT PUSH2 0x6D2 JUMPI PUSH2 0x6D1 PUSH2 0xB90 JUMP JUMPDEST JUMPDEST DUP2 CALLDATALOAD PUSH2 0x6E2 DUP5 DUP3 PUSH1 0x20 DUP7 ADD PUSH2 0x666 JUMP JUMPDEST SWAP2 POP POP SWAP3 SWAP2 POP POP JUMP JUMPDEST PUSH1 0x0 DUP2 CALLDATALOAD SWAP1 POP PUSH2 0x6FA DUP2 PUSH2 0xBCC JUMP JUMPDEST SWAP3 SWAP2 POP POP JUMP JUMPDEST PUSH1 0x0 PUSH1 0x20 DUP3 DUP5 SUB SLT ISZERO PUSH2 0x716 JUMPI PUSH2 0x715 PUSH2 0xB9F JUMP JUMPDEST JUMPDEST PUSH1 0x0 PUSH2 0x724 DUP5 DUP3 DUP6 ADD PUSH2 0x6A8 JUMP JUMPDEST SWAP2 POP POP SWAP3 SWAP2 POP POP JUMP JUMPDEST PUSH1 0x0 DUP1 PUSH1 0x0 PUSH1 0x60 DUP5 DUP7 SUB SLT ISZERO PUSH2 0x746 JUMPI PUSH2 0x745 PUSH2 0xB9F JUMP JUMPDEST JUMPDEST PUSH1 0x0 PUSH2 0x754 DUP7 DUP3 DUP8 ADD PUSH2 0x6A8 JUMP JUMPDEST SWAP4 POP POP PUSH1 0x20 DUP5 ADD CALLDATALOAD PUSH8 0xFFFFFFFFFFFFFFFF DUP2 GT ISZERO PUSH2 0x775 JUMPI PUSH2 0x774 PUSH2 0xB9A JUMP JUMPDEST JUMPDEST PUSH2 0x781 DUP7 DUP3 DUP8 ADD PUSH2 0x6BD JUMP JUMPDEST SWAP3 POP POP PUSH1 0x40 PUSH2 0x792 DUP7 DUP3 DUP8 ADD PUSH2 0x6EB JUMP JUMPDEST SWAP2 POP POP SWAP3 POP SWAP3 POP SWAP3 JUMP JUMPDEST PUSH1 0x0 DUP1 PUSH1 0x40 DUP4 DUP6 SUB SLT ISZERO PUSH2 0x7B3 JUMPI PUSH2 0x7B2 PUSH2 0xB9F JUMP JUMPDEST JUMPDEST PUSH1 0x0 PUSH2 0x7C1 DUP6 DUP3 DUP7 ADD PUSH2 0x6A8 JUMP JUMPDEST SWAP3 POP POP PUSH1 0x20 PUSH2 0x7D2 DUP6 DUP3 DUP7 ADD PUSH2 0x6EB JUMP JUMPDEST SWAP2 POP POP SWAP3 POP SWAP3 SWAP1 POP JUMP JUMPDEST PUSH1 0x0 PUSH1 0x20 DUP3 DUP5 SUB SLT ISZERO PUSH2 0x7F2 JUMPI PUSH2 0x7F1 PUSH2 0xB9F JUMP JUMPDEST JUMPDEST PUSH1 0x0 PUSH2 0x800 DUP5 DUP3 DUP6 ADD PUSH2 0x6EB JUMP JUMPDEST SWAP2 POP POP SWAP3 SWAP2 POP POP JUMP JUMPDEST PUSH2 0x812 DUP2 PUSH2 0x9AA JUMP JUMPDEST DUP3 MSTORE POP POP JUMP JUMPDEST PUSH1 0x0 PUSH2 0x823 DUP3 PUSH2 0x938 JUMP JUMPDEST PUSH2 0x82D DUP2 DUP6 PUSH2 0x943 JUMP JUMPDEST SWAP4 POP PUSH2 0x83D DUP2 DUP6 PUSH1 0x20 DUP7 ADD PUSH2 0x9F5 JUMP JUMPDEST PUSH2 0x846 DUP2 PUSH2 0xBA4 JUMP JUMPDEST DUP5 ADD SWAP2 POP POP SWAP3 SWAP2 POP POP JUMP JUMPDEST PUSH2 0x85A DUP2 PUSH2 0x9DC JUMP JUMPDEST DUP3 MSTORE POP POP JUMP JUMPDEST PUSH1 0x0 PUSH1 0x60 DUP3 ADD SWAP1 POP PUSH2 0x875 PUSH1 0x0 DUP4 ADD DUP7 PUSH2 0x809 JUMP JUMPDEST DUP2 DUP2 SUB PUSH1 0x20 DUP4 ADD MSTORE PUSH2 0x887 DUP2 DUP6 PUSH2 0x818 JUMP JUMPDEST SWAP1 POP PUSH2 0x896 PUSH1 0x40 DUP4 ADD DUP5 PUSH2 0x851 JUMP JUMPDEST SWAP5 SWAP4 POP POP POP POP JUMP JUMPDEST PUSH1 0x0 PUSH1 0x40 DUP3 ADD SWAP1 POP PUSH2 0x8B3 PUSH1 0x0 DUP4 ADD DUP6 PUSH2 0x809 JUMP JUMPDEST PUSH2 0x8C0 PUSH1 0x20 DUP4 ADD DUP5 PUSH2 0x851 JUMP JUMPDEST SWAP4 SWAP3 POP POP POP JUMP JUMPDEST PUSH1 0x0 PUSH1 0x20 DUP3 ADD SWAP1 POP PUSH2 0x8DC PUSH1 0x0 DUP4 ADD DUP5 PUSH2 0x851 JUMP JUMPDEST SWAP3 SWAP2 POP POP JUMP JUMPDEST PUSH1 0x0 PUSH2 0x8EC PUSH2 0x8FD JUMP JUMPDEST SWAP1 POP PUSH2 0x8F8 DUP3 DUP3 PUSH2 0xA5A JUMP JUMPDEST SWAP2 SWAP1 POP JUMP JUMPDEST PUSH1 0x0 PUSH1 0x40 MLOAD SWAP1 POP SWAP1 JUMP JUMPDEST PUSH1 0x0 PUSH8 0xFFFFFFFFFFFFFFFF DUP3 GT ISZERO PUSH2 0x922 JUMPI PUSH2 0x921 PUSH2 0xB61 JUMP JUMPDEST JUMPDEST PUSH2 0x92B DUP3 PUSH2 0xBA4 JUMP JUMPDEST SWAP1 POP PUSH1 0x20 DUP2 ADD SWAP1 POP SWAP2 SWAP1 POP JUMP JUMPDEST PUSH1 0x0 DUP2 MLOAD SWAP1 POP SWAP2 SWAP1 POP JUMP JUMPDEST PUSH1 0x0 DUP3 DUP3 MSTORE PUSH1 0x20 DUP3 ADD SWAP1 POP SWAP3 SWAP2 POP POP JUMP JUMPDEST PUSH1 0x0 PUSH2 0x95F DUP3 PUSH2 0x9DC JUMP JUMPDEST SWAP2 POP PUSH2 0x96A DUP4 PUSH2 0x9DC JUMP JUMPDEST SWAP3 POP DUP3 PUSH32 0xFFFFFFFFFFFFFFFFFFFFFFFFFFFFFFFFFFFFFFFFFFFFFFFFFFFFFFFFFFFFFFFF SUB DUP3 GT ISZERO PUSH2 0x99F JUMPI PUSH2 0x99E PUSH2 0xAD4 JUMP JUMPDEST JUMPDEST DUP3 DUP3 ADD SWAP1 POP SWAP3 SWAP2 POP POP JUMP JUMPDEST PUSH1 0x0 PUSH2 0x9B5 DUP3 PUSH2 0x9BC JUMP JUMPDEST SWAP1 POP SWAP2 SWAP1 POP JUMP JUMPDEST PUSH1 0x0 PUSH20 0xFFFFFFFFFFFFFFFFFFFFFFFFFFFFFFFFFFFFFFFF DUP3 AND SWAP1 POP SWAP2 SWAP1 POP JUMP JUMPDEST PUSH1 0x0 DUP2 SWAP1 POP SWAP2 SWAP1 POP JUMP JUMPDEST DUP3 DUP2 DUP4 CALLDATACOPY PUSH1 0x0 DUP4 DUP4 ADD MSTORE POP POP POP JUMP JUMPDEST PUSH1 0x0 JUMPDEST DUP4 DUP2 LT ISZERO PUSH2 0xA13 JUMPI DUP1 DUP3 ADD MLOAD DUP2 DUP5 ADD MSTORE PUSH1 0x20 DUP2 ADD SWAP1 POP PUSH2 0x9F8 JUMP JUMPDEST DUP4 DUP2 GT ISZERO PUSH2 0xA22 JUMPI PUSH1 0x0 DUP5 DUP5 ADD MSTORE JUMPDEST POP POP POP POP JUMP JUMPDEST PUSH1 0x0 PUSH1 0x2 DUP3 DIV SWAP1 POP PUSH1 0x1 DUP3 AND DUP1 PUSH2 0xA40 JUMPI PUSH1 0x7F DUP3 AND SWAP2 POP JUMPDEST PUSH1 0x20 DUP3 LT DUP2 EQ ISZERO PUSH2 0xA54 JUMPI PUSH2 0xA53 PUSH2 0xB03 JUMP JUMPDEST JUMPDEST POP SWAP2 SWAP1 POP JUMP JUMPDEST PUSH2 0xA63 DUP3 PUSH2 0xBA4 JUMP JUMPDEST DUP2 ADD DUP2 DUP2 LT PUSH8 0xFFFFFFFFFFFFFFFF DUP3 GT OR ISZERO PUSH2 0xA82 JUMPI PUSH2 0xA81 PUSH2 0xB61 JUMP JUMPDEST JUMPDEST DUP1 PUSH1 0x40 MSTORE POP POP POP JUMP JUMPDEST PUSH1 0x0 PUSH2 0xA96 DUP3 PUSH2 0x9DC JUMP JUMPDEST SWAP2 POP PUSH32 0xFFFFFFFFFFFFFFFFFFFFFFFFFFFFFFFFFFFFFFFFFFFFFFFFFFFFFFFFFFFFFFFF DUP3 EQ ISZERO PUSH2 0xAC9 JUMPI PUSH2 0xAC8 PUSH2 0xAD4 JUMP JUMPDEST JUMPDEST PUSH1 0x1 DUP3 ADD SWAP1 POP SWAP2 SWAP1 POP JUMP JUMPDEST PUSH32 0x4E487B7100000000000000000000000000000000000000000000000000000000 PUSH1 0x0 MSTORE PUSH1 0x11 PUSH1 0x4 MSTORE PUSH1 0x24 PUSH1 0x0 REVERT JUMPDEST PUSH32 0x4E487B7100000000000000000000000000000000000000000000000000000000 PUSH1 0x0 MSTORE PUSH1 0x22 PUSH1 0x4 MSTORE PUSH1 0x24 PUSH1 0x0 REVERT JUMPDEST PUSH32 0x4E487B7100000000000000000000000000000000000000000000000000000000 PUSH1 0x0 MSTORE PUSH1 0x32 PUSH1 0x4 MSTORE PUSH1 0x24 PUSH1 0x0 REVERT JUMPDEST PUSH32 0x4E487B7100000000000000000000000000000000000000000000000000000000 PUSH1 0x0 MSTORE PUSH1 0x41 PUSH1 0x4 MSTORE PUSH1 0x24 PUSH1 0x0 REVERT JUMPDEST PUSH1 0x0 DUP1 REVERT JUMPDEST PUSH1 0x0 DUP1 REVERT JUMPDEST PUSH1 0x0 DUP1 REVERT JUMPDEST PUSH1 0x0 DUP1 REVERT JUMPDEST PUSH1 0x0 PUSH1 0x1F NOT PUSH1 0x1F DUP4 ADD AND SWAP1 POP SWAP2 SWAP1 POP JUMP JUMPDEST PUSH2 0xBBE DUP2 PUSH2 0x9AA JUMP JUMPDEST DUP2 EQ PUSH2 0xBC9 JUMPI PUSH1 0x0 DUP1 REVERT JUMPDEST POP JUMP JUMPDEST PUSH2 0xBD5 DUP2 PUSH2 0x9DC JUMP JUMPDEST DUP2 EQ PUSH2 0xBE0 JUMPI PUSH1 0x0 DUP1 REVERT JUMPDEST POP JUMP INVALID LOG2 PUSH5 0x6970667358 0x22 SLT KECCAK256 DUP2 DUP11 DELEGATECALL 0xE2 DUP1 SLT 0xE8 0x2B DUP6 0xE5 0xAD 0xD0 RETURNDATASIZE LOG2 JUMP 0xCE 0xC8 SLOAD 0xB7 CHAINID DUP4 0x5C 0xDD PUSH29 0x71F0156DCBC43D3564736F6C6343000807003300000000000000000000 "
				},
				"gasEstimates": {
					"creation": {
						"codeDepositCost": "619400",
						"executionCost": "24917",
						"totalCost": "644317"
					},
					"external": {
						"addToInvestorMapping(address,uint256)": "22876",
						"addUser(address,string,uint256)": "infinite",
						"balanceOf(address)": "infinite",
						"getInvestorByAddress(address)": "infinite",
						"investors(address)": "2814",
						"transfer(address)": "infinite",
						"users(uint256)": "infinite"
					},
					"internal": {
						"transferToAddress(address)": "infinite"
					}
				},
				"methodIdentifiers": {
					"addToInvestorMapping(address,uint256)": "a73a649c",
					"addUser(address,string,uint256)": "f0384fb6",
					"balanceOf(address)": "70a08231",
					"getInvestorByAddress(address)": "3e0dfbdf",
					"investors(address)": "6f7bc9be",
					"transfer(address)": "1a695230",
					"users(uint256)": "365b98b2"
				}
			},
			"storageLayout": {
				"storage": [
					{
						"astId": 3,
						"contract": "contracts/Test1.sol:Test1",
						"label": "owner",
						"offset": 0,
						"slot": "0",
						"type": "t_address"
					},
					{
						"astId": 23,
						"contract": "contracts/Test1.sol:Test1",
						"label": "users",
						"offset": 0,
						"slot": "1",
						"type": "t_array(t_struct(User)19_storage)dyn_storage"
					},
					{
						"astId": 27,
						"contract": "contracts/Test1.sol:Test1",
						"label": "investors",
						"offset": 0,
						"slot": "2",
						"type": "t_mapping(t_address,t_uint256)"
					}
				],
				"types": {
					"t_address": {
						"encoding": "inplace",
						"label": "address",
						"numberOfBytes": "20"
					},
					"t_array(t_struct(User)19_storage)dyn_storage": {
						"base": "t_struct(User)19_storage",
						"encoding": "dynamic_array",
						"label": "struct Test1.User[]",
						"numberOfBytes": "32"
					},
					"t_mapping(t_address,t_uint256)": {
						"encoding": "mapping",
						"key": "t_address",
						"label": "mapping(address => uint256)",
						"numberOfBytes": "32",
						"value": "t_uint256"
					},
					"t_string_storage": {
						"encoding": "bytes",
						"label": "string",
						"numberOfBytes": "32"
					},
					"t_struct(User)19_storage": {
						"encoding": "inplace",
						"label": "struct Test1.User",
						"members": [
							{
								"astId": 14,
								"contract": "contracts/Test1.sol:Test1",
								"label": "walletAddress",
								"offset": 0,
								"slot": "0",
								"type": "t_address"
							},
							{
								"astId": 16,
								"contract": "contracts/Test1.sol:Test1",
								"label": "name",
								"offset": 0,
								"slot": "1",
								"type": "t_string_storage"
							},
							{
								"astId": 18,
								"contract": "contracts/Test1.sol:Test1",
								"label": "amount",
								"offset": 0,
								"slot": "2",
								"type": "t_uint256"
							}
						],
						"numberOfBytes": "96"
					},
					"t_uint256": {
						"encoding": "inplace",
						"label": "uint256",
						"numberOfBytes": "32"
					}
				}
			},
			"userdoc": {
				"kind": "user",
				"methods": {},
				"version": 1
			}
		}
	}
}