{
	"contracts/Test1.sol": {
		"Test1": {
			"abi": [
				{
					"inputs": [],
					"stateMutability": "nonpayable",
					"type": "constructor"
				},
				{
					"inputs": [
						{
							"internalType": "address",
							"name": "walletAddress",
							"type": "address"
						},
						{
							"internalType": "uint256",
							"name": "amount",
							"type": "uint256"
						}
					],
					"name": "addToInvestorMapping",
					"outputs": [],
					"stateMutability": "nonpayable",
					"type": "function"
				},
				{
					"inputs": [
						{
							"internalType": "address",
							"name": "walletAddress",
							"type": "address"
						},
						{
							"internalType": "string",
							"name": "name",
							"type": "string"
						},
						{
							"internalType": "uint256",
							"name": "amount",
							"type": "uint256"
						}
					],
					"name": "addUser",
					"outputs": [],
					"stateMutability": "nonpayable",
					"type": "function"
				},
				{
					"inputs": [
						{
							"internalType": "address",
							"name": "walletAddress",
							"type": "address"
						}
					],
					"name": "balanceOf",
					"outputs": [
						{
							"internalType": "uint256",
							"name": "",
							"type": "uint256"
						}
					],
					"stateMutability": "view",
					"type": "function"
				},
				{
					"inputs": [
						{
							"internalType": "address",
							"name": "walletAddress",
							"type": "address"
						}
					],
					"name": "getInvestorByAddress",
					"outputs": [
						{
							"internalType": "uint256",
							"name": "",
							"type": "uint256"
						}
					],
					"stateMutability": "view",
					"type": "function"
				},
				{
					"inputs": [
						{
							"internalType": "address",
							"name": "",
							"type": "address"
						}
					],
					"name": "investors",
					"outputs": [
						{
							"internalType": "uint256",
							"name": "",
							"type": "uint256"
						}
					],
					"stateMutability": "view",
					"type": "function"
				},
				{
					"inputs": [
						{
							"internalType": "address",
							"name": "walletAddress",
							"type": "address"
						}
					],
					"name": "transfer",
					"outputs": [],
					"stateMutability": "payable",
					"type": "function"
				},
				{
					"inputs": [
						{
							"internalType": "uint256",
							"name": "",
							"type": "uint256"
						}
					],
					"name": "users",
					"outputs": [
						{
							"internalType": "address",
							"name": "walletAddress",
							"type": "address"
						},
						{
							"internalType": "string",
							"name": "name",
							"type": "string"
						},
						{
							"internalType": "uint256",
							"name": "amount",
							"type": "uint256"
						}
					],
					"stateMutability": "view",
					"type": "function"
				}
			],
			"devdoc": {
				"kind": "dev",
				"methods": {},
				"version": 1
			},
			"evm": {
				"assembly": "    /* \"contracts/Test1.sol\":65:1381  contract Test1{... */\n  mstore(0x40, 0x80)\n    /* \"contracts/Test1.sol\":106:154  constructor(){... */\n  callvalue\n  dup1\n  iszero\n  tag_1\n  jumpi\n  0x00\n  dup1\n  revert\ntag_1:\n  pop\n    /* \"contracts/Test1.sol\":137:147  msg.sender */\n  caller\n    /* \"contracts/Test1.sol\":129:134  owner */\n  0x00\n  dup1\n    /* \"contracts/Test1.sol\":129:147  owner = msg.sender */\n  0x0100\n  exp\n  dup2\n  sload\n  dup2\n  0xffffffffffffffffffffffffffffffffffffffff\n  mul\n  not\n  and\n  swap1\n  dup4\n  0xffffffffffffffffffffffffffffffffffffffff\n  and\n  mul\n  or\n  swap1\n  sstore\n  pop\n    /* \"contracts/Test1.sol\":65:1381  contract Test1{... */\n  dataSize(sub_0)\n  dup1\n  dataOffset(sub_0)\n  0x00\n  codecopy\n  0x00\n  return\nstop\n\nsub_0: assembly {\n        /* \"contracts/Test1.sol\":65:1381  contract Test1{... */\n      mstore(0x40, 0x80)\n      jumpi(tag_1, lt(calldatasize, 0x04))\n      shr(0xe0, calldataload(0x00))\n      dup1\n      0x6f7bc9be\n      gt\n      tag_9\n      jumpi\n      dup1\n      0x6f7bc9be\n      eq\n      tag_5\n      jumpi\n      dup1\n      0x70a08231\n      eq\n      tag_6\n      jumpi\n      dup1\n      0xa73a649c\n      eq\n      tag_7\n      jumpi\n      dup1\n      0xf0384fb6\n      eq\n      tag_8\n      jumpi\n      jump(tag_1)\n    tag_9:\n      dup1\n      0x1a695230\n      eq\n      tag_2\n      jumpi\n      dup1\n      0x365b98b2\n      eq\n      tag_3\n      jumpi\n      dup1\n      0x3e0dfbdf\n      eq\n      tag_4\n      jumpi\n    tag_1:\n      0x00\n      dup1\n      revert\n        /* \"contracts/Test1.sol\":754:859  function transfer(address walletAddress) payable public {... */\n    tag_2:\n      tag_10\n      0x04\n      dup1\n      calldatasize\n      sub\n      dup2\n      add\n      swap1\n      tag_11\n      swap2\n      swap1\n      tag_12\n      jump\t// in\n    tag_11:\n      tag_13\n      jump\t// in\n    tag_10:\n      stop\n        /* \"contracts/Test1.sol\":258:277  User[] public users */\n    tag_3:\n      callvalue\n      dup1\n      iszero\n      tag_14\n      jumpi\n      0x00\n      dup1\n      revert\n    tag_14:\n      pop\n      tag_15\n      0x04\n      dup1\n      calldatasize\n      sub\n      dup2\n      add\n      swap1\n      tag_16\n      swap2\n      swap1\n      tag_17\n      jump\t// in\n    tag_16:\n      tag_18\n      jump\t// in\n    tag_15:\n      mload(0x40)\n      tag_19\n      swap4\n      swap3\n      swap2\n      swap1\n      tag_20\n      jump\t// in\n    tag_19:\n      mload(0x40)\n      dup1\n      swap2\n      sub\n      swap1\n      return\n        /* \"contracts/Test1.sol\":662:748  function getInvestorByAddress(address walletAddress) public view returns(uint){... */\n    tag_4:\n      callvalue\n      dup1\n      iszero\n      tag_21\n      jumpi\n      0x00\n      dup1\n      revert\n    tag_21:\n      pop\n      tag_22\n      0x04\n      dup1\n      calldatasize\n      sub\n      dup2\n      add\n      swap1\n      tag_23\n      swap2\n      swap1\n      tag_12\n      jump\t// in\n    tag_23:\n      tag_24\n      jump\t// in\n    tag_22:\n      mload(0x40)\n      tag_25\n      swap2\n      swap1\n      tag_26\n      jump\t// in\n    tag_25:\n      mload(0x40)\n      dup1\n      swap2\n      sub\n      swap1\n      return\n        /* \"contracts/Test1.sol\":283:324  mapping(address => uint) public investors */\n    tag_5:\n      callvalue\n      dup1\n      iszero\n      tag_27\n      jumpi\n      0x00\n      dup1\n      revert\n    tag_27:\n      pop\n      tag_28\n      0x04\n      dup1\n      calldatasize\n      sub\n      dup2\n      add\n      swap1\n      tag_29\n      swap2\n      swap1\n      tag_12\n      jump\t// in\n    tag_29:\n      tag_30\n      jump\t// in\n    tag_28:\n      mload(0x40)\n      tag_31\n      swap2\n      swap1\n      tag_26\n      jump\t// in\n    tag_31:\n      mload(0x40)\n      dup1\n      swap2\n      sub\n      swap1\n      return\n        /* \"contracts/Test1.sol\":1111:1375  function balanceOf(address walletAddress) public view returns(uint){... */\n    tag_6:\n      callvalue\n      dup1\n      iszero\n      tag_32\n      jumpi\n      0x00\n      dup1\n      revert\n    tag_32:\n      pop\n      tag_33\n      0x04\n      dup1\n      calldatasize\n      sub\n      dup2\n      add\n      swap1\n      tag_34\n      swap2\n      swap1\n      tag_12\n      jump\t// in\n    tag_34:\n      tag_35\n      jump\t// in\n    tag_33:\n      mload(0x40)\n      tag_36\n      swap2\n      swap1\n      tag_26\n      jump\t// in\n    tag_36:\n      mload(0x40)\n      dup1\n      swap2\n      sub\n      swap1\n      return\n        /* \"contracts/Test1.sol\":533:656  function addToInvestorMapping(address walletAddress, uint amount) public {... */\n    tag_7:\n      callvalue\n      dup1\n      iszero\n      tag_37\n      jumpi\n      0x00\n      dup1\n      revert\n    tag_37:\n      pop\n      tag_38\n      0x04\n      dup1\n      calldatasize\n      sub\n      dup2\n      add\n      swap1\n      tag_39\n      swap2\n      swap1\n      tag_40\n      jump\t// in\n    tag_39:\n      tag_41\n      jump\t// in\n    tag_38:\n      stop\n        /* \"contracts/Test1.sol\":332:527  function addUser(address walletAddress, string memory name, uint amount) public {... */\n    tag_8:\n      callvalue\n      dup1\n      iszero\n      tag_42\n      jumpi\n      0x00\n      dup1\n      revert\n    tag_42:\n      pop\n      tag_43\n      0x04\n      dup1\n      calldatasize\n      sub\n      dup2\n      add\n      swap1\n      tag_44\n      swap2\n      swap1\n      tag_45\n      jump\t// in\n    tag_44:\n      tag_46\n      jump\t// in\n    tag_43:\n      stop\n        /* \"contracts/Test1.sol\":754:859  function transfer(address walletAddress) payable public {... */\n    tag_13:\n        /* \"contracts/Test1.sol\":820:852  transferToAddress(walletAddress) */\n      tag_48\n        /* \"contracts/Test1.sol\":838:851  walletAddress */\n      dup2\n        /* \"contracts/Test1.sol\":820:837  transferToAddress */\n      tag_49\n        /* \"contracts/Test1.sol\":820:852  transferToAddress(walletAddress) */\n      jump\t// in\n    tag_48:\n        /* \"contracts/Test1.sol\":754:859  function transfer(address walletAddress) payable public {... */\n      pop\n      jump\t// out\n        /* \"contracts/Test1.sol\":258:277  User[] public users */\n    tag_18:\n      0x01\n      dup2\n      dup2\n      sload\n      dup2\n      lt\n      tag_50\n      jumpi\n      0x00\n      dup1\n      revert\n    tag_50:\n      swap1\n      0x00\n      mstore\n      keccak256(0x00, 0x20)\n      swap1\n      0x03\n      mul\n      add\n      0x00\n      swap2\n      pop\n      swap1\n      pop\n      dup1\n      0x00\n      add\n      0x00\n      swap1\n      sload\n      swap1\n      0x0100\n      exp\n      swap1\n      div\n      0xffffffffffffffffffffffffffffffffffffffff\n      and\n      swap1\n      dup1\n      0x01\n      add\n      dup1\n      sload\n      tag_52\n      swap1\n      tag_53\n      jump\t// in\n    tag_52:\n      dup1\n      0x1f\n      add\n      0x20\n      dup1\n      swap2\n      div\n      mul\n      0x20\n      add\n      mload(0x40)\n      swap1\n      dup2\n      add\n      0x40\n      mstore\n      dup1\n      swap3\n      swap2\n      swap1\n      dup2\n      dup2\n      mstore\n      0x20\n      add\n      dup3\n      dup1\n      sload\n      tag_54\n      swap1\n      tag_53\n      jump\t// in\n    tag_54:\n      dup1\n      iszero\n      tag_55\n      jumpi\n      dup1\n      0x1f\n      lt\n      tag_56\n      jumpi\n      0x0100\n      dup1\n      dup4\n      sload\n      div\n      mul\n      dup4\n      mstore\n      swap2\n      0x20\n      add\n      swap2\n      jump(tag_55)\n    tag_56:\n      dup3\n      add\n      swap2\n      swap1\n      0x00\n      mstore\n      keccak256(0x00, 0x20)\n      swap1\n    tag_57:\n      dup2\n      sload\n      dup2\n      mstore\n      swap1\n      0x01\n      add\n      swap1\n      0x20\n      add\n      dup1\n      dup4\n      gt\n      tag_57\n      jumpi\n      dup3\n      swap1\n      sub\n      0x1f\n      and\n      dup3\n      add\n      swap2\n    tag_55:\n      pop\n      pop\n      pop\n      pop\n      pop\n      swap1\n      dup1\n      0x02\n      add\n      sload\n      swap1\n      pop\n      dup4\n      jump\t// out\n        /* \"contracts/Test1.sol\":662:748  function getInvestorByAddress(address walletAddress) public view returns(uint){... */\n    tag_24:\n        /* \"contracts/Test1.sol\":735:739  uint */\n      0x00\n        /* \"contracts/Test1.sol\":662:748  function getInvestorByAddress(address walletAddress) public view returns(uint){... */\n      swap2\n      swap1\n      pop\n      jump\t// out\n        /* \"contracts/Test1.sol\":283:324  mapping(address => uint) public investors */\n    tag_30:\n      mstore(0x20, 0x02)\n      dup1\n      0x00\n      mstore\n      keccak256(0x00, 0x40)\n      0x00\n      swap2\n      pop\n      swap1\n      pop\n      sload\n      dup2\n      jump\t// out\n        /* \"contracts/Test1.sol\":1111:1375  function balanceOf(address walletAddress) public view returns(uint){... */\n    tag_35:\n        /* \"contracts/Test1.sol\":1173:1177  uint */\n      0x00\n        /* \"contracts/Test1.sol\":1192:1198  uint i */\n      dup1\n        /* \"contracts/Test1.sol\":1201:1202  0 */\n      0x00\n        /* \"contracts/Test1.sol\":1192:1202  uint i = 0 */\n      swap1\n      pop\n        /* \"contracts/Test1.sol\":1188:1348  for(uint i = 0; i < users.length; i++){... */\n    tag_60:\n        /* \"contracts/Test1.sol\":1208:1213  users */\n      0x01\n        /* \"contracts/Test1.sol\":1208:1220  users.length */\n      dup1\n      sload\n      swap1\n      pop\n        /* \"contracts/Test1.sol\":1204:1205  i */\n      dup2\n        /* \"contracts/Test1.sol\":1204:1220  i < users.length */\n      lt\n        /* \"contracts/Test1.sol\":1188:1348  for(uint i = 0; i < users.length; i++){... */\n      iszero\n      tag_61\n      jumpi\n        /* \"contracts/Test1.sol\":1269:1282  walletAddress */\n      dup3\n        /* \"contracts/Test1.sol\":1243:1282  users[i].walletAddress == walletAddress */\n      0xffffffffffffffffffffffffffffffffffffffff\n      and\n        /* \"contracts/Test1.sol\":1243:1248  users */\n      0x01\n        /* \"contracts/Test1.sol\":1249:1250  i */\n      dup3\n        /* \"contracts/Test1.sol\":1243:1251  users[i] */\n      dup2\n      sload\n      dup2\n      lt\n      tag_63\n      jumpi\n      tag_64\n      tag_65\n      jump\t// in\n    tag_64:\n    tag_63:\n      swap1\n      0x00\n      mstore\n      keccak256(0x00, 0x20)\n      swap1\n      0x03\n      mul\n      add\n        /* \"contracts/Test1.sol\":1243:1265  users[i].walletAddress */\n      0x00\n      add\n      0x00\n      swap1\n      sload\n      swap1\n      0x0100\n      exp\n      swap1\n      div\n      0xffffffffffffffffffffffffffffffffffffffff\n      and\n        /* \"contracts/Test1.sol\":1243:1282  users[i].walletAddress == walletAddress */\n      0xffffffffffffffffffffffffffffffffffffffff\n      and\n      eq\n        /* \"contracts/Test1.sol\":1240:1338  if(users[i].walletAddress == walletAddress){... */\n      iszero\n      tag_67\n      jumpi\n        /* \"contracts/Test1.sol\":1308:1313  users */\n      0x01\n        /* \"contracts/Test1.sol\":1314:1315  i */\n      dup2\n        /* \"contracts/Test1.sol\":1308:1316  users[i] */\n      dup2\n      sload\n      dup2\n      lt\n      tag_68\n      jumpi\n      tag_69\n      tag_65\n      jump\t// in\n    tag_69:\n    tag_68:\n      swap1\n      0x00\n      mstore\n      keccak256(0x00, 0x20)\n      swap1\n      0x03\n      mul\n      add\n        /* \"contracts/Test1.sol\":1308:1323  users[i].amount */\n      0x02\n      add\n      sload\n        /* \"contracts/Test1.sol\":1301:1323  return users[i].amount */\n      swap2\n      pop\n      pop\n      jump(tag_59)\n        /* \"contracts/Test1.sol\":1240:1338  if(users[i].walletAddress == walletAddress){... */\n    tag_67:\n        /* \"contracts/Test1.sol\":1222:1225  i++ */\n      dup1\n      dup1\n      tag_71\n      swap1\n      tag_72\n      jump\t// in\n    tag_71:\n      swap2\n      pop\n      pop\n        /* \"contracts/Test1.sol\":1188:1348  for(uint i = 0; i < users.length; i++){... */\n      jump(tag_60)\n    tag_61:\n      pop\n        /* \"contracts/Test1.sol\":1365:1368  999 */\n      0x03e7\n        /* \"contracts/Test1.sol\":1358:1368  return 999 */\n      swap1\n      pop\n        /* \"contracts/Test1.sol\":1111:1375  function balanceOf(address walletAddress) public view returns(uint){... */\n    tag_59:\n      swap2\n      swap1\n      pop\n      jump\t// out\n        /* \"contracts/Test1.sol\":533:656  function addToInvestorMapping(address walletAddress, uint amount) public {... */\n    tag_41:\n        /* \"contracts/Test1.sol\":643:649  amount */\n      dup1\n        /* \"contracts/Test1.sol\":616:625  investors */\n      0x02\n        /* \"contracts/Test1.sol\":616:640  investors[walletAddress] */\n      0x00\n        /* \"contracts/Test1.sol\":626:639  walletAddress */\n      dup5\n        /* \"contracts/Test1.sol\":616:640  investors[walletAddress] */\n      0xffffffffffffffffffffffffffffffffffffffff\n      and\n      0xffffffffffffffffffffffffffffffffffffffff\n      and\n      dup2\n      mstore\n      0x20\n      add\n      swap1\n      dup2\n      mstore\n      0x20\n      add\n      0x00\n      keccak256\n        /* \"contracts/Test1.sol\":616:649  investors[walletAddress] = amount */\n      dup2\n      swap1\n      sstore\n      pop\n        /* \"contracts/Test1.sol\":533:656  function addToInvestorMapping(address walletAddress, uint amount) public {... */\n      pop\n      pop\n      jump\t// out\n        /* \"contracts/Test1.sol\":332:527  function addUser(address walletAddress, string memory name, uint amount) public {... */\n    tag_46:\n        /* \"contracts/Test1.sol\":422:427  users */\n      0x01\n        /* \"contracts/Test1.sol\":433:466  User(walletAddress, name, amount) */\n      mload(0x40)\n      dup1\n      0x60\n      add\n      0x40\n      mstore\n      dup1\n        /* \"contracts/Test1.sol\":438:451  walletAddress */\n      dup6\n        /* \"contracts/Test1.sol\":433:466  User(walletAddress, name, amount) */\n      0xffffffffffffffffffffffffffffffffffffffff\n      and\n      dup2\n      mstore\n      0x20\n      add\n        /* \"contracts/Test1.sol\":453:457  name */\n      dup5\n        /* \"contracts/Test1.sol\":433:466  User(walletAddress, name, amount) */\n      dup2\n      mstore\n      0x20\n      add\n        /* \"contracts/Test1.sol\":459:465  amount */\n      dup4\n        /* \"contracts/Test1.sol\":433:466  User(walletAddress, name, amount) */\n      dup2\n      mstore\n      pop\n        /* \"contracts/Test1.sol\":422:467  users.push(User(walletAddress, name, amount)) */\n      swap1\n      dup1\n      0x01\n      dup2\n      sload\n      add\n      dup1\n      dup3\n      sstore\n      dup1\n      swap2\n      pop\n      pop\n      0x01\n      swap1\n      sub\n      swap1\n      0x00\n      mstore\n      keccak256(0x00, 0x20)\n      swap1\n      0x03\n      mul\n      add\n      0x00\n      swap1\n      swap2\n      swap1\n      swap2\n      swap1\n      swap2\n      pop\n      0x00\n      dup3\n      add\n      mload\n      dup2\n      0x00\n      add\n      exp(0x0100, 0x00)\n      dup2\n      sload\n      dup2\n      0xffffffffffffffffffffffffffffffffffffffff\n      mul\n      not\n      and\n      swap1\n      dup4\n      0xffffffffffffffffffffffffffffffffffffffff\n      and\n      mul\n      or\n      swap1\n      sstore\n      pop\n      0x20\n      dup3\n      add\n      mload\n      dup2\n      0x01\n      add\n      swap1\n      dup1\n      mload\n      swap1\n      0x20\n      add\n      swap1\n      tag_76\n      swap3\n      swap2\n      swap1\n      tag_77\n      jump\t// in\n    tag_76:\n      pop\n      0x40\n      dup3\n      add\n      mload\n      dup2\n      0x02\n      add\n      sstore\n      pop\n      pop\n        /* \"contracts/Test1.sol\":477:520  addToInvestorMapping(walletAddress, amount) */\n      tag_78\n        /* \"contracts/Test1.sol\":498:511  walletAddress */\n      dup4\n        /* \"contracts/Test1.sol\":513:519  amount */\n      dup3\n        /* \"contracts/Test1.sol\":477:497  addToInvestorMapping */\n      tag_41\n        /* \"contracts/Test1.sol\":477:520  addToInvestorMapping(walletAddress, amount) */\n      jump\t// in\n    tag_78:\n        /* \"contracts/Test1.sol\":332:527  function addUser(address walletAddress, string memory name, uint amount) public {... */\n      pop\n      pop\n      pop\n      jump\t// out\n        /* \"contracts/Test1.sol\":865:1105  function transferToAddress(address walletAddress) private {... */\n    tag_49:\n        /* \"contracts/Test1.sol\":937:943  uint i */\n      0x00\n        /* \"contracts/Test1.sol\":933:1099  for(uint i = 0; i < users.length; i++){... */\n    tag_80:\n        /* \"contracts/Test1.sol\":953:958  users */\n      0x01\n        /* \"contracts/Test1.sol\":953:965  users.length */\n      dup1\n      sload\n      swap1\n      pop\n        /* \"contracts/Test1.sol\":949:950  i */\n      dup2\n        /* \"contracts/Test1.sol\":949:965  i < users.length */\n      lt\n        /* \"contracts/Test1.sol\":933:1099  for(uint i = 0; i < users.length; i++){... */\n      iszero\n      tag_81\n      jumpi\n        /* \"contracts/Test1.sol\":1014:1027  walletAddress */\n      dup2\n        /* \"contracts/Test1.sol\":988:1027  users[i].walletAddress == walletAddress */\n      0xffffffffffffffffffffffffffffffffffffffff\n      and\n        /* \"contracts/Test1.sol\":988:993  users */\n      0x01\n        /* \"contracts/Test1.sol\":994:995  i */\n      dup3\n        /* \"contracts/Test1.sol\":988:996  users[i] */\n      dup2\n      sload\n      dup2\n      lt\n      tag_83\n      jumpi\n      tag_84\n      tag_65\n      jump\t// in\n    tag_84:\n    tag_83:\n      swap1\n      0x00\n      mstore\n      keccak256(0x00, 0x20)\n      swap1\n      0x03\n      mul\n      add\n        /* \"contracts/Test1.sol\":988:1010  users[i].walletAddress */\n      0x00\n      add\n      0x00\n      swap1\n      sload\n      swap1\n      0x0100\n      exp\n      swap1\n      div\n      0xffffffffffffffffffffffffffffffffffffffff\n      and\n        /* \"contracts/Test1.sol\":988:1027  users[i].walletAddress == walletAddress */\n      0xffffffffffffffffffffffffffffffffffffffff\n      and\n      eq\n        /* \"contracts/Test1.sol\":985:1089  if(users[i].walletAddress == walletAddress){... */\n      iszero\n      tag_86\n      jumpi\n        /* \"contracts/Test1.sol\":1065:1074  msg.value */\n      callvalue\n        /* \"contracts/Test1.sol\":1046:1051  users */\n      0x01\n        /* \"contracts/Test1.sol\":1052:1053  i */\n      dup3\n        /* \"contracts/Test1.sol\":1046:1054  users[i] */\n      dup2\n      sload\n      dup2\n      lt\n      tag_87\n      jumpi\n      tag_88\n      tag_65\n      jump\t// in\n    tag_88:\n    tag_87:\n      swap1\n      0x00\n      mstore\n      keccak256(0x00, 0x20)\n      swap1\n      0x03\n      mul\n      add\n        /* \"contracts/Test1.sol\":1046:1061  users[i].amount */\n      0x02\n      add\n      0x00\n        /* \"contracts/Test1.sol\":1046:1074  users[i].amount += msg.value */\n      dup3\n      dup3\n      sload\n      tag_90\n      swap2\n      swap1\n      tag_91\n      jump\t// in\n    tag_90:\n      swap3\n      pop\n      pop\n      dup2\n      swap1\n      sstore\n      pop\n        /* \"contracts/Test1.sol\":985:1089  if(users[i].walletAddress == walletAddress){... */\n    tag_86:\n        /* \"contracts/Test1.sol\":967:970  i++ */\n      dup1\n      dup1\n      tag_92\n      swap1\n      tag_72\n      jump\t// in\n    tag_92:\n      swap2\n      pop\n      pop\n        /* \"contracts/Test1.sol\":933:1099  for(uint i = 0; i < users.length; i++){... */\n      jump(tag_80)\n    tag_81:\n      pop\n        /* \"contracts/Test1.sol\":865:1105  function transferToAddress(address walletAddress) private {... */\n      pop\n      jump\t// out\n    tag_77:\n      dup3\n      dup1\n      sload\n      tag_93\n      swap1\n      tag_53\n      jump\t// in\n    tag_93:\n      swap1\n      0x00\n      mstore\n      keccak256(0x00, 0x20)\n      swap1\n      0x1f\n      add\n      0x20\n      swap1\n      div\n      dup2\n      add\n      swap3\n      dup3\n      tag_95\n      jumpi\n      0x00\n      dup6\n      sstore\n      jump(tag_94)\n    tag_95:\n      dup3\n      0x1f\n      lt\n      tag_96\n      jumpi\n      dup1\n      mload\n      not(0xff)\n      and\n      dup4\n      dup1\n      add\n      or\n      dup6\n      sstore\n      jump(tag_94)\n    tag_96:\n      dup3\n      dup1\n      add\n      0x01\n      add\n      dup6\n      sstore\n      dup3\n      iszero\n      tag_94\n      jumpi\n      swap2\n      dup3\n      add\n    tag_97:\n      dup3\n      dup2\n      gt\n      iszero\n      tag_98\n      jumpi\n      dup3\n      mload\n      dup3\n      sstore\n      swap2\n      0x20\n      add\n      swap2\n      swap1\n      0x01\n      add\n      swap1\n      jump(tag_97)\n    tag_98:\n    tag_94:\n      pop\n      swap1\n      pop\n      tag_99\n      swap2\n      swap1\n      tag_100\n      jump\t// in\n    tag_99:\n      pop\n      swap1\n      jump\t// out\n    tag_100:\n    tag_101:\n      dup1\n      dup3\n      gt\n      iszero\n      tag_102\n      jumpi\n      0x00\n      dup2\n      0x00\n      swap1\n      sstore\n      pop\n      0x01\n      add\n      jump(tag_101)\n    tag_102:\n      pop\n      swap1\n      jump\t// out\n        /* \"#utility.yul\":7:419   */\n    tag_104:\n        /* \"#utility.yul\":85:90   */\n      0x00\n        /* \"#utility.yul\":110:176   */\n      tag_106\n        /* \"#utility.yul\":126:175   */\n      tag_107\n        /* \"#utility.yul\":168:174   */\n      dup5\n        /* \"#utility.yul\":126:175   */\n      tag_108\n      jump\t// in\n    tag_107:\n        /* \"#utility.yul\":110:176   */\n      tag_109\n      jump\t// in\n    tag_106:\n        /* \"#utility.yul\":101:176   */\n      swap1\n      pop\n        /* \"#utility.yul\":199:205   */\n      dup3\n        /* \"#utility.yul\":192:197   */\n      dup2\n        /* \"#utility.yul\":185:206   */\n      mstore\n        /* \"#utility.yul\":237:241   */\n      0x20\n        /* \"#utility.yul\":230:235   */\n      dup2\n        /* \"#utility.yul\":226:242   */\n      add\n        /* \"#utility.yul\":275:278   */\n      dup5\n        /* \"#utility.yul\":266:272   */\n      dup5\n        /* \"#utility.yul\":261:264   */\n      dup5\n        /* \"#utility.yul\":257:273   */\n      add\n        /* \"#utility.yul\":254:279   */\n      gt\n        /* \"#utility.yul\":251:363   */\n      iszero\n      tag_110\n      jumpi\n        /* \"#utility.yul\":282:361   */\n      tag_111\n      tag_112\n      jump\t// in\n    tag_111:\n        /* \"#utility.yul\":251:363   */\n    tag_110:\n        /* \"#utility.yul\":372:413   */\n      tag_113\n        /* \"#utility.yul\":406:412   */\n      dup5\n        /* \"#utility.yul\":401:404   */\n      dup3\n        /* \"#utility.yul\":396:399   */\n      dup6\n        /* \"#utility.yul\":372:413   */\n      tag_114\n      jump\t// in\n    tag_113:\n        /* \"#utility.yul\":91:419   */\n      pop\n        /* \"#utility.yul\":7:419   */\n      swap4\n      swap3\n      pop\n      pop\n      pop\n      jump\t// out\n        /* \"#utility.yul\":425:564   */\n    tag_115:\n        /* \"#utility.yul\":471:476   */\n      0x00\n        /* \"#utility.yul\":509:515   */\n      dup2\n        /* \"#utility.yul\":496:516   */\n      calldataload\n        /* \"#utility.yul\":487:516   */\n      swap1\n      pop\n        /* \"#utility.yul\":525:558   */\n      tag_117\n        /* \"#utility.yul\":552:557   */\n      dup2\n        /* \"#utility.yul\":525:558   */\n      tag_118\n      jump\t// in\n    tag_117:\n        /* \"#utility.yul\":425:564   */\n      swap3\n      swap2\n      pop\n      pop\n      jump\t// out\n        /* \"#utility.yul\":584:924   */\n    tag_119:\n        /* \"#utility.yul\":640:645   */\n      0x00\n        /* \"#utility.yul\":689:692   */\n      dup3\n        /* \"#utility.yul\":682:686   */\n      0x1f\n        /* \"#utility.yul\":674:680   */\n      dup4\n        /* \"#utility.yul\":670:687   */\n      add\n        /* \"#utility.yul\":666:693   */\n      slt\n        /* \"#utility.yul\":656:778   */\n      tag_121\n      jumpi\n        /* \"#utility.yul\":697:776   */\n      tag_122\n      tag_123\n      jump\t// in\n    tag_122:\n        /* \"#utility.yul\":656:778   */\n    tag_121:\n        /* \"#utility.yul\":814:820   */\n      dup2\n        /* \"#utility.yul\":801:821   */\n      calldataload\n        /* \"#utility.yul\":839:918   */\n      tag_124\n        /* \"#utility.yul\":914:917   */\n      dup5\n        /* \"#utility.yul\":906:912   */\n      dup3\n        /* \"#utility.yul\":899:903   */\n      0x20\n        /* \"#utility.yul\":891:897   */\n      dup7\n        /* \"#utility.yul\":887:904   */\n      add\n        /* \"#utility.yul\":839:918   */\n      tag_104\n      jump\t// in\n    tag_124:\n        /* \"#utility.yul\":830:918   */\n      swap2\n      pop\n        /* \"#utility.yul\":646:924   */\n      pop\n        /* \"#utility.yul\":584:924   */\n      swap3\n      swap2\n      pop\n      pop\n      jump\t// out\n        /* \"#utility.yul\":930:1069   */\n    tag_125:\n        /* \"#utility.yul\":976:981   */\n      0x00\n        /* \"#utility.yul\":1014:1020   */\n      dup2\n        /* \"#utility.yul\":1001:1021   */\n      calldataload\n        /* \"#utility.yul\":992:1021   */\n      swap1\n      pop\n        /* \"#utility.yul\":1030:1063   */\n      tag_127\n        /* \"#utility.yul\":1057:1062   */\n      dup2\n        /* \"#utility.yul\":1030:1063   */\n      tag_128\n      jump\t// in\n    tag_127:\n        /* \"#utility.yul\":930:1069   */\n      swap3\n      swap2\n      pop\n      pop\n      jump\t// out\n        /* \"#utility.yul\":1075:1404   */\n    tag_12:\n        /* \"#utility.yul\":1134:1140   */\n      0x00\n        /* \"#utility.yul\":1183:1185   */\n      0x20\n        /* \"#utility.yul\":1171:1180   */\n      dup3\n        /* \"#utility.yul\":1162:1169   */\n      dup5\n        /* \"#utility.yul\":1158:1181   */\n      sub\n        /* \"#utility.yul\":1154:1186   */\n      slt\n        /* \"#utility.yul\":1151:1270   */\n      iszero\n      tag_130\n      jumpi\n        /* \"#utility.yul\":1189:1268   */\n      tag_131\n      tag_132\n      jump\t// in\n    tag_131:\n        /* \"#utility.yul\":1151:1270   */\n    tag_130:\n        /* \"#utility.yul\":1309:1310   */\n      0x00\n        /* \"#utility.yul\":1334:1387   */\n      tag_133\n        /* \"#utility.yul\":1379:1386   */\n      dup5\n        /* \"#utility.yul\":1370:1376   */\n      dup3\n        /* \"#utility.yul\":1359:1368   */\n      dup6\n        /* \"#utility.yul\":1355:1377   */\n      add\n        /* \"#utility.yul\":1334:1387   */\n      tag_115\n      jump\t// in\n    tag_133:\n        /* \"#utility.yul\":1324:1387   */\n      swap2\n      pop\n        /* \"#utility.yul\":1280:1397   */\n      pop\n        /* \"#utility.yul\":1075:1404   */\n      swap3\n      swap2\n      pop\n      pop\n      jump\t// out\n        /* \"#utility.yul\":1410:2209   */\n    tag_45:\n        /* \"#utility.yul\":1497:1503   */\n      0x00\n        /* \"#utility.yul\":1505:1511   */\n      dup1\n        /* \"#utility.yul\":1513:1519   */\n      0x00\n        /* \"#utility.yul\":1562:1564   */\n      0x60\n        /* \"#utility.yul\":1550:1559   */\n      dup5\n        /* \"#utility.yul\":1541:1548   */\n      dup7\n        /* \"#utility.yul\":1537:1560   */\n      sub\n        /* \"#utility.yul\":1533:1565   */\n      slt\n        /* \"#utility.yul\":1530:1649   */\n      iszero\n      tag_135\n      jumpi\n        /* \"#utility.yul\":1568:1647   */\n      tag_136\n      tag_132\n      jump\t// in\n    tag_136:\n        /* \"#utility.yul\":1530:1649   */\n    tag_135:\n        /* \"#utility.yul\":1688:1689   */\n      0x00\n        /* \"#utility.yul\":1713:1766   */\n      tag_137\n        /* \"#utility.yul\":1758:1765   */\n      dup7\n        /* \"#utility.yul\":1749:1755   */\n      dup3\n        /* \"#utility.yul\":1738:1747   */\n      dup8\n        /* \"#utility.yul\":1734:1756   */\n      add\n        /* \"#utility.yul\":1713:1766   */\n      tag_115\n      jump\t// in\n    tag_137:\n        /* \"#utility.yul\":1703:1766   */\n      swap4\n      pop\n        /* \"#utility.yul\":1659:1776   */\n      pop\n        /* \"#utility.yul\":1843:1845   */\n      0x20\n        /* \"#utility.yul\":1832:1841   */\n      dup5\n        /* \"#utility.yul\":1828:1846   */\n      add\n        /* \"#utility.yul\":1815:1847   */\n      calldataload\n        /* \"#utility.yul\":1874:1892   */\n      0xffffffffffffffff\n        /* \"#utility.yul\":1866:1872   */\n      dup2\n        /* \"#utility.yul\":1863:1893   */\n      gt\n        /* \"#utility.yul\":1860:1977   */\n      iszero\n      tag_138\n      jumpi\n        /* \"#utility.yul\":1896:1975   */\n      tag_139\n      tag_140\n      jump\t// in\n    tag_139:\n        /* \"#utility.yul\":1860:1977   */\n    tag_138:\n        /* \"#utility.yul\":2001:2064   */\n      tag_141\n        /* \"#utility.yul\":2056:2063   */\n      dup7\n        /* \"#utility.yul\":2047:2053   */\n      dup3\n        /* \"#utility.yul\":2036:2045   */\n      dup8\n        /* \"#utility.yul\":2032:2054   */\n      add\n        /* \"#utility.yul\":2001:2064   */\n      tag_119\n      jump\t// in\n    tag_141:\n        /* \"#utility.yul\":1991:2064   */\n      swap3\n      pop\n        /* \"#utility.yul\":1786:2074   */\n      pop\n        /* \"#utility.yul\":2113:2115   */\n      0x40\n        /* \"#utility.yul\":2139:2192   */\n      tag_142\n        /* \"#utility.yul\":2184:2191   */\n      dup7\n        /* \"#utility.yul\":2175:2181   */\n      dup3\n        /* \"#utility.yul\":2164:2173   */\n      dup8\n        /* \"#utility.yul\":2160:2182   */\n      add\n        /* \"#utility.yul\":2139:2192   */\n      tag_125\n      jump\t// in\n    tag_142:\n        /* \"#utility.yul\":2129:2192   */\n      swap2\n      pop\n        /* \"#utility.yul\":2084:2202   */\n      pop\n        /* \"#utility.yul\":1410:2209   */\n      swap3\n      pop\n      swap3\n      pop\n      swap3\n      jump\t// out\n        /* \"#utility.yul\":2215:2689   */\n    tag_40:\n        /* \"#utility.yul\":2283:2289   */\n      0x00\n        /* \"#utility.yul\":2291:2297   */\n      dup1\n        /* \"#utility.yul\":2340:2342   */\n      0x40\n        /* \"#utility.yul\":2328:2337   */\n      dup4\n        /* \"#utility.yul\":2319:2326   */\n      dup6\n        /* \"#utility.yul\":2315:2338   */\n      sub\n        /* \"#utility.yul\":2311:2343   */\n      slt\n        /* \"#utility.yul\":2308:2427   */\n      iszero\n      tag_144\n      jumpi\n        /* \"#utility.yul\":2346:2425   */\n      tag_145\n      tag_132\n      jump\t// in\n    tag_145:\n        /* \"#utility.yul\":2308:2427   */\n    tag_144:\n        /* \"#utility.yul\":2466:2467   */\n      0x00\n        /* \"#utility.yul\":2491:2544   */\n      tag_146\n        /* \"#utility.yul\":2536:2543   */\n      dup6\n        /* \"#utility.yul\":2527:2533   */\n      dup3\n        /* \"#utility.yul\":2516:2525   */\n      dup7\n        /* \"#utility.yul\":2512:2534   */\n      add\n        /* \"#utility.yul\":2491:2544   */\n      tag_115\n      jump\t// in\n    tag_146:\n        /* \"#utility.yul\":2481:2544   */\n      swap3\n      pop\n        /* \"#utility.yul\":2437:2554   */\n      pop\n        /* \"#utility.yul\":2593:2595   */\n      0x20\n        /* \"#utility.yul\":2619:2672   */\n      tag_147\n        /* \"#utility.yul\":2664:2671   */\n      dup6\n        /* \"#utility.yul\":2655:2661   */\n      dup3\n        /* \"#utility.yul\":2644:2653   */\n      dup7\n        /* \"#utility.yul\":2640:2662   */\n      add\n        /* \"#utility.yul\":2619:2672   */\n      tag_125\n      jump\t// in\n    tag_147:\n        /* \"#utility.yul\":2609:2672   */\n      swap2\n      pop\n        /* \"#utility.yul\":2564:2682   */\n      pop\n        /* \"#utility.yul\":2215:2689   */\n      swap3\n      pop\n      swap3\n      swap1\n      pop\n      jump\t// out\n        /* \"#utility.yul\":2695:3024   */\n    tag_17:\n        /* \"#utility.yul\":2754:2760   */\n      0x00\n        /* \"#utility.yul\":2803:2805   */\n      0x20\n        /* \"#utility.yul\":2791:2800   */\n      dup3\n        /* \"#utility.yul\":2782:2789   */\n      dup5\n        /* \"#utility.yul\":2778:2801   */\n      sub\n        /* \"#utility.yul\":2774:2806   */\n      slt\n        /* \"#utility.yul\":2771:2890   */\n      iszero\n      tag_149\n      jumpi\n        /* \"#utility.yul\":2809:2888   */\n      tag_150\n      tag_132\n      jump\t// in\n    tag_150:\n        /* \"#utility.yul\":2771:2890   */\n    tag_149:\n        /* \"#utility.yul\":2929:2930   */\n      0x00\n        /* \"#utility.yul\":2954:3007   */\n      tag_151\n        /* \"#utility.yul\":2999:3006   */\n      dup5\n        /* \"#utility.yul\":2990:2996   */\n      dup3\n        /* \"#utility.yul\":2979:2988   */\n      dup6\n        /* \"#utility.yul\":2975:2997   */\n      add\n        /* \"#utility.yul\":2954:3007   */\n      tag_125\n      jump\t// in\n    tag_151:\n        /* \"#utility.yul\":2944:3007   */\n      swap2\n      pop\n        /* \"#utility.yul\":2900:3017   */\n      pop\n        /* \"#utility.yul\":2695:3024   */\n      swap3\n      swap2\n      pop\n      pop\n      jump\t// out\n        /* \"#utility.yul\":3030:3148   */\n    tag_152:\n        /* \"#utility.yul\":3117:3141   */\n      tag_154\n        /* \"#utility.yul\":3135:3140   */\n      dup2\n        /* \"#utility.yul\":3117:3141   */\n      tag_155\n      jump\t// in\n    tag_154:\n        /* \"#utility.yul\":3112:3115   */\n      dup3\n        /* \"#utility.yul\":3105:3142   */\n      mstore\n        /* \"#utility.yul\":3030:3148   */\n      pop\n      pop\n      jump\t// out\n        /* \"#utility.yul\":3154:3518   */\n    tag_156:\n        /* \"#utility.yul\":3242:3245   */\n      0x00\n        /* \"#utility.yul\":3270:3309   */\n      tag_158\n        /* \"#utility.yul\":3303:3308   */\n      dup3\n        /* \"#utility.yul\":3270:3309   */\n      tag_159\n      jump\t// in\n    tag_158:\n        /* \"#utility.yul\":3325:3396   */\n      tag_160\n        /* \"#utility.yul\":3389:3395   */\n      dup2\n        /* \"#utility.yul\":3384:3387   */\n      dup6\n        /* \"#utility.yul\":3325:3396   */\n      tag_161\n      jump\t// in\n    tag_160:\n        /* \"#utility.yul\":3318:3396   */\n      swap4\n      pop\n        /* \"#utility.yul\":3405:3457   */\n      tag_162\n        /* \"#utility.yul\":3450:3456   */\n      dup2\n        /* \"#utility.yul\":3445:3448   */\n      dup6\n        /* \"#utility.yul\":3438:3442   */\n      0x20\n        /* \"#utility.yul\":3431:3436   */\n      dup7\n        /* \"#utility.yul\":3427:3443   */\n      add\n        /* \"#utility.yul\":3405:3457   */\n      tag_163\n      jump\t// in\n    tag_162:\n        /* \"#utility.yul\":3482:3511   */\n      tag_164\n        /* \"#utility.yul\":3504:3510   */\n      dup2\n        /* \"#utility.yul\":3482:3511   */\n      tag_165\n      jump\t// in\n    tag_164:\n        /* \"#utility.yul\":3477:3480   */\n      dup5\n        /* \"#utility.yul\":3473:3512   */\n      add\n        /* \"#utility.yul\":3466:3512   */\n      swap2\n      pop\n        /* \"#utility.yul\":3246:3518   */\n      pop\n        /* \"#utility.yul\":3154:3518   */\n      swap3\n      swap2\n      pop\n      pop\n      jump\t// out\n        /* \"#utility.yul\":3524:3642   */\n    tag_166:\n        /* \"#utility.yul\":3611:3635   */\n      tag_168\n        /* \"#utility.yul\":3629:3634   */\n      dup2\n        /* \"#utility.yul\":3611:3635   */\n      tag_169\n      jump\t// in\n    tag_168:\n        /* \"#utility.yul\":3606:3609   */\n      dup3\n        /* \"#utility.yul\":3599:3636   */\n      mstore\n        /* \"#utility.yul\":3524:3642   */\n      pop\n      pop\n      jump\t// out\n        /* \"#utility.yul\":3648:4181   */\n    tag_20:\n        /* \"#utility.yul\":3817:3821   */\n      0x00\n        /* \"#utility.yul\":3855:3857   */\n      0x60\n        /* \"#utility.yul\":3844:3853   */\n      dup3\n        /* \"#utility.yul\":3840:3858   */\n      add\n        /* \"#utility.yul\":3832:3858   */\n      swap1\n      pop\n        /* \"#utility.yul\":3868:3939   */\n      tag_171\n        /* \"#utility.yul\":3936:3937   */\n      0x00\n        /* \"#utility.yul\":3925:3934   */\n      dup4\n        /* \"#utility.yul\":3921:3938   */\n      add\n        /* \"#utility.yul\":3912:3918   */\n      dup7\n        /* \"#utility.yul\":3868:3939   */\n      tag_152\n      jump\t// in\n    tag_171:\n        /* \"#utility.yul\":3986:3995   */\n      dup2\n        /* \"#utility.yul\":3980:3984   */\n      dup2\n        /* \"#utility.yul\":3976:3996   */\n      sub\n        /* \"#utility.yul\":3971:3973   */\n      0x20\n        /* \"#utility.yul\":3960:3969   */\n      dup4\n        /* \"#utility.yul\":3956:3974   */\n      add\n        /* \"#utility.yul\":3949:3997   */\n      mstore\n        /* \"#utility.yul\":4014:4092   */\n      tag_172\n        /* \"#utility.yul\":4087:4091   */\n      dup2\n        /* \"#utility.yul\":4078:4084   */\n      dup6\n        /* \"#utility.yul\":4014:4092   */\n      tag_156\n      jump\t// in\n    tag_172:\n        /* \"#utility.yul\":4006:4092   */\n      swap1\n      pop\n        /* \"#utility.yul\":4102:4174   */\n      tag_173\n        /* \"#utility.yul\":4170:4172   */\n      0x40\n        /* \"#utility.yul\":4159:4168   */\n      dup4\n        /* \"#utility.yul\":4155:4173   */\n      add\n        /* \"#utility.yul\":4146:4152   */\n      dup5\n        /* \"#utility.yul\":4102:4174   */\n      tag_166\n      jump\t// in\n    tag_173:\n        /* \"#utility.yul\":3648:4181   */\n      swap5\n      swap4\n      pop\n      pop\n      pop\n      pop\n      jump\t// out\n        /* \"#utility.yul\":4187:4409   */\n    tag_26:\n        /* \"#utility.yul\":4280:4284   */\n      0x00\n        /* \"#utility.yul\":4318:4320   */\n      0x20\n        /* \"#utility.yul\":4307:4316   */\n      dup3\n        /* \"#utility.yul\":4303:4321   */\n      add\n        /* \"#utility.yul\":4295:4321   */\n      swap1\n      pop\n        /* \"#utility.yul\":4331:4402   */\n      tag_175\n        /* \"#utility.yul\":4399:4400   */\n      0x00\n        /* \"#utility.yul\":4388:4397   */\n      dup4\n        /* \"#utility.yul\":4384:4401   */\n      add\n        /* \"#utility.yul\":4375:4381   */\n      dup5\n        /* \"#utility.yul\":4331:4402   */\n      tag_166\n      jump\t// in\n    tag_175:\n        /* \"#utility.yul\":4187:4409   */\n      swap3\n      swap2\n      pop\n      pop\n      jump\t// out\n        /* \"#utility.yul\":4415:4544   */\n    tag_109:\n        /* \"#utility.yul\":4449:4455   */\n      0x00\n        /* \"#utility.yul\":4476:4496   */\n      tag_177\n      tag_178\n      jump\t// in\n    tag_177:\n        /* \"#utility.yul\":4466:4496   */\n      swap1\n      pop\n        /* \"#utility.yul\":4505:4538   */\n      tag_179\n        /* \"#utility.yul\":4533:4537   */\n      dup3\n        /* \"#utility.yul\":4525:4531   */\n      dup3\n        /* \"#utility.yul\":4505:4538   */\n      tag_180\n      jump\t// in\n    tag_179:\n        /* \"#utility.yul\":4415:4544   */\n      swap2\n      swap1\n      pop\n      jump\t// out\n        /* \"#utility.yul\":4550:4625   */\n    tag_178:\n        /* \"#utility.yul\":4583:4589   */\n      0x00\n        /* \"#utility.yul\":4616:4618   */\n      0x40\n        /* \"#utility.yul\":4610:4619   */\n      mload\n        /* \"#utility.yul\":4600:4619   */\n      swap1\n      pop\n        /* \"#utility.yul\":4550:4625   */\n      swap1\n      jump\t// out\n        /* \"#utility.yul\":4631:4939   */\n    tag_108:\n        /* \"#utility.yul\":4693:4697   */\n      0x00\n        /* \"#utility.yul\":4783:4801   */\n      0xffffffffffffffff\n        /* \"#utility.yul\":4775:4781   */\n      dup3\n        /* \"#utility.yul\":4772:4802   */\n      gt\n        /* \"#utility.yul\":4769:4825   */\n      iszero\n      tag_183\n      jumpi\n        /* \"#utility.yul\":4805:4823   */\n      tag_184\n      tag_185\n      jump\t// in\n    tag_184:\n        /* \"#utility.yul\":4769:4825   */\n    tag_183:\n        /* \"#utility.yul\":4843:4872   */\n      tag_186\n        /* \"#utility.yul\":4865:4871   */\n      dup3\n        /* \"#utility.yul\":4843:4872   */\n      tag_165\n      jump\t// in\n    tag_186:\n        /* \"#utility.yul\":4835:4872   */\n      swap1\n      pop\n        /* \"#utility.yul\":4927:4931   */\n      0x20\n        /* \"#utility.yul\":4921:4925   */\n      dup2\n        /* \"#utility.yul\":4917:4932   */\n      add\n        /* \"#utility.yul\":4909:4932   */\n      swap1\n      pop\n        /* \"#utility.yul\":4631:4939   */\n      swap2\n      swap1\n      pop\n      jump\t// out\n        /* \"#utility.yul\":4945:5044   */\n    tag_159:\n        /* \"#utility.yul\":4997:5003   */\n      0x00\n        /* \"#utility.yul\":5031:5036   */\n      dup2\n        /* \"#utility.yul\":5025:5037   */\n      mload\n        /* \"#utility.yul\":5015:5037   */\n      swap1\n      pop\n        /* \"#utility.yul\":4945:5044   */\n      swap2\n      swap1\n      pop\n      jump\t// out\n        /* \"#utility.yul\":5050:5219   */\n    tag_161:\n        /* \"#utility.yul\":5134:5145   */\n      0x00\n        /* \"#utility.yul\":5168:5174   */\n      dup3\n        /* \"#utility.yul\":5163:5166   */\n      dup3\n        /* \"#utility.yul\":5156:5175   */\n      mstore\n        /* \"#utility.yul\":5208:5212   */\n      0x20\n        /* \"#utility.yul\":5203:5206   */\n      dup3\n        /* \"#utility.yul\":5199:5213   */\n      add\n        /* \"#utility.yul\":5184:5213   */\n      swap1\n      pop\n        /* \"#utility.yul\":5050:5219   */\n      swap3\n      swap2\n      pop\n      pop\n      jump\t// out\n        /* \"#utility.yul\":5225:5530   */\n    tag_91:\n        /* \"#utility.yul\":5265:5268   */\n      0x00\n        /* \"#utility.yul\":5284:5304   */\n      tag_190\n        /* \"#utility.yul\":5302:5303   */\n      dup3\n        /* \"#utility.yul\":5284:5304   */\n      tag_169\n      jump\t// in\n    tag_190:\n        /* \"#utility.yul\":5279:5304   */\n      swap2\n      pop\n        /* \"#utility.yul\":5318:5338   */\n      tag_191\n        /* \"#utility.yul\":5336:5337   */\n      dup4\n        /* \"#utility.yul\":5318:5338   */\n      tag_169\n      jump\t// in\n    tag_191:\n        /* \"#utility.yul\":5313:5338   */\n      swap3\n      pop\n        /* \"#utility.yul\":5472:5473   */\n      dup3\n        /* \"#utility.yul\":5404:5470   */\n      0xffffffffffffffffffffffffffffffffffffffffffffffffffffffffffffffff\n        /* \"#utility.yul\":5400:5474   */\n      sub\n        /* \"#utility.yul\":5397:5398   */\n      dup3\n        /* \"#utility.yul\":5394:5475   */\n      gt\n        /* \"#utility.yul\":5391:5498   */\n      iszero\n      tag_192\n      jumpi\n        /* \"#utility.yul\":5478:5496   */\n      tag_193\n      tag_194\n      jump\t// in\n    tag_193:\n        /* \"#utility.yul\":5391:5498   */\n    tag_192:\n        /* \"#utility.yul\":5522:5523   */\n      dup3\n        /* \"#utility.yul\":5519:5520   */\n      dup3\n        /* \"#utility.yul\":5515:5524   */\n      add\n        /* \"#utility.yul\":5508:5524   */\n      swap1\n      pop\n        /* \"#utility.yul\":5225:5530   */\n      swap3\n      swap2\n      pop\n      pop\n      jump\t// out\n        /* \"#utility.yul\":5536:5632   */\n    tag_155:\n        /* \"#utility.yul\":5573:5580   */\n      0x00\n        /* \"#utility.yul\":5602:5626   */\n      tag_196\n        /* \"#utility.yul\":5620:5625   */\n      dup3\n        /* \"#utility.yul\":5602:5626   */\n      tag_197\n      jump\t// in\n    tag_196:\n        /* \"#utility.yul\":5591:5626   */\n      swap1\n      pop\n        /* \"#utility.yul\":5536:5632   */\n      swap2\n      swap1\n      pop\n      jump\t// out\n        /* \"#utility.yul\":5638:5764   */\n    tag_197:\n        /* \"#utility.yul\":5675:5682   */\n      0x00\n        /* \"#utility.yul\":5715:5757   */\n      0xffffffffffffffffffffffffffffffffffffffff\n        /* \"#utility.yul\":5708:5713   */\n      dup3\n        /* \"#utility.yul\":5704:5758   */\n      and\n        /* \"#utility.yul\":5693:5758   */\n      swap1\n      pop\n        /* \"#utility.yul\":5638:5764   */\n      swap2\n      swap1\n      pop\n      jump\t// out\n        /* \"#utility.yul\":5770:5847   */\n    tag_169:\n        /* \"#utility.yul\":5807:5814   */\n      0x00\n        /* \"#utility.yul\":5836:5841   */\n      dup2\n        /* \"#utility.yul\":5825:5841   */\n      swap1\n      pop\n        /* \"#utility.yul\":5770:5847   */\n      swap2\n      swap1\n      pop\n      jump\t// out\n        /* \"#utility.yul\":5853:6007   */\n    tag_114:\n        /* \"#utility.yul\":5937:5943   */\n      dup3\n        /* \"#utility.yul\":5932:5935   */\n      dup2\n        /* \"#utility.yul\":5927:5930   */\n      dup4\n        /* \"#utility.yul\":5914:5944   */\n      calldatacopy\n        /* \"#utility.yul\":5999:6000   */\n      0x00\n        /* \"#utility.yul\":5990:5996   */\n      dup4\n        /* \"#utility.yul\":5985:5988   */\n      dup4\n        /* \"#utility.yul\":5981:5997   */\n      add\n        /* \"#utility.yul\":5974:6001   */\n      mstore\n        /* \"#utility.yul\":5853:6007   */\n      pop\n      pop\n      pop\n      jump\t// out\n        /* \"#utility.yul\":6013:6320   */\n    tag_163:\n        /* \"#utility.yul\":6081:6082   */\n      0x00\n        /* \"#utility.yul\":6091:6204   */\n    tag_202:\n        /* \"#utility.yul\":6105:6111   */\n      dup4\n        /* \"#utility.yul\":6102:6103   */\n      dup2\n        /* \"#utility.yul\":6099:6112   */\n      lt\n        /* \"#utility.yul\":6091:6204   */\n      iszero\n      tag_204\n      jumpi\n        /* \"#utility.yul\":6190:6191   */\n      dup1\n        /* \"#utility.yul\":6185:6188   */\n      dup3\n        /* \"#utility.yul\":6181:6192   */\n      add\n        /* \"#utility.yul\":6175:6193   */\n      mload\n        /* \"#utility.yul\":6171:6172   */\n      dup2\n        /* \"#utility.yul\":6166:6169   */\n      dup5\n        /* \"#utility.yul\":6162:6173   */\n      add\n        /* \"#utility.yul\":6155:6194   */\n      mstore\n        /* \"#utility.yul\":6127:6129   */\n      0x20\n        /* \"#utility.yul\":6124:6125   */\n      dup2\n        /* \"#utility.yul\":6120:6130   */\n      add\n        /* \"#utility.yul\":6115:6130   */\n      swap1\n      pop\n        /* \"#utility.yul\":6091:6204   */\n      jump(tag_202)\n    tag_204:\n        /* \"#utility.yul\":6222:6228   */\n      dup4\n        /* \"#utility.yul\":6219:6220   */\n      dup2\n        /* \"#utility.yul\":6216:6229   */\n      gt\n        /* \"#utility.yul\":6213:6314   */\n      iszero\n      tag_205\n      jumpi\n        /* \"#utility.yul\":6302:6303   */\n      0x00\n        /* \"#utility.yul\":6293:6299   */\n      dup5\n        /* \"#utility.yul\":6288:6291   */\n      dup5\n        /* \"#utility.yul\":6284:6300   */\n      add\n        /* \"#utility.yul\":6277:6304   */\n      mstore\n        /* \"#utility.yul\":6213:6314   */\n    tag_205:\n        /* \"#utility.yul\":6062:6320   */\n      pop\n        /* \"#utility.yul\":6013:6320   */\n      pop\n      pop\n      pop\n      jump\t// out\n        /* \"#utility.yul\":6326:6646   */\n    tag_53:\n        /* \"#utility.yul\":6370:6376   */\n      0x00\n        /* \"#utility.yul\":6407:6408   */\n      0x02\n        /* \"#utility.yul\":6401:6405   */\n      dup3\n        /* \"#utility.yul\":6397:6409   */\n      div\n        /* \"#utility.yul\":6387:6409   */\n      swap1\n      pop\n        /* \"#utility.yul\":6454:6455   */\n      0x01\n        /* \"#utility.yul\":6448:6452   */\n      dup3\n        /* \"#utility.yul\":6444:6456   */\n      and\n        /* \"#utility.yul\":6475:6493   */\n      dup1\n        /* \"#utility.yul\":6465:6546   */\n      tag_207\n      jumpi\n        /* \"#utility.yul\":6531:6535   */\n      0x7f\n        /* \"#utility.yul\":6523:6529   */\n      dup3\n        /* \"#utility.yul\":6519:6536   */\n      and\n        /* \"#utility.yul\":6509:6536   */\n      swap2\n      pop\n        /* \"#utility.yul\":6465:6546   */\n    tag_207:\n        /* \"#utility.yul\":6593:6595   */\n      0x20\n        /* \"#utility.yul\":6585:6591   */\n      dup3\n        /* \"#utility.yul\":6582:6596   */\n      lt\n        /* \"#utility.yul\":6562:6580   */\n      dup2\n        /* \"#utility.yul\":6559:6597   */\n      eq\n        /* \"#utility.yul\":6556:6640   */\n      iszero\n      tag_208\n      jumpi\n        /* \"#utility.yul\":6612:6630   */\n      tag_209\n      tag_210\n      jump\t// in\n    tag_209:\n        /* \"#utility.yul\":6556:6640   */\n    tag_208:\n        /* \"#utility.yul\":6377:6646   */\n      pop\n        /* \"#utility.yul\":6326:6646   */\n      swap2\n      swap1\n      pop\n      jump\t// out\n        /* \"#utility.yul\":6652:6933   */\n    tag_180:\n        /* \"#utility.yul\":6735:6762   */\n      tag_212\n        /* \"#utility.yul\":6757:6761   */\n      dup3\n        /* \"#utility.yul\":6735:6762   */\n      tag_165\n      jump\t// in\n    tag_212:\n        /* \"#utility.yul\":6727:6733   */\n      dup2\n        /* \"#utility.yul\":6723:6763   */\n      add\n        /* \"#utility.yul\":6865:6871   */\n      dup2\n        /* \"#utility.yul\":6853:6863   */\n      dup2\n        /* \"#utility.yul\":6850:6872   */\n      lt\n        /* \"#utility.yul\":6829:6847   */\n      0xffffffffffffffff\n        /* \"#utility.yul\":6817:6827   */\n      dup3\n        /* \"#utility.yul\":6814:6848   */\n      gt\n        /* \"#utility.yul\":6811:6873   */\n      or\n        /* \"#utility.yul\":6808:6896   */\n      iszero\n      tag_213\n      jumpi\n        /* \"#utility.yul\":6876:6894   */\n      tag_214\n      tag_185\n      jump\t// in\n    tag_214:\n        /* \"#utility.yul\":6808:6896   */\n    tag_213:\n        /* \"#utility.yul\":6916:6926   */\n      dup1\n        /* \"#utility.yul\":6912:6914   */\n      0x40\n        /* \"#utility.yul\":6905:6927   */\n      mstore\n        /* \"#utility.yul\":6695:6933   */\n      pop\n        /* \"#utility.yul\":6652:6933   */\n      pop\n      pop\n      jump\t// out\n        /* \"#utility.yul\":6939:7172   */\n    tag_72:\n        /* \"#utility.yul\":6978:6981   */\n      0x00\n        /* \"#utility.yul\":7001:7025   */\n      tag_216\n        /* \"#utility.yul\":7019:7024   */\n      dup3\n        /* \"#utility.yul\":7001:7025   */\n      tag_169\n      jump\t// in\n    tag_216:\n        /* \"#utility.yul\":6992:7025   */\n      swap2\n      pop\n        /* \"#utility.yul\":7047:7113   */\n      0xffffffffffffffffffffffffffffffffffffffffffffffffffffffffffffffff\n        /* \"#utility.yul\":7040:7045   */\n      dup3\n        /* \"#utility.yul\":7037:7114   */\n      eq\n        /* \"#utility.yul\":7034:7137   */\n      iszero\n      tag_217\n      jumpi\n        /* \"#utility.yul\":7117:7135   */\n      tag_218\n      tag_194\n      jump\t// in\n    tag_218:\n        /* \"#utility.yul\":7034:7137   */\n    tag_217:\n        /* \"#utility.yul\":7164:7165   */\n      0x01\n        /* \"#utility.yul\":7157:7162   */\n      dup3\n        /* \"#utility.yul\":7153:7166   */\n      add\n        /* \"#utility.yul\":7146:7166   */\n      swap1\n      pop\n        /* \"#utility.yul\":6939:7172   */\n      swap2\n      swap1\n      pop\n      jump\t// out\n        /* \"#utility.yul\":7178:7358   */\n    tag_194:\n        /* \"#utility.yul\":7226:7303   */\n      0x4e487b7100000000000000000000000000000000000000000000000000000000\n        /* \"#utility.yul\":7223:7224   */\n      0x00\n        /* \"#utility.yul\":7216:7304   */\n      mstore\n        /* \"#utility.yul\":7323:7327   */\n      0x11\n        /* \"#utility.yul\":7320:7321   */\n      0x04\n        /* \"#utility.yul\":7313:7328   */\n      mstore\n        /* \"#utility.yul\":7347:7351   */\n      0x24\n        /* \"#utility.yul\":7344:7345   */\n      0x00\n        /* \"#utility.yul\":7337:7352   */\n      revert\n        /* \"#utility.yul\":7364:7544   */\n    tag_210:\n        /* \"#utility.yul\":7412:7489   */\n      0x4e487b7100000000000000000000000000000000000000000000000000000000\n        /* \"#utility.yul\":7409:7410   */\n      0x00\n        /* \"#utility.yul\":7402:7490   */\n      mstore\n        /* \"#utility.yul\":7509:7513   */\n      0x22\n        /* \"#utility.yul\":7506:7507   */\n      0x04\n        /* \"#utility.yul\":7499:7514   */\n      mstore\n        /* \"#utility.yul\":7533:7537   */\n      0x24\n        /* \"#utility.yul\":7530:7531   */\n      0x00\n        /* \"#utility.yul\":7523:7538   */\n      revert\n        /* \"#utility.yul\":7550:7730   */\n    tag_65:\n        /* \"#utility.yul\":7598:7675   */\n      0x4e487b7100000000000000000000000000000000000000000000000000000000\n        /* \"#utility.yul\":7595:7596   */\n      0x00\n        /* \"#utility.yul\":7588:7676   */\n      mstore\n        /* \"#utility.yul\":7695:7699   */\n      0x32\n        /* \"#utility.yul\":7692:7693   */\n      0x04\n        /* \"#utility.yul\":7685:7700   */\n      mstore\n        /* \"#utility.yul\":7719:7723   */\n      0x24\n        /* \"#utility.yul\":7716:7717   */\n      0x00\n        /* \"#utility.yul\":7709:7724   */\n      revert\n        /* \"#utility.yul\":7736:7916   */\n    tag_185:\n        /* \"#utility.yul\":7784:7861   */\n      0x4e487b7100000000000000000000000000000000000000000000000000000000\n        /* \"#utility.yul\":7781:7782   */\n      0x00\n        /* \"#utility.yul\":7774:7862   */\n      mstore\n        /* \"#utility.yul\":7881:7885   */\n      0x41\n        /* \"#utility.yul\":7878:7879   */\n      0x04\n        /* \"#utility.yul\":7871:7886   */\n      mstore\n        /* \"#utility.yul\":7905:7909   */\n      0x24\n        /* \"#utility.yul\":7902:7903   */\n      0x00\n        /* \"#utility.yul\":7895:7910   */\n      revert\n        /* \"#utility.yul\":7922:8039   */\n    tag_123:\n        /* \"#utility.yul\":8031:8032   */\n      0x00\n        /* \"#utility.yul\":8028:8029   */\n      dup1\n        /* \"#utility.yul\":8021:8033   */\n      revert\n        /* \"#utility.yul\":8045:8162   */\n    tag_112:\n        /* \"#utility.yul\":8154:8155   */\n      0x00\n        /* \"#utility.yul\":8151:8152   */\n      dup1\n        /* \"#utility.yul\":8144:8156   */\n      revert\n        /* \"#utility.yul\":8168:8285   */\n    tag_140:\n        /* \"#utility.yul\":8277:8278   */\n      0x00\n        /* \"#utility.yul\":8274:8275   */\n      dup1\n        /* \"#utility.yul\":8267:8279   */\n      revert\n        /* \"#utility.yul\":8291:8408   */\n    tag_132:\n        /* \"#utility.yul\":8400:8401   */\n      0x00\n        /* \"#utility.yul\":8397:8398   */\n      dup1\n        /* \"#utility.yul\":8390:8402   */\n      revert\n        /* \"#utility.yul\":8414:8516   */\n    tag_165:\n        /* \"#utility.yul\":8455:8461   */\n      0x00\n        /* \"#utility.yul\":8506:8508   */\n      0x1f\n        /* \"#utility.yul\":8502:8509   */\n      not\n        /* \"#utility.yul\":8497:8499   */\n      0x1f\n        /* \"#utility.yul\":8490:8495   */\n      dup4\n        /* \"#utility.yul\":8486:8500   */\n      add\n        /* \"#utility.yul\":8482:8510   */\n      and\n        /* \"#utility.yul\":8472:8510   */\n      swap1\n      pop\n        /* \"#utility.yul\":8414:8516   */\n      swap2\n      swap1\n      pop\n      jump\t// out\n        /* \"#utility.yul\":8522:8644   */\n    tag_118:\n        /* \"#utility.yul\":8595:8619   */\n      tag_229\n        /* \"#utility.yul\":8613:8618   */\n      dup2\n        /* \"#utility.yul\":8595:8619   */\n      tag_155\n      jump\t// in\n    tag_229:\n        /* \"#utility.yul\":8588:8593   */\n      dup2\n        /* \"#utility.yul\":8585:8620   */\n      eq\n        /* \"#utility.yul\":8575:8638   */\n      tag_230\n      jumpi\n        /* \"#utility.yul\":8634:8635   */\n      0x00\n        /* \"#utility.yul\":8631:8632   */\n      dup1\n        /* \"#utility.yul\":8624:8636   */\n      revert\n        /* \"#utility.yul\":8575:8638   */\n    tag_230:\n        /* \"#utility.yul\":8522:8644   */\n      pop\n      jump\t// out\n        /* \"#utility.yul\":8650:8772   */\n    tag_128:\n        /* \"#utility.yul\":8723:8747   */\n      tag_232\n        /* \"#utility.yul\":8741:8746   */\n      dup2\n        /* \"#utility.yul\":8723:8747   */\n      tag_169\n      jump\t// in\n    tag_232:\n        /* \"#utility.yul\":8716:8721   */\n      dup2\n        /* \"#utility.yul\":8713:8748   */\n      eq\n        /* \"#utility.yul\":8703:8766   */\n      tag_233\n      jumpi\n        /* \"#utility.yul\":8762:8763   */\n      0x00\n        /* \"#utility.yul\":8759:8760   */\n      dup1\n        /* \"#utility.yul\":8752:8764   */\n      revert\n        /* \"#utility.yul\":8703:8766   */\n    tag_233:\n        /* \"#utility.yul\":8650:8772   */\n      pop\n      jump\t// out\n\n    auxdata: 0xa2646970667358221220c742637af575414f3cf97f584e2c94a9dfdd81647781898e758d99efc645698a64736f6c63430008070033\n}\n",
				"bytecode": {
					"linkReferences": {},
					"object": "608060405234801561001057600080fd5b50336000806101000a81548173ffffffffffffffffffffffffffffffffffffffff021916908373ffffffffffffffffffffffffffffffffffffffff160217905550610bee806100606000396000f3fe6080604052600436106100705760003560e01c80636f7bc9be1161004e5780636f7bc9be1461010d57806370a082311461014a578063a73a649c14610187578063f0384fb6146101b057610070565b80631a69523014610075578063365b98b2146100915780633e0dfbdf146100d0575b600080fd5b61008f600480360381019061008a91906106fe565b6101d9565b005b34801561009d57600080fd5b506100b860048036038101906100b391906107da565b6101e5565b6040516100c79392919061085e565b60405180910390f35b3480156100dc57600080fd5b506100f760048036038101906100f291906106fe565b6102c7565b604051610104919061089c565b60405180910390f35b34801561011957600080fd5b50610134600480360381019061012f91906106fe565b6102ce565b604051610141919061089c565b60405180910390f35b34801561015657600080fd5b50610171600480360381019061016c91906106fe565b6102e6565b60405161017e919061089c565b60405180910390f35b34801561019357600080fd5b506101ae60048036038101906101a9919061079a565b6103c1565b005b3480156101bc57600080fd5b506101d760048036038101906101d2919061072b565b610409565b005b6101e2816104e4565b50565b600181815481106101f557600080fd5b90600052602060002090600302016000915090508060000160009054906101000a900473ffffffffffffffffffffffffffffffffffffffff169080600101805461023e906109fd565b80601f016020809104026020016040519081016040528092919081815260200182805461026a906109fd565b80156102b75780601f1061028c576101008083540402835291602001916102b7565b820191906000526020600020905b81548152906001019060200180831161029a57829003601f168201915b5050505050908060020154905083565b6000919050565b60026020528060005260406000206000915090505481565b600080600090505b6001805490508110156103b5578273ffffffffffffffffffffffffffffffffffffffff166001828154811061032657610325610b07565b5b906000526020600020906003020160000160009054906101000a900473ffffffffffffffffffffffffffffffffffffffff1673ffffffffffffffffffffffffffffffffffffffff1614156103a2576001818154811061038857610387610b07565b5b9060005260206000209060030201600201549150506103bc565b80806103ad90610a60565b9150506102ee565b506103e790505b919050565b80600260008473ffffffffffffffffffffffffffffffffffffffff1673ffffffffffffffffffffffffffffffffffffffff168152602001908152602001600020819055505050565b600160405180606001604052808573ffffffffffffffffffffffffffffffffffffffff16815260200184815260200183815250908060018154018082558091505060019003906000526020600020906003020160009091909190915060008201518160000160006101000a81548173ffffffffffffffffffffffffffffffffffffffff021916908373ffffffffffffffffffffffffffffffffffffffff16021790555060208201518160010190805190602001906104c89291906105c1565b506040820151816002015550506104df83826103c1565b505050565b60005b6001805490508110156105bd578173ffffffffffffffffffffffffffffffffffffffff166001828154811061051f5761051e610b07565b5b906000526020600020906003020160000160009054906101000a900473ffffffffffffffffffffffffffffffffffffffff1673ffffffffffffffffffffffffffffffffffffffff1614156105aa57346001828154811061058257610581610b07565b5b906000526020600020906003020160020160008282546105a29190610929565b925050819055505b80806105b590610a60565b9150506104e7565b5050565b8280546105cd906109fd565b90600052602060002090601f0160209004810192826105ef5760008555610636565b82601f1061060857805160ff1916838001178555610636565b82800160010185558215610636579182015b8281111561063557825182559160200191906001019061061a565b5b5090506106439190610647565b5090565b5b80821115610660576000816000905550600101610648565b5090565b6000610677610672846108dc565b6108b7565b90508281526020810184848401111561069357610692610b6a565b5b61069e8482856109bb565b509392505050565b6000813590506106b581610b8a565b92915050565b600082601f8301126106d0576106cf610b65565b5b81356106e0848260208601610664565b91505092915050565b6000813590506106f881610ba1565b92915050565b60006020828403121561071457610713610b74565b5b6000610722848285016106a6565b91505092915050565b60008060006060848603121561074457610743610b74565b5b6000610752868287016106a6565b935050602084013567ffffffffffffffff81111561077357610772610b6f565b5b61077f868287016106bb565b9250506040610790868287016106e9565b9150509250925092565b600080604083850312156107b1576107b0610b74565b5b60006107bf858286016106a6565b92505060206107d0858286016106e9565b9150509250929050565b6000602082840312156107f0576107ef610b74565b5b60006107fe848285016106e9565b91505092915050565b6108108161097f565b82525050565b60006108218261090d565b61082b8185610918565b935061083b8185602086016109ca565b61084481610b79565b840191505092915050565b610858816109b1565b82525050565b60006060820190506108736000830186610807565b81810360208301526108858185610816565b9050610894604083018461084f565b949350505050565b60006020820190506108b1600083018461084f565b92915050565b60006108c16108d2565b90506108cd8282610a2f565b919050565b6000604051905090565b600067ffffffffffffffff8211156108f7576108f6610b36565b5b61090082610b79565b9050602081019050919050565b600081519050919050565b600082825260208201905092915050565b6000610934826109b1565b915061093f836109b1565b9250827fffffffffffffffffffffffffffffffffffffffffffffffffffffffffffffffff0382111561097457610973610aa9565b5b828201905092915050565b600061098a82610991565b9050919050565b600073ffffffffffffffffffffffffffffffffffffffff82169050919050565b6000819050919050565b82818337600083830152505050565b60005b838110156109e85780820151818401526020810190506109cd565b838111156109f7576000848401525b50505050565b60006002820490506001821680610a1557607f821691505b60208210811415610a2957610a28610ad8565b5b50919050565b610a3882610b79565b810181811067ffffffffffffffff82111715610a5757610a56610b36565b5b80604052505050565b6000610a6b826109b1565b91507fffffffffffffffffffffffffffffffffffffffffffffffffffffffffffffffff821415610a9e57610a9d610aa9565b5b600182019050919050565b7f4e487b7100000000000000000000000000000000000000000000000000000000600052601160045260246000fd5b7f4e487b7100000000000000000000000000000000000000000000000000000000600052602260045260246000fd5b7f4e487b7100000000000000000000000000000000000000000000000000000000600052603260045260246000fd5b7f4e487b7100000000000000000000000000000000000000000000000000000000600052604160045260246000fd5b600080fd5b600080fd5b600080fd5b600080fd5b6000601f19601f8301169050919050565b610b938161097f565b8114610b9e57600080fd5b50565b610baa816109b1565b8114610bb557600080fd5b5056fea2646970667358221220c742637af575414f3cf97f584e2c94a9dfdd81647781898e758d99efc645698a64736f6c63430008070033",
					"opcodes": "PUSH1 0x80 PUSH1 0x40 MSTORE CALLVALUE DUP1 ISZERO PUSH2 0x10 JUMPI PUSH1 0x0 DUP1 REVERT JUMPDEST POP CALLER PUSH1 0x0 DUP1 PUSH2 0x100 EXP DUP2 SLOAD DUP2 PUSH20 0xFFFFFFFFFFFFFFFFFFFFFFFFFFFFFFFFFFFFFFFF MUL NOT AND SWAP1 DUP4 PUSH20 0xFFFFFFFFFFFFFFFFFFFFFFFFFFFFFFFFFFFFFFFF AND MUL OR SWAP1 SSTORE POP PUSH2 0xBEE DUP1 PUSH2 0x60 PUSH1 0x0 CODECOPY PUSH1 0x0 RETURN INVALID PUSH1 0x80 PUSH1 0x40 MSTORE PUSH1 0x4 CALLDATASIZE LT PUSH2 0x70 JUMPI PUSH1 0x0 CALLDATALOAD PUSH1 0xE0 SHR DUP1 PUSH4 0x6F7BC9BE GT PUSH2 0x4E JUMPI DUP1 PUSH4 0x6F7BC9BE EQ PUSH2 0x10D JUMPI DUP1 PUSH4 0x70A08231 EQ PUSH2 0x14A JUMPI DUP1 PUSH4 0xA73A649C EQ PUSH2 0x187 JUMPI DUP1 PUSH4 0xF0384FB6 EQ PUSH2 0x1B0 JUMPI PUSH2 0x70 JUMP JUMPDEST DUP1 PUSH4 0x1A695230 EQ PUSH2 0x75 JUMPI DUP1 PUSH4 0x365B98B2 EQ PUSH2 0x91 JUMPI DUP1 PUSH4 0x3E0DFBDF EQ PUSH2 0xD0 JUMPI JUMPDEST PUSH1 0x0 DUP1 REVERT JUMPDEST PUSH2 0x8F PUSH1 0x4 DUP1 CALLDATASIZE SUB DUP2 ADD SWAP1 PUSH2 0x8A SWAP2 SWAP1 PUSH2 0x6FE JUMP JUMPDEST PUSH2 0x1D9 JUMP JUMPDEST STOP JUMPDEST CALLVALUE DUP1 ISZERO PUSH2 0x9D JUMPI PUSH1 0x0 DUP1 REVERT JUMPDEST POP PUSH2 0xB8 PUSH1 0x4 DUP1 CALLDATASIZE SUB DUP2 ADD SWAP1 PUSH2 0xB3 SWAP2 SWAP1 PUSH2 0x7DA JUMP JUMPDEST PUSH2 0x1E5 JUMP JUMPDEST PUSH1 0x40 MLOAD PUSH2 0xC7 SWAP4 SWAP3 SWAP2 SWAP1 PUSH2 0x85E JUMP JUMPDEST PUSH1 0x40 MLOAD DUP1 SWAP2 SUB SWAP1 RETURN JUMPDEST CALLVALUE DUP1 ISZERO PUSH2 0xDC JUMPI PUSH1 0x0 DUP1 REVERT JUMPDEST POP PUSH2 0xF7 PUSH1 0x4 DUP1 CALLDATASIZE SUB DUP2 ADD SWAP1 PUSH2 0xF2 SWAP2 SWAP1 PUSH2 0x6FE JUMP JUMPDEST PUSH2 0x2C7 JUMP JUMPDEST PUSH1 0x40 MLOAD PUSH2 0x104 SWAP2 SWAP1 PUSH2 0x89C JUMP JUMPDEST PUSH1 0x40 MLOAD DUP1 SWAP2 SUB SWAP1 RETURN JUMPDEST CALLVALUE DUP1 ISZERO PUSH2 0x119 JUMPI PUSH1 0x0 DUP1 REVERT JUMPDEST POP PUSH2 0x134 PUSH1 0x4 DUP1 CALLDATASIZE SUB DUP2 ADD SWAP1 PUSH2 0x12F SWAP2 SWAP1 PUSH2 0x6FE JUMP JUMPDEST PUSH2 0x2CE JUMP JUMPDEST PUSH1 0x40 MLOAD PUSH2 0x141 SWAP2 SWAP1 PUSH2 0x89C JUMP JUMPDEST PUSH1 0x40 MLOAD DUP1 SWAP2 SUB SWAP1 RETURN JUMPDEST CALLVALUE DUP1 ISZERO PUSH2 0x156 JUMPI PUSH1 0x0 DUP1 REVERT JUMPDEST POP PUSH2 0x171 PUSH1 0x4 DUP1 CALLDATASIZE SUB DUP2 ADD SWAP1 PUSH2 0x16C SWAP2 SWAP1 PUSH2 0x6FE JUMP JUMPDEST PUSH2 0x2E6 JUMP JUMPDEST PUSH1 0x40 MLOAD PUSH2 0x17E SWAP2 SWAP1 PUSH2 0x89C JUMP JUMPDEST PUSH1 0x40 MLOAD DUP1 SWAP2 SUB SWAP1 RETURN JUMPDEST CALLVALUE DUP1 ISZERO PUSH2 0x193 JUMPI PUSH1 0x0 DUP1 REVERT JUMPDEST POP PUSH2 0x1AE PUSH1 0x4 DUP1 CALLDATASIZE SUB DUP2 ADD SWAP1 PUSH2 0x1A9 SWAP2 SWAP1 PUSH2 0x79A JUMP JUMPDEST PUSH2 0x3C1 JUMP JUMPDEST STOP JUMPDEST CALLVALUE DUP1 ISZERO PUSH2 0x1BC JUMPI PUSH1 0x0 DUP1 REVERT JUMPDEST POP PUSH2 0x1D7 PUSH1 0x4 DUP1 CALLDATASIZE SUB DUP2 ADD SWAP1 PUSH2 0x1D2 SWAP2 SWAP1 PUSH2 0x72B JUMP JUMPDEST PUSH2 0x409 JUMP JUMPDEST STOP JUMPDEST PUSH2 0x1E2 DUP2 PUSH2 0x4E4 JUMP JUMPDEST POP JUMP JUMPDEST PUSH1 0x1 DUP2 DUP2 SLOAD DUP2 LT PUSH2 0x1F5 JUMPI PUSH1 0x0 DUP1 REVERT JUMPDEST SWAP1 PUSH1 0x0 MSTORE PUSH1 0x20 PUSH1 0x0 KECCAK256 SWAP1 PUSH1 0x3 MUL ADD PUSH1 0x0 SWAP2 POP SWAP1 POP DUP1 PUSH1 0x0 ADD PUSH1 0x0 SWAP1 SLOAD SWAP1 PUSH2 0x100 EXP SWAP1 DIV PUSH20 0xFFFFFFFFFFFFFFFFFFFFFFFFFFFFFFFFFFFFFFFF AND SWAP1 DUP1 PUSH1 0x1 ADD DUP1 SLOAD PUSH2 0x23E SWAP1 PUSH2 0x9FD JUMP JUMPDEST DUP1 PUSH1 0x1F ADD PUSH1 0x20 DUP1 SWAP2 DIV MUL PUSH1 0x20 ADD PUSH1 0x40 MLOAD SWAP1 DUP2 ADD PUSH1 0x40 MSTORE DUP1 SWAP3 SWAP2 SWAP1 DUP2 DUP2 MSTORE PUSH1 0x20 ADD DUP3 DUP1 SLOAD PUSH2 0x26A SWAP1 PUSH2 0x9FD JUMP JUMPDEST DUP1 ISZERO PUSH2 0x2B7 JUMPI DUP1 PUSH1 0x1F LT PUSH2 0x28C JUMPI PUSH2 0x100 DUP1 DUP4 SLOAD DIV MUL DUP4 MSTORE SWAP2 PUSH1 0x20 ADD SWAP2 PUSH2 0x2B7 JUMP JUMPDEST DUP3 ADD SWAP2 SWAP1 PUSH1 0x0 MSTORE PUSH1 0x20 PUSH1 0x0 KECCAK256 SWAP1 JUMPDEST DUP2 SLOAD DUP2 MSTORE SWAP1 PUSH1 0x1 ADD SWAP1 PUSH1 0x20 ADD DUP1 DUP4 GT PUSH2 0x29A JUMPI DUP3 SWAP1 SUB PUSH1 0x1F AND DUP3 ADD SWAP2 JUMPDEST POP POP POP POP POP SWAP1 DUP1 PUSH1 0x2 ADD SLOAD SWAP1 POP DUP4 JUMP JUMPDEST PUSH1 0x0 SWAP2 SWAP1 POP JUMP JUMPDEST PUSH1 0x2 PUSH1 0x20 MSTORE DUP1 PUSH1 0x0 MSTORE PUSH1 0x40 PUSH1 0x0 KECCAK256 PUSH1 0x0 SWAP2 POP SWAP1 POP SLOAD DUP2 JUMP JUMPDEST PUSH1 0x0 DUP1 PUSH1 0x0 SWAP1 POP JUMPDEST PUSH1 0x1 DUP1 SLOAD SWAP1 POP DUP2 LT ISZERO PUSH2 0x3B5 JUMPI DUP3 PUSH20 0xFFFFFFFFFFFFFFFFFFFFFFFFFFFFFFFFFFFFFFFF AND PUSH1 0x1 DUP3 DUP2 SLOAD DUP2 LT PUSH2 0x326 JUMPI PUSH2 0x325 PUSH2 0xB07 JUMP JUMPDEST JUMPDEST SWAP1 PUSH1 0x0 MSTORE PUSH1 0x20 PUSH1 0x0 KECCAK256 SWAP1 PUSH1 0x3 MUL ADD PUSH1 0x0 ADD PUSH1 0x0 SWAP1 SLOAD SWAP1 PUSH2 0x100 EXP SWAP1 DIV PUSH20 0xFFFFFFFFFFFFFFFFFFFFFFFFFFFFFFFFFFFFFFFF AND PUSH20 0xFFFFFFFFFFFFFFFFFFFFFFFFFFFFFFFFFFFFFFFF AND EQ ISZERO PUSH2 0x3A2 JUMPI PUSH1 0x1 DUP2 DUP2 SLOAD DUP2 LT PUSH2 0x388 JUMPI PUSH2 0x387 PUSH2 0xB07 JUMP JUMPDEST JUMPDEST SWAP1 PUSH1 0x0 MSTORE PUSH1 0x20 PUSH1 0x0 KECCAK256 SWAP1 PUSH1 0x3 MUL ADD PUSH1 0x2 ADD SLOAD SWAP2 POP POP PUSH2 0x3BC JUMP JUMPDEST DUP1 DUP1 PUSH2 0x3AD SWAP1 PUSH2 0xA60 JUMP JUMPDEST SWAP2 POP POP PUSH2 0x2EE JUMP JUMPDEST POP PUSH2 0x3E7 SWAP1 POP JUMPDEST SWAP2 SWAP1 POP JUMP JUMPDEST DUP1 PUSH1 0x2 PUSH1 0x0 DUP5 PUSH20 0xFFFFFFFFFFFFFFFFFFFFFFFFFFFFFFFFFFFFFFFF AND PUSH20 0xFFFFFFFFFFFFFFFFFFFFFFFFFFFFFFFFFFFFFFFF AND DUP2 MSTORE PUSH1 0x20 ADD SWAP1 DUP2 MSTORE PUSH1 0x20 ADD PUSH1 0x0 KECCAK256 DUP2 SWAP1 SSTORE POP POP POP JUMP JUMPDEST PUSH1 0x1 PUSH1 0x40 MLOAD DUP1 PUSH1 0x60 ADD PUSH1 0x40 MSTORE DUP1 DUP6 PUSH20 0xFFFFFFFFFFFFFFFFFFFFFFFFFFFFFFFFFFFFFFFF AND DUP2 MSTORE PUSH1 0x20 ADD DUP5 DUP2 MSTORE PUSH1 0x20 ADD DUP4 DUP2 MSTORE POP SWAP1 DUP1 PUSH1 0x1 DUP2 SLOAD ADD DUP1 DUP3 SSTORE DUP1 SWAP2 POP POP PUSH1 0x1 SWAP1 SUB SWAP1 PUSH1 0x0 MSTORE PUSH1 0x20 PUSH1 0x0 KECCAK256 SWAP1 PUSH1 0x3 MUL ADD PUSH1 0x0 SWAP1 SWAP2 SWAP1 SWAP2 SWAP1 SWAP2 POP PUSH1 0x0 DUP3 ADD MLOAD DUP2 PUSH1 0x0 ADD PUSH1 0x0 PUSH2 0x100 EXP DUP2 SLOAD DUP2 PUSH20 0xFFFFFFFFFFFFFFFFFFFFFFFFFFFFFFFFFFFFFFFF MUL NOT AND SWAP1 DUP4 PUSH20 0xFFFFFFFFFFFFFFFFFFFFFFFFFFFFFFFFFFFFFFFF AND MUL OR SWAP1 SSTORE POP PUSH1 0x20 DUP3 ADD MLOAD DUP2 PUSH1 0x1 ADD SWAP1 DUP1 MLOAD SWAP1 PUSH1 0x20 ADD SWAP1 PUSH2 0x4C8 SWAP3 SWAP2 SWAP1 PUSH2 0x5C1 JUMP JUMPDEST POP PUSH1 0x40 DUP3 ADD MLOAD DUP2 PUSH1 0x2 ADD SSTORE POP POP PUSH2 0x4DF DUP4 DUP3 PUSH2 0x3C1 JUMP JUMPDEST POP POP POP JUMP JUMPDEST PUSH1 0x0 JUMPDEST PUSH1 0x1 DUP1 SLOAD SWAP1 POP DUP2 LT ISZERO PUSH2 0x5BD JUMPI DUP2 PUSH20 0xFFFFFFFFFFFFFFFFFFFFFFFFFFFFFFFFFFFFFFFF AND PUSH1 0x1 DUP3 DUP2 SLOAD DUP2 LT PUSH2 0x51F JUMPI PUSH2 0x51E PUSH2 0xB07 JUMP JUMPDEST JUMPDEST SWAP1 PUSH1 0x0 MSTORE PUSH1 0x20 PUSH1 0x0 KECCAK256 SWAP1 PUSH1 0x3 MUL ADD PUSH1 0x0 ADD PUSH1 0x0 SWAP1 SLOAD SWAP1 PUSH2 0x100 EXP SWAP1 DIV PUSH20 0xFFFFFFFFFFFFFFFFFFFFFFFFFFFFFFFFFFFFFFFF AND PUSH20 0xFFFFFFFFFFFFFFFFFFFFFFFFFFFFFFFFFFFFFFFF AND EQ ISZERO PUSH2 0x5AA JUMPI CALLVALUE PUSH1 0x1 DUP3 DUP2 SLOAD DUP2 LT PUSH2 0x582 JUMPI PUSH2 0x581 PUSH2 0xB07 JUMP JUMPDEST JUMPDEST SWAP1 PUSH1 0x0 MSTORE PUSH1 0x20 PUSH1 0x0 KECCAK256 SWAP1 PUSH1 0x3 MUL ADD PUSH1 0x2 ADD PUSH1 0x0 DUP3 DUP3 SLOAD PUSH2 0x5A2 SWAP2 SWAP1 PUSH2 0x929 JUMP JUMPDEST SWAP3 POP POP DUP2 SWAP1 SSTORE POP JUMPDEST DUP1 DUP1 PUSH2 0x5B5 SWAP1 PUSH2 0xA60 JUMP JUMPDEST SWAP2 POP POP PUSH2 0x4E7 JUMP JUMPDEST POP POP JUMP JUMPDEST DUP3 DUP1 SLOAD PUSH2 0x5CD SWAP1 PUSH2 0x9FD JUMP JUMPDEST SWAP1 PUSH1 0x0 MSTORE PUSH1 0x20 PUSH1 0x0 KECCAK256 SWAP1 PUSH1 0x1F ADD PUSH1 0x20 SWAP1 DIV DUP2 ADD SWAP3 DUP3 PUSH2 0x5EF JUMPI PUSH1 0x0 DUP6 SSTORE PUSH2 0x636 JUMP JUMPDEST DUP3 PUSH1 0x1F LT PUSH2 0x608 JUMPI DUP1 MLOAD PUSH1 0xFF NOT AND DUP4 DUP1 ADD OR DUP6 SSTORE PUSH2 0x636 JUMP JUMPDEST DUP3 DUP1 ADD PUSH1 0x1 ADD DUP6 SSTORE DUP3 ISZERO PUSH2 0x636 JUMPI SWAP2 DUP3 ADD JUMPDEST DUP3 DUP2 GT ISZERO PUSH2 0x635 JUMPI DUP3 MLOAD DUP3 SSTORE SWAP2 PUSH1 0x20 ADD SWAP2 SWAP1 PUSH1 0x1 ADD SWAP1 PUSH2 0x61A JUMP JUMPDEST JUMPDEST POP SWAP1 POP PUSH2 0x643 SWAP2 SWAP1 PUSH2 0x647 JUMP JUMPDEST POP SWAP1 JUMP JUMPDEST JUMPDEST DUP1 DUP3 GT ISZERO PUSH2 0x660 JUMPI PUSH1 0x0 DUP2 PUSH1 0x0 SWAP1 SSTORE POP PUSH1 0x1 ADD PUSH2 0x648 JUMP JUMPDEST POP SWAP1 JUMP JUMPDEST PUSH1 0x0 PUSH2 0x677 PUSH2 0x672 DUP5 PUSH2 0x8DC JUMP JUMPDEST PUSH2 0x8B7 JUMP JUMPDEST SWAP1 POP DUP3 DUP2 MSTORE PUSH1 0x20 DUP2 ADD DUP5 DUP5 DUP5 ADD GT ISZERO PUSH2 0x693 JUMPI PUSH2 0x692 PUSH2 0xB6A JUMP JUMPDEST JUMPDEST PUSH2 0x69E DUP5 DUP3 DUP6 PUSH2 0x9BB JUMP JUMPDEST POP SWAP4 SWAP3 POP POP POP JUMP JUMPDEST PUSH1 0x0 DUP2 CALLDATALOAD SWAP1 POP PUSH2 0x6B5 DUP2 PUSH2 0xB8A JUMP JUMPDEST SWAP3 SWAP2 POP POP JUMP JUMPDEST PUSH1 0x0 DUP3 PUSH1 0x1F DUP4 ADD SLT PUSH2 0x6D0 JUMPI PUSH2 0x6CF PUSH2 0xB65 JUMP JUMPDEST JUMPDEST DUP2 CALLDATALOAD PUSH2 0x6E0 DUP5 DUP3 PUSH1 0x20 DUP7 ADD PUSH2 0x664 JUMP JUMPDEST SWAP2 POP POP SWAP3 SWAP2 POP POP JUMP JUMPDEST PUSH1 0x0 DUP2 CALLDATALOAD SWAP1 POP PUSH2 0x6F8 DUP2 PUSH2 0xBA1 JUMP JUMPDEST SWAP3 SWAP2 POP POP JUMP JUMPDEST PUSH1 0x0 PUSH1 0x20 DUP3 DUP5 SUB SLT ISZERO PUSH2 0x714 JUMPI PUSH2 0x713 PUSH2 0xB74 JUMP JUMPDEST JUMPDEST PUSH1 0x0 PUSH2 0x722 DUP5 DUP3 DUP6 ADD PUSH2 0x6A6 JUMP JUMPDEST SWAP2 POP POP SWAP3 SWAP2 POP POP JUMP JUMPDEST PUSH1 0x0 DUP1 PUSH1 0x0 PUSH1 0x60 DUP5 DUP7 SUB SLT ISZERO PUSH2 0x744 JUMPI PUSH2 0x743 PUSH2 0xB74 JUMP JUMPDEST JUMPDEST PUSH1 0x0 PUSH2 0x752 DUP7 DUP3 DUP8 ADD PUSH2 0x6A6 JUMP JUMPDEST SWAP4 POP POP PUSH1 0x20 DUP5 ADD CALLDATALOAD PUSH8 0xFFFFFFFFFFFFFFFF DUP2 GT ISZERO PUSH2 0x773 JUMPI PUSH2 0x772 PUSH2 0xB6F JUMP JUMPDEST JUMPDEST PUSH2 0x77F DUP7 DUP3 DUP8 ADD PUSH2 0x6BB JUMP JUMPDEST SWAP3 POP POP PUSH1 0x40 PUSH2 0x790 DUP7 DUP3 DUP8 ADD PUSH2 0x6E9 JUMP JUMPDEST SWAP2 POP POP SWAP3 POP SWAP3 POP SWAP3 JUMP JUMPDEST PUSH1 0x0 DUP1 PUSH1 0x40 DUP4 DUP6 SUB SLT ISZERO PUSH2 0x7B1 JUMPI PUSH2 0x7B0 PUSH2 0xB74 JUMP JUMPDEST JUMPDEST PUSH1 0x0 PUSH2 0x7BF DUP6 DUP3 DUP7 ADD PUSH2 0x6A6 JUMP JUMPDEST SWAP3 POP POP PUSH1 0x20 PUSH2 0x7D0 DUP6 DUP3 DUP7 ADD PUSH2 0x6E9 JUMP JUMPDEST SWAP2 POP POP SWAP3 POP SWAP3 SWAP1 POP JUMP JUMPDEST PUSH1 0x0 PUSH1 0x20 DUP3 DUP5 SUB SLT ISZERO PUSH2 0x7F0 JUMPI PUSH2 0x7EF PUSH2 0xB74 JUMP JUMPDEST JUMPDEST PUSH1 0x0 PUSH2 0x7FE DUP5 DUP3 DUP6 ADD PUSH2 0x6E9 JUMP JUMPDEST SWAP2 POP POP SWAP3 SWAP2 POP POP JUMP JUMPDEST PUSH2 0x810 DUP2 PUSH2 0x97F JUMP JUMPDEST DUP3 MSTORE POP POP JUMP JUMPDEST PUSH1 0x0 PUSH2 0x821 DUP3 PUSH2 0x90D JUMP JUMPDEST PUSH2 0x82B DUP2 DUP6 PUSH2 0x918 JUMP JUMPDEST SWAP4 POP PUSH2 0x83B DUP2 DUP6 PUSH1 0x20 DUP7 ADD PUSH2 0x9CA JUMP JUMPDEST PUSH2 0x844 DUP2 PUSH2 0xB79 JUMP JUMPDEST DUP5 ADD SWAP2 POP POP SWAP3 SWAP2 POP POP JUMP JUMPDEST PUSH2 0x858 DUP2 PUSH2 0x9B1 JUMP JUMPDEST DUP3 MSTORE POP POP JUMP JUMPDEST PUSH1 0x0 PUSH1 0x60 DUP3 ADD SWAP1 POP PUSH2 0x873 PUSH1 0x0 DUP4 ADD DUP7 PUSH2 0x807 JUMP JUMPDEST DUP2 DUP2 SUB PUSH1 0x20 DUP4 ADD MSTORE PUSH2 0x885 DUP2 DUP6 PUSH2 0x816 JUMP JUMPDEST SWAP1 POP PUSH2 0x894 PUSH1 0x40 DUP4 ADD DUP5 PUSH2 0x84F JUMP JUMPDEST SWAP5 SWAP4 POP POP POP POP JUMP JUMPDEST PUSH1 0x0 PUSH1 0x20 DUP3 ADD SWAP1 POP PUSH2 0x8B1 PUSH1 0x0 DUP4 ADD DUP5 PUSH2 0x84F JUMP JUMPDEST SWAP3 SWAP2 POP POP JUMP JUMPDEST PUSH1 0x0 PUSH2 0x8C1 PUSH2 0x8D2 JUMP JUMPDEST SWAP1 POP PUSH2 0x8CD DUP3 DUP3 PUSH2 0xA2F JUMP JUMPDEST SWAP2 SWAP1 POP JUMP JUMPDEST PUSH1 0x0 PUSH1 0x40 MLOAD SWAP1 POP SWAP1 JUMP JUMPDEST PUSH1 0x0 PUSH8 0xFFFFFFFFFFFFFFFF DUP3 GT ISZERO PUSH2 0x8F7 JUMPI PUSH2 0x8F6 PUSH2 0xB36 JUMP JUMPDEST JUMPDEST PUSH2 0x900 DUP3 PUSH2 0xB79 JUMP JUMPDEST SWAP1 POP PUSH1 0x20 DUP2 ADD SWAP1 POP SWAP2 SWAP1 POP JUMP JUMPDEST PUSH1 0x0 DUP2 MLOAD SWAP1 POP SWAP2 SWAP1 POP JUMP JUMPDEST PUSH1 0x0 DUP3 DUP3 MSTORE PUSH1 0x20 DUP3 ADD SWAP1 POP SWAP3 SWAP2 POP POP JUMP JUMPDEST PUSH1 0x0 PUSH2 0x934 DUP3 PUSH2 0x9B1 JUMP JUMPDEST SWAP2 POP PUSH2 0x93F DUP4 PUSH2 0x9B1 JUMP JUMPDEST SWAP3 POP DUP3 PUSH32 0xFFFFFFFFFFFFFFFFFFFFFFFFFFFFFFFFFFFFFFFFFFFFFFFFFFFFFFFFFFFFFFFF SUB DUP3 GT ISZERO PUSH2 0x974 JUMPI PUSH2 0x973 PUSH2 0xAA9 JUMP JUMPDEST JUMPDEST DUP3 DUP3 ADD SWAP1 POP SWAP3 SWAP2 POP POP JUMP JUMPDEST PUSH1 0x0 PUSH2 0x98A DUP3 PUSH2 0x991 JUMP JUMPDEST SWAP1 POP SWAP2 SWAP1 POP JUMP JUMPDEST PUSH1 0x0 PUSH20 0xFFFFFFFFFFFFFFFFFFFFFFFFFFFFFFFFFFFFFFFF DUP3 AND SWAP1 POP SWAP2 SWAP1 POP JUMP JUMPDEST PUSH1 0x0 DUP2 SWAP1 POP SWAP2 SWAP1 POP JUMP JUMPDEST DUP3 DUP2 DUP4 CALLDATACOPY PUSH1 0x0 DUP4 DUP4 ADD MSTORE POP POP POP JUMP JUMPDEST PUSH1 0x0 JUMPDEST DUP4 DUP2 LT ISZERO PUSH2 0x9E8 JUMPI DUP1 DUP3 ADD MLOAD DUP2 DUP5 ADD MSTORE PUSH1 0x20 DUP2 ADD SWAP1 POP PUSH2 0x9CD JUMP JUMPDEST DUP4 DUP2 GT ISZERO PUSH2 0x9F7 JUMPI PUSH1 0x0 DUP5 DUP5 ADD MSTORE JUMPDEST POP POP POP POP JUMP JUMPDEST PUSH1 0x0 PUSH1 0x2 DUP3 DIV SWAP1 POP PUSH1 0x1 DUP3 AND DUP1 PUSH2 0xA15 JUMPI PUSH1 0x7F DUP3 AND SWAP2 POP JUMPDEST PUSH1 0x20 DUP3 LT DUP2 EQ ISZERO PUSH2 0xA29 JUMPI PUSH2 0xA28 PUSH2 0xAD8 JUMP JUMPDEST JUMPDEST POP SWAP2 SWAP1 POP JUMP JUMPDEST PUSH2 0xA38 DUP3 PUSH2 0xB79 JUMP JUMPDEST DUP2 ADD DUP2 DUP2 LT PUSH8 0xFFFFFFFFFFFFFFFF DUP3 GT OR ISZERO PUSH2 0xA57 JUMPI PUSH2 0xA56 PUSH2 0xB36 JUMP JUMPDEST JUMPDEST DUP1 PUSH1 0x40 MSTORE POP POP POP JUMP JUMPDEST PUSH1 0x0 PUSH2 0xA6B DUP3 PUSH2 0x9B1 JUMP JUMPDEST SWAP2 POP PUSH32 0xFFFFFFFFFFFFFFFFFFFFFFFFFFFFFFFFFFFFFFFFFFFFFFFFFFFFFFFFFFFFFFFF DUP3 EQ ISZERO PUSH2 0xA9E JUMPI PUSH2 0xA9D PUSH2 0xAA9 JUMP JUMPDEST JUMPDEST PUSH1 0x1 DUP3 ADD SWAP1 POP SWAP2 SWAP1 POP JUMP JUMPDEST PUSH32 0x4E487B7100000000000000000000000000000000000000000000000000000000 PUSH1 0x0 MSTORE PUSH1 0x11 PUSH1 0x4 MSTORE PUSH1 0x24 PUSH1 0x0 REVERT JUMPDEST PUSH32 0x4E487B7100000000000000000000000000000000000000000000000000000000 PUSH1 0x0 MSTORE PUSH1 0x22 PUSH1 0x4 MSTORE PUSH1 0x24 PUSH1 0x0 REVERT JUMPDEST PUSH32 0x4E487B7100000000000000000000000000000000000000000000000000000000 PUSH1 0x0 MSTORE PUSH1 0x32 PUSH1 0x4 MSTORE PUSH1 0x24 PUSH1 0x0 REVERT JUMPDEST PUSH32 0x4E487B7100000000000000000000000000000000000000000000000000000000 PUSH1 0x0 MSTORE PUSH1 0x41 PUSH1 0x4 MSTORE PUSH1 0x24 PUSH1 0x0 REVERT JUMPDEST PUSH1 0x0 DUP1 REVERT JUMPDEST PUSH1 0x0 DUP1 REVERT JUMPDEST PUSH1 0x0 DUP1 REVERT JUMPDEST PUSH1 0x0 DUP1 REVERT JUMPDEST PUSH1 0x0 PUSH1 0x1F NOT PUSH1 0x1F DUP4 ADD AND SWAP1 POP SWAP2 SWAP1 POP JUMP JUMPDEST PUSH2 0xB93 DUP2 PUSH2 0x97F JUMP JUMPDEST DUP2 EQ PUSH2 0xB9E JUMPI PUSH1 0x0 DUP1 REVERT JUMPDEST POP JUMP JUMPDEST PUSH2 0xBAA DUP2 PUSH2 0x9B1 JUMP JUMPDEST DUP2 EQ PUSH2 0xBB5 JUMPI PUSH1 0x0 DUP1 REVERT JUMPDEST POP JUMP INVALID LOG2 PUSH5 0x6970667358 0x22 SLT KECCAK256 0xC7 TIMESTAMP PUSH4 0x7AF57541 0x4F EXTCODECOPY 0xF9 PUSH32 0x584E2C94A9DFDD81647781898E758D99EFC645698A64736F6C63430008070033 "
				},
				"gasEstimates": {
					"creation": {
						"codeDepositCost": "610800",
						"executionCost": "24911",
						"totalCost": "635711"
					},
					"external": {
						"addToInvestorMapping(address,uint256)": "22876",
						"addUser(address,string,uint256)": "infinite",
						"balanceOf(address)": "infinite",
						"getInvestorByAddress(address)": "688",
						"investors(address)": "2814",
						"transfer(address)": "infinite",
						"users(uint256)": "infinite"
					},
					"internal": {
						"transferToAddress(address)": "infinite"
					}
				},
				"methodIdentifiers": {
					"addToInvestorMapping(address,uint256)": "a73a649c",
					"addUser(address,string,uint256)": "f0384fb6",
					"balanceOf(address)": "70a08231",
					"getInvestorByAddress(address)": "3e0dfbdf",
					"investors(address)": "6f7bc9be",
					"transfer(address)": "1a695230",
					"users(uint256)": "365b98b2"
				}
			},
			"storageLayout": {
				"storage": [
					{
						"astId": 3,
						"contract": "contracts/Test1.sol:Test1",
						"label": "owner",
						"offset": 0,
						"slot": "0",
						"type": "t_address"
					},
					{
						"astId": 23,
						"contract": "contracts/Test1.sol:Test1",
						"label": "users",
						"offset": 0,
						"slot": "1",
						"type": "t_array(t_struct(User)19_storage)dyn_storage"
					},
					{
						"astId": 27,
						"contract": "contracts/Test1.sol:Test1",
						"label": "investors",
						"offset": 0,
						"slot": "2",
						"type": "t_mapping(t_address,t_uint256)"
					}
				],
				"types": {
					"t_address": {
						"encoding": "inplace",
						"label": "address",
						"numberOfBytes": "20"
					},
					"t_array(t_struct(User)19_storage)dyn_storage": {
						"base": "t_struct(User)19_storage",
						"encoding": "dynamic_array",
						"label": "struct Test1.User[]",
						"numberOfBytes": "32"
					},
					"t_mapping(t_address,t_uint256)": {
						"encoding": "mapping",
						"key": "t_address",
						"label": "mapping(address => uint256)",
						"numberOfBytes": "32",
						"value": "t_uint256"
					},
					"t_string_storage": {
						"encoding": "bytes",
						"label": "string",
						"numberOfBytes": "32"
					},
					"t_struct(User)19_storage": {
						"encoding": "inplace",
						"label": "struct Test1.User",
						"members": [
							{
								"astId": 14,
								"contract": "contracts/Test1.sol:Test1",
								"label": "walletAddress",
								"offset": 0,
								"slot": "0",
								"type": "t_address"
							},
							{
								"astId": 16,
								"contract": "contracts/Test1.sol:Test1",
								"label": "name",
								"offset": 0,
								"slot": "1",
								"type": "t_string_storage"
							},
							{
								"astId": 18,
								"contract": "contracts/Test1.sol:Test1",
								"label": "amount",
								"offset": 0,
								"slot": "2",
								"type": "t_uint256"
							}
						],
						"numberOfBytes": "96"
					},
					"t_uint256": {
						"encoding": "inplace",
						"label": "uint256",
						"numberOfBytes": "32"
					}
				}
			},
			"userdoc": {
				"kind": "user",
				"methods": {},
				"version": 1
			}
		}
	}
}