{
	"contracts/Test1.sol": {
		"Test1": {
			"abi": [
				{
					"inputs": [],
					"stateMutability": "nonpayable",
					"type": "constructor"
				},
				{
					"inputs": [
						{
							"internalType": "address",
							"name": "walletAddress",
							"type": "address"
						},
						{
							"internalType": "string",
							"name": "name",
							"type": "string"
						}
					],
					"name": "addUser",
					"outputs": [],
					"stateMutability": "nonpayable",
					"type": "function"
				},
				{
					"inputs": [
						{
							"internalType": "uint256",
							"name": "",
							"type": "uint256"
						}
					],
					"name": "users",
					"outputs": [
						{
							"internalType": "address",
							"name": "walletAddress",
							"type": "address"
						},
						{
							"internalType": "string",
							"name": "name",
							"type": "string"
						}
					],
					"stateMutability": "view",
					"type": "function"
				}
			],
			"devdoc": {
				"kind": "dev",
				"methods": {},
				"version": 1
			},
			"evm": {
				"assembly": "    /* \"contracts/Test1.sol\":65:393  contract Test1{... */\n  mstore(0x40, 0x80)\n    /* \"contracts/Test1.sol\":106:154  constructor(){... */\n  callvalue\n  dup1\n  iszero\n  tag_1\n  jumpi\n  0x00\n  dup1\n  revert\ntag_1:\n  pop\n    /* \"contracts/Test1.sol\":137:147  msg.sender */\n  caller\n    /* \"contracts/Test1.sol\":129:134  owner */\n  0x00\n  dup1\n    /* \"contracts/Test1.sol\":129:147  owner = msg.sender */\n  0x0100\n  exp\n  dup2\n  sload\n  dup2\n  0xffffffffffffffffffffffffffffffffffffffff\n  mul\n  not\n  and\n  swap1\n  dup4\n  0xffffffffffffffffffffffffffffffffffffffff\n  and\n  mul\n  or\n  swap1\n  sstore\n  pop\n    /* \"contracts/Test1.sol\":65:393  contract Test1{... */\n  dataSize(sub_0)\n  dup1\n  dataOffset(sub_0)\n  0x00\n  codecopy\n  0x00\n  return\nstop\n\nsub_0: assembly {\n        /* \"contracts/Test1.sol\":65:393  contract Test1{... */\n      mstore(0x40, 0x80)\n      callvalue\n      dup1\n      iszero\n      tag_1\n      jumpi\n      0x00\n      dup1\n      revert\n    tag_1:\n      pop\n      jumpi(tag_2, lt(calldatasize, 0x04))\n      shr(0xe0, calldataload(0x00))\n      dup1\n      0x365b98b2\n      eq\n      tag_3\n      jumpi\n      dup1\n      0x4b68d431\n      eq\n      tag_4\n      jumpi\n    tag_2:\n      0x00\n      dup1\n      revert\n        /* \"contracts/Test1.sol\":236:255  User[] public users */\n    tag_3:\n      tag_5\n      0x04\n      dup1\n      calldatasize\n      sub\n      dup2\n      add\n      swap1\n      tag_6\n      swap2\n      swap1\n      tag_7\n      jump\t// in\n    tag_6:\n      tag_8\n      jump\t// in\n    tag_5:\n      mload(0x40)\n      tag_9\n      swap3\n      swap2\n      swap1\n      tag_10\n      jump\t// in\n    tag_9:\n      mload(0x40)\n      dup1\n      swap2\n      sub\n      swap1\n      return\n        /* \"contracts/Test1.sol\":262:383  function addUser(address walletAddress, string memory name) public {... */\n    tag_4:\n      tag_11\n      0x04\n      dup1\n      calldatasize\n      sub\n      dup2\n      add\n      swap1\n      tag_12\n      swap2\n      swap1\n      tag_13\n      jump\t// in\n    tag_12:\n      tag_14\n      jump\t// in\n    tag_11:\n      stop\n        /* \"contracts/Test1.sol\":236:255  User[] public users */\n    tag_8:\n      0x01\n      dup2\n      dup2\n      sload\n      dup2\n      lt\n      tag_15\n      jumpi\n      0x00\n      dup1\n      revert\n    tag_15:\n      swap1\n      0x00\n      mstore\n      keccak256(0x00, 0x20)\n      swap1\n      0x02\n      mul\n      add\n      0x00\n      swap2\n      pop\n      swap1\n      pop\n      dup1\n      0x00\n      add\n      0x00\n      swap1\n      sload\n      swap1\n      0x0100\n      exp\n      swap1\n      div\n      0xffffffffffffffffffffffffffffffffffffffff\n      and\n      swap1\n      dup1\n      0x01\n      add\n      dup1\n      sload\n      tag_17\n      swap1\n      tag_18\n      jump\t// in\n    tag_17:\n      dup1\n      0x1f\n      add\n      0x20\n      dup1\n      swap2\n      div\n      mul\n      0x20\n      add\n      mload(0x40)\n      swap1\n      dup2\n      add\n      0x40\n      mstore\n      dup1\n      swap3\n      swap2\n      swap1\n      dup2\n      dup2\n      mstore\n      0x20\n      add\n      dup3\n      dup1\n      sload\n      tag_19\n      swap1\n      tag_18\n      jump\t// in\n    tag_19:\n      dup1\n      iszero\n      tag_20\n      jumpi\n      dup1\n      0x1f\n      lt\n      tag_21\n      jumpi\n      0x0100\n      dup1\n      dup4\n      sload\n      div\n      mul\n      dup4\n      mstore\n      swap2\n      0x20\n      add\n      swap2\n      jump(tag_20)\n    tag_21:\n      dup3\n      add\n      swap2\n      swap1\n      0x00\n      mstore\n      keccak256(0x00, 0x20)\n      swap1\n    tag_22:\n      dup2\n      sload\n      dup2\n      mstore\n      swap1\n      0x01\n      add\n      swap1\n      0x20\n      add\n      dup1\n      dup4\n      gt\n      tag_22\n      jumpi\n      dup3\n      swap1\n      sub\n      0x1f\n      and\n      dup3\n      add\n      swap2\n    tag_20:\n      pop\n      pop\n      pop\n      pop\n      pop\n      swap1\n      pop\n      dup3\n      jump\t// out\n        /* \"contracts/Test1.sol\":262:383  function addUser(address walletAddress, string memory name) public {... */\n    tag_14:\n        /* \"contracts/Test1.sol\":339:344  users */\n      0x01\n        /* \"contracts/Test1.sol\":350:375  User(walletAddress, name) */\n      mload(0x40)\n      dup1\n      0x40\n      add\n      0x40\n      mstore\n      dup1\n        /* \"contracts/Test1.sol\":355:368  walletAddress */\n      dup5\n        /* \"contracts/Test1.sol\":350:375  User(walletAddress, name) */\n      0xffffffffffffffffffffffffffffffffffffffff\n      and\n      dup2\n      mstore\n      0x20\n      add\n        /* \"contracts/Test1.sol\":370:374  name */\n      dup4\n        /* \"contracts/Test1.sol\":350:375  User(walletAddress, name) */\n      dup2\n      mstore\n      pop\n        /* \"contracts/Test1.sol\":339:376  users.push(User(walletAddress, name)) */\n      swap1\n      dup1\n      0x01\n      dup2\n      sload\n      add\n      dup1\n      dup3\n      sstore\n      dup1\n      swap2\n      pop\n      pop\n      0x01\n      swap1\n      sub\n      swap1\n      0x00\n      mstore\n      keccak256(0x00, 0x20)\n      swap1\n      0x02\n      mul\n      add\n      0x00\n      swap1\n      swap2\n      swap1\n      swap2\n      swap1\n      swap2\n      pop\n      0x00\n      dup3\n      add\n      mload\n      dup2\n      0x00\n      add\n      exp(0x0100, 0x00)\n      dup2\n      sload\n      dup2\n      0xffffffffffffffffffffffffffffffffffffffff\n      mul\n      not\n      and\n      swap1\n      dup4\n      0xffffffffffffffffffffffffffffffffffffffff\n      and\n      mul\n      or\n      swap1\n      sstore\n      pop\n      0x20\n      dup3\n      add\n      mload\n      dup2\n      0x01\n      add\n      swap1\n      dup2\n      tag_25\n      swap2\n      swap1\n      tag_26\n      jump\t// in\n    tag_25:\n      pop\n      pop\n      pop\n        /* \"contracts/Test1.sol\":262:383  function addUser(address walletAddress, string memory name) public {... */\n      pop\n      pop\n      jump\t// out\n        /* \"#utility.yul\":7:82   */\n    tag_27:\n        /* \"#utility.yul\":40:46   */\n      0x00\n        /* \"#utility.yul\":73:75   */\n      0x40\n        /* \"#utility.yul\":67:76   */\n      mload\n        /* \"#utility.yul\":57:76   */\n      swap1\n      pop\n        /* \"#utility.yul\":7:82   */\n      swap1\n      jump\t// out\n        /* \"#utility.yul\":88:205   */\n    tag_28:\n        /* \"#utility.yul\":197:198   */\n      0x00\n        /* \"#utility.yul\":194:195   */\n      dup1\n        /* \"#utility.yul\":187:199   */\n      revert\n        /* \"#utility.yul\":211:328   */\n    tag_29:\n        /* \"#utility.yul\":320:321   */\n      0x00\n        /* \"#utility.yul\":317:318   */\n      dup1\n        /* \"#utility.yul\":310:322   */\n      revert\n        /* \"#utility.yul\":334:411   */\n    tag_30:\n        /* \"#utility.yul\":371:378   */\n      0x00\n        /* \"#utility.yul\":400:405   */\n      dup2\n        /* \"#utility.yul\":389:405   */\n      swap1\n      pop\n        /* \"#utility.yul\":334:411   */\n      swap2\n      swap1\n      pop\n      jump\t// out\n        /* \"#utility.yul\":417:539   */\n    tag_31:\n        /* \"#utility.yul\":490:514   */\n      tag_74\n        /* \"#utility.yul\":508:513   */\n      dup2\n        /* \"#utility.yul\":490:514   */\n      tag_30\n      jump\t// in\n    tag_74:\n        /* \"#utility.yul\":483:488   */\n      dup2\n        /* \"#utility.yul\":480:515   */\n      eq\n        /* \"#utility.yul\":470:533   */\n      tag_75\n      jumpi\n        /* \"#utility.yul\":529:530   */\n      0x00\n        /* \"#utility.yul\":526:527   */\n      dup1\n        /* \"#utility.yul\":519:531   */\n      revert\n        /* \"#utility.yul\":470:533   */\n    tag_75:\n        /* \"#utility.yul\":417:539   */\n      pop\n      jump\t// out\n        /* \"#utility.yul\":545:684   */\n    tag_32:\n        /* \"#utility.yul\":591:596   */\n      0x00\n        /* \"#utility.yul\":629:635   */\n      dup2\n        /* \"#utility.yul\":616:636   */\n      calldataload\n        /* \"#utility.yul\":607:636   */\n      swap1\n      pop\n        /* \"#utility.yul\":645:678   */\n      tag_77\n        /* \"#utility.yul\":672:677   */\n      dup2\n        /* \"#utility.yul\":645:678   */\n      tag_31\n      jump\t// in\n    tag_77:\n        /* \"#utility.yul\":545:684   */\n      swap3\n      swap2\n      pop\n      pop\n      jump\t// out\n        /* \"#utility.yul\":690:1019   */\n    tag_7:\n        /* \"#utility.yul\":749:755   */\n      0x00\n        /* \"#utility.yul\":798:800   */\n      0x20\n        /* \"#utility.yul\":786:795   */\n      dup3\n        /* \"#utility.yul\":777:784   */\n      dup5\n        /* \"#utility.yul\":773:796   */\n      sub\n        /* \"#utility.yul\":769:801   */\n      slt\n        /* \"#utility.yul\":766:885   */\n      iszero\n      tag_79\n      jumpi\n        /* \"#utility.yul\":804:883   */\n      tag_80\n      tag_28\n      jump\t// in\n    tag_80:\n        /* \"#utility.yul\":766:885   */\n    tag_79:\n        /* \"#utility.yul\":924:925   */\n      0x00\n        /* \"#utility.yul\":949:1002   */\n      tag_81\n        /* \"#utility.yul\":994:1001   */\n      dup5\n        /* \"#utility.yul\":985:991   */\n      dup3\n        /* \"#utility.yul\":974:983   */\n      dup6\n        /* \"#utility.yul\":970:992   */\n      add\n        /* \"#utility.yul\":949:1002   */\n      tag_32\n      jump\t// in\n    tag_81:\n        /* \"#utility.yul\":939:1002   */\n      swap2\n      pop\n        /* \"#utility.yul\":895:1012   */\n      pop\n        /* \"#utility.yul\":690:1019   */\n      swap3\n      swap2\n      pop\n      pop\n      jump\t// out\n        /* \"#utility.yul\":1025:1151   */\n    tag_33:\n        /* \"#utility.yul\":1062:1069   */\n      0x00\n        /* \"#utility.yul\":1102:1144   */\n      0xffffffffffffffffffffffffffffffffffffffff\n        /* \"#utility.yul\":1095:1100   */\n      dup3\n        /* \"#utility.yul\":1091:1145   */\n      and\n        /* \"#utility.yul\":1080:1145   */\n      swap1\n      pop\n        /* \"#utility.yul\":1025:1151   */\n      swap2\n      swap1\n      pop\n      jump\t// out\n        /* \"#utility.yul\":1157:1253   */\n    tag_34:\n        /* \"#utility.yul\":1194:1201   */\n      0x00\n        /* \"#utility.yul\":1223:1247   */\n      tag_84\n        /* \"#utility.yul\":1241:1246   */\n      dup3\n        /* \"#utility.yul\":1223:1247   */\n      tag_33\n      jump\t// in\n    tag_84:\n        /* \"#utility.yul\":1212:1247   */\n      swap1\n      pop\n        /* \"#utility.yul\":1157:1253   */\n      swap2\n      swap1\n      pop\n      jump\t// out\n        /* \"#utility.yul\":1259:1377   */\n    tag_35:\n        /* \"#utility.yul\":1346:1370   */\n      tag_86\n        /* \"#utility.yul\":1364:1369   */\n      dup2\n        /* \"#utility.yul\":1346:1370   */\n      tag_34\n      jump\t// in\n    tag_86:\n        /* \"#utility.yul\":1341:1344   */\n      dup3\n        /* \"#utility.yul\":1334:1371   */\n      mstore\n        /* \"#utility.yul\":1259:1377   */\n      pop\n      pop\n      jump\t// out\n        /* \"#utility.yul\":1383:1482   */\n    tag_36:\n        /* \"#utility.yul\":1435:1441   */\n      0x00\n        /* \"#utility.yul\":1469:1474   */\n      dup2\n        /* \"#utility.yul\":1463:1475   */\n      mload\n        /* \"#utility.yul\":1453:1475   */\n      swap1\n      pop\n        /* \"#utility.yul\":1383:1482   */\n      swap2\n      swap1\n      pop\n      jump\t// out\n        /* \"#utility.yul\":1488:1657   */\n    tag_37:\n        /* \"#utility.yul\":1572:1583   */\n      0x00\n        /* \"#utility.yul\":1606:1612   */\n      dup3\n        /* \"#utility.yul\":1601:1604   */\n      dup3\n        /* \"#utility.yul\":1594:1613   */\n      mstore\n        /* \"#utility.yul\":1646:1650   */\n      0x20\n        /* \"#utility.yul\":1641:1644   */\n      dup3\n        /* \"#utility.yul\":1637:1651   */\n      add\n        /* \"#utility.yul\":1622:1651   */\n      swap1\n      pop\n        /* \"#utility.yul\":1488:1657   */\n      swap3\n      swap2\n      pop\n      pop\n      jump\t// out\n        /* \"#utility.yul\":1663:1970   */\n    tag_38:\n        /* \"#utility.yul\":1731:1732   */\n      0x00\n        /* \"#utility.yul\":1741:1854   */\n    tag_90:\n        /* \"#utility.yul\":1755:1761   */\n      dup4\n        /* \"#utility.yul\":1752:1753   */\n      dup2\n        /* \"#utility.yul\":1749:1762   */\n      lt\n        /* \"#utility.yul\":1741:1854   */\n      iszero\n      tag_92\n      jumpi\n        /* \"#utility.yul\":1840:1841   */\n      dup1\n        /* \"#utility.yul\":1835:1838   */\n      dup3\n        /* \"#utility.yul\":1831:1842   */\n      add\n        /* \"#utility.yul\":1825:1843   */\n      mload\n        /* \"#utility.yul\":1821:1822   */\n      dup2\n        /* \"#utility.yul\":1816:1819   */\n      dup5\n        /* \"#utility.yul\":1812:1823   */\n      add\n        /* \"#utility.yul\":1805:1844   */\n      mstore\n        /* \"#utility.yul\":1777:1779   */\n      0x20\n        /* \"#utility.yul\":1774:1775   */\n      dup2\n        /* \"#utility.yul\":1770:1780   */\n      add\n        /* \"#utility.yul\":1765:1780   */\n      swap1\n      pop\n        /* \"#utility.yul\":1741:1854   */\n      jump(tag_90)\n    tag_92:\n        /* \"#utility.yul\":1872:1878   */\n      dup4\n        /* \"#utility.yul\":1869:1870   */\n      dup2\n        /* \"#utility.yul\":1866:1879   */\n      gt\n        /* \"#utility.yul\":1863:1964   */\n      iszero\n      tag_93\n      jumpi\n        /* \"#utility.yul\":1952:1953   */\n      0x00\n        /* \"#utility.yul\":1943:1949   */\n      dup5\n        /* \"#utility.yul\":1938:1941   */\n      dup5\n        /* \"#utility.yul\":1934:1950   */\n      add\n        /* \"#utility.yul\":1927:1954   */\n      mstore\n        /* \"#utility.yul\":1863:1964   */\n    tag_93:\n        /* \"#utility.yul\":1712:1970   */\n      pop\n        /* \"#utility.yul\":1663:1970   */\n      pop\n      pop\n      pop\n      jump\t// out\n        /* \"#utility.yul\":1976:2078   */\n    tag_39:\n        /* \"#utility.yul\":2017:2023   */\n      0x00\n        /* \"#utility.yul\":2068:2070   */\n      0x1f\n        /* \"#utility.yul\":2064:2071   */\n      not\n        /* \"#utility.yul\":2059:2061   */\n      0x1f\n        /* \"#utility.yul\":2052:2057   */\n      dup4\n        /* \"#utility.yul\":2048:2062   */\n      add\n        /* \"#utility.yul\":2044:2072   */\n      and\n        /* \"#utility.yul\":2034:2072   */\n      swap1\n      pop\n        /* \"#utility.yul\":1976:2078   */\n      swap2\n      swap1\n      pop\n      jump\t// out\n        /* \"#utility.yul\":2084:2448   */\n    tag_40:\n        /* \"#utility.yul\":2172:2175   */\n      0x00\n        /* \"#utility.yul\":2200:2239   */\n      tag_96\n        /* \"#utility.yul\":2233:2238   */\n      dup3\n        /* \"#utility.yul\":2200:2239   */\n      tag_36\n      jump\t// in\n    tag_96:\n        /* \"#utility.yul\":2255:2326   */\n      tag_97\n        /* \"#utility.yul\":2319:2325   */\n      dup2\n        /* \"#utility.yul\":2314:2317   */\n      dup6\n        /* \"#utility.yul\":2255:2326   */\n      tag_37\n      jump\t// in\n    tag_97:\n        /* \"#utility.yul\":2248:2326   */\n      swap4\n      pop\n        /* \"#utility.yul\":2335:2387   */\n      tag_98\n        /* \"#utility.yul\":2380:2386   */\n      dup2\n        /* \"#utility.yul\":2375:2378   */\n      dup6\n        /* \"#utility.yul\":2368:2372   */\n      0x20\n        /* \"#utility.yul\":2361:2366   */\n      dup7\n        /* \"#utility.yul\":2357:2373   */\n      add\n        /* \"#utility.yul\":2335:2387   */\n      tag_38\n      jump\t// in\n    tag_98:\n        /* \"#utility.yul\":2412:2441   */\n      tag_99\n        /* \"#utility.yul\":2434:2440   */\n      dup2\n        /* \"#utility.yul\":2412:2441   */\n      tag_39\n      jump\t// in\n    tag_99:\n        /* \"#utility.yul\":2407:2410   */\n      dup5\n        /* \"#utility.yul\":2403:2442   */\n      add\n        /* \"#utility.yul\":2396:2442   */\n      swap2\n      pop\n        /* \"#utility.yul\":2176:2448   */\n      pop\n        /* \"#utility.yul\":2084:2448   */\n      swap3\n      swap2\n      pop\n      pop\n      jump\t// out\n        /* \"#utility.yul\":2454:2877   */\n    tag_10:\n        /* \"#utility.yul\":2595:2599   */\n      0x00\n        /* \"#utility.yul\":2633:2635   */\n      0x40\n        /* \"#utility.yul\":2622:2631   */\n      dup3\n        /* \"#utility.yul\":2618:2636   */\n      add\n        /* \"#utility.yul\":2610:2636   */\n      swap1\n      pop\n        /* \"#utility.yul\":2646:2717   */\n      tag_101\n        /* \"#utility.yul\":2714:2715   */\n      0x00\n        /* \"#utility.yul\":2703:2712   */\n      dup4\n        /* \"#utility.yul\":2699:2716   */\n      add\n        /* \"#utility.yul\":2690:2696   */\n      dup6\n        /* \"#utility.yul\":2646:2717   */\n      tag_35\n      jump\t// in\n    tag_101:\n        /* \"#utility.yul\":2764:2773   */\n      dup2\n        /* \"#utility.yul\":2758:2762   */\n      dup2\n        /* \"#utility.yul\":2754:2774   */\n      sub\n        /* \"#utility.yul\":2749:2751   */\n      0x20\n        /* \"#utility.yul\":2738:2747   */\n      dup4\n        /* \"#utility.yul\":2734:2752   */\n      add\n        /* \"#utility.yul\":2727:2775   */\n      mstore\n        /* \"#utility.yul\":2792:2870   */\n      tag_102\n        /* \"#utility.yul\":2865:2869   */\n      dup2\n        /* \"#utility.yul\":2856:2862   */\n      dup5\n        /* \"#utility.yul\":2792:2870   */\n      tag_40\n      jump\t// in\n    tag_102:\n        /* \"#utility.yul\":2784:2870   */\n      swap1\n      pop\n        /* \"#utility.yul\":2454:2877   */\n      swap4\n      swap3\n      pop\n      pop\n      pop\n      jump\t// out\n        /* \"#utility.yul\":2883:3005   */\n    tag_41:\n        /* \"#utility.yul\":2956:2980   */\n      tag_104\n        /* \"#utility.yul\":2974:2979   */\n      dup2\n        /* \"#utility.yul\":2956:2980   */\n      tag_34\n      jump\t// in\n    tag_104:\n        /* \"#utility.yul\":2949:2954   */\n      dup2\n        /* \"#utility.yul\":2946:2981   */\n      eq\n        /* \"#utility.yul\":2936:2999   */\n      tag_105\n      jumpi\n        /* \"#utility.yul\":2995:2996   */\n      0x00\n        /* \"#utility.yul\":2992:2993   */\n      dup1\n        /* \"#utility.yul\":2985:2997   */\n      revert\n        /* \"#utility.yul\":2936:2999   */\n    tag_105:\n        /* \"#utility.yul\":2883:3005   */\n      pop\n      jump\t// out\n        /* \"#utility.yul\":3011:3150   */\n    tag_42:\n        /* \"#utility.yul\":3057:3062   */\n      0x00\n        /* \"#utility.yul\":3095:3101   */\n      dup2\n        /* \"#utility.yul\":3082:3102   */\n      calldataload\n        /* \"#utility.yul\":3073:3102   */\n      swap1\n      pop\n        /* \"#utility.yul\":3111:3144   */\n      tag_107\n        /* \"#utility.yul\":3138:3143   */\n      dup2\n        /* \"#utility.yul\":3111:3144   */\n      tag_41\n      jump\t// in\n    tag_107:\n        /* \"#utility.yul\":3011:3150   */\n      swap3\n      swap2\n      pop\n      pop\n      jump\t// out\n        /* \"#utility.yul\":3156:3273   */\n    tag_43:\n        /* \"#utility.yul\":3265:3266   */\n      0x00\n        /* \"#utility.yul\":3262:3263   */\n      dup1\n        /* \"#utility.yul\":3255:3267   */\n      revert\n        /* \"#utility.yul\":3279:3396   */\n    tag_44:\n        /* \"#utility.yul\":3388:3389   */\n      0x00\n        /* \"#utility.yul\":3385:3386   */\n      dup1\n        /* \"#utility.yul\":3378:3390   */\n      revert\n        /* \"#utility.yul\":3402:3582   */\n    tag_45:\n        /* \"#utility.yul\":3450:3527   */\n      0x4e487b7100000000000000000000000000000000000000000000000000000000\n        /* \"#utility.yul\":3447:3448   */\n      0x00\n        /* \"#utility.yul\":3440:3528   */\n      mstore\n        /* \"#utility.yul\":3547:3551   */\n      0x41\n        /* \"#utility.yul\":3544:3545   */\n      0x04\n        /* \"#utility.yul\":3537:3552   */\n      mstore\n        /* \"#utility.yul\":3571:3575   */\n      0x24\n        /* \"#utility.yul\":3568:3569   */\n      0x00\n        /* \"#utility.yul\":3561:3576   */\n      revert\n        /* \"#utility.yul\":3588:3869   */\n    tag_46:\n        /* \"#utility.yul\":3671:3698   */\n      tag_112\n        /* \"#utility.yul\":3693:3697   */\n      dup3\n        /* \"#utility.yul\":3671:3698   */\n      tag_39\n      jump\t// in\n    tag_112:\n        /* \"#utility.yul\":3663:3669   */\n      dup2\n        /* \"#utility.yul\":3659:3699   */\n      add\n        /* \"#utility.yul\":3801:3807   */\n      dup2\n        /* \"#utility.yul\":3789:3799   */\n      dup2\n        /* \"#utility.yul\":3786:3808   */\n      lt\n        /* \"#utility.yul\":3765:3783   */\n      0xffffffffffffffff\n        /* \"#utility.yul\":3753:3763   */\n      dup3\n        /* \"#utility.yul\":3750:3784   */\n      gt\n        /* \"#utility.yul\":3747:3809   */\n      or\n        /* \"#utility.yul\":3744:3832   */\n      iszero\n      tag_113\n      jumpi\n        /* \"#utility.yul\":3812:3830   */\n      tag_114\n      tag_45\n      jump\t// in\n    tag_114:\n        /* \"#utility.yul\":3744:3832   */\n    tag_113:\n        /* \"#utility.yul\":3852:3862   */\n      dup1\n        /* \"#utility.yul\":3848:3850   */\n      0x40\n        /* \"#utility.yul\":3841:3863   */\n      mstore\n        /* \"#utility.yul\":3631:3869   */\n      pop\n        /* \"#utility.yul\":3588:3869   */\n      pop\n      pop\n      jump\t// out\n        /* \"#utility.yul\":3875:4004   */\n    tag_47:\n        /* \"#utility.yul\":3909:3915   */\n      0x00\n        /* \"#utility.yul\":3936:3956   */\n      tag_116\n      tag_27\n      jump\t// in\n    tag_116:\n        /* \"#utility.yul\":3926:3956   */\n      swap1\n      pop\n        /* \"#utility.yul\":3965:3998   */\n      tag_117\n        /* \"#utility.yul\":3993:3997   */\n      dup3\n        /* \"#utility.yul\":3985:3991   */\n      dup3\n        /* \"#utility.yul\":3965:3998   */\n      tag_46\n      jump\t// in\n    tag_117:\n        /* \"#utility.yul\":3875:4004   */\n      swap2\n      swap1\n      pop\n      jump\t// out\n        /* \"#utility.yul\":4010:4318   */\n    tag_48:\n        /* \"#utility.yul\":4072:4076   */\n      0x00\n        /* \"#utility.yul\":4162:4180   */\n      0xffffffffffffffff\n        /* \"#utility.yul\":4154:4160   */\n      dup3\n        /* \"#utility.yul\":4151:4181   */\n      gt\n        /* \"#utility.yul\":4148:4204   */\n      iszero\n      tag_119\n      jumpi\n        /* \"#utility.yul\":4184:4202   */\n      tag_120\n      tag_45\n      jump\t// in\n    tag_120:\n        /* \"#utility.yul\":4148:4204   */\n    tag_119:\n        /* \"#utility.yul\":4222:4251   */\n      tag_121\n        /* \"#utility.yul\":4244:4250   */\n      dup3\n        /* \"#utility.yul\":4222:4251   */\n      tag_39\n      jump\t// in\n    tag_121:\n        /* \"#utility.yul\":4214:4251   */\n      swap1\n      pop\n        /* \"#utility.yul\":4306:4310   */\n      0x20\n        /* \"#utility.yul\":4300:4304   */\n      dup2\n        /* \"#utility.yul\":4296:4311   */\n      add\n        /* \"#utility.yul\":4288:4311   */\n      swap1\n      pop\n        /* \"#utility.yul\":4010:4318   */\n      swap2\n      swap1\n      pop\n      jump\t// out\n        /* \"#utility.yul\":4324:4478   */\n    tag_49:\n        /* \"#utility.yul\":4408:4414   */\n      dup3\n        /* \"#utility.yul\":4403:4406   */\n      dup2\n        /* \"#utility.yul\":4398:4401   */\n      dup4\n        /* \"#utility.yul\":4385:4415   */\n      calldatacopy\n        /* \"#utility.yul\":4470:4471   */\n      0x00\n        /* \"#utility.yul\":4461:4467   */\n      dup4\n        /* \"#utility.yul\":4456:4459   */\n      dup4\n        /* \"#utility.yul\":4452:4468   */\n      add\n        /* \"#utility.yul\":4445:4472   */\n      mstore\n        /* \"#utility.yul\":4324:4478   */\n      pop\n      pop\n      pop\n      jump\t// out\n        /* \"#utility.yul\":4484:4896   */\n    tag_50:\n        /* \"#utility.yul\":4562:4567   */\n      0x00\n        /* \"#utility.yul\":4587:4653   */\n      tag_124\n        /* \"#utility.yul\":4603:4652   */\n      tag_125\n        /* \"#utility.yul\":4645:4651   */\n      dup5\n        /* \"#utility.yul\":4603:4652   */\n      tag_48\n      jump\t// in\n    tag_125:\n        /* \"#utility.yul\":4587:4653   */\n      tag_47\n      jump\t// in\n    tag_124:\n        /* \"#utility.yul\":4578:4653   */\n      swap1\n      pop\n        /* \"#utility.yul\":4676:4682   */\n      dup3\n        /* \"#utility.yul\":4669:4674   */\n      dup2\n        /* \"#utility.yul\":4662:4683   */\n      mstore\n        /* \"#utility.yul\":4714:4718   */\n      0x20\n        /* \"#utility.yul\":4707:4712   */\n      dup2\n        /* \"#utility.yul\":4703:4719   */\n      add\n        /* \"#utility.yul\":4752:4755   */\n      dup5\n        /* \"#utility.yul\":4743:4749   */\n      dup5\n        /* \"#utility.yul\":4738:4741   */\n      dup5\n        /* \"#utility.yul\":4734:4750   */\n      add\n        /* \"#utility.yul\":4731:4756   */\n      gt\n        /* \"#utility.yul\":4728:4840   */\n      iszero\n      tag_126\n      jumpi\n        /* \"#utility.yul\":4759:4838   */\n      tag_127\n      tag_44\n      jump\t// in\n    tag_127:\n        /* \"#utility.yul\":4728:4840   */\n    tag_126:\n        /* \"#utility.yul\":4849:4890   */\n      tag_128\n        /* \"#utility.yul\":4883:4889   */\n      dup5\n        /* \"#utility.yul\":4878:4881   */\n      dup3\n        /* \"#utility.yul\":4873:4876   */\n      dup6\n        /* \"#utility.yul\":4849:4890   */\n      tag_49\n      jump\t// in\n    tag_128:\n        /* \"#utility.yul\":4568:4896   */\n      pop\n        /* \"#utility.yul\":4484:4896   */\n      swap4\n      swap3\n      pop\n      pop\n      pop\n      jump\t// out\n        /* \"#utility.yul\":4916:5256   */\n    tag_51:\n        /* \"#utility.yul\":4972:4977   */\n      0x00\n        /* \"#utility.yul\":5021:5024   */\n      dup3\n        /* \"#utility.yul\":5014:5018   */\n      0x1f\n        /* \"#utility.yul\":5006:5012   */\n      dup4\n        /* \"#utility.yul\":5002:5019   */\n      add\n        /* \"#utility.yul\":4998:5025   */\n      slt\n        /* \"#utility.yul\":4988:5110   */\n      tag_130\n      jumpi\n        /* \"#utility.yul\":5029:5108   */\n      tag_131\n      tag_43\n      jump\t// in\n    tag_131:\n        /* \"#utility.yul\":4988:5110   */\n    tag_130:\n        /* \"#utility.yul\":5146:5152   */\n      dup2\n        /* \"#utility.yul\":5133:5153   */\n      calldataload\n        /* \"#utility.yul\":5171:5250   */\n      tag_132\n        /* \"#utility.yul\":5246:5249   */\n      dup5\n        /* \"#utility.yul\":5238:5244   */\n      dup3\n        /* \"#utility.yul\":5231:5235   */\n      0x20\n        /* \"#utility.yul\":5223:5229   */\n      dup7\n        /* \"#utility.yul\":5219:5236   */\n      add\n        /* \"#utility.yul\":5171:5250   */\n      tag_50\n      jump\t// in\n    tag_132:\n        /* \"#utility.yul\":5162:5250   */\n      swap2\n      pop\n        /* \"#utility.yul\":4978:5256   */\n      pop\n        /* \"#utility.yul\":4916:5256   */\n      swap3\n      swap2\n      pop\n      pop\n      jump\t// out\n        /* \"#utility.yul\":5262:5916   */\n    tag_13:\n        /* \"#utility.yul\":5340:5346   */\n      0x00\n        /* \"#utility.yul\":5348:5354   */\n      dup1\n        /* \"#utility.yul\":5397:5399   */\n      0x40\n        /* \"#utility.yul\":5385:5394   */\n      dup4\n        /* \"#utility.yul\":5376:5383   */\n      dup6\n        /* \"#utility.yul\":5372:5395   */\n      sub\n        /* \"#utility.yul\":5368:5400   */\n      slt\n        /* \"#utility.yul\":5365:5484   */\n      iszero\n      tag_134\n      jumpi\n        /* \"#utility.yul\":5403:5482   */\n      tag_135\n      tag_28\n      jump\t// in\n    tag_135:\n        /* \"#utility.yul\":5365:5484   */\n    tag_134:\n        /* \"#utility.yul\":5523:5524   */\n      0x00\n        /* \"#utility.yul\":5548:5601   */\n      tag_136\n        /* \"#utility.yul\":5593:5600   */\n      dup6\n        /* \"#utility.yul\":5584:5590   */\n      dup3\n        /* \"#utility.yul\":5573:5582   */\n      dup7\n        /* \"#utility.yul\":5569:5591   */\n      add\n        /* \"#utility.yul\":5548:5601   */\n      tag_42\n      jump\t// in\n    tag_136:\n        /* \"#utility.yul\":5538:5601   */\n      swap3\n      pop\n        /* \"#utility.yul\":5494:5611   */\n      pop\n        /* \"#utility.yul\":5678:5680   */\n      0x20\n        /* \"#utility.yul\":5667:5676   */\n      dup4\n        /* \"#utility.yul\":5663:5681   */\n      add\n        /* \"#utility.yul\":5650:5682   */\n      calldataload\n        /* \"#utility.yul\":5709:5727   */\n      0xffffffffffffffff\n        /* \"#utility.yul\":5701:5707   */\n      dup2\n        /* \"#utility.yul\":5698:5728   */\n      gt\n        /* \"#utility.yul\":5695:5812   */\n      iszero\n      tag_137\n      jumpi\n        /* \"#utility.yul\":5731:5810   */\n      tag_138\n      tag_29\n      jump\t// in\n    tag_138:\n        /* \"#utility.yul\":5695:5812   */\n    tag_137:\n        /* \"#utility.yul\":5836:5899   */\n      tag_139\n        /* \"#utility.yul\":5891:5898   */\n      dup6\n        /* \"#utility.yul\":5882:5888   */\n      dup3\n        /* \"#utility.yul\":5871:5880   */\n      dup7\n        /* \"#utility.yul\":5867:5889   */\n      add\n        /* \"#utility.yul\":5836:5899   */\n      tag_51\n      jump\t// in\n    tag_139:\n        /* \"#utility.yul\":5826:5899   */\n      swap2\n      pop\n        /* \"#utility.yul\":5621:5909   */\n      pop\n        /* \"#utility.yul\":5262:5916   */\n      swap3\n      pop\n      swap3\n      swap1\n      pop\n      jump\t// out\n        /* \"#utility.yul\":5922:6102   */\n    tag_52:\n        /* \"#utility.yul\":5970:6047   */\n      0x4e487b7100000000000000000000000000000000000000000000000000000000\n        /* \"#utility.yul\":5967:5968   */\n      0x00\n        /* \"#utility.yul\":5960:6048   */\n      mstore\n        /* \"#utility.yul\":6067:6071   */\n      0x22\n        /* \"#utility.yul\":6064:6065   */\n      0x04\n        /* \"#utility.yul\":6057:6072   */\n      mstore\n        /* \"#utility.yul\":6091:6095   */\n      0x24\n        /* \"#utility.yul\":6088:6089   */\n      0x00\n        /* \"#utility.yul\":6081:6096   */\n      revert\n        /* \"#utility.yul\":6108:6428   */\n    tag_18:\n        /* \"#utility.yul\":6152:6158   */\n      0x00\n        /* \"#utility.yul\":6189:6190   */\n      0x02\n        /* \"#utility.yul\":6183:6187   */\n      dup3\n        /* \"#utility.yul\":6179:6191   */\n      div\n        /* \"#utility.yul\":6169:6191   */\n      swap1\n      pop\n        /* \"#utility.yul\":6236:6237   */\n      0x01\n        /* \"#utility.yul\":6230:6234   */\n      dup3\n        /* \"#utility.yul\":6226:6238   */\n      and\n        /* \"#utility.yul\":6257:6275   */\n      dup1\n        /* \"#utility.yul\":6247:6328   */\n      tag_142\n      jumpi\n        /* \"#utility.yul\":6313:6317   */\n      0x7f\n        /* \"#utility.yul\":6305:6311   */\n      dup3\n        /* \"#utility.yul\":6301:6318   */\n      and\n        /* \"#utility.yul\":6291:6318   */\n      swap2\n      pop\n        /* \"#utility.yul\":6247:6328   */\n    tag_142:\n        /* \"#utility.yul\":6375:6377   */\n      0x20\n        /* \"#utility.yul\":6367:6373   */\n      dup3\n        /* \"#utility.yul\":6364:6378   */\n      lt\n        /* \"#utility.yul\":6344:6362   */\n      dup2\n        /* \"#utility.yul\":6341:6379   */\n      sub\n        /* \"#utility.yul\":6338:6422   */\n      tag_143\n      jumpi\n        /* \"#utility.yul\":6394:6412   */\n      tag_144\n      tag_52\n      jump\t// in\n    tag_144:\n        /* \"#utility.yul\":6338:6422   */\n    tag_143:\n        /* \"#utility.yul\":6159:6428   */\n      pop\n        /* \"#utility.yul\":6108:6428   */\n      swap2\n      swap1\n      pop\n      jump\t// out\n        /* \"#utility.yul\":6434:6575   */\n    tag_53:\n        /* \"#utility.yul\":6483:6487   */\n      0x00\n        /* \"#utility.yul\":6506:6509   */\n      dup2\n        /* \"#utility.yul\":6498:6509   */\n      swap1\n      pop\n        /* \"#utility.yul\":6529:6532   */\n      dup2\n        /* \"#utility.yul\":6526:6527   */\n      0x00\n        /* \"#utility.yul\":6519:6533   */\n      mstore\n        /* \"#utility.yul\":6563:6567   */\n      0x20\n        /* \"#utility.yul\":6560:6561   */\n      0x00\n        /* \"#utility.yul\":6550:6568   */\n      keccak256\n        /* \"#utility.yul\":6542:6568   */\n      swap1\n      pop\n        /* \"#utility.yul\":6434:6575   */\n      swap2\n      swap1\n      pop\n      jump\t// out\n        /* \"#utility.yul\":6581:6674   */\n    tag_54:\n        /* \"#utility.yul\":6618:6624   */\n      0x00\n        /* \"#utility.yul\":6665:6667   */\n      0x20\n        /* \"#utility.yul\":6660:6662   */\n      0x1f\n        /* \"#utility.yul\":6653:6658   */\n      dup4\n        /* \"#utility.yul\":6649:6663   */\n      add\n        /* \"#utility.yul\":6645:6668   */\n      div\n        /* \"#utility.yul\":6635:6668   */\n      swap1\n      pop\n        /* \"#utility.yul\":6581:6674   */\n      swap2\n      swap1\n      pop\n      jump\t// out\n        /* \"#utility.yul\":6680:6787   */\n    tag_55:\n        /* \"#utility.yul\":6724:6732   */\n      0x00\n        /* \"#utility.yul\":6774:6779   */\n      dup3\n        /* \"#utility.yul\":6768:6772   */\n      dup3\n        /* \"#utility.yul\":6764:6780   */\n      shl\n        /* \"#utility.yul\":6743:6780   */\n      swap1\n      pop\n        /* \"#utility.yul\":6680:6787   */\n      swap3\n      swap2\n      pop\n      pop\n      jump\t// out\n        /* \"#utility.yul\":6793:7186   */\n    tag_56:\n        /* \"#utility.yul\":6862:6868   */\n      0x00\n        /* \"#utility.yul\":6912:6913   */\n      0x08\n        /* \"#utility.yul\":6900:6910   */\n      dup4\n        /* \"#utility.yul\":6896:6914   */\n      mul\n        /* \"#utility.yul\":6935:7032   */\n      tag_149\n        /* \"#utility.yul\":6965:7031   */\n      0xffffffffffffffffffffffffffffffffffffffffffffffffffffffffffffffff\n        /* \"#utility.yul\":6954:6963   */\n      dup3\n        /* \"#utility.yul\":6935:7032   */\n      tag_55\n      jump\t// in\n    tag_149:\n        /* \"#utility.yul\":7053:7092   */\n      tag_150\n        /* \"#utility.yul\":7083:7091   */\n      dup7\n        /* \"#utility.yul\":7072:7081   */\n      dup4\n        /* \"#utility.yul\":7053:7092   */\n      tag_55\n      jump\t// in\n    tag_150:\n        /* \"#utility.yul\":7041:7092   */\n      swap6\n      pop\n        /* \"#utility.yul\":7125:7129   */\n      dup1\n        /* \"#utility.yul\":7121:7130   */\n      not\n        /* \"#utility.yul\":7114:7119   */\n      dup5\n        /* \"#utility.yul\":7110:7131   */\n      and\n        /* \"#utility.yul\":7101:7131   */\n      swap4\n      pop\n        /* \"#utility.yul\":7174:7178   */\n      dup1\n        /* \"#utility.yul\":7164:7172   */\n      dup7\n        /* \"#utility.yul\":7160:7179   */\n      and\n        /* \"#utility.yul\":7153:7158   */\n      dup5\n        /* \"#utility.yul\":7150:7180   */\n      or\n        /* \"#utility.yul\":7140:7180   */\n      swap3\n      pop\n        /* \"#utility.yul\":6869:7186   */\n      pop\n      pop\n        /* \"#utility.yul\":6793:7186   */\n      swap4\n      swap3\n      pop\n      pop\n      pop\n      jump\t// out\n        /* \"#utility.yul\":7192:7252   */\n    tag_57:\n        /* \"#utility.yul\":7220:7223   */\n      0x00\n        /* \"#utility.yul\":7241:7246   */\n      dup2\n        /* \"#utility.yul\":7234:7246   */\n      swap1\n      pop\n        /* \"#utility.yul\":7192:7252   */\n      swap2\n      swap1\n      pop\n      jump\t// out\n        /* \"#utility.yul\":7258:7400   */\n    tag_58:\n        /* \"#utility.yul\":7308:7317   */\n      0x00\n        /* \"#utility.yul\":7341:7394   */\n      tag_153\n        /* \"#utility.yul\":7359:7393   */\n      tag_154\n        /* \"#utility.yul\":7368:7392   */\n      tag_155\n        /* \"#utility.yul\":7386:7391   */\n      dup5\n        /* \"#utility.yul\":7368:7392   */\n      tag_30\n      jump\t// in\n    tag_155:\n        /* \"#utility.yul\":7359:7393   */\n      tag_57\n      jump\t// in\n    tag_154:\n        /* \"#utility.yul\":7341:7394   */\n      tag_30\n      jump\t// in\n    tag_153:\n        /* \"#utility.yul\":7328:7394   */\n      swap1\n      pop\n        /* \"#utility.yul\":7258:7400   */\n      swap2\n      swap1\n      pop\n      jump\t// out\n        /* \"#utility.yul\":7406:7481   */\n    tag_59:\n        /* \"#utility.yul\":7449:7452   */\n      0x00\n        /* \"#utility.yul\":7470:7475   */\n      dup2\n        /* \"#utility.yul\":7463:7475   */\n      swap1\n      pop\n        /* \"#utility.yul\":7406:7481   */\n      swap2\n      swap1\n      pop\n      jump\t// out\n        /* \"#utility.yul\":7487:7756   */\n    tag_60:\n        /* \"#utility.yul\":7597:7636   */\n      tag_158\n        /* \"#utility.yul\":7628:7635   */\n      dup4\n        /* \"#utility.yul\":7597:7636   */\n      tag_58\n      jump\t// in\n    tag_158:\n        /* \"#utility.yul\":7658:7749   */\n      tag_159\n        /* \"#utility.yul\":7707:7748   */\n      tag_160\n        /* \"#utility.yul\":7731:7747   */\n      dup3\n        /* \"#utility.yul\":7707:7748   */\n      tag_59\n      jump\t// in\n    tag_160:\n        /* \"#utility.yul\":7699:7705   */\n      dup5\n        /* \"#utility.yul\":7692:7696   */\n      dup5\n        /* \"#utility.yul\":7686:7697   */\n      sload\n        /* \"#utility.yul\":7658:7749   */\n      tag_56\n      jump\t// in\n    tag_159:\n        /* \"#utility.yul\":7652:7656   */\n      dup3\n        /* \"#utility.yul\":7645:7750   */\n      sstore\n        /* \"#utility.yul\":7563:7756   */\n      pop\n        /* \"#utility.yul\":7487:7756   */\n      pop\n      pop\n      pop\n      jump\t// out\n        /* \"#utility.yul\":7762:7835   */\n    tag_61:\n        /* \"#utility.yul\":7807:7810   */\n      0x00\n        /* \"#utility.yul\":7762:7835   */\n      swap1\n      jump\t// out\n        /* \"#utility.yul\":7841:8030   */\n    tag_62:\n        /* \"#utility.yul\":7918:7950   */\n      tag_163\n      tag_61\n      jump\t// in\n    tag_163:\n        /* \"#utility.yul\":7959:8024   */\n      tag_164\n        /* \"#utility.yul\":8017:8023   */\n      dup2\n        /* \"#utility.yul\":8009:8015   */\n      dup5\n        /* \"#utility.yul\":8003:8007   */\n      dup5\n        /* \"#utility.yul\":7959:8024   */\n      tag_60\n      jump\t// in\n    tag_164:\n        /* \"#utility.yul\":7894:8030   */\n      pop\n        /* \"#utility.yul\":7841:8030   */\n      pop\n      pop\n      jump\t// out\n        /* \"#utility.yul\":8036:8222   */\n    tag_63:\n        /* \"#utility.yul\":8096:8216   */\n    tag_166:\n        /* \"#utility.yul\":8113:8116   */\n      dup2\n        /* \"#utility.yul\":8106:8111   */\n      dup2\n        /* \"#utility.yul\":8103:8117   */\n      lt\n        /* \"#utility.yul\":8096:8216   */\n      iszero\n      tag_168\n      jumpi\n        /* \"#utility.yul\":8167:8206   */\n      tag_169\n        /* \"#utility.yul\":8204:8205   */\n      0x00\n        /* \"#utility.yul\":8197:8202   */\n      dup3\n        /* \"#utility.yul\":8167:8206   */\n      tag_62\n      jump\t// in\n    tag_169:\n        /* \"#utility.yul\":8140:8141   */\n      0x01\n        /* \"#utility.yul\":8133:8138   */\n      dup2\n        /* \"#utility.yul\":8129:8142   */\n      add\n        /* \"#utility.yul\":8120:8142   */\n      swap1\n      pop\n        /* \"#utility.yul\":8096:8216   */\n      jump(tag_166)\n    tag_168:\n        /* \"#utility.yul\":8036:8222   */\n      pop\n      pop\n      jump\t// out\n        /* \"#utility.yul\":8228:8771   */\n    tag_64:\n        /* \"#utility.yul\":8329:8331   */\n      0x1f\n        /* \"#utility.yul\":8324:8327   */\n      dup3\n        /* \"#utility.yul\":8321:8332   */\n      gt\n        /* \"#utility.yul\":8318:8764   */\n      iszero\n      tag_171\n      jumpi\n        /* \"#utility.yul\":8363:8401   */\n      tag_172\n        /* \"#utility.yul\":8395:8400   */\n      dup2\n        /* \"#utility.yul\":8363:8401   */\n      tag_53\n      jump\t// in\n    tag_172:\n        /* \"#utility.yul\":8447:8476   */\n      tag_173\n        /* \"#utility.yul\":8465:8475   */\n      dup5\n        /* \"#utility.yul\":8447:8476   */\n      tag_54\n      jump\t// in\n    tag_173:\n        /* \"#utility.yul\":8437:8445   */\n      dup2\n        /* \"#utility.yul\":8433:8477   */\n      add\n        /* \"#utility.yul\":8630:8632   */\n      0x20\n        /* \"#utility.yul\":8618:8628   */\n      dup6\n        /* \"#utility.yul\":8615:8633   */\n      lt\n        /* \"#utility.yul\":8612:8661   */\n      iszero\n      tag_174\n      jumpi\n        /* \"#utility.yul\":8651:8659   */\n      dup2\n        /* \"#utility.yul\":8636:8659   */\n      swap1\n      pop\n        /* \"#utility.yul\":8612:8661   */\n    tag_174:\n        /* \"#utility.yul\":8674:8754   */\n      tag_175\n        /* \"#utility.yul\":8730:8752   */\n      tag_176\n        /* \"#utility.yul\":8748:8751   */\n      dup6\n        /* \"#utility.yul\":8730:8752   */\n      tag_54\n      jump\t// in\n    tag_176:\n        /* \"#utility.yul\":8720:8728   */\n      dup4\n        /* \"#utility.yul\":8716:8753   */\n      add\n        /* \"#utility.yul\":8703:8714   */\n      dup3\n        /* \"#utility.yul\":8674:8754   */\n      tag_63\n      jump\t// in\n    tag_175:\n        /* \"#utility.yul\":8333:8764   */\n      pop\n      pop\n        /* \"#utility.yul\":8318:8764   */\n    tag_171:\n        /* \"#utility.yul\":8228:8771   */\n      pop\n      pop\n      pop\n      jump\t// out\n        /* \"#utility.yul\":8777:8894   */\n    tag_65:\n        /* \"#utility.yul\":8831:8839   */\n      0x00\n        /* \"#utility.yul\":8881:8886   */\n      dup3\n        /* \"#utility.yul\":8875:8879   */\n      dup3\n        /* \"#utility.yul\":8871:8887   */\n      shr\n        /* \"#utility.yul\":8850:8887   */\n      swap1\n      pop\n        /* \"#utility.yul\":8777:8894   */\n      swap3\n      swap2\n      pop\n      pop\n      jump\t// out\n        /* \"#utility.yul\":8900:9069   */\n    tag_66:\n        /* \"#utility.yul\":8944:8950   */\n      0x00\n        /* \"#utility.yul\":8977:9028   */\n      tag_179\n        /* \"#utility.yul\":9025:9026   */\n      0x00\n        /* \"#utility.yul\":9021:9027   */\n      not\n        /* \"#utility.yul\":9013:9018   */\n      dup5\n        /* \"#utility.yul\":9010:9011   */\n      0x08\n        /* \"#utility.yul\":9006:9019   */\n      mul\n        /* \"#utility.yul\":8977:9028   */\n      tag_65\n      jump\t// in\n    tag_179:\n        /* \"#utility.yul\":8973:9029   */\n      not\n        /* \"#utility.yul\":9058:9062   */\n      dup1\n        /* \"#utility.yul\":9052:9056   */\n      dup4\n        /* \"#utility.yul\":9048:9063   */\n      and\n        /* \"#utility.yul\":9038:9063   */\n      swap2\n      pop\n        /* \"#utility.yul\":8951:9069   */\n      pop\n        /* \"#utility.yul\":8900:9069   */\n      swap3\n      swap2\n      pop\n      pop\n      jump\t// out\n        /* \"#utility.yul\":9074:9369   */\n    tag_67:\n        /* \"#utility.yul\":9150:9154   */\n      0x00\n        /* \"#utility.yul\":9296:9325   */\n      tag_181\n        /* \"#utility.yul\":9321:9324   */\n      dup4\n        /* \"#utility.yul\":9315:9319   */\n      dup4\n        /* \"#utility.yul\":9296:9325   */\n      tag_66\n      jump\t// in\n    tag_181:\n        /* \"#utility.yul\":9288:9325   */\n      swap2\n      pop\n        /* \"#utility.yul\":9358:9361   */\n      dup3\n        /* \"#utility.yul\":9355:9356   */\n      0x02\n        /* \"#utility.yul\":9351:9362   */\n      mul\n        /* \"#utility.yul\":9345:9349   */\n      dup3\n        /* \"#utility.yul\":9342:9363   */\n      or\n        /* \"#utility.yul\":9334:9363   */\n      swap1\n      pop\n        /* \"#utility.yul\":9074:9369   */\n      swap3\n      swap2\n      pop\n      pop\n      jump\t// out\n        /* \"#utility.yul\":9374:10769   */\n    tag_26:\n        /* \"#utility.yul\":9491:9528   */\n      tag_183\n        /* \"#utility.yul\":9524:9527   */\n      dup3\n        /* \"#utility.yul\":9491:9528   */\n      tag_36\n      jump\t// in\n    tag_183:\n        /* \"#utility.yul\":9593:9611   */\n      0xffffffffffffffff\n        /* \"#utility.yul\":9585:9591   */\n      dup2\n        /* \"#utility.yul\":9582:9612   */\n      gt\n        /* \"#utility.yul\":9579:9635   */\n      iszero\n      tag_184\n      jumpi\n        /* \"#utility.yul\":9615:9633   */\n      tag_185\n      tag_45\n      jump\t// in\n    tag_185:\n        /* \"#utility.yul\":9579:9635   */\n    tag_184:\n        /* \"#utility.yul\":9659:9697   */\n      tag_186\n        /* \"#utility.yul\":9691:9695   */\n      dup3\n        /* \"#utility.yul\":9685:9696   */\n      sload\n        /* \"#utility.yul\":9659:9697   */\n      tag_18\n      jump\t// in\n    tag_186:\n        /* \"#utility.yul\":9744:9811   */\n      tag_187\n        /* \"#utility.yul\":9804:9810   */\n      dup3\n        /* \"#utility.yul\":9796:9802   */\n      dup3\n        /* \"#utility.yul\":9790:9794   */\n      dup6\n        /* \"#utility.yul\":9744:9811   */\n      tag_64\n      jump\t// in\n    tag_187:\n        /* \"#utility.yul\":9838:9839   */\n      0x00\n        /* \"#utility.yul\":9862:9866   */\n      0x20\n        /* \"#utility.yul\":9849:9866   */\n      swap1\n      pop\n        /* \"#utility.yul\":9894:9896   */\n      0x1f\n        /* \"#utility.yul\":9886:9892   */\n      dup4\n        /* \"#utility.yul\":9883:9897   */\n      gt\n        /* \"#utility.yul\":9911:9912   */\n      0x01\n        /* \"#utility.yul\":9906:10524   */\n      dup2\n      eq\n      tag_189\n      jumpi\n        /* \"#utility.yul\":10568:10569   */\n      0x00\n        /* \"#utility.yul\":10585:10591   */\n      dup5\n        /* \"#utility.yul\":10582:10659   */\n      iszero\n      tag_190\n      jumpi\n        /* \"#utility.yul\":10634:10643   */\n      dup3\n        /* \"#utility.yul\":10629:10632   */\n      dup8\n        /* \"#utility.yul\":10625:10644   */\n      add\n        /* \"#utility.yul\":10619:10645   */\n      mload\n        /* \"#utility.yul\":10610:10645   */\n      swap1\n      pop\n        /* \"#utility.yul\":10582:10659   */\n    tag_190:\n        /* \"#utility.yul\":10685:10752   */\n      tag_191\n        /* \"#utility.yul\":10745:10751   */\n      dup6\n        /* \"#utility.yul\":10738:10743   */\n      dup3\n        /* \"#utility.yul\":10685:10752   */\n      tag_67\n      jump\t// in\n    tag_191:\n        /* \"#utility.yul\":10679:10683   */\n      dup7\n        /* \"#utility.yul\":10672:10753   */\n      sstore\n        /* \"#utility.yul\":10541:10763   */\n      pop\n        /* \"#utility.yul\":9876:10763   */\n      jump(tag_188)\n        /* \"#utility.yul\":9906:10524   */\n    tag_189:\n        /* \"#utility.yul\":9958:9962   */\n      0x1f\n        /* \"#utility.yul\":9954:9963   */\n      not\n        /* \"#utility.yul\":9946:9952   */\n      dup5\n        /* \"#utility.yul\":9942:9964   */\n      and\n        /* \"#utility.yul\":9992:10029   */\n      tag_192\n        /* \"#utility.yul\":10024:10028   */\n      dup7\n        /* \"#utility.yul\":9992:10029   */\n      tag_53\n      jump\t// in\n    tag_192:\n        /* \"#utility.yul\":10051:10052   */\n      0x00\n        /* \"#utility.yul\":10065:10273   */\n    tag_193:\n        /* \"#utility.yul\":10079:10086   */\n      dup3\n        /* \"#utility.yul\":10076:10077   */\n      dup2\n        /* \"#utility.yul\":10073:10087   */\n      lt\n        /* \"#utility.yul\":10065:10273   */\n      iszero\n      tag_195\n      jumpi\n        /* \"#utility.yul\":10158:10167   */\n      dup5\n        /* \"#utility.yul\":10153:10156   */\n      dup10\n        /* \"#utility.yul\":10149:10168   */\n      add\n        /* \"#utility.yul\":10143:10169   */\n      mload\n        /* \"#utility.yul\":10135:10141   */\n      dup3\n        /* \"#utility.yul\":10128:10170   */\n      sstore\n        /* \"#utility.yul\":10209:10210   */\n      0x01\n        /* \"#utility.yul\":10201:10207   */\n      dup3\n        /* \"#utility.yul\":10197:10211   */\n      add\n        /* \"#utility.yul\":10187:10211   */\n      swap2\n      pop\n        /* \"#utility.yul\":10256:10258   */\n      0x20\n        /* \"#utility.yul\":10245:10254   */\n      dup6\n        /* \"#utility.yul\":10241:10259   */\n      add\n        /* \"#utility.yul\":10228:10259   */\n      swap5\n      pop\n        /* \"#utility.yul\":10102:10106   */\n      0x20\n        /* \"#utility.yul\":10099:10100   */\n      dup2\n        /* \"#utility.yul\":10095:10107   */\n      add\n        /* \"#utility.yul\":10090:10107   */\n      swap1\n      pop\n        /* \"#utility.yul\":10065:10273   */\n      jump(tag_193)\n    tag_195:\n        /* \"#utility.yul\":10301:10307   */\n      dup7\n        /* \"#utility.yul\":10292:10299   */\n      dup4\n        /* \"#utility.yul\":10289:10308   */\n      lt\n        /* \"#utility.yul\":10286:10465   */\n      iszero\n      tag_196\n      jumpi\n        /* \"#utility.yul\":10359:10368   */\n      dup5\n        /* \"#utility.yul\":10354:10357   */\n      dup10\n        /* \"#utility.yul\":10350:10369   */\n      add\n        /* \"#utility.yul\":10344:10370   */\n      mload\n        /* \"#utility.yul\":10402:10450   */\n      tag_197\n        /* \"#utility.yul\":10444:10448   */\n      0x1f\n        /* \"#utility.yul\":10436:10442   */\n      dup10\n        /* \"#utility.yul\":10432:10449   */\n      and\n        /* \"#utility.yul\":10421:10430   */\n      dup3\n        /* \"#utility.yul\":10402:10450   */\n      tag_66\n      jump\t// in\n    tag_197:\n        /* \"#utility.yul\":10394:10400   */\n      dup4\n        /* \"#utility.yul\":10387:10451   */\n      sstore\n        /* \"#utility.yul\":10309:10465   */\n      pop\n        /* \"#utility.yul\":10286:10465   */\n    tag_196:\n        /* \"#utility.yul\":10511:10512   */\n      0x01\n        /* \"#utility.yul\":10507:10508   */\n      0x02\n        /* \"#utility.yul\":10499:10505   */\n      dup9\n        /* \"#utility.yul\":10495:10509   */\n      mul\n        /* \"#utility.yul\":10491:10513   */\n      add\n        /* \"#utility.yul\":10485:10489   */\n      dup9\n        /* \"#utility.yul\":10478:10514   */\n      sstore\n        /* \"#utility.yul\":9913:10524   */\n      pop\n      pop\n      pop\n        /* \"#utility.yul\":9876:10763   */\n    tag_188:\n      pop\n        /* \"#utility.yul\":9466:10769   */\n      pop\n      pop\n      pop\n        /* \"#utility.yul\":9374:10769   */\n      pop\n      pop\n      jump\t// out\n\n    auxdata: 0xa26469706673582212203a990e43509af12c091d6dbece130beb18b60793213fcb5a1a55635e5615f9e164736f6c634300080f0033\n}\n",
				"bytecode": {
					"linkReferences": {},
					"object": "608060405234801561001057600080fd5b50336000806101000a81548173ffffffffffffffffffffffffffffffffffffffff021916908373ffffffffffffffffffffffffffffffffffffffff16021790555061086f806100606000396000f3fe608060405234801561001057600080fd5b50600436106100365760003560e01c8063365b98b21461003b5780634b68d4311461006c575b600080fd5b61005560048036038101906100509190610267565b610088565b60405161006392919061036e565b60405180910390f35b610086600480360381019061008191906104ff565b610164565b005b6001818154811061009857600080fd5b90600052602060002090600202016000915090508060000160009054906101000a900473ffffffffffffffffffffffffffffffffffffffff16908060010180546100e19061058a565b80601f016020809104026020016040519081016040528092919081815260200182805461010d9061058a565b801561015a5780601f1061012f5761010080835404028352916020019161015a565b820191906000526020600020905b81548152906001019060200180831161013d57829003601f168201915b5050505050905082565b600160405180604001604052808473ffffffffffffffffffffffffffffffffffffffff16815260200183815250908060018154018082558091505060019003906000526020600020906002020160009091909190915060008201518160000160006101000a81548173ffffffffffffffffffffffffffffffffffffffff021916908373ffffffffffffffffffffffffffffffffffffffff16021790555060208201518160010190816102169190610767565b5050505050565b6000604051905090565b600080fd5b600080fd5b6000819050919050565b61024481610231565b811461024f57600080fd5b50565b6000813590506102618161023b565b92915050565b60006020828403121561027d5761027c610227565b5b600061028b84828501610252565b91505092915050565b600073ffffffffffffffffffffffffffffffffffffffff82169050919050565b60006102bf82610294565b9050919050565b6102cf816102b4565b82525050565b600081519050919050565b600082825260208201905092915050565b60005b8381101561030f5780820151818401526020810190506102f4565b8381111561031e576000848401525b50505050565b6000601f19601f8301169050919050565b6000610340826102d5565b61034a81856102e0565b935061035a8185602086016102f1565b61036381610324565b840191505092915050565b600060408201905061038360008301856102c6565b81810360208301526103958184610335565b90509392505050565b6103a7816102b4565b81146103b257600080fd5b50565b6000813590506103c48161039e565b92915050565b600080fd5b600080fd5b7f4e487b7100000000000000000000000000000000000000000000000000000000600052604160045260246000fd5b61040c82610324565b810181811067ffffffffffffffff8211171561042b5761042a6103d4565b5b80604052505050565b600061043e61021d565b905061044a8282610403565b919050565b600067ffffffffffffffff82111561046a576104696103d4565b5b61047382610324565b9050602081019050919050565b82818337600083830152505050565b60006104a261049d8461044f565b610434565b9050828152602081018484840111156104be576104bd6103cf565b5b6104c9848285610480565b509392505050565b600082601f8301126104e6576104e56103ca565b5b81356104f684826020860161048f565b91505092915050565b6000806040838503121561051657610515610227565b5b6000610524858286016103b5565b925050602083013567ffffffffffffffff8111156105455761054461022c565b5b610551858286016104d1565b9150509250929050565b7f4e487b7100000000000000000000000000000000000000000000000000000000600052602260045260246000fd5b600060028204905060018216806105a257607f821691505b6020821081036105b5576105b461055b565b5b50919050565b60008190508160005260206000209050919050565b60006020601f8301049050919050565b600082821b905092915050565b60006008830261061d7fffffffffffffffffffffffffffffffffffffffffffffffffffffffffffffffff826105e0565b61062786836105e0565b95508019841693508086168417925050509392505050565b6000819050919050565b600061066461065f61065a84610231565b61063f565b610231565b9050919050565b6000819050919050565b61067e83610649565b61069261068a8261066b565b8484546105ed565b825550505050565b600090565b6106a761069a565b6106b2818484610675565b505050565b5b818110156106d6576106cb60008261069f565b6001810190506106b8565b5050565b601f82111561071b576106ec816105bb565b6106f5846105d0565b81016020851015610704578190505b610718610710856105d0565b8301826106b7565b50505b505050565b600082821c905092915050565b600061073e60001984600802610720565b1980831691505092915050565b6000610757838361072d565b9150826002028217905092915050565b610770826102d5565b67ffffffffffffffff811115610789576107886103d4565b5b610793825461058a565b61079e8282856106da565b600060209050601f8311600181146107d157600084156107bf578287015190505b6107c9858261074b565b865550610831565b601f1984166107df866105bb565b60005b82811015610807578489015182556001820191506020850194506020810190506107e2565b868310156108245784890151610820601f89168261072d565b8355505b6001600288020188555050505b50505050505056fea26469706673582212203a990e43509af12c091d6dbece130beb18b60793213fcb5a1a55635e5615f9e164736f6c634300080f0033",
					"opcodes": "PUSH1 0x80 PUSH1 0x40 MSTORE CALLVALUE DUP1 ISZERO PUSH2 0x10 JUMPI PUSH1 0x0 DUP1 REVERT JUMPDEST POP CALLER PUSH1 0x0 DUP1 PUSH2 0x100 EXP DUP2 SLOAD DUP2 PUSH20 0xFFFFFFFFFFFFFFFFFFFFFFFFFFFFFFFFFFFFFFFF MUL NOT AND SWAP1 DUP4 PUSH20 0xFFFFFFFFFFFFFFFFFFFFFFFFFFFFFFFFFFFFFFFF AND MUL OR SWAP1 SSTORE POP PUSH2 0x86F DUP1 PUSH2 0x60 PUSH1 0x0 CODECOPY PUSH1 0x0 RETURN INVALID PUSH1 0x80 PUSH1 0x40 MSTORE CALLVALUE DUP1 ISZERO PUSH2 0x10 JUMPI PUSH1 0x0 DUP1 REVERT JUMPDEST POP PUSH1 0x4 CALLDATASIZE LT PUSH2 0x36 JUMPI PUSH1 0x0 CALLDATALOAD PUSH1 0xE0 SHR DUP1 PUSH4 0x365B98B2 EQ PUSH2 0x3B JUMPI DUP1 PUSH4 0x4B68D431 EQ PUSH2 0x6C JUMPI JUMPDEST PUSH1 0x0 DUP1 REVERT JUMPDEST PUSH2 0x55 PUSH1 0x4 DUP1 CALLDATASIZE SUB DUP2 ADD SWAP1 PUSH2 0x50 SWAP2 SWAP1 PUSH2 0x267 JUMP JUMPDEST PUSH2 0x88 JUMP JUMPDEST PUSH1 0x40 MLOAD PUSH2 0x63 SWAP3 SWAP2 SWAP1 PUSH2 0x36E JUMP JUMPDEST PUSH1 0x40 MLOAD DUP1 SWAP2 SUB SWAP1 RETURN JUMPDEST PUSH2 0x86 PUSH1 0x4 DUP1 CALLDATASIZE SUB DUP2 ADD SWAP1 PUSH2 0x81 SWAP2 SWAP1 PUSH2 0x4FF JUMP JUMPDEST PUSH2 0x164 JUMP JUMPDEST STOP JUMPDEST PUSH1 0x1 DUP2 DUP2 SLOAD DUP2 LT PUSH2 0x98 JUMPI PUSH1 0x0 DUP1 REVERT JUMPDEST SWAP1 PUSH1 0x0 MSTORE PUSH1 0x20 PUSH1 0x0 KECCAK256 SWAP1 PUSH1 0x2 MUL ADD PUSH1 0x0 SWAP2 POP SWAP1 POP DUP1 PUSH1 0x0 ADD PUSH1 0x0 SWAP1 SLOAD SWAP1 PUSH2 0x100 EXP SWAP1 DIV PUSH20 0xFFFFFFFFFFFFFFFFFFFFFFFFFFFFFFFFFFFFFFFF AND SWAP1 DUP1 PUSH1 0x1 ADD DUP1 SLOAD PUSH2 0xE1 SWAP1 PUSH2 0x58A JUMP JUMPDEST DUP1 PUSH1 0x1F ADD PUSH1 0x20 DUP1 SWAP2 DIV MUL PUSH1 0x20 ADD PUSH1 0x40 MLOAD SWAP1 DUP2 ADD PUSH1 0x40 MSTORE DUP1 SWAP3 SWAP2 SWAP1 DUP2 DUP2 MSTORE PUSH1 0x20 ADD DUP3 DUP1 SLOAD PUSH2 0x10D SWAP1 PUSH2 0x58A JUMP JUMPDEST DUP1 ISZERO PUSH2 0x15A JUMPI DUP1 PUSH1 0x1F LT PUSH2 0x12F JUMPI PUSH2 0x100 DUP1 DUP4 SLOAD DIV MUL DUP4 MSTORE SWAP2 PUSH1 0x20 ADD SWAP2 PUSH2 0x15A JUMP JUMPDEST DUP3 ADD SWAP2 SWAP1 PUSH1 0x0 MSTORE PUSH1 0x20 PUSH1 0x0 KECCAK256 SWAP1 JUMPDEST DUP2 SLOAD DUP2 MSTORE SWAP1 PUSH1 0x1 ADD SWAP1 PUSH1 0x20 ADD DUP1 DUP4 GT PUSH2 0x13D JUMPI DUP3 SWAP1 SUB PUSH1 0x1F AND DUP3 ADD SWAP2 JUMPDEST POP POP POP POP POP SWAP1 POP DUP3 JUMP JUMPDEST PUSH1 0x1 PUSH1 0x40 MLOAD DUP1 PUSH1 0x40 ADD PUSH1 0x40 MSTORE DUP1 DUP5 PUSH20 0xFFFFFFFFFFFFFFFFFFFFFFFFFFFFFFFFFFFFFFFF AND DUP2 MSTORE PUSH1 0x20 ADD DUP4 DUP2 MSTORE POP SWAP1 DUP1 PUSH1 0x1 DUP2 SLOAD ADD DUP1 DUP3 SSTORE DUP1 SWAP2 POP POP PUSH1 0x1 SWAP1 SUB SWAP1 PUSH1 0x0 MSTORE PUSH1 0x20 PUSH1 0x0 KECCAK256 SWAP1 PUSH1 0x2 MUL ADD PUSH1 0x0 SWAP1 SWAP2 SWAP1 SWAP2 SWAP1 SWAP2 POP PUSH1 0x0 DUP3 ADD MLOAD DUP2 PUSH1 0x0 ADD PUSH1 0x0 PUSH2 0x100 EXP DUP2 SLOAD DUP2 PUSH20 0xFFFFFFFFFFFFFFFFFFFFFFFFFFFFFFFFFFFFFFFF MUL NOT AND SWAP1 DUP4 PUSH20 0xFFFFFFFFFFFFFFFFFFFFFFFFFFFFFFFFFFFFFFFF AND MUL OR SWAP1 SSTORE POP PUSH1 0x20 DUP3 ADD MLOAD DUP2 PUSH1 0x1 ADD SWAP1 DUP2 PUSH2 0x216 SWAP2 SWAP1 PUSH2 0x767 JUMP JUMPDEST POP POP POP POP POP JUMP JUMPDEST PUSH1 0x0 PUSH1 0x40 MLOAD SWAP1 POP SWAP1 JUMP JUMPDEST PUSH1 0x0 DUP1 REVERT JUMPDEST PUSH1 0x0 DUP1 REVERT JUMPDEST PUSH1 0x0 DUP2 SWAP1 POP SWAP2 SWAP1 POP JUMP JUMPDEST PUSH2 0x244 DUP2 PUSH2 0x231 JUMP JUMPDEST DUP2 EQ PUSH2 0x24F JUMPI PUSH1 0x0 DUP1 REVERT JUMPDEST POP JUMP JUMPDEST PUSH1 0x0 DUP2 CALLDATALOAD SWAP1 POP PUSH2 0x261 DUP2 PUSH2 0x23B JUMP JUMPDEST SWAP3 SWAP2 POP POP JUMP JUMPDEST PUSH1 0x0 PUSH1 0x20 DUP3 DUP5 SUB SLT ISZERO PUSH2 0x27D JUMPI PUSH2 0x27C PUSH2 0x227 JUMP JUMPDEST JUMPDEST PUSH1 0x0 PUSH2 0x28B DUP5 DUP3 DUP6 ADD PUSH2 0x252 JUMP JUMPDEST SWAP2 POP POP SWAP3 SWAP2 POP POP JUMP JUMPDEST PUSH1 0x0 PUSH20 0xFFFFFFFFFFFFFFFFFFFFFFFFFFFFFFFFFFFFFFFF DUP3 AND SWAP1 POP SWAP2 SWAP1 POP JUMP JUMPDEST PUSH1 0x0 PUSH2 0x2BF DUP3 PUSH2 0x294 JUMP JUMPDEST SWAP1 POP SWAP2 SWAP1 POP JUMP JUMPDEST PUSH2 0x2CF DUP2 PUSH2 0x2B4 JUMP JUMPDEST DUP3 MSTORE POP POP JUMP JUMPDEST PUSH1 0x0 DUP2 MLOAD SWAP1 POP SWAP2 SWAP1 POP JUMP JUMPDEST PUSH1 0x0 DUP3 DUP3 MSTORE PUSH1 0x20 DUP3 ADD SWAP1 POP SWAP3 SWAP2 POP POP JUMP JUMPDEST PUSH1 0x0 JUMPDEST DUP4 DUP2 LT ISZERO PUSH2 0x30F JUMPI DUP1 DUP3 ADD MLOAD DUP2 DUP5 ADD MSTORE PUSH1 0x20 DUP2 ADD SWAP1 POP PUSH2 0x2F4 JUMP JUMPDEST DUP4 DUP2 GT ISZERO PUSH2 0x31E JUMPI PUSH1 0x0 DUP5 DUP5 ADD MSTORE JUMPDEST POP POP POP POP JUMP JUMPDEST PUSH1 0x0 PUSH1 0x1F NOT PUSH1 0x1F DUP4 ADD AND SWAP1 POP SWAP2 SWAP1 POP JUMP JUMPDEST PUSH1 0x0 PUSH2 0x340 DUP3 PUSH2 0x2D5 JUMP JUMPDEST PUSH2 0x34A DUP2 DUP6 PUSH2 0x2E0 JUMP JUMPDEST SWAP4 POP PUSH2 0x35A DUP2 DUP6 PUSH1 0x20 DUP7 ADD PUSH2 0x2F1 JUMP JUMPDEST PUSH2 0x363 DUP2 PUSH2 0x324 JUMP JUMPDEST DUP5 ADD SWAP2 POP POP SWAP3 SWAP2 POP POP JUMP JUMPDEST PUSH1 0x0 PUSH1 0x40 DUP3 ADD SWAP1 POP PUSH2 0x383 PUSH1 0x0 DUP4 ADD DUP6 PUSH2 0x2C6 JUMP JUMPDEST DUP2 DUP2 SUB PUSH1 0x20 DUP4 ADD MSTORE PUSH2 0x395 DUP2 DUP5 PUSH2 0x335 JUMP JUMPDEST SWAP1 POP SWAP4 SWAP3 POP POP POP JUMP JUMPDEST PUSH2 0x3A7 DUP2 PUSH2 0x2B4 JUMP JUMPDEST DUP2 EQ PUSH2 0x3B2 JUMPI PUSH1 0x0 DUP1 REVERT JUMPDEST POP JUMP JUMPDEST PUSH1 0x0 DUP2 CALLDATALOAD SWAP1 POP PUSH2 0x3C4 DUP2 PUSH2 0x39E JUMP JUMPDEST SWAP3 SWAP2 POP POP JUMP JUMPDEST PUSH1 0x0 DUP1 REVERT JUMPDEST PUSH1 0x0 DUP1 REVERT JUMPDEST PUSH32 0x4E487B7100000000000000000000000000000000000000000000000000000000 PUSH1 0x0 MSTORE PUSH1 0x41 PUSH1 0x4 MSTORE PUSH1 0x24 PUSH1 0x0 REVERT JUMPDEST PUSH2 0x40C DUP3 PUSH2 0x324 JUMP JUMPDEST DUP2 ADD DUP2 DUP2 LT PUSH8 0xFFFFFFFFFFFFFFFF DUP3 GT OR ISZERO PUSH2 0x42B JUMPI PUSH2 0x42A PUSH2 0x3D4 JUMP JUMPDEST JUMPDEST DUP1 PUSH1 0x40 MSTORE POP POP POP JUMP JUMPDEST PUSH1 0x0 PUSH2 0x43E PUSH2 0x21D JUMP JUMPDEST SWAP1 POP PUSH2 0x44A DUP3 DUP3 PUSH2 0x403 JUMP JUMPDEST SWAP2 SWAP1 POP JUMP JUMPDEST PUSH1 0x0 PUSH8 0xFFFFFFFFFFFFFFFF DUP3 GT ISZERO PUSH2 0x46A JUMPI PUSH2 0x469 PUSH2 0x3D4 JUMP JUMPDEST JUMPDEST PUSH2 0x473 DUP3 PUSH2 0x324 JUMP JUMPDEST SWAP1 POP PUSH1 0x20 DUP2 ADD SWAP1 POP SWAP2 SWAP1 POP JUMP JUMPDEST DUP3 DUP2 DUP4 CALLDATACOPY PUSH1 0x0 DUP4 DUP4 ADD MSTORE POP POP POP JUMP JUMPDEST PUSH1 0x0 PUSH2 0x4A2 PUSH2 0x49D DUP5 PUSH2 0x44F JUMP JUMPDEST PUSH2 0x434 JUMP JUMPDEST SWAP1 POP DUP3 DUP2 MSTORE PUSH1 0x20 DUP2 ADD DUP5 DUP5 DUP5 ADD GT ISZERO PUSH2 0x4BE JUMPI PUSH2 0x4BD PUSH2 0x3CF JUMP JUMPDEST JUMPDEST PUSH2 0x4C9 DUP5 DUP3 DUP6 PUSH2 0x480 JUMP JUMPDEST POP SWAP4 SWAP3 POP POP POP JUMP JUMPDEST PUSH1 0x0 DUP3 PUSH1 0x1F DUP4 ADD SLT PUSH2 0x4E6 JUMPI PUSH2 0x4E5 PUSH2 0x3CA JUMP JUMPDEST JUMPDEST DUP2 CALLDATALOAD PUSH2 0x4F6 DUP5 DUP3 PUSH1 0x20 DUP7 ADD PUSH2 0x48F JUMP JUMPDEST SWAP2 POP POP SWAP3 SWAP2 POP POP JUMP JUMPDEST PUSH1 0x0 DUP1 PUSH1 0x40 DUP4 DUP6 SUB SLT ISZERO PUSH2 0x516 JUMPI PUSH2 0x515 PUSH2 0x227 JUMP JUMPDEST JUMPDEST PUSH1 0x0 PUSH2 0x524 DUP6 DUP3 DUP7 ADD PUSH2 0x3B5 JUMP JUMPDEST SWAP3 POP POP PUSH1 0x20 DUP4 ADD CALLDATALOAD PUSH8 0xFFFFFFFFFFFFFFFF DUP2 GT ISZERO PUSH2 0x545 JUMPI PUSH2 0x544 PUSH2 0x22C JUMP JUMPDEST JUMPDEST PUSH2 0x551 DUP6 DUP3 DUP7 ADD PUSH2 0x4D1 JUMP JUMPDEST SWAP2 POP POP SWAP3 POP SWAP3 SWAP1 POP JUMP JUMPDEST PUSH32 0x4E487B7100000000000000000000000000000000000000000000000000000000 PUSH1 0x0 MSTORE PUSH1 0x22 PUSH1 0x4 MSTORE PUSH1 0x24 PUSH1 0x0 REVERT JUMPDEST PUSH1 0x0 PUSH1 0x2 DUP3 DIV SWAP1 POP PUSH1 0x1 DUP3 AND DUP1 PUSH2 0x5A2 JUMPI PUSH1 0x7F DUP3 AND SWAP2 POP JUMPDEST PUSH1 0x20 DUP3 LT DUP2 SUB PUSH2 0x5B5 JUMPI PUSH2 0x5B4 PUSH2 0x55B JUMP JUMPDEST JUMPDEST POP SWAP2 SWAP1 POP JUMP JUMPDEST PUSH1 0x0 DUP2 SWAP1 POP DUP2 PUSH1 0x0 MSTORE PUSH1 0x20 PUSH1 0x0 KECCAK256 SWAP1 POP SWAP2 SWAP1 POP JUMP JUMPDEST PUSH1 0x0 PUSH1 0x20 PUSH1 0x1F DUP4 ADD DIV SWAP1 POP SWAP2 SWAP1 POP JUMP JUMPDEST PUSH1 0x0 DUP3 DUP3 SHL SWAP1 POP SWAP3 SWAP2 POP POP JUMP JUMPDEST PUSH1 0x0 PUSH1 0x8 DUP4 MUL PUSH2 0x61D PUSH32 0xFFFFFFFFFFFFFFFFFFFFFFFFFFFFFFFFFFFFFFFFFFFFFFFFFFFFFFFFFFFFFFFF DUP3 PUSH2 0x5E0 JUMP JUMPDEST PUSH2 0x627 DUP7 DUP4 PUSH2 0x5E0 JUMP JUMPDEST SWAP6 POP DUP1 NOT DUP5 AND SWAP4 POP DUP1 DUP7 AND DUP5 OR SWAP3 POP POP POP SWAP4 SWAP3 POP POP POP JUMP JUMPDEST PUSH1 0x0 DUP2 SWAP1 POP SWAP2 SWAP1 POP JUMP JUMPDEST PUSH1 0x0 PUSH2 0x664 PUSH2 0x65F PUSH2 0x65A DUP5 PUSH2 0x231 JUMP JUMPDEST PUSH2 0x63F JUMP JUMPDEST PUSH2 0x231 JUMP JUMPDEST SWAP1 POP SWAP2 SWAP1 POP JUMP JUMPDEST PUSH1 0x0 DUP2 SWAP1 POP SWAP2 SWAP1 POP JUMP JUMPDEST PUSH2 0x67E DUP4 PUSH2 0x649 JUMP JUMPDEST PUSH2 0x692 PUSH2 0x68A DUP3 PUSH2 0x66B JUMP JUMPDEST DUP5 DUP5 SLOAD PUSH2 0x5ED JUMP JUMPDEST DUP3 SSTORE POP POP POP POP JUMP JUMPDEST PUSH1 0x0 SWAP1 JUMP JUMPDEST PUSH2 0x6A7 PUSH2 0x69A JUMP JUMPDEST PUSH2 0x6B2 DUP2 DUP5 DUP5 PUSH2 0x675 JUMP JUMPDEST POP POP POP JUMP JUMPDEST JUMPDEST DUP2 DUP2 LT ISZERO PUSH2 0x6D6 JUMPI PUSH2 0x6CB PUSH1 0x0 DUP3 PUSH2 0x69F JUMP JUMPDEST PUSH1 0x1 DUP2 ADD SWAP1 POP PUSH2 0x6B8 JUMP JUMPDEST POP POP JUMP JUMPDEST PUSH1 0x1F DUP3 GT ISZERO PUSH2 0x71B JUMPI PUSH2 0x6EC DUP2 PUSH2 0x5BB JUMP JUMPDEST PUSH2 0x6F5 DUP5 PUSH2 0x5D0 JUMP JUMPDEST DUP2 ADD PUSH1 0x20 DUP6 LT ISZERO PUSH2 0x704 JUMPI DUP2 SWAP1 POP JUMPDEST PUSH2 0x718 PUSH2 0x710 DUP6 PUSH2 0x5D0 JUMP JUMPDEST DUP4 ADD DUP3 PUSH2 0x6B7 JUMP JUMPDEST POP POP JUMPDEST POP POP POP JUMP JUMPDEST PUSH1 0x0 DUP3 DUP3 SHR SWAP1 POP SWAP3 SWAP2 POP POP JUMP JUMPDEST PUSH1 0x0 PUSH2 0x73E PUSH1 0x0 NOT DUP5 PUSH1 0x8 MUL PUSH2 0x720 JUMP JUMPDEST NOT DUP1 DUP4 AND SWAP2 POP POP SWAP3 SWAP2 POP POP JUMP JUMPDEST PUSH1 0x0 PUSH2 0x757 DUP4 DUP4 PUSH2 0x72D JUMP JUMPDEST SWAP2 POP DUP3 PUSH1 0x2 MUL DUP3 OR SWAP1 POP SWAP3 SWAP2 POP POP JUMP JUMPDEST PUSH2 0x770 DUP3 PUSH2 0x2D5 JUMP JUMPDEST PUSH8 0xFFFFFFFFFFFFFFFF DUP2 GT ISZERO PUSH2 0x789 JUMPI PUSH2 0x788 PUSH2 0x3D4 JUMP JUMPDEST JUMPDEST PUSH2 0x793 DUP3 SLOAD PUSH2 0x58A JUMP JUMPDEST PUSH2 0x79E DUP3 DUP3 DUP6 PUSH2 0x6DA JUMP JUMPDEST PUSH1 0x0 PUSH1 0x20 SWAP1 POP PUSH1 0x1F DUP4 GT PUSH1 0x1 DUP2 EQ PUSH2 0x7D1 JUMPI PUSH1 0x0 DUP5 ISZERO PUSH2 0x7BF JUMPI DUP3 DUP8 ADD MLOAD SWAP1 POP JUMPDEST PUSH2 0x7C9 DUP6 DUP3 PUSH2 0x74B JUMP JUMPDEST DUP7 SSTORE POP PUSH2 0x831 JUMP JUMPDEST PUSH1 0x1F NOT DUP5 AND PUSH2 0x7DF DUP7 PUSH2 0x5BB JUMP JUMPDEST PUSH1 0x0 JUMPDEST DUP3 DUP2 LT ISZERO PUSH2 0x807 JUMPI DUP5 DUP10 ADD MLOAD DUP3 SSTORE PUSH1 0x1 DUP3 ADD SWAP2 POP PUSH1 0x20 DUP6 ADD SWAP5 POP PUSH1 0x20 DUP2 ADD SWAP1 POP PUSH2 0x7E2 JUMP JUMPDEST DUP7 DUP4 LT ISZERO PUSH2 0x824 JUMPI DUP5 DUP10 ADD MLOAD PUSH2 0x820 PUSH1 0x1F DUP10 AND DUP3 PUSH2 0x72D JUMP JUMPDEST DUP4 SSTORE POP JUMPDEST PUSH1 0x1 PUSH1 0x2 DUP9 MUL ADD DUP9 SSTORE POP POP POP JUMPDEST POP POP POP POP POP POP JUMP INVALID LOG2 PUSH5 0x6970667358 0x22 SLT KECCAK256 GASPRICE SWAP10 0xE NUMBER POP SWAP11 CALL 0x2C MULMOD SAR PUSH14 0xBECE130BEB18B60793213FCB5A1A SSTORE PUSH4 0x5E5615F9 0xE1 PUSH5 0x736F6C6343 STOP ADDMOD 0xF STOP CALLER "
				},
				"gasEstimates": {
					"creation": {
						"codeDepositCost": "431800",
						"executionCost": "24734",
						"totalCost": "456534"
					},
					"external": {
						"addUser(address,string)": "infinite",
						"users(uint256)": "infinite"
					}
				},
				"methodIdentifiers": {
					"addUser(address,string)": "4b68d431",
					"users(uint256)": "365b98b2"
				}
			},
			"storageLayout": {
				"storage": [
					{
						"astId": 3,
						"contract": "contracts/Test1.sol:Test1",
						"label": "owner",
						"offset": 0,
						"slot": "0",
						"type": "t_address"
					},
					{
						"astId": 21,
						"contract": "contracts/Test1.sol:Test1",
						"label": "users",
						"offset": 0,
						"slot": "1",
						"type": "t_array(t_struct(User)17_storage)dyn_storage"
					}
				],
				"types": {
					"t_address": {
						"encoding": "inplace",
						"label": "address",
						"numberOfBytes": "20"
					},
					"t_array(t_struct(User)17_storage)dyn_storage": {
						"base": "t_struct(User)17_storage",
						"encoding": "dynamic_array",
						"label": "struct Test1.User[]",
						"numberOfBytes": "32"
					},
					"t_string_storage": {
						"encoding": "bytes",
						"label": "string",
						"numberOfBytes": "32"
					},
					"t_struct(User)17_storage": {
						"encoding": "inplace",
						"label": "struct Test1.User",
						"members": [
							{
								"astId": 14,
								"contract": "contracts/Test1.sol:Test1",
								"label": "walletAddress",
								"offset": 0,
								"slot": "0",
								"type": "t_address"
							},
							{
								"astId": 16,
								"contract": "contracts/Test1.sol:Test1",
								"label": "name",
								"offset": 0,
								"slot": "1",
								"type": "t_string_storage"
							}
						],
						"numberOfBytes": "64"
					}
				}
			},
			"userdoc": {
				"kind": "user",
				"methods": {},
				"version": 1
			}
		}
	}
}