{
	"contracts/Test1.sol": {
		"Test1": {
			"abi": [
				{
					"inputs": [],
					"stateMutability": "nonpayable",
					"type": "constructor"
				},
				{
					"inputs": [
						{
							"internalType": "address",
							"name": "walletAddress",
							"type": "address"
						},
						{
							"internalType": "string",
							"name": "name",
							"type": "string"
						},
						{
							"internalType": "uint256",
							"name": "amount",
							"type": "uint256"
						}
					],
					"name": "addUser",
					"outputs": [],
					"stateMutability": "nonpayable",
					"type": "function"
				},
				{
					"inputs": [
						{
							"internalType": "uint256",
							"name": "",
							"type": "uint256"
						}
					],
					"name": "users",
					"outputs": [
						{
							"internalType": "address",
							"name": "walletAddress",
							"type": "address"
						},
						{
							"internalType": "string",
							"name": "name",
							"type": "string"
						},
						{
							"internalType": "uint256",
							"name": "amount",
							"type": "uint256"
						}
					],
					"stateMutability": "view",
					"type": "function"
				}
			],
			"devdoc": {
				"kind": "dev",
				"methods": {},
				"version": 1
			},
			"evm": {
				"assembly": "    /* \"contracts/Test1.sol\":65:431  contract Test1{... */\n  mstore(0x40, 0x80)\n    /* \"contracts/Test1.sol\":106:154  constructor(){... */\n  callvalue\n  dup1\n  iszero\n  tag_1\n  jumpi\n  0x00\n  dup1\n  revert\ntag_1:\n  pop\n    /* \"contracts/Test1.sol\":137:147  msg.sender */\n  caller\n    /* \"contracts/Test1.sol\":129:134  owner */\n  0x00\n  dup1\n    /* \"contracts/Test1.sol\":129:147  owner = msg.sender */\n  0x0100\n  exp\n  dup2\n  sload\n  dup2\n  0xffffffffffffffffffffffffffffffffffffffff\n  mul\n  not\n  and\n  swap1\n  dup4\n  0xffffffffffffffffffffffffffffffffffffffff\n  and\n  mul\n  or\n  swap1\n  sstore\n  pop\n    /* \"contracts/Test1.sol\":65:431  contract Test1{... */\n  dataSize(sub_0)\n  dup1\n  dataOffset(sub_0)\n  0x00\n  codecopy\n  0x00\n  return\nstop\n\nsub_0: assembly {\n        /* \"contracts/Test1.sol\":65:431  contract Test1{... */\n      mstore(0x40, 0x80)\n      callvalue\n      dup1\n      iszero\n      tag_1\n      jumpi\n      0x00\n      dup1\n      revert\n    tag_1:\n      pop\n      jumpi(tag_2, lt(calldatasize, 0x04))\n      shr(0xe0, calldataload(0x00))\n      dup1\n      0x365b98b2\n      eq\n      tag_3\n      jumpi\n      dup1\n      0xf0384fb6\n      eq\n      tag_4\n      jumpi\n    tag_2:\n      0x00\n      dup1\n      revert\n        /* \"contracts/Test1.sol\":257:276  User[] public users */\n    tag_3:\n      tag_5\n      0x04\n      dup1\n      calldatasize\n      sub\n      dup2\n      add\n      swap1\n      tag_6\n      swap2\n      swap1\n      tag_7\n      jump\t// in\n    tag_6:\n      tag_8\n      jump\t// in\n    tag_5:\n      mload(0x40)\n      tag_9\n      swap4\n      swap3\n      swap2\n      swap1\n      tag_10\n      jump\t// in\n    tag_9:\n      mload(0x40)\n      dup1\n      swap2\n      sub\n      swap1\n      return\n        /* \"contracts/Test1.sol\":283:425  function addUser(address walletAddress, string memory name, uint amount) public {... */\n    tag_4:\n      tag_11\n      0x04\n      dup1\n      calldatasize\n      sub\n      dup2\n      add\n      swap1\n      tag_12\n      swap2\n      swap1\n      tag_13\n      jump\t// in\n    tag_12:\n      tag_14\n      jump\t// in\n    tag_11:\n      stop\n        /* \"contracts/Test1.sol\":257:276  User[] public users */\n    tag_8:\n      0x01\n      dup2\n      dup2\n      sload\n      dup2\n      lt\n      tag_15\n      jumpi\n      0x00\n      dup1\n      revert\n    tag_15:\n      swap1\n      0x00\n      mstore\n      keccak256(0x00, 0x20)\n      swap1\n      0x03\n      mul\n      add\n      0x00\n      swap2\n      pop\n      swap1\n      pop\n      dup1\n      0x00\n      add\n      0x00\n      swap1\n      sload\n      swap1\n      0x0100\n      exp\n      swap1\n      div\n      0xffffffffffffffffffffffffffffffffffffffff\n      and\n      swap1\n      dup1\n      0x01\n      add\n      dup1\n      sload\n      tag_17\n      swap1\n      tag_18\n      jump\t// in\n    tag_17:\n      dup1\n      0x1f\n      add\n      0x20\n      dup1\n      swap2\n      div\n      mul\n      0x20\n      add\n      mload(0x40)\n      swap1\n      dup2\n      add\n      0x40\n      mstore\n      dup1\n      swap3\n      swap2\n      swap1\n      dup2\n      dup2\n      mstore\n      0x20\n      add\n      dup3\n      dup1\n      sload\n      tag_19\n      swap1\n      tag_18\n      jump\t// in\n    tag_19:\n      dup1\n      iszero\n      tag_20\n      jumpi\n      dup1\n      0x1f\n      lt\n      tag_21\n      jumpi\n      0x0100\n      dup1\n      dup4\n      sload\n      div\n      mul\n      dup4\n      mstore\n      swap2\n      0x20\n      add\n      swap2\n      jump(tag_20)\n    tag_21:\n      dup3\n      add\n      swap2\n      swap1\n      0x00\n      mstore\n      keccak256(0x00, 0x20)\n      swap1\n    tag_22:\n      dup2\n      sload\n      dup2\n      mstore\n      swap1\n      0x01\n      add\n      swap1\n      0x20\n      add\n      dup1\n      dup4\n      gt\n      tag_22\n      jumpi\n      dup3\n      swap1\n      sub\n      0x1f\n      and\n      dup3\n      add\n      swap2\n    tag_20:\n      pop\n      pop\n      pop\n      pop\n      pop\n      swap1\n      dup1\n      0x02\n      add\n      sload\n      swap1\n      pop\n      dup4\n      jump\t// out\n        /* \"contracts/Test1.sol\":283:425  function addUser(address walletAddress, string memory name, uint amount) public {... */\n    tag_14:\n        /* \"contracts/Test1.sol\":373:378  users */\n      0x01\n        /* \"contracts/Test1.sol\":384:417  User(walletAddress, name, amount) */\n      mload(0x40)\n      dup1\n      0x60\n      add\n      0x40\n      mstore\n      dup1\n        /* \"contracts/Test1.sol\":389:402  walletAddress */\n      dup6\n        /* \"contracts/Test1.sol\":384:417  User(walletAddress, name, amount) */\n      0xffffffffffffffffffffffffffffffffffffffff\n      and\n      dup2\n      mstore\n      0x20\n      add\n        /* \"contracts/Test1.sol\":404:408  name */\n      dup5\n        /* \"contracts/Test1.sol\":384:417  User(walletAddress, name, amount) */\n      dup2\n      mstore\n      0x20\n      add\n        /* \"contracts/Test1.sol\":410:416  amount */\n      dup4\n        /* \"contracts/Test1.sol\":384:417  User(walletAddress, name, amount) */\n      dup2\n      mstore\n      pop\n        /* \"contracts/Test1.sol\":373:418  users.push(User(walletAddress, name, amount)) */\n      swap1\n      dup1\n      0x01\n      dup2\n      sload\n      add\n      dup1\n      dup3\n      sstore\n      dup1\n      swap2\n      pop\n      pop\n      0x01\n      swap1\n      sub\n      swap1\n      0x00\n      mstore\n      keccak256(0x00, 0x20)\n      swap1\n      0x03\n      mul\n      add\n      0x00\n      swap1\n      swap2\n      swap1\n      swap2\n      swap1\n      swap2\n      pop\n      0x00\n      dup3\n      add\n      mload\n      dup2\n      0x00\n      add\n      exp(0x0100, 0x00)\n      dup2\n      sload\n      dup2\n      0xffffffffffffffffffffffffffffffffffffffff\n      mul\n      not\n      and\n      swap1\n      dup4\n      0xffffffffffffffffffffffffffffffffffffffff\n      and\n      mul\n      or\n      swap1\n      sstore\n      pop\n      0x20\n      dup3\n      add\n      mload\n      dup2\n      0x01\n      add\n      swap1\n      dup2\n      tag_25\n      swap2\n      swap1\n      tag_26\n      jump\t// in\n    tag_25:\n      pop\n      0x40\n      dup3\n      add\n      mload\n      dup2\n      0x02\n      add\n      sstore\n      pop\n      pop\n        /* \"contracts/Test1.sol\":283:425  function addUser(address walletAddress, string memory name, uint amount) public {... */\n      pop\n      pop\n      pop\n      jump\t// out\n        /* \"#utility.yul\":7:82   */\n    tag_27:\n        /* \"#utility.yul\":40:46   */\n      0x00\n        /* \"#utility.yul\":73:75   */\n      0x40\n        /* \"#utility.yul\":67:76   */\n      mload\n        /* \"#utility.yul\":57:76   */\n      swap1\n      pop\n        /* \"#utility.yul\":7:82   */\n      swap1\n      jump\t// out\n        /* \"#utility.yul\":88:205   */\n    tag_28:\n        /* \"#utility.yul\":197:198   */\n      0x00\n        /* \"#utility.yul\":194:195   */\n      dup1\n        /* \"#utility.yul\":187:199   */\n      revert\n        /* \"#utility.yul\":211:328   */\n    tag_29:\n        /* \"#utility.yul\":320:321   */\n      0x00\n        /* \"#utility.yul\":317:318   */\n      dup1\n        /* \"#utility.yul\":310:322   */\n      revert\n        /* \"#utility.yul\":334:411   */\n    tag_30:\n        /* \"#utility.yul\":371:378   */\n      0x00\n        /* \"#utility.yul\":400:405   */\n      dup2\n        /* \"#utility.yul\":389:405   */\n      swap1\n      pop\n        /* \"#utility.yul\":334:411   */\n      swap2\n      swap1\n      pop\n      jump\t// out\n        /* \"#utility.yul\":417:539   */\n    tag_31:\n        /* \"#utility.yul\":490:514   */\n      tag_75\n        /* \"#utility.yul\":508:513   */\n      dup2\n        /* \"#utility.yul\":490:514   */\n      tag_30\n      jump\t// in\n    tag_75:\n        /* \"#utility.yul\":483:488   */\n      dup2\n        /* \"#utility.yul\":480:515   */\n      eq\n        /* \"#utility.yul\":470:533   */\n      tag_76\n      jumpi\n        /* \"#utility.yul\":529:530   */\n      0x00\n        /* \"#utility.yul\":526:527   */\n      dup1\n        /* \"#utility.yul\":519:531   */\n      revert\n        /* \"#utility.yul\":470:533   */\n    tag_76:\n        /* \"#utility.yul\":417:539   */\n      pop\n      jump\t// out\n        /* \"#utility.yul\":545:684   */\n    tag_32:\n        /* \"#utility.yul\":591:596   */\n      0x00\n        /* \"#utility.yul\":629:635   */\n      dup2\n        /* \"#utility.yul\":616:636   */\n      calldataload\n        /* \"#utility.yul\":607:636   */\n      swap1\n      pop\n        /* \"#utility.yul\":645:678   */\n      tag_78\n        /* \"#utility.yul\":672:677   */\n      dup2\n        /* \"#utility.yul\":645:678   */\n      tag_31\n      jump\t// in\n    tag_78:\n        /* \"#utility.yul\":545:684   */\n      swap3\n      swap2\n      pop\n      pop\n      jump\t// out\n        /* \"#utility.yul\":690:1019   */\n    tag_7:\n        /* \"#utility.yul\":749:755   */\n      0x00\n        /* \"#utility.yul\":798:800   */\n      0x20\n        /* \"#utility.yul\":786:795   */\n      dup3\n        /* \"#utility.yul\":777:784   */\n      dup5\n        /* \"#utility.yul\":773:796   */\n      sub\n        /* \"#utility.yul\":769:801   */\n      slt\n        /* \"#utility.yul\":766:885   */\n      iszero\n      tag_80\n      jumpi\n        /* \"#utility.yul\":804:883   */\n      tag_81\n      tag_28\n      jump\t// in\n    tag_81:\n        /* \"#utility.yul\":766:885   */\n    tag_80:\n        /* \"#utility.yul\":924:925   */\n      0x00\n        /* \"#utility.yul\":949:1002   */\n      tag_82\n        /* \"#utility.yul\":994:1001   */\n      dup5\n        /* \"#utility.yul\":985:991   */\n      dup3\n        /* \"#utility.yul\":974:983   */\n      dup6\n        /* \"#utility.yul\":970:992   */\n      add\n        /* \"#utility.yul\":949:1002   */\n      tag_32\n      jump\t// in\n    tag_82:\n        /* \"#utility.yul\":939:1002   */\n      swap2\n      pop\n        /* \"#utility.yul\":895:1012   */\n      pop\n        /* \"#utility.yul\":690:1019   */\n      swap3\n      swap2\n      pop\n      pop\n      jump\t// out\n        /* \"#utility.yul\":1025:1151   */\n    tag_33:\n        /* \"#utility.yul\":1062:1069   */\n      0x00\n        /* \"#utility.yul\":1102:1144   */\n      0xffffffffffffffffffffffffffffffffffffffff\n        /* \"#utility.yul\":1095:1100   */\n      dup3\n        /* \"#utility.yul\":1091:1145   */\n      and\n        /* \"#utility.yul\":1080:1145   */\n      swap1\n      pop\n        /* \"#utility.yul\":1025:1151   */\n      swap2\n      swap1\n      pop\n      jump\t// out\n        /* \"#utility.yul\":1157:1253   */\n    tag_34:\n        /* \"#utility.yul\":1194:1201   */\n      0x00\n        /* \"#utility.yul\":1223:1247   */\n      tag_85\n        /* \"#utility.yul\":1241:1246   */\n      dup3\n        /* \"#utility.yul\":1223:1247   */\n      tag_33\n      jump\t// in\n    tag_85:\n        /* \"#utility.yul\":1212:1247   */\n      swap1\n      pop\n        /* \"#utility.yul\":1157:1253   */\n      swap2\n      swap1\n      pop\n      jump\t// out\n        /* \"#utility.yul\":1259:1377   */\n    tag_35:\n        /* \"#utility.yul\":1346:1370   */\n      tag_87\n        /* \"#utility.yul\":1364:1369   */\n      dup2\n        /* \"#utility.yul\":1346:1370   */\n      tag_34\n      jump\t// in\n    tag_87:\n        /* \"#utility.yul\":1341:1344   */\n      dup3\n        /* \"#utility.yul\":1334:1371   */\n      mstore\n        /* \"#utility.yul\":1259:1377   */\n      pop\n      pop\n      jump\t// out\n        /* \"#utility.yul\":1383:1482   */\n    tag_36:\n        /* \"#utility.yul\":1435:1441   */\n      0x00\n        /* \"#utility.yul\":1469:1474   */\n      dup2\n        /* \"#utility.yul\":1463:1475   */\n      mload\n        /* \"#utility.yul\":1453:1475   */\n      swap1\n      pop\n        /* \"#utility.yul\":1383:1482   */\n      swap2\n      swap1\n      pop\n      jump\t// out\n        /* \"#utility.yul\":1488:1657   */\n    tag_37:\n        /* \"#utility.yul\":1572:1583   */\n      0x00\n        /* \"#utility.yul\":1606:1612   */\n      dup3\n        /* \"#utility.yul\":1601:1604   */\n      dup3\n        /* \"#utility.yul\":1594:1613   */\n      mstore\n        /* \"#utility.yul\":1646:1650   */\n      0x20\n        /* \"#utility.yul\":1641:1644   */\n      dup3\n        /* \"#utility.yul\":1637:1651   */\n      add\n        /* \"#utility.yul\":1622:1651   */\n      swap1\n      pop\n        /* \"#utility.yul\":1488:1657   */\n      swap3\n      swap2\n      pop\n      pop\n      jump\t// out\n        /* \"#utility.yul\":1663:1970   */\n    tag_38:\n        /* \"#utility.yul\":1731:1732   */\n      0x00\n        /* \"#utility.yul\":1741:1854   */\n    tag_91:\n        /* \"#utility.yul\":1755:1761   */\n      dup4\n        /* \"#utility.yul\":1752:1753   */\n      dup2\n        /* \"#utility.yul\":1749:1762   */\n      lt\n        /* \"#utility.yul\":1741:1854   */\n      iszero\n      tag_93\n      jumpi\n        /* \"#utility.yul\":1840:1841   */\n      dup1\n        /* \"#utility.yul\":1835:1838   */\n      dup3\n        /* \"#utility.yul\":1831:1842   */\n      add\n        /* \"#utility.yul\":1825:1843   */\n      mload\n        /* \"#utility.yul\":1821:1822   */\n      dup2\n        /* \"#utility.yul\":1816:1819   */\n      dup5\n        /* \"#utility.yul\":1812:1823   */\n      add\n        /* \"#utility.yul\":1805:1844   */\n      mstore\n        /* \"#utility.yul\":1777:1779   */\n      0x20\n        /* \"#utility.yul\":1774:1775   */\n      dup2\n        /* \"#utility.yul\":1770:1780   */\n      add\n        /* \"#utility.yul\":1765:1780   */\n      swap1\n      pop\n        /* \"#utility.yul\":1741:1854   */\n      jump(tag_91)\n    tag_93:\n        /* \"#utility.yul\":1872:1878   */\n      dup4\n        /* \"#utility.yul\":1869:1870   */\n      dup2\n        /* \"#utility.yul\":1866:1879   */\n      gt\n        /* \"#utility.yul\":1863:1964   */\n      iszero\n      tag_94\n      jumpi\n        /* \"#utility.yul\":1952:1953   */\n      0x00\n        /* \"#utility.yul\":1943:1949   */\n      dup5\n        /* \"#utility.yul\":1938:1941   */\n      dup5\n        /* \"#utility.yul\":1934:1950   */\n      add\n        /* \"#utility.yul\":1927:1954   */\n      mstore\n        /* \"#utility.yul\":1863:1964   */\n    tag_94:\n        /* \"#utility.yul\":1712:1970   */\n      pop\n        /* \"#utility.yul\":1663:1970   */\n      pop\n      pop\n      pop\n      jump\t// out\n        /* \"#utility.yul\":1976:2078   */\n    tag_39:\n        /* \"#utility.yul\":2017:2023   */\n      0x00\n        /* \"#utility.yul\":2068:2070   */\n      0x1f\n        /* \"#utility.yul\":2064:2071   */\n      not\n        /* \"#utility.yul\":2059:2061   */\n      0x1f\n        /* \"#utility.yul\":2052:2057   */\n      dup4\n        /* \"#utility.yul\":2048:2062   */\n      add\n        /* \"#utility.yul\":2044:2072   */\n      and\n        /* \"#utility.yul\":2034:2072   */\n      swap1\n      pop\n        /* \"#utility.yul\":1976:2078   */\n      swap2\n      swap1\n      pop\n      jump\t// out\n        /* \"#utility.yul\":2084:2448   */\n    tag_40:\n        /* \"#utility.yul\":2172:2175   */\n      0x00\n        /* \"#utility.yul\":2200:2239   */\n      tag_97\n        /* \"#utility.yul\":2233:2238   */\n      dup3\n        /* \"#utility.yul\":2200:2239   */\n      tag_36\n      jump\t// in\n    tag_97:\n        /* \"#utility.yul\":2255:2326   */\n      tag_98\n        /* \"#utility.yul\":2319:2325   */\n      dup2\n        /* \"#utility.yul\":2314:2317   */\n      dup6\n        /* \"#utility.yul\":2255:2326   */\n      tag_37\n      jump\t// in\n    tag_98:\n        /* \"#utility.yul\":2248:2326   */\n      swap4\n      pop\n        /* \"#utility.yul\":2335:2387   */\n      tag_99\n        /* \"#utility.yul\":2380:2386   */\n      dup2\n        /* \"#utility.yul\":2375:2378   */\n      dup6\n        /* \"#utility.yul\":2368:2372   */\n      0x20\n        /* \"#utility.yul\":2361:2366   */\n      dup7\n        /* \"#utility.yul\":2357:2373   */\n      add\n        /* \"#utility.yul\":2335:2387   */\n      tag_38\n      jump\t// in\n    tag_99:\n        /* \"#utility.yul\":2412:2441   */\n      tag_100\n        /* \"#utility.yul\":2434:2440   */\n      dup2\n        /* \"#utility.yul\":2412:2441   */\n      tag_39\n      jump\t// in\n    tag_100:\n        /* \"#utility.yul\":2407:2410   */\n      dup5\n        /* \"#utility.yul\":2403:2442   */\n      add\n        /* \"#utility.yul\":2396:2442   */\n      swap2\n      pop\n        /* \"#utility.yul\":2176:2448   */\n      pop\n        /* \"#utility.yul\":2084:2448   */\n      swap3\n      swap2\n      pop\n      pop\n      jump\t// out\n        /* \"#utility.yul\":2454:2572   */\n    tag_41:\n        /* \"#utility.yul\":2541:2565   */\n      tag_102\n        /* \"#utility.yul\":2559:2564   */\n      dup2\n        /* \"#utility.yul\":2541:2565   */\n      tag_30\n      jump\t// in\n    tag_102:\n        /* \"#utility.yul\":2536:2539   */\n      dup3\n        /* \"#utility.yul\":2529:2566   */\n      mstore\n        /* \"#utility.yul\":2454:2572   */\n      pop\n      pop\n      jump\t// out\n        /* \"#utility.yul\":2578:3111   */\n    tag_10:\n        /* \"#utility.yul\":2747:2751   */\n      0x00\n        /* \"#utility.yul\":2785:2787   */\n      0x60\n        /* \"#utility.yul\":2774:2783   */\n      dup3\n        /* \"#utility.yul\":2770:2788   */\n      add\n        /* \"#utility.yul\":2762:2788   */\n      swap1\n      pop\n        /* \"#utility.yul\":2798:2869   */\n      tag_104\n        /* \"#utility.yul\":2866:2867   */\n      0x00\n        /* \"#utility.yul\":2855:2864   */\n      dup4\n        /* \"#utility.yul\":2851:2868   */\n      add\n        /* \"#utility.yul\":2842:2848   */\n      dup7\n        /* \"#utility.yul\":2798:2869   */\n      tag_35\n      jump\t// in\n    tag_104:\n        /* \"#utility.yul\":2916:2925   */\n      dup2\n        /* \"#utility.yul\":2910:2914   */\n      dup2\n        /* \"#utility.yul\":2906:2926   */\n      sub\n        /* \"#utility.yul\":2901:2903   */\n      0x20\n        /* \"#utility.yul\":2890:2899   */\n      dup4\n        /* \"#utility.yul\":2886:2904   */\n      add\n        /* \"#utility.yul\":2879:2927   */\n      mstore\n        /* \"#utility.yul\":2944:3022   */\n      tag_105\n        /* \"#utility.yul\":3017:3021   */\n      dup2\n        /* \"#utility.yul\":3008:3014   */\n      dup6\n        /* \"#utility.yul\":2944:3022   */\n      tag_40\n      jump\t// in\n    tag_105:\n        /* \"#utility.yul\":2936:3022   */\n      swap1\n      pop\n        /* \"#utility.yul\":3032:3104   */\n      tag_106\n        /* \"#utility.yul\":3100:3102   */\n      0x40\n        /* \"#utility.yul\":3089:3098   */\n      dup4\n        /* \"#utility.yul\":3085:3103   */\n      add\n        /* \"#utility.yul\":3076:3082   */\n      dup5\n        /* \"#utility.yul\":3032:3104   */\n      tag_41\n      jump\t// in\n    tag_106:\n        /* \"#utility.yul\":2578:3111   */\n      swap5\n      swap4\n      pop\n      pop\n      pop\n      pop\n      jump\t// out\n        /* \"#utility.yul\":3117:3239   */\n    tag_42:\n        /* \"#utility.yul\":3190:3214   */\n      tag_108\n        /* \"#utility.yul\":3208:3213   */\n      dup2\n        /* \"#utility.yul\":3190:3214   */\n      tag_34\n      jump\t// in\n    tag_108:\n        /* \"#utility.yul\":3183:3188   */\n      dup2\n        /* \"#utility.yul\":3180:3215   */\n      eq\n        /* \"#utility.yul\":3170:3233   */\n      tag_109\n      jumpi\n        /* \"#utility.yul\":3229:3230   */\n      0x00\n        /* \"#utility.yul\":3226:3227   */\n      dup1\n        /* \"#utility.yul\":3219:3231   */\n      revert\n        /* \"#utility.yul\":3170:3233   */\n    tag_109:\n        /* \"#utility.yul\":3117:3239   */\n      pop\n      jump\t// out\n        /* \"#utility.yul\":3245:3384   */\n    tag_43:\n        /* \"#utility.yul\":3291:3296   */\n      0x00\n        /* \"#utility.yul\":3329:3335   */\n      dup2\n        /* \"#utility.yul\":3316:3336   */\n      calldataload\n        /* \"#utility.yul\":3307:3336   */\n      swap1\n      pop\n        /* \"#utility.yul\":3345:3378   */\n      tag_111\n        /* \"#utility.yul\":3372:3377   */\n      dup2\n        /* \"#utility.yul\":3345:3378   */\n      tag_42\n      jump\t// in\n    tag_111:\n        /* \"#utility.yul\":3245:3384   */\n      swap3\n      swap2\n      pop\n      pop\n      jump\t// out\n        /* \"#utility.yul\":3390:3507   */\n    tag_44:\n        /* \"#utility.yul\":3499:3500   */\n      0x00\n        /* \"#utility.yul\":3496:3497   */\n      dup1\n        /* \"#utility.yul\":3489:3501   */\n      revert\n        /* \"#utility.yul\":3513:3630   */\n    tag_45:\n        /* \"#utility.yul\":3622:3623   */\n      0x00\n        /* \"#utility.yul\":3619:3620   */\n      dup1\n        /* \"#utility.yul\":3612:3624   */\n      revert\n        /* \"#utility.yul\":3636:3816   */\n    tag_46:\n        /* \"#utility.yul\":3684:3761   */\n      0x4e487b7100000000000000000000000000000000000000000000000000000000\n        /* \"#utility.yul\":3681:3682   */\n      0x00\n        /* \"#utility.yul\":3674:3762   */\n      mstore\n        /* \"#utility.yul\":3781:3785   */\n      0x41\n        /* \"#utility.yul\":3778:3779   */\n      0x04\n        /* \"#utility.yul\":3771:3786   */\n      mstore\n        /* \"#utility.yul\":3805:3809   */\n      0x24\n        /* \"#utility.yul\":3802:3803   */\n      0x00\n        /* \"#utility.yul\":3795:3810   */\n      revert\n        /* \"#utility.yul\":3822:4103   */\n    tag_47:\n        /* \"#utility.yul\":3905:3932   */\n      tag_116\n        /* \"#utility.yul\":3927:3931   */\n      dup3\n        /* \"#utility.yul\":3905:3932   */\n      tag_39\n      jump\t// in\n    tag_116:\n        /* \"#utility.yul\":3897:3903   */\n      dup2\n        /* \"#utility.yul\":3893:3933   */\n      add\n        /* \"#utility.yul\":4035:4041   */\n      dup2\n        /* \"#utility.yul\":4023:4033   */\n      dup2\n        /* \"#utility.yul\":4020:4042   */\n      lt\n        /* \"#utility.yul\":3999:4017   */\n      0xffffffffffffffff\n        /* \"#utility.yul\":3987:3997   */\n      dup3\n        /* \"#utility.yul\":3984:4018   */\n      gt\n        /* \"#utility.yul\":3981:4043   */\n      or\n        /* \"#utility.yul\":3978:4066   */\n      iszero\n      tag_117\n      jumpi\n        /* \"#utility.yul\":4046:4064   */\n      tag_118\n      tag_46\n      jump\t// in\n    tag_118:\n        /* \"#utility.yul\":3978:4066   */\n    tag_117:\n        /* \"#utility.yul\":4086:4096   */\n      dup1\n        /* \"#utility.yul\":4082:4084   */\n      0x40\n        /* \"#utility.yul\":4075:4097   */\n      mstore\n        /* \"#utility.yul\":3865:4103   */\n      pop\n        /* \"#utility.yul\":3822:4103   */\n      pop\n      pop\n      jump\t// out\n        /* \"#utility.yul\":4109:4238   */\n    tag_48:\n        /* \"#utility.yul\":4143:4149   */\n      0x00\n        /* \"#utility.yul\":4170:4190   */\n      tag_120\n      tag_27\n      jump\t// in\n    tag_120:\n        /* \"#utility.yul\":4160:4190   */\n      swap1\n      pop\n        /* \"#utility.yul\":4199:4232   */\n      tag_121\n        /* \"#utility.yul\":4227:4231   */\n      dup3\n        /* \"#utility.yul\":4219:4225   */\n      dup3\n        /* \"#utility.yul\":4199:4232   */\n      tag_47\n      jump\t// in\n    tag_121:\n        /* \"#utility.yul\":4109:4238   */\n      swap2\n      swap1\n      pop\n      jump\t// out\n        /* \"#utility.yul\":4244:4552   */\n    tag_49:\n        /* \"#utility.yul\":4306:4310   */\n      0x00\n        /* \"#utility.yul\":4396:4414   */\n      0xffffffffffffffff\n        /* \"#utility.yul\":4388:4394   */\n      dup3\n        /* \"#utility.yul\":4385:4415   */\n      gt\n        /* \"#utility.yul\":4382:4438   */\n      iszero\n      tag_123\n      jumpi\n        /* \"#utility.yul\":4418:4436   */\n      tag_124\n      tag_46\n      jump\t// in\n    tag_124:\n        /* \"#utility.yul\":4382:4438   */\n    tag_123:\n        /* \"#utility.yul\":4456:4485   */\n      tag_125\n        /* \"#utility.yul\":4478:4484   */\n      dup3\n        /* \"#utility.yul\":4456:4485   */\n      tag_39\n      jump\t// in\n    tag_125:\n        /* \"#utility.yul\":4448:4485   */\n      swap1\n      pop\n        /* \"#utility.yul\":4540:4544   */\n      0x20\n        /* \"#utility.yul\":4534:4538   */\n      dup2\n        /* \"#utility.yul\":4530:4545   */\n      add\n        /* \"#utility.yul\":4522:4545   */\n      swap1\n      pop\n        /* \"#utility.yul\":4244:4552   */\n      swap2\n      swap1\n      pop\n      jump\t// out\n        /* \"#utility.yul\":4558:4712   */\n    tag_50:\n        /* \"#utility.yul\":4642:4648   */\n      dup3\n        /* \"#utility.yul\":4637:4640   */\n      dup2\n        /* \"#utility.yul\":4632:4635   */\n      dup4\n        /* \"#utility.yul\":4619:4649   */\n      calldatacopy\n        /* \"#utility.yul\":4704:4705   */\n      0x00\n        /* \"#utility.yul\":4695:4701   */\n      dup4\n        /* \"#utility.yul\":4690:4693   */\n      dup4\n        /* \"#utility.yul\":4686:4702   */\n      add\n        /* \"#utility.yul\":4679:4706   */\n      mstore\n        /* \"#utility.yul\":4558:4712   */\n      pop\n      pop\n      pop\n      jump\t// out\n        /* \"#utility.yul\":4718:5130   */\n    tag_51:\n        /* \"#utility.yul\":4796:4801   */\n      0x00\n        /* \"#utility.yul\":4821:4887   */\n      tag_128\n        /* \"#utility.yul\":4837:4886   */\n      tag_129\n        /* \"#utility.yul\":4879:4885   */\n      dup5\n        /* \"#utility.yul\":4837:4886   */\n      tag_49\n      jump\t// in\n    tag_129:\n        /* \"#utility.yul\":4821:4887   */\n      tag_48\n      jump\t// in\n    tag_128:\n        /* \"#utility.yul\":4812:4887   */\n      swap1\n      pop\n        /* \"#utility.yul\":4910:4916   */\n      dup3\n        /* \"#utility.yul\":4903:4908   */\n      dup2\n        /* \"#utility.yul\":4896:4917   */\n      mstore\n        /* \"#utility.yul\":4948:4952   */\n      0x20\n        /* \"#utility.yul\":4941:4946   */\n      dup2\n        /* \"#utility.yul\":4937:4953   */\n      add\n        /* \"#utility.yul\":4986:4989   */\n      dup5\n        /* \"#utility.yul\":4977:4983   */\n      dup5\n        /* \"#utility.yul\":4972:4975   */\n      dup5\n        /* \"#utility.yul\":4968:4984   */\n      add\n        /* \"#utility.yul\":4965:4990   */\n      gt\n        /* \"#utility.yul\":4962:5074   */\n      iszero\n      tag_130\n      jumpi\n        /* \"#utility.yul\":4993:5072   */\n      tag_131\n      tag_45\n      jump\t// in\n    tag_131:\n        /* \"#utility.yul\":4962:5074   */\n    tag_130:\n        /* \"#utility.yul\":5083:5124   */\n      tag_132\n        /* \"#utility.yul\":5117:5123   */\n      dup5\n        /* \"#utility.yul\":5112:5115   */\n      dup3\n        /* \"#utility.yul\":5107:5110   */\n      dup6\n        /* \"#utility.yul\":5083:5124   */\n      tag_50\n      jump\t// in\n    tag_132:\n        /* \"#utility.yul\":4802:5130   */\n      pop\n        /* \"#utility.yul\":4718:5130   */\n      swap4\n      swap3\n      pop\n      pop\n      pop\n      jump\t// out\n        /* \"#utility.yul\":5150:5490   */\n    tag_52:\n        /* \"#utility.yul\":5206:5211   */\n      0x00\n        /* \"#utility.yul\":5255:5258   */\n      dup3\n        /* \"#utility.yul\":5248:5252   */\n      0x1f\n        /* \"#utility.yul\":5240:5246   */\n      dup4\n        /* \"#utility.yul\":5236:5253   */\n      add\n        /* \"#utility.yul\":5232:5259   */\n      slt\n        /* \"#utility.yul\":5222:5344   */\n      tag_134\n      jumpi\n        /* \"#utility.yul\":5263:5342   */\n      tag_135\n      tag_44\n      jump\t// in\n    tag_135:\n        /* \"#utility.yul\":5222:5344   */\n    tag_134:\n        /* \"#utility.yul\":5380:5386   */\n      dup2\n        /* \"#utility.yul\":5367:5387   */\n      calldataload\n        /* \"#utility.yul\":5405:5484   */\n      tag_136\n        /* \"#utility.yul\":5480:5483   */\n      dup5\n        /* \"#utility.yul\":5472:5478   */\n      dup3\n        /* \"#utility.yul\":5465:5469   */\n      0x20\n        /* \"#utility.yul\":5457:5463   */\n      dup7\n        /* \"#utility.yul\":5453:5470   */\n      add\n        /* \"#utility.yul\":5405:5484   */\n      tag_51\n      jump\t// in\n    tag_136:\n        /* \"#utility.yul\":5396:5484   */\n      swap2\n      pop\n        /* \"#utility.yul\":5212:5490   */\n      pop\n        /* \"#utility.yul\":5150:5490   */\n      swap3\n      swap2\n      pop\n      pop\n      jump\t// out\n        /* \"#utility.yul\":5496:6295   */\n    tag_13:\n        /* \"#utility.yul\":5583:5589   */\n      0x00\n        /* \"#utility.yul\":5591:5597   */\n      dup1\n        /* \"#utility.yul\":5599:5605   */\n      0x00\n        /* \"#utility.yul\":5648:5650   */\n      0x60\n        /* \"#utility.yul\":5636:5645   */\n      dup5\n        /* \"#utility.yul\":5627:5634   */\n      dup7\n        /* \"#utility.yul\":5623:5646   */\n      sub\n        /* \"#utility.yul\":5619:5651   */\n      slt\n        /* \"#utility.yul\":5616:5735   */\n      iszero\n      tag_138\n      jumpi\n        /* \"#utility.yul\":5654:5733   */\n      tag_139\n      tag_28\n      jump\t// in\n    tag_139:\n        /* \"#utility.yul\":5616:5735   */\n    tag_138:\n        /* \"#utility.yul\":5774:5775   */\n      0x00\n        /* \"#utility.yul\":5799:5852   */\n      tag_140\n        /* \"#utility.yul\":5844:5851   */\n      dup7\n        /* \"#utility.yul\":5835:5841   */\n      dup3\n        /* \"#utility.yul\":5824:5833   */\n      dup8\n        /* \"#utility.yul\":5820:5842   */\n      add\n        /* \"#utility.yul\":5799:5852   */\n      tag_43\n      jump\t// in\n    tag_140:\n        /* \"#utility.yul\":5789:5852   */\n      swap4\n      pop\n        /* \"#utility.yul\":5745:5862   */\n      pop\n        /* \"#utility.yul\":5929:5931   */\n      0x20\n        /* \"#utility.yul\":5918:5927   */\n      dup5\n        /* \"#utility.yul\":5914:5932   */\n      add\n        /* \"#utility.yul\":5901:5933   */\n      calldataload\n        /* \"#utility.yul\":5960:5978   */\n      0xffffffffffffffff\n        /* \"#utility.yul\":5952:5958   */\n      dup2\n        /* \"#utility.yul\":5949:5979   */\n      gt\n        /* \"#utility.yul\":5946:6063   */\n      iszero\n      tag_141\n      jumpi\n        /* \"#utility.yul\":5982:6061   */\n      tag_142\n      tag_29\n      jump\t// in\n    tag_142:\n        /* \"#utility.yul\":5946:6063   */\n    tag_141:\n        /* \"#utility.yul\":6087:6150   */\n      tag_143\n        /* \"#utility.yul\":6142:6149   */\n      dup7\n        /* \"#utility.yul\":6133:6139   */\n      dup3\n        /* \"#utility.yul\":6122:6131   */\n      dup8\n        /* \"#utility.yul\":6118:6140   */\n      add\n        /* \"#utility.yul\":6087:6150   */\n      tag_52\n      jump\t// in\n    tag_143:\n        /* \"#utility.yul\":6077:6150   */\n      swap3\n      pop\n        /* \"#utility.yul\":5872:6160   */\n      pop\n        /* \"#utility.yul\":6199:6201   */\n      0x40\n        /* \"#utility.yul\":6225:6278   */\n      tag_144\n        /* \"#utility.yul\":6270:6277   */\n      dup7\n        /* \"#utility.yul\":6261:6267   */\n      dup3\n        /* \"#utility.yul\":6250:6259   */\n      dup8\n        /* \"#utility.yul\":6246:6268   */\n      add\n        /* \"#utility.yul\":6225:6278   */\n      tag_32\n      jump\t// in\n    tag_144:\n        /* \"#utility.yul\":6215:6278   */\n      swap2\n      pop\n        /* \"#utility.yul\":6170:6288   */\n      pop\n        /* \"#utility.yul\":5496:6295   */\n      swap3\n      pop\n      swap3\n      pop\n      swap3\n      jump\t// out\n        /* \"#utility.yul\":6301:6481   */\n    tag_53:\n        /* \"#utility.yul\":6349:6426   */\n      0x4e487b7100000000000000000000000000000000000000000000000000000000\n        /* \"#utility.yul\":6346:6347   */\n      0x00\n        /* \"#utility.yul\":6339:6427   */\n      mstore\n        /* \"#utility.yul\":6446:6450   */\n      0x22\n        /* \"#utility.yul\":6443:6444   */\n      0x04\n        /* \"#utility.yul\":6436:6451   */\n      mstore\n        /* \"#utility.yul\":6470:6474   */\n      0x24\n        /* \"#utility.yul\":6467:6468   */\n      0x00\n        /* \"#utility.yul\":6460:6475   */\n      revert\n        /* \"#utility.yul\":6487:6807   */\n    tag_18:\n        /* \"#utility.yul\":6531:6537   */\n      0x00\n        /* \"#utility.yul\":6568:6569   */\n      0x02\n        /* \"#utility.yul\":6562:6566   */\n      dup3\n        /* \"#utility.yul\":6558:6570   */\n      div\n        /* \"#utility.yul\":6548:6570   */\n      swap1\n      pop\n        /* \"#utility.yul\":6615:6616   */\n      0x01\n        /* \"#utility.yul\":6609:6613   */\n      dup3\n        /* \"#utility.yul\":6605:6617   */\n      and\n        /* \"#utility.yul\":6636:6654   */\n      dup1\n        /* \"#utility.yul\":6626:6707   */\n      tag_147\n      jumpi\n        /* \"#utility.yul\":6692:6696   */\n      0x7f\n        /* \"#utility.yul\":6684:6690   */\n      dup3\n        /* \"#utility.yul\":6680:6697   */\n      and\n        /* \"#utility.yul\":6670:6697   */\n      swap2\n      pop\n        /* \"#utility.yul\":6626:6707   */\n    tag_147:\n        /* \"#utility.yul\":6754:6756   */\n      0x20\n        /* \"#utility.yul\":6746:6752   */\n      dup3\n        /* \"#utility.yul\":6743:6757   */\n      lt\n        /* \"#utility.yul\":6723:6741   */\n      dup2\n        /* \"#utility.yul\":6720:6758   */\n      sub\n        /* \"#utility.yul\":6717:6801   */\n      tag_148\n      jumpi\n        /* \"#utility.yul\":6773:6791   */\n      tag_149\n      tag_53\n      jump\t// in\n    tag_149:\n        /* \"#utility.yul\":6717:6801   */\n    tag_148:\n        /* \"#utility.yul\":6538:6807   */\n      pop\n        /* \"#utility.yul\":6487:6807   */\n      swap2\n      swap1\n      pop\n      jump\t// out\n        /* \"#utility.yul\":6813:6954   */\n    tag_54:\n        /* \"#utility.yul\":6862:6866   */\n      0x00\n        /* \"#utility.yul\":6885:6888   */\n      dup2\n        /* \"#utility.yul\":6877:6888   */\n      swap1\n      pop\n        /* \"#utility.yul\":6908:6911   */\n      dup2\n        /* \"#utility.yul\":6905:6906   */\n      0x00\n        /* \"#utility.yul\":6898:6912   */\n      mstore\n        /* \"#utility.yul\":6942:6946   */\n      0x20\n        /* \"#utility.yul\":6939:6940   */\n      0x00\n        /* \"#utility.yul\":6929:6947   */\n      keccak256\n        /* \"#utility.yul\":6921:6947   */\n      swap1\n      pop\n        /* \"#utility.yul\":6813:6954   */\n      swap2\n      swap1\n      pop\n      jump\t// out\n        /* \"#utility.yul\":6960:7053   */\n    tag_55:\n        /* \"#utility.yul\":6997:7003   */\n      0x00\n        /* \"#utility.yul\":7044:7046   */\n      0x20\n        /* \"#utility.yul\":7039:7041   */\n      0x1f\n        /* \"#utility.yul\":7032:7037   */\n      dup4\n        /* \"#utility.yul\":7028:7042   */\n      add\n        /* \"#utility.yul\":7024:7047   */\n      div\n        /* \"#utility.yul\":7014:7047   */\n      swap1\n      pop\n        /* \"#utility.yul\":6960:7053   */\n      swap2\n      swap1\n      pop\n      jump\t// out\n        /* \"#utility.yul\":7059:7166   */\n    tag_56:\n        /* \"#utility.yul\":7103:7111   */\n      0x00\n        /* \"#utility.yul\":7153:7158   */\n      dup3\n        /* \"#utility.yul\":7147:7151   */\n      dup3\n        /* \"#utility.yul\":7143:7159   */\n      shl\n        /* \"#utility.yul\":7122:7159   */\n      swap1\n      pop\n        /* \"#utility.yul\":7059:7166   */\n      swap3\n      swap2\n      pop\n      pop\n      jump\t// out\n        /* \"#utility.yul\":7172:7565   */\n    tag_57:\n        /* \"#utility.yul\":7241:7247   */\n      0x00\n        /* \"#utility.yul\":7291:7292   */\n      0x08\n        /* \"#utility.yul\":7279:7289   */\n      dup4\n        /* \"#utility.yul\":7275:7293   */\n      mul\n        /* \"#utility.yul\":7314:7411   */\n      tag_154\n        /* \"#utility.yul\":7344:7410   */\n      0xffffffffffffffffffffffffffffffffffffffffffffffffffffffffffffffff\n        /* \"#utility.yul\":7333:7342   */\n      dup3\n        /* \"#utility.yul\":7314:7411   */\n      tag_56\n      jump\t// in\n    tag_154:\n        /* \"#utility.yul\":7432:7471   */\n      tag_155\n        /* \"#utility.yul\":7462:7470   */\n      dup7\n        /* \"#utility.yul\":7451:7460   */\n      dup4\n        /* \"#utility.yul\":7432:7471   */\n      tag_56\n      jump\t// in\n    tag_155:\n        /* \"#utility.yul\":7420:7471   */\n      swap6\n      pop\n        /* \"#utility.yul\":7504:7508   */\n      dup1\n        /* \"#utility.yul\":7500:7509   */\n      not\n        /* \"#utility.yul\":7493:7498   */\n      dup5\n        /* \"#utility.yul\":7489:7510   */\n      and\n        /* \"#utility.yul\":7480:7510   */\n      swap4\n      pop\n        /* \"#utility.yul\":7553:7557   */\n      dup1\n        /* \"#utility.yul\":7543:7551   */\n      dup7\n        /* \"#utility.yul\":7539:7558   */\n      and\n        /* \"#utility.yul\":7532:7537   */\n      dup5\n        /* \"#utility.yul\":7529:7559   */\n      or\n        /* \"#utility.yul\":7519:7559   */\n      swap3\n      pop\n        /* \"#utility.yul\":7248:7565   */\n      pop\n      pop\n        /* \"#utility.yul\":7172:7565   */\n      swap4\n      swap3\n      pop\n      pop\n      pop\n      jump\t// out\n        /* \"#utility.yul\":7571:7631   */\n    tag_58:\n        /* \"#utility.yul\":7599:7602   */\n      0x00\n        /* \"#utility.yul\":7620:7625   */\n      dup2\n        /* \"#utility.yul\":7613:7625   */\n      swap1\n      pop\n        /* \"#utility.yul\":7571:7631   */\n      swap2\n      swap1\n      pop\n      jump\t// out\n        /* \"#utility.yul\":7637:7779   */\n    tag_59:\n        /* \"#utility.yul\":7687:7696   */\n      0x00\n        /* \"#utility.yul\":7720:7773   */\n      tag_158\n        /* \"#utility.yul\":7738:7772   */\n      tag_159\n        /* \"#utility.yul\":7747:7771   */\n      tag_160\n        /* \"#utility.yul\":7765:7770   */\n      dup5\n        /* \"#utility.yul\":7747:7771   */\n      tag_30\n      jump\t// in\n    tag_160:\n        /* \"#utility.yul\":7738:7772   */\n      tag_58\n      jump\t// in\n    tag_159:\n        /* \"#utility.yul\":7720:7773   */\n      tag_30\n      jump\t// in\n    tag_158:\n        /* \"#utility.yul\":7707:7773   */\n      swap1\n      pop\n        /* \"#utility.yul\":7637:7779   */\n      swap2\n      swap1\n      pop\n      jump\t// out\n        /* \"#utility.yul\":7785:7860   */\n    tag_60:\n        /* \"#utility.yul\":7828:7831   */\n      0x00\n        /* \"#utility.yul\":7849:7854   */\n      dup2\n        /* \"#utility.yul\":7842:7854   */\n      swap1\n      pop\n        /* \"#utility.yul\":7785:7860   */\n      swap2\n      swap1\n      pop\n      jump\t// out\n        /* \"#utility.yul\":7866:8135   */\n    tag_61:\n        /* \"#utility.yul\":7976:8015   */\n      tag_163\n        /* \"#utility.yul\":8007:8014   */\n      dup4\n        /* \"#utility.yul\":7976:8015   */\n      tag_59\n      jump\t// in\n    tag_163:\n        /* \"#utility.yul\":8037:8128   */\n      tag_164\n        /* \"#utility.yul\":8086:8127   */\n      tag_165\n        /* \"#utility.yul\":8110:8126   */\n      dup3\n        /* \"#utility.yul\":8086:8127   */\n      tag_60\n      jump\t// in\n    tag_165:\n        /* \"#utility.yul\":8078:8084   */\n      dup5\n        /* \"#utility.yul\":8071:8075   */\n      dup5\n        /* \"#utility.yul\":8065:8076   */\n      sload\n        /* \"#utility.yul\":8037:8128   */\n      tag_57\n      jump\t// in\n    tag_164:\n        /* \"#utility.yul\":8031:8035   */\n      dup3\n        /* \"#utility.yul\":8024:8129   */\n      sstore\n        /* \"#utility.yul\":7942:8135   */\n      pop\n        /* \"#utility.yul\":7866:8135   */\n      pop\n      pop\n      pop\n      jump\t// out\n        /* \"#utility.yul\":8141:8214   */\n    tag_62:\n        /* \"#utility.yul\":8186:8189   */\n      0x00\n        /* \"#utility.yul\":8141:8214   */\n      swap1\n      jump\t// out\n        /* \"#utility.yul\":8220:8409   */\n    tag_63:\n        /* \"#utility.yul\":8297:8329   */\n      tag_168\n      tag_62\n      jump\t// in\n    tag_168:\n        /* \"#utility.yul\":8338:8403   */\n      tag_169\n        /* \"#utility.yul\":8396:8402   */\n      dup2\n        /* \"#utility.yul\":8388:8394   */\n      dup5\n        /* \"#utility.yul\":8382:8386   */\n      dup5\n        /* \"#utility.yul\":8338:8403   */\n      tag_61\n      jump\t// in\n    tag_169:\n        /* \"#utility.yul\":8273:8409   */\n      pop\n        /* \"#utility.yul\":8220:8409   */\n      pop\n      pop\n      jump\t// out\n        /* \"#utility.yul\":8415:8601   */\n    tag_64:\n        /* \"#utility.yul\":8475:8595   */\n    tag_171:\n        /* \"#utility.yul\":8492:8495   */\n      dup2\n        /* \"#utility.yul\":8485:8490   */\n      dup2\n        /* \"#utility.yul\":8482:8496   */\n      lt\n        /* \"#utility.yul\":8475:8595   */\n      iszero\n      tag_173\n      jumpi\n        /* \"#utility.yul\":8546:8585   */\n      tag_174\n        /* \"#utility.yul\":8583:8584   */\n      0x00\n        /* \"#utility.yul\":8576:8581   */\n      dup3\n        /* \"#utility.yul\":8546:8585   */\n      tag_63\n      jump\t// in\n    tag_174:\n        /* \"#utility.yul\":8519:8520   */\n      0x01\n        /* \"#utility.yul\":8512:8517   */\n      dup2\n        /* \"#utility.yul\":8508:8521   */\n      add\n        /* \"#utility.yul\":8499:8521   */\n      swap1\n      pop\n        /* \"#utility.yul\":8475:8595   */\n      jump(tag_171)\n    tag_173:\n        /* \"#utility.yul\":8415:8601   */\n      pop\n      pop\n      jump\t// out\n        /* \"#utility.yul\":8607:9150   */\n    tag_65:\n        /* \"#utility.yul\":8708:8710   */\n      0x1f\n        /* \"#utility.yul\":8703:8706   */\n      dup3\n        /* \"#utility.yul\":8700:8711   */\n      gt\n        /* \"#utility.yul\":8697:9143   */\n      iszero\n      tag_176\n      jumpi\n        /* \"#utility.yul\":8742:8780   */\n      tag_177\n        /* \"#utility.yul\":8774:8779   */\n      dup2\n        /* \"#utility.yul\":8742:8780   */\n      tag_54\n      jump\t// in\n    tag_177:\n        /* \"#utility.yul\":8826:8855   */\n      tag_178\n        /* \"#utility.yul\":8844:8854   */\n      dup5\n        /* \"#utility.yul\":8826:8855   */\n      tag_55\n      jump\t// in\n    tag_178:\n        /* \"#utility.yul\":8816:8824   */\n      dup2\n        /* \"#utility.yul\":8812:8856   */\n      add\n        /* \"#utility.yul\":9009:9011   */\n      0x20\n        /* \"#utility.yul\":8997:9007   */\n      dup6\n        /* \"#utility.yul\":8994:9012   */\n      lt\n        /* \"#utility.yul\":8991:9040   */\n      iszero\n      tag_179\n      jumpi\n        /* \"#utility.yul\":9030:9038   */\n      dup2\n        /* \"#utility.yul\":9015:9038   */\n      swap1\n      pop\n        /* \"#utility.yul\":8991:9040   */\n    tag_179:\n        /* \"#utility.yul\":9053:9133   */\n      tag_180\n        /* \"#utility.yul\":9109:9131   */\n      tag_181\n        /* \"#utility.yul\":9127:9130   */\n      dup6\n        /* \"#utility.yul\":9109:9131   */\n      tag_55\n      jump\t// in\n    tag_181:\n        /* \"#utility.yul\":9099:9107   */\n      dup4\n        /* \"#utility.yul\":9095:9132   */\n      add\n        /* \"#utility.yul\":9082:9093   */\n      dup3\n        /* \"#utility.yul\":9053:9133   */\n      tag_64\n      jump\t// in\n    tag_180:\n        /* \"#utility.yul\":8712:9143   */\n      pop\n      pop\n        /* \"#utility.yul\":8697:9143   */\n    tag_176:\n        /* \"#utility.yul\":8607:9150   */\n      pop\n      pop\n      pop\n      jump\t// out\n        /* \"#utility.yul\":9156:9273   */\n    tag_66:\n        /* \"#utility.yul\":9210:9218   */\n      0x00\n        /* \"#utility.yul\":9260:9265   */\n      dup3\n        /* \"#utility.yul\":9254:9258   */\n      dup3\n        /* \"#utility.yul\":9250:9266   */\n      shr\n        /* \"#utility.yul\":9229:9266   */\n      swap1\n      pop\n        /* \"#utility.yul\":9156:9273   */\n      swap3\n      swap2\n      pop\n      pop\n      jump\t// out\n        /* \"#utility.yul\":9279:9448   */\n    tag_67:\n        /* \"#utility.yul\":9323:9329   */\n      0x00\n        /* \"#utility.yul\":9356:9407   */\n      tag_184\n        /* \"#utility.yul\":9404:9405   */\n      0x00\n        /* \"#utility.yul\":9400:9406   */\n      not\n        /* \"#utility.yul\":9392:9397   */\n      dup5\n        /* \"#utility.yul\":9389:9390   */\n      0x08\n        /* \"#utility.yul\":9385:9398   */\n      mul\n        /* \"#utility.yul\":9356:9407   */\n      tag_66\n      jump\t// in\n    tag_184:\n        /* \"#utility.yul\":9352:9408   */\n      not\n        /* \"#utility.yul\":9437:9441   */\n      dup1\n        /* \"#utility.yul\":9431:9435   */\n      dup4\n        /* \"#utility.yul\":9427:9442   */\n      and\n        /* \"#utility.yul\":9417:9442   */\n      swap2\n      pop\n        /* \"#utility.yul\":9330:9448   */\n      pop\n        /* \"#utility.yul\":9279:9448   */\n      swap3\n      swap2\n      pop\n      pop\n      jump\t// out\n        /* \"#utility.yul\":9453:9748   */\n    tag_68:\n        /* \"#utility.yul\":9529:9533   */\n      0x00\n        /* \"#utility.yul\":9675:9704   */\n      tag_186\n        /* \"#utility.yul\":9700:9703   */\n      dup4\n        /* \"#utility.yul\":9694:9698   */\n      dup4\n        /* \"#utility.yul\":9675:9704   */\n      tag_67\n      jump\t// in\n    tag_186:\n        /* \"#utility.yul\":9667:9704   */\n      swap2\n      pop\n        /* \"#utility.yul\":9737:9740   */\n      dup3\n        /* \"#utility.yul\":9734:9735   */\n      0x02\n        /* \"#utility.yul\":9730:9741   */\n      mul\n        /* \"#utility.yul\":9724:9728   */\n      dup3\n        /* \"#utility.yul\":9721:9742   */\n      or\n        /* \"#utility.yul\":9713:9742   */\n      swap1\n      pop\n        /* \"#utility.yul\":9453:9748   */\n      swap3\n      swap2\n      pop\n      pop\n      jump\t// out\n        /* \"#utility.yul\":9753:11148   */\n    tag_26:\n        /* \"#utility.yul\":9870:9907   */\n      tag_188\n        /* \"#utility.yul\":9903:9906   */\n      dup3\n        /* \"#utility.yul\":9870:9907   */\n      tag_36\n      jump\t// in\n    tag_188:\n        /* \"#utility.yul\":9972:9990   */\n      0xffffffffffffffff\n        /* \"#utility.yul\":9964:9970   */\n      dup2\n        /* \"#utility.yul\":9961:9991   */\n      gt\n        /* \"#utility.yul\":9958:10014   */\n      iszero\n      tag_189\n      jumpi\n        /* \"#utility.yul\":9994:10012   */\n      tag_190\n      tag_46\n      jump\t// in\n    tag_190:\n        /* \"#utility.yul\":9958:10014   */\n    tag_189:\n        /* \"#utility.yul\":10038:10076   */\n      tag_191\n        /* \"#utility.yul\":10070:10074   */\n      dup3\n        /* \"#utility.yul\":10064:10075   */\n      sload\n        /* \"#utility.yul\":10038:10076   */\n      tag_18\n      jump\t// in\n    tag_191:\n        /* \"#utility.yul\":10123:10190   */\n      tag_192\n        /* \"#utility.yul\":10183:10189   */\n      dup3\n        /* \"#utility.yul\":10175:10181   */\n      dup3\n        /* \"#utility.yul\":10169:10173   */\n      dup6\n        /* \"#utility.yul\":10123:10190   */\n      tag_65\n      jump\t// in\n    tag_192:\n        /* \"#utility.yul\":10217:10218   */\n      0x00\n        /* \"#utility.yul\":10241:10245   */\n      0x20\n        /* \"#utility.yul\":10228:10245   */\n      swap1\n      pop\n        /* \"#utility.yul\":10273:10275   */\n      0x1f\n        /* \"#utility.yul\":10265:10271   */\n      dup4\n        /* \"#utility.yul\":10262:10276   */\n      gt\n        /* \"#utility.yul\":10290:10291   */\n      0x01\n        /* \"#utility.yul\":10285:10903   */\n      dup2\n      eq\n      tag_194\n      jumpi\n        /* \"#utility.yul\":10947:10948   */\n      0x00\n        /* \"#utility.yul\":10964:10970   */\n      dup5\n        /* \"#utility.yul\":10961:11038   */\n      iszero\n      tag_195\n      jumpi\n        /* \"#utility.yul\":11013:11022   */\n      dup3\n        /* \"#utility.yul\":11008:11011   */\n      dup8\n        /* \"#utility.yul\":11004:11023   */\n      add\n        /* \"#utility.yul\":10998:11024   */\n      mload\n        /* \"#utility.yul\":10989:11024   */\n      swap1\n      pop\n        /* \"#utility.yul\":10961:11038   */\n    tag_195:\n        /* \"#utility.yul\":11064:11131   */\n      tag_196\n        /* \"#utility.yul\":11124:11130   */\n      dup6\n        /* \"#utility.yul\":11117:11122   */\n      dup3\n        /* \"#utility.yul\":11064:11131   */\n      tag_68\n      jump\t// in\n    tag_196:\n        /* \"#utility.yul\":11058:11062   */\n      dup7\n        /* \"#utility.yul\":11051:11132   */\n      sstore\n        /* \"#utility.yul\":10920:11142   */\n      pop\n        /* \"#utility.yul\":10255:11142   */\n      jump(tag_193)\n        /* \"#utility.yul\":10285:10903   */\n    tag_194:\n        /* \"#utility.yul\":10337:10341   */\n      0x1f\n        /* \"#utility.yul\":10333:10342   */\n      not\n        /* \"#utility.yul\":10325:10331   */\n      dup5\n        /* \"#utility.yul\":10321:10343   */\n      and\n        /* \"#utility.yul\":10371:10408   */\n      tag_197\n        /* \"#utility.yul\":10403:10407   */\n      dup7\n        /* \"#utility.yul\":10371:10408   */\n      tag_54\n      jump\t// in\n    tag_197:\n        /* \"#utility.yul\":10430:10431   */\n      0x00\n        /* \"#utility.yul\":10444:10652   */\n    tag_198:\n        /* \"#utility.yul\":10458:10465   */\n      dup3\n        /* \"#utility.yul\":10455:10456   */\n      dup2\n        /* \"#utility.yul\":10452:10466   */\n      lt\n        /* \"#utility.yul\":10444:10652   */\n      iszero\n      tag_200\n      jumpi\n        /* \"#utility.yul\":10537:10546   */\n      dup5\n        /* \"#utility.yul\":10532:10535   */\n      dup10\n        /* \"#utility.yul\":10528:10547   */\n      add\n        /* \"#utility.yul\":10522:10548   */\n      mload\n        /* \"#utility.yul\":10514:10520   */\n      dup3\n        /* \"#utility.yul\":10507:10549   */\n      sstore\n        /* \"#utility.yul\":10588:10589   */\n      0x01\n        /* \"#utility.yul\":10580:10586   */\n      dup3\n        /* \"#utility.yul\":10576:10590   */\n      add\n        /* \"#utility.yul\":10566:10590   */\n      swap2\n      pop\n        /* \"#utility.yul\":10635:10637   */\n      0x20\n        /* \"#utility.yul\":10624:10633   */\n      dup6\n        /* \"#utility.yul\":10620:10638   */\n      add\n        /* \"#utility.yul\":10607:10638   */\n      swap5\n      pop\n        /* \"#utility.yul\":10481:10485   */\n      0x20\n        /* \"#utility.yul\":10478:10479   */\n      dup2\n        /* \"#utility.yul\":10474:10486   */\n      add\n        /* \"#utility.yul\":10469:10486   */\n      swap1\n      pop\n        /* \"#utility.yul\":10444:10652   */\n      jump(tag_198)\n    tag_200:\n        /* \"#utility.yul\":10680:10686   */\n      dup7\n        /* \"#utility.yul\":10671:10678   */\n      dup4\n        /* \"#utility.yul\":10668:10687   */\n      lt\n        /* \"#utility.yul\":10665:10844   */\n      iszero\n      tag_201\n      jumpi\n        /* \"#utility.yul\":10738:10747   */\n      dup5\n        /* \"#utility.yul\":10733:10736   */\n      dup10\n        /* \"#utility.yul\":10729:10748   */\n      add\n        /* \"#utility.yul\":10723:10749   */\n      mload\n        /* \"#utility.yul\":10781:10829   */\n      tag_202\n        /* \"#utility.yul\":10823:10827   */\n      0x1f\n        /* \"#utility.yul\":10815:10821   */\n      dup10\n        /* \"#utility.yul\":10811:10828   */\n      and\n        /* \"#utility.yul\":10800:10809   */\n      dup3\n        /* \"#utility.yul\":10781:10829   */\n      tag_67\n      jump\t// in\n    tag_202:\n        /* \"#utility.yul\":10773:10779   */\n      dup4\n        /* \"#utility.yul\":10766:10830   */\n      sstore\n        /* \"#utility.yul\":10688:10844   */\n      pop\n        /* \"#utility.yul\":10665:10844   */\n    tag_201:\n        /* \"#utility.yul\":10890:10891   */\n      0x01\n        /* \"#utility.yul\":10886:10887   */\n      0x02\n        /* \"#utility.yul\":10878:10884   */\n      dup9\n        /* \"#utility.yul\":10874:10888   */\n      mul\n        /* \"#utility.yul\":10870:10892   */\n      add\n        /* \"#utility.yul\":10864:10868   */\n      dup9\n        /* \"#utility.yul\":10857:10893   */\n      sstore\n        /* \"#utility.yul\":10292:10903   */\n      pop\n      pop\n      pop\n        /* \"#utility.yul\":10255:11142   */\n    tag_193:\n      pop\n        /* \"#utility.yul\":9845:11148   */\n      pop\n      pop\n      pop\n        /* \"#utility.yul\":9753:11148   */\n      pop\n      pop\n      jump\t// out\n\n    auxdata: 0xa2646970667358221220636e9d0a68d2e74ef6285c8964c3a18bbf748bffefd2ba5f4a2b4e17c328e4ce64736f6c634300080f0033\n}\n",
				"bytecode": {
					"linkReferences": {},
					"object": "608060405234801561001057600080fd5b50336000806101000a81548173ffffffffffffffffffffffffffffffffffffffff021916908373ffffffffffffffffffffffffffffffffffffffff1602179055506108b7806100606000396000f3fe608060405234801561001057600080fd5b50600436106100365760003560e01c8063365b98b21461003b578063f0384fb61461006d575b600080fd5b6100556004803603810190610050919061027f565b610089565b60405161006493929190610395565b60405180910390f35b61008760048036038101906100829190610534565b61016b565b005b6001818154811061009957600080fd5b90600052602060002090600302016000915090508060000160009054906101000a900473ffffffffffffffffffffffffffffffffffffffff16908060010180546100e2906105d2565b80601f016020809104026020016040519081016040528092919081815260200182805461010e906105d2565b801561015b5780601f106101305761010080835404028352916020019161015b565b820191906000526020600020905b81548152906001019060200180831161013e57829003601f168201915b5050505050908060020154905083565b600160405180606001604052808573ffffffffffffffffffffffffffffffffffffffff16815260200184815260200183815250908060018154018082558091505060019003906000526020600020906003020160009091909190915060008201518160000160006101000a81548173ffffffffffffffffffffffffffffffffffffffff021916908373ffffffffffffffffffffffffffffffffffffffff160217905550602082015181600101908161022391906107af565b50604082015181600201555050505050565b6000604051905090565b600080fd5b600080fd5b6000819050919050565b61025c81610249565b811461026757600080fd5b50565b60008135905061027981610253565b92915050565b6000602082840312156102955761029461023f565b5b60006102a38482850161026a565b91505092915050565b600073ffffffffffffffffffffffffffffffffffffffff82169050919050565b60006102d7826102ac565b9050919050565b6102e7816102cc565b82525050565b600081519050919050565b600082825260208201905092915050565b60005b8381101561032757808201518184015260208101905061030c565b83811115610336576000848401525b50505050565b6000601f19601f8301169050919050565b6000610358826102ed565b61036281856102f8565b9350610372818560208601610309565b61037b8161033c565b840191505092915050565b61038f81610249565b82525050565b60006060820190506103aa60008301866102de565b81810360208301526103bc818561034d565b90506103cb6040830184610386565b949350505050565b6103dc816102cc565b81146103e757600080fd5b50565b6000813590506103f9816103d3565b92915050565b600080fd5b600080fd5b7f4e487b7100000000000000000000000000000000000000000000000000000000600052604160045260246000fd5b6104418261033c565b810181811067ffffffffffffffff821117156104605761045f610409565b5b80604052505050565b6000610473610235565b905061047f8282610438565b919050565b600067ffffffffffffffff82111561049f5761049e610409565b5b6104a88261033c565b9050602081019050919050565b82818337600083830152505050565b60006104d76104d284610484565b610469565b9050828152602081018484840111156104f3576104f2610404565b5b6104fe8482856104b5565b509392505050565b600082601f83011261051b5761051a6103ff565b5b813561052b8482602086016104c4565b91505092915050565b60008060006060848603121561054d5761054c61023f565b5b600061055b868287016103ea565b935050602084013567ffffffffffffffff81111561057c5761057b610244565b5b61058886828701610506565b92505060406105998682870161026a565b9150509250925092565b7f4e487b7100000000000000000000000000000000000000000000000000000000600052602260045260246000fd5b600060028204905060018216806105ea57607f821691505b6020821081036105fd576105fc6105a3565b5b50919050565b60008190508160005260206000209050919050565b60006020601f8301049050919050565b600082821b905092915050565b6000600883026106657fffffffffffffffffffffffffffffffffffffffffffffffffffffffffffffffff82610628565b61066f8683610628565b95508019841693508086168417925050509392505050565b6000819050919050565b60006106ac6106a76106a284610249565b610687565b610249565b9050919050565b6000819050919050565b6106c683610691565b6106da6106d2826106b3565b848454610635565b825550505050565b600090565b6106ef6106e2565b6106fa8184846106bd565b505050565b5b8181101561071e576107136000826106e7565b600181019050610700565b5050565b601f8211156107635761073481610603565b61073d84610618565b8101602085101561074c578190505b61076061075885610618565b8301826106ff565b50505b505050565b600082821c905092915050565b600061078660001984600802610768565b1980831691505092915050565b600061079f8383610775565b9150826002028217905092915050565b6107b8826102ed565b67ffffffffffffffff8111156107d1576107d0610409565b5b6107db82546105d2565b6107e6828285610722565b600060209050601f8311600181146108195760008415610807578287015190505b6108118582610793565b865550610879565b601f19841661082786610603565b60005b8281101561084f5784890151825560018201915060208501945060208101905061082a565b8683101561086c5784890151610868601f891682610775565b8355505b6001600288020188555050505b50505050505056fea2646970667358221220636e9d0a68d2e74ef6285c8964c3a18bbf748bffefd2ba5f4a2b4e17c328e4ce64736f6c634300080f0033",
					"opcodes": "PUSH1 0x80 PUSH1 0x40 MSTORE CALLVALUE DUP1 ISZERO PUSH2 0x10 JUMPI PUSH1 0x0 DUP1 REVERT JUMPDEST POP CALLER PUSH1 0x0 DUP1 PUSH2 0x100 EXP DUP2 SLOAD DUP2 PUSH20 0xFFFFFFFFFFFFFFFFFFFFFFFFFFFFFFFFFFFFFFFF MUL NOT AND SWAP1 DUP4 PUSH20 0xFFFFFFFFFFFFFFFFFFFFFFFFFFFFFFFFFFFFFFFF AND MUL OR SWAP1 SSTORE POP PUSH2 0x8B7 DUP1 PUSH2 0x60 PUSH1 0x0 CODECOPY PUSH1 0x0 RETURN INVALID PUSH1 0x80 PUSH1 0x40 MSTORE CALLVALUE DUP1 ISZERO PUSH2 0x10 JUMPI PUSH1 0x0 DUP1 REVERT JUMPDEST POP PUSH1 0x4 CALLDATASIZE LT PUSH2 0x36 JUMPI PUSH1 0x0 CALLDATALOAD PUSH1 0xE0 SHR DUP1 PUSH4 0x365B98B2 EQ PUSH2 0x3B JUMPI DUP1 PUSH4 0xF0384FB6 EQ PUSH2 0x6D JUMPI JUMPDEST PUSH1 0x0 DUP1 REVERT JUMPDEST PUSH2 0x55 PUSH1 0x4 DUP1 CALLDATASIZE SUB DUP2 ADD SWAP1 PUSH2 0x50 SWAP2 SWAP1 PUSH2 0x27F JUMP JUMPDEST PUSH2 0x89 JUMP JUMPDEST PUSH1 0x40 MLOAD PUSH2 0x64 SWAP4 SWAP3 SWAP2 SWAP1 PUSH2 0x395 JUMP JUMPDEST PUSH1 0x40 MLOAD DUP1 SWAP2 SUB SWAP1 RETURN JUMPDEST PUSH2 0x87 PUSH1 0x4 DUP1 CALLDATASIZE SUB DUP2 ADD SWAP1 PUSH2 0x82 SWAP2 SWAP1 PUSH2 0x534 JUMP JUMPDEST PUSH2 0x16B JUMP JUMPDEST STOP JUMPDEST PUSH1 0x1 DUP2 DUP2 SLOAD DUP2 LT PUSH2 0x99 JUMPI PUSH1 0x0 DUP1 REVERT JUMPDEST SWAP1 PUSH1 0x0 MSTORE PUSH1 0x20 PUSH1 0x0 KECCAK256 SWAP1 PUSH1 0x3 MUL ADD PUSH1 0x0 SWAP2 POP SWAP1 POP DUP1 PUSH1 0x0 ADD PUSH1 0x0 SWAP1 SLOAD SWAP1 PUSH2 0x100 EXP SWAP1 DIV PUSH20 0xFFFFFFFFFFFFFFFFFFFFFFFFFFFFFFFFFFFFFFFF AND SWAP1 DUP1 PUSH1 0x1 ADD DUP1 SLOAD PUSH2 0xE2 SWAP1 PUSH2 0x5D2 JUMP JUMPDEST DUP1 PUSH1 0x1F ADD PUSH1 0x20 DUP1 SWAP2 DIV MUL PUSH1 0x20 ADD PUSH1 0x40 MLOAD SWAP1 DUP2 ADD PUSH1 0x40 MSTORE DUP1 SWAP3 SWAP2 SWAP1 DUP2 DUP2 MSTORE PUSH1 0x20 ADD DUP3 DUP1 SLOAD PUSH2 0x10E SWAP1 PUSH2 0x5D2 JUMP JUMPDEST DUP1 ISZERO PUSH2 0x15B JUMPI DUP1 PUSH1 0x1F LT PUSH2 0x130 JUMPI PUSH2 0x100 DUP1 DUP4 SLOAD DIV MUL DUP4 MSTORE SWAP2 PUSH1 0x20 ADD SWAP2 PUSH2 0x15B JUMP JUMPDEST DUP3 ADD SWAP2 SWAP1 PUSH1 0x0 MSTORE PUSH1 0x20 PUSH1 0x0 KECCAK256 SWAP1 JUMPDEST DUP2 SLOAD DUP2 MSTORE SWAP1 PUSH1 0x1 ADD SWAP1 PUSH1 0x20 ADD DUP1 DUP4 GT PUSH2 0x13E JUMPI DUP3 SWAP1 SUB PUSH1 0x1F AND DUP3 ADD SWAP2 JUMPDEST POP POP POP POP POP SWAP1 DUP1 PUSH1 0x2 ADD SLOAD SWAP1 POP DUP4 JUMP JUMPDEST PUSH1 0x1 PUSH1 0x40 MLOAD DUP1 PUSH1 0x60 ADD PUSH1 0x40 MSTORE DUP1 DUP6 PUSH20 0xFFFFFFFFFFFFFFFFFFFFFFFFFFFFFFFFFFFFFFFF AND DUP2 MSTORE PUSH1 0x20 ADD DUP5 DUP2 MSTORE PUSH1 0x20 ADD DUP4 DUP2 MSTORE POP SWAP1 DUP1 PUSH1 0x1 DUP2 SLOAD ADD DUP1 DUP3 SSTORE DUP1 SWAP2 POP POP PUSH1 0x1 SWAP1 SUB SWAP1 PUSH1 0x0 MSTORE PUSH1 0x20 PUSH1 0x0 KECCAK256 SWAP1 PUSH1 0x3 MUL ADD PUSH1 0x0 SWAP1 SWAP2 SWAP1 SWAP2 SWAP1 SWAP2 POP PUSH1 0x0 DUP3 ADD MLOAD DUP2 PUSH1 0x0 ADD PUSH1 0x0 PUSH2 0x100 EXP DUP2 SLOAD DUP2 PUSH20 0xFFFFFFFFFFFFFFFFFFFFFFFFFFFFFFFFFFFFFFFF MUL NOT AND SWAP1 DUP4 PUSH20 0xFFFFFFFFFFFFFFFFFFFFFFFFFFFFFFFFFFFFFFFF AND MUL OR SWAP1 SSTORE POP PUSH1 0x20 DUP3 ADD MLOAD DUP2 PUSH1 0x1 ADD SWAP1 DUP2 PUSH2 0x223 SWAP2 SWAP1 PUSH2 0x7AF JUMP JUMPDEST POP PUSH1 0x40 DUP3 ADD MLOAD DUP2 PUSH1 0x2 ADD SSTORE POP POP POP POP POP JUMP JUMPDEST PUSH1 0x0 PUSH1 0x40 MLOAD SWAP1 POP SWAP1 JUMP JUMPDEST PUSH1 0x0 DUP1 REVERT JUMPDEST PUSH1 0x0 DUP1 REVERT JUMPDEST PUSH1 0x0 DUP2 SWAP1 POP SWAP2 SWAP1 POP JUMP JUMPDEST PUSH2 0x25C DUP2 PUSH2 0x249 JUMP JUMPDEST DUP2 EQ PUSH2 0x267 JUMPI PUSH1 0x0 DUP1 REVERT JUMPDEST POP JUMP JUMPDEST PUSH1 0x0 DUP2 CALLDATALOAD SWAP1 POP PUSH2 0x279 DUP2 PUSH2 0x253 JUMP JUMPDEST SWAP3 SWAP2 POP POP JUMP JUMPDEST PUSH1 0x0 PUSH1 0x20 DUP3 DUP5 SUB SLT ISZERO PUSH2 0x295 JUMPI PUSH2 0x294 PUSH2 0x23F JUMP JUMPDEST JUMPDEST PUSH1 0x0 PUSH2 0x2A3 DUP5 DUP3 DUP6 ADD PUSH2 0x26A JUMP JUMPDEST SWAP2 POP POP SWAP3 SWAP2 POP POP JUMP JUMPDEST PUSH1 0x0 PUSH20 0xFFFFFFFFFFFFFFFFFFFFFFFFFFFFFFFFFFFFFFFF DUP3 AND SWAP1 POP SWAP2 SWAP1 POP JUMP JUMPDEST PUSH1 0x0 PUSH2 0x2D7 DUP3 PUSH2 0x2AC JUMP JUMPDEST SWAP1 POP SWAP2 SWAP1 POP JUMP JUMPDEST PUSH2 0x2E7 DUP2 PUSH2 0x2CC JUMP JUMPDEST DUP3 MSTORE POP POP JUMP JUMPDEST PUSH1 0x0 DUP2 MLOAD SWAP1 POP SWAP2 SWAP1 POP JUMP JUMPDEST PUSH1 0x0 DUP3 DUP3 MSTORE PUSH1 0x20 DUP3 ADD SWAP1 POP SWAP3 SWAP2 POP POP JUMP JUMPDEST PUSH1 0x0 JUMPDEST DUP4 DUP2 LT ISZERO PUSH2 0x327 JUMPI DUP1 DUP3 ADD MLOAD DUP2 DUP5 ADD MSTORE PUSH1 0x20 DUP2 ADD SWAP1 POP PUSH2 0x30C JUMP JUMPDEST DUP4 DUP2 GT ISZERO PUSH2 0x336 JUMPI PUSH1 0x0 DUP5 DUP5 ADD MSTORE JUMPDEST POP POP POP POP JUMP JUMPDEST PUSH1 0x0 PUSH1 0x1F NOT PUSH1 0x1F DUP4 ADD AND SWAP1 POP SWAP2 SWAP1 POP JUMP JUMPDEST PUSH1 0x0 PUSH2 0x358 DUP3 PUSH2 0x2ED JUMP JUMPDEST PUSH2 0x362 DUP2 DUP6 PUSH2 0x2F8 JUMP JUMPDEST SWAP4 POP PUSH2 0x372 DUP2 DUP6 PUSH1 0x20 DUP7 ADD PUSH2 0x309 JUMP JUMPDEST PUSH2 0x37B DUP2 PUSH2 0x33C JUMP JUMPDEST DUP5 ADD SWAP2 POP POP SWAP3 SWAP2 POP POP JUMP JUMPDEST PUSH2 0x38F DUP2 PUSH2 0x249 JUMP JUMPDEST DUP3 MSTORE POP POP JUMP JUMPDEST PUSH1 0x0 PUSH1 0x60 DUP3 ADD SWAP1 POP PUSH2 0x3AA PUSH1 0x0 DUP4 ADD DUP7 PUSH2 0x2DE JUMP JUMPDEST DUP2 DUP2 SUB PUSH1 0x20 DUP4 ADD MSTORE PUSH2 0x3BC DUP2 DUP6 PUSH2 0x34D JUMP JUMPDEST SWAP1 POP PUSH2 0x3CB PUSH1 0x40 DUP4 ADD DUP5 PUSH2 0x386 JUMP JUMPDEST SWAP5 SWAP4 POP POP POP POP JUMP JUMPDEST PUSH2 0x3DC DUP2 PUSH2 0x2CC JUMP JUMPDEST DUP2 EQ PUSH2 0x3E7 JUMPI PUSH1 0x0 DUP1 REVERT JUMPDEST POP JUMP JUMPDEST PUSH1 0x0 DUP2 CALLDATALOAD SWAP1 POP PUSH2 0x3F9 DUP2 PUSH2 0x3D3 JUMP JUMPDEST SWAP3 SWAP2 POP POP JUMP JUMPDEST PUSH1 0x0 DUP1 REVERT JUMPDEST PUSH1 0x0 DUP1 REVERT JUMPDEST PUSH32 0x4E487B7100000000000000000000000000000000000000000000000000000000 PUSH1 0x0 MSTORE PUSH1 0x41 PUSH1 0x4 MSTORE PUSH1 0x24 PUSH1 0x0 REVERT JUMPDEST PUSH2 0x441 DUP3 PUSH2 0x33C JUMP JUMPDEST DUP2 ADD DUP2 DUP2 LT PUSH8 0xFFFFFFFFFFFFFFFF DUP3 GT OR ISZERO PUSH2 0x460 JUMPI PUSH2 0x45F PUSH2 0x409 JUMP JUMPDEST JUMPDEST DUP1 PUSH1 0x40 MSTORE POP POP POP JUMP JUMPDEST PUSH1 0x0 PUSH2 0x473 PUSH2 0x235 JUMP JUMPDEST SWAP1 POP PUSH2 0x47F DUP3 DUP3 PUSH2 0x438 JUMP JUMPDEST SWAP2 SWAP1 POP JUMP JUMPDEST PUSH1 0x0 PUSH8 0xFFFFFFFFFFFFFFFF DUP3 GT ISZERO PUSH2 0x49F JUMPI PUSH2 0x49E PUSH2 0x409 JUMP JUMPDEST JUMPDEST PUSH2 0x4A8 DUP3 PUSH2 0x33C JUMP JUMPDEST SWAP1 POP PUSH1 0x20 DUP2 ADD SWAP1 POP SWAP2 SWAP1 POP JUMP JUMPDEST DUP3 DUP2 DUP4 CALLDATACOPY PUSH1 0x0 DUP4 DUP4 ADD MSTORE POP POP POP JUMP JUMPDEST PUSH1 0x0 PUSH2 0x4D7 PUSH2 0x4D2 DUP5 PUSH2 0x484 JUMP JUMPDEST PUSH2 0x469 JUMP JUMPDEST SWAP1 POP DUP3 DUP2 MSTORE PUSH1 0x20 DUP2 ADD DUP5 DUP5 DUP5 ADD GT ISZERO PUSH2 0x4F3 JUMPI PUSH2 0x4F2 PUSH2 0x404 JUMP JUMPDEST JUMPDEST PUSH2 0x4FE DUP5 DUP3 DUP6 PUSH2 0x4B5 JUMP JUMPDEST POP SWAP4 SWAP3 POP POP POP JUMP JUMPDEST PUSH1 0x0 DUP3 PUSH1 0x1F DUP4 ADD SLT PUSH2 0x51B JUMPI PUSH2 0x51A PUSH2 0x3FF JUMP JUMPDEST JUMPDEST DUP2 CALLDATALOAD PUSH2 0x52B DUP5 DUP3 PUSH1 0x20 DUP7 ADD PUSH2 0x4C4 JUMP JUMPDEST SWAP2 POP POP SWAP3 SWAP2 POP POP JUMP JUMPDEST PUSH1 0x0 DUP1 PUSH1 0x0 PUSH1 0x60 DUP5 DUP7 SUB SLT ISZERO PUSH2 0x54D JUMPI PUSH2 0x54C PUSH2 0x23F JUMP JUMPDEST JUMPDEST PUSH1 0x0 PUSH2 0x55B DUP7 DUP3 DUP8 ADD PUSH2 0x3EA JUMP JUMPDEST SWAP4 POP POP PUSH1 0x20 DUP5 ADD CALLDATALOAD PUSH8 0xFFFFFFFFFFFFFFFF DUP2 GT ISZERO PUSH2 0x57C JUMPI PUSH2 0x57B PUSH2 0x244 JUMP JUMPDEST JUMPDEST PUSH2 0x588 DUP7 DUP3 DUP8 ADD PUSH2 0x506 JUMP JUMPDEST SWAP3 POP POP PUSH1 0x40 PUSH2 0x599 DUP7 DUP3 DUP8 ADD PUSH2 0x26A JUMP JUMPDEST SWAP2 POP POP SWAP3 POP SWAP3 POP SWAP3 JUMP JUMPDEST PUSH32 0x4E487B7100000000000000000000000000000000000000000000000000000000 PUSH1 0x0 MSTORE PUSH1 0x22 PUSH1 0x4 MSTORE PUSH1 0x24 PUSH1 0x0 REVERT JUMPDEST PUSH1 0x0 PUSH1 0x2 DUP3 DIV SWAP1 POP PUSH1 0x1 DUP3 AND DUP1 PUSH2 0x5EA JUMPI PUSH1 0x7F DUP3 AND SWAP2 POP JUMPDEST PUSH1 0x20 DUP3 LT DUP2 SUB PUSH2 0x5FD JUMPI PUSH2 0x5FC PUSH2 0x5A3 JUMP JUMPDEST JUMPDEST POP SWAP2 SWAP1 POP JUMP JUMPDEST PUSH1 0x0 DUP2 SWAP1 POP DUP2 PUSH1 0x0 MSTORE PUSH1 0x20 PUSH1 0x0 KECCAK256 SWAP1 POP SWAP2 SWAP1 POP JUMP JUMPDEST PUSH1 0x0 PUSH1 0x20 PUSH1 0x1F DUP4 ADD DIV SWAP1 POP SWAP2 SWAP1 POP JUMP JUMPDEST PUSH1 0x0 DUP3 DUP3 SHL SWAP1 POP SWAP3 SWAP2 POP POP JUMP JUMPDEST PUSH1 0x0 PUSH1 0x8 DUP4 MUL PUSH2 0x665 PUSH32 0xFFFFFFFFFFFFFFFFFFFFFFFFFFFFFFFFFFFFFFFFFFFFFFFFFFFFFFFFFFFFFFFF DUP3 PUSH2 0x628 JUMP JUMPDEST PUSH2 0x66F DUP7 DUP4 PUSH2 0x628 JUMP JUMPDEST SWAP6 POP DUP1 NOT DUP5 AND SWAP4 POP DUP1 DUP7 AND DUP5 OR SWAP3 POP POP POP SWAP4 SWAP3 POP POP POP JUMP JUMPDEST PUSH1 0x0 DUP2 SWAP1 POP SWAP2 SWAP1 POP JUMP JUMPDEST PUSH1 0x0 PUSH2 0x6AC PUSH2 0x6A7 PUSH2 0x6A2 DUP5 PUSH2 0x249 JUMP JUMPDEST PUSH2 0x687 JUMP JUMPDEST PUSH2 0x249 JUMP JUMPDEST SWAP1 POP SWAP2 SWAP1 POP JUMP JUMPDEST PUSH1 0x0 DUP2 SWAP1 POP SWAP2 SWAP1 POP JUMP JUMPDEST PUSH2 0x6C6 DUP4 PUSH2 0x691 JUMP JUMPDEST PUSH2 0x6DA PUSH2 0x6D2 DUP3 PUSH2 0x6B3 JUMP JUMPDEST DUP5 DUP5 SLOAD PUSH2 0x635 JUMP JUMPDEST DUP3 SSTORE POP POP POP POP JUMP JUMPDEST PUSH1 0x0 SWAP1 JUMP JUMPDEST PUSH2 0x6EF PUSH2 0x6E2 JUMP JUMPDEST PUSH2 0x6FA DUP2 DUP5 DUP5 PUSH2 0x6BD JUMP JUMPDEST POP POP POP JUMP JUMPDEST JUMPDEST DUP2 DUP2 LT ISZERO PUSH2 0x71E JUMPI PUSH2 0x713 PUSH1 0x0 DUP3 PUSH2 0x6E7 JUMP JUMPDEST PUSH1 0x1 DUP2 ADD SWAP1 POP PUSH2 0x700 JUMP JUMPDEST POP POP JUMP JUMPDEST PUSH1 0x1F DUP3 GT ISZERO PUSH2 0x763 JUMPI PUSH2 0x734 DUP2 PUSH2 0x603 JUMP JUMPDEST PUSH2 0x73D DUP5 PUSH2 0x618 JUMP JUMPDEST DUP2 ADD PUSH1 0x20 DUP6 LT ISZERO PUSH2 0x74C JUMPI DUP2 SWAP1 POP JUMPDEST PUSH2 0x760 PUSH2 0x758 DUP6 PUSH2 0x618 JUMP JUMPDEST DUP4 ADD DUP3 PUSH2 0x6FF JUMP JUMPDEST POP POP JUMPDEST POP POP POP JUMP JUMPDEST PUSH1 0x0 DUP3 DUP3 SHR SWAP1 POP SWAP3 SWAP2 POP POP JUMP JUMPDEST PUSH1 0x0 PUSH2 0x786 PUSH1 0x0 NOT DUP5 PUSH1 0x8 MUL PUSH2 0x768 JUMP JUMPDEST NOT DUP1 DUP4 AND SWAP2 POP POP SWAP3 SWAP2 POP POP JUMP JUMPDEST PUSH1 0x0 PUSH2 0x79F DUP4 DUP4 PUSH2 0x775 JUMP JUMPDEST SWAP2 POP DUP3 PUSH1 0x2 MUL DUP3 OR SWAP1 POP SWAP3 SWAP2 POP POP JUMP JUMPDEST PUSH2 0x7B8 DUP3 PUSH2 0x2ED JUMP JUMPDEST PUSH8 0xFFFFFFFFFFFFFFFF DUP2 GT ISZERO PUSH2 0x7D1 JUMPI PUSH2 0x7D0 PUSH2 0x409 JUMP JUMPDEST JUMPDEST PUSH2 0x7DB DUP3 SLOAD PUSH2 0x5D2 JUMP JUMPDEST PUSH2 0x7E6 DUP3 DUP3 DUP6 PUSH2 0x722 JUMP JUMPDEST PUSH1 0x0 PUSH1 0x20 SWAP1 POP PUSH1 0x1F DUP4 GT PUSH1 0x1 DUP2 EQ PUSH2 0x819 JUMPI PUSH1 0x0 DUP5 ISZERO PUSH2 0x807 JUMPI DUP3 DUP8 ADD MLOAD SWAP1 POP JUMPDEST PUSH2 0x811 DUP6 DUP3 PUSH2 0x793 JUMP JUMPDEST DUP7 SSTORE POP PUSH2 0x879 JUMP JUMPDEST PUSH1 0x1F NOT DUP5 AND PUSH2 0x827 DUP7 PUSH2 0x603 JUMP JUMPDEST PUSH1 0x0 JUMPDEST DUP3 DUP2 LT ISZERO PUSH2 0x84F JUMPI DUP5 DUP10 ADD MLOAD DUP3 SSTORE PUSH1 0x1 DUP3 ADD SWAP2 POP PUSH1 0x20 DUP6 ADD SWAP5 POP PUSH1 0x20 DUP2 ADD SWAP1 POP PUSH2 0x82A JUMP JUMPDEST DUP7 DUP4 LT ISZERO PUSH2 0x86C JUMPI DUP5 DUP10 ADD MLOAD PUSH2 0x868 PUSH1 0x1F DUP10 AND DUP3 PUSH2 0x775 JUMP JUMPDEST DUP4 SSTORE POP JUMPDEST PUSH1 0x1 PUSH1 0x2 DUP9 MUL ADD DUP9 SSTORE POP POP POP JUMPDEST POP POP POP POP POP POP JUMP INVALID LOG2 PUSH5 0x6970667358 0x22 SLT KECCAK256 PUSH4 0x6E9D0A68 0xD2 0xE7 0x4E 0xF6 0x28 0x5C DUP10 PUSH5 0xC3A18BBF74 DUP12 SELFDESTRUCT 0xEF 0xD2 0xBA 0x5F 0x4A 0x2B 0x4E OR 0xC3 0x28 0xE4 0xCE PUSH5 0x736F6C6343 STOP ADDMOD 0xF STOP CALLER "
				},
				"gasEstimates": {
					"creation": {
						"codeDepositCost": "446200",
						"executionCost": "24746",
						"totalCost": "470946"
					},
					"external": {
						"addUser(address,string,uint256)": "infinite",
						"users(uint256)": "infinite"
					}
				},
				"methodIdentifiers": {
					"addUser(address,string,uint256)": "f0384fb6",
					"users(uint256)": "365b98b2"
				}
			},
			"storageLayout": {
				"storage": [
					{
						"astId": 3,
						"contract": "contracts/Test1.sol:Test1",
						"label": "owner",
						"offset": 0,
						"slot": "0",
						"type": "t_address"
					},
					{
						"astId": 23,
						"contract": "contracts/Test1.sol:Test1",
						"label": "users",
						"offset": 0,
						"slot": "1",
						"type": "t_array(t_struct(User)19_storage)dyn_storage"
					}
				],
				"types": {
					"t_address": {
						"encoding": "inplace",
						"label": "address",
						"numberOfBytes": "20"
					},
					"t_array(t_struct(User)19_storage)dyn_storage": {
						"base": "t_struct(User)19_storage",
						"encoding": "dynamic_array",
						"label": "struct Test1.User[]",
						"numberOfBytes": "32"
					},
					"t_string_storage": {
						"encoding": "bytes",
						"label": "string",
						"numberOfBytes": "32"
					},
					"t_struct(User)19_storage": {
						"encoding": "inplace",
						"label": "struct Test1.User",
						"members": [
							{
								"astId": 14,
								"contract": "contracts/Test1.sol:Test1",
								"label": "walletAddress",
								"offset": 0,
								"slot": "0",
								"type": "t_address"
							},
							{
								"astId": 16,
								"contract": "contracts/Test1.sol:Test1",
								"label": "name",
								"offset": 0,
								"slot": "1",
								"type": "t_string_storage"
							},
							{
								"astId": 18,
								"contract": "contracts/Test1.sol:Test1",
								"label": "amount",
								"offset": 0,
								"slot": "2",
								"type": "t_uint256"
							}
						],
						"numberOfBytes": "96"
					},
					"t_uint256": {
						"encoding": "inplace",
						"label": "uint256",
						"numberOfBytes": "32"
					}
				}
			},
			"userdoc": {
				"kind": "user",
				"methods": {},
				"version": 1
			}
		}
	}
}