{
	"contracts/Test1.sol": {
		"Test1": {
			"abi": [
				{
					"inputs": [],
					"stateMutability": "nonpayable",
					"type": "constructor"
				},
				{
					"inputs": [
						{
							"internalType": "address",
							"name": "walletAddress",
							"type": "address"
						}
					],
					"name": "addToInvestors",
					"outputs": [],
					"stateMutability": "nonpayable",
					"type": "function"
				},
				{
					"inputs": [
						{
							"internalType": "address",
							"name": "walletAddress",
							"type": "address"
						},
						{
							"internalType": "string",
							"name": "name",
							"type": "string"
						},
						{
							"internalType": "uint256",
							"name": "amount",
							"type": "uint256"
						},
						{
							"internalType": "bool",
							"name": "isInvestor",
							"type": "bool"
						}
					],
					"name": "addUser",
					"outputs": [],
					"stateMutability": "nonpayable",
					"type": "function"
				},
				{
					"inputs": [
						{
							"internalType": "address",
							"name": "walletAddress",
							"type": "address"
						}
					],
					"name": "balanceOf",
					"outputs": [
						{
							"internalType": "uint256",
							"name": "",
							"type": "uint256"
						}
					],
					"stateMutability": "view",
					"type": "function"
				},
				{
					"inputs": [
						{
							"internalType": "address",
							"name": "walletAddress",
							"type": "address"
						}
					],
					"name": "getUserByAddress",
					"outputs": [
						{
							"components": [
								{
									"internalType": "address",
									"name": "walletAddress",
									"type": "address"
								},
								{
									"internalType": "string",
									"name": "name",
									"type": "string"
								},
								{
									"internalType": "uint256",
									"name": "amount",
									"type": "uint256"
								},
								{
									"internalType": "bool",
									"name": "isInvestor",
									"type": "bool"
								}
							],
							"internalType": "struct Test1.User",
							"name": "user",
							"type": "tuple"
						}
					],
					"stateMutability": "nonpayable",
					"type": "function"
				},
				{
					"inputs": [
						{
							"internalType": "address",
							"name": "walletAddress",
							"type": "address"
						}
					],
					"name": "investorPermission",
					"outputs": [
						{
							"internalType": "bool",
							"name": "",
							"type": "bool"
						}
					],
					"stateMutability": "nonpayable",
					"type": "function"
				},
				{
					"inputs": [
						{
							"internalType": "address",
							"name": "",
							"type": "address"
						}
					],
					"name": "investors",
					"outputs": [
						{
							"internalType": "address",
							"name": "walletAddress",
							"type": "address"
						},
						{
							"internalType": "string",
							"name": "name",
							"type": "string"
						},
						{
							"internalType": "uint256",
							"name": "amount",
							"type": "uint256"
						},
						{
							"internalType": "bool",
							"name": "isInvestor",
							"type": "bool"
						}
					],
					"stateMutability": "view",
					"type": "function"
				},
				{
					"inputs": [
						{
							"internalType": "address",
							"name": "walletAddress",
							"type": "address"
						}
					],
					"name": "transfer",
					"outputs": [],
					"stateMutability": "payable",
					"type": "function"
				},
				{
					"inputs": [
						{
							"internalType": "address",
							"name": "walletAddress",
							"type": "address"
						}
					],
					"name": "userExists",
					"outputs": [
						{
							"internalType": "bool",
							"name": "",
							"type": "bool"
						}
					],
					"stateMutability": "view",
					"type": "function"
				},
				{
					"inputs": [
						{
							"internalType": "uint256",
							"name": "",
							"type": "uint256"
						}
					],
					"name": "users",
					"outputs": [
						{
							"internalType": "address",
							"name": "walletAddress",
							"type": "address"
						},
						{
							"internalType": "string",
							"name": "name",
							"type": "string"
						},
						{
							"internalType": "uint256",
							"name": "amount",
							"type": "uint256"
						},
						{
							"internalType": "bool",
							"name": "isInvestor",
							"type": "bool"
						}
					],
					"stateMutability": "view",
					"type": "function"
				}
			],
			"devdoc": {
				"kind": "dev",
				"methods": {},
				"version": 1
			},
			"evm": {
				"assembly": "    /* \"contracts/Test1.sol\":65:2526  contract Test1{... */\n  mstore(0x40, 0x80)\n    /* \"contracts/Test1.sol\":106:154  constructor(){... */\n  callvalue\n  dup1\n  iszero\n  tag_1\n  jumpi\n  0x00\n  dup1\n  revert\ntag_1:\n  pop\n    /* \"contracts/Test1.sol\":137:147  msg.sender */\n  caller\n    /* \"contracts/Test1.sol\":129:134  owner */\n  0x00\n  dup1\n    /* \"contracts/Test1.sol\":129:147  owner = msg.sender */\n  0x0100\n  exp\n  dup2\n  sload\n  dup2\n  0xffffffffffffffffffffffffffffffffffffffff\n  mul\n  not\n  and\n  swap1\n  dup4\n  0xffffffffffffffffffffffffffffffffffffffff\n  and\n  mul\n  or\n  swap1\n  sstore\n  pop\n    /* \"contracts/Test1.sol\":65:2526  contract Test1{... */\n  dataSize(sub_0)\n  dup1\n  dataOffset(sub_0)\n  0x00\n  codecopy\n  0x00\n  return\nstop\n\nsub_0: assembly {\n        /* \"contracts/Test1.sol\":65:2526  contract Test1{... */\n      mstore(0x40, 0x80)\n      jumpi(tag_1, lt(calldatasize, 0x04))\n      shr(0xe0, calldataload(0x00))\n      dup1\n      0x4140eb0d\n      gt\n      tag_11\n      jumpi\n      dup1\n      0x4140eb0d\n      eq\n      tag_6\n      jumpi\n      dup1\n      0x69c212f6\n      eq\n      tag_7\n      jumpi\n      dup1\n      0x6f7bc9be\n      eq\n      tag_8\n      jumpi\n      dup1\n      0x70a08231\n      eq\n      tag_9\n      jumpi\n      dup1\n      0xd7bed4bc\n      eq\n      tag_10\n      jumpi\n      jump(tag_1)\n    tag_11:\n      dup1\n      0x0e666e49\n      eq\n      tag_2\n      jumpi\n      dup1\n      0x1a695230\n      eq\n      tag_3\n      jumpi\n      dup1\n      0x280879e7\n      eq\n      tag_4\n      jumpi\n      dup1\n      0x365b98b2\n      eq\n      tag_5\n      jumpi\n    tag_1:\n      0x00\n      dup1\n      revert\n        /* \"contracts/Test1.sol\":1639:1894  function userExists(address walletAddress) public view returns(bool){... */\n    tag_2:\n      callvalue\n      dup1\n      iszero\n      tag_12\n      jumpi\n      0x00\n      dup1\n      revert\n    tag_12:\n      pop\n      tag_13\n      0x04\n      dup1\n      calldatasize\n      sub\n      dup2\n      add\n      swap1\n      tag_14\n      swap2\n      swap1\n      tag_15\n      jump\t// in\n    tag_14:\n      tag_16\n      jump\t// in\n    tag_13:\n      mload(0x40)\n      tag_17\n      swap2\n      swap1\n      tag_18\n      jump\t// in\n    tag_17:\n      mload(0x40)\n      dup1\n      swap2\n      sub\n      swap1\n      return\n        /* \"contracts/Test1.sol\":1900:2005  function transfer(address walletAddress) payable public {... */\n    tag_3:\n      tag_19\n      0x04\n      dup1\n      calldatasize\n      sub\n      dup2\n      add\n      swap1\n      tag_20\n      swap2\n      swap1\n      tag_15\n      jump\t// in\n    tag_20:\n      tag_21\n      jump\t// in\n    tag_19:\n      stop\n        /* \"contracts/Test1.sol\":691:871  function addUser(address walletAddress, string memory name, uint amount, bool isInvestor) public onlyOwner{... */\n    tag_4:\n      callvalue\n      dup1\n      iszero\n      tag_22\n      jumpi\n      0x00\n      dup1\n      revert\n    tag_22:\n      pop\n      tag_23\n      0x04\n      dup1\n      calldatasize\n      sub\n      dup2\n      add\n      swap1\n      tag_24\n      swap2\n      swap1\n      tag_25\n      jump\t// in\n    tag_24:\n      tag_26\n      jump\t// in\n    tag_23:\n      stop\n        /* \"contracts/Test1.sol\":618:637  User[] public users */\n    tag_5:\n      callvalue\n      dup1\n      iszero\n      tag_27\n      jumpi\n      0x00\n      dup1\n      revert\n    tag_27:\n      pop\n      tag_28\n      0x04\n      dup1\n      calldatasize\n      sub\n      dup2\n      add\n      swap1\n      tag_29\n      swap2\n      swap1\n      tag_30\n      jump\t// in\n    tag_29:\n      tag_31\n      jump\t// in\n    tag_28:\n      mload(0x40)\n      tag_32\n      swap5\n      swap4\n      swap3\n      swap2\n      swap1\n      tag_33\n      jump\t// in\n    tag_32:\n      mload(0x40)\n      dup1\n      swap2\n      sub\n      swap1\n      return\n        /* \"contracts/Test1.sol\":1463:1633  function investorPermission(address walletAddress) public returns(bool){... */\n    tag_6:\n      callvalue\n      dup1\n      iszero\n      tag_34\n      jumpi\n      0x00\n      dup1\n      revert\n    tag_34:\n      pop\n      tag_35\n      0x04\n      dup1\n      calldatasize\n      sub\n      dup2\n      add\n      swap1\n      tag_36\n      swap2\n      swap1\n      tag_15\n      jump\t// in\n    tag_36:\n      tag_37\n      jump\t// in\n    tag_35:\n      mload(0x40)\n      tag_38\n      swap2\n      swap1\n      tag_18\n      jump\t// in\n    tag_38:\n      mload(0x40)\n      dup1\n      swap2\n      sub\n      swap1\n      return\n        /* \"contracts/Test1.sol\":1121:1457  function getUserByAddress(address walletAddress) public returns(User memory user){... */\n    tag_7:\n      callvalue\n      dup1\n      iszero\n      tag_39\n      jumpi\n      0x00\n      dup1\n      revert\n    tag_39:\n      pop\n      tag_40\n      0x04\n      dup1\n      calldatasize\n      sub\n      dup2\n      add\n      swap1\n      tag_41\n      swap2\n      swap1\n      tag_15\n      jump\t// in\n    tag_41:\n      tag_42\n      jump\t// in\n    tag_40:\n      mload(0x40)\n      tag_43\n      swap2\n      swap1\n      tag_44\n      jump\t// in\n    tag_43:\n      mload(0x40)\n      dup1\n      swap2\n      sub\n      swap1\n      return\n        /* \"contracts/Test1.sol\":643:684  mapping(address => User) public investors */\n    tag_8:\n      callvalue\n      dup1\n      iszero\n      tag_45\n      jumpi\n      0x00\n      dup1\n      revert\n    tag_45:\n      pop\n      tag_46\n      0x04\n      dup1\n      calldatasize\n      sub\n      dup2\n      add\n      swap1\n      tag_47\n      swap2\n      swap1\n      tag_15\n      jump\t// in\n    tag_47:\n      tag_48\n      jump\t// in\n    tag_46:\n      mload(0x40)\n      tag_49\n      swap5\n      swap4\n      swap3\n      swap2\n      swap1\n      tag_33\n      jump\t// in\n    tag_49:\n      mload(0x40)\n      dup1\n      swap2\n      sub\n      swap1\n      return\n        /* \"contracts/Test1.sol\":2257:2520  function balanceOf(address walletAddress) public view returns(uint){... */\n    tag_9:\n      callvalue\n      dup1\n      iszero\n      tag_50\n      jumpi\n      0x00\n      dup1\n      revert\n    tag_50:\n      pop\n      tag_51\n      0x04\n      dup1\n      calldatasize\n      sub\n      dup2\n      add\n      swap1\n      tag_52\n      swap2\n      swap1\n      tag_15\n      jump\t// in\n    tag_52:\n      tag_53\n      jump\t// in\n    tag_51:\n      mload(0x40)\n      tag_54\n      swap2\n      swap1\n      tag_55\n      jump\t// in\n    tag_54:\n      mload(0x40)\n      dup1\n      swap2\n      sub\n      swap1\n      return\n        /* \"contracts/Test1.sol\":877:1115  function addToInvestors(address walletAddress) public onlyOwner{... */\n    tag_10:\n      callvalue\n      dup1\n      iszero\n      tag_56\n      jumpi\n      0x00\n      dup1\n      revert\n    tag_56:\n      pop\n      tag_57\n      0x04\n      dup1\n      calldatasize\n      sub\n      dup2\n      add\n      swap1\n      tag_58\n      swap2\n      swap1\n      tag_15\n      jump\t// in\n    tag_58:\n      tag_59\n      jump\t// in\n    tag_57:\n      stop\n        /* \"contracts/Test1.sol\":1639:1894  function userExists(address walletAddress) public view returns(bool){... */\n    tag_16:\n        /* \"contracts/Test1.sol\":1702:1706  bool */\n      0x00\n        /* \"contracts/Test1.sol\":1721:1727  uint i */\n      dup1\n        /* \"contracts/Test1.sol\":1730:1731  0 */\n      0x00\n        /* \"contracts/Test1.sol\":1721:1731  uint i = 0 */\n      swap1\n      pop\n        /* \"contracts/Test1.sol\":1717:1866  for(uint i = 0; i < users.length; i++){... */\n    tag_61:\n        /* \"contracts/Test1.sol\":1737:1742  users */\n      0x01\n        /* \"contracts/Test1.sol\":1737:1749  users.length */\n      dup1\n      sload\n      swap1\n      pop\n        /* \"contracts/Test1.sol\":1733:1734  i */\n      dup2\n        /* \"contracts/Test1.sol\":1733:1749  i < users.length */\n      lt\n        /* \"contracts/Test1.sol\":1717:1866  for(uint i = 0; i < users.length; i++){... */\n      iszero\n      tag_62\n      jumpi\n        /* \"contracts/Test1.sol\":1798:1811  walletAddress */\n      dup3\n        /* \"contracts/Test1.sol\":1772:1811  users[i].walletAddress == walletAddress */\n      0xffffffffffffffffffffffffffffffffffffffff\n      and\n        /* \"contracts/Test1.sol\":1772:1777  users */\n      0x01\n        /* \"contracts/Test1.sol\":1778:1779  i */\n      dup3\n        /* \"contracts/Test1.sol\":1772:1780  users[i] */\n      dup2\n      sload\n      dup2\n      lt\n      tag_64\n      jumpi\n      tag_65\n      tag_66\n      jump\t// in\n    tag_65:\n    tag_64:\n      swap1\n      0x00\n      mstore\n      keccak256(0x00, 0x20)\n      swap1\n      0x04\n      mul\n      add\n        /* \"contracts/Test1.sol\":1772:1794  users[i].walletAddress */\n      0x00\n      add\n      0x00\n      swap1\n      sload\n      swap1\n      0x0100\n      exp\n      swap1\n      div\n      0xffffffffffffffffffffffffffffffffffffffff\n      and\n        /* \"contracts/Test1.sol\":1772:1811  users[i].walletAddress == walletAddress */\n      0xffffffffffffffffffffffffffffffffffffffff\n      and\n      eq\n        /* \"contracts/Test1.sol\":1769:1856  if(users[i].walletAddress == walletAddress){... */\n      iszero\n      tag_68\n      jumpi\n        /* \"contracts/Test1.sol\":1837:1841  true */\n      0x01\n        /* \"contracts/Test1.sol\":1830:1841  return true */\n      swap2\n      pop\n      pop\n      jump(tag_60)\n        /* \"contracts/Test1.sol\":1769:1856  if(users[i].walletAddress == walletAddress){... */\n    tag_68:\n        /* \"contracts/Test1.sol\":1751:1754  i++ */\n      dup1\n      dup1\n      tag_69\n      swap1\n      tag_70\n      jump\t// in\n    tag_69:\n      swap2\n      pop\n      pop\n        /* \"contracts/Test1.sol\":1717:1866  for(uint i = 0; i < users.length; i++){... */\n      jump(tag_61)\n    tag_62:\n      pop\n        /* \"contracts/Test1.sol\":1882:1887  false */\n      0x00\n        /* \"contracts/Test1.sol\":1875:1887  return false */\n      swap1\n      pop\n        /* \"contracts/Test1.sol\":1639:1894  function userExists(address walletAddress) public view returns(bool){... */\n    tag_60:\n      swap2\n      swap1\n      pop\n      jump\t// out\n        /* \"contracts/Test1.sol\":1900:2005  function transfer(address walletAddress) payable public {... */\n    tag_21:\n        /* \"contracts/Test1.sol\":1966:1998  transferToAddress(walletAddress) */\n      tag_72\n        /* \"contracts/Test1.sol\":1984:1997  walletAddress */\n      dup2\n        /* \"contracts/Test1.sol\":1966:1983  transferToAddress */\n      tag_73\n        /* \"contracts/Test1.sol\":1966:1998  transferToAddress(walletAddress) */\n      jump\t// in\n    tag_72:\n        /* \"contracts/Test1.sol\":1900:2005  function transfer(address walletAddress) payable public {... */\n      pop\n      jump\t// out\n        /* \"contracts/Test1.sol\":691:871  function addUser(address walletAddress, string memory name, uint amount, bool isInvestor) public onlyOwner{... */\n    tag_26:\n        /* \"contracts/Test1.sol\":334:339  owner */\n      0x00\n      dup1\n      sload\n      swap1\n      0x0100\n      exp\n      swap1\n      div\n      0xffffffffffffffffffffffffffffffffffffffff\n      and\n        /* \"contracts/Test1.sol\":320:339  msg.sender == owner */\n      0xffffffffffffffffffffffffffffffffffffffff\n      and\n        /* \"contracts/Test1.sol\":320:330  msg.sender */\n      caller\n        /* \"contracts/Test1.sol\":320:339  msg.sender == owner */\n      0xffffffffffffffffffffffffffffffffffffffff\n      and\n      eq\n        /* \"contracts/Test1.sol\":312:365  require(msg.sender == owner, \"You are not the owner\") */\n      tag_75\n      jumpi\n      mload(0x40)\n      0x08c379a000000000000000000000000000000000000000000000000000000000\n      dup2\n      mstore\n      0x04\n      add\n      tag_76\n      swap1\n      tag_77\n      jump\t// in\n    tag_76:\n      mload(0x40)\n      dup1\n      swap2\n      sub\n      swap1\n      revert\n    tag_75:\n        /* \"contracts/Test1.sol\":807:812  users */\n      0x01\n        /* \"contracts/Test1.sol\":818:863  User(walletAddress, name, amount, isInvestor) */\n      mload(0x40)\n      dup1\n      0x80\n      add\n      0x40\n      mstore\n      dup1\n        /* \"contracts/Test1.sol\":823:836  walletAddress */\n      dup7\n        /* \"contracts/Test1.sol\":818:863  User(walletAddress, name, amount, isInvestor) */\n      0xffffffffffffffffffffffffffffffffffffffff\n      and\n      dup2\n      mstore\n      0x20\n      add\n        /* \"contracts/Test1.sol\":838:842  name */\n      dup6\n        /* \"contracts/Test1.sol\":818:863  User(walletAddress, name, amount, isInvestor) */\n      dup2\n      mstore\n      0x20\n      add\n        /* \"contracts/Test1.sol\":844:850  amount */\n      dup5\n        /* \"contracts/Test1.sol\":818:863  User(walletAddress, name, amount, isInvestor) */\n      dup2\n      mstore\n      0x20\n      add\n        /* \"contracts/Test1.sol\":852:862  isInvestor */\n      dup4\n        /* \"contracts/Test1.sol\":818:863  User(walletAddress, name, amount, isInvestor) */\n      iszero\n      iszero\n      dup2\n      mstore\n      pop\n        /* \"contracts/Test1.sol\":807:864  users.push(User(walletAddress, name, amount, isInvestor)) */\n      swap1\n      dup1\n      0x01\n      dup2\n      sload\n      add\n      dup1\n      dup3\n      sstore\n      dup1\n      swap2\n      pop\n      pop\n      0x01\n      swap1\n      sub\n      swap1\n      0x00\n      mstore\n      keccak256(0x00, 0x20)\n      swap1\n      0x04\n      mul\n      add\n      0x00\n      swap1\n      swap2\n      swap1\n      swap2\n      swap1\n      swap2\n      pop\n      0x00\n      dup3\n      add\n      mload\n      dup2\n      0x00\n      add\n      exp(0x0100, 0x00)\n      dup2\n      sload\n      dup2\n      0xffffffffffffffffffffffffffffffffffffffff\n      mul\n      not\n      and\n      swap1\n      dup4\n      0xffffffffffffffffffffffffffffffffffffffff\n      and\n      mul\n      or\n      swap1\n      sstore\n      pop\n      0x20\n      dup3\n      add\n      mload\n      dup2\n      0x01\n      add\n      swap1\n      dup1\n      mload\n      swap1\n      0x20\n      add\n      swap1\n      tag_80\n      swap3\n      swap2\n      swap1\n      tag_81\n      jump\t// in\n    tag_80:\n      pop\n      0x40\n      dup3\n      add\n      mload\n      dup2\n      0x02\n      add\n      sstore\n      0x60\n      dup3\n      add\n      mload\n      dup2\n      0x03\n      add\n      exp(0x0100, 0x00)\n      dup2\n      sload\n      dup2\n      0xff\n      mul\n      not\n      and\n      swap1\n      dup4\n      iszero\n      iszero\n      mul\n      or\n      swap1\n      sstore\n      pop\n      pop\n      pop\n        /* \"contracts/Test1.sol\":691:871  function addUser(address walletAddress, string memory name, uint amount, bool isInvestor) public onlyOwner{... */\n      pop\n      pop\n      pop\n      pop\n      jump\t// out\n        /* \"contracts/Test1.sol\":618:637  User[] public users */\n    tag_31:\n      0x01\n      dup2\n      dup2\n      sload\n      dup2\n      lt\n      tag_82\n      jumpi\n      0x00\n      dup1\n      revert\n    tag_82:\n      swap1\n      0x00\n      mstore\n      keccak256(0x00, 0x20)\n      swap1\n      0x04\n      mul\n      add\n      0x00\n      swap2\n      pop\n      swap1\n      pop\n      dup1\n      0x00\n      add\n      0x00\n      swap1\n      sload\n      swap1\n      0x0100\n      exp\n      swap1\n      div\n      0xffffffffffffffffffffffffffffffffffffffff\n      and\n      swap1\n      dup1\n      0x01\n      add\n      dup1\n      sload\n      tag_84\n      swap1\n      tag_85\n      jump\t// in\n    tag_84:\n      dup1\n      0x1f\n      add\n      0x20\n      dup1\n      swap2\n      div\n      mul\n      0x20\n      add\n      mload(0x40)\n      swap1\n      dup2\n      add\n      0x40\n      mstore\n      dup1\n      swap3\n      swap2\n      swap1\n      dup2\n      dup2\n      mstore\n      0x20\n      add\n      dup3\n      dup1\n      sload\n      tag_86\n      swap1\n      tag_85\n      jump\t// in\n    tag_86:\n      dup1\n      iszero\n      tag_87\n      jumpi\n      dup1\n      0x1f\n      lt\n      tag_88\n      jumpi\n      0x0100\n      dup1\n      dup4\n      sload\n      div\n      mul\n      dup4\n      mstore\n      swap2\n      0x20\n      add\n      swap2\n      jump(tag_87)\n    tag_88:\n      dup3\n      add\n      swap2\n      swap1\n      0x00\n      mstore\n      keccak256(0x00, 0x20)\n      swap1\n    tag_89:\n      dup2\n      sload\n      dup2\n      mstore\n      swap1\n      0x01\n      add\n      swap1\n      0x20\n      add\n      dup1\n      dup4\n      gt\n      tag_89\n      jumpi\n      dup3\n      swap1\n      sub\n      0x1f\n      and\n      dup3\n      add\n      swap2\n    tag_87:\n      pop\n      pop\n      pop\n      pop\n      pop\n      swap1\n      dup1\n      0x02\n      add\n      sload\n      swap1\n      dup1\n      0x03\n      add\n      0x00\n      swap1\n      sload\n      swap1\n      0x0100\n      exp\n      swap1\n      div\n      0xff\n      and\n      swap1\n      pop\n      dup5\n      jump\t// out\n        /* \"contracts/Test1.sol\":1463:1633  function investorPermission(address walletAddress) public returns(bool){... */\n    tag_37:\n        /* \"contracts/Test1.sol\":1529:1533  bool */\n      0x00\n        /* \"contracts/Test1.sol\":1544:1560  User memory user */\n      dup1\n        /* \"contracts/Test1.sol\":1563:1594  getUserByAddress(walletAddress) */\n      tag_91\n        /* \"contracts/Test1.sol\":1580:1593  walletAddress */\n      dup4\n        /* \"contracts/Test1.sol\":1563:1579  getUserByAddress */\n      tag_42\n        /* \"contracts/Test1.sol\":1563:1594  getUserByAddress(walletAddress) */\n      jump\t// in\n    tag_91:\n        /* \"contracts/Test1.sol\":1544:1594  User memory user = getUserByAddress(walletAddress) */\n      swap1\n      pop\n        /* \"contracts/Test1.sol\":1611:1615  user */\n      dup1\n        /* \"contracts/Test1.sol\":1611:1626  user.isInvestor */\n      0x60\n      add\n      mload\n        /* \"contracts/Test1.sol\":1604:1626  return user.isInvestor */\n      swap2\n      pop\n      pop\n        /* \"contracts/Test1.sol\":1463:1633  function investorPermission(address walletAddress) public returns(bool){... */\n      swap2\n      swap1\n      pop\n      jump\t// out\n        /* \"contracts/Test1.sol\":1121:1457  function getUserByAddress(address walletAddress) public returns(User memory user){... */\n    tag_42:\n        /* \"contracts/Test1.sol\":1185:1201  User memory user */\n      tag_92\n      tag_93\n      jump\t// in\n    tag_92:\n        /* \"contracts/Test1.sol\":1216:1222  uint i */\n      0x00\n        /* \"contracts/Test1.sol\":1212:1409  for(uint i = 0; i < users.length; i++){... */\n    tag_95:\n        /* \"contracts/Test1.sol\":1232:1237  users */\n      0x01\n        /* \"contracts/Test1.sol\":1232:1244  users.length */\n      dup1\n      sload\n      swap1\n      pop\n        /* \"contracts/Test1.sol\":1228:1229  i */\n      dup2\n        /* \"contracts/Test1.sol\":1228:1244  i < users.length */\n      lt\n        /* \"contracts/Test1.sol\":1212:1409  for(uint i = 0; i < users.length; i++){... */\n      iszero\n      tag_96\n      jumpi\n        /* \"contracts/Test1.sol\":1293:1306  walletAddress */\n      dup3\n        /* \"contracts/Test1.sol\":1267:1306  users[i].walletAddress == walletAddress */\n      0xffffffffffffffffffffffffffffffffffffffff\n      and\n        /* \"contracts/Test1.sol\":1267:1272  users */\n      0x01\n        /* \"contracts/Test1.sol\":1273:1274  i */\n      dup3\n        /* \"contracts/Test1.sol\":1267:1275  users[i] */\n      dup2\n      sload\n      dup2\n      lt\n      tag_98\n      jumpi\n      tag_99\n      tag_66\n      jump\t// in\n    tag_99:\n    tag_98:\n      swap1\n      0x00\n      mstore\n      keccak256(0x00, 0x20)\n      swap1\n      0x04\n      mul\n      add\n        /* \"contracts/Test1.sol\":1267:1289  users[i].walletAddress */\n      0x00\n      add\n      0x00\n      swap1\n      sload\n      swap1\n      0x0100\n      exp\n      swap1\n      div\n      0xffffffffffffffffffffffffffffffffffffffff\n      and\n        /* \"contracts/Test1.sol\":1267:1306  users[i].walletAddress == walletAddress */\n      0xffffffffffffffffffffffffffffffffffffffff\n      and\n      eq\n        /* \"contracts/Test1.sol\":1264:1399  if(users[i].walletAddress == walletAddress){... */\n      iszero\n      tag_101\n      jumpi\n        /* \"contracts/Test1.sol\":1347:1351  true */\n      0x01\n        /* \"contracts/Test1.sol\":1325:1330  users */\n      dup1\n        /* \"contracts/Test1.sol\":1331:1332  i */\n      dup3\n        /* \"contracts/Test1.sol\":1325:1333  users[i] */\n      dup2\n      sload\n      dup2\n      lt\n      tag_102\n      jumpi\n      tag_103\n      tag_66\n      jump\t// in\n    tag_103:\n    tag_102:\n      swap1\n      0x00\n      mstore\n      keccak256(0x00, 0x20)\n      swap1\n      0x04\n      mul\n      add\n        /* \"contracts/Test1.sol\":1325:1344  users[i].isInvestor */\n      0x03\n      add\n      0x00\n        /* \"contracts/Test1.sol\":1325:1351  users[i].isInvestor = true */\n      0x0100\n      exp\n      dup2\n      sload\n      dup2\n      0xff\n      mul\n      not\n      and\n      swap1\n      dup4\n      iszero\n      iszero\n      mul\n      or\n      swap1\n      sstore\n      pop\n        /* \"contracts/Test1.sol\":1376:1381  users */\n      0x01\n        /* \"contracts/Test1.sol\":1382:1383  i */\n      dup2\n        /* \"contracts/Test1.sol\":1376:1384  users[i] */\n      dup2\n      sload\n      dup2\n      lt\n      tag_105\n      jumpi\n      tag_106\n      tag_66\n      jump\t// in\n    tag_106:\n    tag_105:\n      swap1\n      0x00\n      mstore\n      keccak256(0x00, 0x20)\n      swap1\n      0x04\n      mul\n      add\n        /* \"contracts/Test1.sol\":1369:1384  return users[i] */\n      mload(0x40)\n      dup1\n      0x80\n      add\n      0x40\n      mstore\n      swap1\n      dup2\n      0x00\n      dup3\n      add\n      0x00\n      swap1\n      sload\n      swap1\n      0x0100\n      exp\n      swap1\n      div\n      0xffffffffffffffffffffffffffffffffffffffff\n      and\n      0xffffffffffffffffffffffffffffffffffffffff\n      and\n      0xffffffffffffffffffffffffffffffffffffffff\n      and\n      dup2\n      mstore\n      0x20\n      add\n      0x01\n      dup3\n      add\n      dup1\n      sload\n      tag_108\n      swap1\n      tag_85\n      jump\t// in\n    tag_108:\n      dup1\n      0x1f\n      add\n      0x20\n      dup1\n      swap2\n      div\n      mul\n      0x20\n      add\n      mload(0x40)\n      swap1\n      dup2\n      add\n      0x40\n      mstore\n      dup1\n      swap3\n      swap2\n      swap1\n      dup2\n      dup2\n      mstore\n      0x20\n      add\n      dup3\n      dup1\n      sload\n      tag_109\n      swap1\n      tag_85\n      jump\t// in\n    tag_109:\n      dup1\n      iszero\n      tag_110\n      jumpi\n      dup1\n      0x1f\n      lt\n      tag_111\n      jumpi\n      0x0100\n      dup1\n      dup4\n      sload\n      div\n      mul\n      dup4\n      mstore\n      swap2\n      0x20\n      add\n      swap2\n      jump(tag_110)\n    tag_111:\n      dup3\n      add\n      swap2\n      swap1\n      0x00\n      mstore\n      keccak256(0x00, 0x20)\n      swap1\n    tag_112:\n      dup2\n      sload\n      dup2\n      mstore\n      swap1\n      0x01\n      add\n      swap1\n      0x20\n      add\n      dup1\n      dup4\n      gt\n      tag_112\n      jumpi\n      dup3\n      swap1\n      sub\n      0x1f\n      and\n      dup3\n      add\n      swap2\n    tag_110:\n      pop\n      pop\n      pop\n      pop\n      pop\n      dup2\n      mstore\n      0x20\n      add\n      0x02\n      dup3\n      add\n      sload\n      dup2\n      mstore\n      0x20\n      add\n      0x03\n      dup3\n      add\n      0x00\n      swap1\n      sload\n      swap1\n      0x0100\n      exp\n      swap1\n      div\n      0xff\n      and\n      iszero\n      iszero\n      iszero\n      iszero\n      dup2\n      mstore\n      pop\n      pop\n      swap2\n      pop\n      pop\n      jump(tag_94)\n        /* \"contracts/Test1.sol\":1264:1399  if(users[i].walletAddress == walletAddress){... */\n    tag_101:\n        /* \"contracts/Test1.sol\":1246:1249  i++ */\n      dup1\n      dup1\n      tag_113\n      swap1\n      tag_70\n      jump\t// in\n    tag_113:\n      swap2\n      pop\n      pop\n        /* \"contracts/Test1.sol\":1212:1409  for(uint i = 0; i < users.length; i++){... */\n      jump(tag_95)\n    tag_96:\n      pop\n        /* \"contracts/Test1.sol\":1418:1450  revert(\"Invalid Wallet Address\") */\n      mload(0x40)\n      0x08c379a000000000000000000000000000000000000000000000000000000000\n      dup2\n      mstore\n      0x04\n      add\n      tag_114\n      swap1\n      tag_115\n      jump\t// in\n    tag_114:\n      mload(0x40)\n      dup1\n      swap2\n      sub\n      swap1\n      revert\n        /* \"contracts/Test1.sol\":1121:1457  function getUserByAddress(address walletAddress) public returns(User memory user){... */\n    tag_94:\n      swap2\n      swap1\n      pop\n      jump\t// out\n        /* \"contracts/Test1.sol\":643:684  mapping(address => User) public investors */\n    tag_48:\n      mstore(0x20, 0x02)\n      dup1\n      0x00\n      mstore\n      keccak256(0x00, 0x40)\n      0x00\n      swap2\n      pop\n      swap1\n      pop\n      dup1\n      0x00\n      add\n      0x00\n      swap1\n      sload\n      swap1\n      0x0100\n      exp\n      swap1\n      div\n      0xffffffffffffffffffffffffffffffffffffffff\n      and\n      swap1\n      dup1\n      0x01\n      add\n      dup1\n      sload\n      tag_116\n      swap1\n      tag_85\n      jump\t// in\n    tag_116:\n      dup1\n      0x1f\n      add\n      0x20\n      dup1\n      swap2\n      div\n      mul\n      0x20\n      add\n      mload(0x40)\n      swap1\n      dup2\n      add\n      0x40\n      mstore\n      dup1\n      swap3\n      swap2\n      swap1\n      dup2\n      dup2\n      mstore\n      0x20\n      add\n      dup3\n      dup1\n      sload\n      tag_117\n      swap1\n      tag_85\n      jump\t// in\n    tag_117:\n      dup1\n      iszero\n      tag_118\n      jumpi\n      dup1\n      0x1f\n      lt\n      tag_119\n      jumpi\n      0x0100\n      dup1\n      dup4\n      sload\n      div\n      mul\n      dup4\n      mstore\n      swap2\n      0x20\n      add\n      swap2\n      jump(tag_118)\n    tag_119:\n      dup3\n      add\n      swap2\n      swap1\n      0x00\n      mstore\n      keccak256(0x00, 0x20)\n      swap1\n    tag_120:\n      dup2\n      sload\n      dup2\n      mstore\n      swap1\n      0x01\n      add\n      swap1\n      0x20\n      add\n      dup1\n      dup4\n      gt\n      tag_120\n      jumpi\n      dup3\n      swap1\n      sub\n      0x1f\n      and\n      dup3\n      add\n      swap2\n    tag_118:\n      pop\n      pop\n      pop\n      pop\n      pop\n      swap1\n      dup1\n      0x02\n      add\n      sload\n      swap1\n      dup1\n      0x03\n      add\n      0x00\n      swap1\n      sload\n      swap1\n      0x0100\n      exp\n      swap1\n      div\n      0xff\n      and\n      swap1\n      pop\n      dup5\n      jump\t// out\n        /* \"contracts/Test1.sol\":2257:2520  function balanceOf(address walletAddress) public view returns(uint){... */\n    tag_53:\n        /* \"contracts/Test1.sol\":2319:2323  uint */\n      0x00\n        /* \"contracts/Test1.sol\":2338:2344  uint i */\n      dup1\n        /* \"contracts/Test1.sol\":2347:2348  0 */\n      0x00\n        /* \"contracts/Test1.sol\":2338:2348  uint i = 0 */\n      swap1\n      pop\n        /* \"contracts/Test1.sol\":2334:2494  for(uint i = 0; i < users.length; i++){... */\n    tag_122:\n        /* \"contracts/Test1.sol\":2354:2359  users */\n      0x01\n        /* \"contracts/Test1.sol\":2354:2366  users.length */\n      dup1\n      sload\n      swap1\n      pop\n        /* \"contracts/Test1.sol\":2350:2351  i */\n      dup2\n        /* \"contracts/Test1.sol\":2350:2366  i < users.length */\n      lt\n        /* \"contracts/Test1.sol\":2334:2494  for(uint i = 0; i < users.length; i++){... */\n      iszero\n      tag_123\n      jumpi\n        /* \"contracts/Test1.sol\":2415:2428  walletAddress */\n      dup3\n        /* \"contracts/Test1.sol\":2389:2428  users[i].walletAddress == walletAddress */\n      0xffffffffffffffffffffffffffffffffffffffff\n      and\n        /* \"contracts/Test1.sol\":2389:2394  users */\n      0x01\n        /* \"contracts/Test1.sol\":2395:2396  i */\n      dup3\n        /* \"contracts/Test1.sol\":2389:2397  users[i] */\n      dup2\n      sload\n      dup2\n      lt\n      tag_125\n      jumpi\n      tag_126\n      tag_66\n      jump\t// in\n    tag_126:\n    tag_125:\n      swap1\n      0x00\n      mstore\n      keccak256(0x00, 0x20)\n      swap1\n      0x04\n      mul\n      add\n        /* \"contracts/Test1.sol\":2389:2411  users[i].walletAddress */\n      0x00\n      add\n      0x00\n      swap1\n      sload\n      swap1\n      0x0100\n      exp\n      swap1\n      div\n      0xffffffffffffffffffffffffffffffffffffffff\n      and\n        /* \"contracts/Test1.sol\":2389:2428  users[i].walletAddress == walletAddress */\n      0xffffffffffffffffffffffffffffffffffffffff\n      and\n      eq\n        /* \"contracts/Test1.sol\":2386:2484  if(users[i].walletAddress == walletAddress){... */\n      iszero\n      tag_128\n      jumpi\n        /* \"contracts/Test1.sol\":2454:2459  users */\n      0x01\n        /* \"contracts/Test1.sol\":2460:2461  i */\n      dup2\n        /* \"contracts/Test1.sol\":2454:2462  users[i] */\n      dup2\n      sload\n      dup2\n      lt\n      tag_129\n      jumpi\n      tag_130\n      tag_66\n      jump\t// in\n    tag_130:\n    tag_129:\n      swap1\n      0x00\n      mstore\n      keccak256(0x00, 0x20)\n      swap1\n      0x04\n      mul\n      add\n        /* \"contracts/Test1.sol\":2454:2469  users[i].amount */\n      0x02\n      add\n      sload\n        /* \"contracts/Test1.sol\":2447:2469  return users[i].amount */\n      swap2\n      pop\n      pop\n      jump(tag_121)\n        /* \"contracts/Test1.sol\":2386:2484  if(users[i].walletAddress == walletAddress){... */\n    tag_128:\n        /* \"contracts/Test1.sol\":2368:2371  i++ */\n      dup1\n      dup1\n      tag_132\n      swap1\n      tag_70\n      jump\t// in\n    tag_132:\n      swap2\n      pop\n      pop\n        /* \"contracts/Test1.sol\":2334:2494  for(uint i = 0; i < users.length; i++){... */\n      jump(tag_122)\n    tag_123:\n      pop\n        /* \"contracts/Test1.sol\":2510:2513  999 */\n      0x03e7\n        /* \"contracts/Test1.sol\":2503:2513  return 999 */\n      swap1\n      pop\n        /* \"contracts/Test1.sol\":2257:2520  function balanceOf(address walletAddress) public view returns(uint){... */\n    tag_121:\n      swap2\n      swap1\n      pop\n      jump\t// out\n        /* \"contracts/Test1.sol\":877:1115  function addToInvestors(address walletAddress) public onlyOwner{... */\n    tag_59:\n        /* \"contracts/Test1.sol\":334:339  owner */\n      0x00\n      dup1\n      sload\n      swap1\n      0x0100\n      exp\n      swap1\n      div\n      0xffffffffffffffffffffffffffffffffffffffff\n      and\n        /* \"contracts/Test1.sol\":320:339  msg.sender == owner */\n      0xffffffffffffffffffffffffffffffffffffffff\n      and\n        /* \"contracts/Test1.sol\":320:330  msg.sender */\n      caller\n        /* \"contracts/Test1.sol\":320:339  msg.sender == owner */\n      0xffffffffffffffffffffffffffffffffffffffff\n      and\n      eq\n        /* \"contracts/Test1.sol\":312:365  require(msg.sender == owner, \"You are not the owner\") */\n      tag_134\n      jumpi\n      mload(0x40)\n      0x08c379a000000000000000000000000000000000000000000000000000000000\n      dup2\n      mstore\n      0x04\n      add\n      tag_135\n      swap1\n      tag_77\n      jump\t// in\n    tag_135:\n      mload(0x40)\n      dup1\n      swap2\n      sub\n      swap1\n      revert\n    tag_134:\n        /* \"contracts/Test1.sol\":950:966  User memory user */\n      0x00\n        /* \"contracts/Test1.sol\":969:1000  getUserByAddress(walletAddress) */\n      tag_137\n        /* \"contracts/Test1.sol\":986:999  walletAddress */\n      dup3\n        /* \"contracts/Test1.sol\":969:985  getUserByAddress */\n      tag_42\n        /* \"contracts/Test1.sol\":969:1000  getUserByAddress(walletAddress) */\n      jump\t// in\n    tag_137:\n        /* \"contracts/Test1.sol\":950:1000  User memory user = getUserByAddress(walletAddress) */\n      swap1\n      pop\n        /* \"contracts/Test1.sol\":1013:1043  userExists(user.walletAddress) */\n      tag_138\n        /* \"contracts/Test1.sol\":1024:1028  user */\n      dup2\n        /* \"contracts/Test1.sol\":1024:1042  user.walletAddress */\n      0x00\n      add\n      mload\n        /* \"contracts/Test1.sol\":1013:1023  userExists */\n      tag_16\n        /* \"contracts/Test1.sol\":1013:1043  userExists(user.walletAddress) */\n      jump\t// in\n    tag_138:\n        /* \"contracts/Test1.sol\":1010:1068  if(userExists(user.walletAddress)){... */\n      pop\n        /* \"contracts/Test1.sol\":1104:1108  user */\n      dup1\n        /* \"contracts/Test1.sol\":1077:1086  investors */\n      0x02\n        /* \"contracts/Test1.sol\":1077:1101  investors[walletAddress] */\n      0x00\n        /* \"contracts/Test1.sol\":1087:1100  walletAddress */\n      dup5\n        /* \"contracts/Test1.sol\":1077:1101  investors[walletAddress] */\n      0xffffffffffffffffffffffffffffffffffffffff\n      and\n      0xffffffffffffffffffffffffffffffffffffffff\n      and\n      dup2\n      mstore\n      0x20\n      add\n      swap1\n      dup2\n      mstore\n      0x20\n      add\n      0x00\n      keccak256\n        /* \"contracts/Test1.sol\":1077:1108  investors[walletAddress] = user */\n      0x00\n      dup3\n      add\n      mload\n      dup2\n      0x00\n      add\n      exp(0x0100, 0x00)\n      dup2\n      sload\n      dup2\n      0xffffffffffffffffffffffffffffffffffffffff\n      mul\n      not\n      and\n      swap1\n      dup4\n      0xffffffffffffffffffffffffffffffffffffffff\n      and\n      mul\n      or\n      swap1\n      sstore\n      pop\n      0x20\n      dup3\n      add\n      mload\n      dup2\n      0x01\n      add\n      swap1\n      dup1\n      mload\n      swap1\n      0x20\n      add\n      swap1\n      tag_140\n      swap3\n      swap2\n      swap1\n      tag_81\n      jump\t// in\n    tag_140:\n      pop\n      0x40\n      dup3\n      add\n      mload\n      dup2\n      0x02\n      add\n      sstore\n      0x60\n      dup3\n      add\n      mload\n      dup2\n      0x03\n      add\n      exp(0x0100, 0x00)\n      dup2\n      sload\n      dup2\n      0xff\n      mul\n      not\n      and\n      swap1\n      dup4\n      iszero\n      iszero\n      mul\n      or\n      swap1\n      sstore\n      pop\n      swap1\n      pop\n      pop\n        /* \"contracts/Test1.sol\":940:1115  {... */\n      pop\n        /* \"contracts/Test1.sol\":877:1115  function addToInvestors(address walletAddress) public onlyOwner{... */\n      pop\n      jump\t// out\n        /* \"contracts/Test1.sol\":2011:2251  function transferToAddress(address walletAddress) private {... */\n    tag_73:\n        /* \"contracts/Test1.sol\":2083:2089  uint i */\n      0x00\n        /* \"contracts/Test1.sol\":2079:2245  for(uint i = 0; i < users.length; i++){... */\n    tag_142:\n        /* \"contracts/Test1.sol\":2099:2104  users */\n      0x01\n        /* \"contracts/Test1.sol\":2099:2111  users.length */\n      dup1\n      sload\n      swap1\n      pop\n        /* \"contracts/Test1.sol\":2095:2096  i */\n      dup2\n        /* \"contracts/Test1.sol\":2095:2111  i < users.length */\n      lt\n        /* \"contracts/Test1.sol\":2079:2245  for(uint i = 0; i < users.length; i++){... */\n      iszero\n      tag_143\n      jumpi\n        /* \"contracts/Test1.sol\":2160:2173  walletAddress */\n      dup2\n        /* \"contracts/Test1.sol\":2134:2173  users[i].walletAddress == walletAddress */\n      0xffffffffffffffffffffffffffffffffffffffff\n      and\n        /* \"contracts/Test1.sol\":2134:2139  users */\n      0x01\n        /* \"contracts/Test1.sol\":2140:2141  i */\n      dup3\n        /* \"contracts/Test1.sol\":2134:2142  users[i] */\n      dup2\n      sload\n      dup2\n      lt\n      tag_145\n      jumpi\n      tag_146\n      tag_66\n      jump\t// in\n    tag_146:\n    tag_145:\n      swap1\n      0x00\n      mstore\n      keccak256(0x00, 0x20)\n      swap1\n      0x04\n      mul\n      add\n        /* \"contracts/Test1.sol\":2134:2156  users[i].walletAddress */\n      0x00\n      add\n      0x00\n      swap1\n      sload\n      swap1\n      0x0100\n      exp\n      swap1\n      div\n      0xffffffffffffffffffffffffffffffffffffffff\n      and\n        /* \"contracts/Test1.sol\":2134:2173  users[i].walletAddress == walletAddress */\n      0xffffffffffffffffffffffffffffffffffffffff\n      and\n      eq\n        /* \"contracts/Test1.sol\":2131:2235  if(users[i].walletAddress == walletAddress){... */\n      iszero\n      tag_148\n      jumpi\n        /* \"contracts/Test1.sol\":2211:2220  msg.value */\n      callvalue\n        /* \"contracts/Test1.sol\":2192:2197  users */\n      0x01\n        /* \"contracts/Test1.sol\":2198:2199  i */\n      dup3\n        /* \"contracts/Test1.sol\":2192:2200  users[i] */\n      dup2\n      sload\n      dup2\n      lt\n      tag_149\n      jumpi\n      tag_150\n      tag_66\n      jump\t// in\n    tag_150:\n    tag_149:\n      swap1\n      0x00\n      mstore\n      keccak256(0x00, 0x20)\n      swap1\n      0x04\n      mul\n      add\n        /* \"contracts/Test1.sol\":2192:2207  users[i].amount */\n      0x02\n      add\n      0x00\n        /* \"contracts/Test1.sol\":2192:2220  users[i].amount += msg.value */\n      dup3\n      dup3\n      sload\n      tag_152\n      swap2\n      swap1\n      tag_153\n      jump\t// in\n    tag_152:\n      swap3\n      pop\n      pop\n      dup2\n      swap1\n      sstore\n      pop\n        /* \"contracts/Test1.sol\":2131:2235  if(users[i].walletAddress == walletAddress){... */\n    tag_148:\n        /* \"contracts/Test1.sol\":2113:2116  i++ */\n      dup1\n      dup1\n      tag_154\n      swap1\n      tag_70\n      jump\t// in\n    tag_154:\n      swap2\n      pop\n      pop\n        /* \"contracts/Test1.sol\":2079:2245  for(uint i = 0; i < users.length; i++){... */\n      jump(tag_142)\n    tag_143:\n      pop\n        /* \"contracts/Test1.sol\":2011:2251  function transferToAddress(address walletAddress) private {... */\n      pop\n      jump\t// out\n    tag_81:\n      dup3\n      dup1\n      sload\n      tag_155\n      swap1\n      tag_85\n      jump\t// in\n    tag_155:\n      swap1\n      0x00\n      mstore\n      keccak256(0x00, 0x20)\n      swap1\n      0x1f\n      add\n      0x20\n      swap1\n      div\n      dup2\n      add\n      swap3\n      dup3\n      tag_157\n      jumpi\n      0x00\n      dup6\n      sstore\n      jump(tag_156)\n    tag_157:\n      dup3\n      0x1f\n      lt\n      tag_158\n      jumpi\n      dup1\n      mload\n      not(0xff)\n      and\n      dup4\n      dup1\n      add\n      or\n      dup6\n      sstore\n      jump(tag_156)\n    tag_158:\n      dup3\n      dup1\n      add\n      0x01\n      add\n      dup6\n      sstore\n      dup3\n      iszero\n      tag_156\n      jumpi\n      swap2\n      dup3\n      add\n    tag_159:\n      dup3\n      dup2\n      gt\n      iszero\n      tag_160\n      jumpi\n      dup3\n      mload\n      dup3\n      sstore\n      swap2\n      0x20\n      add\n      swap2\n      swap1\n      0x01\n      add\n      swap1\n      jump(tag_159)\n    tag_160:\n    tag_156:\n      pop\n      swap1\n      pop\n      tag_161\n      swap2\n      swap1\n      tag_162\n      jump\t// in\n    tag_161:\n      pop\n      swap1\n      jump\t// out\n    tag_93:\n      mload(0x40)\n      dup1\n      0x80\n      add\n      0x40\n      mstore\n      dup1\n      and(0xffffffffffffffffffffffffffffffffffffffff, 0x00)\n      dup2\n      mstore\n      0x20\n      add\n      0x60\n      dup2\n      mstore\n      0x20\n      add\n      0x00\n      dup2\n      mstore\n      0x20\n      add\n      iszero(iszero(0x00))\n      dup2\n      mstore\n      pop\n      swap1\n      jump\t// out\n    tag_162:\n    tag_163:\n      dup1\n      dup3\n      gt\n      iszero\n      tag_164\n      jumpi\n      0x00\n      dup2\n      0x00\n      swap1\n      sstore\n      pop\n      0x01\n      add\n      jump(tag_163)\n    tag_164:\n      pop\n      swap1\n      jump\t// out\n        /* \"#utility.yul\":7:419   */\n    tag_166:\n        /* \"#utility.yul\":85:90   */\n      0x00\n        /* \"#utility.yul\":110:176   */\n      tag_168\n        /* \"#utility.yul\":126:175   */\n      tag_169\n        /* \"#utility.yul\":168:174   */\n      dup5\n        /* \"#utility.yul\":126:175   */\n      tag_170\n      jump\t// in\n    tag_169:\n        /* \"#utility.yul\":110:176   */\n      tag_171\n      jump\t// in\n    tag_168:\n        /* \"#utility.yul\":101:176   */\n      swap1\n      pop\n        /* \"#utility.yul\":199:205   */\n      dup3\n        /* \"#utility.yul\":192:197   */\n      dup2\n        /* \"#utility.yul\":185:206   */\n      mstore\n        /* \"#utility.yul\":237:241   */\n      0x20\n        /* \"#utility.yul\":230:235   */\n      dup2\n        /* \"#utility.yul\":226:242   */\n      add\n        /* \"#utility.yul\":275:278   */\n      dup5\n        /* \"#utility.yul\":266:272   */\n      dup5\n        /* \"#utility.yul\":261:264   */\n      dup5\n        /* \"#utility.yul\":257:273   */\n      add\n        /* \"#utility.yul\":254:279   */\n      gt\n        /* \"#utility.yul\":251:363   */\n      iszero\n      tag_172\n      jumpi\n        /* \"#utility.yul\":282:361   */\n      tag_173\n      tag_174\n      jump\t// in\n    tag_173:\n        /* \"#utility.yul\":251:363   */\n    tag_172:\n        /* \"#utility.yul\":372:413   */\n      tag_175\n        /* \"#utility.yul\":406:412   */\n      dup5\n        /* \"#utility.yul\":401:404   */\n      dup3\n        /* \"#utility.yul\":396:399   */\n      dup6\n        /* \"#utility.yul\":372:413   */\n      tag_176\n      jump\t// in\n    tag_175:\n        /* \"#utility.yul\":91:419   */\n      pop\n        /* \"#utility.yul\":7:419   */\n      swap4\n      swap3\n      pop\n      pop\n      pop\n      jump\t// out\n        /* \"#utility.yul\":425:564   */\n    tag_177:\n        /* \"#utility.yul\":471:476   */\n      0x00\n        /* \"#utility.yul\":509:515   */\n      dup2\n        /* \"#utility.yul\":496:516   */\n      calldataload\n        /* \"#utility.yul\":487:516   */\n      swap1\n      pop\n        /* \"#utility.yul\":525:558   */\n      tag_179\n        /* \"#utility.yul\":552:557   */\n      dup2\n        /* \"#utility.yul\":525:558   */\n      tag_180\n      jump\t// in\n    tag_179:\n        /* \"#utility.yul\":425:564   */\n      swap3\n      swap2\n      pop\n      pop\n      jump\t// out\n        /* \"#utility.yul\":570:703   */\n    tag_181:\n        /* \"#utility.yul\":613:618   */\n      0x00\n        /* \"#utility.yul\":651:657   */\n      dup2\n        /* \"#utility.yul\":638:658   */\n      calldataload\n        /* \"#utility.yul\":629:658   */\n      swap1\n      pop\n        /* \"#utility.yul\":667:697   */\n      tag_183\n        /* \"#utility.yul\":691:696   */\n      dup2\n        /* \"#utility.yul\":667:697   */\n      tag_184\n      jump\t// in\n    tag_183:\n        /* \"#utility.yul\":570:703   */\n      swap3\n      swap2\n      pop\n      pop\n      jump\t// out\n        /* \"#utility.yul\":723:1063   */\n    tag_185:\n        /* \"#utility.yul\":779:784   */\n      0x00\n        /* \"#utility.yul\":828:831   */\n      dup3\n        /* \"#utility.yul\":821:825   */\n      0x1f\n        /* \"#utility.yul\":813:819   */\n      dup4\n        /* \"#utility.yul\":809:826   */\n      add\n        /* \"#utility.yul\":805:832   */\n      slt\n        /* \"#utility.yul\":795:917   */\n      tag_187\n      jumpi\n        /* \"#utility.yul\":836:915   */\n      tag_188\n      tag_189\n      jump\t// in\n    tag_188:\n        /* \"#utility.yul\":795:917   */\n    tag_187:\n        /* \"#utility.yul\":953:959   */\n      dup2\n        /* \"#utility.yul\":940:960   */\n      calldataload\n        /* \"#utility.yul\":978:1057   */\n      tag_190\n        /* \"#utility.yul\":1053:1056   */\n      dup5\n        /* \"#utility.yul\":1045:1051   */\n      dup3\n        /* \"#utility.yul\":1038:1042   */\n      0x20\n        /* \"#utility.yul\":1030:1036   */\n      dup7\n        /* \"#utility.yul\":1026:1043   */\n      add\n        /* \"#utility.yul\":978:1057   */\n      tag_166\n      jump\t// in\n    tag_190:\n        /* \"#utility.yul\":969:1057   */\n      swap2\n      pop\n        /* \"#utility.yul\":785:1063   */\n      pop\n        /* \"#utility.yul\":723:1063   */\n      swap3\n      swap2\n      pop\n      pop\n      jump\t// out\n        /* \"#utility.yul\":1069:1208   */\n    tag_191:\n        /* \"#utility.yul\":1115:1120   */\n      0x00\n        /* \"#utility.yul\":1153:1159   */\n      dup2\n        /* \"#utility.yul\":1140:1160   */\n      calldataload\n        /* \"#utility.yul\":1131:1160   */\n      swap1\n      pop\n        /* \"#utility.yul\":1169:1202   */\n      tag_193\n        /* \"#utility.yul\":1196:1201   */\n      dup2\n        /* \"#utility.yul\":1169:1202   */\n      tag_194\n      jump\t// in\n    tag_193:\n        /* \"#utility.yul\":1069:1208   */\n      swap3\n      swap2\n      pop\n      pop\n      jump\t// out\n        /* \"#utility.yul\":1214:1543   */\n    tag_15:\n        /* \"#utility.yul\":1273:1279   */\n      0x00\n        /* \"#utility.yul\":1322:1324   */\n      0x20\n        /* \"#utility.yul\":1310:1319   */\n      dup3\n        /* \"#utility.yul\":1301:1308   */\n      dup5\n        /* \"#utility.yul\":1297:1320   */\n      sub\n        /* \"#utility.yul\":1293:1325   */\n      slt\n        /* \"#utility.yul\":1290:1409   */\n      iszero\n      tag_196\n      jumpi\n        /* \"#utility.yul\":1328:1407   */\n      tag_197\n      tag_198\n      jump\t// in\n    tag_197:\n        /* \"#utility.yul\":1290:1409   */\n    tag_196:\n        /* \"#utility.yul\":1448:1449   */\n      0x00\n        /* \"#utility.yul\":1473:1526   */\n      tag_199\n        /* \"#utility.yul\":1518:1525   */\n      dup5\n        /* \"#utility.yul\":1509:1515   */\n      dup3\n        /* \"#utility.yul\":1498:1507   */\n      dup6\n        /* \"#utility.yul\":1494:1516   */\n      add\n        /* \"#utility.yul\":1473:1526   */\n      tag_177\n      jump\t// in\n    tag_199:\n        /* \"#utility.yul\":1463:1526   */\n      swap2\n      pop\n        /* \"#utility.yul\":1419:1536   */\n      pop\n        /* \"#utility.yul\":1214:1543   */\n      swap3\n      swap2\n      pop\n      pop\n      jump\t// out\n        /* \"#utility.yul\":1549:2488   */\n    tag_25:\n        /* \"#utility.yul\":1642:1648   */\n      0x00\n        /* \"#utility.yul\":1650:1656   */\n      dup1\n        /* \"#utility.yul\":1658:1664   */\n      0x00\n        /* \"#utility.yul\":1666:1672   */\n      dup1\n        /* \"#utility.yul\":1715:1718   */\n      0x80\n        /* \"#utility.yul\":1703:1712   */\n      dup6\n        /* \"#utility.yul\":1694:1701   */\n      dup8\n        /* \"#utility.yul\":1690:1713   */\n      sub\n        /* \"#utility.yul\":1686:1719   */\n      slt\n        /* \"#utility.yul\":1683:1803   */\n      iszero\n      tag_201\n      jumpi\n        /* \"#utility.yul\":1722:1801   */\n      tag_202\n      tag_198\n      jump\t// in\n    tag_202:\n        /* \"#utility.yul\":1683:1803   */\n    tag_201:\n        /* \"#utility.yul\":1842:1843   */\n      0x00\n        /* \"#utility.yul\":1867:1920   */\n      tag_203\n        /* \"#utility.yul\":1912:1919   */\n      dup8\n        /* \"#utility.yul\":1903:1909   */\n      dup3\n        /* \"#utility.yul\":1892:1901   */\n      dup9\n        /* \"#utility.yul\":1888:1910   */\n      add\n        /* \"#utility.yul\":1867:1920   */\n      tag_177\n      jump\t// in\n    tag_203:\n        /* \"#utility.yul\":1857:1920   */\n      swap5\n      pop\n        /* \"#utility.yul\":1813:1930   */\n      pop\n        /* \"#utility.yul\":1997:1999   */\n      0x20\n        /* \"#utility.yul\":1986:1995   */\n      dup6\n        /* \"#utility.yul\":1982:2000   */\n      add\n        /* \"#utility.yul\":1969:2001   */\n      calldataload\n        /* \"#utility.yul\":2028:2046   */\n      0xffffffffffffffff\n        /* \"#utility.yul\":2020:2026   */\n      dup2\n        /* \"#utility.yul\":2017:2047   */\n      gt\n        /* \"#utility.yul\":2014:2131   */\n      iszero\n      tag_204\n      jumpi\n        /* \"#utility.yul\":2050:2129   */\n      tag_205\n      tag_206\n      jump\t// in\n    tag_205:\n        /* \"#utility.yul\":2014:2131   */\n    tag_204:\n        /* \"#utility.yul\":2155:2218   */\n      tag_207\n        /* \"#utility.yul\":2210:2217   */\n      dup8\n        /* \"#utility.yul\":2201:2207   */\n      dup3\n        /* \"#utility.yul\":2190:2199   */\n      dup9\n        /* \"#utility.yul\":2186:2208   */\n      add\n        /* \"#utility.yul\":2155:2218   */\n      tag_185\n      jump\t// in\n    tag_207:\n        /* \"#utility.yul\":2145:2218   */\n      swap4\n      pop\n        /* \"#utility.yul\":1940:2228   */\n      pop\n        /* \"#utility.yul\":2267:2269   */\n      0x40\n        /* \"#utility.yul\":2293:2346   */\n      tag_208\n        /* \"#utility.yul\":2338:2345   */\n      dup8\n        /* \"#utility.yul\":2329:2335   */\n      dup3\n        /* \"#utility.yul\":2318:2327   */\n      dup9\n        /* \"#utility.yul\":2314:2336   */\n      add\n        /* \"#utility.yul\":2293:2346   */\n      tag_191\n      jump\t// in\n    tag_208:\n        /* \"#utility.yul\":2283:2346   */\n      swap3\n      pop\n        /* \"#utility.yul\":2238:2356   */\n      pop\n        /* \"#utility.yul\":2395:2397   */\n      0x60\n        /* \"#utility.yul\":2421:2471   */\n      tag_209\n        /* \"#utility.yul\":2463:2470   */\n      dup8\n        /* \"#utility.yul\":2454:2460   */\n      dup3\n        /* \"#utility.yul\":2443:2452   */\n      dup9\n        /* \"#utility.yul\":2439:2461   */\n      add\n        /* \"#utility.yul\":2421:2471   */\n      tag_181\n      jump\t// in\n    tag_209:\n        /* \"#utility.yul\":2411:2471   */\n      swap2\n      pop\n        /* \"#utility.yul\":2366:2481   */\n      pop\n        /* \"#utility.yul\":1549:2488   */\n      swap3\n      swap6\n      swap2\n      swap5\n      pop\n      swap3\n      pop\n      jump\t// out\n        /* \"#utility.yul\":2494:2823   */\n    tag_30:\n        /* \"#utility.yul\":2553:2559   */\n      0x00\n        /* \"#utility.yul\":2602:2604   */\n      0x20\n        /* \"#utility.yul\":2590:2599   */\n      dup3\n        /* \"#utility.yul\":2581:2588   */\n      dup5\n        /* \"#utility.yul\":2577:2600   */\n      sub\n        /* \"#utility.yul\":2573:2605   */\n      slt\n        /* \"#utility.yul\":2570:2689   */\n      iszero\n      tag_211\n      jumpi\n        /* \"#utility.yul\":2608:2687   */\n      tag_212\n      tag_198\n      jump\t// in\n    tag_212:\n        /* \"#utility.yul\":2570:2689   */\n    tag_211:\n        /* \"#utility.yul\":2728:2729   */\n      0x00\n        /* \"#utility.yul\":2753:2806   */\n      tag_213\n        /* \"#utility.yul\":2798:2805   */\n      dup5\n        /* \"#utility.yul\":2789:2795   */\n      dup3\n        /* \"#utility.yul\":2778:2787   */\n      dup6\n        /* \"#utility.yul\":2774:2796   */\n      add\n        /* \"#utility.yul\":2753:2806   */\n      tag_191\n      jump\t// in\n    tag_213:\n        /* \"#utility.yul\":2743:2806   */\n      swap2\n      pop\n        /* \"#utility.yul\":2699:2816   */\n      pop\n        /* \"#utility.yul\":2494:2823   */\n      swap3\n      swap2\n      pop\n      pop\n      jump\t// out\n        /* \"#utility.yul\":2829:2937   */\n    tag_214:\n        /* \"#utility.yul\":2906:2930   */\n      tag_216\n        /* \"#utility.yul\":2924:2929   */\n      dup2\n        /* \"#utility.yul\":2906:2930   */\n      tag_217\n      jump\t// in\n    tag_216:\n        /* \"#utility.yul\":2901:2904   */\n      dup3\n        /* \"#utility.yul\":2894:2931   */\n      mstore\n        /* \"#utility.yul\":2829:2937   */\n      pop\n      pop\n      jump\t// out\n        /* \"#utility.yul\":2943:3061   */\n    tag_218:\n        /* \"#utility.yul\":3030:3054   */\n      tag_220\n        /* \"#utility.yul\":3048:3053   */\n      dup2\n        /* \"#utility.yul\":3030:3054   */\n      tag_217\n      jump\t// in\n    tag_220:\n        /* \"#utility.yul\":3025:3028   */\n      dup3\n        /* \"#utility.yul\":3018:3055   */\n      mstore\n        /* \"#utility.yul\":2943:3061   */\n      pop\n      pop\n      jump\t// out\n        /* \"#utility.yul\":3067:3166   */\n    tag_221:\n        /* \"#utility.yul\":3138:3159   */\n      tag_223\n        /* \"#utility.yul\":3153:3158   */\n      dup2\n        /* \"#utility.yul\":3138:3159   */\n      tag_224\n      jump\t// in\n    tag_223:\n        /* \"#utility.yul\":3133:3136   */\n      dup3\n        /* \"#utility.yul\":3126:3160   */\n      mstore\n        /* \"#utility.yul\":3067:3166   */\n      pop\n      pop\n      jump\t// out\n        /* \"#utility.yul\":3172:3281   */\n    tag_225:\n        /* \"#utility.yul\":3253:3274   */\n      tag_227\n        /* \"#utility.yul\":3268:3273   */\n      dup2\n        /* \"#utility.yul\":3253:3274   */\n      tag_224\n      jump\t// in\n    tag_227:\n        /* \"#utility.yul\":3248:3251   */\n      dup3\n        /* \"#utility.yul\":3241:3275   */\n      mstore\n        /* \"#utility.yul\":3172:3281   */\n      pop\n      pop\n      jump\t// out\n        /* \"#utility.yul\":3287:3631   */\n    tag_228:\n        /* \"#utility.yul\":3365:3368   */\n      0x00\n        /* \"#utility.yul\":3393:3432   */\n      tag_230\n        /* \"#utility.yul\":3426:3431   */\n      dup3\n        /* \"#utility.yul\":3393:3432   */\n      tag_231\n      jump\t// in\n    tag_230:\n        /* \"#utility.yul\":3448:3509   */\n      tag_232\n        /* \"#utility.yul\":3502:3508   */\n      dup2\n        /* \"#utility.yul\":3497:3500   */\n      dup6\n        /* \"#utility.yul\":3448:3509   */\n      tag_233\n      jump\t// in\n    tag_232:\n        /* \"#utility.yul\":3441:3509   */\n      swap4\n      pop\n        /* \"#utility.yul\":3518:3570   */\n      tag_234\n        /* \"#utility.yul\":3563:3569   */\n      dup2\n        /* \"#utility.yul\":3558:3561   */\n      dup6\n        /* \"#utility.yul\":3551:3555   */\n      0x20\n        /* \"#utility.yul\":3544:3549   */\n      dup7\n        /* \"#utility.yul\":3540:3556   */\n      add\n        /* \"#utility.yul\":3518:3570   */\n      tag_235\n      jump\t// in\n    tag_234:\n        /* \"#utility.yul\":3595:3624   */\n      tag_236\n        /* \"#utility.yul\":3617:3623   */\n      dup2\n        /* \"#utility.yul\":3595:3624   */\n      tag_237\n      jump\t// in\n    tag_236:\n        /* \"#utility.yul\":3590:3593   */\n      dup5\n        /* \"#utility.yul\":3586:3625   */\n      add\n        /* \"#utility.yul\":3579:3625   */\n      swap2\n      pop\n        /* \"#utility.yul\":3369:3631   */\n      pop\n        /* \"#utility.yul\":3287:3631   */\n      swap3\n      swap2\n      pop\n      pop\n      jump\t// out\n        /* \"#utility.yul\":3637:4001   */\n    tag_238:\n        /* \"#utility.yul\":3725:3728   */\n      0x00\n        /* \"#utility.yul\":3753:3792   */\n      tag_240\n        /* \"#utility.yul\":3786:3791   */\n      dup3\n        /* \"#utility.yul\":3753:3792   */\n      tag_231\n      jump\t// in\n    tag_240:\n        /* \"#utility.yul\":3808:3879   */\n      tag_241\n        /* \"#utility.yul\":3872:3878   */\n      dup2\n        /* \"#utility.yul\":3867:3870   */\n      dup6\n        /* \"#utility.yul\":3808:3879   */\n      tag_242\n      jump\t// in\n    tag_241:\n        /* \"#utility.yul\":3801:3879   */\n      swap4\n      pop\n        /* \"#utility.yul\":3888:3940   */\n      tag_243\n        /* \"#utility.yul\":3933:3939   */\n      dup2\n        /* \"#utility.yul\":3928:3931   */\n      dup6\n        /* \"#utility.yul\":3921:3925   */\n      0x20\n        /* \"#utility.yul\":3914:3919   */\n      dup7\n        /* \"#utility.yul\":3910:3926   */\n      add\n        /* \"#utility.yul\":3888:3940   */\n      tag_235\n      jump\t// in\n    tag_243:\n        /* \"#utility.yul\":3965:3994   */\n      tag_244\n        /* \"#utility.yul\":3987:3993   */\n      dup2\n        /* \"#utility.yul\":3965:3994   */\n      tag_237\n      jump\t// in\n    tag_244:\n        /* \"#utility.yul\":3960:3963   */\n      dup5\n        /* \"#utility.yul\":3956:3995   */\n      add\n        /* \"#utility.yul\":3949:3995   */\n      swap2\n      pop\n        /* \"#utility.yul\":3729:4001   */\n      pop\n        /* \"#utility.yul\":3637:4001   */\n      swap3\n      swap2\n      pop\n      pop\n      jump\t// out\n        /* \"#utility.yul\":4007:4373   */\n    tag_245:\n        /* \"#utility.yul\":4149:4152   */\n      0x00\n        /* \"#utility.yul\":4170:4237   */\n      tag_247\n        /* \"#utility.yul\":4234:4236   */\n      0x16\n        /* \"#utility.yul\":4229:4232   */\n      dup4\n        /* \"#utility.yul\":4170:4237   */\n      tag_242\n      jump\t// in\n    tag_247:\n        /* \"#utility.yul\":4163:4237   */\n      swap2\n      pop\n        /* \"#utility.yul\":4246:4339   */\n      tag_248\n        /* \"#utility.yul\":4335:4338   */\n      dup3\n        /* \"#utility.yul\":4246:4339   */\n      tag_249\n      jump\t// in\n    tag_248:\n        /* \"#utility.yul\":4364:4366   */\n      0x20\n        /* \"#utility.yul\":4359:4362   */\n      dup3\n        /* \"#utility.yul\":4355:4367   */\n      add\n        /* \"#utility.yul\":4348:4367   */\n      swap1\n      pop\n        /* \"#utility.yul\":4007:4373   */\n      swap2\n      swap1\n      pop\n      jump\t// out\n        /* \"#utility.yul\":4379:4745   */\n    tag_250:\n        /* \"#utility.yul\":4521:4524   */\n      0x00\n        /* \"#utility.yul\":4542:4609   */\n      tag_252\n        /* \"#utility.yul\":4606:4608   */\n      0x15\n        /* \"#utility.yul\":4601:4604   */\n      dup4\n        /* \"#utility.yul\":4542:4609   */\n      tag_242\n      jump\t// in\n    tag_252:\n        /* \"#utility.yul\":4535:4609   */\n      swap2\n      pop\n        /* \"#utility.yul\":4618:4711   */\n      tag_253\n        /* \"#utility.yul\":4707:4710   */\n      dup3\n        /* \"#utility.yul\":4618:4711   */\n      tag_254\n      jump\t// in\n    tag_253:\n        /* \"#utility.yul\":4736:4738   */\n      0x20\n        /* \"#utility.yul\":4731:4734   */\n      dup3\n        /* \"#utility.yul\":4727:4739   */\n      add\n        /* \"#utility.yul\":4720:4739   */\n      swap1\n      pop\n        /* \"#utility.yul\":4379:4745   */\n      swap2\n      swap1\n      pop\n      jump\t// out\n        /* \"#utility.yul\":4797:5752   */\n    tag_255:\n        /* \"#utility.yul\":4906:4909   */\n      0x00\n        /* \"#utility.yul\":4942:4946   */\n      0x80\n        /* \"#utility.yul\":4937:4940   */\n      dup4\n        /* \"#utility.yul\":4933:4947   */\n      add\n        /* \"#utility.yul\":5038:5042   */\n      0x00\n        /* \"#utility.yul\":5031:5036   */\n      dup4\n        /* \"#utility.yul\":5027:5043   */\n      add\n        /* \"#utility.yul\":5021:5044   */\n      mload\n        /* \"#utility.yul\":5057:5120   */\n      tag_257\n        /* \"#utility.yul\":5114:5118   */\n      0x00\n        /* \"#utility.yul\":5109:5112   */\n      dup7\n        /* \"#utility.yul\":5105:5119   */\n      add\n        /* \"#utility.yul\":5091:5103   */\n      dup3\n        /* \"#utility.yul\":5057:5120   */\n      tag_214\n      jump\t// in\n    tag_257:\n        /* \"#utility.yul\":4957:5130   */\n      pop\n        /* \"#utility.yul\":5212:5216   */\n      0x20\n        /* \"#utility.yul\":5205:5210   */\n      dup4\n        /* \"#utility.yul\":5201:5217   */\n      add\n        /* \"#utility.yul\":5195:5218   */\n      mload\n        /* \"#utility.yul\":5265:5268   */\n      dup5\n        /* \"#utility.yul\":5259:5263   */\n      dup3\n        /* \"#utility.yul\":5255:5269   */\n      sub\n        /* \"#utility.yul\":5248:5252   */\n      0x20\n        /* \"#utility.yul\":5243:5246   */\n      dup7\n        /* \"#utility.yul\":5239:5253   */\n      add\n        /* \"#utility.yul\":5232:5270   */\n      mstore\n        /* \"#utility.yul\":5291:5364   */\n      tag_258\n        /* \"#utility.yul\":5359:5363   */\n      dup3\n        /* \"#utility.yul\":5345:5357   */\n      dup3\n        /* \"#utility.yul\":5291:5364   */\n      tag_228\n      jump\t// in\n    tag_258:\n        /* \"#utility.yul\":5283:5364   */\n      swap2\n      pop\n        /* \"#utility.yul\":5140:5375   */\n      pop\n        /* \"#utility.yul\":5459:5463   */\n      0x40\n        /* \"#utility.yul\":5452:5457   */\n      dup4\n        /* \"#utility.yul\":5448:5464   */\n      add\n        /* \"#utility.yul\":5442:5465   */\n      mload\n        /* \"#utility.yul\":5478:5541   */\n      tag_259\n        /* \"#utility.yul\":5535:5539   */\n      0x40\n        /* \"#utility.yul\":5530:5533   */\n      dup7\n        /* \"#utility.yul\":5526:5540   */\n      add\n        /* \"#utility.yul\":5512:5524   */\n      dup3\n        /* \"#utility.yul\":5478:5541   */\n      tag_260\n      jump\t// in\n    tag_259:\n        /* \"#utility.yul\":5385:5551   */\n      pop\n        /* \"#utility.yul\":5639:5643   */\n      0x60\n        /* \"#utility.yul\":5632:5637   */\n      dup4\n        /* \"#utility.yul\":5628:5644   */\n      add\n        /* \"#utility.yul\":5622:5645   */\n      mload\n        /* \"#utility.yul\":5658:5715   */\n      tag_261\n        /* \"#utility.yul\":5709:5713   */\n      0x60\n        /* \"#utility.yul\":5704:5707   */\n      dup7\n        /* \"#utility.yul\":5700:5714   */\n      add\n        /* \"#utility.yul\":5686:5698   */\n      dup3\n        /* \"#utility.yul\":5658:5715   */\n      tag_221\n      jump\t// in\n    tag_261:\n        /* \"#utility.yul\":5561:5725   */\n      pop\n        /* \"#utility.yul\":5742:5746   */\n      dup1\n        /* \"#utility.yul\":5735:5746   */\n      swap2\n      pop\n        /* \"#utility.yul\":4911:5752   */\n      pop\n        /* \"#utility.yul\":4797:5752   */\n      swap3\n      swap2\n      pop\n      pop\n      jump\t// out\n        /* \"#utility.yul\":5758:5866   */\n    tag_260:\n        /* \"#utility.yul\":5835:5859   */\n      tag_263\n        /* \"#utility.yul\":5853:5858   */\n      dup2\n        /* \"#utility.yul\":5835:5859   */\n      tag_264\n      jump\t// in\n    tag_263:\n        /* \"#utility.yul\":5830:5833   */\n      dup3\n        /* \"#utility.yul\":5823:5860   */\n      mstore\n        /* \"#utility.yul\":5758:5866   */\n      pop\n      pop\n      jump\t// out\n        /* \"#utility.yul\":5872:5990   */\n    tag_265:\n        /* \"#utility.yul\":5959:5983   */\n      tag_267\n        /* \"#utility.yul\":5977:5982   */\n      dup2\n        /* \"#utility.yul\":5959:5983   */\n      tag_264\n      jump\t// in\n    tag_267:\n        /* \"#utility.yul\":5954:5957   */\n      dup3\n        /* \"#utility.yul\":5947:5984   */\n      mstore\n        /* \"#utility.yul\":5872:5990   */\n      pop\n      pop\n      jump\t// out\n        /* \"#utility.yul\":5996:6628   */\n    tag_33:\n        /* \"#utility.yul\":6187:6191   */\n      0x00\n        /* \"#utility.yul\":6225:6228   */\n      0x80\n        /* \"#utility.yul\":6214:6223   */\n      dup3\n        /* \"#utility.yul\":6210:6229   */\n      add\n        /* \"#utility.yul\":6202:6229   */\n      swap1\n      pop\n        /* \"#utility.yul\":6239:6310   */\n      tag_269\n        /* \"#utility.yul\":6307:6308   */\n      0x00\n        /* \"#utility.yul\":6296:6305   */\n      dup4\n        /* \"#utility.yul\":6292:6309   */\n      add\n        /* \"#utility.yul\":6283:6289   */\n      dup8\n        /* \"#utility.yul\":6239:6310   */\n      tag_218\n      jump\t// in\n    tag_269:\n        /* \"#utility.yul\":6357:6366   */\n      dup2\n        /* \"#utility.yul\":6351:6355   */\n      dup2\n        /* \"#utility.yul\":6347:6367   */\n      sub\n        /* \"#utility.yul\":6342:6344   */\n      0x20\n        /* \"#utility.yul\":6331:6340   */\n      dup4\n        /* \"#utility.yul\":6327:6345   */\n      add\n        /* \"#utility.yul\":6320:6368   */\n      mstore\n        /* \"#utility.yul\":6385:6463   */\n      tag_270\n        /* \"#utility.yul\":6458:6462   */\n      dup2\n        /* \"#utility.yul\":6449:6455   */\n      dup7\n        /* \"#utility.yul\":6385:6463   */\n      tag_238\n      jump\t// in\n    tag_270:\n        /* \"#utility.yul\":6377:6463   */\n      swap1\n      pop\n        /* \"#utility.yul\":6473:6545   */\n      tag_271\n        /* \"#utility.yul\":6541:6543   */\n      0x40\n        /* \"#utility.yul\":6530:6539   */\n      dup4\n        /* \"#utility.yul\":6526:6544   */\n      add\n        /* \"#utility.yul\":6517:6523   */\n      dup6\n        /* \"#utility.yul\":6473:6545   */\n      tag_265\n      jump\t// in\n    tag_271:\n        /* \"#utility.yul\":6555:6621   */\n      tag_272\n        /* \"#utility.yul\":6617:6619   */\n      0x60\n        /* \"#utility.yul\":6606:6615   */\n      dup4\n        /* \"#utility.yul\":6602:6620   */\n      add\n        /* \"#utility.yul\":6593:6599   */\n      dup5\n        /* \"#utility.yul\":6555:6621   */\n      tag_225\n      jump\t// in\n    tag_272:\n        /* \"#utility.yul\":5996:6628   */\n      swap6\n      swap5\n      pop\n      pop\n      pop\n      pop\n      pop\n      jump\t// out\n        /* \"#utility.yul\":6634:6844   */\n    tag_18:\n        /* \"#utility.yul\":6721:6725   */\n      0x00\n        /* \"#utility.yul\":6759:6761   */\n      0x20\n        /* \"#utility.yul\":6748:6757   */\n      dup3\n        /* \"#utility.yul\":6744:6762   */\n      add\n        /* \"#utility.yul\":6736:6762   */\n      swap1\n      pop\n        /* \"#utility.yul\":6772:6837   */\n      tag_274\n        /* \"#utility.yul\":6834:6835   */\n      0x00\n        /* \"#utility.yul\":6823:6832   */\n      dup4\n        /* \"#utility.yul\":6819:6836   */\n      add\n        /* \"#utility.yul\":6810:6816   */\n      dup5\n        /* \"#utility.yul\":6772:6837   */\n      tag_225\n      jump\t// in\n    tag_274:\n        /* \"#utility.yul\":6634:6844   */\n      swap3\n      swap2\n      pop\n      pop\n      jump\t// out\n        /* \"#utility.yul\":6850:7269   */\n    tag_115:\n        /* \"#utility.yul\":7016:7020   */\n      0x00\n        /* \"#utility.yul\":7054:7056   */\n      0x20\n        /* \"#utility.yul\":7043:7052   */\n      dup3\n        /* \"#utility.yul\":7039:7057   */\n      add\n        /* \"#utility.yul\":7031:7057   */\n      swap1\n      pop\n        /* \"#utility.yul\":7103:7112   */\n      dup2\n        /* \"#utility.yul\":7097:7101   */\n      dup2\n        /* \"#utility.yul\":7093:7113   */\n      sub\n        /* \"#utility.yul\":7089:7090   */\n      0x00\n        /* \"#utility.yul\":7078:7087   */\n      dup4\n        /* \"#utility.yul\":7074:7091   */\n      add\n        /* \"#utility.yul\":7067:7114   */\n      mstore\n        /* \"#utility.yul\":7131:7262   */\n      tag_276\n        /* \"#utility.yul\":7257:7261   */\n      dup2\n        /* \"#utility.yul\":7131:7262   */\n      tag_245\n      jump\t// in\n    tag_276:\n        /* \"#utility.yul\":7123:7262   */\n      swap1\n      pop\n        /* \"#utility.yul\":6850:7269   */\n      swap2\n      swap1\n      pop\n      jump\t// out\n        /* \"#utility.yul\":7275:7694   */\n    tag_77:\n        /* \"#utility.yul\":7441:7445   */\n      0x00\n        /* \"#utility.yul\":7479:7481   */\n      0x20\n        /* \"#utility.yul\":7468:7477   */\n      dup3\n        /* \"#utility.yul\":7464:7482   */\n      add\n        /* \"#utility.yul\":7456:7482   */\n      swap1\n      pop\n        /* \"#utility.yul\":7528:7537   */\n      dup2\n        /* \"#utility.yul\":7522:7526   */\n      dup2\n        /* \"#utility.yul\":7518:7538   */\n      sub\n        /* \"#utility.yul\":7514:7515   */\n      0x00\n        /* \"#utility.yul\":7503:7512   */\n      dup4\n        /* \"#utility.yul\":7499:7516   */\n      add\n        /* \"#utility.yul\":7492:7539   */\n      mstore\n        /* \"#utility.yul\":7556:7687   */\n      tag_278\n        /* \"#utility.yul\":7682:7686   */\n      dup2\n        /* \"#utility.yul\":7556:7687   */\n      tag_250\n      jump\t// in\n    tag_278:\n        /* \"#utility.yul\":7548:7687   */\n      swap1\n      pop\n        /* \"#utility.yul\":7275:7694   */\n      swap2\n      swap1\n      pop\n      jump\t// out\n        /* \"#utility.yul\":7700:8053   */\n    tag_44:\n        /* \"#utility.yul\":7833:7837   */\n      0x00\n        /* \"#utility.yul\":7871:7873   */\n      0x20\n        /* \"#utility.yul\":7860:7869   */\n      dup3\n        /* \"#utility.yul\":7856:7874   */\n      add\n        /* \"#utility.yul\":7848:7874   */\n      swap1\n      pop\n        /* \"#utility.yul\":7920:7929   */\n      dup2\n        /* \"#utility.yul\":7914:7918   */\n      dup2\n        /* \"#utility.yul\":7910:7930   */\n      sub\n        /* \"#utility.yul\":7906:7907   */\n      0x00\n        /* \"#utility.yul\":7895:7904   */\n      dup4\n        /* \"#utility.yul\":7891:7908   */\n      add\n        /* \"#utility.yul\":7884:7931   */\n      mstore\n        /* \"#utility.yul\":7948:8046   */\n      tag_280\n        /* \"#utility.yul\":8041:8045   */\n      dup2\n        /* \"#utility.yul\":8032:8038   */\n      dup5\n        /* \"#utility.yul\":7948:8046   */\n      tag_255\n      jump\t// in\n    tag_280:\n        /* \"#utility.yul\":7940:8046   */\n      swap1\n      pop\n        /* \"#utility.yul\":7700:8053   */\n      swap3\n      swap2\n      pop\n      pop\n      jump\t// out\n        /* \"#utility.yul\":8059:8281   */\n    tag_55:\n        /* \"#utility.yul\":8152:8156   */\n      0x00\n        /* \"#utility.yul\":8190:8192   */\n      0x20\n        /* \"#utility.yul\":8179:8188   */\n      dup3\n        /* \"#utility.yul\":8175:8193   */\n      add\n        /* \"#utility.yul\":8167:8193   */\n      swap1\n      pop\n        /* \"#utility.yul\":8203:8274   */\n      tag_282\n        /* \"#utility.yul\":8271:8272   */\n      0x00\n        /* \"#utility.yul\":8260:8269   */\n      dup4\n        /* \"#utility.yul\":8256:8273   */\n      add\n        /* \"#utility.yul\":8247:8253   */\n      dup5\n        /* \"#utility.yul\":8203:8274   */\n      tag_265\n      jump\t// in\n    tag_282:\n        /* \"#utility.yul\":8059:8281   */\n      swap3\n      swap2\n      pop\n      pop\n      jump\t// out\n        /* \"#utility.yul\":8287:8416   */\n    tag_171:\n        /* \"#utility.yul\":8321:8327   */\n      0x00\n        /* \"#utility.yul\":8348:8368   */\n      tag_284\n      tag_285\n      jump\t// in\n    tag_284:\n        /* \"#utility.yul\":8338:8368   */\n      swap1\n      pop\n        /* \"#utility.yul\":8377:8410   */\n      tag_286\n        /* \"#utility.yul\":8405:8409   */\n      dup3\n        /* \"#utility.yul\":8397:8403   */\n      dup3\n        /* \"#utility.yul\":8377:8410   */\n      tag_287\n      jump\t// in\n    tag_286:\n        /* \"#utility.yul\":8287:8416   */\n      swap2\n      swap1\n      pop\n      jump\t// out\n        /* \"#utility.yul\":8422:8497   */\n    tag_285:\n        /* \"#utility.yul\":8455:8461   */\n      0x00\n        /* \"#utility.yul\":8488:8490   */\n      0x40\n        /* \"#utility.yul\":8482:8491   */\n      mload\n        /* \"#utility.yul\":8472:8491   */\n      swap1\n      pop\n        /* \"#utility.yul\":8422:8497   */\n      swap1\n      jump\t// out\n        /* \"#utility.yul\":8503:8811   */\n    tag_170:\n        /* \"#utility.yul\":8565:8569   */\n      0x00\n        /* \"#utility.yul\":8655:8673   */\n      0xffffffffffffffff\n        /* \"#utility.yul\":8647:8653   */\n      dup3\n        /* \"#utility.yul\":8644:8674   */\n      gt\n        /* \"#utility.yul\":8641:8697   */\n      iszero\n      tag_290\n      jumpi\n        /* \"#utility.yul\":8677:8695   */\n      tag_291\n      tag_292\n      jump\t// in\n    tag_291:\n        /* \"#utility.yul\":8641:8697   */\n    tag_290:\n        /* \"#utility.yul\":8715:8744   */\n      tag_293\n        /* \"#utility.yul\":8737:8743   */\n      dup3\n        /* \"#utility.yul\":8715:8744   */\n      tag_237\n      jump\t// in\n    tag_293:\n        /* \"#utility.yul\":8707:8744   */\n      swap1\n      pop\n        /* \"#utility.yul\":8799:8803   */\n      0x20\n        /* \"#utility.yul\":8793:8797   */\n      dup2\n        /* \"#utility.yul\":8789:8804   */\n      add\n        /* \"#utility.yul\":8781:8804   */\n      swap1\n      pop\n        /* \"#utility.yul\":8503:8811   */\n      swap2\n      swap1\n      pop\n      jump\t// out\n        /* \"#utility.yul\":8817:8916   */\n    tag_231:\n        /* \"#utility.yul\":8869:8875   */\n      0x00\n        /* \"#utility.yul\":8903:8908   */\n      dup2\n        /* \"#utility.yul\":8897:8909   */\n      mload\n        /* \"#utility.yul\":8887:8909   */\n      swap1\n      pop\n        /* \"#utility.yul\":8817:8916   */\n      swap2\n      swap1\n      pop\n      jump\t// out\n        /* \"#utility.yul\":8922:9081   */\n    tag_233:\n        /* \"#utility.yul\":8996:9007   */\n      0x00\n        /* \"#utility.yul\":9030:9036   */\n      dup3\n        /* \"#utility.yul\":9025:9028   */\n      dup3\n        /* \"#utility.yul\":9018:9037   */\n      mstore\n        /* \"#utility.yul\":9070:9074   */\n      0x20\n        /* \"#utility.yul\":9065:9068   */\n      dup3\n        /* \"#utility.yul\":9061:9075   */\n      add\n        /* \"#utility.yul\":9046:9075   */\n      swap1\n      pop\n        /* \"#utility.yul\":8922:9081   */\n      swap3\n      swap2\n      pop\n      pop\n      jump\t// out\n        /* \"#utility.yul\":9087:9256   */\n    tag_242:\n        /* \"#utility.yul\":9171:9182   */\n      0x00\n        /* \"#utility.yul\":9205:9211   */\n      dup3\n        /* \"#utility.yul\":9200:9203   */\n      dup3\n        /* \"#utility.yul\":9193:9212   */\n      mstore\n        /* \"#utility.yul\":9245:9249   */\n      0x20\n        /* \"#utility.yul\":9240:9243   */\n      dup3\n        /* \"#utility.yul\":9236:9250   */\n      add\n        /* \"#utility.yul\":9221:9250   */\n      swap1\n      pop\n        /* \"#utility.yul\":9087:9256   */\n      swap3\n      swap2\n      pop\n      pop\n      jump\t// out\n        /* \"#utility.yul\":9262:9567   */\n    tag_153:\n        /* \"#utility.yul\":9302:9305   */\n      0x00\n        /* \"#utility.yul\":9321:9341   */\n      tag_298\n        /* \"#utility.yul\":9339:9340   */\n      dup3\n        /* \"#utility.yul\":9321:9341   */\n      tag_264\n      jump\t// in\n    tag_298:\n        /* \"#utility.yul\":9316:9341   */\n      swap2\n      pop\n        /* \"#utility.yul\":9355:9375   */\n      tag_299\n        /* \"#utility.yul\":9373:9374   */\n      dup4\n        /* \"#utility.yul\":9355:9375   */\n      tag_264\n      jump\t// in\n    tag_299:\n        /* \"#utility.yul\":9350:9375   */\n      swap3\n      pop\n        /* \"#utility.yul\":9509:9510   */\n      dup3\n        /* \"#utility.yul\":9441:9507   */\n      0xffffffffffffffffffffffffffffffffffffffffffffffffffffffffffffffff\n        /* \"#utility.yul\":9437:9511   */\n      sub\n        /* \"#utility.yul\":9434:9435   */\n      dup3\n        /* \"#utility.yul\":9431:9512   */\n      gt\n        /* \"#utility.yul\":9428:9535   */\n      iszero\n      tag_300\n      jumpi\n        /* \"#utility.yul\":9515:9533   */\n      tag_301\n      tag_302\n      jump\t// in\n    tag_301:\n        /* \"#utility.yul\":9428:9535   */\n    tag_300:\n        /* \"#utility.yul\":9559:9560   */\n      dup3\n        /* \"#utility.yul\":9556:9557   */\n      dup3\n        /* \"#utility.yul\":9552:9561   */\n      add\n        /* \"#utility.yul\":9545:9561   */\n      swap1\n      pop\n        /* \"#utility.yul\":9262:9567   */\n      swap3\n      swap2\n      pop\n      pop\n      jump\t// out\n        /* \"#utility.yul\":9573:9669   */\n    tag_217:\n        /* \"#utility.yul\":9610:9617   */\n      0x00\n        /* \"#utility.yul\":9639:9663   */\n      tag_304\n        /* \"#utility.yul\":9657:9662   */\n      dup3\n        /* \"#utility.yul\":9639:9663   */\n      tag_305\n      jump\t// in\n    tag_304:\n        /* \"#utility.yul\":9628:9663   */\n      swap1\n      pop\n        /* \"#utility.yul\":9573:9669   */\n      swap2\n      swap1\n      pop\n      jump\t// out\n        /* \"#utility.yul\":9675:9765   */\n    tag_224:\n        /* \"#utility.yul\":9709:9716   */\n      0x00\n        /* \"#utility.yul\":9752:9757   */\n      dup2\n        /* \"#utility.yul\":9745:9758   */\n      iszero\n        /* \"#utility.yul\":9738:9759   */\n      iszero\n        /* \"#utility.yul\":9727:9759   */\n      swap1\n      pop\n        /* \"#utility.yul\":9675:9765   */\n      swap2\n      swap1\n      pop\n      jump\t// out\n        /* \"#utility.yul\":9771:9897   */\n    tag_305:\n        /* \"#utility.yul\":9808:9815   */\n      0x00\n        /* \"#utility.yul\":9848:9890   */\n      0xffffffffffffffffffffffffffffffffffffffff\n        /* \"#utility.yul\":9841:9846   */\n      dup3\n        /* \"#utility.yul\":9837:9891   */\n      and\n        /* \"#utility.yul\":9826:9891   */\n      swap1\n      pop\n        /* \"#utility.yul\":9771:9897   */\n      swap2\n      swap1\n      pop\n      jump\t// out\n        /* \"#utility.yul\":9903:9980   */\n    tag_264:\n        /* \"#utility.yul\":9940:9947   */\n      0x00\n        /* \"#utility.yul\":9969:9974   */\n      dup2\n        /* \"#utility.yul\":9958:9974   */\n      swap1\n      pop\n        /* \"#utility.yul\":9903:9980   */\n      swap2\n      swap1\n      pop\n      jump\t// out\n        /* \"#utility.yul\":9986:10140   */\n    tag_176:\n        /* \"#utility.yul\":10070:10076   */\n      dup3\n        /* \"#utility.yul\":10065:10068   */\n      dup2\n        /* \"#utility.yul\":10060:10063   */\n      dup4\n        /* \"#utility.yul\":10047:10077   */\n      calldatacopy\n        /* \"#utility.yul\":10132:10133   */\n      0x00\n        /* \"#utility.yul\":10123:10129   */\n      dup4\n        /* \"#utility.yul\":10118:10121   */\n      dup4\n        /* \"#utility.yul\":10114:10130   */\n      add\n        /* \"#utility.yul\":10107:10134   */\n      mstore\n        /* \"#utility.yul\":9986:10140   */\n      pop\n      pop\n      pop\n      jump\t// out\n        /* \"#utility.yul\":10146:10453   */\n    tag_235:\n        /* \"#utility.yul\":10214:10215   */\n      0x00\n        /* \"#utility.yul\":10224:10337   */\n    tag_311:\n        /* \"#utility.yul\":10238:10244   */\n      dup4\n        /* \"#utility.yul\":10235:10236   */\n      dup2\n        /* \"#utility.yul\":10232:10245   */\n      lt\n        /* \"#utility.yul\":10224:10337   */\n      iszero\n      tag_313\n      jumpi\n        /* \"#utility.yul\":10323:10324   */\n      dup1\n        /* \"#utility.yul\":10318:10321   */\n      dup3\n        /* \"#utility.yul\":10314:10325   */\n      add\n        /* \"#utility.yul\":10308:10326   */\n      mload\n        /* \"#utility.yul\":10304:10305   */\n      dup2\n        /* \"#utility.yul\":10299:10302   */\n      dup5\n        /* \"#utility.yul\":10295:10306   */\n      add\n        /* \"#utility.yul\":10288:10327   */\n      mstore\n        /* \"#utility.yul\":10260:10262   */\n      0x20\n        /* \"#utility.yul\":10257:10258   */\n      dup2\n        /* \"#utility.yul\":10253:10263   */\n      add\n        /* \"#utility.yul\":10248:10263   */\n      swap1\n      pop\n        /* \"#utility.yul\":10224:10337   */\n      jump(tag_311)\n    tag_313:\n        /* \"#utility.yul\":10355:10361   */\n      dup4\n        /* \"#utility.yul\":10352:10353   */\n      dup2\n        /* \"#utility.yul\":10349:10362   */\n      gt\n        /* \"#utility.yul\":10346:10447   */\n      iszero\n      tag_314\n      jumpi\n        /* \"#utility.yul\":10435:10436   */\n      0x00\n        /* \"#utility.yul\":10426:10432   */\n      dup5\n        /* \"#utility.yul\":10421:10424   */\n      dup5\n        /* \"#utility.yul\":10417:10433   */\n      add\n        /* \"#utility.yul\":10410:10437   */\n      mstore\n        /* \"#utility.yul\":10346:10447   */\n    tag_314:\n        /* \"#utility.yul\":10195:10453   */\n      pop\n        /* \"#utility.yul\":10146:10453   */\n      pop\n      pop\n      pop\n      jump\t// out\n        /* \"#utility.yul\":10459:10779   */\n    tag_85:\n        /* \"#utility.yul\":10503:10509   */\n      0x00\n        /* \"#utility.yul\":10540:10541   */\n      0x02\n        /* \"#utility.yul\":10534:10538   */\n      dup3\n        /* \"#utility.yul\":10530:10542   */\n      div\n        /* \"#utility.yul\":10520:10542   */\n      swap1\n      pop\n        /* \"#utility.yul\":10587:10588   */\n      0x01\n        /* \"#utility.yul\":10581:10585   */\n      dup3\n        /* \"#utility.yul\":10577:10589   */\n      and\n        /* \"#utility.yul\":10608:10626   */\n      dup1\n        /* \"#utility.yul\":10598:10679   */\n      tag_316\n      jumpi\n        /* \"#utility.yul\":10664:10668   */\n      0x7f\n        /* \"#utility.yul\":10656:10662   */\n      dup3\n        /* \"#utility.yul\":10652:10669   */\n      and\n        /* \"#utility.yul\":10642:10669   */\n      swap2\n      pop\n        /* \"#utility.yul\":10598:10679   */\n    tag_316:\n        /* \"#utility.yul\":10726:10728   */\n      0x20\n        /* \"#utility.yul\":10718:10724   */\n      dup3\n        /* \"#utility.yul\":10715:10729   */\n      lt\n        /* \"#utility.yul\":10695:10713   */\n      dup2\n        /* \"#utility.yul\":10692:10730   */\n      eq\n        /* \"#utility.yul\":10689:10773   */\n      iszero\n      tag_317\n      jumpi\n        /* \"#utility.yul\":10745:10763   */\n      tag_318\n      tag_319\n      jump\t// in\n    tag_318:\n        /* \"#utility.yul\":10689:10773   */\n    tag_317:\n        /* \"#utility.yul\":10510:10779   */\n      pop\n        /* \"#utility.yul\":10459:10779   */\n      swap2\n      swap1\n      pop\n      jump\t// out\n        /* \"#utility.yul\":10785:11066   */\n    tag_287:\n        /* \"#utility.yul\":10868:10895   */\n      tag_321\n        /* \"#utility.yul\":10890:10894   */\n      dup3\n        /* \"#utility.yul\":10868:10895   */\n      tag_237\n      jump\t// in\n    tag_321:\n        /* \"#utility.yul\":10860:10866   */\n      dup2\n        /* \"#utility.yul\":10856:10896   */\n      add\n        /* \"#utility.yul\":10998:11004   */\n      dup2\n        /* \"#utility.yul\":10986:10996   */\n      dup2\n        /* \"#utility.yul\":10983:11005   */\n      lt\n        /* \"#utility.yul\":10962:10980   */\n      0xffffffffffffffff\n        /* \"#utility.yul\":10950:10960   */\n      dup3\n        /* \"#utility.yul\":10947:10981   */\n      gt\n        /* \"#utility.yul\":10944:11006   */\n      or\n        /* \"#utility.yul\":10941:11029   */\n      iszero\n      tag_322\n      jumpi\n        /* \"#utility.yul\":11009:11027   */\n      tag_323\n      tag_292\n      jump\t// in\n    tag_323:\n        /* \"#utility.yul\":10941:11029   */\n    tag_322:\n        /* \"#utility.yul\":11049:11059   */\n      dup1\n        /* \"#utility.yul\":11045:11047   */\n      0x40\n        /* \"#utility.yul\":11038:11060   */\n      mstore\n        /* \"#utility.yul\":10828:11066   */\n      pop\n        /* \"#utility.yul\":10785:11066   */\n      pop\n      pop\n      jump\t// out\n        /* \"#utility.yul\":11072:11305   */\n    tag_70:\n        /* \"#utility.yul\":11111:11114   */\n      0x00\n        /* \"#utility.yul\":11134:11158   */\n      tag_325\n        /* \"#utility.yul\":11152:11157   */\n      dup3\n        /* \"#utility.yul\":11134:11158   */\n      tag_264\n      jump\t// in\n    tag_325:\n        /* \"#utility.yul\":11125:11158   */\n      swap2\n      pop\n        /* \"#utility.yul\":11180:11246   */\n      0xffffffffffffffffffffffffffffffffffffffffffffffffffffffffffffffff\n        /* \"#utility.yul\":11173:11178   */\n      dup3\n        /* \"#utility.yul\":11170:11247   */\n      eq\n        /* \"#utility.yul\":11167:11270   */\n      iszero\n      tag_326\n      jumpi\n        /* \"#utility.yul\":11250:11268   */\n      tag_327\n      tag_302\n      jump\t// in\n    tag_327:\n        /* \"#utility.yul\":11167:11270   */\n    tag_326:\n        /* \"#utility.yul\":11297:11298   */\n      0x01\n        /* \"#utility.yul\":11290:11295   */\n      dup3\n        /* \"#utility.yul\":11286:11299   */\n      add\n        /* \"#utility.yul\":11279:11299   */\n      swap1\n      pop\n        /* \"#utility.yul\":11072:11305   */\n      swap2\n      swap1\n      pop\n      jump\t// out\n        /* \"#utility.yul\":11311:11491   */\n    tag_302:\n        /* \"#utility.yul\":11359:11436   */\n      0x4e487b7100000000000000000000000000000000000000000000000000000000\n        /* \"#utility.yul\":11356:11357   */\n      0x00\n        /* \"#utility.yul\":11349:11437   */\n      mstore\n        /* \"#utility.yul\":11456:11460   */\n      0x11\n        /* \"#utility.yul\":11453:11454   */\n      0x04\n        /* \"#utility.yul\":11446:11461   */\n      mstore\n        /* \"#utility.yul\":11480:11484   */\n      0x24\n        /* \"#utility.yul\":11477:11478   */\n      0x00\n        /* \"#utility.yul\":11470:11485   */\n      revert\n        /* \"#utility.yul\":11497:11677   */\n    tag_319:\n        /* \"#utility.yul\":11545:11622   */\n      0x4e487b7100000000000000000000000000000000000000000000000000000000\n        /* \"#utility.yul\":11542:11543   */\n      0x00\n        /* \"#utility.yul\":11535:11623   */\n      mstore\n        /* \"#utility.yul\":11642:11646   */\n      0x22\n        /* \"#utility.yul\":11639:11640   */\n      0x04\n        /* \"#utility.yul\":11632:11647   */\n      mstore\n        /* \"#utility.yul\":11666:11670   */\n      0x24\n        /* \"#utility.yul\":11663:11664   */\n      0x00\n        /* \"#utility.yul\":11656:11671   */\n      revert\n        /* \"#utility.yul\":11683:11863   */\n    tag_66:\n        /* \"#utility.yul\":11731:11808   */\n      0x4e487b7100000000000000000000000000000000000000000000000000000000\n        /* \"#utility.yul\":11728:11729   */\n      0x00\n        /* \"#utility.yul\":11721:11809   */\n      mstore\n        /* \"#utility.yul\":11828:11832   */\n      0x32\n        /* \"#utility.yul\":11825:11826   */\n      0x04\n        /* \"#utility.yul\":11818:11833   */\n      mstore\n        /* \"#utility.yul\":11852:11856   */\n      0x24\n        /* \"#utility.yul\":11849:11850   */\n      0x00\n        /* \"#utility.yul\":11842:11857   */\n      revert\n        /* \"#utility.yul\":11869:12049   */\n    tag_292:\n        /* \"#utility.yul\":11917:11994   */\n      0x4e487b7100000000000000000000000000000000000000000000000000000000\n        /* \"#utility.yul\":11914:11915   */\n      0x00\n        /* \"#utility.yul\":11907:11995   */\n      mstore\n        /* \"#utility.yul\":12014:12018   */\n      0x41\n        /* \"#utility.yul\":12011:12012   */\n      0x04\n        /* \"#utility.yul\":12004:12019   */\n      mstore\n        /* \"#utility.yul\":12038:12042   */\n      0x24\n        /* \"#utility.yul\":12035:12036   */\n      0x00\n        /* \"#utility.yul\":12028:12043   */\n      revert\n        /* \"#utility.yul\":12055:12172   */\n    tag_189:\n        /* \"#utility.yul\":12164:12165   */\n      0x00\n        /* \"#utility.yul\":12161:12162   */\n      dup1\n        /* \"#utility.yul\":12154:12166   */\n      revert\n        /* \"#utility.yul\":12178:12295   */\n    tag_174:\n        /* \"#utility.yul\":12287:12288   */\n      0x00\n        /* \"#utility.yul\":12284:12285   */\n      dup1\n        /* \"#utility.yul\":12277:12289   */\n      revert\n        /* \"#utility.yul\":12301:12418   */\n    tag_206:\n        /* \"#utility.yul\":12410:12411   */\n      0x00\n        /* \"#utility.yul\":12407:12408   */\n      dup1\n        /* \"#utility.yul\":12400:12412   */\n      revert\n        /* \"#utility.yul\":12424:12541   */\n    tag_198:\n        /* \"#utility.yul\":12533:12534   */\n      0x00\n        /* \"#utility.yul\":12530:12531   */\n      dup1\n        /* \"#utility.yul\":12523:12535   */\n      revert\n        /* \"#utility.yul\":12547:12649   */\n    tag_237:\n        /* \"#utility.yul\":12588:12594   */\n      0x00\n        /* \"#utility.yul\":12639:12641   */\n      0x1f\n        /* \"#utility.yul\":12635:12642   */\n      not\n        /* \"#utility.yul\":12630:12632   */\n      0x1f\n        /* \"#utility.yul\":12623:12628   */\n      dup4\n        /* \"#utility.yul\":12619:12633   */\n      add\n        /* \"#utility.yul\":12615:12643   */\n      and\n        /* \"#utility.yul\":12605:12643   */\n      swap1\n      pop\n        /* \"#utility.yul\":12547:12649   */\n      swap2\n      swap1\n      pop\n      jump\t// out\n        /* \"#utility.yul\":12655:12827   */\n    tag_249:\n        /* \"#utility.yul\":12795:12819   */\n      0x496e76616c69642057616c6c6574204164647265737300000000000000000000\n        /* \"#utility.yul\":12791:12792   */\n      0x00\n        /* \"#utility.yul\":12783:12789   */\n      dup3\n        /* \"#utility.yul\":12779:12793   */\n      add\n        /* \"#utility.yul\":12772:12820   */\n      mstore\n        /* \"#utility.yul\":12655:12827   */\n      pop\n      jump\t// out\n        /* \"#utility.yul\":12833:13004   */\n    tag_254:\n        /* \"#utility.yul\":12973:12996   */\n      0x596f7520617265206e6f7420746865206f776e65720000000000000000000000\n        /* \"#utility.yul\":12969:12970   */\n      0x00\n        /* \"#utility.yul\":12961:12967   */\n      dup3\n        /* \"#utility.yul\":12957:12971   */\n      add\n        /* \"#utility.yul\":12950:12997   */\n      mstore\n        /* \"#utility.yul\":12833:13004   */\n      pop\n      jump\t// out\n        /* \"#utility.yul\":13010:13132   */\n    tag_180:\n        /* \"#utility.yul\":13083:13107   */\n      tag_340\n        /* \"#utility.yul\":13101:13106   */\n      dup2\n        /* \"#utility.yul\":13083:13107   */\n      tag_217\n      jump\t// in\n    tag_340:\n        /* \"#utility.yul\":13076:13081   */\n      dup2\n        /* \"#utility.yul\":13073:13108   */\n      eq\n        /* \"#utility.yul\":13063:13126   */\n      tag_341\n      jumpi\n        /* \"#utility.yul\":13122:13123   */\n      0x00\n        /* \"#utility.yul\":13119:13120   */\n      dup1\n        /* \"#utility.yul\":13112:13124   */\n      revert\n        /* \"#utility.yul\":13063:13126   */\n    tag_341:\n        /* \"#utility.yul\":13010:13132   */\n      pop\n      jump\t// out\n        /* \"#utility.yul\":13138:13254   */\n    tag_184:\n        /* \"#utility.yul\":13208:13229   */\n      tag_343\n        /* \"#utility.yul\":13223:13228   */\n      dup2\n        /* \"#utility.yul\":13208:13229   */\n      tag_224\n      jump\t// in\n    tag_343:\n        /* \"#utility.yul\":13201:13206   */\n      dup2\n        /* \"#utility.yul\":13198:13230   */\n      eq\n        /* \"#utility.yul\":13188:13248   */\n      tag_344\n      jumpi\n        /* \"#utility.yul\":13244:13245   */\n      0x00\n        /* \"#utility.yul\":13241:13242   */\n      dup1\n        /* \"#utility.yul\":13234:13246   */\n      revert\n        /* \"#utility.yul\":13188:13248   */\n    tag_344:\n        /* \"#utility.yul\":13138:13254   */\n      pop\n      jump\t// out\n        /* \"#utility.yul\":13260:13382   */\n    tag_194:\n        /* \"#utility.yul\":13333:13357   */\n      tag_346\n        /* \"#utility.yul\":13351:13356   */\n      dup2\n        /* \"#utility.yul\":13333:13357   */\n      tag_264\n      jump\t// in\n    tag_346:\n        /* \"#utility.yul\":13326:13331   */\n      dup2\n        /* \"#utility.yul\":13323:13358   */\n      eq\n        /* \"#utility.yul\":13313:13376   */\n      tag_347\n      jumpi\n        /* \"#utility.yul\":13372:13373   */\n      0x00\n        /* \"#utility.yul\":13369:13370   */\n      dup1\n        /* \"#utility.yul\":13362:13374   */\n      revert\n        /* \"#utility.yul\":13313:13376   */\n    tag_347:\n        /* \"#utility.yul\":13260:13382   */\n      pop\n      jump\t// out\n\n    auxdata: 0xa264697066735822122042a7678d59837ca6c34e262501ffbc15ecb4fab82c76fc3ee819834c08d6d3f664736f6c63430008070033\n}\n",
				"bytecode": {
					"linkReferences": {},
					"object": "608060405234801561001057600080fd5b50336000806101000a81548173ffffffffffffffffffffffffffffffffffffffff021916908373ffffffffffffffffffffffffffffffffffffffff1602179055506114cb806100606000396000f3fe6080604052600436106100865760003560e01c80634140eb0d116100595780634140eb0d1461014d57806369c212f61461018a5780636f7bc9be146101c757806370a0823114610207578063d7bed4bc1461024457610086565b80630e666e491461008b5780631a695230146100c8578063280879e7146100e4578063365b98b21461010d575b600080fd5b34801561009757600080fd5b506100b260048036038101906100ad9190610dd8565b61026d565b6040516100bf9190611076565b60405180910390f35b6100e260048036038101906100dd9190610dd8565b610323565b005b3480156100f057600080fd5b5061010b60048036038101906101069190610e05565b61032f565b005b34801561011957600080fd5b50610134600480360381019061012f9190610e88565b6104b7565b604051610144949392919061102a565b60405180910390f35b34801561015957600080fd5b50610174600480360381019061016f9190610dd8565b6105ac565b6040516101819190611076565b60405180910390f35b34801561019657600080fd5b506101b160048036038101906101ac9190610dd8565b6105c7565b6040516101be91906110d1565b60405180910390f35b3480156101d357600080fd5b506101ee60048036038101906101e99190610dd8565b61082b565b6040516101fe949392919061102a565b60405180910390f35b34801561021357600080fd5b5061022e60048036038101906102299190610dd8565b610910565b60405161023b91906110f3565b60405180910390f35b34801561025057600080fd5b5061026b60048036038101906102669190610dd8565b6109eb565b005b600080600090505b600180549050811015610318578273ffffffffffffffffffffffffffffffffffffffff16600182815481106102ad576102ac61137b565b5b906000526020600020906004020160000160009054906101000a900473ffffffffffffffffffffffffffffffffffffffff1673ffffffffffffffffffffffffffffffffffffffff16141561030557600191505061031e565b8080610310906112d4565b915050610275565b50600090505b919050565b61032c81610b69565b50565b60008054906101000a900473ffffffffffffffffffffffffffffffffffffffff1673ffffffffffffffffffffffffffffffffffffffff163373ffffffffffffffffffffffffffffffffffffffff16146103bd576040517f08c379a00000000000000000000000000000000000000000000000000000000081526004016103b4906110b1565b60405180910390fd5b600160405180608001604052808673ffffffffffffffffffffffffffffffffffffffff168152602001858152602001848152602001831515815250908060018154018082558091505060019003906000526020600020906004020160009091909190915060008201518160000160006101000a81548173ffffffffffffffffffffffffffffffffffffffff021916908373ffffffffffffffffffffffffffffffffffffffff1602179055506020820151816001019080519060200190610484929190610c46565b506040820151816002015560608201518160030160006101000a81548160ff021916908315150217905550505050505050565b600181815481106104c757600080fd5b90600052602060002090600402016000915090508060000160009054906101000a900473ffffffffffffffffffffffffffffffffffffffff169080600101805461051090611271565b80601f016020809104026020016040519081016040528092919081815260200182805461053c90611271565b80156105895780601f1061055e57610100808354040283529160200191610589565b820191906000526020600020905b81548152906001019060200180831161056c57829003601f168201915b5050505050908060020154908060030160009054906101000a900460ff16905084565b6000806105b8836105c7565b90508060600151915050919050565b6105cf610ccc565b60005b6001805490508110156107ea578273ffffffffffffffffffffffffffffffffffffffff166001828154811061060a5761060961137b565b5b906000526020600020906004020160000160009054906101000a900473ffffffffffffffffffffffffffffffffffffffff1673ffffffffffffffffffffffffffffffffffffffff1614156107d757600180828154811061066d5761066c61137b565b5b906000526020600020906004020160030160006101000a81548160ff021916908315150217905550600181815481106106a9576106a861137b565b5b90600052602060002090600402016040518060800160405290816000820160009054906101000a900473ffffffffffffffffffffffffffffffffffffffff1673ffffffffffffffffffffffffffffffffffffffff1673ffffffffffffffffffffffffffffffffffffffff16815260200160018201805461072890611271565b80601f016020809104026020016040519081016040528092919081815260200182805461075490611271565b80156107a15780601f10610776576101008083540402835291602001916107a1565b820191906000526020600020905b81548152906001019060200180831161078457829003601f168201915b50505050508152602001600282015481526020016003820160009054906101000a900460ff161515151581525050915050610826565b80806107e2906112d4565b9150506105d2565b506040517f08c379a000000000000000000000000000000000000000000000000000000000815260040161081d90611091565b60405180910390fd5b919050565b60026020528060005260406000206000915090508060000160009054906101000a900473ffffffffffffffffffffffffffffffffffffffff169080600101805461087490611271565b80601f01602080910402602001604051908101604052809291908181526020018280546108a090611271565b80156108ed5780601f106108c2576101008083540402835291602001916108ed565b820191906000526020600020905b8154815290600101906020018083116108d057829003601f168201915b5050505050908060020154908060030160009054906101000a900460ff16905084565b600080600090505b6001805490508110156109df578273ffffffffffffffffffffffffffffffffffffffff16600182815481106109505761094f61137b565b5b906000526020600020906004020160000160009054906101000a900473ffffffffffffffffffffffffffffffffffffffff1673ffffffffffffffffffffffffffffffffffffffff1614156109cc57600181815481106109b2576109b161137b565b5b9060005260206000209060040201600201549150506109e6565b80806109d7906112d4565b915050610918565b506103e790505b919050565b60008054906101000a900473ffffffffffffffffffffffffffffffffffffffff1673ffffffffffffffffffffffffffffffffffffffff163373ffffffffffffffffffffffffffffffffffffffff1614610a79576040517f08c379a0000000000000000000000000000000000000000000000000000000008152600401610a70906110b1565b60405180910390fd5b6000610a84826105c7565b9050610a93816000015161026d565b5080600260008473ffffffffffffffffffffffffffffffffffffffff1673ffffffffffffffffffffffffffffffffffffffff16815260200190815260200160002060008201518160000160006101000a81548173ffffffffffffffffffffffffffffffffffffffff021916908373ffffffffffffffffffffffffffffffffffffffff1602179055506020820151816001019080519060200190610b37929190610c46565b506040820151816002015560608201518160030160006101000a81548160ff0219169083151502179055509050505050565b60005b600180549050811015610c42578173ffffffffffffffffffffffffffffffffffffffff1660018281548110610ba457610ba361137b565b5b906000526020600020906004020160000160009054906101000a900473ffffffffffffffffffffffffffffffffffffffff1673ffffffffffffffffffffffffffffffffffffffff161415610c2f573460018281548110610c0757610c0661137b565b5b90600052602060002090600402016002016000828254610c279190611191565b925050819055505b8080610c3a906112d4565b915050610b6c565b5050565b828054610c5290611271565b90600052602060002090601f016020900481019282610c745760008555610cbb565b82601f10610c8d57805160ff1916838001178555610cbb565b82800160010185558215610cbb579182015b82811115610cba578251825591602001919060010190610c9f565b5b509050610cc89190610d0c565b5090565b6040518060800160405280600073ffffffffffffffffffffffffffffffffffffffff16815260200160608152602001600081526020016000151581525090565b5b80821115610d25576000816000905550600101610d0d565b5090565b6000610d3c610d3784611133565b61110e565b905082815260208101848484011115610d5857610d576113de565b5b610d6384828561122f565b509392505050565b600081359050610d7a81611450565b92915050565b600081359050610d8f81611467565b92915050565b600082601f830112610daa57610da96113d9565b5b8135610dba848260208601610d29565b91505092915050565b600081359050610dd28161147e565b92915050565b600060208284031215610dee57610ded6113e8565b5b6000610dfc84828501610d6b565b91505092915050565b60008060008060808587031215610e1f57610e1e6113e8565b5b6000610e2d87828801610d6b565b945050602085013567ffffffffffffffff811115610e4e57610e4d6113e3565b5b610e5a87828801610d95565b9350506040610e6b87828801610dc3565b9250506060610e7c87828801610d80565b91505092959194509250565b600060208284031215610e9e57610e9d6113e8565b5b6000610eac84828501610dc3565b91505092915050565b610ebe816111e7565b82525050565b610ecd816111e7565b82525050565b610edc816111f9565b82525050565b610eeb816111f9565b82525050565b6000610efc82611164565b610f06818561116f565b9350610f1681856020860161123e565b610f1f816113ed565b840191505092915050565b6000610f3582611164565b610f3f8185611180565b9350610f4f81856020860161123e565b610f58816113ed565b840191505092915050565b6000610f70601683611180565b9150610f7b826113fe565b602082019050919050565b6000610f93601583611180565b9150610f9e82611427565b602082019050919050565b6000608083016000830151610fc16000860182610eb5565b5060208301518482036020860152610fd98282610ef1565b9150506040830151610fee604086018261100c565b5060608301516110016060860182610ed3565b508091505092915050565b61101581611225565b82525050565b61102481611225565b82525050565b600060808201905061103f6000830187610ec4565b81810360208301526110518186610f2a565b9050611060604083018561101b565b61106d6060830184610ee2565b95945050505050565b600060208201905061108b6000830184610ee2565b92915050565b600060208201905081810360008301526110aa81610f63565b9050919050565b600060208201905081810360008301526110ca81610f86565b9050919050565b600060208201905081810360008301526110eb8184610fa9565b905092915050565b6000602082019050611108600083018461101b565b92915050565b6000611118611129565b905061112482826112a3565b919050565b6000604051905090565b600067ffffffffffffffff82111561114e5761114d6113aa565b5b611157826113ed565b9050602081019050919050565b600081519050919050565b600082825260208201905092915050565b600082825260208201905092915050565b600061119c82611225565b91506111a783611225565b9250827fffffffffffffffffffffffffffffffffffffffffffffffffffffffffffffffff038211156111dc576111db61131d565b5b828201905092915050565b60006111f282611205565b9050919050565b60008115159050919050565b600073ffffffffffffffffffffffffffffffffffffffff82169050919050565b6000819050919050565b82818337600083830152505050565b60005b8381101561125c578082015181840152602081019050611241565b8381111561126b576000848401525b50505050565b6000600282049050600182168061128957607f821691505b6020821081141561129d5761129c61134c565b5b50919050565b6112ac826113ed565b810181811067ffffffffffffffff821117156112cb576112ca6113aa565b5b80604052505050565b60006112df82611225565b91507fffffffffffffffffffffffffffffffffffffffffffffffffffffffffffffffff8214156113125761131161131d565b5b600182019050919050565b7f4e487b7100000000000000000000000000000000000000000000000000000000600052601160045260246000fd5b7f4e487b7100000000000000000000000000000000000000000000000000000000600052602260045260246000fd5b7f4e487b7100000000000000000000000000000000000000000000000000000000600052603260045260246000fd5b7f4e487b7100000000000000000000000000000000000000000000000000000000600052604160045260246000fd5b600080fd5b600080fd5b600080fd5b600080fd5b6000601f19601f8301169050919050565b7f496e76616c69642057616c6c6574204164647265737300000000000000000000600082015250565b7f596f7520617265206e6f7420746865206f776e65720000000000000000000000600082015250565b611459816111e7565b811461146457600080fd5b50565b611470816111f9565b811461147b57600080fd5b50565b61148781611225565b811461149257600080fd5b5056fea264697066735822122042a7678d59837ca6c34e262501ffbc15ecb4fab82c76fc3ee819834c08d6d3f664736f6c63430008070033",
					"opcodes": "PUSH1 0x80 PUSH1 0x40 MSTORE CALLVALUE DUP1 ISZERO PUSH2 0x10 JUMPI PUSH1 0x0 DUP1 REVERT JUMPDEST POP CALLER PUSH1 0x0 DUP1 PUSH2 0x100 EXP DUP2 SLOAD DUP2 PUSH20 0xFFFFFFFFFFFFFFFFFFFFFFFFFFFFFFFFFFFFFFFF MUL NOT AND SWAP1 DUP4 PUSH20 0xFFFFFFFFFFFFFFFFFFFFFFFFFFFFFFFFFFFFFFFF AND MUL OR SWAP1 SSTORE POP PUSH2 0x14CB DUP1 PUSH2 0x60 PUSH1 0x0 CODECOPY PUSH1 0x0 RETURN INVALID PUSH1 0x80 PUSH1 0x40 MSTORE PUSH1 0x4 CALLDATASIZE LT PUSH2 0x86 JUMPI PUSH1 0x0 CALLDATALOAD PUSH1 0xE0 SHR DUP1 PUSH4 0x4140EB0D GT PUSH2 0x59 JUMPI DUP1 PUSH4 0x4140EB0D EQ PUSH2 0x14D JUMPI DUP1 PUSH4 0x69C212F6 EQ PUSH2 0x18A JUMPI DUP1 PUSH4 0x6F7BC9BE EQ PUSH2 0x1C7 JUMPI DUP1 PUSH4 0x70A08231 EQ PUSH2 0x207 JUMPI DUP1 PUSH4 0xD7BED4BC EQ PUSH2 0x244 JUMPI PUSH2 0x86 JUMP JUMPDEST DUP1 PUSH4 0xE666E49 EQ PUSH2 0x8B JUMPI DUP1 PUSH4 0x1A695230 EQ PUSH2 0xC8 JUMPI DUP1 PUSH4 0x280879E7 EQ PUSH2 0xE4 JUMPI DUP1 PUSH4 0x365B98B2 EQ PUSH2 0x10D JUMPI JUMPDEST PUSH1 0x0 DUP1 REVERT JUMPDEST CALLVALUE DUP1 ISZERO PUSH2 0x97 JUMPI PUSH1 0x0 DUP1 REVERT JUMPDEST POP PUSH2 0xB2 PUSH1 0x4 DUP1 CALLDATASIZE SUB DUP2 ADD SWAP1 PUSH2 0xAD SWAP2 SWAP1 PUSH2 0xDD8 JUMP JUMPDEST PUSH2 0x26D JUMP JUMPDEST PUSH1 0x40 MLOAD PUSH2 0xBF SWAP2 SWAP1 PUSH2 0x1076 JUMP JUMPDEST PUSH1 0x40 MLOAD DUP1 SWAP2 SUB SWAP1 RETURN JUMPDEST PUSH2 0xE2 PUSH1 0x4 DUP1 CALLDATASIZE SUB DUP2 ADD SWAP1 PUSH2 0xDD SWAP2 SWAP1 PUSH2 0xDD8 JUMP JUMPDEST PUSH2 0x323 JUMP JUMPDEST STOP JUMPDEST CALLVALUE DUP1 ISZERO PUSH2 0xF0 JUMPI PUSH1 0x0 DUP1 REVERT JUMPDEST POP PUSH2 0x10B PUSH1 0x4 DUP1 CALLDATASIZE SUB DUP2 ADD SWAP1 PUSH2 0x106 SWAP2 SWAP1 PUSH2 0xE05 JUMP JUMPDEST PUSH2 0x32F JUMP JUMPDEST STOP JUMPDEST CALLVALUE DUP1 ISZERO PUSH2 0x119 JUMPI PUSH1 0x0 DUP1 REVERT JUMPDEST POP PUSH2 0x134 PUSH1 0x4 DUP1 CALLDATASIZE SUB DUP2 ADD SWAP1 PUSH2 0x12F SWAP2 SWAP1 PUSH2 0xE88 JUMP JUMPDEST PUSH2 0x4B7 JUMP JUMPDEST PUSH1 0x40 MLOAD PUSH2 0x144 SWAP5 SWAP4 SWAP3 SWAP2 SWAP1 PUSH2 0x102A JUMP JUMPDEST PUSH1 0x40 MLOAD DUP1 SWAP2 SUB SWAP1 RETURN JUMPDEST CALLVALUE DUP1 ISZERO PUSH2 0x159 JUMPI PUSH1 0x0 DUP1 REVERT JUMPDEST POP PUSH2 0x174 PUSH1 0x4 DUP1 CALLDATASIZE SUB DUP2 ADD SWAP1 PUSH2 0x16F SWAP2 SWAP1 PUSH2 0xDD8 JUMP JUMPDEST PUSH2 0x5AC JUMP JUMPDEST PUSH1 0x40 MLOAD PUSH2 0x181 SWAP2 SWAP1 PUSH2 0x1076 JUMP JUMPDEST PUSH1 0x40 MLOAD DUP1 SWAP2 SUB SWAP1 RETURN JUMPDEST CALLVALUE DUP1 ISZERO PUSH2 0x196 JUMPI PUSH1 0x0 DUP1 REVERT JUMPDEST POP PUSH2 0x1B1 PUSH1 0x4 DUP1 CALLDATASIZE SUB DUP2 ADD SWAP1 PUSH2 0x1AC SWAP2 SWAP1 PUSH2 0xDD8 JUMP JUMPDEST PUSH2 0x5C7 JUMP JUMPDEST PUSH1 0x40 MLOAD PUSH2 0x1BE SWAP2 SWAP1 PUSH2 0x10D1 JUMP JUMPDEST PUSH1 0x40 MLOAD DUP1 SWAP2 SUB SWAP1 RETURN JUMPDEST CALLVALUE DUP1 ISZERO PUSH2 0x1D3 JUMPI PUSH1 0x0 DUP1 REVERT JUMPDEST POP PUSH2 0x1EE PUSH1 0x4 DUP1 CALLDATASIZE SUB DUP2 ADD SWAP1 PUSH2 0x1E9 SWAP2 SWAP1 PUSH2 0xDD8 JUMP JUMPDEST PUSH2 0x82B JUMP JUMPDEST PUSH1 0x40 MLOAD PUSH2 0x1FE SWAP5 SWAP4 SWAP3 SWAP2 SWAP1 PUSH2 0x102A JUMP JUMPDEST PUSH1 0x40 MLOAD DUP1 SWAP2 SUB SWAP1 RETURN JUMPDEST CALLVALUE DUP1 ISZERO PUSH2 0x213 JUMPI PUSH1 0x0 DUP1 REVERT JUMPDEST POP PUSH2 0x22E PUSH1 0x4 DUP1 CALLDATASIZE SUB DUP2 ADD SWAP1 PUSH2 0x229 SWAP2 SWAP1 PUSH2 0xDD8 JUMP JUMPDEST PUSH2 0x910 JUMP JUMPDEST PUSH1 0x40 MLOAD PUSH2 0x23B SWAP2 SWAP1 PUSH2 0x10F3 JUMP JUMPDEST PUSH1 0x40 MLOAD DUP1 SWAP2 SUB SWAP1 RETURN JUMPDEST CALLVALUE DUP1 ISZERO PUSH2 0x250 JUMPI PUSH1 0x0 DUP1 REVERT JUMPDEST POP PUSH2 0x26B PUSH1 0x4 DUP1 CALLDATASIZE SUB DUP2 ADD SWAP1 PUSH2 0x266 SWAP2 SWAP1 PUSH2 0xDD8 JUMP JUMPDEST PUSH2 0x9EB JUMP JUMPDEST STOP JUMPDEST PUSH1 0x0 DUP1 PUSH1 0x0 SWAP1 POP JUMPDEST PUSH1 0x1 DUP1 SLOAD SWAP1 POP DUP2 LT ISZERO PUSH2 0x318 JUMPI DUP3 PUSH20 0xFFFFFFFFFFFFFFFFFFFFFFFFFFFFFFFFFFFFFFFF AND PUSH1 0x1 DUP3 DUP2 SLOAD DUP2 LT PUSH2 0x2AD JUMPI PUSH2 0x2AC PUSH2 0x137B JUMP JUMPDEST JUMPDEST SWAP1 PUSH1 0x0 MSTORE PUSH1 0x20 PUSH1 0x0 KECCAK256 SWAP1 PUSH1 0x4 MUL ADD PUSH1 0x0 ADD PUSH1 0x0 SWAP1 SLOAD SWAP1 PUSH2 0x100 EXP SWAP1 DIV PUSH20 0xFFFFFFFFFFFFFFFFFFFFFFFFFFFFFFFFFFFFFFFF AND PUSH20 0xFFFFFFFFFFFFFFFFFFFFFFFFFFFFFFFFFFFFFFFF AND EQ ISZERO PUSH2 0x305 JUMPI PUSH1 0x1 SWAP2 POP POP PUSH2 0x31E JUMP JUMPDEST DUP1 DUP1 PUSH2 0x310 SWAP1 PUSH2 0x12D4 JUMP JUMPDEST SWAP2 POP POP PUSH2 0x275 JUMP JUMPDEST POP PUSH1 0x0 SWAP1 POP JUMPDEST SWAP2 SWAP1 POP JUMP JUMPDEST PUSH2 0x32C DUP2 PUSH2 0xB69 JUMP JUMPDEST POP JUMP JUMPDEST PUSH1 0x0 DUP1 SLOAD SWAP1 PUSH2 0x100 EXP SWAP1 DIV PUSH20 0xFFFFFFFFFFFFFFFFFFFFFFFFFFFFFFFFFFFFFFFF AND PUSH20 0xFFFFFFFFFFFFFFFFFFFFFFFFFFFFFFFFFFFFFFFF AND CALLER PUSH20 0xFFFFFFFFFFFFFFFFFFFFFFFFFFFFFFFFFFFFFFFF AND EQ PUSH2 0x3BD JUMPI PUSH1 0x40 MLOAD PUSH32 0x8C379A000000000000000000000000000000000000000000000000000000000 DUP2 MSTORE PUSH1 0x4 ADD PUSH2 0x3B4 SWAP1 PUSH2 0x10B1 JUMP JUMPDEST PUSH1 0x40 MLOAD DUP1 SWAP2 SUB SWAP1 REVERT JUMPDEST PUSH1 0x1 PUSH1 0x40 MLOAD DUP1 PUSH1 0x80 ADD PUSH1 0x40 MSTORE DUP1 DUP7 PUSH20 0xFFFFFFFFFFFFFFFFFFFFFFFFFFFFFFFFFFFFFFFF AND DUP2 MSTORE PUSH1 0x20 ADD DUP6 DUP2 MSTORE PUSH1 0x20 ADD DUP5 DUP2 MSTORE PUSH1 0x20 ADD DUP4 ISZERO ISZERO DUP2 MSTORE POP SWAP1 DUP1 PUSH1 0x1 DUP2 SLOAD ADD DUP1 DUP3 SSTORE DUP1 SWAP2 POP POP PUSH1 0x1 SWAP1 SUB SWAP1 PUSH1 0x0 MSTORE PUSH1 0x20 PUSH1 0x0 KECCAK256 SWAP1 PUSH1 0x4 MUL ADD PUSH1 0x0 SWAP1 SWAP2 SWAP1 SWAP2 SWAP1 SWAP2 POP PUSH1 0x0 DUP3 ADD MLOAD DUP2 PUSH1 0x0 ADD PUSH1 0x0 PUSH2 0x100 EXP DUP2 SLOAD DUP2 PUSH20 0xFFFFFFFFFFFFFFFFFFFFFFFFFFFFFFFFFFFFFFFF MUL NOT AND SWAP1 DUP4 PUSH20 0xFFFFFFFFFFFFFFFFFFFFFFFFFFFFFFFFFFFFFFFF AND MUL OR SWAP1 SSTORE POP PUSH1 0x20 DUP3 ADD MLOAD DUP2 PUSH1 0x1 ADD SWAP1 DUP1 MLOAD SWAP1 PUSH1 0x20 ADD SWAP1 PUSH2 0x484 SWAP3 SWAP2 SWAP1 PUSH2 0xC46 JUMP JUMPDEST POP PUSH1 0x40 DUP3 ADD MLOAD DUP2 PUSH1 0x2 ADD SSTORE PUSH1 0x60 DUP3 ADD MLOAD DUP2 PUSH1 0x3 ADD PUSH1 0x0 PUSH2 0x100 EXP DUP2 SLOAD DUP2 PUSH1 0xFF MUL NOT AND SWAP1 DUP4 ISZERO ISZERO MUL OR SWAP1 SSTORE POP POP POP POP POP POP POP JUMP JUMPDEST PUSH1 0x1 DUP2 DUP2 SLOAD DUP2 LT PUSH2 0x4C7 JUMPI PUSH1 0x0 DUP1 REVERT JUMPDEST SWAP1 PUSH1 0x0 MSTORE PUSH1 0x20 PUSH1 0x0 KECCAK256 SWAP1 PUSH1 0x4 MUL ADD PUSH1 0x0 SWAP2 POP SWAP1 POP DUP1 PUSH1 0x0 ADD PUSH1 0x0 SWAP1 SLOAD SWAP1 PUSH2 0x100 EXP SWAP1 DIV PUSH20 0xFFFFFFFFFFFFFFFFFFFFFFFFFFFFFFFFFFFFFFFF AND SWAP1 DUP1 PUSH1 0x1 ADD DUP1 SLOAD PUSH2 0x510 SWAP1 PUSH2 0x1271 JUMP JUMPDEST DUP1 PUSH1 0x1F ADD PUSH1 0x20 DUP1 SWAP2 DIV MUL PUSH1 0x20 ADD PUSH1 0x40 MLOAD SWAP1 DUP2 ADD PUSH1 0x40 MSTORE DUP1 SWAP3 SWAP2 SWAP1 DUP2 DUP2 MSTORE PUSH1 0x20 ADD DUP3 DUP1 SLOAD PUSH2 0x53C SWAP1 PUSH2 0x1271 JUMP JUMPDEST DUP1 ISZERO PUSH2 0x589 JUMPI DUP1 PUSH1 0x1F LT PUSH2 0x55E JUMPI PUSH2 0x100 DUP1 DUP4 SLOAD DIV MUL DUP4 MSTORE SWAP2 PUSH1 0x20 ADD SWAP2 PUSH2 0x589 JUMP JUMPDEST DUP3 ADD SWAP2 SWAP1 PUSH1 0x0 MSTORE PUSH1 0x20 PUSH1 0x0 KECCAK256 SWAP1 JUMPDEST DUP2 SLOAD DUP2 MSTORE SWAP1 PUSH1 0x1 ADD SWAP1 PUSH1 0x20 ADD DUP1 DUP4 GT PUSH2 0x56C JUMPI DUP3 SWAP1 SUB PUSH1 0x1F AND DUP3 ADD SWAP2 JUMPDEST POP POP POP POP POP SWAP1 DUP1 PUSH1 0x2 ADD SLOAD SWAP1 DUP1 PUSH1 0x3 ADD PUSH1 0x0 SWAP1 SLOAD SWAP1 PUSH2 0x100 EXP SWAP1 DIV PUSH1 0xFF AND SWAP1 POP DUP5 JUMP JUMPDEST PUSH1 0x0 DUP1 PUSH2 0x5B8 DUP4 PUSH2 0x5C7 JUMP JUMPDEST SWAP1 POP DUP1 PUSH1 0x60 ADD MLOAD SWAP2 POP POP SWAP2 SWAP1 POP JUMP JUMPDEST PUSH2 0x5CF PUSH2 0xCCC JUMP JUMPDEST PUSH1 0x0 JUMPDEST PUSH1 0x1 DUP1 SLOAD SWAP1 POP DUP2 LT ISZERO PUSH2 0x7EA JUMPI DUP3 PUSH20 0xFFFFFFFFFFFFFFFFFFFFFFFFFFFFFFFFFFFFFFFF AND PUSH1 0x1 DUP3 DUP2 SLOAD DUP2 LT PUSH2 0x60A JUMPI PUSH2 0x609 PUSH2 0x137B JUMP JUMPDEST JUMPDEST SWAP1 PUSH1 0x0 MSTORE PUSH1 0x20 PUSH1 0x0 KECCAK256 SWAP1 PUSH1 0x4 MUL ADD PUSH1 0x0 ADD PUSH1 0x0 SWAP1 SLOAD SWAP1 PUSH2 0x100 EXP SWAP1 DIV PUSH20 0xFFFFFFFFFFFFFFFFFFFFFFFFFFFFFFFFFFFFFFFF AND PUSH20 0xFFFFFFFFFFFFFFFFFFFFFFFFFFFFFFFFFFFFFFFF AND EQ ISZERO PUSH2 0x7D7 JUMPI PUSH1 0x1 DUP1 DUP3 DUP2 SLOAD DUP2 LT PUSH2 0x66D JUMPI PUSH2 0x66C PUSH2 0x137B JUMP JUMPDEST JUMPDEST SWAP1 PUSH1 0x0 MSTORE PUSH1 0x20 PUSH1 0x0 KECCAK256 SWAP1 PUSH1 0x4 MUL ADD PUSH1 0x3 ADD PUSH1 0x0 PUSH2 0x100 EXP DUP2 SLOAD DUP2 PUSH1 0xFF MUL NOT AND SWAP1 DUP4 ISZERO ISZERO MUL OR SWAP1 SSTORE POP PUSH1 0x1 DUP2 DUP2 SLOAD DUP2 LT PUSH2 0x6A9 JUMPI PUSH2 0x6A8 PUSH2 0x137B JUMP JUMPDEST JUMPDEST SWAP1 PUSH1 0x0 MSTORE PUSH1 0x20 PUSH1 0x0 KECCAK256 SWAP1 PUSH1 0x4 MUL ADD PUSH1 0x40 MLOAD DUP1 PUSH1 0x80 ADD PUSH1 0x40 MSTORE SWAP1 DUP2 PUSH1 0x0 DUP3 ADD PUSH1 0x0 SWAP1 SLOAD SWAP1 PUSH2 0x100 EXP SWAP1 DIV PUSH20 0xFFFFFFFFFFFFFFFFFFFFFFFFFFFFFFFFFFFFFFFF AND PUSH20 0xFFFFFFFFFFFFFFFFFFFFFFFFFFFFFFFFFFFFFFFF AND PUSH20 0xFFFFFFFFFFFFFFFFFFFFFFFFFFFFFFFFFFFFFFFF AND DUP2 MSTORE PUSH1 0x20 ADD PUSH1 0x1 DUP3 ADD DUP1 SLOAD PUSH2 0x728 SWAP1 PUSH2 0x1271 JUMP JUMPDEST DUP1 PUSH1 0x1F ADD PUSH1 0x20 DUP1 SWAP2 DIV MUL PUSH1 0x20 ADD PUSH1 0x40 MLOAD SWAP1 DUP2 ADD PUSH1 0x40 MSTORE DUP1 SWAP3 SWAP2 SWAP1 DUP2 DUP2 MSTORE PUSH1 0x20 ADD DUP3 DUP1 SLOAD PUSH2 0x754 SWAP1 PUSH2 0x1271 JUMP JUMPDEST DUP1 ISZERO PUSH2 0x7A1 JUMPI DUP1 PUSH1 0x1F LT PUSH2 0x776 JUMPI PUSH2 0x100 DUP1 DUP4 SLOAD DIV MUL DUP4 MSTORE SWAP2 PUSH1 0x20 ADD SWAP2 PUSH2 0x7A1 JUMP JUMPDEST DUP3 ADD SWAP2 SWAP1 PUSH1 0x0 MSTORE PUSH1 0x20 PUSH1 0x0 KECCAK256 SWAP1 JUMPDEST DUP2 SLOAD DUP2 MSTORE SWAP1 PUSH1 0x1 ADD SWAP1 PUSH1 0x20 ADD DUP1 DUP4 GT PUSH2 0x784 JUMPI DUP3 SWAP1 SUB PUSH1 0x1F AND DUP3 ADD SWAP2 JUMPDEST POP POP POP POP POP DUP2 MSTORE PUSH1 0x20 ADD PUSH1 0x2 DUP3 ADD SLOAD DUP2 MSTORE PUSH1 0x20 ADD PUSH1 0x3 DUP3 ADD PUSH1 0x0 SWAP1 SLOAD SWAP1 PUSH2 0x100 EXP SWAP1 DIV PUSH1 0xFF AND ISZERO ISZERO ISZERO ISZERO DUP2 MSTORE POP POP SWAP2 POP POP PUSH2 0x826 JUMP JUMPDEST DUP1 DUP1 PUSH2 0x7E2 SWAP1 PUSH2 0x12D4 JUMP JUMPDEST SWAP2 POP POP PUSH2 0x5D2 JUMP JUMPDEST POP PUSH1 0x40 MLOAD PUSH32 0x8C379A000000000000000000000000000000000000000000000000000000000 DUP2 MSTORE PUSH1 0x4 ADD PUSH2 0x81D SWAP1 PUSH2 0x1091 JUMP JUMPDEST PUSH1 0x40 MLOAD DUP1 SWAP2 SUB SWAP1 REVERT JUMPDEST SWAP2 SWAP1 POP JUMP JUMPDEST PUSH1 0x2 PUSH1 0x20 MSTORE DUP1 PUSH1 0x0 MSTORE PUSH1 0x40 PUSH1 0x0 KECCAK256 PUSH1 0x0 SWAP2 POP SWAP1 POP DUP1 PUSH1 0x0 ADD PUSH1 0x0 SWAP1 SLOAD SWAP1 PUSH2 0x100 EXP SWAP1 DIV PUSH20 0xFFFFFFFFFFFFFFFFFFFFFFFFFFFFFFFFFFFFFFFF AND SWAP1 DUP1 PUSH1 0x1 ADD DUP1 SLOAD PUSH2 0x874 SWAP1 PUSH2 0x1271 JUMP JUMPDEST DUP1 PUSH1 0x1F ADD PUSH1 0x20 DUP1 SWAP2 DIV MUL PUSH1 0x20 ADD PUSH1 0x40 MLOAD SWAP1 DUP2 ADD PUSH1 0x40 MSTORE DUP1 SWAP3 SWAP2 SWAP1 DUP2 DUP2 MSTORE PUSH1 0x20 ADD DUP3 DUP1 SLOAD PUSH2 0x8A0 SWAP1 PUSH2 0x1271 JUMP JUMPDEST DUP1 ISZERO PUSH2 0x8ED JUMPI DUP1 PUSH1 0x1F LT PUSH2 0x8C2 JUMPI PUSH2 0x100 DUP1 DUP4 SLOAD DIV MUL DUP4 MSTORE SWAP2 PUSH1 0x20 ADD SWAP2 PUSH2 0x8ED JUMP JUMPDEST DUP3 ADD SWAP2 SWAP1 PUSH1 0x0 MSTORE PUSH1 0x20 PUSH1 0x0 KECCAK256 SWAP1 JUMPDEST DUP2 SLOAD DUP2 MSTORE SWAP1 PUSH1 0x1 ADD SWAP1 PUSH1 0x20 ADD DUP1 DUP4 GT PUSH2 0x8D0 JUMPI DUP3 SWAP1 SUB PUSH1 0x1F AND DUP3 ADD SWAP2 JUMPDEST POP POP POP POP POP SWAP1 DUP1 PUSH1 0x2 ADD SLOAD SWAP1 DUP1 PUSH1 0x3 ADD PUSH1 0x0 SWAP1 SLOAD SWAP1 PUSH2 0x100 EXP SWAP1 DIV PUSH1 0xFF AND SWAP1 POP DUP5 JUMP JUMPDEST PUSH1 0x0 DUP1 PUSH1 0x0 SWAP1 POP JUMPDEST PUSH1 0x1 DUP1 SLOAD SWAP1 POP DUP2 LT ISZERO PUSH2 0x9DF JUMPI DUP3 PUSH20 0xFFFFFFFFFFFFFFFFFFFFFFFFFFFFFFFFFFFFFFFF AND PUSH1 0x1 DUP3 DUP2 SLOAD DUP2 LT PUSH2 0x950 JUMPI PUSH2 0x94F PUSH2 0x137B JUMP JUMPDEST JUMPDEST SWAP1 PUSH1 0x0 MSTORE PUSH1 0x20 PUSH1 0x0 KECCAK256 SWAP1 PUSH1 0x4 MUL ADD PUSH1 0x0 ADD PUSH1 0x0 SWAP1 SLOAD SWAP1 PUSH2 0x100 EXP SWAP1 DIV PUSH20 0xFFFFFFFFFFFFFFFFFFFFFFFFFFFFFFFFFFFFFFFF AND PUSH20 0xFFFFFFFFFFFFFFFFFFFFFFFFFFFFFFFFFFFFFFFF AND EQ ISZERO PUSH2 0x9CC JUMPI PUSH1 0x1 DUP2 DUP2 SLOAD DUP2 LT PUSH2 0x9B2 JUMPI PUSH2 0x9B1 PUSH2 0x137B JUMP JUMPDEST JUMPDEST SWAP1 PUSH1 0x0 MSTORE PUSH1 0x20 PUSH1 0x0 KECCAK256 SWAP1 PUSH1 0x4 MUL ADD PUSH1 0x2 ADD SLOAD SWAP2 POP POP PUSH2 0x9E6 JUMP JUMPDEST DUP1 DUP1 PUSH2 0x9D7 SWAP1 PUSH2 0x12D4 JUMP JUMPDEST SWAP2 POP POP PUSH2 0x918 JUMP JUMPDEST POP PUSH2 0x3E7 SWAP1 POP JUMPDEST SWAP2 SWAP1 POP JUMP JUMPDEST PUSH1 0x0 DUP1 SLOAD SWAP1 PUSH2 0x100 EXP SWAP1 DIV PUSH20 0xFFFFFFFFFFFFFFFFFFFFFFFFFFFFFFFFFFFFFFFF AND PUSH20 0xFFFFFFFFFFFFFFFFFFFFFFFFFFFFFFFFFFFFFFFF AND CALLER PUSH20 0xFFFFFFFFFFFFFFFFFFFFFFFFFFFFFFFFFFFFFFFF AND EQ PUSH2 0xA79 JUMPI PUSH1 0x40 MLOAD PUSH32 0x8C379A000000000000000000000000000000000000000000000000000000000 DUP2 MSTORE PUSH1 0x4 ADD PUSH2 0xA70 SWAP1 PUSH2 0x10B1 JUMP JUMPDEST PUSH1 0x40 MLOAD DUP1 SWAP2 SUB SWAP1 REVERT JUMPDEST PUSH1 0x0 PUSH2 0xA84 DUP3 PUSH2 0x5C7 JUMP JUMPDEST SWAP1 POP PUSH2 0xA93 DUP2 PUSH1 0x0 ADD MLOAD PUSH2 0x26D JUMP JUMPDEST POP DUP1 PUSH1 0x2 PUSH1 0x0 DUP5 PUSH20 0xFFFFFFFFFFFFFFFFFFFFFFFFFFFFFFFFFFFFFFFF AND PUSH20 0xFFFFFFFFFFFFFFFFFFFFFFFFFFFFFFFFFFFFFFFF AND DUP2 MSTORE PUSH1 0x20 ADD SWAP1 DUP2 MSTORE PUSH1 0x20 ADD PUSH1 0x0 KECCAK256 PUSH1 0x0 DUP3 ADD MLOAD DUP2 PUSH1 0x0 ADD PUSH1 0x0 PUSH2 0x100 EXP DUP2 SLOAD DUP2 PUSH20 0xFFFFFFFFFFFFFFFFFFFFFFFFFFFFFFFFFFFFFFFF MUL NOT AND SWAP1 DUP4 PUSH20 0xFFFFFFFFFFFFFFFFFFFFFFFFFFFFFFFFFFFFFFFF AND MUL OR SWAP1 SSTORE POP PUSH1 0x20 DUP3 ADD MLOAD DUP2 PUSH1 0x1 ADD SWAP1 DUP1 MLOAD SWAP1 PUSH1 0x20 ADD SWAP1 PUSH2 0xB37 SWAP3 SWAP2 SWAP1 PUSH2 0xC46 JUMP JUMPDEST POP PUSH1 0x40 DUP3 ADD MLOAD DUP2 PUSH1 0x2 ADD SSTORE PUSH1 0x60 DUP3 ADD MLOAD DUP2 PUSH1 0x3 ADD PUSH1 0x0 PUSH2 0x100 EXP DUP2 SLOAD DUP2 PUSH1 0xFF MUL NOT AND SWAP1 DUP4 ISZERO ISZERO MUL OR SWAP1 SSTORE POP SWAP1 POP POP POP POP JUMP JUMPDEST PUSH1 0x0 JUMPDEST PUSH1 0x1 DUP1 SLOAD SWAP1 POP DUP2 LT ISZERO PUSH2 0xC42 JUMPI DUP2 PUSH20 0xFFFFFFFFFFFFFFFFFFFFFFFFFFFFFFFFFFFFFFFF AND PUSH1 0x1 DUP3 DUP2 SLOAD DUP2 LT PUSH2 0xBA4 JUMPI PUSH2 0xBA3 PUSH2 0x137B JUMP JUMPDEST JUMPDEST SWAP1 PUSH1 0x0 MSTORE PUSH1 0x20 PUSH1 0x0 KECCAK256 SWAP1 PUSH1 0x4 MUL ADD PUSH1 0x0 ADD PUSH1 0x0 SWAP1 SLOAD SWAP1 PUSH2 0x100 EXP SWAP1 DIV PUSH20 0xFFFFFFFFFFFFFFFFFFFFFFFFFFFFFFFFFFFFFFFF AND PUSH20 0xFFFFFFFFFFFFFFFFFFFFFFFFFFFFFFFFFFFFFFFF AND EQ ISZERO PUSH2 0xC2F JUMPI CALLVALUE PUSH1 0x1 DUP3 DUP2 SLOAD DUP2 LT PUSH2 0xC07 JUMPI PUSH2 0xC06 PUSH2 0x137B JUMP JUMPDEST JUMPDEST SWAP1 PUSH1 0x0 MSTORE PUSH1 0x20 PUSH1 0x0 KECCAK256 SWAP1 PUSH1 0x4 MUL ADD PUSH1 0x2 ADD PUSH1 0x0 DUP3 DUP3 SLOAD PUSH2 0xC27 SWAP2 SWAP1 PUSH2 0x1191 JUMP JUMPDEST SWAP3 POP POP DUP2 SWAP1 SSTORE POP JUMPDEST DUP1 DUP1 PUSH2 0xC3A SWAP1 PUSH2 0x12D4 JUMP JUMPDEST SWAP2 POP POP PUSH2 0xB6C JUMP JUMPDEST POP POP JUMP JUMPDEST DUP3 DUP1 SLOAD PUSH2 0xC52 SWAP1 PUSH2 0x1271 JUMP JUMPDEST SWAP1 PUSH1 0x0 MSTORE PUSH1 0x20 PUSH1 0x0 KECCAK256 SWAP1 PUSH1 0x1F ADD PUSH1 0x20 SWAP1 DIV DUP2 ADD SWAP3 DUP3 PUSH2 0xC74 JUMPI PUSH1 0x0 DUP6 SSTORE PUSH2 0xCBB JUMP JUMPDEST DUP3 PUSH1 0x1F LT PUSH2 0xC8D JUMPI DUP1 MLOAD PUSH1 0xFF NOT AND DUP4 DUP1 ADD OR DUP6 SSTORE PUSH2 0xCBB JUMP JUMPDEST DUP3 DUP1 ADD PUSH1 0x1 ADD DUP6 SSTORE DUP3 ISZERO PUSH2 0xCBB JUMPI SWAP2 DUP3 ADD JUMPDEST DUP3 DUP2 GT ISZERO PUSH2 0xCBA JUMPI DUP3 MLOAD DUP3 SSTORE SWAP2 PUSH1 0x20 ADD SWAP2 SWAP1 PUSH1 0x1 ADD SWAP1 PUSH2 0xC9F JUMP JUMPDEST JUMPDEST POP SWAP1 POP PUSH2 0xCC8 SWAP2 SWAP1 PUSH2 0xD0C JUMP JUMPDEST POP SWAP1 JUMP JUMPDEST PUSH1 0x40 MLOAD DUP1 PUSH1 0x80 ADD PUSH1 0x40 MSTORE DUP1 PUSH1 0x0 PUSH20 0xFFFFFFFFFFFFFFFFFFFFFFFFFFFFFFFFFFFFFFFF AND DUP2 MSTORE PUSH1 0x20 ADD PUSH1 0x60 DUP2 MSTORE PUSH1 0x20 ADD PUSH1 0x0 DUP2 MSTORE PUSH1 0x20 ADD PUSH1 0x0 ISZERO ISZERO DUP2 MSTORE POP SWAP1 JUMP JUMPDEST JUMPDEST DUP1 DUP3 GT ISZERO PUSH2 0xD25 JUMPI PUSH1 0x0 DUP2 PUSH1 0x0 SWAP1 SSTORE POP PUSH1 0x1 ADD PUSH2 0xD0D JUMP JUMPDEST POP SWAP1 JUMP JUMPDEST PUSH1 0x0 PUSH2 0xD3C PUSH2 0xD37 DUP5 PUSH2 0x1133 JUMP JUMPDEST PUSH2 0x110E JUMP JUMPDEST SWAP1 POP DUP3 DUP2 MSTORE PUSH1 0x20 DUP2 ADD DUP5 DUP5 DUP5 ADD GT ISZERO PUSH2 0xD58 JUMPI PUSH2 0xD57 PUSH2 0x13DE JUMP JUMPDEST JUMPDEST PUSH2 0xD63 DUP5 DUP3 DUP6 PUSH2 0x122F JUMP JUMPDEST POP SWAP4 SWAP3 POP POP POP JUMP JUMPDEST PUSH1 0x0 DUP2 CALLDATALOAD SWAP1 POP PUSH2 0xD7A DUP2 PUSH2 0x1450 JUMP JUMPDEST SWAP3 SWAP2 POP POP JUMP JUMPDEST PUSH1 0x0 DUP2 CALLDATALOAD SWAP1 POP PUSH2 0xD8F DUP2 PUSH2 0x1467 JUMP JUMPDEST SWAP3 SWAP2 POP POP JUMP JUMPDEST PUSH1 0x0 DUP3 PUSH1 0x1F DUP4 ADD SLT PUSH2 0xDAA JUMPI PUSH2 0xDA9 PUSH2 0x13D9 JUMP JUMPDEST JUMPDEST DUP2 CALLDATALOAD PUSH2 0xDBA DUP5 DUP3 PUSH1 0x20 DUP7 ADD PUSH2 0xD29 JUMP JUMPDEST SWAP2 POP POP SWAP3 SWAP2 POP POP JUMP JUMPDEST PUSH1 0x0 DUP2 CALLDATALOAD SWAP1 POP PUSH2 0xDD2 DUP2 PUSH2 0x147E JUMP JUMPDEST SWAP3 SWAP2 POP POP JUMP JUMPDEST PUSH1 0x0 PUSH1 0x20 DUP3 DUP5 SUB SLT ISZERO PUSH2 0xDEE JUMPI PUSH2 0xDED PUSH2 0x13E8 JUMP JUMPDEST JUMPDEST PUSH1 0x0 PUSH2 0xDFC DUP5 DUP3 DUP6 ADD PUSH2 0xD6B JUMP JUMPDEST SWAP2 POP POP SWAP3 SWAP2 POP POP JUMP JUMPDEST PUSH1 0x0 DUP1 PUSH1 0x0 DUP1 PUSH1 0x80 DUP6 DUP8 SUB SLT ISZERO PUSH2 0xE1F JUMPI PUSH2 0xE1E PUSH2 0x13E8 JUMP JUMPDEST JUMPDEST PUSH1 0x0 PUSH2 0xE2D DUP8 DUP3 DUP9 ADD PUSH2 0xD6B JUMP JUMPDEST SWAP5 POP POP PUSH1 0x20 DUP6 ADD CALLDATALOAD PUSH8 0xFFFFFFFFFFFFFFFF DUP2 GT ISZERO PUSH2 0xE4E JUMPI PUSH2 0xE4D PUSH2 0x13E3 JUMP JUMPDEST JUMPDEST PUSH2 0xE5A DUP8 DUP3 DUP9 ADD PUSH2 0xD95 JUMP JUMPDEST SWAP4 POP POP PUSH1 0x40 PUSH2 0xE6B DUP8 DUP3 DUP9 ADD PUSH2 0xDC3 JUMP JUMPDEST SWAP3 POP POP PUSH1 0x60 PUSH2 0xE7C DUP8 DUP3 DUP9 ADD PUSH2 0xD80 JUMP JUMPDEST SWAP2 POP POP SWAP3 SWAP6 SWAP2 SWAP5 POP SWAP3 POP JUMP JUMPDEST PUSH1 0x0 PUSH1 0x20 DUP3 DUP5 SUB SLT ISZERO PUSH2 0xE9E JUMPI PUSH2 0xE9D PUSH2 0x13E8 JUMP JUMPDEST JUMPDEST PUSH1 0x0 PUSH2 0xEAC DUP5 DUP3 DUP6 ADD PUSH2 0xDC3 JUMP JUMPDEST SWAP2 POP POP SWAP3 SWAP2 POP POP JUMP JUMPDEST PUSH2 0xEBE DUP2 PUSH2 0x11E7 JUMP JUMPDEST DUP3 MSTORE POP POP JUMP JUMPDEST PUSH2 0xECD DUP2 PUSH2 0x11E7 JUMP JUMPDEST DUP3 MSTORE POP POP JUMP JUMPDEST PUSH2 0xEDC DUP2 PUSH2 0x11F9 JUMP JUMPDEST DUP3 MSTORE POP POP JUMP JUMPDEST PUSH2 0xEEB DUP2 PUSH2 0x11F9 JUMP JUMPDEST DUP3 MSTORE POP POP JUMP JUMPDEST PUSH1 0x0 PUSH2 0xEFC DUP3 PUSH2 0x1164 JUMP JUMPDEST PUSH2 0xF06 DUP2 DUP6 PUSH2 0x116F JUMP JUMPDEST SWAP4 POP PUSH2 0xF16 DUP2 DUP6 PUSH1 0x20 DUP7 ADD PUSH2 0x123E JUMP JUMPDEST PUSH2 0xF1F DUP2 PUSH2 0x13ED JUMP JUMPDEST DUP5 ADD SWAP2 POP POP SWAP3 SWAP2 POP POP JUMP JUMPDEST PUSH1 0x0 PUSH2 0xF35 DUP3 PUSH2 0x1164 JUMP JUMPDEST PUSH2 0xF3F DUP2 DUP6 PUSH2 0x1180 JUMP JUMPDEST SWAP4 POP PUSH2 0xF4F DUP2 DUP6 PUSH1 0x20 DUP7 ADD PUSH2 0x123E JUMP JUMPDEST PUSH2 0xF58 DUP2 PUSH2 0x13ED JUMP JUMPDEST DUP5 ADD SWAP2 POP POP SWAP3 SWAP2 POP POP JUMP JUMPDEST PUSH1 0x0 PUSH2 0xF70 PUSH1 0x16 DUP4 PUSH2 0x1180 JUMP JUMPDEST SWAP2 POP PUSH2 0xF7B DUP3 PUSH2 0x13FE JUMP JUMPDEST PUSH1 0x20 DUP3 ADD SWAP1 POP SWAP2 SWAP1 POP JUMP JUMPDEST PUSH1 0x0 PUSH2 0xF93 PUSH1 0x15 DUP4 PUSH2 0x1180 JUMP JUMPDEST SWAP2 POP PUSH2 0xF9E DUP3 PUSH2 0x1427 JUMP JUMPDEST PUSH1 0x20 DUP3 ADD SWAP1 POP SWAP2 SWAP1 POP JUMP JUMPDEST PUSH1 0x0 PUSH1 0x80 DUP4 ADD PUSH1 0x0 DUP4 ADD MLOAD PUSH2 0xFC1 PUSH1 0x0 DUP7 ADD DUP3 PUSH2 0xEB5 JUMP JUMPDEST POP PUSH1 0x20 DUP4 ADD MLOAD DUP5 DUP3 SUB PUSH1 0x20 DUP7 ADD MSTORE PUSH2 0xFD9 DUP3 DUP3 PUSH2 0xEF1 JUMP JUMPDEST SWAP2 POP POP PUSH1 0x40 DUP4 ADD MLOAD PUSH2 0xFEE PUSH1 0x40 DUP7 ADD DUP3 PUSH2 0x100C JUMP JUMPDEST POP PUSH1 0x60 DUP4 ADD MLOAD PUSH2 0x1001 PUSH1 0x60 DUP7 ADD DUP3 PUSH2 0xED3 JUMP JUMPDEST POP DUP1 SWAP2 POP POP SWAP3 SWAP2 POP POP JUMP JUMPDEST PUSH2 0x1015 DUP2 PUSH2 0x1225 JUMP JUMPDEST DUP3 MSTORE POP POP JUMP JUMPDEST PUSH2 0x1024 DUP2 PUSH2 0x1225 JUMP JUMPDEST DUP3 MSTORE POP POP JUMP JUMPDEST PUSH1 0x0 PUSH1 0x80 DUP3 ADD SWAP1 POP PUSH2 0x103F PUSH1 0x0 DUP4 ADD DUP8 PUSH2 0xEC4 JUMP JUMPDEST DUP2 DUP2 SUB PUSH1 0x20 DUP4 ADD MSTORE PUSH2 0x1051 DUP2 DUP7 PUSH2 0xF2A JUMP JUMPDEST SWAP1 POP PUSH2 0x1060 PUSH1 0x40 DUP4 ADD DUP6 PUSH2 0x101B JUMP JUMPDEST PUSH2 0x106D PUSH1 0x60 DUP4 ADD DUP5 PUSH2 0xEE2 JUMP JUMPDEST SWAP6 SWAP5 POP POP POP POP POP JUMP JUMPDEST PUSH1 0x0 PUSH1 0x20 DUP3 ADD SWAP1 POP PUSH2 0x108B PUSH1 0x0 DUP4 ADD DUP5 PUSH2 0xEE2 JUMP JUMPDEST SWAP3 SWAP2 POP POP JUMP JUMPDEST PUSH1 0x0 PUSH1 0x20 DUP3 ADD SWAP1 POP DUP2 DUP2 SUB PUSH1 0x0 DUP4 ADD MSTORE PUSH2 0x10AA DUP2 PUSH2 0xF63 JUMP JUMPDEST SWAP1 POP SWAP2 SWAP1 POP JUMP JUMPDEST PUSH1 0x0 PUSH1 0x20 DUP3 ADD SWAP1 POP DUP2 DUP2 SUB PUSH1 0x0 DUP4 ADD MSTORE PUSH2 0x10CA DUP2 PUSH2 0xF86 JUMP JUMPDEST SWAP1 POP SWAP2 SWAP1 POP JUMP JUMPDEST PUSH1 0x0 PUSH1 0x20 DUP3 ADD SWAP1 POP DUP2 DUP2 SUB PUSH1 0x0 DUP4 ADD MSTORE PUSH2 0x10EB DUP2 DUP5 PUSH2 0xFA9 JUMP JUMPDEST SWAP1 POP SWAP3 SWAP2 POP POP JUMP JUMPDEST PUSH1 0x0 PUSH1 0x20 DUP3 ADD SWAP1 POP PUSH2 0x1108 PUSH1 0x0 DUP4 ADD DUP5 PUSH2 0x101B JUMP JUMPDEST SWAP3 SWAP2 POP POP JUMP JUMPDEST PUSH1 0x0 PUSH2 0x1118 PUSH2 0x1129 JUMP JUMPDEST SWAP1 POP PUSH2 0x1124 DUP3 DUP3 PUSH2 0x12A3 JUMP JUMPDEST SWAP2 SWAP1 POP JUMP JUMPDEST PUSH1 0x0 PUSH1 0x40 MLOAD SWAP1 POP SWAP1 JUMP JUMPDEST PUSH1 0x0 PUSH8 0xFFFFFFFFFFFFFFFF DUP3 GT ISZERO PUSH2 0x114E JUMPI PUSH2 0x114D PUSH2 0x13AA JUMP JUMPDEST JUMPDEST PUSH2 0x1157 DUP3 PUSH2 0x13ED JUMP JUMPDEST SWAP1 POP PUSH1 0x20 DUP2 ADD SWAP1 POP SWAP2 SWAP1 POP JUMP JUMPDEST PUSH1 0x0 DUP2 MLOAD SWAP1 POP SWAP2 SWAP1 POP JUMP JUMPDEST PUSH1 0x0 DUP3 DUP3 MSTORE PUSH1 0x20 DUP3 ADD SWAP1 POP SWAP3 SWAP2 POP POP JUMP JUMPDEST PUSH1 0x0 DUP3 DUP3 MSTORE PUSH1 0x20 DUP3 ADD SWAP1 POP SWAP3 SWAP2 POP POP JUMP JUMPDEST PUSH1 0x0 PUSH2 0x119C DUP3 PUSH2 0x1225 JUMP JUMPDEST SWAP2 POP PUSH2 0x11A7 DUP4 PUSH2 0x1225 JUMP JUMPDEST SWAP3 POP DUP3 PUSH32 0xFFFFFFFFFFFFFFFFFFFFFFFFFFFFFFFFFFFFFFFFFFFFFFFFFFFFFFFFFFFFFFFF SUB DUP3 GT ISZERO PUSH2 0x11DC JUMPI PUSH2 0x11DB PUSH2 0x131D JUMP JUMPDEST JUMPDEST DUP3 DUP3 ADD SWAP1 POP SWAP3 SWAP2 POP POP JUMP JUMPDEST PUSH1 0x0 PUSH2 0x11F2 DUP3 PUSH2 0x1205 JUMP JUMPDEST SWAP1 POP SWAP2 SWAP1 POP JUMP JUMPDEST PUSH1 0x0 DUP2 ISZERO ISZERO SWAP1 POP SWAP2 SWAP1 POP JUMP JUMPDEST PUSH1 0x0 PUSH20 0xFFFFFFFFFFFFFFFFFFFFFFFFFFFFFFFFFFFFFFFF DUP3 AND SWAP1 POP SWAP2 SWAP1 POP JUMP JUMPDEST PUSH1 0x0 DUP2 SWAP1 POP SWAP2 SWAP1 POP JUMP JUMPDEST DUP3 DUP2 DUP4 CALLDATACOPY PUSH1 0x0 DUP4 DUP4 ADD MSTORE POP POP POP JUMP JUMPDEST PUSH1 0x0 JUMPDEST DUP4 DUP2 LT ISZERO PUSH2 0x125C JUMPI DUP1 DUP3 ADD MLOAD DUP2 DUP5 ADD MSTORE PUSH1 0x20 DUP2 ADD SWAP1 POP PUSH2 0x1241 JUMP JUMPDEST DUP4 DUP2 GT ISZERO PUSH2 0x126B JUMPI PUSH1 0x0 DUP5 DUP5 ADD MSTORE JUMPDEST POP POP POP POP JUMP JUMPDEST PUSH1 0x0 PUSH1 0x2 DUP3 DIV SWAP1 POP PUSH1 0x1 DUP3 AND DUP1 PUSH2 0x1289 JUMPI PUSH1 0x7F DUP3 AND SWAP2 POP JUMPDEST PUSH1 0x20 DUP3 LT DUP2 EQ ISZERO PUSH2 0x129D JUMPI PUSH2 0x129C PUSH2 0x134C JUMP JUMPDEST JUMPDEST POP SWAP2 SWAP1 POP JUMP JUMPDEST PUSH2 0x12AC DUP3 PUSH2 0x13ED JUMP JUMPDEST DUP2 ADD DUP2 DUP2 LT PUSH8 0xFFFFFFFFFFFFFFFF DUP3 GT OR ISZERO PUSH2 0x12CB JUMPI PUSH2 0x12CA PUSH2 0x13AA JUMP JUMPDEST JUMPDEST DUP1 PUSH1 0x40 MSTORE POP POP POP JUMP JUMPDEST PUSH1 0x0 PUSH2 0x12DF DUP3 PUSH2 0x1225 JUMP JUMPDEST SWAP2 POP PUSH32 0xFFFFFFFFFFFFFFFFFFFFFFFFFFFFFFFFFFFFFFFFFFFFFFFFFFFFFFFFFFFFFFFF DUP3 EQ ISZERO PUSH2 0x1312 JUMPI PUSH2 0x1311 PUSH2 0x131D JUMP JUMPDEST JUMPDEST PUSH1 0x1 DUP3 ADD SWAP1 POP SWAP2 SWAP1 POP JUMP JUMPDEST PUSH32 0x4E487B7100000000000000000000000000000000000000000000000000000000 PUSH1 0x0 MSTORE PUSH1 0x11 PUSH1 0x4 MSTORE PUSH1 0x24 PUSH1 0x0 REVERT JUMPDEST PUSH32 0x4E487B7100000000000000000000000000000000000000000000000000000000 PUSH1 0x0 MSTORE PUSH1 0x22 PUSH1 0x4 MSTORE PUSH1 0x24 PUSH1 0x0 REVERT JUMPDEST PUSH32 0x4E487B7100000000000000000000000000000000000000000000000000000000 PUSH1 0x0 MSTORE PUSH1 0x32 PUSH1 0x4 MSTORE PUSH1 0x24 PUSH1 0x0 REVERT JUMPDEST PUSH32 0x4E487B7100000000000000000000000000000000000000000000000000000000 PUSH1 0x0 MSTORE PUSH1 0x41 PUSH1 0x4 MSTORE PUSH1 0x24 PUSH1 0x0 REVERT JUMPDEST PUSH1 0x0 DUP1 REVERT JUMPDEST PUSH1 0x0 DUP1 REVERT JUMPDEST PUSH1 0x0 DUP1 REVERT JUMPDEST PUSH1 0x0 DUP1 REVERT JUMPDEST PUSH1 0x0 PUSH1 0x1F NOT PUSH1 0x1F DUP4 ADD AND SWAP1 POP SWAP2 SWAP1 POP JUMP JUMPDEST PUSH32 0x496E76616C69642057616C6C6574204164647265737300000000000000000000 PUSH1 0x0 DUP3 ADD MSTORE POP JUMP JUMPDEST PUSH32 0x596F7520617265206E6F7420746865206F776E65720000000000000000000000 PUSH1 0x0 DUP3 ADD MSTORE POP JUMP JUMPDEST PUSH2 0x1459 DUP2 PUSH2 0x11E7 JUMP JUMPDEST DUP2 EQ PUSH2 0x1464 JUMPI PUSH1 0x0 DUP1 REVERT JUMPDEST POP JUMP JUMPDEST PUSH2 0x1470 DUP2 PUSH2 0x11F9 JUMP JUMPDEST DUP2 EQ PUSH2 0x147B JUMPI PUSH1 0x0 DUP1 REVERT JUMPDEST POP JUMP JUMPDEST PUSH2 0x1487 DUP2 PUSH2 0x1225 JUMP JUMPDEST DUP2 EQ PUSH2 0x1492 JUMPI PUSH1 0x0 DUP1 REVERT JUMPDEST POP JUMP INVALID LOG2 PUSH5 0x6970667358 0x22 SLT KECCAK256 TIMESTAMP 0xA7 PUSH8 0x8D59837CA6C34E26 0x25 ADD SELFDESTRUCT 0xBC ISZERO 0xEC 0xB4 STATICCALL 0xB8 0x2C PUSH23 0xFC3EE819834C08D6D3F664736F6C634300080700330000 "
				},
				"gasEstimates": {
					"creation": {
						"codeDepositCost": "1064600",
						"executionCost": "25373",
						"totalCost": "1089973"
					},
					"external": {
						"addToInvestors(address)": "infinite",
						"addUser(address,string,uint256,bool)": "infinite",
						"balanceOf(address)": "infinite",
						"getUserByAddress(address)": "infinite",
						"investorPermission(address)": "infinite",
						"investors(address)": "infinite",
						"transfer(address)": "infinite",
						"userExists(address)": "infinite",
						"users(uint256)": "infinite"
					},
					"internal": {
						"transferToAddress(address)": "infinite"
					}
				},
				"methodIdentifiers": {
					"addToInvestors(address)": "d7bed4bc",
					"addUser(address,string,uint256,bool)": "280879e7",
					"balanceOf(address)": "70a08231",
					"getUserByAddress(address)": "69c212f6",
					"investorPermission(address)": "4140eb0d",
					"investors(address)": "6f7bc9be",
					"transfer(address)": "1a695230",
					"userExists(address)": "0e666e49",
					"users(uint256)": "365b98b2"
				}
			},
			"storageLayout": {
				"storage": [
					{
						"astId": 3,
						"contract": "contracts/Test1.sol:Test1",
						"label": "owner",
						"offset": 0,
						"slot": "0",
						"type": "t_address"
					},
					{
						"astId": 37,
						"contract": "contracts/Test1.sol:Test1",
						"label": "users",
						"offset": 0,
						"slot": "1",
						"type": "t_array(t_struct(User)21_storage)dyn_storage"
					},
					{
						"astId": 42,
						"contract": "contracts/Test1.sol:Test1",
						"label": "investors",
						"offset": 0,
						"slot": "2",
						"type": "t_mapping(t_address,t_struct(User)21_storage)"
					}
				],
				"types": {
					"t_address": {
						"encoding": "inplace",
						"label": "address",
						"numberOfBytes": "20"
					},
					"t_array(t_struct(User)21_storage)dyn_storage": {
						"base": "t_struct(User)21_storage",
						"encoding": "dynamic_array",
						"label": "struct Test1.User[]",
						"numberOfBytes": "32"
					},
					"t_bool": {
						"encoding": "inplace",
						"label": "bool",
						"numberOfBytes": "1"
					},
					"t_mapping(t_address,t_struct(User)21_storage)": {
						"encoding": "mapping",
						"key": "t_address",
						"label": "mapping(address => struct Test1.User)",
						"numberOfBytes": "32",
						"value": "t_struct(User)21_storage"
					},
					"t_string_storage": {
						"encoding": "bytes",
						"label": "string",
						"numberOfBytes": "32"
					},
					"t_struct(User)21_storage": {
						"encoding": "inplace",
						"label": "struct Test1.User",
						"members": [
							{
								"astId": 14,
								"contract": "contracts/Test1.sol:Test1",
								"label": "walletAddress",
								"offset": 0,
								"slot": "0",
								"type": "t_address"
							},
							{
								"astId": 16,
								"contract": "contracts/Test1.sol:Test1",
								"label": "name",
								"offset": 0,
								"slot": "1",
								"type": "t_string_storage"
							},
							{
								"astId": 18,
								"contract": "contracts/Test1.sol:Test1",
								"label": "amount",
								"offset": 0,
								"slot": "2",
								"type": "t_uint256"
							},
							{
								"astId": 20,
								"contract": "contracts/Test1.sol:Test1",
								"label": "isInvestor",
								"offset": 0,
								"slot": "3",
								"type": "t_bool"
							}
						],
						"numberOfBytes": "128"
					},
					"t_uint256": {
						"encoding": "inplace",
						"label": "uint256",
						"numberOfBytes": "32"
					}
				}
			},
			"userdoc": {
				"kind": "user",
				"methods": {},
				"version": 1
			}
		}
	}
}