{
	"contracts/Test1.sol": {
		"Test1": {
			"abi": [
				{
					"inputs": [],
					"stateMutability": "nonpayable",
					"type": "constructor"
				},
				{
					"inputs": [
						{
							"internalType": "address",
							"name": "walletAddress",
							"type": "address"
						},
						{
							"internalType": "uint256",
							"name": "amount",
							"type": "uint256"
						}
					],
					"name": "addToInvestors",
					"outputs": [],
					"stateMutability": "nonpayable",
					"type": "function"
				},
				{
					"inputs": [
						{
							"internalType": "address",
							"name": "walletAddress",
							"type": "address"
						},
						{
							"internalType": "string",
							"name": "name",
							"type": "string"
						},
						{
							"internalType": "uint256",
							"name": "amount",
							"type": "uint256"
						},
						{
							"internalType": "bool",
							"name": "isInvestor",
							"type": "bool"
						}
					],
					"name": "addUser",
					"outputs": [],
					"stateMutability": "nonpayable",
					"type": "function"
				},
				{
					"inputs": [
						{
							"internalType": "address",
							"name": "walletAddress",
							"type": "address"
						}
					],
					"name": "balanceOf",
					"outputs": [
						{
							"internalType": "uint256",
							"name": "",
							"type": "uint256"
						}
					],
					"stateMutability": "view",
					"type": "function"
				},
				{
					"inputs": [
						{
							"internalType": "address",
							"name": "walletAddress",
							"type": "address"
						}
					],
					"name": "getUserByAddress",
					"outputs": [
						{
							"components": [
								{
									"internalType": "address",
									"name": "walletAddress",
									"type": "address"
								},
								{
									"internalType": "string",
									"name": "name",
									"type": "string"
								},
								{
									"internalType": "uint256",
									"name": "amount",
									"type": "uint256"
								},
								{
									"internalType": "bool",
									"name": "isInvestor",
									"type": "bool"
								}
							],
							"internalType": "struct Test1.User",
							"name": "",
							"type": "tuple"
						}
					],
					"stateMutability": "view",
					"type": "function"
				},
				{
					"inputs": [
						{
							"internalType": "address",
							"name": "",
							"type": "address"
						}
					],
					"name": "investors",
					"outputs": [
						{
							"internalType": "uint256",
							"name": "",
							"type": "uint256"
						}
					],
					"stateMutability": "view",
					"type": "function"
				},
				{
					"inputs": [
						{
							"internalType": "address",
							"name": "walletAddress",
							"type": "address"
						}
					],
					"name": "isInvestor",
					"outputs": [
						{
							"internalType": "bool",
							"name": "",
							"type": "bool"
						}
					],
					"stateMutability": "nonpayable",
					"type": "function"
				},
				{
					"inputs": [
						{
							"internalType": "address",
							"name": "walletAddress",
							"type": "address"
						}
					],
					"name": "transfer",
					"outputs": [],
					"stateMutability": "payable",
					"type": "function"
				},
				{
					"inputs": [
						{
							"internalType": "uint256",
							"name": "",
							"type": "uint256"
						}
					],
					"name": "users",
					"outputs": [
						{
							"internalType": "address",
							"name": "walletAddress",
							"type": "address"
						},
						{
							"internalType": "string",
							"name": "name",
							"type": "string"
						},
						{
							"internalType": "uint256",
							"name": "amount",
							"type": "uint256"
						},
						{
							"internalType": "bool",
							"name": "isInvestor",
							"type": "bool"
						}
					],
					"stateMutability": "view",
					"type": "function"
				}
			],
			"devdoc": {
				"kind": "dev",
				"methods": {},
				"version": 1
			},
			"evm": {
				"assembly": "    /* \"contracts/Test1.sol\":65:2131  contract Test1{... */\n  mstore(0x40, 0x80)\n    /* \"contracts/Test1.sol\":106:154  constructor(){... */\n  callvalue\n  dup1\n  iszero\n  tag_1\n  jumpi\n  0x00\n  dup1\n  revert\ntag_1:\n  pop\n    /* \"contracts/Test1.sol\":137:147  msg.sender */\n  caller\n    /* \"contracts/Test1.sol\":129:134  owner */\n  0x00\n  dup1\n    /* \"contracts/Test1.sol\":129:147  owner = msg.sender */\n  0x0100\n  exp\n  dup2\n  sload\n  dup2\n  0xffffffffffffffffffffffffffffffffffffffff\n  mul\n  not\n  and\n  swap1\n  dup4\n  0xffffffffffffffffffffffffffffffffffffffff\n  and\n  mul\n  or\n  swap1\n  sstore\n  pop\n    /* \"contracts/Test1.sol\":65:2131  contract Test1{... */\n  dataSize(sub_0)\n  dup1\n  dataOffset(sub_0)\n  0x00\n  codecopy\n  0x00\n  return\nstop\n\nsub_0: assembly {\n        /* \"contracts/Test1.sol\":65:2131  contract Test1{... */\n      mstore(0x40, 0x80)\n      jumpi(tag_1, lt(calldatasize, 0x04))\n      shr(0xe0, calldataload(0x00))\n      dup1\n      0x69c212f6\n      gt\n      tag_10\n      jumpi\n      dup1\n      0x69c212f6\n      eq\n      tag_6\n      jumpi\n      dup1\n      0x6f7bc9be\n      eq\n      tag_7\n      jumpi\n      dup1\n      0x70a08231\n      eq\n      tag_8\n      jumpi\n      dup1\n      0xcee2a9cf\n      eq\n      tag_9\n      jumpi\n      jump(tag_1)\n    tag_10:\n      dup1\n      0x0b1019f0\n      eq\n      tag_2\n      jumpi\n      dup1\n      0x1a695230\n      eq\n      tag_3\n      jumpi\n      dup1\n      0x280879e7\n      eq\n      tag_4\n      jumpi\n      dup1\n      0x365b98b2\n      eq\n      tag_5\n      jumpi\n    tag_1:\n      0x00\n      dup1\n      revert\n        /* \"contracts/Test1.sol\":765:976  function addToInvestors(address walletAddress, uint amount) public {... */\n    tag_2:\n      callvalue\n      dup1\n      iszero\n      tag_11\n      jumpi\n      0x00\n      dup1\n      revert\n    tag_11:\n      pop\n      tag_12\n      0x04\n      dup1\n      calldatasize\n      sub\n      dup2\n      add\n      swap1\n      tag_13\n      swap2\n      swap1\n      tag_14\n      jump\t// in\n    tag_13:\n      tag_15\n      jump\t// in\n    tag_12:\n      stop\n        /* \"contracts/Test1.sol\":1505:1610  function transfer(address walletAddress) payable public {... */\n    tag_3:\n      tag_16\n      0x04\n      dup1\n      calldatasize\n      sub\n      dup2\n      add\n      swap1\n      tag_17\n      swap2\n      swap1\n      tag_18\n      jump\t// in\n    tag_17:\n      tag_19\n      jump\t// in\n    tag_16:\n      stop\n        /* \"contracts/Test1.sol\":584:755  function addUser(address walletAddress, string memory name, uint amount, bool isInvestor) public {... */\n    tag_4:\n      callvalue\n      dup1\n      iszero\n      tag_20\n      jumpi\n      0x00\n      dup1\n      revert\n    tag_20:\n      pop\n      tag_21\n      0x04\n      dup1\n      calldatasize\n      sub\n      dup2\n      add\n      swap1\n      tag_22\n      swap2\n      swap1\n      tag_23\n      jump\t// in\n    tag_22:\n      tag_24\n      jump\t// in\n    tag_21:\n      stop\n        /* \"contracts/Test1.sol\":511:530  User[] public users */\n    tag_5:\n      callvalue\n      dup1\n      iszero\n      tag_25\n      jumpi\n      0x00\n      dup1\n      revert\n    tag_25:\n      pop\n      tag_26\n      0x04\n      dup1\n      calldatasize\n      sub\n      dup2\n      add\n      swap1\n      tag_27\n      swap2\n      swap1\n      tag_28\n      jump\t// in\n    tag_27:\n      tag_29\n      jump\t// in\n    tag_26:\n      mload(0x40)\n      tag_30\n      swap5\n      swap4\n      swap3\n      swap2\n      swap1\n      tag_31\n      jump\t// in\n    tag_30:\n      mload(0x40)\n      dup1\n      swap2\n      sub\n      swap1\n      return\n        /* \"contracts/Test1.sol\":982:1275  function getUserByAddress(address walletAddress) public view returns(User memory){... */\n    tag_6:\n      callvalue\n      dup1\n      iszero\n      tag_32\n      jumpi\n      0x00\n      dup1\n      revert\n    tag_32:\n      pop\n      tag_33\n      0x04\n      dup1\n      calldatasize\n      sub\n      dup2\n      add\n      swap1\n      tag_34\n      swap2\n      swap1\n      tag_18\n      jump\t// in\n    tag_34:\n      tag_35\n      jump\t// in\n    tag_33:\n      mload(0x40)\n      tag_36\n      swap2\n      swap1\n      tag_37\n      jump\t// in\n    tag_36:\n      mload(0x40)\n      dup1\n      swap2\n      sub\n      swap1\n      return\n        /* \"contracts/Test1.sol\":536:577  mapping(address => uint) public investors */\n    tag_7:\n      callvalue\n      dup1\n      iszero\n      tag_38\n      jumpi\n      0x00\n      dup1\n      revert\n    tag_38:\n      pop\n      tag_39\n      0x04\n      dup1\n      calldatasize\n      sub\n      dup2\n      add\n      swap1\n      tag_40\n      swap2\n      swap1\n      tag_18\n      jump\t// in\n    tag_40:\n      tag_41\n      jump\t// in\n    tag_39:\n      mload(0x40)\n      tag_42\n      swap2\n      swap1\n      tag_43\n      jump\t// in\n    tag_42:\n      mload(0x40)\n      dup1\n      swap2\n      sub\n      swap1\n      return\n        /* \"contracts/Test1.sol\":1862:2125  function balanceOf(address walletAddress) public view returns(uint){... */\n    tag_8:\n      callvalue\n      dup1\n      iszero\n      tag_44\n      jumpi\n      0x00\n      dup1\n      revert\n    tag_44:\n      pop\n      tag_45\n      0x04\n      dup1\n      calldatasize\n      sub\n      dup2\n      add\n      swap1\n      tag_46\n      swap2\n      swap1\n      tag_18\n      jump\t// in\n    tag_46:\n      tag_47\n      jump\t// in\n    tag_45:\n      mload(0x40)\n      tag_48\n      swap2\n      swap1\n      tag_43\n      jump\t// in\n    tag_48:\n      mload(0x40)\n      dup1\n      swap2\n      sub\n      swap1\n      return\n        /* \"contracts/Test1.sol\":1281:1421  function isInvestor(address walletAddress) public returns(bool){... */\n    tag_9:\n      callvalue\n      dup1\n      iszero\n      tag_49\n      jumpi\n      0x00\n      dup1\n      revert\n    tag_49:\n      pop\n      tag_50\n      0x04\n      dup1\n      calldatasize\n      sub\n      dup2\n      add\n      swap1\n      tag_51\n      swap2\n      swap1\n      tag_18\n      jump\t// in\n    tag_51:\n      tag_52\n      jump\t// in\n    tag_50:\n      mload(0x40)\n      tag_53\n      swap2\n      swap1\n      tag_54\n      jump\t// in\n    tag_53:\n      mload(0x40)\n      dup1\n      swap2\n      sub\n      swap1\n      return\n        /* \"contracts/Test1.sol\":765:976  function addToInvestors(address walletAddress, uint amount) public {... */\n    tag_15:\n        /* \"contracts/Test1.sol\":869:875  amount */\n      dup1\n        /* \"contracts/Test1.sol\":842:851  investors */\n      0x02\n        /* \"contracts/Test1.sol\":842:866  investors[walletAddress] */\n      0x00\n        /* \"contracts/Test1.sol\":852:865  walletAddress */\n      dup5\n        /* \"contracts/Test1.sol\":842:866  investors[walletAddress] */\n      0xffffffffffffffffffffffffffffffffffffffff\n      and\n      0xffffffffffffffffffffffffffffffffffffffff\n      and\n      dup2\n      mstore\n      0x20\n      add\n      swap1\n      dup2\n      mstore\n      0x20\n      add\n      0x00\n      keccak256\n        /* \"contracts/Test1.sol\":842:875  investors[walletAddress] = amount */\n      dup2\n      swap1\n      sstore\n      pop\n        /* \"contracts/Test1.sol\":885:901  User memory user */\n      0x00\n        /* \"contracts/Test1.sol\":904:935  getUserByAddress(walletAddress) */\n      tag_56\n        /* \"contracts/Test1.sol\":921:934  walletAddress */\n      dup4\n        /* \"contracts/Test1.sol\":904:920  getUserByAddress */\n      tag_35\n        /* \"contracts/Test1.sol\":904:935  getUserByAddress(walletAddress) */\n      jump\t// in\n    tag_56:\n        /* \"contracts/Test1.sol\":885:935  User memory user = getUserByAddress(walletAddress) */\n      swap1\n      pop\n        /* \"contracts/Test1.sol\":964:968  true */\n      0x01\n        /* \"contracts/Test1.sol\":945:968  user.isInvestor == true */\n      iszero\n      iszero\n        /* \"contracts/Test1.sol\":945:949  user */\n      dup2\n        /* \"contracts/Test1.sol\":945:960  user.isInvestor */\n      0x60\n      add\n      mload\n        /* \"contracts/Test1.sol\":945:968  user.isInvestor == true */\n      pop\n      pop\n        /* \"contracts/Test1.sol\":832:976  {... */\n      pop\n        /* \"contracts/Test1.sol\":765:976  function addToInvestors(address walletAddress, uint amount) public {... */\n      pop\n      pop\n      jump\t// out\n        /* \"contracts/Test1.sol\":1505:1610  function transfer(address walletAddress) payable public {... */\n    tag_19:\n        /* \"contracts/Test1.sol\":1571:1603  transferToAddress(walletAddress) */\n      tag_58\n        /* \"contracts/Test1.sol\":1589:1602  walletAddress */\n      dup2\n        /* \"contracts/Test1.sol\":1571:1588  transferToAddress */\n      tag_59\n        /* \"contracts/Test1.sol\":1571:1603  transferToAddress(walletAddress) */\n      jump\t// in\n    tag_58:\n        /* \"contracts/Test1.sol\":1505:1610  function transfer(address walletAddress) payable public {... */\n      pop\n      jump\t// out\n        /* \"contracts/Test1.sol\":584:755  function addUser(address walletAddress, string memory name, uint amount, bool isInvestor) public {... */\n    tag_24:\n        /* \"contracts/Test1.sol\":691:696  users */\n      0x01\n        /* \"contracts/Test1.sol\":702:747  User(walletAddress, name, amount, isInvestor) */\n      mload(0x40)\n      dup1\n      0x80\n      add\n      0x40\n      mstore\n      dup1\n        /* \"contracts/Test1.sol\":707:720  walletAddress */\n      dup7\n        /* \"contracts/Test1.sol\":702:747  User(walletAddress, name, amount, isInvestor) */\n      0xffffffffffffffffffffffffffffffffffffffff\n      and\n      dup2\n      mstore\n      0x20\n      add\n        /* \"contracts/Test1.sol\":722:726  name */\n      dup6\n        /* \"contracts/Test1.sol\":702:747  User(walletAddress, name, amount, isInvestor) */\n      dup2\n      mstore\n      0x20\n      add\n        /* \"contracts/Test1.sol\":728:734  amount */\n      dup5\n        /* \"contracts/Test1.sol\":702:747  User(walletAddress, name, amount, isInvestor) */\n      dup2\n      mstore\n      0x20\n      add\n        /* \"contracts/Test1.sol\":736:746  isInvestor */\n      dup4\n        /* \"contracts/Test1.sol\":702:747  User(walletAddress, name, amount, isInvestor) */\n      iszero\n      iszero\n      dup2\n      mstore\n      pop\n        /* \"contracts/Test1.sol\":691:748  users.push(User(walletAddress, name, amount, isInvestor)) */\n      swap1\n      dup1\n      0x01\n      dup2\n      sload\n      add\n      dup1\n      dup3\n      sstore\n      dup1\n      swap2\n      pop\n      pop\n      0x01\n      swap1\n      sub\n      swap1\n      0x00\n      mstore\n      keccak256(0x00, 0x20)\n      swap1\n      0x04\n      mul\n      add\n      0x00\n      swap1\n      swap2\n      swap1\n      swap2\n      swap1\n      swap2\n      pop\n      0x00\n      dup3\n      add\n      mload\n      dup2\n      0x00\n      add\n      exp(0x0100, 0x00)\n      dup2\n      sload\n      dup2\n      0xffffffffffffffffffffffffffffffffffffffff\n      mul\n      not\n      and\n      swap1\n      dup4\n      0xffffffffffffffffffffffffffffffffffffffff\n      and\n      mul\n      or\n      swap1\n      sstore\n      pop\n      0x20\n      dup3\n      add\n      mload\n      dup2\n      0x01\n      add\n      swap1\n      dup1\n      mload\n      swap1\n      0x20\n      add\n      swap1\n      tag_62\n      swap3\n      swap2\n      swap1\n      tag_63\n      jump\t// in\n    tag_62:\n      pop\n      0x40\n      dup3\n      add\n      mload\n      dup2\n      0x02\n      add\n      sstore\n      0x60\n      dup3\n      add\n      mload\n      dup2\n      0x03\n      add\n      exp(0x0100, 0x00)\n      dup2\n      sload\n      dup2\n      0xff\n      mul\n      not\n      and\n      swap1\n      dup4\n      iszero\n      iszero\n      mul\n      or\n      swap1\n      sstore\n      pop\n      pop\n      pop\n        /* \"contracts/Test1.sol\":584:755  function addUser(address walletAddress, string memory name, uint amount, bool isInvestor) public {... */\n      pop\n      pop\n      pop\n      pop\n      jump\t// out\n        /* \"contracts/Test1.sol\":511:530  User[] public users */\n    tag_29:\n      0x01\n      dup2\n      dup2\n      sload\n      dup2\n      lt\n      tag_64\n      jumpi\n      0x00\n      dup1\n      revert\n    tag_64:\n      swap1\n      0x00\n      mstore\n      keccak256(0x00, 0x20)\n      swap1\n      0x04\n      mul\n      add\n      0x00\n      swap2\n      pop\n      swap1\n      pop\n      dup1\n      0x00\n      add\n      0x00\n      swap1\n      sload\n      swap1\n      0x0100\n      exp\n      swap1\n      div\n      0xffffffffffffffffffffffffffffffffffffffff\n      and\n      swap1\n      dup1\n      0x01\n      add\n      dup1\n      sload\n      tag_66\n      swap1\n      tag_67\n      jump\t// in\n    tag_66:\n      dup1\n      0x1f\n      add\n      0x20\n      dup1\n      swap2\n      div\n      mul\n      0x20\n      add\n      mload(0x40)\n      swap1\n      dup2\n      add\n      0x40\n      mstore\n      dup1\n      swap3\n      swap2\n      swap1\n      dup2\n      dup2\n      mstore\n      0x20\n      add\n      dup3\n      dup1\n      sload\n      tag_68\n      swap1\n      tag_67\n      jump\t// in\n    tag_68:\n      dup1\n      iszero\n      tag_69\n      jumpi\n      dup1\n      0x1f\n      lt\n      tag_70\n      jumpi\n      0x0100\n      dup1\n      dup4\n      sload\n      div\n      mul\n      dup4\n      mstore\n      swap2\n      0x20\n      add\n      swap2\n      jump(tag_69)\n    tag_70:\n      dup3\n      add\n      swap2\n      swap1\n      0x00\n      mstore\n      keccak256(0x00, 0x20)\n      swap1\n    tag_71:\n      dup2\n      sload\n      dup2\n      mstore\n      swap1\n      0x01\n      add\n      swap1\n      0x20\n      add\n      dup1\n      dup4\n      gt\n      tag_71\n      jumpi\n      dup3\n      swap1\n      sub\n      0x1f\n      and\n      dup3\n      add\n      swap2\n    tag_69:\n      pop\n      pop\n      pop\n      pop\n      pop\n      swap1\n      dup1\n      0x02\n      add\n      sload\n      swap1\n      dup1\n      0x03\n      add\n      0x00\n      swap1\n      sload\n      swap1\n      0x0100\n      exp\n      swap1\n      div\n      0xff\n      and\n      swap1\n      pop\n      dup5\n      jump\t// out\n        /* \"contracts/Test1.sol\":982:1275  function getUserByAddress(address walletAddress) public view returns(User memory){... */\n    tag_35:\n        /* \"contracts/Test1.sol\":1051:1062  User memory */\n      tag_72\n      tag_73\n      jump\t// in\n    tag_72:\n        /* \"contracts/Test1.sol\":1077:1083  uint i */\n      0x00\n        /* \"contracts/Test1.sol\":1073:1226  for(uint i = 0; i < users.length; i++){... */\n    tag_75:\n        /* \"contracts/Test1.sol\":1093:1098  users */\n      0x01\n        /* \"contracts/Test1.sol\":1093:1105  users.length */\n      dup1\n      sload\n      swap1\n      pop\n        /* \"contracts/Test1.sol\":1089:1090  i */\n      dup2\n        /* \"contracts/Test1.sol\":1089:1105  i < users.length */\n      lt\n        /* \"contracts/Test1.sol\":1073:1226  for(uint i = 0; i < users.length; i++){... */\n      iszero\n      tag_76\n      jumpi\n        /* \"contracts/Test1.sol\":1154:1167  walletAddress */\n      dup3\n        /* \"contracts/Test1.sol\":1128:1167  users[i].walletAddress == walletAddress */\n      0xffffffffffffffffffffffffffffffffffffffff\n      and\n        /* \"contracts/Test1.sol\":1128:1133  users */\n      0x01\n        /* \"contracts/Test1.sol\":1134:1135  i */\n      dup3\n        /* \"contracts/Test1.sol\":1128:1136  users[i] */\n      dup2\n      sload\n      dup2\n      lt\n      tag_78\n      jumpi\n      tag_79\n      tag_80\n      jump\t// in\n    tag_79:\n    tag_78:\n      swap1\n      0x00\n      mstore\n      keccak256(0x00, 0x20)\n      swap1\n      0x04\n      mul\n      add\n        /* \"contracts/Test1.sol\":1128:1150  users[i].walletAddress */\n      0x00\n      add\n      0x00\n      swap1\n      sload\n      swap1\n      0x0100\n      exp\n      swap1\n      div\n      0xffffffffffffffffffffffffffffffffffffffff\n      and\n        /* \"contracts/Test1.sol\":1128:1167  users[i].walletAddress == walletAddress */\n      0xffffffffffffffffffffffffffffffffffffffff\n      and\n      eq\n        /* \"contracts/Test1.sol\":1125:1216  if(users[i].walletAddress == walletAddress){... */\n      iszero\n      tag_82\n      jumpi\n        /* \"contracts/Test1.sol\":1193:1198  users */\n      0x01\n        /* \"contracts/Test1.sol\":1199:1200  i */\n      dup2\n        /* \"contracts/Test1.sol\":1193:1201  users[i] */\n      dup2\n      sload\n      dup2\n      lt\n      tag_83\n      jumpi\n      tag_84\n      tag_80\n      jump\t// in\n    tag_84:\n    tag_83:\n      swap1\n      0x00\n      mstore\n      keccak256(0x00, 0x20)\n      swap1\n      0x04\n      mul\n      add\n        /* \"contracts/Test1.sol\":1186:1201  return users[i] */\n      mload(0x40)\n      dup1\n      0x80\n      add\n      0x40\n      mstore\n      swap1\n      dup2\n      0x00\n      dup3\n      add\n      0x00\n      swap1\n      sload\n      swap1\n      0x0100\n      exp\n      swap1\n      div\n      0xffffffffffffffffffffffffffffffffffffffff\n      and\n      0xffffffffffffffffffffffffffffffffffffffff\n      and\n      0xffffffffffffffffffffffffffffffffffffffff\n      and\n      dup2\n      mstore\n      0x20\n      add\n      0x01\n      dup3\n      add\n      dup1\n      sload\n      tag_86\n      swap1\n      tag_67\n      jump\t// in\n    tag_86:\n      dup1\n      0x1f\n      add\n      0x20\n      dup1\n      swap2\n      div\n      mul\n      0x20\n      add\n      mload(0x40)\n      swap1\n      dup2\n      add\n      0x40\n      mstore\n      dup1\n      swap3\n      swap2\n      swap1\n      dup2\n      dup2\n      mstore\n      0x20\n      add\n      dup3\n      dup1\n      sload\n      tag_87\n      swap1\n      tag_67\n      jump\t// in\n    tag_87:\n      dup1\n      iszero\n      tag_88\n      jumpi\n      dup1\n      0x1f\n      lt\n      tag_89\n      jumpi\n      0x0100\n      dup1\n      dup4\n      sload\n      div\n      mul\n      dup4\n      mstore\n      swap2\n      0x20\n      add\n      swap2\n      jump(tag_88)\n    tag_89:\n      dup3\n      add\n      swap2\n      swap1\n      0x00\n      mstore\n      keccak256(0x00, 0x20)\n      swap1\n    tag_90:\n      dup2\n      sload\n      dup2\n      mstore\n      swap1\n      0x01\n      add\n      swap1\n      0x20\n      add\n      dup1\n      dup4\n      gt\n      tag_90\n      jumpi\n      dup3\n      swap1\n      sub\n      0x1f\n      and\n      dup3\n      add\n      swap2\n    tag_88:\n      pop\n      pop\n      pop\n      pop\n      pop\n      dup2\n      mstore\n      0x20\n      add\n      0x02\n      dup3\n      add\n      sload\n      dup2\n      mstore\n      0x20\n      add\n      0x03\n      dup3\n      add\n      0x00\n      swap1\n      sload\n      swap1\n      0x0100\n      exp\n      swap1\n      div\n      0xff\n      and\n      iszero\n      iszero\n      iszero\n      iszero\n      dup2\n      mstore\n      pop\n      pop\n      swap2\n      pop\n      pop\n      jump(tag_74)\n        /* \"contracts/Test1.sol\":1125:1216  if(users[i].walletAddress == walletAddress){... */\n    tag_82:\n        /* \"contracts/Test1.sol\":1107:1110  i++ */\n      dup1\n      dup1\n      tag_91\n      swap1\n      tag_92\n      jump\t// in\n    tag_91:\n      swap2\n      pop\n      pop\n        /* \"contracts/Test1.sol\":1073:1226  for(uint i = 0; i < users.length; i++){... */\n      jump(tag_75)\n    tag_76:\n      pop\n        /* \"contracts/Test1.sol\":1236:1268  revert(\"Invalid Wallet Address\") */\n      mload(0x40)\n      0x08c379a000000000000000000000000000000000000000000000000000000000\n      dup2\n      mstore\n      0x04\n      add\n      tag_93\n      swap1\n      tag_94\n      jump\t// in\n    tag_93:\n      mload(0x40)\n      dup1\n      swap2\n      sub\n      swap1\n      revert\n        /* \"contracts/Test1.sol\":982:1275  function getUserByAddress(address walletAddress) public view returns(User memory){... */\n    tag_74:\n      swap2\n      swap1\n      pop\n      jump\t// out\n        /* \"contracts/Test1.sol\":536:577  mapping(address => uint) public investors */\n    tag_41:\n      mstore(0x20, 0x02)\n      dup1\n      0x00\n      mstore\n      keccak256(0x00, 0x40)\n      0x00\n      swap2\n      pop\n      swap1\n      pop\n      sload\n      dup2\n      jump\t// out\n        /* \"contracts/Test1.sol\":1862:2125  function balanceOf(address walletAddress) public view returns(uint){... */\n    tag_47:\n        /* \"contracts/Test1.sol\":1924:1928  uint */\n      0x00\n        /* \"contracts/Test1.sol\":1943:1949  uint i */\n      dup1\n        /* \"contracts/Test1.sol\":1952:1953  0 */\n      0x00\n        /* \"contracts/Test1.sol\":1943:1953  uint i = 0 */\n      swap1\n      pop\n        /* \"contracts/Test1.sol\":1939:2099  for(uint i = 0; i < users.length; i++){... */\n    tag_96:\n        /* \"contracts/Test1.sol\":1959:1964  users */\n      0x01\n        /* \"contracts/Test1.sol\":1959:1971  users.length */\n      dup1\n      sload\n      swap1\n      pop\n        /* \"contracts/Test1.sol\":1955:1956  i */\n      dup2\n        /* \"contracts/Test1.sol\":1955:1971  i < users.length */\n      lt\n        /* \"contracts/Test1.sol\":1939:2099  for(uint i = 0; i < users.length; i++){... */\n      iszero\n      tag_97\n      jumpi\n        /* \"contracts/Test1.sol\":2020:2033  walletAddress */\n      dup3\n        /* \"contracts/Test1.sol\":1994:2033  users[i].walletAddress == walletAddress */\n      0xffffffffffffffffffffffffffffffffffffffff\n      and\n        /* \"contracts/Test1.sol\":1994:1999  users */\n      0x01\n        /* \"contracts/Test1.sol\":2000:2001  i */\n      dup3\n        /* \"contracts/Test1.sol\":1994:2002  users[i] */\n      dup2\n      sload\n      dup2\n      lt\n      tag_99\n      jumpi\n      tag_100\n      tag_80\n      jump\t// in\n    tag_100:\n    tag_99:\n      swap1\n      0x00\n      mstore\n      keccak256(0x00, 0x20)\n      swap1\n      0x04\n      mul\n      add\n        /* \"contracts/Test1.sol\":1994:2016  users[i].walletAddress */\n      0x00\n      add\n      0x00\n      swap1\n      sload\n      swap1\n      0x0100\n      exp\n      swap1\n      div\n      0xffffffffffffffffffffffffffffffffffffffff\n      and\n        /* \"contracts/Test1.sol\":1994:2033  users[i].walletAddress == walletAddress */\n      0xffffffffffffffffffffffffffffffffffffffff\n      and\n      eq\n        /* \"contracts/Test1.sol\":1991:2089  if(users[i].walletAddress == walletAddress){... */\n      iszero\n      tag_102\n      jumpi\n        /* \"contracts/Test1.sol\":2059:2064  users */\n      0x01\n        /* \"contracts/Test1.sol\":2065:2066  i */\n      dup2\n        /* \"contracts/Test1.sol\":2059:2067  users[i] */\n      dup2\n      sload\n      dup2\n      lt\n      tag_103\n      jumpi\n      tag_104\n      tag_80\n      jump\t// in\n    tag_104:\n    tag_103:\n      swap1\n      0x00\n      mstore\n      keccak256(0x00, 0x20)\n      swap1\n      0x04\n      mul\n      add\n        /* \"contracts/Test1.sol\":2059:2074  users[i].amount */\n      0x02\n      add\n      sload\n        /* \"contracts/Test1.sol\":2052:2074  return users[i].amount */\n      swap2\n      pop\n      pop\n      jump(tag_95)\n        /* \"contracts/Test1.sol\":1991:2089  if(users[i].walletAddress == walletAddress){... */\n    tag_102:\n        /* \"contracts/Test1.sol\":1973:1976  i++ */\n      dup1\n      dup1\n      tag_106\n      swap1\n      tag_92\n      jump\t// in\n    tag_106:\n      swap2\n      pop\n      pop\n        /* \"contracts/Test1.sol\":1939:2099  for(uint i = 0; i < users.length; i++){... */\n      jump(tag_96)\n    tag_97:\n      pop\n        /* \"contracts/Test1.sol\":2115:2118  999 */\n      0x03e7\n        /* \"contracts/Test1.sol\":2108:2118  return 999 */\n      swap1\n      pop\n        /* \"contracts/Test1.sol\":1862:2125  function balanceOf(address walletAddress) public view returns(uint){... */\n    tag_95:\n      swap2\n      swap1\n      pop\n      jump\t// out\n        /* \"contracts/Test1.sol\":1281:1421  function isInvestor(address walletAddress) public returns(bool){... */\n    tag_52:\n        /* \"contracts/Test1.sol\":1339:1343  bool */\n      0x00\n        /* \"contracts/Test1.sol\":1354:1370  User memory user */\n      dup1\n        /* \"contracts/Test1.sol\":1373:1404  getUserByAddress(walletAddress) */\n      tag_108\n        /* \"contracts/Test1.sol\":1390:1403  walletAddress */\n      dup4\n        /* \"contracts/Test1.sol\":1373:1389  getUserByAddress */\n      tag_35\n        /* \"contracts/Test1.sol\":1373:1404  getUserByAddress(walletAddress) */\n      jump\t// in\n    tag_108:\n        /* \"contracts/Test1.sol\":1354:1404  User memory user = getUserByAddress(walletAddress) */\n      swap1\n      pop\n        /* \"contracts/Test1.sol\":1344:1421  {... */\n      pop\n        /* \"contracts/Test1.sol\":1281:1421  function isInvestor(address walletAddress) public returns(bool){... */\n      swap2\n      swap1\n      pop\n      jump\t// out\n        /* \"contracts/Test1.sol\":1616:1856  function transferToAddress(address walletAddress) private {... */\n    tag_59:\n        /* \"contracts/Test1.sol\":1688:1694  uint i */\n      0x00\n        /* \"contracts/Test1.sol\":1684:1850  for(uint i = 0; i < users.length; i++){... */\n    tag_110:\n        /* \"contracts/Test1.sol\":1704:1709  users */\n      0x01\n        /* \"contracts/Test1.sol\":1704:1716  users.length */\n      dup1\n      sload\n      swap1\n      pop\n        /* \"contracts/Test1.sol\":1700:1701  i */\n      dup2\n        /* \"contracts/Test1.sol\":1700:1716  i < users.length */\n      lt\n        /* \"contracts/Test1.sol\":1684:1850  for(uint i = 0; i < users.length; i++){... */\n      iszero\n      tag_111\n      jumpi\n        /* \"contracts/Test1.sol\":1765:1778  walletAddress */\n      dup2\n        /* \"contracts/Test1.sol\":1739:1778  users[i].walletAddress == walletAddress */\n      0xffffffffffffffffffffffffffffffffffffffff\n      and\n        /* \"contracts/Test1.sol\":1739:1744  users */\n      0x01\n        /* \"contracts/Test1.sol\":1745:1746  i */\n      dup3\n        /* \"contracts/Test1.sol\":1739:1747  users[i] */\n      dup2\n      sload\n      dup2\n      lt\n      tag_113\n      jumpi\n      tag_114\n      tag_80\n      jump\t// in\n    tag_114:\n    tag_113:\n      swap1\n      0x00\n      mstore\n      keccak256(0x00, 0x20)\n      swap1\n      0x04\n      mul\n      add\n        /* \"contracts/Test1.sol\":1739:1761  users[i].walletAddress */\n      0x00\n      add\n      0x00\n      swap1\n      sload\n      swap1\n      0x0100\n      exp\n      swap1\n      div\n      0xffffffffffffffffffffffffffffffffffffffff\n      and\n        /* \"contracts/Test1.sol\":1739:1778  users[i].walletAddress == walletAddress */\n      0xffffffffffffffffffffffffffffffffffffffff\n      and\n      eq\n        /* \"contracts/Test1.sol\":1736:1840  if(users[i].walletAddress == walletAddress){... */\n      iszero\n      tag_116\n      jumpi\n        /* \"contracts/Test1.sol\":1816:1825  msg.value */\n      callvalue\n        /* \"contracts/Test1.sol\":1797:1802  users */\n      0x01\n        /* \"contracts/Test1.sol\":1803:1804  i */\n      dup3\n        /* \"contracts/Test1.sol\":1797:1805  users[i] */\n      dup2\n      sload\n      dup2\n      lt\n      tag_117\n      jumpi\n      tag_118\n      tag_80\n      jump\t// in\n    tag_118:\n    tag_117:\n      swap1\n      0x00\n      mstore\n      keccak256(0x00, 0x20)\n      swap1\n      0x04\n      mul\n      add\n        /* \"contracts/Test1.sol\":1797:1812  users[i].amount */\n      0x02\n      add\n      0x00\n        /* \"contracts/Test1.sol\":1797:1825  users[i].amount += msg.value */\n      dup3\n      dup3\n      sload\n      tag_120\n      swap2\n      swap1\n      tag_121\n      jump\t// in\n    tag_120:\n      swap3\n      pop\n      pop\n      dup2\n      swap1\n      sstore\n      pop\n        /* \"contracts/Test1.sol\":1736:1840  if(users[i].walletAddress == walletAddress){... */\n    tag_116:\n        /* \"contracts/Test1.sol\":1718:1721  i++ */\n      dup1\n      dup1\n      tag_122\n      swap1\n      tag_92\n      jump\t// in\n    tag_122:\n      swap2\n      pop\n      pop\n        /* \"contracts/Test1.sol\":1684:1850  for(uint i = 0; i < users.length; i++){... */\n      jump(tag_110)\n    tag_111:\n      pop\n        /* \"contracts/Test1.sol\":1616:1856  function transferToAddress(address walletAddress) private {... */\n      pop\n      jump\t// out\n    tag_63:\n      dup3\n      dup1\n      sload\n      tag_123\n      swap1\n      tag_67\n      jump\t// in\n    tag_123:\n      swap1\n      0x00\n      mstore\n      keccak256(0x00, 0x20)\n      swap1\n      0x1f\n      add\n      0x20\n      swap1\n      div\n      dup2\n      add\n      swap3\n      dup3\n      tag_125\n      jumpi\n      0x00\n      dup6\n      sstore\n      jump(tag_124)\n    tag_125:\n      dup3\n      0x1f\n      lt\n      tag_126\n      jumpi\n      dup1\n      mload\n      not(0xff)\n      and\n      dup4\n      dup1\n      add\n      or\n      dup6\n      sstore\n      jump(tag_124)\n    tag_126:\n      dup3\n      dup1\n      add\n      0x01\n      add\n      dup6\n      sstore\n      dup3\n      iszero\n      tag_124\n      jumpi\n      swap2\n      dup3\n      add\n    tag_127:\n      dup3\n      dup2\n      gt\n      iszero\n      tag_128\n      jumpi\n      dup3\n      mload\n      dup3\n      sstore\n      swap2\n      0x20\n      add\n      swap2\n      swap1\n      0x01\n      add\n      swap1\n      jump(tag_127)\n    tag_128:\n    tag_124:\n      pop\n      swap1\n      pop\n      tag_129\n      swap2\n      swap1\n      tag_130\n      jump\t// in\n    tag_129:\n      pop\n      swap1\n      jump\t// out\n    tag_73:\n      mload(0x40)\n      dup1\n      0x80\n      add\n      0x40\n      mstore\n      dup1\n      and(0xffffffffffffffffffffffffffffffffffffffff, 0x00)\n      dup2\n      mstore\n      0x20\n      add\n      0x60\n      dup2\n      mstore\n      0x20\n      add\n      0x00\n      dup2\n      mstore\n      0x20\n      add\n      iszero(iszero(0x00))\n      dup2\n      mstore\n      pop\n      swap1\n      jump\t// out\n    tag_130:\n    tag_131:\n      dup1\n      dup3\n      gt\n      iszero\n      tag_132\n      jumpi\n      0x00\n      dup2\n      0x00\n      swap1\n      sstore\n      pop\n      0x01\n      add\n      jump(tag_131)\n    tag_132:\n      pop\n      swap1\n      jump\t// out\n        /* \"#utility.yul\":7:419   */\n    tag_134:\n        /* \"#utility.yul\":85:90   */\n      0x00\n        /* \"#utility.yul\":110:176   */\n      tag_136\n        /* \"#utility.yul\":126:175   */\n      tag_137\n        /* \"#utility.yul\":168:174   */\n      dup5\n        /* \"#utility.yul\":126:175   */\n      tag_138\n      jump\t// in\n    tag_137:\n        /* \"#utility.yul\":110:176   */\n      tag_139\n      jump\t// in\n    tag_136:\n        /* \"#utility.yul\":101:176   */\n      swap1\n      pop\n        /* \"#utility.yul\":199:205   */\n      dup3\n        /* \"#utility.yul\":192:197   */\n      dup2\n        /* \"#utility.yul\":185:206   */\n      mstore\n        /* \"#utility.yul\":237:241   */\n      0x20\n        /* \"#utility.yul\":230:235   */\n      dup2\n        /* \"#utility.yul\":226:242   */\n      add\n        /* \"#utility.yul\":275:278   */\n      dup5\n        /* \"#utility.yul\":266:272   */\n      dup5\n        /* \"#utility.yul\":261:264   */\n      dup5\n        /* \"#utility.yul\":257:273   */\n      add\n        /* \"#utility.yul\":254:279   */\n      gt\n        /* \"#utility.yul\":251:363   */\n      iszero\n      tag_140\n      jumpi\n        /* \"#utility.yul\":282:361   */\n      tag_141\n      tag_142\n      jump\t// in\n    tag_141:\n        /* \"#utility.yul\":251:363   */\n    tag_140:\n        /* \"#utility.yul\":372:413   */\n      tag_143\n        /* \"#utility.yul\":406:412   */\n      dup5\n        /* \"#utility.yul\":401:404   */\n      dup3\n        /* \"#utility.yul\":396:399   */\n      dup6\n        /* \"#utility.yul\":372:413   */\n      tag_144\n      jump\t// in\n    tag_143:\n        /* \"#utility.yul\":91:419   */\n      pop\n        /* \"#utility.yul\":7:419   */\n      swap4\n      swap3\n      pop\n      pop\n      pop\n      jump\t// out\n        /* \"#utility.yul\":425:564   */\n    tag_145:\n        /* \"#utility.yul\":471:476   */\n      0x00\n        /* \"#utility.yul\":509:515   */\n      dup2\n        /* \"#utility.yul\":496:516   */\n      calldataload\n        /* \"#utility.yul\":487:516   */\n      swap1\n      pop\n        /* \"#utility.yul\":525:558   */\n      tag_147\n        /* \"#utility.yul\":552:557   */\n      dup2\n        /* \"#utility.yul\":525:558   */\n      tag_148\n      jump\t// in\n    tag_147:\n        /* \"#utility.yul\":425:564   */\n      swap3\n      swap2\n      pop\n      pop\n      jump\t// out\n        /* \"#utility.yul\":570:703   */\n    tag_149:\n        /* \"#utility.yul\":613:618   */\n      0x00\n        /* \"#utility.yul\":651:657   */\n      dup2\n        /* \"#utility.yul\":638:658   */\n      calldataload\n        /* \"#utility.yul\":629:658   */\n      swap1\n      pop\n        /* \"#utility.yul\":667:697   */\n      tag_151\n        /* \"#utility.yul\":691:696   */\n      dup2\n        /* \"#utility.yul\":667:697   */\n      tag_152\n      jump\t// in\n    tag_151:\n        /* \"#utility.yul\":570:703   */\n      swap3\n      swap2\n      pop\n      pop\n      jump\t// out\n        /* \"#utility.yul\":723:1063   */\n    tag_153:\n        /* \"#utility.yul\":779:784   */\n      0x00\n        /* \"#utility.yul\":828:831   */\n      dup3\n        /* \"#utility.yul\":821:825   */\n      0x1f\n        /* \"#utility.yul\":813:819   */\n      dup4\n        /* \"#utility.yul\":809:826   */\n      add\n        /* \"#utility.yul\":805:832   */\n      slt\n        /* \"#utility.yul\":795:917   */\n      tag_155\n      jumpi\n        /* \"#utility.yul\":836:915   */\n      tag_156\n      tag_157\n      jump\t// in\n    tag_156:\n        /* \"#utility.yul\":795:917   */\n    tag_155:\n        /* \"#utility.yul\":953:959   */\n      dup2\n        /* \"#utility.yul\":940:960   */\n      calldataload\n        /* \"#utility.yul\":978:1057   */\n      tag_158\n        /* \"#utility.yul\":1053:1056   */\n      dup5\n        /* \"#utility.yul\":1045:1051   */\n      dup3\n        /* \"#utility.yul\":1038:1042   */\n      0x20\n        /* \"#utility.yul\":1030:1036   */\n      dup7\n        /* \"#utility.yul\":1026:1043   */\n      add\n        /* \"#utility.yul\":978:1057   */\n      tag_134\n      jump\t// in\n    tag_158:\n        /* \"#utility.yul\":969:1057   */\n      swap2\n      pop\n        /* \"#utility.yul\":785:1063   */\n      pop\n        /* \"#utility.yul\":723:1063   */\n      swap3\n      swap2\n      pop\n      pop\n      jump\t// out\n        /* \"#utility.yul\":1069:1208   */\n    tag_159:\n        /* \"#utility.yul\":1115:1120   */\n      0x00\n        /* \"#utility.yul\":1153:1159   */\n      dup2\n        /* \"#utility.yul\":1140:1160   */\n      calldataload\n        /* \"#utility.yul\":1131:1160   */\n      swap1\n      pop\n        /* \"#utility.yul\":1169:1202   */\n      tag_161\n        /* \"#utility.yul\":1196:1201   */\n      dup2\n        /* \"#utility.yul\":1169:1202   */\n      tag_162\n      jump\t// in\n    tag_161:\n        /* \"#utility.yul\":1069:1208   */\n      swap3\n      swap2\n      pop\n      pop\n      jump\t// out\n        /* \"#utility.yul\":1214:1543   */\n    tag_18:\n        /* \"#utility.yul\":1273:1279   */\n      0x00\n        /* \"#utility.yul\":1322:1324   */\n      0x20\n        /* \"#utility.yul\":1310:1319   */\n      dup3\n        /* \"#utility.yul\":1301:1308   */\n      dup5\n        /* \"#utility.yul\":1297:1320   */\n      sub\n        /* \"#utility.yul\":1293:1325   */\n      slt\n        /* \"#utility.yul\":1290:1409   */\n      iszero\n      tag_164\n      jumpi\n        /* \"#utility.yul\":1328:1407   */\n      tag_165\n      tag_166\n      jump\t// in\n    tag_165:\n        /* \"#utility.yul\":1290:1409   */\n    tag_164:\n        /* \"#utility.yul\":1448:1449   */\n      0x00\n        /* \"#utility.yul\":1473:1526   */\n      tag_167\n        /* \"#utility.yul\":1518:1525   */\n      dup5\n        /* \"#utility.yul\":1509:1515   */\n      dup3\n        /* \"#utility.yul\":1498:1507   */\n      dup6\n        /* \"#utility.yul\":1494:1516   */\n      add\n        /* \"#utility.yul\":1473:1526   */\n      tag_145\n      jump\t// in\n    tag_167:\n        /* \"#utility.yul\":1463:1526   */\n      swap2\n      pop\n        /* \"#utility.yul\":1419:1536   */\n      pop\n        /* \"#utility.yul\":1214:1543   */\n      swap3\n      swap2\n      pop\n      pop\n      jump\t// out\n        /* \"#utility.yul\":1549:2488   */\n    tag_23:\n        /* \"#utility.yul\":1642:1648   */\n      0x00\n        /* \"#utility.yul\":1650:1656   */\n      dup1\n        /* \"#utility.yul\":1658:1664   */\n      0x00\n        /* \"#utility.yul\":1666:1672   */\n      dup1\n        /* \"#utility.yul\":1715:1718   */\n      0x80\n        /* \"#utility.yul\":1703:1712   */\n      dup6\n        /* \"#utility.yul\":1694:1701   */\n      dup8\n        /* \"#utility.yul\":1690:1713   */\n      sub\n        /* \"#utility.yul\":1686:1719   */\n      slt\n        /* \"#utility.yul\":1683:1803   */\n      iszero\n      tag_169\n      jumpi\n        /* \"#utility.yul\":1722:1801   */\n      tag_170\n      tag_166\n      jump\t// in\n    tag_170:\n        /* \"#utility.yul\":1683:1803   */\n    tag_169:\n        /* \"#utility.yul\":1842:1843   */\n      0x00\n        /* \"#utility.yul\":1867:1920   */\n      tag_171\n        /* \"#utility.yul\":1912:1919   */\n      dup8\n        /* \"#utility.yul\":1903:1909   */\n      dup3\n        /* \"#utility.yul\":1892:1901   */\n      dup9\n        /* \"#utility.yul\":1888:1910   */\n      add\n        /* \"#utility.yul\":1867:1920   */\n      tag_145\n      jump\t// in\n    tag_171:\n        /* \"#utility.yul\":1857:1920   */\n      swap5\n      pop\n        /* \"#utility.yul\":1813:1930   */\n      pop\n        /* \"#utility.yul\":1997:1999   */\n      0x20\n        /* \"#utility.yul\":1986:1995   */\n      dup6\n        /* \"#utility.yul\":1982:2000   */\n      add\n        /* \"#utility.yul\":1969:2001   */\n      calldataload\n        /* \"#utility.yul\":2028:2046   */\n      0xffffffffffffffff\n        /* \"#utility.yul\":2020:2026   */\n      dup2\n        /* \"#utility.yul\":2017:2047   */\n      gt\n        /* \"#utility.yul\":2014:2131   */\n      iszero\n      tag_172\n      jumpi\n        /* \"#utility.yul\":2050:2129   */\n      tag_173\n      tag_174\n      jump\t// in\n    tag_173:\n        /* \"#utility.yul\":2014:2131   */\n    tag_172:\n        /* \"#utility.yul\":2155:2218   */\n      tag_175\n        /* \"#utility.yul\":2210:2217   */\n      dup8\n        /* \"#utility.yul\":2201:2207   */\n      dup3\n        /* \"#utility.yul\":2190:2199   */\n      dup9\n        /* \"#utility.yul\":2186:2208   */\n      add\n        /* \"#utility.yul\":2155:2218   */\n      tag_153\n      jump\t// in\n    tag_175:\n        /* \"#utility.yul\":2145:2218   */\n      swap4\n      pop\n        /* \"#utility.yul\":1940:2228   */\n      pop\n        /* \"#utility.yul\":2267:2269   */\n      0x40\n        /* \"#utility.yul\":2293:2346   */\n      tag_176\n        /* \"#utility.yul\":2338:2345   */\n      dup8\n        /* \"#utility.yul\":2329:2335   */\n      dup3\n        /* \"#utility.yul\":2318:2327   */\n      dup9\n        /* \"#utility.yul\":2314:2336   */\n      add\n        /* \"#utility.yul\":2293:2346   */\n      tag_159\n      jump\t// in\n    tag_176:\n        /* \"#utility.yul\":2283:2346   */\n      swap3\n      pop\n        /* \"#utility.yul\":2238:2356   */\n      pop\n        /* \"#utility.yul\":2395:2397   */\n      0x60\n        /* \"#utility.yul\":2421:2471   */\n      tag_177\n        /* \"#utility.yul\":2463:2470   */\n      dup8\n        /* \"#utility.yul\":2454:2460   */\n      dup3\n        /* \"#utility.yul\":2443:2452   */\n      dup9\n        /* \"#utility.yul\":2439:2461   */\n      add\n        /* \"#utility.yul\":2421:2471   */\n      tag_149\n      jump\t// in\n    tag_177:\n        /* \"#utility.yul\":2411:2471   */\n      swap2\n      pop\n        /* \"#utility.yul\":2366:2481   */\n      pop\n        /* \"#utility.yul\":1549:2488   */\n      swap3\n      swap6\n      swap2\n      swap5\n      pop\n      swap3\n      pop\n      jump\t// out\n        /* \"#utility.yul\":2494:2968   */\n    tag_14:\n        /* \"#utility.yul\":2562:2568   */\n      0x00\n        /* \"#utility.yul\":2570:2576   */\n      dup1\n        /* \"#utility.yul\":2619:2621   */\n      0x40\n        /* \"#utility.yul\":2607:2616   */\n      dup4\n        /* \"#utility.yul\":2598:2605   */\n      dup6\n        /* \"#utility.yul\":2594:2617   */\n      sub\n        /* \"#utility.yul\":2590:2622   */\n      slt\n        /* \"#utility.yul\":2587:2706   */\n      iszero\n      tag_179\n      jumpi\n        /* \"#utility.yul\":2625:2704   */\n      tag_180\n      tag_166\n      jump\t// in\n    tag_180:\n        /* \"#utility.yul\":2587:2706   */\n    tag_179:\n        /* \"#utility.yul\":2745:2746   */\n      0x00\n        /* \"#utility.yul\":2770:2823   */\n      tag_181\n        /* \"#utility.yul\":2815:2822   */\n      dup6\n        /* \"#utility.yul\":2806:2812   */\n      dup3\n        /* \"#utility.yul\":2795:2804   */\n      dup7\n        /* \"#utility.yul\":2791:2813   */\n      add\n        /* \"#utility.yul\":2770:2823   */\n      tag_145\n      jump\t// in\n    tag_181:\n        /* \"#utility.yul\":2760:2823   */\n      swap3\n      pop\n        /* \"#utility.yul\":2716:2833   */\n      pop\n        /* \"#utility.yul\":2872:2874   */\n      0x20\n        /* \"#utility.yul\":2898:2951   */\n      tag_182\n        /* \"#utility.yul\":2943:2950   */\n      dup6\n        /* \"#utility.yul\":2934:2940   */\n      dup3\n        /* \"#utility.yul\":2923:2932   */\n      dup7\n        /* \"#utility.yul\":2919:2941   */\n      add\n        /* \"#utility.yul\":2898:2951   */\n      tag_159\n      jump\t// in\n    tag_182:\n        /* \"#utility.yul\":2888:2951   */\n      swap2\n      pop\n        /* \"#utility.yul\":2843:2961   */\n      pop\n        /* \"#utility.yul\":2494:2968   */\n      swap3\n      pop\n      swap3\n      swap1\n      pop\n      jump\t// out\n        /* \"#utility.yul\":2974:3303   */\n    tag_28:\n        /* \"#utility.yul\":3033:3039   */\n      0x00\n        /* \"#utility.yul\":3082:3084   */\n      0x20\n        /* \"#utility.yul\":3070:3079   */\n      dup3\n        /* \"#utility.yul\":3061:3068   */\n      dup5\n        /* \"#utility.yul\":3057:3080   */\n      sub\n        /* \"#utility.yul\":3053:3085   */\n      slt\n        /* \"#utility.yul\":3050:3169   */\n      iszero\n      tag_184\n      jumpi\n        /* \"#utility.yul\":3088:3167   */\n      tag_185\n      tag_166\n      jump\t// in\n    tag_185:\n        /* \"#utility.yul\":3050:3169   */\n    tag_184:\n        /* \"#utility.yul\":3208:3209   */\n      0x00\n        /* \"#utility.yul\":3233:3286   */\n      tag_186\n        /* \"#utility.yul\":3278:3285   */\n      dup5\n        /* \"#utility.yul\":3269:3275   */\n      dup3\n        /* \"#utility.yul\":3258:3267   */\n      dup6\n        /* \"#utility.yul\":3254:3276   */\n      add\n        /* \"#utility.yul\":3233:3286   */\n      tag_159\n      jump\t// in\n    tag_186:\n        /* \"#utility.yul\":3223:3286   */\n      swap2\n      pop\n        /* \"#utility.yul\":3179:3296   */\n      pop\n        /* \"#utility.yul\":2974:3303   */\n      swap3\n      swap2\n      pop\n      pop\n      jump\t// out\n        /* \"#utility.yul\":3309:3417   */\n    tag_187:\n        /* \"#utility.yul\":3386:3410   */\n      tag_189\n        /* \"#utility.yul\":3404:3409   */\n      dup2\n        /* \"#utility.yul\":3386:3410   */\n      tag_190\n      jump\t// in\n    tag_189:\n        /* \"#utility.yul\":3381:3384   */\n      dup3\n        /* \"#utility.yul\":3374:3411   */\n      mstore\n        /* \"#utility.yul\":3309:3417   */\n      pop\n      pop\n      jump\t// out\n        /* \"#utility.yul\":3423:3541   */\n    tag_191:\n        /* \"#utility.yul\":3510:3534   */\n      tag_193\n        /* \"#utility.yul\":3528:3533   */\n      dup2\n        /* \"#utility.yul\":3510:3534   */\n      tag_190\n      jump\t// in\n    tag_193:\n        /* \"#utility.yul\":3505:3508   */\n      dup3\n        /* \"#utility.yul\":3498:3535   */\n      mstore\n        /* \"#utility.yul\":3423:3541   */\n      pop\n      pop\n      jump\t// out\n        /* \"#utility.yul\":3547:3646   */\n    tag_194:\n        /* \"#utility.yul\":3618:3639   */\n      tag_196\n        /* \"#utility.yul\":3633:3638   */\n      dup2\n        /* \"#utility.yul\":3618:3639   */\n      tag_197\n      jump\t// in\n    tag_196:\n        /* \"#utility.yul\":3613:3616   */\n      dup3\n        /* \"#utility.yul\":3606:3640   */\n      mstore\n        /* \"#utility.yul\":3547:3646   */\n      pop\n      pop\n      jump\t// out\n        /* \"#utility.yul\":3652:3761   */\n    tag_198:\n        /* \"#utility.yul\":3733:3754   */\n      tag_200\n        /* \"#utility.yul\":3748:3753   */\n      dup2\n        /* \"#utility.yul\":3733:3754   */\n      tag_197\n      jump\t// in\n    tag_200:\n        /* \"#utility.yul\":3728:3731   */\n      dup3\n        /* \"#utility.yul\":3721:3755   */\n      mstore\n        /* \"#utility.yul\":3652:3761   */\n      pop\n      pop\n      jump\t// out\n        /* \"#utility.yul\":3767:4111   */\n    tag_201:\n        /* \"#utility.yul\":3845:3848   */\n      0x00\n        /* \"#utility.yul\":3873:3912   */\n      tag_203\n        /* \"#utility.yul\":3906:3911   */\n      dup3\n        /* \"#utility.yul\":3873:3912   */\n      tag_204\n      jump\t// in\n    tag_203:\n        /* \"#utility.yul\":3928:3989   */\n      tag_205\n        /* \"#utility.yul\":3982:3988   */\n      dup2\n        /* \"#utility.yul\":3977:3980   */\n      dup6\n        /* \"#utility.yul\":3928:3989   */\n      tag_206\n      jump\t// in\n    tag_205:\n        /* \"#utility.yul\":3921:3989   */\n      swap4\n      pop\n        /* \"#utility.yul\":3998:4050   */\n      tag_207\n        /* \"#utility.yul\":4043:4049   */\n      dup2\n        /* \"#utility.yul\":4038:4041   */\n      dup6\n        /* \"#utility.yul\":4031:4035   */\n      0x20\n        /* \"#utility.yul\":4024:4029   */\n      dup7\n        /* \"#utility.yul\":4020:4036   */\n      add\n        /* \"#utility.yul\":3998:4050   */\n      tag_208\n      jump\t// in\n    tag_207:\n        /* \"#utility.yul\":4075:4104   */\n      tag_209\n        /* \"#utility.yul\":4097:4103   */\n      dup2\n        /* \"#utility.yul\":4075:4104   */\n      tag_210\n      jump\t// in\n    tag_209:\n        /* \"#utility.yul\":4070:4073   */\n      dup5\n        /* \"#utility.yul\":4066:4105   */\n      add\n        /* \"#utility.yul\":4059:4105   */\n      swap2\n      pop\n        /* \"#utility.yul\":3849:4111   */\n      pop\n        /* \"#utility.yul\":3767:4111   */\n      swap3\n      swap2\n      pop\n      pop\n      jump\t// out\n        /* \"#utility.yul\":4117:4481   */\n    tag_211:\n        /* \"#utility.yul\":4205:4208   */\n      0x00\n        /* \"#utility.yul\":4233:4272   */\n      tag_213\n        /* \"#utility.yul\":4266:4271   */\n      dup3\n        /* \"#utility.yul\":4233:4272   */\n      tag_204\n      jump\t// in\n    tag_213:\n        /* \"#utility.yul\":4288:4359   */\n      tag_214\n        /* \"#utility.yul\":4352:4358   */\n      dup2\n        /* \"#utility.yul\":4347:4350   */\n      dup6\n        /* \"#utility.yul\":4288:4359   */\n      tag_215\n      jump\t// in\n    tag_214:\n        /* \"#utility.yul\":4281:4359   */\n      swap4\n      pop\n        /* \"#utility.yul\":4368:4420   */\n      tag_216\n        /* \"#utility.yul\":4413:4419   */\n      dup2\n        /* \"#utility.yul\":4408:4411   */\n      dup6\n        /* \"#utility.yul\":4401:4405   */\n      0x20\n        /* \"#utility.yul\":4394:4399   */\n      dup7\n        /* \"#utility.yul\":4390:4406   */\n      add\n        /* \"#utility.yul\":4368:4420   */\n      tag_208\n      jump\t// in\n    tag_216:\n        /* \"#utility.yul\":4445:4474   */\n      tag_217\n        /* \"#utility.yul\":4467:4473   */\n      dup2\n        /* \"#utility.yul\":4445:4474   */\n      tag_210\n      jump\t// in\n    tag_217:\n        /* \"#utility.yul\":4440:4443   */\n      dup5\n        /* \"#utility.yul\":4436:4475   */\n      add\n        /* \"#utility.yul\":4429:4475   */\n      swap2\n      pop\n        /* \"#utility.yul\":4209:4481   */\n      pop\n        /* \"#utility.yul\":4117:4481   */\n      swap3\n      swap2\n      pop\n      pop\n      jump\t// out\n        /* \"#utility.yul\":4487:4853   */\n    tag_218:\n        /* \"#utility.yul\":4629:4632   */\n      0x00\n        /* \"#utility.yul\":4650:4717   */\n      tag_220\n        /* \"#utility.yul\":4714:4716   */\n      0x16\n        /* \"#utility.yul\":4709:4712   */\n      dup4\n        /* \"#utility.yul\":4650:4717   */\n      tag_215\n      jump\t// in\n    tag_220:\n        /* \"#utility.yul\":4643:4717   */\n      swap2\n      pop\n        /* \"#utility.yul\":4726:4819   */\n      tag_221\n        /* \"#utility.yul\":4815:4818   */\n      dup3\n        /* \"#utility.yul\":4726:4819   */\n      tag_222\n      jump\t// in\n    tag_221:\n        /* \"#utility.yul\":4844:4846   */\n      0x20\n        /* \"#utility.yul\":4839:4842   */\n      dup3\n        /* \"#utility.yul\":4835:4847   */\n      add\n        /* \"#utility.yul\":4828:4847   */\n      swap1\n      pop\n        /* \"#utility.yul\":4487:4853   */\n      swap2\n      swap1\n      pop\n      jump\t// out\n        /* \"#utility.yul\":4905:5860   */\n    tag_223:\n        /* \"#utility.yul\":5014:5017   */\n      0x00\n        /* \"#utility.yul\":5050:5054   */\n      0x80\n        /* \"#utility.yul\":5045:5048   */\n      dup4\n        /* \"#utility.yul\":5041:5055   */\n      add\n        /* \"#utility.yul\":5146:5150   */\n      0x00\n        /* \"#utility.yul\":5139:5144   */\n      dup4\n        /* \"#utility.yul\":5135:5151   */\n      add\n        /* \"#utility.yul\":5129:5152   */\n      mload\n        /* \"#utility.yul\":5165:5228   */\n      tag_225\n        /* \"#utility.yul\":5222:5226   */\n      0x00\n        /* \"#utility.yul\":5217:5220   */\n      dup7\n        /* \"#utility.yul\":5213:5227   */\n      add\n        /* \"#utility.yul\":5199:5211   */\n      dup3\n        /* \"#utility.yul\":5165:5228   */\n      tag_187\n      jump\t// in\n    tag_225:\n        /* \"#utility.yul\":5065:5238   */\n      pop\n        /* \"#utility.yul\":5320:5324   */\n      0x20\n        /* \"#utility.yul\":5313:5318   */\n      dup4\n        /* \"#utility.yul\":5309:5325   */\n      add\n        /* \"#utility.yul\":5303:5326   */\n      mload\n        /* \"#utility.yul\":5373:5376   */\n      dup5\n        /* \"#utility.yul\":5367:5371   */\n      dup3\n        /* \"#utility.yul\":5363:5377   */\n      sub\n        /* \"#utility.yul\":5356:5360   */\n      0x20\n        /* \"#utility.yul\":5351:5354   */\n      dup7\n        /* \"#utility.yul\":5347:5361   */\n      add\n        /* \"#utility.yul\":5340:5378   */\n      mstore\n        /* \"#utility.yul\":5399:5472   */\n      tag_226\n        /* \"#utility.yul\":5467:5471   */\n      dup3\n        /* \"#utility.yul\":5453:5465   */\n      dup3\n        /* \"#utility.yul\":5399:5472   */\n      tag_201\n      jump\t// in\n    tag_226:\n        /* \"#utility.yul\":5391:5472   */\n      swap2\n      pop\n        /* \"#utility.yul\":5248:5483   */\n      pop\n        /* \"#utility.yul\":5567:5571   */\n      0x40\n        /* \"#utility.yul\":5560:5565   */\n      dup4\n        /* \"#utility.yul\":5556:5572   */\n      add\n        /* \"#utility.yul\":5550:5573   */\n      mload\n        /* \"#utility.yul\":5586:5649   */\n      tag_227\n        /* \"#utility.yul\":5643:5647   */\n      0x40\n        /* \"#utility.yul\":5638:5641   */\n      dup7\n        /* \"#utility.yul\":5634:5648   */\n      add\n        /* \"#utility.yul\":5620:5632   */\n      dup3\n        /* \"#utility.yul\":5586:5649   */\n      tag_228\n      jump\t// in\n    tag_227:\n        /* \"#utility.yul\":5493:5659   */\n      pop\n        /* \"#utility.yul\":5747:5751   */\n      0x60\n        /* \"#utility.yul\":5740:5745   */\n      dup4\n        /* \"#utility.yul\":5736:5752   */\n      add\n        /* \"#utility.yul\":5730:5753   */\n      mload\n        /* \"#utility.yul\":5766:5823   */\n      tag_229\n        /* \"#utility.yul\":5817:5821   */\n      0x60\n        /* \"#utility.yul\":5812:5815   */\n      dup7\n        /* \"#utility.yul\":5808:5822   */\n      add\n        /* \"#utility.yul\":5794:5806   */\n      dup3\n        /* \"#utility.yul\":5766:5823   */\n      tag_194\n      jump\t// in\n    tag_229:\n        /* \"#utility.yul\":5669:5833   */\n      pop\n        /* \"#utility.yul\":5850:5854   */\n      dup1\n        /* \"#utility.yul\":5843:5854   */\n      swap2\n      pop\n        /* \"#utility.yul\":5019:5860   */\n      pop\n        /* \"#utility.yul\":4905:5860   */\n      swap3\n      swap2\n      pop\n      pop\n      jump\t// out\n        /* \"#utility.yul\":5866:5974   */\n    tag_228:\n        /* \"#utility.yul\":5943:5967   */\n      tag_231\n        /* \"#utility.yul\":5961:5966   */\n      dup2\n        /* \"#utility.yul\":5943:5967   */\n      tag_232\n      jump\t// in\n    tag_231:\n        /* \"#utility.yul\":5938:5941   */\n      dup3\n        /* \"#utility.yul\":5931:5968   */\n      mstore\n        /* \"#utility.yul\":5866:5974   */\n      pop\n      pop\n      jump\t// out\n        /* \"#utility.yul\":5980:6098   */\n    tag_233:\n        /* \"#utility.yul\":6067:6091   */\n      tag_235\n        /* \"#utility.yul\":6085:6090   */\n      dup2\n        /* \"#utility.yul\":6067:6091   */\n      tag_232\n      jump\t// in\n    tag_235:\n        /* \"#utility.yul\":6062:6065   */\n      dup3\n        /* \"#utility.yul\":6055:6092   */\n      mstore\n        /* \"#utility.yul\":5980:6098   */\n      pop\n      pop\n      jump\t// out\n        /* \"#utility.yul\":6104:6736   */\n    tag_31:\n        /* \"#utility.yul\":6295:6299   */\n      0x00\n        /* \"#utility.yul\":6333:6336   */\n      0x80\n        /* \"#utility.yul\":6322:6331   */\n      dup3\n        /* \"#utility.yul\":6318:6337   */\n      add\n        /* \"#utility.yul\":6310:6337   */\n      swap1\n      pop\n        /* \"#utility.yul\":6347:6418   */\n      tag_237\n        /* \"#utility.yul\":6415:6416   */\n      0x00\n        /* \"#utility.yul\":6404:6413   */\n      dup4\n        /* \"#utility.yul\":6400:6417   */\n      add\n        /* \"#utility.yul\":6391:6397   */\n      dup8\n        /* \"#utility.yul\":6347:6418   */\n      tag_191\n      jump\t// in\n    tag_237:\n        /* \"#utility.yul\":6465:6474   */\n      dup2\n        /* \"#utility.yul\":6459:6463   */\n      dup2\n        /* \"#utility.yul\":6455:6475   */\n      sub\n        /* \"#utility.yul\":6450:6452   */\n      0x20\n        /* \"#utility.yul\":6439:6448   */\n      dup4\n        /* \"#utility.yul\":6435:6453   */\n      add\n        /* \"#utility.yul\":6428:6476   */\n      mstore\n        /* \"#utility.yul\":6493:6571   */\n      tag_238\n        /* \"#utility.yul\":6566:6570   */\n      dup2\n        /* \"#utility.yul\":6557:6563   */\n      dup7\n        /* \"#utility.yul\":6493:6571   */\n      tag_211\n      jump\t// in\n    tag_238:\n        /* \"#utility.yul\":6485:6571   */\n      swap1\n      pop\n        /* \"#utility.yul\":6581:6653   */\n      tag_239\n        /* \"#utility.yul\":6649:6651   */\n      0x40\n        /* \"#utility.yul\":6638:6647   */\n      dup4\n        /* \"#utility.yul\":6634:6652   */\n      add\n        /* \"#utility.yul\":6625:6631   */\n      dup6\n        /* \"#utility.yul\":6581:6653   */\n      tag_233\n      jump\t// in\n    tag_239:\n        /* \"#utility.yul\":6663:6729   */\n      tag_240\n        /* \"#utility.yul\":6725:6727   */\n      0x60\n        /* \"#utility.yul\":6714:6723   */\n      dup4\n        /* \"#utility.yul\":6710:6728   */\n      add\n        /* \"#utility.yul\":6701:6707   */\n      dup5\n        /* \"#utility.yul\":6663:6729   */\n      tag_198\n      jump\t// in\n    tag_240:\n        /* \"#utility.yul\":6104:6736   */\n      swap6\n      swap5\n      pop\n      pop\n      pop\n      pop\n      pop\n      jump\t// out\n        /* \"#utility.yul\":6742:6952   */\n    tag_54:\n        /* \"#utility.yul\":6829:6833   */\n      0x00\n        /* \"#utility.yul\":6867:6869   */\n      0x20\n        /* \"#utility.yul\":6856:6865   */\n      dup3\n        /* \"#utility.yul\":6852:6870   */\n      add\n        /* \"#utility.yul\":6844:6870   */\n      swap1\n      pop\n        /* \"#utility.yul\":6880:6945   */\n      tag_242\n        /* \"#utility.yul\":6942:6943   */\n      0x00\n        /* \"#utility.yul\":6931:6940   */\n      dup4\n        /* \"#utility.yul\":6927:6944   */\n      add\n        /* \"#utility.yul\":6918:6924   */\n      dup5\n        /* \"#utility.yul\":6880:6945   */\n      tag_198\n      jump\t// in\n    tag_242:\n        /* \"#utility.yul\":6742:6952   */\n      swap3\n      swap2\n      pop\n      pop\n      jump\t// out\n        /* \"#utility.yul\":6958:7377   */\n    tag_94:\n        /* \"#utility.yul\":7124:7128   */\n      0x00\n        /* \"#utility.yul\":7162:7164   */\n      0x20\n        /* \"#utility.yul\":7151:7160   */\n      dup3\n        /* \"#utility.yul\":7147:7165   */\n      add\n        /* \"#utility.yul\":7139:7165   */\n      swap1\n      pop\n        /* \"#utility.yul\":7211:7220   */\n      dup2\n        /* \"#utility.yul\":7205:7209   */\n      dup2\n        /* \"#utility.yul\":7201:7221   */\n      sub\n        /* \"#utility.yul\":7197:7198   */\n      0x00\n        /* \"#utility.yul\":7186:7195   */\n      dup4\n        /* \"#utility.yul\":7182:7199   */\n      add\n        /* \"#utility.yul\":7175:7222   */\n      mstore\n        /* \"#utility.yul\":7239:7370   */\n      tag_244\n        /* \"#utility.yul\":7365:7369   */\n      dup2\n        /* \"#utility.yul\":7239:7370   */\n      tag_218\n      jump\t// in\n    tag_244:\n        /* \"#utility.yul\":7231:7370   */\n      swap1\n      pop\n        /* \"#utility.yul\":6958:7377   */\n      swap2\n      swap1\n      pop\n      jump\t// out\n        /* \"#utility.yul\":7383:7736   */\n    tag_37:\n        /* \"#utility.yul\":7516:7520   */\n      0x00\n        /* \"#utility.yul\":7554:7556   */\n      0x20\n        /* \"#utility.yul\":7543:7552   */\n      dup3\n        /* \"#utility.yul\":7539:7557   */\n      add\n        /* \"#utility.yul\":7531:7557   */\n      swap1\n      pop\n        /* \"#utility.yul\":7603:7612   */\n      dup2\n        /* \"#utility.yul\":7597:7601   */\n      dup2\n        /* \"#utility.yul\":7593:7613   */\n      sub\n        /* \"#utility.yul\":7589:7590   */\n      0x00\n        /* \"#utility.yul\":7578:7587   */\n      dup4\n        /* \"#utility.yul\":7574:7591   */\n      add\n        /* \"#utility.yul\":7567:7614   */\n      mstore\n        /* \"#utility.yul\":7631:7729   */\n      tag_246\n        /* \"#utility.yul\":7724:7728   */\n      dup2\n        /* \"#utility.yul\":7715:7721   */\n      dup5\n        /* \"#utility.yul\":7631:7729   */\n      tag_223\n      jump\t// in\n    tag_246:\n        /* \"#utility.yul\":7623:7729   */\n      swap1\n      pop\n        /* \"#utility.yul\":7383:7736   */\n      swap3\n      swap2\n      pop\n      pop\n      jump\t// out\n        /* \"#utility.yul\":7742:7964   */\n    tag_43:\n        /* \"#utility.yul\":7835:7839   */\n      0x00\n        /* \"#utility.yul\":7873:7875   */\n      0x20\n        /* \"#utility.yul\":7862:7871   */\n      dup3\n        /* \"#utility.yul\":7858:7876   */\n      add\n        /* \"#utility.yul\":7850:7876   */\n      swap1\n      pop\n        /* \"#utility.yul\":7886:7957   */\n      tag_248\n        /* \"#utility.yul\":7954:7955   */\n      0x00\n        /* \"#utility.yul\":7943:7952   */\n      dup4\n        /* \"#utility.yul\":7939:7956   */\n      add\n        /* \"#utility.yul\":7930:7936   */\n      dup5\n        /* \"#utility.yul\":7886:7957   */\n      tag_233\n      jump\t// in\n    tag_248:\n        /* \"#utility.yul\":7742:7964   */\n      swap3\n      swap2\n      pop\n      pop\n      jump\t// out\n        /* \"#utility.yul\":7970:8099   */\n    tag_139:\n        /* \"#utility.yul\":8004:8010   */\n      0x00\n        /* \"#utility.yul\":8031:8051   */\n      tag_250\n      tag_251\n      jump\t// in\n    tag_250:\n        /* \"#utility.yul\":8021:8051   */\n      swap1\n      pop\n        /* \"#utility.yul\":8060:8093   */\n      tag_252\n        /* \"#utility.yul\":8088:8092   */\n      dup3\n        /* \"#utility.yul\":8080:8086   */\n      dup3\n        /* \"#utility.yul\":8060:8093   */\n      tag_253\n      jump\t// in\n    tag_252:\n        /* \"#utility.yul\":7970:8099   */\n      swap2\n      swap1\n      pop\n      jump\t// out\n        /* \"#utility.yul\":8105:8180   */\n    tag_251:\n        /* \"#utility.yul\":8138:8144   */\n      0x00\n        /* \"#utility.yul\":8171:8173   */\n      0x40\n        /* \"#utility.yul\":8165:8174   */\n      mload\n        /* \"#utility.yul\":8155:8174   */\n      swap1\n      pop\n        /* \"#utility.yul\":8105:8180   */\n      swap1\n      jump\t// out\n        /* \"#utility.yul\":8186:8494   */\n    tag_138:\n        /* \"#utility.yul\":8248:8252   */\n      0x00\n        /* \"#utility.yul\":8338:8356   */\n      0xffffffffffffffff\n        /* \"#utility.yul\":8330:8336   */\n      dup3\n        /* \"#utility.yul\":8327:8357   */\n      gt\n        /* \"#utility.yul\":8324:8380   */\n      iszero\n      tag_256\n      jumpi\n        /* \"#utility.yul\":8360:8378   */\n      tag_257\n      tag_258\n      jump\t// in\n    tag_257:\n        /* \"#utility.yul\":8324:8380   */\n    tag_256:\n        /* \"#utility.yul\":8398:8427   */\n      tag_259\n        /* \"#utility.yul\":8420:8426   */\n      dup3\n        /* \"#utility.yul\":8398:8427   */\n      tag_210\n      jump\t// in\n    tag_259:\n        /* \"#utility.yul\":8390:8427   */\n      swap1\n      pop\n        /* \"#utility.yul\":8482:8486   */\n      0x20\n        /* \"#utility.yul\":8476:8480   */\n      dup2\n        /* \"#utility.yul\":8472:8487   */\n      add\n        /* \"#utility.yul\":8464:8487   */\n      swap1\n      pop\n        /* \"#utility.yul\":8186:8494   */\n      swap2\n      swap1\n      pop\n      jump\t// out\n        /* \"#utility.yul\":8500:8599   */\n    tag_204:\n        /* \"#utility.yul\":8552:8558   */\n      0x00\n        /* \"#utility.yul\":8586:8591   */\n      dup2\n        /* \"#utility.yul\":8580:8592   */\n      mload\n        /* \"#utility.yul\":8570:8592   */\n      swap1\n      pop\n        /* \"#utility.yul\":8500:8599   */\n      swap2\n      swap1\n      pop\n      jump\t// out\n        /* \"#utility.yul\":8605:8764   */\n    tag_206:\n        /* \"#utility.yul\":8679:8690   */\n      0x00\n        /* \"#utility.yul\":8713:8719   */\n      dup3\n        /* \"#utility.yul\":8708:8711   */\n      dup3\n        /* \"#utility.yul\":8701:8720   */\n      mstore\n        /* \"#utility.yul\":8753:8757   */\n      0x20\n        /* \"#utility.yul\":8748:8751   */\n      dup3\n        /* \"#utility.yul\":8744:8758   */\n      add\n        /* \"#utility.yul\":8729:8758   */\n      swap1\n      pop\n        /* \"#utility.yul\":8605:8764   */\n      swap3\n      swap2\n      pop\n      pop\n      jump\t// out\n        /* \"#utility.yul\":8770:8939   */\n    tag_215:\n        /* \"#utility.yul\":8854:8865   */\n      0x00\n        /* \"#utility.yul\":8888:8894   */\n      dup3\n        /* \"#utility.yul\":8883:8886   */\n      dup3\n        /* \"#utility.yul\":8876:8895   */\n      mstore\n        /* \"#utility.yul\":8928:8932   */\n      0x20\n        /* \"#utility.yul\":8923:8926   */\n      dup3\n        /* \"#utility.yul\":8919:8933   */\n      add\n        /* \"#utility.yul\":8904:8933   */\n      swap1\n      pop\n        /* \"#utility.yul\":8770:8939   */\n      swap3\n      swap2\n      pop\n      pop\n      jump\t// out\n        /* \"#utility.yul\":8945:9250   */\n    tag_121:\n        /* \"#utility.yul\":8985:8988   */\n      0x00\n        /* \"#utility.yul\":9004:9024   */\n      tag_264\n        /* \"#utility.yul\":9022:9023   */\n      dup3\n        /* \"#utility.yul\":9004:9024   */\n      tag_232\n      jump\t// in\n    tag_264:\n        /* \"#utility.yul\":8999:9024   */\n      swap2\n      pop\n        /* \"#utility.yul\":9038:9058   */\n      tag_265\n        /* \"#utility.yul\":9056:9057   */\n      dup4\n        /* \"#utility.yul\":9038:9058   */\n      tag_232\n      jump\t// in\n    tag_265:\n        /* \"#utility.yul\":9033:9058   */\n      swap3\n      pop\n        /* \"#utility.yul\":9192:9193   */\n      dup3\n        /* \"#utility.yul\":9124:9190   */\n      0xffffffffffffffffffffffffffffffffffffffffffffffffffffffffffffffff\n        /* \"#utility.yul\":9120:9194   */\n      sub\n        /* \"#utility.yul\":9117:9118   */\n      dup3\n        /* \"#utility.yul\":9114:9195   */\n      gt\n        /* \"#utility.yul\":9111:9218   */\n      iszero\n      tag_266\n      jumpi\n        /* \"#utility.yul\":9198:9216   */\n      tag_267\n      tag_268\n      jump\t// in\n    tag_267:\n        /* \"#utility.yul\":9111:9218   */\n    tag_266:\n        /* \"#utility.yul\":9242:9243   */\n      dup3\n        /* \"#utility.yul\":9239:9240   */\n      dup3\n        /* \"#utility.yul\":9235:9244   */\n      add\n        /* \"#utility.yul\":9228:9244   */\n      swap1\n      pop\n        /* \"#utility.yul\":8945:9250   */\n      swap3\n      swap2\n      pop\n      pop\n      jump\t// out\n        /* \"#utility.yul\":9256:9352   */\n    tag_190:\n        /* \"#utility.yul\":9293:9300   */\n      0x00\n        /* \"#utility.yul\":9322:9346   */\n      tag_270\n        /* \"#utility.yul\":9340:9345   */\n      dup3\n        /* \"#utility.yul\":9322:9346   */\n      tag_271\n      jump\t// in\n    tag_270:\n        /* \"#utility.yul\":9311:9346   */\n      swap1\n      pop\n        /* \"#utility.yul\":9256:9352   */\n      swap2\n      swap1\n      pop\n      jump\t// out\n        /* \"#utility.yul\":9358:9448   */\n    tag_197:\n        /* \"#utility.yul\":9392:9399   */\n      0x00\n        /* \"#utility.yul\":9435:9440   */\n      dup2\n        /* \"#utility.yul\":9428:9441   */\n      iszero\n        /* \"#utility.yul\":9421:9442   */\n      iszero\n        /* \"#utility.yul\":9410:9442   */\n      swap1\n      pop\n        /* \"#utility.yul\":9358:9448   */\n      swap2\n      swap1\n      pop\n      jump\t// out\n        /* \"#utility.yul\":9454:9580   */\n    tag_271:\n        /* \"#utility.yul\":9491:9498   */\n      0x00\n        /* \"#utility.yul\":9531:9573   */\n      0xffffffffffffffffffffffffffffffffffffffff\n        /* \"#utility.yul\":9524:9529   */\n      dup3\n        /* \"#utility.yul\":9520:9574   */\n      and\n        /* \"#utility.yul\":9509:9574   */\n      swap1\n      pop\n        /* \"#utility.yul\":9454:9580   */\n      swap2\n      swap1\n      pop\n      jump\t// out\n        /* \"#utility.yul\":9586:9663   */\n    tag_232:\n        /* \"#utility.yul\":9623:9630   */\n      0x00\n        /* \"#utility.yul\":9652:9657   */\n      dup2\n        /* \"#utility.yul\":9641:9657   */\n      swap1\n      pop\n        /* \"#utility.yul\":9586:9663   */\n      swap2\n      swap1\n      pop\n      jump\t// out\n        /* \"#utility.yul\":9669:9823   */\n    tag_144:\n        /* \"#utility.yul\":9753:9759   */\n      dup3\n        /* \"#utility.yul\":9748:9751   */\n      dup2\n        /* \"#utility.yul\":9743:9746   */\n      dup4\n        /* \"#utility.yul\":9730:9760   */\n      calldatacopy\n        /* \"#utility.yul\":9815:9816   */\n      0x00\n        /* \"#utility.yul\":9806:9812   */\n      dup4\n        /* \"#utility.yul\":9801:9804   */\n      dup4\n        /* \"#utility.yul\":9797:9813   */\n      add\n        /* \"#utility.yul\":9790:9817   */\n      mstore\n        /* \"#utility.yul\":9669:9823   */\n      pop\n      pop\n      pop\n      jump\t// out\n        /* \"#utility.yul\":9829:10136   */\n    tag_208:\n        /* \"#utility.yul\":9897:9898   */\n      0x00\n        /* \"#utility.yul\":9907:10020   */\n    tag_277:\n        /* \"#utility.yul\":9921:9927   */\n      dup4\n        /* \"#utility.yul\":9918:9919   */\n      dup2\n        /* \"#utility.yul\":9915:9928   */\n      lt\n        /* \"#utility.yul\":9907:10020   */\n      iszero\n      tag_279\n      jumpi\n        /* \"#utility.yul\":10006:10007   */\n      dup1\n        /* \"#utility.yul\":10001:10004   */\n      dup3\n        /* \"#utility.yul\":9997:10008   */\n      add\n        /* \"#utility.yul\":9991:10009   */\n      mload\n        /* \"#utility.yul\":9987:9988   */\n      dup2\n        /* \"#utility.yul\":9982:9985   */\n      dup5\n        /* \"#utility.yul\":9978:9989   */\n      add\n        /* \"#utility.yul\":9971:10010   */\n      mstore\n        /* \"#utility.yul\":9943:9945   */\n      0x20\n        /* \"#utility.yul\":9940:9941   */\n      dup2\n        /* \"#utility.yul\":9936:9946   */\n      add\n        /* \"#utility.yul\":9931:9946   */\n      swap1\n      pop\n        /* \"#utility.yul\":9907:10020   */\n      jump(tag_277)\n    tag_279:\n        /* \"#utility.yul\":10038:10044   */\n      dup4\n        /* \"#utility.yul\":10035:10036   */\n      dup2\n        /* \"#utility.yul\":10032:10045   */\n      gt\n        /* \"#utility.yul\":10029:10130   */\n      iszero\n      tag_280\n      jumpi\n        /* \"#utility.yul\":10118:10119   */\n      0x00\n        /* \"#utility.yul\":10109:10115   */\n      dup5\n        /* \"#utility.yul\":10104:10107   */\n      dup5\n        /* \"#utility.yul\":10100:10116   */\n      add\n        /* \"#utility.yul\":10093:10120   */\n      mstore\n        /* \"#utility.yul\":10029:10130   */\n    tag_280:\n        /* \"#utility.yul\":9878:10136   */\n      pop\n        /* \"#utility.yul\":9829:10136   */\n      pop\n      pop\n      pop\n      jump\t// out\n        /* \"#utility.yul\":10142:10462   */\n    tag_67:\n        /* \"#utility.yul\":10186:10192   */\n      0x00\n        /* \"#utility.yul\":10223:10224   */\n      0x02\n        /* \"#utility.yul\":10217:10221   */\n      dup3\n        /* \"#utility.yul\":10213:10225   */\n      div\n        /* \"#utility.yul\":10203:10225   */\n      swap1\n      pop\n        /* \"#utility.yul\":10270:10271   */\n      0x01\n        /* \"#utility.yul\":10264:10268   */\n      dup3\n        /* \"#utility.yul\":10260:10272   */\n      and\n        /* \"#utility.yul\":10291:10309   */\n      dup1\n        /* \"#utility.yul\":10281:10362   */\n      tag_282\n      jumpi\n        /* \"#utility.yul\":10347:10351   */\n      0x7f\n        /* \"#utility.yul\":10339:10345   */\n      dup3\n        /* \"#utility.yul\":10335:10352   */\n      and\n        /* \"#utility.yul\":10325:10352   */\n      swap2\n      pop\n        /* \"#utility.yul\":10281:10362   */\n    tag_282:\n        /* \"#utility.yul\":10409:10411   */\n      0x20\n        /* \"#utility.yul\":10401:10407   */\n      dup3\n        /* \"#utility.yul\":10398:10412   */\n      lt\n        /* \"#utility.yul\":10378:10396   */\n      dup2\n        /* \"#utility.yul\":10375:10413   */\n      eq\n        /* \"#utility.yul\":10372:10456   */\n      iszero\n      tag_283\n      jumpi\n        /* \"#utility.yul\":10428:10446   */\n      tag_284\n      tag_285\n      jump\t// in\n    tag_284:\n        /* \"#utility.yul\":10372:10456   */\n    tag_283:\n        /* \"#utility.yul\":10193:10462   */\n      pop\n        /* \"#utility.yul\":10142:10462   */\n      swap2\n      swap1\n      pop\n      jump\t// out\n        /* \"#utility.yul\":10468:10749   */\n    tag_253:\n        /* \"#utility.yul\":10551:10578   */\n      tag_287\n        /* \"#utility.yul\":10573:10577   */\n      dup3\n        /* \"#utility.yul\":10551:10578   */\n      tag_210\n      jump\t// in\n    tag_287:\n        /* \"#utility.yul\":10543:10549   */\n      dup2\n        /* \"#utility.yul\":10539:10579   */\n      add\n        /* \"#utility.yul\":10681:10687   */\n      dup2\n        /* \"#utility.yul\":10669:10679   */\n      dup2\n        /* \"#utility.yul\":10666:10688   */\n      lt\n        /* \"#utility.yul\":10645:10663   */\n      0xffffffffffffffff\n        /* \"#utility.yul\":10633:10643   */\n      dup3\n        /* \"#utility.yul\":10630:10664   */\n      gt\n        /* \"#utility.yul\":10627:10689   */\n      or\n        /* \"#utility.yul\":10624:10712   */\n      iszero\n      tag_288\n      jumpi\n        /* \"#utility.yul\":10692:10710   */\n      tag_289\n      tag_258\n      jump\t// in\n    tag_289:\n        /* \"#utility.yul\":10624:10712   */\n    tag_288:\n        /* \"#utility.yul\":10732:10742   */\n      dup1\n        /* \"#utility.yul\":10728:10730   */\n      0x40\n        /* \"#utility.yul\":10721:10743   */\n      mstore\n        /* \"#utility.yul\":10511:10749   */\n      pop\n        /* \"#utility.yul\":10468:10749   */\n      pop\n      pop\n      jump\t// out\n        /* \"#utility.yul\":10755:10988   */\n    tag_92:\n        /* \"#utility.yul\":10794:10797   */\n      0x00\n        /* \"#utility.yul\":10817:10841   */\n      tag_291\n        /* \"#utility.yul\":10835:10840   */\n      dup3\n        /* \"#utility.yul\":10817:10841   */\n      tag_232\n      jump\t// in\n    tag_291:\n        /* \"#utility.yul\":10808:10841   */\n      swap2\n      pop\n        /* \"#utility.yul\":10863:10929   */\n      0xffffffffffffffffffffffffffffffffffffffffffffffffffffffffffffffff\n        /* \"#utility.yul\":10856:10861   */\n      dup3\n        /* \"#utility.yul\":10853:10930   */\n      eq\n        /* \"#utility.yul\":10850:10953   */\n      iszero\n      tag_292\n      jumpi\n        /* \"#utility.yul\":10933:10951   */\n      tag_293\n      tag_268\n      jump\t// in\n    tag_293:\n        /* \"#utility.yul\":10850:10953   */\n    tag_292:\n        /* \"#utility.yul\":10980:10981   */\n      0x01\n        /* \"#utility.yul\":10973:10978   */\n      dup3\n        /* \"#utility.yul\":10969:10982   */\n      add\n        /* \"#utility.yul\":10962:10982   */\n      swap1\n      pop\n        /* \"#utility.yul\":10755:10988   */\n      swap2\n      swap1\n      pop\n      jump\t// out\n        /* \"#utility.yul\":10994:11174   */\n    tag_268:\n        /* \"#utility.yul\":11042:11119   */\n      0x4e487b7100000000000000000000000000000000000000000000000000000000\n        /* \"#utility.yul\":11039:11040   */\n      0x00\n        /* \"#utility.yul\":11032:11120   */\n      mstore\n        /* \"#utility.yul\":11139:11143   */\n      0x11\n        /* \"#utility.yul\":11136:11137   */\n      0x04\n        /* \"#utility.yul\":11129:11144   */\n      mstore\n        /* \"#utility.yul\":11163:11167   */\n      0x24\n        /* \"#utility.yul\":11160:11161   */\n      0x00\n        /* \"#utility.yul\":11153:11168   */\n      revert\n        /* \"#utility.yul\":11180:11360   */\n    tag_285:\n        /* \"#utility.yul\":11228:11305   */\n      0x4e487b7100000000000000000000000000000000000000000000000000000000\n        /* \"#utility.yul\":11225:11226   */\n      0x00\n        /* \"#utility.yul\":11218:11306   */\n      mstore\n        /* \"#utility.yul\":11325:11329   */\n      0x22\n        /* \"#utility.yul\":11322:11323   */\n      0x04\n        /* \"#utility.yul\":11315:11330   */\n      mstore\n        /* \"#utility.yul\":11349:11353   */\n      0x24\n        /* \"#utility.yul\":11346:11347   */\n      0x00\n        /* \"#utility.yul\":11339:11354   */\n      revert\n        /* \"#utility.yul\":11366:11546   */\n    tag_80:\n        /* \"#utility.yul\":11414:11491   */\n      0x4e487b7100000000000000000000000000000000000000000000000000000000\n        /* \"#utility.yul\":11411:11412   */\n      0x00\n        /* \"#utility.yul\":11404:11492   */\n      mstore\n        /* \"#utility.yul\":11511:11515   */\n      0x32\n        /* \"#utility.yul\":11508:11509   */\n      0x04\n        /* \"#utility.yul\":11501:11516   */\n      mstore\n        /* \"#utility.yul\":11535:11539   */\n      0x24\n        /* \"#utility.yul\":11532:11533   */\n      0x00\n        /* \"#utility.yul\":11525:11540   */\n      revert\n        /* \"#utility.yul\":11552:11732   */\n    tag_258:\n        /* \"#utility.yul\":11600:11677   */\n      0x4e487b7100000000000000000000000000000000000000000000000000000000\n        /* \"#utility.yul\":11597:11598   */\n      0x00\n        /* \"#utility.yul\":11590:11678   */\n      mstore\n        /* \"#utility.yul\":11697:11701   */\n      0x41\n        /* \"#utility.yul\":11694:11695   */\n      0x04\n        /* \"#utility.yul\":11687:11702   */\n      mstore\n        /* \"#utility.yul\":11721:11725   */\n      0x24\n        /* \"#utility.yul\":11718:11719   */\n      0x00\n        /* \"#utility.yul\":11711:11726   */\n      revert\n        /* \"#utility.yul\":11738:11855   */\n    tag_157:\n        /* \"#utility.yul\":11847:11848   */\n      0x00\n        /* \"#utility.yul\":11844:11845   */\n      dup1\n        /* \"#utility.yul\":11837:11849   */\n      revert\n        /* \"#utility.yul\":11861:11978   */\n    tag_142:\n        /* \"#utility.yul\":11970:11971   */\n      0x00\n        /* \"#utility.yul\":11967:11968   */\n      dup1\n        /* \"#utility.yul\":11960:11972   */\n      revert\n        /* \"#utility.yul\":11984:12101   */\n    tag_174:\n        /* \"#utility.yul\":12093:12094   */\n      0x00\n        /* \"#utility.yul\":12090:12091   */\n      dup1\n        /* \"#utility.yul\":12083:12095   */\n      revert\n        /* \"#utility.yul\":12107:12224   */\n    tag_166:\n        /* \"#utility.yul\":12216:12217   */\n      0x00\n        /* \"#utility.yul\":12213:12214   */\n      dup1\n        /* \"#utility.yul\":12206:12218   */\n      revert\n        /* \"#utility.yul\":12230:12332   */\n    tag_210:\n        /* \"#utility.yul\":12271:12277   */\n      0x00\n        /* \"#utility.yul\":12322:12324   */\n      0x1f\n        /* \"#utility.yul\":12318:12325   */\n      not\n        /* \"#utility.yul\":12313:12315   */\n      0x1f\n        /* \"#utility.yul\":12306:12311   */\n      dup4\n        /* \"#utility.yul\":12302:12316   */\n      add\n        /* \"#utility.yul\":12298:12326   */\n      and\n        /* \"#utility.yul\":12288:12326   */\n      swap1\n      pop\n        /* \"#utility.yul\":12230:12332   */\n      swap2\n      swap1\n      pop\n      jump\t// out\n        /* \"#utility.yul\":12338:12510   */\n    tag_222:\n        /* \"#utility.yul\":12478:12502   */\n      0x496e76616c69642057616c6c6574204164647265737300000000000000000000\n        /* \"#utility.yul\":12474:12475   */\n      0x00\n        /* \"#utility.yul\":12466:12472   */\n      dup3\n        /* \"#utility.yul\":12462:12476   */\n      add\n        /* \"#utility.yul\":12455:12503   */\n      mstore\n        /* \"#utility.yul\":12338:12510   */\n      pop\n      jump\t// out\n        /* \"#utility.yul\":12516:12638   */\n    tag_148:\n        /* \"#utility.yul\":12589:12613   */\n      tag_305\n        /* \"#utility.yul\":12607:12612   */\n      dup2\n        /* \"#utility.yul\":12589:12613   */\n      tag_190\n      jump\t// in\n    tag_305:\n        /* \"#utility.yul\":12582:12587   */\n      dup2\n        /* \"#utility.yul\":12579:12614   */\n      eq\n        /* \"#utility.yul\":12569:12632   */\n      tag_306\n      jumpi\n        /* \"#utility.yul\":12628:12629   */\n      0x00\n        /* \"#utility.yul\":12625:12626   */\n      dup1\n        /* \"#utility.yul\":12618:12630   */\n      revert\n        /* \"#utility.yul\":12569:12632   */\n    tag_306:\n        /* \"#utility.yul\":12516:12638   */\n      pop\n      jump\t// out\n        /* \"#utility.yul\":12644:12760   */\n    tag_152:\n        /* \"#utility.yul\":12714:12735   */\n      tag_308\n        /* \"#utility.yul\":12729:12734   */\n      dup2\n        /* \"#utility.yul\":12714:12735   */\n      tag_197\n      jump\t// in\n    tag_308:\n        /* \"#utility.yul\":12707:12712   */\n      dup2\n        /* \"#utility.yul\":12704:12736   */\n      eq\n        /* \"#utility.yul\":12694:12754   */\n      tag_309\n      jumpi\n        /* \"#utility.yul\":12750:12751   */\n      0x00\n        /* \"#utility.yul\":12747:12748   */\n      dup1\n        /* \"#utility.yul\":12740:12752   */\n      revert\n        /* \"#utility.yul\":12694:12754   */\n    tag_309:\n        /* \"#utility.yul\":12644:12760   */\n      pop\n      jump\t// out\n        /* \"#utility.yul\":12766:12888   */\n    tag_162:\n        /* \"#utility.yul\":12839:12863   */\n      tag_311\n        /* \"#utility.yul\":12857:12862   */\n      dup2\n        /* \"#utility.yul\":12839:12863   */\n      tag_232\n      jump\t// in\n    tag_311:\n        /* \"#utility.yul\":12832:12837   */\n      dup2\n        /* \"#utility.yul\":12829:12864   */\n      eq\n        /* \"#utility.yul\":12819:12882   */\n      tag_312\n      jumpi\n        /* \"#utility.yul\":12878:12879   */\n      0x00\n        /* \"#utility.yul\":12875:12876   */\n      dup1\n        /* \"#utility.yul\":12868:12880   */\n      revert\n        /* \"#utility.yul\":12819:12882   */\n    tag_312:\n        /* \"#utility.yul\":12766:12888   */\n      pop\n      jump\t// out\n\n    auxdata: 0xa2646970667358221220241c619133dfd984201c83e1a7c3519b278a44b0e87bfe228525850a673ab5b964736f6c63430008070033\n}\n",
				"bytecode": {
					"linkReferences": {},
					"object": "608060405234801561001057600080fd5b50336000806101000a81548173ffffffffffffffffffffffffffffffffffffffff021916908373ffffffffffffffffffffffffffffffffffffffff1602179055506110e2806100606000396000f3fe60806040526004361061007b5760003560e01c806369c212f61161004e57806369c212f61461012e5780636f7bc9be1461016b57806370a08231146101a8578063cee2a9cf146101e55761007b565b80630b1019f0146100805780631a695230146100a9578063280879e7146100c5578063365b98b2146100ee575b600080fd5b34801561008c57600080fd5b506100a760048036038101906100a29190610acb565b610222565b005b6100c360048036038101906100be9190610a1b565b610283565b005b3480156100d157600080fd5b506100ec60048036038101906100e79190610a48565b61028f565b005b3480156100fa57600080fd5b5061011560048036038101906101109190610b0b565b610389565b6040516101259493929190610c8a565b60405180910390f35b34801561013a57600080fd5b5061015560048036038101906101509190610a1b565b61047e565b6040516101629190610d11565b60405180910390f35b34801561017757600080fd5b50610192600480360381019061018d9190610a1b565b6106a5565b60405161019f9190610d33565b60405180910390f35b3480156101b457600080fd5b506101cf60048036038101906101ca9190610a1b565b6106bd565b6040516101dc9190610d33565b60405180910390f35b3480156101f157600080fd5b5061020c60048036038101906102079190610a1b565b610798565b6040516102199190610cd6565b60405180910390f35b80600260008473ffffffffffffffffffffffffffffffffffffffff1673ffffffffffffffffffffffffffffffffffffffff1681526020019081526020016000208190555060006102718361047e565b90506001151581606001515050505050565b61028c816107ac565b50565b600160405180608001604052808673ffffffffffffffffffffffffffffffffffffffff168152602001858152602001848152602001831515815250908060018154018082558091505060019003906000526020600020906004020160009091909190915060008201518160000160006101000a81548173ffffffffffffffffffffffffffffffffffffffff021916908373ffffffffffffffffffffffffffffffffffffffff1602179055506020820151816001019080519060200190610356929190610889565b506040820151816002015560608201518160030160006101000a81548160ff021916908315150217905550505050505050565b6001818154811061039957600080fd5b90600052602060002090600402016000915090508060000160009054906101000a900473ffffffffffffffffffffffffffffffffffffffff16908060010180546103e290610eb1565b80601f016020809104026020016040519081016040528092919081815260200182805461040e90610eb1565b801561045b5780601f106104305761010080835404028352916020019161045b565b820191906000526020600020905b81548152906001019060200180831161043e57829003601f168201915b5050505050908060020154908060030160009054906101000a900460ff16905084565b61048661090f565b60005b600180549050811015610664578273ffffffffffffffffffffffffffffffffffffffff16600182815481106104c1576104c0610fbb565b5b906000526020600020906004020160000160009054906101000a900473ffffffffffffffffffffffffffffffffffffffff1673ffffffffffffffffffffffffffffffffffffffff161415610651576001818154811061052357610522610fbb565b5b90600052602060002090600402016040518060800160405290816000820160009054906101000a900473ffffffffffffffffffffffffffffffffffffffff1673ffffffffffffffffffffffffffffffffffffffff1673ffffffffffffffffffffffffffffffffffffffff1681526020016001820180546105a290610eb1565b80601f01602080910402602001604051908101604052809291908181526020018280546105ce90610eb1565b801561061b5780601f106105f05761010080835404028352916020019161061b565b820191906000526020600020905b8154815290600101906020018083116105fe57829003601f168201915b50505050508152602001600282015481526020016003820160009054906101000a900460ff1615151515815250509150506106a0565b808061065c90610f14565b915050610489565b506040517f08c379a000000000000000000000000000000000000000000000000000000000815260040161069790610cf1565b60405180910390fd5b919050565b60026020528060005260406000206000915090505481565b600080600090505b60018054905081101561078c578273ffffffffffffffffffffffffffffffffffffffff16600182815481106106fd576106fc610fbb565b5b906000526020600020906004020160000160009054906101000a900473ffffffffffffffffffffffffffffffffffffffff1673ffffffffffffffffffffffffffffffffffffffff161415610779576001818154811061075f5761075e610fbb565b5b906000526020600020906004020160020154915050610793565b808061078490610f14565b9150506106c5565b506103e790505b919050565b6000806107a48361047e565b905050919050565b60005b600180549050811015610885578173ffffffffffffffffffffffffffffffffffffffff16600182815481106107e7576107e6610fbb565b5b906000526020600020906004020160000160009054906101000a900473ffffffffffffffffffffffffffffffffffffffff1673ffffffffffffffffffffffffffffffffffffffff16141561087257346001828154811061084a57610849610fbb565b5b9060005260206000209060040201600201600082825461086a9190610dd1565b925050819055505b808061087d90610f14565b9150506107af565b5050565b82805461089590610eb1565b90600052602060002090601f0160209004810192826108b757600085556108fe565b82601f106108d057805160ff19168380011785556108fe565b828001600101855582156108fe579182015b828111156108fd5782518255916020019190600101906108e2565b5b50905061090b919061094f565b5090565b6040518060800160405280600073ffffffffffffffffffffffffffffffffffffffff16815260200160608152602001600081526020016000151581525090565b5b80821115610968576000816000905550600101610950565b5090565b600061097f61097a84610d73565b610d4e565b90508281526020810184848401111561099b5761099a61101e565b5b6109a6848285610e6f565b509392505050565b6000813590506109bd81611067565b92915050565b6000813590506109d28161107e565b92915050565b600082601f8301126109ed576109ec611019565b5b81356109fd84826020860161096c565b91505092915050565b600081359050610a1581611095565b92915050565b600060208284031215610a3157610a30611028565b5b6000610a3f848285016109ae565b91505092915050565b60008060008060808587031215610a6257610a61611028565b5b6000610a70878288016109ae565b945050602085013567ffffffffffffffff811115610a9157610a90611023565b5b610a9d878288016109d8565b9350506040610aae87828801610a06565b9250506060610abf878288016109c3565b91505092959194509250565b60008060408385031215610ae257610ae1611028565b5b6000610af0858286016109ae565b9250506020610b0185828601610a06565b9150509250929050565b600060208284031215610b2157610b20611028565b5b6000610b2f84828501610a06565b91505092915050565b610b4181610e27565b82525050565b610b5081610e27565b82525050565b610b5f81610e39565b82525050565b610b6e81610e39565b82525050565b6000610b7f82610da4565b610b898185610daf565b9350610b99818560208601610e7e565b610ba28161102d565b840191505092915050565b6000610bb882610da4565b610bc28185610dc0565b9350610bd2818560208601610e7e565b610bdb8161102d565b840191505092915050565b6000610bf3601683610dc0565b9150610bfe8261103e565b602082019050919050565b6000608083016000830151610c216000860182610b38565b5060208301518482036020860152610c398282610b74565b9150506040830151610c4e6040860182610c6c565b506060830151610c616060860182610b56565b508091505092915050565b610c7581610e65565b82525050565b610c8481610e65565b82525050565b6000608082019050610c9f6000830187610b47565b8181036020830152610cb18186610bad565b9050610cc06040830185610c7b565b610ccd6060830184610b65565b95945050505050565b6000602082019050610ceb6000830184610b65565b92915050565b60006020820190508181036000830152610d0a81610be6565b9050919050565b60006020820190508181036000830152610d2b8184610c09565b905092915050565b6000602082019050610d486000830184610c7b565b92915050565b6000610d58610d69565b9050610d648282610ee3565b919050565b6000604051905090565b600067ffffffffffffffff821115610d8e57610d8d610fea565b5b610d978261102d565b9050602081019050919050565b600081519050919050565b600082825260208201905092915050565b600082825260208201905092915050565b6000610ddc82610e65565b9150610de783610e65565b9250827fffffffffffffffffffffffffffffffffffffffffffffffffffffffffffffffff03821115610e1c57610e1b610f5d565b5b828201905092915050565b6000610e3282610e45565b9050919050565b60008115159050919050565b600073ffffffffffffffffffffffffffffffffffffffff82169050919050565b6000819050919050565b82818337600083830152505050565b60005b83811015610e9c578082015181840152602081019050610e81565b83811115610eab576000848401525b50505050565b60006002820490506001821680610ec957607f821691505b60208210811415610edd57610edc610f8c565b5b50919050565b610eec8261102d565b810181811067ffffffffffffffff82111715610f0b57610f0a610fea565b5b80604052505050565b6000610f1f82610e65565b91507fffffffffffffffffffffffffffffffffffffffffffffffffffffffffffffffff821415610f5257610f51610f5d565b5b600182019050919050565b7f4e487b7100000000000000000000000000000000000000000000000000000000600052601160045260246000fd5b7f4e487b7100000000000000000000000000000000000000000000000000000000600052602260045260246000fd5b7f4e487b7100000000000000000000000000000000000000000000000000000000600052603260045260246000fd5b7f4e487b7100000000000000000000000000000000000000000000000000000000600052604160045260246000fd5b600080fd5b600080fd5b600080fd5b600080fd5b6000601f19601f8301169050919050565b7f496e76616c69642057616c6c6574204164647265737300000000000000000000600082015250565b61107081610e27565b811461107b57600080fd5b50565b61108781610e39565b811461109257600080fd5b50565b61109e81610e65565b81146110a957600080fd5b5056fea2646970667358221220241c619133dfd984201c83e1a7c3519b278a44b0e87bfe228525850a673ab5b964736f6c63430008070033",
					"opcodes": "PUSH1 0x80 PUSH1 0x40 MSTORE CALLVALUE DUP1 ISZERO PUSH2 0x10 JUMPI PUSH1 0x0 DUP1 REVERT JUMPDEST POP CALLER PUSH1 0x0 DUP1 PUSH2 0x100 EXP DUP2 SLOAD DUP2 PUSH20 0xFFFFFFFFFFFFFFFFFFFFFFFFFFFFFFFFFFFFFFFF MUL NOT AND SWAP1 DUP4 PUSH20 0xFFFFFFFFFFFFFFFFFFFFFFFFFFFFFFFFFFFFFFFF AND MUL OR SWAP1 SSTORE POP PUSH2 0x10E2 DUP1 PUSH2 0x60 PUSH1 0x0 CODECOPY PUSH1 0x0 RETURN INVALID PUSH1 0x80 PUSH1 0x40 MSTORE PUSH1 0x4 CALLDATASIZE LT PUSH2 0x7B JUMPI PUSH1 0x0 CALLDATALOAD PUSH1 0xE0 SHR DUP1 PUSH4 0x69C212F6 GT PUSH2 0x4E JUMPI DUP1 PUSH4 0x69C212F6 EQ PUSH2 0x12E JUMPI DUP1 PUSH4 0x6F7BC9BE EQ PUSH2 0x16B JUMPI DUP1 PUSH4 0x70A08231 EQ PUSH2 0x1A8 JUMPI DUP1 PUSH4 0xCEE2A9CF EQ PUSH2 0x1E5 JUMPI PUSH2 0x7B JUMP JUMPDEST DUP1 PUSH4 0xB1019F0 EQ PUSH2 0x80 JUMPI DUP1 PUSH4 0x1A695230 EQ PUSH2 0xA9 JUMPI DUP1 PUSH4 0x280879E7 EQ PUSH2 0xC5 JUMPI DUP1 PUSH4 0x365B98B2 EQ PUSH2 0xEE JUMPI JUMPDEST PUSH1 0x0 DUP1 REVERT JUMPDEST CALLVALUE DUP1 ISZERO PUSH2 0x8C JUMPI PUSH1 0x0 DUP1 REVERT JUMPDEST POP PUSH2 0xA7 PUSH1 0x4 DUP1 CALLDATASIZE SUB DUP2 ADD SWAP1 PUSH2 0xA2 SWAP2 SWAP1 PUSH2 0xACB JUMP JUMPDEST PUSH2 0x222 JUMP JUMPDEST STOP JUMPDEST PUSH2 0xC3 PUSH1 0x4 DUP1 CALLDATASIZE SUB DUP2 ADD SWAP1 PUSH2 0xBE SWAP2 SWAP1 PUSH2 0xA1B JUMP JUMPDEST PUSH2 0x283 JUMP JUMPDEST STOP JUMPDEST CALLVALUE DUP1 ISZERO PUSH2 0xD1 JUMPI PUSH1 0x0 DUP1 REVERT JUMPDEST POP PUSH2 0xEC PUSH1 0x4 DUP1 CALLDATASIZE SUB DUP2 ADD SWAP1 PUSH2 0xE7 SWAP2 SWAP1 PUSH2 0xA48 JUMP JUMPDEST PUSH2 0x28F JUMP JUMPDEST STOP JUMPDEST CALLVALUE DUP1 ISZERO PUSH2 0xFA JUMPI PUSH1 0x0 DUP1 REVERT JUMPDEST POP PUSH2 0x115 PUSH1 0x4 DUP1 CALLDATASIZE SUB DUP2 ADD SWAP1 PUSH2 0x110 SWAP2 SWAP1 PUSH2 0xB0B JUMP JUMPDEST PUSH2 0x389 JUMP JUMPDEST PUSH1 0x40 MLOAD PUSH2 0x125 SWAP5 SWAP4 SWAP3 SWAP2 SWAP1 PUSH2 0xC8A JUMP JUMPDEST PUSH1 0x40 MLOAD DUP1 SWAP2 SUB SWAP1 RETURN JUMPDEST CALLVALUE DUP1 ISZERO PUSH2 0x13A JUMPI PUSH1 0x0 DUP1 REVERT JUMPDEST POP PUSH2 0x155 PUSH1 0x4 DUP1 CALLDATASIZE SUB DUP2 ADD SWAP1 PUSH2 0x150 SWAP2 SWAP1 PUSH2 0xA1B JUMP JUMPDEST PUSH2 0x47E JUMP JUMPDEST PUSH1 0x40 MLOAD PUSH2 0x162 SWAP2 SWAP1 PUSH2 0xD11 JUMP JUMPDEST PUSH1 0x40 MLOAD DUP1 SWAP2 SUB SWAP1 RETURN JUMPDEST CALLVALUE DUP1 ISZERO PUSH2 0x177 JUMPI PUSH1 0x0 DUP1 REVERT JUMPDEST POP PUSH2 0x192 PUSH1 0x4 DUP1 CALLDATASIZE SUB DUP2 ADD SWAP1 PUSH2 0x18D SWAP2 SWAP1 PUSH2 0xA1B JUMP JUMPDEST PUSH2 0x6A5 JUMP JUMPDEST PUSH1 0x40 MLOAD PUSH2 0x19F SWAP2 SWAP1 PUSH2 0xD33 JUMP JUMPDEST PUSH1 0x40 MLOAD DUP1 SWAP2 SUB SWAP1 RETURN JUMPDEST CALLVALUE DUP1 ISZERO PUSH2 0x1B4 JUMPI PUSH1 0x0 DUP1 REVERT JUMPDEST POP PUSH2 0x1CF PUSH1 0x4 DUP1 CALLDATASIZE SUB DUP2 ADD SWAP1 PUSH2 0x1CA SWAP2 SWAP1 PUSH2 0xA1B JUMP JUMPDEST PUSH2 0x6BD JUMP JUMPDEST PUSH1 0x40 MLOAD PUSH2 0x1DC SWAP2 SWAP1 PUSH2 0xD33 JUMP JUMPDEST PUSH1 0x40 MLOAD DUP1 SWAP2 SUB SWAP1 RETURN JUMPDEST CALLVALUE DUP1 ISZERO PUSH2 0x1F1 JUMPI PUSH1 0x0 DUP1 REVERT JUMPDEST POP PUSH2 0x20C PUSH1 0x4 DUP1 CALLDATASIZE SUB DUP2 ADD SWAP1 PUSH2 0x207 SWAP2 SWAP1 PUSH2 0xA1B JUMP JUMPDEST PUSH2 0x798 JUMP JUMPDEST PUSH1 0x40 MLOAD PUSH2 0x219 SWAP2 SWAP1 PUSH2 0xCD6 JUMP JUMPDEST PUSH1 0x40 MLOAD DUP1 SWAP2 SUB SWAP1 RETURN JUMPDEST DUP1 PUSH1 0x2 PUSH1 0x0 DUP5 PUSH20 0xFFFFFFFFFFFFFFFFFFFFFFFFFFFFFFFFFFFFFFFF AND PUSH20 0xFFFFFFFFFFFFFFFFFFFFFFFFFFFFFFFFFFFFFFFF AND DUP2 MSTORE PUSH1 0x20 ADD SWAP1 DUP2 MSTORE PUSH1 0x20 ADD PUSH1 0x0 KECCAK256 DUP2 SWAP1 SSTORE POP PUSH1 0x0 PUSH2 0x271 DUP4 PUSH2 0x47E JUMP JUMPDEST SWAP1 POP PUSH1 0x1 ISZERO ISZERO DUP2 PUSH1 0x60 ADD MLOAD POP POP POP POP POP JUMP JUMPDEST PUSH2 0x28C DUP2 PUSH2 0x7AC JUMP JUMPDEST POP JUMP JUMPDEST PUSH1 0x1 PUSH1 0x40 MLOAD DUP1 PUSH1 0x80 ADD PUSH1 0x40 MSTORE DUP1 DUP7 PUSH20 0xFFFFFFFFFFFFFFFFFFFFFFFFFFFFFFFFFFFFFFFF AND DUP2 MSTORE PUSH1 0x20 ADD DUP6 DUP2 MSTORE PUSH1 0x20 ADD DUP5 DUP2 MSTORE PUSH1 0x20 ADD DUP4 ISZERO ISZERO DUP2 MSTORE POP SWAP1 DUP1 PUSH1 0x1 DUP2 SLOAD ADD DUP1 DUP3 SSTORE DUP1 SWAP2 POP POP PUSH1 0x1 SWAP1 SUB SWAP1 PUSH1 0x0 MSTORE PUSH1 0x20 PUSH1 0x0 KECCAK256 SWAP1 PUSH1 0x4 MUL ADD PUSH1 0x0 SWAP1 SWAP2 SWAP1 SWAP2 SWAP1 SWAP2 POP PUSH1 0x0 DUP3 ADD MLOAD DUP2 PUSH1 0x0 ADD PUSH1 0x0 PUSH2 0x100 EXP DUP2 SLOAD DUP2 PUSH20 0xFFFFFFFFFFFFFFFFFFFFFFFFFFFFFFFFFFFFFFFF MUL NOT AND SWAP1 DUP4 PUSH20 0xFFFFFFFFFFFFFFFFFFFFFFFFFFFFFFFFFFFFFFFF AND MUL OR SWAP1 SSTORE POP PUSH1 0x20 DUP3 ADD MLOAD DUP2 PUSH1 0x1 ADD SWAP1 DUP1 MLOAD SWAP1 PUSH1 0x20 ADD SWAP1 PUSH2 0x356 SWAP3 SWAP2 SWAP1 PUSH2 0x889 JUMP JUMPDEST POP PUSH1 0x40 DUP3 ADD MLOAD DUP2 PUSH1 0x2 ADD SSTORE PUSH1 0x60 DUP3 ADD MLOAD DUP2 PUSH1 0x3 ADD PUSH1 0x0 PUSH2 0x100 EXP DUP2 SLOAD DUP2 PUSH1 0xFF MUL NOT AND SWAP1 DUP4 ISZERO ISZERO MUL OR SWAP1 SSTORE POP POP POP POP POP POP POP JUMP JUMPDEST PUSH1 0x1 DUP2 DUP2 SLOAD DUP2 LT PUSH2 0x399 JUMPI PUSH1 0x0 DUP1 REVERT JUMPDEST SWAP1 PUSH1 0x0 MSTORE PUSH1 0x20 PUSH1 0x0 KECCAK256 SWAP1 PUSH1 0x4 MUL ADD PUSH1 0x0 SWAP2 POP SWAP1 POP DUP1 PUSH1 0x0 ADD PUSH1 0x0 SWAP1 SLOAD SWAP1 PUSH2 0x100 EXP SWAP1 DIV PUSH20 0xFFFFFFFFFFFFFFFFFFFFFFFFFFFFFFFFFFFFFFFF AND SWAP1 DUP1 PUSH1 0x1 ADD DUP1 SLOAD PUSH2 0x3E2 SWAP1 PUSH2 0xEB1 JUMP JUMPDEST DUP1 PUSH1 0x1F ADD PUSH1 0x20 DUP1 SWAP2 DIV MUL PUSH1 0x20 ADD PUSH1 0x40 MLOAD SWAP1 DUP2 ADD PUSH1 0x40 MSTORE DUP1 SWAP3 SWAP2 SWAP1 DUP2 DUP2 MSTORE PUSH1 0x20 ADD DUP3 DUP1 SLOAD PUSH2 0x40E SWAP1 PUSH2 0xEB1 JUMP JUMPDEST DUP1 ISZERO PUSH2 0x45B JUMPI DUP1 PUSH1 0x1F LT PUSH2 0x430 JUMPI PUSH2 0x100 DUP1 DUP4 SLOAD DIV MUL DUP4 MSTORE SWAP2 PUSH1 0x20 ADD SWAP2 PUSH2 0x45B JUMP JUMPDEST DUP3 ADD SWAP2 SWAP1 PUSH1 0x0 MSTORE PUSH1 0x20 PUSH1 0x0 KECCAK256 SWAP1 JUMPDEST DUP2 SLOAD DUP2 MSTORE SWAP1 PUSH1 0x1 ADD SWAP1 PUSH1 0x20 ADD DUP1 DUP4 GT PUSH2 0x43E JUMPI DUP3 SWAP1 SUB PUSH1 0x1F AND DUP3 ADD SWAP2 JUMPDEST POP POP POP POP POP SWAP1 DUP1 PUSH1 0x2 ADD SLOAD SWAP1 DUP1 PUSH1 0x3 ADD PUSH1 0x0 SWAP1 SLOAD SWAP1 PUSH2 0x100 EXP SWAP1 DIV PUSH1 0xFF AND SWAP1 POP DUP5 JUMP JUMPDEST PUSH2 0x486 PUSH2 0x90F JUMP JUMPDEST PUSH1 0x0 JUMPDEST PUSH1 0x1 DUP1 SLOAD SWAP1 POP DUP2 LT ISZERO PUSH2 0x664 JUMPI DUP3 PUSH20 0xFFFFFFFFFFFFFFFFFFFFFFFFFFFFFFFFFFFFFFFF AND PUSH1 0x1 DUP3 DUP2 SLOAD DUP2 LT PUSH2 0x4C1 JUMPI PUSH2 0x4C0 PUSH2 0xFBB JUMP JUMPDEST JUMPDEST SWAP1 PUSH1 0x0 MSTORE PUSH1 0x20 PUSH1 0x0 KECCAK256 SWAP1 PUSH1 0x4 MUL ADD PUSH1 0x0 ADD PUSH1 0x0 SWAP1 SLOAD SWAP1 PUSH2 0x100 EXP SWAP1 DIV PUSH20 0xFFFFFFFFFFFFFFFFFFFFFFFFFFFFFFFFFFFFFFFF AND PUSH20 0xFFFFFFFFFFFFFFFFFFFFFFFFFFFFFFFFFFFFFFFF AND EQ ISZERO PUSH2 0x651 JUMPI PUSH1 0x1 DUP2 DUP2 SLOAD DUP2 LT PUSH2 0x523 JUMPI PUSH2 0x522 PUSH2 0xFBB JUMP JUMPDEST JUMPDEST SWAP1 PUSH1 0x0 MSTORE PUSH1 0x20 PUSH1 0x0 KECCAK256 SWAP1 PUSH1 0x4 MUL ADD PUSH1 0x40 MLOAD DUP1 PUSH1 0x80 ADD PUSH1 0x40 MSTORE SWAP1 DUP2 PUSH1 0x0 DUP3 ADD PUSH1 0x0 SWAP1 SLOAD SWAP1 PUSH2 0x100 EXP SWAP1 DIV PUSH20 0xFFFFFFFFFFFFFFFFFFFFFFFFFFFFFFFFFFFFFFFF AND PUSH20 0xFFFFFFFFFFFFFFFFFFFFFFFFFFFFFFFFFFFFFFFF AND PUSH20 0xFFFFFFFFFFFFFFFFFFFFFFFFFFFFFFFFFFFFFFFF AND DUP2 MSTORE PUSH1 0x20 ADD PUSH1 0x1 DUP3 ADD DUP1 SLOAD PUSH2 0x5A2 SWAP1 PUSH2 0xEB1 JUMP JUMPDEST DUP1 PUSH1 0x1F ADD PUSH1 0x20 DUP1 SWAP2 DIV MUL PUSH1 0x20 ADD PUSH1 0x40 MLOAD SWAP1 DUP2 ADD PUSH1 0x40 MSTORE DUP1 SWAP3 SWAP2 SWAP1 DUP2 DUP2 MSTORE PUSH1 0x20 ADD DUP3 DUP1 SLOAD PUSH2 0x5CE SWAP1 PUSH2 0xEB1 JUMP JUMPDEST DUP1 ISZERO PUSH2 0x61B JUMPI DUP1 PUSH1 0x1F LT PUSH2 0x5F0 JUMPI PUSH2 0x100 DUP1 DUP4 SLOAD DIV MUL DUP4 MSTORE SWAP2 PUSH1 0x20 ADD SWAP2 PUSH2 0x61B JUMP JUMPDEST DUP3 ADD SWAP2 SWAP1 PUSH1 0x0 MSTORE PUSH1 0x20 PUSH1 0x0 KECCAK256 SWAP1 JUMPDEST DUP2 SLOAD DUP2 MSTORE SWAP1 PUSH1 0x1 ADD SWAP1 PUSH1 0x20 ADD DUP1 DUP4 GT PUSH2 0x5FE JUMPI DUP3 SWAP1 SUB PUSH1 0x1F AND DUP3 ADD SWAP2 JUMPDEST POP POP POP POP POP DUP2 MSTORE PUSH1 0x20 ADD PUSH1 0x2 DUP3 ADD SLOAD DUP2 MSTORE PUSH1 0x20 ADD PUSH1 0x3 DUP3 ADD PUSH1 0x0 SWAP1 SLOAD SWAP1 PUSH2 0x100 EXP SWAP1 DIV PUSH1 0xFF AND ISZERO ISZERO ISZERO ISZERO DUP2 MSTORE POP POP SWAP2 POP POP PUSH2 0x6A0 JUMP JUMPDEST DUP1 DUP1 PUSH2 0x65C SWAP1 PUSH2 0xF14 JUMP JUMPDEST SWAP2 POP POP PUSH2 0x489 JUMP JUMPDEST POP PUSH1 0x40 MLOAD PUSH32 0x8C379A000000000000000000000000000000000000000000000000000000000 DUP2 MSTORE PUSH1 0x4 ADD PUSH2 0x697 SWAP1 PUSH2 0xCF1 JUMP JUMPDEST PUSH1 0x40 MLOAD DUP1 SWAP2 SUB SWAP1 REVERT JUMPDEST SWAP2 SWAP1 POP JUMP JUMPDEST PUSH1 0x2 PUSH1 0x20 MSTORE DUP1 PUSH1 0x0 MSTORE PUSH1 0x40 PUSH1 0x0 KECCAK256 PUSH1 0x0 SWAP2 POP SWAP1 POP SLOAD DUP2 JUMP JUMPDEST PUSH1 0x0 DUP1 PUSH1 0x0 SWAP1 POP JUMPDEST PUSH1 0x1 DUP1 SLOAD SWAP1 POP DUP2 LT ISZERO PUSH2 0x78C JUMPI DUP3 PUSH20 0xFFFFFFFFFFFFFFFFFFFFFFFFFFFFFFFFFFFFFFFF AND PUSH1 0x1 DUP3 DUP2 SLOAD DUP2 LT PUSH2 0x6FD JUMPI PUSH2 0x6FC PUSH2 0xFBB JUMP JUMPDEST JUMPDEST SWAP1 PUSH1 0x0 MSTORE PUSH1 0x20 PUSH1 0x0 KECCAK256 SWAP1 PUSH1 0x4 MUL ADD PUSH1 0x0 ADD PUSH1 0x0 SWAP1 SLOAD SWAP1 PUSH2 0x100 EXP SWAP1 DIV PUSH20 0xFFFFFFFFFFFFFFFFFFFFFFFFFFFFFFFFFFFFFFFF AND PUSH20 0xFFFFFFFFFFFFFFFFFFFFFFFFFFFFFFFFFFFFFFFF AND EQ ISZERO PUSH2 0x779 JUMPI PUSH1 0x1 DUP2 DUP2 SLOAD DUP2 LT PUSH2 0x75F JUMPI PUSH2 0x75E PUSH2 0xFBB JUMP JUMPDEST JUMPDEST SWAP1 PUSH1 0x0 MSTORE PUSH1 0x20 PUSH1 0x0 KECCAK256 SWAP1 PUSH1 0x4 MUL ADD PUSH1 0x2 ADD SLOAD SWAP2 POP POP PUSH2 0x793 JUMP JUMPDEST DUP1 DUP1 PUSH2 0x784 SWAP1 PUSH2 0xF14 JUMP JUMPDEST SWAP2 POP POP PUSH2 0x6C5 JUMP JUMPDEST POP PUSH2 0x3E7 SWAP1 POP JUMPDEST SWAP2 SWAP1 POP JUMP JUMPDEST PUSH1 0x0 DUP1 PUSH2 0x7A4 DUP4 PUSH2 0x47E JUMP JUMPDEST SWAP1 POP POP SWAP2 SWAP1 POP JUMP JUMPDEST PUSH1 0x0 JUMPDEST PUSH1 0x1 DUP1 SLOAD SWAP1 POP DUP2 LT ISZERO PUSH2 0x885 JUMPI DUP2 PUSH20 0xFFFFFFFFFFFFFFFFFFFFFFFFFFFFFFFFFFFFFFFF AND PUSH1 0x1 DUP3 DUP2 SLOAD DUP2 LT PUSH2 0x7E7 JUMPI PUSH2 0x7E6 PUSH2 0xFBB JUMP JUMPDEST JUMPDEST SWAP1 PUSH1 0x0 MSTORE PUSH1 0x20 PUSH1 0x0 KECCAK256 SWAP1 PUSH1 0x4 MUL ADD PUSH1 0x0 ADD PUSH1 0x0 SWAP1 SLOAD SWAP1 PUSH2 0x100 EXP SWAP1 DIV PUSH20 0xFFFFFFFFFFFFFFFFFFFFFFFFFFFFFFFFFFFFFFFF AND PUSH20 0xFFFFFFFFFFFFFFFFFFFFFFFFFFFFFFFFFFFFFFFF AND EQ ISZERO PUSH2 0x872 JUMPI CALLVALUE PUSH1 0x1 DUP3 DUP2 SLOAD DUP2 LT PUSH2 0x84A JUMPI PUSH2 0x849 PUSH2 0xFBB JUMP JUMPDEST JUMPDEST SWAP1 PUSH1 0x0 MSTORE PUSH1 0x20 PUSH1 0x0 KECCAK256 SWAP1 PUSH1 0x4 MUL ADD PUSH1 0x2 ADD PUSH1 0x0 DUP3 DUP3 SLOAD PUSH2 0x86A SWAP2 SWAP1 PUSH2 0xDD1 JUMP JUMPDEST SWAP3 POP POP DUP2 SWAP1 SSTORE POP JUMPDEST DUP1 DUP1 PUSH2 0x87D SWAP1 PUSH2 0xF14 JUMP JUMPDEST SWAP2 POP POP PUSH2 0x7AF JUMP JUMPDEST POP POP JUMP JUMPDEST DUP3 DUP1 SLOAD PUSH2 0x895 SWAP1 PUSH2 0xEB1 JUMP JUMPDEST SWAP1 PUSH1 0x0 MSTORE PUSH1 0x20 PUSH1 0x0 KECCAK256 SWAP1 PUSH1 0x1F ADD PUSH1 0x20 SWAP1 DIV DUP2 ADD SWAP3 DUP3 PUSH2 0x8B7 JUMPI PUSH1 0x0 DUP6 SSTORE PUSH2 0x8FE JUMP JUMPDEST DUP3 PUSH1 0x1F LT PUSH2 0x8D0 JUMPI DUP1 MLOAD PUSH1 0xFF NOT AND DUP4 DUP1 ADD OR DUP6 SSTORE PUSH2 0x8FE JUMP JUMPDEST DUP3 DUP1 ADD PUSH1 0x1 ADD DUP6 SSTORE DUP3 ISZERO PUSH2 0x8FE JUMPI SWAP2 DUP3 ADD JUMPDEST DUP3 DUP2 GT ISZERO PUSH2 0x8FD JUMPI DUP3 MLOAD DUP3 SSTORE SWAP2 PUSH1 0x20 ADD SWAP2 SWAP1 PUSH1 0x1 ADD SWAP1 PUSH2 0x8E2 JUMP JUMPDEST JUMPDEST POP SWAP1 POP PUSH2 0x90B SWAP2 SWAP1 PUSH2 0x94F JUMP JUMPDEST POP SWAP1 JUMP JUMPDEST PUSH1 0x40 MLOAD DUP1 PUSH1 0x80 ADD PUSH1 0x40 MSTORE DUP1 PUSH1 0x0 PUSH20 0xFFFFFFFFFFFFFFFFFFFFFFFFFFFFFFFFFFFFFFFF AND DUP2 MSTORE PUSH1 0x20 ADD PUSH1 0x60 DUP2 MSTORE PUSH1 0x20 ADD PUSH1 0x0 DUP2 MSTORE PUSH1 0x20 ADD PUSH1 0x0 ISZERO ISZERO DUP2 MSTORE POP SWAP1 JUMP JUMPDEST JUMPDEST DUP1 DUP3 GT ISZERO PUSH2 0x968 JUMPI PUSH1 0x0 DUP2 PUSH1 0x0 SWAP1 SSTORE POP PUSH1 0x1 ADD PUSH2 0x950 JUMP JUMPDEST POP SWAP1 JUMP JUMPDEST PUSH1 0x0 PUSH2 0x97F PUSH2 0x97A DUP5 PUSH2 0xD73 JUMP JUMPDEST PUSH2 0xD4E JUMP JUMPDEST SWAP1 POP DUP3 DUP2 MSTORE PUSH1 0x20 DUP2 ADD DUP5 DUP5 DUP5 ADD GT ISZERO PUSH2 0x99B JUMPI PUSH2 0x99A PUSH2 0x101E JUMP JUMPDEST JUMPDEST PUSH2 0x9A6 DUP5 DUP3 DUP6 PUSH2 0xE6F JUMP JUMPDEST POP SWAP4 SWAP3 POP POP POP JUMP JUMPDEST PUSH1 0x0 DUP2 CALLDATALOAD SWAP1 POP PUSH2 0x9BD DUP2 PUSH2 0x1067 JUMP JUMPDEST SWAP3 SWAP2 POP POP JUMP JUMPDEST PUSH1 0x0 DUP2 CALLDATALOAD SWAP1 POP PUSH2 0x9D2 DUP2 PUSH2 0x107E JUMP JUMPDEST SWAP3 SWAP2 POP POP JUMP JUMPDEST PUSH1 0x0 DUP3 PUSH1 0x1F DUP4 ADD SLT PUSH2 0x9ED JUMPI PUSH2 0x9EC PUSH2 0x1019 JUMP JUMPDEST JUMPDEST DUP2 CALLDATALOAD PUSH2 0x9FD DUP5 DUP3 PUSH1 0x20 DUP7 ADD PUSH2 0x96C JUMP JUMPDEST SWAP2 POP POP SWAP3 SWAP2 POP POP JUMP JUMPDEST PUSH1 0x0 DUP2 CALLDATALOAD SWAP1 POP PUSH2 0xA15 DUP2 PUSH2 0x1095 JUMP JUMPDEST SWAP3 SWAP2 POP POP JUMP JUMPDEST PUSH1 0x0 PUSH1 0x20 DUP3 DUP5 SUB SLT ISZERO PUSH2 0xA31 JUMPI PUSH2 0xA30 PUSH2 0x1028 JUMP JUMPDEST JUMPDEST PUSH1 0x0 PUSH2 0xA3F DUP5 DUP3 DUP6 ADD PUSH2 0x9AE JUMP JUMPDEST SWAP2 POP POP SWAP3 SWAP2 POP POP JUMP JUMPDEST PUSH1 0x0 DUP1 PUSH1 0x0 DUP1 PUSH1 0x80 DUP6 DUP8 SUB SLT ISZERO PUSH2 0xA62 JUMPI PUSH2 0xA61 PUSH2 0x1028 JUMP JUMPDEST JUMPDEST PUSH1 0x0 PUSH2 0xA70 DUP8 DUP3 DUP9 ADD PUSH2 0x9AE JUMP JUMPDEST SWAP5 POP POP PUSH1 0x20 DUP6 ADD CALLDATALOAD PUSH8 0xFFFFFFFFFFFFFFFF DUP2 GT ISZERO PUSH2 0xA91 JUMPI PUSH2 0xA90 PUSH2 0x1023 JUMP JUMPDEST JUMPDEST PUSH2 0xA9D DUP8 DUP3 DUP9 ADD PUSH2 0x9D8 JUMP JUMPDEST SWAP4 POP POP PUSH1 0x40 PUSH2 0xAAE DUP8 DUP3 DUP9 ADD PUSH2 0xA06 JUMP JUMPDEST SWAP3 POP POP PUSH1 0x60 PUSH2 0xABF DUP8 DUP3 DUP9 ADD PUSH2 0x9C3 JUMP JUMPDEST SWAP2 POP POP SWAP3 SWAP6 SWAP2 SWAP5 POP SWAP3 POP JUMP JUMPDEST PUSH1 0x0 DUP1 PUSH1 0x40 DUP4 DUP6 SUB SLT ISZERO PUSH2 0xAE2 JUMPI PUSH2 0xAE1 PUSH2 0x1028 JUMP JUMPDEST JUMPDEST PUSH1 0x0 PUSH2 0xAF0 DUP6 DUP3 DUP7 ADD PUSH2 0x9AE JUMP JUMPDEST SWAP3 POP POP PUSH1 0x20 PUSH2 0xB01 DUP6 DUP3 DUP7 ADD PUSH2 0xA06 JUMP JUMPDEST SWAP2 POP POP SWAP3 POP SWAP3 SWAP1 POP JUMP JUMPDEST PUSH1 0x0 PUSH1 0x20 DUP3 DUP5 SUB SLT ISZERO PUSH2 0xB21 JUMPI PUSH2 0xB20 PUSH2 0x1028 JUMP JUMPDEST JUMPDEST PUSH1 0x0 PUSH2 0xB2F DUP5 DUP3 DUP6 ADD PUSH2 0xA06 JUMP JUMPDEST SWAP2 POP POP SWAP3 SWAP2 POP POP JUMP JUMPDEST PUSH2 0xB41 DUP2 PUSH2 0xE27 JUMP JUMPDEST DUP3 MSTORE POP POP JUMP JUMPDEST PUSH2 0xB50 DUP2 PUSH2 0xE27 JUMP JUMPDEST DUP3 MSTORE POP POP JUMP JUMPDEST PUSH2 0xB5F DUP2 PUSH2 0xE39 JUMP JUMPDEST DUP3 MSTORE POP POP JUMP JUMPDEST PUSH2 0xB6E DUP2 PUSH2 0xE39 JUMP JUMPDEST DUP3 MSTORE POP POP JUMP JUMPDEST PUSH1 0x0 PUSH2 0xB7F DUP3 PUSH2 0xDA4 JUMP JUMPDEST PUSH2 0xB89 DUP2 DUP6 PUSH2 0xDAF JUMP JUMPDEST SWAP4 POP PUSH2 0xB99 DUP2 DUP6 PUSH1 0x20 DUP7 ADD PUSH2 0xE7E JUMP JUMPDEST PUSH2 0xBA2 DUP2 PUSH2 0x102D JUMP JUMPDEST DUP5 ADD SWAP2 POP POP SWAP3 SWAP2 POP POP JUMP JUMPDEST PUSH1 0x0 PUSH2 0xBB8 DUP3 PUSH2 0xDA4 JUMP JUMPDEST PUSH2 0xBC2 DUP2 DUP6 PUSH2 0xDC0 JUMP JUMPDEST SWAP4 POP PUSH2 0xBD2 DUP2 DUP6 PUSH1 0x20 DUP7 ADD PUSH2 0xE7E JUMP JUMPDEST PUSH2 0xBDB DUP2 PUSH2 0x102D JUMP JUMPDEST DUP5 ADD SWAP2 POP POP SWAP3 SWAP2 POP POP JUMP JUMPDEST PUSH1 0x0 PUSH2 0xBF3 PUSH1 0x16 DUP4 PUSH2 0xDC0 JUMP JUMPDEST SWAP2 POP PUSH2 0xBFE DUP3 PUSH2 0x103E JUMP JUMPDEST PUSH1 0x20 DUP3 ADD SWAP1 POP SWAP2 SWAP1 POP JUMP JUMPDEST PUSH1 0x0 PUSH1 0x80 DUP4 ADD PUSH1 0x0 DUP4 ADD MLOAD PUSH2 0xC21 PUSH1 0x0 DUP7 ADD DUP3 PUSH2 0xB38 JUMP JUMPDEST POP PUSH1 0x20 DUP4 ADD MLOAD DUP5 DUP3 SUB PUSH1 0x20 DUP7 ADD MSTORE PUSH2 0xC39 DUP3 DUP3 PUSH2 0xB74 JUMP JUMPDEST SWAP2 POP POP PUSH1 0x40 DUP4 ADD MLOAD PUSH2 0xC4E PUSH1 0x40 DUP7 ADD DUP3 PUSH2 0xC6C JUMP JUMPDEST POP PUSH1 0x60 DUP4 ADD MLOAD PUSH2 0xC61 PUSH1 0x60 DUP7 ADD DUP3 PUSH2 0xB56 JUMP JUMPDEST POP DUP1 SWAP2 POP POP SWAP3 SWAP2 POP POP JUMP JUMPDEST PUSH2 0xC75 DUP2 PUSH2 0xE65 JUMP JUMPDEST DUP3 MSTORE POP POP JUMP JUMPDEST PUSH2 0xC84 DUP2 PUSH2 0xE65 JUMP JUMPDEST DUP3 MSTORE POP POP JUMP JUMPDEST PUSH1 0x0 PUSH1 0x80 DUP3 ADD SWAP1 POP PUSH2 0xC9F PUSH1 0x0 DUP4 ADD DUP8 PUSH2 0xB47 JUMP JUMPDEST DUP2 DUP2 SUB PUSH1 0x20 DUP4 ADD MSTORE PUSH2 0xCB1 DUP2 DUP7 PUSH2 0xBAD JUMP JUMPDEST SWAP1 POP PUSH2 0xCC0 PUSH1 0x40 DUP4 ADD DUP6 PUSH2 0xC7B JUMP JUMPDEST PUSH2 0xCCD PUSH1 0x60 DUP4 ADD DUP5 PUSH2 0xB65 JUMP JUMPDEST SWAP6 SWAP5 POP POP POP POP POP JUMP JUMPDEST PUSH1 0x0 PUSH1 0x20 DUP3 ADD SWAP1 POP PUSH2 0xCEB PUSH1 0x0 DUP4 ADD DUP5 PUSH2 0xB65 JUMP JUMPDEST SWAP3 SWAP2 POP POP JUMP JUMPDEST PUSH1 0x0 PUSH1 0x20 DUP3 ADD SWAP1 POP DUP2 DUP2 SUB PUSH1 0x0 DUP4 ADD MSTORE PUSH2 0xD0A DUP2 PUSH2 0xBE6 JUMP JUMPDEST SWAP1 POP SWAP2 SWAP1 POP JUMP JUMPDEST PUSH1 0x0 PUSH1 0x20 DUP3 ADD SWAP1 POP DUP2 DUP2 SUB PUSH1 0x0 DUP4 ADD MSTORE PUSH2 0xD2B DUP2 DUP5 PUSH2 0xC09 JUMP JUMPDEST SWAP1 POP SWAP3 SWAP2 POP POP JUMP JUMPDEST PUSH1 0x0 PUSH1 0x20 DUP3 ADD SWAP1 POP PUSH2 0xD48 PUSH1 0x0 DUP4 ADD DUP5 PUSH2 0xC7B JUMP JUMPDEST SWAP3 SWAP2 POP POP JUMP JUMPDEST PUSH1 0x0 PUSH2 0xD58 PUSH2 0xD69 JUMP JUMPDEST SWAP1 POP PUSH2 0xD64 DUP3 DUP3 PUSH2 0xEE3 JUMP JUMPDEST SWAP2 SWAP1 POP JUMP JUMPDEST PUSH1 0x0 PUSH1 0x40 MLOAD SWAP1 POP SWAP1 JUMP JUMPDEST PUSH1 0x0 PUSH8 0xFFFFFFFFFFFFFFFF DUP3 GT ISZERO PUSH2 0xD8E JUMPI PUSH2 0xD8D PUSH2 0xFEA JUMP JUMPDEST JUMPDEST PUSH2 0xD97 DUP3 PUSH2 0x102D JUMP JUMPDEST SWAP1 POP PUSH1 0x20 DUP2 ADD SWAP1 POP SWAP2 SWAP1 POP JUMP JUMPDEST PUSH1 0x0 DUP2 MLOAD SWAP1 POP SWAP2 SWAP1 POP JUMP JUMPDEST PUSH1 0x0 DUP3 DUP3 MSTORE PUSH1 0x20 DUP3 ADD SWAP1 POP SWAP3 SWAP2 POP POP JUMP JUMPDEST PUSH1 0x0 DUP3 DUP3 MSTORE PUSH1 0x20 DUP3 ADD SWAP1 POP SWAP3 SWAP2 POP POP JUMP JUMPDEST PUSH1 0x0 PUSH2 0xDDC DUP3 PUSH2 0xE65 JUMP JUMPDEST SWAP2 POP PUSH2 0xDE7 DUP4 PUSH2 0xE65 JUMP JUMPDEST SWAP3 POP DUP3 PUSH32 0xFFFFFFFFFFFFFFFFFFFFFFFFFFFFFFFFFFFFFFFFFFFFFFFFFFFFFFFFFFFFFFFF SUB DUP3 GT ISZERO PUSH2 0xE1C JUMPI PUSH2 0xE1B PUSH2 0xF5D JUMP JUMPDEST JUMPDEST DUP3 DUP3 ADD SWAP1 POP SWAP3 SWAP2 POP POP JUMP JUMPDEST PUSH1 0x0 PUSH2 0xE32 DUP3 PUSH2 0xE45 JUMP JUMPDEST SWAP1 POP SWAP2 SWAP1 POP JUMP JUMPDEST PUSH1 0x0 DUP2 ISZERO ISZERO SWAP1 POP SWAP2 SWAP1 POP JUMP JUMPDEST PUSH1 0x0 PUSH20 0xFFFFFFFFFFFFFFFFFFFFFFFFFFFFFFFFFFFFFFFF DUP3 AND SWAP1 POP SWAP2 SWAP1 POP JUMP JUMPDEST PUSH1 0x0 DUP2 SWAP1 POP SWAP2 SWAP1 POP JUMP JUMPDEST DUP3 DUP2 DUP4 CALLDATACOPY PUSH1 0x0 DUP4 DUP4 ADD MSTORE POP POP POP JUMP JUMPDEST PUSH1 0x0 JUMPDEST DUP4 DUP2 LT ISZERO PUSH2 0xE9C JUMPI DUP1 DUP3 ADD MLOAD DUP2 DUP5 ADD MSTORE PUSH1 0x20 DUP2 ADD SWAP1 POP PUSH2 0xE81 JUMP JUMPDEST DUP4 DUP2 GT ISZERO PUSH2 0xEAB JUMPI PUSH1 0x0 DUP5 DUP5 ADD MSTORE JUMPDEST POP POP POP POP JUMP JUMPDEST PUSH1 0x0 PUSH1 0x2 DUP3 DIV SWAP1 POP PUSH1 0x1 DUP3 AND DUP1 PUSH2 0xEC9 JUMPI PUSH1 0x7F DUP3 AND SWAP2 POP JUMPDEST PUSH1 0x20 DUP3 LT DUP2 EQ ISZERO PUSH2 0xEDD JUMPI PUSH2 0xEDC PUSH2 0xF8C JUMP JUMPDEST JUMPDEST POP SWAP2 SWAP1 POP JUMP JUMPDEST PUSH2 0xEEC DUP3 PUSH2 0x102D JUMP JUMPDEST DUP2 ADD DUP2 DUP2 LT PUSH8 0xFFFFFFFFFFFFFFFF DUP3 GT OR ISZERO PUSH2 0xF0B JUMPI PUSH2 0xF0A PUSH2 0xFEA JUMP JUMPDEST JUMPDEST DUP1 PUSH1 0x40 MSTORE POP POP POP JUMP JUMPDEST PUSH1 0x0 PUSH2 0xF1F DUP3 PUSH2 0xE65 JUMP JUMPDEST SWAP2 POP PUSH32 0xFFFFFFFFFFFFFFFFFFFFFFFFFFFFFFFFFFFFFFFFFFFFFFFFFFFFFFFFFFFFFFFF DUP3 EQ ISZERO PUSH2 0xF52 JUMPI PUSH2 0xF51 PUSH2 0xF5D JUMP JUMPDEST JUMPDEST PUSH1 0x1 DUP3 ADD SWAP1 POP SWAP2 SWAP1 POP JUMP JUMPDEST PUSH32 0x4E487B7100000000000000000000000000000000000000000000000000000000 PUSH1 0x0 MSTORE PUSH1 0x11 PUSH1 0x4 MSTORE PUSH1 0x24 PUSH1 0x0 REVERT JUMPDEST PUSH32 0x4E487B7100000000000000000000000000000000000000000000000000000000 PUSH1 0x0 MSTORE PUSH1 0x22 PUSH1 0x4 MSTORE PUSH1 0x24 PUSH1 0x0 REVERT JUMPDEST PUSH32 0x4E487B7100000000000000000000000000000000000000000000000000000000 PUSH1 0x0 MSTORE PUSH1 0x32 PUSH1 0x4 MSTORE PUSH1 0x24 PUSH1 0x0 REVERT JUMPDEST PUSH32 0x4E487B7100000000000000000000000000000000000000000000000000000000 PUSH1 0x0 MSTORE PUSH1 0x41 PUSH1 0x4 MSTORE PUSH1 0x24 PUSH1 0x0 REVERT JUMPDEST PUSH1 0x0 DUP1 REVERT JUMPDEST PUSH1 0x0 DUP1 REVERT JUMPDEST PUSH1 0x0 DUP1 REVERT JUMPDEST PUSH1 0x0 DUP1 REVERT JUMPDEST PUSH1 0x0 PUSH1 0x1F NOT PUSH1 0x1F DUP4 ADD AND SWAP1 POP SWAP2 SWAP1 POP JUMP JUMPDEST PUSH32 0x496E76616C69642057616C6C6574204164647265737300000000000000000000 PUSH1 0x0 DUP3 ADD MSTORE POP JUMP JUMPDEST PUSH2 0x1070 DUP2 PUSH2 0xE27 JUMP JUMPDEST DUP2 EQ PUSH2 0x107B JUMPI PUSH1 0x0 DUP1 REVERT JUMPDEST POP JUMP JUMPDEST PUSH2 0x1087 DUP2 PUSH2 0xE39 JUMP JUMPDEST DUP2 EQ PUSH2 0x1092 JUMPI PUSH1 0x0 DUP1 REVERT JUMPDEST POP JUMP JUMPDEST PUSH2 0x109E DUP2 PUSH2 0xE65 JUMP JUMPDEST DUP2 EQ PUSH2 0x10A9 JUMPI PUSH1 0x0 DUP1 REVERT JUMPDEST POP JUMP INVALID LOG2 PUSH5 0x6970667358 0x22 SLT KECCAK256 0x24 SHR PUSH2 0x9133 0xDF 0xD9 DUP5 KECCAK256 SHR DUP4 0xE1 0xA7 0xC3 MLOAD SWAP12 0x27 DUP11 DIFFICULTY 0xB0 0xE8 PUSH28 0xFE228525850A673AB5B964736F6C6343000807003300000000000000 "
				},
				"gasEstimates": {
					"creation": {
						"codeDepositCost": "864400",
						"executionCost": "25169",
						"totalCost": "889569"
					},
					"external": {
						"addToInvestors(address,uint256)": "infinite",
						"addUser(address,string,uint256,bool)": "infinite",
						"balanceOf(address)": "infinite",
						"getUserByAddress(address)": "infinite",
						"investors(address)": "2836",
						"isInvestor(address)": "infinite",
						"transfer(address)": "infinite",
						"users(uint256)": "infinite"
					},
					"internal": {
						"transferToAddress(address)": "infinite"
					}
				},
				"methodIdentifiers": {
					"addToInvestors(address,uint256)": "0b1019f0",
					"addUser(address,string,uint256,bool)": "280879e7",
					"balanceOf(address)": "70a08231",
					"getUserByAddress(address)": "69c212f6",
					"investors(address)": "6f7bc9be",
					"isInvestor(address)": "cee2a9cf",
					"transfer(address)": "1a695230",
					"users(uint256)": "365b98b2"
				}
			},
			"storageLayout": {
				"storage": [
					{
						"astId": 3,
						"contract": "contracts/Test1.sol:Test1",
						"label": "owner",
						"offset": 0,
						"slot": "0",
						"type": "t_address"
					},
					{
						"astId": 25,
						"contract": "contracts/Test1.sol:Test1",
						"label": "users",
						"offset": 0,
						"slot": "1",
						"type": "t_array(t_struct(User)21_storage)dyn_storage"
					},
					{
						"astId": 29,
						"contract": "contracts/Test1.sol:Test1",
						"label": "investors",
						"offset": 0,
						"slot": "2",
						"type": "t_mapping(t_address,t_uint256)"
					}
				],
				"types": {
					"t_address": {
						"encoding": "inplace",
						"label": "address",
						"numberOfBytes": "20"
					},
					"t_array(t_struct(User)21_storage)dyn_storage": {
						"base": "t_struct(User)21_storage",
						"encoding": "dynamic_array",
						"label": "struct Test1.User[]",
						"numberOfBytes": "32"
					},
					"t_bool": {
						"encoding": "inplace",
						"label": "bool",
						"numberOfBytes": "1"
					},
					"t_mapping(t_address,t_uint256)": {
						"encoding": "mapping",
						"key": "t_address",
						"label": "mapping(address => uint256)",
						"numberOfBytes": "32",
						"value": "t_uint256"
					},
					"t_string_storage": {
						"encoding": "bytes",
						"label": "string",
						"numberOfBytes": "32"
					},
					"t_struct(User)21_storage": {
						"encoding": "inplace",
						"label": "struct Test1.User",
						"members": [
							{
								"astId": 14,
								"contract": "contracts/Test1.sol:Test1",
								"label": "walletAddress",
								"offset": 0,
								"slot": "0",
								"type": "t_address"
							},
							{
								"astId": 16,
								"contract": "contracts/Test1.sol:Test1",
								"label": "name",
								"offset": 0,
								"slot": "1",
								"type": "t_string_storage"
							},
							{
								"astId": 18,
								"contract": "contracts/Test1.sol:Test1",
								"label": "amount",
								"offset": 0,
								"slot": "2",
								"type": "t_uint256"
							},
							{
								"astId": 20,
								"contract": "contracts/Test1.sol:Test1",
								"label": "isInvestor",
								"offset": 0,
								"slot": "3",
								"type": "t_bool"
							}
						],
						"numberOfBytes": "128"
					},
					"t_uint256": {
						"encoding": "inplace",
						"label": "uint256",
						"numberOfBytes": "32"
					}
				}
			},
			"userdoc": {
				"kind": "user",
				"methods": {},
				"version": 1
			}
		}
	}
}