{
	"contracts/Test1.sol": {
		"Test1": {
			"abi": [
				{
					"inputs": [],
					"stateMutability": "nonpayable",
					"type": "constructor"
				},
				{
					"inputs": [
						{
							"internalType": "address",
							"name": "walletAddress",
							"type": "address"
						},
						{
							"internalType": "string",
							"name": "name",
							"type": "string"
						},
						{
							"internalType": "uint256",
							"name": "amount",
							"type": "uint256"
						}
					],
					"name": "addUser",
					"outputs": [],
					"stateMutability": "nonpayable",
					"type": "function"
				},
				{
					"inputs": [
						{
							"internalType": "address",
							"name": "walletAddress",
							"type": "address"
						}
					],
					"name": "transfer",
					"outputs": [],
					"stateMutability": "payable",
					"type": "function"
				},
				{
					"inputs": [
						{
							"internalType": "uint256",
							"name": "",
							"type": "uint256"
						}
					],
					"name": "users",
					"outputs": [
						{
							"internalType": "address",
							"name": "walletAddress",
							"type": "address"
						},
						{
							"internalType": "string",
							"name": "name",
							"type": "string"
						},
						{
							"internalType": "uint256",
							"name": "amount",
							"type": "uint256"
						}
					],
					"stateMutability": "view",
					"type": "function"
				}
			],
			"devdoc": {
				"kind": "dev",
				"methods": {},
				"version": 1
			},
			"evm": {
				"assembly": "    /* \"contracts/Test1.sol\":65:788  contract Test1{... */\n  mstore(0x40, 0x80)\n    /* \"contracts/Test1.sol\":106:154  constructor(){... */\n  callvalue\n  dup1\n  iszero\n  tag_1\n  jumpi\n  0x00\n  dup1\n  revert\ntag_1:\n  pop\n    /* \"contracts/Test1.sol\":137:147  msg.sender */\n  caller\n    /* \"contracts/Test1.sol\":129:134  owner */\n  0x00\n  dup1\n    /* \"contracts/Test1.sol\":129:147  owner = msg.sender */\n  0x0100\n  exp\n  dup2\n  sload\n  dup2\n  0xffffffffffffffffffffffffffffffffffffffff\n  mul\n  not\n  and\n  swap1\n  dup4\n  0xffffffffffffffffffffffffffffffffffffffff\n  and\n  mul\n  or\n  swap1\n  sstore\n  pop\n    /* \"contracts/Test1.sol\":65:788  contract Test1{... */\n  dataSize(sub_0)\n  dup1\n  dataOffset(sub_0)\n  0x00\n  codecopy\n  0x00\n  return\nstop\n\nsub_0: assembly {\n        /* \"contracts/Test1.sol\":65:788  contract Test1{... */\n      mstore(0x40, 0x80)\n      jumpi(tag_1, lt(calldatasize, 0x04))\n      shr(0xe0, calldataload(0x00))\n      dup1\n      0x1a695230\n      eq\n      tag_2\n      jumpi\n      dup1\n      0x365b98b2\n      eq\n      tag_3\n      jumpi\n      dup1\n      0xf0384fb6\n      eq\n      tag_4\n      jumpi\n    tag_1:\n      0x00\n      dup1\n      revert\n        /* \"contracts/Test1.sol\":431:536  function transfer(address walletAddress) payable public {... */\n    tag_2:\n      tag_5\n      0x04\n      dup1\n      calldatasize\n      sub\n      dup2\n      add\n      swap1\n      tag_6\n      swap2\n      swap1\n      tag_7\n      jump\t// in\n    tag_6:\n      tag_8\n      jump\t// in\n    tag_5:\n      stop\n        /* \"contracts/Test1.sol\":257:276  User[] public users */\n    tag_3:\n      callvalue\n      dup1\n      iszero\n      tag_9\n      jumpi\n      0x00\n      dup1\n      revert\n    tag_9:\n      pop\n      tag_10\n      0x04\n      dup1\n      calldatasize\n      sub\n      dup2\n      add\n      swap1\n      tag_11\n      swap2\n      swap1\n      tag_12\n      jump\t// in\n    tag_11:\n      tag_13\n      jump\t// in\n    tag_10:\n      mload(0x40)\n      tag_14\n      swap4\n      swap3\n      swap2\n      swap1\n      tag_15\n      jump\t// in\n    tag_14:\n      mload(0x40)\n      dup1\n      swap2\n      sub\n      swap1\n      return\n        /* \"contracts/Test1.sol\":283:425  function addUser(address walletAddress, string memory name, uint amount) public {... */\n    tag_4:\n      callvalue\n      dup1\n      iszero\n      tag_16\n      jumpi\n      0x00\n      dup1\n      revert\n    tag_16:\n      pop\n      tag_17\n      0x04\n      dup1\n      calldatasize\n      sub\n      dup2\n      add\n      swap1\n      tag_18\n      swap2\n      swap1\n      tag_19\n      jump\t// in\n    tag_18:\n      tag_20\n      jump\t// in\n    tag_17:\n      stop\n        /* \"contracts/Test1.sol\":431:536  function transfer(address walletAddress) payable public {... */\n    tag_8:\n        /* \"contracts/Test1.sol\":497:529  transferToAddress(walletAddress) */\n      tag_22\n        /* \"contracts/Test1.sol\":515:528  walletAddress */\n      dup2\n        /* \"contracts/Test1.sol\":497:514  transferToAddress */\n      tag_23\n        /* \"contracts/Test1.sol\":497:529  transferToAddress(walletAddress) */\n      jump\t// in\n    tag_22:\n        /* \"contracts/Test1.sol\":431:536  function transfer(address walletAddress) payable public {... */\n      pop\n      jump\t// out\n        /* \"contracts/Test1.sol\":257:276  User[] public users */\n    tag_13:\n      0x01\n      dup2\n      dup2\n      sload\n      dup2\n      lt\n      tag_24\n      jumpi\n      0x00\n      dup1\n      revert\n    tag_24:\n      swap1\n      0x00\n      mstore\n      keccak256(0x00, 0x20)\n      swap1\n      0x03\n      mul\n      add\n      0x00\n      swap2\n      pop\n      swap1\n      pop\n      dup1\n      0x00\n      add\n      0x00\n      swap1\n      sload\n      swap1\n      0x0100\n      exp\n      swap1\n      div\n      0xffffffffffffffffffffffffffffffffffffffff\n      and\n      swap1\n      dup1\n      0x01\n      add\n      dup1\n      sload\n      tag_26\n      swap1\n      tag_27\n      jump\t// in\n    tag_26:\n      dup1\n      0x1f\n      add\n      0x20\n      dup1\n      swap2\n      div\n      mul\n      0x20\n      add\n      mload(0x40)\n      swap1\n      dup2\n      add\n      0x40\n      mstore\n      dup1\n      swap3\n      swap2\n      swap1\n      dup2\n      dup2\n      mstore\n      0x20\n      add\n      dup3\n      dup1\n      sload\n      tag_28\n      swap1\n      tag_27\n      jump\t// in\n    tag_28:\n      dup1\n      iszero\n      tag_29\n      jumpi\n      dup1\n      0x1f\n      lt\n      tag_30\n      jumpi\n      0x0100\n      dup1\n      dup4\n      sload\n      div\n      mul\n      dup4\n      mstore\n      swap2\n      0x20\n      add\n      swap2\n      jump(tag_29)\n    tag_30:\n      dup3\n      add\n      swap2\n      swap1\n      0x00\n      mstore\n      keccak256(0x00, 0x20)\n      swap1\n    tag_31:\n      dup2\n      sload\n      dup2\n      mstore\n      swap1\n      0x01\n      add\n      swap1\n      0x20\n      add\n      dup1\n      dup4\n      gt\n      tag_31\n      jumpi\n      dup3\n      swap1\n      sub\n      0x1f\n      and\n      dup3\n      add\n      swap2\n    tag_29:\n      pop\n      pop\n      pop\n      pop\n      pop\n      swap1\n      dup1\n      0x02\n      add\n      sload\n      swap1\n      pop\n      dup4\n      jump\t// out\n        /* \"contracts/Test1.sol\":283:425  function addUser(address walletAddress, string memory name, uint amount) public {... */\n    tag_20:\n        /* \"contracts/Test1.sol\":373:378  users */\n      0x01\n        /* \"contracts/Test1.sol\":384:417  User(walletAddress, name, amount) */\n      mload(0x40)\n      dup1\n      0x60\n      add\n      0x40\n      mstore\n      dup1\n        /* \"contracts/Test1.sol\":389:402  walletAddress */\n      dup6\n        /* \"contracts/Test1.sol\":384:417  User(walletAddress, name, amount) */\n      0xffffffffffffffffffffffffffffffffffffffff\n      and\n      dup2\n      mstore\n      0x20\n      add\n        /* \"contracts/Test1.sol\":404:408  name */\n      dup5\n        /* \"contracts/Test1.sol\":384:417  User(walletAddress, name, amount) */\n      dup2\n      mstore\n      0x20\n      add\n        /* \"contracts/Test1.sol\":410:416  amount */\n      dup4\n        /* \"contracts/Test1.sol\":384:417  User(walletAddress, name, amount) */\n      dup2\n      mstore\n      pop\n        /* \"contracts/Test1.sol\":373:418  users.push(User(walletAddress, name, amount)) */\n      swap1\n      dup1\n      0x01\n      dup2\n      sload\n      add\n      dup1\n      dup3\n      sstore\n      dup1\n      swap2\n      pop\n      pop\n      0x01\n      swap1\n      sub\n      swap1\n      0x00\n      mstore\n      keccak256(0x00, 0x20)\n      swap1\n      0x03\n      mul\n      add\n      0x00\n      swap1\n      swap2\n      swap1\n      swap2\n      swap1\n      swap2\n      pop\n      0x00\n      dup3\n      add\n      mload\n      dup2\n      0x00\n      add\n      exp(0x0100, 0x00)\n      dup2\n      sload\n      dup2\n      0xffffffffffffffffffffffffffffffffffffffff\n      mul\n      not\n      and\n      swap1\n      dup4\n      0xffffffffffffffffffffffffffffffffffffffff\n      and\n      mul\n      or\n      swap1\n      sstore\n      pop\n      0x20\n      dup3\n      add\n      mload\n      dup2\n      0x01\n      add\n      swap1\n      dup2\n      tag_34\n      swap2\n      swap1\n      tag_35\n      jump\t// in\n    tag_34:\n      pop\n      0x40\n      dup3\n      add\n      mload\n      dup2\n      0x02\n      add\n      sstore\n      pop\n      pop\n        /* \"contracts/Test1.sol\":283:425  function addUser(address walletAddress, string memory name, uint amount) public {... */\n      pop\n      pop\n      pop\n      jump\t// out\n        /* \"contracts/Test1.sol\":542:782  function transferToAddress(address walletAddress) private {... */\n    tag_23:\n        /* \"contracts/Test1.sol\":614:620  uint i */\n      0x00\n        /* \"contracts/Test1.sol\":610:776  for(uint i = 0; i < users.length; i++){... */\n    tag_37:\n        /* \"contracts/Test1.sol\":630:635  users */\n      0x01\n        /* \"contracts/Test1.sol\":630:642  users.length */\n      dup1\n      sload\n      swap1\n      pop\n        /* \"contracts/Test1.sol\":626:627  i */\n      dup2\n        /* \"contracts/Test1.sol\":626:642  i < users.length */\n      lt\n        /* \"contracts/Test1.sol\":610:776  for(uint i = 0; i < users.length; i++){... */\n      iszero\n      tag_38\n      jumpi\n        /* \"contracts/Test1.sol\":691:704  walletAddress */\n      dup2\n        /* \"contracts/Test1.sol\":665:704  users[i].walletAddress == walletAddress */\n      0xffffffffffffffffffffffffffffffffffffffff\n      and\n        /* \"contracts/Test1.sol\":665:670  users */\n      0x01\n        /* \"contracts/Test1.sol\":671:672  i */\n      dup3\n        /* \"contracts/Test1.sol\":665:673  users[i] */\n      dup2\n      sload\n      dup2\n      lt\n      tag_40\n      jumpi\n      tag_41\n      tag_42\n      jump\t// in\n    tag_41:\n    tag_40:\n      swap1\n      0x00\n      mstore\n      keccak256(0x00, 0x20)\n      swap1\n      0x03\n      mul\n      add\n        /* \"contracts/Test1.sol\":665:687  users[i].walletAddress */\n      0x00\n      add\n      0x00\n      swap1\n      sload\n      swap1\n      0x0100\n      exp\n      swap1\n      div\n      0xffffffffffffffffffffffffffffffffffffffff\n      and\n        /* \"contracts/Test1.sol\":665:704  users[i].walletAddress == walletAddress */\n      0xffffffffffffffffffffffffffffffffffffffff\n      and\n      sub\n        /* \"contracts/Test1.sol\":662:766  if(users[i].walletAddress == walletAddress){... */\n      tag_44\n      jumpi\n        /* \"contracts/Test1.sol\":742:751  msg.value */\n      callvalue\n        /* \"contracts/Test1.sol\":723:728  users */\n      0x01\n        /* \"contracts/Test1.sol\":729:730  i */\n      dup3\n        /* \"contracts/Test1.sol\":723:731  users[i] */\n      dup2\n      sload\n      dup2\n      lt\n      tag_45\n      jumpi\n      tag_46\n      tag_42\n      jump\t// in\n    tag_46:\n    tag_45:\n      swap1\n      0x00\n      mstore\n      keccak256(0x00, 0x20)\n      swap1\n      0x03\n      mul\n      add\n        /* \"contracts/Test1.sol\":723:738  users[i].amount */\n      0x02\n      add\n      0x00\n        /* \"contracts/Test1.sol\":723:751  users[i].amount += msg.value */\n      dup3\n      dup3\n      sload\n      tag_48\n      swap2\n      swap1\n      tag_49\n      jump\t// in\n    tag_48:\n      swap3\n      pop\n      pop\n      dup2\n      swap1\n      sstore\n      pop\n        /* \"contracts/Test1.sol\":662:766  if(users[i].walletAddress == walletAddress){... */\n    tag_44:\n        /* \"contracts/Test1.sol\":644:647  i++ */\n      dup1\n      dup1\n      tag_50\n      swap1\n      tag_51\n      jump\t// in\n    tag_50:\n      swap2\n      pop\n      pop\n        /* \"contracts/Test1.sol\":610:776  for(uint i = 0; i < users.length; i++){... */\n      jump(tag_37)\n    tag_38:\n      pop\n        /* \"contracts/Test1.sol\":542:782  function transferToAddress(address walletAddress) private {... */\n      pop\n      jump\t// out\n        /* \"#utility.yul\":7:82   */\n    tag_52:\n        /* \"#utility.yul\":40:46   */\n      0x00\n        /* \"#utility.yul\":73:75   */\n      0x40\n        /* \"#utility.yul\":67:76   */\n      mload\n        /* \"#utility.yul\":57:76   */\n      swap1\n      pop\n        /* \"#utility.yul\":7:82   */\n      swap1\n      jump\t// out\n        /* \"#utility.yul\":88:205   */\n    tag_53:\n        /* \"#utility.yul\":197:198   */\n      0x00\n        /* \"#utility.yul\":194:195   */\n      dup1\n        /* \"#utility.yul\":187:199   */\n      revert\n        /* \"#utility.yul\":211:328   */\n    tag_54:\n        /* \"#utility.yul\":320:321   */\n      0x00\n        /* \"#utility.yul\":317:318   */\n      dup1\n        /* \"#utility.yul\":310:322   */\n      revert\n        /* \"#utility.yul\":334:460   */\n    tag_55:\n        /* \"#utility.yul\":371:378   */\n      0x00\n        /* \"#utility.yul\":411:453   */\n      0xffffffffffffffffffffffffffffffffffffffff\n        /* \"#utility.yul\":404:409   */\n      dup3\n        /* \"#utility.yul\":400:454   */\n      and\n        /* \"#utility.yul\":389:454   */\n      swap1\n      pop\n        /* \"#utility.yul\":334:460   */\n      swap2\n      swap1\n      pop\n      jump\t// out\n        /* \"#utility.yul\":466:562   */\n    tag_56:\n        /* \"#utility.yul\":503:510   */\n      0x00\n        /* \"#utility.yul\":532:556   */\n      tag_101\n        /* \"#utility.yul\":550:555   */\n      dup3\n        /* \"#utility.yul\":532:556   */\n      tag_55\n      jump\t// in\n    tag_101:\n        /* \"#utility.yul\":521:556   */\n      swap1\n      pop\n        /* \"#utility.yul\":466:562   */\n      swap2\n      swap1\n      pop\n      jump\t// out\n        /* \"#utility.yul\":568:690   */\n    tag_57:\n        /* \"#utility.yul\":641:665   */\n      tag_103\n        /* \"#utility.yul\":659:664   */\n      dup2\n        /* \"#utility.yul\":641:665   */\n      tag_56\n      jump\t// in\n    tag_103:\n        /* \"#utility.yul\":634:639   */\n      dup2\n        /* \"#utility.yul\":631:666   */\n      eq\n        /* \"#utility.yul\":621:684   */\n      tag_104\n      jumpi\n        /* \"#utility.yul\":680:681   */\n      0x00\n        /* \"#utility.yul\":677:678   */\n      dup1\n        /* \"#utility.yul\":670:682   */\n      revert\n        /* \"#utility.yul\":621:684   */\n    tag_104:\n        /* \"#utility.yul\":568:690   */\n      pop\n      jump\t// out\n        /* \"#utility.yul\":696:835   */\n    tag_58:\n        /* \"#utility.yul\":742:747   */\n      0x00\n        /* \"#utility.yul\":780:786   */\n      dup2\n        /* \"#utility.yul\":767:787   */\n      calldataload\n        /* \"#utility.yul\":758:787   */\n      swap1\n      pop\n        /* \"#utility.yul\":796:829   */\n      tag_106\n        /* \"#utility.yul\":823:828   */\n      dup2\n        /* \"#utility.yul\":796:829   */\n      tag_57\n      jump\t// in\n    tag_106:\n        /* \"#utility.yul\":696:835   */\n      swap3\n      swap2\n      pop\n      pop\n      jump\t// out\n        /* \"#utility.yul\":841:1170   */\n    tag_7:\n        /* \"#utility.yul\":900:906   */\n      0x00\n        /* \"#utility.yul\":949:951   */\n      0x20\n        /* \"#utility.yul\":937:946   */\n      dup3\n        /* \"#utility.yul\":928:935   */\n      dup5\n        /* \"#utility.yul\":924:947   */\n      sub\n        /* \"#utility.yul\":920:952   */\n      slt\n        /* \"#utility.yul\":917:1036   */\n      iszero\n      tag_108\n      jumpi\n        /* \"#utility.yul\":955:1034   */\n      tag_109\n      tag_53\n      jump\t// in\n    tag_109:\n        /* \"#utility.yul\":917:1036   */\n    tag_108:\n        /* \"#utility.yul\":1075:1076   */\n      0x00\n        /* \"#utility.yul\":1100:1153   */\n      tag_110\n        /* \"#utility.yul\":1145:1152   */\n      dup5\n        /* \"#utility.yul\":1136:1142   */\n      dup3\n        /* \"#utility.yul\":1125:1134   */\n      dup6\n        /* \"#utility.yul\":1121:1143   */\n      add\n        /* \"#utility.yul\":1100:1153   */\n      tag_58\n      jump\t// in\n    tag_110:\n        /* \"#utility.yul\":1090:1153   */\n      swap2\n      pop\n        /* \"#utility.yul\":1046:1163   */\n      pop\n        /* \"#utility.yul\":841:1170   */\n      swap3\n      swap2\n      pop\n      pop\n      jump\t// out\n        /* \"#utility.yul\":1176:1253   */\n    tag_59:\n        /* \"#utility.yul\":1213:1220   */\n      0x00\n        /* \"#utility.yul\":1242:1247   */\n      dup2\n        /* \"#utility.yul\":1231:1247   */\n      swap1\n      pop\n        /* \"#utility.yul\":1176:1253   */\n      swap2\n      swap1\n      pop\n      jump\t// out\n        /* \"#utility.yul\":1259:1381   */\n    tag_60:\n        /* \"#utility.yul\":1332:1356   */\n      tag_113\n        /* \"#utility.yul\":1350:1355   */\n      dup2\n        /* \"#utility.yul\":1332:1356   */\n      tag_59\n      jump\t// in\n    tag_113:\n        /* \"#utility.yul\":1325:1330   */\n      dup2\n        /* \"#utility.yul\":1322:1357   */\n      eq\n        /* \"#utility.yul\":1312:1375   */\n      tag_114\n      jumpi\n        /* \"#utility.yul\":1371:1372   */\n      0x00\n        /* \"#utility.yul\":1368:1369   */\n      dup1\n        /* \"#utility.yul\":1361:1373   */\n      revert\n        /* \"#utility.yul\":1312:1375   */\n    tag_114:\n        /* \"#utility.yul\":1259:1381   */\n      pop\n      jump\t// out\n        /* \"#utility.yul\":1387:1526   */\n    tag_61:\n        /* \"#utility.yul\":1433:1438   */\n      0x00\n        /* \"#utility.yul\":1471:1477   */\n      dup2\n        /* \"#utility.yul\":1458:1478   */\n      calldataload\n        /* \"#utility.yul\":1449:1478   */\n      swap1\n      pop\n        /* \"#utility.yul\":1487:1520   */\n      tag_116\n        /* \"#utility.yul\":1514:1519   */\n      dup2\n        /* \"#utility.yul\":1487:1520   */\n      tag_60\n      jump\t// in\n    tag_116:\n        /* \"#utility.yul\":1387:1526   */\n      swap3\n      swap2\n      pop\n      pop\n      jump\t// out\n        /* \"#utility.yul\":1532:1861   */\n    tag_12:\n        /* \"#utility.yul\":1591:1597   */\n      0x00\n        /* \"#utility.yul\":1640:1642   */\n      0x20\n        /* \"#utility.yul\":1628:1637   */\n      dup3\n        /* \"#utility.yul\":1619:1626   */\n      dup5\n        /* \"#utility.yul\":1615:1638   */\n      sub\n        /* \"#utility.yul\":1611:1643   */\n      slt\n        /* \"#utility.yul\":1608:1727   */\n      iszero\n      tag_118\n      jumpi\n        /* \"#utility.yul\":1646:1725   */\n      tag_119\n      tag_53\n      jump\t// in\n    tag_119:\n        /* \"#utility.yul\":1608:1727   */\n    tag_118:\n        /* \"#utility.yul\":1766:1767   */\n      0x00\n        /* \"#utility.yul\":1791:1844   */\n      tag_120\n        /* \"#utility.yul\":1836:1843   */\n      dup5\n        /* \"#utility.yul\":1827:1833   */\n      dup3\n        /* \"#utility.yul\":1816:1825   */\n      dup6\n        /* \"#utility.yul\":1812:1834   */\n      add\n        /* \"#utility.yul\":1791:1844   */\n      tag_61\n      jump\t// in\n    tag_120:\n        /* \"#utility.yul\":1781:1844   */\n      swap2\n      pop\n        /* \"#utility.yul\":1737:1854   */\n      pop\n        /* \"#utility.yul\":1532:1861   */\n      swap3\n      swap2\n      pop\n      pop\n      jump\t// out\n        /* \"#utility.yul\":1867:1985   */\n    tag_62:\n        /* \"#utility.yul\":1954:1978   */\n      tag_122\n        /* \"#utility.yul\":1972:1977   */\n      dup2\n        /* \"#utility.yul\":1954:1978   */\n      tag_56\n      jump\t// in\n    tag_122:\n        /* \"#utility.yul\":1949:1952   */\n      dup3\n        /* \"#utility.yul\":1942:1979   */\n      mstore\n        /* \"#utility.yul\":1867:1985   */\n      pop\n      pop\n      jump\t// out\n        /* \"#utility.yul\":1991:2090   */\n    tag_63:\n        /* \"#utility.yul\":2043:2049   */\n      0x00\n        /* \"#utility.yul\":2077:2082   */\n      dup2\n        /* \"#utility.yul\":2071:2083   */\n      mload\n        /* \"#utility.yul\":2061:2083   */\n      swap1\n      pop\n        /* \"#utility.yul\":1991:2090   */\n      swap2\n      swap1\n      pop\n      jump\t// out\n        /* \"#utility.yul\":2096:2265   */\n    tag_64:\n        /* \"#utility.yul\":2180:2191   */\n      0x00\n        /* \"#utility.yul\":2214:2220   */\n      dup3\n        /* \"#utility.yul\":2209:2212   */\n      dup3\n        /* \"#utility.yul\":2202:2221   */\n      mstore\n        /* \"#utility.yul\":2254:2258   */\n      0x20\n        /* \"#utility.yul\":2249:2252   */\n      dup3\n        /* \"#utility.yul\":2245:2259   */\n      add\n        /* \"#utility.yul\":2230:2259   */\n      swap1\n      pop\n        /* \"#utility.yul\":2096:2265   */\n      swap3\n      swap2\n      pop\n      pop\n      jump\t// out\n        /* \"#utility.yul\":2271:2578   */\n    tag_65:\n        /* \"#utility.yul\":2339:2340   */\n      0x00\n        /* \"#utility.yul\":2349:2462   */\n    tag_126:\n        /* \"#utility.yul\":2363:2369   */\n      dup4\n        /* \"#utility.yul\":2360:2361   */\n      dup2\n        /* \"#utility.yul\":2357:2370   */\n      lt\n        /* \"#utility.yul\":2349:2462   */\n      iszero\n      tag_128\n      jumpi\n        /* \"#utility.yul\":2448:2449   */\n      dup1\n        /* \"#utility.yul\":2443:2446   */\n      dup3\n        /* \"#utility.yul\":2439:2450   */\n      add\n        /* \"#utility.yul\":2433:2451   */\n      mload\n        /* \"#utility.yul\":2429:2430   */\n      dup2\n        /* \"#utility.yul\":2424:2427   */\n      dup5\n        /* \"#utility.yul\":2420:2431   */\n      add\n        /* \"#utility.yul\":2413:2452   */\n      mstore\n        /* \"#utility.yul\":2385:2387   */\n      0x20\n        /* \"#utility.yul\":2382:2383   */\n      dup2\n        /* \"#utility.yul\":2378:2388   */\n      add\n        /* \"#utility.yul\":2373:2388   */\n      swap1\n      pop\n        /* \"#utility.yul\":2349:2462   */\n      jump(tag_126)\n    tag_128:\n        /* \"#utility.yul\":2480:2486   */\n      dup4\n        /* \"#utility.yul\":2477:2478   */\n      dup2\n        /* \"#utility.yul\":2474:2487   */\n      gt\n        /* \"#utility.yul\":2471:2572   */\n      iszero\n      tag_129\n      jumpi\n        /* \"#utility.yul\":2560:2561   */\n      0x00\n        /* \"#utility.yul\":2551:2557   */\n      dup5\n        /* \"#utility.yul\":2546:2549   */\n      dup5\n        /* \"#utility.yul\":2542:2558   */\n      add\n        /* \"#utility.yul\":2535:2562   */\n      mstore\n        /* \"#utility.yul\":2471:2572   */\n    tag_129:\n        /* \"#utility.yul\":2320:2578   */\n      pop\n        /* \"#utility.yul\":2271:2578   */\n      pop\n      pop\n      pop\n      jump\t// out\n        /* \"#utility.yul\":2584:2686   */\n    tag_66:\n        /* \"#utility.yul\":2625:2631   */\n      0x00\n        /* \"#utility.yul\":2676:2678   */\n      0x1f\n        /* \"#utility.yul\":2672:2679   */\n      not\n        /* \"#utility.yul\":2667:2669   */\n      0x1f\n        /* \"#utility.yul\":2660:2665   */\n      dup4\n        /* \"#utility.yul\":2656:2670   */\n      add\n        /* \"#utility.yul\":2652:2680   */\n      and\n        /* \"#utility.yul\":2642:2680   */\n      swap1\n      pop\n        /* \"#utility.yul\":2584:2686   */\n      swap2\n      swap1\n      pop\n      jump\t// out\n        /* \"#utility.yul\":2692:3056   */\n    tag_67:\n        /* \"#utility.yul\":2780:2783   */\n      0x00\n        /* \"#utility.yul\":2808:2847   */\n      tag_132\n        /* \"#utility.yul\":2841:2846   */\n      dup3\n        /* \"#utility.yul\":2808:2847   */\n      tag_63\n      jump\t// in\n    tag_132:\n        /* \"#utility.yul\":2863:2934   */\n      tag_133\n        /* \"#utility.yul\":2927:2933   */\n      dup2\n        /* \"#utility.yul\":2922:2925   */\n      dup6\n        /* \"#utility.yul\":2863:2934   */\n      tag_64\n      jump\t// in\n    tag_133:\n        /* \"#utility.yul\":2856:2934   */\n      swap4\n      pop\n        /* \"#utility.yul\":2943:2995   */\n      tag_134\n        /* \"#utility.yul\":2988:2994   */\n      dup2\n        /* \"#utility.yul\":2983:2986   */\n      dup6\n        /* \"#utility.yul\":2976:2980   */\n      0x20\n        /* \"#utility.yul\":2969:2974   */\n      dup7\n        /* \"#utility.yul\":2965:2981   */\n      add\n        /* \"#utility.yul\":2943:2995   */\n      tag_65\n      jump\t// in\n    tag_134:\n        /* \"#utility.yul\":3020:3049   */\n      tag_135\n        /* \"#utility.yul\":3042:3048   */\n      dup2\n        /* \"#utility.yul\":3020:3049   */\n      tag_66\n      jump\t// in\n    tag_135:\n        /* \"#utility.yul\":3015:3018   */\n      dup5\n        /* \"#utility.yul\":3011:3050   */\n      add\n        /* \"#utility.yul\":3004:3050   */\n      swap2\n      pop\n        /* \"#utility.yul\":2784:3056   */\n      pop\n        /* \"#utility.yul\":2692:3056   */\n      swap3\n      swap2\n      pop\n      pop\n      jump\t// out\n        /* \"#utility.yul\":3062:3180   */\n    tag_68:\n        /* \"#utility.yul\":3149:3173   */\n      tag_137\n        /* \"#utility.yul\":3167:3172   */\n      dup2\n        /* \"#utility.yul\":3149:3173   */\n      tag_59\n      jump\t// in\n    tag_137:\n        /* \"#utility.yul\":3144:3147   */\n      dup3\n        /* \"#utility.yul\":3137:3174   */\n      mstore\n        /* \"#utility.yul\":3062:3180   */\n      pop\n      pop\n      jump\t// out\n        /* \"#utility.yul\":3186:3719   */\n    tag_15:\n        /* \"#utility.yul\":3355:3359   */\n      0x00\n        /* \"#utility.yul\":3393:3395   */\n      0x60\n        /* \"#utility.yul\":3382:3391   */\n      dup3\n        /* \"#utility.yul\":3378:3396   */\n      add\n        /* \"#utility.yul\":3370:3396   */\n      swap1\n      pop\n        /* \"#utility.yul\":3406:3477   */\n      tag_139\n        /* \"#utility.yul\":3474:3475   */\n      0x00\n        /* \"#utility.yul\":3463:3472   */\n      dup4\n        /* \"#utility.yul\":3459:3476   */\n      add\n        /* \"#utility.yul\":3450:3456   */\n      dup7\n        /* \"#utility.yul\":3406:3477   */\n      tag_62\n      jump\t// in\n    tag_139:\n        /* \"#utility.yul\":3524:3533   */\n      dup2\n        /* \"#utility.yul\":3518:3522   */\n      dup2\n        /* \"#utility.yul\":3514:3534   */\n      sub\n        /* \"#utility.yul\":3509:3511   */\n      0x20\n        /* \"#utility.yul\":3498:3507   */\n      dup4\n        /* \"#utility.yul\":3494:3512   */\n      add\n        /* \"#utility.yul\":3487:3535   */\n      mstore\n        /* \"#utility.yul\":3552:3630   */\n      tag_140\n        /* \"#utility.yul\":3625:3629   */\n      dup2\n        /* \"#utility.yul\":3616:3622   */\n      dup6\n        /* \"#utility.yul\":3552:3630   */\n      tag_67\n      jump\t// in\n    tag_140:\n        /* \"#utility.yul\":3544:3630   */\n      swap1\n      pop\n        /* \"#utility.yul\":3640:3712   */\n      tag_141\n        /* \"#utility.yul\":3708:3710   */\n      0x40\n        /* \"#utility.yul\":3697:3706   */\n      dup4\n        /* \"#utility.yul\":3693:3711   */\n      add\n        /* \"#utility.yul\":3684:3690   */\n      dup5\n        /* \"#utility.yul\":3640:3712   */\n      tag_68\n      jump\t// in\n    tag_141:\n        /* \"#utility.yul\":3186:3719   */\n      swap5\n      swap4\n      pop\n      pop\n      pop\n      pop\n      jump\t// out\n        /* \"#utility.yul\":3725:3842   */\n    tag_69:\n        /* \"#utility.yul\":3834:3835   */\n      0x00\n        /* \"#utility.yul\":3831:3832   */\n      dup1\n        /* \"#utility.yul\":3824:3836   */\n      revert\n        /* \"#utility.yul\":3848:3965   */\n    tag_70:\n        /* \"#utility.yul\":3957:3958   */\n      0x00\n        /* \"#utility.yul\":3954:3955   */\n      dup1\n        /* \"#utility.yul\":3947:3959   */\n      revert\n        /* \"#utility.yul\":3971:4151   */\n    tag_71:\n        /* \"#utility.yul\":4019:4096   */\n      0x4e487b7100000000000000000000000000000000000000000000000000000000\n        /* \"#utility.yul\":4016:4017   */\n      0x00\n        /* \"#utility.yul\":4009:4097   */\n      mstore\n        /* \"#utility.yul\":4116:4120   */\n      0x41\n        /* \"#utility.yul\":4113:4114   */\n      0x04\n        /* \"#utility.yul\":4106:4121   */\n      mstore\n        /* \"#utility.yul\":4140:4144   */\n      0x24\n        /* \"#utility.yul\":4137:4138   */\n      0x00\n        /* \"#utility.yul\":4130:4145   */\n      revert\n        /* \"#utility.yul\":4157:4438   */\n    tag_72:\n        /* \"#utility.yul\":4240:4267   */\n      tag_146\n        /* \"#utility.yul\":4262:4266   */\n      dup3\n        /* \"#utility.yul\":4240:4267   */\n      tag_66\n      jump\t// in\n    tag_146:\n        /* \"#utility.yul\":4232:4238   */\n      dup2\n        /* \"#utility.yul\":4228:4268   */\n      add\n        /* \"#utility.yul\":4370:4376   */\n      dup2\n        /* \"#utility.yul\":4358:4368   */\n      dup2\n        /* \"#utility.yul\":4355:4377   */\n      lt\n        /* \"#utility.yul\":4334:4352   */\n      0xffffffffffffffff\n        /* \"#utility.yul\":4322:4332   */\n      dup3\n        /* \"#utility.yul\":4319:4353   */\n      gt\n        /* \"#utility.yul\":4316:4378   */\n      or\n        /* \"#utility.yul\":4313:4401   */\n      iszero\n      tag_147\n      jumpi\n        /* \"#utility.yul\":4381:4399   */\n      tag_148\n      tag_71\n      jump\t// in\n    tag_148:\n        /* \"#utility.yul\":4313:4401   */\n    tag_147:\n        /* \"#utility.yul\":4421:4431   */\n      dup1\n        /* \"#utility.yul\":4417:4419   */\n      0x40\n        /* \"#utility.yul\":4410:4432   */\n      mstore\n        /* \"#utility.yul\":4200:4438   */\n      pop\n        /* \"#utility.yul\":4157:4438   */\n      pop\n      pop\n      jump\t// out\n        /* \"#utility.yul\":4444:4573   */\n    tag_73:\n        /* \"#utility.yul\":4478:4484   */\n      0x00\n        /* \"#utility.yul\":4505:4525   */\n      tag_150\n      tag_52\n      jump\t// in\n    tag_150:\n        /* \"#utility.yul\":4495:4525   */\n      swap1\n      pop\n        /* \"#utility.yul\":4534:4567   */\n      tag_151\n        /* \"#utility.yul\":4562:4566   */\n      dup3\n        /* \"#utility.yul\":4554:4560   */\n      dup3\n        /* \"#utility.yul\":4534:4567   */\n      tag_72\n      jump\t// in\n    tag_151:\n        /* \"#utility.yul\":4444:4573   */\n      swap2\n      swap1\n      pop\n      jump\t// out\n        /* \"#utility.yul\":4579:4887   */\n    tag_74:\n        /* \"#utility.yul\":4641:4645   */\n      0x00\n        /* \"#utility.yul\":4731:4749   */\n      0xffffffffffffffff\n        /* \"#utility.yul\":4723:4729   */\n      dup3\n        /* \"#utility.yul\":4720:4750   */\n      gt\n        /* \"#utility.yul\":4717:4773   */\n      iszero\n      tag_153\n      jumpi\n        /* \"#utility.yul\":4753:4771   */\n      tag_154\n      tag_71\n      jump\t// in\n    tag_154:\n        /* \"#utility.yul\":4717:4773   */\n    tag_153:\n        /* \"#utility.yul\":4791:4820   */\n      tag_155\n        /* \"#utility.yul\":4813:4819   */\n      dup3\n        /* \"#utility.yul\":4791:4820   */\n      tag_66\n      jump\t// in\n    tag_155:\n        /* \"#utility.yul\":4783:4820   */\n      swap1\n      pop\n        /* \"#utility.yul\":4875:4879   */\n      0x20\n        /* \"#utility.yul\":4869:4873   */\n      dup2\n        /* \"#utility.yul\":4865:4880   */\n      add\n        /* \"#utility.yul\":4857:4880   */\n      swap1\n      pop\n        /* \"#utility.yul\":4579:4887   */\n      swap2\n      swap1\n      pop\n      jump\t// out\n        /* \"#utility.yul\":4893:5047   */\n    tag_75:\n        /* \"#utility.yul\":4977:4983   */\n      dup3\n        /* \"#utility.yul\":4972:4975   */\n      dup2\n        /* \"#utility.yul\":4967:4970   */\n      dup4\n        /* \"#utility.yul\":4954:4984   */\n      calldatacopy\n        /* \"#utility.yul\":5039:5040   */\n      0x00\n        /* \"#utility.yul\":5030:5036   */\n      dup4\n        /* \"#utility.yul\":5025:5028   */\n      dup4\n        /* \"#utility.yul\":5021:5037   */\n      add\n        /* \"#utility.yul\":5014:5041   */\n      mstore\n        /* \"#utility.yul\":4893:5047   */\n      pop\n      pop\n      pop\n      jump\t// out\n        /* \"#utility.yul\":5053:5465   */\n    tag_76:\n        /* \"#utility.yul\":5131:5136   */\n      0x00\n        /* \"#utility.yul\":5156:5222   */\n      tag_158\n        /* \"#utility.yul\":5172:5221   */\n      tag_159\n        /* \"#utility.yul\":5214:5220   */\n      dup5\n        /* \"#utility.yul\":5172:5221   */\n      tag_74\n      jump\t// in\n    tag_159:\n        /* \"#utility.yul\":5156:5222   */\n      tag_73\n      jump\t// in\n    tag_158:\n        /* \"#utility.yul\":5147:5222   */\n      swap1\n      pop\n        /* \"#utility.yul\":5245:5251   */\n      dup3\n        /* \"#utility.yul\":5238:5243   */\n      dup2\n        /* \"#utility.yul\":5231:5252   */\n      mstore\n        /* \"#utility.yul\":5283:5287   */\n      0x20\n        /* \"#utility.yul\":5276:5281   */\n      dup2\n        /* \"#utility.yul\":5272:5288   */\n      add\n        /* \"#utility.yul\":5321:5324   */\n      dup5\n        /* \"#utility.yul\":5312:5318   */\n      dup5\n        /* \"#utility.yul\":5307:5310   */\n      dup5\n        /* \"#utility.yul\":5303:5319   */\n      add\n        /* \"#utility.yul\":5300:5325   */\n      gt\n        /* \"#utility.yul\":5297:5409   */\n      iszero\n      tag_160\n      jumpi\n        /* \"#utility.yul\":5328:5407   */\n      tag_161\n      tag_70\n      jump\t// in\n    tag_161:\n        /* \"#utility.yul\":5297:5409   */\n    tag_160:\n        /* \"#utility.yul\":5418:5459   */\n      tag_162\n        /* \"#utility.yul\":5452:5458   */\n      dup5\n        /* \"#utility.yul\":5447:5450   */\n      dup3\n        /* \"#utility.yul\":5442:5445   */\n      dup6\n        /* \"#utility.yul\":5418:5459   */\n      tag_75\n      jump\t// in\n    tag_162:\n        /* \"#utility.yul\":5137:5465   */\n      pop\n        /* \"#utility.yul\":5053:5465   */\n      swap4\n      swap3\n      pop\n      pop\n      pop\n      jump\t// out\n        /* \"#utility.yul\":5485:5825   */\n    tag_77:\n        /* \"#utility.yul\":5541:5546   */\n      0x00\n        /* \"#utility.yul\":5590:5593   */\n      dup3\n        /* \"#utility.yul\":5583:5587   */\n      0x1f\n        /* \"#utility.yul\":5575:5581   */\n      dup4\n        /* \"#utility.yul\":5571:5588   */\n      add\n        /* \"#utility.yul\":5567:5594   */\n      slt\n        /* \"#utility.yul\":5557:5679   */\n      tag_164\n      jumpi\n        /* \"#utility.yul\":5598:5677   */\n      tag_165\n      tag_69\n      jump\t// in\n    tag_165:\n        /* \"#utility.yul\":5557:5679   */\n    tag_164:\n        /* \"#utility.yul\":5715:5721   */\n      dup2\n        /* \"#utility.yul\":5702:5722   */\n      calldataload\n        /* \"#utility.yul\":5740:5819   */\n      tag_166\n        /* \"#utility.yul\":5815:5818   */\n      dup5\n        /* \"#utility.yul\":5807:5813   */\n      dup3\n        /* \"#utility.yul\":5800:5804   */\n      0x20\n        /* \"#utility.yul\":5792:5798   */\n      dup7\n        /* \"#utility.yul\":5788:5805   */\n      add\n        /* \"#utility.yul\":5740:5819   */\n      tag_76\n      jump\t// in\n    tag_166:\n        /* \"#utility.yul\":5731:5819   */\n      swap2\n      pop\n        /* \"#utility.yul\":5547:5825   */\n      pop\n        /* \"#utility.yul\":5485:5825   */\n      swap3\n      swap2\n      pop\n      pop\n      jump\t// out\n        /* \"#utility.yul\":5831:6630   */\n    tag_19:\n        /* \"#utility.yul\":5918:5924   */\n      0x00\n        /* \"#utility.yul\":5926:5932   */\n      dup1\n        /* \"#utility.yul\":5934:5940   */\n      0x00\n        /* \"#utility.yul\":5983:5985   */\n      0x60\n        /* \"#utility.yul\":5971:5980   */\n      dup5\n        /* \"#utility.yul\":5962:5969   */\n      dup7\n        /* \"#utility.yul\":5958:5981   */\n      sub\n        /* \"#utility.yul\":5954:5986   */\n      slt\n        /* \"#utility.yul\":5951:6070   */\n      iszero\n      tag_168\n      jumpi\n        /* \"#utility.yul\":5989:6068   */\n      tag_169\n      tag_53\n      jump\t// in\n    tag_169:\n        /* \"#utility.yul\":5951:6070   */\n    tag_168:\n        /* \"#utility.yul\":6109:6110   */\n      0x00\n        /* \"#utility.yul\":6134:6187   */\n      tag_170\n        /* \"#utility.yul\":6179:6186   */\n      dup7\n        /* \"#utility.yul\":6170:6176   */\n      dup3\n        /* \"#utility.yul\":6159:6168   */\n      dup8\n        /* \"#utility.yul\":6155:6177   */\n      add\n        /* \"#utility.yul\":6134:6187   */\n      tag_58\n      jump\t// in\n    tag_170:\n        /* \"#utility.yul\":6124:6187   */\n      swap4\n      pop\n        /* \"#utility.yul\":6080:6197   */\n      pop\n        /* \"#utility.yul\":6264:6266   */\n      0x20\n        /* \"#utility.yul\":6253:6262   */\n      dup5\n        /* \"#utility.yul\":6249:6267   */\n      add\n        /* \"#utility.yul\":6236:6268   */\n      calldataload\n        /* \"#utility.yul\":6295:6313   */\n      0xffffffffffffffff\n        /* \"#utility.yul\":6287:6293   */\n      dup2\n        /* \"#utility.yul\":6284:6314   */\n      gt\n        /* \"#utility.yul\":6281:6398   */\n      iszero\n      tag_171\n      jumpi\n        /* \"#utility.yul\":6317:6396   */\n      tag_172\n      tag_54\n      jump\t// in\n    tag_172:\n        /* \"#utility.yul\":6281:6398   */\n    tag_171:\n        /* \"#utility.yul\":6422:6485   */\n      tag_173\n        /* \"#utility.yul\":6477:6484   */\n      dup7\n        /* \"#utility.yul\":6468:6474   */\n      dup3\n        /* \"#utility.yul\":6457:6466   */\n      dup8\n        /* \"#utility.yul\":6453:6475   */\n      add\n        /* \"#utility.yul\":6422:6485   */\n      tag_77\n      jump\t// in\n    tag_173:\n        /* \"#utility.yul\":6412:6485   */\n      swap3\n      pop\n        /* \"#utility.yul\":6207:6495   */\n      pop\n        /* \"#utility.yul\":6534:6536   */\n      0x40\n        /* \"#utility.yul\":6560:6613   */\n      tag_174\n        /* \"#utility.yul\":6605:6612   */\n      dup7\n        /* \"#utility.yul\":6596:6602   */\n      dup3\n        /* \"#utility.yul\":6585:6594   */\n      dup8\n        /* \"#utility.yul\":6581:6603   */\n      add\n        /* \"#utility.yul\":6560:6613   */\n      tag_61\n      jump\t// in\n    tag_174:\n        /* \"#utility.yul\":6550:6613   */\n      swap2\n      pop\n        /* \"#utility.yul\":6505:6623   */\n      pop\n        /* \"#utility.yul\":5831:6630   */\n      swap3\n      pop\n      swap3\n      pop\n      swap3\n      jump\t// out\n        /* \"#utility.yul\":6636:6816   */\n    tag_78:\n        /* \"#utility.yul\":6684:6761   */\n      0x4e487b7100000000000000000000000000000000000000000000000000000000\n        /* \"#utility.yul\":6681:6682   */\n      0x00\n        /* \"#utility.yul\":6674:6762   */\n      mstore\n        /* \"#utility.yul\":6781:6785   */\n      0x22\n        /* \"#utility.yul\":6778:6779   */\n      0x04\n        /* \"#utility.yul\":6771:6786   */\n      mstore\n        /* \"#utility.yul\":6805:6809   */\n      0x24\n        /* \"#utility.yul\":6802:6803   */\n      0x00\n        /* \"#utility.yul\":6795:6810   */\n      revert\n        /* \"#utility.yul\":6822:7142   */\n    tag_27:\n        /* \"#utility.yul\":6866:6872   */\n      0x00\n        /* \"#utility.yul\":6903:6904   */\n      0x02\n        /* \"#utility.yul\":6897:6901   */\n      dup3\n        /* \"#utility.yul\":6893:6905   */\n      div\n        /* \"#utility.yul\":6883:6905   */\n      swap1\n      pop\n        /* \"#utility.yul\":6950:6951   */\n      0x01\n        /* \"#utility.yul\":6944:6948   */\n      dup3\n        /* \"#utility.yul\":6940:6952   */\n      and\n        /* \"#utility.yul\":6971:6989   */\n      dup1\n        /* \"#utility.yul\":6961:7042   */\n      tag_177\n      jumpi\n        /* \"#utility.yul\":7027:7031   */\n      0x7f\n        /* \"#utility.yul\":7019:7025   */\n      dup3\n        /* \"#utility.yul\":7015:7032   */\n      and\n        /* \"#utility.yul\":7005:7032   */\n      swap2\n      pop\n        /* \"#utility.yul\":6961:7042   */\n    tag_177:\n        /* \"#utility.yul\":7089:7091   */\n      0x20\n        /* \"#utility.yul\":7081:7087   */\n      dup3\n        /* \"#utility.yul\":7078:7092   */\n      lt\n        /* \"#utility.yul\":7058:7076   */\n      dup2\n        /* \"#utility.yul\":7055:7093   */\n      sub\n        /* \"#utility.yul\":7052:7136   */\n      tag_178\n      jumpi\n        /* \"#utility.yul\":7108:7126   */\n      tag_179\n      tag_78\n      jump\t// in\n    tag_179:\n        /* \"#utility.yul\":7052:7136   */\n    tag_178:\n        /* \"#utility.yul\":6873:7142   */\n      pop\n        /* \"#utility.yul\":6822:7142   */\n      swap2\n      swap1\n      pop\n      jump\t// out\n        /* \"#utility.yul\":7148:7289   */\n    tag_79:\n        /* \"#utility.yul\":7197:7201   */\n      0x00\n        /* \"#utility.yul\":7220:7223   */\n      dup2\n        /* \"#utility.yul\":7212:7223   */\n      swap1\n      pop\n        /* \"#utility.yul\":7243:7246   */\n      dup2\n        /* \"#utility.yul\":7240:7241   */\n      0x00\n        /* \"#utility.yul\":7233:7247   */\n      mstore\n        /* \"#utility.yul\":7277:7281   */\n      0x20\n        /* \"#utility.yul\":7274:7275   */\n      0x00\n        /* \"#utility.yul\":7264:7282   */\n      keccak256\n        /* \"#utility.yul\":7256:7282   */\n      swap1\n      pop\n        /* \"#utility.yul\":7148:7289   */\n      swap2\n      swap1\n      pop\n      jump\t// out\n        /* \"#utility.yul\":7295:7388   */\n    tag_80:\n        /* \"#utility.yul\":7332:7338   */\n      0x00\n        /* \"#utility.yul\":7379:7381   */\n      0x20\n        /* \"#utility.yul\":7374:7376   */\n      0x1f\n        /* \"#utility.yul\":7367:7372   */\n      dup4\n        /* \"#utility.yul\":7363:7377   */\n      add\n        /* \"#utility.yul\":7359:7382   */\n      div\n        /* \"#utility.yul\":7349:7382   */\n      swap1\n      pop\n        /* \"#utility.yul\":7295:7388   */\n      swap2\n      swap1\n      pop\n      jump\t// out\n        /* \"#utility.yul\":7394:7501   */\n    tag_81:\n        /* \"#utility.yul\":7438:7446   */\n      0x00\n        /* \"#utility.yul\":7488:7493   */\n      dup3\n        /* \"#utility.yul\":7482:7486   */\n      dup3\n        /* \"#utility.yul\":7478:7494   */\n      shl\n        /* \"#utility.yul\":7457:7494   */\n      swap1\n      pop\n        /* \"#utility.yul\":7394:7501   */\n      swap3\n      swap2\n      pop\n      pop\n      jump\t// out\n        /* \"#utility.yul\":7507:7900   */\n    tag_82:\n        /* \"#utility.yul\":7576:7582   */\n      0x00\n        /* \"#utility.yul\":7626:7627   */\n      0x08\n        /* \"#utility.yul\":7614:7624   */\n      dup4\n        /* \"#utility.yul\":7610:7628   */\n      mul\n        /* \"#utility.yul\":7649:7746   */\n      tag_184\n        /* \"#utility.yul\":7679:7745   */\n      0xffffffffffffffffffffffffffffffffffffffffffffffffffffffffffffffff\n        /* \"#utility.yul\":7668:7677   */\n      dup3\n        /* \"#utility.yul\":7649:7746   */\n      tag_81\n      jump\t// in\n    tag_184:\n        /* \"#utility.yul\":7767:7806   */\n      tag_185\n        /* \"#utility.yul\":7797:7805   */\n      dup7\n        /* \"#utility.yul\":7786:7795   */\n      dup4\n        /* \"#utility.yul\":7767:7806   */\n      tag_81\n      jump\t// in\n    tag_185:\n        /* \"#utility.yul\":7755:7806   */\n      swap6\n      pop\n        /* \"#utility.yul\":7839:7843   */\n      dup1\n        /* \"#utility.yul\":7835:7844   */\n      not\n        /* \"#utility.yul\":7828:7833   */\n      dup5\n        /* \"#utility.yul\":7824:7845   */\n      and\n        /* \"#utility.yul\":7815:7845   */\n      swap4\n      pop\n        /* \"#utility.yul\":7888:7892   */\n      dup1\n        /* \"#utility.yul\":7878:7886   */\n      dup7\n        /* \"#utility.yul\":7874:7893   */\n      and\n        /* \"#utility.yul\":7867:7872   */\n      dup5\n        /* \"#utility.yul\":7864:7894   */\n      or\n        /* \"#utility.yul\":7854:7894   */\n      swap3\n      pop\n        /* \"#utility.yul\":7583:7900   */\n      pop\n      pop\n        /* \"#utility.yul\":7507:7900   */\n      swap4\n      swap3\n      pop\n      pop\n      pop\n      jump\t// out\n        /* \"#utility.yul\":7906:7966   */\n    tag_83:\n        /* \"#utility.yul\":7934:7937   */\n      0x00\n        /* \"#utility.yul\":7955:7960   */\n      dup2\n        /* \"#utility.yul\":7948:7960   */\n      swap1\n      pop\n        /* \"#utility.yul\":7906:7966   */\n      swap2\n      swap1\n      pop\n      jump\t// out\n        /* \"#utility.yul\":7972:8114   */\n    tag_84:\n        /* \"#utility.yul\":8022:8031   */\n      0x00\n        /* \"#utility.yul\":8055:8108   */\n      tag_188\n        /* \"#utility.yul\":8073:8107   */\n      tag_189\n        /* \"#utility.yul\":8082:8106   */\n      tag_190\n        /* \"#utility.yul\":8100:8105   */\n      dup5\n        /* \"#utility.yul\":8082:8106   */\n      tag_59\n      jump\t// in\n    tag_190:\n        /* \"#utility.yul\":8073:8107   */\n      tag_83\n      jump\t// in\n    tag_189:\n        /* \"#utility.yul\":8055:8108   */\n      tag_59\n      jump\t// in\n    tag_188:\n        /* \"#utility.yul\":8042:8108   */\n      swap1\n      pop\n        /* \"#utility.yul\":7972:8114   */\n      swap2\n      swap1\n      pop\n      jump\t// out\n        /* \"#utility.yul\":8120:8195   */\n    tag_85:\n        /* \"#utility.yul\":8163:8166   */\n      0x00\n        /* \"#utility.yul\":8184:8189   */\n      dup2\n        /* \"#utility.yul\":8177:8189   */\n      swap1\n      pop\n        /* \"#utility.yul\":8120:8195   */\n      swap2\n      swap1\n      pop\n      jump\t// out\n        /* \"#utility.yul\":8201:8470   */\n    tag_86:\n        /* \"#utility.yul\":8311:8350   */\n      tag_193\n        /* \"#utility.yul\":8342:8349   */\n      dup4\n        /* \"#utility.yul\":8311:8350   */\n      tag_84\n      jump\t// in\n    tag_193:\n        /* \"#utility.yul\":8372:8463   */\n      tag_194\n        /* \"#utility.yul\":8421:8462   */\n      tag_195\n        /* \"#utility.yul\":8445:8461   */\n      dup3\n        /* \"#utility.yul\":8421:8462   */\n      tag_85\n      jump\t// in\n    tag_195:\n        /* \"#utility.yul\":8413:8419   */\n      dup5\n        /* \"#utility.yul\":8406:8410   */\n      dup5\n        /* \"#utility.yul\":8400:8411   */\n      sload\n        /* \"#utility.yul\":8372:8463   */\n      tag_82\n      jump\t// in\n    tag_194:\n        /* \"#utility.yul\":8366:8370   */\n      dup3\n        /* \"#utility.yul\":8359:8464   */\n      sstore\n        /* \"#utility.yul\":8277:8470   */\n      pop\n        /* \"#utility.yul\":8201:8470   */\n      pop\n      pop\n      pop\n      jump\t// out\n        /* \"#utility.yul\":8476:8549   */\n    tag_87:\n        /* \"#utility.yul\":8521:8524   */\n      0x00\n        /* \"#utility.yul\":8476:8549   */\n      swap1\n      jump\t// out\n        /* \"#utility.yul\":8555:8744   */\n    tag_88:\n        /* \"#utility.yul\":8632:8664   */\n      tag_198\n      tag_87\n      jump\t// in\n    tag_198:\n        /* \"#utility.yul\":8673:8738   */\n      tag_199\n        /* \"#utility.yul\":8731:8737   */\n      dup2\n        /* \"#utility.yul\":8723:8729   */\n      dup5\n        /* \"#utility.yul\":8717:8721   */\n      dup5\n        /* \"#utility.yul\":8673:8738   */\n      tag_86\n      jump\t// in\n    tag_199:\n        /* \"#utility.yul\":8608:8744   */\n      pop\n        /* \"#utility.yul\":8555:8744   */\n      pop\n      pop\n      jump\t// out\n        /* \"#utility.yul\":8750:8936   */\n    tag_89:\n        /* \"#utility.yul\":8810:8930   */\n    tag_201:\n        /* \"#utility.yul\":8827:8830   */\n      dup2\n        /* \"#utility.yul\":8820:8825   */\n      dup2\n        /* \"#utility.yul\":8817:8831   */\n      lt\n        /* \"#utility.yul\":8810:8930   */\n      iszero\n      tag_203\n      jumpi\n        /* \"#utility.yul\":8881:8920   */\n      tag_204\n        /* \"#utility.yul\":8918:8919   */\n      0x00\n        /* \"#utility.yul\":8911:8916   */\n      dup3\n        /* \"#utility.yul\":8881:8920   */\n      tag_88\n      jump\t// in\n    tag_204:\n        /* \"#utility.yul\":8854:8855   */\n      0x01\n        /* \"#utility.yul\":8847:8852   */\n      dup2\n        /* \"#utility.yul\":8843:8856   */\n      add\n        /* \"#utility.yul\":8834:8856   */\n      swap1\n      pop\n        /* \"#utility.yul\":8810:8930   */\n      jump(tag_201)\n    tag_203:\n        /* \"#utility.yul\":8750:8936   */\n      pop\n      pop\n      jump\t// out\n        /* \"#utility.yul\":8942:9485   */\n    tag_90:\n        /* \"#utility.yul\":9043:9045   */\n      0x1f\n        /* \"#utility.yul\":9038:9041   */\n      dup3\n        /* \"#utility.yul\":9035:9046   */\n      gt\n        /* \"#utility.yul\":9032:9478   */\n      iszero\n      tag_206\n      jumpi\n        /* \"#utility.yul\":9077:9115   */\n      tag_207\n        /* \"#utility.yul\":9109:9114   */\n      dup2\n        /* \"#utility.yul\":9077:9115   */\n      tag_79\n      jump\t// in\n    tag_207:\n        /* \"#utility.yul\":9161:9190   */\n      tag_208\n        /* \"#utility.yul\":9179:9189   */\n      dup5\n        /* \"#utility.yul\":9161:9190   */\n      tag_80\n      jump\t// in\n    tag_208:\n        /* \"#utility.yul\":9151:9159   */\n      dup2\n        /* \"#utility.yul\":9147:9191   */\n      add\n        /* \"#utility.yul\":9344:9346   */\n      0x20\n        /* \"#utility.yul\":9332:9342   */\n      dup6\n        /* \"#utility.yul\":9329:9347   */\n      lt\n        /* \"#utility.yul\":9326:9375   */\n      iszero\n      tag_209\n      jumpi\n        /* \"#utility.yul\":9365:9373   */\n      dup2\n        /* \"#utility.yul\":9350:9373   */\n      swap1\n      pop\n        /* \"#utility.yul\":9326:9375   */\n    tag_209:\n        /* \"#utility.yul\":9388:9468   */\n      tag_210\n        /* \"#utility.yul\":9444:9466   */\n      tag_211\n        /* \"#utility.yul\":9462:9465   */\n      dup6\n        /* \"#utility.yul\":9444:9466   */\n      tag_80\n      jump\t// in\n    tag_211:\n        /* \"#utility.yul\":9434:9442   */\n      dup4\n        /* \"#utility.yul\":9430:9467   */\n      add\n        /* \"#utility.yul\":9417:9428   */\n      dup3\n        /* \"#utility.yul\":9388:9468   */\n      tag_89\n      jump\t// in\n    tag_210:\n        /* \"#utility.yul\":9047:9478   */\n      pop\n      pop\n        /* \"#utility.yul\":9032:9478   */\n    tag_206:\n        /* \"#utility.yul\":8942:9485   */\n      pop\n      pop\n      pop\n      jump\t// out\n        /* \"#utility.yul\":9491:9608   */\n    tag_91:\n        /* \"#utility.yul\":9545:9553   */\n      0x00\n        /* \"#utility.yul\":9595:9600   */\n      dup3\n        /* \"#utility.yul\":9589:9593   */\n      dup3\n        /* \"#utility.yul\":9585:9601   */\n      shr\n        /* \"#utility.yul\":9564:9601   */\n      swap1\n      pop\n        /* \"#utility.yul\":9491:9608   */\n      swap3\n      swap2\n      pop\n      pop\n      jump\t// out\n        /* \"#utility.yul\":9614:9783   */\n    tag_92:\n        /* \"#utility.yul\":9658:9664   */\n      0x00\n        /* \"#utility.yul\":9691:9742   */\n      tag_214\n        /* \"#utility.yul\":9739:9740   */\n      0x00\n        /* \"#utility.yul\":9735:9741   */\n      not\n        /* \"#utility.yul\":9727:9732   */\n      dup5\n        /* \"#utility.yul\":9724:9725   */\n      0x08\n        /* \"#utility.yul\":9720:9733   */\n      mul\n        /* \"#utility.yul\":9691:9742   */\n      tag_91\n      jump\t// in\n    tag_214:\n        /* \"#utility.yul\":9687:9743   */\n      not\n        /* \"#utility.yul\":9772:9776   */\n      dup1\n        /* \"#utility.yul\":9766:9770   */\n      dup4\n        /* \"#utility.yul\":9762:9777   */\n      and\n        /* \"#utility.yul\":9752:9777   */\n      swap2\n      pop\n        /* \"#utility.yul\":9665:9783   */\n      pop\n        /* \"#utility.yul\":9614:9783   */\n      swap3\n      swap2\n      pop\n      pop\n      jump\t// out\n        /* \"#utility.yul\":9788:10083   */\n    tag_93:\n        /* \"#utility.yul\":9864:9868   */\n      0x00\n        /* \"#utility.yul\":10010:10039   */\n      tag_216\n        /* \"#utility.yul\":10035:10038   */\n      dup4\n        /* \"#utility.yul\":10029:10033   */\n      dup4\n        /* \"#utility.yul\":10010:10039   */\n      tag_92\n      jump\t// in\n    tag_216:\n        /* \"#utility.yul\":10002:10039   */\n      swap2\n      pop\n        /* \"#utility.yul\":10072:10075   */\n      dup3\n        /* \"#utility.yul\":10069:10070   */\n      0x02\n        /* \"#utility.yul\":10065:10076   */\n      mul\n        /* \"#utility.yul\":10059:10063   */\n      dup3\n        /* \"#utility.yul\":10056:10077   */\n      or\n        /* \"#utility.yul\":10048:10077   */\n      swap1\n      pop\n        /* \"#utility.yul\":9788:10083   */\n      swap3\n      swap2\n      pop\n      pop\n      jump\t// out\n        /* \"#utility.yul\":10088:11483   */\n    tag_35:\n        /* \"#utility.yul\":10205:10242   */\n      tag_218\n        /* \"#utility.yul\":10238:10241   */\n      dup3\n        /* \"#utility.yul\":10205:10242   */\n      tag_63\n      jump\t// in\n    tag_218:\n        /* \"#utility.yul\":10307:10325   */\n      0xffffffffffffffff\n        /* \"#utility.yul\":10299:10305   */\n      dup2\n        /* \"#utility.yul\":10296:10326   */\n      gt\n        /* \"#utility.yul\":10293:10349   */\n      iszero\n      tag_219\n      jumpi\n        /* \"#utility.yul\":10329:10347   */\n      tag_220\n      tag_71\n      jump\t// in\n    tag_220:\n        /* \"#utility.yul\":10293:10349   */\n    tag_219:\n        /* \"#utility.yul\":10373:10411   */\n      tag_221\n        /* \"#utility.yul\":10405:10409   */\n      dup3\n        /* \"#utility.yul\":10399:10410   */\n      sload\n        /* \"#utility.yul\":10373:10411   */\n      tag_27\n      jump\t// in\n    tag_221:\n        /* \"#utility.yul\":10458:10525   */\n      tag_222\n        /* \"#utility.yul\":10518:10524   */\n      dup3\n        /* \"#utility.yul\":10510:10516   */\n      dup3\n        /* \"#utility.yul\":10504:10508   */\n      dup6\n        /* \"#utility.yul\":10458:10525   */\n      tag_90\n      jump\t// in\n    tag_222:\n        /* \"#utility.yul\":10552:10553   */\n      0x00\n        /* \"#utility.yul\":10576:10580   */\n      0x20\n        /* \"#utility.yul\":10563:10580   */\n      swap1\n      pop\n        /* \"#utility.yul\":10608:10610   */\n      0x1f\n        /* \"#utility.yul\":10600:10606   */\n      dup4\n        /* \"#utility.yul\":10597:10611   */\n      gt\n        /* \"#utility.yul\":10625:10626   */\n      0x01\n        /* \"#utility.yul\":10620:11238   */\n      dup2\n      eq\n      tag_224\n      jumpi\n        /* \"#utility.yul\":11282:11283   */\n      0x00\n        /* \"#utility.yul\":11299:11305   */\n      dup5\n        /* \"#utility.yul\":11296:11373   */\n      iszero\n      tag_225\n      jumpi\n        /* \"#utility.yul\":11348:11357   */\n      dup3\n        /* \"#utility.yul\":11343:11346   */\n      dup8\n        /* \"#utility.yul\":11339:11358   */\n      add\n        /* \"#utility.yul\":11333:11359   */\n      mload\n        /* \"#utility.yul\":11324:11359   */\n      swap1\n      pop\n        /* \"#utility.yul\":11296:11373   */\n    tag_225:\n        /* \"#utility.yul\":11399:11466   */\n      tag_226\n        /* \"#utility.yul\":11459:11465   */\n      dup6\n        /* \"#utility.yul\":11452:11457   */\n      dup3\n        /* \"#utility.yul\":11399:11466   */\n      tag_93\n      jump\t// in\n    tag_226:\n        /* \"#utility.yul\":11393:11397   */\n      dup7\n        /* \"#utility.yul\":11386:11467   */\n      sstore\n        /* \"#utility.yul\":11255:11477   */\n      pop\n        /* \"#utility.yul\":10590:11477   */\n      jump(tag_223)\n        /* \"#utility.yul\":10620:11238   */\n    tag_224:\n        /* \"#utility.yul\":10672:10676   */\n      0x1f\n        /* \"#utility.yul\":10668:10677   */\n      not\n        /* \"#utility.yul\":10660:10666   */\n      dup5\n        /* \"#utility.yul\":10656:10678   */\n      and\n        /* \"#utility.yul\":10706:10743   */\n      tag_227\n        /* \"#utility.yul\":10738:10742   */\n      dup7\n        /* \"#utility.yul\":10706:10743   */\n      tag_79\n      jump\t// in\n    tag_227:\n        /* \"#utility.yul\":10765:10766   */\n      0x00\n        /* \"#utility.yul\":10779:10987   */\n    tag_228:\n        /* \"#utility.yul\":10793:10800   */\n      dup3\n        /* \"#utility.yul\":10790:10791   */\n      dup2\n        /* \"#utility.yul\":10787:10801   */\n      lt\n        /* \"#utility.yul\":10779:10987   */\n      iszero\n      tag_230\n      jumpi\n        /* \"#utility.yul\":10872:10881   */\n      dup5\n        /* \"#utility.yul\":10867:10870   */\n      dup10\n        /* \"#utility.yul\":10863:10882   */\n      add\n        /* \"#utility.yul\":10857:10883   */\n      mload\n        /* \"#utility.yul\":10849:10855   */\n      dup3\n        /* \"#utility.yul\":10842:10884   */\n      sstore\n        /* \"#utility.yul\":10923:10924   */\n      0x01\n        /* \"#utility.yul\":10915:10921   */\n      dup3\n        /* \"#utility.yul\":10911:10925   */\n      add\n        /* \"#utility.yul\":10901:10925   */\n      swap2\n      pop\n        /* \"#utility.yul\":10970:10972   */\n      0x20\n        /* \"#utility.yul\":10959:10968   */\n      dup6\n        /* \"#utility.yul\":10955:10973   */\n      add\n        /* \"#utility.yul\":10942:10973   */\n      swap5\n      pop\n        /* \"#utility.yul\":10816:10820   */\n      0x20\n        /* \"#utility.yul\":10813:10814   */\n      dup2\n        /* \"#utility.yul\":10809:10821   */\n      add\n        /* \"#utility.yul\":10804:10821   */\n      swap1\n      pop\n        /* \"#utility.yul\":10779:10987   */\n      jump(tag_228)\n    tag_230:\n        /* \"#utility.yul\":11015:11021   */\n      dup7\n        /* \"#utility.yul\":11006:11013   */\n      dup4\n        /* \"#utility.yul\":11003:11022   */\n      lt\n        /* \"#utility.yul\":11000:11179   */\n      iszero\n      tag_231\n      jumpi\n        /* \"#utility.yul\":11073:11082   */\n      dup5\n        /* \"#utility.yul\":11068:11071   */\n      dup10\n        /* \"#utility.yul\":11064:11083   */\n      add\n        /* \"#utility.yul\":11058:11084   */\n      mload\n        /* \"#utility.yul\":11116:11164   */\n      tag_232\n        /* \"#utility.yul\":11158:11162   */\n      0x1f\n        /* \"#utility.yul\":11150:11156   */\n      dup10\n        /* \"#utility.yul\":11146:11163   */\n      and\n        /* \"#utility.yul\":11135:11144   */\n      dup3\n        /* \"#utility.yul\":11116:11164   */\n      tag_92\n      jump\t// in\n    tag_232:\n        /* \"#utility.yul\":11108:11114   */\n      dup4\n        /* \"#utility.yul\":11101:11165   */\n      sstore\n        /* \"#utility.yul\":11023:11179   */\n      pop\n        /* \"#utility.yul\":11000:11179   */\n    tag_231:\n        /* \"#utility.yul\":11225:11226   */\n      0x01\n        /* \"#utility.yul\":11221:11222   */\n      0x02\n        /* \"#utility.yul\":11213:11219   */\n      dup9\n        /* \"#utility.yul\":11209:11223   */\n      mul\n        /* \"#utility.yul\":11205:11227   */\n      add\n        /* \"#utility.yul\":11199:11203   */\n      dup9\n        /* \"#utility.yul\":11192:11228   */\n      sstore\n        /* \"#utility.yul\":10627:11238   */\n      pop\n      pop\n      pop\n        /* \"#utility.yul\":10590:11477   */\n    tag_223:\n      pop\n        /* \"#utility.yul\":10180:11483   */\n      pop\n      pop\n      pop\n        /* \"#utility.yul\":10088:11483   */\n      pop\n      pop\n      jump\t// out\n        /* \"#utility.yul\":11489:11669   */\n    tag_42:\n        /* \"#utility.yul\":11537:11614   */\n      0x4e487b7100000000000000000000000000000000000000000000000000000000\n        /* \"#utility.yul\":11534:11535   */\n      0x00\n        /* \"#utility.yul\":11527:11615   */\n      mstore\n        /* \"#utility.yul\":11634:11638   */\n      0x32\n        /* \"#utility.yul\":11631:11632   */\n      0x04\n        /* \"#utility.yul\":11624:11639   */\n      mstore\n        /* \"#utility.yul\":11658:11662   */\n      0x24\n        /* \"#utility.yul\":11655:11656   */\n      0x00\n        /* \"#utility.yul\":11648:11663   */\n      revert\n        /* \"#utility.yul\":11675:11855   */\n    tag_94:\n        /* \"#utility.yul\":11723:11800   */\n      0x4e487b7100000000000000000000000000000000000000000000000000000000\n        /* \"#utility.yul\":11720:11721   */\n      0x00\n        /* \"#utility.yul\":11713:11801   */\n      mstore\n        /* \"#utility.yul\":11820:11824   */\n      0x11\n        /* \"#utility.yul\":11817:11818   */\n      0x04\n        /* \"#utility.yul\":11810:11825   */\n      mstore\n        /* \"#utility.yul\":11844:11848   */\n      0x24\n        /* \"#utility.yul\":11841:11842   */\n      0x00\n        /* \"#utility.yul\":11834:11849   */\n      revert\n        /* \"#utility.yul\":11861:12166   */\n    tag_49:\n        /* \"#utility.yul\":11901:11904   */\n      0x00\n        /* \"#utility.yul\":11920:11940   */\n      tag_236\n        /* \"#utility.yul\":11938:11939   */\n      dup3\n        /* \"#utility.yul\":11920:11940   */\n      tag_59\n      jump\t// in\n    tag_236:\n        /* \"#utility.yul\":11915:11940   */\n      swap2\n      pop\n        /* \"#utility.yul\":11954:11974   */\n      tag_237\n        /* \"#utility.yul\":11972:11973   */\n      dup4\n        /* \"#utility.yul\":11954:11974   */\n      tag_59\n      jump\t// in\n    tag_237:\n        /* \"#utility.yul\":11949:11974   */\n      swap3\n      pop\n        /* \"#utility.yul\":12108:12109   */\n      dup3\n        /* \"#utility.yul\":12040:12106   */\n      0xffffffffffffffffffffffffffffffffffffffffffffffffffffffffffffffff\n        /* \"#utility.yul\":12036:12110   */\n      sub\n        /* \"#utility.yul\":12033:12034   */\n      dup3\n        /* \"#utility.yul\":12030:12111   */\n      gt\n        /* \"#utility.yul\":12027:12134   */\n      iszero\n      tag_238\n      jumpi\n        /* \"#utility.yul\":12114:12132   */\n      tag_239\n      tag_94\n      jump\t// in\n    tag_239:\n        /* \"#utility.yul\":12027:12134   */\n    tag_238:\n        /* \"#utility.yul\":12158:12159   */\n      dup3\n        /* \"#utility.yul\":12155:12156   */\n      dup3\n        /* \"#utility.yul\":12151:12160   */\n      add\n        /* \"#utility.yul\":12144:12160   */\n      swap1\n      pop\n        /* \"#utility.yul\":11861:12166   */\n      swap3\n      swap2\n      pop\n      pop\n      jump\t// out\n        /* \"#utility.yul\":12172:12405   */\n    tag_51:\n        /* \"#utility.yul\":12211:12214   */\n      0x00\n        /* \"#utility.yul\":12234:12258   */\n      tag_241\n        /* \"#utility.yul\":12252:12257   */\n      dup3\n        /* \"#utility.yul\":12234:12258   */\n      tag_59\n      jump\t// in\n    tag_241:\n        /* \"#utility.yul\":12225:12258   */\n      swap2\n      pop\n        /* \"#utility.yul\":12280:12346   */\n      0xffffffffffffffffffffffffffffffffffffffffffffffffffffffffffffffff\n        /* \"#utility.yul\":12273:12278   */\n      dup3\n        /* \"#utility.yul\":12270:12347   */\n      sub\n        /* \"#utility.yul\":12267:12370   */\n      tag_242\n      jumpi\n        /* \"#utility.yul\":12350:12368   */\n      tag_243\n      tag_94\n      jump\t// in\n    tag_243:\n        /* \"#utility.yul\":12267:12370   */\n    tag_242:\n        /* \"#utility.yul\":12397:12398   */\n      0x01\n        /* \"#utility.yul\":12390:12395   */\n      dup3\n        /* \"#utility.yul\":12386:12399   */\n      add\n        /* \"#utility.yul\":12379:12399   */\n      swap1\n      pop\n        /* \"#utility.yul\":12172:12405   */\n      swap2\n      swap1\n      pop\n      jump\t// out\n\n    auxdata: 0xa26469706673582212202e8c6695d30ae7bea06ab6235c9e04beedb9672557b4fd47d08d5928241a088a64736f6c634300080f0033\n}\n",
				"bytecode": {
					"linkReferences": {},
					"object": "608060405234801561001057600080fd5b50336000806101000a81548173ffffffffffffffffffffffffffffffffffffffff021916908373ffffffffffffffffffffffffffffffffffffffff160217905550610afc806100606000396000f3fe6080604052600436106100345760003560e01c80631a69523014610039578063365b98b214610055578063f0384fb614610094575b600080fd5b610053600480360381019061004e91906103c3565b6100bd565b005b34801561006157600080fd5b5061007c60048036038101906100779190610426565b6100c9565b60405161008b9392919061050a565b60405180910390f35b3480156100a057600080fd5b506100bb60048036038101906100b6919061067d565b6101ab565b005b6100c681610275565b50565b600181815481106100d957600080fd5b90600052602060002090600302016000915090508060000160009054906101000a900473ffffffffffffffffffffffffffffffffffffffff16908060010180546101229061071b565b80601f016020809104026020016040519081016040528092919081815260200182805461014e9061071b565b801561019b5780601f106101705761010080835404028352916020019161019b565b820191906000526020600020905b81548152906001019060200180831161017e57829003601f168201915b5050505050908060020154905083565b600160405180606001604052808573ffffffffffffffffffffffffffffffffffffffff16815260200184815260200183815250908060018154018082558091505060019003906000526020600020906003020160009091909190915060008201518160000160006101000a81548173ffffffffffffffffffffffffffffffffffffffff021916908373ffffffffffffffffffffffffffffffffffffffff160217905550602082015181600101908161026391906108f8565b50604082015181600201555050505050565b60005b60018054905081101561034d578173ffffffffffffffffffffffffffffffffffffffff16600182815481106102b0576102af6109ca565b5b906000526020600020906003020160000160009054906101000a900473ffffffffffffffffffffffffffffffffffffffff1673ffffffffffffffffffffffffffffffffffffffff160361033a573460018281548110610312576103116109ca565b5b906000526020600020906003020160020160008282546103329190610a28565b925050819055505b808061034590610a7e565b915050610278565b5050565b6000604051905090565b600080fd5b600080fd5b600073ffffffffffffffffffffffffffffffffffffffff82169050919050565b600061039082610365565b9050919050565b6103a081610385565b81146103ab57600080fd5b50565b6000813590506103bd81610397565b92915050565b6000602082840312156103d9576103d861035b565b5b60006103e7848285016103ae565b91505092915050565b6000819050919050565b610403816103f0565b811461040e57600080fd5b50565b600081359050610420816103fa565b92915050565b60006020828403121561043c5761043b61035b565b5b600061044a84828501610411565b91505092915050565b61045c81610385565b82525050565b600081519050919050565b600082825260208201905092915050565b60005b8381101561049c578082015181840152602081019050610481565b838111156104ab576000848401525b50505050565b6000601f19601f8301169050919050565b60006104cd82610462565b6104d7818561046d565b93506104e781856020860161047e565b6104f0816104b1565b840191505092915050565b610504816103f0565b82525050565b600060608201905061051f6000830186610453565b818103602083015261053181856104c2565b905061054060408301846104fb565b949350505050565b600080fd5b600080fd5b7f4e487b7100000000000000000000000000000000000000000000000000000000600052604160045260246000fd5b61058a826104b1565b810181811067ffffffffffffffff821117156105a9576105a8610552565b5b80604052505050565b60006105bc610351565b90506105c88282610581565b919050565b600067ffffffffffffffff8211156105e8576105e7610552565b5b6105f1826104b1565b9050602081019050919050565b82818337600083830152505050565b600061062061061b846105cd565b6105b2565b90508281526020810184848401111561063c5761063b61054d565b5b6106478482856105fe565b509392505050565b600082601f83011261066457610663610548565b5b813561067484826020860161060d565b91505092915050565b6000806000606084860312156106965761069561035b565b5b60006106a4868287016103ae565b935050602084013567ffffffffffffffff8111156106c5576106c4610360565b5b6106d18682870161064f565b92505060406106e286828701610411565b9150509250925092565b7f4e487b7100000000000000000000000000000000000000000000000000000000600052602260045260246000fd5b6000600282049050600182168061073357607f821691505b602082108103610746576107456106ec565b5b50919050565b60008190508160005260206000209050919050565b60006020601f8301049050919050565b600082821b905092915050565b6000600883026107ae7fffffffffffffffffffffffffffffffffffffffffffffffffffffffffffffffff82610771565b6107b88683610771565b95508019841693508086168417925050509392505050565b6000819050919050565b60006107f56107f06107eb846103f0565b6107d0565b6103f0565b9050919050565b6000819050919050565b61080f836107da565b61082361081b826107fc565b84845461077e565b825550505050565b600090565b61083861082b565b610843818484610806565b505050565b5b818110156108675761085c600082610830565b600181019050610849565b5050565b601f8211156108ac5761087d8161074c565b61088684610761565b81016020851015610895578190505b6108a96108a185610761565b830182610848565b50505b505050565b600082821c905092915050565b60006108cf600019846008026108b1565b1980831691505092915050565b60006108e883836108be565b9150826002028217905092915050565b61090182610462565b67ffffffffffffffff81111561091a57610919610552565b5b610924825461071b565b61092f82828561086b565b600060209050601f8311600181146109625760008415610950578287015190505b61095a85826108dc565b8655506109c2565b601f1984166109708661074c565b60005b8281101561099857848901518255600182019150602085019450602081019050610973565b868310156109b557848901516109b1601f8916826108be565b8355505b6001600288020188555050505b505050505050565b7f4e487b7100000000000000000000000000000000000000000000000000000000600052603260045260246000fd5b7f4e487b7100000000000000000000000000000000000000000000000000000000600052601160045260246000fd5b6000610a33826103f0565b9150610a3e836103f0565b9250827fffffffffffffffffffffffffffffffffffffffffffffffffffffffffffffffff03821115610a7357610a726109f9565b5b828201905092915050565b6000610a89826103f0565b91507fffffffffffffffffffffffffffffffffffffffffffffffffffffffffffffffff8203610abb57610aba6109f9565b5b60018201905091905056fea26469706673582212202e8c6695d30ae7bea06ab6235c9e04beedb9672557b4fd47d08d5928241a088a64736f6c634300080f0033",
					"opcodes": "PUSH1 0x80 PUSH1 0x40 MSTORE CALLVALUE DUP1 ISZERO PUSH2 0x10 JUMPI PUSH1 0x0 DUP1 REVERT JUMPDEST POP CALLER PUSH1 0x0 DUP1 PUSH2 0x100 EXP DUP2 SLOAD DUP2 PUSH20 0xFFFFFFFFFFFFFFFFFFFFFFFFFFFFFFFFFFFFFFFF MUL NOT AND SWAP1 DUP4 PUSH20 0xFFFFFFFFFFFFFFFFFFFFFFFFFFFFFFFFFFFFFFFF AND MUL OR SWAP1 SSTORE POP PUSH2 0xAFC DUP1 PUSH2 0x60 PUSH1 0x0 CODECOPY PUSH1 0x0 RETURN INVALID PUSH1 0x80 PUSH1 0x40 MSTORE PUSH1 0x4 CALLDATASIZE LT PUSH2 0x34 JUMPI PUSH1 0x0 CALLDATALOAD PUSH1 0xE0 SHR DUP1 PUSH4 0x1A695230 EQ PUSH2 0x39 JUMPI DUP1 PUSH4 0x365B98B2 EQ PUSH2 0x55 JUMPI DUP1 PUSH4 0xF0384FB6 EQ PUSH2 0x94 JUMPI JUMPDEST PUSH1 0x0 DUP1 REVERT JUMPDEST PUSH2 0x53 PUSH1 0x4 DUP1 CALLDATASIZE SUB DUP2 ADD SWAP1 PUSH2 0x4E SWAP2 SWAP1 PUSH2 0x3C3 JUMP JUMPDEST PUSH2 0xBD JUMP JUMPDEST STOP JUMPDEST CALLVALUE DUP1 ISZERO PUSH2 0x61 JUMPI PUSH1 0x0 DUP1 REVERT JUMPDEST POP PUSH2 0x7C PUSH1 0x4 DUP1 CALLDATASIZE SUB DUP2 ADD SWAP1 PUSH2 0x77 SWAP2 SWAP1 PUSH2 0x426 JUMP JUMPDEST PUSH2 0xC9 JUMP JUMPDEST PUSH1 0x40 MLOAD PUSH2 0x8B SWAP4 SWAP3 SWAP2 SWAP1 PUSH2 0x50A JUMP JUMPDEST PUSH1 0x40 MLOAD DUP1 SWAP2 SUB SWAP1 RETURN JUMPDEST CALLVALUE DUP1 ISZERO PUSH2 0xA0 JUMPI PUSH1 0x0 DUP1 REVERT JUMPDEST POP PUSH2 0xBB PUSH1 0x4 DUP1 CALLDATASIZE SUB DUP2 ADD SWAP1 PUSH2 0xB6 SWAP2 SWAP1 PUSH2 0x67D JUMP JUMPDEST PUSH2 0x1AB JUMP JUMPDEST STOP JUMPDEST PUSH2 0xC6 DUP2 PUSH2 0x275 JUMP JUMPDEST POP JUMP JUMPDEST PUSH1 0x1 DUP2 DUP2 SLOAD DUP2 LT PUSH2 0xD9 JUMPI PUSH1 0x0 DUP1 REVERT JUMPDEST SWAP1 PUSH1 0x0 MSTORE PUSH1 0x20 PUSH1 0x0 KECCAK256 SWAP1 PUSH1 0x3 MUL ADD PUSH1 0x0 SWAP2 POP SWAP1 POP DUP1 PUSH1 0x0 ADD PUSH1 0x0 SWAP1 SLOAD SWAP1 PUSH2 0x100 EXP SWAP1 DIV PUSH20 0xFFFFFFFFFFFFFFFFFFFFFFFFFFFFFFFFFFFFFFFF AND SWAP1 DUP1 PUSH1 0x1 ADD DUP1 SLOAD PUSH2 0x122 SWAP1 PUSH2 0x71B JUMP JUMPDEST DUP1 PUSH1 0x1F ADD PUSH1 0x20 DUP1 SWAP2 DIV MUL PUSH1 0x20 ADD PUSH1 0x40 MLOAD SWAP1 DUP2 ADD PUSH1 0x40 MSTORE DUP1 SWAP3 SWAP2 SWAP1 DUP2 DUP2 MSTORE PUSH1 0x20 ADD DUP3 DUP1 SLOAD PUSH2 0x14E SWAP1 PUSH2 0x71B JUMP JUMPDEST DUP1 ISZERO PUSH2 0x19B JUMPI DUP1 PUSH1 0x1F LT PUSH2 0x170 JUMPI PUSH2 0x100 DUP1 DUP4 SLOAD DIV MUL DUP4 MSTORE SWAP2 PUSH1 0x20 ADD SWAP2 PUSH2 0x19B JUMP JUMPDEST DUP3 ADD SWAP2 SWAP1 PUSH1 0x0 MSTORE PUSH1 0x20 PUSH1 0x0 KECCAK256 SWAP1 JUMPDEST DUP2 SLOAD DUP2 MSTORE SWAP1 PUSH1 0x1 ADD SWAP1 PUSH1 0x20 ADD DUP1 DUP4 GT PUSH2 0x17E JUMPI DUP3 SWAP1 SUB PUSH1 0x1F AND DUP3 ADD SWAP2 JUMPDEST POP POP POP POP POP SWAP1 DUP1 PUSH1 0x2 ADD SLOAD SWAP1 POP DUP4 JUMP JUMPDEST PUSH1 0x1 PUSH1 0x40 MLOAD DUP1 PUSH1 0x60 ADD PUSH1 0x40 MSTORE DUP1 DUP6 PUSH20 0xFFFFFFFFFFFFFFFFFFFFFFFFFFFFFFFFFFFFFFFF AND DUP2 MSTORE PUSH1 0x20 ADD DUP5 DUP2 MSTORE PUSH1 0x20 ADD DUP4 DUP2 MSTORE POP SWAP1 DUP1 PUSH1 0x1 DUP2 SLOAD ADD DUP1 DUP3 SSTORE DUP1 SWAP2 POP POP PUSH1 0x1 SWAP1 SUB SWAP1 PUSH1 0x0 MSTORE PUSH1 0x20 PUSH1 0x0 KECCAK256 SWAP1 PUSH1 0x3 MUL ADD PUSH1 0x0 SWAP1 SWAP2 SWAP1 SWAP2 SWAP1 SWAP2 POP PUSH1 0x0 DUP3 ADD MLOAD DUP2 PUSH1 0x0 ADD PUSH1 0x0 PUSH2 0x100 EXP DUP2 SLOAD DUP2 PUSH20 0xFFFFFFFFFFFFFFFFFFFFFFFFFFFFFFFFFFFFFFFF MUL NOT AND SWAP1 DUP4 PUSH20 0xFFFFFFFFFFFFFFFFFFFFFFFFFFFFFFFFFFFFFFFF AND MUL OR SWAP1 SSTORE POP PUSH1 0x20 DUP3 ADD MLOAD DUP2 PUSH1 0x1 ADD SWAP1 DUP2 PUSH2 0x263 SWAP2 SWAP1 PUSH2 0x8F8 JUMP JUMPDEST POP PUSH1 0x40 DUP3 ADD MLOAD DUP2 PUSH1 0x2 ADD SSTORE POP POP POP POP POP JUMP JUMPDEST PUSH1 0x0 JUMPDEST PUSH1 0x1 DUP1 SLOAD SWAP1 POP DUP2 LT ISZERO PUSH2 0x34D JUMPI DUP2 PUSH20 0xFFFFFFFFFFFFFFFFFFFFFFFFFFFFFFFFFFFFFFFF AND PUSH1 0x1 DUP3 DUP2 SLOAD DUP2 LT PUSH2 0x2B0 JUMPI PUSH2 0x2AF PUSH2 0x9CA JUMP JUMPDEST JUMPDEST SWAP1 PUSH1 0x0 MSTORE PUSH1 0x20 PUSH1 0x0 KECCAK256 SWAP1 PUSH1 0x3 MUL ADD PUSH1 0x0 ADD PUSH1 0x0 SWAP1 SLOAD SWAP1 PUSH2 0x100 EXP SWAP1 DIV PUSH20 0xFFFFFFFFFFFFFFFFFFFFFFFFFFFFFFFFFFFFFFFF AND PUSH20 0xFFFFFFFFFFFFFFFFFFFFFFFFFFFFFFFFFFFFFFFF AND SUB PUSH2 0x33A JUMPI CALLVALUE PUSH1 0x1 DUP3 DUP2 SLOAD DUP2 LT PUSH2 0x312 JUMPI PUSH2 0x311 PUSH2 0x9CA JUMP JUMPDEST JUMPDEST SWAP1 PUSH1 0x0 MSTORE PUSH1 0x20 PUSH1 0x0 KECCAK256 SWAP1 PUSH1 0x3 MUL ADD PUSH1 0x2 ADD PUSH1 0x0 DUP3 DUP3 SLOAD PUSH2 0x332 SWAP2 SWAP1 PUSH2 0xA28 JUMP JUMPDEST SWAP3 POP POP DUP2 SWAP1 SSTORE POP JUMPDEST DUP1 DUP1 PUSH2 0x345 SWAP1 PUSH2 0xA7E JUMP JUMPDEST SWAP2 POP POP PUSH2 0x278 JUMP JUMPDEST POP POP JUMP JUMPDEST PUSH1 0x0 PUSH1 0x40 MLOAD SWAP1 POP SWAP1 JUMP JUMPDEST PUSH1 0x0 DUP1 REVERT JUMPDEST PUSH1 0x0 DUP1 REVERT JUMPDEST PUSH1 0x0 PUSH20 0xFFFFFFFFFFFFFFFFFFFFFFFFFFFFFFFFFFFFFFFF DUP3 AND SWAP1 POP SWAP2 SWAP1 POP JUMP JUMPDEST PUSH1 0x0 PUSH2 0x390 DUP3 PUSH2 0x365 JUMP JUMPDEST SWAP1 POP SWAP2 SWAP1 POP JUMP JUMPDEST PUSH2 0x3A0 DUP2 PUSH2 0x385 JUMP JUMPDEST DUP2 EQ PUSH2 0x3AB JUMPI PUSH1 0x0 DUP1 REVERT JUMPDEST POP JUMP JUMPDEST PUSH1 0x0 DUP2 CALLDATALOAD SWAP1 POP PUSH2 0x3BD DUP2 PUSH2 0x397 JUMP JUMPDEST SWAP3 SWAP2 POP POP JUMP JUMPDEST PUSH1 0x0 PUSH1 0x20 DUP3 DUP5 SUB SLT ISZERO PUSH2 0x3D9 JUMPI PUSH2 0x3D8 PUSH2 0x35B JUMP JUMPDEST JUMPDEST PUSH1 0x0 PUSH2 0x3E7 DUP5 DUP3 DUP6 ADD PUSH2 0x3AE JUMP JUMPDEST SWAP2 POP POP SWAP3 SWAP2 POP POP JUMP JUMPDEST PUSH1 0x0 DUP2 SWAP1 POP SWAP2 SWAP1 POP JUMP JUMPDEST PUSH2 0x403 DUP2 PUSH2 0x3F0 JUMP JUMPDEST DUP2 EQ PUSH2 0x40E JUMPI PUSH1 0x0 DUP1 REVERT JUMPDEST POP JUMP JUMPDEST PUSH1 0x0 DUP2 CALLDATALOAD SWAP1 POP PUSH2 0x420 DUP2 PUSH2 0x3FA JUMP JUMPDEST SWAP3 SWAP2 POP POP JUMP JUMPDEST PUSH1 0x0 PUSH1 0x20 DUP3 DUP5 SUB SLT ISZERO PUSH2 0x43C JUMPI PUSH2 0x43B PUSH2 0x35B JUMP JUMPDEST JUMPDEST PUSH1 0x0 PUSH2 0x44A DUP5 DUP3 DUP6 ADD PUSH2 0x411 JUMP JUMPDEST SWAP2 POP POP SWAP3 SWAP2 POP POP JUMP JUMPDEST PUSH2 0x45C DUP2 PUSH2 0x385 JUMP JUMPDEST DUP3 MSTORE POP POP JUMP JUMPDEST PUSH1 0x0 DUP2 MLOAD SWAP1 POP SWAP2 SWAP1 POP JUMP JUMPDEST PUSH1 0x0 DUP3 DUP3 MSTORE PUSH1 0x20 DUP3 ADD SWAP1 POP SWAP3 SWAP2 POP POP JUMP JUMPDEST PUSH1 0x0 JUMPDEST DUP4 DUP2 LT ISZERO PUSH2 0x49C JUMPI DUP1 DUP3 ADD MLOAD DUP2 DUP5 ADD MSTORE PUSH1 0x20 DUP2 ADD SWAP1 POP PUSH2 0x481 JUMP JUMPDEST DUP4 DUP2 GT ISZERO PUSH2 0x4AB JUMPI PUSH1 0x0 DUP5 DUP5 ADD MSTORE JUMPDEST POP POP POP POP JUMP JUMPDEST PUSH1 0x0 PUSH1 0x1F NOT PUSH1 0x1F DUP4 ADD AND SWAP1 POP SWAP2 SWAP1 POP JUMP JUMPDEST PUSH1 0x0 PUSH2 0x4CD DUP3 PUSH2 0x462 JUMP JUMPDEST PUSH2 0x4D7 DUP2 DUP6 PUSH2 0x46D JUMP JUMPDEST SWAP4 POP PUSH2 0x4E7 DUP2 DUP6 PUSH1 0x20 DUP7 ADD PUSH2 0x47E JUMP JUMPDEST PUSH2 0x4F0 DUP2 PUSH2 0x4B1 JUMP JUMPDEST DUP5 ADD SWAP2 POP POP SWAP3 SWAP2 POP POP JUMP JUMPDEST PUSH2 0x504 DUP2 PUSH2 0x3F0 JUMP JUMPDEST DUP3 MSTORE POP POP JUMP JUMPDEST PUSH1 0x0 PUSH1 0x60 DUP3 ADD SWAP1 POP PUSH2 0x51F PUSH1 0x0 DUP4 ADD DUP7 PUSH2 0x453 JUMP JUMPDEST DUP2 DUP2 SUB PUSH1 0x20 DUP4 ADD MSTORE PUSH2 0x531 DUP2 DUP6 PUSH2 0x4C2 JUMP JUMPDEST SWAP1 POP PUSH2 0x540 PUSH1 0x40 DUP4 ADD DUP5 PUSH2 0x4FB JUMP JUMPDEST SWAP5 SWAP4 POP POP POP POP JUMP JUMPDEST PUSH1 0x0 DUP1 REVERT JUMPDEST PUSH1 0x0 DUP1 REVERT JUMPDEST PUSH32 0x4E487B7100000000000000000000000000000000000000000000000000000000 PUSH1 0x0 MSTORE PUSH1 0x41 PUSH1 0x4 MSTORE PUSH1 0x24 PUSH1 0x0 REVERT JUMPDEST PUSH2 0x58A DUP3 PUSH2 0x4B1 JUMP JUMPDEST DUP2 ADD DUP2 DUP2 LT PUSH8 0xFFFFFFFFFFFFFFFF DUP3 GT OR ISZERO PUSH2 0x5A9 JUMPI PUSH2 0x5A8 PUSH2 0x552 JUMP JUMPDEST JUMPDEST DUP1 PUSH1 0x40 MSTORE POP POP POP JUMP JUMPDEST PUSH1 0x0 PUSH2 0x5BC PUSH2 0x351 JUMP JUMPDEST SWAP1 POP PUSH2 0x5C8 DUP3 DUP3 PUSH2 0x581 JUMP JUMPDEST SWAP2 SWAP1 POP JUMP JUMPDEST PUSH1 0x0 PUSH8 0xFFFFFFFFFFFFFFFF DUP3 GT ISZERO PUSH2 0x5E8 JUMPI PUSH2 0x5E7 PUSH2 0x552 JUMP JUMPDEST JUMPDEST PUSH2 0x5F1 DUP3 PUSH2 0x4B1 JUMP JUMPDEST SWAP1 POP PUSH1 0x20 DUP2 ADD SWAP1 POP SWAP2 SWAP1 POP JUMP JUMPDEST DUP3 DUP2 DUP4 CALLDATACOPY PUSH1 0x0 DUP4 DUP4 ADD MSTORE POP POP POP JUMP JUMPDEST PUSH1 0x0 PUSH2 0x620 PUSH2 0x61B DUP5 PUSH2 0x5CD JUMP JUMPDEST PUSH2 0x5B2 JUMP JUMPDEST SWAP1 POP DUP3 DUP2 MSTORE PUSH1 0x20 DUP2 ADD DUP5 DUP5 DUP5 ADD GT ISZERO PUSH2 0x63C JUMPI PUSH2 0x63B PUSH2 0x54D JUMP JUMPDEST JUMPDEST PUSH2 0x647 DUP5 DUP3 DUP6 PUSH2 0x5FE JUMP JUMPDEST POP SWAP4 SWAP3 POP POP POP JUMP JUMPDEST PUSH1 0x0 DUP3 PUSH1 0x1F DUP4 ADD SLT PUSH2 0x664 JUMPI PUSH2 0x663 PUSH2 0x548 JUMP JUMPDEST JUMPDEST DUP2 CALLDATALOAD PUSH2 0x674 DUP5 DUP3 PUSH1 0x20 DUP7 ADD PUSH2 0x60D JUMP JUMPDEST SWAP2 POP POP SWAP3 SWAP2 POP POP JUMP JUMPDEST PUSH1 0x0 DUP1 PUSH1 0x0 PUSH1 0x60 DUP5 DUP7 SUB SLT ISZERO PUSH2 0x696 JUMPI PUSH2 0x695 PUSH2 0x35B JUMP JUMPDEST JUMPDEST PUSH1 0x0 PUSH2 0x6A4 DUP7 DUP3 DUP8 ADD PUSH2 0x3AE JUMP JUMPDEST SWAP4 POP POP PUSH1 0x20 DUP5 ADD CALLDATALOAD PUSH8 0xFFFFFFFFFFFFFFFF DUP2 GT ISZERO PUSH2 0x6C5 JUMPI PUSH2 0x6C4 PUSH2 0x360 JUMP JUMPDEST JUMPDEST PUSH2 0x6D1 DUP7 DUP3 DUP8 ADD PUSH2 0x64F JUMP JUMPDEST SWAP3 POP POP PUSH1 0x40 PUSH2 0x6E2 DUP7 DUP3 DUP8 ADD PUSH2 0x411 JUMP JUMPDEST SWAP2 POP POP SWAP3 POP SWAP3 POP SWAP3 JUMP JUMPDEST PUSH32 0x4E487B7100000000000000000000000000000000000000000000000000000000 PUSH1 0x0 MSTORE PUSH1 0x22 PUSH1 0x4 MSTORE PUSH1 0x24 PUSH1 0x0 REVERT JUMPDEST PUSH1 0x0 PUSH1 0x2 DUP3 DIV SWAP1 POP PUSH1 0x1 DUP3 AND DUP1 PUSH2 0x733 JUMPI PUSH1 0x7F DUP3 AND SWAP2 POP JUMPDEST PUSH1 0x20 DUP3 LT DUP2 SUB PUSH2 0x746 JUMPI PUSH2 0x745 PUSH2 0x6EC JUMP JUMPDEST JUMPDEST POP SWAP2 SWAP1 POP JUMP JUMPDEST PUSH1 0x0 DUP2 SWAP1 POP DUP2 PUSH1 0x0 MSTORE PUSH1 0x20 PUSH1 0x0 KECCAK256 SWAP1 POP SWAP2 SWAP1 POP JUMP JUMPDEST PUSH1 0x0 PUSH1 0x20 PUSH1 0x1F DUP4 ADD DIV SWAP1 POP SWAP2 SWAP1 POP JUMP JUMPDEST PUSH1 0x0 DUP3 DUP3 SHL SWAP1 POP SWAP3 SWAP2 POP POP JUMP JUMPDEST PUSH1 0x0 PUSH1 0x8 DUP4 MUL PUSH2 0x7AE PUSH32 0xFFFFFFFFFFFFFFFFFFFFFFFFFFFFFFFFFFFFFFFFFFFFFFFFFFFFFFFFFFFFFFFF DUP3 PUSH2 0x771 JUMP JUMPDEST PUSH2 0x7B8 DUP7 DUP4 PUSH2 0x771 JUMP JUMPDEST SWAP6 POP DUP1 NOT DUP5 AND SWAP4 POP DUP1 DUP7 AND DUP5 OR SWAP3 POP POP POP SWAP4 SWAP3 POP POP POP JUMP JUMPDEST PUSH1 0x0 DUP2 SWAP1 POP SWAP2 SWAP1 POP JUMP JUMPDEST PUSH1 0x0 PUSH2 0x7F5 PUSH2 0x7F0 PUSH2 0x7EB DUP5 PUSH2 0x3F0 JUMP JUMPDEST PUSH2 0x7D0 JUMP JUMPDEST PUSH2 0x3F0 JUMP JUMPDEST SWAP1 POP SWAP2 SWAP1 POP JUMP JUMPDEST PUSH1 0x0 DUP2 SWAP1 POP SWAP2 SWAP1 POP JUMP JUMPDEST PUSH2 0x80F DUP4 PUSH2 0x7DA JUMP JUMPDEST PUSH2 0x823 PUSH2 0x81B DUP3 PUSH2 0x7FC JUMP JUMPDEST DUP5 DUP5 SLOAD PUSH2 0x77E JUMP JUMPDEST DUP3 SSTORE POP POP POP POP JUMP JUMPDEST PUSH1 0x0 SWAP1 JUMP JUMPDEST PUSH2 0x838 PUSH2 0x82B JUMP JUMPDEST PUSH2 0x843 DUP2 DUP5 DUP5 PUSH2 0x806 JUMP JUMPDEST POP POP POP JUMP JUMPDEST JUMPDEST DUP2 DUP2 LT ISZERO PUSH2 0x867 JUMPI PUSH2 0x85C PUSH1 0x0 DUP3 PUSH2 0x830 JUMP JUMPDEST PUSH1 0x1 DUP2 ADD SWAP1 POP PUSH2 0x849 JUMP JUMPDEST POP POP JUMP JUMPDEST PUSH1 0x1F DUP3 GT ISZERO PUSH2 0x8AC JUMPI PUSH2 0x87D DUP2 PUSH2 0x74C JUMP JUMPDEST PUSH2 0x886 DUP5 PUSH2 0x761 JUMP JUMPDEST DUP2 ADD PUSH1 0x20 DUP6 LT ISZERO PUSH2 0x895 JUMPI DUP2 SWAP1 POP JUMPDEST PUSH2 0x8A9 PUSH2 0x8A1 DUP6 PUSH2 0x761 JUMP JUMPDEST DUP4 ADD DUP3 PUSH2 0x848 JUMP JUMPDEST POP POP JUMPDEST POP POP POP JUMP JUMPDEST PUSH1 0x0 DUP3 DUP3 SHR SWAP1 POP SWAP3 SWAP2 POP POP JUMP JUMPDEST PUSH1 0x0 PUSH2 0x8CF PUSH1 0x0 NOT DUP5 PUSH1 0x8 MUL PUSH2 0x8B1 JUMP JUMPDEST NOT DUP1 DUP4 AND SWAP2 POP POP SWAP3 SWAP2 POP POP JUMP JUMPDEST PUSH1 0x0 PUSH2 0x8E8 DUP4 DUP4 PUSH2 0x8BE JUMP JUMPDEST SWAP2 POP DUP3 PUSH1 0x2 MUL DUP3 OR SWAP1 POP SWAP3 SWAP2 POP POP JUMP JUMPDEST PUSH2 0x901 DUP3 PUSH2 0x462 JUMP JUMPDEST PUSH8 0xFFFFFFFFFFFFFFFF DUP2 GT ISZERO PUSH2 0x91A JUMPI PUSH2 0x919 PUSH2 0x552 JUMP JUMPDEST JUMPDEST PUSH2 0x924 DUP3 SLOAD PUSH2 0x71B JUMP JUMPDEST PUSH2 0x92F DUP3 DUP3 DUP6 PUSH2 0x86B JUMP JUMPDEST PUSH1 0x0 PUSH1 0x20 SWAP1 POP PUSH1 0x1F DUP4 GT PUSH1 0x1 DUP2 EQ PUSH2 0x962 JUMPI PUSH1 0x0 DUP5 ISZERO PUSH2 0x950 JUMPI DUP3 DUP8 ADD MLOAD SWAP1 POP JUMPDEST PUSH2 0x95A DUP6 DUP3 PUSH2 0x8DC JUMP JUMPDEST DUP7 SSTORE POP PUSH2 0x9C2 JUMP JUMPDEST PUSH1 0x1F NOT DUP5 AND PUSH2 0x970 DUP7 PUSH2 0x74C JUMP JUMPDEST PUSH1 0x0 JUMPDEST DUP3 DUP2 LT ISZERO PUSH2 0x998 JUMPI DUP5 DUP10 ADD MLOAD DUP3 SSTORE PUSH1 0x1 DUP3 ADD SWAP2 POP PUSH1 0x20 DUP6 ADD SWAP5 POP PUSH1 0x20 DUP2 ADD SWAP1 POP PUSH2 0x973 JUMP JUMPDEST DUP7 DUP4 LT ISZERO PUSH2 0x9B5 JUMPI DUP5 DUP10 ADD MLOAD PUSH2 0x9B1 PUSH1 0x1F DUP10 AND DUP3 PUSH2 0x8BE JUMP JUMPDEST DUP4 SSTORE POP JUMPDEST PUSH1 0x1 PUSH1 0x2 DUP9 MUL ADD DUP9 SSTORE POP POP POP JUMPDEST POP POP POP POP POP POP JUMP JUMPDEST PUSH32 0x4E487B7100000000000000000000000000000000000000000000000000000000 PUSH1 0x0 MSTORE PUSH1 0x32 PUSH1 0x4 MSTORE PUSH1 0x24 PUSH1 0x0 REVERT JUMPDEST PUSH32 0x4E487B7100000000000000000000000000000000000000000000000000000000 PUSH1 0x0 MSTORE PUSH1 0x11 PUSH1 0x4 MSTORE PUSH1 0x24 PUSH1 0x0 REVERT JUMPDEST PUSH1 0x0 PUSH2 0xA33 DUP3 PUSH2 0x3F0 JUMP JUMPDEST SWAP2 POP PUSH2 0xA3E DUP4 PUSH2 0x3F0 JUMP JUMPDEST SWAP3 POP DUP3 PUSH32 0xFFFFFFFFFFFFFFFFFFFFFFFFFFFFFFFFFFFFFFFFFFFFFFFFFFFFFFFFFFFFFFFF SUB DUP3 GT ISZERO PUSH2 0xA73 JUMPI PUSH2 0xA72 PUSH2 0x9F9 JUMP JUMPDEST JUMPDEST DUP3 DUP3 ADD SWAP1 POP SWAP3 SWAP2 POP POP JUMP JUMPDEST PUSH1 0x0 PUSH2 0xA89 DUP3 PUSH2 0x3F0 JUMP JUMPDEST SWAP2 POP PUSH32 0xFFFFFFFFFFFFFFFFFFFFFFFFFFFFFFFFFFFFFFFFFFFFFFFFFFFFFFFFFFFFFFFF DUP3 SUB PUSH2 0xABB JUMPI PUSH2 0xABA PUSH2 0x9F9 JUMP JUMPDEST JUMPDEST PUSH1 0x1 DUP3 ADD SWAP1 POP SWAP2 SWAP1 POP JUMP INVALID LOG2 PUSH5 0x6970667358 0x22 SLT KECCAK256 0x2E DUP13 PUSH7 0x95D30AE7BEA06A 0xB6 0x23 0x5C SWAP15 DIV 0xBE 0xED 0xB9 PUSH8 0x2557B4FD47D08D59 0x28 0x24 BYTE ADDMOD DUP11 PUSH5 0x736F6C6343 STOP ADDMOD 0xF STOP CALLER "
				},
				"gasEstimates": {
					"creation": {
						"codeDepositCost": "562400",
						"executionCost": "24860",
						"totalCost": "587260"
					},
					"external": {
						"addUser(address,string,uint256)": "infinite",
						"transfer(address)": "infinite",
						"users(uint256)": "infinite"
					},
					"internal": {
						"transferToAddress(address)": "infinite"
					}
				},
				"methodIdentifiers": {
					"addUser(address,string,uint256)": "f0384fb6",
					"transfer(address)": "1a695230",
					"users(uint256)": "365b98b2"
				}
			},
			"storageLayout": {
				"storage": [
					{
						"astId": 3,
						"contract": "contracts/Test1.sol:Test1",
						"label": "owner",
						"offset": 0,
						"slot": "0",
						"type": "t_address"
					},
					{
						"astId": 23,
						"contract": "contracts/Test1.sol:Test1",
						"label": "users",
						"offset": 0,
						"slot": "1",
						"type": "t_array(t_struct(User)19_storage)dyn_storage"
					}
				],
				"types": {
					"t_address": {
						"encoding": "inplace",
						"label": "address",
						"numberOfBytes": "20"
					},
					"t_array(t_struct(User)19_storage)dyn_storage": {
						"base": "t_struct(User)19_storage",
						"encoding": "dynamic_array",
						"label": "struct Test1.User[]",
						"numberOfBytes": "32"
					},
					"t_string_storage": {
						"encoding": "bytes",
						"label": "string",
						"numberOfBytes": "32"
					},
					"t_struct(User)19_storage": {
						"encoding": "inplace",
						"label": "struct Test1.User",
						"members": [
							{
								"astId": 14,
								"contract": "contracts/Test1.sol:Test1",
								"label": "walletAddress",
								"offset": 0,
								"slot": "0",
								"type": "t_address"
							},
							{
								"astId": 16,
								"contract": "contracts/Test1.sol:Test1",
								"label": "name",
								"offset": 0,
								"slot": "1",
								"type": "t_string_storage"
							},
							{
								"astId": 18,
								"contract": "contracts/Test1.sol:Test1",
								"label": "amount",
								"offset": 0,
								"slot": "2",
								"type": "t_uint256"
							}
						],
						"numberOfBytes": "96"
					},
					"t_uint256": {
						"encoding": "inplace",
						"label": "uint256",
						"numberOfBytes": "32"
					}
				}
			},
			"userdoc": {
				"kind": "user",
				"methods": {},
				"version": 1
			}
		}
	}
}