{
	"contracts/User.sol": {
		"User": {
			"abi": [
				{
					"inputs": [],
					"stateMutability": "nonpayable",
					"type": "constructor"
				},
				{
					"anonymous": false,
					"inputs": [
						{
							"indexed": false,
							"internalType": "uint256",
							"name": "id",
							"type": "uint256"
						},
						{
							"indexed": false,
							"internalType": "enum User.Status",
							"name": "status",
							"type": "uint8"
						}
					],
					"name": "Evaluated",
					"type": "event"
				},
				{
					"anonymous": false,
					"inputs": [
						{
							"indexed": false,
							"internalType": "address",
							"name": "userAddress",
							"type": "address"
						},
						{
							"indexed": false,
							"internalType": "uint256",
							"name": "id",
							"type": "uint256"
						}
					],
					"name": "NewApplication",
					"type": "event"
				},
				{
					"inputs": [
						{
							"internalType": "string",
							"name": "name",
							"type": "string"
						},
						{
							"internalType": "string",
							"name": "description",
							"type": "string"
						}
					],
					"name": "createApplication",
					"outputs": [],
					"stateMutability": "payable",
					"type": "function"
				},
				{
					"inputs": [
						{
							"internalType": "uint256",
							"name": "id",
							"type": "uint256"
						},
						{
							"internalType": "enum User.Status",
							"name": "status",
							"type": "uint8"
						}
					],
					"name": "evaluate",
					"outputs": [],
					"stateMutability": "nonpayable",
					"type": "function"
				}
			],
			"devdoc": {
				"kind": "dev",
				"methods": {},
				"version": 1
			},
			"evm": {
				"assembly": "    /* \"contracts/User.sol\":57:1262  contract User{... */\n  mstore(0x40, 0x80)\n    /* \"contracts/User.sol\":575:623  constructor(){... */\n  callvalue\n  dup1\n  iszero\n  tag_1\n  jumpi\n  0x00\n  dup1\n  revert\ntag_1:\n  pop\n    /* \"contracts/User.sol\":606:616  msg.sender */\n  caller\n    /* \"contracts/User.sol\":598:603  owner */\n  0x01\n  0x00\n    /* \"contracts/User.sol\":598:616  owner = msg.sender */\n  0x0100\n  exp\n  dup2\n  sload\n  dup2\n  0xffffffffffffffffffffffffffffffffffffffff\n  mul\n  not\n  and\n  swap1\n  dup4\n  0xffffffffffffffffffffffffffffffffffffffff\n  and\n  mul\n  or\n  swap1\n  sstore\n  pop\n    /* \"contracts/User.sol\":57:1262  contract User{... */\n  dataSize(sub_0)\n  dup1\n  dataOffset(sub_0)\n  0x00\n  codecopy\n  0x00\n  return\nstop\n\nsub_0: assembly {\n        /* \"contracts/User.sol\":57:1262  contract User{... */\n      mstore(0x40, 0x80)\n      jumpi(tag_1, lt(calldatasize, 0x04))\n      shr(0xe0, calldataload(0x00))\n      dup1\n      0x282fe5fb\n      eq\n      tag_2\n      jumpi\n      dup1\n      0xa0d16182\n      eq\n      tag_3\n      jumpi\n    tag_1:\n      0x00\n      dup1\n      revert\n        /* \"contracts/User.sol\":945:1256  function evaluate(uint id, Status status) onlyOwner public {... */\n    tag_2:\n      callvalue\n      dup1\n      iszero\n      tag_4\n      jumpi\n      0x00\n      dup1\n      revert\n    tag_4:\n      pop\n      tag_5\n      0x04\n      dup1\n      calldatasize\n      sub\n      dup2\n      add\n      swap1\n      tag_6\n      swap2\n      swap1\n      tag_7\n      jump\t// in\n    tag_6:\n      tag_8\n      jump\t// in\n    tag_5:\n      stop\n        /* \"contracts/User.sol\":629:939  function createApplication(string memory name, string memory description) public payable {... */\n    tag_3:\n      tag_9\n      0x04\n      dup1\n      calldatasize\n      sub\n      dup2\n      add\n      swap1\n      tag_10\n      swap2\n      swap1\n      tag_11\n      jump\t// in\n    tag_10:\n      tag_12\n      jump\t// in\n    tag_9:\n      stop\n        /* \"contracts/User.sol\":945:1256  function evaluate(uint id, Status status) onlyOwner public {... */\n    tag_8:\n        /* \"contracts/User.sol\":418:423  owner */\n      0x01\n      0x00\n      swap1\n      sload\n      swap1\n      0x0100\n      exp\n      swap1\n      div\n      0xffffffffffffffffffffffffffffffffffffffff\n      and\n        /* \"contracts/User.sol\":404:423  msg.sender == owner */\n      0xffffffffffffffffffffffffffffffffffffffff\n      and\n        /* \"contracts/User.sol\":404:414  msg.sender */\n      caller\n        /* \"contracts/User.sol\":404:423  msg.sender == owner */\n      0xffffffffffffffffffffffffffffffffffffffff\n      and\n      eq\n        /* \"contracts/User.sol\":396:449  require(msg.sender == owner, \"You must be the owner\") */\n      tag_14\n      jumpi\n      mload(0x40)\n      0x08c379a000000000000000000000000000000000000000000000000000000000\n      dup2\n      mstore\n      0x04\n      add\n      tag_15\n      swap1\n      tag_16\n      jump\t// in\n    tag_15:\n      mload(0x40)\n      dup1\n      swap2\n      sub\n      swap1\n      revert\n    tag_14:\n        /* \"contracts/User.sol\":1023:1054  Application storage application */\n      0x00\n        /* \"contracts/User.sol\":1057:1069  applications */\n      dup1\n        /* \"contracts/User.sol\":1070:1072  id */\n      dup4\n        /* \"contracts/User.sol\":1057:1073  applications[id] */\n      dup2\n      sload\n      dup2\n      lt\n      tag_18\n      jumpi\n      tag_19\n      tag_20\n      jump\t// in\n    tag_19:\n    tag_18:\n      swap1\n      0x00\n      mstore\n      keccak256(0x00, 0x20)\n      swap1\n      0x05\n      mul\n      add\n        /* \"contracts/User.sol\":1023:1073  Application storage application = applications[id] */\n      swap1\n      pop\n        /* \"contracts/User.sol\":1114:1129  Status.Received */\n      0x00\n        /* \"contracts/User.sol\":1092:1129  application.status == Status.Received */\n      0x02\n      dup2\n      gt\n      iszero\n      tag_22\n      jumpi\n      tag_23\n      tag_24\n      jump\t// in\n    tag_23:\n    tag_22:\n        /* \"contracts/User.sol\":1092:1103  application */\n      dup2\n        /* \"contracts/User.sol\":1092:1110  application.status */\n      0x04\n      add\n      0x00\n      swap1\n      sload\n      swap1\n      0x0100\n      exp\n      swap1\n      div\n      0xff\n      and\n        /* \"contracts/User.sol\":1092:1129  application.status == Status.Received */\n      0x02\n      dup2\n      gt\n      iszero\n      tag_25\n      jumpi\n      tag_26\n      tag_24\n      jump\t// in\n    tag_26:\n    tag_25:\n      eq\n        /* \"contracts/User.sol\":1084:1130  require(application.status == Status.Received) */\n      tag_27\n      jumpi\n      0x00\n      dup1\n      revert\n    tag_27:\n        /* \"contracts/User.sol\":1158:1173  Status.Received */\n      0x00\n        /* \"contracts/User.sol\":1148:1173  status != Status.Received */\n      0x02\n      dup2\n      gt\n      iszero\n      tag_28\n      jumpi\n      tag_29\n      tag_24\n      jump\t// in\n    tag_29:\n    tag_28:\n        /* \"contracts/User.sol\":1148:1154  status */\n      dup3\n        /* \"contracts/User.sol\":1148:1173  status != Status.Received */\n      0x02\n      dup2\n      gt\n      iszero\n      tag_30\n      jumpi\n      tag_31\n      tag_24\n      jump\t// in\n    tag_31:\n    tag_30:\n      sub\n        /* \"contracts/User.sol\":1140:1174  require(status != Status.Received) */\n      tag_32\n      jumpi\n      0x00\n      dup1\n      revert\n    tag_32:\n        /* \"contracts/User.sol\":1206:1212  status */\n      dup2\n        /* \"contracts/User.sol\":1185:1196  application */\n      dup2\n        /* \"contracts/User.sol\":1185:1203  application.status */\n      0x04\n      add\n      0x00\n        /* \"contracts/User.sol\":1185:1212  application.status = status */\n      0x0100\n      exp\n      dup2\n      sload\n      dup2\n      0xff\n      mul\n      not\n      and\n      swap1\n      dup4\n      0x02\n      dup2\n      gt\n      iszero\n      tag_33\n      jumpi\n      tag_34\n      tag_24\n      jump\t// in\n    tag_34:\n    tag_33:\n      mul\n      or\n      swap1\n      sstore\n      pop\n        /* \"contracts/User.sol\":1228:1249  Evaluated(id, status) */\n      0x67c612ab8da437e07fe0c68066f7ef6adb8d6a83c45dcc31f3a8d475e5da62f7\n        /* \"contracts/User.sol\":1238:1240  id */\n      dup4\n        /* \"contracts/User.sol\":1242:1248  status */\n      dup4\n        /* \"contracts/User.sol\":1228:1249  Evaluated(id, status) */\n      mload(0x40)\n      tag_35\n      swap3\n      swap2\n      swap1\n      tag_36\n      jump\t// in\n    tag_35:\n      mload(0x40)\n      dup1\n      swap2\n      sub\n      swap1\n      log1\n        /* \"contracts/User.sol\":1004:1256  {... */\n      pop\n        /* \"contracts/User.sol\":945:1256  function evaluate(uint id, Status status) onlyOwner public {... */\n      pop\n      pop\n      jump\t// out\n        /* \"contracts/User.sol\":629:939  function createApplication(string memory name, string memory description) public payable {... */\n    tag_12:\n        /* \"contracts/User.sol\":749:758  .01 ether */\n      0x2386f26fc10000\n        /* \"contracts/User.sol\":736:745  msg.value */\n      callvalue\n        /* \"contracts/User.sol\":736:758  msg.value == .01 ether */\n      eq\n        /* \"contracts/User.sol\":728:759  require(msg.value == .01 ether) */\n      tag_38\n      jumpi\n      0x00\n      dup1\n      revert\n    tag_38:\n        /* \"contracts/User.sol\":770:782  applications */\n      0x00\n        /* \"contracts/User.sol\":788:864  Application(msg.sender, name, description, block.timestamp, Status.Received) */\n      mload(0x40)\n      dup1\n      0xa0\n      add\n      0x40\n      mstore\n      dup1\n        /* \"contracts/User.sol\":800:810  msg.sender */\n      caller\n        /* \"contracts/User.sol\":788:864  Application(msg.sender, name, description, block.timestamp, Status.Received) */\n      0xffffffffffffffffffffffffffffffffffffffff\n      and\n      dup2\n      mstore\n      0x20\n      add\n        /* \"contracts/User.sol\":812:816  name */\n      dup5\n        /* \"contracts/User.sol\":788:864  Application(msg.sender, name, description, block.timestamp, Status.Received) */\n      dup2\n      mstore\n      0x20\n      add\n        /* \"contracts/User.sol\":818:829  description */\n      dup4\n        /* \"contracts/User.sol\":788:864  Application(msg.sender, name, description, block.timestamp, Status.Received) */\n      dup2\n      mstore\n      0x20\n      add\n        /* \"contracts/User.sol\":831:846  block.timestamp */\n      timestamp\n        /* \"contracts/User.sol\":788:864  Application(msg.sender, name, description, block.timestamp, Status.Received) */\n      dup2\n      mstore\n      0x20\n      add\n        /* \"contracts/User.sol\":848:863  Status.Received */\n      0x00\n        /* \"contracts/User.sol\":788:864  Application(msg.sender, name, description, block.timestamp, Status.Received) */\n      0x02\n      dup2\n      gt\n      iszero\n      tag_39\n      jumpi\n      tag_40\n      tag_24\n      jump\t// in\n    tag_40:\n    tag_39:\n      dup2\n      mstore\n      pop\n        /* \"contracts/User.sol\":770:865  applications.push(Application(msg.sender, name, description, block.timestamp, Status.Received)) */\n      swap1\n      dup1\n      0x01\n      dup2\n      sload\n      add\n      dup1\n      dup3\n      sstore\n      dup1\n      swap2\n      pop\n      pop\n      0x01\n      swap1\n      sub\n      swap1\n      0x00\n      mstore\n      keccak256(0x00, 0x20)\n      swap1\n      0x05\n      mul\n      add\n      0x00\n      swap1\n      swap2\n      swap1\n      swap2\n      swap1\n      swap2\n      pop\n      0x00\n      dup3\n      add\n      mload\n      dup2\n      0x00\n      add\n      exp(0x0100, 0x00)\n      dup2\n      sload\n      dup2\n      0xffffffffffffffffffffffffffffffffffffffff\n      mul\n      not\n      and\n      swap1\n      dup4\n      0xffffffffffffffffffffffffffffffffffffffff\n      and\n      mul\n      or\n      swap1\n      sstore\n      pop\n      0x20\n      dup3\n      add\n      mload\n      dup2\n      0x01\n      add\n      swap1\n      dup2\n      tag_42\n      swap2\n      swap1\n      tag_43\n      jump\t// in\n    tag_42:\n      pop\n      0x40\n      dup3\n      add\n      mload\n      dup2\n      0x02\n      add\n      swap1\n      dup2\n      tag_44\n      swap2\n      swap1\n      tag_43\n      jump\t// in\n    tag_44:\n      pop\n      0x60\n      dup3\n      add\n      mload\n      dup2\n      0x03\n      add\n      sstore\n      0x80\n      dup3\n      add\n      mload\n      dup2\n      0x04\n      add\n      exp(0x0100, 0x00)\n      dup2\n      sload\n      dup2\n      0xff\n      mul\n      not\n      and\n      swap1\n      dup4\n      0x02\n      dup2\n      gt\n      iszero\n      tag_45\n      jumpi\n      tag_46\n      tag_24\n      jump\t// in\n    tag_46:\n    tag_45:\n      mul\n      or\n      swap1\n      sstore\n      pop\n      pop\n      pop\n        /* \"contracts/User.sol\":881:932  NewApplication(msg.sender, applications.length - 1) */\n      0x9698105555994c5d564c25e23f5c5e0a81d36f1ed4b2c6600b25845be18a0dbd\n        /* \"contracts/User.sol\":896:906  msg.sender */\n      caller\n        /* \"contracts/User.sol\":930:931  1 */\n      0x01\n        /* \"contracts/User.sol\":908:920  applications */\n      0x00\n        /* \"contracts/User.sol\":908:927  applications.length */\n      dup1\n      sload\n      swap1\n      pop\n        /* \"contracts/User.sol\":908:931  applications.length - 1 */\n      tag_47\n      swap2\n      swap1\n      tag_48\n      jump\t// in\n    tag_47:\n        /* \"contracts/User.sol\":881:932  NewApplication(msg.sender, applications.length - 1) */\n      mload(0x40)\n      tag_49\n      swap3\n      swap2\n      swap1\n      tag_50\n      jump\t// in\n    tag_49:\n      mload(0x40)\n      dup1\n      swap2\n      sub\n      swap1\n      log1\n        /* \"contracts/User.sol\":629:939  function createApplication(string memory name, string memory description) public payable {... */\n      pop\n      pop\n      jump\t// out\n        /* \"#utility.yul\":7:82   */\n    tag_51:\n        /* \"#utility.yul\":40:46   */\n      0x00\n        /* \"#utility.yul\":73:75   */\n      0x40\n        /* \"#utility.yul\":67:76   */\n      mload\n        /* \"#utility.yul\":57:76   */\n      swap1\n      pop\n        /* \"#utility.yul\":7:82   */\n      swap1\n      jump\t// out\n        /* \"#utility.yul\":88:205   */\n    tag_52:\n        /* \"#utility.yul\":197:198   */\n      0x00\n        /* \"#utility.yul\":194:195   */\n      dup1\n        /* \"#utility.yul\":187:199   */\n      revert\n        /* \"#utility.yul\":211:328   */\n    tag_53:\n        /* \"#utility.yul\":320:321   */\n      0x00\n        /* \"#utility.yul\":317:318   */\n      dup1\n        /* \"#utility.yul\":310:322   */\n      revert\n        /* \"#utility.yul\":334:411   */\n    tag_54:\n        /* \"#utility.yul\":371:378   */\n      0x00\n        /* \"#utility.yul\":400:405   */\n      dup2\n        /* \"#utility.yul\":389:405   */\n      swap1\n      pop\n        /* \"#utility.yul\":334:411   */\n      swap2\n      swap1\n      pop\n      jump\t// out\n        /* \"#utility.yul\":417:539   */\n    tag_55:\n        /* \"#utility.yul\":490:514   */\n      tag_105\n        /* \"#utility.yul\":508:513   */\n      dup2\n        /* \"#utility.yul\":490:514   */\n      tag_54\n      jump\t// in\n    tag_105:\n        /* \"#utility.yul\":483:488   */\n      dup2\n        /* \"#utility.yul\":480:515   */\n      eq\n        /* \"#utility.yul\":470:533   */\n      tag_106\n      jumpi\n        /* \"#utility.yul\":529:530   */\n      0x00\n        /* \"#utility.yul\":526:527   */\n      dup1\n        /* \"#utility.yul\":519:531   */\n      revert\n        /* \"#utility.yul\":470:533   */\n    tag_106:\n        /* \"#utility.yul\":417:539   */\n      pop\n      jump\t// out\n        /* \"#utility.yul\":545:684   */\n    tag_56:\n        /* \"#utility.yul\":591:596   */\n      0x00\n        /* \"#utility.yul\":629:635   */\n      dup2\n        /* \"#utility.yul\":616:636   */\n      calldataload\n        /* \"#utility.yul\":607:636   */\n      swap1\n      pop\n        /* \"#utility.yul\":645:678   */\n      tag_108\n        /* \"#utility.yul\":672:677   */\n      dup2\n        /* \"#utility.yul\":645:678   */\n      tag_55\n      jump\t// in\n    tag_108:\n        /* \"#utility.yul\":545:684   */\n      swap3\n      swap2\n      pop\n      pop\n      jump\t// out\n        /* \"#utility.yul\":690:797   */\n    tag_57:\n        /* \"#utility.yul\":771:772   */\n      0x03\n        /* \"#utility.yul\":764:769   */\n      dup2\n        /* \"#utility.yul\":761:773   */\n      lt\n        /* \"#utility.yul\":751:791   */\n      tag_110\n      jumpi\n        /* \"#utility.yul\":787:788   */\n      0x00\n        /* \"#utility.yul\":784:785   */\n      dup1\n        /* \"#utility.yul\":777:789   */\n      revert\n        /* \"#utility.yul\":751:791   */\n    tag_110:\n        /* \"#utility.yul\":690:797   */\n      pop\n      jump\t// out\n        /* \"#utility.yul\":803:958   */\n    tag_58:\n        /* \"#utility.yul\":857:862   */\n      0x00\n        /* \"#utility.yul\":895:901   */\n      dup2\n        /* \"#utility.yul\":882:902   */\n      calldataload\n        /* \"#utility.yul\":873:902   */\n      swap1\n      pop\n        /* \"#utility.yul\":911:952   */\n      tag_112\n        /* \"#utility.yul\":946:951   */\n      dup2\n        /* \"#utility.yul\":911:952   */\n      tag_57\n      jump\t// in\n    tag_112:\n        /* \"#utility.yul\":803:958   */\n      swap3\n      swap2\n      pop\n      pop\n      jump\t// out\n        /* \"#utility.yul\":964:1454   */\n    tag_7:\n        /* \"#utility.yul\":1040:1046   */\n      0x00\n        /* \"#utility.yul\":1048:1054   */\n      dup1\n        /* \"#utility.yul\":1097:1099   */\n      0x40\n        /* \"#utility.yul\":1085:1094   */\n      dup4\n        /* \"#utility.yul\":1076:1083   */\n      dup6\n        /* \"#utility.yul\":1072:1095   */\n      sub\n        /* \"#utility.yul\":1068:1100   */\n      slt\n        /* \"#utility.yul\":1065:1184   */\n      iszero\n      tag_114\n      jumpi\n        /* \"#utility.yul\":1103:1182   */\n      tag_115\n      tag_52\n      jump\t// in\n    tag_115:\n        /* \"#utility.yul\":1065:1184   */\n    tag_114:\n        /* \"#utility.yul\":1223:1224   */\n      0x00\n        /* \"#utility.yul\":1248:1301   */\n      tag_116\n        /* \"#utility.yul\":1293:1300   */\n      dup6\n        /* \"#utility.yul\":1284:1290   */\n      dup3\n        /* \"#utility.yul\":1273:1282   */\n      dup7\n        /* \"#utility.yul\":1269:1291   */\n      add\n        /* \"#utility.yul\":1248:1301   */\n      tag_56\n      jump\t// in\n    tag_116:\n        /* \"#utility.yul\":1238:1301   */\n      swap3\n      pop\n        /* \"#utility.yul\":1194:1311   */\n      pop\n        /* \"#utility.yul\":1350:1352   */\n      0x20\n        /* \"#utility.yul\":1376:1437   */\n      tag_117\n        /* \"#utility.yul\":1429:1436   */\n      dup6\n        /* \"#utility.yul\":1420:1426   */\n      dup3\n        /* \"#utility.yul\":1409:1418   */\n      dup7\n        /* \"#utility.yul\":1405:1427   */\n      add\n        /* \"#utility.yul\":1376:1437   */\n      tag_58\n      jump\t// in\n    tag_117:\n        /* \"#utility.yul\":1366:1437   */\n      swap2\n      pop\n        /* \"#utility.yul\":1321:1447   */\n      pop\n        /* \"#utility.yul\":964:1454   */\n      swap3\n      pop\n      swap3\n      swap1\n      pop\n      jump\t// out\n        /* \"#utility.yul\":1460:1577   */\n    tag_59:\n        /* \"#utility.yul\":1569:1570   */\n      0x00\n        /* \"#utility.yul\":1566:1567   */\n      dup1\n        /* \"#utility.yul\":1559:1571   */\n      revert\n        /* \"#utility.yul\":1583:1700   */\n    tag_60:\n        /* \"#utility.yul\":1692:1693   */\n      0x00\n        /* \"#utility.yul\":1689:1690   */\n      dup1\n        /* \"#utility.yul\":1682:1694   */\n      revert\n        /* \"#utility.yul\":1706:1808   */\n    tag_61:\n        /* \"#utility.yul\":1747:1753   */\n      0x00\n        /* \"#utility.yul\":1798:1800   */\n      0x1f\n        /* \"#utility.yul\":1794:1801   */\n      not\n        /* \"#utility.yul\":1789:1791   */\n      0x1f\n        /* \"#utility.yul\":1782:1787   */\n      dup4\n        /* \"#utility.yul\":1778:1792   */\n      add\n        /* \"#utility.yul\":1774:1802   */\n      and\n        /* \"#utility.yul\":1764:1802   */\n      swap1\n      pop\n        /* \"#utility.yul\":1706:1808   */\n      swap2\n      swap1\n      pop\n      jump\t// out\n        /* \"#utility.yul\":1814:1994   */\n    tag_62:\n        /* \"#utility.yul\":1862:1939   */\n      0x4e487b7100000000000000000000000000000000000000000000000000000000\n        /* \"#utility.yul\":1859:1860   */\n      0x00\n        /* \"#utility.yul\":1852:1940   */\n      mstore\n        /* \"#utility.yul\":1959:1963   */\n      0x41\n        /* \"#utility.yul\":1956:1957   */\n      0x04\n        /* \"#utility.yul\":1949:1964   */\n      mstore\n        /* \"#utility.yul\":1983:1987   */\n      0x24\n        /* \"#utility.yul\":1980:1981   */\n      0x00\n        /* \"#utility.yul\":1973:1988   */\n      revert\n        /* \"#utility.yul\":2000:2281   */\n    tag_63:\n        /* \"#utility.yul\":2083:2110   */\n      tag_123\n        /* \"#utility.yul\":2105:2109   */\n      dup3\n        /* \"#utility.yul\":2083:2110   */\n      tag_61\n      jump\t// in\n    tag_123:\n        /* \"#utility.yul\":2075:2081   */\n      dup2\n        /* \"#utility.yul\":2071:2111   */\n      add\n        /* \"#utility.yul\":2213:2219   */\n      dup2\n        /* \"#utility.yul\":2201:2211   */\n      dup2\n        /* \"#utility.yul\":2198:2220   */\n      lt\n        /* \"#utility.yul\":2177:2195   */\n      0xffffffffffffffff\n        /* \"#utility.yul\":2165:2175   */\n      dup3\n        /* \"#utility.yul\":2162:2196   */\n      gt\n        /* \"#utility.yul\":2159:2221   */\n      or\n        /* \"#utility.yul\":2156:2244   */\n      iszero\n      tag_124\n      jumpi\n        /* \"#utility.yul\":2224:2242   */\n      tag_125\n      tag_62\n      jump\t// in\n    tag_125:\n        /* \"#utility.yul\":2156:2244   */\n    tag_124:\n        /* \"#utility.yul\":2264:2274   */\n      dup1\n        /* \"#utility.yul\":2260:2262   */\n      0x40\n        /* \"#utility.yul\":2253:2275   */\n      mstore\n        /* \"#utility.yul\":2043:2281   */\n      pop\n        /* \"#utility.yul\":2000:2281   */\n      pop\n      pop\n      jump\t// out\n        /* \"#utility.yul\":2287:2416   */\n    tag_64:\n        /* \"#utility.yul\":2321:2327   */\n      0x00\n        /* \"#utility.yul\":2348:2368   */\n      tag_127\n      tag_51\n      jump\t// in\n    tag_127:\n        /* \"#utility.yul\":2338:2368   */\n      swap1\n      pop\n        /* \"#utility.yul\":2377:2410   */\n      tag_128\n        /* \"#utility.yul\":2405:2409   */\n      dup3\n        /* \"#utility.yul\":2397:2403   */\n      dup3\n        /* \"#utility.yul\":2377:2410   */\n      tag_63\n      jump\t// in\n    tag_128:\n        /* \"#utility.yul\":2287:2416   */\n      swap2\n      swap1\n      pop\n      jump\t// out\n        /* \"#utility.yul\":2422:2730   */\n    tag_65:\n        /* \"#utility.yul\":2484:2488   */\n      0x00\n        /* \"#utility.yul\":2574:2592   */\n      0xffffffffffffffff\n        /* \"#utility.yul\":2566:2572   */\n      dup3\n        /* \"#utility.yul\":2563:2593   */\n      gt\n        /* \"#utility.yul\":2560:2616   */\n      iszero\n      tag_130\n      jumpi\n        /* \"#utility.yul\":2596:2614   */\n      tag_131\n      tag_62\n      jump\t// in\n    tag_131:\n        /* \"#utility.yul\":2560:2616   */\n    tag_130:\n        /* \"#utility.yul\":2634:2663   */\n      tag_132\n        /* \"#utility.yul\":2656:2662   */\n      dup3\n        /* \"#utility.yul\":2634:2663   */\n      tag_61\n      jump\t// in\n    tag_132:\n        /* \"#utility.yul\":2626:2663   */\n      swap1\n      pop\n        /* \"#utility.yul\":2718:2722   */\n      0x20\n        /* \"#utility.yul\":2712:2716   */\n      dup2\n        /* \"#utility.yul\":2708:2723   */\n      add\n        /* \"#utility.yul\":2700:2723   */\n      swap1\n      pop\n        /* \"#utility.yul\":2422:2730   */\n      swap2\n      swap1\n      pop\n      jump\t// out\n        /* \"#utility.yul\":2736:2890   */\n    tag_66:\n        /* \"#utility.yul\":2820:2826   */\n      dup3\n        /* \"#utility.yul\":2815:2818   */\n      dup2\n        /* \"#utility.yul\":2810:2813   */\n      dup4\n        /* \"#utility.yul\":2797:2827   */\n      calldatacopy\n        /* \"#utility.yul\":2882:2883   */\n      0x00\n        /* \"#utility.yul\":2873:2879   */\n      dup4\n        /* \"#utility.yul\":2868:2871   */\n      dup4\n        /* \"#utility.yul\":2864:2880   */\n      add\n        /* \"#utility.yul\":2857:2884   */\n      mstore\n        /* \"#utility.yul\":2736:2890   */\n      pop\n      pop\n      pop\n      jump\t// out\n        /* \"#utility.yul\":2896:3308   */\n    tag_67:\n        /* \"#utility.yul\":2974:2979   */\n      0x00\n        /* \"#utility.yul\":2999:3065   */\n      tag_135\n        /* \"#utility.yul\":3015:3064   */\n      tag_136\n        /* \"#utility.yul\":3057:3063   */\n      dup5\n        /* \"#utility.yul\":3015:3064   */\n      tag_65\n      jump\t// in\n    tag_136:\n        /* \"#utility.yul\":2999:3065   */\n      tag_64\n      jump\t// in\n    tag_135:\n        /* \"#utility.yul\":2990:3065   */\n      swap1\n      pop\n        /* \"#utility.yul\":3088:3094   */\n      dup3\n        /* \"#utility.yul\":3081:3086   */\n      dup2\n        /* \"#utility.yul\":3074:3095   */\n      mstore\n        /* \"#utility.yul\":3126:3130   */\n      0x20\n        /* \"#utility.yul\":3119:3124   */\n      dup2\n        /* \"#utility.yul\":3115:3131   */\n      add\n        /* \"#utility.yul\":3164:3167   */\n      dup5\n        /* \"#utility.yul\":3155:3161   */\n      dup5\n        /* \"#utility.yul\":3150:3153   */\n      dup5\n        /* \"#utility.yul\":3146:3162   */\n      add\n        /* \"#utility.yul\":3143:3168   */\n      gt\n        /* \"#utility.yul\":3140:3252   */\n      iszero\n      tag_137\n      jumpi\n        /* \"#utility.yul\":3171:3250   */\n      tag_138\n      tag_60\n      jump\t// in\n    tag_138:\n        /* \"#utility.yul\":3140:3252   */\n    tag_137:\n        /* \"#utility.yul\":3261:3302   */\n      tag_139\n        /* \"#utility.yul\":3295:3301   */\n      dup5\n        /* \"#utility.yul\":3290:3293   */\n      dup3\n        /* \"#utility.yul\":3285:3288   */\n      dup6\n        /* \"#utility.yul\":3261:3302   */\n      tag_66\n      jump\t// in\n    tag_139:\n        /* \"#utility.yul\":2980:3308   */\n      pop\n        /* \"#utility.yul\":2896:3308   */\n      swap4\n      swap3\n      pop\n      pop\n      pop\n      jump\t// out\n        /* \"#utility.yul\":3328:3668   */\n    tag_68:\n        /* \"#utility.yul\":3384:3389   */\n      0x00\n        /* \"#utility.yul\":3433:3436   */\n      dup3\n        /* \"#utility.yul\":3426:3430   */\n      0x1f\n        /* \"#utility.yul\":3418:3424   */\n      dup4\n        /* \"#utility.yul\":3414:3431   */\n      add\n        /* \"#utility.yul\":3410:3437   */\n      slt\n        /* \"#utility.yul\":3400:3522   */\n      tag_141\n      jumpi\n        /* \"#utility.yul\":3441:3520   */\n      tag_142\n      tag_59\n      jump\t// in\n    tag_142:\n        /* \"#utility.yul\":3400:3522   */\n    tag_141:\n        /* \"#utility.yul\":3558:3564   */\n      dup2\n        /* \"#utility.yul\":3545:3565   */\n      calldataload\n        /* \"#utility.yul\":3583:3662   */\n      tag_143\n        /* \"#utility.yul\":3658:3661   */\n      dup5\n        /* \"#utility.yul\":3650:3656   */\n      dup3\n        /* \"#utility.yul\":3643:3647   */\n      0x20\n        /* \"#utility.yul\":3635:3641   */\n      dup7\n        /* \"#utility.yul\":3631:3648   */\n      add\n        /* \"#utility.yul\":3583:3662   */\n      tag_67\n      jump\t// in\n    tag_143:\n        /* \"#utility.yul\":3574:3662   */\n      swap2\n      pop\n        /* \"#utility.yul\":3390:3668   */\n      pop\n        /* \"#utility.yul\":3328:3668   */\n      swap3\n      swap2\n      pop\n      pop\n      jump\t// out\n        /* \"#utility.yul\":3674:4508   */\n    tag_11:\n        /* \"#utility.yul\":3762:3768   */\n      0x00\n        /* \"#utility.yul\":3770:3776   */\n      dup1\n        /* \"#utility.yul\":3819:3821   */\n      0x40\n        /* \"#utility.yul\":3807:3816   */\n      dup4\n        /* \"#utility.yul\":3798:3805   */\n      dup6\n        /* \"#utility.yul\":3794:3817   */\n      sub\n        /* \"#utility.yul\":3790:3822   */\n      slt\n        /* \"#utility.yul\":3787:3906   */\n      iszero\n      tag_145\n      jumpi\n        /* \"#utility.yul\":3825:3904   */\n      tag_146\n      tag_52\n      jump\t// in\n    tag_146:\n        /* \"#utility.yul\":3787:3906   */\n    tag_145:\n        /* \"#utility.yul\":3973:3974   */\n      0x00\n        /* \"#utility.yul\":3962:3971   */\n      dup4\n        /* \"#utility.yul\":3958:3975   */\n      add\n        /* \"#utility.yul\":3945:3976   */\n      calldataload\n        /* \"#utility.yul\":4003:4021   */\n      0xffffffffffffffff\n        /* \"#utility.yul\":3995:4001   */\n      dup2\n        /* \"#utility.yul\":3992:4022   */\n      gt\n        /* \"#utility.yul\":3989:4106   */\n      iszero\n      tag_147\n      jumpi\n        /* \"#utility.yul\":4025:4104   */\n      tag_148\n      tag_53\n      jump\t// in\n    tag_148:\n        /* \"#utility.yul\":3989:4106   */\n    tag_147:\n        /* \"#utility.yul\":4130:4193   */\n      tag_149\n        /* \"#utility.yul\":4185:4192   */\n      dup6\n        /* \"#utility.yul\":4176:4182   */\n      dup3\n        /* \"#utility.yul\":4165:4174   */\n      dup7\n        /* \"#utility.yul\":4161:4183   */\n      add\n        /* \"#utility.yul\":4130:4193   */\n      tag_68\n      jump\t// in\n    tag_149:\n        /* \"#utility.yul\":4120:4193   */\n      swap3\n      pop\n        /* \"#utility.yul\":3916:4203   */\n      pop\n        /* \"#utility.yul\":4270:4272   */\n      0x20\n        /* \"#utility.yul\":4259:4268   */\n      dup4\n        /* \"#utility.yul\":4255:4273   */\n      add\n        /* \"#utility.yul\":4242:4274   */\n      calldataload\n        /* \"#utility.yul\":4301:4319   */\n      0xffffffffffffffff\n        /* \"#utility.yul\":4293:4299   */\n      dup2\n        /* \"#utility.yul\":4290:4320   */\n      gt\n        /* \"#utility.yul\":4287:4404   */\n      iszero\n      tag_150\n      jumpi\n        /* \"#utility.yul\":4323:4402   */\n      tag_151\n      tag_53\n      jump\t// in\n    tag_151:\n        /* \"#utility.yul\":4287:4404   */\n    tag_150:\n        /* \"#utility.yul\":4428:4491   */\n      tag_152\n        /* \"#utility.yul\":4483:4490   */\n      dup6\n        /* \"#utility.yul\":4474:4480   */\n      dup3\n        /* \"#utility.yul\":4463:4472   */\n      dup7\n        /* \"#utility.yul\":4459:4481   */\n      add\n        /* \"#utility.yul\":4428:4491   */\n      tag_68\n      jump\t// in\n    tag_152:\n        /* \"#utility.yul\":4418:4491   */\n      swap2\n      pop\n        /* \"#utility.yul\":4213:4501   */\n      pop\n        /* \"#utility.yul\":3674:4508   */\n      swap3\n      pop\n      swap3\n      swap1\n      pop\n      jump\t// out\n        /* \"#utility.yul\":4514:4683   */\n    tag_69:\n        /* \"#utility.yul\":4598:4609   */\n      0x00\n        /* \"#utility.yul\":4632:4638   */\n      dup3\n        /* \"#utility.yul\":4627:4630   */\n      dup3\n        /* \"#utility.yul\":4620:4639   */\n      mstore\n        /* \"#utility.yul\":4672:4676   */\n      0x20\n        /* \"#utility.yul\":4667:4670   */\n      dup3\n        /* \"#utility.yul\":4663:4677   */\n      add\n        /* \"#utility.yul\":4648:4677   */\n      swap1\n      pop\n        /* \"#utility.yul\":4514:4683   */\n      swap3\n      swap2\n      pop\n      pop\n      jump\t// out\n        /* \"#utility.yul\":4689:4860   */\n    tag_70:\n        /* \"#utility.yul\":4829:4852   */\n      0x596f75206d75737420626520746865206f776e65720000000000000000000000\n        /* \"#utility.yul\":4825:4826   */\n      0x00\n        /* \"#utility.yul\":4817:4823   */\n      dup3\n        /* \"#utility.yul\":4813:4827   */\n      add\n        /* \"#utility.yul\":4806:4853   */\n      mstore\n        /* \"#utility.yul\":4689:4860   */\n      pop\n      jump\t// out\n        /* \"#utility.yul\":4866:5232   */\n    tag_71:\n        /* \"#utility.yul\":5008:5011   */\n      0x00\n        /* \"#utility.yul\":5029:5096   */\n      tag_156\n        /* \"#utility.yul\":5093:5095   */\n      0x15\n        /* \"#utility.yul\":5088:5091   */\n      dup4\n        /* \"#utility.yul\":5029:5096   */\n      tag_69\n      jump\t// in\n    tag_156:\n        /* \"#utility.yul\":5022:5096   */\n      swap2\n      pop\n        /* \"#utility.yul\":5105:5198   */\n      tag_157\n        /* \"#utility.yul\":5194:5197   */\n      dup3\n        /* \"#utility.yul\":5105:5198   */\n      tag_70\n      jump\t// in\n    tag_157:\n        /* \"#utility.yul\":5223:5225   */\n      0x20\n        /* \"#utility.yul\":5218:5221   */\n      dup3\n        /* \"#utility.yul\":5214:5226   */\n      add\n        /* \"#utility.yul\":5207:5226   */\n      swap1\n      pop\n        /* \"#utility.yul\":4866:5232   */\n      swap2\n      swap1\n      pop\n      jump\t// out\n        /* \"#utility.yul\":5238:5657   */\n    tag_16:\n        /* \"#utility.yul\":5404:5408   */\n      0x00\n        /* \"#utility.yul\":5442:5444   */\n      0x20\n        /* \"#utility.yul\":5431:5440   */\n      dup3\n        /* \"#utility.yul\":5427:5445   */\n      add\n        /* \"#utility.yul\":5419:5445   */\n      swap1\n      pop\n        /* \"#utility.yul\":5491:5500   */\n      dup2\n        /* \"#utility.yul\":5485:5489   */\n      dup2\n        /* \"#utility.yul\":5481:5501   */\n      sub\n        /* \"#utility.yul\":5477:5478   */\n      0x00\n        /* \"#utility.yul\":5466:5475   */\n      dup4\n        /* \"#utility.yul\":5462:5479   */\n      add\n        /* \"#utility.yul\":5455:5502   */\n      mstore\n        /* \"#utility.yul\":5519:5650   */\n      tag_159\n        /* \"#utility.yul\":5645:5649   */\n      dup2\n        /* \"#utility.yul\":5519:5650   */\n      tag_71\n      jump\t// in\n    tag_159:\n        /* \"#utility.yul\":5511:5650   */\n      swap1\n      pop\n        /* \"#utility.yul\":5238:5657   */\n      swap2\n      swap1\n      pop\n      jump\t// out\n        /* \"#utility.yul\":5663:5843   */\n    tag_20:\n        /* \"#utility.yul\":5711:5788   */\n      0x4e487b7100000000000000000000000000000000000000000000000000000000\n        /* \"#utility.yul\":5708:5709   */\n      0x00\n        /* \"#utility.yul\":5701:5789   */\n      mstore\n        /* \"#utility.yul\":5808:5812   */\n      0x32\n        /* \"#utility.yul\":5805:5806   */\n      0x04\n        /* \"#utility.yul\":5798:5813   */\n      mstore\n        /* \"#utility.yul\":5832:5836   */\n      0x24\n        /* \"#utility.yul\":5829:5830   */\n      0x00\n        /* \"#utility.yul\":5822:5837   */\n      revert\n        /* \"#utility.yul\":5849:6029   */\n    tag_24:\n        /* \"#utility.yul\":5897:5974   */\n      0x4e487b7100000000000000000000000000000000000000000000000000000000\n        /* \"#utility.yul\":5894:5895   */\n      0x00\n        /* \"#utility.yul\":5887:5975   */\n      mstore\n        /* \"#utility.yul\":5994:5998   */\n      0x21\n        /* \"#utility.yul\":5991:5992   */\n      0x04\n        /* \"#utility.yul\":5984:5999   */\n      mstore\n        /* \"#utility.yul\":6018:6022   */\n      0x24\n        /* \"#utility.yul\":6015:6016   */\n      0x00\n        /* \"#utility.yul\":6008:6023   */\n      revert\n        /* \"#utility.yul\":6035:6153   */\n    tag_72:\n        /* \"#utility.yul\":6122:6146   */\n      tag_163\n        /* \"#utility.yul\":6140:6145   */\n      dup2\n        /* \"#utility.yul\":6122:6146   */\n      tag_54\n      jump\t// in\n    tag_163:\n        /* \"#utility.yul\":6117:6120   */\n      dup3\n        /* \"#utility.yul\":6110:6147   */\n      mstore\n        /* \"#utility.yul\":6035:6153   */\n      pop\n      pop\n      jump\t// out\n        /* \"#utility.yul\":6159:6272   */\n    tag_73:\n        /* \"#utility.yul\":6240:6241   */\n      0x03\n        /* \"#utility.yul\":6233:6238   */\n      dup2\n        /* \"#utility.yul\":6230:6242   */\n      lt\n        /* \"#utility.yul\":6220:6266   */\n      tag_165\n      jumpi\n        /* \"#utility.yul\":6246:6264   */\n      tag_166\n      tag_24\n      jump\t// in\n    tag_166:\n        /* \"#utility.yul\":6220:6266   */\n    tag_165:\n        /* \"#utility.yul\":6159:6272   */\n      pop\n      jump\t// out\n        /* \"#utility.yul\":6278:6405   */\n    tag_74:\n        /* \"#utility.yul\":6323:6330   */\n      0x00\n        /* \"#utility.yul\":6352:6357   */\n      dup2\n        /* \"#utility.yul\":6341:6357   */\n      swap1\n      pop\n        /* \"#utility.yul\":6358:6399   */\n      tag_168\n        /* \"#utility.yul\":6393:6398   */\n      dup3\n        /* \"#utility.yul\":6358:6399   */\n      tag_73\n      jump\t// in\n    tag_168:\n        /* \"#utility.yul\":6278:6405   */\n      swap2\n      swap1\n      pop\n      jump\t// out\n        /* \"#utility.yul\":6411:6538   */\n    tag_75:\n        /* \"#utility.yul\":6467:6476   */\n      0x00\n        /* \"#utility.yul\":6500:6532   */\n      tag_170\n        /* \"#utility.yul\":6526:6531   */\n      dup3\n        /* \"#utility.yul\":6500:6532   */\n      tag_74\n      jump\t// in\n    tag_170:\n        /* \"#utility.yul\":6487:6532   */\n      swap1\n      pop\n        /* \"#utility.yul\":6411:6538   */\n      swap2\n      swap1\n      pop\n      jump\t// out\n        /* \"#utility.yul\":6544:6687   */\n    tag_76:\n        /* \"#utility.yul\":6637:6680   */\n      tag_172\n        /* \"#utility.yul\":6674:6679   */\n      dup2\n        /* \"#utility.yul\":6637:6680   */\n      tag_75\n      jump\t// in\n    tag_172:\n        /* \"#utility.yul\":6632:6635   */\n      dup3\n        /* \"#utility.yul\":6625:6681   */\n      mstore\n        /* \"#utility.yul\":6544:6687   */\n      pop\n      pop\n      jump\t// out\n        /* \"#utility.yul\":6693:7037   */\n    tag_36:\n        /* \"#utility.yul\":6820:6824   */\n      0x00\n        /* \"#utility.yul\":6858:6860   */\n      0x40\n        /* \"#utility.yul\":6847:6856   */\n      dup3\n        /* \"#utility.yul\":6843:6861   */\n      add\n        /* \"#utility.yul\":6835:6861   */\n      swap1\n      pop\n        /* \"#utility.yul\":6871:6942   */\n      tag_174\n        /* \"#utility.yul\":6939:6940   */\n      0x00\n        /* \"#utility.yul\":6928:6937   */\n      dup4\n        /* \"#utility.yul\":6924:6941   */\n      add\n        /* \"#utility.yul\":6915:6921   */\n      dup6\n        /* \"#utility.yul\":6871:6942   */\n      tag_72\n      jump\t// in\n    tag_174:\n        /* \"#utility.yul\":6952:7030   */\n      tag_175\n        /* \"#utility.yul\":7026:7028   */\n      0x20\n        /* \"#utility.yul\":7015:7024   */\n      dup4\n        /* \"#utility.yul\":7011:7029   */\n      add\n        /* \"#utility.yul\":7002:7008   */\n      dup5\n        /* \"#utility.yul\":6952:7030   */\n      tag_76\n      jump\t// in\n    tag_175:\n        /* \"#utility.yul\":6693:7037   */\n      swap4\n      swap3\n      pop\n      pop\n      pop\n      jump\t// out\n        /* \"#utility.yul\":7043:7142   */\n    tag_77:\n        /* \"#utility.yul\":7095:7101   */\n      0x00\n        /* \"#utility.yul\":7129:7134   */\n      dup2\n        /* \"#utility.yul\":7123:7135   */\n      mload\n        /* \"#utility.yul\":7113:7135   */\n      swap1\n      pop\n        /* \"#utility.yul\":7043:7142   */\n      swap2\n      swap1\n      pop\n      jump\t// out\n        /* \"#utility.yul\":7148:7328   */\n    tag_78:\n        /* \"#utility.yul\":7196:7273   */\n      0x4e487b7100000000000000000000000000000000000000000000000000000000\n        /* \"#utility.yul\":7193:7194   */\n      0x00\n        /* \"#utility.yul\":7186:7274   */\n      mstore\n        /* \"#utility.yul\":7293:7297   */\n      0x22\n        /* \"#utility.yul\":7290:7291   */\n      0x04\n        /* \"#utility.yul\":7283:7298   */\n      mstore\n        /* \"#utility.yul\":7317:7321   */\n      0x24\n        /* \"#utility.yul\":7314:7315   */\n      0x00\n        /* \"#utility.yul\":7307:7322   */\n      revert\n        /* \"#utility.yul\":7334:7654   */\n    tag_79:\n        /* \"#utility.yul\":7378:7384   */\n      0x00\n        /* \"#utility.yul\":7415:7416   */\n      0x02\n        /* \"#utility.yul\":7409:7413   */\n      dup3\n        /* \"#utility.yul\":7405:7417   */\n      div\n        /* \"#utility.yul\":7395:7417   */\n      swap1\n      pop\n        /* \"#utility.yul\":7462:7463   */\n      0x01\n        /* \"#utility.yul\":7456:7460   */\n      dup3\n        /* \"#utility.yul\":7452:7464   */\n      and\n        /* \"#utility.yul\":7483:7501   */\n      dup1\n        /* \"#utility.yul\":7473:7554   */\n      tag_179\n      jumpi\n        /* \"#utility.yul\":7539:7543   */\n      0x7f\n        /* \"#utility.yul\":7531:7537   */\n      dup3\n        /* \"#utility.yul\":7527:7544   */\n      and\n        /* \"#utility.yul\":7517:7544   */\n      swap2\n      pop\n        /* \"#utility.yul\":7473:7554   */\n    tag_179:\n        /* \"#utility.yul\":7601:7603   */\n      0x20\n        /* \"#utility.yul\":7593:7599   */\n      dup3\n        /* \"#utility.yul\":7590:7604   */\n      lt\n        /* \"#utility.yul\":7570:7588   */\n      dup2\n        /* \"#utility.yul\":7567:7605   */\n      sub\n        /* \"#utility.yul\":7564:7648   */\n      tag_180\n      jumpi\n        /* \"#utility.yul\":7620:7638   */\n      tag_181\n      tag_78\n      jump\t// in\n    tag_181:\n        /* \"#utility.yul\":7564:7648   */\n    tag_180:\n        /* \"#utility.yul\":7385:7654   */\n      pop\n        /* \"#utility.yul\":7334:7654   */\n      swap2\n      swap1\n      pop\n      jump\t// out\n        /* \"#utility.yul\":7660:7801   */\n    tag_80:\n        /* \"#utility.yul\":7709:7713   */\n      0x00\n        /* \"#utility.yul\":7732:7735   */\n      dup2\n        /* \"#utility.yul\":7724:7735   */\n      swap1\n      pop\n        /* \"#utility.yul\":7755:7758   */\n      dup2\n        /* \"#utility.yul\":7752:7753   */\n      0x00\n        /* \"#utility.yul\":7745:7759   */\n      mstore\n        /* \"#utility.yul\":7789:7793   */\n      0x20\n        /* \"#utility.yul\":7786:7787   */\n      0x00\n        /* \"#utility.yul\":7776:7794   */\n      keccak256\n        /* \"#utility.yul\":7768:7794   */\n      swap1\n      pop\n        /* \"#utility.yul\":7660:7801   */\n      swap2\n      swap1\n      pop\n      jump\t// out\n        /* \"#utility.yul\":7807:7900   */\n    tag_81:\n        /* \"#utility.yul\":7844:7850   */\n      0x00\n        /* \"#utility.yul\":7891:7893   */\n      0x20\n        /* \"#utility.yul\":7886:7888   */\n      0x1f\n        /* \"#utility.yul\":7879:7884   */\n      dup4\n        /* \"#utility.yul\":7875:7889   */\n      add\n        /* \"#utility.yul\":7871:7894   */\n      div\n        /* \"#utility.yul\":7861:7894   */\n      swap1\n      pop\n        /* \"#utility.yul\":7807:7900   */\n      swap2\n      swap1\n      pop\n      jump\t// out\n        /* \"#utility.yul\":7906:8013   */\n    tag_82:\n        /* \"#utility.yul\":7950:7958   */\n      0x00\n        /* \"#utility.yul\":8000:8005   */\n      dup3\n        /* \"#utility.yul\":7994:7998   */\n      dup3\n        /* \"#utility.yul\":7990:8006   */\n      shl\n        /* \"#utility.yul\":7969:8006   */\n      swap1\n      pop\n        /* \"#utility.yul\":7906:8013   */\n      swap3\n      swap2\n      pop\n      pop\n      jump\t// out\n        /* \"#utility.yul\":8019:8412   */\n    tag_83:\n        /* \"#utility.yul\":8088:8094   */\n      0x00\n        /* \"#utility.yul\":8138:8139   */\n      0x08\n        /* \"#utility.yul\":8126:8136   */\n      dup4\n        /* \"#utility.yul\":8122:8140   */\n      mul\n        /* \"#utility.yul\":8161:8258   */\n      tag_186\n        /* \"#utility.yul\":8191:8257   */\n      0xffffffffffffffffffffffffffffffffffffffffffffffffffffffffffffffff\n        /* \"#utility.yul\":8180:8189   */\n      dup3\n        /* \"#utility.yul\":8161:8258   */\n      tag_82\n      jump\t// in\n    tag_186:\n        /* \"#utility.yul\":8279:8318   */\n      tag_187\n        /* \"#utility.yul\":8309:8317   */\n      dup7\n        /* \"#utility.yul\":8298:8307   */\n      dup4\n        /* \"#utility.yul\":8279:8318   */\n      tag_82\n      jump\t// in\n    tag_187:\n        /* \"#utility.yul\":8267:8318   */\n      swap6\n      pop\n        /* \"#utility.yul\":8351:8355   */\n      dup1\n        /* \"#utility.yul\":8347:8356   */\n      not\n        /* \"#utility.yul\":8340:8345   */\n      dup5\n        /* \"#utility.yul\":8336:8357   */\n      and\n        /* \"#utility.yul\":8327:8357   */\n      swap4\n      pop\n        /* \"#utility.yul\":8400:8404   */\n      dup1\n        /* \"#utility.yul\":8390:8398   */\n      dup7\n        /* \"#utility.yul\":8386:8405   */\n      and\n        /* \"#utility.yul\":8379:8384   */\n      dup5\n        /* \"#utility.yul\":8376:8406   */\n      or\n        /* \"#utility.yul\":8366:8406   */\n      swap3\n      pop\n        /* \"#utility.yul\":8095:8412   */\n      pop\n      pop\n        /* \"#utility.yul\":8019:8412   */\n      swap4\n      swap3\n      pop\n      pop\n      pop\n      jump\t// out\n        /* \"#utility.yul\":8418:8478   */\n    tag_84:\n        /* \"#utility.yul\":8446:8449   */\n      0x00\n        /* \"#utility.yul\":8467:8472   */\n      dup2\n        /* \"#utility.yul\":8460:8472   */\n      swap1\n      pop\n        /* \"#utility.yul\":8418:8478   */\n      swap2\n      swap1\n      pop\n      jump\t// out\n        /* \"#utility.yul\":8484:8626   */\n    tag_85:\n        /* \"#utility.yul\":8534:8543   */\n      0x00\n        /* \"#utility.yul\":8567:8620   */\n      tag_190\n        /* \"#utility.yul\":8585:8619   */\n      tag_191\n        /* \"#utility.yul\":8594:8618   */\n      tag_192\n        /* \"#utility.yul\":8612:8617   */\n      dup5\n        /* \"#utility.yul\":8594:8618   */\n      tag_54\n      jump\t// in\n    tag_192:\n        /* \"#utility.yul\":8585:8619   */\n      tag_84\n      jump\t// in\n    tag_191:\n        /* \"#utility.yul\":8567:8620   */\n      tag_54\n      jump\t// in\n    tag_190:\n        /* \"#utility.yul\":8554:8620   */\n      swap1\n      pop\n        /* \"#utility.yul\":8484:8626   */\n      swap2\n      swap1\n      pop\n      jump\t// out\n        /* \"#utility.yul\":8632:8707   */\n    tag_86:\n        /* \"#utility.yul\":8675:8678   */\n      0x00\n        /* \"#utility.yul\":8696:8701   */\n      dup2\n        /* \"#utility.yul\":8689:8701   */\n      swap1\n      pop\n        /* \"#utility.yul\":8632:8707   */\n      swap2\n      swap1\n      pop\n      jump\t// out\n        /* \"#utility.yul\":8713:8982   */\n    tag_87:\n        /* \"#utility.yul\":8823:8862   */\n      tag_195\n        /* \"#utility.yul\":8854:8861   */\n      dup4\n        /* \"#utility.yul\":8823:8862   */\n      tag_85\n      jump\t// in\n    tag_195:\n        /* \"#utility.yul\":8884:8975   */\n      tag_196\n        /* \"#utility.yul\":8933:8974   */\n      tag_197\n        /* \"#utility.yul\":8957:8973   */\n      dup3\n        /* \"#utility.yul\":8933:8974   */\n      tag_86\n      jump\t// in\n    tag_197:\n        /* \"#utility.yul\":8925:8931   */\n      dup5\n        /* \"#utility.yul\":8918:8922   */\n      dup5\n        /* \"#utility.yul\":8912:8923   */\n      sload\n        /* \"#utility.yul\":8884:8975   */\n      tag_83\n      jump\t// in\n    tag_196:\n        /* \"#utility.yul\":8878:8882   */\n      dup3\n        /* \"#utility.yul\":8871:8976   */\n      sstore\n        /* \"#utility.yul\":8789:8982   */\n      pop\n        /* \"#utility.yul\":8713:8982   */\n      pop\n      pop\n      pop\n      jump\t// out\n        /* \"#utility.yul\":8988:9061   */\n    tag_88:\n        /* \"#utility.yul\":9033:9036   */\n      0x00\n        /* \"#utility.yul\":8988:9061   */\n      swap1\n      jump\t// out\n        /* \"#utility.yul\":9067:9256   */\n    tag_89:\n        /* \"#utility.yul\":9144:9176   */\n      tag_200\n      tag_88\n      jump\t// in\n    tag_200:\n        /* \"#utility.yul\":9185:9250   */\n      tag_201\n        /* \"#utility.yul\":9243:9249   */\n      dup2\n        /* \"#utility.yul\":9235:9241   */\n      dup5\n        /* \"#utility.yul\":9229:9233   */\n      dup5\n        /* \"#utility.yul\":9185:9250   */\n      tag_87\n      jump\t// in\n    tag_201:\n        /* \"#utility.yul\":9120:9256   */\n      pop\n        /* \"#utility.yul\":9067:9256   */\n      pop\n      pop\n      jump\t// out\n        /* \"#utility.yul\":9262:9448   */\n    tag_90:\n        /* \"#utility.yul\":9322:9442   */\n    tag_203:\n        /* \"#utility.yul\":9339:9342   */\n      dup2\n        /* \"#utility.yul\":9332:9337   */\n      dup2\n        /* \"#utility.yul\":9329:9343   */\n      lt\n        /* \"#utility.yul\":9322:9442   */\n      iszero\n      tag_205\n      jumpi\n        /* \"#utility.yul\":9393:9432   */\n      tag_206\n        /* \"#utility.yul\":9430:9431   */\n      0x00\n        /* \"#utility.yul\":9423:9428   */\n      dup3\n        /* \"#utility.yul\":9393:9432   */\n      tag_89\n      jump\t// in\n    tag_206:\n        /* \"#utility.yul\":9366:9367   */\n      0x01\n        /* \"#utility.yul\":9359:9364   */\n      dup2\n        /* \"#utility.yul\":9355:9368   */\n      add\n        /* \"#utility.yul\":9346:9368   */\n      swap1\n      pop\n        /* \"#utility.yul\":9322:9442   */\n      jump(tag_203)\n    tag_205:\n        /* \"#utility.yul\":9262:9448   */\n      pop\n      pop\n      jump\t// out\n        /* \"#utility.yul\":9454:9997   */\n    tag_91:\n        /* \"#utility.yul\":9555:9557   */\n      0x1f\n        /* \"#utility.yul\":9550:9553   */\n      dup3\n        /* \"#utility.yul\":9547:9558   */\n      gt\n        /* \"#utility.yul\":9544:9990   */\n      iszero\n      tag_208\n      jumpi\n        /* \"#utility.yul\":9589:9627   */\n      tag_209\n        /* \"#utility.yul\":9621:9626   */\n      dup2\n        /* \"#utility.yul\":9589:9627   */\n      tag_80\n      jump\t// in\n    tag_209:\n        /* \"#utility.yul\":9673:9702   */\n      tag_210\n        /* \"#utility.yul\":9691:9701   */\n      dup5\n        /* \"#utility.yul\":9673:9702   */\n      tag_81\n      jump\t// in\n    tag_210:\n        /* \"#utility.yul\":9663:9671   */\n      dup2\n        /* \"#utility.yul\":9659:9703   */\n      add\n        /* \"#utility.yul\":9856:9858   */\n      0x20\n        /* \"#utility.yul\":9844:9854   */\n      dup6\n        /* \"#utility.yul\":9841:9859   */\n      lt\n        /* \"#utility.yul\":9838:9887   */\n      iszero\n      tag_211\n      jumpi\n        /* \"#utility.yul\":9877:9885   */\n      dup2\n        /* \"#utility.yul\":9862:9885   */\n      swap1\n      pop\n        /* \"#utility.yul\":9838:9887   */\n    tag_211:\n        /* \"#utility.yul\":9900:9980   */\n      tag_212\n        /* \"#utility.yul\":9956:9978   */\n      tag_213\n        /* \"#utility.yul\":9974:9977   */\n      dup6\n        /* \"#utility.yul\":9956:9978   */\n      tag_81\n      jump\t// in\n    tag_213:\n        /* \"#utility.yul\":9946:9954   */\n      dup4\n        /* \"#utility.yul\":9942:9979   */\n      add\n        /* \"#utility.yul\":9929:9940   */\n      dup3\n        /* \"#utility.yul\":9900:9980   */\n      tag_90\n      jump\t// in\n    tag_212:\n        /* \"#utility.yul\":9559:9990   */\n      pop\n      pop\n        /* \"#utility.yul\":9544:9990   */\n    tag_208:\n        /* \"#utility.yul\":9454:9997   */\n      pop\n      pop\n      pop\n      jump\t// out\n        /* \"#utility.yul\":10003:10120   */\n    tag_92:\n        /* \"#utility.yul\":10057:10065   */\n      0x00\n        /* \"#utility.yul\":10107:10112   */\n      dup3\n        /* \"#utility.yul\":10101:10105   */\n      dup3\n        /* \"#utility.yul\":10097:10113   */\n      shr\n        /* \"#utility.yul\":10076:10113   */\n      swap1\n      pop\n        /* \"#utility.yul\":10003:10120   */\n      swap3\n      swap2\n      pop\n      pop\n      jump\t// out\n        /* \"#utility.yul\":10126:10295   */\n    tag_93:\n        /* \"#utility.yul\":10170:10176   */\n      0x00\n        /* \"#utility.yul\":10203:10254   */\n      tag_216\n        /* \"#utility.yul\":10251:10252   */\n      0x00\n        /* \"#utility.yul\":10247:10253   */\n      not\n        /* \"#utility.yul\":10239:10244   */\n      dup5\n        /* \"#utility.yul\":10236:10237   */\n      0x08\n        /* \"#utility.yul\":10232:10245   */\n      mul\n        /* \"#utility.yul\":10203:10254   */\n      tag_92\n      jump\t// in\n    tag_216:\n        /* \"#utility.yul\":10199:10255   */\n      not\n        /* \"#utility.yul\":10284:10288   */\n      dup1\n        /* \"#utility.yul\":10278:10282   */\n      dup4\n        /* \"#utility.yul\":10274:10289   */\n      and\n        /* \"#utility.yul\":10264:10289   */\n      swap2\n      pop\n        /* \"#utility.yul\":10177:10295   */\n      pop\n        /* \"#utility.yul\":10126:10295   */\n      swap3\n      swap2\n      pop\n      pop\n      jump\t// out\n        /* \"#utility.yul\":10300:10595   */\n    tag_94:\n        /* \"#utility.yul\":10376:10380   */\n      0x00\n        /* \"#utility.yul\":10522:10551   */\n      tag_218\n        /* \"#utility.yul\":10547:10550   */\n      dup4\n        /* \"#utility.yul\":10541:10545   */\n      dup4\n        /* \"#utility.yul\":10522:10551   */\n      tag_93\n      jump\t// in\n    tag_218:\n        /* \"#utility.yul\":10514:10551   */\n      swap2\n      pop\n        /* \"#utility.yul\":10584:10587   */\n      dup3\n        /* \"#utility.yul\":10581:10582   */\n      0x02\n        /* \"#utility.yul\":10577:10588   */\n      mul\n        /* \"#utility.yul\":10571:10575   */\n      dup3\n        /* \"#utility.yul\":10568:10589   */\n      or\n        /* \"#utility.yul\":10560:10589   */\n      swap1\n      pop\n        /* \"#utility.yul\":10300:10595   */\n      swap3\n      swap2\n      pop\n      pop\n      jump\t// out\n        /* \"#utility.yul\":10600:11995   */\n    tag_43:\n        /* \"#utility.yul\":10717:10754   */\n      tag_220\n        /* \"#utility.yul\":10750:10753   */\n      dup3\n        /* \"#utility.yul\":10717:10754   */\n      tag_77\n      jump\t// in\n    tag_220:\n        /* \"#utility.yul\":10819:10837   */\n      0xffffffffffffffff\n        /* \"#utility.yul\":10811:10817   */\n      dup2\n        /* \"#utility.yul\":10808:10838   */\n      gt\n        /* \"#utility.yul\":10805:10861   */\n      iszero\n      tag_221\n      jumpi\n        /* \"#utility.yul\":10841:10859   */\n      tag_222\n      tag_62\n      jump\t// in\n    tag_222:\n        /* \"#utility.yul\":10805:10861   */\n    tag_221:\n        /* \"#utility.yul\":10885:10923   */\n      tag_223\n        /* \"#utility.yul\":10917:10921   */\n      dup3\n        /* \"#utility.yul\":10911:10922   */\n      sload\n        /* \"#utility.yul\":10885:10923   */\n      tag_79\n      jump\t// in\n    tag_223:\n        /* \"#utility.yul\":10970:11037   */\n      tag_224\n        /* \"#utility.yul\":11030:11036   */\n      dup3\n        /* \"#utility.yul\":11022:11028   */\n      dup3\n        /* \"#utility.yul\":11016:11020   */\n      dup6\n        /* \"#utility.yul\":10970:11037   */\n      tag_91\n      jump\t// in\n    tag_224:\n        /* \"#utility.yul\":11064:11065   */\n      0x00\n        /* \"#utility.yul\":11088:11092   */\n      0x20\n        /* \"#utility.yul\":11075:11092   */\n      swap1\n      pop\n        /* \"#utility.yul\":11120:11122   */\n      0x1f\n        /* \"#utility.yul\":11112:11118   */\n      dup4\n        /* \"#utility.yul\":11109:11123   */\n      gt\n        /* \"#utility.yul\":11137:11138   */\n      0x01\n        /* \"#utility.yul\":11132:11750   */\n      dup2\n      eq\n      tag_226\n      jumpi\n        /* \"#utility.yul\":11794:11795   */\n      0x00\n        /* \"#utility.yul\":11811:11817   */\n      dup5\n        /* \"#utility.yul\":11808:11885   */\n      iszero\n      tag_227\n      jumpi\n        /* \"#utility.yul\":11860:11869   */\n      dup3\n        /* \"#utility.yul\":11855:11858   */\n      dup8\n        /* \"#utility.yul\":11851:11870   */\n      add\n        /* \"#utility.yul\":11845:11871   */\n      mload\n        /* \"#utility.yul\":11836:11871   */\n      swap1\n      pop\n        /* \"#utility.yul\":11808:11885   */\n    tag_227:\n        /* \"#utility.yul\":11911:11978   */\n      tag_228\n        /* \"#utility.yul\":11971:11977   */\n      dup6\n        /* \"#utility.yul\":11964:11969   */\n      dup3\n        /* \"#utility.yul\":11911:11978   */\n      tag_94\n      jump\t// in\n    tag_228:\n        /* \"#utility.yul\":11905:11909   */\n      dup7\n        /* \"#utility.yul\":11898:11979   */\n      sstore\n        /* \"#utility.yul\":11767:11989   */\n      pop\n        /* \"#utility.yul\":11102:11989   */\n      jump(tag_225)\n        /* \"#utility.yul\":11132:11750   */\n    tag_226:\n        /* \"#utility.yul\":11184:11188   */\n      0x1f\n        /* \"#utility.yul\":11180:11189   */\n      not\n        /* \"#utility.yul\":11172:11178   */\n      dup5\n        /* \"#utility.yul\":11168:11190   */\n      and\n        /* \"#utility.yul\":11218:11255   */\n      tag_229\n        /* \"#utility.yul\":11250:11254   */\n      dup7\n        /* \"#utility.yul\":11218:11255   */\n      tag_80\n      jump\t// in\n    tag_229:\n        /* \"#utility.yul\":11277:11278   */\n      0x00\n        /* \"#utility.yul\":11291:11499   */\n    tag_230:\n        /* \"#utility.yul\":11305:11312   */\n      dup3\n        /* \"#utility.yul\":11302:11303   */\n      dup2\n        /* \"#utility.yul\":11299:11313   */\n      lt\n        /* \"#utility.yul\":11291:11499   */\n      iszero\n      tag_232\n      jumpi\n        /* \"#utility.yul\":11384:11393   */\n      dup5\n        /* \"#utility.yul\":11379:11382   */\n      dup10\n        /* \"#utility.yul\":11375:11394   */\n      add\n        /* \"#utility.yul\":11369:11395   */\n      mload\n        /* \"#utility.yul\":11361:11367   */\n      dup3\n        /* \"#utility.yul\":11354:11396   */\n      sstore\n        /* \"#utility.yul\":11435:11436   */\n      0x01\n        /* \"#utility.yul\":11427:11433   */\n      dup3\n        /* \"#utility.yul\":11423:11437   */\n      add\n        /* \"#utility.yul\":11413:11437   */\n      swap2\n      pop\n        /* \"#utility.yul\":11482:11484   */\n      0x20\n        /* \"#utility.yul\":11471:11480   */\n      dup6\n        /* \"#utility.yul\":11467:11485   */\n      add\n        /* \"#utility.yul\":11454:11485   */\n      swap5\n      pop\n        /* \"#utility.yul\":11328:11332   */\n      0x20\n        /* \"#utility.yul\":11325:11326   */\n      dup2\n        /* \"#utility.yul\":11321:11333   */\n      add\n        /* \"#utility.yul\":11316:11333   */\n      swap1\n      pop\n        /* \"#utility.yul\":11291:11499   */\n      jump(tag_230)\n    tag_232:\n        /* \"#utility.yul\":11527:11533   */\n      dup7\n        /* \"#utility.yul\":11518:11525   */\n      dup4\n        /* \"#utility.yul\":11515:11534   */\n      lt\n        /* \"#utility.yul\":11512:11691   */\n      iszero\n      tag_233\n      jumpi\n        /* \"#utility.yul\":11585:11594   */\n      dup5\n        /* \"#utility.yul\":11580:11583   */\n      dup10\n        /* \"#utility.yul\":11576:11595   */\n      add\n        /* \"#utility.yul\":11570:11596   */\n      mload\n        /* \"#utility.yul\":11628:11676   */\n      tag_234\n        /* \"#utility.yul\":11670:11674   */\n      0x1f\n        /* \"#utility.yul\":11662:11668   */\n      dup10\n        /* \"#utility.yul\":11658:11675   */\n      and\n        /* \"#utility.yul\":11647:11656   */\n      dup3\n        /* \"#utility.yul\":11628:11676   */\n      tag_93\n      jump\t// in\n    tag_234:\n        /* \"#utility.yul\":11620:11626   */\n      dup4\n        /* \"#utility.yul\":11613:11677   */\n      sstore\n        /* \"#utility.yul\":11535:11691   */\n      pop\n        /* \"#utility.yul\":11512:11691   */\n    tag_233:\n        /* \"#utility.yul\":11737:11738   */\n      0x01\n        /* \"#utility.yul\":11733:11734   */\n      0x02\n        /* \"#utility.yul\":11725:11731   */\n      dup9\n        /* \"#utility.yul\":11721:11735   */\n      mul\n        /* \"#utility.yul\":11717:11739   */\n      add\n        /* \"#utility.yul\":11711:11715   */\n      dup9\n        /* \"#utility.yul\":11704:11740   */\n      sstore\n        /* \"#utility.yul\":11139:11750   */\n      pop\n      pop\n      pop\n        /* \"#utility.yul\":11102:11989   */\n    tag_225:\n      pop\n        /* \"#utility.yul\":10692:11995   */\n      pop\n      pop\n      pop\n        /* \"#utility.yul\":10600:11995   */\n      pop\n      pop\n      jump\t// out\n        /* \"#utility.yul\":12001:12181   */\n    tag_95:\n        /* \"#utility.yul\":12049:12126   */\n      0x4e487b7100000000000000000000000000000000000000000000000000000000\n        /* \"#utility.yul\":12046:12047   */\n      0x00\n        /* \"#utility.yul\":12039:12127   */\n      mstore\n        /* \"#utility.yul\":12146:12150   */\n      0x11\n        /* \"#utility.yul\":12143:12144   */\n      0x04\n        /* \"#utility.yul\":12136:12151   */\n      mstore\n        /* \"#utility.yul\":12170:12174   */\n      0x24\n        /* \"#utility.yul\":12167:12168   */\n      0x00\n        /* \"#utility.yul\":12160:12175   */\n      revert\n        /* \"#utility.yul\":12187:12378   */\n    tag_48:\n        /* \"#utility.yul\":12227:12231   */\n      0x00\n        /* \"#utility.yul\":12247:12267   */\n      tag_237\n        /* \"#utility.yul\":12265:12266   */\n      dup3\n        /* \"#utility.yul\":12247:12267   */\n      tag_54\n      jump\t// in\n    tag_237:\n        /* \"#utility.yul\":12242:12267   */\n      swap2\n      pop\n        /* \"#utility.yul\":12281:12301   */\n      tag_238\n        /* \"#utility.yul\":12299:12300   */\n      dup4\n        /* \"#utility.yul\":12281:12301   */\n      tag_54\n      jump\t// in\n    tag_238:\n        /* \"#utility.yul\":12276:12301   */\n      swap3\n      pop\n        /* \"#utility.yul\":12320:12321   */\n      dup3\n        /* \"#utility.yul\":12317:12318   */\n      dup3\n        /* \"#utility.yul\":12314:12322   */\n      lt\n        /* \"#utility.yul\":12311:12345   */\n      iszero\n      tag_239\n      jumpi\n        /* \"#utility.yul\":12325:12343   */\n      tag_240\n      tag_95\n      jump\t// in\n    tag_240:\n        /* \"#utility.yul\":12311:12345   */\n    tag_239:\n        /* \"#utility.yul\":12370:12371   */\n      dup3\n        /* \"#utility.yul\":12367:12368   */\n      dup3\n        /* \"#utility.yul\":12363:12372   */\n      sub\n        /* \"#utility.yul\":12355:12372   */\n      swap1\n      pop\n        /* \"#utility.yul\":12187:12378   */\n      swap3\n      swap2\n      pop\n      pop\n      jump\t// out\n        /* \"#utility.yul\":12384:12510   */\n    tag_96:\n        /* \"#utility.yul\":12421:12428   */\n      0x00\n        /* \"#utility.yul\":12461:12503   */\n      0xffffffffffffffffffffffffffffffffffffffff\n        /* \"#utility.yul\":12454:12459   */\n      dup3\n        /* \"#utility.yul\":12450:12504   */\n      and\n        /* \"#utility.yul\":12439:12504   */\n      swap1\n      pop\n        /* \"#utility.yul\":12384:12510   */\n      swap2\n      swap1\n      pop\n      jump\t// out\n        /* \"#utility.yul\":12516:12612   */\n    tag_97:\n        /* \"#utility.yul\":12553:12560   */\n      0x00\n        /* \"#utility.yul\":12582:12606   */\n      tag_243\n        /* \"#utility.yul\":12600:12605   */\n      dup3\n        /* \"#utility.yul\":12582:12606   */\n      tag_96\n      jump\t// in\n    tag_243:\n        /* \"#utility.yul\":12571:12606   */\n      swap1\n      pop\n        /* \"#utility.yul\":12516:12612   */\n      swap2\n      swap1\n      pop\n      jump\t// out\n        /* \"#utility.yul\":12618:12736   */\n    tag_98:\n        /* \"#utility.yul\":12705:12729   */\n      tag_245\n        /* \"#utility.yul\":12723:12728   */\n      dup2\n        /* \"#utility.yul\":12705:12729   */\n      tag_97\n      jump\t// in\n    tag_245:\n        /* \"#utility.yul\":12700:12703   */\n      dup3\n        /* \"#utility.yul\":12693:12730   */\n      mstore\n        /* \"#utility.yul\":12618:12736   */\n      pop\n      pop\n      jump\t// out\n        /* \"#utility.yul\":12742:13074   */\n    tag_50:\n        /* \"#utility.yul\":12863:12867   */\n      0x00\n        /* \"#utility.yul\":12901:12903   */\n      0x40\n        /* \"#utility.yul\":12890:12899   */\n      dup3\n        /* \"#utility.yul\":12886:12904   */\n      add\n        /* \"#utility.yul\":12878:12904   */\n      swap1\n      pop\n        /* \"#utility.yul\":12914:12985   */\n      tag_247\n        /* \"#utility.yul\":12982:12983   */\n      0x00\n        /* \"#utility.yul\":12971:12980   */\n      dup4\n        /* \"#utility.yul\":12967:12984   */\n      add\n        /* \"#utility.yul\":12958:12964   */\n      dup6\n        /* \"#utility.yul\":12914:12985   */\n      tag_98\n      jump\t// in\n    tag_247:\n        /* \"#utility.yul\":12995:13067   */\n      tag_248\n        /* \"#utility.yul\":13063:13065   */\n      0x20\n        /* \"#utility.yul\":13052:13061   */\n      dup4\n        /* \"#utility.yul\":13048:13066   */\n      add\n        /* \"#utility.yul\":13039:13045   */\n      dup5\n        /* \"#utility.yul\":12995:13067   */\n      tag_72\n      jump\t// in\n    tag_248:\n        /* \"#utility.yul\":12742:13074   */\n      swap4\n      swap3\n      pop\n      pop\n      pop\n      jump\t// out\n\n    auxdata: 0xa2646970667358221220c40127065978e994000eea361ea33dd59e780e4cd135287579fe02cd454b486a64736f6c634300080f0033\n}\n",
				"bytecode": {
					"linkReferences": {},
					"object": "608060405234801561001057600080fd5b5033600160006101000a81548173ffffffffffffffffffffffffffffffffffffffff021916908373ffffffffffffffffffffffffffffffffffffffff160217905550610b44806100616000396000f3fe6080604052600436106100295760003560e01c8063282fe5fb1461002e578063a0d1618214610057575b600080fd5b34801561003a57600080fd5b50610055600480360381019061005091906103ff565b610073565b005b610071600480360381019061006c9190610585565b610205565b005b600160009054906101000a900473ffffffffffffffffffffffffffffffffffffffff1673ffffffffffffffffffffffffffffffffffffffff163373ffffffffffffffffffffffffffffffffffffffff1614610103576040517f08c379a00000000000000000000000000000000000000000000000000000000081526004016100fa9061065a565b60405180910390fd5b60008083815481106101185761011761067a565b5b906000526020600020906005020190506000600281111561013c5761013b6106a9565b5b8160040160009054906101000a900460ff1660028111156101605761015f6106a9565b5b1461016a57600080fd5b6000600281111561017e5761017d6106a9565b5b826002811115610191576101906106a9565b5b0361019b57600080fd5b818160040160006101000a81548160ff021916908360028111156101c2576101c16106a9565b5b02179055507f67c612ab8da437e07fe0c68066f7ef6adb8d6a83c45dcc31f3a8d475e5da62f783836040516101f892919061072f565b60405180910390a1505050565b662386f26fc10000341461021857600080fd5b60006040518060a001604052803373ffffffffffffffffffffffffffffffffffffffff16815260200184815260200183815260200142815260200160006002811115610267576102666106a9565b5b815250908060018154018082558091505060019003906000526020600020906005020160009091909190915060008201518160000160006101000a81548173ffffffffffffffffffffffffffffffffffffffff021916908373ffffffffffffffffffffffffffffffffffffffff16021790555060208201518160010190816102ef919061096f565b506040820151816002019081610305919061096f565b506060820151816003015560808201518160040160006101000a81548160ff0219169083600281111561033b5761033a6106a9565b5b021790555050507f9698105555994c5d564c25e23f5c5e0a81d36f1ed4b2c6600b25845be18a0dbd3360016000805490506103769190610a70565b604051610384929190610ae5565b60405180910390a15050565b6000604051905090565b600080fd5b600080fd5b6000819050919050565b6103b7816103a4565b81146103c257600080fd5b50565b6000813590506103d4816103ae565b92915050565b600381106103e757600080fd5b50565b6000813590506103f9816103da565b92915050565b600080604083850312156104165761041561039a565b5b6000610424858286016103c5565b9250506020610435858286016103ea565b9150509250929050565b600080fd5b600080fd5b6000601f19601f8301169050919050565b7f4e487b7100000000000000000000000000000000000000000000000000000000600052604160045260246000fd5b61049282610449565b810181811067ffffffffffffffff821117156104b1576104b061045a565b5b80604052505050565b60006104c4610390565b90506104d08282610489565b919050565b600067ffffffffffffffff8211156104f0576104ef61045a565b5b6104f982610449565b9050602081019050919050565b82818337600083830152505050565b6000610528610523846104d5565b6104ba565b90508281526020810184848401111561054457610543610444565b5b61054f848285610506565b509392505050565b600082601f83011261056c5761056b61043f565b5b813561057c848260208601610515565b91505092915050565b6000806040838503121561059c5761059b61039a565b5b600083013567ffffffffffffffff8111156105ba576105b961039f565b5b6105c685828601610557565b925050602083013567ffffffffffffffff8111156105e7576105e661039f565b5b6105f385828601610557565b9150509250929050565b600082825260208201905092915050565b7f596f75206d75737420626520746865206f776e65720000000000000000000000600082015250565b60006106446015836105fd565b915061064f8261060e565b602082019050919050565b6000602082019050818103600083015261067381610637565b9050919050565b7f4e487b7100000000000000000000000000000000000000000000000000000000600052603260045260246000fd5b7f4e487b7100000000000000000000000000000000000000000000000000000000600052602160045260246000fd5b6106e1816103a4565b82525050565b600381106106f8576106f76106a9565b5b50565b6000819050610709826106e7565b919050565b6000610719826106fb565b9050919050565b6107298161070e565b82525050565b600060408201905061074460008301856106d8565b6107516020830184610720565b9392505050565b600081519050919050565b7f4e487b7100000000000000000000000000000000000000000000000000000000600052602260045260246000fd5b600060028204905060018216806107aa57607f821691505b6020821081036107bd576107bc610763565b5b50919050565b60008190508160005260206000209050919050565b60006020601f8301049050919050565b600082821b905092915050565b6000600883026108257fffffffffffffffffffffffffffffffffffffffffffffffffffffffffffffffff826107e8565b61082f86836107e8565b95508019841693508086168417925050509392505050565b6000819050919050565b600061086c610867610862846103a4565b610847565b6103a4565b9050919050565b6000819050919050565b61088683610851565b61089a61089282610873565b8484546107f5565b825550505050565b600090565b6108af6108a2565b6108ba81848461087d565b505050565b5b818110156108de576108d36000826108a7565b6001810190506108c0565b5050565b601f821115610923576108f4816107c3565b6108fd846107d8565b8101602085101561090c578190505b610920610918856107d8565b8301826108bf565b50505b505050565b600082821c905092915050565b600061094660001984600802610928565b1980831691505092915050565b600061095f8383610935565b9150826002028217905092915050565b61097882610758565b67ffffffffffffffff8111156109915761099061045a565b5b61099b8254610792565b6109a68282856108e2565b600060209050601f8311600181146109d957600084156109c7578287015190505b6109d18582610953565b865550610a39565b601f1984166109e7866107c3565b60005b82811015610a0f578489015182556001820191506020850194506020810190506109ea565b86831015610a2c5784890151610a28601f891682610935565b8355505b6001600288020188555050505b505050505050565b7f4e487b7100000000000000000000000000000000000000000000000000000000600052601160045260246000fd5b6000610a7b826103a4565b9150610a86836103a4565b925082821015610a9957610a98610a41565b5b828203905092915050565b600073ffffffffffffffffffffffffffffffffffffffff82169050919050565b6000610acf82610aa4565b9050919050565b610adf81610ac4565b82525050565b6000604082019050610afa6000830185610ad6565b610b0760208301846106d8565b939250505056fea2646970667358221220c40127065978e994000eea361ea33dd59e780e4cd135287579fe02cd454b486a64736f6c634300080f0033",
					"opcodes": "PUSH1 0x80 PUSH1 0x40 MSTORE CALLVALUE DUP1 ISZERO PUSH2 0x10 JUMPI PUSH1 0x0 DUP1 REVERT JUMPDEST POP CALLER PUSH1 0x1 PUSH1 0x0 PUSH2 0x100 EXP DUP2 SLOAD DUP2 PUSH20 0xFFFFFFFFFFFFFFFFFFFFFFFFFFFFFFFFFFFFFFFF MUL NOT AND SWAP1 DUP4 PUSH20 0xFFFFFFFFFFFFFFFFFFFFFFFFFFFFFFFFFFFFFFFF AND MUL OR SWAP1 SSTORE POP PUSH2 0xB44 DUP1 PUSH2 0x61 PUSH1 0x0 CODECOPY PUSH1 0x0 RETURN INVALID PUSH1 0x80 PUSH1 0x40 MSTORE PUSH1 0x4 CALLDATASIZE LT PUSH2 0x29 JUMPI PUSH1 0x0 CALLDATALOAD PUSH1 0xE0 SHR DUP1 PUSH4 0x282FE5FB EQ PUSH2 0x2E JUMPI DUP1 PUSH4 0xA0D16182 EQ PUSH2 0x57 JUMPI JUMPDEST PUSH1 0x0 DUP1 REVERT JUMPDEST CALLVALUE DUP1 ISZERO PUSH2 0x3A JUMPI PUSH1 0x0 DUP1 REVERT JUMPDEST POP PUSH2 0x55 PUSH1 0x4 DUP1 CALLDATASIZE SUB DUP2 ADD SWAP1 PUSH2 0x50 SWAP2 SWAP1 PUSH2 0x3FF JUMP JUMPDEST PUSH2 0x73 JUMP JUMPDEST STOP JUMPDEST PUSH2 0x71 PUSH1 0x4 DUP1 CALLDATASIZE SUB DUP2 ADD SWAP1 PUSH2 0x6C SWAP2 SWAP1 PUSH2 0x585 JUMP JUMPDEST PUSH2 0x205 JUMP JUMPDEST STOP JUMPDEST PUSH1 0x1 PUSH1 0x0 SWAP1 SLOAD SWAP1 PUSH2 0x100 EXP SWAP1 DIV PUSH20 0xFFFFFFFFFFFFFFFFFFFFFFFFFFFFFFFFFFFFFFFF AND PUSH20 0xFFFFFFFFFFFFFFFFFFFFFFFFFFFFFFFFFFFFFFFF AND CALLER PUSH20 0xFFFFFFFFFFFFFFFFFFFFFFFFFFFFFFFFFFFFFFFF AND EQ PUSH2 0x103 JUMPI PUSH1 0x40 MLOAD PUSH32 0x8C379A000000000000000000000000000000000000000000000000000000000 DUP2 MSTORE PUSH1 0x4 ADD PUSH2 0xFA SWAP1 PUSH2 0x65A JUMP JUMPDEST PUSH1 0x40 MLOAD DUP1 SWAP2 SUB SWAP1 REVERT JUMPDEST PUSH1 0x0 DUP1 DUP4 DUP2 SLOAD DUP2 LT PUSH2 0x118 JUMPI PUSH2 0x117 PUSH2 0x67A JUMP JUMPDEST JUMPDEST SWAP1 PUSH1 0x0 MSTORE PUSH1 0x20 PUSH1 0x0 KECCAK256 SWAP1 PUSH1 0x5 MUL ADD SWAP1 POP PUSH1 0x0 PUSH1 0x2 DUP2 GT ISZERO PUSH2 0x13C JUMPI PUSH2 0x13B PUSH2 0x6A9 JUMP JUMPDEST JUMPDEST DUP2 PUSH1 0x4 ADD PUSH1 0x0 SWAP1 SLOAD SWAP1 PUSH2 0x100 EXP SWAP1 DIV PUSH1 0xFF AND PUSH1 0x2 DUP2 GT ISZERO PUSH2 0x160 JUMPI PUSH2 0x15F PUSH2 0x6A9 JUMP JUMPDEST JUMPDEST EQ PUSH2 0x16A JUMPI PUSH1 0x0 DUP1 REVERT JUMPDEST PUSH1 0x0 PUSH1 0x2 DUP2 GT ISZERO PUSH2 0x17E JUMPI PUSH2 0x17D PUSH2 0x6A9 JUMP JUMPDEST JUMPDEST DUP3 PUSH1 0x2 DUP2 GT ISZERO PUSH2 0x191 JUMPI PUSH2 0x190 PUSH2 0x6A9 JUMP JUMPDEST JUMPDEST SUB PUSH2 0x19B JUMPI PUSH1 0x0 DUP1 REVERT JUMPDEST DUP2 DUP2 PUSH1 0x4 ADD PUSH1 0x0 PUSH2 0x100 EXP DUP2 SLOAD DUP2 PUSH1 0xFF MUL NOT AND SWAP1 DUP4 PUSH1 0x2 DUP2 GT ISZERO PUSH2 0x1C2 JUMPI PUSH2 0x1C1 PUSH2 0x6A9 JUMP JUMPDEST JUMPDEST MUL OR SWAP1 SSTORE POP PUSH32 0x67C612AB8DA437E07FE0C68066F7EF6ADB8D6A83C45DCC31F3A8D475E5DA62F7 DUP4 DUP4 PUSH1 0x40 MLOAD PUSH2 0x1F8 SWAP3 SWAP2 SWAP1 PUSH2 0x72F JUMP JUMPDEST PUSH1 0x40 MLOAD DUP1 SWAP2 SUB SWAP1 LOG1 POP POP POP JUMP JUMPDEST PUSH7 0x2386F26FC10000 CALLVALUE EQ PUSH2 0x218 JUMPI PUSH1 0x0 DUP1 REVERT JUMPDEST PUSH1 0x0 PUSH1 0x40 MLOAD DUP1 PUSH1 0xA0 ADD PUSH1 0x40 MSTORE DUP1 CALLER PUSH20 0xFFFFFFFFFFFFFFFFFFFFFFFFFFFFFFFFFFFFFFFF AND DUP2 MSTORE PUSH1 0x20 ADD DUP5 DUP2 MSTORE PUSH1 0x20 ADD DUP4 DUP2 MSTORE PUSH1 0x20 ADD TIMESTAMP DUP2 MSTORE PUSH1 0x20 ADD PUSH1 0x0 PUSH1 0x2 DUP2 GT ISZERO PUSH2 0x267 JUMPI PUSH2 0x266 PUSH2 0x6A9 JUMP JUMPDEST JUMPDEST DUP2 MSTORE POP SWAP1 DUP1 PUSH1 0x1 DUP2 SLOAD ADD DUP1 DUP3 SSTORE DUP1 SWAP2 POP POP PUSH1 0x1 SWAP1 SUB SWAP1 PUSH1 0x0 MSTORE PUSH1 0x20 PUSH1 0x0 KECCAK256 SWAP1 PUSH1 0x5 MUL ADD PUSH1 0x0 SWAP1 SWAP2 SWAP1 SWAP2 SWAP1 SWAP2 POP PUSH1 0x0 DUP3 ADD MLOAD DUP2 PUSH1 0x0 ADD PUSH1 0x0 PUSH2 0x100 EXP DUP2 SLOAD DUP2 PUSH20 0xFFFFFFFFFFFFFFFFFFFFFFFFFFFFFFFFFFFFFFFF MUL NOT AND SWAP1 DUP4 PUSH20 0xFFFFFFFFFFFFFFFFFFFFFFFFFFFFFFFFFFFFFFFF AND MUL OR SWAP1 SSTORE POP PUSH1 0x20 DUP3 ADD MLOAD DUP2 PUSH1 0x1 ADD SWAP1 DUP2 PUSH2 0x2EF SWAP2 SWAP1 PUSH2 0x96F JUMP JUMPDEST POP PUSH1 0x40 DUP3 ADD MLOAD DUP2 PUSH1 0x2 ADD SWAP1 DUP2 PUSH2 0x305 SWAP2 SWAP1 PUSH2 0x96F JUMP JUMPDEST POP PUSH1 0x60 DUP3 ADD MLOAD DUP2 PUSH1 0x3 ADD SSTORE PUSH1 0x80 DUP3 ADD MLOAD DUP2 PUSH1 0x4 ADD PUSH1 0x0 PUSH2 0x100 EXP DUP2 SLOAD DUP2 PUSH1 0xFF MUL NOT AND SWAP1 DUP4 PUSH1 0x2 DUP2 GT ISZERO PUSH2 0x33B JUMPI PUSH2 0x33A PUSH2 0x6A9 JUMP JUMPDEST JUMPDEST MUL OR SWAP1 SSTORE POP POP POP PUSH32 0x9698105555994C5D564C25E23F5C5E0A81D36F1ED4B2C6600B25845BE18A0DBD CALLER PUSH1 0x1 PUSH1 0x0 DUP1 SLOAD SWAP1 POP PUSH2 0x376 SWAP2 SWAP1 PUSH2 0xA70 JUMP JUMPDEST PUSH1 0x40 MLOAD PUSH2 0x384 SWAP3 SWAP2 SWAP1 PUSH2 0xAE5 JUMP JUMPDEST PUSH1 0x40 MLOAD DUP1 SWAP2 SUB SWAP1 LOG1 POP POP JUMP JUMPDEST PUSH1 0x0 PUSH1 0x40 MLOAD SWAP1 POP SWAP1 JUMP JUMPDEST PUSH1 0x0 DUP1 REVERT JUMPDEST PUSH1 0x0 DUP1 REVERT JUMPDEST PUSH1 0x0 DUP2 SWAP1 POP SWAP2 SWAP1 POP JUMP JUMPDEST PUSH2 0x3B7 DUP2 PUSH2 0x3A4 JUMP JUMPDEST DUP2 EQ PUSH2 0x3C2 JUMPI PUSH1 0x0 DUP1 REVERT JUMPDEST POP JUMP JUMPDEST PUSH1 0x0 DUP2 CALLDATALOAD SWAP1 POP PUSH2 0x3D4 DUP2 PUSH2 0x3AE JUMP JUMPDEST SWAP3 SWAP2 POP POP JUMP JUMPDEST PUSH1 0x3 DUP2 LT PUSH2 0x3E7 JUMPI PUSH1 0x0 DUP1 REVERT JUMPDEST POP JUMP JUMPDEST PUSH1 0x0 DUP2 CALLDATALOAD SWAP1 POP PUSH2 0x3F9 DUP2 PUSH2 0x3DA JUMP JUMPDEST SWAP3 SWAP2 POP POP JUMP JUMPDEST PUSH1 0x0 DUP1 PUSH1 0x40 DUP4 DUP6 SUB SLT ISZERO PUSH2 0x416 JUMPI PUSH2 0x415 PUSH2 0x39A JUMP JUMPDEST JUMPDEST PUSH1 0x0 PUSH2 0x424 DUP6 DUP3 DUP7 ADD PUSH2 0x3C5 JUMP JUMPDEST SWAP3 POP POP PUSH1 0x20 PUSH2 0x435 DUP6 DUP3 DUP7 ADD PUSH2 0x3EA JUMP JUMPDEST SWAP2 POP POP SWAP3 POP SWAP3 SWAP1 POP JUMP JUMPDEST PUSH1 0x0 DUP1 REVERT JUMPDEST PUSH1 0x0 DUP1 REVERT JUMPDEST PUSH1 0x0 PUSH1 0x1F NOT PUSH1 0x1F DUP4 ADD AND SWAP1 POP SWAP2 SWAP1 POP JUMP JUMPDEST PUSH32 0x4E487B7100000000000000000000000000000000000000000000000000000000 PUSH1 0x0 MSTORE PUSH1 0x41 PUSH1 0x4 MSTORE PUSH1 0x24 PUSH1 0x0 REVERT JUMPDEST PUSH2 0x492 DUP3 PUSH2 0x449 JUMP JUMPDEST DUP2 ADD DUP2 DUP2 LT PUSH8 0xFFFFFFFFFFFFFFFF DUP3 GT OR ISZERO PUSH2 0x4B1 JUMPI PUSH2 0x4B0 PUSH2 0x45A JUMP JUMPDEST JUMPDEST DUP1 PUSH1 0x40 MSTORE POP POP POP JUMP JUMPDEST PUSH1 0x0 PUSH2 0x4C4 PUSH2 0x390 JUMP JUMPDEST SWAP1 POP PUSH2 0x4D0 DUP3 DUP3 PUSH2 0x489 JUMP JUMPDEST SWAP2 SWAP1 POP JUMP JUMPDEST PUSH1 0x0 PUSH8 0xFFFFFFFFFFFFFFFF DUP3 GT ISZERO PUSH2 0x4F0 JUMPI PUSH2 0x4EF PUSH2 0x45A JUMP JUMPDEST JUMPDEST PUSH2 0x4F9 DUP3 PUSH2 0x449 JUMP JUMPDEST SWAP1 POP PUSH1 0x20 DUP2 ADD SWAP1 POP SWAP2 SWAP1 POP JUMP JUMPDEST DUP3 DUP2 DUP4 CALLDATACOPY PUSH1 0x0 DUP4 DUP4 ADD MSTORE POP POP POP JUMP JUMPDEST PUSH1 0x0 PUSH2 0x528 PUSH2 0x523 DUP5 PUSH2 0x4D5 JUMP JUMPDEST PUSH2 0x4BA JUMP JUMPDEST SWAP1 POP DUP3 DUP2 MSTORE PUSH1 0x20 DUP2 ADD DUP5 DUP5 DUP5 ADD GT ISZERO PUSH2 0x544 JUMPI PUSH2 0x543 PUSH2 0x444 JUMP JUMPDEST JUMPDEST PUSH2 0x54F DUP5 DUP3 DUP6 PUSH2 0x506 JUMP JUMPDEST POP SWAP4 SWAP3 POP POP POP JUMP JUMPDEST PUSH1 0x0 DUP3 PUSH1 0x1F DUP4 ADD SLT PUSH2 0x56C JUMPI PUSH2 0x56B PUSH2 0x43F JUMP JUMPDEST JUMPDEST DUP2 CALLDATALOAD PUSH2 0x57C DUP5 DUP3 PUSH1 0x20 DUP7 ADD PUSH2 0x515 JUMP JUMPDEST SWAP2 POP POP SWAP3 SWAP2 POP POP JUMP JUMPDEST PUSH1 0x0 DUP1 PUSH1 0x40 DUP4 DUP6 SUB SLT ISZERO PUSH2 0x59C JUMPI PUSH2 0x59B PUSH2 0x39A JUMP JUMPDEST JUMPDEST PUSH1 0x0 DUP4 ADD CALLDATALOAD PUSH8 0xFFFFFFFFFFFFFFFF DUP2 GT ISZERO PUSH2 0x5BA JUMPI PUSH2 0x5B9 PUSH2 0x39F JUMP JUMPDEST JUMPDEST PUSH2 0x5C6 DUP6 DUP3 DUP7 ADD PUSH2 0x557 JUMP JUMPDEST SWAP3 POP POP PUSH1 0x20 DUP4 ADD CALLDATALOAD PUSH8 0xFFFFFFFFFFFFFFFF DUP2 GT ISZERO PUSH2 0x5E7 JUMPI PUSH2 0x5E6 PUSH2 0x39F JUMP JUMPDEST JUMPDEST PUSH2 0x5F3 DUP6 DUP3 DUP7 ADD PUSH2 0x557 JUMP JUMPDEST SWAP2 POP POP SWAP3 POP SWAP3 SWAP1 POP JUMP JUMPDEST PUSH1 0x0 DUP3 DUP3 MSTORE PUSH1 0x20 DUP3 ADD SWAP1 POP SWAP3 SWAP2 POP POP JUMP JUMPDEST PUSH32 0x596F75206D75737420626520746865206F776E65720000000000000000000000 PUSH1 0x0 DUP3 ADD MSTORE POP JUMP JUMPDEST PUSH1 0x0 PUSH2 0x644 PUSH1 0x15 DUP4 PUSH2 0x5FD JUMP JUMPDEST SWAP2 POP PUSH2 0x64F DUP3 PUSH2 0x60E JUMP JUMPDEST PUSH1 0x20 DUP3 ADD SWAP1 POP SWAP2 SWAP1 POP JUMP JUMPDEST PUSH1 0x0 PUSH1 0x20 DUP3 ADD SWAP1 POP DUP2 DUP2 SUB PUSH1 0x0 DUP4 ADD MSTORE PUSH2 0x673 DUP2 PUSH2 0x637 JUMP JUMPDEST SWAP1 POP SWAP2 SWAP1 POP JUMP JUMPDEST PUSH32 0x4E487B7100000000000000000000000000000000000000000000000000000000 PUSH1 0x0 MSTORE PUSH1 0x32 PUSH1 0x4 MSTORE PUSH1 0x24 PUSH1 0x0 REVERT JUMPDEST PUSH32 0x4E487B7100000000000000000000000000000000000000000000000000000000 PUSH1 0x0 MSTORE PUSH1 0x21 PUSH1 0x4 MSTORE PUSH1 0x24 PUSH1 0x0 REVERT JUMPDEST PUSH2 0x6E1 DUP2 PUSH2 0x3A4 JUMP JUMPDEST DUP3 MSTORE POP POP JUMP JUMPDEST PUSH1 0x3 DUP2 LT PUSH2 0x6F8 JUMPI PUSH2 0x6F7 PUSH2 0x6A9 JUMP JUMPDEST JUMPDEST POP JUMP JUMPDEST PUSH1 0x0 DUP2 SWAP1 POP PUSH2 0x709 DUP3 PUSH2 0x6E7 JUMP JUMPDEST SWAP2 SWAP1 POP JUMP JUMPDEST PUSH1 0x0 PUSH2 0x719 DUP3 PUSH2 0x6FB JUMP JUMPDEST SWAP1 POP SWAP2 SWAP1 POP JUMP JUMPDEST PUSH2 0x729 DUP2 PUSH2 0x70E JUMP JUMPDEST DUP3 MSTORE POP POP JUMP JUMPDEST PUSH1 0x0 PUSH1 0x40 DUP3 ADD SWAP1 POP PUSH2 0x744 PUSH1 0x0 DUP4 ADD DUP6 PUSH2 0x6D8 JUMP JUMPDEST PUSH2 0x751 PUSH1 0x20 DUP4 ADD DUP5 PUSH2 0x720 JUMP JUMPDEST SWAP4 SWAP3 POP POP POP JUMP JUMPDEST PUSH1 0x0 DUP2 MLOAD SWAP1 POP SWAP2 SWAP1 POP JUMP JUMPDEST PUSH32 0x4E487B7100000000000000000000000000000000000000000000000000000000 PUSH1 0x0 MSTORE PUSH1 0x22 PUSH1 0x4 MSTORE PUSH1 0x24 PUSH1 0x0 REVERT JUMPDEST PUSH1 0x0 PUSH1 0x2 DUP3 DIV SWAP1 POP PUSH1 0x1 DUP3 AND DUP1 PUSH2 0x7AA JUMPI PUSH1 0x7F DUP3 AND SWAP2 POP JUMPDEST PUSH1 0x20 DUP3 LT DUP2 SUB PUSH2 0x7BD JUMPI PUSH2 0x7BC PUSH2 0x763 JUMP JUMPDEST JUMPDEST POP SWAP2 SWAP1 POP JUMP JUMPDEST PUSH1 0x0 DUP2 SWAP1 POP DUP2 PUSH1 0x0 MSTORE PUSH1 0x20 PUSH1 0x0 KECCAK256 SWAP1 POP SWAP2 SWAP1 POP JUMP JUMPDEST PUSH1 0x0 PUSH1 0x20 PUSH1 0x1F DUP4 ADD DIV SWAP1 POP SWAP2 SWAP1 POP JUMP JUMPDEST PUSH1 0x0 DUP3 DUP3 SHL SWAP1 POP SWAP3 SWAP2 POP POP JUMP JUMPDEST PUSH1 0x0 PUSH1 0x8 DUP4 MUL PUSH2 0x825 PUSH32 0xFFFFFFFFFFFFFFFFFFFFFFFFFFFFFFFFFFFFFFFFFFFFFFFFFFFFFFFFFFFFFFFF DUP3 PUSH2 0x7E8 JUMP JUMPDEST PUSH2 0x82F DUP7 DUP4 PUSH2 0x7E8 JUMP JUMPDEST SWAP6 POP DUP1 NOT DUP5 AND SWAP4 POP DUP1 DUP7 AND DUP5 OR SWAP3 POP POP POP SWAP4 SWAP3 POP POP POP JUMP JUMPDEST PUSH1 0x0 DUP2 SWAP1 POP SWAP2 SWAP1 POP JUMP JUMPDEST PUSH1 0x0 PUSH2 0x86C PUSH2 0x867 PUSH2 0x862 DUP5 PUSH2 0x3A4 JUMP JUMPDEST PUSH2 0x847 JUMP JUMPDEST PUSH2 0x3A4 JUMP JUMPDEST SWAP1 POP SWAP2 SWAP1 POP JUMP JUMPDEST PUSH1 0x0 DUP2 SWAP1 POP SWAP2 SWAP1 POP JUMP JUMPDEST PUSH2 0x886 DUP4 PUSH2 0x851 JUMP JUMPDEST PUSH2 0x89A PUSH2 0x892 DUP3 PUSH2 0x873 JUMP JUMPDEST DUP5 DUP5 SLOAD PUSH2 0x7F5 JUMP JUMPDEST DUP3 SSTORE POP POP POP POP JUMP JUMPDEST PUSH1 0x0 SWAP1 JUMP JUMPDEST PUSH2 0x8AF PUSH2 0x8A2 JUMP JUMPDEST PUSH2 0x8BA DUP2 DUP5 DUP5 PUSH2 0x87D JUMP JUMPDEST POP POP POP JUMP JUMPDEST JUMPDEST DUP2 DUP2 LT ISZERO PUSH2 0x8DE JUMPI PUSH2 0x8D3 PUSH1 0x0 DUP3 PUSH2 0x8A7 JUMP JUMPDEST PUSH1 0x1 DUP2 ADD SWAP1 POP PUSH2 0x8C0 JUMP JUMPDEST POP POP JUMP JUMPDEST PUSH1 0x1F DUP3 GT ISZERO PUSH2 0x923 JUMPI PUSH2 0x8F4 DUP2 PUSH2 0x7C3 JUMP JUMPDEST PUSH2 0x8FD DUP5 PUSH2 0x7D8 JUMP JUMPDEST DUP2 ADD PUSH1 0x20 DUP6 LT ISZERO PUSH2 0x90C JUMPI DUP2 SWAP1 POP JUMPDEST PUSH2 0x920 PUSH2 0x918 DUP6 PUSH2 0x7D8 JUMP JUMPDEST DUP4 ADD DUP3 PUSH2 0x8BF JUMP JUMPDEST POP POP JUMPDEST POP POP POP JUMP JUMPDEST PUSH1 0x0 DUP3 DUP3 SHR SWAP1 POP SWAP3 SWAP2 POP POP JUMP JUMPDEST PUSH1 0x0 PUSH2 0x946 PUSH1 0x0 NOT DUP5 PUSH1 0x8 MUL PUSH2 0x928 JUMP JUMPDEST NOT DUP1 DUP4 AND SWAP2 POP POP SWAP3 SWAP2 POP POP JUMP JUMPDEST PUSH1 0x0 PUSH2 0x95F DUP4 DUP4 PUSH2 0x935 JUMP JUMPDEST SWAP2 POP DUP3 PUSH1 0x2 MUL DUP3 OR SWAP1 POP SWAP3 SWAP2 POP POP JUMP JUMPDEST PUSH2 0x978 DUP3 PUSH2 0x758 JUMP JUMPDEST PUSH8 0xFFFFFFFFFFFFFFFF DUP2 GT ISZERO PUSH2 0x991 JUMPI PUSH2 0x990 PUSH2 0x45A JUMP JUMPDEST JUMPDEST PUSH2 0x99B DUP3 SLOAD PUSH2 0x792 JUMP JUMPDEST PUSH2 0x9A6 DUP3 DUP3 DUP6 PUSH2 0x8E2 JUMP JUMPDEST PUSH1 0x0 PUSH1 0x20 SWAP1 POP PUSH1 0x1F DUP4 GT PUSH1 0x1 DUP2 EQ PUSH2 0x9D9 JUMPI PUSH1 0x0 DUP5 ISZERO PUSH2 0x9C7 JUMPI DUP3 DUP8 ADD MLOAD SWAP1 POP JUMPDEST PUSH2 0x9D1 DUP6 DUP3 PUSH2 0x953 JUMP JUMPDEST DUP7 SSTORE POP PUSH2 0xA39 JUMP JUMPDEST PUSH1 0x1F NOT DUP5 AND PUSH2 0x9E7 DUP7 PUSH2 0x7C3 JUMP JUMPDEST PUSH1 0x0 JUMPDEST DUP3 DUP2 LT ISZERO PUSH2 0xA0F JUMPI DUP5 DUP10 ADD MLOAD DUP3 SSTORE PUSH1 0x1 DUP3 ADD SWAP2 POP PUSH1 0x20 DUP6 ADD SWAP5 POP PUSH1 0x20 DUP2 ADD SWAP1 POP PUSH2 0x9EA JUMP JUMPDEST DUP7 DUP4 LT ISZERO PUSH2 0xA2C JUMPI DUP5 DUP10 ADD MLOAD PUSH2 0xA28 PUSH1 0x1F DUP10 AND DUP3 PUSH2 0x935 JUMP JUMPDEST DUP4 SSTORE POP JUMPDEST PUSH1 0x1 PUSH1 0x2 DUP9 MUL ADD DUP9 SSTORE POP POP POP JUMPDEST POP POP POP POP POP POP JUMP JUMPDEST PUSH32 0x4E487B7100000000000000000000000000000000000000000000000000000000 PUSH1 0x0 MSTORE PUSH1 0x11 PUSH1 0x4 MSTORE PUSH1 0x24 PUSH1 0x0 REVERT JUMPDEST PUSH1 0x0 PUSH2 0xA7B DUP3 PUSH2 0x3A4 JUMP JUMPDEST SWAP2 POP PUSH2 0xA86 DUP4 PUSH2 0x3A4 JUMP JUMPDEST SWAP3 POP DUP3 DUP3 LT ISZERO PUSH2 0xA99 JUMPI PUSH2 0xA98 PUSH2 0xA41 JUMP JUMPDEST JUMPDEST DUP3 DUP3 SUB SWAP1 POP SWAP3 SWAP2 POP POP JUMP JUMPDEST PUSH1 0x0 PUSH20 0xFFFFFFFFFFFFFFFFFFFFFFFFFFFFFFFFFFFFFFFF DUP3 AND SWAP1 POP SWAP2 SWAP1 POP JUMP JUMPDEST PUSH1 0x0 PUSH2 0xACF DUP3 PUSH2 0xAA4 JUMP JUMPDEST SWAP1 POP SWAP2 SWAP1 POP JUMP JUMPDEST PUSH2 0xADF DUP2 PUSH2 0xAC4 JUMP JUMPDEST DUP3 MSTORE POP POP JUMP JUMPDEST PUSH1 0x0 PUSH1 0x40 DUP3 ADD SWAP1 POP PUSH2 0xAFA PUSH1 0x0 DUP4 ADD DUP6 PUSH2 0xAD6 JUMP JUMPDEST PUSH2 0xB07 PUSH1 0x20 DUP4 ADD DUP5 PUSH2 0x6D8 JUMP JUMPDEST SWAP4 SWAP3 POP POP POP JUMP INVALID LOG2 PUSH5 0x6970667358 0x22 SLT KECCAK256 0xC4 ADD 0x27 MOD MSIZE PUSH25 0xE994000EEA361EA33DD59E780E4CD135287579FE02CD454B48 PUSH11 0x64736F6C634300080F0033 "
				},
				"gasEstimates": {
					"creation": {
						"codeDepositCost": "576800",
						"executionCost": "24879",
						"totalCost": "601679"
					},
					"external": {
						"createApplication(string,string)": "infinite",
						"evaluate(uint256,uint8)": "infinite"
					}
				},
				"methodIdentifiers": {
					"createApplication(string,string)": "a0d16182",
					"evaluate(uint256,uint8)": "282fe5fb"
				}
			},
			"storageLayout": {
				"storage": [
					{
						"astId": 21,
						"contract": "contracts/User.sol:User",
						"label": "applications",
						"offset": 0,
						"slot": "0",
						"type": "t_array(t_struct(Application)17_storage)dyn_storage"
					},
					{
						"astId": 23,
						"contract": "contracts/User.sol:User",
						"label": "owner",
						"offset": 0,
						"slot": "1",
						"type": "t_address"
					}
				],
				"types": {
					"t_address": {
						"encoding": "inplace",
						"label": "address",
						"numberOfBytes": "20"
					},
					"t_array(t_struct(Application)17_storage)dyn_storage": {
						"base": "t_struct(Application)17_storage",
						"encoding": "dynamic_array",
						"label": "struct User.Application[]",
						"numberOfBytes": "32"
					},
					"t_enum(Status)5": {
						"encoding": "inplace",
						"label": "enum User.Status",
						"numberOfBytes": "1"
					},
					"t_string_storage": {
						"encoding": "bytes",
						"label": "string",
						"numberOfBytes": "32"
					},
					"t_struct(Application)17_storage": {
						"encoding": "inplace",
						"label": "struct User.Application",
						"members": [
							{
								"astId": 7,
								"contract": "contracts/User.sol:User",
								"label": "userAddress",
								"offset": 0,
								"slot": "0",
								"type": "t_address"
							},
							{
								"astId": 9,
								"contract": "contracts/User.sol:User",
								"label": "name",
								"offset": 0,
								"slot": "1",
								"type": "t_string_storage"
							},
							{
								"astId": 11,
								"contract": "contracts/User.sol:User",
								"label": "description",
								"offset": 0,
								"slot": "2",
								"type": "t_string_storage"
							},
							{
								"astId": 13,
								"contract": "contracts/User.sol:User",
								"label": "applicationDate",
								"offset": 0,
								"slot": "3",
								"type": "t_uint256"
							},
							{
								"astId": 16,
								"contract": "contracts/User.sol:User",
								"label": "status",
								"offset": 0,
								"slot": "4",
								"type": "t_enum(Status)5"
							}
						],
						"numberOfBytes": "160"
					},
					"t_uint256": {
						"encoding": "inplace",
						"label": "uint256",
						"numberOfBytes": "32"
					}
				}
			},
			"userdoc": {
				"kind": "user",
				"methods": {},
				"version": 1
			}
		}
	}
}