{
	"contracts/Test1.sol": {
		"Test1": {
			"abi": [
				{
					"inputs": [],
					"stateMutability": "nonpayable",
					"type": "constructor"
				},
				{
					"inputs": [
						{
							"internalType": "address",
							"name": "walletAddress",
							"type": "address"
						},
						{
							"internalType": "uint256",
							"name": "amount",
							"type": "uint256"
						}
					],
					"name": "addToInvestorMapping",
					"outputs": [],
					"stateMutability": "nonpayable",
					"type": "function"
				},
				{
					"inputs": [
						{
							"internalType": "address",
							"name": "walletAddress",
							"type": "address"
						},
						{
							"internalType": "string",
							"name": "name",
							"type": "string"
						},
						{
							"internalType": "uint256",
							"name": "amount",
							"type": "uint256"
						}
					],
					"name": "addUser",
					"outputs": [],
					"stateMutability": "nonpayable",
					"type": "function"
				},
				{
					"inputs": [
						{
							"internalType": "address",
							"name": "walletAddress",
							"type": "address"
						}
					],
					"name": "balanceOf",
					"outputs": [
						{
							"internalType": "uint256",
							"name": "",
							"type": "uint256"
						}
					],
					"stateMutability": "view",
					"type": "function"
				},
				{
					"inputs": [
						{
							"internalType": "address",
							"name": "",
							"type": "address"
						}
					],
					"name": "investors",
					"outputs": [
						{
							"internalType": "uint256",
							"name": "",
							"type": "uint256"
						}
					],
					"stateMutability": "view",
					"type": "function"
				},
				{
					"inputs": [
						{
							"internalType": "address",
							"name": "walletAddress",
							"type": "address"
						}
					],
					"name": "transfer",
					"outputs": [],
					"stateMutability": "payable",
					"type": "function"
				},
				{
					"inputs": [
						{
							"internalType": "uint256",
							"name": "",
							"type": "uint256"
						}
					],
					"name": "users",
					"outputs": [
						{
							"internalType": "address",
							"name": "walletAddress",
							"type": "address"
						},
						{
							"internalType": "string",
							"name": "name",
							"type": "string"
						},
						{
							"internalType": "uint256",
							"name": "amount",
							"type": "uint256"
						}
					],
					"stateMutability": "view",
					"type": "function"
				}
			],
			"devdoc": {
				"kind": "dev",
				"methods": {},
				"version": 1
			},
			"evm": {
				"assembly": "    /* \"contracts/Test1.sol\":65:1247  contract Test1{... */\n  mstore(0x40, 0x80)\n    /* \"contracts/Test1.sol\":106:154  constructor(){... */\n  callvalue\n  dup1\n  iszero\n  tag_1\n  jumpi\n  0x00\n  dup1\n  revert\ntag_1:\n  pop\n    /* \"contracts/Test1.sol\":137:147  msg.sender */\n  caller\n    /* \"contracts/Test1.sol\":129:134  owner */\n  0x00\n  dup1\n    /* \"contracts/Test1.sol\":129:147  owner = msg.sender */\n  0x0100\n  exp\n  dup2\n  sload\n  dup2\n  0xffffffffffffffffffffffffffffffffffffffff\n  mul\n  not\n  and\n  swap1\n  dup4\n  0xffffffffffffffffffffffffffffffffffffffff\n  and\n  mul\n  or\n  swap1\n  sstore\n  pop\n    /* \"contracts/Test1.sol\":65:1247  contract Test1{... */\n  dataSize(sub_0)\n  dup1\n  dataOffset(sub_0)\n  0x00\n  codecopy\n  0x00\n  return\nstop\n\nsub_0: assembly {\n        /* \"contracts/Test1.sol\":65:1247  contract Test1{... */\n      mstore(0x40, 0x80)\n      jumpi(tag_1, lt(calldatasize, 0x04))\n      shr(0xe0, calldataload(0x00))\n      dup1\n      0x1a695230\n      eq\n      tag_2\n      jumpi\n      dup1\n      0x365b98b2\n      eq\n      tag_3\n      jumpi\n      dup1\n      0x6f7bc9be\n      eq\n      tag_4\n      jumpi\n      dup1\n      0x70a08231\n      eq\n      tag_5\n      jumpi\n      dup1\n      0xa73a649c\n      eq\n      tag_6\n      jumpi\n      dup1\n      0xf0384fb6\n      eq\n      tag_7\n      jumpi\n    tag_1:\n      0x00\n      dup1\n      revert\n        /* \"contracts/Test1.sol\":620:725  function transfer(address walletAddress) payable public {... */\n    tag_2:\n      tag_8\n      0x04\n      dup1\n      calldatasize\n      sub\n      dup2\n      add\n      swap1\n      tag_9\n      swap2\n      swap1\n      tag_10\n      jump\t// in\n    tag_9:\n      tag_11\n      jump\t// in\n    tag_8:\n      stop\n        /* \"contracts/Test1.sol\":258:277  User[] public users */\n    tag_3:\n      callvalue\n      dup1\n      iszero\n      tag_12\n      jumpi\n      0x00\n      dup1\n      revert\n    tag_12:\n      pop\n      tag_13\n      0x04\n      dup1\n      calldatasize\n      sub\n      dup2\n      add\n      swap1\n      tag_14\n      swap2\n      swap1\n      tag_15\n      jump\t// in\n    tag_14:\n      tag_16\n      jump\t// in\n    tag_13:\n      mload(0x40)\n      tag_17\n      swap4\n      swap3\n      swap2\n      swap1\n      tag_18\n      jump\t// in\n    tag_17:\n      mload(0x40)\n      dup1\n      swap2\n      sub\n      swap1\n      return\n        /* \"contracts/Test1.sol\":283:324  mapping(address => uint) public investors */\n    tag_4:\n      callvalue\n      dup1\n      iszero\n      tag_19\n      jumpi\n      0x00\n      dup1\n      revert\n    tag_19:\n      pop\n      tag_20\n      0x04\n      dup1\n      calldatasize\n      sub\n      dup2\n      add\n      swap1\n      tag_21\n      swap2\n      swap1\n      tag_10\n      jump\t// in\n    tag_21:\n      tag_22\n      jump\t// in\n    tag_20:\n      mload(0x40)\n      tag_23\n      swap2\n      swap1\n      tag_24\n      jump\t// in\n    tag_23:\n      mload(0x40)\n      dup1\n      swap2\n      sub\n      swap1\n      return\n        /* \"contracts/Test1.sol\":977:1241  function balanceOf(address walletAddress) public view returns(uint){... */\n    tag_5:\n      callvalue\n      dup1\n      iszero\n      tag_25\n      jumpi\n      0x00\n      dup1\n      revert\n    tag_25:\n      pop\n      tag_26\n      0x04\n      dup1\n      calldatasize\n      sub\n      dup2\n      add\n      swap1\n      tag_27\n      swap2\n      swap1\n      tag_10\n      jump\t// in\n    tag_27:\n      tag_28\n      jump\t// in\n    tag_26:\n      mload(0x40)\n      tag_29\n      swap2\n      swap1\n      tag_24\n      jump\t// in\n    tag_29:\n      mload(0x40)\n      dup1\n      swap2\n      sub\n      swap1\n      return\n        /* \"contracts/Test1.sol\":533:614  function addToInvestorMapping(address walletAddress, uint amount) public {... */\n    tag_6:\n      callvalue\n      dup1\n      iszero\n      tag_30\n      jumpi\n      0x00\n      dup1\n      revert\n    tag_30:\n      pop\n      tag_31\n      0x04\n      dup1\n      calldatasize\n      sub\n      dup2\n      add\n      swap1\n      tag_32\n      swap2\n      swap1\n      tag_33\n      jump\t// in\n    tag_32:\n      tag_34\n      jump\t// in\n    tag_31:\n      stop\n        /* \"contracts/Test1.sol\":332:527  function addUser(address walletAddress, string memory name, uint amount) public {... */\n    tag_7:\n      callvalue\n      dup1\n      iszero\n      tag_35\n      jumpi\n      0x00\n      dup1\n      revert\n    tag_35:\n      pop\n      tag_36\n      0x04\n      dup1\n      calldatasize\n      sub\n      dup2\n      add\n      swap1\n      tag_37\n      swap2\n      swap1\n      tag_38\n      jump\t// in\n    tag_37:\n      tag_39\n      jump\t// in\n    tag_36:\n      stop\n        /* \"contracts/Test1.sol\":620:725  function transfer(address walletAddress) payable public {... */\n    tag_11:\n        /* \"contracts/Test1.sol\":686:718  transferToAddress(walletAddress) */\n      tag_41\n        /* \"contracts/Test1.sol\":704:717  walletAddress */\n      dup2\n        /* \"contracts/Test1.sol\":686:703  transferToAddress */\n      tag_42\n        /* \"contracts/Test1.sol\":686:718  transferToAddress(walletAddress) */\n      jump\t// in\n    tag_41:\n        /* \"contracts/Test1.sol\":620:725  function transfer(address walletAddress) payable public {... */\n      pop\n      jump\t// out\n        /* \"contracts/Test1.sol\":258:277  User[] public users */\n    tag_16:\n      0x01\n      dup2\n      dup2\n      sload\n      dup2\n      lt\n      tag_43\n      jumpi\n      0x00\n      dup1\n      revert\n    tag_43:\n      swap1\n      0x00\n      mstore\n      keccak256(0x00, 0x20)\n      swap1\n      0x03\n      mul\n      add\n      0x00\n      swap2\n      pop\n      swap1\n      pop\n      dup1\n      0x00\n      add\n      0x00\n      swap1\n      sload\n      swap1\n      0x0100\n      exp\n      swap1\n      div\n      0xffffffffffffffffffffffffffffffffffffffff\n      and\n      swap1\n      dup1\n      0x01\n      add\n      dup1\n      sload\n      tag_45\n      swap1\n      tag_46\n      jump\t// in\n    tag_45:\n      dup1\n      0x1f\n      add\n      0x20\n      dup1\n      swap2\n      div\n      mul\n      0x20\n      add\n      mload(0x40)\n      swap1\n      dup2\n      add\n      0x40\n      mstore\n      dup1\n      swap3\n      swap2\n      swap1\n      dup2\n      dup2\n      mstore\n      0x20\n      add\n      dup3\n      dup1\n      sload\n      tag_47\n      swap1\n      tag_46\n      jump\t// in\n    tag_47:\n      dup1\n      iszero\n      tag_48\n      jumpi\n      dup1\n      0x1f\n      lt\n      tag_49\n      jumpi\n      0x0100\n      dup1\n      dup4\n      sload\n      div\n      mul\n      dup4\n      mstore\n      swap2\n      0x20\n      add\n      swap2\n      jump(tag_48)\n    tag_49:\n      dup3\n      add\n      swap2\n      swap1\n      0x00\n      mstore\n      keccak256(0x00, 0x20)\n      swap1\n    tag_50:\n      dup2\n      sload\n      dup2\n      mstore\n      swap1\n      0x01\n      add\n      swap1\n      0x20\n      add\n      dup1\n      dup4\n      gt\n      tag_50\n      jumpi\n      dup3\n      swap1\n      sub\n      0x1f\n      and\n      dup3\n      add\n      swap2\n    tag_48:\n      pop\n      pop\n      pop\n      pop\n      pop\n      swap1\n      dup1\n      0x02\n      add\n      sload\n      swap1\n      pop\n      dup4\n      jump\t// out\n        /* \"contracts/Test1.sol\":283:324  mapping(address => uint) public investors */\n    tag_22:\n      mstore(0x20, 0x02)\n      dup1\n      0x00\n      mstore\n      keccak256(0x00, 0x40)\n      0x00\n      swap2\n      pop\n      swap1\n      pop\n      sload\n      dup2\n      jump\t// out\n        /* \"contracts/Test1.sol\":977:1241  function balanceOf(address walletAddress) public view returns(uint){... */\n    tag_28:\n        /* \"contracts/Test1.sol\":1039:1043  uint */\n      0x00\n        /* \"contracts/Test1.sol\":1058:1064  uint i */\n      dup1\n        /* \"contracts/Test1.sol\":1067:1068  0 */\n      0x00\n        /* \"contracts/Test1.sol\":1058:1068  uint i = 0 */\n      swap1\n      pop\n        /* \"contracts/Test1.sol\":1054:1214  for(uint i = 0; i < users.length; i++){... */\n    tag_52:\n        /* \"contracts/Test1.sol\":1074:1079  users */\n      0x01\n        /* \"contracts/Test1.sol\":1074:1086  users.length */\n      dup1\n      sload\n      swap1\n      pop\n        /* \"contracts/Test1.sol\":1070:1071  i */\n      dup2\n        /* \"contracts/Test1.sol\":1070:1086  i < users.length */\n      lt\n        /* \"contracts/Test1.sol\":1054:1214  for(uint i = 0; i < users.length; i++){... */\n      iszero\n      tag_53\n      jumpi\n        /* \"contracts/Test1.sol\":1135:1148  walletAddress */\n      dup3\n        /* \"contracts/Test1.sol\":1109:1148  users[i].walletAddress == walletAddress */\n      0xffffffffffffffffffffffffffffffffffffffff\n      and\n        /* \"contracts/Test1.sol\":1109:1114  users */\n      0x01\n        /* \"contracts/Test1.sol\":1115:1116  i */\n      dup3\n        /* \"contracts/Test1.sol\":1109:1117  users[i] */\n      dup2\n      sload\n      dup2\n      lt\n      tag_55\n      jumpi\n      tag_56\n      tag_57\n      jump\t// in\n    tag_56:\n    tag_55:\n      swap1\n      0x00\n      mstore\n      keccak256(0x00, 0x20)\n      swap1\n      0x03\n      mul\n      add\n        /* \"contracts/Test1.sol\":1109:1131  users[i].walletAddress */\n      0x00\n      add\n      0x00\n      swap1\n      sload\n      swap1\n      0x0100\n      exp\n      swap1\n      div\n      0xffffffffffffffffffffffffffffffffffffffff\n      and\n        /* \"contracts/Test1.sol\":1109:1148  users[i].walletAddress == walletAddress */\n      0xffffffffffffffffffffffffffffffffffffffff\n      and\n      eq\n        /* \"contracts/Test1.sol\":1106:1204  if(users[i].walletAddress == walletAddress){... */\n      iszero\n      tag_59\n      jumpi\n        /* \"contracts/Test1.sol\":1174:1179  users */\n      0x01\n        /* \"contracts/Test1.sol\":1180:1181  i */\n      dup2\n        /* \"contracts/Test1.sol\":1174:1182  users[i] */\n      dup2\n      sload\n      dup2\n      lt\n      tag_60\n      jumpi\n      tag_61\n      tag_57\n      jump\t// in\n    tag_61:\n    tag_60:\n      swap1\n      0x00\n      mstore\n      keccak256(0x00, 0x20)\n      swap1\n      0x03\n      mul\n      add\n        /* \"contracts/Test1.sol\":1174:1189  users[i].amount */\n      0x02\n      add\n      sload\n        /* \"contracts/Test1.sol\":1167:1189  return users[i].amount */\n      swap2\n      pop\n      pop\n      jump(tag_51)\n        /* \"contracts/Test1.sol\":1106:1204  if(users[i].walletAddress == walletAddress){... */\n    tag_59:\n        /* \"contracts/Test1.sol\":1088:1091  i++ */\n      dup1\n      dup1\n      tag_63\n      swap1\n      tag_64\n      jump\t// in\n    tag_63:\n      swap2\n      pop\n      pop\n        /* \"contracts/Test1.sol\":1054:1214  for(uint i = 0; i < users.length; i++){... */\n      jump(tag_52)\n    tag_53:\n      pop\n        /* \"contracts/Test1.sol\":1231:1234  999 */\n      0x03e7\n        /* \"contracts/Test1.sol\":1224:1234  return 999 */\n      swap1\n      pop\n        /* \"contracts/Test1.sol\":977:1241  function balanceOf(address walletAddress) public view returns(uint){... */\n    tag_51:\n      swap2\n      swap1\n      pop\n      jump\t// out\n        /* \"contracts/Test1.sol\":533:614  function addToInvestorMapping(address walletAddress, uint amount) public {... */\n    tag_34:\n      pop\n      pop\n      jump\t// out\n        /* \"contracts/Test1.sol\":332:527  function addUser(address walletAddress, string memory name, uint amount) public {... */\n    tag_39:\n        /* \"contracts/Test1.sol\":422:427  users */\n      0x01\n        /* \"contracts/Test1.sol\":433:466  User(walletAddress, name, amount) */\n      mload(0x40)\n      dup1\n      0x60\n      add\n      0x40\n      mstore\n      dup1\n        /* \"contracts/Test1.sol\":438:451  walletAddress */\n      dup6\n        /* \"contracts/Test1.sol\":433:466  User(walletAddress, name, amount) */\n      0xffffffffffffffffffffffffffffffffffffffff\n      and\n      dup2\n      mstore\n      0x20\n      add\n        /* \"contracts/Test1.sol\":453:457  name */\n      dup5\n        /* \"contracts/Test1.sol\":433:466  User(walletAddress, name, amount) */\n      dup2\n      mstore\n      0x20\n      add\n        /* \"contracts/Test1.sol\":459:465  amount */\n      dup4\n        /* \"contracts/Test1.sol\":433:466  User(walletAddress, name, amount) */\n      dup2\n      mstore\n      pop\n        /* \"contracts/Test1.sol\":422:467  users.push(User(walletAddress, name, amount)) */\n      swap1\n      dup1\n      0x01\n      dup2\n      sload\n      add\n      dup1\n      dup3\n      sstore\n      dup1\n      swap2\n      pop\n      pop\n      0x01\n      swap1\n      sub\n      swap1\n      0x00\n      mstore\n      keccak256(0x00, 0x20)\n      swap1\n      0x03\n      mul\n      add\n      0x00\n      swap1\n      swap2\n      swap1\n      swap2\n      swap1\n      swap2\n      pop\n      0x00\n      dup3\n      add\n      mload\n      dup2\n      0x00\n      add\n      exp(0x0100, 0x00)\n      dup2\n      sload\n      dup2\n      0xffffffffffffffffffffffffffffffffffffffff\n      mul\n      not\n      and\n      swap1\n      dup4\n      0xffffffffffffffffffffffffffffffffffffffff\n      and\n      mul\n      or\n      swap1\n      sstore\n      pop\n      0x20\n      dup3\n      add\n      mload\n      dup2\n      0x01\n      add\n      swap1\n      dup1\n      mload\n      swap1\n      0x20\n      add\n      swap1\n      tag_68\n      swap3\n      swap2\n      swap1\n      tag_69\n      jump\t// in\n    tag_68:\n      pop\n      0x40\n      dup3\n      add\n      mload\n      dup2\n      0x02\n      add\n      sstore\n      pop\n      pop\n        /* \"contracts/Test1.sol\":477:520  addToInvestorMapping(walletAddress, amount) */\n      tag_70\n        /* \"contracts/Test1.sol\":498:511  walletAddress */\n      dup4\n        /* \"contracts/Test1.sol\":513:519  amount */\n      dup3\n        /* \"contracts/Test1.sol\":477:497  addToInvestorMapping */\n      tag_34\n        /* \"contracts/Test1.sol\":477:520  addToInvestorMapping(walletAddress, amount) */\n      jump\t// in\n    tag_70:\n        /* \"contracts/Test1.sol\":332:527  function addUser(address walletAddress, string memory name, uint amount) public {... */\n      pop\n      pop\n      pop\n      jump\t// out\n        /* \"contracts/Test1.sol\":731:971  function transferToAddress(address walletAddress) private {... */\n    tag_42:\n        /* \"contracts/Test1.sol\":803:809  uint i */\n      0x00\n        /* \"contracts/Test1.sol\":799:965  for(uint i = 0; i < users.length; i++){... */\n    tag_72:\n        /* \"contracts/Test1.sol\":819:824  users */\n      0x01\n        /* \"contracts/Test1.sol\":819:831  users.length */\n      dup1\n      sload\n      swap1\n      pop\n        /* \"contracts/Test1.sol\":815:816  i */\n      dup2\n        /* \"contracts/Test1.sol\":815:831  i < users.length */\n      lt\n        /* \"contracts/Test1.sol\":799:965  for(uint i = 0; i < users.length; i++){... */\n      iszero\n      tag_73\n      jumpi\n        /* \"contracts/Test1.sol\":880:893  walletAddress */\n      dup2\n        /* \"contracts/Test1.sol\":854:893  users[i].walletAddress == walletAddress */\n      0xffffffffffffffffffffffffffffffffffffffff\n      and\n        /* \"contracts/Test1.sol\":854:859  users */\n      0x01\n        /* \"contracts/Test1.sol\":860:861  i */\n      dup3\n        /* \"contracts/Test1.sol\":854:862  users[i] */\n      dup2\n      sload\n      dup2\n      lt\n      tag_75\n      jumpi\n      tag_76\n      tag_57\n      jump\t// in\n    tag_76:\n    tag_75:\n      swap1\n      0x00\n      mstore\n      keccak256(0x00, 0x20)\n      swap1\n      0x03\n      mul\n      add\n        /* \"contracts/Test1.sol\":854:876  users[i].walletAddress */\n      0x00\n      add\n      0x00\n      swap1\n      sload\n      swap1\n      0x0100\n      exp\n      swap1\n      div\n      0xffffffffffffffffffffffffffffffffffffffff\n      and\n        /* \"contracts/Test1.sol\":854:893  users[i].walletAddress == walletAddress */\n      0xffffffffffffffffffffffffffffffffffffffff\n      and\n      eq\n        /* \"contracts/Test1.sol\":851:955  if(users[i].walletAddress == walletAddress){... */\n      iszero\n      tag_78\n      jumpi\n        /* \"contracts/Test1.sol\":931:940  msg.value */\n      callvalue\n        /* \"contracts/Test1.sol\":912:917  users */\n      0x01\n        /* \"contracts/Test1.sol\":918:919  i */\n      dup3\n        /* \"contracts/Test1.sol\":912:920  users[i] */\n      dup2\n      sload\n      dup2\n      lt\n      tag_79\n      jumpi\n      tag_80\n      tag_57\n      jump\t// in\n    tag_80:\n    tag_79:\n      swap1\n      0x00\n      mstore\n      keccak256(0x00, 0x20)\n      swap1\n      0x03\n      mul\n      add\n        /* \"contracts/Test1.sol\":912:927  users[i].amount */\n      0x02\n      add\n      0x00\n        /* \"contracts/Test1.sol\":912:940  users[i].amount += msg.value */\n      dup3\n      dup3\n      sload\n      tag_82\n      swap2\n      swap1\n      tag_83\n      jump\t// in\n    tag_82:\n      swap3\n      pop\n      pop\n      dup2\n      swap1\n      sstore\n      pop\n        /* \"contracts/Test1.sol\":851:955  if(users[i].walletAddress == walletAddress){... */\n    tag_78:\n        /* \"contracts/Test1.sol\":833:836  i++ */\n      dup1\n      dup1\n      tag_84\n      swap1\n      tag_64\n      jump\t// in\n    tag_84:\n      swap2\n      pop\n      pop\n        /* \"contracts/Test1.sol\":799:965  for(uint i = 0; i < users.length; i++){... */\n      jump(tag_72)\n    tag_73:\n      pop\n        /* \"contracts/Test1.sol\":731:971  function transferToAddress(address walletAddress) private {... */\n      pop\n      jump\t// out\n    tag_69:\n      dup3\n      dup1\n      sload\n      tag_85\n      swap1\n      tag_46\n      jump\t// in\n    tag_85:\n      swap1\n      0x00\n      mstore\n      keccak256(0x00, 0x20)\n      swap1\n      0x1f\n      add\n      0x20\n      swap1\n      div\n      dup2\n      add\n      swap3\n      dup3\n      tag_87\n      jumpi\n      0x00\n      dup6\n      sstore\n      jump(tag_86)\n    tag_87:\n      dup3\n      0x1f\n      lt\n      tag_88\n      jumpi\n      dup1\n      mload\n      not(0xff)\n      and\n      dup4\n      dup1\n      add\n      or\n      dup6\n      sstore\n      jump(tag_86)\n    tag_88:\n      dup3\n      dup1\n      add\n      0x01\n      add\n      dup6\n      sstore\n      dup3\n      iszero\n      tag_86\n      jumpi\n      swap2\n      dup3\n      add\n    tag_89:\n      dup3\n      dup2\n      gt\n      iszero\n      tag_90\n      jumpi\n      dup3\n      mload\n      dup3\n      sstore\n      swap2\n      0x20\n      add\n      swap2\n      swap1\n      0x01\n      add\n      swap1\n      jump(tag_89)\n    tag_90:\n    tag_86:\n      pop\n      swap1\n      pop\n      tag_91\n      swap2\n      swap1\n      tag_92\n      jump\t// in\n    tag_91:\n      pop\n      swap1\n      jump\t// out\n    tag_92:\n    tag_93:\n      dup1\n      dup3\n      gt\n      iszero\n      tag_94\n      jumpi\n      0x00\n      dup2\n      0x00\n      swap1\n      sstore\n      pop\n      0x01\n      add\n      jump(tag_93)\n    tag_94:\n      pop\n      swap1\n      jump\t// out\n        /* \"#utility.yul\":7:419   */\n    tag_96:\n        /* \"#utility.yul\":85:90   */\n      0x00\n        /* \"#utility.yul\":110:176   */\n      tag_98\n        /* \"#utility.yul\":126:175   */\n      tag_99\n        /* \"#utility.yul\":168:174   */\n      dup5\n        /* \"#utility.yul\":126:175   */\n      tag_100\n      jump\t// in\n    tag_99:\n        /* \"#utility.yul\":110:176   */\n      tag_101\n      jump\t// in\n    tag_98:\n        /* \"#utility.yul\":101:176   */\n      swap1\n      pop\n        /* \"#utility.yul\":199:205   */\n      dup3\n        /* \"#utility.yul\":192:197   */\n      dup2\n        /* \"#utility.yul\":185:206   */\n      mstore\n        /* \"#utility.yul\":237:241   */\n      0x20\n        /* \"#utility.yul\":230:235   */\n      dup2\n        /* \"#utility.yul\":226:242   */\n      add\n        /* \"#utility.yul\":275:278   */\n      dup5\n        /* \"#utility.yul\":266:272   */\n      dup5\n        /* \"#utility.yul\":261:264   */\n      dup5\n        /* \"#utility.yul\":257:273   */\n      add\n        /* \"#utility.yul\":254:279   */\n      gt\n        /* \"#utility.yul\":251:363   */\n      iszero\n      tag_102\n      jumpi\n        /* \"#utility.yul\":282:361   */\n      tag_103\n      tag_104\n      jump\t// in\n    tag_103:\n        /* \"#utility.yul\":251:363   */\n    tag_102:\n        /* \"#utility.yul\":372:413   */\n      tag_105\n        /* \"#utility.yul\":406:412   */\n      dup5\n        /* \"#utility.yul\":401:404   */\n      dup3\n        /* \"#utility.yul\":396:399   */\n      dup6\n        /* \"#utility.yul\":372:413   */\n      tag_106\n      jump\t// in\n    tag_105:\n        /* \"#utility.yul\":91:419   */\n      pop\n        /* \"#utility.yul\":7:419   */\n      swap4\n      swap3\n      pop\n      pop\n      pop\n      jump\t// out\n        /* \"#utility.yul\":425:564   */\n    tag_107:\n        /* \"#utility.yul\":471:476   */\n      0x00\n        /* \"#utility.yul\":509:515   */\n      dup2\n        /* \"#utility.yul\":496:516   */\n      calldataload\n        /* \"#utility.yul\":487:516   */\n      swap1\n      pop\n        /* \"#utility.yul\":525:558   */\n      tag_109\n        /* \"#utility.yul\":552:557   */\n      dup2\n        /* \"#utility.yul\":525:558   */\n      tag_110\n      jump\t// in\n    tag_109:\n        /* \"#utility.yul\":425:564   */\n      swap3\n      swap2\n      pop\n      pop\n      jump\t// out\n        /* \"#utility.yul\":584:924   */\n    tag_111:\n        /* \"#utility.yul\":640:645   */\n      0x00\n        /* \"#utility.yul\":689:692   */\n      dup3\n        /* \"#utility.yul\":682:686   */\n      0x1f\n        /* \"#utility.yul\":674:680   */\n      dup4\n        /* \"#utility.yul\":670:687   */\n      add\n        /* \"#utility.yul\":666:693   */\n      slt\n        /* \"#utility.yul\":656:778   */\n      tag_113\n      jumpi\n        /* \"#utility.yul\":697:776   */\n      tag_114\n      tag_115\n      jump\t// in\n    tag_114:\n        /* \"#utility.yul\":656:778   */\n    tag_113:\n        /* \"#utility.yul\":814:820   */\n      dup2\n        /* \"#utility.yul\":801:821   */\n      calldataload\n        /* \"#utility.yul\":839:918   */\n      tag_116\n        /* \"#utility.yul\":914:917   */\n      dup5\n        /* \"#utility.yul\":906:912   */\n      dup3\n        /* \"#utility.yul\":899:903   */\n      0x20\n        /* \"#utility.yul\":891:897   */\n      dup7\n        /* \"#utility.yul\":887:904   */\n      add\n        /* \"#utility.yul\":839:918   */\n      tag_96\n      jump\t// in\n    tag_116:\n        /* \"#utility.yul\":830:918   */\n      swap2\n      pop\n        /* \"#utility.yul\":646:924   */\n      pop\n        /* \"#utility.yul\":584:924   */\n      swap3\n      swap2\n      pop\n      pop\n      jump\t// out\n        /* \"#utility.yul\":930:1069   */\n    tag_117:\n        /* \"#utility.yul\":976:981   */\n      0x00\n        /* \"#utility.yul\":1014:1020   */\n      dup2\n        /* \"#utility.yul\":1001:1021   */\n      calldataload\n        /* \"#utility.yul\":992:1021   */\n      swap1\n      pop\n        /* \"#utility.yul\":1030:1063   */\n      tag_119\n        /* \"#utility.yul\":1057:1062   */\n      dup2\n        /* \"#utility.yul\":1030:1063   */\n      tag_120\n      jump\t// in\n    tag_119:\n        /* \"#utility.yul\":930:1069   */\n      swap3\n      swap2\n      pop\n      pop\n      jump\t// out\n        /* \"#utility.yul\":1075:1404   */\n    tag_10:\n        /* \"#utility.yul\":1134:1140   */\n      0x00\n        /* \"#utility.yul\":1183:1185   */\n      0x20\n        /* \"#utility.yul\":1171:1180   */\n      dup3\n        /* \"#utility.yul\":1162:1169   */\n      dup5\n        /* \"#utility.yul\":1158:1181   */\n      sub\n        /* \"#utility.yul\":1154:1186   */\n      slt\n        /* \"#utility.yul\":1151:1270   */\n      iszero\n      tag_122\n      jumpi\n        /* \"#utility.yul\":1189:1268   */\n      tag_123\n      tag_124\n      jump\t// in\n    tag_123:\n        /* \"#utility.yul\":1151:1270   */\n    tag_122:\n        /* \"#utility.yul\":1309:1310   */\n      0x00\n        /* \"#utility.yul\":1334:1387   */\n      tag_125\n        /* \"#utility.yul\":1379:1386   */\n      dup5\n        /* \"#utility.yul\":1370:1376   */\n      dup3\n        /* \"#utility.yul\":1359:1368   */\n      dup6\n        /* \"#utility.yul\":1355:1377   */\n      add\n        /* \"#utility.yul\":1334:1387   */\n      tag_107\n      jump\t// in\n    tag_125:\n        /* \"#utility.yul\":1324:1387   */\n      swap2\n      pop\n        /* \"#utility.yul\":1280:1397   */\n      pop\n        /* \"#utility.yul\":1075:1404   */\n      swap3\n      swap2\n      pop\n      pop\n      jump\t// out\n        /* \"#utility.yul\":1410:2209   */\n    tag_38:\n        /* \"#utility.yul\":1497:1503   */\n      0x00\n        /* \"#utility.yul\":1505:1511   */\n      dup1\n        /* \"#utility.yul\":1513:1519   */\n      0x00\n        /* \"#utility.yul\":1562:1564   */\n      0x60\n        /* \"#utility.yul\":1550:1559   */\n      dup5\n        /* \"#utility.yul\":1541:1548   */\n      dup7\n        /* \"#utility.yul\":1537:1560   */\n      sub\n        /* \"#utility.yul\":1533:1565   */\n      slt\n        /* \"#utility.yul\":1530:1649   */\n      iszero\n      tag_127\n      jumpi\n        /* \"#utility.yul\":1568:1647   */\n      tag_128\n      tag_124\n      jump\t// in\n    tag_128:\n        /* \"#utility.yul\":1530:1649   */\n    tag_127:\n        /* \"#utility.yul\":1688:1689   */\n      0x00\n        /* \"#utility.yul\":1713:1766   */\n      tag_129\n        /* \"#utility.yul\":1758:1765   */\n      dup7\n        /* \"#utility.yul\":1749:1755   */\n      dup3\n        /* \"#utility.yul\":1738:1747   */\n      dup8\n        /* \"#utility.yul\":1734:1756   */\n      add\n        /* \"#utility.yul\":1713:1766   */\n      tag_107\n      jump\t// in\n    tag_129:\n        /* \"#utility.yul\":1703:1766   */\n      swap4\n      pop\n        /* \"#utility.yul\":1659:1776   */\n      pop\n        /* \"#utility.yul\":1843:1845   */\n      0x20\n        /* \"#utility.yul\":1832:1841   */\n      dup5\n        /* \"#utility.yul\":1828:1846   */\n      add\n        /* \"#utility.yul\":1815:1847   */\n      calldataload\n        /* \"#utility.yul\":1874:1892   */\n      0xffffffffffffffff\n        /* \"#utility.yul\":1866:1872   */\n      dup2\n        /* \"#utility.yul\":1863:1893   */\n      gt\n        /* \"#utility.yul\":1860:1977   */\n      iszero\n      tag_130\n      jumpi\n        /* \"#utility.yul\":1896:1975   */\n      tag_131\n      tag_132\n      jump\t// in\n    tag_131:\n        /* \"#utility.yul\":1860:1977   */\n    tag_130:\n        /* \"#utility.yul\":2001:2064   */\n      tag_133\n        /* \"#utility.yul\":2056:2063   */\n      dup7\n        /* \"#utility.yul\":2047:2053   */\n      dup3\n        /* \"#utility.yul\":2036:2045   */\n      dup8\n        /* \"#utility.yul\":2032:2054   */\n      add\n        /* \"#utility.yul\":2001:2064   */\n      tag_111\n      jump\t// in\n    tag_133:\n        /* \"#utility.yul\":1991:2064   */\n      swap3\n      pop\n        /* \"#utility.yul\":1786:2074   */\n      pop\n        /* \"#utility.yul\":2113:2115   */\n      0x40\n        /* \"#utility.yul\":2139:2192   */\n      tag_134\n        /* \"#utility.yul\":2184:2191   */\n      dup7\n        /* \"#utility.yul\":2175:2181   */\n      dup3\n        /* \"#utility.yul\":2164:2173   */\n      dup8\n        /* \"#utility.yul\":2160:2182   */\n      add\n        /* \"#utility.yul\":2139:2192   */\n      tag_117\n      jump\t// in\n    tag_134:\n        /* \"#utility.yul\":2129:2192   */\n      swap2\n      pop\n        /* \"#utility.yul\":2084:2202   */\n      pop\n        /* \"#utility.yul\":1410:2209   */\n      swap3\n      pop\n      swap3\n      pop\n      swap3\n      jump\t// out\n        /* \"#utility.yul\":2215:2689   */\n    tag_33:\n        /* \"#utility.yul\":2283:2289   */\n      0x00\n        /* \"#utility.yul\":2291:2297   */\n      dup1\n        /* \"#utility.yul\":2340:2342   */\n      0x40\n        /* \"#utility.yul\":2328:2337   */\n      dup4\n        /* \"#utility.yul\":2319:2326   */\n      dup6\n        /* \"#utility.yul\":2315:2338   */\n      sub\n        /* \"#utility.yul\":2311:2343   */\n      slt\n        /* \"#utility.yul\":2308:2427   */\n      iszero\n      tag_136\n      jumpi\n        /* \"#utility.yul\":2346:2425   */\n      tag_137\n      tag_124\n      jump\t// in\n    tag_137:\n        /* \"#utility.yul\":2308:2427   */\n    tag_136:\n        /* \"#utility.yul\":2466:2467   */\n      0x00\n        /* \"#utility.yul\":2491:2544   */\n      tag_138\n        /* \"#utility.yul\":2536:2543   */\n      dup6\n        /* \"#utility.yul\":2527:2533   */\n      dup3\n        /* \"#utility.yul\":2516:2525   */\n      dup7\n        /* \"#utility.yul\":2512:2534   */\n      add\n        /* \"#utility.yul\":2491:2544   */\n      tag_107\n      jump\t// in\n    tag_138:\n        /* \"#utility.yul\":2481:2544   */\n      swap3\n      pop\n        /* \"#utility.yul\":2437:2554   */\n      pop\n        /* \"#utility.yul\":2593:2595   */\n      0x20\n        /* \"#utility.yul\":2619:2672   */\n      tag_139\n        /* \"#utility.yul\":2664:2671   */\n      dup6\n        /* \"#utility.yul\":2655:2661   */\n      dup3\n        /* \"#utility.yul\":2644:2653   */\n      dup7\n        /* \"#utility.yul\":2640:2662   */\n      add\n        /* \"#utility.yul\":2619:2672   */\n      tag_117\n      jump\t// in\n    tag_139:\n        /* \"#utility.yul\":2609:2672   */\n      swap2\n      pop\n        /* \"#utility.yul\":2564:2682   */\n      pop\n        /* \"#utility.yul\":2215:2689   */\n      swap3\n      pop\n      swap3\n      swap1\n      pop\n      jump\t// out\n        /* \"#utility.yul\":2695:3024   */\n    tag_15:\n        /* \"#utility.yul\":2754:2760   */\n      0x00\n        /* \"#utility.yul\":2803:2805   */\n      0x20\n        /* \"#utility.yul\":2791:2800   */\n      dup3\n        /* \"#utility.yul\":2782:2789   */\n      dup5\n        /* \"#utility.yul\":2778:2801   */\n      sub\n        /* \"#utility.yul\":2774:2806   */\n      slt\n        /* \"#utility.yul\":2771:2890   */\n      iszero\n      tag_141\n      jumpi\n        /* \"#utility.yul\":2809:2888   */\n      tag_142\n      tag_124\n      jump\t// in\n    tag_142:\n        /* \"#utility.yul\":2771:2890   */\n    tag_141:\n        /* \"#utility.yul\":2929:2930   */\n      0x00\n        /* \"#utility.yul\":2954:3007   */\n      tag_143\n        /* \"#utility.yul\":2999:3006   */\n      dup5\n        /* \"#utility.yul\":2990:2996   */\n      dup3\n        /* \"#utility.yul\":2979:2988   */\n      dup6\n        /* \"#utility.yul\":2975:2997   */\n      add\n        /* \"#utility.yul\":2954:3007   */\n      tag_117\n      jump\t// in\n    tag_143:\n        /* \"#utility.yul\":2944:3007   */\n      swap2\n      pop\n        /* \"#utility.yul\":2900:3017   */\n      pop\n        /* \"#utility.yul\":2695:3024   */\n      swap3\n      swap2\n      pop\n      pop\n      jump\t// out\n        /* \"#utility.yul\":3030:3148   */\n    tag_144:\n        /* \"#utility.yul\":3117:3141   */\n      tag_146\n        /* \"#utility.yul\":3135:3140   */\n      dup2\n        /* \"#utility.yul\":3117:3141   */\n      tag_147\n      jump\t// in\n    tag_146:\n        /* \"#utility.yul\":3112:3115   */\n      dup3\n        /* \"#utility.yul\":3105:3142   */\n      mstore\n        /* \"#utility.yul\":3030:3148   */\n      pop\n      pop\n      jump\t// out\n        /* \"#utility.yul\":3154:3518   */\n    tag_148:\n        /* \"#utility.yul\":3242:3245   */\n      0x00\n        /* \"#utility.yul\":3270:3309   */\n      tag_150\n        /* \"#utility.yul\":3303:3308   */\n      dup3\n        /* \"#utility.yul\":3270:3309   */\n      tag_151\n      jump\t// in\n    tag_150:\n        /* \"#utility.yul\":3325:3396   */\n      tag_152\n        /* \"#utility.yul\":3389:3395   */\n      dup2\n        /* \"#utility.yul\":3384:3387   */\n      dup6\n        /* \"#utility.yul\":3325:3396   */\n      tag_153\n      jump\t// in\n    tag_152:\n        /* \"#utility.yul\":3318:3396   */\n      swap4\n      pop\n        /* \"#utility.yul\":3405:3457   */\n      tag_154\n        /* \"#utility.yul\":3450:3456   */\n      dup2\n        /* \"#utility.yul\":3445:3448   */\n      dup6\n        /* \"#utility.yul\":3438:3442   */\n      0x20\n        /* \"#utility.yul\":3431:3436   */\n      dup7\n        /* \"#utility.yul\":3427:3443   */\n      add\n        /* \"#utility.yul\":3405:3457   */\n      tag_155\n      jump\t// in\n    tag_154:\n        /* \"#utility.yul\":3482:3511   */\n      tag_156\n        /* \"#utility.yul\":3504:3510   */\n      dup2\n        /* \"#utility.yul\":3482:3511   */\n      tag_157\n      jump\t// in\n    tag_156:\n        /* \"#utility.yul\":3477:3480   */\n      dup5\n        /* \"#utility.yul\":3473:3512   */\n      add\n        /* \"#utility.yul\":3466:3512   */\n      swap2\n      pop\n        /* \"#utility.yul\":3246:3518   */\n      pop\n        /* \"#utility.yul\":3154:3518   */\n      swap3\n      swap2\n      pop\n      pop\n      jump\t// out\n        /* \"#utility.yul\":3524:3642   */\n    tag_158:\n        /* \"#utility.yul\":3611:3635   */\n      tag_160\n        /* \"#utility.yul\":3629:3634   */\n      dup2\n        /* \"#utility.yul\":3611:3635   */\n      tag_161\n      jump\t// in\n    tag_160:\n        /* \"#utility.yul\":3606:3609   */\n      dup3\n        /* \"#utility.yul\":3599:3636   */\n      mstore\n        /* \"#utility.yul\":3524:3642   */\n      pop\n      pop\n      jump\t// out\n        /* \"#utility.yul\":3648:4181   */\n    tag_18:\n        /* \"#utility.yul\":3817:3821   */\n      0x00\n        /* \"#utility.yul\":3855:3857   */\n      0x60\n        /* \"#utility.yul\":3844:3853   */\n      dup3\n        /* \"#utility.yul\":3840:3858   */\n      add\n        /* \"#utility.yul\":3832:3858   */\n      swap1\n      pop\n        /* \"#utility.yul\":3868:3939   */\n      tag_163\n        /* \"#utility.yul\":3936:3937   */\n      0x00\n        /* \"#utility.yul\":3925:3934   */\n      dup4\n        /* \"#utility.yul\":3921:3938   */\n      add\n        /* \"#utility.yul\":3912:3918   */\n      dup7\n        /* \"#utility.yul\":3868:3939   */\n      tag_144\n      jump\t// in\n    tag_163:\n        /* \"#utility.yul\":3986:3995   */\n      dup2\n        /* \"#utility.yul\":3980:3984   */\n      dup2\n        /* \"#utility.yul\":3976:3996   */\n      sub\n        /* \"#utility.yul\":3971:3973   */\n      0x20\n        /* \"#utility.yul\":3960:3969   */\n      dup4\n        /* \"#utility.yul\":3956:3974   */\n      add\n        /* \"#utility.yul\":3949:3997   */\n      mstore\n        /* \"#utility.yul\":4014:4092   */\n      tag_164\n        /* \"#utility.yul\":4087:4091   */\n      dup2\n        /* \"#utility.yul\":4078:4084   */\n      dup6\n        /* \"#utility.yul\":4014:4092   */\n      tag_148\n      jump\t// in\n    tag_164:\n        /* \"#utility.yul\":4006:4092   */\n      swap1\n      pop\n        /* \"#utility.yul\":4102:4174   */\n      tag_165\n        /* \"#utility.yul\":4170:4172   */\n      0x40\n        /* \"#utility.yul\":4159:4168   */\n      dup4\n        /* \"#utility.yul\":4155:4173   */\n      add\n        /* \"#utility.yul\":4146:4152   */\n      dup5\n        /* \"#utility.yul\":4102:4174   */\n      tag_158\n      jump\t// in\n    tag_165:\n        /* \"#utility.yul\":3648:4181   */\n      swap5\n      swap4\n      pop\n      pop\n      pop\n      pop\n      jump\t// out\n        /* \"#utility.yul\":4187:4409   */\n    tag_24:\n        /* \"#utility.yul\":4280:4284   */\n      0x00\n        /* \"#utility.yul\":4318:4320   */\n      0x20\n        /* \"#utility.yul\":4307:4316   */\n      dup3\n        /* \"#utility.yul\":4303:4321   */\n      add\n        /* \"#utility.yul\":4295:4321   */\n      swap1\n      pop\n        /* \"#utility.yul\":4331:4402   */\n      tag_167\n        /* \"#utility.yul\":4399:4400   */\n      0x00\n        /* \"#utility.yul\":4388:4397   */\n      dup4\n        /* \"#utility.yul\":4384:4401   */\n      add\n        /* \"#utility.yul\":4375:4381   */\n      dup5\n        /* \"#utility.yul\":4331:4402   */\n      tag_158\n      jump\t// in\n    tag_167:\n        /* \"#utility.yul\":4187:4409   */\n      swap3\n      swap2\n      pop\n      pop\n      jump\t// out\n        /* \"#utility.yul\":4415:4544   */\n    tag_101:\n        /* \"#utility.yul\":4449:4455   */\n      0x00\n        /* \"#utility.yul\":4476:4496   */\n      tag_169\n      tag_170\n      jump\t// in\n    tag_169:\n        /* \"#utility.yul\":4466:4496   */\n      swap1\n      pop\n        /* \"#utility.yul\":4505:4538   */\n      tag_171\n        /* \"#utility.yul\":4533:4537   */\n      dup3\n        /* \"#utility.yul\":4525:4531   */\n      dup3\n        /* \"#utility.yul\":4505:4538   */\n      tag_172\n      jump\t// in\n    tag_171:\n        /* \"#utility.yul\":4415:4544   */\n      swap2\n      swap1\n      pop\n      jump\t// out\n        /* \"#utility.yul\":4550:4625   */\n    tag_170:\n        /* \"#utility.yul\":4583:4589   */\n      0x00\n        /* \"#utility.yul\":4616:4618   */\n      0x40\n        /* \"#utility.yul\":4610:4619   */\n      mload\n        /* \"#utility.yul\":4600:4619   */\n      swap1\n      pop\n        /* \"#utility.yul\":4550:4625   */\n      swap1\n      jump\t// out\n        /* \"#utility.yul\":4631:4939   */\n    tag_100:\n        /* \"#utility.yul\":4693:4697   */\n      0x00\n        /* \"#utility.yul\":4783:4801   */\n      0xffffffffffffffff\n        /* \"#utility.yul\":4775:4781   */\n      dup3\n        /* \"#utility.yul\":4772:4802   */\n      gt\n        /* \"#utility.yul\":4769:4825   */\n      iszero\n      tag_175\n      jumpi\n        /* \"#utility.yul\":4805:4823   */\n      tag_176\n      tag_177\n      jump\t// in\n    tag_176:\n        /* \"#utility.yul\":4769:4825   */\n    tag_175:\n        /* \"#utility.yul\":4843:4872   */\n      tag_178\n        /* \"#utility.yul\":4865:4871   */\n      dup3\n        /* \"#utility.yul\":4843:4872   */\n      tag_157\n      jump\t// in\n    tag_178:\n        /* \"#utility.yul\":4835:4872   */\n      swap1\n      pop\n        /* \"#utility.yul\":4927:4931   */\n      0x20\n        /* \"#utility.yul\":4921:4925   */\n      dup2\n        /* \"#utility.yul\":4917:4932   */\n      add\n        /* \"#utility.yul\":4909:4932   */\n      swap1\n      pop\n        /* \"#utility.yul\":4631:4939   */\n      swap2\n      swap1\n      pop\n      jump\t// out\n        /* \"#utility.yul\":4945:5044   */\n    tag_151:\n        /* \"#utility.yul\":4997:5003   */\n      0x00\n        /* \"#utility.yul\":5031:5036   */\n      dup2\n        /* \"#utility.yul\":5025:5037   */\n      mload\n        /* \"#utility.yul\":5015:5037   */\n      swap1\n      pop\n        /* \"#utility.yul\":4945:5044   */\n      swap2\n      swap1\n      pop\n      jump\t// out\n        /* \"#utility.yul\":5050:5219   */\n    tag_153:\n        /* \"#utility.yul\":5134:5145   */\n      0x00\n        /* \"#utility.yul\":5168:5174   */\n      dup3\n        /* \"#utility.yul\":5163:5166   */\n      dup3\n        /* \"#utility.yul\":5156:5175   */\n      mstore\n        /* \"#utility.yul\":5208:5212   */\n      0x20\n        /* \"#utility.yul\":5203:5206   */\n      dup3\n        /* \"#utility.yul\":5199:5213   */\n      add\n        /* \"#utility.yul\":5184:5213   */\n      swap1\n      pop\n        /* \"#utility.yul\":5050:5219   */\n      swap3\n      swap2\n      pop\n      pop\n      jump\t// out\n        /* \"#utility.yul\":5225:5530   */\n    tag_83:\n        /* \"#utility.yul\":5265:5268   */\n      0x00\n        /* \"#utility.yul\":5284:5304   */\n      tag_182\n        /* \"#utility.yul\":5302:5303   */\n      dup3\n        /* \"#utility.yul\":5284:5304   */\n      tag_161\n      jump\t// in\n    tag_182:\n        /* \"#utility.yul\":5279:5304   */\n      swap2\n      pop\n        /* \"#utility.yul\":5318:5338   */\n      tag_183\n        /* \"#utility.yul\":5336:5337   */\n      dup4\n        /* \"#utility.yul\":5318:5338   */\n      tag_161\n      jump\t// in\n    tag_183:\n        /* \"#utility.yul\":5313:5338   */\n      swap3\n      pop\n        /* \"#utility.yul\":5472:5473   */\n      dup3\n        /* \"#utility.yul\":5404:5470   */\n      0xffffffffffffffffffffffffffffffffffffffffffffffffffffffffffffffff\n        /* \"#utility.yul\":5400:5474   */\n      sub\n        /* \"#utility.yul\":5397:5398   */\n      dup3\n        /* \"#utility.yul\":5394:5475   */\n      gt\n        /* \"#utility.yul\":5391:5498   */\n      iszero\n      tag_184\n      jumpi\n        /* \"#utility.yul\":5478:5496   */\n      tag_185\n      tag_186\n      jump\t// in\n    tag_185:\n        /* \"#utility.yul\":5391:5498   */\n    tag_184:\n        /* \"#utility.yul\":5522:5523   */\n      dup3\n        /* \"#utility.yul\":5519:5520   */\n      dup3\n        /* \"#utility.yul\":5515:5524   */\n      add\n        /* \"#utility.yul\":5508:5524   */\n      swap1\n      pop\n        /* \"#utility.yul\":5225:5530   */\n      swap3\n      swap2\n      pop\n      pop\n      jump\t// out\n        /* \"#utility.yul\":5536:5632   */\n    tag_147:\n        /* \"#utility.yul\":5573:5580   */\n      0x00\n        /* \"#utility.yul\":5602:5626   */\n      tag_188\n        /* \"#utility.yul\":5620:5625   */\n      dup3\n        /* \"#utility.yul\":5602:5626   */\n      tag_189\n      jump\t// in\n    tag_188:\n        /* \"#utility.yul\":5591:5626   */\n      swap1\n      pop\n        /* \"#utility.yul\":5536:5632   */\n      swap2\n      swap1\n      pop\n      jump\t// out\n        /* \"#utility.yul\":5638:5764   */\n    tag_189:\n        /* \"#utility.yul\":5675:5682   */\n      0x00\n        /* \"#utility.yul\":5715:5757   */\n      0xffffffffffffffffffffffffffffffffffffffff\n        /* \"#utility.yul\":5708:5713   */\n      dup3\n        /* \"#utility.yul\":5704:5758   */\n      and\n        /* \"#utility.yul\":5693:5758   */\n      swap1\n      pop\n        /* \"#utility.yul\":5638:5764   */\n      swap2\n      swap1\n      pop\n      jump\t// out\n        /* \"#utility.yul\":5770:5847   */\n    tag_161:\n        /* \"#utility.yul\":5807:5814   */\n      0x00\n        /* \"#utility.yul\":5836:5841   */\n      dup2\n        /* \"#utility.yul\":5825:5841   */\n      swap1\n      pop\n        /* \"#utility.yul\":5770:5847   */\n      swap2\n      swap1\n      pop\n      jump\t// out\n        /* \"#utility.yul\":5853:6007   */\n    tag_106:\n        /* \"#utility.yul\":5937:5943   */\n      dup3\n        /* \"#utility.yul\":5932:5935   */\n      dup2\n        /* \"#utility.yul\":5927:5930   */\n      dup4\n        /* \"#utility.yul\":5914:5944   */\n      calldatacopy\n        /* \"#utility.yul\":5999:6000   */\n      0x00\n        /* \"#utility.yul\":5990:5996   */\n      dup4\n        /* \"#utility.yul\":5985:5988   */\n      dup4\n        /* \"#utility.yul\":5981:5997   */\n      add\n        /* \"#utility.yul\":5974:6001   */\n      mstore\n        /* \"#utility.yul\":5853:6007   */\n      pop\n      pop\n      pop\n      jump\t// out\n        /* \"#utility.yul\":6013:6320   */\n    tag_155:\n        /* \"#utility.yul\":6081:6082   */\n      0x00\n        /* \"#utility.yul\":6091:6204   */\n    tag_194:\n        /* \"#utility.yul\":6105:6111   */\n      dup4\n        /* \"#utility.yul\":6102:6103   */\n      dup2\n        /* \"#utility.yul\":6099:6112   */\n      lt\n        /* \"#utility.yul\":6091:6204   */\n      iszero\n      tag_196\n      jumpi\n        /* \"#utility.yul\":6190:6191   */\n      dup1\n        /* \"#utility.yul\":6185:6188   */\n      dup3\n        /* \"#utility.yul\":6181:6192   */\n      add\n        /* \"#utility.yul\":6175:6193   */\n      mload\n        /* \"#utility.yul\":6171:6172   */\n      dup2\n        /* \"#utility.yul\":6166:6169   */\n      dup5\n        /* \"#utility.yul\":6162:6173   */\n      add\n        /* \"#utility.yul\":6155:6194   */\n      mstore\n        /* \"#utility.yul\":6127:6129   */\n      0x20\n        /* \"#utility.yul\":6124:6125   */\n      dup2\n        /* \"#utility.yul\":6120:6130   */\n      add\n        /* \"#utility.yul\":6115:6130   */\n      swap1\n      pop\n        /* \"#utility.yul\":6091:6204   */\n      jump(tag_194)\n    tag_196:\n        /* \"#utility.yul\":6222:6228   */\n      dup4\n        /* \"#utility.yul\":6219:6220   */\n      dup2\n        /* \"#utility.yul\":6216:6229   */\n      gt\n        /* \"#utility.yul\":6213:6314   */\n      iszero\n      tag_197\n      jumpi\n        /* \"#utility.yul\":6302:6303   */\n      0x00\n        /* \"#utility.yul\":6293:6299   */\n      dup5\n        /* \"#utility.yul\":6288:6291   */\n      dup5\n        /* \"#utility.yul\":6284:6300   */\n      add\n        /* \"#utility.yul\":6277:6304   */\n      mstore\n        /* \"#utility.yul\":6213:6314   */\n    tag_197:\n        /* \"#utility.yul\":6062:6320   */\n      pop\n        /* \"#utility.yul\":6013:6320   */\n      pop\n      pop\n      pop\n      jump\t// out\n        /* \"#utility.yul\":6326:6646   */\n    tag_46:\n        /* \"#utility.yul\":6370:6376   */\n      0x00\n        /* \"#utility.yul\":6407:6408   */\n      0x02\n        /* \"#utility.yul\":6401:6405   */\n      dup3\n        /* \"#utility.yul\":6397:6409   */\n      div\n        /* \"#utility.yul\":6387:6409   */\n      swap1\n      pop\n        /* \"#utility.yul\":6454:6455   */\n      0x01\n        /* \"#utility.yul\":6448:6452   */\n      dup3\n        /* \"#utility.yul\":6444:6456   */\n      and\n        /* \"#utility.yul\":6475:6493   */\n      dup1\n        /* \"#utility.yul\":6465:6546   */\n      tag_199\n      jumpi\n        /* \"#utility.yul\":6531:6535   */\n      0x7f\n        /* \"#utility.yul\":6523:6529   */\n      dup3\n        /* \"#utility.yul\":6519:6536   */\n      and\n        /* \"#utility.yul\":6509:6536   */\n      swap2\n      pop\n        /* \"#utility.yul\":6465:6546   */\n    tag_199:\n        /* \"#utility.yul\":6593:6595   */\n      0x20\n        /* \"#utility.yul\":6585:6591   */\n      dup3\n        /* \"#utility.yul\":6582:6596   */\n      lt\n        /* \"#utility.yul\":6562:6580   */\n      dup2\n        /* \"#utility.yul\":6559:6597   */\n      eq\n        /* \"#utility.yul\":6556:6640   */\n      iszero\n      tag_200\n      jumpi\n        /* \"#utility.yul\":6612:6630   */\n      tag_201\n      tag_202\n      jump\t// in\n    tag_201:\n        /* \"#utility.yul\":6556:6640   */\n    tag_200:\n        /* \"#utility.yul\":6377:6646   */\n      pop\n        /* \"#utility.yul\":6326:6646   */\n      swap2\n      swap1\n      pop\n      jump\t// out\n        /* \"#utility.yul\":6652:6933   */\n    tag_172:\n        /* \"#utility.yul\":6735:6762   */\n      tag_204\n        /* \"#utility.yul\":6757:6761   */\n      dup3\n        /* \"#utility.yul\":6735:6762   */\n      tag_157\n      jump\t// in\n    tag_204:\n        /* \"#utility.yul\":6727:6733   */\n      dup2\n        /* \"#utility.yul\":6723:6763   */\n      add\n        /* \"#utility.yul\":6865:6871   */\n      dup2\n        /* \"#utility.yul\":6853:6863   */\n      dup2\n        /* \"#utility.yul\":6850:6872   */\n      lt\n        /* \"#utility.yul\":6829:6847   */\n      0xffffffffffffffff\n        /* \"#utility.yul\":6817:6827   */\n      dup3\n        /* \"#utility.yul\":6814:6848   */\n      gt\n        /* \"#utility.yul\":6811:6873   */\n      or\n        /* \"#utility.yul\":6808:6896   */\n      iszero\n      tag_205\n      jumpi\n        /* \"#utility.yul\":6876:6894   */\n      tag_206\n      tag_177\n      jump\t// in\n    tag_206:\n        /* \"#utility.yul\":6808:6896   */\n    tag_205:\n        /* \"#utility.yul\":6916:6926   */\n      dup1\n        /* \"#utility.yul\":6912:6914   */\n      0x40\n        /* \"#utility.yul\":6905:6927   */\n      mstore\n        /* \"#utility.yul\":6695:6933   */\n      pop\n        /* \"#utility.yul\":6652:6933   */\n      pop\n      pop\n      jump\t// out\n        /* \"#utility.yul\":6939:7172   */\n    tag_64:\n        /* \"#utility.yul\":6978:6981   */\n      0x00\n        /* \"#utility.yul\":7001:7025   */\n      tag_208\n        /* \"#utility.yul\":7019:7024   */\n      dup3\n        /* \"#utility.yul\":7001:7025   */\n      tag_161\n      jump\t// in\n    tag_208:\n        /* \"#utility.yul\":6992:7025   */\n      swap2\n      pop\n        /* \"#utility.yul\":7047:7113   */\n      0xffffffffffffffffffffffffffffffffffffffffffffffffffffffffffffffff\n        /* \"#utility.yul\":7040:7045   */\n      dup3\n        /* \"#utility.yul\":7037:7114   */\n      eq\n        /* \"#utility.yul\":7034:7137   */\n      iszero\n      tag_209\n      jumpi\n        /* \"#utility.yul\":7117:7135   */\n      tag_210\n      tag_186\n      jump\t// in\n    tag_210:\n        /* \"#utility.yul\":7034:7137   */\n    tag_209:\n        /* \"#utility.yul\":7164:7165   */\n      0x01\n        /* \"#utility.yul\":7157:7162   */\n      dup3\n        /* \"#utility.yul\":7153:7166   */\n      add\n        /* \"#utility.yul\":7146:7166   */\n      swap1\n      pop\n        /* \"#utility.yul\":6939:7172   */\n      swap2\n      swap1\n      pop\n      jump\t// out\n        /* \"#utility.yul\":7178:7358   */\n    tag_186:\n        /* \"#utility.yul\":7226:7303   */\n      0x4e487b7100000000000000000000000000000000000000000000000000000000\n        /* \"#utility.yul\":7223:7224   */\n      0x00\n        /* \"#utility.yul\":7216:7304   */\n      mstore\n        /* \"#utility.yul\":7323:7327   */\n      0x11\n        /* \"#utility.yul\":7320:7321   */\n      0x04\n        /* \"#utility.yul\":7313:7328   */\n      mstore\n        /* \"#utility.yul\":7347:7351   */\n      0x24\n        /* \"#utility.yul\":7344:7345   */\n      0x00\n        /* \"#utility.yul\":7337:7352   */\n      revert\n        /* \"#utility.yul\":7364:7544   */\n    tag_202:\n        /* \"#utility.yul\":7412:7489   */\n      0x4e487b7100000000000000000000000000000000000000000000000000000000\n        /* \"#utility.yul\":7409:7410   */\n      0x00\n        /* \"#utility.yul\":7402:7490   */\n      mstore\n        /* \"#utility.yul\":7509:7513   */\n      0x22\n        /* \"#utility.yul\":7506:7507   */\n      0x04\n        /* \"#utility.yul\":7499:7514   */\n      mstore\n        /* \"#utility.yul\":7533:7537   */\n      0x24\n        /* \"#utility.yul\":7530:7531   */\n      0x00\n        /* \"#utility.yul\":7523:7538   */\n      revert\n        /* \"#utility.yul\":7550:7730   */\n    tag_57:\n        /* \"#utility.yul\":7598:7675   */\n      0x4e487b7100000000000000000000000000000000000000000000000000000000\n        /* \"#utility.yul\":7595:7596   */\n      0x00\n        /* \"#utility.yul\":7588:7676   */\n      mstore\n        /* \"#utility.yul\":7695:7699   */\n      0x32\n        /* \"#utility.yul\":7692:7693   */\n      0x04\n        /* \"#utility.yul\":7685:7700   */\n      mstore\n        /* \"#utility.yul\":7719:7723   */\n      0x24\n        /* \"#utility.yul\":7716:7717   */\n      0x00\n        /* \"#utility.yul\":7709:7724   */\n      revert\n        /* \"#utility.yul\":7736:7916   */\n    tag_177:\n        /* \"#utility.yul\":7784:7861   */\n      0x4e487b7100000000000000000000000000000000000000000000000000000000\n        /* \"#utility.yul\":7781:7782   */\n      0x00\n        /* \"#utility.yul\":7774:7862   */\n      mstore\n        /* \"#utility.yul\":7881:7885   */\n      0x41\n        /* \"#utility.yul\":7878:7879   */\n      0x04\n        /* \"#utility.yul\":7871:7886   */\n      mstore\n        /* \"#utility.yul\":7905:7909   */\n      0x24\n        /* \"#utility.yul\":7902:7903   */\n      0x00\n        /* \"#utility.yul\":7895:7910   */\n      revert\n        /* \"#utility.yul\":7922:8039   */\n    tag_115:\n        /* \"#utility.yul\":8031:8032   */\n      0x00\n        /* \"#utility.yul\":8028:8029   */\n      dup1\n        /* \"#utility.yul\":8021:8033   */\n      revert\n        /* \"#utility.yul\":8045:8162   */\n    tag_104:\n        /* \"#utility.yul\":8154:8155   */\n      0x00\n        /* \"#utility.yul\":8151:8152   */\n      dup1\n        /* \"#utility.yul\":8144:8156   */\n      revert\n        /* \"#utility.yul\":8168:8285   */\n    tag_132:\n        /* \"#utility.yul\":8277:8278   */\n      0x00\n        /* \"#utility.yul\":8274:8275   */\n      dup1\n        /* \"#utility.yul\":8267:8279   */\n      revert\n        /* \"#utility.yul\":8291:8408   */\n    tag_124:\n        /* \"#utility.yul\":8400:8401   */\n      0x00\n        /* \"#utility.yul\":8397:8398   */\n      dup1\n        /* \"#utility.yul\":8390:8402   */\n      revert\n        /* \"#utility.yul\":8414:8516   */\n    tag_157:\n        /* \"#utility.yul\":8455:8461   */\n      0x00\n        /* \"#utility.yul\":8506:8508   */\n      0x1f\n        /* \"#utility.yul\":8502:8509   */\n      not\n        /* \"#utility.yul\":8497:8499   */\n      0x1f\n        /* \"#utility.yul\":8490:8495   */\n      dup4\n        /* \"#utility.yul\":8486:8500   */\n      add\n        /* \"#utility.yul\":8482:8510   */\n      and\n        /* \"#utility.yul\":8472:8510   */\n      swap1\n      pop\n        /* \"#utility.yul\":8414:8516   */\n      swap2\n      swap1\n      pop\n      jump\t// out\n        /* \"#utility.yul\":8522:8644   */\n    tag_110:\n        /* \"#utility.yul\":8595:8619   */\n      tag_221\n        /* \"#utility.yul\":8613:8618   */\n      dup2\n        /* \"#utility.yul\":8595:8619   */\n      tag_147\n      jump\t// in\n    tag_221:\n        /* \"#utility.yul\":8588:8593   */\n      dup2\n        /* \"#utility.yul\":8585:8620   */\n      eq\n        /* \"#utility.yul\":8575:8638   */\n      tag_222\n      jumpi\n        /* \"#utility.yul\":8634:8635   */\n      0x00\n        /* \"#utility.yul\":8631:8632   */\n      dup1\n        /* \"#utility.yul\":8624:8636   */\n      revert\n        /* \"#utility.yul\":8575:8638   */\n    tag_222:\n        /* \"#utility.yul\":8522:8644   */\n      pop\n      jump\t// out\n        /* \"#utility.yul\":8650:8772   */\n    tag_120:\n        /* \"#utility.yul\":8723:8747   */\n      tag_224\n        /* \"#utility.yul\":8741:8746   */\n      dup2\n        /* \"#utility.yul\":8723:8747   */\n      tag_161\n      jump\t// in\n    tag_224:\n        /* \"#utility.yul\":8716:8721   */\n      dup2\n        /* \"#utility.yul\":8713:8748   */\n      eq\n        /* \"#utility.yul\":8703:8766   */\n      tag_225\n      jumpi\n        /* \"#utility.yul\":8762:8763   */\n      0x00\n        /* \"#utility.yul\":8759:8760   */\n      dup1\n        /* \"#utility.yul\":8752:8764   */\n      revert\n        /* \"#utility.yul\":8703:8766   */\n    tag_225:\n        /* \"#utility.yul\":8650:8772   */\n      pop\n      jump\t// out\n\n    auxdata: 0xa26469706673582212202f5d2389a6590edb2d46bca121d5dc3cb174bccdb43db1476b7566ab950fb89064736f6c63430008070033\n}\n",
				"bytecode": {
					"linkReferences": {},
					"object": "608060405234801561001057600080fd5b50336000806101000a81548173ffffffffffffffffffffffffffffffffffffffff021916908373ffffffffffffffffffffffffffffffffffffffff160217905550610b4b806100606000396000f3fe6080604052600436106100555760003560e01c80631a6952301461005a578063365b98b2146100765780636f7bc9be146100b557806370a08231146100f2578063a73a649c1461012f578063f0384fb614610158575b600080fd5b610074600480360381019061006f919061065b565b610181565b005b34801561008257600080fd5b5061009d60048036038101906100989190610737565b61018d565b6040516100ac939291906107bb565b60405180910390f35b3480156100c157600080fd5b506100dc60048036038101906100d7919061065b565b61026f565b6040516100e991906107f9565b60405180910390f35b3480156100fe57600080fd5b506101196004803603810190610114919061065b565b610287565b60405161012691906107f9565b60405180910390f35b34801561013b57600080fd5b50610156600480360381019061015191906106f7565b610362565b005b34801561016457600080fd5b5061017f600480360381019061017a9190610688565b610366565b005b61018a81610441565b50565b6001818154811061019d57600080fd5b90600052602060002090600302016000915090508060000160009054906101000a900473ffffffffffffffffffffffffffffffffffffffff16908060010180546101e69061095a565b80601f01602080910402602001604051908101604052809291908181526020018280546102129061095a565b801561025f5780601f106102345761010080835404028352916020019161025f565b820191906000526020600020905b81548152906001019060200180831161024257829003601f168201915b5050505050908060020154905083565b60026020528060005260406000206000915090505481565b600080600090505b600180549050811015610356578273ffffffffffffffffffffffffffffffffffffffff16600182815481106102c7576102c6610a64565b5b906000526020600020906003020160000160009054906101000a900473ffffffffffffffffffffffffffffffffffffffff1673ffffffffffffffffffffffffffffffffffffffff161415610343576001818154811061032957610328610a64565b5b90600052602060002090600302016002015491505061035d565b808061034e906109bd565b91505061028f565b506103e790505b919050565b5050565b600160405180606001604052808573ffffffffffffffffffffffffffffffffffffffff16815260200184815260200183815250908060018154018082558091505060019003906000526020600020906003020160009091909190915060008201518160000160006101000a81548173ffffffffffffffffffffffffffffffffffffffff021916908373ffffffffffffffffffffffffffffffffffffffff160217905550602082015181600101908051906020019061042592919061051e565b5060408201518160020155505061043c8382610362565b505050565b60005b60018054905081101561051a578173ffffffffffffffffffffffffffffffffffffffff166001828154811061047c5761047b610a64565b5b906000526020600020906003020160000160009054906101000a900473ffffffffffffffffffffffffffffffffffffffff1673ffffffffffffffffffffffffffffffffffffffff1614156105075734600182815481106104df576104de610a64565b5b906000526020600020906003020160020160008282546104ff9190610886565b925050819055505b8080610512906109bd565b915050610444565b5050565b82805461052a9061095a565b90600052602060002090601f01602090048101928261054c5760008555610593565b82601f1061056557805160ff1916838001178555610593565b82800160010185558215610593579182015b82811115610592578251825591602001919060010190610577565b5b5090506105a091906105a4565b5090565b5b808211156105bd5760008160009055506001016105a5565b5090565b60006105d46105cf84610839565b610814565b9050828152602081018484840111156105f0576105ef610ac7565b5b6105fb848285610918565b509392505050565b60008135905061061281610ae7565b92915050565b600082601f83011261062d5761062c610ac2565b5b813561063d8482602086016105c1565b91505092915050565b60008135905061065581610afe565b92915050565b60006020828403121561067157610670610ad1565b5b600061067f84828501610603565b91505092915050565b6000806000606084860312156106a1576106a0610ad1565b5b60006106af86828701610603565b935050602084013567ffffffffffffffff8111156106d0576106cf610acc565b5b6106dc86828701610618565b92505060406106ed86828701610646565b9150509250925092565b6000806040838503121561070e5761070d610ad1565b5b600061071c85828601610603565b925050602061072d85828601610646565b9150509250929050565b60006020828403121561074d5761074c610ad1565b5b600061075b84828501610646565b91505092915050565b61076d816108dc565b82525050565b600061077e8261086a565b6107888185610875565b9350610798818560208601610927565b6107a181610ad6565b840191505092915050565b6107b58161090e565b82525050565b60006060820190506107d06000830186610764565b81810360208301526107e28185610773565b90506107f160408301846107ac565b949350505050565b600060208201905061080e60008301846107ac565b92915050565b600061081e61082f565b905061082a828261098c565b919050565b6000604051905090565b600067ffffffffffffffff82111561085457610853610a93565b5b61085d82610ad6565b9050602081019050919050565b600081519050919050565b600082825260208201905092915050565b60006108918261090e565b915061089c8361090e565b9250827fffffffffffffffffffffffffffffffffffffffffffffffffffffffffffffffff038211156108d1576108d0610a06565b5b828201905092915050565b60006108e7826108ee565b9050919050565b600073ffffffffffffffffffffffffffffffffffffffff82169050919050565b6000819050919050565b82818337600083830152505050565b60005b8381101561094557808201518184015260208101905061092a565b83811115610954576000848401525b50505050565b6000600282049050600182168061097257607f821691505b6020821081141561098657610985610a35565b5b50919050565b61099582610ad6565b810181811067ffffffffffffffff821117156109b4576109b3610a93565b5b80604052505050565b60006109c88261090e565b91507fffffffffffffffffffffffffffffffffffffffffffffffffffffffffffffffff8214156109fb576109fa610a06565b5b600182019050919050565b7f4e487b7100000000000000000000000000000000000000000000000000000000600052601160045260246000fd5b7f4e487b7100000000000000000000000000000000000000000000000000000000600052602260045260246000fd5b7f4e487b7100000000000000000000000000000000000000000000000000000000600052603260045260246000fd5b7f4e487b7100000000000000000000000000000000000000000000000000000000600052604160045260246000fd5b600080fd5b600080fd5b600080fd5b600080fd5b6000601f19601f8301169050919050565b610af0816108dc565b8114610afb57600080fd5b50565b610b078161090e565b8114610b1257600080fd5b5056fea26469706673582212202f5d2389a6590edb2d46bca121d5dc3cb174bccdb43db1476b7566ab950fb89064736f6c63430008070033",
					"opcodes": "PUSH1 0x80 PUSH1 0x40 MSTORE CALLVALUE DUP1 ISZERO PUSH2 0x10 JUMPI PUSH1 0x0 DUP1 REVERT JUMPDEST POP CALLER PUSH1 0x0 DUP1 PUSH2 0x100 EXP DUP2 SLOAD DUP2 PUSH20 0xFFFFFFFFFFFFFFFFFFFFFFFFFFFFFFFFFFFFFFFF MUL NOT AND SWAP1 DUP4 PUSH20 0xFFFFFFFFFFFFFFFFFFFFFFFFFFFFFFFFFFFFFFFF AND MUL OR SWAP1 SSTORE POP PUSH2 0xB4B DUP1 PUSH2 0x60 PUSH1 0x0 CODECOPY PUSH1 0x0 RETURN INVALID PUSH1 0x80 PUSH1 0x40 MSTORE PUSH1 0x4 CALLDATASIZE LT PUSH2 0x55 JUMPI PUSH1 0x0 CALLDATALOAD PUSH1 0xE0 SHR DUP1 PUSH4 0x1A695230 EQ PUSH2 0x5A JUMPI DUP1 PUSH4 0x365B98B2 EQ PUSH2 0x76 JUMPI DUP1 PUSH4 0x6F7BC9BE EQ PUSH2 0xB5 JUMPI DUP1 PUSH4 0x70A08231 EQ PUSH2 0xF2 JUMPI DUP1 PUSH4 0xA73A649C EQ PUSH2 0x12F JUMPI DUP1 PUSH4 0xF0384FB6 EQ PUSH2 0x158 JUMPI JUMPDEST PUSH1 0x0 DUP1 REVERT JUMPDEST PUSH2 0x74 PUSH1 0x4 DUP1 CALLDATASIZE SUB DUP2 ADD SWAP1 PUSH2 0x6F SWAP2 SWAP1 PUSH2 0x65B JUMP JUMPDEST PUSH2 0x181 JUMP JUMPDEST STOP JUMPDEST CALLVALUE DUP1 ISZERO PUSH2 0x82 JUMPI PUSH1 0x0 DUP1 REVERT JUMPDEST POP PUSH2 0x9D PUSH1 0x4 DUP1 CALLDATASIZE SUB DUP2 ADD SWAP1 PUSH2 0x98 SWAP2 SWAP1 PUSH2 0x737 JUMP JUMPDEST PUSH2 0x18D JUMP JUMPDEST PUSH1 0x40 MLOAD PUSH2 0xAC SWAP4 SWAP3 SWAP2 SWAP1 PUSH2 0x7BB JUMP JUMPDEST PUSH1 0x40 MLOAD DUP1 SWAP2 SUB SWAP1 RETURN JUMPDEST CALLVALUE DUP1 ISZERO PUSH2 0xC1 JUMPI PUSH1 0x0 DUP1 REVERT JUMPDEST POP PUSH2 0xDC PUSH1 0x4 DUP1 CALLDATASIZE SUB DUP2 ADD SWAP1 PUSH2 0xD7 SWAP2 SWAP1 PUSH2 0x65B JUMP JUMPDEST PUSH2 0x26F JUMP JUMPDEST PUSH1 0x40 MLOAD PUSH2 0xE9 SWAP2 SWAP1 PUSH2 0x7F9 JUMP JUMPDEST PUSH1 0x40 MLOAD DUP1 SWAP2 SUB SWAP1 RETURN JUMPDEST CALLVALUE DUP1 ISZERO PUSH2 0xFE JUMPI PUSH1 0x0 DUP1 REVERT JUMPDEST POP PUSH2 0x119 PUSH1 0x4 DUP1 CALLDATASIZE SUB DUP2 ADD SWAP1 PUSH2 0x114 SWAP2 SWAP1 PUSH2 0x65B JUMP JUMPDEST PUSH2 0x287 JUMP JUMPDEST PUSH1 0x40 MLOAD PUSH2 0x126 SWAP2 SWAP1 PUSH2 0x7F9 JUMP JUMPDEST PUSH1 0x40 MLOAD DUP1 SWAP2 SUB SWAP1 RETURN JUMPDEST CALLVALUE DUP1 ISZERO PUSH2 0x13B JUMPI PUSH1 0x0 DUP1 REVERT JUMPDEST POP PUSH2 0x156 PUSH1 0x4 DUP1 CALLDATASIZE SUB DUP2 ADD SWAP1 PUSH2 0x151 SWAP2 SWAP1 PUSH2 0x6F7 JUMP JUMPDEST PUSH2 0x362 JUMP JUMPDEST STOP JUMPDEST CALLVALUE DUP1 ISZERO PUSH2 0x164 JUMPI PUSH1 0x0 DUP1 REVERT JUMPDEST POP PUSH2 0x17F PUSH1 0x4 DUP1 CALLDATASIZE SUB DUP2 ADD SWAP1 PUSH2 0x17A SWAP2 SWAP1 PUSH2 0x688 JUMP JUMPDEST PUSH2 0x366 JUMP JUMPDEST STOP JUMPDEST PUSH2 0x18A DUP2 PUSH2 0x441 JUMP JUMPDEST POP JUMP JUMPDEST PUSH1 0x1 DUP2 DUP2 SLOAD DUP2 LT PUSH2 0x19D JUMPI PUSH1 0x0 DUP1 REVERT JUMPDEST SWAP1 PUSH1 0x0 MSTORE PUSH1 0x20 PUSH1 0x0 KECCAK256 SWAP1 PUSH1 0x3 MUL ADD PUSH1 0x0 SWAP2 POP SWAP1 POP DUP1 PUSH1 0x0 ADD PUSH1 0x0 SWAP1 SLOAD SWAP1 PUSH2 0x100 EXP SWAP1 DIV PUSH20 0xFFFFFFFFFFFFFFFFFFFFFFFFFFFFFFFFFFFFFFFF AND SWAP1 DUP1 PUSH1 0x1 ADD DUP1 SLOAD PUSH2 0x1E6 SWAP1 PUSH2 0x95A JUMP JUMPDEST DUP1 PUSH1 0x1F ADD PUSH1 0x20 DUP1 SWAP2 DIV MUL PUSH1 0x20 ADD PUSH1 0x40 MLOAD SWAP1 DUP2 ADD PUSH1 0x40 MSTORE DUP1 SWAP3 SWAP2 SWAP1 DUP2 DUP2 MSTORE PUSH1 0x20 ADD DUP3 DUP1 SLOAD PUSH2 0x212 SWAP1 PUSH2 0x95A JUMP JUMPDEST DUP1 ISZERO PUSH2 0x25F JUMPI DUP1 PUSH1 0x1F LT PUSH2 0x234 JUMPI PUSH2 0x100 DUP1 DUP4 SLOAD DIV MUL DUP4 MSTORE SWAP2 PUSH1 0x20 ADD SWAP2 PUSH2 0x25F JUMP JUMPDEST DUP3 ADD SWAP2 SWAP1 PUSH1 0x0 MSTORE PUSH1 0x20 PUSH1 0x0 KECCAK256 SWAP1 JUMPDEST DUP2 SLOAD DUP2 MSTORE SWAP1 PUSH1 0x1 ADD SWAP1 PUSH1 0x20 ADD DUP1 DUP4 GT PUSH2 0x242 JUMPI DUP3 SWAP1 SUB PUSH1 0x1F AND DUP3 ADD SWAP2 JUMPDEST POP POP POP POP POP SWAP1 DUP1 PUSH1 0x2 ADD SLOAD SWAP1 POP DUP4 JUMP JUMPDEST PUSH1 0x2 PUSH1 0x20 MSTORE DUP1 PUSH1 0x0 MSTORE PUSH1 0x40 PUSH1 0x0 KECCAK256 PUSH1 0x0 SWAP2 POP SWAP1 POP SLOAD DUP2 JUMP JUMPDEST PUSH1 0x0 DUP1 PUSH1 0x0 SWAP1 POP JUMPDEST PUSH1 0x1 DUP1 SLOAD SWAP1 POP DUP2 LT ISZERO PUSH2 0x356 JUMPI DUP3 PUSH20 0xFFFFFFFFFFFFFFFFFFFFFFFFFFFFFFFFFFFFFFFF AND PUSH1 0x1 DUP3 DUP2 SLOAD DUP2 LT PUSH2 0x2C7 JUMPI PUSH2 0x2C6 PUSH2 0xA64 JUMP JUMPDEST JUMPDEST SWAP1 PUSH1 0x0 MSTORE PUSH1 0x20 PUSH1 0x0 KECCAK256 SWAP1 PUSH1 0x3 MUL ADD PUSH1 0x0 ADD PUSH1 0x0 SWAP1 SLOAD SWAP1 PUSH2 0x100 EXP SWAP1 DIV PUSH20 0xFFFFFFFFFFFFFFFFFFFFFFFFFFFFFFFFFFFFFFFF AND PUSH20 0xFFFFFFFFFFFFFFFFFFFFFFFFFFFFFFFFFFFFFFFF AND EQ ISZERO PUSH2 0x343 JUMPI PUSH1 0x1 DUP2 DUP2 SLOAD DUP2 LT PUSH2 0x329 JUMPI PUSH2 0x328 PUSH2 0xA64 JUMP JUMPDEST JUMPDEST SWAP1 PUSH1 0x0 MSTORE PUSH1 0x20 PUSH1 0x0 KECCAK256 SWAP1 PUSH1 0x3 MUL ADD PUSH1 0x2 ADD SLOAD SWAP2 POP POP PUSH2 0x35D JUMP JUMPDEST DUP1 DUP1 PUSH2 0x34E SWAP1 PUSH2 0x9BD JUMP JUMPDEST SWAP2 POP POP PUSH2 0x28F JUMP JUMPDEST POP PUSH2 0x3E7 SWAP1 POP JUMPDEST SWAP2 SWAP1 POP JUMP JUMPDEST POP POP JUMP JUMPDEST PUSH1 0x1 PUSH1 0x40 MLOAD DUP1 PUSH1 0x60 ADD PUSH1 0x40 MSTORE DUP1 DUP6 PUSH20 0xFFFFFFFFFFFFFFFFFFFFFFFFFFFFFFFFFFFFFFFF AND DUP2 MSTORE PUSH1 0x20 ADD DUP5 DUP2 MSTORE PUSH1 0x20 ADD DUP4 DUP2 MSTORE POP SWAP1 DUP1 PUSH1 0x1 DUP2 SLOAD ADD DUP1 DUP3 SSTORE DUP1 SWAP2 POP POP PUSH1 0x1 SWAP1 SUB SWAP1 PUSH1 0x0 MSTORE PUSH1 0x20 PUSH1 0x0 KECCAK256 SWAP1 PUSH1 0x3 MUL ADD PUSH1 0x0 SWAP1 SWAP2 SWAP1 SWAP2 SWAP1 SWAP2 POP PUSH1 0x0 DUP3 ADD MLOAD DUP2 PUSH1 0x0 ADD PUSH1 0x0 PUSH2 0x100 EXP DUP2 SLOAD DUP2 PUSH20 0xFFFFFFFFFFFFFFFFFFFFFFFFFFFFFFFFFFFFFFFF MUL NOT AND SWAP1 DUP4 PUSH20 0xFFFFFFFFFFFFFFFFFFFFFFFFFFFFFFFFFFFFFFFF AND MUL OR SWAP1 SSTORE POP PUSH1 0x20 DUP3 ADD MLOAD DUP2 PUSH1 0x1 ADD SWAP1 DUP1 MLOAD SWAP1 PUSH1 0x20 ADD SWAP1 PUSH2 0x425 SWAP3 SWAP2 SWAP1 PUSH2 0x51E JUMP JUMPDEST POP PUSH1 0x40 DUP3 ADD MLOAD DUP2 PUSH1 0x2 ADD SSTORE POP POP PUSH2 0x43C DUP4 DUP3 PUSH2 0x362 JUMP JUMPDEST POP POP POP JUMP JUMPDEST PUSH1 0x0 JUMPDEST PUSH1 0x1 DUP1 SLOAD SWAP1 POP DUP2 LT ISZERO PUSH2 0x51A JUMPI DUP2 PUSH20 0xFFFFFFFFFFFFFFFFFFFFFFFFFFFFFFFFFFFFFFFF AND PUSH1 0x1 DUP3 DUP2 SLOAD DUP2 LT PUSH2 0x47C JUMPI PUSH2 0x47B PUSH2 0xA64 JUMP JUMPDEST JUMPDEST SWAP1 PUSH1 0x0 MSTORE PUSH1 0x20 PUSH1 0x0 KECCAK256 SWAP1 PUSH1 0x3 MUL ADD PUSH1 0x0 ADD PUSH1 0x0 SWAP1 SLOAD SWAP1 PUSH2 0x100 EXP SWAP1 DIV PUSH20 0xFFFFFFFFFFFFFFFFFFFFFFFFFFFFFFFFFFFFFFFF AND PUSH20 0xFFFFFFFFFFFFFFFFFFFFFFFFFFFFFFFFFFFFFFFF AND EQ ISZERO PUSH2 0x507 JUMPI CALLVALUE PUSH1 0x1 DUP3 DUP2 SLOAD DUP2 LT PUSH2 0x4DF JUMPI PUSH2 0x4DE PUSH2 0xA64 JUMP JUMPDEST JUMPDEST SWAP1 PUSH1 0x0 MSTORE PUSH1 0x20 PUSH1 0x0 KECCAK256 SWAP1 PUSH1 0x3 MUL ADD PUSH1 0x2 ADD PUSH1 0x0 DUP3 DUP3 SLOAD PUSH2 0x4FF SWAP2 SWAP1 PUSH2 0x886 JUMP JUMPDEST SWAP3 POP POP DUP2 SWAP1 SSTORE POP JUMPDEST DUP1 DUP1 PUSH2 0x512 SWAP1 PUSH2 0x9BD JUMP JUMPDEST SWAP2 POP POP PUSH2 0x444 JUMP JUMPDEST POP POP JUMP JUMPDEST DUP3 DUP1 SLOAD PUSH2 0x52A SWAP1 PUSH2 0x95A JUMP JUMPDEST SWAP1 PUSH1 0x0 MSTORE PUSH1 0x20 PUSH1 0x0 KECCAK256 SWAP1 PUSH1 0x1F ADD PUSH1 0x20 SWAP1 DIV DUP2 ADD SWAP3 DUP3 PUSH2 0x54C JUMPI PUSH1 0x0 DUP6 SSTORE PUSH2 0x593 JUMP JUMPDEST DUP3 PUSH1 0x1F LT PUSH2 0x565 JUMPI DUP1 MLOAD PUSH1 0xFF NOT AND DUP4 DUP1 ADD OR DUP6 SSTORE PUSH2 0x593 JUMP JUMPDEST DUP3 DUP1 ADD PUSH1 0x1 ADD DUP6 SSTORE DUP3 ISZERO PUSH2 0x593 JUMPI SWAP2 DUP3 ADD JUMPDEST DUP3 DUP2 GT ISZERO PUSH2 0x592 JUMPI DUP3 MLOAD DUP3 SSTORE SWAP2 PUSH1 0x20 ADD SWAP2 SWAP1 PUSH1 0x1 ADD SWAP1 PUSH2 0x577 JUMP JUMPDEST JUMPDEST POP SWAP1 POP PUSH2 0x5A0 SWAP2 SWAP1 PUSH2 0x5A4 JUMP JUMPDEST POP SWAP1 JUMP JUMPDEST JUMPDEST DUP1 DUP3 GT ISZERO PUSH2 0x5BD JUMPI PUSH1 0x0 DUP2 PUSH1 0x0 SWAP1 SSTORE POP PUSH1 0x1 ADD PUSH2 0x5A5 JUMP JUMPDEST POP SWAP1 JUMP JUMPDEST PUSH1 0x0 PUSH2 0x5D4 PUSH2 0x5CF DUP5 PUSH2 0x839 JUMP JUMPDEST PUSH2 0x814 JUMP JUMPDEST SWAP1 POP DUP3 DUP2 MSTORE PUSH1 0x20 DUP2 ADD DUP5 DUP5 DUP5 ADD GT ISZERO PUSH2 0x5F0 JUMPI PUSH2 0x5EF PUSH2 0xAC7 JUMP JUMPDEST JUMPDEST PUSH2 0x5FB DUP5 DUP3 DUP6 PUSH2 0x918 JUMP JUMPDEST POP SWAP4 SWAP3 POP POP POP JUMP JUMPDEST PUSH1 0x0 DUP2 CALLDATALOAD SWAP1 POP PUSH2 0x612 DUP2 PUSH2 0xAE7 JUMP JUMPDEST SWAP3 SWAP2 POP POP JUMP JUMPDEST PUSH1 0x0 DUP3 PUSH1 0x1F DUP4 ADD SLT PUSH2 0x62D JUMPI PUSH2 0x62C PUSH2 0xAC2 JUMP JUMPDEST JUMPDEST DUP2 CALLDATALOAD PUSH2 0x63D DUP5 DUP3 PUSH1 0x20 DUP7 ADD PUSH2 0x5C1 JUMP JUMPDEST SWAP2 POP POP SWAP3 SWAP2 POP POP JUMP JUMPDEST PUSH1 0x0 DUP2 CALLDATALOAD SWAP1 POP PUSH2 0x655 DUP2 PUSH2 0xAFE JUMP JUMPDEST SWAP3 SWAP2 POP POP JUMP JUMPDEST PUSH1 0x0 PUSH1 0x20 DUP3 DUP5 SUB SLT ISZERO PUSH2 0x671 JUMPI PUSH2 0x670 PUSH2 0xAD1 JUMP JUMPDEST JUMPDEST PUSH1 0x0 PUSH2 0x67F DUP5 DUP3 DUP6 ADD PUSH2 0x603 JUMP JUMPDEST SWAP2 POP POP SWAP3 SWAP2 POP POP JUMP JUMPDEST PUSH1 0x0 DUP1 PUSH1 0x0 PUSH1 0x60 DUP5 DUP7 SUB SLT ISZERO PUSH2 0x6A1 JUMPI PUSH2 0x6A0 PUSH2 0xAD1 JUMP JUMPDEST JUMPDEST PUSH1 0x0 PUSH2 0x6AF DUP7 DUP3 DUP8 ADD PUSH2 0x603 JUMP JUMPDEST SWAP4 POP POP PUSH1 0x20 DUP5 ADD CALLDATALOAD PUSH8 0xFFFFFFFFFFFFFFFF DUP2 GT ISZERO PUSH2 0x6D0 JUMPI PUSH2 0x6CF PUSH2 0xACC JUMP JUMPDEST JUMPDEST PUSH2 0x6DC DUP7 DUP3 DUP8 ADD PUSH2 0x618 JUMP JUMPDEST SWAP3 POP POP PUSH1 0x40 PUSH2 0x6ED DUP7 DUP3 DUP8 ADD PUSH2 0x646 JUMP JUMPDEST SWAP2 POP POP SWAP3 POP SWAP3 POP SWAP3 JUMP JUMPDEST PUSH1 0x0 DUP1 PUSH1 0x40 DUP4 DUP6 SUB SLT ISZERO PUSH2 0x70E JUMPI PUSH2 0x70D PUSH2 0xAD1 JUMP JUMPDEST JUMPDEST PUSH1 0x0 PUSH2 0x71C DUP6 DUP3 DUP7 ADD PUSH2 0x603 JUMP JUMPDEST SWAP3 POP POP PUSH1 0x20 PUSH2 0x72D DUP6 DUP3 DUP7 ADD PUSH2 0x646 JUMP JUMPDEST SWAP2 POP POP SWAP3 POP SWAP3 SWAP1 POP JUMP JUMPDEST PUSH1 0x0 PUSH1 0x20 DUP3 DUP5 SUB SLT ISZERO PUSH2 0x74D JUMPI PUSH2 0x74C PUSH2 0xAD1 JUMP JUMPDEST JUMPDEST PUSH1 0x0 PUSH2 0x75B DUP5 DUP3 DUP6 ADD PUSH2 0x646 JUMP JUMPDEST SWAP2 POP POP SWAP3 SWAP2 POP POP JUMP JUMPDEST PUSH2 0x76D DUP2 PUSH2 0x8DC JUMP JUMPDEST DUP3 MSTORE POP POP JUMP JUMPDEST PUSH1 0x0 PUSH2 0x77E DUP3 PUSH2 0x86A JUMP JUMPDEST PUSH2 0x788 DUP2 DUP6 PUSH2 0x875 JUMP JUMPDEST SWAP4 POP PUSH2 0x798 DUP2 DUP6 PUSH1 0x20 DUP7 ADD PUSH2 0x927 JUMP JUMPDEST PUSH2 0x7A1 DUP2 PUSH2 0xAD6 JUMP JUMPDEST DUP5 ADD SWAP2 POP POP SWAP3 SWAP2 POP POP JUMP JUMPDEST PUSH2 0x7B5 DUP2 PUSH2 0x90E JUMP JUMPDEST DUP3 MSTORE POP POP JUMP JUMPDEST PUSH1 0x0 PUSH1 0x60 DUP3 ADD SWAP1 POP PUSH2 0x7D0 PUSH1 0x0 DUP4 ADD DUP7 PUSH2 0x764 JUMP JUMPDEST DUP2 DUP2 SUB PUSH1 0x20 DUP4 ADD MSTORE PUSH2 0x7E2 DUP2 DUP6 PUSH2 0x773 JUMP JUMPDEST SWAP1 POP PUSH2 0x7F1 PUSH1 0x40 DUP4 ADD DUP5 PUSH2 0x7AC JUMP JUMPDEST SWAP5 SWAP4 POP POP POP POP JUMP JUMPDEST PUSH1 0x0 PUSH1 0x20 DUP3 ADD SWAP1 POP PUSH2 0x80E PUSH1 0x0 DUP4 ADD DUP5 PUSH2 0x7AC JUMP JUMPDEST SWAP3 SWAP2 POP POP JUMP JUMPDEST PUSH1 0x0 PUSH2 0x81E PUSH2 0x82F JUMP JUMPDEST SWAP1 POP PUSH2 0x82A DUP3 DUP3 PUSH2 0x98C JUMP JUMPDEST SWAP2 SWAP1 POP JUMP JUMPDEST PUSH1 0x0 PUSH1 0x40 MLOAD SWAP1 POP SWAP1 JUMP JUMPDEST PUSH1 0x0 PUSH8 0xFFFFFFFFFFFFFFFF DUP3 GT ISZERO PUSH2 0x854 JUMPI PUSH2 0x853 PUSH2 0xA93 JUMP JUMPDEST JUMPDEST PUSH2 0x85D DUP3 PUSH2 0xAD6 JUMP JUMPDEST SWAP1 POP PUSH1 0x20 DUP2 ADD SWAP1 POP SWAP2 SWAP1 POP JUMP JUMPDEST PUSH1 0x0 DUP2 MLOAD SWAP1 POP SWAP2 SWAP1 POP JUMP JUMPDEST PUSH1 0x0 DUP3 DUP3 MSTORE PUSH1 0x20 DUP3 ADD SWAP1 POP SWAP3 SWAP2 POP POP JUMP JUMPDEST PUSH1 0x0 PUSH2 0x891 DUP3 PUSH2 0x90E JUMP JUMPDEST SWAP2 POP PUSH2 0x89C DUP4 PUSH2 0x90E JUMP JUMPDEST SWAP3 POP DUP3 PUSH32 0xFFFFFFFFFFFFFFFFFFFFFFFFFFFFFFFFFFFFFFFFFFFFFFFFFFFFFFFFFFFFFFFF SUB DUP3 GT ISZERO PUSH2 0x8D1 JUMPI PUSH2 0x8D0 PUSH2 0xA06 JUMP JUMPDEST JUMPDEST DUP3 DUP3 ADD SWAP1 POP SWAP3 SWAP2 POP POP JUMP JUMPDEST PUSH1 0x0 PUSH2 0x8E7 DUP3 PUSH2 0x8EE JUMP JUMPDEST SWAP1 POP SWAP2 SWAP1 POP JUMP JUMPDEST PUSH1 0x0 PUSH20 0xFFFFFFFFFFFFFFFFFFFFFFFFFFFFFFFFFFFFFFFF DUP3 AND SWAP1 POP SWAP2 SWAP1 POP JUMP JUMPDEST PUSH1 0x0 DUP2 SWAP1 POP SWAP2 SWAP1 POP JUMP JUMPDEST DUP3 DUP2 DUP4 CALLDATACOPY PUSH1 0x0 DUP4 DUP4 ADD MSTORE POP POP POP JUMP JUMPDEST PUSH1 0x0 JUMPDEST DUP4 DUP2 LT ISZERO PUSH2 0x945 JUMPI DUP1 DUP3 ADD MLOAD DUP2 DUP5 ADD MSTORE PUSH1 0x20 DUP2 ADD SWAP1 POP PUSH2 0x92A JUMP JUMPDEST DUP4 DUP2 GT ISZERO PUSH2 0x954 JUMPI PUSH1 0x0 DUP5 DUP5 ADD MSTORE JUMPDEST POP POP POP POP JUMP JUMPDEST PUSH1 0x0 PUSH1 0x2 DUP3 DIV SWAP1 POP PUSH1 0x1 DUP3 AND DUP1 PUSH2 0x972 JUMPI PUSH1 0x7F DUP3 AND SWAP2 POP JUMPDEST PUSH1 0x20 DUP3 LT DUP2 EQ ISZERO PUSH2 0x986 JUMPI PUSH2 0x985 PUSH2 0xA35 JUMP JUMPDEST JUMPDEST POP SWAP2 SWAP1 POP JUMP JUMPDEST PUSH2 0x995 DUP3 PUSH2 0xAD6 JUMP JUMPDEST DUP2 ADD DUP2 DUP2 LT PUSH8 0xFFFFFFFFFFFFFFFF DUP3 GT OR ISZERO PUSH2 0x9B4 JUMPI PUSH2 0x9B3 PUSH2 0xA93 JUMP JUMPDEST JUMPDEST DUP1 PUSH1 0x40 MSTORE POP POP POP JUMP JUMPDEST PUSH1 0x0 PUSH2 0x9C8 DUP3 PUSH2 0x90E JUMP JUMPDEST SWAP2 POP PUSH32 0xFFFFFFFFFFFFFFFFFFFFFFFFFFFFFFFFFFFFFFFFFFFFFFFFFFFFFFFFFFFFFFFF DUP3 EQ ISZERO PUSH2 0x9FB JUMPI PUSH2 0x9FA PUSH2 0xA06 JUMP JUMPDEST JUMPDEST PUSH1 0x1 DUP3 ADD SWAP1 POP SWAP2 SWAP1 POP JUMP JUMPDEST PUSH32 0x4E487B7100000000000000000000000000000000000000000000000000000000 PUSH1 0x0 MSTORE PUSH1 0x11 PUSH1 0x4 MSTORE PUSH1 0x24 PUSH1 0x0 REVERT JUMPDEST PUSH32 0x4E487B7100000000000000000000000000000000000000000000000000000000 PUSH1 0x0 MSTORE PUSH1 0x22 PUSH1 0x4 MSTORE PUSH1 0x24 PUSH1 0x0 REVERT JUMPDEST PUSH32 0x4E487B7100000000000000000000000000000000000000000000000000000000 PUSH1 0x0 MSTORE PUSH1 0x32 PUSH1 0x4 MSTORE PUSH1 0x24 PUSH1 0x0 REVERT JUMPDEST PUSH32 0x4E487B7100000000000000000000000000000000000000000000000000000000 PUSH1 0x0 MSTORE PUSH1 0x41 PUSH1 0x4 MSTORE PUSH1 0x24 PUSH1 0x0 REVERT JUMPDEST PUSH1 0x0 DUP1 REVERT JUMPDEST PUSH1 0x0 DUP1 REVERT JUMPDEST PUSH1 0x0 DUP1 REVERT JUMPDEST PUSH1 0x0 DUP1 REVERT JUMPDEST PUSH1 0x0 PUSH1 0x1F NOT PUSH1 0x1F DUP4 ADD AND SWAP1 POP SWAP2 SWAP1 POP JUMP JUMPDEST PUSH2 0xAF0 DUP2 PUSH2 0x8DC JUMP JUMPDEST DUP2 EQ PUSH2 0xAFB JUMPI PUSH1 0x0 DUP1 REVERT JUMPDEST POP JUMP JUMPDEST PUSH2 0xB07 DUP2 PUSH2 0x90E JUMP JUMPDEST DUP2 EQ PUSH2 0xB12 JUMPI PUSH1 0x0 DUP1 REVERT JUMPDEST POP JUMP INVALID LOG2 PUSH5 0x6970667358 0x22 SLT KECCAK256 0x2F 0x5D 0x23 DUP10 0xA6 MSIZE 0xE 0xDB 0x2D CHAINID 0xBC LOG1 0x21 0xD5 0xDC EXTCODECOPY 0xB1 PUSH21 0xBCCDB43DB1476B7566AB950FB89064736F6C634300 ADDMOD SMOD STOP CALLER "
				},
				"gasEstimates": {
					"creation": {
						"codeDepositCost": "578200",
						"executionCost": "24879",
						"totalCost": "603079"
					},
					"external": {
						"addToInvestorMapping(address,uint256)": "694",
						"addUser(address,string,uint256)": "infinite",
						"balanceOf(address)": "infinite",
						"investors(address)": "2836",
						"transfer(address)": "infinite",
						"users(uint256)": "infinite"
					},
					"internal": {
						"transferToAddress(address)": "infinite"
					}
				},
				"methodIdentifiers": {
					"addToInvestorMapping(address,uint256)": "a73a649c",
					"addUser(address,string,uint256)": "f0384fb6",
					"balanceOf(address)": "70a08231",
					"investors(address)": "6f7bc9be",
					"transfer(address)": "1a695230",
					"users(uint256)": "365b98b2"
				}
			},
			"storageLayout": {
				"storage": [
					{
						"astId": 3,
						"contract": "contracts/Test1.sol:Test1",
						"label": "owner",
						"offset": 0,
						"slot": "0",
						"type": "t_address"
					},
					{
						"astId": 23,
						"contract": "contracts/Test1.sol:Test1",
						"label": "users",
						"offset": 0,
						"slot": "1",
						"type": "t_array(t_struct(User)19_storage)dyn_storage"
					},
					{
						"astId": 27,
						"contract": "contracts/Test1.sol:Test1",
						"label": "investors",
						"offset": 0,
						"slot": "2",
						"type": "t_mapping(t_address,t_uint256)"
					}
				],
				"types": {
					"t_address": {
						"encoding": "inplace",
						"label": "address",
						"numberOfBytes": "20"
					},
					"t_array(t_struct(User)19_storage)dyn_storage": {
						"base": "t_struct(User)19_storage",
						"encoding": "dynamic_array",
						"label": "struct Test1.User[]",
						"numberOfBytes": "32"
					},
					"t_mapping(t_address,t_uint256)": {
						"encoding": "mapping",
						"key": "t_address",
						"label": "mapping(address => uint256)",
						"numberOfBytes": "32",
						"value": "t_uint256"
					},
					"t_string_storage": {
						"encoding": "bytes",
						"label": "string",
						"numberOfBytes": "32"
					},
					"t_struct(User)19_storage": {
						"encoding": "inplace",
						"label": "struct Test1.User",
						"members": [
							{
								"astId": 14,
								"contract": "contracts/Test1.sol:Test1",
								"label": "walletAddress",
								"offset": 0,
								"slot": "0",
								"type": "t_address"
							},
							{
								"astId": 16,
								"contract": "contracts/Test1.sol:Test1",
								"label": "name",
								"offset": 0,
								"slot": "1",
								"type": "t_string_storage"
							},
							{
								"astId": 18,
								"contract": "contracts/Test1.sol:Test1",
								"label": "amount",
								"offset": 0,
								"slot": "2",
								"type": "t_uint256"
							}
						],
						"numberOfBytes": "96"
					},
					"t_uint256": {
						"encoding": "inplace",
						"label": "uint256",
						"numberOfBytes": "32"
					}
				}
			},
			"userdoc": {
				"kind": "user",
				"methods": {},
				"version": 1
			}
		}
	}
}