{
	"contracts/Test1.sol": {
		"Test1": {
			"abi": [
				{
					"inputs": [],
					"stateMutability": "nonpayable",
					"type": "constructor"
				},
				{
					"inputs": [
						{
							"internalType": "address",
							"name": "walletAddress",
							"type": "address"
						}
					],
					"name": "addToInvestors",
					"outputs": [],
					"stateMutability": "nonpayable",
					"type": "function"
				},
				{
					"inputs": [
						{
							"internalType": "address",
							"name": "walletAddress",
							"type": "address"
						},
						{
							"internalType": "string",
							"name": "name",
							"type": "string"
						},
						{
							"internalType": "uint256",
							"name": "amount",
							"type": "uint256"
						},
						{
							"internalType": "bool",
							"name": "isInvestor",
							"type": "bool"
						}
					],
					"name": "addUser",
					"outputs": [],
					"stateMutability": "nonpayable",
					"type": "function"
				},
				{
					"inputs": [
						{
							"internalType": "address",
							"name": "walletAddress",
							"type": "address"
						}
					],
					"name": "balanceOf",
					"outputs": [
						{
							"internalType": "uint256",
							"name": "",
							"type": "uint256"
						}
					],
					"stateMutability": "view",
					"type": "function"
				},
				{
					"inputs": [
						{
							"internalType": "address",
							"name": "walletAddress",
							"type": "address"
						}
					],
					"name": "getUserByAddress",
					"outputs": [
						{
							"components": [
								{
									"internalType": "address",
									"name": "walletAddress",
									"type": "address"
								},
								{
									"internalType": "string",
									"name": "name",
									"type": "string"
								},
								{
									"internalType": "uint256",
									"name": "amount",
									"type": "uint256"
								},
								{
									"internalType": "bool",
									"name": "isInvestor",
									"type": "bool"
								}
							],
							"internalType": "struct Test1.User",
							"name": "user",
							"type": "tuple"
						}
					],
					"stateMutability": "view",
					"type": "function"
				},
				{
					"inputs": [
						{
							"internalType": "address",
							"name": "walletAddress",
							"type": "address"
						}
					],
					"name": "investorPermission",
					"outputs": [
						{
							"internalType": "bool",
							"name": "",
							"type": "bool"
						}
					],
					"stateMutability": "view",
					"type": "function"
				},
				{
					"inputs": [
						{
							"internalType": "address",
							"name": "",
							"type": "address"
						}
					],
					"name": "investors",
					"outputs": [
						{
							"internalType": "address",
							"name": "walletAddress",
							"type": "address"
						},
						{
							"internalType": "string",
							"name": "name",
							"type": "string"
						},
						{
							"internalType": "uint256",
							"name": "amount",
							"type": "uint256"
						},
						{
							"internalType": "bool",
							"name": "isInvestor",
							"type": "bool"
						}
					],
					"stateMutability": "view",
					"type": "function"
				},
				{
					"inputs": [
						{
							"internalType": "address",
							"name": "walletAddress",
							"type": "address"
						}
					],
					"name": "transfer",
					"outputs": [],
					"stateMutability": "payable",
					"type": "function"
				},
				{
					"inputs": [
						{
							"internalType": "uint256",
							"name": "",
							"type": "uint256"
						}
					],
					"name": "users",
					"outputs": [
						{
							"internalType": "address",
							"name": "walletAddress",
							"type": "address"
						},
						{
							"internalType": "string",
							"name": "name",
							"type": "string"
						},
						{
							"internalType": "uint256",
							"name": "amount",
							"type": "uint256"
						},
						{
							"internalType": "bool",
							"name": "isInvestor",
							"type": "bool"
						}
					],
					"stateMutability": "view",
					"type": "function"
				}
			],
			"devdoc": {
				"kind": "dev",
				"methods": {},
				"version": 1
			},
			"evm": {
				"assembly": "    /* \"contracts/Test1.sol\":65:2230  contract Test1{... */\n  mstore(0x40, 0x80)\n    /* \"contracts/Test1.sol\":106:154  constructor(){... */\n  callvalue\n  dup1\n  iszero\n  tag_1\n  jumpi\n  0x00\n  dup1\n  revert\ntag_1:\n  pop\n    /* \"contracts/Test1.sol\":137:147  msg.sender */\n  caller\n    /* \"contracts/Test1.sol\":129:134  owner */\n  0x00\n  dup1\n    /* \"contracts/Test1.sol\":129:147  owner = msg.sender */\n  0x0100\n  exp\n  dup2\n  sload\n  dup2\n  0xffffffffffffffffffffffffffffffffffffffff\n  mul\n  not\n  and\n  swap1\n  dup4\n  0xffffffffffffffffffffffffffffffffffffffff\n  and\n  mul\n  or\n  swap1\n  sstore\n  pop\n    /* \"contracts/Test1.sol\":65:2230  contract Test1{... */\n  dataSize(sub_0)\n  dup1\n  dataOffset(sub_0)\n  0x00\n  codecopy\n  0x00\n  return\nstop\n\nsub_0: assembly {\n        /* \"contracts/Test1.sol\":65:2230  contract Test1{... */\n      mstore(0x40, 0x80)\n      jumpi(tag_1, lt(calldatasize, 0x04))\n      shr(0xe0, calldataload(0x00))\n      dup1\n      0x69c212f6\n      gt\n      tag_10\n      jumpi\n      dup1\n      0x69c212f6\n      eq\n      tag_6\n      jumpi\n      dup1\n      0x6f7bc9be\n      eq\n      tag_7\n      jumpi\n      dup1\n      0x70a08231\n      eq\n      tag_8\n      jumpi\n      dup1\n      0xd7bed4bc\n      eq\n      tag_9\n      jumpi\n      jump(tag_1)\n    tag_10:\n      dup1\n      0x1a695230\n      eq\n      tag_2\n      jumpi\n      dup1\n      0x280879e7\n      eq\n      tag_3\n      jumpi\n      dup1\n      0x365b98b2\n      eq\n      tag_4\n      jumpi\n      dup1\n      0x4140eb0d\n      eq\n      tag_5\n      jumpi\n    tag_1:\n      0x00\n      dup1\n      revert\n        /* \"contracts/Test1.sol\":1604:1709  function transfer(address walletAddress) payable public {... */\n    tag_2:\n      tag_11\n      0x04\n      dup1\n      calldatasize\n      sub\n      dup2\n      add\n      swap1\n      tag_12\n      swap2\n      swap1\n      tag_13\n      jump\t// in\n    tag_12:\n      tag_14\n      jump\t// in\n    tag_11:\n      stop\n        /* \"contracts/Test1.sol\":691:862  function addUser(address walletAddress, string memory name, uint amount, bool isInvestor) public {... */\n    tag_3:\n      callvalue\n      dup1\n      iszero\n      tag_15\n      jumpi\n      0x00\n      dup1\n      revert\n    tag_15:\n      pop\n      tag_16\n      0x04\n      dup1\n      calldatasize\n      sub\n      dup2\n      add\n      swap1\n      tag_17\n      swap2\n      swap1\n      tag_18\n      jump\t// in\n    tag_17:\n      tag_19\n      jump\t// in\n    tag_16:\n      stop\n        /* \"contracts/Test1.sol\":618:637  User[] public users */\n    tag_4:\n      callvalue\n      dup1\n      iszero\n      tag_20\n      jumpi\n      0x00\n      dup1\n      revert\n    tag_20:\n      pop\n      tag_21\n      0x04\n      dup1\n      calldatasize\n      sub\n      dup2\n      add\n      swap1\n      tag_22\n      swap2\n      swap1\n      tag_23\n      jump\t// in\n    tag_22:\n      tag_24\n      jump\t// in\n    tag_21:\n      mload(0x40)\n      tag_25\n      swap5\n      swap4\n      swap3\n      swap2\n      swap1\n      tag_26\n      jump\t// in\n    tag_25:\n      mload(0x40)\n      dup1\n      swap2\n      sub\n      swap1\n      return\n        /* \"contracts/Test1.sol\":1423:1598  function investorPermission(address walletAddress) public view returns(bool){... */\n    tag_5:\n      callvalue\n      dup1\n      iszero\n      tag_27\n      jumpi\n      0x00\n      dup1\n      revert\n    tag_27:\n      pop\n      tag_28\n      0x04\n      dup1\n      calldatasize\n      sub\n      dup2\n      add\n      swap1\n      tag_29\n      swap2\n      swap1\n      tag_13\n      jump\t// in\n    tag_29:\n      tag_30\n      jump\t// in\n    tag_28:\n      mload(0x40)\n      tag_31\n      swap2\n      swap1\n      tag_32\n      jump\t// in\n    tag_31:\n      mload(0x40)\n      dup1\n      swap2\n      sub\n      swap1\n      return\n        /* \"contracts/Test1.sol\":1075:1417  function getUserByAddress(address walletAddress) public view returns(User memory user){... */\n    tag_6:\n      callvalue\n      dup1\n      iszero\n      tag_33\n      jumpi\n      0x00\n      dup1\n      revert\n    tag_33:\n      pop\n      tag_34\n      0x04\n      dup1\n      calldatasize\n      sub\n      dup2\n      add\n      swap1\n      tag_35\n      swap2\n      swap1\n      tag_13\n      jump\t// in\n    tag_35:\n      tag_36\n      jump\t// in\n    tag_34:\n      mload(0x40)\n      tag_37\n      swap2\n      swap1\n      tag_38\n      jump\t// in\n    tag_37:\n      mload(0x40)\n      dup1\n      swap2\n      sub\n      swap1\n      return\n        /* \"contracts/Test1.sol\":643:684  mapping(address => User) public investors */\n    tag_7:\n      callvalue\n      dup1\n      iszero\n      tag_39\n      jumpi\n      0x00\n      dup1\n      revert\n    tag_39:\n      pop\n      tag_40\n      0x04\n      dup1\n      calldatasize\n      sub\n      dup2\n      add\n      swap1\n      tag_41\n      swap2\n      swap1\n      tag_13\n      jump\t// in\n    tag_41:\n      tag_42\n      jump\t// in\n    tag_40:\n      mload(0x40)\n      tag_43\n      swap5\n      swap4\n      swap3\n      swap2\n      swap1\n      tag_26\n      jump\t// in\n    tag_43:\n      mload(0x40)\n      dup1\n      swap2\n      sub\n      swap1\n      return\n        /* \"contracts/Test1.sol\":1961:2224  function balanceOf(address walletAddress) public view returns(uint){... */\n    tag_8:\n      callvalue\n      dup1\n      iszero\n      tag_44\n      jumpi\n      0x00\n      dup1\n      revert\n    tag_44:\n      pop\n      tag_45\n      0x04\n      dup1\n      calldatasize\n      sub\n      dup2\n      add\n      swap1\n      tag_46\n      swap2\n      swap1\n      tag_13\n      jump\t// in\n    tag_46:\n      tag_47\n      jump\t// in\n    tag_45:\n      mload(0x40)\n      tag_48\n      swap2\n      swap1\n      tag_49\n      jump\t// in\n    tag_48:\n      mload(0x40)\n      dup1\n      swap2\n      sub\n      swap1\n      return\n        /* \"contracts/Test1.sol\":872:1069  function addToInvestors(address walletAddress) public {... */\n    tag_9:\n      callvalue\n      dup1\n      iszero\n      tag_50\n      jumpi\n      0x00\n      dup1\n      revert\n    tag_50:\n      pop\n      tag_51\n      0x04\n      dup1\n      calldatasize\n      sub\n      dup2\n      add\n      swap1\n      tag_52\n      swap2\n      swap1\n      tag_13\n      jump\t// in\n    tag_52:\n      tag_53\n      jump\t// in\n    tag_51:\n      stop\n        /* \"contracts/Test1.sol\":1604:1709  function transfer(address walletAddress) payable public {... */\n    tag_14:\n        /* \"contracts/Test1.sol\":1670:1702  transferToAddress(walletAddress) */\n      tag_55\n        /* \"contracts/Test1.sol\":1688:1701  walletAddress */\n      dup2\n        /* \"contracts/Test1.sol\":1670:1687  transferToAddress */\n      tag_56\n        /* \"contracts/Test1.sol\":1670:1702  transferToAddress(walletAddress) */\n      jump\t// in\n    tag_55:\n        /* \"contracts/Test1.sol\":1604:1709  function transfer(address walletAddress) payable public {... */\n      pop\n      jump\t// out\n        /* \"contracts/Test1.sol\":691:862  function addUser(address walletAddress, string memory name, uint amount, bool isInvestor) public {... */\n    tag_19:\n        /* \"contracts/Test1.sol\":798:803  users */\n      0x01\n        /* \"contracts/Test1.sol\":809:854  User(walletAddress, name, amount, isInvestor) */\n      mload(0x40)\n      dup1\n      0x80\n      add\n      0x40\n      mstore\n      dup1\n        /* \"contracts/Test1.sol\":814:827  walletAddress */\n      dup7\n        /* \"contracts/Test1.sol\":809:854  User(walletAddress, name, amount, isInvestor) */\n      0xffffffffffffffffffffffffffffffffffffffff\n      and\n      dup2\n      mstore\n      0x20\n      add\n        /* \"contracts/Test1.sol\":829:833  name */\n      dup6\n        /* \"contracts/Test1.sol\":809:854  User(walletAddress, name, amount, isInvestor) */\n      dup2\n      mstore\n      0x20\n      add\n        /* \"contracts/Test1.sol\":835:841  amount */\n      dup5\n        /* \"contracts/Test1.sol\":809:854  User(walletAddress, name, amount, isInvestor) */\n      dup2\n      mstore\n      0x20\n      add\n        /* \"contracts/Test1.sol\":843:853  isInvestor */\n      dup4\n        /* \"contracts/Test1.sol\":809:854  User(walletAddress, name, amount, isInvestor) */\n      iszero\n      iszero\n      dup2\n      mstore\n      pop\n        /* \"contracts/Test1.sol\":798:855  users.push(User(walletAddress, name, amount, isInvestor)) */\n      swap1\n      dup1\n      0x01\n      dup2\n      sload\n      add\n      dup1\n      dup3\n      sstore\n      dup1\n      swap2\n      pop\n      pop\n      0x01\n      swap1\n      sub\n      swap1\n      0x00\n      mstore\n      keccak256(0x00, 0x20)\n      swap1\n      0x04\n      mul\n      add\n      0x00\n      swap1\n      swap2\n      swap1\n      swap2\n      swap1\n      swap2\n      pop\n      0x00\n      dup3\n      add\n      mload\n      dup2\n      0x00\n      add\n      exp(0x0100, 0x00)\n      dup2\n      sload\n      dup2\n      0xffffffffffffffffffffffffffffffffffffffff\n      mul\n      not\n      and\n      swap1\n      dup4\n      0xffffffffffffffffffffffffffffffffffffffff\n      and\n      mul\n      or\n      swap1\n      sstore\n      pop\n      0x20\n      dup3\n      add\n      mload\n      dup2\n      0x01\n      add\n      swap1\n      dup1\n      mload\n      swap1\n      0x20\n      add\n      swap1\n      tag_59\n      swap3\n      swap2\n      swap1\n      tag_60\n      jump\t// in\n    tag_59:\n      pop\n      0x40\n      dup3\n      add\n      mload\n      dup2\n      0x02\n      add\n      sstore\n      0x60\n      dup3\n      add\n      mload\n      dup2\n      0x03\n      add\n      exp(0x0100, 0x00)\n      dup2\n      sload\n      dup2\n      0xff\n      mul\n      not\n      and\n      swap1\n      dup4\n      iszero\n      iszero\n      mul\n      or\n      swap1\n      sstore\n      pop\n      pop\n      pop\n        /* \"contracts/Test1.sol\":691:862  function addUser(address walletAddress, string memory name, uint amount, bool isInvestor) public {... */\n      pop\n      pop\n      pop\n      pop\n      jump\t// out\n        /* \"contracts/Test1.sol\":618:637  User[] public users */\n    tag_24:\n      0x01\n      dup2\n      dup2\n      sload\n      dup2\n      lt\n      tag_61\n      jumpi\n      0x00\n      dup1\n      revert\n    tag_61:\n      swap1\n      0x00\n      mstore\n      keccak256(0x00, 0x20)\n      swap1\n      0x04\n      mul\n      add\n      0x00\n      swap2\n      pop\n      swap1\n      pop\n      dup1\n      0x00\n      add\n      0x00\n      swap1\n      sload\n      swap1\n      0x0100\n      exp\n      swap1\n      div\n      0xffffffffffffffffffffffffffffffffffffffff\n      and\n      swap1\n      dup1\n      0x01\n      add\n      dup1\n      sload\n      tag_63\n      swap1\n      tag_64\n      jump\t// in\n    tag_63:\n      dup1\n      0x1f\n      add\n      0x20\n      dup1\n      swap2\n      div\n      mul\n      0x20\n      add\n      mload(0x40)\n      swap1\n      dup2\n      add\n      0x40\n      mstore\n      dup1\n      swap3\n      swap2\n      swap1\n      dup2\n      dup2\n      mstore\n      0x20\n      add\n      dup3\n      dup1\n      sload\n      tag_65\n      swap1\n      tag_64\n      jump\t// in\n    tag_65:\n      dup1\n      iszero\n      tag_66\n      jumpi\n      dup1\n      0x1f\n      lt\n      tag_67\n      jumpi\n      0x0100\n      dup1\n      dup4\n      sload\n      div\n      mul\n      dup4\n      mstore\n      swap2\n      0x20\n      add\n      swap2\n      jump(tag_66)\n    tag_67:\n      dup3\n      add\n      swap2\n      swap1\n      0x00\n      mstore\n      keccak256(0x00, 0x20)\n      swap1\n    tag_68:\n      dup2\n      sload\n      dup2\n      mstore\n      swap1\n      0x01\n      add\n      swap1\n      0x20\n      add\n      dup1\n      dup4\n      gt\n      tag_68\n      jumpi\n      dup3\n      swap1\n      sub\n      0x1f\n      and\n      dup3\n      add\n      swap2\n    tag_66:\n      pop\n      pop\n      pop\n      pop\n      pop\n      swap1\n      dup1\n      0x02\n      add\n      sload\n      swap1\n      dup1\n      0x03\n      add\n      0x00\n      swap1\n      sload\n      swap1\n      0x0100\n      exp\n      swap1\n      div\n      0xff\n      and\n      swap1\n      pop\n      dup5\n      jump\t// out\n        /* \"contracts/Test1.sol\":1423:1598  function investorPermission(address walletAddress) public view returns(bool){... */\n    tag_30:\n        /* \"contracts/Test1.sol\":1494:1498  bool */\n      0x00\n        /* \"contracts/Test1.sol\":1509:1525  User memory user */\n      dup1\n        /* \"contracts/Test1.sol\":1528:1559  getUserByAddress(walletAddress) */\n      tag_70\n        /* \"contracts/Test1.sol\":1545:1558  walletAddress */\n      dup4\n        /* \"contracts/Test1.sol\":1528:1544  getUserByAddress */\n      tag_36\n        /* \"contracts/Test1.sol\":1528:1559  getUserByAddress(walletAddress) */\n      jump\t// in\n    tag_70:\n        /* \"contracts/Test1.sol\":1509:1559  User memory user = getUserByAddress(walletAddress) */\n      swap1\n      pop\n        /* \"contracts/Test1.sol\":1576:1580  user */\n      dup1\n        /* \"contracts/Test1.sol\":1576:1591  user.isInvestor */\n      0x60\n      add\n      mload\n        /* \"contracts/Test1.sol\":1569:1591  return user.isInvestor */\n      swap2\n      pop\n      pop\n        /* \"contracts/Test1.sol\":1423:1598  function investorPermission(address walletAddress) public view returns(bool){... */\n      swap2\n      swap1\n      pop\n      jump\t// out\n        /* \"contracts/Test1.sol\":1075:1417  function getUserByAddress(address walletAddress) public view returns(User memory user){... */\n    tag_36:\n        /* \"contracts/Test1.sol\":1144:1160  User memory user */\n      tag_71\n      tag_72\n      jump\t// in\n    tag_71:\n        /* \"contracts/Test1.sol\":1175:1181  uint i */\n      0x00\n        /* \"contracts/Test1.sol\":1171:1369  for(uint i = 0; i < users.length; i++){... */\n    tag_74:\n        /* \"contracts/Test1.sol\":1191:1196  users */\n      0x01\n        /* \"contracts/Test1.sol\":1191:1203  users.length */\n      dup1\n      sload\n      swap1\n      pop\n        /* \"contracts/Test1.sol\":1187:1188  i */\n      dup2\n        /* \"contracts/Test1.sol\":1187:1203  i < users.length */\n      lt\n        /* \"contracts/Test1.sol\":1171:1369  for(uint i = 0; i < users.length; i++){... */\n      iszero\n      tag_75\n      jumpi\n        /* \"contracts/Test1.sol\":1252:1265  walletAddress */\n      dup3\n        /* \"contracts/Test1.sol\":1226:1265  users[i].walletAddress == walletAddress */\n      0xffffffffffffffffffffffffffffffffffffffff\n      and\n        /* \"contracts/Test1.sol\":1226:1231  users */\n      0x01\n        /* \"contracts/Test1.sol\":1232:1233  i */\n      dup3\n        /* \"contracts/Test1.sol\":1226:1234  users[i] */\n      dup2\n      sload\n      dup2\n      lt\n      tag_77\n      jumpi\n      tag_78\n      tag_79\n      jump\t// in\n    tag_78:\n    tag_77:\n      swap1\n      0x00\n      mstore\n      keccak256(0x00, 0x20)\n      swap1\n      0x04\n      mul\n      add\n        /* \"contracts/Test1.sol\":1226:1248  users[i].walletAddress */\n      0x00\n      add\n      0x00\n      swap1\n      sload\n      swap1\n      0x0100\n      exp\n      swap1\n      div\n      0xffffffffffffffffffffffffffffffffffffffff\n      and\n        /* \"contracts/Test1.sol\":1226:1265  users[i].walletAddress == walletAddress */\n      0xffffffffffffffffffffffffffffffffffffffff\n      and\n      eq\n        /* \"contracts/Test1.sol\":1223:1359  if(users[i].walletAddress == walletAddress){... */\n      iszero\n      tag_81\n      jumpi\n        /* \"contracts/Test1.sol\":1307:1311  true */\n      0x01\n        /* \"contracts/Test1.sol\":1284:1311  users[i].isInvestor == true */\n      iszero\n      iszero\n        /* \"contracts/Test1.sol\":1284:1289  users */\n      0x01\n        /* \"contracts/Test1.sol\":1290:1291  i */\n      dup3\n        /* \"contracts/Test1.sol\":1284:1292  users[i] */\n      dup2\n      sload\n      dup2\n      lt\n      tag_82\n      jumpi\n      tag_83\n      tag_79\n      jump\t// in\n    tag_83:\n    tag_82:\n      swap1\n      0x00\n      mstore\n      keccak256(0x00, 0x20)\n      swap1\n      0x04\n      mul\n      add\n        /* \"contracts/Test1.sol\":1284:1303  users[i].isInvestor */\n      0x03\n      add\n      0x00\n      swap1\n      sload\n      swap1\n      0x0100\n      exp\n      swap1\n      pop\n      pop\n        /* \"contracts/Test1.sol\":1284:1311  users[i].isInvestor == true */\n      pop\n        /* \"contracts/Test1.sol\":1336:1341  users */\n      0x01\n        /* \"contracts/Test1.sol\":1342:1343  i */\n      dup2\n        /* \"contracts/Test1.sol\":1336:1344  users[i] */\n      dup2\n      sload\n      dup2\n      lt\n      tag_85\n      jumpi\n      tag_86\n      tag_79\n      jump\t// in\n    tag_86:\n    tag_85:\n      swap1\n      0x00\n      mstore\n      keccak256(0x00, 0x20)\n      swap1\n      0x04\n      mul\n      add\n        /* \"contracts/Test1.sol\":1329:1344  return users[i] */\n      mload(0x40)\n      dup1\n      0x80\n      add\n      0x40\n      mstore\n      swap1\n      dup2\n      0x00\n      dup3\n      add\n      0x00\n      swap1\n      sload\n      swap1\n      0x0100\n      exp\n      swap1\n      div\n      0xffffffffffffffffffffffffffffffffffffffff\n      and\n      0xffffffffffffffffffffffffffffffffffffffff\n      and\n      0xffffffffffffffffffffffffffffffffffffffff\n      and\n      dup2\n      mstore\n      0x20\n      add\n      0x01\n      dup3\n      add\n      dup1\n      sload\n      tag_88\n      swap1\n      tag_64\n      jump\t// in\n    tag_88:\n      dup1\n      0x1f\n      add\n      0x20\n      dup1\n      swap2\n      div\n      mul\n      0x20\n      add\n      mload(0x40)\n      swap1\n      dup2\n      add\n      0x40\n      mstore\n      dup1\n      swap3\n      swap2\n      swap1\n      dup2\n      dup2\n      mstore\n      0x20\n      add\n      dup3\n      dup1\n      sload\n      tag_89\n      swap1\n      tag_64\n      jump\t// in\n    tag_89:\n      dup1\n      iszero\n      tag_90\n      jumpi\n      dup1\n      0x1f\n      lt\n      tag_91\n      jumpi\n      0x0100\n      dup1\n      dup4\n      sload\n      div\n      mul\n      dup4\n      mstore\n      swap2\n      0x20\n      add\n      swap2\n      jump(tag_90)\n    tag_91:\n      dup3\n      add\n      swap2\n      swap1\n      0x00\n      mstore\n      keccak256(0x00, 0x20)\n      swap1\n    tag_92:\n      dup2\n      sload\n      dup2\n      mstore\n      swap1\n      0x01\n      add\n      swap1\n      0x20\n      add\n      dup1\n      dup4\n      gt\n      tag_92\n      jumpi\n      dup3\n      swap1\n      sub\n      0x1f\n      and\n      dup3\n      add\n      swap2\n    tag_90:\n      pop\n      pop\n      pop\n      pop\n      pop\n      dup2\n      mstore\n      0x20\n      add\n      0x02\n      dup3\n      add\n      sload\n      dup2\n      mstore\n      0x20\n      add\n      0x03\n      dup3\n      add\n      0x00\n      swap1\n      sload\n      swap1\n      0x0100\n      exp\n      swap1\n      div\n      0xff\n      and\n      iszero\n      iszero\n      iszero\n      iszero\n      dup2\n      mstore\n      pop\n      pop\n      swap2\n      pop\n      pop\n      jump(tag_73)\n        /* \"contracts/Test1.sol\":1223:1359  if(users[i].walletAddress == walletAddress){... */\n    tag_81:\n        /* \"contracts/Test1.sol\":1205:1208  i++ */\n      dup1\n      dup1\n      tag_93\n      swap1\n      tag_94\n      jump\t// in\n    tag_93:\n      swap2\n      pop\n      pop\n        /* \"contracts/Test1.sol\":1171:1369  for(uint i = 0; i < users.length; i++){... */\n      jump(tag_74)\n    tag_75:\n      pop\n        /* \"contracts/Test1.sol\":1378:1410  revert(\"Invalid Wallet Address\") */\n      mload(0x40)\n      0x08c379a000000000000000000000000000000000000000000000000000000000\n      dup2\n      mstore\n      0x04\n      add\n      tag_95\n      swap1\n      tag_96\n      jump\t// in\n    tag_95:\n      mload(0x40)\n      dup1\n      swap2\n      sub\n      swap1\n      revert\n        /* \"contracts/Test1.sol\":1075:1417  function getUserByAddress(address walletAddress) public view returns(User memory user){... */\n    tag_73:\n      swap2\n      swap1\n      pop\n      jump\t// out\n        /* \"contracts/Test1.sol\":643:684  mapping(address => User) public investors */\n    tag_42:\n      mstore(0x20, 0x02)\n      dup1\n      0x00\n      mstore\n      keccak256(0x00, 0x40)\n      0x00\n      swap2\n      pop\n      swap1\n      pop\n      dup1\n      0x00\n      add\n      0x00\n      swap1\n      sload\n      swap1\n      0x0100\n      exp\n      swap1\n      div\n      0xffffffffffffffffffffffffffffffffffffffff\n      and\n      swap1\n      dup1\n      0x01\n      add\n      dup1\n      sload\n      tag_97\n      swap1\n      tag_64\n      jump\t// in\n    tag_97:\n      dup1\n      0x1f\n      add\n      0x20\n      dup1\n      swap2\n      div\n      mul\n      0x20\n      add\n      mload(0x40)\n      swap1\n      dup2\n      add\n      0x40\n      mstore\n      dup1\n      swap3\n      swap2\n      swap1\n      dup2\n      dup2\n      mstore\n      0x20\n      add\n      dup3\n      dup1\n      sload\n      tag_98\n      swap1\n      tag_64\n      jump\t// in\n    tag_98:\n      dup1\n      iszero\n      tag_99\n      jumpi\n      dup1\n      0x1f\n      lt\n      tag_100\n      jumpi\n      0x0100\n      dup1\n      dup4\n      sload\n      div\n      mul\n      dup4\n      mstore\n      swap2\n      0x20\n      add\n      swap2\n      jump(tag_99)\n    tag_100:\n      dup3\n      add\n      swap2\n      swap1\n      0x00\n      mstore\n      keccak256(0x00, 0x20)\n      swap1\n    tag_101:\n      dup2\n      sload\n      dup2\n      mstore\n      swap1\n      0x01\n      add\n      swap1\n      0x20\n      add\n      dup1\n      dup4\n      gt\n      tag_101\n      jumpi\n      dup3\n      swap1\n      sub\n      0x1f\n      and\n      dup3\n      add\n      swap2\n    tag_99:\n      pop\n      pop\n      pop\n      pop\n      pop\n      swap1\n      dup1\n      0x02\n      add\n      sload\n      swap1\n      dup1\n      0x03\n      add\n      0x00\n      swap1\n      sload\n      swap1\n      0x0100\n      exp\n      swap1\n      div\n      0xff\n      and\n      swap1\n      pop\n      dup5\n      jump\t// out\n        /* \"contracts/Test1.sol\":1961:2224  function balanceOf(address walletAddress) public view returns(uint){... */\n    tag_47:\n        /* \"contracts/Test1.sol\":2023:2027  uint */\n      0x00\n        /* \"contracts/Test1.sol\":2042:2048  uint i */\n      dup1\n        /* \"contracts/Test1.sol\":2051:2052  0 */\n      0x00\n        /* \"contracts/Test1.sol\":2042:2052  uint i = 0 */\n      swap1\n      pop\n        /* \"contracts/Test1.sol\":2038:2198  for(uint i = 0; i < users.length; i++){... */\n    tag_103:\n        /* \"contracts/Test1.sol\":2058:2063  users */\n      0x01\n        /* \"contracts/Test1.sol\":2058:2070  users.length */\n      dup1\n      sload\n      swap1\n      pop\n        /* \"contracts/Test1.sol\":2054:2055  i */\n      dup2\n        /* \"contracts/Test1.sol\":2054:2070  i < users.length */\n      lt\n        /* \"contracts/Test1.sol\":2038:2198  for(uint i = 0; i < users.length; i++){... */\n      iszero\n      tag_104\n      jumpi\n        /* \"contracts/Test1.sol\":2119:2132  walletAddress */\n      dup3\n        /* \"contracts/Test1.sol\":2093:2132  users[i].walletAddress == walletAddress */\n      0xffffffffffffffffffffffffffffffffffffffff\n      and\n        /* \"contracts/Test1.sol\":2093:2098  users */\n      0x01\n        /* \"contracts/Test1.sol\":2099:2100  i */\n      dup3\n        /* \"contracts/Test1.sol\":2093:2101  users[i] */\n      dup2\n      sload\n      dup2\n      lt\n      tag_106\n      jumpi\n      tag_107\n      tag_79\n      jump\t// in\n    tag_107:\n    tag_106:\n      swap1\n      0x00\n      mstore\n      keccak256(0x00, 0x20)\n      swap1\n      0x04\n      mul\n      add\n        /* \"contracts/Test1.sol\":2093:2115  users[i].walletAddress */\n      0x00\n      add\n      0x00\n      swap1\n      sload\n      swap1\n      0x0100\n      exp\n      swap1\n      div\n      0xffffffffffffffffffffffffffffffffffffffff\n      and\n        /* \"contracts/Test1.sol\":2093:2132  users[i].walletAddress == walletAddress */\n      0xffffffffffffffffffffffffffffffffffffffff\n      and\n      eq\n        /* \"contracts/Test1.sol\":2090:2188  if(users[i].walletAddress == walletAddress){... */\n      iszero\n      tag_109\n      jumpi\n        /* \"contracts/Test1.sol\":2158:2163  users */\n      0x01\n        /* \"contracts/Test1.sol\":2164:2165  i */\n      dup2\n        /* \"contracts/Test1.sol\":2158:2166  users[i] */\n      dup2\n      sload\n      dup2\n      lt\n      tag_110\n      jumpi\n      tag_111\n      tag_79\n      jump\t// in\n    tag_111:\n    tag_110:\n      swap1\n      0x00\n      mstore\n      keccak256(0x00, 0x20)\n      swap1\n      0x04\n      mul\n      add\n        /* \"contracts/Test1.sol\":2158:2173  users[i].amount */\n      0x02\n      add\n      sload\n        /* \"contracts/Test1.sol\":2151:2173  return users[i].amount */\n      swap2\n      pop\n      pop\n      jump(tag_102)\n        /* \"contracts/Test1.sol\":2090:2188  if(users[i].walletAddress == walletAddress){... */\n    tag_109:\n        /* \"contracts/Test1.sol\":2072:2075  i++ */\n      dup1\n      dup1\n      tag_113\n      swap1\n      tag_94\n      jump\t// in\n    tag_113:\n      swap2\n      pop\n      pop\n        /* \"contracts/Test1.sol\":2038:2198  for(uint i = 0; i < users.length; i++){... */\n      jump(tag_103)\n    tag_104:\n      pop\n        /* \"contracts/Test1.sol\":2214:2217  999 */\n      0x03e7\n        /* \"contracts/Test1.sol\":2207:2217  return 999 */\n      swap1\n      pop\n        /* \"contracts/Test1.sol\":1961:2224  function balanceOf(address walletAddress) public view returns(uint){... */\n    tag_102:\n      swap2\n      swap1\n      pop\n      jump\t// out\n        /* \"contracts/Test1.sol\":872:1069  function addToInvestors(address walletAddress) public {... */\n    tag_53:\n        /* \"contracts/Test1.sol\":936:952  User memory user */\n      0x00\n        /* \"contracts/Test1.sol\":955:986  getUserByAddress(walletAddress) */\n      tag_115\n        /* \"contracts/Test1.sol\":972:985  walletAddress */\n      dup3\n        /* \"contracts/Test1.sol\":955:971  getUserByAddress */\n      tag_36\n        /* \"contracts/Test1.sol\":955:986  getUserByAddress(walletAddress) */\n      jump\t// in\n    tag_115:\n        /* \"contracts/Test1.sol\":936:986  User memory user = getUserByAddress(walletAddress) */\n      swap1\n      pop\n        /* \"contracts/Test1.sol\":1058:1062  user */\n      dup1\n        /* \"contracts/Test1.sol\":1031:1040  investors */\n      0x02\n        /* \"contracts/Test1.sol\":1031:1055  investors[walletAddress] */\n      0x00\n        /* \"contracts/Test1.sol\":1041:1054  walletAddress */\n      dup5\n        /* \"contracts/Test1.sol\":1031:1055  investors[walletAddress] */\n      0xffffffffffffffffffffffffffffffffffffffff\n      and\n      0xffffffffffffffffffffffffffffffffffffffff\n      and\n      dup2\n      mstore\n      0x20\n      add\n      swap1\n      dup2\n      mstore\n      0x20\n      add\n      0x00\n      keccak256\n        /* \"contracts/Test1.sol\":1031:1062  investors[walletAddress] = user */\n      0x00\n      dup3\n      add\n      mload\n      dup2\n      0x00\n      add\n      exp(0x0100, 0x00)\n      dup2\n      sload\n      dup2\n      0xffffffffffffffffffffffffffffffffffffffff\n      mul\n      not\n      and\n      swap1\n      dup4\n      0xffffffffffffffffffffffffffffffffffffffff\n      and\n      mul\n      or\n      swap1\n      sstore\n      pop\n      0x20\n      dup3\n      add\n      mload\n      dup2\n      0x01\n      add\n      swap1\n      dup1\n      mload\n      swap1\n      0x20\n      add\n      swap1\n      tag_116\n      swap3\n      swap2\n      swap1\n      tag_60\n      jump\t// in\n    tag_116:\n      pop\n      0x40\n      dup3\n      add\n      mload\n      dup2\n      0x02\n      add\n      sstore\n      0x60\n      dup3\n      add\n      mload\n      dup2\n      0x03\n      add\n      exp(0x0100, 0x00)\n      dup2\n      sload\n      dup2\n      0xff\n      mul\n      not\n      and\n      swap1\n      dup4\n      iszero\n      iszero\n      mul\n      or\n      swap1\n      sstore\n      pop\n      swap1\n      pop\n      pop\n        /* \"contracts/Test1.sol\":926:1069  {... */\n      pop\n        /* \"contracts/Test1.sol\":872:1069  function addToInvestors(address walletAddress) public {... */\n      pop\n      jump\t// out\n        /* \"contracts/Test1.sol\":1715:1955  function transferToAddress(address walletAddress) private {... */\n    tag_56:\n        /* \"contracts/Test1.sol\":1787:1793  uint i */\n      0x00\n        /* \"contracts/Test1.sol\":1783:1949  for(uint i = 0; i < users.length; i++){... */\n    tag_118:\n        /* \"contracts/Test1.sol\":1803:1808  users */\n      0x01\n        /* \"contracts/Test1.sol\":1803:1815  users.length */\n      dup1\n      sload\n      swap1\n      pop\n        /* \"contracts/Test1.sol\":1799:1800  i */\n      dup2\n        /* \"contracts/Test1.sol\":1799:1815  i < users.length */\n      lt\n        /* \"contracts/Test1.sol\":1783:1949  for(uint i = 0; i < users.length; i++){... */\n      iszero\n      tag_119\n      jumpi\n        /* \"contracts/Test1.sol\":1864:1877  walletAddress */\n      dup2\n        /* \"contracts/Test1.sol\":1838:1877  users[i].walletAddress == walletAddress */\n      0xffffffffffffffffffffffffffffffffffffffff\n      and\n        /* \"contracts/Test1.sol\":1838:1843  users */\n      0x01\n        /* \"contracts/Test1.sol\":1844:1845  i */\n      dup3\n        /* \"contracts/Test1.sol\":1838:1846  users[i] */\n      dup2\n      sload\n      dup2\n      lt\n      tag_121\n      jumpi\n      tag_122\n      tag_79\n      jump\t// in\n    tag_122:\n    tag_121:\n      swap1\n      0x00\n      mstore\n      keccak256(0x00, 0x20)\n      swap1\n      0x04\n      mul\n      add\n        /* \"contracts/Test1.sol\":1838:1860  users[i].walletAddress */\n      0x00\n      add\n      0x00\n      swap1\n      sload\n      swap1\n      0x0100\n      exp\n      swap1\n      div\n      0xffffffffffffffffffffffffffffffffffffffff\n      and\n        /* \"contracts/Test1.sol\":1838:1877  users[i].walletAddress == walletAddress */\n      0xffffffffffffffffffffffffffffffffffffffff\n      and\n      eq\n        /* \"contracts/Test1.sol\":1835:1939  if(users[i].walletAddress == walletAddress){... */\n      iszero\n      tag_124\n      jumpi\n        /* \"contracts/Test1.sol\":1915:1924  msg.value */\n      callvalue\n        /* \"contracts/Test1.sol\":1896:1901  users */\n      0x01\n        /* \"contracts/Test1.sol\":1902:1903  i */\n      dup3\n        /* \"contracts/Test1.sol\":1896:1904  users[i] */\n      dup2\n      sload\n      dup2\n      lt\n      tag_125\n      jumpi\n      tag_126\n      tag_79\n      jump\t// in\n    tag_126:\n    tag_125:\n      swap1\n      0x00\n      mstore\n      keccak256(0x00, 0x20)\n      swap1\n      0x04\n      mul\n      add\n        /* \"contracts/Test1.sol\":1896:1911  users[i].amount */\n      0x02\n      add\n      0x00\n        /* \"contracts/Test1.sol\":1896:1924  users[i].amount += msg.value */\n      dup3\n      dup3\n      sload\n      tag_128\n      swap2\n      swap1\n      tag_129\n      jump\t// in\n    tag_128:\n      swap3\n      pop\n      pop\n      dup2\n      swap1\n      sstore\n      pop\n        /* \"contracts/Test1.sol\":1835:1939  if(users[i].walletAddress == walletAddress){... */\n    tag_124:\n        /* \"contracts/Test1.sol\":1817:1820  i++ */\n      dup1\n      dup1\n      tag_130\n      swap1\n      tag_94\n      jump\t// in\n    tag_130:\n      swap2\n      pop\n      pop\n        /* \"contracts/Test1.sol\":1783:1949  for(uint i = 0; i < users.length; i++){... */\n      jump(tag_118)\n    tag_119:\n      pop\n        /* \"contracts/Test1.sol\":1715:1955  function transferToAddress(address walletAddress) private {... */\n      pop\n      jump\t// out\n    tag_60:\n      dup3\n      dup1\n      sload\n      tag_131\n      swap1\n      tag_64\n      jump\t// in\n    tag_131:\n      swap1\n      0x00\n      mstore\n      keccak256(0x00, 0x20)\n      swap1\n      0x1f\n      add\n      0x20\n      swap1\n      div\n      dup2\n      add\n      swap3\n      dup3\n      tag_133\n      jumpi\n      0x00\n      dup6\n      sstore\n      jump(tag_132)\n    tag_133:\n      dup3\n      0x1f\n      lt\n      tag_134\n      jumpi\n      dup1\n      mload\n      not(0xff)\n      and\n      dup4\n      dup1\n      add\n      or\n      dup6\n      sstore\n      jump(tag_132)\n    tag_134:\n      dup3\n      dup1\n      add\n      0x01\n      add\n      dup6\n      sstore\n      dup3\n      iszero\n      tag_132\n      jumpi\n      swap2\n      dup3\n      add\n    tag_135:\n      dup3\n      dup2\n      gt\n      iszero\n      tag_136\n      jumpi\n      dup3\n      mload\n      dup3\n      sstore\n      swap2\n      0x20\n      add\n      swap2\n      swap1\n      0x01\n      add\n      swap1\n      jump(tag_135)\n    tag_136:\n    tag_132:\n      pop\n      swap1\n      pop\n      tag_137\n      swap2\n      swap1\n      tag_138\n      jump\t// in\n    tag_137:\n      pop\n      swap1\n      jump\t// out\n    tag_72:\n      mload(0x40)\n      dup1\n      0x80\n      add\n      0x40\n      mstore\n      dup1\n      and(0xffffffffffffffffffffffffffffffffffffffff, 0x00)\n      dup2\n      mstore\n      0x20\n      add\n      0x60\n      dup2\n      mstore\n      0x20\n      add\n      0x00\n      dup2\n      mstore\n      0x20\n      add\n      iszero(iszero(0x00))\n      dup2\n      mstore\n      pop\n      swap1\n      jump\t// out\n    tag_138:\n    tag_139:\n      dup1\n      dup3\n      gt\n      iszero\n      tag_140\n      jumpi\n      0x00\n      dup2\n      0x00\n      swap1\n      sstore\n      pop\n      0x01\n      add\n      jump(tag_139)\n    tag_140:\n      pop\n      swap1\n      jump\t// out\n        /* \"#utility.yul\":7:419   */\n    tag_142:\n        /* \"#utility.yul\":85:90   */\n      0x00\n        /* \"#utility.yul\":110:176   */\n      tag_144\n        /* \"#utility.yul\":126:175   */\n      tag_145\n        /* \"#utility.yul\":168:174   */\n      dup5\n        /* \"#utility.yul\":126:175   */\n      tag_146\n      jump\t// in\n    tag_145:\n        /* \"#utility.yul\":110:176   */\n      tag_147\n      jump\t// in\n    tag_144:\n        /* \"#utility.yul\":101:176   */\n      swap1\n      pop\n        /* \"#utility.yul\":199:205   */\n      dup3\n        /* \"#utility.yul\":192:197   */\n      dup2\n        /* \"#utility.yul\":185:206   */\n      mstore\n        /* \"#utility.yul\":237:241   */\n      0x20\n        /* \"#utility.yul\":230:235   */\n      dup2\n        /* \"#utility.yul\":226:242   */\n      add\n        /* \"#utility.yul\":275:278   */\n      dup5\n        /* \"#utility.yul\":266:272   */\n      dup5\n        /* \"#utility.yul\":261:264   */\n      dup5\n        /* \"#utility.yul\":257:273   */\n      add\n        /* \"#utility.yul\":254:279   */\n      gt\n        /* \"#utility.yul\":251:363   */\n      iszero\n      tag_148\n      jumpi\n        /* \"#utility.yul\":282:361   */\n      tag_149\n      tag_150\n      jump\t// in\n    tag_149:\n        /* \"#utility.yul\":251:363   */\n    tag_148:\n        /* \"#utility.yul\":372:413   */\n      tag_151\n        /* \"#utility.yul\":406:412   */\n      dup5\n        /* \"#utility.yul\":401:404   */\n      dup3\n        /* \"#utility.yul\":396:399   */\n      dup6\n        /* \"#utility.yul\":372:413   */\n      tag_152\n      jump\t// in\n    tag_151:\n        /* \"#utility.yul\":91:419   */\n      pop\n        /* \"#utility.yul\":7:419   */\n      swap4\n      swap3\n      pop\n      pop\n      pop\n      jump\t// out\n        /* \"#utility.yul\":425:564   */\n    tag_153:\n        /* \"#utility.yul\":471:476   */\n      0x00\n        /* \"#utility.yul\":509:515   */\n      dup2\n        /* \"#utility.yul\":496:516   */\n      calldataload\n        /* \"#utility.yul\":487:516   */\n      swap1\n      pop\n        /* \"#utility.yul\":525:558   */\n      tag_155\n        /* \"#utility.yul\":552:557   */\n      dup2\n        /* \"#utility.yul\":525:558   */\n      tag_156\n      jump\t// in\n    tag_155:\n        /* \"#utility.yul\":425:564   */\n      swap3\n      swap2\n      pop\n      pop\n      jump\t// out\n        /* \"#utility.yul\":570:703   */\n    tag_157:\n        /* \"#utility.yul\":613:618   */\n      0x00\n        /* \"#utility.yul\":651:657   */\n      dup2\n        /* \"#utility.yul\":638:658   */\n      calldataload\n        /* \"#utility.yul\":629:658   */\n      swap1\n      pop\n        /* \"#utility.yul\":667:697   */\n      tag_159\n        /* \"#utility.yul\":691:696   */\n      dup2\n        /* \"#utility.yul\":667:697   */\n      tag_160\n      jump\t// in\n    tag_159:\n        /* \"#utility.yul\":570:703   */\n      swap3\n      swap2\n      pop\n      pop\n      jump\t// out\n        /* \"#utility.yul\":723:1063   */\n    tag_161:\n        /* \"#utility.yul\":779:784   */\n      0x00\n        /* \"#utility.yul\":828:831   */\n      dup3\n        /* \"#utility.yul\":821:825   */\n      0x1f\n        /* \"#utility.yul\":813:819   */\n      dup4\n        /* \"#utility.yul\":809:826   */\n      add\n        /* \"#utility.yul\":805:832   */\n      slt\n        /* \"#utility.yul\":795:917   */\n      tag_163\n      jumpi\n        /* \"#utility.yul\":836:915   */\n      tag_164\n      tag_165\n      jump\t// in\n    tag_164:\n        /* \"#utility.yul\":795:917   */\n    tag_163:\n        /* \"#utility.yul\":953:959   */\n      dup2\n        /* \"#utility.yul\":940:960   */\n      calldataload\n        /* \"#utility.yul\":978:1057   */\n      tag_166\n        /* \"#utility.yul\":1053:1056   */\n      dup5\n        /* \"#utility.yul\":1045:1051   */\n      dup3\n        /* \"#utility.yul\":1038:1042   */\n      0x20\n        /* \"#utility.yul\":1030:1036   */\n      dup7\n        /* \"#utility.yul\":1026:1043   */\n      add\n        /* \"#utility.yul\":978:1057   */\n      tag_142\n      jump\t// in\n    tag_166:\n        /* \"#utility.yul\":969:1057   */\n      swap2\n      pop\n        /* \"#utility.yul\":785:1063   */\n      pop\n        /* \"#utility.yul\":723:1063   */\n      swap3\n      swap2\n      pop\n      pop\n      jump\t// out\n        /* \"#utility.yul\":1069:1208   */\n    tag_167:\n        /* \"#utility.yul\":1115:1120   */\n      0x00\n        /* \"#utility.yul\":1153:1159   */\n      dup2\n        /* \"#utility.yul\":1140:1160   */\n      calldataload\n        /* \"#utility.yul\":1131:1160   */\n      swap1\n      pop\n        /* \"#utility.yul\":1169:1202   */\n      tag_169\n        /* \"#utility.yul\":1196:1201   */\n      dup2\n        /* \"#utility.yul\":1169:1202   */\n      tag_170\n      jump\t// in\n    tag_169:\n        /* \"#utility.yul\":1069:1208   */\n      swap3\n      swap2\n      pop\n      pop\n      jump\t// out\n        /* \"#utility.yul\":1214:1543   */\n    tag_13:\n        /* \"#utility.yul\":1273:1279   */\n      0x00\n        /* \"#utility.yul\":1322:1324   */\n      0x20\n        /* \"#utility.yul\":1310:1319   */\n      dup3\n        /* \"#utility.yul\":1301:1308   */\n      dup5\n        /* \"#utility.yul\":1297:1320   */\n      sub\n        /* \"#utility.yul\":1293:1325   */\n      slt\n        /* \"#utility.yul\":1290:1409   */\n      iszero\n      tag_172\n      jumpi\n        /* \"#utility.yul\":1328:1407   */\n      tag_173\n      tag_174\n      jump\t// in\n    tag_173:\n        /* \"#utility.yul\":1290:1409   */\n    tag_172:\n        /* \"#utility.yul\":1448:1449   */\n      0x00\n        /* \"#utility.yul\":1473:1526   */\n      tag_175\n        /* \"#utility.yul\":1518:1525   */\n      dup5\n        /* \"#utility.yul\":1509:1515   */\n      dup3\n        /* \"#utility.yul\":1498:1507   */\n      dup6\n        /* \"#utility.yul\":1494:1516   */\n      add\n        /* \"#utility.yul\":1473:1526   */\n      tag_153\n      jump\t// in\n    tag_175:\n        /* \"#utility.yul\":1463:1526   */\n      swap2\n      pop\n        /* \"#utility.yul\":1419:1536   */\n      pop\n        /* \"#utility.yul\":1214:1543   */\n      swap3\n      swap2\n      pop\n      pop\n      jump\t// out\n        /* \"#utility.yul\":1549:2488   */\n    tag_18:\n        /* \"#utility.yul\":1642:1648   */\n      0x00\n        /* \"#utility.yul\":1650:1656   */\n      dup1\n        /* \"#utility.yul\":1658:1664   */\n      0x00\n        /* \"#utility.yul\":1666:1672   */\n      dup1\n        /* \"#utility.yul\":1715:1718   */\n      0x80\n        /* \"#utility.yul\":1703:1712   */\n      dup6\n        /* \"#utility.yul\":1694:1701   */\n      dup8\n        /* \"#utility.yul\":1690:1713   */\n      sub\n        /* \"#utility.yul\":1686:1719   */\n      slt\n        /* \"#utility.yul\":1683:1803   */\n      iszero\n      tag_177\n      jumpi\n        /* \"#utility.yul\":1722:1801   */\n      tag_178\n      tag_174\n      jump\t// in\n    tag_178:\n        /* \"#utility.yul\":1683:1803   */\n    tag_177:\n        /* \"#utility.yul\":1842:1843   */\n      0x00\n        /* \"#utility.yul\":1867:1920   */\n      tag_179\n        /* \"#utility.yul\":1912:1919   */\n      dup8\n        /* \"#utility.yul\":1903:1909   */\n      dup3\n        /* \"#utility.yul\":1892:1901   */\n      dup9\n        /* \"#utility.yul\":1888:1910   */\n      add\n        /* \"#utility.yul\":1867:1920   */\n      tag_153\n      jump\t// in\n    tag_179:\n        /* \"#utility.yul\":1857:1920   */\n      swap5\n      pop\n        /* \"#utility.yul\":1813:1930   */\n      pop\n        /* \"#utility.yul\":1997:1999   */\n      0x20\n        /* \"#utility.yul\":1986:1995   */\n      dup6\n        /* \"#utility.yul\":1982:2000   */\n      add\n        /* \"#utility.yul\":1969:2001   */\n      calldataload\n        /* \"#utility.yul\":2028:2046   */\n      0xffffffffffffffff\n        /* \"#utility.yul\":2020:2026   */\n      dup2\n        /* \"#utility.yul\":2017:2047   */\n      gt\n        /* \"#utility.yul\":2014:2131   */\n      iszero\n      tag_180\n      jumpi\n        /* \"#utility.yul\":2050:2129   */\n      tag_181\n      tag_182\n      jump\t// in\n    tag_181:\n        /* \"#utility.yul\":2014:2131   */\n    tag_180:\n        /* \"#utility.yul\":2155:2218   */\n      tag_183\n        /* \"#utility.yul\":2210:2217   */\n      dup8\n        /* \"#utility.yul\":2201:2207   */\n      dup3\n        /* \"#utility.yul\":2190:2199   */\n      dup9\n        /* \"#utility.yul\":2186:2208   */\n      add\n        /* \"#utility.yul\":2155:2218   */\n      tag_161\n      jump\t// in\n    tag_183:\n        /* \"#utility.yul\":2145:2218   */\n      swap4\n      pop\n        /* \"#utility.yul\":1940:2228   */\n      pop\n        /* \"#utility.yul\":2267:2269   */\n      0x40\n        /* \"#utility.yul\":2293:2346   */\n      tag_184\n        /* \"#utility.yul\":2338:2345   */\n      dup8\n        /* \"#utility.yul\":2329:2335   */\n      dup3\n        /* \"#utility.yul\":2318:2327   */\n      dup9\n        /* \"#utility.yul\":2314:2336   */\n      add\n        /* \"#utility.yul\":2293:2346   */\n      tag_167\n      jump\t// in\n    tag_184:\n        /* \"#utility.yul\":2283:2346   */\n      swap3\n      pop\n        /* \"#utility.yul\":2238:2356   */\n      pop\n        /* \"#utility.yul\":2395:2397   */\n      0x60\n        /* \"#utility.yul\":2421:2471   */\n      tag_185\n        /* \"#utility.yul\":2463:2470   */\n      dup8\n        /* \"#utility.yul\":2454:2460   */\n      dup3\n        /* \"#utility.yul\":2443:2452   */\n      dup9\n        /* \"#utility.yul\":2439:2461   */\n      add\n        /* \"#utility.yul\":2421:2471   */\n      tag_157\n      jump\t// in\n    tag_185:\n        /* \"#utility.yul\":2411:2471   */\n      swap2\n      pop\n        /* \"#utility.yul\":2366:2481   */\n      pop\n        /* \"#utility.yul\":1549:2488   */\n      swap3\n      swap6\n      swap2\n      swap5\n      pop\n      swap3\n      pop\n      jump\t// out\n        /* \"#utility.yul\":2494:2823   */\n    tag_23:\n        /* \"#utility.yul\":2553:2559   */\n      0x00\n        /* \"#utility.yul\":2602:2604   */\n      0x20\n        /* \"#utility.yul\":2590:2599   */\n      dup3\n        /* \"#utility.yul\":2581:2588   */\n      dup5\n        /* \"#utility.yul\":2577:2600   */\n      sub\n        /* \"#utility.yul\":2573:2605   */\n      slt\n        /* \"#utility.yul\":2570:2689   */\n      iszero\n      tag_187\n      jumpi\n        /* \"#utility.yul\":2608:2687   */\n      tag_188\n      tag_174\n      jump\t// in\n    tag_188:\n        /* \"#utility.yul\":2570:2689   */\n    tag_187:\n        /* \"#utility.yul\":2728:2729   */\n      0x00\n        /* \"#utility.yul\":2753:2806   */\n      tag_189\n        /* \"#utility.yul\":2798:2805   */\n      dup5\n        /* \"#utility.yul\":2789:2795   */\n      dup3\n        /* \"#utility.yul\":2778:2787   */\n      dup6\n        /* \"#utility.yul\":2774:2796   */\n      add\n        /* \"#utility.yul\":2753:2806   */\n      tag_167\n      jump\t// in\n    tag_189:\n        /* \"#utility.yul\":2743:2806   */\n      swap2\n      pop\n        /* \"#utility.yul\":2699:2816   */\n      pop\n        /* \"#utility.yul\":2494:2823   */\n      swap3\n      swap2\n      pop\n      pop\n      jump\t// out\n        /* \"#utility.yul\":2829:2937   */\n    tag_190:\n        /* \"#utility.yul\":2906:2930   */\n      tag_192\n        /* \"#utility.yul\":2924:2929   */\n      dup2\n        /* \"#utility.yul\":2906:2930   */\n      tag_193\n      jump\t// in\n    tag_192:\n        /* \"#utility.yul\":2901:2904   */\n      dup3\n        /* \"#utility.yul\":2894:2931   */\n      mstore\n        /* \"#utility.yul\":2829:2937   */\n      pop\n      pop\n      jump\t// out\n        /* \"#utility.yul\":2943:3061   */\n    tag_194:\n        /* \"#utility.yul\":3030:3054   */\n      tag_196\n        /* \"#utility.yul\":3048:3053   */\n      dup2\n        /* \"#utility.yul\":3030:3054   */\n      tag_193\n      jump\t// in\n    tag_196:\n        /* \"#utility.yul\":3025:3028   */\n      dup3\n        /* \"#utility.yul\":3018:3055   */\n      mstore\n        /* \"#utility.yul\":2943:3061   */\n      pop\n      pop\n      jump\t// out\n        /* \"#utility.yul\":3067:3166   */\n    tag_197:\n        /* \"#utility.yul\":3138:3159   */\n      tag_199\n        /* \"#utility.yul\":3153:3158   */\n      dup2\n        /* \"#utility.yul\":3138:3159   */\n      tag_200\n      jump\t// in\n    tag_199:\n        /* \"#utility.yul\":3133:3136   */\n      dup3\n        /* \"#utility.yul\":3126:3160   */\n      mstore\n        /* \"#utility.yul\":3067:3166   */\n      pop\n      pop\n      jump\t// out\n        /* \"#utility.yul\":3172:3281   */\n    tag_201:\n        /* \"#utility.yul\":3253:3274   */\n      tag_203\n        /* \"#utility.yul\":3268:3273   */\n      dup2\n        /* \"#utility.yul\":3253:3274   */\n      tag_200\n      jump\t// in\n    tag_203:\n        /* \"#utility.yul\":3248:3251   */\n      dup3\n        /* \"#utility.yul\":3241:3275   */\n      mstore\n        /* \"#utility.yul\":3172:3281   */\n      pop\n      pop\n      jump\t// out\n        /* \"#utility.yul\":3287:3631   */\n    tag_204:\n        /* \"#utility.yul\":3365:3368   */\n      0x00\n        /* \"#utility.yul\":3393:3432   */\n      tag_206\n        /* \"#utility.yul\":3426:3431   */\n      dup3\n        /* \"#utility.yul\":3393:3432   */\n      tag_207\n      jump\t// in\n    tag_206:\n        /* \"#utility.yul\":3448:3509   */\n      tag_208\n        /* \"#utility.yul\":3502:3508   */\n      dup2\n        /* \"#utility.yul\":3497:3500   */\n      dup6\n        /* \"#utility.yul\":3448:3509   */\n      tag_209\n      jump\t// in\n    tag_208:\n        /* \"#utility.yul\":3441:3509   */\n      swap4\n      pop\n        /* \"#utility.yul\":3518:3570   */\n      tag_210\n        /* \"#utility.yul\":3563:3569   */\n      dup2\n        /* \"#utility.yul\":3558:3561   */\n      dup6\n        /* \"#utility.yul\":3551:3555   */\n      0x20\n        /* \"#utility.yul\":3544:3549   */\n      dup7\n        /* \"#utility.yul\":3540:3556   */\n      add\n        /* \"#utility.yul\":3518:3570   */\n      tag_211\n      jump\t// in\n    tag_210:\n        /* \"#utility.yul\":3595:3624   */\n      tag_212\n        /* \"#utility.yul\":3617:3623   */\n      dup2\n        /* \"#utility.yul\":3595:3624   */\n      tag_213\n      jump\t// in\n    tag_212:\n        /* \"#utility.yul\":3590:3593   */\n      dup5\n        /* \"#utility.yul\":3586:3625   */\n      add\n        /* \"#utility.yul\":3579:3625   */\n      swap2\n      pop\n        /* \"#utility.yul\":3369:3631   */\n      pop\n        /* \"#utility.yul\":3287:3631   */\n      swap3\n      swap2\n      pop\n      pop\n      jump\t// out\n        /* \"#utility.yul\":3637:4001   */\n    tag_214:\n        /* \"#utility.yul\":3725:3728   */\n      0x00\n        /* \"#utility.yul\":3753:3792   */\n      tag_216\n        /* \"#utility.yul\":3786:3791   */\n      dup3\n        /* \"#utility.yul\":3753:3792   */\n      tag_207\n      jump\t// in\n    tag_216:\n        /* \"#utility.yul\":3808:3879   */\n      tag_217\n        /* \"#utility.yul\":3872:3878   */\n      dup2\n        /* \"#utility.yul\":3867:3870   */\n      dup6\n        /* \"#utility.yul\":3808:3879   */\n      tag_218\n      jump\t// in\n    tag_217:\n        /* \"#utility.yul\":3801:3879   */\n      swap4\n      pop\n        /* \"#utility.yul\":3888:3940   */\n      tag_219\n        /* \"#utility.yul\":3933:3939   */\n      dup2\n        /* \"#utility.yul\":3928:3931   */\n      dup6\n        /* \"#utility.yul\":3921:3925   */\n      0x20\n        /* \"#utility.yul\":3914:3919   */\n      dup7\n        /* \"#utility.yul\":3910:3926   */\n      add\n        /* \"#utility.yul\":3888:3940   */\n      tag_211\n      jump\t// in\n    tag_219:\n        /* \"#utility.yul\":3965:3994   */\n      tag_220\n        /* \"#utility.yul\":3987:3993   */\n      dup2\n        /* \"#utility.yul\":3965:3994   */\n      tag_213\n      jump\t// in\n    tag_220:\n        /* \"#utility.yul\":3960:3963   */\n      dup5\n        /* \"#utility.yul\":3956:3995   */\n      add\n        /* \"#utility.yul\":3949:3995   */\n      swap2\n      pop\n        /* \"#utility.yul\":3729:4001   */\n      pop\n        /* \"#utility.yul\":3637:4001   */\n      swap3\n      swap2\n      pop\n      pop\n      jump\t// out\n        /* \"#utility.yul\":4007:4373   */\n    tag_221:\n        /* \"#utility.yul\":4149:4152   */\n      0x00\n        /* \"#utility.yul\":4170:4237   */\n      tag_223\n        /* \"#utility.yul\":4234:4236   */\n      0x16\n        /* \"#utility.yul\":4229:4232   */\n      dup4\n        /* \"#utility.yul\":4170:4237   */\n      tag_218\n      jump\t// in\n    tag_223:\n        /* \"#utility.yul\":4163:4237   */\n      swap2\n      pop\n        /* \"#utility.yul\":4246:4339   */\n      tag_224\n        /* \"#utility.yul\":4335:4338   */\n      dup3\n        /* \"#utility.yul\":4246:4339   */\n      tag_225\n      jump\t// in\n    tag_224:\n        /* \"#utility.yul\":4364:4366   */\n      0x20\n        /* \"#utility.yul\":4359:4362   */\n      dup3\n        /* \"#utility.yul\":4355:4367   */\n      add\n        /* \"#utility.yul\":4348:4367   */\n      swap1\n      pop\n        /* \"#utility.yul\":4007:4373   */\n      swap2\n      swap1\n      pop\n      jump\t// out\n        /* \"#utility.yul\":4425:5380   */\n    tag_226:\n        /* \"#utility.yul\":4534:4537   */\n      0x00\n        /* \"#utility.yul\":4570:4574   */\n      0x80\n        /* \"#utility.yul\":4565:4568   */\n      dup4\n        /* \"#utility.yul\":4561:4575   */\n      add\n        /* \"#utility.yul\":4666:4670   */\n      0x00\n        /* \"#utility.yul\":4659:4664   */\n      dup4\n        /* \"#utility.yul\":4655:4671   */\n      add\n        /* \"#utility.yul\":4649:4672   */\n      mload\n        /* \"#utility.yul\":4685:4748   */\n      tag_228\n        /* \"#utility.yul\":4742:4746   */\n      0x00\n        /* \"#utility.yul\":4737:4740   */\n      dup7\n        /* \"#utility.yul\":4733:4747   */\n      add\n        /* \"#utility.yul\":4719:4731   */\n      dup3\n        /* \"#utility.yul\":4685:4748   */\n      tag_190\n      jump\t// in\n    tag_228:\n        /* \"#utility.yul\":4585:4758   */\n      pop\n        /* \"#utility.yul\":4840:4844   */\n      0x20\n        /* \"#utility.yul\":4833:4838   */\n      dup4\n        /* \"#utility.yul\":4829:4845   */\n      add\n        /* \"#utility.yul\":4823:4846   */\n      mload\n        /* \"#utility.yul\":4893:4896   */\n      dup5\n        /* \"#utility.yul\":4887:4891   */\n      dup3\n        /* \"#utility.yul\":4883:4897   */\n      sub\n        /* \"#utility.yul\":4876:4880   */\n      0x20\n        /* \"#utility.yul\":4871:4874   */\n      dup7\n        /* \"#utility.yul\":4867:4881   */\n      add\n        /* \"#utility.yul\":4860:4898   */\n      mstore\n        /* \"#utility.yul\":4919:4992   */\n      tag_229\n        /* \"#utility.yul\":4987:4991   */\n      dup3\n        /* \"#utility.yul\":4973:4985   */\n      dup3\n        /* \"#utility.yul\":4919:4992   */\n      tag_204\n      jump\t// in\n    tag_229:\n        /* \"#utility.yul\":4911:4992   */\n      swap2\n      pop\n        /* \"#utility.yul\":4768:5003   */\n      pop\n        /* \"#utility.yul\":5087:5091   */\n      0x40\n        /* \"#utility.yul\":5080:5085   */\n      dup4\n        /* \"#utility.yul\":5076:5092   */\n      add\n        /* \"#utility.yul\":5070:5093   */\n      mload\n        /* \"#utility.yul\":5106:5169   */\n      tag_230\n        /* \"#utility.yul\":5163:5167   */\n      0x40\n        /* \"#utility.yul\":5158:5161   */\n      dup7\n        /* \"#utility.yul\":5154:5168   */\n      add\n        /* \"#utility.yul\":5140:5152   */\n      dup3\n        /* \"#utility.yul\":5106:5169   */\n      tag_231\n      jump\t// in\n    tag_230:\n        /* \"#utility.yul\":5013:5179   */\n      pop\n        /* \"#utility.yul\":5267:5271   */\n      0x60\n        /* \"#utility.yul\":5260:5265   */\n      dup4\n        /* \"#utility.yul\":5256:5272   */\n      add\n        /* \"#utility.yul\":5250:5273   */\n      mload\n        /* \"#utility.yul\":5286:5343   */\n      tag_232\n        /* \"#utility.yul\":5337:5341   */\n      0x60\n        /* \"#utility.yul\":5332:5335   */\n      dup7\n        /* \"#utility.yul\":5328:5342   */\n      add\n        /* \"#utility.yul\":5314:5326   */\n      dup3\n        /* \"#utility.yul\":5286:5343   */\n      tag_197\n      jump\t// in\n    tag_232:\n        /* \"#utility.yul\":5189:5353   */\n      pop\n        /* \"#utility.yul\":5370:5374   */\n      dup1\n        /* \"#utility.yul\":5363:5374   */\n      swap2\n      pop\n        /* \"#utility.yul\":4539:5380   */\n      pop\n        /* \"#utility.yul\":4425:5380   */\n      swap3\n      swap2\n      pop\n      pop\n      jump\t// out\n        /* \"#utility.yul\":5386:5494   */\n    tag_231:\n        /* \"#utility.yul\":5463:5487   */\n      tag_234\n        /* \"#utility.yul\":5481:5486   */\n      dup2\n        /* \"#utility.yul\":5463:5487   */\n      tag_235\n      jump\t// in\n    tag_234:\n        /* \"#utility.yul\":5458:5461   */\n      dup3\n        /* \"#utility.yul\":5451:5488   */\n      mstore\n        /* \"#utility.yul\":5386:5494   */\n      pop\n      pop\n      jump\t// out\n        /* \"#utility.yul\":5500:5618   */\n    tag_236:\n        /* \"#utility.yul\":5587:5611   */\n      tag_238\n        /* \"#utility.yul\":5605:5610   */\n      dup2\n        /* \"#utility.yul\":5587:5611   */\n      tag_235\n      jump\t// in\n    tag_238:\n        /* \"#utility.yul\":5582:5585   */\n      dup3\n        /* \"#utility.yul\":5575:5612   */\n      mstore\n        /* \"#utility.yul\":5500:5618   */\n      pop\n      pop\n      jump\t// out\n        /* \"#utility.yul\":5624:6256   */\n    tag_26:\n        /* \"#utility.yul\":5815:5819   */\n      0x00\n        /* \"#utility.yul\":5853:5856   */\n      0x80\n        /* \"#utility.yul\":5842:5851   */\n      dup3\n        /* \"#utility.yul\":5838:5857   */\n      add\n        /* \"#utility.yul\":5830:5857   */\n      swap1\n      pop\n        /* \"#utility.yul\":5867:5938   */\n      tag_240\n        /* \"#utility.yul\":5935:5936   */\n      0x00\n        /* \"#utility.yul\":5924:5933   */\n      dup4\n        /* \"#utility.yul\":5920:5937   */\n      add\n        /* \"#utility.yul\":5911:5917   */\n      dup8\n        /* \"#utility.yul\":5867:5938   */\n      tag_194\n      jump\t// in\n    tag_240:\n        /* \"#utility.yul\":5985:5994   */\n      dup2\n        /* \"#utility.yul\":5979:5983   */\n      dup2\n        /* \"#utility.yul\":5975:5995   */\n      sub\n        /* \"#utility.yul\":5970:5972   */\n      0x20\n        /* \"#utility.yul\":5959:5968   */\n      dup4\n        /* \"#utility.yul\":5955:5973   */\n      add\n        /* \"#utility.yul\":5948:5996   */\n      mstore\n        /* \"#utility.yul\":6013:6091   */\n      tag_241\n        /* \"#utility.yul\":6086:6090   */\n      dup2\n        /* \"#utility.yul\":6077:6083   */\n      dup7\n        /* \"#utility.yul\":6013:6091   */\n      tag_214\n      jump\t// in\n    tag_241:\n        /* \"#utility.yul\":6005:6091   */\n      swap1\n      pop\n        /* \"#utility.yul\":6101:6173   */\n      tag_242\n        /* \"#utility.yul\":6169:6171   */\n      0x40\n        /* \"#utility.yul\":6158:6167   */\n      dup4\n        /* \"#utility.yul\":6154:6172   */\n      add\n        /* \"#utility.yul\":6145:6151   */\n      dup6\n        /* \"#utility.yul\":6101:6173   */\n      tag_236\n      jump\t// in\n    tag_242:\n        /* \"#utility.yul\":6183:6249   */\n      tag_243\n        /* \"#utility.yul\":6245:6247   */\n      0x60\n        /* \"#utility.yul\":6234:6243   */\n      dup4\n        /* \"#utility.yul\":6230:6248   */\n      add\n        /* \"#utility.yul\":6221:6227   */\n      dup5\n        /* \"#utility.yul\":6183:6249   */\n      tag_201\n      jump\t// in\n    tag_243:\n        /* \"#utility.yul\":5624:6256   */\n      swap6\n      swap5\n      pop\n      pop\n      pop\n      pop\n      pop\n      jump\t// out\n        /* \"#utility.yul\":6262:6472   */\n    tag_32:\n        /* \"#utility.yul\":6349:6353   */\n      0x00\n        /* \"#utility.yul\":6387:6389   */\n      0x20\n        /* \"#utility.yul\":6376:6385   */\n      dup3\n        /* \"#utility.yul\":6372:6390   */\n      add\n        /* \"#utility.yul\":6364:6390   */\n      swap1\n      pop\n        /* \"#utility.yul\":6400:6465   */\n      tag_245\n        /* \"#utility.yul\":6462:6463   */\n      0x00\n        /* \"#utility.yul\":6451:6460   */\n      dup4\n        /* \"#utility.yul\":6447:6464   */\n      add\n        /* \"#utility.yul\":6438:6444   */\n      dup5\n        /* \"#utility.yul\":6400:6465   */\n      tag_201\n      jump\t// in\n    tag_245:\n        /* \"#utility.yul\":6262:6472   */\n      swap3\n      swap2\n      pop\n      pop\n      jump\t// out\n        /* \"#utility.yul\":6478:6897   */\n    tag_96:\n        /* \"#utility.yul\":6644:6648   */\n      0x00\n        /* \"#utility.yul\":6682:6684   */\n      0x20\n        /* \"#utility.yul\":6671:6680   */\n      dup3\n        /* \"#utility.yul\":6667:6685   */\n      add\n        /* \"#utility.yul\":6659:6685   */\n      swap1\n      pop\n        /* \"#utility.yul\":6731:6740   */\n      dup2\n        /* \"#utility.yul\":6725:6729   */\n      dup2\n        /* \"#utility.yul\":6721:6741   */\n      sub\n        /* \"#utility.yul\":6717:6718   */\n      0x00\n        /* \"#utility.yul\":6706:6715   */\n      dup4\n        /* \"#utility.yul\":6702:6719   */\n      add\n        /* \"#utility.yul\":6695:6742   */\n      mstore\n        /* \"#utility.yul\":6759:6890   */\n      tag_247\n        /* \"#utility.yul\":6885:6889   */\n      dup2\n        /* \"#utility.yul\":6759:6890   */\n      tag_221\n      jump\t// in\n    tag_247:\n        /* \"#utility.yul\":6751:6890   */\n      swap1\n      pop\n        /* \"#utility.yul\":6478:6897   */\n      swap2\n      swap1\n      pop\n      jump\t// out\n        /* \"#utility.yul\":6903:7256   */\n    tag_38:\n        /* \"#utility.yul\":7036:7040   */\n      0x00\n        /* \"#utility.yul\":7074:7076   */\n      0x20\n        /* \"#utility.yul\":7063:7072   */\n      dup3\n        /* \"#utility.yul\":7059:7077   */\n      add\n        /* \"#utility.yul\":7051:7077   */\n      swap1\n      pop\n        /* \"#utility.yul\":7123:7132   */\n      dup2\n        /* \"#utility.yul\":7117:7121   */\n      dup2\n        /* \"#utility.yul\":7113:7133   */\n      sub\n        /* \"#utility.yul\":7109:7110   */\n      0x00\n        /* \"#utility.yul\":7098:7107   */\n      dup4\n        /* \"#utility.yul\":7094:7111   */\n      add\n        /* \"#utility.yul\":7087:7134   */\n      mstore\n        /* \"#utility.yul\":7151:7249   */\n      tag_249\n        /* \"#utility.yul\":7244:7248   */\n      dup2\n        /* \"#utility.yul\":7235:7241   */\n      dup5\n        /* \"#utility.yul\":7151:7249   */\n      tag_226\n      jump\t// in\n    tag_249:\n        /* \"#utility.yul\":7143:7249   */\n      swap1\n      pop\n        /* \"#utility.yul\":6903:7256   */\n      swap3\n      swap2\n      pop\n      pop\n      jump\t// out\n        /* \"#utility.yul\":7262:7484   */\n    tag_49:\n        /* \"#utility.yul\":7355:7359   */\n      0x00\n        /* \"#utility.yul\":7393:7395   */\n      0x20\n        /* \"#utility.yul\":7382:7391   */\n      dup3\n        /* \"#utility.yul\":7378:7396   */\n      add\n        /* \"#utility.yul\":7370:7396   */\n      swap1\n      pop\n        /* \"#utility.yul\":7406:7477   */\n      tag_251\n        /* \"#utility.yul\":7474:7475   */\n      0x00\n        /* \"#utility.yul\":7463:7472   */\n      dup4\n        /* \"#utility.yul\":7459:7476   */\n      add\n        /* \"#utility.yul\":7450:7456   */\n      dup5\n        /* \"#utility.yul\":7406:7477   */\n      tag_236\n      jump\t// in\n    tag_251:\n        /* \"#utility.yul\":7262:7484   */\n      swap3\n      swap2\n      pop\n      pop\n      jump\t// out\n        /* \"#utility.yul\":7490:7619   */\n    tag_147:\n        /* \"#utility.yul\":7524:7530   */\n      0x00\n        /* \"#utility.yul\":7551:7571   */\n      tag_253\n      tag_254\n      jump\t// in\n    tag_253:\n        /* \"#utility.yul\":7541:7571   */\n      swap1\n      pop\n        /* \"#utility.yul\":7580:7613   */\n      tag_255\n        /* \"#utility.yul\":7608:7612   */\n      dup3\n        /* \"#utility.yul\":7600:7606   */\n      dup3\n        /* \"#utility.yul\":7580:7613   */\n      tag_256\n      jump\t// in\n    tag_255:\n        /* \"#utility.yul\":7490:7619   */\n      swap2\n      swap1\n      pop\n      jump\t// out\n        /* \"#utility.yul\":7625:7700   */\n    tag_254:\n        /* \"#utility.yul\":7658:7664   */\n      0x00\n        /* \"#utility.yul\":7691:7693   */\n      0x40\n        /* \"#utility.yul\":7685:7694   */\n      mload\n        /* \"#utility.yul\":7675:7694   */\n      swap1\n      pop\n        /* \"#utility.yul\":7625:7700   */\n      swap1\n      jump\t// out\n        /* \"#utility.yul\":7706:8014   */\n    tag_146:\n        /* \"#utility.yul\":7768:7772   */\n      0x00\n        /* \"#utility.yul\":7858:7876   */\n      0xffffffffffffffff\n        /* \"#utility.yul\":7850:7856   */\n      dup3\n        /* \"#utility.yul\":7847:7877   */\n      gt\n        /* \"#utility.yul\":7844:7900   */\n      iszero\n      tag_259\n      jumpi\n        /* \"#utility.yul\":7880:7898   */\n      tag_260\n      tag_261\n      jump\t// in\n    tag_260:\n        /* \"#utility.yul\":7844:7900   */\n    tag_259:\n        /* \"#utility.yul\":7918:7947   */\n      tag_262\n        /* \"#utility.yul\":7940:7946   */\n      dup3\n        /* \"#utility.yul\":7918:7947   */\n      tag_213\n      jump\t// in\n    tag_262:\n        /* \"#utility.yul\":7910:7947   */\n      swap1\n      pop\n        /* \"#utility.yul\":8002:8006   */\n      0x20\n        /* \"#utility.yul\":7996:8000   */\n      dup2\n        /* \"#utility.yul\":7992:8007   */\n      add\n        /* \"#utility.yul\":7984:8007   */\n      swap1\n      pop\n        /* \"#utility.yul\":7706:8014   */\n      swap2\n      swap1\n      pop\n      jump\t// out\n        /* \"#utility.yul\":8020:8119   */\n    tag_207:\n        /* \"#utility.yul\":8072:8078   */\n      0x00\n        /* \"#utility.yul\":8106:8111   */\n      dup2\n        /* \"#utility.yul\":8100:8112   */\n      mload\n        /* \"#utility.yul\":8090:8112   */\n      swap1\n      pop\n        /* \"#utility.yul\":8020:8119   */\n      swap2\n      swap1\n      pop\n      jump\t// out\n        /* \"#utility.yul\":8125:8284   */\n    tag_209:\n        /* \"#utility.yul\":8199:8210   */\n      0x00\n        /* \"#utility.yul\":8233:8239   */\n      dup3\n        /* \"#utility.yul\":8228:8231   */\n      dup3\n        /* \"#utility.yul\":8221:8240   */\n      mstore\n        /* \"#utility.yul\":8273:8277   */\n      0x20\n        /* \"#utility.yul\":8268:8271   */\n      dup3\n        /* \"#utility.yul\":8264:8278   */\n      add\n        /* \"#utility.yul\":8249:8278   */\n      swap1\n      pop\n        /* \"#utility.yul\":8125:8284   */\n      swap3\n      swap2\n      pop\n      pop\n      jump\t// out\n        /* \"#utility.yul\":8290:8459   */\n    tag_218:\n        /* \"#utility.yul\":8374:8385   */\n      0x00\n        /* \"#utility.yul\":8408:8414   */\n      dup3\n        /* \"#utility.yul\":8403:8406   */\n      dup3\n        /* \"#utility.yul\":8396:8415   */\n      mstore\n        /* \"#utility.yul\":8448:8452   */\n      0x20\n        /* \"#utility.yul\":8443:8446   */\n      dup3\n        /* \"#utility.yul\":8439:8453   */\n      add\n        /* \"#utility.yul\":8424:8453   */\n      swap1\n      pop\n        /* \"#utility.yul\":8290:8459   */\n      swap3\n      swap2\n      pop\n      pop\n      jump\t// out\n        /* \"#utility.yul\":8465:8770   */\n    tag_129:\n        /* \"#utility.yul\":8505:8508   */\n      0x00\n        /* \"#utility.yul\":8524:8544   */\n      tag_267\n        /* \"#utility.yul\":8542:8543   */\n      dup3\n        /* \"#utility.yul\":8524:8544   */\n      tag_235\n      jump\t// in\n    tag_267:\n        /* \"#utility.yul\":8519:8544   */\n      swap2\n      pop\n        /* \"#utility.yul\":8558:8578   */\n      tag_268\n        /* \"#utility.yul\":8576:8577   */\n      dup4\n        /* \"#utility.yul\":8558:8578   */\n      tag_235\n      jump\t// in\n    tag_268:\n        /* \"#utility.yul\":8553:8578   */\n      swap3\n      pop\n        /* \"#utility.yul\":8712:8713   */\n      dup3\n        /* \"#utility.yul\":8644:8710   */\n      0xffffffffffffffffffffffffffffffffffffffffffffffffffffffffffffffff\n        /* \"#utility.yul\":8640:8714   */\n      sub\n        /* \"#utility.yul\":8637:8638   */\n      dup3\n        /* \"#utility.yul\":8634:8715   */\n      gt\n        /* \"#utility.yul\":8631:8738   */\n      iszero\n      tag_269\n      jumpi\n        /* \"#utility.yul\":8718:8736   */\n      tag_270\n      tag_271\n      jump\t// in\n    tag_270:\n        /* \"#utility.yul\":8631:8738   */\n    tag_269:\n        /* \"#utility.yul\":8762:8763   */\n      dup3\n        /* \"#utility.yul\":8759:8760   */\n      dup3\n        /* \"#utility.yul\":8755:8764   */\n      add\n        /* \"#utility.yul\":8748:8764   */\n      swap1\n      pop\n        /* \"#utility.yul\":8465:8770   */\n      swap3\n      swap2\n      pop\n      pop\n      jump\t// out\n        /* \"#utility.yul\":8776:8872   */\n    tag_193:\n        /* \"#utility.yul\":8813:8820   */\n      0x00\n        /* \"#utility.yul\":8842:8866   */\n      tag_273\n        /* \"#utility.yul\":8860:8865   */\n      dup3\n        /* \"#utility.yul\":8842:8866   */\n      tag_274\n      jump\t// in\n    tag_273:\n        /* \"#utility.yul\":8831:8866   */\n      swap1\n      pop\n        /* \"#utility.yul\":8776:8872   */\n      swap2\n      swap1\n      pop\n      jump\t// out\n        /* \"#utility.yul\":8878:8968   */\n    tag_200:\n        /* \"#utility.yul\":8912:8919   */\n      0x00\n        /* \"#utility.yul\":8955:8960   */\n      dup2\n        /* \"#utility.yul\":8948:8961   */\n      iszero\n        /* \"#utility.yul\":8941:8962   */\n      iszero\n        /* \"#utility.yul\":8930:8962   */\n      swap1\n      pop\n        /* \"#utility.yul\":8878:8968   */\n      swap2\n      swap1\n      pop\n      jump\t// out\n        /* \"#utility.yul\":8974:9100   */\n    tag_274:\n        /* \"#utility.yul\":9011:9018   */\n      0x00\n        /* \"#utility.yul\":9051:9093   */\n      0xffffffffffffffffffffffffffffffffffffffff\n        /* \"#utility.yul\":9044:9049   */\n      dup3\n        /* \"#utility.yul\":9040:9094   */\n      and\n        /* \"#utility.yul\":9029:9094   */\n      swap1\n      pop\n        /* \"#utility.yul\":8974:9100   */\n      swap2\n      swap1\n      pop\n      jump\t// out\n        /* \"#utility.yul\":9106:9183   */\n    tag_235:\n        /* \"#utility.yul\":9143:9150   */\n      0x00\n        /* \"#utility.yul\":9172:9177   */\n      dup2\n        /* \"#utility.yul\":9161:9177   */\n      swap1\n      pop\n        /* \"#utility.yul\":9106:9183   */\n      swap2\n      swap1\n      pop\n      jump\t// out\n        /* \"#utility.yul\":9189:9343   */\n    tag_152:\n        /* \"#utility.yul\":9273:9279   */\n      dup3\n        /* \"#utility.yul\":9268:9271   */\n      dup2\n        /* \"#utility.yul\":9263:9266   */\n      dup4\n        /* \"#utility.yul\":9250:9280   */\n      calldatacopy\n        /* \"#utility.yul\":9335:9336   */\n      0x00\n        /* \"#utility.yul\":9326:9332   */\n      dup4\n        /* \"#utility.yul\":9321:9324   */\n      dup4\n        /* \"#utility.yul\":9317:9333   */\n      add\n        /* \"#utility.yul\":9310:9337   */\n      mstore\n        /* \"#utility.yul\":9189:9343   */\n      pop\n      pop\n      pop\n      jump\t// out\n        /* \"#utility.yul\":9349:9656   */\n    tag_211:\n        /* \"#utility.yul\":9417:9418   */\n      0x00\n        /* \"#utility.yul\":9427:9540   */\n    tag_280:\n        /* \"#utility.yul\":9441:9447   */\n      dup4\n        /* \"#utility.yul\":9438:9439   */\n      dup2\n        /* \"#utility.yul\":9435:9448   */\n      lt\n        /* \"#utility.yul\":9427:9540   */\n      iszero\n      tag_282\n      jumpi\n        /* \"#utility.yul\":9526:9527   */\n      dup1\n        /* \"#utility.yul\":9521:9524   */\n      dup3\n        /* \"#utility.yul\":9517:9528   */\n      add\n        /* \"#utility.yul\":9511:9529   */\n      mload\n        /* \"#utility.yul\":9507:9508   */\n      dup2\n        /* \"#utility.yul\":9502:9505   */\n      dup5\n        /* \"#utility.yul\":9498:9509   */\n      add\n        /* \"#utility.yul\":9491:9530   */\n      mstore\n        /* \"#utility.yul\":9463:9465   */\n      0x20\n        /* \"#utility.yul\":9460:9461   */\n      dup2\n        /* \"#utility.yul\":9456:9466   */\n      add\n        /* \"#utility.yul\":9451:9466   */\n      swap1\n      pop\n        /* \"#utility.yul\":9427:9540   */\n      jump(tag_280)\n    tag_282:\n        /* \"#utility.yul\":9558:9564   */\n      dup4\n        /* \"#utility.yul\":9555:9556   */\n      dup2\n        /* \"#utility.yul\":9552:9565   */\n      gt\n        /* \"#utility.yul\":9549:9650   */\n      iszero\n      tag_283\n      jumpi\n        /* \"#utility.yul\":9638:9639   */\n      0x00\n        /* \"#utility.yul\":9629:9635   */\n      dup5\n        /* \"#utility.yul\":9624:9627   */\n      dup5\n        /* \"#utility.yul\":9620:9636   */\n      add\n        /* \"#utility.yul\":9613:9640   */\n      mstore\n        /* \"#utility.yul\":9549:9650   */\n    tag_283:\n        /* \"#utility.yul\":9398:9656   */\n      pop\n        /* \"#utility.yul\":9349:9656   */\n      pop\n      pop\n      pop\n      jump\t// out\n        /* \"#utility.yul\":9662:9982   */\n    tag_64:\n        /* \"#utility.yul\":9706:9712   */\n      0x00\n        /* \"#utility.yul\":9743:9744   */\n      0x02\n        /* \"#utility.yul\":9737:9741   */\n      dup3\n        /* \"#utility.yul\":9733:9745   */\n      div\n        /* \"#utility.yul\":9723:9745   */\n      swap1\n      pop\n        /* \"#utility.yul\":9790:9791   */\n      0x01\n        /* \"#utility.yul\":9784:9788   */\n      dup3\n        /* \"#utility.yul\":9780:9792   */\n      and\n        /* \"#utility.yul\":9811:9829   */\n      dup1\n        /* \"#utility.yul\":9801:9882   */\n      tag_285\n      jumpi\n        /* \"#utility.yul\":9867:9871   */\n      0x7f\n        /* \"#utility.yul\":9859:9865   */\n      dup3\n        /* \"#utility.yul\":9855:9872   */\n      and\n        /* \"#utility.yul\":9845:9872   */\n      swap2\n      pop\n        /* \"#utility.yul\":9801:9882   */\n    tag_285:\n        /* \"#utility.yul\":9929:9931   */\n      0x20\n        /* \"#utility.yul\":9921:9927   */\n      dup3\n        /* \"#utility.yul\":9918:9932   */\n      lt\n        /* \"#utility.yul\":9898:9916   */\n      dup2\n        /* \"#utility.yul\":9895:9933   */\n      eq\n        /* \"#utility.yul\":9892:9976   */\n      iszero\n      tag_286\n      jumpi\n        /* \"#utility.yul\":9948:9966   */\n      tag_287\n      tag_288\n      jump\t// in\n    tag_287:\n        /* \"#utility.yul\":9892:9976   */\n    tag_286:\n        /* \"#utility.yul\":9713:9982   */\n      pop\n        /* \"#utility.yul\":9662:9982   */\n      swap2\n      swap1\n      pop\n      jump\t// out\n        /* \"#utility.yul\":9988:10269   */\n    tag_256:\n        /* \"#utility.yul\":10071:10098   */\n      tag_290\n        /* \"#utility.yul\":10093:10097   */\n      dup3\n        /* \"#utility.yul\":10071:10098   */\n      tag_213\n      jump\t// in\n    tag_290:\n        /* \"#utility.yul\":10063:10069   */\n      dup2\n        /* \"#utility.yul\":10059:10099   */\n      add\n        /* \"#utility.yul\":10201:10207   */\n      dup2\n        /* \"#utility.yul\":10189:10199   */\n      dup2\n        /* \"#utility.yul\":10186:10208   */\n      lt\n        /* \"#utility.yul\":10165:10183   */\n      0xffffffffffffffff\n        /* \"#utility.yul\":10153:10163   */\n      dup3\n        /* \"#utility.yul\":10150:10184   */\n      gt\n        /* \"#utility.yul\":10147:10209   */\n      or\n        /* \"#utility.yul\":10144:10232   */\n      iszero\n      tag_291\n      jumpi\n        /* \"#utility.yul\":10212:10230   */\n      tag_292\n      tag_261\n      jump\t// in\n    tag_292:\n        /* \"#utility.yul\":10144:10232   */\n    tag_291:\n        /* \"#utility.yul\":10252:10262   */\n      dup1\n        /* \"#utility.yul\":10248:10250   */\n      0x40\n        /* \"#utility.yul\":10241:10263   */\n      mstore\n        /* \"#utility.yul\":10031:10269   */\n      pop\n        /* \"#utility.yul\":9988:10269   */\n      pop\n      pop\n      jump\t// out\n        /* \"#utility.yul\":10275:10508   */\n    tag_94:\n        /* \"#utility.yul\":10314:10317   */\n      0x00\n        /* \"#utility.yul\":10337:10361   */\n      tag_294\n        /* \"#utility.yul\":10355:10360   */\n      dup3\n        /* \"#utility.yul\":10337:10361   */\n      tag_235\n      jump\t// in\n    tag_294:\n        /* \"#utility.yul\":10328:10361   */\n      swap2\n      pop\n        /* \"#utility.yul\":10383:10449   */\n      0xffffffffffffffffffffffffffffffffffffffffffffffffffffffffffffffff\n        /* \"#utility.yul\":10376:10381   */\n      dup3\n        /* \"#utility.yul\":10373:10450   */\n      eq\n        /* \"#utility.yul\":10370:10473   */\n      iszero\n      tag_295\n      jumpi\n        /* \"#utility.yul\":10453:10471   */\n      tag_296\n      tag_271\n      jump\t// in\n    tag_296:\n        /* \"#utility.yul\":10370:10473   */\n    tag_295:\n        /* \"#utility.yul\":10500:10501   */\n      0x01\n        /* \"#utility.yul\":10493:10498   */\n      dup3\n        /* \"#utility.yul\":10489:10502   */\n      add\n        /* \"#utility.yul\":10482:10502   */\n      swap1\n      pop\n        /* \"#utility.yul\":10275:10508   */\n      swap2\n      swap1\n      pop\n      jump\t// out\n        /* \"#utility.yul\":10514:10694   */\n    tag_271:\n        /* \"#utility.yul\":10562:10639   */\n      0x4e487b7100000000000000000000000000000000000000000000000000000000\n        /* \"#utility.yul\":10559:10560   */\n      0x00\n        /* \"#utility.yul\":10552:10640   */\n      mstore\n        /* \"#utility.yul\":10659:10663   */\n      0x11\n        /* \"#utility.yul\":10656:10657   */\n      0x04\n        /* \"#utility.yul\":10649:10664   */\n      mstore\n        /* \"#utility.yul\":10683:10687   */\n      0x24\n        /* \"#utility.yul\":10680:10681   */\n      0x00\n        /* \"#utility.yul\":10673:10688   */\n      revert\n        /* \"#utility.yul\":10700:10880   */\n    tag_288:\n        /* \"#utility.yul\":10748:10825   */\n      0x4e487b7100000000000000000000000000000000000000000000000000000000\n        /* \"#utility.yul\":10745:10746   */\n      0x00\n        /* \"#utility.yul\":10738:10826   */\n      mstore\n        /* \"#utility.yul\":10845:10849   */\n      0x22\n        /* \"#utility.yul\":10842:10843   */\n      0x04\n        /* \"#utility.yul\":10835:10850   */\n      mstore\n        /* \"#utility.yul\":10869:10873   */\n      0x24\n        /* \"#utility.yul\":10866:10867   */\n      0x00\n        /* \"#utility.yul\":10859:10874   */\n      revert\n        /* \"#utility.yul\":10886:11066   */\n    tag_79:\n        /* \"#utility.yul\":10934:11011   */\n      0x4e487b7100000000000000000000000000000000000000000000000000000000\n        /* \"#utility.yul\":10931:10932   */\n      0x00\n        /* \"#utility.yul\":10924:11012   */\n      mstore\n        /* \"#utility.yul\":11031:11035   */\n      0x32\n        /* \"#utility.yul\":11028:11029   */\n      0x04\n        /* \"#utility.yul\":11021:11036   */\n      mstore\n        /* \"#utility.yul\":11055:11059   */\n      0x24\n        /* \"#utility.yul\":11052:11053   */\n      0x00\n        /* \"#utility.yul\":11045:11060   */\n      revert\n        /* \"#utility.yul\":11072:11252   */\n    tag_261:\n        /* \"#utility.yul\":11120:11197   */\n      0x4e487b7100000000000000000000000000000000000000000000000000000000\n        /* \"#utility.yul\":11117:11118   */\n      0x00\n        /* \"#utility.yul\":11110:11198   */\n      mstore\n        /* \"#utility.yul\":11217:11221   */\n      0x41\n        /* \"#utility.yul\":11214:11215   */\n      0x04\n        /* \"#utility.yul\":11207:11222   */\n      mstore\n        /* \"#utility.yul\":11241:11245   */\n      0x24\n        /* \"#utility.yul\":11238:11239   */\n      0x00\n        /* \"#utility.yul\":11231:11246   */\n      revert\n        /* \"#utility.yul\":11258:11375   */\n    tag_165:\n        /* \"#utility.yul\":11367:11368   */\n      0x00\n        /* \"#utility.yul\":11364:11365   */\n      dup1\n        /* \"#utility.yul\":11357:11369   */\n      revert\n        /* \"#utility.yul\":11381:11498   */\n    tag_150:\n        /* \"#utility.yul\":11490:11491   */\n      0x00\n        /* \"#utility.yul\":11487:11488   */\n      dup1\n        /* \"#utility.yul\":11480:11492   */\n      revert\n        /* \"#utility.yul\":11504:11621   */\n    tag_182:\n        /* \"#utility.yul\":11613:11614   */\n      0x00\n        /* \"#utility.yul\":11610:11611   */\n      dup1\n        /* \"#utility.yul\":11603:11615   */\n      revert\n        /* \"#utility.yul\":11627:11744   */\n    tag_174:\n        /* \"#utility.yul\":11736:11737   */\n      0x00\n        /* \"#utility.yul\":11733:11734   */\n      dup1\n        /* \"#utility.yul\":11726:11738   */\n      revert\n        /* \"#utility.yul\":11750:11852   */\n    tag_213:\n        /* \"#utility.yul\":11791:11797   */\n      0x00\n        /* \"#utility.yul\":11842:11844   */\n      0x1f\n        /* \"#utility.yul\":11838:11845   */\n      not\n        /* \"#utility.yul\":11833:11835   */\n      0x1f\n        /* \"#utility.yul\":11826:11831   */\n      dup4\n        /* \"#utility.yul\":11822:11836   */\n      add\n        /* \"#utility.yul\":11818:11846   */\n      and\n        /* \"#utility.yul\":11808:11846   */\n      swap1\n      pop\n        /* \"#utility.yul\":11750:11852   */\n      swap2\n      swap1\n      pop\n      jump\t// out\n        /* \"#utility.yul\":11858:12030   */\n    tag_225:\n        /* \"#utility.yul\":11998:12022   */\n      0x496e76616c69642057616c6c6574204164647265737300000000000000000000\n        /* \"#utility.yul\":11994:11995   */\n      0x00\n        /* \"#utility.yul\":11986:11992   */\n      dup3\n        /* \"#utility.yul\":11982:11996   */\n      add\n        /* \"#utility.yul\":11975:12023   */\n      mstore\n        /* \"#utility.yul\":11858:12030   */\n      pop\n      jump\t// out\n        /* \"#utility.yul\":12036:12158   */\n    tag_156:\n        /* \"#utility.yul\":12109:12133   */\n      tag_308\n        /* \"#utility.yul\":12127:12132   */\n      dup2\n        /* \"#utility.yul\":12109:12133   */\n      tag_193\n      jump\t// in\n    tag_308:\n        /* \"#utility.yul\":12102:12107   */\n      dup2\n        /* \"#utility.yul\":12099:12134   */\n      eq\n        /* \"#utility.yul\":12089:12152   */\n      tag_309\n      jumpi\n        /* \"#utility.yul\":12148:12149   */\n      0x00\n        /* \"#utility.yul\":12145:12146   */\n      dup1\n        /* \"#utility.yul\":12138:12150   */\n      revert\n        /* \"#utility.yul\":12089:12152   */\n    tag_309:\n        /* \"#utility.yul\":12036:12158   */\n      pop\n      jump\t// out\n        /* \"#utility.yul\":12164:12280   */\n    tag_160:\n        /* \"#utility.yul\":12234:12255   */\n      tag_311\n        /* \"#utility.yul\":12249:12254   */\n      dup2\n        /* \"#utility.yul\":12234:12255   */\n      tag_200\n      jump\t// in\n    tag_311:\n        /* \"#utility.yul\":12227:12232   */\n      dup2\n        /* \"#utility.yul\":12224:12256   */\n      eq\n        /* \"#utility.yul\":12214:12274   */\n      tag_312\n      jumpi\n        /* \"#utility.yul\":12270:12271   */\n      0x00\n        /* \"#utility.yul\":12267:12268   */\n      dup1\n        /* \"#utility.yul\":12260:12272   */\n      revert\n        /* \"#utility.yul\":12214:12274   */\n    tag_312:\n        /* \"#utility.yul\":12164:12280   */\n      pop\n      jump\t// out\n        /* \"#utility.yul\":12286:12408   */\n    tag_170:\n        /* \"#utility.yul\":12359:12383   */\n      tag_314\n        /* \"#utility.yul\":12377:12382   */\n      dup2\n        /* \"#utility.yul\":12359:12383   */\n      tag_235\n      jump\t// in\n    tag_314:\n        /* \"#utility.yul\":12352:12357   */\n      dup2\n        /* \"#utility.yul\":12349:12384   */\n      eq\n        /* \"#utility.yul\":12339:12402   */\n      tag_315\n      jumpi\n        /* \"#utility.yul\":12398:12399   */\n      0x00\n        /* \"#utility.yul\":12395:12396   */\n      dup1\n        /* \"#utility.yul\":12388:12400   */\n      revert\n        /* \"#utility.yul\":12339:12402   */\n    tag_315:\n        /* \"#utility.yul\":12286:12408   */\n      pop\n      jump\t// out\n\n    auxdata: 0xa2646970667358221220038fafb50167b8b10c39b56943455c4558f50a3e39856aaa5e3c3de22431384f64736f6c63430008070033\n}\n",
				"bytecode": {
					"linkReferences": {},
					"object": "608060405234801561001057600080fd5b50336000806101000a81548173ffffffffffffffffffffffffffffffffffffffff021916908373ffffffffffffffffffffffffffffffffffffffff160217905550611230806100606000396000f3fe60806040526004361061007b5760003560e01c806369c212f61161004e57806369c212f6146101425780636f7bc9be1461017f57806370a08231146101bf578063d7bed4bc146101fc5761007b565b80631a69523014610080578063280879e71461009c578063365b98b2146100c55780634140eb0d14610105575b600080fd5b61009a60048036038101906100959190610ba9565b610225565b005b3480156100a857600080fd5b506100c360048036038101906100be9190610bd6565b610231565b005b3480156100d157600080fd5b506100ec60048036038101906100e79190610c59565b61032b565b6040516100fc9493929190610dd8565b60405180910390f35b34801561011157600080fd5b5061012c60048036038101906101279190610ba9565b610420565b6040516101399190610e24565b60405180910390f35b34801561014e57600080fd5b5061016960048036038101906101649190610ba9565b61043b565b6040516101769190610e5f565b60405180910390f35b34801561018b57600080fd5b506101a660048036038101906101a19190610ba9565b610698565b6040516101b69493929190610dd8565b60405180910390f35b3480156101cb57600080fd5b506101e660048036038101906101e19190610ba9565b61077d565b6040516101f39190610e81565b60405180910390f35b34801561020857600080fd5b50610223600480360381019061021e9190610ba9565b610858565b005b61022e8161093a565b50565b600160405180608001604052808673ffffffffffffffffffffffffffffffffffffffff168152602001858152602001848152602001831515815250908060018154018082558091505060019003906000526020600020906004020160009091909190915060008201518160000160006101000a81548173ffffffffffffffffffffffffffffffffffffffff021916908373ffffffffffffffffffffffffffffffffffffffff16021790555060208201518160010190805190602001906102f8929190610a17565b506040820151816002015560608201518160030160006101000a81548160ff021916908315150217905550505050505050565b6001818154811061033b57600080fd5b90600052602060002090600402016000915090508060000160009054906101000a900473ffffffffffffffffffffffffffffffffffffffff169080600101805461038490610fff565b80601f01602080910402602001604051908101604052809291908181526020018280546103b090610fff565b80156103fd5780601f106103d2576101008083540402835291602001916103fd565b820191906000526020600020905b8154815290600101906020018083116103e057829003601f168201915b5050505050908060020154908060030160009054906101000a900460ff16905084565b60008061042c8361043b565b90508060600151915050919050565b610443610a9d565b60005b600180549050811015610657578273ffffffffffffffffffffffffffffffffffffffff166001828154811061047e5761047d611109565b5b906000526020600020906004020160000160009054906101000a900473ffffffffffffffffffffffffffffffffffffffff1673ffffffffffffffffffffffffffffffffffffffff1614156106445760011515600182815481106104e4576104e3611109565b5b906000526020600020906004020160030160009054906101000a905050506001818154811061051657610515611109565b5b90600052602060002090600402016040518060800160405290816000820160009054906101000a900473ffffffffffffffffffffffffffffffffffffffff1673ffffffffffffffffffffffffffffffffffffffff1673ffffffffffffffffffffffffffffffffffffffff16815260200160018201805461059590610fff565b80601f01602080910402602001604051908101604052809291908181526020018280546105c190610fff565b801561060e5780601f106105e35761010080835404028352916020019161060e565b820191906000526020600020905b8154815290600101906020018083116105f157829003601f168201915b50505050508152602001600282015481526020016003820160009054906101000a900460ff161515151581525050915050610693565b808061064f90611062565b915050610446565b506040517f08c379a000000000000000000000000000000000000000000000000000000000815260040161068a90610e3f565b60405180910390fd5b919050565b60026020528060005260406000206000915090508060000160009054906101000a900473ffffffffffffffffffffffffffffffffffffffff16908060010180546106e190610fff565b80601f016020809104026020016040519081016040528092919081815260200182805461070d90610fff565b801561075a5780601f1061072f5761010080835404028352916020019161075a565b820191906000526020600020905b81548152906001019060200180831161073d57829003601f168201915b5050505050908060020154908060030160009054906101000a900460ff16905084565b600080600090505b60018054905081101561084c578273ffffffffffffffffffffffffffffffffffffffff16600182815481106107bd576107bc611109565b5b906000526020600020906004020160000160009054906101000a900473ffffffffffffffffffffffffffffffffffffffff1673ffffffffffffffffffffffffffffffffffffffff161415610839576001818154811061081f5761081e611109565b5b906000526020600020906004020160020154915050610853565b808061084490611062565b915050610785565b506103e790505b919050565b60006108638261043b565b905080600260008473ffffffffffffffffffffffffffffffffffffffff1673ffffffffffffffffffffffffffffffffffffffff16815260200190815260200160002060008201518160000160006101000a81548173ffffffffffffffffffffffffffffffffffffffff021916908373ffffffffffffffffffffffffffffffffffffffff1602179055506020820151816001019080519060200190610908929190610a17565b506040820151816002015560608201518160030160006101000a81548160ff0219169083151502179055509050505050565b60005b600180549050811015610a13578173ffffffffffffffffffffffffffffffffffffffff166001828154811061097557610974611109565b5b906000526020600020906004020160000160009054906101000a900473ffffffffffffffffffffffffffffffffffffffff1673ffffffffffffffffffffffffffffffffffffffff161415610a005734600182815481106109d8576109d7611109565b5b906000526020600020906004020160020160008282546109f89190610f1f565b925050819055505b8080610a0b90611062565b91505061093d565b5050565b828054610a2390610fff565b90600052602060002090601f016020900481019282610a455760008555610a8c565b82601f10610a5e57805160ff1916838001178555610a8c565b82800160010185558215610a8c579182015b82811115610a8b578251825591602001919060010190610a70565b5b509050610a999190610add565b5090565b6040518060800160405280600073ffffffffffffffffffffffffffffffffffffffff16815260200160608152602001600081526020016000151581525090565b5b80821115610af6576000816000905550600101610ade565b5090565b6000610b0d610b0884610ec1565b610e9c565b905082815260208101848484011115610b2957610b2861116c565b5b610b34848285610fbd565b509392505050565b600081359050610b4b816111b5565b92915050565b600081359050610b60816111cc565b92915050565b600082601f830112610b7b57610b7a611167565b5b8135610b8b848260208601610afa565b91505092915050565b600081359050610ba3816111e3565b92915050565b600060208284031215610bbf57610bbe611176565b5b6000610bcd84828501610b3c565b91505092915050565b60008060008060808587031215610bf057610bef611176565b5b6000610bfe87828801610b3c565b945050602085013567ffffffffffffffff811115610c1f57610c1e611171565b5b610c2b87828801610b66565b9350506040610c3c87828801610b94565b9250506060610c4d87828801610b51565b91505092959194509250565b600060208284031215610c6f57610c6e611176565b5b6000610c7d84828501610b94565b91505092915050565b610c8f81610f75565b82525050565b610c9e81610f75565b82525050565b610cad81610f87565b82525050565b610cbc81610f87565b82525050565b6000610ccd82610ef2565b610cd78185610efd565b9350610ce7818560208601610fcc565b610cf08161117b565b840191505092915050565b6000610d0682610ef2565b610d108185610f0e565b9350610d20818560208601610fcc565b610d298161117b565b840191505092915050565b6000610d41601683610f0e565b9150610d4c8261118c565b602082019050919050565b6000608083016000830151610d6f6000860182610c86565b5060208301518482036020860152610d878282610cc2565b9150506040830151610d9c6040860182610dba565b506060830151610daf6060860182610ca4565b508091505092915050565b610dc381610fb3565b82525050565b610dd281610fb3565b82525050565b6000608082019050610ded6000830187610c95565b8181036020830152610dff8186610cfb565b9050610e0e6040830185610dc9565b610e1b6060830184610cb3565b95945050505050565b6000602082019050610e396000830184610cb3565b92915050565b60006020820190508181036000830152610e5881610d34565b9050919050565b60006020820190508181036000830152610e798184610d57565b905092915050565b6000602082019050610e966000830184610dc9565b92915050565b6000610ea6610eb7565b9050610eb28282611031565b919050565b6000604051905090565b600067ffffffffffffffff821115610edc57610edb611138565b5b610ee58261117b565b9050602081019050919050565b600081519050919050565b600082825260208201905092915050565b600082825260208201905092915050565b6000610f2a82610fb3565b9150610f3583610fb3565b9250827fffffffffffffffffffffffffffffffffffffffffffffffffffffffffffffffff03821115610f6a57610f696110ab565b5b828201905092915050565b6000610f8082610f93565b9050919050565b60008115159050919050565b600073ffffffffffffffffffffffffffffffffffffffff82169050919050565b6000819050919050565b82818337600083830152505050565b60005b83811015610fea578082015181840152602081019050610fcf565b83811115610ff9576000848401525b50505050565b6000600282049050600182168061101757607f821691505b6020821081141561102b5761102a6110da565b5b50919050565b61103a8261117b565b810181811067ffffffffffffffff8211171561105957611058611138565b5b80604052505050565b600061106d82610fb3565b91507fffffffffffffffffffffffffffffffffffffffffffffffffffffffffffffffff8214156110a05761109f6110ab565b5b600182019050919050565b7f4e487b7100000000000000000000000000000000000000000000000000000000600052601160045260246000fd5b7f4e487b7100000000000000000000000000000000000000000000000000000000600052602260045260246000fd5b7f4e487b7100000000000000000000000000000000000000000000000000000000600052603260045260246000fd5b7f4e487b7100000000000000000000000000000000000000000000000000000000600052604160045260246000fd5b600080fd5b600080fd5b600080fd5b600080fd5b6000601f19601f8301169050919050565b7f496e76616c69642057616c6c6574204164647265737300000000000000000000600082015250565b6111be81610f75565b81146111c957600080fd5b50565b6111d581610f87565b81146111e057600080fd5b50565b6111ec81610fb3565b81146111f757600080fd5b5056fea2646970667358221220038fafb50167b8b10c39b56943455c4558f50a3e39856aaa5e3c3de22431384f64736f6c63430008070033",
					"opcodes": "PUSH1 0x80 PUSH1 0x40 MSTORE CALLVALUE DUP1 ISZERO PUSH2 0x10 JUMPI PUSH1 0x0 DUP1 REVERT JUMPDEST POP CALLER PUSH1 0x0 DUP1 PUSH2 0x100 EXP DUP2 SLOAD DUP2 PUSH20 0xFFFFFFFFFFFFFFFFFFFFFFFFFFFFFFFFFFFFFFFF MUL NOT AND SWAP1 DUP4 PUSH20 0xFFFFFFFFFFFFFFFFFFFFFFFFFFFFFFFFFFFFFFFF AND MUL OR SWAP1 SSTORE POP PUSH2 0x1230 DUP1 PUSH2 0x60 PUSH1 0x0 CODECOPY PUSH1 0x0 RETURN INVALID PUSH1 0x80 PUSH1 0x40 MSTORE PUSH1 0x4 CALLDATASIZE LT PUSH2 0x7B JUMPI PUSH1 0x0 CALLDATALOAD PUSH1 0xE0 SHR DUP1 PUSH4 0x69C212F6 GT PUSH2 0x4E JUMPI DUP1 PUSH4 0x69C212F6 EQ PUSH2 0x142 JUMPI DUP1 PUSH4 0x6F7BC9BE EQ PUSH2 0x17F JUMPI DUP1 PUSH4 0x70A08231 EQ PUSH2 0x1BF JUMPI DUP1 PUSH4 0xD7BED4BC EQ PUSH2 0x1FC JUMPI PUSH2 0x7B JUMP JUMPDEST DUP1 PUSH4 0x1A695230 EQ PUSH2 0x80 JUMPI DUP1 PUSH4 0x280879E7 EQ PUSH2 0x9C JUMPI DUP1 PUSH4 0x365B98B2 EQ PUSH2 0xC5 JUMPI DUP1 PUSH4 0x4140EB0D EQ PUSH2 0x105 JUMPI JUMPDEST PUSH1 0x0 DUP1 REVERT JUMPDEST PUSH2 0x9A PUSH1 0x4 DUP1 CALLDATASIZE SUB DUP2 ADD SWAP1 PUSH2 0x95 SWAP2 SWAP1 PUSH2 0xBA9 JUMP JUMPDEST PUSH2 0x225 JUMP JUMPDEST STOP JUMPDEST CALLVALUE DUP1 ISZERO PUSH2 0xA8 JUMPI PUSH1 0x0 DUP1 REVERT JUMPDEST POP PUSH2 0xC3 PUSH1 0x4 DUP1 CALLDATASIZE SUB DUP2 ADD SWAP1 PUSH2 0xBE SWAP2 SWAP1 PUSH2 0xBD6 JUMP JUMPDEST PUSH2 0x231 JUMP JUMPDEST STOP JUMPDEST CALLVALUE DUP1 ISZERO PUSH2 0xD1 JUMPI PUSH1 0x0 DUP1 REVERT JUMPDEST POP PUSH2 0xEC PUSH1 0x4 DUP1 CALLDATASIZE SUB DUP2 ADD SWAP1 PUSH2 0xE7 SWAP2 SWAP1 PUSH2 0xC59 JUMP JUMPDEST PUSH2 0x32B JUMP JUMPDEST PUSH1 0x40 MLOAD PUSH2 0xFC SWAP5 SWAP4 SWAP3 SWAP2 SWAP1 PUSH2 0xDD8 JUMP JUMPDEST PUSH1 0x40 MLOAD DUP1 SWAP2 SUB SWAP1 RETURN JUMPDEST CALLVALUE DUP1 ISZERO PUSH2 0x111 JUMPI PUSH1 0x0 DUP1 REVERT JUMPDEST POP PUSH2 0x12C PUSH1 0x4 DUP1 CALLDATASIZE SUB DUP2 ADD SWAP1 PUSH2 0x127 SWAP2 SWAP1 PUSH2 0xBA9 JUMP JUMPDEST PUSH2 0x420 JUMP JUMPDEST PUSH1 0x40 MLOAD PUSH2 0x139 SWAP2 SWAP1 PUSH2 0xE24 JUMP JUMPDEST PUSH1 0x40 MLOAD DUP1 SWAP2 SUB SWAP1 RETURN JUMPDEST CALLVALUE DUP1 ISZERO PUSH2 0x14E JUMPI PUSH1 0x0 DUP1 REVERT JUMPDEST POP PUSH2 0x169 PUSH1 0x4 DUP1 CALLDATASIZE SUB DUP2 ADD SWAP1 PUSH2 0x164 SWAP2 SWAP1 PUSH2 0xBA9 JUMP JUMPDEST PUSH2 0x43B JUMP JUMPDEST PUSH1 0x40 MLOAD PUSH2 0x176 SWAP2 SWAP1 PUSH2 0xE5F JUMP JUMPDEST PUSH1 0x40 MLOAD DUP1 SWAP2 SUB SWAP1 RETURN JUMPDEST CALLVALUE DUP1 ISZERO PUSH2 0x18B JUMPI PUSH1 0x0 DUP1 REVERT JUMPDEST POP PUSH2 0x1A6 PUSH1 0x4 DUP1 CALLDATASIZE SUB DUP2 ADD SWAP1 PUSH2 0x1A1 SWAP2 SWAP1 PUSH2 0xBA9 JUMP JUMPDEST PUSH2 0x698 JUMP JUMPDEST PUSH1 0x40 MLOAD PUSH2 0x1B6 SWAP5 SWAP4 SWAP3 SWAP2 SWAP1 PUSH2 0xDD8 JUMP JUMPDEST PUSH1 0x40 MLOAD DUP1 SWAP2 SUB SWAP1 RETURN JUMPDEST CALLVALUE DUP1 ISZERO PUSH2 0x1CB JUMPI PUSH1 0x0 DUP1 REVERT JUMPDEST POP PUSH2 0x1E6 PUSH1 0x4 DUP1 CALLDATASIZE SUB DUP2 ADD SWAP1 PUSH2 0x1E1 SWAP2 SWAP1 PUSH2 0xBA9 JUMP JUMPDEST PUSH2 0x77D JUMP JUMPDEST PUSH1 0x40 MLOAD PUSH2 0x1F3 SWAP2 SWAP1 PUSH2 0xE81 JUMP JUMPDEST PUSH1 0x40 MLOAD DUP1 SWAP2 SUB SWAP1 RETURN JUMPDEST CALLVALUE DUP1 ISZERO PUSH2 0x208 JUMPI PUSH1 0x0 DUP1 REVERT JUMPDEST POP PUSH2 0x223 PUSH1 0x4 DUP1 CALLDATASIZE SUB DUP2 ADD SWAP1 PUSH2 0x21E SWAP2 SWAP1 PUSH2 0xBA9 JUMP JUMPDEST PUSH2 0x858 JUMP JUMPDEST STOP JUMPDEST PUSH2 0x22E DUP2 PUSH2 0x93A JUMP JUMPDEST POP JUMP JUMPDEST PUSH1 0x1 PUSH1 0x40 MLOAD DUP1 PUSH1 0x80 ADD PUSH1 0x40 MSTORE DUP1 DUP7 PUSH20 0xFFFFFFFFFFFFFFFFFFFFFFFFFFFFFFFFFFFFFFFF AND DUP2 MSTORE PUSH1 0x20 ADD DUP6 DUP2 MSTORE PUSH1 0x20 ADD DUP5 DUP2 MSTORE PUSH1 0x20 ADD DUP4 ISZERO ISZERO DUP2 MSTORE POP SWAP1 DUP1 PUSH1 0x1 DUP2 SLOAD ADD DUP1 DUP3 SSTORE DUP1 SWAP2 POP POP PUSH1 0x1 SWAP1 SUB SWAP1 PUSH1 0x0 MSTORE PUSH1 0x20 PUSH1 0x0 KECCAK256 SWAP1 PUSH1 0x4 MUL ADD PUSH1 0x0 SWAP1 SWAP2 SWAP1 SWAP2 SWAP1 SWAP2 POP PUSH1 0x0 DUP3 ADD MLOAD DUP2 PUSH1 0x0 ADD PUSH1 0x0 PUSH2 0x100 EXP DUP2 SLOAD DUP2 PUSH20 0xFFFFFFFFFFFFFFFFFFFFFFFFFFFFFFFFFFFFFFFF MUL NOT AND SWAP1 DUP4 PUSH20 0xFFFFFFFFFFFFFFFFFFFFFFFFFFFFFFFFFFFFFFFF AND MUL OR SWAP1 SSTORE POP PUSH1 0x20 DUP3 ADD MLOAD DUP2 PUSH1 0x1 ADD SWAP1 DUP1 MLOAD SWAP1 PUSH1 0x20 ADD SWAP1 PUSH2 0x2F8 SWAP3 SWAP2 SWAP1 PUSH2 0xA17 JUMP JUMPDEST POP PUSH1 0x40 DUP3 ADD MLOAD DUP2 PUSH1 0x2 ADD SSTORE PUSH1 0x60 DUP3 ADD MLOAD DUP2 PUSH1 0x3 ADD PUSH1 0x0 PUSH2 0x100 EXP DUP2 SLOAD DUP2 PUSH1 0xFF MUL NOT AND SWAP1 DUP4 ISZERO ISZERO MUL OR SWAP1 SSTORE POP POP POP POP POP POP POP JUMP JUMPDEST PUSH1 0x1 DUP2 DUP2 SLOAD DUP2 LT PUSH2 0x33B JUMPI PUSH1 0x0 DUP1 REVERT JUMPDEST SWAP1 PUSH1 0x0 MSTORE PUSH1 0x20 PUSH1 0x0 KECCAK256 SWAP1 PUSH1 0x4 MUL ADD PUSH1 0x0 SWAP2 POP SWAP1 POP DUP1 PUSH1 0x0 ADD PUSH1 0x0 SWAP1 SLOAD SWAP1 PUSH2 0x100 EXP SWAP1 DIV PUSH20 0xFFFFFFFFFFFFFFFFFFFFFFFFFFFFFFFFFFFFFFFF AND SWAP1 DUP1 PUSH1 0x1 ADD DUP1 SLOAD PUSH2 0x384 SWAP1 PUSH2 0xFFF JUMP JUMPDEST DUP1 PUSH1 0x1F ADD PUSH1 0x20 DUP1 SWAP2 DIV MUL PUSH1 0x20 ADD PUSH1 0x40 MLOAD SWAP1 DUP2 ADD PUSH1 0x40 MSTORE DUP1 SWAP3 SWAP2 SWAP1 DUP2 DUP2 MSTORE PUSH1 0x20 ADD DUP3 DUP1 SLOAD PUSH2 0x3B0 SWAP1 PUSH2 0xFFF JUMP JUMPDEST DUP1 ISZERO PUSH2 0x3FD JUMPI DUP1 PUSH1 0x1F LT PUSH2 0x3D2 JUMPI PUSH2 0x100 DUP1 DUP4 SLOAD DIV MUL DUP4 MSTORE SWAP2 PUSH1 0x20 ADD SWAP2 PUSH2 0x3FD JUMP JUMPDEST DUP3 ADD SWAP2 SWAP1 PUSH1 0x0 MSTORE PUSH1 0x20 PUSH1 0x0 KECCAK256 SWAP1 JUMPDEST DUP2 SLOAD DUP2 MSTORE SWAP1 PUSH1 0x1 ADD SWAP1 PUSH1 0x20 ADD DUP1 DUP4 GT PUSH2 0x3E0 JUMPI DUP3 SWAP1 SUB PUSH1 0x1F AND DUP3 ADD SWAP2 JUMPDEST POP POP POP POP POP SWAP1 DUP1 PUSH1 0x2 ADD SLOAD SWAP1 DUP1 PUSH1 0x3 ADD PUSH1 0x0 SWAP1 SLOAD SWAP1 PUSH2 0x100 EXP SWAP1 DIV PUSH1 0xFF AND SWAP1 POP DUP5 JUMP JUMPDEST PUSH1 0x0 DUP1 PUSH2 0x42C DUP4 PUSH2 0x43B JUMP JUMPDEST SWAP1 POP DUP1 PUSH1 0x60 ADD MLOAD SWAP2 POP POP SWAP2 SWAP1 POP JUMP JUMPDEST PUSH2 0x443 PUSH2 0xA9D JUMP JUMPDEST PUSH1 0x0 JUMPDEST PUSH1 0x1 DUP1 SLOAD SWAP1 POP DUP2 LT ISZERO PUSH2 0x657 JUMPI DUP3 PUSH20 0xFFFFFFFFFFFFFFFFFFFFFFFFFFFFFFFFFFFFFFFF AND PUSH1 0x1 DUP3 DUP2 SLOAD DUP2 LT PUSH2 0x47E JUMPI PUSH2 0x47D PUSH2 0x1109 JUMP JUMPDEST JUMPDEST SWAP1 PUSH1 0x0 MSTORE PUSH1 0x20 PUSH1 0x0 KECCAK256 SWAP1 PUSH1 0x4 MUL ADD PUSH1 0x0 ADD PUSH1 0x0 SWAP1 SLOAD SWAP1 PUSH2 0x100 EXP SWAP1 DIV PUSH20 0xFFFFFFFFFFFFFFFFFFFFFFFFFFFFFFFFFFFFFFFF AND PUSH20 0xFFFFFFFFFFFFFFFFFFFFFFFFFFFFFFFFFFFFFFFF AND EQ ISZERO PUSH2 0x644 JUMPI PUSH1 0x1 ISZERO ISZERO PUSH1 0x1 DUP3 DUP2 SLOAD DUP2 LT PUSH2 0x4E4 JUMPI PUSH2 0x4E3 PUSH2 0x1109 JUMP JUMPDEST JUMPDEST SWAP1 PUSH1 0x0 MSTORE PUSH1 0x20 PUSH1 0x0 KECCAK256 SWAP1 PUSH1 0x4 MUL ADD PUSH1 0x3 ADD PUSH1 0x0 SWAP1 SLOAD SWAP1 PUSH2 0x100 EXP SWAP1 POP POP POP PUSH1 0x1 DUP2 DUP2 SLOAD DUP2 LT PUSH2 0x516 JUMPI PUSH2 0x515 PUSH2 0x1109 JUMP JUMPDEST JUMPDEST SWAP1 PUSH1 0x0 MSTORE PUSH1 0x20 PUSH1 0x0 KECCAK256 SWAP1 PUSH1 0x4 MUL ADD PUSH1 0x40 MLOAD DUP1 PUSH1 0x80 ADD PUSH1 0x40 MSTORE SWAP1 DUP2 PUSH1 0x0 DUP3 ADD PUSH1 0x0 SWAP1 SLOAD SWAP1 PUSH2 0x100 EXP SWAP1 DIV PUSH20 0xFFFFFFFFFFFFFFFFFFFFFFFFFFFFFFFFFFFFFFFF AND PUSH20 0xFFFFFFFFFFFFFFFFFFFFFFFFFFFFFFFFFFFFFFFF AND PUSH20 0xFFFFFFFFFFFFFFFFFFFFFFFFFFFFFFFFFFFFFFFF AND DUP2 MSTORE PUSH1 0x20 ADD PUSH1 0x1 DUP3 ADD DUP1 SLOAD PUSH2 0x595 SWAP1 PUSH2 0xFFF JUMP JUMPDEST DUP1 PUSH1 0x1F ADD PUSH1 0x20 DUP1 SWAP2 DIV MUL PUSH1 0x20 ADD PUSH1 0x40 MLOAD SWAP1 DUP2 ADD PUSH1 0x40 MSTORE DUP1 SWAP3 SWAP2 SWAP1 DUP2 DUP2 MSTORE PUSH1 0x20 ADD DUP3 DUP1 SLOAD PUSH2 0x5C1 SWAP1 PUSH2 0xFFF JUMP JUMPDEST DUP1 ISZERO PUSH2 0x60E JUMPI DUP1 PUSH1 0x1F LT PUSH2 0x5E3 JUMPI PUSH2 0x100 DUP1 DUP4 SLOAD DIV MUL DUP4 MSTORE SWAP2 PUSH1 0x20 ADD SWAP2 PUSH2 0x60E JUMP JUMPDEST DUP3 ADD SWAP2 SWAP1 PUSH1 0x0 MSTORE PUSH1 0x20 PUSH1 0x0 KECCAK256 SWAP1 JUMPDEST DUP2 SLOAD DUP2 MSTORE SWAP1 PUSH1 0x1 ADD SWAP1 PUSH1 0x20 ADD DUP1 DUP4 GT PUSH2 0x5F1 JUMPI DUP3 SWAP1 SUB PUSH1 0x1F AND DUP3 ADD SWAP2 JUMPDEST POP POP POP POP POP DUP2 MSTORE PUSH1 0x20 ADD PUSH1 0x2 DUP3 ADD SLOAD DUP2 MSTORE PUSH1 0x20 ADD PUSH1 0x3 DUP3 ADD PUSH1 0x0 SWAP1 SLOAD SWAP1 PUSH2 0x100 EXP SWAP1 DIV PUSH1 0xFF AND ISZERO ISZERO ISZERO ISZERO DUP2 MSTORE POP POP SWAP2 POP POP PUSH2 0x693 JUMP JUMPDEST DUP1 DUP1 PUSH2 0x64F SWAP1 PUSH2 0x1062 JUMP JUMPDEST SWAP2 POP POP PUSH2 0x446 JUMP JUMPDEST POP PUSH1 0x40 MLOAD PUSH32 0x8C379A000000000000000000000000000000000000000000000000000000000 DUP2 MSTORE PUSH1 0x4 ADD PUSH2 0x68A SWAP1 PUSH2 0xE3F JUMP JUMPDEST PUSH1 0x40 MLOAD DUP1 SWAP2 SUB SWAP1 REVERT JUMPDEST SWAP2 SWAP1 POP JUMP JUMPDEST PUSH1 0x2 PUSH1 0x20 MSTORE DUP1 PUSH1 0x0 MSTORE PUSH1 0x40 PUSH1 0x0 KECCAK256 PUSH1 0x0 SWAP2 POP SWAP1 POP DUP1 PUSH1 0x0 ADD PUSH1 0x0 SWAP1 SLOAD SWAP1 PUSH2 0x100 EXP SWAP1 DIV PUSH20 0xFFFFFFFFFFFFFFFFFFFFFFFFFFFFFFFFFFFFFFFF AND SWAP1 DUP1 PUSH1 0x1 ADD DUP1 SLOAD PUSH2 0x6E1 SWAP1 PUSH2 0xFFF JUMP JUMPDEST DUP1 PUSH1 0x1F ADD PUSH1 0x20 DUP1 SWAP2 DIV MUL PUSH1 0x20 ADD PUSH1 0x40 MLOAD SWAP1 DUP2 ADD PUSH1 0x40 MSTORE DUP1 SWAP3 SWAP2 SWAP1 DUP2 DUP2 MSTORE PUSH1 0x20 ADD DUP3 DUP1 SLOAD PUSH2 0x70D SWAP1 PUSH2 0xFFF JUMP JUMPDEST DUP1 ISZERO PUSH2 0x75A JUMPI DUP1 PUSH1 0x1F LT PUSH2 0x72F JUMPI PUSH2 0x100 DUP1 DUP4 SLOAD DIV MUL DUP4 MSTORE SWAP2 PUSH1 0x20 ADD SWAP2 PUSH2 0x75A JUMP JUMPDEST DUP3 ADD SWAP2 SWAP1 PUSH1 0x0 MSTORE PUSH1 0x20 PUSH1 0x0 KECCAK256 SWAP1 JUMPDEST DUP2 SLOAD DUP2 MSTORE SWAP1 PUSH1 0x1 ADD SWAP1 PUSH1 0x20 ADD DUP1 DUP4 GT PUSH2 0x73D JUMPI DUP3 SWAP1 SUB PUSH1 0x1F AND DUP3 ADD SWAP2 JUMPDEST POP POP POP POP POP SWAP1 DUP1 PUSH1 0x2 ADD SLOAD SWAP1 DUP1 PUSH1 0x3 ADD PUSH1 0x0 SWAP1 SLOAD SWAP1 PUSH2 0x100 EXP SWAP1 DIV PUSH1 0xFF AND SWAP1 POP DUP5 JUMP JUMPDEST PUSH1 0x0 DUP1 PUSH1 0x0 SWAP1 POP JUMPDEST PUSH1 0x1 DUP1 SLOAD SWAP1 POP DUP2 LT ISZERO PUSH2 0x84C JUMPI DUP3 PUSH20 0xFFFFFFFFFFFFFFFFFFFFFFFFFFFFFFFFFFFFFFFF AND PUSH1 0x1 DUP3 DUP2 SLOAD DUP2 LT PUSH2 0x7BD JUMPI PUSH2 0x7BC PUSH2 0x1109 JUMP JUMPDEST JUMPDEST SWAP1 PUSH1 0x0 MSTORE PUSH1 0x20 PUSH1 0x0 KECCAK256 SWAP1 PUSH1 0x4 MUL ADD PUSH1 0x0 ADD PUSH1 0x0 SWAP1 SLOAD SWAP1 PUSH2 0x100 EXP SWAP1 DIV PUSH20 0xFFFFFFFFFFFFFFFFFFFFFFFFFFFFFFFFFFFFFFFF AND PUSH20 0xFFFFFFFFFFFFFFFFFFFFFFFFFFFFFFFFFFFFFFFF AND EQ ISZERO PUSH2 0x839 JUMPI PUSH1 0x1 DUP2 DUP2 SLOAD DUP2 LT PUSH2 0x81F JUMPI PUSH2 0x81E PUSH2 0x1109 JUMP JUMPDEST JUMPDEST SWAP1 PUSH1 0x0 MSTORE PUSH1 0x20 PUSH1 0x0 KECCAK256 SWAP1 PUSH1 0x4 MUL ADD PUSH1 0x2 ADD SLOAD SWAP2 POP POP PUSH2 0x853 JUMP JUMPDEST DUP1 DUP1 PUSH2 0x844 SWAP1 PUSH2 0x1062 JUMP JUMPDEST SWAP2 POP POP PUSH2 0x785 JUMP JUMPDEST POP PUSH2 0x3E7 SWAP1 POP JUMPDEST SWAP2 SWAP1 POP JUMP JUMPDEST PUSH1 0x0 PUSH2 0x863 DUP3 PUSH2 0x43B JUMP JUMPDEST SWAP1 POP DUP1 PUSH1 0x2 PUSH1 0x0 DUP5 PUSH20 0xFFFFFFFFFFFFFFFFFFFFFFFFFFFFFFFFFFFFFFFF AND PUSH20 0xFFFFFFFFFFFFFFFFFFFFFFFFFFFFFFFFFFFFFFFF AND DUP2 MSTORE PUSH1 0x20 ADD SWAP1 DUP2 MSTORE PUSH1 0x20 ADD PUSH1 0x0 KECCAK256 PUSH1 0x0 DUP3 ADD MLOAD DUP2 PUSH1 0x0 ADD PUSH1 0x0 PUSH2 0x100 EXP DUP2 SLOAD DUP2 PUSH20 0xFFFFFFFFFFFFFFFFFFFFFFFFFFFFFFFFFFFFFFFF MUL NOT AND SWAP1 DUP4 PUSH20 0xFFFFFFFFFFFFFFFFFFFFFFFFFFFFFFFFFFFFFFFF AND MUL OR SWAP1 SSTORE POP PUSH1 0x20 DUP3 ADD MLOAD DUP2 PUSH1 0x1 ADD SWAP1 DUP1 MLOAD SWAP1 PUSH1 0x20 ADD SWAP1 PUSH2 0x908 SWAP3 SWAP2 SWAP1 PUSH2 0xA17 JUMP JUMPDEST POP PUSH1 0x40 DUP3 ADD MLOAD DUP2 PUSH1 0x2 ADD SSTORE PUSH1 0x60 DUP3 ADD MLOAD DUP2 PUSH1 0x3 ADD PUSH1 0x0 PUSH2 0x100 EXP DUP2 SLOAD DUP2 PUSH1 0xFF MUL NOT AND SWAP1 DUP4 ISZERO ISZERO MUL OR SWAP1 SSTORE POP SWAP1 POP POP POP POP JUMP JUMPDEST PUSH1 0x0 JUMPDEST PUSH1 0x1 DUP1 SLOAD SWAP1 POP DUP2 LT ISZERO PUSH2 0xA13 JUMPI DUP2 PUSH20 0xFFFFFFFFFFFFFFFFFFFFFFFFFFFFFFFFFFFFFFFF AND PUSH1 0x1 DUP3 DUP2 SLOAD DUP2 LT PUSH2 0x975 JUMPI PUSH2 0x974 PUSH2 0x1109 JUMP JUMPDEST JUMPDEST SWAP1 PUSH1 0x0 MSTORE PUSH1 0x20 PUSH1 0x0 KECCAK256 SWAP1 PUSH1 0x4 MUL ADD PUSH1 0x0 ADD PUSH1 0x0 SWAP1 SLOAD SWAP1 PUSH2 0x100 EXP SWAP1 DIV PUSH20 0xFFFFFFFFFFFFFFFFFFFFFFFFFFFFFFFFFFFFFFFF AND PUSH20 0xFFFFFFFFFFFFFFFFFFFFFFFFFFFFFFFFFFFFFFFF AND EQ ISZERO PUSH2 0xA00 JUMPI CALLVALUE PUSH1 0x1 DUP3 DUP2 SLOAD DUP2 LT PUSH2 0x9D8 JUMPI PUSH2 0x9D7 PUSH2 0x1109 JUMP JUMPDEST JUMPDEST SWAP1 PUSH1 0x0 MSTORE PUSH1 0x20 PUSH1 0x0 KECCAK256 SWAP1 PUSH1 0x4 MUL ADD PUSH1 0x2 ADD PUSH1 0x0 DUP3 DUP3 SLOAD PUSH2 0x9F8 SWAP2 SWAP1 PUSH2 0xF1F JUMP JUMPDEST SWAP3 POP POP DUP2 SWAP1 SSTORE POP JUMPDEST DUP1 DUP1 PUSH2 0xA0B SWAP1 PUSH2 0x1062 JUMP JUMPDEST SWAP2 POP POP PUSH2 0x93D JUMP JUMPDEST POP POP JUMP JUMPDEST DUP3 DUP1 SLOAD PUSH2 0xA23 SWAP1 PUSH2 0xFFF JUMP JUMPDEST SWAP1 PUSH1 0x0 MSTORE PUSH1 0x20 PUSH1 0x0 KECCAK256 SWAP1 PUSH1 0x1F ADD PUSH1 0x20 SWAP1 DIV DUP2 ADD SWAP3 DUP3 PUSH2 0xA45 JUMPI PUSH1 0x0 DUP6 SSTORE PUSH2 0xA8C JUMP JUMPDEST DUP3 PUSH1 0x1F LT PUSH2 0xA5E JUMPI DUP1 MLOAD PUSH1 0xFF NOT AND DUP4 DUP1 ADD OR DUP6 SSTORE PUSH2 0xA8C JUMP JUMPDEST DUP3 DUP1 ADD PUSH1 0x1 ADD DUP6 SSTORE DUP3 ISZERO PUSH2 0xA8C JUMPI SWAP2 DUP3 ADD JUMPDEST DUP3 DUP2 GT ISZERO PUSH2 0xA8B JUMPI DUP3 MLOAD DUP3 SSTORE SWAP2 PUSH1 0x20 ADD SWAP2 SWAP1 PUSH1 0x1 ADD SWAP1 PUSH2 0xA70 JUMP JUMPDEST JUMPDEST POP SWAP1 POP PUSH2 0xA99 SWAP2 SWAP1 PUSH2 0xADD JUMP JUMPDEST POP SWAP1 JUMP JUMPDEST PUSH1 0x40 MLOAD DUP1 PUSH1 0x80 ADD PUSH1 0x40 MSTORE DUP1 PUSH1 0x0 PUSH20 0xFFFFFFFFFFFFFFFFFFFFFFFFFFFFFFFFFFFFFFFF AND DUP2 MSTORE PUSH1 0x20 ADD PUSH1 0x60 DUP2 MSTORE PUSH1 0x20 ADD PUSH1 0x0 DUP2 MSTORE PUSH1 0x20 ADD PUSH1 0x0 ISZERO ISZERO DUP2 MSTORE POP SWAP1 JUMP JUMPDEST JUMPDEST DUP1 DUP3 GT ISZERO PUSH2 0xAF6 JUMPI PUSH1 0x0 DUP2 PUSH1 0x0 SWAP1 SSTORE POP PUSH1 0x1 ADD PUSH2 0xADE JUMP JUMPDEST POP SWAP1 JUMP JUMPDEST PUSH1 0x0 PUSH2 0xB0D PUSH2 0xB08 DUP5 PUSH2 0xEC1 JUMP JUMPDEST PUSH2 0xE9C JUMP JUMPDEST SWAP1 POP DUP3 DUP2 MSTORE PUSH1 0x20 DUP2 ADD DUP5 DUP5 DUP5 ADD GT ISZERO PUSH2 0xB29 JUMPI PUSH2 0xB28 PUSH2 0x116C JUMP JUMPDEST JUMPDEST PUSH2 0xB34 DUP5 DUP3 DUP6 PUSH2 0xFBD JUMP JUMPDEST POP SWAP4 SWAP3 POP POP POP JUMP JUMPDEST PUSH1 0x0 DUP2 CALLDATALOAD SWAP1 POP PUSH2 0xB4B DUP2 PUSH2 0x11B5 JUMP JUMPDEST SWAP3 SWAP2 POP POP JUMP JUMPDEST PUSH1 0x0 DUP2 CALLDATALOAD SWAP1 POP PUSH2 0xB60 DUP2 PUSH2 0x11CC JUMP JUMPDEST SWAP3 SWAP2 POP POP JUMP JUMPDEST PUSH1 0x0 DUP3 PUSH1 0x1F DUP4 ADD SLT PUSH2 0xB7B JUMPI PUSH2 0xB7A PUSH2 0x1167 JUMP JUMPDEST JUMPDEST DUP2 CALLDATALOAD PUSH2 0xB8B DUP5 DUP3 PUSH1 0x20 DUP7 ADD PUSH2 0xAFA JUMP JUMPDEST SWAP2 POP POP SWAP3 SWAP2 POP POP JUMP JUMPDEST PUSH1 0x0 DUP2 CALLDATALOAD SWAP1 POP PUSH2 0xBA3 DUP2 PUSH2 0x11E3 JUMP JUMPDEST SWAP3 SWAP2 POP POP JUMP JUMPDEST PUSH1 0x0 PUSH1 0x20 DUP3 DUP5 SUB SLT ISZERO PUSH2 0xBBF JUMPI PUSH2 0xBBE PUSH2 0x1176 JUMP JUMPDEST JUMPDEST PUSH1 0x0 PUSH2 0xBCD DUP5 DUP3 DUP6 ADD PUSH2 0xB3C JUMP JUMPDEST SWAP2 POP POP SWAP3 SWAP2 POP POP JUMP JUMPDEST PUSH1 0x0 DUP1 PUSH1 0x0 DUP1 PUSH1 0x80 DUP6 DUP8 SUB SLT ISZERO PUSH2 0xBF0 JUMPI PUSH2 0xBEF PUSH2 0x1176 JUMP JUMPDEST JUMPDEST PUSH1 0x0 PUSH2 0xBFE DUP8 DUP3 DUP9 ADD PUSH2 0xB3C JUMP JUMPDEST SWAP5 POP POP PUSH1 0x20 DUP6 ADD CALLDATALOAD PUSH8 0xFFFFFFFFFFFFFFFF DUP2 GT ISZERO PUSH2 0xC1F JUMPI PUSH2 0xC1E PUSH2 0x1171 JUMP JUMPDEST JUMPDEST PUSH2 0xC2B DUP8 DUP3 DUP9 ADD PUSH2 0xB66 JUMP JUMPDEST SWAP4 POP POP PUSH1 0x40 PUSH2 0xC3C DUP8 DUP3 DUP9 ADD PUSH2 0xB94 JUMP JUMPDEST SWAP3 POP POP PUSH1 0x60 PUSH2 0xC4D DUP8 DUP3 DUP9 ADD PUSH2 0xB51 JUMP JUMPDEST SWAP2 POP POP SWAP3 SWAP6 SWAP2 SWAP5 POP SWAP3 POP JUMP JUMPDEST PUSH1 0x0 PUSH1 0x20 DUP3 DUP5 SUB SLT ISZERO PUSH2 0xC6F JUMPI PUSH2 0xC6E PUSH2 0x1176 JUMP JUMPDEST JUMPDEST PUSH1 0x0 PUSH2 0xC7D DUP5 DUP3 DUP6 ADD PUSH2 0xB94 JUMP JUMPDEST SWAP2 POP POP SWAP3 SWAP2 POP POP JUMP JUMPDEST PUSH2 0xC8F DUP2 PUSH2 0xF75 JUMP JUMPDEST DUP3 MSTORE POP POP JUMP JUMPDEST PUSH2 0xC9E DUP2 PUSH2 0xF75 JUMP JUMPDEST DUP3 MSTORE POP POP JUMP JUMPDEST PUSH2 0xCAD DUP2 PUSH2 0xF87 JUMP JUMPDEST DUP3 MSTORE POP POP JUMP JUMPDEST PUSH2 0xCBC DUP2 PUSH2 0xF87 JUMP JUMPDEST DUP3 MSTORE POP POP JUMP JUMPDEST PUSH1 0x0 PUSH2 0xCCD DUP3 PUSH2 0xEF2 JUMP JUMPDEST PUSH2 0xCD7 DUP2 DUP6 PUSH2 0xEFD JUMP JUMPDEST SWAP4 POP PUSH2 0xCE7 DUP2 DUP6 PUSH1 0x20 DUP7 ADD PUSH2 0xFCC JUMP JUMPDEST PUSH2 0xCF0 DUP2 PUSH2 0x117B JUMP JUMPDEST DUP5 ADD SWAP2 POP POP SWAP3 SWAP2 POP POP JUMP JUMPDEST PUSH1 0x0 PUSH2 0xD06 DUP3 PUSH2 0xEF2 JUMP JUMPDEST PUSH2 0xD10 DUP2 DUP6 PUSH2 0xF0E JUMP JUMPDEST SWAP4 POP PUSH2 0xD20 DUP2 DUP6 PUSH1 0x20 DUP7 ADD PUSH2 0xFCC JUMP JUMPDEST PUSH2 0xD29 DUP2 PUSH2 0x117B JUMP JUMPDEST DUP5 ADD SWAP2 POP POP SWAP3 SWAP2 POP POP JUMP JUMPDEST PUSH1 0x0 PUSH2 0xD41 PUSH1 0x16 DUP4 PUSH2 0xF0E JUMP JUMPDEST SWAP2 POP PUSH2 0xD4C DUP3 PUSH2 0x118C JUMP JUMPDEST PUSH1 0x20 DUP3 ADD SWAP1 POP SWAP2 SWAP1 POP JUMP JUMPDEST PUSH1 0x0 PUSH1 0x80 DUP4 ADD PUSH1 0x0 DUP4 ADD MLOAD PUSH2 0xD6F PUSH1 0x0 DUP7 ADD DUP3 PUSH2 0xC86 JUMP JUMPDEST POP PUSH1 0x20 DUP4 ADD MLOAD DUP5 DUP3 SUB PUSH1 0x20 DUP7 ADD MSTORE PUSH2 0xD87 DUP3 DUP3 PUSH2 0xCC2 JUMP JUMPDEST SWAP2 POP POP PUSH1 0x40 DUP4 ADD MLOAD PUSH2 0xD9C PUSH1 0x40 DUP7 ADD DUP3 PUSH2 0xDBA JUMP JUMPDEST POP PUSH1 0x60 DUP4 ADD MLOAD PUSH2 0xDAF PUSH1 0x60 DUP7 ADD DUP3 PUSH2 0xCA4 JUMP JUMPDEST POP DUP1 SWAP2 POP POP SWAP3 SWAP2 POP POP JUMP JUMPDEST PUSH2 0xDC3 DUP2 PUSH2 0xFB3 JUMP JUMPDEST DUP3 MSTORE POP POP JUMP JUMPDEST PUSH2 0xDD2 DUP2 PUSH2 0xFB3 JUMP JUMPDEST DUP3 MSTORE POP POP JUMP JUMPDEST PUSH1 0x0 PUSH1 0x80 DUP3 ADD SWAP1 POP PUSH2 0xDED PUSH1 0x0 DUP4 ADD DUP8 PUSH2 0xC95 JUMP JUMPDEST DUP2 DUP2 SUB PUSH1 0x20 DUP4 ADD MSTORE PUSH2 0xDFF DUP2 DUP7 PUSH2 0xCFB JUMP JUMPDEST SWAP1 POP PUSH2 0xE0E PUSH1 0x40 DUP4 ADD DUP6 PUSH2 0xDC9 JUMP JUMPDEST PUSH2 0xE1B PUSH1 0x60 DUP4 ADD DUP5 PUSH2 0xCB3 JUMP JUMPDEST SWAP6 SWAP5 POP POP POP POP POP JUMP JUMPDEST PUSH1 0x0 PUSH1 0x20 DUP3 ADD SWAP1 POP PUSH2 0xE39 PUSH1 0x0 DUP4 ADD DUP5 PUSH2 0xCB3 JUMP JUMPDEST SWAP3 SWAP2 POP POP JUMP JUMPDEST PUSH1 0x0 PUSH1 0x20 DUP3 ADD SWAP1 POP DUP2 DUP2 SUB PUSH1 0x0 DUP4 ADD MSTORE PUSH2 0xE58 DUP2 PUSH2 0xD34 JUMP JUMPDEST SWAP1 POP SWAP2 SWAP1 POP JUMP JUMPDEST PUSH1 0x0 PUSH1 0x20 DUP3 ADD SWAP1 POP DUP2 DUP2 SUB PUSH1 0x0 DUP4 ADD MSTORE PUSH2 0xE79 DUP2 DUP5 PUSH2 0xD57 JUMP JUMPDEST SWAP1 POP SWAP3 SWAP2 POP POP JUMP JUMPDEST PUSH1 0x0 PUSH1 0x20 DUP3 ADD SWAP1 POP PUSH2 0xE96 PUSH1 0x0 DUP4 ADD DUP5 PUSH2 0xDC9 JUMP JUMPDEST SWAP3 SWAP2 POP POP JUMP JUMPDEST PUSH1 0x0 PUSH2 0xEA6 PUSH2 0xEB7 JUMP JUMPDEST SWAP1 POP PUSH2 0xEB2 DUP3 DUP3 PUSH2 0x1031 JUMP JUMPDEST SWAP2 SWAP1 POP JUMP JUMPDEST PUSH1 0x0 PUSH1 0x40 MLOAD SWAP1 POP SWAP1 JUMP JUMPDEST PUSH1 0x0 PUSH8 0xFFFFFFFFFFFFFFFF DUP3 GT ISZERO PUSH2 0xEDC JUMPI PUSH2 0xEDB PUSH2 0x1138 JUMP JUMPDEST JUMPDEST PUSH2 0xEE5 DUP3 PUSH2 0x117B JUMP JUMPDEST SWAP1 POP PUSH1 0x20 DUP2 ADD SWAP1 POP SWAP2 SWAP1 POP JUMP JUMPDEST PUSH1 0x0 DUP2 MLOAD SWAP1 POP SWAP2 SWAP1 POP JUMP JUMPDEST PUSH1 0x0 DUP3 DUP3 MSTORE PUSH1 0x20 DUP3 ADD SWAP1 POP SWAP3 SWAP2 POP POP JUMP JUMPDEST PUSH1 0x0 DUP3 DUP3 MSTORE PUSH1 0x20 DUP3 ADD SWAP1 POP SWAP3 SWAP2 POP POP JUMP JUMPDEST PUSH1 0x0 PUSH2 0xF2A DUP3 PUSH2 0xFB3 JUMP JUMPDEST SWAP2 POP PUSH2 0xF35 DUP4 PUSH2 0xFB3 JUMP JUMPDEST SWAP3 POP DUP3 PUSH32 0xFFFFFFFFFFFFFFFFFFFFFFFFFFFFFFFFFFFFFFFFFFFFFFFFFFFFFFFFFFFFFFFF SUB DUP3 GT ISZERO PUSH2 0xF6A JUMPI PUSH2 0xF69 PUSH2 0x10AB JUMP JUMPDEST JUMPDEST DUP3 DUP3 ADD SWAP1 POP SWAP3 SWAP2 POP POP JUMP JUMPDEST PUSH1 0x0 PUSH2 0xF80 DUP3 PUSH2 0xF93 JUMP JUMPDEST SWAP1 POP SWAP2 SWAP1 POP JUMP JUMPDEST PUSH1 0x0 DUP2 ISZERO ISZERO SWAP1 POP SWAP2 SWAP1 POP JUMP JUMPDEST PUSH1 0x0 PUSH20 0xFFFFFFFFFFFFFFFFFFFFFFFFFFFFFFFFFFFFFFFF DUP3 AND SWAP1 POP SWAP2 SWAP1 POP JUMP JUMPDEST PUSH1 0x0 DUP2 SWAP1 POP SWAP2 SWAP1 POP JUMP JUMPDEST DUP3 DUP2 DUP4 CALLDATACOPY PUSH1 0x0 DUP4 DUP4 ADD MSTORE POP POP POP JUMP JUMPDEST PUSH1 0x0 JUMPDEST DUP4 DUP2 LT ISZERO PUSH2 0xFEA JUMPI DUP1 DUP3 ADD MLOAD DUP2 DUP5 ADD MSTORE PUSH1 0x20 DUP2 ADD SWAP1 POP PUSH2 0xFCF JUMP JUMPDEST DUP4 DUP2 GT ISZERO PUSH2 0xFF9 JUMPI PUSH1 0x0 DUP5 DUP5 ADD MSTORE JUMPDEST POP POP POP POP JUMP JUMPDEST PUSH1 0x0 PUSH1 0x2 DUP3 DIV SWAP1 POP PUSH1 0x1 DUP3 AND DUP1 PUSH2 0x1017 JUMPI PUSH1 0x7F DUP3 AND SWAP2 POP JUMPDEST PUSH1 0x20 DUP3 LT DUP2 EQ ISZERO PUSH2 0x102B JUMPI PUSH2 0x102A PUSH2 0x10DA JUMP JUMPDEST JUMPDEST POP SWAP2 SWAP1 POP JUMP JUMPDEST PUSH2 0x103A DUP3 PUSH2 0x117B JUMP JUMPDEST DUP2 ADD DUP2 DUP2 LT PUSH8 0xFFFFFFFFFFFFFFFF DUP3 GT OR ISZERO PUSH2 0x1059 JUMPI PUSH2 0x1058 PUSH2 0x1138 JUMP JUMPDEST JUMPDEST DUP1 PUSH1 0x40 MSTORE POP POP POP JUMP JUMPDEST PUSH1 0x0 PUSH2 0x106D DUP3 PUSH2 0xFB3 JUMP JUMPDEST SWAP2 POP PUSH32 0xFFFFFFFFFFFFFFFFFFFFFFFFFFFFFFFFFFFFFFFFFFFFFFFFFFFFFFFFFFFFFFFF DUP3 EQ ISZERO PUSH2 0x10A0 JUMPI PUSH2 0x109F PUSH2 0x10AB JUMP JUMPDEST JUMPDEST PUSH1 0x1 DUP3 ADD SWAP1 POP SWAP2 SWAP1 POP JUMP JUMPDEST PUSH32 0x4E487B7100000000000000000000000000000000000000000000000000000000 PUSH1 0x0 MSTORE PUSH1 0x11 PUSH1 0x4 MSTORE PUSH1 0x24 PUSH1 0x0 REVERT JUMPDEST PUSH32 0x4E487B7100000000000000000000000000000000000000000000000000000000 PUSH1 0x0 MSTORE PUSH1 0x22 PUSH1 0x4 MSTORE PUSH1 0x24 PUSH1 0x0 REVERT JUMPDEST PUSH32 0x4E487B7100000000000000000000000000000000000000000000000000000000 PUSH1 0x0 MSTORE PUSH1 0x32 PUSH1 0x4 MSTORE PUSH1 0x24 PUSH1 0x0 REVERT JUMPDEST PUSH32 0x4E487B7100000000000000000000000000000000000000000000000000000000 PUSH1 0x0 MSTORE PUSH1 0x41 PUSH1 0x4 MSTORE PUSH1 0x24 PUSH1 0x0 REVERT JUMPDEST PUSH1 0x0 DUP1 REVERT JUMPDEST PUSH1 0x0 DUP1 REVERT JUMPDEST PUSH1 0x0 DUP1 REVERT JUMPDEST PUSH1 0x0 DUP1 REVERT JUMPDEST PUSH1 0x0 PUSH1 0x1F NOT PUSH1 0x1F DUP4 ADD AND SWAP1 POP SWAP2 SWAP1 POP JUMP JUMPDEST PUSH32 0x496E76616C69642057616C6C6574204164647265737300000000000000000000 PUSH1 0x0 DUP3 ADD MSTORE POP JUMP JUMPDEST PUSH2 0x11BE DUP2 PUSH2 0xF75 JUMP JUMPDEST DUP2 EQ PUSH2 0x11C9 JUMPI PUSH1 0x0 DUP1 REVERT JUMPDEST POP JUMP JUMPDEST PUSH2 0x11D5 DUP2 PUSH2 0xF87 JUMP JUMPDEST DUP2 EQ PUSH2 0x11E0 JUMPI PUSH1 0x0 DUP1 REVERT JUMPDEST POP JUMP JUMPDEST PUSH2 0x11EC DUP2 PUSH2 0xFB3 JUMP JUMPDEST DUP2 EQ PUSH2 0x11F7 JUMPI PUSH1 0x0 DUP1 REVERT JUMPDEST POP JUMP INVALID LOG2 PUSH5 0x6970667358 0x22 SLT KECCAK256 SUB DUP16 0xAF 0xB5 ADD PUSH8 0xB8B10C39B5694345 0x5C GASLIMIT PC CREATE2 EXP RETURNDATACOPY CODECOPY DUP6 PUSH11 0xAA5E3C3DE22431384F6473 PUSH16 0x6C634300080700330000000000000000 "
				},
				"gasEstimates": {
					"creation": {
						"codeDepositCost": "931200",
						"executionCost": "25234",
						"totalCost": "956434"
					},
					"external": {
						"addToInvestors(address)": "infinite",
						"addUser(address,string,uint256,bool)": "infinite",
						"balanceOf(address)": "infinite",
						"getUserByAddress(address)": "infinite",
						"investorPermission(address)": "infinite",
						"investors(address)": "infinite",
						"transfer(address)": "infinite",
						"users(uint256)": "infinite"
					},
					"internal": {
						"transferToAddress(address)": "infinite"
					}
				},
				"methodIdentifiers": {
					"addToInvestors(address)": "d7bed4bc",
					"addUser(address,string,uint256,bool)": "280879e7",
					"balanceOf(address)": "70a08231",
					"getUserByAddress(address)": "69c212f6",
					"investorPermission(address)": "4140eb0d",
					"investors(address)": "6f7bc9be",
					"transfer(address)": "1a695230",
					"users(uint256)": "365b98b2"
				}
			},
			"storageLayout": {
				"storage": [
					{
						"astId": 3,
						"contract": "contracts/Test1.sol:Test1",
						"label": "owner",
						"offset": 0,
						"slot": "0",
						"type": "t_address"
					},
					{
						"astId": 37,
						"contract": "contracts/Test1.sol:Test1",
						"label": "users",
						"offset": 0,
						"slot": "1",
						"type": "t_array(t_struct(User)21_storage)dyn_storage"
					},
					{
						"astId": 42,
						"contract": "contracts/Test1.sol:Test1",
						"label": "investors",
						"offset": 0,
						"slot": "2",
						"type": "t_mapping(t_address,t_struct(User)21_storage)"
					}
				],
				"types": {
					"t_address": {
						"encoding": "inplace",
						"label": "address",
						"numberOfBytes": "20"
					},
					"t_array(t_struct(User)21_storage)dyn_storage": {
						"base": "t_struct(User)21_storage",
						"encoding": "dynamic_array",
						"label": "struct Test1.User[]",
						"numberOfBytes": "32"
					},
					"t_bool": {
						"encoding": "inplace",
						"label": "bool",
						"numberOfBytes": "1"
					},
					"t_mapping(t_address,t_struct(User)21_storage)": {
						"encoding": "mapping",
						"key": "t_address",
						"label": "mapping(address => struct Test1.User)",
						"numberOfBytes": "32",
						"value": "t_struct(User)21_storage"
					},
					"t_string_storage": {
						"encoding": "bytes",
						"label": "string",
						"numberOfBytes": "32"
					},
					"t_struct(User)21_storage": {
						"encoding": "inplace",
						"label": "struct Test1.User",
						"members": [
							{
								"astId": 14,
								"contract": "contracts/Test1.sol:Test1",
								"label": "walletAddress",
								"offset": 0,
								"slot": "0",
								"type": "t_address"
							},
							{
								"astId": 16,
								"contract": "contracts/Test1.sol:Test1",
								"label": "name",
								"offset": 0,
								"slot": "1",
								"type": "t_string_storage"
							},
							{
								"astId": 18,
								"contract": "contracts/Test1.sol:Test1",
								"label": "amount",
								"offset": 0,
								"slot": "2",
								"type": "t_uint256"
							},
							{
								"astId": 20,
								"contract": "contracts/Test1.sol:Test1",
								"label": "isInvestor",
								"offset": 0,
								"slot": "3",
								"type": "t_bool"
							}
						],
						"numberOfBytes": "128"
					},
					"t_uint256": {
						"encoding": "inplace",
						"label": "uint256",
						"numberOfBytes": "32"
					}
				}
			},
			"userdoc": {
				"kind": "user",
				"methods": {},
				"version": 1
			}
		}
	}
}