{
	"contracts/Test1.sol": {
		"Test1": {
			"abi": [
				{
					"inputs": [],
					"stateMutability": "nonpayable",
					"type": "constructor"
				},
				{
					"inputs": [
						{
							"internalType": "address",
							"name": "walletAddress",
							"type": "address"
						},
						{
							"internalType": "uint256",
							"name": "amount",
							"type": "uint256"
						}
					],
					"name": "addToInvestors",
					"outputs": [],
					"stateMutability": "nonpayable",
					"type": "function"
				},
				{
					"inputs": [
						{
							"internalType": "address",
							"name": "walletAddress",
							"type": "address"
						},
						{
							"internalType": "string",
							"name": "name",
							"type": "string"
						},
						{
							"internalType": "uint256",
							"name": "amount",
							"type": "uint256"
						},
						{
							"internalType": "bool",
							"name": "isInvestor",
							"type": "bool"
						}
					],
					"name": "addUser",
					"outputs": [],
					"stateMutability": "nonpayable",
					"type": "function"
				},
				{
					"inputs": [
						{
							"internalType": "address",
							"name": "walletAddress",
							"type": "address"
						}
					],
					"name": "balanceOf",
					"outputs": [
						{
							"internalType": "uint256",
							"name": "",
							"type": "uint256"
						}
					],
					"stateMutability": "view",
					"type": "function"
				},
				{
					"inputs": [],
					"name": "getInvestorByAddress",
					"outputs": [
						{
							"internalType": "address",
							"name": "",
							"type": "address"
						}
					],
					"stateMutability": "view",
					"type": "function"
				},
				{
					"inputs": [
						{
							"internalType": "address",
							"name": "",
							"type": "address"
						}
					],
					"name": "investors",
					"outputs": [
						{
							"internalType": "uint256",
							"name": "",
							"type": "uint256"
						}
					],
					"stateMutability": "view",
					"type": "function"
				},
				{
					"inputs": [
						{
							"internalType": "address",
							"name": "walletAddress",
							"type": "address"
						}
					],
					"name": "transfer",
					"outputs": [],
					"stateMutability": "payable",
					"type": "function"
				},
				{
					"inputs": [
						{
							"internalType": "uint256",
							"name": "",
							"type": "uint256"
						}
					],
					"name": "users",
					"outputs": [
						{
							"internalType": "address",
							"name": "walletAddress",
							"type": "address"
						},
						{
							"internalType": "string",
							"name": "name",
							"type": "string"
						},
						{
							"internalType": "uint256",
							"name": "amount",
							"type": "uint256"
						},
						{
							"internalType": "bool",
							"name": "isInvestor",
							"type": "bool"
						}
					],
					"stateMutability": "view",
					"type": "function"
				}
			],
			"devdoc": {
				"kind": "dev",
				"methods": {},
				"version": 1
			},
			"evm": {
				"assembly": "    /* \"contracts/Test1.sol\":65:1598  contract Test1{... */\n  mstore(0x40, 0x80)\n    /* \"contracts/Test1.sol\":106:154  constructor(){... */\n  callvalue\n  dup1\n  iszero\n  tag_1\n  jumpi\n  0x00\n  dup1\n  revert\ntag_1:\n  pop\n    /* \"contracts/Test1.sol\":137:147  msg.sender */\n  caller\n    /* \"contracts/Test1.sol\":129:134  owner */\n  0x00\n  dup1\n    /* \"contracts/Test1.sol\":129:147  owner = msg.sender */\n  0x0100\n  exp\n  dup2\n  sload\n  dup2\n  0xffffffffffffffffffffffffffffffffffffffff\n  mul\n  not\n  and\n  swap1\n  dup4\n  0xffffffffffffffffffffffffffffffffffffffff\n  and\n  mul\n  or\n  swap1\n  sstore\n  pop\n    /* \"contracts/Test1.sol\":65:1598  contract Test1{... */\n  dataSize(sub_0)\n  dup1\n  dataOffset(sub_0)\n  0x00\n  codecopy\n  0x00\n  return\nstop\n\nsub_0: assembly {\n        /* \"contracts/Test1.sol\":65:1598  contract Test1{... */\n      mstore(0x40, 0x80)\n      jumpi(tag_1, lt(calldatasize, 0x04))\n      shr(0xe0, calldataload(0x00))\n      dup1\n      0x365b98b2\n      gt\n      tag_9\n      jumpi\n      dup1\n      0x365b98b2\n      eq\n      tag_5\n      jumpi\n      dup1\n      0x52c63a04\n      eq\n      tag_6\n      jumpi\n      dup1\n      0x6f7bc9be\n      eq\n      tag_7\n      jumpi\n      dup1\n      0x70a08231\n      eq\n      tag_8\n      jumpi\n      jump(tag_1)\n    tag_9:\n      dup1\n      0x0b1019f0\n      eq\n      tag_2\n      jumpi\n      dup1\n      0x1a695230\n      eq\n      tag_3\n      jumpi\n      dup1\n      0x280879e7\n      eq\n      tag_4\n      jumpi\n    tag_1:\n      0x00\n      dup1\n      revert\n        /* \"contracts/Test1.sol\":766:883  function addToInvestors(address walletAddress, uint amount) public {... */\n    tag_2:\n      callvalue\n      dup1\n      iszero\n      tag_10\n      jumpi\n      0x00\n      dup1\n      revert\n    tag_10:\n      pop\n      tag_11\n      0x04\n      dup1\n      calldatasize\n      sub\n      dup2\n      add\n      swap1\n      tag_12\n      swap2\n      swap1\n      tag_13\n      jump\t// in\n    tag_12:\n      tag_14\n      jump\t// in\n    tag_11:\n      stop\n        /* \"contracts/Test1.sol\":971:1076  function transfer(address walletAddress) payable public {... */\n    tag_3:\n      tag_15\n      0x04\n      dup1\n      calldatasize\n      sub\n      dup2\n      add\n      swap1\n      tag_16\n      swap2\n      swap1\n      tag_17\n      jump\t// in\n    tag_16:\n      tag_18\n      jump\t// in\n    tag_15:\n      stop\n        /* \"contracts/Test1.sol\":585:756  function addUser(address walletAddress, string memory name, uint amount, bool isInvestor) public {... */\n    tag_4:\n      callvalue\n      dup1\n      iszero\n      tag_19\n      jumpi\n      0x00\n      dup1\n      revert\n    tag_19:\n      pop\n      tag_20\n      0x04\n      dup1\n      calldatasize\n      sub\n      dup2\n      add\n      swap1\n      tag_21\n      swap2\n      swap1\n      tag_22\n      jump\t// in\n    tag_21:\n      tag_23\n      jump\t// in\n    tag_20:\n      stop\n        /* \"contracts/Test1.sol\":282:301  User[] public users */\n    tag_5:\n      callvalue\n      dup1\n      iszero\n      tag_24\n      jumpi\n      0x00\n      dup1\n      revert\n    tag_24:\n      pop\n      tag_25\n      0x04\n      dup1\n      calldatasize\n      sub\n      dup2\n      add\n      swap1\n      tag_26\n      swap2\n      swap1\n      tag_27\n      jump\t// in\n    tag_26:\n      tag_28\n      jump\t// in\n    tag_25:\n      mload(0x40)\n      tag_29\n      swap5\n      swap4\n      swap3\n      swap2\n      swap1\n      tag_30\n      jump\t// in\n    tag_29:\n      mload(0x40)\n      dup1\n      swap2\n      sub\n      swap1\n      return\n        /* \"contracts/Test1.sol\":889:965  function getInvestorByAddress() public view returns(address){... */\n    tag_6:\n      callvalue\n      dup1\n      iszero\n      tag_31\n      jumpi\n      0x00\n      dup1\n      revert\n    tag_31:\n      pop\n      tag_32\n      tag_33\n      jump\t// in\n    tag_32:\n      mload(0x40)\n      tag_34\n      swap2\n      swap1\n      tag_35\n      jump\t// in\n    tag_34:\n      mload(0x40)\n      dup1\n      swap2\n      sub\n      swap1\n      return\n        /* \"contracts/Test1.sol\":307:348  mapping(address => uint) public investors */\n    tag_7:\n      callvalue\n      dup1\n      iszero\n      tag_36\n      jumpi\n      0x00\n      dup1\n      revert\n    tag_36:\n      pop\n      tag_37\n      0x04\n      dup1\n      calldatasize\n      sub\n      dup2\n      add\n      swap1\n      tag_38\n      swap2\n      swap1\n      tag_17\n      jump\t// in\n    tag_38:\n      tag_39\n      jump\t// in\n    tag_37:\n      mload(0x40)\n      tag_40\n      swap2\n      swap1\n      tag_41\n      jump\t// in\n    tag_40:\n      mload(0x40)\n      dup1\n      swap2\n      sub\n      swap1\n      return\n        /* \"contracts/Test1.sol\":1328:1592  function balanceOf(address walletAddress) public view returns(uint){... */\n    tag_8:\n      callvalue\n      dup1\n      iszero\n      tag_42\n      jumpi\n      0x00\n      dup1\n      revert\n    tag_42:\n      pop\n      tag_43\n      0x04\n      dup1\n      calldatasize\n      sub\n      dup2\n      add\n      swap1\n      tag_44\n      swap2\n      swap1\n      tag_17\n      jump\t// in\n    tag_44:\n      tag_45\n      jump\t// in\n    tag_43:\n      mload(0x40)\n      tag_46\n      swap2\n      swap1\n      tag_41\n      jump\t// in\n    tag_46:\n      mload(0x40)\n      dup1\n      swap2\n      sub\n      swap1\n      return\n        /* \"contracts/Test1.sol\":766:883  function addToInvestors(address walletAddress, uint amount) public {... */\n    tag_14:\n        /* \"contracts/Test1.sol\":870:876  amount */\n      dup1\n        /* \"contracts/Test1.sol\":843:852  investors */\n      0x02\n        /* \"contracts/Test1.sol\":843:867  investors[walletAddress] */\n      0x00\n        /* \"contracts/Test1.sol\":853:866  walletAddress */\n      dup5\n        /* \"contracts/Test1.sol\":843:867  investors[walletAddress] */\n      0xffffffffffffffffffffffffffffffffffffffff\n      and\n      0xffffffffffffffffffffffffffffffffffffffff\n      and\n      dup2\n      mstore\n      0x20\n      add\n      swap1\n      dup2\n      mstore\n      0x20\n      add\n      0x00\n      keccak256\n        /* \"contracts/Test1.sol\":843:876  investors[walletAddress] = amount */\n      dup2\n      swap1\n      sstore\n      pop\n        /* \"contracts/Test1.sol\":766:883  function addToInvestors(address walletAddress, uint amount) public {... */\n      pop\n      pop\n      jump\t// out\n        /* \"contracts/Test1.sol\":971:1076  function transfer(address walletAddress) payable public {... */\n    tag_18:\n        /* \"contracts/Test1.sol\":1037:1069  transferToAddress(walletAddress) */\n      tag_49\n        /* \"contracts/Test1.sol\":1055:1068  walletAddress */\n      dup2\n        /* \"contracts/Test1.sol\":1037:1054  transferToAddress */\n      tag_50\n        /* \"contracts/Test1.sol\":1037:1069  transferToAddress(walletAddress) */\n      jump\t// in\n    tag_49:\n        /* \"contracts/Test1.sol\":971:1076  function transfer(address walletAddress) payable public {... */\n      pop\n      jump\t// out\n        /* \"contracts/Test1.sol\":585:756  function addUser(address walletAddress, string memory name, uint amount, bool isInvestor) public {... */\n    tag_23:\n        /* \"contracts/Test1.sol\":692:697  users */\n      0x01\n        /* \"contracts/Test1.sol\":703:748  User(walletAddress, name, amount, isInvestor) */\n      mload(0x40)\n      dup1\n      0x80\n      add\n      0x40\n      mstore\n      dup1\n        /* \"contracts/Test1.sol\":708:721  walletAddress */\n      dup7\n        /* \"contracts/Test1.sol\":703:748  User(walletAddress, name, amount, isInvestor) */\n      0xffffffffffffffffffffffffffffffffffffffff\n      and\n      dup2\n      mstore\n      0x20\n      add\n        /* \"contracts/Test1.sol\":723:727  name */\n      dup6\n        /* \"contracts/Test1.sol\":703:748  User(walletAddress, name, amount, isInvestor) */\n      dup2\n      mstore\n      0x20\n      add\n        /* \"contracts/Test1.sol\":729:735  amount */\n      dup5\n        /* \"contracts/Test1.sol\":703:748  User(walletAddress, name, amount, isInvestor) */\n      dup2\n      mstore\n      0x20\n      add\n        /* \"contracts/Test1.sol\":737:747  isInvestor */\n      dup4\n        /* \"contracts/Test1.sol\":703:748  User(walletAddress, name, amount, isInvestor) */\n      iszero\n      iszero\n      dup2\n      mstore\n      pop\n        /* \"contracts/Test1.sol\":692:749  users.push(User(walletAddress, name, amount, isInvestor)) */\n      swap1\n      dup1\n      0x01\n      dup2\n      sload\n      add\n      dup1\n      dup3\n      sstore\n      dup1\n      swap2\n      pop\n      pop\n      0x01\n      swap1\n      sub\n      swap1\n      0x00\n      mstore\n      keccak256(0x00, 0x20)\n      swap1\n      0x04\n      mul\n      add\n      0x00\n      swap1\n      swap2\n      swap1\n      swap2\n      swap1\n      swap2\n      pop\n      0x00\n      dup3\n      add\n      mload\n      dup2\n      0x00\n      add\n      exp(0x0100, 0x00)\n      dup2\n      sload\n      dup2\n      0xffffffffffffffffffffffffffffffffffffffff\n      mul\n      not\n      and\n      swap1\n      dup4\n      0xffffffffffffffffffffffffffffffffffffffff\n      and\n      mul\n      or\n      swap1\n      sstore\n      pop\n      0x20\n      dup3\n      add\n      mload\n      dup2\n      0x01\n      add\n      swap1\n      dup1\n      mload\n      swap1\n      0x20\n      add\n      swap1\n      tag_53\n      swap3\n      swap2\n      swap1\n      tag_54\n      jump\t// in\n    tag_53:\n      pop\n      0x40\n      dup3\n      add\n      mload\n      dup2\n      0x02\n      add\n      sstore\n      0x60\n      dup3\n      add\n      mload\n      dup2\n      0x03\n      add\n      exp(0x0100, 0x00)\n      dup2\n      sload\n      dup2\n      0xff\n      mul\n      not\n      and\n      swap1\n      dup4\n      iszero\n      iszero\n      mul\n      or\n      swap1\n      sstore\n      pop\n      pop\n      pop\n        /* \"contracts/Test1.sol\":585:756  function addUser(address walletAddress, string memory name, uint amount, bool isInvestor) public {... */\n      pop\n      pop\n      pop\n      pop\n      jump\t// out\n        /* \"contracts/Test1.sol\":282:301  User[] public users */\n    tag_28:\n      0x01\n      dup2\n      dup2\n      sload\n      dup2\n      lt\n      tag_55\n      jumpi\n      0x00\n      dup1\n      revert\n    tag_55:\n      swap1\n      0x00\n      mstore\n      keccak256(0x00, 0x20)\n      swap1\n      0x04\n      mul\n      add\n      0x00\n      swap2\n      pop\n      swap1\n      pop\n      dup1\n      0x00\n      add\n      0x00\n      swap1\n      sload\n      swap1\n      0x0100\n      exp\n      swap1\n      div\n      0xffffffffffffffffffffffffffffffffffffffff\n      and\n      swap1\n      dup1\n      0x01\n      add\n      dup1\n      sload\n      tag_57\n      swap1\n      tag_58\n      jump\t// in\n    tag_57:\n      dup1\n      0x1f\n      add\n      0x20\n      dup1\n      swap2\n      div\n      mul\n      0x20\n      add\n      mload(0x40)\n      swap1\n      dup2\n      add\n      0x40\n      mstore\n      dup1\n      swap3\n      swap2\n      swap1\n      dup2\n      dup2\n      mstore\n      0x20\n      add\n      dup3\n      dup1\n      sload\n      tag_59\n      swap1\n      tag_58\n      jump\t// in\n    tag_59:\n      dup1\n      iszero\n      tag_60\n      jumpi\n      dup1\n      0x1f\n      lt\n      tag_61\n      jumpi\n      0x0100\n      dup1\n      dup4\n      sload\n      div\n      mul\n      dup4\n      mstore\n      swap2\n      0x20\n      add\n      swap2\n      jump(tag_60)\n    tag_61:\n      dup3\n      add\n      swap2\n      swap1\n      0x00\n      mstore\n      keccak256(0x00, 0x20)\n      swap1\n    tag_62:\n      dup2\n      sload\n      dup2\n      mstore\n      swap1\n      0x01\n      add\n      swap1\n      0x20\n      add\n      dup1\n      dup4\n      gt\n      tag_62\n      jumpi\n      dup3\n      swap1\n      sub\n      0x1f\n      and\n      dup3\n      add\n      swap2\n    tag_60:\n      pop\n      pop\n      pop\n      pop\n      pop\n      swap1\n      dup1\n      0x02\n      add\n      sload\n      swap1\n      dup1\n      0x03\n      add\n      0x00\n      swap1\n      sload\n      swap1\n      0x0100\n      exp\n      swap1\n      div\n      0xff\n      and\n      swap1\n      pop\n      dup5\n      jump\t// out\n        /* \"contracts/Test1.sol\":889:965  function getInvestorByAddress() public view returns(address){... */\n    tag_33:\n        /* \"contracts/Test1.sol\":941:948  address */\n      0x00\n        /* \"contracts/Test1.sol\":889:965  function getInvestorByAddress() public view returns(address){... */\n      swap1\n      jump\t// out\n        /* \"contracts/Test1.sol\":307:348  mapping(address => uint) public investors */\n    tag_39:\n      mstore(0x20, 0x02)\n      dup1\n      0x00\n      mstore\n      keccak256(0x00, 0x40)\n      0x00\n      swap2\n      pop\n      swap1\n      pop\n      sload\n      dup2\n      jump\t// out\n        /* \"contracts/Test1.sol\":1328:1592  function balanceOf(address walletAddress) public view returns(uint){... */\n    tag_45:\n        /* \"contracts/Test1.sol\":1390:1394  uint */\n      0x00\n        /* \"contracts/Test1.sol\":1409:1415  uint i */\n      dup1\n        /* \"contracts/Test1.sol\":1418:1419  0 */\n      0x00\n        /* \"contracts/Test1.sol\":1409:1419  uint i = 0 */\n      swap1\n      pop\n        /* \"contracts/Test1.sol\":1405:1565  for(uint i = 0; i < users.length; i++){... */\n    tag_65:\n        /* \"contracts/Test1.sol\":1425:1430  users */\n      0x01\n        /* \"contracts/Test1.sol\":1425:1437  users.length */\n      dup1\n      sload\n      swap1\n      pop\n        /* \"contracts/Test1.sol\":1421:1422  i */\n      dup2\n        /* \"contracts/Test1.sol\":1421:1437  i < users.length */\n      lt\n        /* \"contracts/Test1.sol\":1405:1565  for(uint i = 0; i < users.length; i++){... */\n      iszero\n      tag_66\n      jumpi\n        /* \"contracts/Test1.sol\":1486:1499  walletAddress */\n      dup3\n        /* \"contracts/Test1.sol\":1460:1499  users[i].walletAddress == walletAddress */\n      0xffffffffffffffffffffffffffffffffffffffff\n      and\n        /* \"contracts/Test1.sol\":1460:1465  users */\n      0x01\n        /* \"contracts/Test1.sol\":1466:1467  i */\n      dup3\n        /* \"contracts/Test1.sol\":1460:1468  users[i] */\n      dup2\n      sload\n      dup2\n      lt\n      tag_68\n      jumpi\n      tag_69\n      tag_70\n      jump\t// in\n    tag_69:\n    tag_68:\n      swap1\n      0x00\n      mstore\n      keccak256(0x00, 0x20)\n      swap1\n      0x04\n      mul\n      add\n        /* \"contracts/Test1.sol\":1460:1482  users[i].walletAddress */\n      0x00\n      add\n      0x00\n      swap1\n      sload\n      swap1\n      0x0100\n      exp\n      swap1\n      div\n      0xffffffffffffffffffffffffffffffffffffffff\n      and\n        /* \"contracts/Test1.sol\":1460:1499  users[i].walletAddress == walletAddress */\n      0xffffffffffffffffffffffffffffffffffffffff\n      and\n      eq\n        /* \"contracts/Test1.sol\":1457:1555  if(users[i].walletAddress == walletAddress){... */\n      iszero\n      tag_72\n      jumpi\n        /* \"contracts/Test1.sol\":1525:1530  users */\n      0x01\n        /* \"contracts/Test1.sol\":1531:1532  i */\n      dup2\n        /* \"contracts/Test1.sol\":1525:1533  users[i] */\n      dup2\n      sload\n      dup2\n      lt\n      tag_73\n      jumpi\n      tag_74\n      tag_70\n      jump\t// in\n    tag_74:\n    tag_73:\n      swap1\n      0x00\n      mstore\n      keccak256(0x00, 0x20)\n      swap1\n      0x04\n      mul\n      add\n        /* \"contracts/Test1.sol\":1525:1540  users[i].amount */\n      0x02\n      add\n      sload\n        /* \"contracts/Test1.sol\":1518:1540  return users[i].amount */\n      swap2\n      pop\n      pop\n      jump(tag_64)\n        /* \"contracts/Test1.sol\":1457:1555  if(users[i].walletAddress == walletAddress){... */\n    tag_72:\n        /* \"contracts/Test1.sol\":1439:1442  i++ */\n      dup1\n      dup1\n      tag_76\n      swap1\n      tag_77\n      jump\t// in\n    tag_76:\n      swap2\n      pop\n      pop\n        /* \"contracts/Test1.sol\":1405:1565  for(uint i = 0; i < users.length; i++){... */\n      jump(tag_65)\n    tag_66:\n      pop\n        /* \"contracts/Test1.sol\":1582:1585  999 */\n      0x03e7\n        /* \"contracts/Test1.sol\":1575:1585  return 999 */\n      swap1\n      pop\n        /* \"contracts/Test1.sol\":1328:1592  function balanceOf(address walletAddress) public view returns(uint){... */\n    tag_64:\n      swap2\n      swap1\n      pop\n      jump\t// out\n        /* \"contracts/Test1.sol\":1082:1322  function transferToAddress(address walletAddress) private {... */\n    tag_50:\n        /* \"contracts/Test1.sol\":1154:1160  uint i */\n      0x00\n        /* \"contracts/Test1.sol\":1150:1316  for(uint i = 0; i < users.length; i++){... */\n    tag_79:\n        /* \"contracts/Test1.sol\":1170:1175  users */\n      0x01\n        /* \"contracts/Test1.sol\":1170:1182  users.length */\n      dup1\n      sload\n      swap1\n      pop\n        /* \"contracts/Test1.sol\":1166:1167  i */\n      dup2\n        /* \"contracts/Test1.sol\":1166:1182  i < users.length */\n      lt\n        /* \"contracts/Test1.sol\":1150:1316  for(uint i = 0; i < users.length; i++){... */\n      iszero\n      tag_80\n      jumpi\n        /* \"contracts/Test1.sol\":1231:1244  walletAddress */\n      dup2\n        /* \"contracts/Test1.sol\":1205:1244  users[i].walletAddress == walletAddress */\n      0xffffffffffffffffffffffffffffffffffffffff\n      and\n        /* \"contracts/Test1.sol\":1205:1210  users */\n      0x01\n        /* \"contracts/Test1.sol\":1211:1212  i */\n      dup3\n        /* \"contracts/Test1.sol\":1205:1213  users[i] */\n      dup2\n      sload\n      dup2\n      lt\n      tag_82\n      jumpi\n      tag_83\n      tag_70\n      jump\t// in\n    tag_83:\n    tag_82:\n      swap1\n      0x00\n      mstore\n      keccak256(0x00, 0x20)\n      swap1\n      0x04\n      mul\n      add\n        /* \"contracts/Test1.sol\":1205:1227  users[i].walletAddress */\n      0x00\n      add\n      0x00\n      swap1\n      sload\n      swap1\n      0x0100\n      exp\n      swap1\n      div\n      0xffffffffffffffffffffffffffffffffffffffff\n      and\n        /* \"contracts/Test1.sol\":1205:1244  users[i].walletAddress == walletAddress */\n      0xffffffffffffffffffffffffffffffffffffffff\n      and\n      eq\n        /* \"contracts/Test1.sol\":1202:1306  if(users[i].walletAddress == walletAddress){... */\n      iszero\n      tag_85\n      jumpi\n        /* \"contracts/Test1.sol\":1282:1291  msg.value */\n      callvalue\n        /* \"contracts/Test1.sol\":1263:1268  users */\n      0x01\n        /* \"contracts/Test1.sol\":1269:1270  i */\n      dup3\n        /* \"contracts/Test1.sol\":1263:1271  users[i] */\n      dup2\n      sload\n      dup2\n      lt\n      tag_86\n      jumpi\n      tag_87\n      tag_70\n      jump\t// in\n    tag_87:\n    tag_86:\n      swap1\n      0x00\n      mstore\n      keccak256(0x00, 0x20)\n      swap1\n      0x04\n      mul\n      add\n        /* \"contracts/Test1.sol\":1263:1278  users[i].amount */\n      0x02\n      add\n      0x00\n        /* \"contracts/Test1.sol\":1263:1291  users[i].amount += msg.value */\n      dup3\n      dup3\n      sload\n      tag_89\n      swap2\n      swap1\n      tag_90\n      jump\t// in\n    tag_89:\n      swap3\n      pop\n      pop\n      dup2\n      swap1\n      sstore\n      pop\n        /* \"contracts/Test1.sol\":1202:1306  if(users[i].walletAddress == walletAddress){... */\n    tag_85:\n        /* \"contracts/Test1.sol\":1184:1187  i++ */\n      dup1\n      dup1\n      tag_91\n      swap1\n      tag_77\n      jump\t// in\n    tag_91:\n      swap2\n      pop\n      pop\n        /* \"contracts/Test1.sol\":1150:1316  for(uint i = 0; i < users.length; i++){... */\n      jump(tag_79)\n    tag_80:\n      pop\n        /* \"contracts/Test1.sol\":1082:1322  function transferToAddress(address walletAddress) private {... */\n      pop\n      jump\t// out\n    tag_54:\n      dup3\n      dup1\n      sload\n      tag_92\n      swap1\n      tag_58\n      jump\t// in\n    tag_92:\n      swap1\n      0x00\n      mstore\n      keccak256(0x00, 0x20)\n      swap1\n      0x1f\n      add\n      0x20\n      swap1\n      div\n      dup2\n      add\n      swap3\n      dup3\n      tag_94\n      jumpi\n      0x00\n      dup6\n      sstore\n      jump(tag_93)\n    tag_94:\n      dup3\n      0x1f\n      lt\n      tag_95\n      jumpi\n      dup1\n      mload\n      not(0xff)\n      and\n      dup4\n      dup1\n      add\n      or\n      dup6\n      sstore\n      jump(tag_93)\n    tag_95:\n      dup3\n      dup1\n      add\n      0x01\n      add\n      dup6\n      sstore\n      dup3\n      iszero\n      tag_93\n      jumpi\n      swap2\n      dup3\n      add\n    tag_96:\n      dup3\n      dup2\n      gt\n      iszero\n      tag_97\n      jumpi\n      dup3\n      mload\n      dup3\n      sstore\n      swap2\n      0x20\n      add\n      swap2\n      swap1\n      0x01\n      add\n      swap1\n      jump(tag_96)\n    tag_97:\n    tag_93:\n      pop\n      swap1\n      pop\n      tag_98\n      swap2\n      swap1\n      tag_99\n      jump\t// in\n    tag_98:\n      pop\n      swap1\n      jump\t// out\n    tag_99:\n    tag_100:\n      dup1\n      dup3\n      gt\n      iszero\n      tag_101\n      jumpi\n      0x00\n      dup2\n      0x00\n      swap1\n      sstore\n      pop\n      0x01\n      add\n      jump(tag_100)\n    tag_101:\n      pop\n      swap1\n      jump\t// out\n        /* \"#utility.yul\":7:419   */\n    tag_103:\n        /* \"#utility.yul\":85:90   */\n      0x00\n        /* \"#utility.yul\":110:176   */\n      tag_105\n        /* \"#utility.yul\":126:175   */\n      tag_106\n        /* \"#utility.yul\":168:174   */\n      dup5\n        /* \"#utility.yul\":126:175   */\n      tag_107\n      jump\t// in\n    tag_106:\n        /* \"#utility.yul\":110:176   */\n      tag_108\n      jump\t// in\n    tag_105:\n        /* \"#utility.yul\":101:176   */\n      swap1\n      pop\n        /* \"#utility.yul\":199:205   */\n      dup3\n        /* \"#utility.yul\":192:197   */\n      dup2\n        /* \"#utility.yul\":185:206   */\n      mstore\n        /* \"#utility.yul\":237:241   */\n      0x20\n        /* \"#utility.yul\":230:235   */\n      dup2\n        /* \"#utility.yul\":226:242   */\n      add\n        /* \"#utility.yul\":275:278   */\n      dup5\n        /* \"#utility.yul\":266:272   */\n      dup5\n        /* \"#utility.yul\":261:264   */\n      dup5\n        /* \"#utility.yul\":257:273   */\n      add\n        /* \"#utility.yul\":254:279   */\n      gt\n        /* \"#utility.yul\":251:363   */\n      iszero\n      tag_109\n      jumpi\n        /* \"#utility.yul\":282:361   */\n      tag_110\n      tag_111\n      jump\t// in\n    tag_110:\n        /* \"#utility.yul\":251:363   */\n    tag_109:\n        /* \"#utility.yul\":372:413   */\n      tag_112\n        /* \"#utility.yul\":406:412   */\n      dup5\n        /* \"#utility.yul\":401:404   */\n      dup3\n        /* \"#utility.yul\":396:399   */\n      dup6\n        /* \"#utility.yul\":372:413   */\n      tag_113\n      jump\t// in\n    tag_112:\n        /* \"#utility.yul\":91:419   */\n      pop\n        /* \"#utility.yul\":7:419   */\n      swap4\n      swap3\n      pop\n      pop\n      pop\n      jump\t// out\n        /* \"#utility.yul\":425:564   */\n    tag_114:\n        /* \"#utility.yul\":471:476   */\n      0x00\n        /* \"#utility.yul\":509:515   */\n      dup2\n        /* \"#utility.yul\":496:516   */\n      calldataload\n        /* \"#utility.yul\":487:516   */\n      swap1\n      pop\n        /* \"#utility.yul\":525:558   */\n      tag_116\n        /* \"#utility.yul\":552:557   */\n      dup2\n        /* \"#utility.yul\":525:558   */\n      tag_117\n      jump\t// in\n    tag_116:\n        /* \"#utility.yul\":425:564   */\n      swap3\n      swap2\n      pop\n      pop\n      jump\t// out\n        /* \"#utility.yul\":570:703   */\n    tag_118:\n        /* \"#utility.yul\":613:618   */\n      0x00\n        /* \"#utility.yul\":651:657   */\n      dup2\n        /* \"#utility.yul\":638:658   */\n      calldataload\n        /* \"#utility.yul\":629:658   */\n      swap1\n      pop\n        /* \"#utility.yul\":667:697   */\n      tag_120\n        /* \"#utility.yul\":691:696   */\n      dup2\n        /* \"#utility.yul\":667:697   */\n      tag_121\n      jump\t// in\n    tag_120:\n        /* \"#utility.yul\":570:703   */\n      swap3\n      swap2\n      pop\n      pop\n      jump\t// out\n        /* \"#utility.yul\":723:1063   */\n    tag_122:\n        /* \"#utility.yul\":779:784   */\n      0x00\n        /* \"#utility.yul\":828:831   */\n      dup3\n        /* \"#utility.yul\":821:825   */\n      0x1f\n        /* \"#utility.yul\":813:819   */\n      dup4\n        /* \"#utility.yul\":809:826   */\n      add\n        /* \"#utility.yul\":805:832   */\n      slt\n        /* \"#utility.yul\":795:917   */\n      tag_124\n      jumpi\n        /* \"#utility.yul\":836:915   */\n      tag_125\n      tag_126\n      jump\t// in\n    tag_125:\n        /* \"#utility.yul\":795:917   */\n    tag_124:\n        /* \"#utility.yul\":953:959   */\n      dup2\n        /* \"#utility.yul\":940:960   */\n      calldataload\n        /* \"#utility.yul\":978:1057   */\n      tag_127\n        /* \"#utility.yul\":1053:1056   */\n      dup5\n        /* \"#utility.yul\":1045:1051   */\n      dup3\n        /* \"#utility.yul\":1038:1042   */\n      0x20\n        /* \"#utility.yul\":1030:1036   */\n      dup7\n        /* \"#utility.yul\":1026:1043   */\n      add\n        /* \"#utility.yul\":978:1057   */\n      tag_103\n      jump\t// in\n    tag_127:\n        /* \"#utility.yul\":969:1057   */\n      swap2\n      pop\n        /* \"#utility.yul\":785:1063   */\n      pop\n        /* \"#utility.yul\":723:1063   */\n      swap3\n      swap2\n      pop\n      pop\n      jump\t// out\n        /* \"#utility.yul\":1069:1208   */\n    tag_128:\n        /* \"#utility.yul\":1115:1120   */\n      0x00\n        /* \"#utility.yul\":1153:1159   */\n      dup2\n        /* \"#utility.yul\":1140:1160   */\n      calldataload\n        /* \"#utility.yul\":1131:1160   */\n      swap1\n      pop\n        /* \"#utility.yul\":1169:1202   */\n      tag_130\n        /* \"#utility.yul\":1196:1201   */\n      dup2\n        /* \"#utility.yul\":1169:1202   */\n      tag_131\n      jump\t// in\n    tag_130:\n        /* \"#utility.yul\":1069:1208   */\n      swap3\n      swap2\n      pop\n      pop\n      jump\t// out\n        /* \"#utility.yul\":1214:1543   */\n    tag_17:\n        /* \"#utility.yul\":1273:1279   */\n      0x00\n        /* \"#utility.yul\":1322:1324   */\n      0x20\n        /* \"#utility.yul\":1310:1319   */\n      dup3\n        /* \"#utility.yul\":1301:1308   */\n      dup5\n        /* \"#utility.yul\":1297:1320   */\n      sub\n        /* \"#utility.yul\":1293:1325   */\n      slt\n        /* \"#utility.yul\":1290:1409   */\n      iszero\n      tag_133\n      jumpi\n        /* \"#utility.yul\":1328:1407   */\n      tag_134\n      tag_135\n      jump\t// in\n    tag_134:\n        /* \"#utility.yul\":1290:1409   */\n    tag_133:\n        /* \"#utility.yul\":1448:1449   */\n      0x00\n        /* \"#utility.yul\":1473:1526   */\n      tag_136\n        /* \"#utility.yul\":1518:1525   */\n      dup5\n        /* \"#utility.yul\":1509:1515   */\n      dup3\n        /* \"#utility.yul\":1498:1507   */\n      dup6\n        /* \"#utility.yul\":1494:1516   */\n      add\n        /* \"#utility.yul\":1473:1526   */\n      tag_114\n      jump\t// in\n    tag_136:\n        /* \"#utility.yul\":1463:1526   */\n      swap2\n      pop\n        /* \"#utility.yul\":1419:1536   */\n      pop\n        /* \"#utility.yul\":1214:1543   */\n      swap3\n      swap2\n      pop\n      pop\n      jump\t// out\n        /* \"#utility.yul\":1549:2488   */\n    tag_22:\n        /* \"#utility.yul\":1642:1648   */\n      0x00\n        /* \"#utility.yul\":1650:1656   */\n      dup1\n        /* \"#utility.yul\":1658:1664   */\n      0x00\n        /* \"#utility.yul\":1666:1672   */\n      dup1\n        /* \"#utility.yul\":1715:1718   */\n      0x80\n        /* \"#utility.yul\":1703:1712   */\n      dup6\n        /* \"#utility.yul\":1694:1701   */\n      dup8\n        /* \"#utility.yul\":1690:1713   */\n      sub\n        /* \"#utility.yul\":1686:1719   */\n      slt\n        /* \"#utility.yul\":1683:1803   */\n      iszero\n      tag_138\n      jumpi\n        /* \"#utility.yul\":1722:1801   */\n      tag_139\n      tag_135\n      jump\t// in\n    tag_139:\n        /* \"#utility.yul\":1683:1803   */\n    tag_138:\n        /* \"#utility.yul\":1842:1843   */\n      0x00\n        /* \"#utility.yul\":1867:1920   */\n      tag_140\n        /* \"#utility.yul\":1912:1919   */\n      dup8\n        /* \"#utility.yul\":1903:1909   */\n      dup3\n        /* \"#utility.yul\":1892:1901   */\n      dup9\n        /* \"#utility.yul\":1888:1910   */\n      add\n        /* \"#utility.yul\":1867:1920   */\n      tag_114\n      jump\t// in\n    tag_140:\n        /* \"#utility.yul\":1857:1920   */\n      swap5\n      pop\n        /* \"#utility.yul\":1813:1930   */\n      pop\n        /* \"#utility.yul\":1997:1999   */\n      0x20\n        /* \"#utility.yul\":1986:1995   */\n      dup6\n        /* \"#utility.yul\":1982:2000   */\n      add\n        /* \"#utility.yul\":1969:2001   */\n      calldataload\n        /* \"#utility.yul\":2028:2046   */\n      0xffffffffffffffff\n        /* \"#utility.yul\":2020:2026   */\n      dup2\n        /* \"#utility.yul\":2017:2047   */\n      gt\n        /* \"#utility.yul\":2014:2131   */\n      iszero\n      tag_141\n      jumpi\n        /* \"#utility.yul\":2050:2129   */\n      tag_142\n      tag_143\n      jump\t// in\n    tag_142:\n        /* \"#utility.yul\":2014:2131   */\n    tag_141:\n        /* \"#utility.yul\":2155:2218   */\n      tag_144\n        /* \"#utility.yul\":2210:2217   */\n      dup8\n        /* \"#utility.yul\":2201:2207   */\n      dup3\n        /* \"#utility.yul\":2190:2199   */\n      dup9\n        /* \"#utility.yul\":2186:2208   */\n      add\n        /* \"#utility.yul\":2155:2218   */\n      tag_122\n      jump\t// in\n    tag_144:\n        /* \"#utility.yul\":2145:2218   */\n      swap4\n      pop\n        /* \"#utility.yul\":1940:2228   */\n      pop\n        /* \"#utility.yul\":2267:2269   */\n      0x40\n        /* \"#utility.yul\":2293:2346   */\n      tag_145\n        /* \"#utility.yul\":2338:2345   */\n      dup8\n        /* \"#utility.yul\":2329:2335   */\n      dup3\n        /* \"#utility.yul\":2318:2327   */\n      dup9\n        /* \"#utility.yul\":2314:2336   */\n      add\n        /* \"#utility.yul\":2293:2346   */\n      tag_128\n      jump\t// in\n    tag_145:\n        /* \"#utility.yul\":2283:2346   */\n      swap3\n      pop\n        /* \"#utility.yul\":2238:2356   */\n      pop\n        /* \"#utility.yul\":2395:2397   */\n      0x60\n        /* \"#utility.yul\":2421:2471   */\n      tag_146\n        /* \"#utility.yul\":2463:2470   */\n      dup8\n        /* \"#utility.yul\":2454:2460   */\n      dup3\n        /* \"#utility.yul\":2443:2452   */\n      dup9\n        /* \"#utility.yul\":2439:2461   */\n      add\n        /* \"#utility.yul\":2421:2471   */\n      tag_118\n      jump\t// in\n    tag_146:\n        /* \"#utility.yul\":2411:2471   */\n      swap2\n      pop\n        /* \"#utility.yul\":2366:2481   */\n      pop\n        /* \"#utility.yul\":1549:2488   */\n      swap3\n      swap6\n      swap2\n      swap5\n      pop\n      swap3\n      pop\n      jump\t// out\n        /* \"#utility.yul\":2494:2968   */\n    tag_13:\n        /* \"#utility.yul\":2562:2568   */\n      0x00\n        /* \"#utility.yul\":2570:2576   */\n      dup1\n        /* \"#utility.yul\":2619:2621   */\n      0x40\n        /* \"#utility.yul\":2607:2616   */\n      dup4\n        /* \"#utility.yul\":2598:2605   */\n      dup6\n        /* \"#utility.yul\":2594:2617   */\n      sub\n        /* \"#utility.yul\":2590:2622   */\n      slt\n        /* \"#utility.yul\":2587:2706   */\n      iszero\n      tag_148\n      jumpi\n        /* \"#utility.yul\":2625:2704   */\n      tag_149\n      tag_135\n      jump\t// in\n    tag_149:\n        /* \"#utility.yul\":2587:2706   */\n    tag_148:\n        /* \"#utility.yul\":2745:2746   */\n      0x00\n        /* \"#utility.yul\":2770:2823   */\n      tag_150\n        /* \"#utility.yul\":2815:2822   */\n      dup6\n        /* \"#utility.yul\":2806:2812   */\n      dup3\n        /* \"#utility.yul\":2795:2804   */\n      dup7\n        /* \"#utility.yul\":2791:2813   */\n      add\n        /* \"#utility.yul\":2770:2823   */\n      tag_114\n      jump\t// in\n    tag_150:\n        /* \"#utility.yul\":2760:2823   */\n      swap3\n      pop\n        /* \"#utility.yul\":2716:2833   */\n      pop\n        /* \"#utility.yul\":2872:2874   */\n      0x20\n        /* \"#utility.yul\":2898:2951   */\n      tag_151\n        /* \"#utility.yul\":2943:2950   */\n      dup6\n        /* \"#utility.yul\":2934:2940   */\n      dup3\n        /* \"#utility.yul\":2923:2932   */\n      dup7\n        /* \"#utility.yul\":2919:2941   */\n      add\n        /* \"#utility.yul\":2898:2951   */\n      tag_128\n      jump\t// in\n    tag_151:\n        /* \"#utility.yul\":2888:2951   */\n      swap2\n      pop\n        /* \"#utility.yul\":2843:2961   */\n      pop\n        /* \"#utility.yul\":2494:2968   */\n      swap3\n      pop\n      swap3\n      swap1\n      pop\n      jump\t// out\n        /* \"#utility.yul\":2974:3303   */\n    tag_27:\n        /* \"#utility.yul\":3033:3039   */\n      0x00\n        /* \"#utility.yul\":3082:3084   */\n      0x20\n        /* \"#utility.yul\":3070:3079   */\n      dup3\n        /* \"#utility.yul\":3061:3068   */\n      dup5\n        /* \"#utility.yul\":3057:3080   */\n      sub\n        /* \"#utility.yul\":3053:3085   */\n      slt\n        /* \"#utility.yul\":3050:3169   */\n      iszero\n      tag_153\n      jumpi\n        /* \"#utility.yul\":3088:3167   */\n      tag_154\n      tag_135\n      jump\t// in\n    tag_154:\n        /* \"#utility.yul\":3050:3169   */\n    tag_153:\n        /* \"#utility.yul\":3208:3209   */\n      0x00\n        /* \"#utility.yul\":3233:3286   */\n      tag_155\n        /* \"#utility.yul\":3278:3285   */\n      dup5\n        /* \"#utility.yul\":3269:3275   */\n      dup3\n        /* \"#utility.yul\":3258:3267   */\n      dup6\n        /* \"#utility.yul\":3254:3276   */\n      add\n        /* \"#utility.yul\":3233:3286   */\n      tag_128\n      jump\t// in\n    tag_155:\n        /* \"#utility.yul\":3223:3286   */\n      swap2\n      pop\n        /* \"#utility.yul\":3179:3296   */\n      pop\n        /* \"#utility.yul\":2974:3303   */\n      swap3\n      swap2\n      pop\n      pop\n      jump\t// out\n        /* \"#utility.yul\":3309:3427   */\n    tag_156:\n        /* \"#utility.yul\":3396:3420   */\n      tag_158\n        /* \"#utility.yul\":3414:3419   */\n      dup2\n        /* \"#utility.yul\":3396:3420   */\n      tag_159\n      jump\t// in\n    tag_158:\n        /* \"#utility.yul\":3391:3394   */\n      dup3\n        /* \"#utility.yul\":3384:3421   */\n      mstore\n        /* \"#utility.yul\":3309:3427   */\n      pop\n      pop\n      jump\t// out\n        /* \"#utility.yul\":3433:3542   */\n    tag_160:\n        /* \"#utility.yul\":3514:3535   */\n      tag_162\n        /* \"#utility.yul\":3529:3534   */\n      dup2\n        /* \"#utility.yul\":3514:3535   */\n      tag_163\n      jump\t// in\n    tag_162:\n        /* \"#utility.yul\":3509:3512   */\n      dup3\n        /* \"#utility.yul\":3502:3536   */\n      mstore\n        /* \"#utility.yul\":3433:3542   */\n      pop\n      pop\n      jump\t// out\n        /* \"#utility.yul\":3548:3912   */\n    tag_164:\n        /* \"#utility.yul\":3636:3639   */\n      0x00\n        /* \"#utility.yul\":3664:3703   */\n      tag_166\n        /* \"#utility.yul\":3697:3702   */\n      dup3\n        /* \"#utility.yul\":3664:3703   */\n      tag_167\n      jump\t// in\n    tag_166:\n        /* \"#utility.yul\":3719:3790   */\n      tag_168\n        /* \"#utility.yul\":3783:3789   */\n      dup2\n        /* \"#utility.yul\":3778:3781   */\n      dup6\n        /* \"#utility.yul\":3719:3790   */\n      tag_169\n      jump\t// in\n    tag_168:\n        /* \"#utility.yul\":3712:3790   */\n      swap4\n      pop\n        /* \"#utility.yul\":3799:3851   */\n      tag_170\n        /* \"#utility.yul\":3844:3850   */\n      dup2\n        /* \"#utility.yul\":3839:3842   */\n      dup6\n        /* \"#utility.yul\":3832:3836   */\n      0x20\n        /* \"#utility.yul\":3825:3830   */\n      dup7\n        /* \"#utility.yul\":3821:3837   */\n      add\n        /* \"#utility.yul\":3799:3851   */\n      tag_171\n      jump\t// in\n    tag_170:\n        /* \"#utility.yul\":3876:3905   */\n      tag_172\n        /* \"#utility.yul\":3898:3904   */\n      dup2\n        /* \"#utility.yul\":3876:3905   */\n      tag_173\n      jump\t// in\n    tag_172:\n        /* \"#utility.yul\":3871:3874   */\n      dup5\n        /* \"#utility.yul\":3867:3906   */\n      add\n        /* \"#utility.yul\":3860:3906   */\n      swap2\n      pop\n        /* \"#utility.yul\":3640:3912   */\n      pop\n        /* \"#utility.yul\":3548:3912   */\n      swap3\n      swap2\n      pop\n      pop\n      jump\t// out\n        /* \"#utility.yul\":3918:4036   */\n    tag_174:\n        /* \"#utility.yul\":4005:4029   */\n      tag_176\n        /* \"#utility.yul\":4023:4028   */\n      dup2\n        /* \"#utility.yul\":4005:4029   */\n      tag_177\n      jump\t// in\n    tag_176:\n        /* \"#utility.yul\":4000:4003   */\n      dup3\n        /* \"#utility.yul\":3993:4030   */\n      mstore\n        /* \"#utility.yul\":3918:4036   */\n      pop\n      pop\n      jump\t// out\n        /* \"#utility.yul\":4042:4264   */\n    tag_35:\n        /* \"#utility.yul\":4135:4139   */\n      0x00\n        /* \"#utility.yul\":4173:4175   */\n      0x20\n        /* \"#utility.yul\":4162:4171   */\n      dup3\n        /* \"#utility.yul\":4158:4176   */\n      add\n        /* \"#utility.yul\":4150:4176   */\n      swap1\n      pop\n        /* \"#utility.yul\":4186:4257   */\n      tag_179\n        /* \"#utility.yul\":4254:4255   */\n      0x00\n        /* \"#utility.yul\":4243:4252   */\n      dup4\n        /* \"#utility.yul\":4239:4256   */\n      add\n        /* \"#utility.yul\":4230:4236   */\n      dup5\n        /* \"#utility.yul\":4186:4257   */\n      tag_156\n      jump\t// in\n    tag_179:\n        /* \"#utility.yul\":4042:4264   */\n      swap3\n      swap2\n      pop\n      pop\n      jump\t// out\n        /* \"#utility.yul\":4270:4902   */\n    tag_30:\n        /* \"#utility.yul\":4461:4465   */\n      0x00\n        /* \"#utility.yul\":4499:4502   */\n      0x80\n        /* \"#utility.yul\":4488:4497   */\n      dup3\n        /* \"#utility.yul\":4484:4503   */\n      add\n        /* \"#utility.yul\":4476:4503   */\n      swap1\n      pop\n        /* \"#utility.yul\":4513:4584   */\n      tag_181\n        /* \"#utility.yul\":4581:4582   */\n      0x00\n        /* \"#utility.yul\":4570:4579   */\n      dup4\n        /* \"#utility.yul\":4566:4583   */\n      add\n        /* \"#utility.yul\":4557:4563   */\n      dup8\n        /* \"#utility.yul\":4513:4584   */\n      tag_156\n      jump\t// in\n    tag_181:\n        /* \"#utility.yul\":4631:4640   */\n      dup2\n        /* \"#utility.yul\":4625:4629   */\n      dup2\n        /* \"#utility.yul\":4621:4641   */\n      sub\n        /* \"#utility.yul\":4616:4618   */\n      0x20\n        /* \"#utility.yul\":4605:4614   */\n      dup4\n        /* \"#utility.yul\":4601:4619   */\n      add\n        /* \"#utility.yul\":4594:4642   */\n      mstore\n        /* \"#utility.yul\":4659:4737   */\n      tag_182\n        /* \"#utility.yul\":4732:4736   */\n      dup2\n        /* \"#utility.yul\":4723:4729   */\n      dup7\n        /* \"#utility.yul\":4659:4737   */\n      tag_164\n      jump\t// in\n    tag_182:\n        /* \"#utility.yul\":4651:4737   */\n      swap1\n      pop\n        /* \"#utility.yul\":4747:4819   */\n      tag_183\n        /* \"#utility.yul\":4815:4817   */\n      0x40\n        /* \"#utility.yul\":4804:4813   */\n      dup4\n        /* \"#utility.yul\":4800:4818   */\n      add\n        /* \"#utility.yul\":4791:4797   */\n      dup6\n        /* \"#utility.yul\":4747:4819   */\n      tag_174\n      jump\t// in\n    tag_183:\n        /* \"#utility.yul\":4829:4895   */\n      tag_184\n        /* \"#utility.yul\":4891:4893   */\n      0x60\n        /* \"#utility.yul\":4880:4889   */\n      dup4\n        /* \"#utility.yul\":4876:4894   */\n      add\n        /* \"#utility.yul\":4867:4873   */\n      dup5\n        /* \"#utility.yul\":4829:4895   */\n      tag_160\n      jump\t// in\n    tag_184:\n        /* \"#utility.yul\":4270:4902   */\n      swap6\n      swap5\n      pop\n      pop\n      pop\n      pop\n      pop\n      jump\t// out\n        /* \"#utility.yul\":4908:5130   */\n    tag_41:\n        /* \"#utility.yul\":5001:5005   */\n      0x00\n        /* \"#utility.yul\":5039:5041   */\n      0x20\n        /* \"#utility.yul\":5028:5037   */\n      dup3\n        /* \"#utility.yul\":5024:5042   */\n      add\n        /* \"#utility.yul\":5016:5042   */\n      swap1\n      pop\n        /* \"#utility.yul\":5052:5123   */\n      tag_186\n        /* \"#utility.yul\":5120:5121   */\n      0x00\n        /* \"#utility.yul\":5109:5118   */\n      dup4\n        /* \"#utility.yul\":5105:5122   */\n      add\n        /* \"#utility.yul\":5096:5102   */\n      dup5\n        /* \"#utility.yul\":5052:5123   */\n      tag_174\n      jump\t// in\n    tag_186:\n        /* \"#utility.yul\":4908:5130   */\n      swap3\n      swap2\n      pop\n      pop\n      jump\t// out\n        /* \"#utility.yul\":5136:5265   */\n    tag_108:\n        /* \"#utility.yul\":5170:5176   */\n      0x00\n        /* \"#utility.yul\":5197:5217   */\n      tag_188\n      tag_189\n      jump\t// in\n    tag_188:\n        /* \"#utility.yul\":5187:5217   */\n      swap1\n      pop\n        /* \"#utility.yul\":5226:5259   */\n      tag_190\n        /* \"#utility.yul\":5254:5258   */\n      dup3\n        /* \"#utility.yul\":5246:5252   */\n      dup3\n        /* \"#utility.yul\":5226:5259   */\n      tag_191\n      jump\t// in\n    tag_190:\n        /* \"#utility.yul\":5136:5265   */\n      swap2\n      swap1\n      pop\n      jump\t// out\n        /* \"#utility.yul\":5271:5346   */\n    tag_189:\n        /* \"#utility.yul\":5304:5310   */\n      0x00\n        /* \"#utility.yul\":5337:5339   */\n      0x40\n        /* \"#utility.yul\":5331:5340   */\n      mload\n        /* \"#utility.yul\":5321:5340   */\n      swap1\n      pop\n        /* \"#utility.yul\":5271:5346   */\n      swap1\n      jump\t// out\n        /* \"#utility.yul\":5352:5660   */\n    tag_107:\n        /* \"#utility.yul\":5414:5418   */\n      0x00\n        /* \"#utility.yul\":5504:5522   */\n      0xffffffffffffffff\n        /* \"#utility.yul\":5496:5502   */\n      dup3\n        /* \"#utility.yul\":5493:5523   */\n      gt\n        /* \"#utility.yul\":5490:5546   */\n      iszero\n      tag_194\n      jumpi\n        /* \"#utility.yul\":5526:5544   */\n      tag_195\n      tag_196\n      jump\t// in\n    tag_195:\n        /* \"#utility.yul\":5490:5546   */\n    tag_194:\n        /* \"#utility.yul\":5564:5593   */\n      tag_197\n        /* \"#utility.yul\":5586:5592   */\n      dup3\n        /* \"#utility.yul\":5564:5593   */\n      tag_173\n      jump\t// in\n    tag_197:\n        /* \"#utility.yul\":5556:5593   */\n      swap1\n      pop\n        /* \"#utility.yul\":5648:5652   */\n      0x20\n        /* \"#utility.yul\":5642:5646   */\n      dup2\n        /* \"#utility.yul\":5638:5653   */\n      add\n        /* \"#utility.yul\":5630:5653   */\n      swap1\n      pop\n        /* \"#utility.yul\":5352:5660   */\n      swap2\n      swap1\n      pop\n      jump\t// out\n        /* \"#utility.yul\":5666:5765   */\n    tag_167:\n        /* \"#utility.yul\":5718:5724   */\n      0x00\n        /* \"#utility.yul\":5752:5757   */\n      dup2\n        /* \"#utility.yul\":5746:5758   */\n      mload\n        /* \"#utility.yul\":5736:5758   */\n      swap1\n      pop\n        /* \"#utility.yul\":5666:5765   */\n      swap2\n      swap1\n      pop\n      jump\t// out\n        /* \"#utility.yul\":5771:5940   */\n    tag_169:\n        /* \"#utility.yul\":5855:5866   */\n      0x00\n        /* \"#utility.yul\":5889:5895   */\n      dup3\n        /* \"#utility.yul\":5884:5887   */\n      dup3\n        /* \"#utility.yul\":5877:5896   */\n      mstore\n        /* \"#utility.yul\":5929:5933   */\n      0x20\n        /* \"#utility.yul\":5924:5927   */\n      dup3\n        /* \"#utility.yul\":5920:5934   */\n      add\n        /* \"#utility.yul\":5905:5934   */\n      swap1\n      pop\n        /* \"#utility.yul\":5771:5940   */\n      swap3\n      swap2\n      pop\n      pop\n      jump\t// out\n        /* \"#utility.yul\":5946:6251   */\n    tag_90:\n        /* \"#utility.yul\":5986:5989   */\n      0x00\n        /* \"#utility.yul\":6005:6025   */\n      tag_201\n        /* \"#utility.yul\":6023:6024   */\n      dup3\n        /* \"#utility.yul\":6005:6025   */\n      tag_177\n      jump\t// in\n    tag_201:\n        /* \"#utility.yul\":6000:6025   */\n      swap2\n      pop\n        /* \"#utility.yul\":6039:6059   */\n      tag_202\n        /* \"#utility.yul\":6057:6058   */\n      dup4\n        /* \"#utility.yul\":6039:6059   */\n      tag_177\n      jump\t// in\n    tag_202:\n        /* \"#utility.yul\":6034:6059   */\n      swap3\n      pop\n        /* \"#utility.yul\":6193:6194   */\n      dup3\n        /* \"#utility.yul\":6125:6191   */\n      0xffffffffffffffffffffffffffffffffffffffffffffffffffffffffffffffff\n        /* \"#utility.yul\":6121:6195   */\n      sub\n        /* \"#utility.yul\":6118:6119   */\n      dup3\n        /* \"#utility.yul\":6115:6196   */\n      gt\n        /* \"#utility.yul\":6112:6219   */\n      iszero\n      tag_203\n      jumpi\n        /* \"#utility.yul\":6199:6217   */\n      tag_204\n      tag_205\n      jump\t// in\n    tag_204:\n        /* \"#utility.yul\":6112:6219   */\n    tag_203:\n        /* \"#utility.yul\":6243:6244   */\n      dup3\n        /* \"#utility.yul\":6240:6241   */\n      dup3\n        /* \"#utility.yul\":6236:6245   */\n      add\n        /* \"#utility.yul\":6229:6245   */\n      swap1\n      pop\n        /* \"#utility.yul\":5946:6251   */\n      swap3\n      swap2\n      pop\n      pop\n      jump\t// out\n        /* \"#utility.yul\":6257:6353   */\n    tag_159:\n        /* \"#utility.yul\":6294:6301   */\n      0x00\n        /* \"#utility.yul\":6323:6347   */\n      tag_207\n        /* \"#utility.yul\":6341:6346   */\n      dup3\n        /* \"#utility.yul\":6323:6347   */\n      tag_208\n      jump\t// in\n    tag_207:\n        /* \"#utility.yul\":6312:6347   */\n      swap1\n      pop\n        /* \"#utility.yul\":6257:6353   */\n      swap2\n      swap1\n      pop\n      jump\t// out\n        /* \"#utility.yul\":6359:6449   */\n    tag_163:\n        /* \"#utility.yul\":6393:6400   */\n      0x00\n        /* \"#utility.yul\":6436:6441   */\n      dup2\n        /* \"#utility.yul\":6429:6442   */\n      iszero\n        /* \"#utility.yul\":6422:6443   */\n      iszero\n        /* \"#utility.yul\":6411:6443   */\n      swap1\n      pop\n        /* \"#utility.yul\":6359:6449   */\n      swap2\n      swap1\n      pop\n      jump\t// out\n        /* \"#utility.yul\":6455:6581   */\n    tag_208:\n        /* \"#utility.yul\":6492:6499   */\n      0x00\n        /* \"#utility.yul\":6532:6574   */\n      0xffffffffffffffffffffffffffffffffffffffff\n        /* \"#utility.yul\":6525:6530   */\n      dup3\n        /* \"#utility.yul\":6521:6575   */\n      and\n        /* \"#utility.yul\":6510:6575   */\n      swap1\n      pop\n        /* \"#utility.yul\":6455:6581   */\n      swap2\n      swap1\n      pop\n      jump\t// out\n        /* \"#utility.yul\":6587:6664   */\n    tag_177:\n        /* \"#utility.yul\":6624:6631   */\n      0x00\n        /* \"#utility.yul\":6653:6658   */\n      dup2\n        /* \"#utility.yul\":6642:6658   */\n      swap1\n      pop\n        /* \"#utility.yul\":6587:6664   */\n      swap2\n      swap1\n      pop\n      jump\t// out\n        /* \"#utility.yul\":6670:6824   */\n    tag_113:\n        /* \"#utility.yul\":6754:6760   */\n      dup3\n        /* \"#utility.yul\":6749:6752   */\n      dup2\n        /* \"#utility.yul\":6744:6747   */\n      dup4\n        /* \"#utility.yul\":6731:6761   */\n      calldatacopy\n        /* \"#utility.yul\":6816:6817   */\n      0x00\n        /* \"#utility.yul\":6807:6813   */\n      dup4\n        /* \"#utility.yul\":6802:6805   */\n      dup4\n        /* \"#utility.yul\":6798:6814   */\n      add\n        /* \"#utility.yul\":6791:6818   */\n      mstore\n        /* \"#utility.yul\":6670:6824   */\n      pop\n      pop\n      pop\n      jump\t// out\n        /* \"#utility.yul\":6830:7137   */\n    tag_171:\n        /* \"#utility.yul\":6898:6899   */\n      0x00\n        /* \"#utility.yul\":6908:7021   */\n    tag_214:\n        /* \"#utility.yul\":6922:6928   */\n      dup4\n        /* \"#utility.yul\":6919:6920   */\n      dup2\n        /* \"#utility.yul\":6916:6929   */\n      lt\n        /* \"#utility.yul\":6908:7021   */\n      iszero\n      tag_216\n      jumpi\n        /* \"#utility.yul\":7007:7008   */\n      dup1\n        /* \"#utility.yul\":7002:7005   */\n      dup3\n        /* \"#utility.yul\":6998:7009   */\n      add\n        /* \"#utility.yul\":6992:7010   */\n      mload\n        /* \"#utility.yul\":6988:6989   */\n      dup2\n        /* \"#utility.yul\":6983:6986   */\n      dup5\n        /* \"#utility.yul\":6979:6990   */\n      add\n        /* \"#utility.yul\":6972:7011   */\n      mstore\n        /* \"#utility.yul\":6944:6946   */\n      0x20\n        /* \"#utility.yul\":6941:6942   */\n      dup2\n        /* \"#utility.yul\":6937:6947   */\n      add\n        /* \"#utility.yul\":6932:6947   */\n      swap1\n      pop\n        /* \"#utility.yul\":6908:7021   */\n      jump(tag_214)\n    tag_216:\n        /* \"#utility.yul\":7039:7045   */\n      dup4\n        /* \"#utility.yul\":7036:7037   */\n      dup2\n        /* \"#utility.yul\":7033:7046   */\n      gt\n        /* \"#utility.yul\":7030:7131   */\n      iszero\n      tag_217\n      jumpi\n        /* \"#utility.yul\":7119:7120   */\n      0x00\n        /* \"#utility.yul\":7110:7116   */\n      dup5\n        /* \"#utility.yul\":7105:7108   */\n      dup5\n        /* \"#utility.yul\":7101:7117   */\n      add\n        /* \"#utility.yul\":7094:7121   */\n      mstore\n        /* \"#utility.yul\":7030:7131   */\n    tag_217:\n        /* \"#utility.yul\":6879:7137   */\n      pop\n        /* \"#utility.yul\":6830:7137   */\n      pop\n      pop\n      pop\n      jump\t// out\n        /* \"#utility.yul\":7143:7463   */\n    tag_58:\n        /* \"#utility.yul\":7187:7193   */\n      0x00\n        /* \"#utility.yul\":7224:7225   */\n      0x02\n        /* \"#utility.yul\":7218:7222   */\n      dup3\n        /* \"#utility.yul\":7214:7226   */\n      div\n        /* \"#utility.yul\":7204:7226   */\n      swap1\n      pop\n        /* \"#utility.yul\":7271:7272   */\n      0x01\n        /* \"#utility.yul\":7265:7269   */\n      dup3\n        /* \"#utility.yul\":7261:7273   */\n      and\n        /* \"#utility.yul\":7292:7310   */\n      dup1\n        /* \"#utility.yul\":7282:7363   */\n      tag_219\n      jumpi\n        /* \"#utility.yul\":7348:7352   */\n      0x7f\n        /* \"#utility.yul\":7340:7346   */\n      dup3\n        /* \"#utility.yul\":7336:7353   */\n      and\n        /* \"#utility.yul\":7326:7353   */\n      swap2\n      pop\n        /* \"#utility.yul\":7282:7363   */\n    tag_219:\n        /* \"#utility.yul\":7410:7412   */\n      0x20\n        /* \"#utility.yul\":7402:7408   */\n      dup3\n        /* \"#utility.yul\":7399:7413   */\n      lt\n        /* \"#utility.yul\":7379:7397   */\n      dup2\n        /* \"#utility.yul\":7376:7414   */\n      eq\n        /* \"#utility.yul\":7373:7457   */\n      iszero\n      tag_220\n      jumpi\n        /* \"#utility.yul\":7429:7447   */\n      tag_221\n      tag_222\n      jump\t// in\n    tag_221:\n        /* \"#utility.yul\":7373:7457   */\n    tag_220:\n        /* \"#utility.yul\":7194:7463   */\n      pop\n        /* \"#utility.yul\":7143:7463   */\n      swap2\n      swap1\n      pop\n      jump\t// out\n        /* \"#utility.yul\":7469:7750   */\n    tag_191:\n        /* \"#utility.yul\":7552:7579   */\n      tag_224\n        /* \"#utility.yul\":7574:7578   */\n      dup3\n        /* \"#utility.yul\":7552:7579   */\n      tag_173\n      jump\t// in\n    tag_224:\n        /* \"#utility.yul\":7544:7550   */\n      dup2\n        /* \"#utility.yul\":7540:7580   */\n      add\n        /* \"#utility.yul\":7682:7688   */\n      dup2\n        /* \"#utility.yul\":7670:7680   */\n      dup2\n        /* \"#utility.yul\":7667:7689   */\n      lt\n        /* \"#utility.yul\":7646:7664   */\n      0xffffffffffffffff\n        /* \"#utility.yul\":7634:7644   */\n      dup3\n        /* \"#utility.yul\":7631:7665   */\n      gt\n        /* \"#utility.yul\":7628:7690   */\n      or\n        /* \"#utility.yul\":7625:7713   */\n      iszero\n      tag_225\n      jumpi\n        /* \"#utility.yul\":7693:7711   */\n      tag_226\n      tag_196\n      jump\t// in\n    tag_226:\n        /* \"#utility.yul\":7625:7713   */\n    tag_225:\n        /* \"#utility.yul\":7733:7743   */\n      dup1\n        /* \"#utility.yul\":7729:7731   */\n      0x40\n        /* \"#utility.yul\":7722:7744   */\n      mstore\n        /* \"#utility.yul\":7512:7750   */\n      pop\n        /* \"#utility.yul\":7469:7750   */\n      pop\n      pop\n      jump\t// out\n        /* \"#utility.yul\":7756:7989   */\n    tag_77:\n        /* \"#utility.yul\":7795:7798   */\n      0x00\n        /* \"#utility.yul\":7818:7842   */\n      tag_228\n        /* \"#utility.yul\":7836:7841   */\n      dup3\n        /* \"#utility.yul\":7818:7842   */\n      tag_177\n      jump\t// in\n    tag_228:\n        /* \"#utility.yul\":7809:7842   */\n      swap2\n      pop\n        /* \"#utility.yul\":7864:7930   */\n      0xffffffffffffffffffffffffffffffffffffffffffffffffffffffffffffffff\n        /* \"#utility.yul\":7857:7862   */\n      dup3\n        /* \"#utility.yul\":7854:7931   */\n      eq\n        /* \"#utility.yul\":7851:7954   */\n      iszero\n      tag_229\n      jumpi\n        /* \"#utility.yul\":7934:7952   */\n      tag_230\n      tag_205\n      jump\t// in\n    tag_230:\n        /* \"#utility.yul\":7851:7954   */\n    tag_229:\n        /* \"#utility.yul\":7981:7982   */\n      0x01\n        /* \"#utility.yul\":7974:7979   */\n      dup3\n        /* \"#utility.yul\":7970:7983   */\n      add\n        /* \"#utility.yul\":7963:7983   */\n      swap1\n      pop\n        /* \"#utility.yul\":7756:7989   */\n      swap2\n      swap1\n      pop\n      jump\t// out\n        /* \"#utility.yul\":7995:8175   */\n    tag_205:\n        /* \"#utility.yul\":8043:8120   */\n      0x4e487b7100000000000000000000000000000000000000000000000000000000\n        /* \"#utility.yul\":8040:8041   */\n      0x00\n        /* \"#utility.yul\":8033:8121   */\n      mstore\n        /* \"#utility.yul\":8140:8144   */\n      0x11\n        /* \"#utility.yul\":8137:8138   */\n      0x04\n        /* \"#utility.yul\":8130:8145   */\n      mstore\n        /* \"#utility.yul\":8164:8168   */\n      0x24\n        /* \"#utility.yul\":8161:8162   */\n      0x00\n        /* \"#utility.yul\":8154:8169   */\n      revert\n        /* \"#utility.yul\":8181:8361   */\n    tag_222:\n        /* \"#utility.yul\":8229:8306   */\n      0x4e487b7100000000000000000000000000000000000000000000000000000000\n        /* \"#utility.yul\":8226:8227   */\n      0x00\n        /* \"#utility.yul\":8219:8307   */\n      mstore\n        /* \"#utility.yul\":8326:8330   */\n      0x22\n        /* \"#utility.yul\":8323:8324   */\n      0x04\n        /* \"#utility.yul\":8316:8331   */\n      mstore\n        /* \"#utility.yul\":8350:8354   */\n      0x24\n        /* \"#utility.yul\":8347:8348   */\n      0x00\n        /* \"#utility.yul\":8340:8355   */\n      revert\n        /* \"#utility.yul\":8367:8547   */\n    tag_70:\n        /* \"#utility.yul\":8415:8492   */\n      0x4e487b7100000000000000000000000000000000000000000000000000000000\n        /* \"#utility.yul\":8412:8413   */\n      0x00\n        /* \"#utility.yul\":8405:8493   */\n      mstore\n        /* \"#utility.yul\":8512:8516   */\n      0x32\n        /* \"#utility.yul\":8509:8510   */\n      0x04\n        /* \"#utility.yul\":8502:8517   */\n      mstore\n        /* \"#utility.yul\":8536:8540   */\n      0x24\n        /* \"#utility.yul\":8533:8534   */\n      0x00\n        /* \"#utility.yul\":8526:8541   */\n      revert\n        /* \"#utility.yul\":8553:8733   */\n    tag_196:\n        /* \"#utility.yul\":8601:8678   */\n      0x4e487b7100000000000000000000000000000000000000000000000000000000\n        /* \"#utility.yul\":8598:8599   */\n      0x00\n        /* \"#utility.yul\":8591:8679   */\n      mstore\n        /* \"#utility.yul\":8698:8702   */\n      0x41\n        /* \"#utility.yul\":8695:8696   */\n      0x04\n        /* \"#utility.yul\":8688:8703   */\n      mstore\n        /* \"#utility.yul\":8722:8726   */\n      0x24\n        /* \"#utility.yul\":8719:8720   */\n      0x00\n        /* \"#utility.yul\":8712:8727   */\n      revert\n        /* \"#utility.yul\":8739:8856   */\n    tag_126:\n        /* \"#utility.yul\":8848:8849   */\n      0x00\n        /* \"#utility.yul\":8845:8846   */\n      dup1\n        /* \"#utility.yul\":8838:8850   */\n      revert\n        /* \"#utility.yul\":8862:8979   */\n    tag_111:\n        /* \"#utility.yul\":8971:8972   */\n      0x00\n        /* \"#utility.yul\":8968:8969   */\n      dup1\n        /* \"#utility.yul\":8961:8973   */\n      revert\n        /* \"#utility.yul\":8985:9102   */\n    tag_143:\n        /* \"#utility.yul\":9094:9095   */\n      0x00\n        /* \"#utility.yul\":9091:9092   */\n      dup1\n        /* \"#utility.yul\":9084:9096   */\n      revert\n        /* \"#utility.yul\":9108:9225   */\n    tag_135:\n        /* \"#utility.yul\":9217:9218   */\n      0x00\n        /* \"#utility.yul\":9214:9215   */\n      dup1\n        /* \"#utility.yul\":9207:9219   */\n      revert\n        /* \"#utility.yul\":9231:9333   */\n    tag_173:\n        /* \"#utility.yul\":9272:9278   */\n      0x00\n        /* \"#utility.yul\":9323:9325   */\n      0x1f\n        /* \"#utility.yul\":9319:9326   */\n      not\n        /* \"#utility.yul\":9314:9316   */\n      0x1f\n        /* \"#utility.yul\":9307:9312   */\n      dup4\n        /* \"#utility.yul\":9303:9317   */\n      add\n        /* \"#utility.yul\":9299:9327   */\n      and\n        /* \"#utility.yul\":9289:9327   */\n      swap1\n      pop\n        /* \"#utility.yul\":9231:9333   */\n      swap2\n      swap1\n      pop\n      jump\t// out\n        /* \"#utility.yul\":9339:9461   */\n    tag_117:\n        /* \"#utility.yul\":9412:9436   */\n      tag_241\n        /* \"#utility.yul\":9430:9435   */\n      dup2\n        /* \"#utility.yul\":9412:9436   */\n      tag_159\n      jump\t// in\n    tag_241:\n        /* \"#utility.yul\":9405:9410   */\n      dup2\n        /* \"#utility.yul\":9402:9437   */\n      eq\n        /* \"#utility.yul\":9392:9455   */\n      tag_242\n      jumpi\n        /* \"#utility.yul\":9451:9452   */\n      0x00\n        /* \"#utility.yul\":9448:9449   */\n      dup1\n        /* \"#utility.yul\":9441:9453   */\n      revert\n        /* \"#utility.yul\":9392:9455   */\n    tag_242:\n        /* \"#utility.yul\":9339:9461   */\n      pop\n      jump\t// out\n        /* \"#utility.yul\":9467:9583   */\n    tag_121:\n        /* \"#utility.yul\":9537:9558   */\n      tag_244\n        /* \"#utility.yul\":9552:9557   */\n      dup2\n        /* \"#utility.yul\":9537:9558   */\n      tag_163\n      jump\t// in\n    tag_244:\n        /* \"#utility.yul\":9530:9535   */\n      dup2\n        /* \"#utility.yul\":9527:9559   */\n      eq\n        /* \"#utility.yul\":9517:9577   */\n      tag_245\n      jumpi\n        /* \"#utility.yul\":9573:9574   */\n      0x00\n        /* \"#utility.yul\":9570:9571   */\n      dup1\n        /* \"#utility.yul\":9563:9575   */\n      revert\n        /* \"#utility.yul\":9517:9577   */\n    tag_245:\n        /* \"#utility.yul\":9467:9583   */\n      pop\n      jump\t// out\n        /* \"#utility.yul\":9589:9711   */\n    tag_131:\n        /* \"#utility.yul\":9662:9686   */\n      tag_247\n        /* \"#utility.yul\":9680:9685   */\n      dup2\n        /* \"#utility.yul\":9662:9686   */\n      tag_177\n      jump\t// in\n    tag_247:\n        /* \"#utility.yul\":9655:9660   */\n      dup2\n        /* \"#utility.yul\":9652:9687   */\n      eq\n        /* \"#utility.yul\":9642:9705   */\n      tag_248\n      jumpi\n        /* \"#utility.yul\":9701:9702   */\n      0x00\n        /* \"#utility.yul\":9698:9699   */\n      dup1\n        /* \"#utility.yul\":9691:9703   */\n      revert\n        /* \"#utility.yul\":9642:9705   */\n    tag_248:\n        /* \"#utility.yul\":9589:9711   */\n      pop\n      jump\t// out\n\n    auxdata: 0xa2646970667358221220acf8ca26728ff33602eb7238069c21e6ee4190688169baa5b05bda8e5733f55264736f6c63430008070033\n}\n",
				"bytecode": {
					"linkReferences": {},
					"object": "608060405234801561001057600080fd5b50336000806101000a81548173ffffffffffffffffffffffffffffffffffffffff021916908373ffffffffffffffffffffffffffffffffffffffff160217905550610c91806100606000396000f3fe6080604052600436106100705760003560e01c8063365b98b21161004e578063365b98b2146100e357806352c63a04146101235780636f7bc9be1461014e57806370a082311461018b57610070565b80630b1019f0146100755780631a6952301461009e578063280879e7146100ba575b600080fd5b34801561008157600080fd5b5061009c600480360381019061009791906107e2565b6101c8565b005b6100b860048036038101906100b39190610732565b610210565b005b3480156100c657600080fd5b506100e160048036038101906100dc919061075f565b61021c565b005b3480156100ef57600080fd5b5061010a60048036038101906101059190610822565b610316565b60405161011a94939291906108d0565b60405180910390f35b34801561012f57600080fd5b5061013861040b565b60405161014591906108b5565b60405180910390f35b34801561015a57600080fd5b5061017560048036038101906101709190610732565b610410565b604051610182919061091c565b60405180910390f35b34801561019757600080fd5b506101b260048036038101906101ad9190610732565b610428565b6040516101bf919061091c565b60405180910390f35b80600260008473ffffffffffffffffffffffffffffffffffffffff1673ffffffffffffffffffffffffffffffffffffffff168152602001908152602001600020819055505050565b61021981610503565b50565b600160405180608001604052808673ffffffffffffffffffffffffffffffffffffffff168152602001858152602001848152602001831515815250908060018154018082558091505060019003906000526020600020906004020160009091909190915060008201518160000160006101000a81548173ffffffffffffffffffffffffffffffffffffffff021916908373ffffffffffffffffffffffffffffffffffffffff16021790555060208201518160010190805190602001906102e39291906105e0565b506040820151816002015560608201518160030160006101000a81548160ff021916908315150217905550505050505050565b6001818154811061032657600080fd5b90600052602060002090600402016000915090508060000160009054906101000a900473ffffffffffffffffffffffffffffffffffffffff169080600101805461036f90610a89565b80601f016020809104026020016040519081016040528092919081815260200182805461039b90610a89565b80156103e85780601f106103bd576101008083540402835291602001916103e8565b820191906000526020600020905b8154815290600101906020018083116103cb57829003601f168201915b5050505050908060020154908060030160009054906101000a900460ff16905084565b600090565b60026020528060005260406000206000915090505481565b600080600090505b6001805490508110156104f7578273ffffffffffffffffffffffffffffffffffffffff166001828154811061046857610467610b93565b5b906000526020600020906004020160000160009054906101000a900473ffffffffffffffffffffffffffffffffffffffff1673ffffffffffffffffffffffffffffffffffffffff1614156104e457600181815481106104ca576104c9610b93565b5b9060005260206000209060040201600201549150506104fe565b80806104ef90610aec565b915050610430565b506103e790505b919050565b60005b6001805490508110156105dc578173ffffffffffffffffffffffffffffffffffffffff166001828154811061053e5761053d610b93565b5b906000526020600020906004020160000160009054906101000a900473ffffffffffffffffffffffffffffffffffffffff1673ffffffffffffffffffffffffffffffffffffffff1614156105c95734600182815481106105a1576105a0610b93565b5b906000526020600020906004020160020160008282546105c191906109a9565b925050819055505b80806105d490610aec565b915050610506565b5050565b8280546105ec90610a89565b90600052602060002090601f01602090048101928261060e5760008555610655565b82601f1061062757805160ff1916838001178555610655565b82800160010185558215610655579182015b82811115610654578251825591602001919060010190610639565b5b5090506106629190610666565b5090565b5b8082111561067f576000816000905550600101610667565b5090565b60006106966106918461095c565b610937565b9050828152602081018484840111156106b2576106b1610bf6565b5b6106bd848285610a47565b509392505050565b6000813590506106d481610c16565b92915050565b6000813590506106e981610c2d565b92915050565b600082601f83011261070457610703610bf1565b5b8135610714848260208601610683565b91505092915050565b60008135905061072c81610c44565b92915050565b60006020828403121561074857610747610c00565b5b6000610756848285016106c5565b91505092915050565b6000806000806080858703121561077957610778610c00565b5b6000610787878288016106c5565b945050602085013567ffffffffffffffff8111156107a8576107a7610bfb565b5b6107b4878288016106ef565b93505060406107c58782880161071d565b92505060606107d6878288016106da565b91505092959194509250565b600080604083850312156107f9576107f8610c00565b5b6000610807858286016106c5565b92505060206108188582860161071d565b9150509250929050565b60006020828403121561083857610837610c00565b5b60006108468482850161071d565b91505092915050565b610858816109ff565b82525050565b61086781610a11565b82525050565b60006108788261098d565b6108828185610998565b9350610892818560208601610a56565b61089b81610c05565b840191505092915050565b6108af81610a3d565b82525050565b60006020820190506108ca600083018461084f565b92915050565b60006080820190506108e5600083018761084f565b81810360208301526108f7818661086d565b905061090660408301856108a6565b610913606083018461085e565b95945050505050565b600060208201905061093160008301846108a6565b92915050565b6000610941610952565b905061094d8282610abb565b919050565b6000604051905090565b600067ffffffffffffffff82111561097757610976610bc2565b5b61098082610c05565b9050602081019050919050565b600081519050919050565b600082825260208201905092915050565b60006109b482610a3d565b91506109bf83610a3d565b9250827fffffffffffffffffffffffffffffffffffffffffffffffffffffffffffffffff038211156109f4576109f3610b35565b5b828201905092915050565b6000610a0a82610a1d565b9050919050565b60008115159050919050565b600073ffffffffffffffffffffffffffffffffffffffff82169050919050565b6000819050919050565b82818337600083830152505050565b60005b83811015610a74578082015181840152602081019050610a59565b83811115610a83576000848401525b50505050565b60006002820490506001821680610aa157607f821691505b60208210811415610ab557610ab4610b64565b5b50919050565b610ac482610c05565b810181811067ffffffffffffffff82111715610ae357610ae2610bc2565b5b80604052505050565b6000610af782610a3d565b91507fffffffffffffffffffffffffffffffffffffffffffffffffffffffffffffffff821415610b2a57610b29610b35565b5b600182019050919050565b7f4e487b7100000000000000000000000000000000000000000000000000000000600052601160045260246000fd5b7f4e487b7100000000000000000000000000000000000000000000000000000000600052602260045260246000fd5b7f4e487b7100000000000000000000000000000000000000000000000000000000600052603260045260246000fd5b7f4e487b7100000000000000000000000000000000000000000000000000000000600052604160045260246000fd5b600080fd5b600080fd5b600080fd5b600080fd5b6000601f19601f8301169050919050565b610c1f816109ff565b8114610c2a57600080fd5b50565b610c3681610a11565b8114610c4157600080fd5b50565b610c4d81610a3d565b8114610c5857600080fd5b5056fea2646970667358221220acf8ca26728ff33602eb7238069c21e6ee4190688169baa5b05bda8e5733f55264736f6c63430008070033",
					"opcodes": "PUSH1 0x80 PUSH1 0x40 MSTORE CALLVALUE DUP1 ISZERO PUSH2 0x10 JUMPI PUSH1 0x0 DUP1 REVERT JUMPDEST POP CALLER PUSH1 0x0 DUP1 PUSH2 0x100 EXP DUP2 SLOAD DUP2 PUSH20 0xFFFFFFFFFFFFFFFFFFFFFFFFFFFFFFFFFFFFFFFF MUL NOT AND SWAP1 DUP4 PUSH20 0xFFFFFFFFFFFFFFFFFFFFFFFFFFFFFFFFFFFFFFFF AND MUL OR SWAP1 SSTORE POP PUSH2 0xC91 DUP1 PUSH2 0x60 PUSH1 0x0 CODECOPY PUSH1 0x0 RETURN INVALID PUSH1 0x80 PUSH1 0x40 MSTORE PUSH1 0x4 CALLDATASIZE LT PUSH2 0x70 JUMPI PUSH1 0x0 CALLDATALOAD PUSH1 0xE0 SHR DUP1 PUSH4 0x365B98B2 GT PUSH2 0x4E JUMPI DUP1 PUSH4 0x365B98B2 EQ PUSH2 0xE3 JUMPI DUP1 PUSH4 0x52C63A04 EQ PUSH2 0x123 JUMPI DUP1 PUSH4 0x6F7BC9BE EQ PUSH2 0x14E JUMPI DUP1 PUSH4 0x70A08231 EQ PUSH2 0x18B JUMPI PUSH2 0x70 JUMP JUMPDEST DUP1 PUSH4 0xB1019F0 EQ PUSH2 0x75 JUMPI DUP1 PUSH4 0x1A695230 EQ PUSH2 0x9E JUMPI DUP1 PUSH4 0x280879E7 EQ PUSH2 0xBA JUMPI JUMPDEST PUSH1 0x0 DUP1 REVERT JUMPDEST CALLVALUE DUP1 ISZERO PUSH2 0x81 JUMPI PUSH1 0x0 DUP1 REVERT JUMPDEST POP PUSH2 0x9C PUSH1 0x4 DUP1 CALLDATASIZE SUB DUP2 ADD SWAP1 PUSH2 0x97 SWAP2 SWAP1 PUSH2 0x7E2 JUMP JUMPDEST PUSH2 0x1C8 JUMP JUMPDEST STOP JUMPDEST PUSH2 0xB8 PUSH1 0x4 DUP1 CALLDATASIZE SUB DUP2 ADD SWAP1 PUSH2 0xB3 SWAP2 SWAP1 PUSH2 0x732 JUMP JUMPDEST PUSH2 0x210 JUMP JUMPDEST STOP JUMPDEST CALLVALUE DUP1 ISZERO PUSH2 0xC6 JUMPI PUSH1 0x0 DUP1 REVERT JUMPDEST POP PUSH2 0xE1 PUSH1 0x4 DUP1 CALLDATASIZE SUB DUP2 ADD SWAP1 PUSH2 0xDC SWAP2 SWAP1 PUSH2 0x75F JUMP JUMPDEST PUSH2 0x21C JUMP JUMPDEST STOP JUMPDEST CALLVALUE DUP1 ISZERO PUSH2 0xEF JUMPI PUSH1 0x0 DUP1 REVERT JUMPDEST POP PUSH2 0x10A PUSH1 0x4 DUP1 CALLDATASIZE SUB DUP2 ADD SWAP1 PUSH2 0x105 SWAP2 SWAP1 PUSH2 0x822 JUMP JUMPDEST PUSH2 0x316 JUMP JUMPDEST PUSH1 0x40 MLOAD PUSH2 0x11A SWAP5 SWAP4 SWAP3 SWAP2 SWAP1 PUSH2 0x8D0 JUMP JUMPDEST PUSH1 0x40 MLOAD DUP1 SWAP2 SUB SWAP1 RETURN JUMPDEST CALLVALUE DUP1 ISZERO PUSH2 0x12F JUMPI PUSH1 0x0 DUP1 REVERT JUMPDEST POP PUSH2 0x138 PUSH2 0x40B JUMP JUMPDEST PUSH1 0x40 MLOAD PUSH2 0x145 SWAP2 SWAP1 PUSH2 0x8B5 JUMP JUMPDEST PUSH1 0x40 MLOAD DUP1 SWAP2 SUB SWAP1 RETURN JUMPDEST CALLVALUE DUP1 ISZERO PUSH2 0x15A JUMPI PUSH1 0x0 DUP1 REVERT JUMPDEST POP PUSH2 0x175 PUSH1 0x4 DUP1 CALLDATASIZE SUB DUP2 ADD SWAP1 PUSH2 0x170 SWAP2 SWAP1 PUSH2 0x732 JUMP JUMPDEST PUSH2 0x410 JUMP JUMPDEST PUSH1 0x40 MLOAD PUSH2 0x182 SWAP2 SWAP1 PUSH2 0x91C JUMP JUMPDEST PUSH1 0x40 MLOAD DUP1 SWAP2 SUB SWAP1 RETURN JUMPDEST CALLVALUE DUP1 ISZERO PUSH2 0x197 JUMPI PUSH1 0x0 DUP1 REVERT JUMPDEST POP PUSH2 0x1B2 PUSH1 0x4 DUP1 CALLDATASIZE SUB DUP2 ADD SWAP1 PUSH2 0x1AD SWAP2 SWAP1 PUSH2 0x732 JUMP JUMPDEST PUSH2 0x428 JUMP JUMPDEST PUSH1 0x40 MLOAD PUSH2 0x1BF SWAP2 SWAP1 PUSH2 0x91C JUMP JUMPDEST PUSH1 0x40 MLOAD DUP1 SWAP2 SUB SWAP1 RETURN JUMPDEST DUP1 PUSH1 0x2 PUSH1 0x0 DUP5 PUSH20 0xFFFFFFFFFFFFFFFFFFFFFFFFFFFFFFFFFFFFFFFF AND PUSH20 0xFFFFFFFFFFFFFFFFFFFFFFFFFFFFFFFFFFFFFFFF AND DUP2 MSTORE PUSH1 0x20 ADD SWAP1 DUP2 MSTORE PUSH1 0x20 ADD PUSH1 0x0 KECCAK256 DUP2 SWAP1 SSTORE POP POP POP JUMP JUMPDEST PUSH2 0x219 DUP2 PUSH2 0x503 JUMP JUMPDEST POP JUMP JUMPDEST PUSH1 0x1 PUSH1 0x40 MLOAD DUP1 PUSH1 0x80 ADD PUSH1 0x40 MSTORE DUP1 DUP7 PUSH20 0xFFFFFFFFFFFFFFFFFFFFFFFFFFFFFFFFFFFFFFFF AND DUP2 MSTORE PUSH1 0x20 ADD DUP6 DUP2 MSTORE PUSH1 0x20 ADD DUP5 DUP2 MSTORE PUSH1 0x20 ADD DUP4 ISZERO ISZERO DUP2 MSTORE POP SWAP1 DUP1 PUSH1 0x1 DUP2 SLOAD ADD DUP1 DUP3 SSTORE DUP1 SWAP2 POP POP PUSH1 0x1 SWAP1 SUB SWAP1 PUSH1 0x0 MSTORE PUSH1 0x20 PUSH1 0x0 KECCAK256 SWAP1 PUSH1 0x4 MUL ADD PUSH1 0x0 SWAP1 SWAP2 SWAP1 SWAP2 SWAP1 SWAP2 POP PUSH1 0x0 DUP3 ADD MLOAD DUP2 PUSH1 0x0 ADD PUSH1 0x0 PUSH2 0x100 EXP DUP2 SLOAD DUP2 PUSH20 0xFFFFFFFFFFFFFFFFFFFFFFFFFFFFFFFFFFFFFFFF MUL NOT AND SWAP1 DUP4 PUSH20 0xFFFFFFFFFFFFFFFFFFFFFFFFFFFFFFFFFFFFFFFF AND MUL OR SWAP1 SSTORE POP PUSH1 0x20 DUP3 ADD MLOAD DUP2 PUSH1 0x1 ADD SWAP1 DUP1 MLOAD SWAP1 PUSH1 0x20 ADD SWAP1 PUSH2 0x2E3 SWAP3 SWAP2 SWAP1 PUSH2 0x5E0 JUMP JUMPDEST POP PUSH1 0x40 DUP3 ADD MLOAD DUP2 PUSH1 0x2 ADD SSTORE PUSH1 0x60 DUP3 ADD MLOAD DUP2 PUSH1 0x3 ADD PUSH1 0x0 PUSH2 0x100 EXP DUP2 SLOAD DUP2 PUSH1 0xFF MUL NOT AND SWAP1 DUP4 ISZERO ISZERO MUL OR SWAP1 SSTORE POP POP POP POP POP POP POP JUMP JUMPDEST PUSH1 0x1 DUP2 DUP2 SLOAD DUP2 LT PUSH2 0x326 JUMPI PUSH1 0x0 DUP1 REVERT JUMPDEST SWAP1 PUSH1 0x0 MSTORE PUSH1 0x20 PUSH1 0x0 KECCAK256 SWAP1 PUSH1 0x4 MUL ADD PUSH1 0x0 SWAP2 POP SWAP1 POP DUP1 PUSH1 0x0 ADD PUSH1 0x0 SWAP1 SLOAD SWAP1 PUSH2 0x100 EXP SWAP1 DIV PUSH20 0xFFFFFFFFFFFFFFFFFFFFFFFFFFFFFFFFFFFFFFFF AND SWAP1 DUP1 PUSH1 0x1 ADD DUP1 SLOAD PUSH2 0x36F SWAP1 PUSH2 0xA89 JUMP JUMPDEST DUP1 PUSH1 0x1F ADD PUSH1 0x20 DUP1 SWAP2 DIV MUL PUSH1 0x20 ADD PUSH1 0x40 MLOAD SWAP1 DUP2 ADD PUSH1 0x40 MSTORE DUP1 SWAP3 SWAP2 SWAP1 DUP2 DUP2 MSTORE PUSH1 0x20 ADD DUP3 DUP1 SLOAD PUSH2 0x39B SWAP1 PUSH2 0xA89 JUMP JUMPDEST DUP1 ISZERO PUSH2 0x3E8 JUMPI DUP1 PUSH1 0x1F LT PUSH2 0x3BD JUMPI PUSH2 0x100 DUP1 DUP4 SLOAD DIV MUL DUP4 MSTORE SWAP2 PUSH1 0x20 ADD SWAP2 PUSH2 0x3E8 JUMP JUMPDEST DUP3 ADD SWAP2 SWAP1 PUSH1 0x0 MSTORE PUSH1 0x20 PUSH1 0x0 KECCAK256 SWAP1 JUMPDEST DUP2 SLOAD DUP2 MSTORE SWAP1 PUSH1 0x1 ADD SWAP1 PUSH1 0x20 ADD DUP1 DUP4 GT PUSH2 0x3CB JUMPI DUP3 SWAP1 SUB PUSH1 0x1F AND DUP3 ADD SWAP2 JUMPDEST POP POP POP POP POP SWAP1 DUP1 PUSH1 0x2 ADD SLOAD SWAP1 DUP1 PUSH1 0x3 ADD PUSH1 0x0 SWAP1 SLOAD SWAP1 PUSH2 0x100 EXP SWAP1 DIV PUSH1 0xFF AND SWAP1 POP DUP5 JUMP JUMPDEST PUSH1 0x0 SWAP1 JUMP JUMPDEST PUSH1 0x2 PUSH1 0x20 MSTORE DUP1 PUSH1 0x0 MSTORE PUSH1 0x40 PUSH1 0x0 KECCAK256 PUSH1 0x0 SWAP2 POP SWAP1 POP SLOAD DUP2 JUMP JUMPDEST PUSH1 0x0 DUP1 PUSH1 0x0 SWAP1 POP JUMPDEST PUSH1 0x1 DUP1 SLOAD SWAP1 POP DUP2 LT ISZERO PUSH2 0x4F7 JUMPI DUP3 PUSH20 0xFFFFFFFFFFFFFFFFFFFFFFFFFFFFFFFFFFFFFFFF AND PUSH1 0x1 DUP3 DUP2 SLOAD DUP2 LT PUSH2 0x468 JUMPI PUSH2 0x467 PUSH2 0xB93 JUMP JUMPDEST JUMPDEST SWAP1 PUSH1 0x0 MSTORE PUSH1 0x20 PUSH1 0x0 KECCAK256 SWAP1 PUSH1 0x4 MUL ADD PUSH1 0x0 ADD PUSH1 0x0 SWAP1 SLOAD SWAP1 PUSH2 0x100 EXP SWAP1 DIV PUSH20 0xFFFFFFFFFFFFFFFFFFFFFFFFFFFFFFFFFFFFFFFF AND PUSH20 0xFFFFFFFFFFFFFFFFFFFFFFFFFFFFFFFFFFFFFFFF AND EQ ISZERO PUSH2 0x4E4 JUMPI PUSH1 0x1 DUP2 DUP2 SLOAD DUP2 LT PUSH2 0x4CA JUMPI PUSH2 0x4C9 PUSH2 0xB93 JUMP JUMPDEST JUMPDEST SWAP1 PUSH1 0x0 MSTORE PUSH1 0x20 PUSH1 0x0 KECCAK256 SWAP1 PUSH1 0x4 MUL ADD PUSH1 0x2 ADD SLOAD SWAP2 POP POP PUSH2 0x4FE JUMP JUMPDEST DUP1 DUP1 PUSH2 0x4EF SWAP1 PUSH2 0xAEC JUMP JUMPDEST SWAP2 POP POP PUSH2 0x430 JUMP JUMPDEST POP PUSH2 0x3E7 SWAP1 POP JUMPDEST SWAP2 SWAP1 POP JUMP JUMPDEST PUSH1 0x0 JUMPDEST PUSH1 0x1 DUP1 SLOAD SWAP1 POP DUP2 LT ISZERO PUSH2 0x5DC JUMPI DUP2 PUSH20 0xFFFFFFFFFFFFFFFFFFFFFFFFFFFFFFFFFFFFFFFF AND PUSH1 0x1 DUP3 DUP2 SLOAD DUP2 LT PUSH2 0x53E JUMPI PUSH2 0x53D PUSH2 0xB93 JUMP JUMPDEST JUMPDEST SWAP1 PUSH1 0x0 MSTORE PUSH1 0x20 PUSH1 0x0 KECCAK256 SWAP1 PUSH1 0x4 MUL ADD PUSH1 0x0 ADD PUSH1 0x0 SWAP1 SLOAD SWAP1 PUSH2 0x100 EXP SWAP1 DIV PUSH20 0xFFFFFFFFFFFFFFFFFFFFFFFFFFFFFFFFFFFFFFFF AND PUSH20 0xFFFFFFFFFFFFFFFFFFFFFFFFFFFFFFFFFFFFFFFF AND EQ ISZERO PUSH2 0x5C9 JUMPI CALLVALUE PUSH1 0x1 DUP3 DUP2 SLOAD DUP2 LT PUSH2 0x5A1 JUMPI PUSH2 0x5A0 PUSH2 0xB93 JUMP JUMPDEST JUMPDEST SWAP1 PUSH1 0x0 MSTORE PUSH1 0x20 PUSH1 0x0 KECCAK256 SWAP1 PUSH1 0x4 MUL ADD PUSH1 0x2 ADD PUSH1 0x0 DUP3 DUP3 SLOAD PUSH2 0x5C1 SWAP2 SWAP1 PUSH2 0x9A9 JUMP JUMPDEST SWAP3 POP POP DUP2 SWAP1 SSTORE POP JUMPDEST DUP1 DUP1 PUSH2 0x5D4 SWAP1 PUSH2 0xAEC JUMP JUMPDEST SWAP2 POP POP PUSH2 0x506 JUMP JUMPDEST POP POP JUMP JUMPDEST DUP3 DUP1 SLOAD PUSH2 0x5EC SWAP1 PUSH2 0xA89 JUMP JUMPDEST SWAP1 PUSH1 0x0 MSTORE PUSH1 0x20 PUSH1 0x0 KECCAK256 SWAP1 PUSH1 0x1F ADD PUSH1 0x20 SWAP1 DIV DUP2 ADD SWAP3 DUP3 PUSH2 0x60E JUMPI PUSH1 0x0 DUP6 SSTORE PUSH2 0x655 JUMP JUMPDEST DUP3 PUSH1 0x1F LT PUSH2 0x627 JUMPI DUP1 MLOAD PUSH1 0xFF NOT AND DUP4 DUP1 ADD OR DUP6 SSTORE PUSH2 0x655 JUMP JUMPDEST DUP3 DUP1 ADD PUSH1 0x1 ADD DUP6 SSTORE DUP3 ISZERO PUSH2 0x655 JUMPI SWAP2 DUP3 ADD JUMPDEST DUP3 DUP2 GT ISZERO PUSH2 0x654 JUMPI DUP3 MLOAD DUP3 SSTORE SWAP2 PUSH1 0x20 ADD SWAP2 SWAP1 PUSH1 0x1 ADD SWAP1 PUSH2 0x639 JUMP JUMPDEST JUMPDEST POP SWAP1 POP PUSH2 0x662 SWAP2 SWAP1 PUSH2 0x666 JUMP JUMPDEST POP SWAP1 JUMP JUMPDEST JUMPDEST DUP1 DUP3 GT ISZERO PUSH2 0x67F JUMPI PUSH1 0x0 DUP2 PUSH1 0x0 SWAP1 SSTORE POP PUSH1 0x1 ADD PUSH2 0x667 JUMP JUMPDEST POP SWAP1 JUMP JUMPDEST PUSH1 0x0 PUSH2 0x696 PUSH2 0x691 DUP5 PUSH2 0x95C JUMP JUMPDEST PUSH2 0x937 JUMP JUMPDEST SWAP1 POP DUP3 DUP2 MSTORE PUSH1 0x20 DUP2 ADD DUP5 DUP5 DUP5 ADD GT ISZERO PUSH2 0x6B2 JUMPI PUSH2 0x6B1 PUSH2 0xBF6 JUMP JUMPDEST JUMPDEST PUSH2 0x6BD DUP5 DUP3 DUP6 PUSH2 0xA47 JUMP JUMPDEST POP SWAP4 SWAP3 POP POP POP JUMP JUMPDEST PUSH1 0x0 DUP2 CALLDATALOAD SWAP1 POP PUSH2 0x6D4 DUP2 PUSH2 0xC16 JUMP JUMPDEST SWAP3 SWAP2 POP POP JUMP JUMPDEST PUSH1 0x0 DUP2 CALLDATALOAD SWAP1 POP PUSH2 0x6E9 DUP2 PUSH2 0xC2D JUMP JUMPDEST SWAP3 SWAP2 POP POP JUMP JUMPDEST PUSH1 0x0 DUP3 PUSH1 0x1F DUP4 ADD SLT PUSH2 0x704 JUMPI PUSH2 0x703 PUSH2 0xBF1 JUMP JUMPDEST JUMPDEST DUP2 CALLDATALOAD PUSH2 0x714 DUP5 DUP3 PUSH1 0x20 DUP7 ADD PUSH2 0x683 JUMP JUMPDEST SWAP2 POP POP SWAP3 SWAP2 POP POP JUMP JUMPDEST PUSH1 0x0 DUP2 CALLDATALOAD SWAP1 POP PUSH2 0x72C DUP2 PUSH2 0xC44 JUMP JUMPDEST SWAP3 SWAP2 POP POP JUMP JUMPDEST PUSH1 0x0 PUSH1 0x20 DUP3 DUP5 SUB SLT ISZERO PUSH2 0x748 JUMPI PUSH2 0x747 PUSH2 0xC00 JUMP JUMPDEST JUMPDEST PUSH1 0x0 PUSH2 0x756 DUP5 DUP3 DUP6 ADD PUSH2 0x6C5 JUMP JUMPDEST SWAP2 POP POP SWAP3 SWAP2 POP POP JUMP JUMPDEST PUSH1 0x0 DUP1 PUSH1 0x0 DUP1 PUSH1 0x80 DUP6 DUP8 SUB SLT ISZERO PUSH2 0x779 JUMPI PUSH2 0x778 PUSH2 0xC00 JUMP JUMPDEST JUMPDEST PUSH1 0x0 PUSH2 0x787 DUP8 DUP3 DUP9 ADD PUSH2 0x6C5 JUMP JUMPDEST SWAP5 POP POP PUSH1 0x20 DUP6 ADD CALLDATALOAD PUSH8 0xFFFFFFFFFFFFFFFF DUP2 GT ISZERO PUSH2 0x7A8 JUMPI PUSH2 0x7A7 PUSH2 0xBFB JUMP JUMPDEST JUMPDEST PUSH2 0x7B4 DUP8 DUP3 DUP9 ADD PUSH2 0x6EF JUMP JUMPDEST SWAP4 POP POP PUSH1 0x40 PUSH2 0x7C5 DUP8 DUP3 DUP9 ADD PUSH2 0x71D JUMP JUMPDEST SWAP3 POP POP PUSH1 0x60 PUSH2 0x7D6 DUP8 DUP3 DUP9 ADD PUSH2 0x6DA JUMP JUMPDEST SWAP2 POP POP SWAP3 SWAP6 SWAP2 SWAP5 POP SWAP3 POP JUMP JUMPDEST PUSH1 0x0 DUP1 PUSH1 0x40 DUP4 DUP6 SUB SLT ISZERO PUSH2 0x7F9 JUMPI PUSH2 0x7F8 PUSH2 0xC00 JUMP JUMPDEST JUMPDEST PUSH1 0x0 PUSH2 0x807 DUP6 DUP3 DUP7 ADD PUSH2 0x6C5 JUMP JUMPDEST SWAP3 POP POP PUSH1 0x20 PUSH2 0x818 DUP6 DUP3 DUP7 ADD PUSH2 0x71D JUMP JUMPDEST SWAP2 POP POP SWAP3 POP SWAP3 SWAP1 POP JUMP JUMPDEST PUSH1 0x0 PUSH1 0x20 DUP3 DUP5 SUB SLT ISZERO PUSH2 0x838 JUMPI PUSH2 0x837 PUSH2 0xC00 JUMP JUMPDEST JUMPDEST PUSH1 0x0 PUSH2 0x846 DUP5 DUP3 DUP6 ADD PUSH2 0x71D JUMP JUMPDEST SWAP2 POP POP SWAP3 SWAP2 POP POP JUMP JUMPDEST PUSH2 0x858 DUP2 PUSH2 0x9FF JUMP JUMPDEST DUP3 MSTORE POP POP JUMP JUMPDEST PUSH2 0x867 DUP2 PUSH2 0xA11 JUMP JUMPDEST DUP3 MSTORE POP POP JUMP JUMPDEST PUSH1 0x0 PUSH2 0x878 DUP3 PUSH2 0x98D JUMP JUMPDEST PUSH2 0x882 DUP2 DUP6 PUSH2 0x998 JUMP JUMPDEST SWAP4 POP PUSH2 0x892 DUP2 DUP6 PUSH1 0x20 DUP7 ADD PUSH2 0xA56 JUMP JUMPDEST PUSH2 0x89B DUP2 PUSH2 0xC05 JUMP JUMPDEST DUP5 ADD SWAP2 POP POP SWAP3 SWAP2 POP POP JUMP JUMPDEST PUSH2 0x8AF DUP2 PUSH2 0xA3D JUMP JUMPDEST DUP3 MSTORE POP POP JUMP JUMPDEST PUSH1 0x0 PUSH1 0x20 DUP3 ADD SWAP1 POP PUSH2 0x8CA PUSH1 0x0 DUP4 ADD DUP5 PUSH2 0x84F JUMP JUMPDEST SWAP3 SWAP2 POP POP JUMP JUMPDEST PUSH1 0x0 PUSH1 0x80 DUP3 ADD SWAP1 POP PUSH2 0x8E5 PUSH1 0x0 DUP4 ADD DUP8 PUSH2 0x84F JUMP JUMPDEST DUP2 DUP2 SUB PUSH1 0x20 DUP4 ADD MSTORE PUSH2 0x8F7 DUP2 DUP7 PUSH2 0x86D JUMP JUMPDEST SWAP1 POP PUSH2 0x906 PUSH1 0x40 DUP4 ADD DUP6 PUSH2 0x8A6 JUMP JUMPDEST PUSH2 0x913 PUSH1 0x60 DUP4 ADD DUP5 PUSH2 0x85E JUMP JUMPDEST SWAP6 SWAP5 POP POP POP POP POP JUMP JUMPDEST PUSH1 0x0 PUSH1 0x20 DUP3 ADD SWAP1 POP PUSH2 0x931 PUSH1 0x0 DUP4 ADD DUP5 PUSH2 0x8A6 JUMP JUMPDEST SWAP3 SWAP2 POP POP JUMP JUMPDEST PUSH1 0x0 PUSH2 0x941 PUSH2 0x952 JUMP JUMPDEST SWAP1 POP PUSH2 0x94D DUP3 DUP3 PUSH2 0xABB JUMP JUMPDEST SWAP2 SWAP1 POP JUMP JUMPDEST PUSH1 0x0 PUSH1 0x40 MLOAD SWAP1 POP SWAP1 JUMP JUMPDEST PUSH1 0x0 PUSH8 0xFFFFFFFFFFFFFFFF DUP3 GT ISZERO PUSH2 0x977 JUMPI PUSH2 0x976 PUSH2 0xBC2 JUMP JUMPDEST JUMPDEST PUSH2 0x980 DUP3 PUSH2 0xC05 JUMP JUMPDEST SWAP1 POP PUSH1 0x20 DUP2 ADD SWAP1 POP SWAP2 SWAP1 POP JUMP JUMPDEST PUSH1 0x0 DUP2 MLOAD SWAP1 POP SWAP2 SWAP1 POP JUMP JUMPDEST PUSH1 0x0 DUP3 DUP3 MSTORE PUSH1 0x20 DUP3 ADD SWAP1 POP SWAP3 SWAP2 POP POP JUMP JUMPDEST PUSH1 0x0 PUSH2 0x9B4 DUP3 PUSH2 0xA3D JUMP JUMPDEST SWAP2 POP PUSH2 0x9BF DUP4 PUSH2 0xA3D JUMP JUMPDEST SWAP3 POP DUP3 PUSH32 0xFFFFFFFFFFFFFFFFFFFFFFFFFFFFFFFFFFFFFFFFFFFFFFFFFFFFFFFFFFFFFFFF SUB DUP3 GT ISZERO PUSH2 0x9F4 JUMPI PUSH2 0x9F3 PUSH2 0xB35 JUMP JUMPDEST JUMPDEST DUP3 DUP3 ADD SWAP1 POP SWAP3 SWAP2 POP POP JUMP JUMPDEST PUSH1 0x0 PUSH2 0xA0A DUP3 PUSH2 0xA1D JUMP JUMPDEST SWAP1 POP SWAP2 SWAP1 POP JUMP JUMPDEST PUSH1 0x0 DUP2 ISZERO ISZERO SWAP1 POP SWAP2 SWAP1 POP JUMP JUMPDEST PUSH1 0x0 PUSH20 0xFFFFFFFFFFFFFFFFFFFFFFFFFFFFFFFFFFFFFFFF DUP3 AND SWAP1 POP SWAP2 SWAP1 POP JUMP JUMPDEST PUSH1 0x0 DUP2 SWAP1 POP SWAP2 SWAP1 POP JUMP JUMPDEST DUP3 DUP2 DUP4 CALLDATACOPY PUSH1 0x0 DUP4 DUP4 ADD MSTORE POP POP POP JUMP JUMPDEST PUSH1 0x0 JUMPDEST DUP4 DUP2 LT ISZERO PUSH2 0xA74 JUMPI DUP1 DUP3 ADD MLOAD DUP2 DUP5 ADD MSTORE PUSH1 0x20 DUP2 ADD SWAP1 POP PUSH2 0xA59 JUMP JUMPDEST DUP4 DUP2 GT ISZERO PUSH2 0xA83 JUMPI PUSH1 0x0 DUP5 DUP5 ADD MSTORE JUMPDEST POP POP POP POP JUMP JUMPDEST PUSH1 0x0 PUSH1 0x2 DUP3 DIV SWAP1 POP PUSH1 0x1 DUP3 AND DUP1 PUSH2 0xAA1 JUMPI PUSH1 0x7F DUP3 AND SWAP2 POP JUMPDEST PUSH1 0x20 DUP3 LT DUP2 EQ ISZERO PUSH2 0xAB5 JUMPI PUSH2 0xAB4 PUSH2 0xB64 JUMP JUMPDEST JUMPDEST POP SWAP2 SWAP1 POP JUMP JUMPDEST PUSH2 0xAC4 DUP3 PUSH2 0xC05 JUMP JUMPDEST DUP2 ADD DUP2 DUP2 LT PUSH8 0xFFFFFFFFFFFFFFFF DUP3 GT OR ISZERO PUSH2 0xAE3 JUMPI PUSH2 0xAE2 PUSH2 0xBC2 JUMP JUMPDEST JUMPDEST DUP1 PUSH1 0x40 MSTORE POP POP POP JUMP JUMPDEST PUSH1 0x0 PUSH2 0xAF7 DUP3 PUSH2 0xA3D JUMP JUMPDEST SWAP2 POP PUSH32 0xFFFFFFFFFFFFFFFFFFFFFFFFFFFFFFFFFFFFFFFFFFFFFFFFFFFFFFFFFFFFFFFF DUP3 EQ ISZERO PUSH2 0xB2A JUMPI PUSH2 0xB29 PUSH2 0xB35 JUMP JUMPDEST JUMPDEST PUSH1 0x1 DUP3 ADD SWAP1 POP SWAP2 SWAP1 POP JUMP JUMPDEST PUSH32 0x4E487B7100000000000000000000000000000000000000000000000000000000 PUSH1 0x0 MSTORE PUSH1 0x11 PUSH1 0x4 MSTORE PUSH1 0x24 PUSH1 0x0 REVERT JUMPDEST PUSH32 0x4E487B7100000000000000000000000000000000000000000000000000000000 PUSH1 0x0 MSTORE PUSH1 0x22 PUSH1 0x4 MSTORE PUSH1 0x24 PUSH1 0x0 REVERT JUMPDEST PUSH32 0x4E487B7100000000000000000000000000000000000000000000000000000000 PUSH1 0x0 MSTORE PUSH1 0x32 PUSH1 0x4 MSTORE PUSH1 0x24 PUSH1 0x0 REVERT JUMPDEST PUSH32 0x4E487B7100000000000000000000000000000000000000000000000000000000 PUSH1 0x0 MSTORE PUSH1 0x41 PUSH1 0x4 MSTORE PUSH1 0x24 PUSH1 0x0 REVERT JUMPDEST PUSH1 0x0 DUP1 REVERT JUMPDEST PUSH1 0x0 DUP1 REVERT JUMPDEST PUSH1 0x0 DUP1 REVERT JUMPDEST PUSH1 0x0 DUP1 REVERT JUMPDEST PUSH1 0x0 PUSH1 0x1F NOT PUSH1 0x1F DUP4 ADD AND SWAP1 POP SWAP2 SWAP1 POP JUMP JUMPDEST PUSH2 0xC1F DUP2 PUSH2 0x9FF JUMP JUMPDEST DUP2 EQ PUSH2 0xC2A JUMPI PUSH1 0x0 DUP1 REVERT JUMPDEST POP JUMP JUMPDEST PUSH2 0xC36 DUP2 PUSH2 0xA11 JUMP JUMPDEST DUP2 EQ PUSH2 0xC41 JUMPI PUSH1 0x0 DUP1 REVERT JUMPDEST POP JUMP JUMPDEST PUSH2 0xC4D DUP2 PUSH2 0xA3D JUMP JUMPDEST DUP2 EQ PUSH2 0xC58 JUMPI PUSH1 0x0 DUP1 REVERT JUMPDEST POP JUMP INVALID LOG2 PUSH5 0x6970667358 0x22 SLT KECCAK256 0xAC 0xF8 0xCA 0x26 PUSH19 0x8FF33602EB7238069C21E6EE4190688169BAA5 0xB0 JUMPDEST 0xDA DUP15 JUMPI CALLER CREATE2 MSTORE PUSH5 0x736F6C6343 STOP ADDMOD SMOD STOP CALLER "
				},
				"gasEstimates": {
					"creation": {
						"codeDepositCost": "643400",
						"executionCost": "24942",
						"totalCost": "668342"
					},
					"external": {
						"addToInvestors(address,uint256)": "22833",
						"addUser(address,string,uint256,bool)": "infinite",
						"balanceOf(address)": "infinite",
						"getInvestorByAddress()": "400",
						"investors(address)": "2858",
						"transfer(address)": "infinite",
						"users(uint256)": "infinite"
					},
					"internal": {
						"transferToAddress(address)": "infinite"
					}
				},
				"methodIdentifiers": {
					"addToInvestors(address,uint256)": "0b1019f0",
					"addUser(address,string,uint256,bool)": "280879e7",
					"balanceOf(address)": "70a08231",
					"getInvestorByAddress()": "52c63a04",
					"investors(address)": "6f7bc9be",
					"transfer(address)": "1a695230",
					"users(uint256)": "365b98b2"
				}
			},
			"storageLayout": {
				"storage": [
					{
						"astId": 3,
						"contract": "contracts/Test1.sol:Test1",
						"label": "owner",
						"offset": 0,
						"slot": "0",
						"type": "t_address"
					},
					{
						"astId": 25,
						"contract": "contracts/Test1.sol:Test1",
						"label": "users",
						"offset": 0,
						"slot": "1",
						"type": "t_array(t_struct(User)21_storage)dyn_storage"
					},
					{
						"astId": 29,
						"contract": "contracts/Test1.sol:Test1",
						"label": "investors",
						"offset": 0,
						"slot": "2",
						"type": "t_mapping(t_address,t_uint256)"
					}
				],
				"types": {
					"t_address": {
						"encoding": "inplace",
						"label": "address",
						"numberOfBytes": "20"
					},
					"t_array(t_struct(User)21_storage)dyn_storage": {
						"base": "t_struct(User)21_storage",
						"encoding": "dynamic_array",
						"label": "struct Test1.User[]",
						"numberOfBytes": "32"
					},
					"t_bool": {
						"encoding": "inplace",
						"label": "bool",
						"numberOfBytes": "1"
					},
					"t_mapping(t_address,t_uint256)": {
						"encoding": "mapping",
						"key": "t_address",
						"label": "mapping(address => uint256)",
						"numberOfBytes": "32",
						"value": "t_uint256"
					},
					"t_string_storage": {
						"encoding": "bytes",
						"label": "string",
						"numberOfBytes": "32"
					},
					"t_struct(User)21_storage": {
						"encoding": "inplace",
						"label": "struct Test1.User",
						"members": [
							{
								"astId": 14,
								"contract": "contracts/Test1.sol:Test1",
								"label": "walletAddress",
								"offset": 0,
								"slot": "0",
								"type": "t_address"
							},
							{
								"astId": 16,
								"contract": "contracts/Test1.sol:Test1",
								"label": "name",
								"offset": 0,
								"slot": "1",
								"type": "t_string_storage"
							},
							{
								"astId": 18,
								"contract": "contracts/Test1.sol:Test1",
								"label": "amount",
								"offset": 0,
								"slot": "2",
								"type": "t_uint256"
							},
							{
								"astId": 20,
								"contract": "contracts/Test1.sol:Test1",
								"label": "isInvestor",
								"offset": 0,
								"slot": "3",
								"type": "t_bool"
							}
						],
						"numberOfBytes": "128"
					},
					"t_uint256": {
						"encoding": "inplace",
						"label": "uint256",
						"numberOfBytes": "32"
					}
				}
			},
			"userdoc": {
				"kind": "user",
				"methods": {},
				"version": 1
			}
		}
	}
}