{
	"contracts/Test1.sol": {
		"Test1": {
			"abi": [
				{
					"inputs": [],
					"stateMutability": "nonpayable",
					"type": "constructor"
				},
				{
					"inputs": [
						{
							"internalType": "address",
							"name": "walletAddress",
							"type": "address"
						},
						{
							"internalType": "string",
							"name": "name",
							"type": "string"
						},
						{
							"internalType": "uint256",
							"name": "amount",
							"type": "uint256"
						}
					],
					"name": "addUser",
					"outputs": [],
					"stateMutability": "nonpayable",
					"type": "function"
				},
				{
					"inputs": [
						{
							"internalType": "address",
							"name": "walletAddress",
							"type": "address"
						}
					],
					"name": "balanceOf",
					"outputs": [
						{
							"internalType": "uint256",
							"name": "",
							"type": "uint256"
						}
					],
					"stateMutability": "view",
					"type": "function"
				},
				{
					"inputs": [
						{
							"internalType": "address",
							"name": "",
							"type": "address"
						}
					],
					"name": "investors",
					"outputs": [
						{
							"internalType": "uint256",
							"name": "",
							"type": "uint256"
						}
					],
					"stateMutability": "view",
					"type": "function"
				},
				{
					"inputs": [
						{
							"internalType": "address",
							"name": "",
							"type": "address"
						}
					],
					"name": "kids",
					"outputs": [
						{
							"internalType": "uint256",
							"name": "",
							"type": "uint256"
						}
					],
					"stateMutability": "view",
					"type": "function"
				},
				{
					"inputs": [
						{
							"internalType": "address",
							"name": "walletAddress",
							"type": "address"
						}
					],
					"name": "transfer",
					"outputs": [],
					"stateMutability": "payable",
					"type": "function"
				},
				{
					"inputs": [
						{
							"internalType": "uint256",
							"name": "",
							"type": "uint256"
						}
					],
					"name": "users",
					"outputs": [
						{
							"internalType": "address",
							"name": "walletAddress",
							"type": "address"
						},
						{
							"internalType": "string",
							"name": "name",
							"type": "string"
						},
						{
							"internalType": "uint256",
							"name": "amount",
							"type": "uint256"
						}
					],
					"stateMutability": "view",
					"type": "function"
				}
			],
			"devdoc": {
				"kind": "dev",
				"methods": {},
				"version": 1
			},
			"evm": {
				"assembly": "    /* \"contracts/Test1.sol\":65:1154  contract Test1{... */\n  mstore(0x40, 0x80)\n    /* \"contracts/Test1.sol\":106:154  constructor(){... */\n  callvalue\n  dup1\n  iszero\n  tag_1\n  jumpi\n  0x00\n  dup1\n  revert\ntag_1:\n  pop\n    /* \"contracts/Test1.sol\":137:147  msg.sender */\n  caller\n    /* \"contracts/Test1.sol\":129:134  owner */\n  0x00\n  dup1\n    /* \"contracts/Test1.sol\":129:147  owner = msg.sender */\n  0x0100\n  exp\n  dup2\n  sload\n  dup2\n  0xffffffffffffffffffffffffffffffffffffffff\n  mul\n  not\n  and\n  swap1\n  dup4\n  0xffffffffffffffffffffffffffffffffffffffff\n  and\n  mul\n  or\n  swap1\n  sstore\n  pop\n    /* \"contracts/Test1.sol\":65:1154  contract Test1{... */\n  dataSize(sub_0)\n  dup1\n  dataOffset(sub_0)\n  0x00\n  codecopy\n  0x00\n  return\nstop\n\nsub_0: assembly {\n        /* \"contracts/Test1.sol\":65:1154  contract Test1{... */\n      mstore(0x40, 0x80)\n      jumpi(tag_1, lt(calldatasize, 0x04))\n      shr(0xe0, calldataload(0x00))\n      dup1\n      0x1a695230\n      eq\n      tag_2\n      jumpi\n      dup1\n      0x2438628c\n      eq\n      tag_3\n      jumpi\n      dup1\n      0x365b98b2\n      eq\n      tag_4\n      jumpi\n      dup1\n      0x6f7bc9be\n      eq\n      tag_5\n      jumpi\n      dup1\n      0x70a08231\n      eq\n      tag_6\n      jumpi\n      dup1\n      0xf0384fb6\n      eq\n      tag_7\n      jumpi\n    tag_1:\n      0x00\n      dup1\n      revert\n        /* \"contracts/Test1.sol\":527:632  function transfer(address walletAddress) payable public {... */\n    tag_2:\n      tag_8\n      0x04\n      dup1\n      calldatasize\n      sub\n      dup2\n      add\n      swap1\n      tag_9\n      swap2\n      swap1\n      tag_10\n      jump\t// in\n    tag_9:\n      tag_11\n      jump\t// in\n    tag_8:\n      stop\n        /* \"contracts/Test1.sol\":335:371  mapping(address => uint) public kids */\n    tag_3:\n      callvalue\n      dup1\n      iszero\n      tag_12\n      jumpi\n      0x00\n      dup1\n      revert\n    tag_12:\n      pop\n      tag_13\n      0x04\n      dup1\n      calldatasize\n      sub\n      dup2\n      add\n      swap1\n      tag_14\n      swap2\n      swap1\n      tag_10\n      jump\t// in\n    tag_14:\n      tag_15\n      jump\t// in\n    tag_13:\n      mload(0x40)\n      tag_16\n      swap2\n      swap1\n      tag_17\n      jump\t// in\n    tag_16:\n      mload(0x40)\n      dup1\n      swap2\n      sub\n      swap1\n      return\n        /* \"contracts/Test1.sol\":258:277  User[] public users */\n    tag_4:\n      callvalue\n      dup1\n      iszero\n      tag_18\n      jumpi\n      0x00\n      dup1\n      revert\n    tag_18:\n      pop\n      tag_19\n      0x04\n      dup1\n      calldatasize\n      sub\n      dup2\n      add\n      swap1\n      tag_20\n      swap2\n      swap1\n      tag_21\n      jump\t// in\n    tag_20:\n      tag_22\n      jump\t// in\n    tag_19:\n      mload(0x40)\n      tag_23\n      swap4\n      swap3\n      swap2\n      swap1\n      tag_24\n      jump\t// in\n    tag_23:\n      mload(0x40)\n      dup1\n      swap2\n      sub\n      swap1\n      return\n        /* \"contracts/Test1.sol\":283:324  mapping(address => uint) public investors */\n    tag_5:\n      callvalue\n      dup1\n      iszero\n      tag_25\n      jumpi\n      0x00\n      dup1\n      revert\n    tag_25:\n      pop\n      tag_26\n      0x04\n      dup1\n      calldatasize\n      sub\n      dup2\n      add\n      swap1\n      tag_27\n      swap2\n      swap1\n      tag_10\n      jump\t// in\n    tag_27:\n      tag_28\n      jump\t// in\n    tag_26:\n      mload(0x40)\n      tag_29\n      swap2\n      swap1\n      tag_17\n      jump\t// in\n    tag_29:\n      mload(0x40)\n      dup1\n      swap2\n      sub\n      swap1\n      return\n        /* \"contracts/Test1.sol\":884:1148  function balanceOf(address walletAddress) public view returns(uint){... */\n    tag_6:\n      callvalue\n      dup1\n      iszero\n      tag_30\n      jumpi\n      0x00\n      dup1\n      revert\n    tag_30:\n      pop\n      tag_31\n      0x04\n      dup1\n      calldatasize\n      sub\n      dup2\n      add\n      swap1\n      tag_32\n      swap2\n      swap1\n      tag_10\n      jump\t// in\n    tag_32:\n      tag_33\n      jump\t// in\n    tag_31:\n      mload(0x40)\n      tag_34\n      swap2\n      swap1\n      tag_17\n      jump\t// in\n    tag_34:\n      mload(0x40)\n      dup1\n      swap2\n      sub\n      swap1\n      return\n        /* \"contracts/Test1.sol\":379:521  function addUser(address walletAddress, string memory name, uint amount) public {... */\n    tag_7:\n      callvalue\n      dup1\n      iszero\n      tag_35\n      jumpi\n      0x00\n      dup1\n      revert\n    tag_35:\n      pop\n      tag_36\n      0x04\n      dup1\n      calldatasize\n      sub\n      dup2\n      add\n      swap1\n      tag_37\n      swap2\n      swap1\n      tag_38\n      jump\t// in\n    tag_37:\n      tag_39\n      jump\t// in\n    tag_36:\n      stop\n        /* \"contracts/Test1.sol\":527:632  function transfer(address walletAddress) payable public {... */\n    tag_11:\n        /* \"contracts/Test1.sol\":593:625  transferToAddress(walletAddress) */\n      tag_41\n        /* \"contracts/Test1.sol\":611:624  walletAddress */\n      dup2\n        /* \"contracts/Test1.sol\":593:610  transferToAddress */\n      tag_42\n        /* \"contracts/Test1.sol\":593:625  transferToAddress(walletAddress) */\n      jump\t// in\n    tag_41:\n        /* \"contracts/Test1.sol\":527:632  function transfer(address walletAddress) payable public {... */\n      pop\n      jump\t// out\n        /* \"contracts/Test1.sol\":335:371  mapping(address => uint) public kids */\n    tag_15:\n      mstore(0x20, 0x03)\n      dup1\n      0x00\n      mstore\n      keccak256(0x00, 0x40)\n      0x00\n      swap2\n      pop\n      swap1\n      pop\n      sload\n      dup2\n      jump\t// out\n        /* \"contracts/Test1.sol\":258:277  User[] public users */\n    tag_22:\n      0x01\n      dup2\n      dup2\n      sload\n      dup2\n      lt\n      tag_43\n      jumpi\n      0x00\n      dup1\n      revert\n    tag_43:\n      swap1\n      0x00\n      mstore\n      keccak256(0x00, 0x20)\n      swap1\n      0x03\n      mul\n      add\n      0x00\n      swap2\n      pop\n      swap1\n      pop\n      dup1\n      0x00\n      add\n      0x00\n      swap1\n      sload\n      swap1\n      0x0100\n      exp\n      swap1\n      div\n      0xffffffffffffffffffffffffffffffffffffffff\n      and\n      swap1\n      dup1\n      0x01\n      add\n      dup1\n      sload\n      tag_45\n      swap1\n      tag_46\n      jump\t// in\n    tag_45:\n      dup1\n      0x1f\n      add\n      0x20\n      dup1\n      swap2\n      div\n      mul\n      0x20\n      add\n      mload(0x40)\n      swap1\n      dup2\n      add\n      0x40\n      mstore\n      dup1\n      swap3\n      swap2\n      swap1\n      dup2\n      dup2\n      mstore\n      0x20\n      add\n      dup3\n      dup1\n      sload\n      tag_47\n      swap1\n      tag_46\n      jump\t// in\n    tag_47:\n      dup1\n      iszero\n      tag_48\n      jumpi\n      dup1\n      0x1f\n      lt\n      tag_49\n      jumpi\n      0x0100\n      dup1\n      dup4\n      sload\n      div\n      mul\n      dup4\n      mstore\n      swap2\n      0x20\n      add\n      swap2\n      jump(tag_48)\n    tag_49:\n      dup3\n      add\n      swap2\n      swap1\n      0x00\n      mstore\n      keccak256(0x00, 0x20)\n      swap1\n    tag_50:\n      dup2\n      sload\n      dup2\n      mstore\n      swap1\n      0x01\n      add\n      swap1\n      0x20\n      add\n      dup1\n      dup4\n      gt\n      tag_50\n      jumpi\n      dup3\n      swap1\n      sub\n      0x1f\n      and\n      dup3\n      add\n      swap2\n    tag_48:\n      pop\n      pop\n      pop\n      pop\n      pop\n      swap1\n      dup1\n      0x02\n      add\n      sload\n      swap1\n      pop\n      dup4\n      jump\t// out\n        /* \"contracts/Test1.sol\":283:324  mapping(address => uint) public investors */\n    tag_28:\n      mstore(0x20, 0x02)\n      dup1\n      0x00\n      mstore\n      keccak256(0x00, 0x40)\n      0x00\n      swap2\n      pop\n      swap1\n      pop\n      sload\n      dup2\n      jump\t// out\n        /* \"contracts/Test1.sol\":884:1148  function balanceOf(address walletAddress) public view returns(uint){... */\n    tag_33:\n        /* \"contracts/Test1.sol\":946:950  uint */\n      0x00\n        /* \"contracts/Test1.sol\":965:971  uint i */\n      dup1\n        /* \"contracts/Test1.sol\":974:975  0 */\n      0x00\n        /* \"contracts/Test1.sol\":965:975  uint i = 0 */\n      swap1\n      pop\n        /* \"contracts/Test1.sol\":961:1121  for(uint i = 0; i < users.length; i++){... */\n    tag_52:\n        /* \"contracts/Test1.sol\":981:986  users */\n      0x01\n        /* \"contracts/Test1.sol\":981:993  users.length */\n      dup1\n      sload\n      swap1\n      pop\n        /* \"contracts/Test1.sol\":977:978  i */\n      dup2\n        /* \"contracts/Test1.sol\":977:993  i < users.length */\n      lt\n        /* \"contracts/Test1.sol\":961:1121  for(uint i = 0; i < users.length; i++){... */\n      iszero\n      tag_53\n      jumpi\n        /* \"contracts/Test1.sol\":1042:1055  walletAddress */\n      dup3\n        /* \"contracts/Test1.sol\":1016:1055  users[i].walletAddress == walletAddress */\n      0xffffffffffffffffffffffffffffffffffffffff\n      and\n        /* \"contracts/Test1.sol\":1016:1021  users */\n      0x01\n        /* \"contracts/Test1.sol\":1022:1023  i */\n      dup3\n        /* \"contracts/Test1.sol\":1016:1024  users[i] */\n      dup2\n      sload\n      dup2\n      lt\n      tag_55\n      jumpi\n      tag_56\n      tag_57\n      jump\t// in\n    tag_56:\n    tag_55:\n      swap1\n      0x00\n      mstore\n      keccak256(0x00, 0x20)\n      swap1\n      0x03\n      mul\n      add\n        /* \"contracts/Test1.sol\":1016:1038  users[i].walletAddress */\n      0x00\n      add\n      0x00\n      swap1\n      sload\n      swap1\n      0x0100\n      exp\n      swap1\n      div\n      0xffffffffffffffffffffffffffffffffffffffff\n      and\n        /* \"contracts/Test1.sol\":1016:1055  users[i].walletAddress == walletAddress */\n      0xffffffffffffffffffffffffffffffffffffffff\n      and\n      eq\n        /* \"contracts/Test1.sol\":1013:1111  if(users[i].walletAddress == walletAddress){... */\n      iszero\n      tag_59\n      jumpi\n        /* \"contracts/Test1.sol\":1081:1086  users */\n      0x01\n        /* \"contracts/Test1.sol\":1087:1088  i */\n      dup2\n        /* \"contracts/Test1.sol\":1081:1089  users[i] */\n      dup2\n      sload\n      dup2\n      lt\n      tag_60\n      jumpi\n      tag_61\n      tag_57\n      jump\t// in\n    tag_61:\n    tag_60:\n      swap1\n      0x00\n      mstore\n      keccak256(0x00, 0x20)\n      swap1\n      0x03\n      mul\n      add\n        /* \"contracts/Test1.sol\":1081:1096  users[i].amount */\n      0x02\n      add\n      sload\n        /* \"contracts/Test1.sol\":1074:1096  return users[i].amount */\n      swap2\n      pop\n      pop\n      jump(tag_51)\n        /* \"contracts/Test1.sol\":1013:1111  if(users[i].walletAddress == walletAddress){... */\n    tag_59:\n        /* \"contracts/Test1.sol\":995:998  i++ */\n      dup1\n      dup1\n      tag_63\n      swap1\n      tag_64\n      jump\t// in\n    tag_63:\n      swap2\n      pop\n      pop\n        /* \"contracts/Test1.sol\":961:1121  for(uint i = 0; i < users.length; i++){... */\n      jump(tag_52)\n    tag_53:\n      pop\n        /* \"contracts/Test1.sol\":1138:1141  999 */\n      0x03e7\n        /* \"contracts/Test1.sol\":1131:1141  return 999 */\n      swap1\n      pop\n        /* \"contracts/Test1.sol\":884:1148  function balanceOf(address walletAddress) public view returns(uint){... */\n    tag_51:\n      swap2\n      swap1\n      pop\n      jump\t// out\n        /* \"contracts/Test1.sol\":379:521  function addUser(address walletAddress, string memory name, uint amount) public {... */\n    tag_39:\n        /* \"contracts/Test1.sol\":469:474  users */\n      0x01\n        /* \"contracts/Test1.sol\":480:513  User(walletAddress, name, amount) */\n      mload(0x40)\n      dup1\n      0x60\n      add\n      0x40\n      mstore\n      dup1\n        /* \"contracts/Test1.sol\":485:498  walletAddress */\n      dup6\n        /* \"contracts/Test1.sol\":480:513  User(walletAddress, name, amount) */\n      0xffffffffffffffffffffffffffffffffffffffff\n      and\n      dup2\n      mstore\n      0x20\n      add\n        /* \"contracts/Test1.sol\":500:504  name */\n      dup5\n        /* \"contracts/Test1.sol\":480:513  User(walletAddress, name, amount) */\n      dup2\n      mstore\n      0x20\n      add\n        /* \"contracts/Test1.sol\":506:512  amount */\n      dup4\n        /* \"contracts/Test1.sol\":480:513  User(walletAddress, name, amount) */\n      dup2\n      mstore\n      pop\n        /* \"contracts/Test1.sol\":469:514  users.push(User(walletAddress, name, amount)) */\n      swap1\n      dup1\n      0x01\n      dup2\n      sload\n      add\n      dup1\n      dup3\n      sstore\n      dup1\n      swap2\n      pop\n      pop\n      0x01\n      swap1\n      sub\n      swap1\n      0x00\n      mstore\n      keccak256(0x00, 0x20)\n      swap1\n      0x03\n      mul\n      add\n      0x00\n      swap1\n      swap2\n      swap1\n      swap2\n      swap1\n      swap2\n      pop\n      0x00\n      dup3\n      add\n      mload\n      dup2\n      0x00\n      add\n      exp(0x0100, 0x00)\n      dup2\n      sload\n      dup2\n      0xffffffffffffffffffffffffffffffffffffffff\n      mul\n      not\n      and\n      swap1\n      dup4\n      0xffffffffffffffffffffffffffffffffffffffff\n      and\n      mul\n      or\n      swap1\n      sstore\n      pop\n      0x20\n      dup3\n      add\n      mload\n      dup2\n      0x01\n      add\n      swap1\n      dup1\n      mload\n      swap1\n      0x20\n      add\n      swap1\n      tag_67\n      swap3\n      swap2\n      swap1\n      tag_68\n      jump\t// in\n    tag_67:\n      pop\n      0x40\n      dup3\n      add\n      mload\n      dup2\n      0x02\n      add\n      sstore\n      pop\n      pop\n        /* \"contracts/Test1.sol\":379:521  function addUser(address walletAddress, string memory name, uint amount) public {... */\n      pop\n      pop\n      pop\n      jump\t// out\n        /* \"contracts/Test1.sol\":638:878  function transferToAddress(address walletAddress) private {... */\n    tag_42:\n        /* \"contracts/Test1.sol\":710:716  uint i */\n      0x00\n        /* \"contracts/Test1.sol\":706:872  for(uint i = 0; i < users.length; i++){... */\n    tag_70:\n        /* \"contracts/Test1.sol\":726:731  users */\n      0x01\n        /* \"contracts/Test1.sol\":726:738  users.length */\n      dup1\n      sload\n      swap1\n      pop\n        /* \"contracts/Test1.sol\":722:723  i */\n      dup2\n        /* \"contracts/Test1.sol\":722:738  i < users.length */\n      lt\n        /* \"contracts/Test1.sol\":706:872  for(uint i = 0; i < users.length; i++){... */\n      iszero\n      tag_71\n      jumpi\n        /* \"contracts/Test1.sol\":787:800  walletAddress */\n      dup2\n        /* \"contracts/Test1.sol\":761:800  users[i].walletAddress == walletAddress */\n      0xffffffffffffffffffffffffffffffffffffffff\n      and\n        /* \"contracts/Test1.sol\":761:766  users */\n      0x01\n        /* \"contracts/Test1.sol\":767:768  i */\n      dup3\n        /* \"contracts/Test1.sol\":761:769  users[i] */\n      dup2\n      sload\n      dup2\n      lt\n      tag_73\n      jumpi\n      tag_74\n      tag_57\n      jump\t// in\n    tag_74:\n    tag_73:\n      swap1\n      0x00\n      mstore\n      keccak256(0x00, 0x20)\n      swap1\n      0x03\n      mul\n      add\n        /* \"contracts/Test1.sol\":761:783  users[i].walletAddress */\n      0x00\n      add\n      0x00\n      swap1\n      sload\n      swap1\n      0x0100\n      exp\n      swap1\n      div\n      0xffffffffffffffffffffffffffffffffffffffff\n      and\n        /* \"contracts/Test1.sol\":761:800  users[i].walletAddress == walletAddress */\n      0xffffffffffffffffffffffffffffffffffffffff\n      and\n      eq\n        /* \"contracts/Test1.sol\":758:862  if(users[i].walletAddress == walletAddress){... */\n      iszero\n      tag_76\n      jumpi\n        /* \"contracts/Test1.sol\":838:847  msg.value */\n      callvalue\n        /* \"contracts/Test1.sol\":819:824  users */\n      0x01\n        /* \"contracts/Test1.sol\":825:826  i */\n      dup3\n        /* \"contracts/Test1.sol\":819:827  users[i] */\n      dup2\n      sload\n      dup2\n      lt\n      tag_77\n      jumpi\n      tag_78\n      tag_57\n      jump\t// in\n    tag_78:\n    tag_77:\n      swap1\n      0x00\n      mstore\n      keccak256(0x00, 0x20)\n      swap1\n      0x03\n      mul\n      add\n        /* \"contracts/Test1.sol\":819:834  users[i].amount */\n      0x02\n      add\n      0x00\n        /* \"contracts/Test1.sol\":819:847  users[i].amount += msg.value */\n      dup3\n      dup3\n      sload\n      tag_80\n      swap2\n      swap1\n      tag_81\n      jump\t// in\n    tag_80:\n      swap3\n      pop\n      pop\n      dup2\n      swap1\n      sstore\n      pop\n        /* \"contracts/Test1.sol\":758:862  if(users[i].walletAddress == walletAddress){... */\n    tag_76:\n        /* \"contracts/Test1.sol\":740:743  i++ */\n      dup1\n      dup1\n      tag_82\n      swap1\n      tag_64\n      jump\t// in\n    tag_82:\n      swap2\n      pop\n      pop\n        /* \"contracts/Test1.sol\":706:872  for(uint i = 0; i < users.length; i++){... */\n      jump(tag_70)\n    tag_71:\n      pop\n        /* \"contracts/Test1.sol\":638:878  function transferToAddress(address walletAddress) private {... */\n      pop\n      jump\t// out\n    tag_68:\n      dup3\n      dup1\n      sload\n      tag_83\n      swap1\n      tag_46\n      jump\t// in\n    tag_83:\n      swap1\n      0x00\n      mstore\n      keccak256(0x00, 0x20)\n      swap1\n      0x1f\n      add\n      0x20\n      swap1\n      div\n      dup2\n      add\n      swap3\n      dup3\n      tag_85\n      jumpi\n      0x00\n      dup6\n      sstore\n      jump(tag_84)\n    tag_85:\n      dup3\n      0x1f\n      lt\n      tag_86\n      jumpi\n      dup1\n      mload\n      not(0xff)\n      and\n      dup4\n      dup1\n      add\n      or\n      dup6\n      sstore\n      jump(tag_84)\n    tag_86:\n      dup3\n      dup1\n      add\n      0x01\n      add\n      dup6\n      sstore\n      dup3\n      iszero\n      tag_84\n      jumpi\n      swap2\n      dup3\n      add\n    tag_87:\n      dup3\n      dup2\n      gt\n      iszero\n      tag_88\n      jumpi\n      dup3\n      mload\n      dup3\n      sstore\n      swap2\n      0x20\n      add\n      swap2\n      swap1\n      0x01\n      add\n      swap1\n      jump(tag_87)\n    tag_88:\n    tag_84:\n      pop\n      swap1\n      pop\n      tag_89\n      swap2\n      swap1\n      tag_90\n      jump\t// in\n    tag_89:\n      pop\n      swap1\n      jump\t// out\n    tag_90:\n    tag_91:\n      dup1\n      dup3\n      gt\n      iszero\n      tag_92\n      jumpi\n      0x00\n      dup2\n      0x00\n      swap1\n      sstore\n      pop\n      0x01\n      add\n      jump(tag_91)\n    tag_92:\n      pop\n      swap1\n      jump\t// out\n        /* \"#utility.yul\":7:419   */\n    tag_94:\n        /* \"#utility.yul\":85:90   */\n      0x00\n        /* \"#utility.yul\":110:176   */\n      tag_96\n        /* \"#utility.yul\":126:175   */\n      tag_97\n        /* \"#utility.yul\":168:174   */\n      dup5\n        /* \"#utility.yul\":126:175   */\n      tag_98\n      jump\t// in\n    tag_97:\n        /* \"#utility.yul\":110:176   */\n      tag_99\n      jump\t// in\n    tag_96:\n        /* \"#utility.yul\":101:176   */\n      swap1\n      pop\n        /* \"#utility.yul\":199:205   */\n      dup3\n        /* \"#utility.yul\":192:197   */\n      dup2\n        /* \"#utility.yul\":185:206   */\n      mstore\n        /* \"#utility.yul\":237:241   */\n      0x20\n        /* \"#utility.yul\":230:235   */\n      dup2\n        /* \"#utility.yul\":226:242   */\n      add\n        /* \"#utility.yul\":275:278   */\n      dup5\n        /* \"#utility.yul\":266:272   */\n      dup5\n        /* \"#utility.yul\":261:264   */\n      dup5\n        /* \"#utility.yul\":257:273   */\n      add\n        /* \"#utility.yul\":254:279   */\n      gt\n        /* \"#utility.yul\":251:363   */\n      iszero\n      tag_100\n      jumpi\n        /* \"#utility.yul\":282:361   */\n      tag_101\n      tag_102\n      jump\t// in\n    tag_101:\n        /* \"#utility.yul\":251:363   */\n    tag_100:\n        /* \"#utility.yul\":372:413   */\n      tag_103\n        /* \"#utility.yul\":406:412   */\n      dup5\n        /* \"#utility.yul\":401:404   */\n      dup3\n        /* \"#utility.yul\":396:399   */\n      dup6\n        /* \"#utility.yul\":372:413   */\n      tag_104\n      jump\t// in\n    tag_103:\n        /* \"#utility.yul\":91:419   */\n      pop\n        /* \"#utility.yul\":7:419   */\n      swap4\n      swap3\n      pop\n      pop\n      pop\n      jump\t// out\n        /* \"#utility.yul\":425:564   */\n    tag_105:\n        /* \"#utility.yul\":471:476   */\n      0x00\n        /* \"#utility.yul\":509:515   */\n      dup2\n        /* \"#utility.yul\":496:516   */\n      calldataload\n        /* \"#utility.yul\":487:516   */\n      swap1\n      pop\n        /* \"#utility.yul\":525:558   */\n      tag_107\n        /* \"#utility.yul\":552:557   */\n      dup2\n        /* \"#utility.yul\":525:558   */\n      tag_108\n      jump\t// in\n    tag_107:\n        /* \"#utility.yul\":425:564   */\n      swap3\n      swap2\n      pop\n      pop\n      jump\t// out\n        /* \"#utility.yul\":584:924   */\n    tag_109:\n        /* \"#utility.yul\":640:645   */\n      0x00\n        /* \"#utility.yul\":689:692   */\n      dup3\n        /* \"#utility.yul\":682:686   */\n      0x1f\n        /* \"#utility.yul\":674:680   */\n      dup4\n        /* \"#utility.yul\":670:687   */\n      add\n        /* \"#utility.yul\":666:693   */\n      slt\n        /* \"#utility.yul\":656:778   */\n      tag_111\n      jumpi\n        /* \"#utility.yul\":697:776   */\n      tag_112\n      tag_113\n      jump\t// in\n    tag_112:\n        /* \"#utility.yul\":656:778   */\n    tag_111:\n        /* \"#utility.yul\":814:820   */\n      dup2\n        /* \"#utility.yul\":801:821   */\n      calldataload\n        /* \"#utility.yul\":839:918   */\n      tag_114\n        /* \"#utility.yul\":914:917   */\n      dup5\n        /* \"#utility.yul\":906:912   */\n      dup3\n        /* \"#utility.yul\":899:903   */\n      0x20\n        /* \"#utility.yul\":891:897   */\n      dup7\n        /* \"#utility.yul\":887:904   */\n      add\n        /* \"#utility.yul\":839:918   */\n      tag_94\n      jump\t// in\n    tag_114:\n        /* \"#utility.yul\":830:918   */\n      swap2\n      pop\n        /* \"#utility.yul\":646:924   */\n      pop\n        /* \"#utility.yul\":584:924   */\n      swap3\n      swap2\n      pop\n      pop\n      jump\t// out\n        /* \"#utility.yul\":930:1069   */\n    tag_115:\n        /* \"#utility.yul\":976:981   */\n      0x00\n        /* \"#utility.yul\":1014:1020   */\n      dup2\n        /* \"#utility.yul\":1001:1021   */\n      calldataload\n        /* \"#utility.yul\":992:1021   */\n      swap1\n      pop\n        /* \"#utility.yul\":1030:1063   */\n      tag_117\n        /* \"#utility.yul\":1057:1062   */\n      dup2\n        /* \"#utility.yul\":1030:1063   */\n      tag_118\n      jump\t// in\n    tag_117:\n        /* \"#utility.yul\":930:1069   */\n      swap3\n      swap2\n      pop\n      pop\n      jump\t// out\n        /* \"#utility.yul\":1075:1404   */\n    tag_10:\n        /* \"#utility.yul\":1134:1140   */\n      0x00\n        /* \"#utility.yul\":1183:1185   */\n      0x20\n        /* \"#utility.yul\":1171:1180   */\n      dup3\n        /* \"#utility.yul\":1162:1169   */\n      dup5\n        /* \"#utility.yul\":1158:1181   */\n      sub\n        /* \"#utility.yul\":1154:1186   */\n      slt\n        /* \"#utility.yul\":1151:1270   */\n      iszero\n      tag_120\n      jumpi\n        /* \"#utility.yul\":1189:1268   */\n      tag_121\n      tag_122\n      jump\t// in\n    tag_121:\n        /* \"#utility.yul\":1151:1270   */\n    tag_120:\n        /* \"#utility.yul\":1309:1310   */\n      0x00\n        /* \"#utility.yul\":1334:1387   */\n      tag_123\n        /* \"#utility.yul\":1379:1386   */\n      dup5\n        /* \"#utility.yul\":1370:1376   */\n      dup3\n        /* \"#utility.yul\":1359:1368   */\n      dup6\n        /* \"#utility.yul\":1355:1377   */\n      add\n        /* \"#utility.yul\":1334:1387   */\n      tag_105\n      jump\t// in\n    tag_123:\n        /* \"#utility.yul\":1324:1387   */\n      swap2\n      pop\n        /* \"#utility.yul\":1280:1397   */\n      pop\n        /* \"#utility.yul\":1075:1404   */\n      swap3\n      swap2\n      pop\n      pop\n      jump\t// out\n        /* \"#utility.yul\":1410:2209   */\n    tag_38:\n        /* \"#utility.yul\":1497:1503   */\n      0x00\n        /* \"#utility.yul\":1505:1511   */\n      dup1\n        /* \"#utility.yul\":1513:1519   */\n      0x00\n        /* \"#utility.yul\":1562:1564   */\n      0x60\n        /* \"#utility.yul\":1550:1559   */\n      dup5\n        /* \"#utility.yul\":1541:1548   */\n      dup7\n        /* \"#utility.yul\":1537:1560   */\n      sub\n        /* \"#utility.yul\":1533:1565   */\n      slt\n        /* \"#utility.yul\":1530:1649   */\n      iszero\n      tag_125\n      jumpi\n        /* \"#utility.yul\":1568:1647   */\n      tag_126\n      tag_122\n      jump\t// in\n    tag_126:\n        /* \"#utility.yul\":1530:1649   */\n    tag_125:\n        /* \"#utility.yul\":1688:1689   */\n      0x00\n        /* \"#utility.yul\":1713:1766   */\n      tag_127\n        /* \"#utility.yul\":1758:1765   */\n      dup7\n        /* \"#utility.yul\":1749:1755   */\n      dup3\n        /* \"#utility.yul\":1738:1747   */\n      dup8\n        /* \"#utility.yul\":1734:1756   */\n      add\n        /* \"#utility.yul\":1713:1766   */\n      tag_105\n      jump\t// in\n    tag_127:\n        /* \"#utility.yul\":1703:1766   */\n      swap4\n      pop\n        /* \"#utility.yul\":1659:1776   */\n      pop\n        /* \"#utility.yul\":1843:1845   */\n      0x20\n        /* \"#utility.yul\":1832:1841   */\n      dup5\n        /* \"#utility.yul\":1828:1846   */\n      add\n        /* \"#utility.yul\":1815:1847   */\n      calldataload\n        /* \"#utility.yul\":1874:1892   */\n      0xffffffffffffffff\n        /* \"#utility.yul\":1866:1872   */\n      dup2\n        /* \"#utility.yul\":1863:1893   */\n      gt\n        /* \"#utility.yul\":1860:1977   */\n      iszero\n      tag_128\n      jumpi\n        /* \"#utility.yul\":1896:1975   */\n      tag_129\n      tag_130\n      jump\t// in\n    tag_129:\n        /* \"#utility.yul\":1860:1977   */\n    tag_128:\n        /* \"#utility.yul\":2001:2064   */\n      tag_131\n        /* \"#utility.yul\":2056:2063   */\n      dup7\n        /* \"#utility.yul\":2047:2053   */\n      dup3\n        /* \"#utility.yul\":2036:2045   */\n      dup8\n        /* \"#utility.yul\":2032:2054   */\n      add\n        /* \"#utility.yul\":2001:2064   */\n      tag_109\n      jump\t// in\n    tag_131:\n        /* \"#utility.yul\":1991:2064   */\n      swap3\n      pop\n        /* \"#utility.yul\":1786:2074   */\n      pop\n        /* \"#utility.yul\":2113:2115   */\n      0x40\n        /* \"#utility.yul\":2139:2192   */\n      tag_132\n        /* \"#utility.yul\":2184:2191   */\n      dup7\n        /* \"#utility.yul\":2175:2181   */\n      dup3\n        /* \"#utility.yul\":2164:2173   */\n      dup8\n        /* \"#utility.yul\":2160:2182   */\n      add\n        /* \"#utility.yul\":2139:2192   */\n      tag_115\n      jump\t// in\n    tag_132:\n        /* \"#utility.yul\":2129:2192   */\n      swap2\n      pop\n        /* \"#utility.yul\":2084:2202   */\n      pop\n        /* \"#utility.yul\":1410:2209   */\n      swap3\n      pop\n      swap3\n      pop\n      swap3\n      jump\t// out\n        /* \"#utility.yul\":2215:2544   */\n    tag_21:\n        /* \"#utility.yul\":2274:2280   */\n      0x00\n        /* \"#utility.yul\":2323:2325   */\n      0x20\n        /* \"#utility.yul\":2311:2320   */\n      dup3\n        /* \"#utility.yul\":2302:2309   */\n      dup5\n        /* \"#utility.yul\":2298:2321   */\n      sub\n        /* \"#utility.yul\":2294:2326   */\n      slt\n        /* \"#utility.yul\":2291:2410   */\n      iszero\n      tag_134\n      jumpi\n        /* \"#utility.yul\":2329:2408   */\n      tag_135\n      tag_122\n      jump\t// in\n    tag_135:\n        /* \"#utility.yul\":2291:2410   */\n    tag_134:\n        /* \"#utility.yul\":2449:2450   */\n      0x00\n        /* \"#utility.yul\":2474:2527   */\n      tag_136\n        /* \"#utility.yul\":2519:2526   */\n      dup5\n        /* \"#utility.yul\":2510:2516   */\n      dup3\n        /* \"#utility.yul\":2499:2508   */\n      dup6\n        /* \"#utility.yul\":2495:2517   */\n      add\n        /* \"#utility.yul\":2474:2527   */\n      tag_115\n      jump\t// in\n    tag_136:\n        /* \"#utility.yul\":2464:2527   */\n      swap2\n      pop\n        /* \"#utility.yul\":2420:2537   */\n      pop\n        /* \"#utility.yul\":2215:2544   */\n      swap3\n      swap2\n      pop\n      pop\n      jump\t// out\n        /* \"#utility.yul\":2550:2668   */\n    tag_137:\n        /* \"#utility.yul\":2637:2661   */\n      tag_139\n        /* \"#utility.yul\":2655:2660   */\n      dup2\n        /* \"#utility.yul\":2637:2661   */\n      tag_140\n      jump\t// in\n    tag_139:\n        /* \"#utility.yul\":2632:2635   */\n      dup3\n        /* \"#utility.yul\":2625:2662   */\n      mstore\n        /* \"#utility.yul\":2550:2668   */\n      pop\n      pop\n      jump\t// out\n        /* \"#utility.yul\":2674:3038   */\n    tag_141:\n        /* \"#utility.yul\":2762:2765   */\n      0x00\n        /* \"#utility.yul\":2790:2829   */\n      tag_143\n        /* \"#utility.yul\":2823:2828   */\n      dup3\n        /* \"#utility.yul\":2790:2829   */\n      tag_144\n      jump\t// in\n    tag_143:\n        /* \"#utility.yul\":2845:2916   */\n      tag_145\n        /* \"#utility.yul\":2909:2915   */\n      dup2\n        /* \"#utility.yul\":2904:2907   */\n      dup6\n        /* \"#utility.yul\":2845:2916   */\n      tag_146\n      jump\t// in\n    tag_145:\n        /* \"#utility.yul\":2838:2916   */\n      swap4\n      pop\n        /* \"#utility.yul\":2925:2977   */\n      tag_147\n        /* \"#utility.yul\":2970:2976   */\n      dup2\n        /* \"#utility.yul\":2965:2968   */\n      dup6\n        /* \"#utility.yul\":2958:2962   */\n      0x20\n        /* \"#utility.yul\":2951:2956   */\n      dup7\n        /* \"#utility.yul\":2947:2963   */\n      add\n        /* \"#utility.yul\":2925:2977   */\n      tag_148\n      jump\t// in\n    tag_147:\n        /* \"#utility.yul\":3002:3031   */\n      tag_149\n        /* \"#utility.yul\":3024:3030   */\n      dup2\n        /* \"#utility.yul\":3002:3031   */\n      tag_150\n      jump\t// in\n    tag_149:\n        /* \"#utility.yul\":2997:3000   */\n      dup5\n        /* \"#utility.yul\":2993:3032   */\n      add\n        /* \"#utility.yul\":2986:3032   */\n      swap2\n      pop\n        /* \"#utility.yul\":2766:3038   */\n      pop\n        /* \"#utility.yul\":2674:3038   */\n      swap3\n      swap2\n      pop\n      pop\n      jump\t// out\n        /* \"#utility.yul\":3044:3162   */\n    tag_151:\n        /* \"#utility.yul\":3131:3155   */\n      tag_153\n        /* \"#utility.yul\":3149:3154   */\n      dup2\n        /* \"#utility.yul\":3131:3155   */\n      tag_154\n      jump\t// in\n    tag_153:\n        /* \"#utility.yul\":3126:3129   */\n      dup3\n        /* \"#utility.yul\":3119:3156   */\n      mstore\n        /* \"#utility.yul\":3044:3162   */\n      pop\n      pop\n      jump\t// out\n        /* \"#utility.yul\":3168:3701   */\n    tag_24:\n        /* \"#utility.yul\":3337:3341   */\n      0x00\n        /* \"#utility.yul\":3375:3377   */\n      0x60\n        /* \"#utility.yul\":3364:3373   */\n      dup3\n        /* \"#utility.yul\":3360:3378   */\n      add\n        /* \"#utility.yul\":3352:3378   */\n      swap1\n      pop\n        /* \"#utility.yul\":3388:3459   */\n      tag_156\n        /* \"#utility.yul\":3456:3457   */\n      0x00\n        /* \"#utility.yul\":3445:3454   */\n      dup4\n        /* \"#utility.yul\":3441:3458   */\n      add\n        /* \"#utility.yul\":3432:3438   */\n      dup7\n        /* \"#utility.yul\":3388:3459   */\n      tag_137\n      jump\t// in\n    tag_156:\n        /* \"#utility.yul\":3506:3515   */\n      dup2\n        /* \"#utility.yul\":3500:3504   */\n      dup2\n        /* \"#utility.yul\":3496:3516   */\n      sub\n        /* \"#utility.yul\":3491:3493   */\n      0x20\n        /* \"#utility.yul\":3480:3489   */\n      dup4\n        /* \"#utility.yul\":3476:3494   */\n      add\n        /* \"#utility.yul\":3469:3517   */\n      mstore\n        /* \"#utility.yul\":3534:3612   */\n      tag_157\n        /* \"#utility.yul\":3607:3611   */\n      dup2\n        /* \"#utility.yul\":3598:3604   */\n      dup6\n        /* \"#utility.yul\":3534:3612   */\n      tag_141\n      jump\t// in\n    tag_157:\n        /* \"#utility.yul\":3526:3612   */\n      swap1\n      pop\n        /* \"#utility.yul\":3622:3694   */\n      tag_158\n        /* \"#utility.yul\":3690:3692   */\n      0x40\n        /* \"#utility.yul\":3679:3688   */\n      dup4\n        /* \"#utility.yul\":3675:3693   */\n      add\n        /* \"#utility.yul\":3666:3672   */\n      dup5\n        /* \"#utility.yul\":3622:3694   */\n      tag_151\n      jump\t// in\n    tag_158:\n        /* \"#utility.yul\":3168:3701   */\n      swap5\n      swap4\n      pop\n      pop\n      pop\n      pop\n      jump\t// out\n        /* \"#utility.yul\":3707:3929   */\n    tag_17:\n        /* \"#utility.yul\":3800:3804   */\n      0x00\n        /* \"#utility.yul\":3838:3840   */\n      0x20\n        /* \"#utility.yul\":3827:3836   */\n      dup3\n        /* \"#utility.yul\":3823:3841   */\n      add\n        /* \"#utility.yul\":3815:3841   */\n      swap1\n      pop\n        /* \"#utility.yul\":3851:3922   */\n      tag_160\n        /* \"#utility.yul\":3919:3920   */\n      0x00\n        /* \"#utility.yul\":3908:3917   */\n      dup4\n        /* \"#utility.yul\":3904:3921   */\n      add\n        /* \"#utility.yul\":3895:3901   */\n      dup5\n        /* \"#utility.yul\":3851:3922   */\n      tag_151\n      jump\t// in\n    tag_160:\n        /* \"#utility.yul\":3707:3929   */\n      swap3\n      swap2\n      pop\n      pop\n      jump\t// out\n        /* \"#utility.yul\":3935:4064   */\n    tag_99:\n        /* \"#utility.yul\":3969:3975   */\n      0x00\n        /* \"#utility.yul\":3996:4016   */\n      tag_162\n      tag_163\n      jump\t// in\n    tag_162:\n        /* \"#utility.yul\":3986:4016   */\n      swap1\n      pop\n        /* \"#utility.yul\":4025:4058   */\n      tag_164\n        /* \"#utility.yul\":4053:4057   */\n      dup3\n        /* \"#utility.yul\":4045:4051   */\n      dup3\n        /* \"#utility.yul\":4025:4058   */\n      tag_165\n      jump\t// in\n    tag_164:\n        /* \"#utility.yul\":3935:4064   */\n      swap2\n      swap1\n      pop\n      jump\t// out\n        /* \"#utility.yul\":4070:4145   */\n    tag_163:\n        /* \"#utility.yul\":4103:4109   */\n      0x00\n        /* \"#utility.yul\":4136:4138   */\n      0x40\n        /* \"#utility.yul\":4130:4139   */\n      mload\n        /* \"#utility.yul\":4120:4139   */\n      swap1\n      pop\n        /* \"#utility.yul\":4070:4145   */\n      swap1\n      jump\t// out\n        /* \"#utility.yul\":4151:4459   */\n    tag_98:\n        /* \"#utility.yul\":4213:4217   */\n      0x00\n        /* \"#utility.yul\":4303:4321   */\n      0xffffffffffffffff\n        /* \"#utility.yul\":4295:4301   */\n      dup3\n        /* \"#utility.yul\":4292:4322   */\n      gt\n        /* \"#utility.yul\":4289:4345   */\n      iszero\n      tag_168\n      jumpi\n        /* \"#utility.yul\":4325:4343   */\n      tag_169\n      tag_170\n      jump\t// in\n    tag_169:\n        /* \"#utility.yul\":4289:4345   */\n    tag_168:\n        /* \"#utility.yul\":4363:4392   */\n      tag_171\n        /* \"#utility.yul\":4385:4391   */\n      dup3\n        /* \"#utility.yul\":4363:4392   */\n      tag_150\n      jump\t// in\n    tag_171:\n        /* \"#utility.yul\":4355:4392   */\n      swap1\n      pop\n        /* \"#utility.yul\":4447:4451   */\n      0x20\n        /* \"#utility.yul\":4441:4445   */\n      dup2\n        /* \"#utility.yul\":4437:4452   */\n      add\n        /* \"#utility.yul\":4429:4452   */\n      swap1\n      pop\n        /* \"#utility.yul\":4151:4459   */\n      swap2\n      swap1\n      pop\n      jump\t// out\n        /* \"#utility.yul\":4465:4564   */\n    tag_144:\n        /* \"#utility.yul\":4517:4523   */\n      0x00\n        /* \"#utility.yul\":4551:4556   */\n      dup2\n        /* \"#utility.yul\":4545:4557   */\n      mload\n        /* \"#utility.yul\":4535:4557   */\n      swap1\n      pop\n        /* \"#utility.yul\":4465:4564   */\n      swap2\n      swap1\n      pop\n      jump\t// out\n        /* \"#utility.yul\":4570:4739   */\n    tag_146:\n        /* \"#utility.yul\":4654:4665   */\n      0x00\n        /* \"#utility.yul\":4688:4694   */\n      dup3\n        /* \"#utility.yul\":4683:4686   */\n      dup3\n        /* \"#utility.yul\":4676:4695   */\n      mstore\n        /* \"#utility.yul\":4728:4732   */\n      0x20\n        /* \"#utility.yul\":4723:4726   */\n      dup3\n        /* \"#utility.yul\":4719:4733   */\n      add\n        /* \"#utility.yul\":4704:4733   */\n      swap1\n      pop\n        /* \"#utility.yul\":4570:4739   */\n      swap3\n      swap2\n      pop\n      pop\n      jump\t// out\n        /* \"#utility.yul\":4745:5050   */\n    tag_81:\n        /* \"#utility.yul\":4785:4788   */\n      0x00\n        /* \"#utility.yul\":4804:4824   */\n      tag_175\n        /* \"#utility.yul\":4822:4823   */\n      dup3\n        /* \"#utility.yul\":4804:4824   */\n      tag_154\n      jump\t// in\n    tag_175:\n        /* \"#utility.yul\":4799:4824   */\n      swap2\n      pop\n        /* \"#utility.yul\":4838:4858   */\n      tag_176\n        /* \"#utility.yul\":4856:4857   */\n      dup4\n        /* \"#utility.yul\":4838:4858   */\n      tag_154\n      jump\t// in\n    tag_176:\n        /* \"#utility.yul\":4833:4858   */\n      swap3\n      pop\n        /* \"#utility.yul\":4992:4993   */\n      dup3\n        /* \"#utility.yul\":4924:4990   */\n      0xffffffffffffffffffffffffffffffffffffffffffffffffffffffffffffffff\n        /* \"#utility.yul\":4920:4994   */\n      sub\n        /* \"#utility.yul\":4917:4918   */\n      dup3\n        /* \"#utility.yul\":4914:4995   */\n      gt\n        /* \"#utility.yul\":4911:5018   */\n      iszero\n      tag_177\n      jumpi\n        /* \"#utility.yul\":4998:5016   */\n      tag_178\n      tag_179\n      jump\t// in\n    tag_178:\n        /* \"#utility.yul\":4911:5018   */\n    tag_177:\n        /* \"#utility.yul\":5042:5043   */\n      dup3\n        /* \"#utility.yul\":5039:5040   */\n      dup3\n        /* \"#utility.yul\":5035:5044   */\n      add\n        /* \"#utility.yul\":5028:5044   */\n      swap1\n      pop\n        /* \"#utility.yul\":4745:5050   */\n      swap3\n      swap2\n      pop\n      pop\n      jump\t// out\n        /* \"#utility.yul\":5056:5152   */\n    tag_140:\n        /* \"#utility.yul\":5093:5100   */\n      0x00\n        /* \"#utility.yul\":5122:5146   */\n      tag_181\n        /* \"#utility.yul\":5140:5145   */\n      dup3\n        /* \"#utility.yul\":5122:5146   */\n      tag_182\n      jump\t// in\n    tag_181:\n        /* \"#utility.yul\":5111:5146   */\n      swap1\n      pop\n        /* \"#utility.yul\":5056:5152   */\n      swap2\n      swap1\n      pop\n      jump\t// out\n        /* \"#utility.yul\":5158:5284   */\n    tag_182:\n        /* \"#utility.yul\":5195:5202   */\n      0x00\n        /* \"#utility.yul\":5235:5277   */\n      0xffffffffffffffffffffffffffffffffffffffff\n        /* \"#utility.yul\":5228:5233   */\n      dup3\n        /* \"#utility.yul\":5224:5278   */\n      and\n        /* \"#utility.yul\":5213:5278   */\n      swap1\n      pop\n        /* \"#utility.yul\":5158:5284   */\n      swap2\n      swap1\n      pop\n      jump\t// out\n        /* \"#utility.yul\":5290:5367   */\n    tag_154:\n        /* \"#utility.yul\":5327:5334   */\n      0x00\n        /* \"#utility.yul\":5356:5361   */\n      dup2\n        /* \"#utility.yul\":5345:5361   */\n      swap1\n      pop\n        /* \"#utility.yul\":5290:5367   */\n      swap2\n      swap1\n      pop\n      jump\t// out\n        /* \"#utility.yul\":5373:5527   */\n    tag_104:\n        /* \"#utility.yul\":5457:5463   */\n      dup3\n        /* \"#utility.yul\":5452:5455   */\n      dup2\n        /* \"#utility.yul\":5447:5450   */\n      dup4\n        /* \"#utility.yul\":5434:5464   */\n      calldatacopy\n        /* \"#utility.yul\":5519:5520   */\n      0x00\n        /* \"#utility.yul\":5510:5516   */\n      dup4\n        /* \"#utility.yul\":5505:5508   */\n      dup4\n        /* \"#utility.yul\":5501:5517   */\n      add\n        /* \"#utility.yul\":5494:5521   */\n      mstore\n        /* \"#utility.yul\":5373:5527   */\n      pop\n      pop\n      pop\n      jump\t// out\n        /* \"#utility.yul\":5533:5840   */\n    tag_148:\n        /* \"#utility.yul\":5601:5602   */\n      0x00\n        /* \"#utility.yul\":5611:5724   */\n    tag_187:\n        /* \"#utility.yul\":5625:5631   */\n      dup4\n        /* \"#utility.yul\":5622:5623   */\n      dup2\n        /* \"#utility.yul\":5619:5632   */\n      lt\n        /* \"#utility.yul\":5611:5724   */\n      iszero\n      tag_189\n      jumpi\n        /* \"#utility.yul\":5710:5711   */\n      dup1\n        /* \"#utility.yul\":5705:5708   */\n      dup3\n        /* \"#utility.yul\":5701:5712   */\n      add\n        /* \"#utility.yul\":5695:5713   */\n      mload\n        /* \"#utility.yul\":5691:5692   */\n      dup2\n        /* \"#utility.yul\":5686:5689   */\n      dup5\n        /* \"#utility.yul\":5682:5693   */\n      add\n        /* \"#utility.yul\":5675:5714   */\n      mstore\n        /* \"#utility.yul\":5647:5649   */\n      0x20\n        /* \"#utility.yul\":5644:5645   */\n      dup2\n        /* \"#utility.yul\":5640:5650   */\n      add\n        /* \"#utility.yul\":5635:5650   */\n      swap1\n      pop\n        /* \"#utility.yul\":5611:5724   */\n      jump(tag_187)\n    tag_189:\n        /* \"#utility.yul\":5742:5748   */\n      dup4\n        /* \"#utility.yul\":5739:5740   */\n      dup2\n        /* \"#utility.yul\":5736:5749   */\n      gt\n        /* \"#utility.yul\":5733:5834   */\n      iszero\n      tag_190\n      jumpi\n        /* \"#utility.yul\":5822:5823   */\n      0x00\n        /* \"#utility.yul\":5813:5819   */\n      dup5\n        /* \"#utility.yul\":5808:5811   */\n      dup5\n        /* \"#utility.yul\":5804:5820   */\n      add\n        /* \"#utility.yul\":5797:5824   */\n      mstore\n        /* \"#utility.yul\":5733:5834   */\n    tag_190:\n        /* \"#utility.yul\":5582:5840   */\n      pop\n        /* \"#utility.yul\":5533:5840   */\n      pop\n      pop\n      pop\n      jump\t// out\n        /* \"#utility.yul\":5846:6166   */\n    tag_46:\n        /* \"#utility.yul\":5890:5896   */\n      0x00\n        /* \"#utility.yul\":5927:5928   */\n      0x02\n        /* \"#utility.yul\":5921:5925   */\n      dup3\n        /* \"#utility.yul\":5917:5929   */\n      div\n        /* \"#utility.yul\":5907:5929   */\n      swap1\n      pop\n        /* \"#utility.yul\":5974:5975   */\n      0x01\n        /* \"#utility.yul\":5968:5972   */\n      dup3\n        /* \"#utility.yul\":5964:5976   */\n      and\n        /* \"#utility.yul\":5995:6013   */\n      dup1\n        /* \"#utility.yul\":5985:6066   */\n      tag_192\n      jumpi\n        /* \"#utility.yul\":6051:6055   */\n      0x7f\n        /* \"#utility.yul\":6043:6049   */\n      dup3\n        /* \"#utility.yul\":6039:6056   */\n      and\n        /* \"#utility.yul\":6029:6056   */\n      swap2\n      pop\n        /* \"#utility.yul\":5985:6066   */\n    tag_192:\n        /* \"#utility.yul\":6113:6115   */\n      0x20\n        /* \"#utility.yul\":6105:6111   */\n      dup3\n        /* \"#utility.yul\":6102:6116   */\n      lt\n        /* \"#utility.yul\":6082:6100   */\n      dup2\n        /* \"#utility.yul\":6079:6117   */\n      eq\n        /* \"#utility.yul\":6076:6160   */\n      iszero\n      tag_193\n      jumpi\n        /* \"#utility.yul\":6132:6150   */\n      tag_194\n      tag_195\n      jump\t// in\n    tag_194:\n        /* \"#utility.yul\":6076:6160   */\n    tag_193:\n        /* \"#utility.yul\":5897:6166   */\n      pop\n        /* \"#utility.yul\":5846:6166   */\n      swap2\n      swap1\n      pop\n      jump\t// out\n        /* \"#utility.yul\":6172:6453   */\n    tag_165:\n        /* \"#utility.yul\":6255:6282   */\n      tag_197\n        /* \"#utility.yul\":6277:6281   */\n      dup3\n        /* \"#utility.yul\":6255:6282   */\n      tag_150\n      jump\t// in\n    tag_197:\n        /* \"#utility.yul\":6247:6253   */\n      dup2\n        /* \"#utility.yul\":6243:6283   */\n      add\n        /* \"#utility.yul\":6385:6391   */\n      dup2\n        /* \"#utility.yul\":6373:6383   */\n      dup2\n        /* \"#utility.yul\":6370:6392   */\n      lt\n        /* \"#utility.yul\":6349:6367   */\n      0xffffffffffffffff\n        /* \"#utility.yul\":6337:6347   */\n      dup3\n        /* \"#utility.yul\":6334:6368   */\n      gt\n        /* \"#utility.yul\":6331:6393   */\n      or\n        /* \"#utility.yul\":6328:6416   */\n      iszero\n      tag_198\n      jumpi\n        /* \"#utility.yul\":6396:6414   */\n      tag_199\n      tag_170\n      jump\t// in\n    tag_199:\n        /* \"#utility.yul\":6328:6416   */\n    tag_198:\n        /* \"#utility.yul\":6436:6446   */\n      dup1\n        /* \"#utility.yul\":6432:6434   */\n      0x40\n        /* \"#utility.yul\":6425:6447   */\n      mstore\n        /* \"#utility.yul\":6215:6453   */\n      pop\n        /* \"#utility.yul\":6172:6453   */\n      pop\n      pop\n      jump\t// out\n        /* \"#utility.yul\":6459:6692   */\n    tag_64:\n        /* \"#utility.yul\":6498:6501   */\n      0x00\n        /* \"#utility.yul\":6521:6545   */\n      tag_201\n        /* \"#utility.yul\":6539:6544   */\n      dup3\n        /* \"#utility.yul\":6521:6545   */\n      tag_154\n      jump\t// in\n    tag_201:\n        /* \"#utility.yul\":6512:6545   */\n      swap2\n      pop\n        /* \"#utility.yul\":6567:6633   */\n      0xffffffffffffffffffffffffffffffffffffffffffffffffffffffffffffffff\n        /* \"#utility.yul\":6560:6565   */\n      dup3\n        /* \"#utility.yul\":6557:6634   */\n      eq\n        /* \"#utility.yul\":6554:6657   */\n      iszero\n      tag_202\n      jumpi\n        /* \"#utility.yul\":6637:6655   */\n      tag_203\n      tag_179\n      jump\t// in\n    tag_203:\n        /* \"#utility.yul\":6554:6657   */\n    tag_202:\n        /* \"#utility.yul\":6684:6685   */\n      0x01\n        /* \"#utility.yul\":6677:6682   */\n      dup3\n        /* \"#utility.yul\":6673:6686   */\n      add\n        /* \"#utility.yul\":6666:6686   */\n      swap1\n      pop\n        /* \"#utility.yul\":6459:6692   */\n      swap2\n      swap1\n      pop\n      jump\t// out\n        /* \"#utility.yul\":6698:6878   */\n    tag_179:\n        /* \"#utility.yul\":6746:6823   */\n      0x4e487b7100000000000000000000000000000000000000000000000000000000\n        /* \"#utility.yul\":6743:6744   */\n      0x00\n        /* \"#utility.yul\":6736:6824   */\n      mstore\n        /* \"#utility.yul\":6843:6847   */\n      0x11\n        /* \"#utility.yul\":6840:6841   */\n      0x04\n        /* \"#utility.yul\":6833:6848   */\n      mstore\n        /* \"#utility.yul\":6867:6871   */\n      0x24\n        /* \"#utility.yul\":6864:6865   */\n      0x00\n        /* \"#utility.yul\":6857:6872   */\n      revert\n        /* \"#utility.yul\":6884:7064   */\n    tag_195:\n        /* \"#utility.yul\":6932:7009   */\n      0x4e487b7100000000000000000000000000000000000000000000000000000000\n        /* \"#utility.yul\":6929:6930   */\n      0x00\n        /* \"#utility.yul\":6922:7010   */\n      mstore\n        /* \"#utility.yul\":7029:7033   */\n      0x22\n        /* \"#utility.yul\":7026:7027   */\n      0x04\n        /* \"#utility.yul\":7019:7034   */\n      mstore\n        /* \"#utility.yul\":7053:7057   */\n      0x24\n        /* \"#utility.yul\":7050:7051   */\n      0x00\n        /* \"#utility.yul\":7043:7058   */\n      revert\n        /* \"#utility.yul\":7070:7250   */\n    tag_57:\n        /* \"#utility.yul\":7118:7195   */\n      0x4e487b7100000000000000000000000000000000000000000000000000000000\n        /* \"#utility.yul\":7115:7116   */\n      0x00\n        /* \"#utility.yul\":7108:7196   */\n      mstore\n        /* \"#utility.yul\":7215:7219   */\n      0x32\n        /* \"#utility.yul\":7212:7213   */\n      0x04\n        /* \"#utility.yul\":7205:7220   */\n      mstore\n        /* \"#utility.yul\":7239:7243   */\n      0x24\n        /* \"#utility.yul\":7236:7237   */\n      0x00\n        /* \"#utility.yul\":7229:7244   */\n      revert\n        /* \"#utility.yul\":7256:7436   */\n    tag_170:\n        /* \"#utility.yul\":7304:7381   */\n      0x4e487b7100000000000000000000000000000000000000000000000000000000\n        /* \"#utility.yul\":7301:7302   */\n      0x00\n        /* \"#utility.yul\":7294:7382   */\n      mstore\n        /* \"#utility.yul\":7401:7405   */\n      0x41\n        /* \"#utility.yul\":7398:7399   */\n      0x04\n        /* \"#utility.yul\":7391:7406   */\n      mstore\n        /* \"#utility.yul\":7425:7429   */\n      0x24\n        /* \"#utility.yul\":7422:7423   */\n      0x00\n        /* \"#utility.yul\":7415:7430   */\n      revert\n        /* \"#utility.yul\":7442:7559   */\n    tag_113:\n        /* \"#utility.yul\":7551:7552   */\n      0x00\n        /* \"#utility.yul\":7548:7549   */\n      dup1\n        /* \"#utility.yul\":7541:7553   */\n      revert\n        /* \"#utility.yul\":7565:7682   */\n    tag_102:\n        /* \"#utility.yul\":7674:7675   */\n      0x00\n        /* \"#utility.yul\":7671:7672   */\n      dup1\n        /* \"#utility.yul\":7664:7676   */\n      revert\n        /* \"#utility.yul\":7688:7805   */\n    tag_130:\n        /* \"#utility.yul\":7797:7798   */\n      0x00\n        /* \"#utility.yul\":7794:7795   */\n      dup1\n        /* \"#utility.yul\":7787:7799   */\n      revert\n        /* \"#utility.yul\":7811:7928   */\n    tag_122:\n        /* \"#utility.yul\":7920:7921   */\n      0x00\n        /* \"#utility.yul\":7917:7918   */\n      dup1\n        /* \"#utility.yul\":7910:7922   */\n      revert\n        /* \"#utility.yul\":7934:8036   */\n    tag_150:\n        /* \"#utility.yul\":7975:7981   */\n      0x00\n        /* \"#utility.yul\":8026:8028   */\n      0x1f\n        /* \"#utility.yul\":8022:8029   */\n      not\n        /* \"#utility.yul\":8017:8019   */\n      0x1f\n        /* \"#utility.yul\":8010:8015   */\n      dup4\n        /* \"#utility.yul\":8006:8020   */\n      add\n        /* \"#utility.yul\":8002:8030   */\n      and\n        /* \"#utility.yul\":7992:8030   */\n      swap1\n      pop\n        /* \"#utility.yul\":7934:8036   */\n      swap2\n      swap1\n      pop\n      jump\t// out\n        /* \"#utility.yul\":8042:8164   */\n    tag_108:\n        /* \"#utility.yul\":8115:8139   */\n      tag_214\n        /* \"#utility.yul\":8133:8138   */\n      dup2\n        /* \"#utility.yul\":8115:8139   */\n      tag_140\n      jump\t// in\n    tag_214:\n        /* \"#utility.yul\":8108:8113   */\n      dup2\n        /* \"#utility.yul\":8105:8140   */\n      eq\n        /* \"#utility.yul\":8095:8158   */\n      tag_215\n      jumpi\n        /* \"#utility.yul\":8154:8155   */\n      0x00\n        /* \"#utility.yul\":8151:8152   */\n      dup1\n        /* \"#utility.yul\":8144:8156   */\n      revert\n        /* \"#utility.yul\":8095:8158   */\n    tag_215:\n        /* \"#utility.yul\":8042:8164   */\n      pop\n      jump\t// out\n        /* \"#utility.yul\":8170:8292   */\n    tag_118:\n        /* \"#utility.yul\":8243:8267   */\n      tag_217\n        /* \"#utility.yul\":8261:8266   */\n      dup2\n        /* \"#utility.yul\":8243:8267   */\n      tag_154\n      jump\t// in\n    tag_217:\n        /* \"#utility.yul\":8236:8241   */\n      dup2\n        /* \"#utility.yul\":8233:8268   */\n      eq\n        /* \"#utility.yul\":8223:8286   */\n      tag_218\n      jumpi\n        /* \"#utility.yul\":8282:8283   */\n      0x00\n        /* \"#utility.yul\":8279:8280   */\n      dup1\n        /* \"#utility.yul\":8272:8284   */\n      revert\n        /* \"#utility.yul\":8223:8286   */\n    tag_218:\n        /* \"#utility.yul\":8170:8292   */\n      pop\n      jump\t// out\n\n    auxdata: 0xa2646970667358221220c623dbe41aa8948e81b06fa47785960196c754a0d6f789aea1de5dfb9ff8067d64736f6c63430008070033\n}\n",
				"bytecode": {
					"linkReferences": {},
					"object": "608060405234801561001057600080fd5b50336000806101000a81548173ffffffffffffffffffffffffffffffffffffffff021916908373ffffffffffffffffffffffffffffffffffffffff160217905550610b29806100606000396000f3fe6080604052600436106100555760003560e01c80631a6952301461005a5780632438628c14610076578063365b98b2146100b35780636f7bc9be146100f257806370a082311461012f578063f0384fb61461016c575b600080fd5b610074600480360381019061006f9190610679565b610195565b005b34801561008257600080fd5b5061009d60048036038101906100989190610679565b6101a1565b6040516100aa91906107d7565b60405180910390f35b3480156100bf57600080fd5b506100da60048036038101906100d59190610715565b6101b9565b6040516100e993929190610799565b60405180910390f35b3480156100fe57600080fd5b5061011960048036038101906101149190610679565b61029b565b60405161012691906107d7565b60405180910390f35b34801561013b57600080fd5b5061015660048036038101906101519190610679565b6102b3565b60405161016391906107d7565b60405180910390f35b34801561017857600080fd5b50610193600480360381019061018e91906106a6565b61038e565b005b61019e8161045f565b50565b60036020528060005260406000206000915090505481565b600181815481106101c957600080fd5b90600052602060002090600302016000915090508060000160009054906101000a900473ffffffffffffffffffffffffffffffffffffffff169080600101805461021290610938565b80601f016020809104026020016040519081016040528092919081815260200182805461023e90610938565b801561028b5780601f106102605761010080835404028352916020019161028b565b820191906000526020600020905b81548152906001019060200180831161026e57829003601f168201915b5050505050908060020154905083565b60026020528060005260406000206000915090505481565b600080600090505b600180549050811015610382578273ffffffffffffffffffffffffffffffffffffffff16600182815481106102f3576102f2610a42565b5b906000526020600020906003020160000160009054906101000a900473ffffffffffffffffffffffffffffffffffffffff1673ffffffffffffffffffffffffffffffffffffffff16141561036f576001818154811061035557610354610a42565b5b906000526020600020906003020160020154915050610389565b808061037a9061099b565b9150506102bb565b506103e790505b919050565b600160405180606001604052808573ffffffffffffffffffffffffffffffffffffffff16815260200184815260200183815250908060018154018082558091505060019003906000526020600020906003020160009091909190915060008201518160000160006101000a81548173ffffffffffffffffffffffffffffffffffffffff021916908373ffffffffffffffffffffffffffffffffffffffff160217905550602082015181600101908051906020019061044d92919061053c565b50604082015181600201555050505050565b60005b600180549050811015610538578173ffffffffffffffffffffffffffffffffffffffff166001828154811061049a57610499610a42565b5b906000526020600020906003020160000160009054906101000a900473ffffffffffffffffffffffffffffffffffffffff1673ffffffffffffffffffffffffffffffffffffffff1614156105255734600182815481106104fd576104fc610a42565b5b9060005260206000209060030201600201600082825461051d9190610864565b925050819055505b80806105309061099b565b915050610462565b5050565b82805461054890610938565b90600052602060002090601f01602090048101928261056a57600085556105b1565b82601f1061058357805160ff19168380011785556105b1565b828001600101855582156105b1579182015b828111156105b0578251825591602001919060010190610595565b5b5090506105be91906105c2565b5090565b5b808211156105db5760008160009055506001016105c3565b5090565b60006105f26105ed84610817565b6107f2565b90508281526020810184848401111561060e5761060d610aa5565b5b6106198482856108f6565b509392505050565b60008135905061063081610ac5565b92915050565b600082601f83011261064b5761064a610aa0565b5b813561065b8482602086016105df565b91505092915050565b60008135905061067381610adc565b92915050565b60006020828403121561068f5761068e610aaf565b5b600061069d84828501610621565b91505092915050565b6000806000606084860312156106bf576106be610aaf565b5b60006106cd86828701610621565b935050602084013567ffffffffffffffff8111156106ee576106ed610aaa565b5b6106fa86828701610636565b925050604061070b86828701610664565b9150509250925092565b60006020828403121561072b5761072a610aaf565b5b600061073984828501610664565b91505092915050565b61074b816108ba565b82525050565b600061075c82610848565b6107668185610853565b9350610776818560208601610905565b61077f81610ab4565b840191505092915050565b610793816108ec565b82525050565b60006060820190506107ae6000830186610742565b81810360208301526107c08185610751565b90506107cf604083018461078a565b949350505050565b60006020820190506107ec600083018461078a565b92915050565b60006107fc61080d565b9050610808828261096a565b919050565b6000604051905090565b600067ffffffffffffffff82111561083257610831610a71565b5b61083b82610ab4565b9050602081019050919050565b600081519050919050565b600082825260208201905092915050565b600061086f826108ec565b915061087a836108ec565b9250827fffffffffffffffffffffffffffffffffffffffffffffffffffffffffffffffff038211156108af576108ae6109e4565b5b828201905092915050565b60006108c5826108cc565b9050919050565b600073ffffffffffffffffffffffffffffffffffffffff82169050919050565b6000819050919050565b82818337600083830152505050565b60005b83811015610923578082015181840152602081019050610908565b83811115610932576000848401525b50505050565b6000600282049050600182168061095057607f821691505b6020821081141561096457610963610a13565b5b50919050565b61097382610ab4565b810181811067ffffffffffffffff8211171561099257610991610a71565b5b80604052505050565b60006109a6826108ec565b91507fffffffffffffffffffffffffffffffffffffffffffffffffffffffffffffffff8214156109d9576109d86109e4565b5b600182019050919050565b7f4e487b7100000000000000000000000000000000000000000000000000000000600052601160045260246000fd5b7f4e487b7100000000000000000000000000000000000000000000000000000000600052602260045260246000fd5b7f4e487b7100000000000000000000000000000000000000000000000000000000600052603260045260246000fd5b7f4e487b7100000000000000000000000000000000000000000000000000000000600052604160045260246000fd5b600080fd5b600080fd5b600080fd5b600080fd5b6000601f19601f8301169050919050565b610ace816108ba565b8114610ad957600080fd5b50565b610ae5816108ec565b8114610af057600080fd5b5056fea2646970667358221220c623dbe41aa8948e81b06fa47785960196c754a0d6f789aea1de5dfb9ff8067d64736f6c63430008070033",
					"opcodes": "PUSH1 0x80 PUSH1 0x40 MSTORE CALLVALUE DUP1 ISZERO PUSH2 0x10 JUMPI PUSH1 0x0 DUP1 REVERT JUMPDEST POP CALLER PUSH1 0x0 DUP1 PUSH2 0x100 EXP DUP2 SLOAD DUP2 PUSH20 0xFFFFFFFFFFFFFFFFFFFFFFFFFFFFFFFFFFFFFFFF MUL NOT AND SWAP1 DUP4 PUSH20 0xFFFFFFFFFFFFFFFFFFFFFFFFFFFFFFFFFFFFFFFF AND MUL OR SWAP1 SSTORE POP PUSH2 0xB29 DUP1 PUSH2 0x60 PUSH1 0x0 CODECOPY PUSH1 0x0 RETURN INVALID PUSH1 0x80 PUSH1 0x40 MSTORE PUSH1 0x4 CALLDATASIZE LT PUSH2 0x55 JUMPI PUSH1 0x0 CALLDATALOAD PUSH1 0xE0 SHR DUP1 PUSH4 0x1A695230 EQ PUSH2 0x5A JUMPI DUP1 PUSH4 0x2438628C EQ PUSH2 0x76 JUMPI DUP1 PUSH4 0x365B98B2 EQ PUSH2 0xB3 JUMPI DUP1 PUSH4 0x6F7BC9BE EQ PUSH2 0xF2 JUMPI DUP1 PUSH4 0x70A08231 EQ PUSH2 0x12F JUMPI DUP1 PUSH4 0xF0384FB6 EQ PUSH2 0x16C JUMPI JUMPDEST PUSH1 0x0 DUP1 REVERT JUMPDEST PUSH2 0x74 PUSH1 0x4 DUP1 CALLDATASIZE SUB DUP2 ADD SWAP1 PUSH2 0x6F SWAP2 SWAP1 PUSH2 0x679 JUMP JUMPDEST PUSH2 0x195 JUMP JUMPDEST STOP JUMPDEST CALLVALUE DUP1 ISZERO PUSH2 0x82 JUMPI PUSH1 0x0 DUP1 REVERT JUMPDEST POP PUSH2 0x9D PUSH1 0x4 DUP1 CALLDATASIZE SUB DUP2 ADD SWAP1 PUSH2 0x98 SWAP2 SWAP1 PUSH2 0x679 JUMP JUMPDEST PUSH2 0x1A1 JUMP JUMPDEST PUSH1 0x40 MLOAD PUSH2 0xAA SWAP2 SWAP1 PUSH2 0x7D7 JUMP JUMPDEST PUSH1 0x40 MLOAD DUP1 SWAP2 SUB SWAP1 RETURN JUMPDEST CALLVALUE DUP1 ISZERO PUSH2 0xBF JUMPI PUSH1 0x0 DUP1 REVERT JUMPDEST POP PUSH2 0xDA PUSH1 0x4 DUP1 CALLDATASIZE SUB DUP2 ADD SWAP1 PUSH2 0xD5 SWAP2 SWAP1 PUSH2 0x715 JUMP JUMPDEST PUSH2 0x1B9 JUMP JUMPDEST PUSH1 0x40 MLOAD PUSH2 0xE9 SWAP4 SWAP3 SWAP2 SWAP1 PUSH2 0x799 JUMP JUMPDEST PUSH1 0x40 MLOAD DUP1 SWAP2 SUB SWAP1 RETURN JUMPDEST CALLVALUE DUP1 ISZERO PUSH2 0xFE JUMPI PUSH1 0x0 DUP1 REVERT JUMPDEST POP PUSH2 0x119 PUSH1 0x4 DUP1 CALLDATASIZE SUB DUP2 ADD SWAP1 PUSH2 0x114 SWAP2 SWAP1 PUSH2 0x679 JUMP JUMPDEST PUSH2 0x29B JUMP JUMPDEST PUSH1 0x40 MLOAD PUSH2 0x126 SWAP2 SWAP1 PUSH2 0x7D7 JUMP JUMPDEST PUSH1 0x40 MLOAD DUP1 SWAP2 SUB SWAP1 RETURN JUMPDEST CALLVALUE DUP1 ISZERO PUSH2 0x13B JUMPI PUSH1 0x0 DUP1 REVERT JUMPDEST POP PUSH2 0x156 PUSH1 0x4 DUP1 CALLDATASIZE SUB DUP2 ADD SWAP1 PUSH2 0x151 SWAP2 SWAP1 PUSH2 0x679 JUMP JUMPDEST PUSH2 0x2B3 JUMP JUMPDEST PUSH1 0x40 MLOAD PUSH2 0x163 SWAP2 SWAP1 PUSH2 0x7D7 JUMP JUMPDEST PUSH1 0x40 MLOAD DUP1 SWAP2 SUB SWAP1 RETURN JUMPDEST CALLVALUE DUP1 ISZERO PUSH2 0x178 JUMPI PUSH1 0x0 DUP1 REVERT JUMPDEST POP PUSH2 0x193 PUSH1 0x4 DUP1 CALLDATASIZE SUB DUP2 ADD SWAP1 PUSH2 0x18E SWAP2 SWAP1 PUSH2 0x6A6 JUMP JUMPDEST PUSH2 0x38E JUMP JUMPDEST STOP JUMPDEST PUSH2 0x19E DUP2 PUSH2 0x45F JUMP JUMPDEST POP JUMP JUMPDEST PUSH1 0x3 PUSH1 0x20 MSTORE DUP1 PUSH1 0x0 MSTORE PUSH1 0x40 PUSH1 0x0 KECCAK256 PUSH1 0x0 SWAP2 POP SWAP1 POP SLOAD DUP2 JUMP JUMPDEST PUSH1 0x1 DUP2 DUP2 SLOAD DUP2 LT PUSH2 0x1C9 JUMPI PUSH1 0x0 DUP1 REVERT JUMPDEST SWAP1 PUSH1 0x0 MSTORE PUSH1 0x20 PUSH1 0x0 KECCAK256 SWAP1 PUSH1 0x3 MUL ADD PUSH1 0x0 SWAP2 POP SWAP1 POP DUP1 PUSH1 0x0 ADD PUSH1 0x0 SWAP1 SLOAD SWAP1 PUSH2 0x100 EXP SWAP1 DIV PUSH20 0xFFFFFFFFFFFFFFFFFFFFFFFFFFFFFFFFFFFFFFFF AND SWAP1 DUP1 PUSH1 0x1 ADD DUP1 SLOAD PUSH2 0x212 SWAP1 PUSH2 0x938 JUMP JUMPDEST DUP1 PUSH1 0x1F ADD PUSH1 0x20 DUP1 SWAP2 DIV MUL PUSH1 0x20 ADD PUSH1 0x40 MLOAD SWAP1 DUP2 ADD PUSH1 0x40 MSTORE DUP1 SWAP3 SWAP2 SWAP1 DUP2 DUP2 MSTORE PUSH1 0x20 ADD DUP3 DUP1 SLOAD PUSH2 0x23E SWAP1 PUSH2 0x938 JUMP JUMPDEST DUP1 ISZERO PUSH2 0x28B JUMPI DUP1 PUSH1 0x1F LT PUSH2 0x260 JUMPI PUSH2 0x100 DUP1 DUP4 SLOAD DIV MUL DUP4 MSTORE SWAP2 PUSH1 0x20 ADD SWAP2 PUSH2 0x28B JUMP JUMPDEST DUP3 ADD SWAP2 SWAP1 PUSH1 0x0 MSTORE PUSH1 0x20 PUSH1 0x0 KECCAK256 SWAP1 JUMPDEST DUP2 SLOAD DUP2 MSTORE SWAP1 PUSH1 0x1 ADD SWAP1 PUSH1 0x20 ADD DUP1 DUP4 GT PUSH2 0x26E JUMPI DUP3 SWAP1 SUB PUSH1 0x1F AND DUP3 ADD SWAP2 JUMPDEST POP POP POP POP POP SWAP1 DUP1 PUSH1 0x2 ADD SLOAD SWAP1 POP DUP4 JUMP JUMPDEST PUSH1 0x2 PUSH1 0x20 MSTORE DUP1 PUSH1 0x0 MSTORE PUSH1 0x40 PUSH1 0x0 KECCAK256 PUSH1 0x0 SWAP2 POP SWAP1 POP SLOAD DUP2 JUMP JUMPDEST PUSH1 0x0 DUP1 PUSH1 0x0 SWAP1 POP JUMPDEST PUSH1 0x1 DUP1 SLOAD SWAP1 POP DUP2 LT ISZERO PUSH2 0x382 JUMPI DUP3 PUSH20 0xFFFFFFFFFFFFFFFFFFFFFFFFFFFFFFFFFFFFFFFF AND PUSH1 0x1 DUP3 DUP2 SLOAD DUP2 LT PUSH2 0x2F3 JUMPI PUSH2 0x2F2 PUSH2 0xA42 JUMP JUMPDEST JUMPDEST SWAP1 PUSH1 0x0 MSTORE PUSH1 0x20 PUSH1 0x0 KECCAK256 SWAP1 PUSH1 0x3 MUL ADD PUSH1 0x0 ADD PUSH1 0x0 SWAP1 SLOAD SWAP1 PUSH2 0x100 EXP SWAP1 DIV PUSH20 0xFFFFFFFFFFFFFFFFFFFFFFFFFFFFFFFFFFFFFFFF AND PUSH20 0xFFFFFFFFFFFFFFFFFFFFFFFFFFFFFFFFFFFFFFFF AND EQ ISZERO PUSH2 0x36F JUMPI PUSH1 0x1 DUP2 DUP2 SLOAD DUP2 LT PUSH2 0x355 JUMPI PUSH2 0x354 PUSH2 0xA42 JUMP JUMPDEST JUMPDEST SWAP1 PUSH1 0x0 MSTORE PUSH1 0x20 PUSH1 0x0 KECCAK256 SWAP1 PUSH1 0x3 MUL ADD PUSH1 0x2 ADD SLOAD SWAP2 POP POP PUSH2 0x389 JUMP JUMPDEST DUP1 DUP1 PUSH2 0x37A SWAP1 PUSH2 0x99B JUMP JUMPDEST SWAP2 POP POP PUSH2 0x2BB JUMP JUMPDEST POP PUSH2 0x3E7 SWAP1 POP JUMPDEST SWAP2 SWAP1 POP JUMP JUMPDEST PUSH1 0x1 PUSH1 0x40 MLOAD DUP1 PUSH1 0x60 ADD PUSH1 0x40 MSTORE DUP1 DUP6 PUSH20 0xFFFFFFFFFFFFFFFFFFFFFFFFFFFFFFFFFFFFFFFF AND DUP2 MSTORE PUSH1 0x20 ADD DUP5 DUP2 MSTORE PUSH1 0x20 ADD DUP4 DUP2 MSTORE POP SWAP1 DUP1 PUSH1 0x1 DUP2 SLOAD ADD DUP1 DUP3 SSTORE DUP1 SWAP2 POP POP PUSH1 0x1 SWAP1 SUB SWAP1 PUSH1 0x0 MSTORE PUSH1 0x20 PUSH1 0x0 KECCAK256 SWAP1 PUSH1 0x3 MUL ADD PUSH1 0x0 SWAP1 SWAP2 SWAP1 SWAP2 SWAP1 SWAP2 POP PUSH1 0x0 DUP3 ADD MLOAD DUP2 PUSH1 0x0 ADD PUSH1 0x0 PUSH2 0x100 EXP DUP2 SLOAD DUP2 PUSH20 0xFFFFFFFFFFFFFFFFFFFFFFFFFFFFFFFFFFFFFFFF MUL NOT AND SWAP1 DUP4 PUSH20 0xFFFFFFFFFFFFFFFFFFFFFFFFFFFFFFFFFFFFFFFF AND MUL OR SWAP1 SSTORE POP PUSH1 0x20 DUP3 ADD MLOAD DUP2 PUSH1 0x1 ADD SWAP1 DUP1 MLOAD SWAP1 PUSH1 0x20 ADD SWAP1 PUSH2 0x44D SWAP3 SWAP2 SWAP1 PUSH2 0x53C JUMP JUMPDEST POP PUSH1 0x40 DUP3 ADD MLOAD DUP2 PUSH1 0x2 ADD SSTORE POP POP POP POP POP JUMP JUMPDEST PUSH1 0x0 JUMPDEST PUSH1 0x1 DUP1 SLOAD SWAP1 POP DUP2 LT ISZERO PUSH2 0x538 JUMPI DUP2 PUSH20 0xFFFFFFFFFFFFFFFFFFFFFFFFFFFFFFFFFFFFFFFF AND PUSH1 0x1 DUP3 DUP2 SLOAD DUP2 LT PUSH2 0x49A JUMPI PUSH2 0x499 PUSH2 0xA42 JUMP JUMPDEST JUMPDEST SWAP1 PUSH1 0x0 MSTORE PUSH1 0x20 PUSH1 0x0 KECCAK256 SWAP1 PUSH1 0x3 MUL ADD PUSH1 0x0 ADD PUSH1 0x0 SWAP1 SLOAD SWAP1 PUSH2 0x100 EXP SWAP1 DIV PUSH20 0xFFFFFFFFFFFFFFFFFFFFFFFFFFFFFFFFFFFFFFFF AND PUSH20 0xFFFFFFFFFFFFFFFFFFFFFFFFFFFFFFFFFFFFFFFF AND EQ ISZERO PUSH2 0x525 JUMPI CALLVALUE PUSH1 0x1 DUP3 DUP2 SLOAD DUP2 LT PUSH2 0x4FD JUMPI PUSH2 0x4FC PUSH2 0xA42 JUMP JUMPDEST JUMPDEST SWAP1 PUSH1 0x0 MSTORE PUSH1 0x20 PUSH1 0x0 KECCAK256 SWAP1 PUSH1 0x3 MUL ADD PUSH1 0x2 ADD PUSH1 0x0 DUP3 DUP3 SLOAD PUSH2 0x51D SWAP2 SWAP1 PUSH2 0x864 JUMP JUMPDEST SWAP3 POP POP DUP2 SWAP1 SSTORE POP JUMPDEST DUP1 DUP1 PUSH2 0x530 SWAP1 PUSH2 0x99B JUMP JUMPDEST SWAP2 POP POP PUSH2 0x462 JUMP JUMPDEST POP POP JUMP JUMPDEST DUP3 DUP1 SLOAD PUSH2 0x548 SWAP1 PUSH2 0x938 JUMP JUMPDEST SWAP1 PUSH1 0x0 MSTORE PUSH1 0x20 PUSH1 0x0 KECCAK256 SWAP1 PUSH1 0x1F ADD PUSH1 0x20 SWAP1 DIV DUP2 ADD SWAP3 DUP3 PUSH2 0x56A JUMPI PUSH1 0x0 DUP6 SSTORE PUSH2 0x5B1 JUMP JUMPDEST DUP3 PUSH1 0x1F LT PUSH2 0x583 JUMPI DUP1 MLOAD PUSH1 0xFF NOT AND DUP4 DUP1 ADD OR DUP6 SSTORE PUSH2 0x5B1 JUMP JUMPDEST DUP3 DUP1 ADD PUSH1 0x1 ADD DUP6 SSTORE DUP3 ISZERO PUSH2 0x5B1 JUMPI SWAP2 DUP3 ADD JUMPDEST DUP3 DUP2 GT ISZERO PUSH2 0x5B0 JUMPI DUP3 MLOAD DUP3 SSTORE SWAP2 PUSH1 0x20 ADD SWAP2 SWAP1 PUSH1 0x1 ADD SWAP1 PUSH2 0x595 JUMP JUMPDEST JUMPDEST POP SWAP1 POP PUSH2 0x5BE SWAP2 SWAP1 PUSH2 0x5C2 JUMP JUMPDEST POP SWAP1 JUMP JUMPDEST JUMPDEST DUP1 DUP3 GT ISZERO PUSH2 0x5DB JUMPI PUSH1 0x0 DUP2 PUSH1 0x0 SWAP1 SSTORE POP PUSH1 0x1 ADD PUSH2 0x5C3 JUMP JUMPDEST POP SWAP1 JUMP JUMPDEST PUSH1 0x0 PUSH2 0x5F2 PUSH2 0x5ED DUP5 PUSH2 0x817 JUMP JUMPDEST PUSH2 0x7F2 JUMP JUMPDEST SWAP1 POP DUP3 DUP2 MSTORE PUSH1 0x20 DUP2 ADD DUP5 DUP5 DUP5 ADD GT ISZERO PUSH2 0x60E JUMPI PUSH2 0x60D PUSH2 0xAA5 JUMP JUMPDEST JUMPDEST PUSH2 0x619 DUP5 DUP3 DUP6 PUSH2 0x8F6 JUMP JUMPDEST POP SWAP4 SWAP3 POP POP POP JUMP JUMPDEST PUSH1 0x0 DUP2 CALLDATALOAD SWAP1 POP PUSH2 0x630 DUP2 PUSH2 0xAC5 JUMP JUMPDEST SWAP3 SWAP2 POP POP JUMP JUMPDEST PUSH1 0x0 DUP3 PUSH1 0x1F DUP4 ADD SLT PUSH2 0x64B JUMPI PUSH2 0x64A PUSH2 0xAA0 JUMP JUMPDEST JUMPDEST DUP2 CALLDATALOAD PUSH2 0x65B DUP5 DUP3 PUSH1 0x20 DUP7 ADD PUSH2 0x5DF JUMP JUMPDEST SWAP2 POP POP SWAP3 SWAP2 POP POP JUMP JUMPDEST PUSH1 0x0 DUP2 CALLDATALOAD SWAP1 POP PUSH2 0x673 DUP2 PUSH2 0xADC JUMP JUMPDEST SWAP3 SWAP2 POP POP JUMP JUMPDEST PUSH1 0x0 PUSH1 0x20 DUP3 DUP5 SUB SLT ISZERO PUSH2 0x68F JUMPI PUSH2 0x68E PUSH2 0xAAF JUMP JUMPDEST JUMPDEST PUSH1 0x0 PUSH2 0x69D DUP5 DUP3 DUP6 ADD PUSH2 0x621 JUMP JUMPDEST SWAP2 POP POP SWAP3 SWAP2 POP POP JUMP JUMPDEST PUSH1 0x0 DUP1 PUSH1 0x0 PUSH1 0x60 DUP5 DUP7 SUB SLT ISZERO PUSH2 0x6BF JUMPI PUSH2 0x6BE PUSH2 0xAAF JUMP JUMPDEST JUMPDEST PUSH1 0x0 PUSH2 0x6CD DUP7 DUP3 DUP8 ADD PUSH2 0x621 JUMP JUMPDEST SWAP4 POP POP PUSH1 0x20 DUP5 ADD CALLDATALOAD PUSH8 0xFFFFFFFFFFFFFFFF DUP2 GT ISZERO PUSH2 0x6EE JUMPI PUSH2 0x6ED PUSH2 0xAAA JUMP JUMPDEST JUMPDEST PUSH2 0x6FA DUP7 DUP3 DUP8 ADD PUSH2 0x636 JUMP JUMPDEST SWAP3 POP POP PUSH1 0x40 PUSH2 0x70B DUP7 DUP3 DUP8 ADD PUSH2 0x664 JUMP JUMPDEST SWAP2 POP POP SWAP3 POP SWAP3 POP SWAP3 JUMP JUMPDEST PUSH1 0x0 PUSH1 0x20 DUP3 DUP5 SUB SLT ISZERO PUSH2 0x72B JUMPI PUSH2 0x72A PUSH2 0xAAF JUMP JUMPDEST JUMPDEST PUSH1 0x0 PUSH2 0x739 DUP5 DUP3 DUP6 ADD PUSH2 0x664 JUMP JUMPDEST SWAP2 POP POP SWAP3 SWAP2 POP POP JUMP JUMPDEST PUSH2 0x74B DUP2 PUSH2 0x8BA JUMP JUMPDEST DUP3 MSTORE POP POP JUMP JUMPDEST PUSH1 0x0 PUSH2 0x75C DUP3 PUSH2 0x848 JUMP JUMPDEST PUSH2 0x766 DUP2 DUP6 PUSH2 0x853 JUMP JUMPDEST SWAP4 POP PUSH2 0x776 DUP2 DUP6 PUSH1 0x20 DUP7 ADD PUSH2 0x905 JUMP JUMPDEST PUSH2 0x77F DUP2 PUSH2 0xAB4 JUMP JUMPDEST DUP5 ADD SWAP2 POP POP SWAP3 SWAP2 POP POP JUMP JUMPDEST PUSH2 0x793 DUP2 PUSH2 0x8EC JUMP JUMPDEST DUP3 MSTORE POP POP JUMP JUMPDEST PUSH1 0x0 PUSH1 0x60 DUP3 ADD SWAP1 POP PUSH2 0x7AE PUSH1 0x0 DUP4 ADD DUP7 PUSH2 0x742 JUMP JUMPDEST DUP2 DUP2 SUB PUSH1 0x20 DUP4 ADD MSTORE PUSH2 0x7C0 DUP2 DUP6 PUSH2 0x751 JUMP JUMPDEST SWAP1 POP PUSH2 0x7CF PUSH1 0x40 DUP4 ADD DUP5 PUSH2 0x78A JUMP JUMPDEST SWAP5 SWAP4 POP POP POP POP JUMP JUMPDEST PUSH1 0x0 PUSH1 0x20 DUP3 ADD SWAP1 POP PUSH2 0x7EC PUSH1 0x0 DUP4 ADD DUP5 PUSH2 0x78A JUMP JUMPDEST SWAP3 SWAP2 POP POP JUMP JUMPDEST PUSH1 0x0 PUSH2 0x7FC PUSH2 0x80D JUMP JUMPDEST SWAP1 POP PUSH2 0x808 DUP3 DUP3 PUSH2 0x96A JUMP JUMPDEST SWAP2 SWAP1 POP JUMP JUMPDEST PUSH1 0x0 PUSH1 0x40 MLOAD SWAP1 POP SWAP1 JUMP JUMPDEST PUSH1 0x0 PUSH8 0xFFFFFFFFFFFFFFFF DUP3 GT ISZERO PUSH2 0x832 JUMPI PUSH2 0x831 PUSH2 0xA71 JUMP JUMPDEST JUMPDEST PUSH2 0x83B DUP3 PUSH2 0xAB4 JUMP JUMPDEST SWAP1 POP PUSH1 0x20 DUP2 ADD SWAP1 POP SWAP2 SWAP1 POP JUMP JUMPDEST PUSH1 0x0 DUP2 MLOAD SWAP1 POP SWAP2 SWAP1 POP JUMP JUMPDEST PUSH1 0x0 DUP3 DUP3 MSTORE PUSH1 0x20 DUP3 ADD SWAP1 POP SWAP3 SWAP2 POP POP JUMP JUMPDEST PUSH1 0x0 PUSH2 0x86F DUP3 PUSH2 0x8EC JUMP JUMPDEST SWAP2 POP PUSH2 0x87A DUP4 PUSH2 0x8EC JUMP JUMPDEST SWAP3 POP DUP3 PUSH32 0xFFFFFFFFFFFFFFFFFFFFFFFFFFFFFFFFFFFFFFFFFFFFFFFFFFFFFFFFFFFFFFFF SUB DUP3 GT ISZERO PUSH2 0x8AF JUMPI PUSH2 0x8AE PUSH2 0x9E4 JUMP JUMPDEST JUMPDEST DUP3 DUP3 ADD SWAP1 POP SWAP3 SWAP2 POP POP JUMP JUMPDEST PUSH1 0x0 PUSH2 0x8C5 DUP3 PUSH2 0x8CC JUMP JUMPDEST SWAP1 POP SWAP2 SWAP1 POP JUMP JUMPDEST PUSH1 0x0 PUSH20 0xFFFFFFFFFFFFFFFFFFFFFFFFFFFFFFFFFFFFFFFF DUP3 AND SWAP1 POP SWAP2 SWAP1 POP JUMP JUMPDEST PUSH1 0x0 DUP2 SWAP1 POP SWAP2 SWAP1 POP JUMP JUMPDEST DUP3 DUP2 DUP4 CALLDATACOPY PUSH1 0x0 DUP4 DUP4 ADD MSTORE POP POP POP JUMP JUMPDEST PUSH1 0x0 JUMPDEST DUP4 DUP2 LT ISZERO PUSH2 0x923 JUMPI DUP1 DUP3 ADD MLOAD DUP2 DUP5 ADD MSTORE PUSH1 0x20 DUP2 ADD SWAP1 POP PUSH2 0x908 JUMP JUMPDEST DUP4 DUP2 GT ISZERO PUSH2 0x932 JUMPI PUSH1 0x0 DUP5 DUP5 ADD MSTORE JUMPDEST POP POP POP POP JUMP JUMPDEST PUSH1 0x0 PUSH1 0x2 DUP3 DIV SWAP1 POP PUSH1 0x1 DUP3 AND DUP1 PUSH2 0x950 JUMPI PUSH1 0x7F DUP3 AND SWAP2 POP JUMPDEST PUSH1 0x20 DUP3 LT DUP2 EQ ISZERO PUSH2 0x964 JUMPI PUSH2 0x963 PUSH2 0xA13 JUMP JUMPDEST JUMPDEST POP SWAP2 SWAP1 POP JUMP JUMPDEST PUSH2 0x973 DUP3 PUSH2 0xAB4 JUMP JUMPDEST DUP2 ADD DUP2 DUP2 LT PUSH8 0xFFFFFFFFFFFFFFFF DUP3 GT OR ISZERO PUSH2 0x992 JUMPI PUSH2 0x991 PUSH2 0xA71 JUMP JUMPDEST JUMPDEST DUP1 PUSH1 0x40 MSTORE POP POP POP JUMP JUMPDEST PUSH1 0x0 PUSH2 0x9A6 DUP3 PUSH2 0x8EC JUMP JUMPDEST SWAP2 POP PUSH32 0xFFFFFFFFFFFFFFFFFFFFFFFFFFFFFFFFFFFFFFFFFFFFFFFFFFFFFFFFFFFFFFFF DUP3 EQ ISZERO PUSH2 0x9D9 JUMPI PUSH2 0x9D8 PUSH2 0x9E4 JUMP JUMPDEST JUMPDEST PUSH1 0x1 DUP3 ADD SWAP1 POP SWAP2 SWAP1 POP JUMP JUMPDEST PUSH32 0x4E487B7100000000000000000000000000000000000000000000000000000000 PUSH1 0x0 MSTORE PUSH1 0x11 PUSH1 0x4 MSTORE PUSH1 0x24 PUSH1 0x0 REVERT JUMPDEST PUSH32 0x4E487B7100000000000000000000000000000000000000000000000000000000 PUSH1 0x0 MSTORE PUSH1 0x22 PUSH1 0x4 MSTORE PUSH1 0x24 PUSH1 0x0 REVERT JUMPDEST PUSH32 0x4E487B7100000000000000000000000000000000000000000000000000000000 PUSH1 0x0 MSTORE PUSH1 0x32 PUSH1 0x4 MSTORE PUSH1 0x24 PUSH1 0x0 REVERT JUMPDEST PUSH32 0x4E487B7100000000000000000000000000000000000000000000000000000000 PUSH1 0x0 MSTORE PUSH1 0x41 PUSH1 0x4 MSTORE PUSH1 0x24 PUSH1 0x0 REVERT JUMPDEST PUSH1 0x0 DUP1 REVERT JUMPDEST PUSH1 0x0 DUP1 REVERT JUMPDEST PUSH1 0x0 DUP1 REVERT JUMPDEST PUSH1 0x0 DUP1 REVERT JUMPDEST PUSH1 0x0 PUSH1 0x1F NOT PUSH1 0x1F DUP4 ADD AND SWAP1 POP SWAP2 SWAP1 POP JUMP JUMPDEST PUSH2 0xACE DUP2 PUSH2 0x8BA JUMP JUMPDEST DUP2 EQ PUSH2 0xAD9 JUMPI PUSH1 0x0 DUP1 REVERT JUMPDEST POP JUMP JUMPDEST PUSH2 0xAE5 DUP2 PUSH2 0x8EC JUMP JUMPDEST DUP2 EQ PUSH2 0xAF0 JUMPI PUSH1 0x0 DUP1 REVERT JUMPDEST POP JUMP INVALID LOG2 PUSH5 0x6970667358 0x22 SLT KECCAK256 0xC6 0x23 0xDB 0xE4 BYTE 0xA8 SWAP5 DUP15 DUP2 0xB0 PUSH16 0xA47785960196C754A0D6F789AEA1DE5D 0xFB SWAP16 0xF8 MOD PUSH30 0x64736F6C6343000807003300000000000000000000000000000000000000 "
				},
				"gasEstimates": {
					"creation": {
						"codeDepositCost": "571400",
						"executionCost": "24872",
						"totalCost": "596272"
					},
					"external": {
						"addUser(address,string,uint256)": "infinite",
						"balanceOf(address)": "infinite",
						"investors(address)": "2858",
						"kids(address)": "2814",
						"transfer(address)": "infinite",
						"users(uint256)": "infinite"
					},
					"internal": {
						"transferToAddress(address)": "infinite"
					}
				},
				"methodIdentifiers": {
					"addUser(address,string,uint256)": "f0384fb6",
					"balanceOf(address)": "70a08231",
					"investors(address)": "6f7bc9be",
					"kids(address)": "2438628c",
					"transfer(address)": "1a695230",
					"users(uint256)": "365b98b2"
				}
			},
			"storageLayout": {
				"storage": [
					{
						"astId": 3,
						"contract": "contracts/Test1.sol:Test1",
						"label": "owner",
						"offset": 0,
						"slot": "0",
						"type": "t_address"
					},
					{
						"astId": 23,
						"contract": "contracts/Test1.sol:Test1",
						"label": "users",
						"offset": 0,
						"slot": "1",
						"type": "t_array(t_struct(User)19_storage)dyn_storage"
					},
					{
						"astId": 27,
						"contract": "contracts/Test1.sol:Test1",
						"label": "investors",
						"offset": 0,
						"slot": "2",
						"type": "t_mapping(t_address,t_uint256)"
					},
					{
						"astId": 31,
						"contract": "contracts/Test1.sol:Test1",
						"label": "kids",
						"offset": 0,
						"slot": "3",
						"type": "t_mapping(t_address,t_uint256)"
					}
				],
				"types": {
					"t_address": {
						"encoding": "inplace",
						"label": "address",
						"numberOfBytes": "20"
					},
					"t_array(t_struct(User)19_storage)dyn_storage": {
						"base": "t_struct(User)19_storage",
						"encoding": "dynamic_array",
						"label": "struct Test1.User[]",
						"numberOfBytes": "32"
					},
					"t_mapping(t_address,t_uint256)": {
						"encoding": "mapping",
						"key": "t_address",
						"label": "mapping(address => uint256)",
						"numberOfBytes": "32",
						"value": "t_uint256"
					},
					"t_string_storage": {
						"encoding": "bytes",
						"label": "string",
						"numberOfBytes": "32"
					},
					"t_struct(User)19_storage": {
						"encoding": "inplace",
						"label": "struct Test1.User",
						"members": [
							{
								"astId": 14,
								"contract": "contracts/Test1.sol:Test1",
								"label": "walletAddress",
								"offset": 0,
								"slot": "0",
								"type": "t_address"
							},
							{
								"astId": 16,
								"contract": "contracts/Test1.sol:Test1",
								"label": "name",
								"offset": 0,
								"slot": "1",
								"type": "t_string_storage"
							},
							{
								"astId": 18,
								"contract": "contracts/Test1.sol:Test1",
								"label": "amount",
								"offset": 0,
								"slot": "2",
								"type": "t_uint256"
							}
						],
						"numberOfBytes": "96"
					},
					"t_uint256": {
						"encoding": "inplace",
						"label": "uint256",
						"numberOfBytes": "32"
					}
				}
			},
			"userdoc": {
				"kind": "user",
				"methods": {},
				"version": 1
			}
		}
	}
}