{
	"contracts/Test1.sol": {
		"Test1": {
			"abi": [
				{
					"inputs": [],
					"stateMutability": "nonpayable",
					"type": "constructor"
				},
				{
					"inputs": [
						{
							"internalType": "address",
							"name": "walletAddress",
							"type": "address"
						}
					],
					"name": "addToInvestors",
					"outputs": [],
					"stateMutability": "nonpayable",
					"type": "function"
				},
				{
					"inputs": [
						{
							"internalType": "address",
							"name": "walletAddress",
							"type": "address"
						},
						{
							"internalType": "string",
							"name": "name",
							"type": "string"
						},
						{
							"internalType": "uint256",
							"name": "amount",
							"type": "uint256"
						},
						{
							"internalType": "bool",
							"name": "isInvestor",
							"type": "bool"
						}
					],
					"name": "addUser",
					"outputs": [],
					"stateMutability": "nonpayable",
					"type": "function"
				},
				{
					"inputs": [
						{
							"internalType": "address",
							"name": "walletAddress",
							"type": "address"
						}
					],
					"name": "balanceOf",
					"outputs": [
						{
							"internalType": "uint256",
							"name": "",
							"type": "uint256"
						}
					],
					"stateMutability": "view",
					"type": "function"
				},
				{
					"inputs": [
						{
							"internalType": "address",
							"name": "walletAddress",
							"type": "address"
						}
					],
					"name": "getUserByAddress",
					"outputs": [
						{
							"components": [
								{
									"internalType": "address",
									"name": "walletAddress",
									"type": "address"
								},
								{
									"internalType": "string",
									"name": "name",
									"type": "string"
								},
								{
									"internalType": "uint256",
									"name": "amount",
									"type": "uint256"
								},
								{
									"internalType": "bool",
									"name": "isInvestor",
									"type": "bool"
								}
							],
							"internalType": "struct Test1.User",
							"name": "user",
							"type": "tuple"
						}
					],
					"stateMutability": "nonpayable",
					"type": "function"
				},
				{
					"inputs": [
						{
							"internalType": "address",
							"name": "walletAddress",
							"type": "address"
						}
					],
					"name": "investorPermission",
					"outputs": [
						{
							"internalType": "bool",
							"name": "",
							"type": "bool"
						}
					],
					"stateMutability": "nonpayable",
					"type": "function"
				},
				{
					"inputs": [
						{
							"internalType": "address",
							"name": "",
							"type": "address"
						}
					],
					"name": "investors",
					"outputs": [
						{
							"internalType": "address",
							"name": "walletAddress",
							"type": "address"
						},
						{
							"internalType": "string",
							"name": "name",
							"type": "string"
						},
						{
							"internalType": "uint256",
							"name": "amount",
							"type": "uint256"
						},
						{
							"internalType": "bool",
							"name": "isInvestor",
							"type": "bool"
						}
					],
					"stateMutability": "view",
					"type": "function"
				},
				{
					"inputs": [
						{
							"internalType": "address",
							"name": "walletAddress",
							"type": "address"
						}
					],
					"name": "transfer",
					"outputs": [],
					"stateMutability": "payable",
					"type": "function"
				},
				{
					"inputs": [
						{
							"internalType": "address",
							"name": "walletAddress",
							"type": "address"
						}
					],
					"name": "userExists",
					"outputs": [
						{
							"internalType": "bool",
							"name": "",
							"type": "bool"
						}
					],
					"stateMutability": "view",
					"type": "function"
				},
				{
					"inputs": [
						{
							"internalType": "uint256",
							"name": "",
							"type": "uint256"
						}
					],
					"name": "users",
					"outputs": [
						{
							"internalType": "address",
							"name": "walletAddress",
							"type": "address"
						},
						{
							"internalType": "string",
							"name": "name",
							"type": "string"
						},
						{
							"internalType": "uint256",
							"name": "amount",
							"type": "uint256"
						},
						{
							"internalType": "bool",
							"name": "isInvestor",
							"type": "bool"
						}
					],
					"stateMutability": "view",
					"type": "function"
				}
			],
			"devdoc": {
				"kind": "dev",
				"methods": {},
				"version": 1
			},
			"evm": {
				"assembly": "    /* \"contracts/Test1.sol\":65:2565  contract Test1{... */\n  mstore(0x40, 0x80)\n    /* \"contracts/Test1.sol\":106:154  constructor(){... */\n  callvalue\n  dup1\n  iszero\n  tag_1\n  jumpi\n  0x00\n  dup1\n  revert\ntag_1:\n  pop\n    /* \"contracts/Test1.sol\":137:147  msg.sender */\n  caller\n    /* \"contracts/Test1.sol\":129:134  owner */\n  0x00\n  dup1\n    /* \"contracts/Test1.sol\":129:147  owner = msg.sender */\n  0x0100\n  exp\n  dup2\n  sload\n  dup2\n  0xffffffffffffffffffffffffffffffffffffffff\n  mul\n  not\n  and\n  swap1\n  dup4\n  0xffffffffffffffffffffffffffffffffffffffff\n  and\n  mul\n  or\n  swap1\n  sstore\n  pop\n    /* \"contracts/Test1.sol\":65:2565  contract Test1{... */\n  dataSize(sub_0)\n  dup1\n  dataOffset(sub_0)\n  0x00\n  codecopy\n  0x00\n  return\nstop\n\nsub_0: assembly {\n        /* \"contracts/Test1.sol\":65:2565  contract Test1{... */\n      mstore(0x40, 0x80)\n      jumpi(tag_1, lt(calldatasize, 0x04))\n      shr(0xe0, calldataload(0x00))\n      dup1\n      0x4140eb0d\n      gt\n      tag_11\n      jumpi\n      dup1\n      0x4140eb0d\n      eq\n      tag_6\n      jumpi\n      dup1\n      0x69c212f6\n      eq\n      tag_7\n      jumpi\n      dup1\n      0x6f7bc9be\n      eq\n      tag_8\n      jumpi\n      dup1\n      0x70a08231\n      eq\n      tag_9\n      jumpi\n      dup1\n      0xd7bed4bc\n      eq\n      tag_10\n      jumpi\n      jump(tag_1)\n    tag_11:\n      dup1\n      0x0e666e49\n      eq\n      tag_2\n      jumpi\n      dup1\n      0x1a695230\n      eq\n      tag_3\n      jumpi\n      dup1\n      0x280879e7\n      eq\n      tag_4\n      jumpi\n      dup1\n      0x365b98b2\n      eq\n      tag_5\n      jumpi\n    tag_1:\n      0x00\n      dup1\n      revert\n        /* \"contracts/Test1.sol\":1678:1933  function userExists(address walletAddress) public view returns(bool){... */\n    tag_2:\n      callvalue\n      dup1\n      iszero\n      tag_12\n      jumpi\n      0x00\n      dup1\n      revert\n    tag_12:\n      pop\n      tag_13\n      0x04\n      dup1\n      calldatasize\n      sub\n      dup2\n      add\n      swap1\n      tag_14\n      swap2\n      swap1\n      tag_15\n      jump\t// in\n    tag_14:\n      tag_16\n      jump\t// in\n    tag_13:\n      mload(0x40)\n      tag_17\n      swap2\n      swap1\n      tag_18\n      jump\t// in\n    tag_17:\n      mload(0x40)\n      dup1\n      swap2\n      sub\n      swap1\n      return\n        /* \"contracts/Test1.sol\":1939:2044  function transfer(address walletAddress) payable public {... */\n    tag_3:\n      tag_19\n      0x04\n      dup1\n      calldatasize\n      sub\n      dup2\n      add\n      swap1\n      tag_20\n      swap2\n      swap1\n      tag_15\n      jump\t// in\n    tag_20:\n      tag_21\n      jump\t// in\n    tag_19:\n      stop\n        /* \"contracts/Test1.sol\":691:871  function addUser(address walletAddress, string memory name, uint amount, bool isInvestor) public onlyOwner{... */\n    tag_4:\n      callvalue\n      dup1\n      iszero\n      tag_22\n      jumpi\n      0x00\n      dup1\n      revert\n    tag_22:\n      pop\n      tag_23\n      0x04\n      dup1\n      calldatasize\n      sub\n      dup2\n      add\n      swap1\n      tag_24\n      swap2\n      swap1\n      tag_25\n      jump\t// in\n    tag_24:\n      tag_26\n      jump\t// in\n    tag_23:\n      stop\n        /* \"contracts/Test1.sol\":618:637  User[] public users */\n    tag_5:\n      callvalue\n      dup1\n      iszero\n      tag_27\n      jumpi\n      0x00\n      dup1\n      revert\n    tag_27:\n      pop\n      tag_28\n      0x04\n      dup1\n      calldatasize\n      sub\n      dup2\n      add\n      swap1\n      tag_29\n      swap2\n      swap1\n      tag_30\n      jump\t// in\n    tag_29:\n      tag_31\n      jump\t// in\n    tag_28:\n      mload(0x40)\n      tag_32\n      swap5\n      swap4\n      swap3\n      swap2\n      swap1\n      tag_33\n      jump\t// in\n    tag_32:\n      mload(0x40)\n      dup1\n      swap2\n      sub\n      swap1\n      return\n        /* \"contracts/Test1.sol\":1502:1672  function investorPermission(address walletAddress) public returns(bool){... */\n    tag_6:\n      callvalue\n      dup1\n      iszero\n      tag_34\n      jumpi\n      0x00\n      dup1\n      revert\n    tag_34:\n      pop\n      tag_35\n      0x04\n      dup1\n      calldatasize\n      sub\n      dup2\n      add\n      swap1\n      tag_36\n      swap2\n      swap1\n      tag_15\n      jump\t// in\n    tag_36:\n      tag_37\n      jump\t// in\n    tag_35:\n      mload(0x40)\n      tag_38\n      swap2\n      swap1\n      tag_18\n      jump\t// in\n    tag_38:\n      mload(0x40)\n      dup1\n      swap2\n      sub\n      swap1\n      return\n        /* \"contracts/Test1.sol\":1160:1496  function getUserByAddress(address walletAddress) public returns(User memory user){... */\n    tag_7:\n      callvalue\n      dup1\n      iszero\n      tag_39\n      jumpi\n      0x00\n      dup1\n      revert\n    tag_39:\n      pop\n      tag_40\n      0x04\n      dup1\n      calldatasize\n      sub\n      dup2\n      add\n      swap1\n      tag_41\n      swap2\n      swap1\n      tag_15\n      jump\t// in\n    tag_41:\n      tag_42\n      jump\t// in\n    tag_40:\n      mload(0x40)\n      tag_43\n      swap2\n      swap1\n      tag_44\n      jump\t// in\n    tag_43:\n      mload(0x40)\n      dup1\n      swap2\n      sub\n      swap1\n      return\n        /* \"contracts/Test1.sol\":643:684  mapping(address => User) public investors */\n    tag_8:\n      callvalue\n      dup1\n      iszero\n      tag_45\n      jumpi\n      0x00\n      dup1\n      revert\n    tag_45:\n      pop\n      tag_46\n      0x04\n      dup1\n      calldatasize\n      sub\n      dup2\n      add\n      swap1\n      tag_47\n      swap2\n      swap1\n      tag_15\n      jump\t// in\n    tag_47:\n      tag_48\n      jump\t// in\n    tag_46:\n      mload(0x40)\n      tag_49\n      swap5\n      swap4\n      swap3\n      swap2\n      swap1\n      tag_33\n      jump\t// in\n    tag_49:\n      mload(0x40)\n      dup1\n      swap2\n      sub\n      swap1\n      return\n        /* \"contracts/Test1.sol\":2296:2559  function balanceOf(address walletAddress) public view returns(uint){... */\n    tag_9:\n      callvalue\n      dup1\n      iszero\n      tag_50\n      jumpi\n      0x00\n      dup1\n      revert\n    tag_50:\n      pop\n      tag_51\n      0x04\n      dup1\n      calldatasize\n      sub\n      dup2\n      add\n      swap1\n      tag_52\n      swap2\n      swap1\n      tag_15\n      jump\t// in\n    tag_52:\n      tag_53\n      jump\t// in\n    tag_51:\n      mload(0x40)\n      tag_54\n      swap2\n      swap1\n      tag_55\n      jump\t// in\n    tag_54:\n      mload(0x40)\n      dup1\n      swap2\n      sub\n      swap1\n      return\n        /* \"contracts/Test1.sol\":877:1154  function addToInvestors(address walletAddress) public onlyOwner{... */\n    tag_10:\n      callvalue\n      dup1\n      iszero\n      tag_56\n      jumpi\n      0x00\n      dup1\n      revert\n    tag_56:\n      pop\n      tag_57\n      0x04\n      dup1\n      calldatasize\n      sub\n      dup2\n      add\n      swap1\n      tag_58\n      swap2\n      swap1\n      tag_15\n      jump\t// in\n    tag_58:\n      tag_59\n      jump\t// in\n    tag_57:\n      stop\n        /* \"contracts/Test1.sol\":1678:1933  function userExists(address walletAddress) public view returns(bool){... */\n    tag_16:\n        /* \"contracts/Test1.sol\":1741:1745  bool */\n      0x00\n        /* \"contracts/Test1.sol\":1760:1766  uint i */\n      dup1\n        /* \"contracts/Test1.sol\":1769:1770  0 */\n      0x00\n        /* \"contracts/Test1.sol\":1760:1770  uint i = 0 */\n      swap1\n      pop\n        /* \"contracts/Test1.sol\":1756:1905  for(uint i = 0; i < users.length; i++){... */\n    tag_61:\n        /* \"contracts/Test1.sol\":1776:1781  users */\n      0x01\n        /* \"contracts/Test1.sol\":1776:1788  users.length */\n      dup1\n      sload\n      swap1\n      pop\n        /* \"contracts/Test1.sol\":1772:1773  i */\n      dup2\n        /* \"contracts/Test1.sol\":1772:1788  i < users.length */\n      lt\n        /* \"contracts/Test1.sol\":1756:1905  for(uint i = 0; i < users.length; i++){... */\n      iszero\n      tag_62\n      jumpi\n        /* \"contracts/Test1.sol\":1837:1850  walletAddress */\n      dup3\n        /* \"contracts/Test1.sol\":1811:1850  users[i].walletAddress == walletAddress */\n      0xffffffffffffffffffffffffffffffffffffffff\n      and\n        /* \"contracts/Test1.sol\":1811:1816  users */\n      0x01\n        /* \"contracts/Test1.sol\":1817:1818  i */\n      dup3\n        /* \"contracts/Test1.sol\":1811:1819  users[i] */\n      dup2\n      sload\n      dup2\n      lt\n      tag_64\n      jumpi\n      tag_65\n      tag_66\n      jump\t// in\n    tag_65:\n    tag_64:\n      swap1\n      0x00\n      mstore\n      keccak256(0x00, 0x20)\n      swap1\n      0x04\n      mul\n      add\n        /* \"contracts/Test1.sol\":1811:1833  users[i].walletAddress */\n      0x00\n      add\n      0x00\n      swap1\n      sload\n      swap1\n      0x0100\n      exp\n      swap1\n      div\n      0xffffffffffffffffffffffffffffffffffffffff\n      and\n        /* \"contracts/Test1.sol\":1811:1850  users[i].walletAddress == walletAddress */\n      0xffffffffffffffffffffffffffffffffffffffff\n      and\n      eq\n        /* \"contracts/Test1.sol\":1808:1895  if(users[i].walletAddress == walletAddress){... */\n      iszero\n      tag_68\n      jumpi\n        /* \"contracts/Test1.sol\":1876:1880  true */\n      0x01\n        /* \"contracts/Test1.sol\":1869:1880  return true */\n      swap2\n      pop\n      pop\n      jump(tag_60)\n        /* \"contracts/Test1.sol\":1808:1895  if(users[i].walletAddress == walletAddress){... */\n    tag_68:\n        /* \"contracts/Test1.sol\":1790:1793  i++ */\n      dup1\n      dup1\n      tag_69\n      swap1\n      tag_70\n      jump\t// in\n    tag_69:\n      swap2\n      pop\n      pop\n        /* \"contracts/Test1.sol\":1756:1905  for(uint i = 0; i < users.length; i++){... */\n      jump(tag_61)\n    tag_62:\n      pop\n        /* \"contracts/Test1.sol\":1921:1926  false */\n      0x00\n        /* \"contracts/Test1.sol\":1914:1926  return false */\n      swap1\n      pop\n        /* \"contracts/Test1.sol\":1678:1933  function userExists(address walletAddress) public view returns(bool){... */\n    tag_60:\n      swap2\n      swap1\n      pop\n      jump\t// out\n        /* \"contracts/Test1.sol\":1939:2044  function transfer(address walletAddress) payable public {... */\n    tag_21:\n        /* \"contracts/Test1.sol\":2005:2037  transferToAddress(walletAddress) */\n      tag_72\n        /* \"contracts/Test1.sol\":2023:2036  walletAddress */\n      dup2\n        /* \"contracts/Test1.sol\":2005:2022  transferToAddress */\n      tag_73\n        /* \"contracts/Test1.sol\":2005:2037  transferToAddress(walletAddress) */\n      jump\t// in\n    tag_72:\n        /* \"contracts/Test1.sol\":1939:2044  function transfer(address walletAddress) payable public {... */\n      pop\n      jump\t// out\n        /* \"contracts/Test1.sol\":691:871  function addUser(address walletAddress, string memory name, uint amount, bool isInvestor) public onlyOwner{... */\n    tag_26:\n        /* \"contracts/Test1.sol\":334:339  owner */\n      0x00\n      dup1\n      sload\n      swap1\n      0x0100\n      exp\n      swap1\n      div\n      0xffffffffffffffffffffffffffffffffffffffff\n      and\n        /* \"contracts/Test1.sol\":320:339  msg.sender == owner */\n      0xffffffffffffffffffffffffffffffffffffffff\n      and\n        /* \"contracts/Test1.sol\":320:330  msg.sender */\n      caller\n        /* \"contracts/Test1.sol\":320:339  msg.sender == owner */\n      0xffffffffffffffffffffffffffffffffffffffff\n      and\n      eq\n        /* \"contracts/Test1.sol\":312:365  require(msg.sender == owner, \"You are not the owner\") */\n      tag_75\n      jumpi\n      mload(0x40)\n      0x08c379a000000000000000000000000000000000000000000000000000000000\n      dup2\n      mstore\n      0x04\n      add\n      tag_76\n      swap1\n      tag_77\n      jump\t// in\n    tag_76:\n      mload(0x40)\n      dup1\n      swap2\n      sub\n      swap1\n      revert\n    tag_75:\n        /* \"contracts/Test1.sol\":807:812  users */\n      0x01\n        /* \"contracts/Test1.sol\":818:863  User(walletAddress, name, amount, isInvestor) */\n      mload(0x40)\n      dup1\n      0x80\n      add\n      0x40\n      mstore\n      dup1\n        /* \"contracts/Test1.sol\":823:836  walletAddress */\n      dup7\n        /* \"contracts/Test1.sol\":818:863  User(walletAddress, name, amount, isInvestor) */\n      0xffffffffffffffffffffffffffffffffffffffff\n      and\n      dup2\n      mstore\n      0x20\n      add\n        /* \"contracts/Test1.sol\":838:842  name */\n      dup6\n        /* \"contracts/Test1.sol\":818:863  User(walletAddress, name, amount, isInvestor) */\n      dup2\n      mstore\n      0x20\n      add\n        /* \"contracts/Test1.sol\":844:850  amount */\n      dup5\n        /* \"contracts/Test1.sol\":818:863  User(walletAddress, name, amount, isInvestor) */\n      dup2\n      mstore\n      0x20\n      add\n        /* \"contracts/Test1.sol\":852:862  isInvestor */\n      dup4\n        /* \"contracts/Test1.sol\":818:863  User(walletAddress, name, amount, isInvestor) */\n      iszero\n      iszero\n      dup2\n      mstore\n      pop\n        /* \"contracts/Test1.sol\":807:864  users.push(User(walletAddress, name, amount, isInvestor)) */\n      swap1\n      dup1\n      0x01\n      dup2\n      sload\n      add\n      dup1\n      dup3\n      sstore\n      dup1\n      swap2\n      pop\n      pop\n      0x01\n      swap1\n      sub\n      swap1\n      0x00\n      mstore\n      keccak256(0x00, 0x20)\n      swap1\n      0x04\n      mul\n      add\n      0x00\n      swap1\n      swap2\n      swap1\n      swap2\n      swap1\n      swap2\n      pop\n      0x00\n      dup3\n      add\n      mload\n      dup2\n      0x00\n      add\n      exp(0x0100, 0x00)\n      dup2\n      sload\n      dup2\n      0xffffffffffffffffffffffffffffffffffffffff\n      mul\n      not\n      and\n      swap1\n      dup4\n      0xffffffffffffffffffffffffffffffffffffffff\n      and\n      mul\n      or\n      swap1\n      sstore\n      pop\n      0x20\n      dup3\n      add\n      mload\n      dup2\n      0x01\n      add\n      swap1\n      dup1\n      mload\n      swap1\n      0x20\n      add\n      swap1\n      tag_80\n      swap3\n      swap2\n      swap1\n      tag_81\n      jump\t// in\n    tag_80:\n      pop\n      0x40\n      dup3\n      add\n      mload\n      dup2\n      0x02\n      add\n      sstore\n      0x60\n      dup3\n      add\n      mload\n      dup2\n      0x03\n      add\n      exp(0x0100, 0x00)\n      dup2\n      sload\n      dup2\n      0xff\n      mul\n      not\n      and\n      swap1\n      dup4\n      iszero\n      iszero\n      mul\n      or\n      swap1\n      sstore\n      pop\n      pop\n      pop\n        /* \"contracts/Test1.sol\":691:871  function addUser(address walletAddress, string memory name, uint amount, bool isInvestor) public onlyOwner{... */\n      pop\n      pop\n      pop\n      pop\n      jump\t// out\n        /* \"contracts/Test1.sol\":618:637  User[] public users */\n    tag_31:\n      0x01\n      dup2\n      dup2\n      sload\n      dup2\n      lt\n      tag_82\n      jumpi\n      0x00\n      dup1\n      revert\n    tag_82:\n      swap1\n      0x00\n      mstore\n      keccak256(0x00, 0x20)\n      swap1\n      0x04\n      mul\n      add\n      0x00\n      swap2\n      pop\n      swap1\n      pop\n      dup1\n      0x00\n      add\n      0x00\n      swap1\n      sload\n      swap1\n      0x0100\n      exp\n      swap1\n      div\n      0xffffffffffffffffffffffffffffffffffffffff\n      and\n      swap1\n      dup1\n      0x01\n      add\n      dup1\n      sload\n      tag_84\n      swap1\n      tag_85\n      jump\t// in\n    tag_84:\n      dup1\n      0x1f\n      add\n      0x20\n      dup1\n      swap2\n      div\n      mul\n      0x20\n      add\n      mload(0x40)\n      swap1\n      dup2\n      add\n      0x40\n      mstore\n      dup1\n      swap3\n      swap2\n      swap1\n      dup2\n      dup2\n      mstore\n      0x20\n      add\n      dup3\n      dup1\n      sload\n      tag_86\n      swap1\n      tag_85\n      jump\t// in\n    tag_86:\n      dup1\n      iszero\n      tag_87\n      jumpi\n      dup1\n      0x1f\n      lt\n      tag_88\n      jumpi\n      0x0100\n      dup1\n      dup4\n      sload\n      div\n      mul\n      dup4\n      mstore\n      swap2\n      0x20\n      add\n      swap2\n      jump(tag_87)\n    tag_88:\n      dup3\n      add\n      swap2\n      swap1\n      0x00\n      mstore\n      keccak256(0x00, 0x20)\n      swap1\n    tag_89:\n      dup2\n      sload\n      dup2\n      mstore\n      swap1\n      0x01\n      add\n      swap1\n      0x20\n      add\n      dup1\n      dup4\n      gt\n      tag_89\n      jumpi\n      dup3\n      swap1\n      sub\n      0x1f\n      and\n      dup3\n      add\n      swap2\n    tag_87:\n      pop\n      pop\n      pop\n      pop\n      pop\n      swap1\n      dup1\n      0x02\n      add\n      sload\n      swap1\n      dup1\n      0x03\n      add\n      0x00\n      swap1\n      sload\n      swap1\n      0x0100\n      exp\n      swap1\n      div\n      0xff\n      and\n      swap1\n      pop\n      dup5\n      jump\t// out\n        /* \"contracts/Test1.sol\":1502:1672  function investorPermission(address walletAddress) public returns(bool){... */\n    tag_37:\n        /* \"contracts/Test1.sol\":1568:1572  bool */\n      0x00\n        /* \"contracts/Test1.sol\":1583:1599  User memory user */\n      dup1\n        /* \"contracts/Test1.sol\":1602:1633  getUserByAddress(walletAddress) */\n      tag_91\n        /* \"contracts/Test1.sol\":1619:1632  walletAddress */\n      dup4\n        /* \"contracts/Test1.sol\":1602:1618  getUserByAddress */\n      tag_42\n        /* \"contracts/Test1.sol\":1602:1633  getUserByAddress(walletAddress) */\n      jump\t// in\n    tag_91:\n        /* \"contracts/Test1.sol\":1583:1633  User memory user = getUserByAddress(walletAddress) */\n      swap1\n      pop\n        /* \"contracts/Test1.sol\":1650:1654  user */\n      dup1\n        /* \"contracts/Test1.sol\":1650:1665  user.isInvestor */\n      0x60\n      add\n      mload\n        /* \"contracts/Test1.sol\":1643:1665  return user.isInvestor */\n      swap2\n      pop\n      pop\n        /* \"contracts/Test1.sol\":1502:1672  function investorPermission(address walletAddress) public returns(bool){... */\n      swap2\n      swap1\n      pop\n      jump\t// out\n        /* \"contracts/Test1.sol\":1160:1496  function getUserByAddress(address walletAddress) public returns(User memory user){... */\n    tag_42:\n        /* \"contracts/Test1.sol\":1224:1240  User memory user */\n      tag_92\n      tag_93\n      jump\t// in\n    tag_92:\n        /* \"contracts/Test1.sol\":1255:1261  uint i */\n      0x00\n        /* \"contracts/Test1.sol\":1251:1448  for(uint i = 0; i < users.length; i++){... */\n    tag_95:\n        /* \"contracts/Test1.sol\":1271:1276  users */\n      0x01\n        /* \"contracts/Test1.sol\":1271:1283  users.length */\n      dup1\n      sload\n      swap1\n      pop\n        /* \"contracts/Test1.sol\":1267:1268  i */\n      dup2\n        /* \"contracts/Test1.sol\":1267:1283  i < users.length */\n      lt\n        /* \"contracts/Test1.sol\":1251:1448  for(uint i = 0; i < users.length; i++){... */\n      iszero\n      tag_96\n      jumpi\n        /* \"contracts/Test1.sol\":1332:1345  walletAddress */\n      dup3\n        /* \"contracts/Test1.sol\":1306:1345  users[i].walletAddress == walletAddress */\n      0xffffffffffffffffffffffffffffffffffffffff\n      and\n        /* \"contracts/Test1.sol\":1306:1311  users */\n      0x01\n        /* \"contracts/Test1.sol\":1312:1313  i */\n      dup3\n        /* \"contracts/Test1.sol\":1306:1314  users[i] */\n      dup2\n      sload\n      dup2\n      lt\n      tag_98\n      jumpi\n      tag_99\n      tag_66\n      jump\t// in\n    tag_99:\n    tag_98:\n      swap1\n      0x00\n      mstore\n      keccak256(0x00, 0x20)\n      swap1\n      0x04\n      mul\n      add\n        /* \"contracts/Test1.sol\":1306:1328  users[i].walletAddress */\n      0x00\n      add\n      0x00\n      swap1\n      sload\n      swap1\n      0x0100\n      exp\n      swap1\n      div\n      0xffffffffffffffffffffffffffffffffffffffff\n      and\n        /* \"contracts/Test1.sol\":1306:1345  users[i].walletAddress == walletAddress */\n      0xffffffffffffffffffffffffffffffffffffffff\n      and\n      eq\n        /* \"contracts/Test1.sol\":1303:1438  if(users[i].walletAddress == walletAddress){... */\n      iszero\n      tag_101\n      jumpi\n        /* \"contracts/Test1.sol\":1386:1390  true */\n      0x01\n        /* \"contracts/Test1.sol\":1364:1369  users */\n      dup1\n        /* \"contracts/Test1.sol\":1370:1371  i */\n      dup3\n        /* \"contracts/Test1.sol\":1364:1372  users[i] */\n      dup2\n      sload\n      dup2\n      lt\n      tag_102\n      jumpi\n      tag_103\n      tag_66\n      jump\t// in\n    tag_103:\n    tag_102:\n      swap1\n      0x00\n      mstore\n      keccak256(0x00, 0x20)\n      swap1\n      0x04\n      mul\n      add\n        /* \"contracts/Test1.sol\":1364:1383  users[i].isInvestor */\n      0x03\n      add\n      0x00\n        /* \"contracts/Test1.sol\":1364:1390  users[i].isInvestor = true */\n      0x0100\n      exp\n      dup2\n      sload\n      dup2\n      0xff\n      mul\n      not\n      and\n      swap1\n      dup4\n      iszero\n      iszero\n      mul\n      or\n      swap1\n      sstore\n      pop\n        /* \"contracts/Test1.sol\":1415:1420  users */\n      0x01\n        /* \"contracts/Test1.sol\":1421:1422  i */\n      dup2\n        /* \"contracts/Test1.sol\":1415:1423  users[i] */\n      dup2\n      sload\n      dup2\n      lt\n      tag_105\n      jumpi\n      tag_106\n      tag_66\n      jump\t// in\n    tag_106:\n    tag_105:\n      swap1\n      0x00\n      mstore\n      keccak256(0x00, 0x20)\n      swap1\n      0x04\n      mul\n      add\n        /* \"contracts/Test1.sol\":1408:1423  return users[i] */\n      mload(0x40)\n      dup1\n      0x80\n      add\n      0x40\n      mstore\n      swap1\n      dup2\n      0x00\n      dup3\n      add\n      0x00\n      swap1\n      sload\n      swap1\n      0x0100\n      exp\n      swap1\n      div\n      0xffffffffffffffffffffffffffffffffffffffff\n      and\n      0xffffffffffffffffffffffffffffffffffffffff\n      and\n      0xffffffffffffffffffffffffffffffffffffffff\n      and\n      dup2\n      mstore\n      0x20\n      add\n      0x01\n      dup3\n      add\n      dup1\n      sload\n      tag_108\n      swap1\n      tag_85\n      jump\t// in\n    tag_108:\n      dup1\n      0x1f\n      add\n      0x20\n      dup1\n      swap2\n      div\n      mul\n      0x20\n      add\n      mload(0x40)\n      swap1\n      dup2\n      add\n      0x40\n      mstore\n      dup1\n      swap3\n      swap2\n      swap1\n      dup2\n      dup2\n      mstore\n      0x20\n      add\n      dup3\n      dup1\n      sload\n      tag_109\n      swap1\n      tag_85\n      jump\t// in\n    tag_109:\n      dup1\n      iszero\n      tag_110\n      jumpi\n      dup1\n      0x1f\n      lt\n      tag_111\n      jumpi\n      0x0100\n      dup1\n      dup4\n      sload\n      div\n      mul\n      dup4\n      mstore\n      swap2\n      0x20\n      add\n      swap2\n      jump(tag_110)\n    tag_111:\n      dup3\n      add\n      swap2\n      swap1\n      0x00\n      mstore\n      keccak256(0x00, 0x20)\n      swap1\n    tag_112:\n      dup2\n      sload\n      dup2\n      mstore\n      swap1\n      0x01\n      add\n      swap1\n      0x20\n      add\n      dup1\n      dup4\n      gt\n      tag_112\n      jumpi\n      dup3\n      swap1\n      sub\n      0x1f\n      and\n      dup3\n      add\n      swap2\n    tag_110:\n      pop\n      pop\n      pop\n      pop\n      pop\n      dup2\n      mstore\n      0x20\n      add\n      0x02\n      dup3\n      add\n      sload\n      dup2\n      mstore\n      0x20\n      add\n      0x03\n      dup3\n      add\n      0x00\n      swap1\n      sload\n      swap1\n      0x0100\n      exp\n      swap1\n      div\n      0xff\n      and\n      iszero\n      iszero\n      iszero\n      iszero\n      dup2\n      mstore\n      pop\n      pop\n      swap2\n      pop\n      pop\n      jump(tag_94)\n        /* \"contracts/Test1.sol\":1303:1438  if(users[i].walletAddress == walletAddress){... */\n    tag_101:\n        /* \"contracts/Test1.sol\":1285:1288  i++ */\n      dup1\n      dup1\n      tag_113\n      swap1\n      tag_70\n      jump\t// in\n    tag_113:\n      swap2\n      pop\n      pop\n        /* \"contracts/Test1.sol\":1251:1448  for(uint i = 0; i < users.length; i++){... */\n      jump(tag_95)\n    tag_96:\n      pop\n        /* \"contracts/Test1.sol\":1457:1489  revert(\"Invalid Wallet Address\") */\n      mload(0x40)\n      0x08c379a000000000000000000000000000000000000000000000000000000000\n      dup2\n      mstore\n      0x04\n      add\n      tag_114\n      swap1\n      tag_115\n      jump\t// in\n    tag_114:\n      mload(0x40)\n      dup1\n      swap2\n      sub\n      swap1\n      revert\n        /* \"contracts/Test1.sol\":1160:1496  function getUserByAddress(address walletAddress) public returns(User memory user){... */\n    tag_94:\n      swap2\n      swap1\n      pop\n      jump\t// out\n        /* \"contracts/Test1.sol\":643:684  mapping(address => User) public investors */\n    tag_48:\n      mstore(0x20, 0x02)\n      dup1\n      0x00\n      mstore\n      keccak256(0x00, 0x40)\n      0x00\n      swap2\n      pop\n      swap1\n      pop\n      dup1\n      0x00\n      add\n      0x00\n      swap1\n      sload\n      swap1\n      0x0100\n      exp\n      swap1\n      div\n      0xffffffffffffffffffffffffffffffffffffffff\n      and\n      swap1\n      dup1\n      0x01\n      add\n      dup1\n      sload\n      tag_116\n      swap1\n      tag_85\n      jump\t// in\n    tag_116:\n      dup1\n      0x1f\n      add\n      0x20\n      dup1\n      swap2\n      div\n      mul\n      0x20\n      add\n      mload(0x40)\n      swap1\n      dup2\n      add\n      0x40\n      mstore\n      dup1\n      swap3\n      swap2\n      swap1\n      dup2\n      dup2\n      mstore\n      0x20\n      add\n      dup3\n      dup1\n      sload\n      tag_117\n      swap1\n      tag_85\n      jump\t// in\n    tag_117:\n      dup1\n      iszero\n      tag_118\n      jumpi\n      dup1\n      0x1f\n      lt\n      tag_119\n      jumpi\n      0x0100\n      dup1\n      dup4\n      sload\n      div\n      mul\n      dup4\n      mstore\n      swap2\n      0x20\n      add\n      swap2\n      jump(tag_118)\n    tag_119:\n      dup3\n      add\n      swap2\n      swap1\n      0x00\n      mstore\n      keccak256(0x00, 0x20)\n      swap1\n    tag_120:\n      dup2\n      sload\n      dup2\n      mstore\n      swap1\n      0x01\n      add\n      swap1\n      0x20\n      add\n      dup1\n      dup4\n      gt\n      tag_120\n      jumpi\n      dup3\n      swap1\n      sub\n      0x1f\n      and\n      dup3\n      add\n      swap2\n    tag_118:\n      pop\n      pop\n      pop\n      pop\n      pop\n      swap1\n      dup1\n      0x02\n      add\n      sload\n      swap1\n      dup1\n      0x03\n      add\n      0x00\n      swap1\n      sload\n      swap1\n      0x0100\n      exp\n      swap1\n      div\n      0xff\n      and\n      swap1\n      pop\n      dup5\n      jump\t// out\n        /* \"contracts/Test1.sol\":2296:2559  function balanceOf(address walletAddress) public view returns(uint){... */\n    tag_53:\n        /* \"contracts/Test1.sol\":2358:2362  uint */\n      0x00\n        /* \"contracts/Test1.sol\":2377:2383  uint i */\n      dup1\n        /* \"contracts/Test1.sol\":2386:2387  0 */\n      0x00\n        /* \"contracts/Test1.sol\":2377:2387  uint i = 0 */\n      swap1\n      pop\n        /* \"contracts/Test1.sol\":2373:2533  for(uint i = 0; i < users.length; i++){... */\n    tag_122:\n        /* \"contracts/Test1.sol\":2393:2398  users */\n      0x01\n        /* \"contracts/Test1.sol\":2393:2405  users.length */\n      dup1\n      sload\n      swap1\n      pop\n        /* \"contracts/Test1.sol\":2389:2390  i */\n      dup2\n        /* \"contracts/Test1.sol\":2389:2405  i < users.length */\n      lt\n        /* \"contracts/Test1.sol\":2373:2533  for(uint i = 0; i < users.length; i++){... */\n      iszero\n      tag_123\n      jumpi\n        /* \"contracts/Test1.sol\":2454:2467  walletAddress */\n      dup3\n        /* \"contracts/Test1.sol\":2428:2467  users[i].walletAddress == walletAddress */\n      0xffffffffffffffffffffffffffffffffffffffff\n      and\n        /* \"contracts/Test1.sol\":2428:2433  users */\n      0x01\n        /* \"contracts/Test1.sol\":2434:2435  i */\n      dup3\n        /* \"contracts/Test1.sol\":2428:2436  users[i] */\n      dup2\n      sload\n      dup2\n      lt\n      tag_125\n      jumpi\n      tag_126\n      tag_66\n      jump\t// in\n    tag_126:\n    tag_125:\n      swap1\n      0x00\n      mstore\n      keccak256(0x00, 0x20)\n      swap1\n      0x04\n      mul\n      add\n        /* \"contracts/Test1.sol\":2428:2450  users[i].walletAddress */\n      0x00\n      add\n      0x00\n      swap1\n      sload\n      swap1\n      0x0100\n      exp\n      swap1\n      div\n      0xffffffffffffffffffffffffffffffffffffffff\n      and\n        /* \"contracts/Test1.sol\":2428:2467  users[i].walletAddress == walletAddress */\n      0xffffffffffffffffffffffffffffffffffffffff\n      and\n      eq\n        /* \"contracts/Test1.sol\":2425:2523  if(users[i].walletAddress == walletAddress){... */\n      iszero\n      tag_128\n      jumpi\n        /* \"contracts/Test1.sol\":2493:2498  users */\n      0x01\n        /* \"contracts/Test1.sol\":2499:2500  i */\n      dup2\n        /* \"contracts/Test1.sol\":2493:2501  users[i] */\n      dup2\n      sload\n      dup2\n      lt\n      tag_129\n      jumpi\n      tag_130\n      tag_66\n      jump\t// in\n    tag_130:\n    tag_129:\n      swap1\n      0x00\n      mstore\n      keccak256(0x00, 0x20)\n      swap1\n      0x04\n      mul\n      add\n        /* \"contracts/Test1.sol\":2493:2508  users[i].amount */\n      0x02\n      add\n      sload\n        /* \"contracts/Test1.sol\":2486:2508  return users[i].amount */\n      swap2\n      pop\n      pop\n      jump(tag_121)\n        /* \"contracts/Test1.sol\":2425:2523  if(users[i].walletAddress == walletAddress){... */\n    tag_128:\n        /* \"contracts/Test1.sol\":2407:2410  i++ */\n      dup1\n      dup1\n      tag_132\n      swap1\n      tag_70\n      jump\t// in\n    tag_132:\n      swap2\n      pop\n      pop\n        /* \"contracts/Test1.sol\":2373:2533  for(uint i = 0; i < users.length; i++){... */\n      jump(tag_122)\n    tag_123:\n      pop\n        /* \"contracts/Test1.sol\":2549:2552  999 */\n      0x03e7\n        /* \"contracts/Test1.sol\":2542:2552  return 999 */\n      swap1\n      pop\n        /* \"contracts/Test1.sol\":2296:2559  function balanceOf(address walletAddress) public view returns(uint){... */\n    tag_121:\n      swap2\n      swap1\n      pop\n      jump\t// out\n        /* \"contracts/Test1.sol\":877:1154  function addToInvestors(address walletAddress) public onlyOwner{... */\n    tag_59:\n        /* \"contracts/Test1.sol\":334:339  owner */\n      0x00\n      dup1\n      sload\n      swap1\n      0x0100\n      exp\n      swap1\n      div\n      0xffffffffffffffffffffffffffffffffffffffff\n      and\n        /* \"contracts/Test1.sol\":320:339  msg.sender == owner */\n      0xffffffffffffffffffffffffffffffffffffffff\n      and\n        /* \"contracts/Test1.sol\":320:330  msg.sender */\n      caller\n        /* \"contracts/Test1.sol\":320:339  msg.sender == owner */\n      0xffffffffffffffffffffffffffffffffffffffff\n      and\n      eq\n        /* \"contracts/Test1.sol\":312:365  require(msg.sender == owner, \"You are not the owner\") */\n      tag_134\n      jumpi\n      mload(0x40)\n      0x08c379a000000000000000000000000000000000000000000000000000000000\n      dup2\n      mstore\n      0x04\n      add\n      tag_135\n      swap1\n      tag_77\n      jump\t// in\n    tag_135:\n      mload(0x40)\n      dup1\n      swap2\n      sub\n      swap1\n      revert\n    tag_134:\n        /* \"contracts/Test1.sol\":950:966  User memory user */\n      0x00\n        /* \"contracts/Test1.sol\":969:1000  getUserByAddress(walletAddress) */\n      tag_137\n        /* \"contracts/Test1.sol\":986:999  walletAddress */\n      dup3\n        /* \"contracts/Test1.sol\":969:985  getUserByAddress */\n      tag_42\n        /* \"contracts/Test1.sol\":969:1000  getUserByAddress(walletAddress) */\n      jump\t// in\n    tag_137:\n        /* \"contracts/Test1.sol\":950:1000  User memory user = getUserByAddress(walletAddress) */\n      swap1\n      pop\n        /* \"contracts/Test1.sol\":1013:1043  userExists(user.walletAddress) */\n      tag_138\n        /* \"contracts/Test1.sol\":1024:1028  user */\n      dup2\n        /* \"contracts/Test1.sol\":1024:1042  user.walletAddress */\n      0x00\n      add\n      mload\n        /* \"contracts/Test1.sol\":1013:1023  userExists */\n      tag_16\n        /* \"contracts/Test1.sol\":1013:1043  userExists(user.walletAddress) */\n      jump\t// in\n    tag_138:\n        /* \"contracts/Test1.sol\":1010:1100  if(userExists(user.walletAddress)){... */\n      iszero\n      tag_139\n      jumpi\n        /* \"contracts/Test1.sol\":1085:1089  user */\n      dup1\n        /* \"contracts/Test1.sol\":1058:1067  investors */\n      0x02\n        /* \"contracts/Test1.sol\":1058:1082  investors[walletAddress] */\n      0x00\n        /* \"contracts/Test1.sol\":1068:1081  walletAddress */\n      dup5\n        /* \"contracts/Test1.sol\":1058:1082  investors[walletAddress] */\n      0xffffffffffffffffffffffffffffffffffffffff\n      and\n      0xffffffffffffffffffffffffffffffffffffffff\n      and\n      dup2\n      mstore\n      0x20\n      add\n      swap1\n      dup2\n      mstore\n      0x20\n      add\n      0x00\n      keccak256\n        /* \"contracts/Test1.sol\":1058:1089  investors[walletAddress] = user */\n      0x00\n      dup3\n      add\n      mload\n      dup2\n      0x00\n      add\n      exp(0x0100, 0x00)\n      dup2\n      sload\n      dup2\n      0xffffffffffffffffffffffffffffffffffffffff\n      mul\n      not\n      and\n      swap1\n      dup4\n      0xffffffffffffffffffffffffffffffffffffffff\n      and\n      mul\n      or\n      swap1\n      sstore\n      pop\n      0x20\n      dup3\n      add\n      mload\n      dup2\n      0x01\n      add\n      swap1\n      dup1\n      mload\n      swap1\n      0x20\n      add\n      swap1\n      tag_140\n      swap3\n      swap2\n      swap1\n      tag_81\n      jump\t// in\n    tag_140:\n      pop\n      0x40\n      dup3\n      add\n      mload\n      dup2\n      0x02\n      add\n      sstore\n      0x60\n      dup3\n      add\n      mload\n      dup2\n      0x03\n      add\n      exp(0x0100, 0x00)\n      dup2\n      sload\n      dup2\n      0xff\n      mul\n      not\n      and\n      swap1\n      dup4\n      iszero\n      iszero\n      mul\n      or\n      swap1\n      sstore\n      pop\n      swap1\n      pop\n      pop\n        /* \"contracts/Test1.sol\":1010:1100  if(userExists(user.walletAddress)){... */\n    tag_139:\n        /* \"contracts/Test1.sol\":1118:1147  revert(\"User does not exist\") */\n      mload(0x40)\n      0x08c379a000000000000000000000000000000000000000000000000000000000\n      dup2\n      mstore\n      0x04\n      add\n      tag_141\n      swap1\n      tag_142\n      jump\t// in\n    tag_141:\n      mload(0x40)\n      dup1\n      swap2\n      sub\n      swap1\n      revert\n        /* \"contracts/Test1.sol\":2050:2290  function transferToAddress(address walletAddress) private {... */\n    tag_73:\n        /* \"contracts/Test1.sol\":2122:2128  uint i */\n      0x00\n        /* \"contracts/Test1.sol\":2118:2284  for(uint i = 0; i < users.length; i++){... */\n    tag_144:\n        /* \"contracts/Test1.sol\":2138:2143  users */\n      0x01\n        /* \"contracts/Test1.sol\":2138:2150  users.length */\n      dup1\n      sload\n      swap1\n      pop\n        /* \"contracts/Test1.sol\":2134:2135  i */\n      dup2\n        /* \"contracts/Test1.sol\":2134:2150  i < users.length */\n      lt\n        /* \"contracts/Test1.sol\":2118:2284  for(uint i = 0; i < users.length; i++){... */\n      iszero\n      tag_145\n      jumpi\n        /* \"contracts/Test1.sol\":2199:2212  walletAddress */\n      dup2\n        /* \"contracts/Test1.sol\":2173:2212  users[i].walletAddress == walletAddress */\n      0xffffffffffffffffffffffffffffffffffffffff\n      and\n        /* \"contracts/Test1.sol\":2173:2178  users */\n      0x01\n        /* \"contracts/Test1.sol\":2179:2180  i */\n      dup3\n        /* \"contracts/Test1.sol\":2173:2181  users[i] */\n      dup2\n      sload\n      dup2\n      lt\n      tag_147\n      jumpi\n      tag_148\n      tag_66\n      jump\t// in\n    tag_148:\n    tag_147:\n      swap1\n      0x00\n      mstore\n      keccak256(0x00, 0x20)\n      swap1\n      0x04\n      mul\n      add\n        /* \"contracts/Test1.sol\":2173:2195  users[i].walletAddress */\n      0x00\n      add\n      0x00\n      swap1\n      sload\n      swap1\n      0x0100\n      exp\n      swap1\n      div\n      0xffffffffffffffffffffffffffffffffffffffff\n      and\n        /* \"contracts/Test1.sol\":2173:2212  users[i].walletAddress == walletAddress */\n      0xffffffffffffffffffffffffffffffffffffffff\n      and\n      eq\n        /* \"contracts/Test1.sol\":2170:2274  if(users[i].walletAddress == walletAddress){... */\n      iszero\n      tag_150\n      jumpi\n        /* \"contracts/Test1.sol\":2250:2259  msg.value */\n      callvalue\n        /* \"contracts/Test1.sol\":2231:2236  users */\n      0x01\n        /* \"contracts/Test1.sol\":2237:2238  i */\n      dup3\n        /* \"contracts/Test1.sol\":2231:2239  users[i] */\n      dup2\n      sload\n      dup2\n      lt\n      tag_151\n      jumpi\n      tag_152\n      tag_66\n      jump\t// in\n    tag_152:\n    tag_151:\n      swap1\n      0x00\n      mstore\n      keccak256(0x00, 0x20)\n      swap1\n      0x04\n      mul\n      add\n        /* \"contracts/Test1.sol\":2231:2246  users[i].amount */\n      0x02\n      add\n      0x00\n        /* \"contracts/Test1.sol\":2231:2259  users[i].amount += msg.value */\n      dup3\n      dup3\n      sload\n      tag_154\n      swap2\n      swap1\n      tag_155\n      jump\t// in\n    tag_154:\n      swap3\n      pop\n      pop\n      dup2\n      swap1\n      sstore\n      pop\n        /* \"contracts/Test1.sol\":2170:2274  if(users[i].walletAddress == walletAddress){... */\n    tag_150:\n        /* \"contracts/Test1.sol\":2152:2155  i++ */\n      dup1\n      dup1\n      tag_156\n      swap1\n      tag_70\n      jump\t// in\n    tag_156:\n      swap2\n      pop\n      pop\n        /* \"contracts/Test1.sol\":2118:2284  for(uint i = 0; i < users.length; i++){... */\n      jump(tag_144)\n    tag_145:\n      pop\n        /* \"contracts/Test1.sol\":2050:2290  function transferToAddress(address walletAddress) private {... */\n      pop\n      jump\t// out\n    tag_81:\n      dup3\n      dup1\n      sload\n      tag_157\n      swap1\n      tag_85\n      jump\t// in\n    tag_157:\n      swap1\n      0x00\n      mstore\n      keccak256(0x00, 0x20)\n      swap1\n      0x1f\n      add\n      0x20\n      swap1\n      div\n      dup2\n      add\n      swap3\n      dup3\n      tag_159\n      jumpi\n      0x00\n      dup6\n      sstore\n      jump(tag_158)\n    tag_159:\n      dup3\n      0x1f\n      lt\n      tag_160\n      jumpi\n      dup1\n      mload\n      not(0xff)\n      and\n      dup4\n      dup1\n      add\n      or\n      dup6\n      sstore\n      jump(tag_158)\n    tag_160:\n      dup3\n      dup1\n      add\n      0x01\n      add\n      dup6\n      sstore\n      dup3\n      iszero\n      tag_158\n      jumpi\n      swap2\n      dup3\n      add\n    tag_161:\n      dup3\n      dup2\n      gt\n      iszero\n      tag_162\n      jumpi\n      dup3\n      mload\n      dup3\n      sstore\n      swap2\n      0x20\n      add\n      swap2\n      swap1\n      0x01\n      add\n      swap1\n      jump(tag_161)\n    tag_162:\n    tag_158:\n      pop\n      swap1\n      pop\n      tag_163\n      swap2\n      swap1\n      tag_164\n      jump\t// in\n    tag_163:\n      pop\n      swap1\n      jump\t// out\n    tag_93:\n      mload(0x40)\n      dup1\n      0x80\n      add\n      0x40\n      mstore\n      dup1\n      and(0xffffffffffffffffffffffffffffffffffffffff, 0x00)\n      dup2\n      mstore\n      0x20\n      add\n      0x60\n      dup2\n      mstore\n      0x20\n      add\n      0x00\n      dup2\n      mstore\n      0x20\n      add\n      iszero(iszero(0x00))\n      dup2\n      mstore\n      pop\n      swap1\n      jump\t// out\n    tag_164:\n    tag_165:\n      dup1\n      dup3\n      gt\n      iszero\n      tag_166\n      jumpi\n      0x00\n      dup2\n      0x00\n      swap1\n      sstore\n      pop\n      0x01\n      add\n      jump(tag_165)\n    tag_166:\n      pop\n      swap1\n      jump\t// out\n        /* \"#utility.yul\":7:419   */\n    tag_168:\n        /* \"#utility.yul\":85:90   */\n      0x00\n        /* \"#utility.yul\":110:176   */\n      tag_170\n        /* \"#utility.yul\":126:175   */\n      tag_171\n        /* \"#utility.yul\":168:174   */\n      dup5\n        /* \"#utility.yul\":126:175   */\n      tag_172\n      jump\t// in\n    tag_171:\n        /* \"#utility.yul\":110:176   */\n      tag_173\n      jump\t// in\n    tag_170:\n        /* \"#utility.yul\":101:176   */\n      swap1\n      pop\n        /* \"#utility.yul\":199:205   */\n      dup3\n        /* \"#utility.yul\":192:197   */\n      dup2\n        /* \"#utility.yul\":185:206   */\n      mstore\n        /* \"#utility.yul\":237:241   */\n      0x20\n        /* \"#utility.yul\":230:235   */\n      dup2\n        /* \"#utility.yul\":226:242   */\n      add\n        /* \"#utility.yul\":275:278   */\n      dup5\n        /* \"#utility.yul\":266:272   */\n      dup5\n        /* \"#utility.yul\":261:264   */\n      dup5\n        /* \"#utility.yul\":257:273   */\n      add\n        /* \"#utility.yul\":254:279   */\n      gt\n        /* \"#utility.yul\":251:363   */\n      iszero\n      tag_174\n      jumpi\n        /* \"#utility.yul\":282:361   */\n      tag_175\n      tag_176\n      jump\t// in\n    tag_175:\n        /* \"#utility.yul\":251:363   */\n    tag_174:\n        /* \"#utility.yul\":372:413   */\n      tag_177\n        /* \"#utility.yul\":406:412   */\n      dup5\n        /* \"#utility.yul\":401:404   */\n      dup3\n        /* \"#utility.yul\":396:399   */\n      dup6\n        /* \"#utility.yul\":372:413   */\n      tag_178\n      jump\t// in\n    tag_177:\n        /* \"#utility.yul\":91:419   */\n      pop\n        /* \"#utility.yul\":7:419   */\n      swap4\n      swap3\n      pop\n      pop\n      pop\n      jump\t// out\n        /* \"#utility.yul\":425:564   */\n    tag_179:\n        /* \"#utility.yul\":471:476   */\n      0x00\n        /* \"#utility.yul\":509:515   */\n      dup2\n        /* \"#utility.yul\":496:516   */\n      calldataload\n        /* \"#utility.yul\":487:516   */\n      swap1\n      pop\n        /* \"#utility.yul\":525:558   */\n      tag_181\n        /* \"#utility.yul\":552:557   */\n      dup2\n        /* \"#utility.yul\":525:558   */\n      tag_182\n      jump\t// in\n    tag_181:\n        /* \"#utility.yul\":425:564   */\n      swap3\n      swap2\n      pop\n      pop\n      jump\t// out\n        /* \"#utility.yul\":570:703   */\n    tag_183:\n        /* \"#utility.yul\":613:618   */\n      0x00\n        /* \"#utility.yul\":651:657   */\n      dup2\n        /* \"#utility.yul\":638:658   */\n      calldataload\n        /* \"#utility.yul\":629:658   */\n      swap1\n      pop\n        /* \"#utility.yul\":667:697   */\n      tag_185\n        /* \"#utility.yul\":691:696   */\n      dup2\n        /* \"#utility.yul\":667:697   */\n      tag_186\n      jump\t// in\n    tag_185:\n        /* \"#utility.yul\":570:703   */\n      swap3\n      swap2\n      pop\n      pop\n      jump\t// out\n        /* \"#utility.yul\":723:1063   */\n    tag_187:\n        /* \"#utility.yul\":779:784   */\n      0x00\n        /* \"#utility.yul\":828:831   */\n      dup3\n        /* \"#utility.yul\":821:825   */\n      0x1f\n        /* \"#utility.yul\":813:819   */\n      dup4\n        /* \"#utility.yul\":809:826   */\n      add\n        /* \"#utility.yul\":805:832   */\n      slt\n        /* \"#utility.yul\":795:917   */\n      tag_189\n      jumpi\n        /* \"#utility.yul\":836:915   */\n      tag_190\n      tag_191\n      jump\t// in\n    tag_190:\n        /* \"#utility.yul\":795:917   */\n    tag_189:\n        /* \"#utility.yul\":953:959   */\n      dup2\n        /* \"#utility.yul\":940:960   */\n      calldataload\n        /* \"#utility.yul\":978:1057   */\n      tag_192\n        /* \"#utility.yul\":1053:1056   */\n      dup5\n        /* \"#utility.yul\":1045:1051   */\n      dup3\n        /* \"#utility.yul\":1038:1042   */\n      0x20\n        /* \"#utility.yul\":1030:1036   */\n      dup7\n        /* \"#utility.yul\":1026:1043   */\n      add\n        /* \"#utility.yul\":978:1057   */\n      tag_168\n      jump\t// in\n    tag_192:\n        /* \"#utility.yul\":969:1057   */\n      swap2\n      pop\n        /* \"#utility.yul\":785:1063   */\n      pop\n        /* \"#utility.yul\":723:1063   */\n      swap3\n      swap2\n      pop\n      pop\n      jump\t// out\n        /* \"#utility.yul\":1069:1208   */\n    tag_193:\n        /* \"#utility.yul\":1115:1120   */\n      0x00\n        /* \"#utility.yul\":1153:1159   */\n      dup2\n        /* \"#utility.yul\":1140:1160   */\n      calldataload\n        /* \"#utility.yul\":1131:1160   */\n      swap1\n      pop\n        /* \"#utility.yul\":1169:1202   */\n      tag_195\n        /* \"#utility.yul\":1196:1201   */\n      dup2\n        /* \"#utility.yul\":1169:1202   */\n      tag_196\n      jump\t// in\n    tag_195:\n        /* \"#utility.yul\":1069:1208   */\n      swap3\n      swap2\n      pop\n      pop\n      jump\t// out\n        /* \"#utility.yul\":1214:1543   */\n    tag_15:\n        /* \"#utility.yul\":1273:1279   */\n      0x00\n        /* \"#utility.yul\":1322:1324   */\n      0x20\n        /* \"#utility.yul\":1310:1319   */\n      dup3\n        /* \"#utility.yul\":1301:1308   */\n      dup5\n        /* \"#utility.yul\":1297:1320   */\n      sub\n        /* \"#utility.yul\":1293:1325   */\n      slt\n        /* \"#utility.yul\":1290:1409   */\n      iszero\n      tag_198\n      jumpi\n        /* \"#utility.yul\":1328:1407   */\n      tag_199\n      tag_200\n      jump\t// in\n    tag_199:\n        /* \"#utility.yul\":1290:1409   */\n    tag_198:\n        /* \"#utility.yul\":1448:1449   */\n      0x00\n        /* \"#utility.yul\":1473:1526   */\n      tag_201\n        /* \"#utility.yul\":1518:1525   */\n      dup5\n        /* \"#utility.yul\":1509:1515   */\n      dup3\n        /* \"#utility.yul\":1498:1507   */\n      dup6\n        /* \"#utility.yul\":1494:1516   */\n      add\n        /* \"#utility.yul\":1473:1526   */\n      tag_179\n      jump\t// in\n    tag_201:\n        /* \"#utility.yul\":1463:1526   */\n      swap2\n      pop\n        /* \"#utility.yul\":1419:1536   */\n      pop\n        /* \"#utility.yul\":1214:1543   */\n      swap3\n      swap2\n      pop\n      pop\n      jump\t// out\n        /* \"#utility.yul\":1549:2488   */\n    tag_25:\n        /* \"#utility.yul\":1642:1648   */\n      0x00\n        /* \"#utility.yul\":1650:1656   */\n      dup1\n        /* \"#utility.yul\":1658:1664   */\n      0x00\n        /* \"#utility.yul\":1666:1672   */\n      dup1\n        /* \"#utility.yul\":1715:1718   */\n      0x80\n        /* \"#utility.yul\":1703:1712   */\n      dup6\n        /* \"#utility.yul\":1694:1701   */\n      dup8\n        /* \"#utility.yul\":1690:1713   */\n      sub\n        /* \"#utility.yul\":1686:1719   */\n      slt\n        /* \"#utility.yul\":1683:1803   */\n      iszero\n      tag_203\n      jumpi\n        /* \"#utility.yul\":1722:1801   */\n      tag_204\n      tag_200\n      jump\t// in\n    tag_204:\n        /* \"#utility.yul\":1683:1803   */\n    tag_203:\n        /* \"#utility.yul\":1842:1843   */\n      0x00\n        /* \"#utility.yul\":1867:1920   */\n      tag_205\n        /* \"#utility.yul\":1912:1919   */\n      dup8\n        /* \"#utility.yul\":1903:1909   */\n      dup3\n        /* \"#utility.yul\":1892:1901   */\n      dup9\n        /* \"#utility.yul\":1888:1910   */\n      add\n        /* \"#utility.yul\":1867:1920   */\n      tag_179\n      jump\t// in\n    tag_205:\n        /* \"#utility.yul\":1857:1920   */\n      swap5\n      pop\n        /* \"#utility.yul\":1813:1930   */\n      pop\n        /* \"#utility.yul\":1997:1999   */\n      0x20\n        /* \"#utility.yul\":1986:1995   */\n      dup6\n        /* \"#utility.yul\":1982:2000   */\n      add\n        /* \"#utility.yul\":1969:2001   */\n      calldataload\n        /* \"#utility.yul\":2028:2046   */\n      0xffffffffffffffff\n        /* \"#utility.yul\":2020:2026   */\n      dup2\n        /* \"#utility.yul\":2017:2047   */\n      gt\n        /* \"#utility.yul\":2014:2131   */\n      iszero\n      tag_206\n      jumpi\n        /* \"#utility.yul\":2050:2129   */\n      tag_207\n      tag_208\n      jump\t// in\n    tag_207:\n        /* \"#utility.yul\":2014:2131   */\n    tag_206:\n        /* \"#utility.yul\":2155:2218   */\n      tag_209\n        /* \"#utility.yul\":2210:2217   */\n      dup8\n        /* \"#utility.yul\":2201:2207   */\n      dup3\n        /* \"#utility.yul\":2190:2199   */\n      dup9\n        /* \"#utility.yul\":2186:2208   */\n      add\n        /* \"#utility.yul\":2155:2218   */\n      tag_187\n      jump\t// in\n    tag_209:\n        /* \"#utility.yul\":2145:2218   */\n      swap4\n      pop\n        /* \"#utility.yul\":1940:2228   */\n      pop\n        /* \"#utility.yul\":2267:2269   */\n      0x40\n        /* \"#utility.yul\":2293:2346   */\n      tag_210\n        /* \"#utility.yul\":2338:2345   */\n      dup8\n        /* \"#utility.yul\":2329:2335   */\n      dup3\n        /* \"#utility.yul\":2318:2327   */\n      dup9\n        /* \"#utility.yul\":2314:2336   */\n      add\n        /* \"#utility.yul\":2293:2346   */\n      tag_193\n      jump\t// in\n    tag_210:\n        /* \"#utility.yul\":2283:2346   */\n      swap3\n      pop\n        /* \"#utility.yul\":2238:2356   */\n      pop\n        /* \"#utility.yul\":2395:2397   */\n      0x60\n        /* \"#utility.yul\":2421:2471   */\n      tag_211\n        /* \"#utility.yul\":2463:2470   */\n      dup8\n        /* \"#utility.yul\":2454:2460   */\n      dup3\n        /* \"#utility.yul\":2443:2452   */\n      dup9\n        /* \"#utility.yul\":2439:2461   */\n      add\n        /* \"#utility.yul\":2421:2471   */\n      tag_183\n      jump\t// in\n    tag_211:\n        /* \"#utility.yul\":2411:2471   */\n      swap2\n      pop\n        /* \"#utility.yul\":2366:2481   */\n      pop\n        /* \"#utility.yul\":1549:2488   */\n      swap3\n      swap6\n      swap2\n      swap5\n      pop\n      swap3\n      pop\n      jump\t// out\n        /* \"#utility.yul\":2494:2823   */\n    tag_30:\n        /* \"#utility.yul\":2553:2559   */\n      0x00\n        /* \"#utility.yul\":2602:2604   */\n      0x20\n        /* \"#utility.yul\":2590:2599   */\n      dup3\n        /* \"#utility.yul\":2581:2588   */\n      dup5\n        /* \"#utility.yul\":2577:2600   */\n      sub\n        /* \"#utility.yul\":2573:2605   */\n      slt\n        /* \"#utility.yul\":2570:2689   */\n      iszero\n      tag_213\n      jumpi\n        /* \"#utility.yul\":2608:2687   */\n      tag_214\n      tag_200\n      jump\t// in\n    tag_214:\n        /* \"#utility.yul\":2570:2689   */\n    tag_213:\n        /* \"#utility.yul\":2728:2729   */\n      0x00\n        /* \"#utility.yul\":2753:2806   */\n      tag_215\n        /* \"#utility.yul\":2798:2805   */\n      dup5\n        /* \"#utility.yul\":2789:2795   */\n      dup3\n        /* \"#utility.yul\":2778:2787   */\n      dup6\n        /* \"#utility.yul\":2774:2796   */\n      add\n        /* \"#utility.yul\":2753:2806   */\n      tag_193\n      jump\t// in\n    tag_215:\n        /* \"#utility.yul\":2743:2806   */\n      swap2\n      pop\n        /* \"#utility.yul\":2699:2816   */\n      pop\n        /* \"#utility.yul\":2494:2823   */\n      swap3\n      swap2\n      pop\n      pop\n      jump\t// out\n        /* \"#utility.yul\":2829:2937   */\n    tag_216:\n        /* \"#utility.yul\":2906:2930   */\n      tag_218\n        /* \"#utility.yul\":2924:2929   */\n      dup2\n        /* \"#utility.yul\":2906:2930   */\n      tag_219\n      jump\t// in\n    tag_218:\n        /* \"#utility.yul\":2901:2904   */\n      dup3\n        /* \"#utility.yul\":2894:2931   */\n      mstore\n        /* \"#utility.yul\":2829:2937   */\n      pop\n      pop\n      jump\t// out\n        /* \"#utility.yul\":2943:3061   */\n    tag_220:\n        /* \"#utility.yul\":3030:3054   */\n      tag_222\n        /* \"#utility.yul\":3048:3053   */\n      dup2\n        /* \"#utility.yul\":3030:3054   */\n      tag_219\n      jump\t// in\n    tag_222:\n        /* \"#utility.yul\":3025:3028   */\n      dup3\n        /* \"#utility.yul\":3018:3055   */\n      mstore\n        /* \"#utility.yul\":2943:3061   */\n      pop\n      pop\n      jump\t// out\n        /* \"#utility.yul\":3067:3166   */\n    tag_223:\n        /* \"#utility.yul\":3138:3159   */\n      tag_225\n        /* \"#utility.yul\":3153:3158   */\n      dup2\n        /* \"#utility.yul\":3138:3159   */\n      tag_226\n      jump\t// in\n    tag_225:\n        /* \"#utility.yul\":3133:3136   */\n      dup3\n        /* \"#utility.yul\":3126:3160   */\n      mstore\n        /* \"#utility.yul\":3067:3166   */\n      pop\n      pop\n      jump\t// out\n        /* \"#utility.yul\":3172:3281   */\n    tag_227:\n        /* \"#utility.yul\":3253:3274   */\n      tag_229\n        /* \"#utility.yul\":3268:3273   */\n      dup2\n        /* \"#utility.yul\":3253:3274   */\n      tag_226\n      jump\t// in\n    tag_229:\n        /* \"#utility.yul\":3248:3251   */\n      dup3\n        /* \"#utility.yul\":3241:3275   */\n      mstore\n        /* \"#utility.yul\":3172:3281   */\n      pop\n      pop\n      jump\t// out\n        /* \"#utility.yul\":3287:3631   */\n    tag_230:\n        /* \"#utility.yul\":3365:3368   */\n      0x00\n        /* \"#utility.yul\":3393:3432   */\n      tag_232\n        /* \"#utility.yul\":3426:3431   */\n      dup3\n        /* \"#utility.yul\":3393:3432   */\n      tag_233\n      jump\t// in\n    tag_232:\n        /* \"#utility.yul\":3448:3509   */\n      tag_234\n        /* \"#utility.yul\":3502:3508   */\n      dup2\n        /* \"#utility.yul\":3497:3500   */\n      dup6\n        /* \"#utility.yul\":3448:3509   */\n      tag_235\n      jump\t// in\n    tag_234:\n        /* \"#utility.yul\":3441:3509   */\n      swap4\n      pop\n        /* \"#utility.yul\":3518:3570   */\n      tag_236\n        /* \"#utility.yul\":3563:3569   */\n      dup2\n        /* \"#utility.yul\":3558:3561   */\n      dup6\n        /* \"#utility.yul\":3551:3555   */\n      0x20\n        /* \"#utility.yul\":3544:3549   */\n      dup7\n        /* \"#utility.yul\":3540:3556   */\n      add\n        /* \"#utility.yul\":3518:3570   */\n      tag_237\n      jump\t// in\n    tag_236:\n        /* \"#utility.yul\":3595:3624   */\n      tag_238\n        /* \"#utility.yul\":3617:3623   */\n      dup2\n        /* \"#utility.yul\":3595:3624   */\n      tag_239\n      jump\t// in\n    tag_238:\n        /* \"#utility.yul\":3590:3593   */\n      dup5\n        /* \"#utility.yul\":3586:3625   */\n      add\n        /* \"#utility.yul\":3579:3625   */\n      swap2\n      pop\n        /* \"#utility.yul\":3369:3631   */\n      pop\n        /* \"#utility.yul\":3287:3631   */\n      swap3\n      swap2\n      pop\n      pop\n      jump\t// out\n        /* \"#utility.yul\":3637:4001   */\n    tag_240:\n        /* \"#utility.yul\":3725:3728   */\n      0x00\n        /* \"#utility.yul\":3753:3792   */\n      tag_242\n        /* \"#utility.yul\":3786:3791   */\n      dup3\n        /* \"#utility.yul\":3753:3792   */\n      tag_233\n      jump\t// in\n    tag_242:\n        /* \"#utility.yul\":3808:3879   */\n      tag_243\n        /* \"#utility.yul\":3872:3878   */\n      dup2\n        /* \"#utility.yul\":3867:3870   */\n      dup6\n        /* \"#utility.yul\":3808:3879   */\n      tag_244\n      jump\t// in\n    tag_243:\n        /* \"#utility.yul\":3801:3879   */\n      swap4\n      pop\n        /* \"#utility.yul\":3888:3940   */\n      tag_245\n        /* \"#utility.yul\":3933:3939   */\n      dup2\n        /* \"#utility.yul\":3928:3931   */\n      dup6\n        /* \"#utility.yul\":3921:3925   */\n      0x20\n        /* \"#utility.yul\":3914:3919   */\n      dup7\n        /* \"#utility.yul\":3910:3926   */\n      add\n        /* \"#utility.yul\":3888:3940   */\n      tag_237\n      jump\t// in\n    tag_245:\n        /* \"#utility.yul\":3965:3994   */\n      tag_246\n        /* \"#utility.yul\":3987:3993   */\n      dup2\n        /* \"#utility.yul\":3965:3994   */\n      tag_239\n      jump\t// in\n    tag_246:\n        /* \"#utility.yul\":3960:3963   */\n      dup5\n        /* \"#utility.yul\":3956:3995   */\n      add\n        /* \"#utility.yul\":3949:3995   */\n      swap2\n      pop\n        /* \"#utility.yul\":3729:4001   */\n      pop\n        /* \"#utility.yul\":3637:4001   */\n      swap3\n      swap2\n      pop\n      pop\n      jump\t// out\n        /* \"#utility.yul\":4007:4373   */\n    tag_247:\n        /* \"#utility.yul\":4149:4152   */\n      0x00\n        /* \"#utility.yul\":4170:4237   */\n      tag_249\n        /* \"#utility.yul\":4234:4236   */\n      0x16\n        /* \"#utility.yul\":4229:4232   */\n      dup4\n        /* \"#utility.yul\":4170:4237   */\n      tag_244\n      jump\t// in\n    tag_249:\n        /* \"#utility.yul\":4163:4237   */\n      swap2\n      pop\n        /* \"#utility.yul\":4246:4339   */\n      tag_250\n        /* \"#utility.yul\":4335:4338   */\n      dup3\n        /* \"#utility.yul\":4246:4339   */\n      tag_251\n      jump\t// in\n    tag_250:\n        /* \"#utility.yul\":4364:4366   */\n      0x20\n        /* \"#utility.yul\":4359:4362   */\n      dup3\n        /* \"#utility.yul\":4355:4367   */\n      add\n        /* \"#utility.yul\":4348:4367   */\n      swap1\n      pop\n        /* \"#utility.yul\":4007:4373   */\n      swap2\n      swap1\n      pop\n      jump\t// out\n        /* \"#utility.yul\":4379:4745   */\n    tag_252:\n        /* \"#utility.yul\":4521:4524   */\n      0x00\n        /* \"#utility.yul\":4542:4609   */\n      tag_254\n        /* \"#utility.yul\":4606:4608   */\n      0x15\n        /* \"#utility.yul\":4601:4604   */\n      dup4\n        /* \"#utility.yul\":4542:4609   */\n      tag_244\n      jump\t// in\n    tag_254:\n        /* \"#utility.yul\":4535:4609   */\n      swap2\n      pop\n        /* \"#utility.yul\":4618:4711   */\n      tag_255\n        /* \"#utility.yul\":4707:4710   */\n      dup3\n        /* \"#utility.yul\":4618:4711   */\n      tag_256\n      jump\t// in\n    tag_255:\n        /* \"#utility.yul\":4736:4738   */\n      0x20\n        /* \"#utility.yul\":4731:4734   */\n      dup3\n        /* \"#utility.yul\":4727:4739   */\n      add\n        /* \"#utility.yul\":4720:4739   */\n      swap1\n      pop\n        /* \"#utility.yul\":4379:4745   */\n      swap2\n      swap1\n      pop\n      jump\t// out\n        /* \"#utility.yul\":4751:5117   */\n    tag_257:\n        /* \"#utility.yul\":4893:4896   */\n      0x00\n        /* \"#utility.yul\":4914:4981   */\n      tag_259\n        /* \"#utility.yul\":4978:4980   */\n      0x13\n        /* \"#utility.yul\":4973:4976   */\n      dup4\n        /* \"#utility.yul\":4914:4981   */\n      tag_244\n      jump\t// in\n    tag_259:\n        /* \"#utility.yul\":4907:4981   */\n      swap2\n      pop\n        /* \"#utility.yul\":4990:5083   */\n      tag_260\n        /* \"#utility.yul\":5079:5082   */\n      dup3\n        /* \"#utility.yul\":4990:5083   */\n      tag_261\n      jump\t// in\n    tag_260:\n        /* \"#utility.yul\":5108:5110   */\n      0x20\n        /* \"#utility.yul\":5103:5106   */\n      dup3\n        /* \"#utility.yul\":5099:5111   */\n      add\n        /* \"#utility.yul\":5092:5111   */\n      swap1\n      pop\n        /* \"#utility.yul\":4751:5117   */\n      swap2\n      swap1\n      pop\n      jump\t// out\n        /* \"#utility.yul\":5169:6124   */\n    tag_262:\n        /* \"#utility.yul\":5278:5281   */\n      0x00\n        /* \"#utility.yul\":5314:5318   */\n      0x80\n        /* \"#utility.yul\":5309:5312   */\n      dup4\n        /* \"#utility.yul\":5305:5319   */\n      add\n        /* \"#utility.yul\":5410:5414   */\n      0x00\n        /* \"#utility.yul\":5403:5408   */\n      dup4\n        /* \"#utility.yul\":5399:5415   */\n      add\n        /* \"#utility.yul\":5393:5416   */\n      mload\n        /* \"#utility.yul\":5429:5492   */\n      tag_264\n        /* \"#utility.yul\":5486:5490   */\n      0x00\n        /* \"#utility.yul\":5481:5484   */\n      dup7\n        /* \"#utility.yul\":5477:5491   */\n      add\n        /* \"#utility.yul\":5463:5475   */\n      dup3\n        /* \"#utility.yul\":5429:5492   */\n      tag_216\n      jump\t// in\n    tag_264:\n        /* \"#utility.yul\":5329:5502   */\n      pop\n        /* \"#utility.yul\":5584:5588   */\n      0x20\n        /* \"#utility.yul\":5577:5582   */\n      dup4\n        /* \"#utility.yul\":5573:5589   */\n      add\n        /* \"#utility.yul\":5567:5590   */\n      mload\n        /* \"#utility.yul\":5637:5640   */\n      dup5\n        /* \"#utility.yul\":5631:5635   */\n      dup3\n        /* \"#utility.yul\":5627:5641   */\n      sub\n        /* \"#utility.yul\":5620:5624   */\n      0x20\n        /* \"#utility.yul\":5615:5618   */\n      dup7\n        /* \"#utility.yul\":5611:5625   */\n      add\n        /* \"#utility.yul\":5604:5642   */\n      mstore\n        /* \"#utility.yul\":5663:5736   */\n      tag_265\n        /* \"#utility.yul\":5731:5735   */\n      dup3\n        /* \"#utility.yul\":5717:5729   */\n      dup3\n        /* \"#utility.yul\":5663:5736   */\n      tag_230\n      jump\t// in\n    tag_265:\n        /* \"#utility.yul\":5655:5736   */\n      swap2\n      pop\n        /* \"#utility.yul\":5512:5747   */\n      pop\n        /* \"#utility.yul\":5831:5835   */\n      0x40\n        /* \"#utility.yul\":5824:5829   */\n      dup4\n        /* \"#utility.yul\":5820:5836   */\n      add\n        /* \"#utility.yul\":5814:5837   */\n      mload\n        /* \"#utility.yul\":5850:5913   */\n      tag_266\n        /* \"#utility.yul\":5907:5911   */\n      0x40\n        /* \"#utility.yul\":5902:5905   */\n      dup7\n        /* \"#utility.yul\":5898:5912   */\n      add\n        /* \"#utility.yul\":5884:5896   */\n      dup3\n        /* \"#utility.yul\":5850:5913   */\n      tag_267\n      jump\t// in\n    tag_266:\n        /* \"#utility.yul\":5757:5923   */\n      pop\n        /* \"#utility.yul\":6011:6015   */\n      0x60\n        /* \"#utility.yul\":6004:6009   */\n      dup4\n        /* \"#utility.yul\":6000:6016   */\n      add\n        /* \"#utility.yul\":5994:6017   */\n      mload\n        /* \"#utility.yul\":6030:6087   */\n      tag_268\n        /* \"#utility.yul\":6081:6085   */\n      0x60\n        /* \"#utility.yul\":6076:6079   */\n      dup7\n        /* \"#utility.yul\":6072:6086   */\n      add\n        /* \"#utility.yul\":6058:6070   */\n      dup3\n        /* \"#utility.yul\":6030:6087   */\n      tag_223\n      jump\t// in\n    tag_268:\n        /* \"#utility.yul\":5933:6097   */\n      pop\n        /* \"#utility.yul\":6114:6118   */\n      dup1\n        /* \"#utility.yul\":6107:6118   */\n      swap2\n      pop\n        /* \"#utility.yul\":5283:6124   */\n      pop\n        /* \"#utility.yul\":5169:6124   */\n      swap3\n      swap2\n      pop\n      pop\n      jump\t// out\n        /* \"#utility.yul\":6130:6238   */\n    tag_267:\n        /* \"#utility.yul\":6207:6231   */\n      tag_270\n        /* \"#utility.yul\":6225:6230   */\n      dup2\n        /* \"#utility.yul\":6207:6231   */\n      tag_271\n      jump\t// in\n    tag_270:\n        /* \"#utility.yul\":6202:6205   */\n      dup3\n        /* \"#utility.yul\":6195:6232   */\n      mstore\n        /* \"#utility.yul\":6130:6238   */\n      pop\n      pop\n      jump\t// out\n        /* \"#utility.yul\":6244:6362   */\n    tag_272:\n        /* \"#utility.yul\":6331:6355   */\n      tag_274\n        /* \"#utility.yul\":6349:6354   */\n      dup2\n        /* \"#utility.yul\":6331:6355   */\n      tag_271\n      jump\t// in\n    tag_274:\n        /* \"#utility.yul\":6326:6329   */\n      dup3\n        /* \"#utility.yul\":6319:6356   */\n      mstore\n        /* \"#utility.yul\":6244:6362   */\n      pop\n      pop\n      jump\t// out\n        /* \"#utility.yul\":6368:7000   */\n    tag_33:\n        /* \"#utility.yul\":6559:6563   */\n      0x00\n        /* \"#utility.yul\":6597:6600   */\n      0x80\n        /* \"#utility.yul\":6586:6595   */\n      dup3\n        /* \"#utility.yul\":6582:6601   */\n      add\n        /* \"#utility.yul\":6574:6601   */\n      swap1\n      pop\n        /* \"#utility.yul\":6611:6682   */\n      tag_276\n        /* \"#utility.yul\":6679:6680   */\n      0x00\n        /* \"#utility.yul\":6668:6677   */\n      dup4\n        /* \"#utility.yul\":6664:6681   */\n      add\n        /* \"#utility.yul\":6655:6661   */\n      dup8\n        /* \"#utility.yul\":6611:6682   */\n      tag_220\n      jump\t// in\n    tag_276:\n        /* \"#utility.yul\":6729:6738   */\n      dup2\n        /* \"#utility.yul\":6723:6727   */\n      dup2\n        /* \"#utility.yul\":6719:6739   */\n      sub\n        /* \"#utility.yul\":6714:6716   */\n      0x20\n        /* \"#utility.yul\":6703:6712   */\n      dup4\n        /* \"#utility.yul\":6699:6717   */\n      add\n        /* \"#utility.yul\":6692:6740   */\n      mstore\n        /* \"#utility.yul\":6757:6835   */\n      tag_277\n        /* \"#utility.yul\":6830:6834   */\n      dup2\n        /* \"#utility.yul\":6821:6827   */\n      dup7\n        /* \"#utility.yul\":6757:6835   */\n      tag_240\n      jump\t// in\n    tag_277:\n        /* \"#utility.yul\":6749:6835   */\n      swap1\n      pop\n        /* \"#utility.yul\":6845:6917   */\n      tag_278\n        /* \"#utility.yul\":6913:6915   */\n      0x40\n        /* \"#utility.yul\":6902:6911   */\n      dup4\n        /* \"#utility.yul\":6898:6916   */\n      add\n        /* \"#utility.yul\":6889:6895   */\n      dup6\n        /* \"#utility.yul\":6845:6917   */\n      tag_272\n      jump\t// in\n    tag_278:\n        /* \"#utility.yul\":6927:6993   */\n      tag_279\n        /* \"#utility.yul\":6989:6991   */\n      0x60\n        /* \"#utility.yul\":6978:6987   */\n      dup4\n        /* \"#utility.yul\":6974:6992   */\n      add\n        /* \"#utility.yul\":6965:6971   */\n      dup5\n        /* \"#utility.yul\":6927:6993   */\n      tag_227\n      jump\t// in\n    tag_279:\n        /* \"#utility.yul\":6368:7000   */\n      swap6\n      swap5\n      pop\n      pop\n      pop\n      pop\n      pop\n      jump\t// out\n        /* \"#utility.yul\":7006:7216   */\n    tag_18:\n        /* \"#utility.yul\":7093:7097   */\n      0x00\n        /* \"#utility.yul\":7131:7133   */\n      0x20\n        /* \"#utility.yul\":7120:7129   */\n      dup3\n        /* \"#utility.yul\":7116:7134   */\n      add\n        /* \"#utility.yul\":7108:7134   */\n      swap1\n      pop\n        /* \"#utility.yul\":7144:7209   */\n      tag_281\n        /* \"#utility.yul\":7206:7207   */\n      0x00\n        /* \"#utility.yul\":7195:7204   */\n      dup4\n        /* \"#utility.yul\":7191:7208   */\n      add\n        /* \"#utility.yul\":7182:7188   */\n      dup5\n        /* \"#utility.yul\":7144:7209   */\n      tag_227\n      jump\t// in\n    tag_281:\n        /* \"#utility.yul\":7006:7216   */\n      swap3\n      swap2\n      pop\n      pop\n      jump\t// out\n        /* \"#utility.yul\":7222:7641   */\n    tag_115:\n        /* \"#utility.yul\":7388:7392   */\n      0x00\n        /* \"#utility.yul\":7426:7428   */\n      0x20\n        /* \"#utility.yul\":7415:7424   */\n      dup3\n        /* \"#utility.yul\":7411:7429   */\n      add\n        /* \"#utility.yul\":7403:7429   */\n      swap1\n      pop\n        /* \"#utility.yul\":7475:7484   */\n      dup2\n        /* \"#utility.yul\":7469:7473   */\n      dup2\n        /* \"#utility.yul\":7465:7485   */\n      sub\n        /* \"#utility.yul\":7461:7462   */\n      0x00\n        /* \"#utility.yul\":7450:7459   */\n      dup4\n        /* \"#utility.yul\":7446:7463   */\n      add\n        /* \"#utility.yul\":7439:7486   */\n      mstore\n        /* \"#utility.yul\":7503:7634   */\n      tag_283\n        /* \"#utility.yul\":7629:7633   */\n      dup2\n        /* \"#utility.yul\":7503:7634   */\n      tag_247\n      jump\t// in\n    tag_283:\n        /* \"#utility.yul\":7495:7634   */\n      swap1\n      pop\n        /* \"#utility.yul\":7222:7641   */\n      swap2\n      swap1\n      pop\n      jump\t// out\n        /* \"#utility.yul\":7647:8066   */\n    tag_77:\n        /* \"#utility.yul\":7813:7817   */\n      0x00\n        /* \"#utility.yul\":7851:7853   */\n      0x20\n        /* \"#utility.yul\":7840:7849   */\n      dup3\n        /* \"#utility.yul\":7836:7854   */\n      add\n        /* \"#utility.yul\":7828:7854   */\n      swap1\n      pop\n        /* \"#utility.yul\":7900:7909   */\n      dup2\n        /* \"#utility.yul\":7894:7898   */\n      dup2\n        /* \"#utility.yul\":7890:7910   */\n      sub\n        /* \"#utility.yul\":7886:7887   */\n      0x00\n        /* \"#utility.yul\":7875:7884   */\n      dup4\n        /* \"#utility.yul\":7871:7888   */\n      add\n        /* \"#utility.yul\":7864:7911   */\n      mstore\n        /* \"#utility.yul\":7928:8059   */\n      tag_285\n        /* \"#utility.yul\":8054:8058   */\n      dup2\n        /* \"#utility.yul\":7928:8059   */\n      tag_252\n      jump\t// in\n    tag_285:\n        /* \"#utility.yul\":7920:8059   */\n      swap1\n      pop\n        /* \"#utility.yul\":7647:8066   */\n      swap2\n      swap1\n      pop\n      jump\t// out\n        /* \"#utility.yul\":8072:8491   */\n    tag_142:\n        /* \"#utility.yul\":8238:8242   */\n      0x00\n        /* \"#utility.yul\":8276:8278   */\n      0x20\n        /* \"#utility.yul\":8265:8274   */\n      dup3\n        /* \"#utility.yul\":8261:8279   */\n      add\n        /* \"#utility.yul\":8253:8279   */\n      swap1\n      pop\n        /* \"#utility.yul\":8325:8334   */\n      dup2\n        /* \"#utility.yul\":8319:8323   */\n      dup2\n        /* \"#utility.yul\":8315:8335   */\n      sub\n        /* \"#utility.yul\":8311:8312   */\n      0x00\n        /* \"#utility.yul\":8300:8309   */\n      dup4\n        /* \"#utility.yul\":8296:8313   */\n      add\n        /* \"#utility.yul\":8289:8336   */\n      mstore\n        /* \"#utility.yul\":8353:8484   */\n      tag_287\n        /* \"#utility.yul\":8479:8483   */\n      dup2\n        /* \"#utility.yul\":8353:8484   */\n      tag_257\n      jump\t// in\n    tag_287:\n        /* \"#utility.yul\":8345:8484   */\n      swap1\n      pop\n        /* \"#utility.yul\":8072:8491   */\n      swap2\n      swap1\n      pop\n      jump\t// out\n        /* \"#utility.yul\":8497:8850   */\n    tag_44:\n        /* \"#utility.yul\":8630:8634   */\n      0x00\n        /* \"#utility.yul\":8668:8670   */\n      0x20\n        /* \"#utility.yul\":8657:8666   */\n      dup3\n        /* \"#utility.yul\":8653:8671   */\n      add\n        /* \"#utility.yul\":8645:8671   */\n      swap1\n      pop\n        /* \"#utility.yul\":8717:8726   */\n      dup2\n        /* \"#utility.yul\":8711:8715   */\n      dup2\n        /* \"#utility.yul\":8707:8727   */\n      sub\n        /* \"#utility.yul\":8703:8704   */\n      0x00\n        /* \"#utility.yul\":8692:8701   */\n      dup4\n        /* \"#utility.yul\":8688:8705   */\n      add\n        /* \"#utility.yul\":8681:8728   */\n      mstore\n        /* \"#utility.yul\":8745:8843   */\n      tag_289\n        /* \"#utility.yul\":8838:8842   */\n      dup2\n        /* \"#utility.yul\":8829:8835   */\n      dup5\n        /* \"#utility.yul\":8745:8843   */\n      tag_262\n      jump\t// in\n    tag_289:\n        /* \"#utility.yul\":8737:8843   */\n      swap1\n      pop\n        /* \"#utility.yul\":8497:8850   */\n      swap3\n      swap2\n      pop\n      pop\n      jump\t// out\n        /* \"#utility.yul\":8856:9078   */\n    tag_55:\n        /* \"#utility.yul\":8949:8953   */\n      0x00\n        /* \"#utility.yul\":8987:8989   */\n      0x20\n        /* \"#utility.yul\":8976:8985   */\n      dup3\n        /* \"#utility.yul\":8972:8990   */\n      add\n        /* \"#utility.yul\":8964:8990   */\n      swap1\n      pop\n        /* \"#utility.yul\":9000:9071   */\n      tag_291\n        /* \"#utility.yul\":9068:9069   */\n      0x00\n        /* \"#utility.yul\":9057:9066   */\n      dup4\n        /* \"#utility.yul\":9053:9070   */\n      add\n        /* \"#utility.yul\":9044:9050   */\n      dup5\n        /* \"#utility.yul\":9000:9071   */\n      tag_272\n      jump\t// in\n    tag_291:\n        /* \"#utility.yul\":8856:9078   */\n      swap3\n      swap2\n      pop\n      pop\n      jump\t// out\n        /* \"#utility.yul\":9084:9213   */\n    tag_173:\n        /* \"#utility.yul\":9118:9124   */\n      0x00\n        /* \"#utility.yul\":9145:9165   */\n      tag_293\n      tag_294\n      jump\t// in\n    tag_293:\n        /* \"#utility.yul\":9135:9165   */\n      swap1\n      pop\n        /* \"#utility.yul\":9174:9207   */\n      tag_295\n        /* \"#utility.yul\":9202:9206   */\n      dup3\n        /* \"#utility.yul\":9194:9200   */\n      dup3\n        /* \"#utility.yul\":9174:9207   */\n      tag_296\n      jump\t// in\n    tag_295:\n        /* \"#utility.yul\":9084:9213   */\n      swap2\n      swap1\n      pop\n      jump\t// out\n        /* \"#utility.yul\":9219:9294   */\n    tag_294:\n        /* \"#utility.yul\":9252:9258   */\n      0x00\n        /* \"#utility.yul\":9285:9287   */\n      0x40\n        /* \"#utility.yul\":9279:9288   */\n      mload\n        /* \"#utility.yul\":9269:9288   */\n      swap1\n      pop\n        /* \"#utility.yul\":9219:9294   */\n      swap1\n      jump\t// out\n        /* \"#utility.yul\":9300:9608   */\n    tag_172:\n        /* \"#utility.yul\":9362:9366   */\n      0x00\n        /* \"#utility.yul\":9452:9470   */\n      0xffffffffffffffff\n        /* \"#utility.yul\":9444:9450   */\n      dup3\n        /* \"#utility.yul\":9441:9471   */\n      gt\n        /* \"#utility.yul\":9438:9494   */\n      iszero\n      tag_299\n      jumpi\n        /* \"#utility.yul\":9474:9492   */\n      tag_300\n      tag_301\n      jump\t// in\n    tag_300:\n        /* \"#utility.yul\":9438:9494   */\n    tag_299:\n        /* \"#utility.yul\":9512:9541   */\n      tag_302\n        /* \"#utility.yul\":9534:9540   */\n      dup3\n        /* \"#utility.yul\":9512:9541   */\n      tag_239\n      jump\t// in\n    tag_302:\n        /* \"#utility.yul\":9504:9541   */\n      swap1\n      pop\n        /* \"#utility.yul\":9596:9600   */\n      0x20\n        /* \"#utility.yul\":9590:9594   */\n      dup2\n        /* \"#utility.yul\":9586:9601   */\n      add\n        /* \"#utility.yul\":9578:9601   */\n      swap1\n      pop\n        /* \"#utility.yul\":9300:9608   */\n      swap2\n      swap1\n      pop\n      jump\t// out\n        /* \"#utility.yul\":9614:9713   */\n    tag_233:\n        /* \"#utility.yul\":9666:9672   */\n      0x00\n        /* \"#utility.yul\":9700:9705   */\n      dup2\n        /* \"#utility.yul\":9694:9706   */\n      mload\n        /* \"#utility.yul\":9684:9706   */\n      swap1\n      pop\n        /* \"#utility.yul\":9614:9713   */\n      swap2\n      swap1\n      pop\n      jump\t// out\n        /* \"#utility.yul\":9719:9878   */\n    tag_235:\n        /* \"#utility.yul\":9793:9804   */\n      0x00\n        /* \"#utility.yul\":9827:9833   */\n      dup3\n        /* \"#utility.yul\":9822:9825   */\n      dup3\n        /* \"#utility.yul\":9815:9834   */\n      mstore\n        /* \"#utility.yul\":9867:9871   */\n      0x20\n        /* \"#utility.yul\":9862:9865   */\n      dup3\n        /* \"#utility.yul\":9858:9872   */\n      add\n        /* \"#utility.yul\":9843:9872   */\n      swap1\n      pop\n        /* \"#utility.yul\":9719:9878   */\n      swap3\n      swap2\n      pop\n      pop\n      jump\t// out\n        /* \"#utility.yul\":9884:10053   */\n    tag_244:\n        /* \"#utility.yul\":9968:9979   */\n      0x00\n        /* \"#utility.yul\":10002:10008   */\n      dup3\n        /* \"#utility.yul\":9997:10000   */\n      dup3\n        /* \"#utility.yul\":9990:10009   */\n      mstore\n        /* \"#utility.yul\":10042:10046   */\n      0x20\n        /* \"#utility.yul\":10037:10040   */\n      dup3\n        /* \"#utility.yul\":10033:10047   */\n      add\n        /* \"#utility.yul\":10018:10047   */\n      swap1\n      pop\n        /* \"#utility.yul\":9884:10053   */\n      swap3\n      swap2\n      pop\n      pop\n      jump\t// out\n        /* \"#utility.yul\":10059:10364   */\n    tag_155:\n        /* \"#utility.yul\":10099:10102   */\n      0x00\n        /* \"#utility.yul\":10118:10138   */\n      tag_307\n        /* \"#utility.yul\":10136:10137   */\n      dup3\n        /* \"#utility.yul\":10118:10138   */\n      tag_271\n      jump\t// in\n    tag_307:\n        /* \"#utility.yul\":10113:10138   */\n      swap2\n      pop\n        /* \"#utility.yul\":10152:10172   */\n      tag_308\n        /* \"#utility.yul\":10170:10171   */\n      dup4\n        /* \"#utility.yul\":10152:10172   */\n      tag_271\n      jump\t// in\n    tag_308:\n        /* \"#utility.yul\":10147:10172   */\n      swap3\n      pop\n        /* \"#utility.yul\":10306:10307   */\n      dup3\n        /* \"#utility.yul\":10238:10304   */\n      0xffffffffffffffffffffffffffffffffffffffffffffffffffffffffffffffff\n        /* \"#utility.yul\":10234:10308   */\n      sub\n        /* \"#utility.yul\":10231:10232   */\n      dup3\n        /* \"#utility.yul\":10228:10309   */\n      gt\n        /* \"#utility.yul\":10225:10332   */\n      iszero\n      tag_309\n      jumpi\n        /* \"#utility.yul\":10312:10330   */\n      tag_310\n      tag_311\n      jump\t// in\n    tag_310:\n        /* \"#utility.yul\":10225:10332   */\n    tag_309:\n        /* \"#utility.yul\":10356:10357   */\n      dup3\n        /* \"#utility.yul\":10353:10354   */\n      dup3\n        /* \"#utility.yul\":10349:10358   */\n      add\n        /* \"#utility.yul\":10342:10358   */\n      swap1\n      pop\n        /* \"#utility.yul\":10059:10364   */\n      swap3\n      swap2\n      pop\n      pop\n      jump\t// out\n        /* \"#utility.yul\":10370:10466   */\n    tag_219:\n        /* \"#utility.yul\":10407:10414   */\n      0x00\n        /* \"#utility.yul\":10436:10460   */\n      tag_313\n        /* \"#utility.yul\":10454:10459   */\n      dup3\n        /* \"#utility.yul\":10436:10460   */\n      tag_314\n      jump\t// in\n    tag_313:\n        /* \"#utility.yul\":10425:10460   */\n      swap1\n      pop\n        /* \"#utility.yul\":10370:10466   */\n      swap2\n      swap1\n      pop\n      jump\t// out\n        /* \"#utility.yul\":10472:10562   */\n    tag_226:\n        /* \"#utility.yul\":10506:10513   */\n      0x00\n        /* \"#utility.yul\":10549:10554   */\n      dup2\n        /* \"#utility.yul\":10542:10555   */\n      iszero\n        /* \"#utility.yul\":10535:10556   */\n      iszero\n        /* \"#utility.yul\":10524:10556   */\n      swap1\n      pop\n        /* \"#utility.yul\":10472:10562   */\n      swap2\n      swap1\n      pop\n      jump\t// out\n        /* \"#utility.yul\":10568:10694   */\n    tag_314:\n        /* \"#utility.yul\":10605:10612   */\n      0x00\n        /* \"#utility.yul\":10645:10687   */\n      0xffffffffffffffffffffffffffffffffffffffff\n        /* \"#utility.yul\":10638:10643   */\n      dup3\n        /* \"#utility.yul\":10634:10688   */\n      and\n        /* \"#utility.yul\":10623:10688   */\n      swap1\n      pop\n        /* \"#utility.yul\":10568:10694   */\n      swap2\n      swap1\n      pop\n      jump\t// out\n        /* \"#utility.yul\":10700:10777   */\n    tag_271:\n        /* \"#utility.yul\":10737:10744   */\n      0x00\n        /* \"#utility.yul\":10766:10771   */\n      dup2\n        /* \"#utility.yul\":10755:10771   */\n      swap1\n      pop\n        /* \"#utility.yul\":10700:10777   */\n      swap2\n      swap1\n      pop\n      jump\t// out\n        /* \"#utility.yul\":10783:10937   */\n    tag_178:\n        /* \"#utility.yul\":10867:10873   */\n      dup3\n        /* \"#utility.yul\":10862:10865   */\n      dup2\n        /* \"#utility.yul\":10857:10860   */\n      dup4\n        /* \"#utility.yul\":10844:10874   */\n      calldatacopy\n        /* \"#utility.yul\":10929:10930   */\n      0x00\n        /* \"#utility.yul\":10920:10926   */\n      dup4\n        /* \"#utility.yul\":10915:10918   */\n      dup4\n        /* \"#utility.yul\":10911:10927   */\n      add\n        /* \"#utility.yul\":10904:10931   */\n      mstore\n        /* \"#utility.yul\":10783:10937   */\n      pop\n      pop\n      pop\n      jump\t// out\n        /* \"#utility.yul\":10943:11250   */\n    tag_237:\n        /* \"#utility.yul\":11011:11012   */\n      0x00\n        /* \"#utility.yul\":11021:11134   */\n    tag_320:\n        /* \"#utility.yul\":11035:11041   */\n      dup4\n        /* \"#utility.yul\":11032:11033   */\n      dup2\n        /* \"#utility.yul\":11029:11042   */\n      lt\n        /* \"#utility.yul\":11021:11134   */\n      iszero\n      tag_322\n      jumpi\n        /* \"#utility.yul\":11120:11121   */\n      dup1\n        /* \"#utility.yul\":11115:11118   */\n      dup3\n        /* \"#utility.yul\":11111:11122   */\n      add\n        /* \"#utility.yul\":11105:11123   */\n      mload\n        /* \"#utility.yul\":11101:11102   */\n      dup2\n        /* \"#utility.yul\":11096:11099   */\n      dup5\n        /* \"#utility.yul\":11092:11103   */\n      add\n        /* \"#utility.yul\":11085:11124   */\n      mstore\n        /* \"#utility.yul\":11057:11059   */\n      0x20\n        /* \"#utility.yul\":11054:11055   */\n      dup2\n        /* \"#utility.yul\":11050:11060   */\n      add\n        /* \"#utility.yul\":11045:11060   */\n      swap1\n      pop\n        /* \"#utility.yul\":11021:11134   */\n      jump(tag_320)\n    tag_322:\n        /* \"#utility.yul\":11152:11158   */\n      dup4\n        /* \"#utility.yul\":11149:11150   */\n      dup2\n        /* \"#utility.yul\":11146:11159   */\n      gt\n        /* \"#utility.yul\":11143:11244   */\n      iszero\n      tag_323\n      jumpi\n        /* \"#utility.yul\":11232:11233   */\n      0x00\n        /* \"#utility.yul\":11223:11229   */\n      dup5\n        /* \"#utility.yul\":11218:11221   */\n      dup5\n        /* \"#utility.yul\":11214:11230   */\n      add\n        /* \"#utility.yul\":11207:11234   */\n      mstore\n        /* \"#utility.yul\":11143:11244   */\n    tag_323:\n        /* \"#utility.yul\":10992:11250   */\n      pop\n        /* \"#utility.yul\":10943:11250   */\n      pop\n      pop\n      pop\n      jump\t// out\n        /* \"#utility.yul\":11256:11576   */\n    tag_85:\n        /* \"#utility.yul\":11300:11306   */\n      0x00\n        /* \"#utility.yul\":11337:11338   */\n      0x02\n        /* \"#utility.yul\":11331:11335   */\n      dup3\n        /* \"#utility.yul\":11327:11339   */\n      div\n        /* \"#utility.yul\":11317:11339   */\n      swap1\n      pop\n        /* \"#utility.yul\":11384:11385   */\n      0x01\n        /* \"#utility.yul\":11378:11382   */\n      dup3\n        /* \"#utility.yul\":11374:11386   */\n      and\n        /* \"#utility.yul\":11405:11423   */\n      dup1\n        /* \"#utility.yul\":11395:11476   */\n      tag_325\n      jumpi\n        /* \"#utility.yul\":11461:11465   */\n      0x7f\n        /* \"#utility.yul\":11453:11459   */\n      dup3\n        /* \"#utility.yul\":11449:11466   */\n      and\n        /* \"#utility.yul\":11439:11466   */\n      swap2\n      pop\n        /* \"#utility.yul\":11395:11476   */\n    tag_325:\n        /* \"#utility.yul\":11523:11525   */\n      0x20\n        /* \"#utility.yul\":11515:11521   */\n      dup3\n        /* \"#utility.yul\":11512:11526   */\n      lt\n        /* \"#utility.yul\":11492:11510   */\n      dup2\n        /* \"#utility.yul\":11489:11527   */\n      eq\n        /* \"#utility.yul\":11486:11570   */\n      iszero\n      tag_326\n      jumpi\n        /* \"#utility.yul\":11542:11560   */\n      tag_327\n      tag_328\n      jump\t// in\n    tag_327:\n        /* \"#utility.yul\":11486:11570   */\n    tag_326:\n        /* \"#utility.yul\":11307:11576   */\n      pop\n        /* \"#utility.yul\":11256:11576   */\n      swap2\n      swap1\n      pop\n      jump\t// out\n        /* \"#utility.yul\":11582:11863   */\n    tag_296:\n        /* \"#utility.yul\":11665:11692   */\n      tag_330\n        /* \"#utility.yul\":11687:11691   */\n      dup3\n        /* \"#utility.yul\":11665:11692   */\n      tag_239\n      jump\t// in\n    tag_330:\n        /* \"#utility.yul\":11657:11663   */\n      dup2\n        /* \"#utility.yul\":11653:11693   */\n      add\n        /* \"#utility.yul\":11795:11801   */\n      dup2\n        /* \"#utility.yul\":11783:11793   */\n      dup2\n        /* \"#utility.yul\":11780:11802   */\n      lt\n        /* \"#utility.yul\":11759:11777   */\n      0xffffffffffffffff\n        /* \"#utility.yul\":11747:11757   */\n      dup3\n        /* \"#utility.yul\":11744:11778   */\n      gt\n        /* \"#utility.yul\":11741:11803   */\n      or\n        /* \"#utility.yul\":11738:11826   */\n      iszero\n      tag_331\n      jumpi\n        /* \"#utility.yul\":11806:11824   */\n      tag_332\n      tag_301\n      jump\t// in\n    tag_332:\n        /* \"#utility.yul\":11738:11826   */\n    tag_331:\n        /* \"#utility.yul\":11846:11856   */\n      dup1\n        /* \"#utility.yul\":11842:11844   */\n      0x40\n        /* \"#utility.yul\":11835:11857   */\n      mstore\n        /* \"#utility.yul\":11625:11863   */\n      pop\n        /* \"#utility.yul\":11582:11863   */\n      pop\n      pop\n      jump\t// out\n        /* \"#utility.yul\":11869:12102   */\n    tag_70:\n        /* \"#utility.yul\":11908:11911   */\n      0x00\n        /* \"#utility.yul\":11931:11955   */\n      tag_334\n        /* \"#utility.yul\":11949:11954   */\n      dup3\n        /* \"#utility.yul\":11931:11955   */\n      tag_271\n      jump\t// in\n    tag_334:\n        /* \"#utility.yul\":11922:11955   */\n      swap2\n      pop\n        /* \"#utility.yul\":11977:12043   */\n      0xffffffffffffffffffffffffffffffffffffffffffffffffffffffffffffffff\n        /* \"#utility.yul\":11970:11975   */\n      dup3\n        /* \"#utility.yul\":11967:12044   */\n      eq\n        /* \"#utility.yul\":11964:12067   */\n      iszero\n      tag_335\n      jumpi\n        /* \"#utility.yul\":12047:12065   */\n      tag_336\n      tag_311\n      jump\t// in\n    tag_336:\n        /* \"#utility.yul\":11964:12067   */\n    tag_335:\n        /* \"#utility.yul\":12094:12095   */\n      0x01\n        /* \"#utility.yul\":12087:12092   */\n      dup3\n        /* \"#utility.yul\":12083:12096   */\n      add\n        /* \"#utility.yul\":12076:12096   */\n      swap1\n      pop\n        /* \"#utility.yul\":11869:12102   */\n      swap2\n      swap1\n      pop\n      jump\t// out\n        /* \"#utility.yul\":12108:12288   */\n    tag_311:\n        /* \"#utility.yul\":12156:12233   */\n      0x4e487b7100000000000000000000000000000000000000000000000000000000\n        /* \"#utility.yul\":12153:12154   */\n      0x00\n        /* \"#utility.yul\":12146:12234   */\n      mstore\n        /* \"#utility.yul\":12253:12257   */\n      0x11\n        /* \"#utility.yul\":12250:12251   */\n      0x04\n        /* \"#utility.yul\":12243:12258   */\n      mstore\n        /* \"#utility.yul\":12277:12281   */\n      0x24\n        /* \"#utility.yul\":12274:12275   */\n      0x00\n        /* \"#utility.yul\":12267:12282   */\n      revert\n        /* \"#utility.yul\":12294:12474   */\n    tag_328:\n        /* \"#utility.yul\":12342:12419   */\n      0x4e487b7100000000000000000000000000000000000000000000000000000000\n        /* \"#utility.yul\":12339:12340   */\n      0x00\n        /* \"#utility.yul\":12332:12420   */\n      mstore\n        /* \"#utility.yul\":12439:12443   */\n      0x22\n        /* \"#utility.yul\":12436:12437   */\n      0x04\n        /* \"#utility.yul\":12429:12444   */\n      mstore\n        /* \"#utility.yul\":12463:12467   */\n      0x24\n        /* \"#utility.yul\":12460:12461   */\n      0x00\n        /* \"#utility.yul\":12453:12468   */\n      revert\n        /* \"#utility.yul\":12480:12660   */\n    tag_66:\n        /* \"#utility.yul\":12528:12605   */\n      0x4e487b7100000000000000000000000000000000000000000000000000000000\n        /* \"#utility.yul\":12525:12526   */\n      0x00\n        /* \"#utility.yul\":12518:12606   */\n      mstore\n        /* \"#utility.yul\":12625:12629   */\n      0x32\n        /* \"#utility.yul\":12622:12623   */\n      0x04\n        /* \"#utility.yul\":12615:12630   */\n      mstore\n        /* \"#utility.yul\":12649:12653   */\n      0x24\n        /* \"#utility.yul\":12646:12647   */\n      0x00\n        /* \"#utility.yul\":12639:12654   */\n      revert\n        /* \"#utility.yul\":12666:12846   */\n    tag_301:\n        /* \"#utility.yul\":12714:12791   */\n      0x4e487b7100000000000000000000000000000000000000000000000000000000\n        /* \"#utility.yul\":12711:12712   */\n      0x00\n        /* \"#utility.yul\":12704:12792   */\n      mstore\n        /* \"#utility.yul\":12811:12815   */\n      0x41\n        /* \"#utility.yul\":12808:12809   */\n      0x04\n        /* \"#utility.yul\":12801:12816   */\n      mstore\n        /* \"#utility.yul\":12835:12839   */\n      0x24\n        /* \"#utility.yul\":12832:12833   */\n      0x00\n        /* \"#utility.yul\":12825:12840   */\n      revert\n        /* \"#utility.yul\":12852:12969   */\n    tag_191:\n        /* \"#utility.yul\":12961:12962   */\n      0x00\n        /* \"#utility.yul\":12958:12959   */\n      dup1\n        /* \"#utility.yul\":12951:12963   */\n      revert\n        /* \"#utility.yul\":12975:13092   */\n    tag_176:\n        /* \"#utility.yul\":13084:13085   */\n      0x00\n        /* \"#utility.yul\":13081:13082   */\n      dup1\n        /* \"#utility.yul\":13074:13086   */\n      revert\n        /* \"#utility.yul\":13098:13215   */\n    tag_208:\n        /* \"#utility.yul\":13207:13208   */\n      0x00\n        /* \"#utility.yul\":13204:13205   */\n      dup1\n        /* \"#utility.yul\":13197:13209   */\n      revert\n        /* \"#utility.yul\":13221:13338   */\n    tag_200:\n        /* \"#utility.yul\":13330:13331   */\n      0x00\n        /* \"#utility.yul\":13327:13328   */\n      dup1\n        /* \"#utility.yul\":13320:13332   */\n      revert\n        /* \"#utility.yul\":13344:13446   */\n    tag_239:\n        /* \"#utility.yul\":13385:13391   */\n      0x00\n        /* \"#utility.yul\":13436:13438   */\n      0x1f\n        /* \"#utility.yul\":13432:13439   */\n      not\n        /* \"#utility.yul\":13427:13429   */\n      0x1f\n        /* \"#utility.yul\":13420:13425   */\n      dup4\n        /* \"#utility.yul\":13416:13430   */\n      add\n        /* \"#utility.yul\":13412:13440   */\n      and\n        /* \"#utility.yul\":13402:13440   */\n      swap1\n      pop\n        /* \"#utility.yul\":13344:13446   */\n      swap2\n      swap1\n      pop\n      jump\t// out\n        /* \"#utility.yul\":13452:13624   */\n    tag_251:\n        /* \"#utility.yul\":13592:13616   */\n      0x496e76616c69642057616c6c6574204164647265737300000000000000000000\n        /* \"#utility.yul\":13588:13589   */\n      0x00\n        /* \"#utility.yul\":13580:13586   */\n      dup3\n        /* \"#utility.yul\":13576:13590   */\n      add\n        /* \"#utility.yul\":13569:13617   */\n      mstore\n        /* \"#utility.yul\":13452:13624   */\n      pop\n      jump\t// out\n        /* \"#utility.yul\":13630:13801   */\n    tag_256:\n        /* \"#utility.yul\":13770:13793   */\n      0x596f7520617265206e6f7420746865206f776e65720000000000000000000000\n        /* \"#utility.yul\":13766:13767   */\n      0x00\n        /* \"#utility.yul\":13758:13764   */\n      dup3\n        /* \"#utility.yul\":13754:13768   */\n      add\n        /* \"#utility.yul\":13747:13794   */\n      mstore\n        /* \"#utility.yul\":13630:13801   */\n      pop\n      jump\t// out\n        /* \"#utility.yul\":13807:13976   */\n    tag_261:\n        /* \"#utility.yul\":13947:13968   */\n      0x5573657220646f6573206e6f7420657869737400000000000000000000000000\n        /* \"#utility.yul\":13943:13944   */\n      0x00\n        /* \"#utility.yul\":13935:13941   */\n      dup3\n        /* \"#utility.yul\":13931:13945   */\n      add\n        /* \"#utility.yul\":13924:13969   */\n      mstore\n        /* \"#utility.yul\":13807:13976   */\n      pop\n      jump\t// out\n        /* \"#utility.yul\":13982:14104   */\n    tag_182:\n        /* \"#utility.yul\":14055:14079   */\n      tag_350\n        /* \"#utility.yul\":14073:14078   */\n      dup2\n        /* \"#utility.yul\":14055:14079   */\n      tag_219\n      jump\t// in\n    tag_350:\n        /* \"#utility.yul\":14048:14053   */\n      dup2\n        /* \"#utility.yul\":14045:14080   */\n      eq\n        /* \"#utility.yul\":14035:14098   */\n      tag_351\n      jumpi\n        /* \"#utility.yul\":14094:14095   */\n      0x00\n        /* \"#utility.yul\":14091:14092   */\n      dup1\n        /* \"#utility.yul\":14084:14096   */\n      revert\n        /* \"#utility.yul\":14035:14098   */\n    tag_351:\n        /* \"#utility.yul\":13982:14104   */\n      pop\n      jump\t// out\n        /* \"#utility.yul\":14110:14226   */\n    tag_186:\n        /* \"#utility.yul\":14180:14201   */\n      tag_353\n        /* \"#utility.yul\":14195:14200   */\n      dup2\n        /* \"#utility.yul\":14180:14201   */\n      tag_226\n      jump\t// in\n    tag_353:\n        /* \"#utility.yul\":14173:14178   */\n      dup2\n        /* \"#utility.yul\":14170:14202   */\n      eq\n        /* \"#utility.yul\":14160:14220   */\n      tag_354\n      jumpi\n        /* \"#utility.yul\":14216:14217   */\n      0x00\n        /* \"#utility.yul\":14213:14214   */\n      dup1\n        /* \"#utility.yul\":14206:14218   */\n      revert\n        /* \"#utility.yul\":14160:14220   */\n    tag_354:\n        /* \"#utility.yul\":14110:14226   */\n      pop\n      jump\t// out\n        /* \"#utility.yul\":14232:14354   */\n    tag_196:\n        /* \"#utility.yul\":14305:14329   */\n      tag_356\n        /* \"#utility.yul\":14323:14328   */\n      dup2\n        /* \"#utility.yul\":14305:14329   */\n      tag_271\n      jump\t// in\n    tag_356:\n        /* \"#utility.yul\":14298:14303   */\n      dup2\n        /* \"#utility.yul\":14295:14330   */\n      eq\n        /* \"#utility.yul\":14285:14348   */\n      tag_357\n      jumpi\n        /* \"#utility.yul\":14344:14345   */\n      0x00\n        /* \"#utility.yul\":14341:14342   */\n      dup1\n        /* \"#utility.yul\":14334:14346   */\n      revert\n        /* \"#utility.yul\":14285:14348   */\n    tag_357:\n        /* \"#utility.yul\":14232:14354   */\n      pop\n      jump\t// out\n\n    auxdata: 0xa264697066735822122002c5e9c52aa354b1d52f9e4afde92d1d5c6a8a3d57ebdd572b8fc5acb5bbfe0164736f6c63430008070033\n}\n",
				"bytecode": {
					"linkReferences": {},
					"object": "608060405234801561001057600080fd5b50336000806101000a81548173ffffffffffffffffffffffffffffffffffffffff021916908373ffffffffffffffffffffffffffffffffffffffff160217905550611573806100606000396000f3fe6080604052600436106100865760003560e01c80634140eb0d116100595780634140eb0d1461014d57806369c212f61461018a5780636f7bc9be146101c757806370a0823114610207578063d7bed4bc1461024457610086565b80630e666e491461008b5780631a695230146100c8578063280879e7146100e4578063365b98b21461010d575b600080fd5b34801561009757600080fd5b506100b260048036038101906100ad9190610e14565b61026d565b6040516100bf91906110d5565b60405180910390f35b6100e260048036038101906100dd9190610e14565b610323565b005b3480156100f057600080fd5b5061010b60048036038101906101069190610e41565b61032f565b005b34801561011957600080fd5b50610134600480360381019061012f9190610ec4565b6104b7565b6040516101449493929190611089565b60405180910390f35b34801561015957600080fd5b50610174600480360381019061016f9190610e14565b6105ac565b60405161018191906110d5565b60405180910390f35b34801561019657600080fd5b506101b160048036038101906101ac9190610e14565b6105c7565b6040516101be9190611150565b60405180910390f35b3480156101d357600080fd5b506101ee60048036038101906101e99190610e14565b61082b565b6040516101fe9493929190611089565b60405180910390f35b34801561021357600080fd5b5061022e60048036038101906102299190610e14565b610910565b60405161023b9190611172565b60405180910390f35b34801561025057600080fd5b5061026b60048036038101906102669190610e14565b6109eb565b005b600080600090505b600180549050811015610318578273ffffffffffffffffffffffffffffffffffffffff16600182815481106102ad576102ac6113fa565b5b906000526020600020906004020160000160009054906101000a900473ffffffffffffffffffffffffffffffffffffffff1673ffffffffffffffffffffffffffffffffffffffff16141561030557600191505061031e565b808061031090611353565b915050610275565b50600090505b919050565b61032c81610ba5565b50565b60008054906101000a900473ffffffffffffffffffffffffffffffffffffffff1673ffffffffffffffffffffffffffffffffffffffff163373ffffffffffffffffffffffffffffffffffffffff16146103bd576040517f08c379a00000000000000000000000000000000000000000000000000000000081526004016103b490611110565b60405180910390fd5b600160405180608001604052808673ffffffffffffffffffffffffffffffffffffffff168152602001858152602001848152602001831515815250908060018154018082558091505060019003906000526020600020906004020160009091909190915060008201518160000160006101000a81548173ffffffffffffffffffffffffffffffffffffffff021916908373ffffffffffffffffffffffffffffffffffffffff1602179055506020820151816001019080519060200190610484929190610c82565b506040820151816002015560608201518160030160006101000a81548160ff021916908315150217905550505050505050565b600181815481106104c757600080fd5b90600052602060002090600402016000915090508060000160009054906101000a900473ffffffffffffffffffffffffffffffffffffffff1690806001018054610510906112f0565b80601f016020809104026020016040519081016040528092919081815260200182805461053c906112f0565b80156105895780601f1061055e57610100808354040283529160200191610589565b820191906000526020600020905b81548152906001019060200180831161056c57829003601f168201915b5050505050908060020154908060030160009054906101000a900460ff16905084565b6000806105b8836105c7565b90508060600151915050919050565b6105cf610d08565b60005b6001805490508110156107ea578273ffffffffffffffffffffffffffffffffffffffff166001828154811061060a576106096113fa565b5b906000526020600020906004020160000160009054906101000a900473ffffffffffffffffffffffffffffffffffffffff1673ffffffffffffffffffffffffffffffffffffffff1614156107d757600180828154811061066d5761066c6113fa565b5b906000526020600020906004020160030160006101000a81548160ff021916908315150217905550600181815481106106a9576106a86113fa565b5b90600052602060002090600402016040518060800160405290816000820160009054906101000a900473ffffffffffffffffffffffffffffffffffffffff1673ffffffffffffffffffffffffffffffffffffffff1673ffffffffffffffffffffffffffffffffffffffff168152602001600182018054610728906112f0565b80601f0160208091040260200160405190810160405280929190818152602001828054610754906112f0565b80156107a15780601f10610776576101008083540402835291602001916107a1565b820191906000526020600020905b81548152906001019060200180831161078457829003601f168201915b50505050508152602001600282015481526020016003820160009054906101000a900460ff161515151581525050915050610826565b80806107e290611353565b9150506105d2565b506040517f08c379a000000000000000000000000000000000000000000000000000000000815260040161081d906110f0565b60405180910390fd5b919050565b60026020528060005260406000206000915090508060000160009054906101000a900473ffffffffffffffffffffffffffffffffffffffff1690806001018054610874906112f0565b80601f01602080910402602001604051908101604052809291908181526020018280546108a0906112f0565b80156108ed5780601f106108c2576101008083540402835291602001916108ed565b820191906000526020600020905b8154815290600101906020018083116108d057829003601f168201915b5050505050908060020154908060030160009054906101000a900460ff16905084565b600080600090505b6001805490508110156109df578273ffffffffffffffffffffffffffffffffffffffff16600182815481106109505761094f6113fa565b5b906000526020600020906004020160000160009054906101000a900473ffffffffffffffffffffffffffffffffffffffff1673ffffffffffffffffffffffffffffffffffffffff1614156109cc57600181815481106109b2576109b16113fa565b5b9060005260206000209060040201600201549150506109e6565b80806109d790611353565b915050610918565b506103e790505b919050565b60008054906101000a900473ffffffffffffffffffffffffffffffffffffffff1673ffffffffffffffffffffffffffffffffffffffff163373ffffffffffffffffffffffffffffffffffffffff1614610a79576040517f08c379a0000000000000000000000000000000000000000000000000000000008152600401610a7090611110565b60405180910390fd5b6000610a84826105c7565b9050610a93816000015161026d565b15610b6a5780600260008473ffffffffffffffffffffffffffffffffffffffff1673ffffffffffffffffffffffffffffffffffffffff16815260200190815260200160002060008201518160000160006101000a81548173ffffffffffffffffffffffffffffffffffffffff021916908373ffffffffffffffffffffffffffffffffffffffff1602179055506020820151816001019080519060200190610b3b929190610c82565b506040820151816002015560608201518160030160006101000a81548160ff0219169083151502179055509050505b6040517f08c379a0000000000000000000000000000000000000000000000000000000008152600401610b9c90611130565b60405180910390fd5b60005b600180549050811015610c7e578173ffffffffffffffffffffffffffffffffffffffff1660018281548110610be057610bdf6113fa565b5b906000526020600020906004020160000160009054906101000a900473ffffffffffffffffffffffffffffffffffffffff1673ffffffffffffffffffffffffffffffffffffffff161415610c6b573460018281548110610c4357610c426113fa565b5b90600052602060002090600402016002016000828254610c639190611210565b925050819055505b8080610c7690611353565b915050610ba8565b5050565b828054610c8e906112f0565b90600052602060002090601f016020900481019282610cb05760008555610cf7565b82601f10610cc957805160ff1916838001178555610cf7565b82800160010185558215610cf7579182015b82811115610cf6578251825591602001919060010190610cdb565b5b509050610d049190610d48565b5090565b6040518060800160405280600073ffffffffffffffffffffffffffffffffffffffff16815260200160608152602001600081526020016000151581525090565b5b80821115610d61576000816000905550600101610d49565b5090565b6000610d78610d73846111b2565b61118d565b905082815260208101848484011115610d9457610d9361145d565b5b610d9f8482856112ae565b509392505050565b600081359050610db6816114f8565b92915050565b600081359050610dcb8161150f565b92915050565b600082601f830112610de657610de5611458565b5b8135610df6848260208601610d65565b91505092915050565b600081359050610e0e81611526565b92915050565b600060208284031215610e2a57610e29611467565b5b6000610e3884828501610da7565b91505092915050565b60008060008060808587031215610e5b57610e5a611467565b5b6000610e6987828801610da7565b945050602085013567ffffffffffffffff811115610e8a57610e89611462565b5b610e9687828801610dd1565b9350506040610ea787828801610dff565b9250506060610eb887828801610dbc565b91505092959194509250565b600060208284031215610eda57610ed9611467565b5b6000610ee884828501610dff565b91505092915050565b610efa81611266565b82525050565b610f0981611266565b82525050565b610f1881611278565b82525050565b610f2781611278565b82525050565b6000610f38826111e3565b610f4281856111ee565b9350610f528185602086016112bd565b610f5b8161146c565b840191505092915050565b6000610f71826111e3565b610f7b81856111ff565b9350610f8b8185602086016112bd565b610f948161146c565b840191505092915050565b6000610fac6016836111ff565b9150610fb78261147d565b602082019050919050565b6000610fcf6015836111ff565b9150610fda826114a6565b602082019050919050565b6000610ff26013836111ff565b9150610ffd826114cf565b602082019050919050565b60006080830160008301516110206000860182610ef1565b50602083015184820360208601526110388282610f2d565b915050604083015161104d604086018261106b565b5060608301516110606060860182610f0f565b508091505092915050565b611074816112a4565b82525050565b611083816112a4565b82525050565b600060808201905061109e6000830187610f00565b81810360208301526110b08186610f66565b90506110bf604083018561107a565b6110cc6060830184610f1e565b95945050505050565b60006020820190506110ea6000830184610f1e565b92915050565b6000602082019050818103600083015261110981610f9f565b9050919050565b6000602082019050818103600083015261112981610fc2565b9050919050565b6000602082019050818103600083015261114981610fe5565b9050919050565b6000602082019050818103600083015261116a8184611008565b905092915050565b6000602082019050611187600083018461107a565b92915050565b60006111976111a8565b90506111a38282611322565b919050565b6000604051905090565b600067ffffffffffffffff8211156111cd576111cc611429565b5b6111d68261146c565b9050602081019050919050565b600081519050919050565b600082825260208201905092915050565b600082825260208201905092915050565b600061121b826112a4565b9150611226836112a4565b9250827fffffffffffffffffffffffffffffffffffffffffffffffffffffffffffffffff0382111561125b5761125a61139c565b5b828201905092915050565b600061127182611284565b9050919050565b60008115159050919050565b600073ffffffffffffffffffffffffffffffffffffffff82169050919050565b6000819050919050565b82818337600083830152505050565b60005b838110156112db5780820151818401526020810190506112c0565b838111156112ea576000848401525b50505050565b6000600282049050600182168061130857607f821691505b6020821081141561131c5761131b6113cb565b5b50919050565b61132b8261146c565b810181811067ffffffffffffffff8211171561134a57611349611429565b5b80604052505050565b600061135e826112a4565b91507fffffffffffffffffffffffffffffffffffffffffffffffffffffffffffffffff8214156113915761139061139c565b5b600182019050919050565b7f4e487b7100000000000000000000000000000000000000000000000000000000600052601160045260246000fd5b7f4e487b7100000000000000000000000000000000000000000000000000000000600052602260045260246000fd5b7f4e487b7100000000000000000000000000000000000000000000000000000000600052603260045260246000fd5b7f4e487b7100000000000000000000000000000000000000000000000000000000600052604160045260246000fd5b600080fd5b600080fd5b600080fd5b600080fd5b6000601f19601f8301169050919050565b7f496e76616c69642057616c6c6574204164647265737300000000000000000000600082015250565b7f596f7520617265206e6f7420746865206f776e65720000000000000000000000600082015250565b7f5573657220646f6573206e6f7420657869737400000000000000000000000000600082015250565b61150181611266565b811461150c57600080fd5b50565b61151881611278565b811461152357600080fd5b50565b61152f816112a4565b811461153a57600080fd5b5056fea264697066735822122002c5e9c52aa354b1d52f9e4afde92d1d5c6a8a3d57ebdd572b8fc5acb5bbfe0164736f6c63430008070033",
					"opcodes": "PUSH1 0x80 PUSH1 0x40 MSTORE CALLVALUE DUP1 ISZERO PUSH2 0x10 JUMPI PUSH1 0x0 DUP1 REVERT JUMPDEST POP CALLER PUSH1 0x0 DUP1 PUSH2 0x100 EXP DUP2 SLOAD DUP2 PUSH20 0xFFFFFFFFFFFFFFFFFFFFFFFFFFFFFFFFFFFFFFFF MUL NOT AND SWAP1 DUP4 PUSH20 0xFFFFFFFFFFFFFFFFFFFFFFFFFFFFFFFFFFFFFFFF AND MUL OR SWAP1 SSTORE POP PUSH2 0x1573 DUP1 PUSH2 0x60 PUSH1 0x0 CODECOPY PUSH1 0x0 RETURN INVALID PUSH1 0x80 PUSH1 0x40 MSTORE PUSH1 0x4 CALLDATASIZE LT PUSH2 0x86 JUMPI PUSH1 0x0 CALLDATALOAD PUSH1 0xE0 SHR DUP1 PUSH4 0x4140EB0D GT PUSH2 0x59 JUMPI DUP1 PUSH4 0x4140EB0D EQ PUSH2 0x14D JUMPI DUP1 PUSH4 0x69C212F6 EQ PUSH2 0x18A JUMPI DUP1 PUSH4 0x6F7BC9BE EQ PUSH2 0x1C7 JUMPI DUP1 PUSH4 0x70A08231 EQ PUSH2 0x207 JUMPI DUP1 PUSH4 0xD7BED4BC EQ PUSH2 0x244 JUMPI PUSH2 0x86 JUMP JUMPDEST DUP1 PUSH4 0xE666E49 EQ PUSH2 0x8B JUMPI DUP1 PUSH4 0x1A695230 EQ PUSH2 0xC8 JUMPI DUP1 PUSH4 0x280879E7 EQ PUSH2 0xE4 JUMPI DUP1 PUSH4 0x365B98B2 EQ PUSH2 0x10D JUMPI JUMPDEST PUSH1 0x0 DUP1 REVERT JUMPDEST CALLVALUE DUP1 ISZERO PUSH2 0x97 JUMPI PUSH1 0x0 DUP1 REVERT JUMPDEST POP PUSH2 0xB2 PUSH1 0x4 DUP1 CALLDATASIZE SUB DUP2 ADD SWAP1 PUSH2 0xAD SWAP2 SWAP1 PUSH2 0xE14 JUMP JUMPDEST PUSH2 0x26D JUMP JUMPDEST PUSH1 0x40 MLOAD PUSH2 0xBF SWAP2 SWAP1 PUSH2 0x10D5 JUMP JUMPDEST PUSH1 0x40 MLOAD DUP1 SWAP2 SUB SWAP1 RETURN JUMPDEST PUSH2 0xE2 PUSH1 0x4 DUP1 CALLDATASIZE SUB DUP2 ADD SWAP1 PUSH2 0xDD SWAP2 SWAP1 PUSH2 0xE14 JUMP JUMPDEST PUSH2 0x323 JUMP JUMPDEST STOP JUMPDEST CALLVALUE DUP1 ISZERO PUSH2 0xF0 JUMPI PUSH1 0x0 DUP1 REVERT JUMPDEST POP PUSH2 0x10B PUSH1 0x4 DUP1 CALLDATASIZE SUB DUP2 ADD SWAP1 PUSH2 0x106 SWAP2 SWAP1 PUSH2 0xE41 JUMP JUMPDEST PUSH2 0x32F JUMP JUMPDEST STOP JUMPDEST CALLVALUE DUP1 ISZERO PUSH2 0x119 JUMPI PUSH1 0x0 DUP1 REVERT JUMPDEST POP PUSH2 0x134 PUSH1 0x4 DUP1 CALLDATASIZE SUB DUP2 ADD SWAP1 PUSH2 0x12F SWAP2 SWAP1 PUSH2 0xEC4 JUMP JUMPDEST PUSH2 0x4B7 JUMP JUMPDEST PUSH1 0x40 MLOAD PUSH2 0x144 SWAP5 SWAP4 SWAP3 SWAP2 SWAP1 PUSH2 0x1089 JUMP JUMPDEST PUSH1 0x40 MLOAD DUP1 SWAP2 SUB SWAP1 RETURN JUMPDEST CALLVALUE DUP1 ISZERO PUSH2 0x159 JUMPI PUSH1 0x0 DUP1 REVERT JUMPDEST POP PUSH2 0x174 PUSH1 0x4 DUP1 CALLDATASIZE SUB DUP2 ADD SWAP1 PUSH2 0x16F SWAP2 SWAP1 PUSH2 0xE14 JUMP JUMPDEST PUSH2 0x5AC JUMP JUMPDEST PUSH1 0x40 MLOAD PUSH2 0x181 SWAP2 SWAP1 PUSH2 0x10D5 JUMP JUMPDEST PUSH1 0x40 MLOAD DUP1 SWAP2 SUB SWAP1 RETURN JUMPDEST CALLVALUE DUP1 ISZERO PUSH2 0x196 JUMPI PUSH1 0x0 DUP1 REVERT JUMPDEST POP PUSH2 0x1B1 PUSH1 0x4 DUP1 CALLDATASIZE SUB DUP2 ADD SWAP1 PUSH2 0x1AC SWAP2 SWAP1 PUSH2 0xE14 JUMP JUMPDEST PUSH2 0x5C7 JUMP JUMPDEST PUSH1 0x40 MLOAD PUSH2 0x1BE SWAP2 SWAP1 PUSH2 0x1150 JUMP JUMPDEST PUSH1 0x40 MLOAD DUP1 SWAP2 SUB SWAP1 RETURN JUMPDEST CALLVALUE DUP1 ISZERO PUSH2 0x1D3 JUMPI PUSH1 0x0 DUP1 REVERT JUMPDEST POP PUSH2 0x1EE PUSH1 0x4 DUP1 CALLDATASIZE SUB DUP2 ADD SWAP1 PUSH2 0x1E9 SWAP2 SWAP1 PUSH2 0xE14 JUMP JUMPDEST PUSH2 0x82B JUMP JUMPDEST PUSH1 0x40 MLOAD PUSH2 0x1FE SWAP5 SWAP4 SWAP3 SWAP2 SWAP1 PUSH2 0x1089 JUMP JUMPDEST PUSH1 0x40 MLOAD DUP1 SWAP2 SUB SWAP1 RETURN JUMPDEST CALLVALUE DUP1 ISZERO PUSH2 0x213 JUMPI PUSH1 0x0 DUP1 REVERT JUMPDEST POP PUSH2 0x22E PUSH1 0x4 DUP1 CALLDATASIZE SUB DUP2 ADD SWAP1 PUSH2 0x229 SWAP2 SWAP1 PUSH2 0xE14 JUMP JUMPDEST PUSH2 0x910 JUMP JUMPDEST PUSH1 0x40 MLOAD PUSH2 0x23B SWAP2 SWAP1 PUSH2 0x1172 JUMP JUMPDEST PUSH1 0x40 MLOAD DUP1 SWAP2 SUB SWAP1 RETURN JUMPDEST CALLVALUE DUP1 ISZERO PUSH2 0x250 JUMPI PUSH1 0x0 DUP1 REVERT JUMPDEST POP PUSH2 0x26B PUSH1 0x4 DUP1 CALLDATASIZE SUB DUP2 ADD SWAP1 PUSH2 0x266 SWAP2 SWAP1 PUSH2 0xE14 JUMP JUMPDEST PUSH2 0x9EB JUMP JUMPDEST STOP JUMPDEST PUSH1 0x0 DUP1 PUSH1 0x0 SWAP1 POP JUMPDEST PUSH1 0x1 DUP1 SLOAD SWAP1 POP DUP2 LT ISZERO PUSH2 0x318 JUMPI DUP3 PUSH20 0xFFFFFFFFFFFFFFFFFFFFFFFFFFFFFFFFFFFFFFFF AND PUSH1 0x1 DUP3 DUP2 SLOAD DUP2 LT PUSH2 0x2AD JUMPI PUSH2 0x2AC PUSH2 0x13FA JUMP JUMPDEST JUMPDEST SWAP1 PUSH1 0x0 MSTORE PUSH1 0x20 PUSH1 0x0 KECCAK256 SWAP1 PUSH1 0x4 MUL ADD PUSH1 0x0 ADD PUSH1 0x0 SWAP1 SLOAD SWAP1 PUSH2 0x100 EXP SWAP1 DIV PUSH20 0xFFFFFFFFFFFFFFFFFFFFFFFFFFFFFFFFFFFFFFFF AND PUSH20 0xFFFFFFFFFFFFFFFFFFFFFFFFFFFFFFFFFFFFFFFF AND EQ ISZERO PUSH2 0x305 JUMPI PUSH1 0x1 SWAP2 POP POP PUSH2 0x31E JUMP JUMPDEST DUP1 DUP1 PUSH2 0x310 SWAP1 PUSH2 0x1353 JUMP JUMPDEST SWAP2 POP POP PUSH2 0x275 JUMP JUMPDEST POP PUSH1 0x0 SWAP1 POP JUMPDEST SWAP2 SWAP1 POP JUMP JUMPDEST PUSH2 0x32C DUP2 PUSH2 0xBA5 JUMP JUMPDEST POP JUMP JUMPDEST PUSH1 0x0 DUP1 SLOAD SWAP1 PUSH2 0x100 EXP SWAP1 DIV PUSH20 0xFFFFFFFFFFFFFFFFFFFFFFFFFFFFFFFFFFFFFFFF AND PUSH20 0xFFFFFFFFFFFFFFFFFFFFFFFFFFFFFFFFFFFFFFFF AND CALLER PUSH20 0xFFFFFFFFFFFFFFFFFFFFFFFFFFFFFFFFFFFFFFFF AND EQ PUSH2 0x3BD JUMPI PUSH1 0x40 MLOAD PUSH32 0x8C379A000000000000000000000000000000000000000000000000000000000 DUP2 MSTORE PUSH1 0x4 ADD PUSH2 0x3B4 SWAP1 PUSH2 0x1110 JUMP JUMPDEST PUSH1 0x40 MLOAD DUP1 SWAP2 SUB SWAP1 REVERT JUMPDEST PUSH1 0x1 PUSH1 0x40 MLOAD DUP1 PUSH1 0x80 ADD PUSH1 0x40 MSTORE DUP1 DUP7 PUSH20 0xFFFFFFFFFFFFFFFFFFFFFFFFFFFFFFFFFFFFFFFF AND DUP2 MSTORE PUSH1 0x20 ADD DUP6 DUP2 MSTORE PUSH1 0x20 ADD DUP5 DUP2 MSTORE PUSH1 0x20 ADD DUP4 ISZERO ISZERO DUP2 MSTORE POP SWAP1 DUP1 PUSH1 0x1 DUP2 SLOAD ADD DUP1 DUP3 SSTORE DUP1 SWAP2 POP POP PUSH1 0x1 SWAP1 SUB SWAP1 PUSH1 0x0 MSTORE PUSH1 0x20 PUSH1 0x0 KECCAK256 SWAP1 PUSH1 0x4 MUL ADD PUSH1 0x0 SWAP1 SWAP2 SWAP1 SWAP2 SWAP1 SWAP2 POP PUSH1 0x0 DUP3 ADD MLOAD DUP2 PUSH1 0x0 ADD PUSH1 0x0 PUSH2 0x100 EXP DUP2 SLOAD DUP2 PUSH20 0xFFFFFFFFFFFFFFFFFFFFFFFFFFFFFFFFFFFFFFFF MUL NOT AND SWAP1 DUP4 PUSH20 0xFFFFFFFFFFFFFFFFFFFFFFFFFFFFFFFFFFFFFFFF AND MUL OR SWAP1 SSTORE POP PUSH1 0x20 DUP3 ADD MLOAD DUP2 PUSH1 0x1 ADD SWAP1 DUP1 MLOAD SWAP1 PUSH1 0x20 ADD SWAP1 PUSH2 0x484 SWAP3 SWAP2 SWAP1 PUSH2 0xC82 JUMP JUMPDEST POP PUSH1 0x40 DUP3 ADD MLOAD DUP2 PUSH1 0x2 ADD SSTORE PUSH1 0x60 DUP3 ADD MLOAD DUP2 PUSH1 0x3 ADD PUSH1 0x0 PUSH2 0x100 EXP DUP2 SLOAD DUP2 PUSH1 0xFF MUL NOT AND SWAP1 DUP4 ISZERO ISZERO MUL OR SWAP1 SSTORE POP POP POP POP POP POP POP JUMP JUMPDEST PUSH1 0x1 DUP2 DUP2 SLOAD DUP2 LT PUSH2 0x4C7 JUMPI PUSH1 0x0 DUP1 REVERT JUMPDEST SWAP1 PUSH1 0x0 MSTORE PUSH1 0x20 PUSH1 0x0 KECCAK256 SWAP1 PUSH1 0x4 MUL ADD PUSH1 0x0 SWAP2 POP SWAP1 POP DUP1 PUSH1 0x0 ADD PUSH1 0x0 SWAP1 SLOAD SWAP1 PUSH2 0x100 EXP SWAP1 DIV PUSH20 0xFFFFFFFFFFFFFFFFFFFFFFFFFFFFFFFFFFFFFFFF AND SWAP1 DUP1 PUSH1 0x1 ADD DUP1 SLOAD PUSH2 0x510 SWAP1 PUSH2 0x12F0 JUMP JUMPDEST DUP1 PUSH1 0x1F ADD PUSH1 0x20 DUP1 SWAP2 DIV MUL PUSH1 0x20 ADD PUSH1 0x40 MLOAD SWAP1 DUP2 ADD PUSH1 0x40 MSTORE DUP1 SWAP3 SWAP2 SWAP1 DUP2 DUP2 MSTORE PUSH1 0x20 ADD DUP3 DUP1 SLOAD PUSH2 0x53C SWAP1 PUSH2 0x12F0 JUMP JUMPDEST DUP1 ISZERO PUSH2 0x589 JUMPI DUP1 PUSH1 0x1F LT PUSH2 0x55E JUMPI PUSH2 0x100 DUP1 DUP4 SLOAD DIV MUL DUP4 MSTORE SWAP2 PUSH1 0x20 ADD SWAP2 PUSH2 0x589 JUMP JUMPDEST DUP3 ADD SWAP2 SWAP1 PUSH1 0x0 MSTORE PUSH1 0x20 PUSH1 0x0 KECCAK256 SWAP1 JUMPDEST DUP2 SLOAD DUP2 MSTORE SWAP1 PUSH1 0x1 ADD SWAP1 PUSH1 0x20 ADD DUP1 DUP4 GT PUSH2 0x56C JUMPI DUP3 SWAP1 SUB PUSH1 0x1F AND DUP3 ADD SWAP2 JUMPDEST POP POP POP POP POP SWAP1 DUP1 PUSH1 0x2 ADD SLOAD SWAP1 DUP1 PUSH1 0x3 ADD PUSH1 0x0 SWAP1 SLOAD SWAP1 PUSH2 0x100 EXP SWAP1 DIV PUSH1 0xFF AND SWAP1 POP DUP5 JUMP JUMPDEST PUSH1 0x0 DUP1 PUSH2 0x5B8 DUP4 PUSH2 0x5C7 JUMP JUMPDEST SWAP1 POP DUP1 PUSH1 0x60 ADD MLOAD SWAP2 POP POP SWAP2 SWAP1 POP JUMP JUMPDEST PUSH2 0x5CF PUSH2 0xD08 JUMP JUMPDEST PUSH1 0x0 JUMPDEST PUSH1 0x1 DUP1 SLOAD SWAP1 POP DUP2 LT ISZERO PUSH2 0x7EA JUMPI DUP3 PUSH20 0xFFFFFFFFFFFFFFFFFFFFFFFFFFFFFFFFFFFFFFFF AND PUSH1 0x1 DUP3 DUP2 SLOAD DUP2 LT PUSH2 0x60A JUMPI PUSH2 0x609 PUSH2 0x13FA JUMP JUMPDEST JUMPDEST SWAP1 PUSH1 0x0 MSTORE PUSH1 0x20 PUSH1 0x0 KECCAK256 SWAP1 PUSH1 0x4 MUL ADD PUSH1 0x0 ADD PUSH1 0x0 SWAP1 SLOAD SWAP1 PUSH2 0x100 EXP SWAP1 DIV PUSH20 0xFFFFFFFFFFFFFFFFFFFFFFFFFFFFFFFFFFFFFFFF AND PUSH20 0xFFFFFFFFFFFFFFFFFFFFFFFFFFFFFFFFFFFFFFFF AND EQ ISZERO PUSH2 0x7D7 JUMPI PUSH1 0x1 DUP1 DUP3 DUP2 SLOAD DUP2 LT PUSH2 0x66D JUMPI PUSH2 0x66C PUSH2 0x13FA JUMP JUMPDEST JUMPDEST SWAP1 PUSH1 0x0 MSTORE PUSH1 0x20 PUSH1 0x0 KECCAK256 SWAP1 PUSH1 0x4 MUL ADD PUSH1 0x3 ADD PUSH1 0x0 PUSH2 0x100 EXP DUP2 SLOAD DUP2 PUSH1 0xFF MUL NOT AND SWAP1 DUP4 ISZERO ISZERO MUL OR SWAP1 SSTORE POP PUSH1 0x1 DUP2 DUP2 SLOAD DUP2 LT PUSH2 0x6A9 JUMPI PUSH2 0x6A8 PUSH2 0x13FA JUMP JUMPDEST JUMPDEST SWAP1 PUSH1 0x0 MSTORE PUSH1 0x20 PUSH1 0x0 KECCAK256 SWAP1 PUSH1 0x4 MUL ADD PUSH1 0x40 MLOAD DUP1 PUSH1 0x80 ADD PUSH1 0x40 MSTORE SWAP1 DUP2 PUSH1 0x0 DUP3 ADD PUSH1 0x0 SWAP1 SLOAD SWAP1 PUSH2 0x100 EXP SWAP1 DIV PUSH20 0xFFFFFFFFFFFFFFFFFFFFFFFFFFFFFFFFFFFFFFFF AND PUSH20 0xFFFFFFFFFFFFFFFFFFFFFFFFFFFFFFFFFFFFFFFF AND PUSH20 0xFFFFFFFFFFFFFFFFFFFFFFFFFFFFFFFFFFFFFFFF AND DUP2 MSTORE PUSH1 0x20 ADD PUSH1 0x1 DUP3 ADD DUP1 SLOAD PUSH2 0x728 SWAP1 PUSH2 0x12F0 JUMP JUMPDEST DUP1 PUSH1 0x1F ADD PUSH1 0x20 DUP1 SWAP2 DIV MUL PUSH1 0x20 ADD PUSH1 0x40 MLOAD SWAP1 DUP2 ADD PUSH1 0x40 MSTORE DUP1 SWAP3 SWAP2 SWAP1 DUP2 DUP2 MSTORE PUSH1 0x20 ADD DUP3 DUP1 SLOAD PUSH2 0x754 SWAP1 PUSH2 0x12F0 JUMP JUMPDEST DUP1 ISZERO PUSH2 0x7A1 JUMPI DUP1 PUSH1 0x1F LT PUSH2 0x776 JUMPI PUSH2 0x100 DUP1 DUP4 SLOAD DIV MUL DUP4 MSTORE SWAP2 PUSH1 0x20 ADD SWAP2 PUSH2 0x7A1 JUMP JUMPDEST DUP3 ADD SWAP2 SWAP1 PUSH1 0x0 MSTORE PUSH1 0x20 PUSH1 0x0 KECCAK256 SWAP1 JUMPDEST DUP2 SLOAD DUP2 MSTORE SWAP1 PUSH1 0x1 ADD SWAP1 PUSH1 0x20 ADD DUP1 DUP4 GT PUSH2 0x784 JUMPI DUP3 SWAP1 SUB PUSH1 0x1F AND DUP3 ADD SWAP2 JUMPDEST POP POP POP POP POP DUP2 MSTORE PUSH1 0x20 ADD PUSH1 0x2 DUP3 ADD SLOAD DUP2 MSTORE PUSH1 0x20 ADD PUSH1 0x3 DUP3 ADD PUSH1 0x0 SWAP1 SLOAD SWAP1 PUSH2 0x100 EXP SWAP1 DIV PUSH1 0xFF AND ISZERO ISZERO ISZERO ISZERO DUP2 MSTORE POP POP SWAP2 POP POP PUSH2 0x826 JUMP JUMPDEST DUP1 DUP1 PUSH2 0x7E2 SWAP1 PUSH2 0x1353 JUMP JUMPDEST SWAP2 POP POP PUSH2 0x5D2 JUMP JUMPDEST POP PUSH1 0x40 MLOAD PUSH32 0x8C379A000000000000000000000000000000000000000000000000000000000 DUP2 MSTORE PUSH1 0x4 ADD PUSH2 0x81D SWAP1 PUSH2 0x10F0 JUMP JUMPDEST PUSH1 0x40 MLOAD DUP1 SWAP2 SUB SWAP1 REVERT JUMPDEST SWAP2 SWAP1 POP JUMP JUMPDEST PUSH1 0x2 PUSH1 0x20 MSTORE DUP1 PUSH1 0x0 MSTORE PUSH1 0x40 PUSH1 0x0 KECCAK256 PUSH1 0x0 SWAP2 POP SWAP1 POP DUP1 PUSH1 0x0 ADD PUSH1 0x0 SWAP1 SLOAD SWAP1 PUSH2 0x100 EXP SWAP1 DIV PUSH20 0xFFFFFFFFFFFFFFFFFFFFFFFFFFFFFFFFFFFFFFFF AND SWAP1 DUP1 PUSH1 0x1 ADD DUP1 SLOAD PUSH2 0x874 SWAP1 PUSH2 0x12F0 JUMP JUMPDEST DUP1 PUSH1 0x1F ADD PUSH1 0x20 DUP1 SWAP2 DIV MUL PUSH1 0x20 ADD PUSH1 0x40 MLOAD SWAP1 DUP2 ADD PUSH1 0x40 MSTORE DUP1 SWAP3 SWAP2 SWAP1 DUP2 DUP2 MSTORE PUSH1 0x20 ADD DUP3 DUP1 SLOAD PUSH2 0x8A0 SWAP1 PUSH2 0x12F0 JUMP JUMPDEST DUP1 ISZERO PUSH2 0x8ED JUMPI DUP1 PUSH1 0x1F LT PUSH2 0x8C2 JUMPI PUSH2 0x100 DUP1 DUP4 SLOAD DIV MUL DUP4 MSTORE SWAP2 PUSH1 0x20 ADD SWAP2 PUSH2 0x8ED JUMP JUMPDEST DUP3 ADD SWAP2 SWAP1 PUSH1 0x0 MSTORE PUSH1 0x20 PUSH1 0x0 KECCAK256 SWAP1 JUMPDEST DUP2 SLOAD DUP2 MSTORE SWAP1 PUSH1 0x1 ADD SWAP1 PUSH1 0x20 ADD DUP1 DUP4 GT PUSH2 0x8D0 JUMPI DUP3 SWAP1 SUB PUSH1 0x1F AND DUP3 ADD SWAP2 JUMPDEST POP POP POP POP POP SWAP1 DUP1 PUSH1 0x2 ADD SLOAD SWAP1 DUP1 PUSH1 0x3 ADD PUSH1 0x0 SWAP1 SLOAD SWAP1 PUSH2 0x100 EXP SWAP1 DIV PUSH1 0xFF AND SWAP1 POP DUP5 JUMP JUMPDEST PUSH1 0x0 DUP1 PUSH1 0x0 SWAP1 POP JUMPDEST PUSH1 0x1 DUP1 SLOAD SWAP1 POP DUP2 LT ISZERO PUSH2 0x9DF JUMPI DUP3 PUSH20 0xFFFFFFFFFFFFFFFFFFFFFFFFFFFFFFFFFFFFFFFF AND PUSH1 0x1 DUP3 DUP2 SLOAD DUP2 LT PUSH2 0x950 JUMPI PUSH2 0x94F PUSH2 0x13FA JUMP JUMPDEST JUMPDEST SWAP1 PUSH1 0x0 MSTORE PUSH1 0x20 PUSH1 0x0 KECCAK256 SWAP1 PUSH1 0x4 MUL ADD PUSH1 0x0 ADD PUSH1 0x0 SWAP1 SLOAD SWAP1 PUSH2 0x100 EXP SWAP1 DIV PUSH20 0xFFFFFFFFFFFFFFFFFFFFFFFFFFFFFFFFFFFFFFFF AND PUSH20 0xFFFFFFFFFFFFFFFFFFFFFFFFFFFFFFFFFFFFFFFF AND EQ ISZERO PUSH2 0x9CC JUMPI PUSH1 0x1 DUP2 DUP2 SLOAD DUP2 LT PUSH2 0x9B2 JUMPI PUSH2 0x9B1 PUSH2 0x13FA JUMP JUMPDEST JUMPDEST SWAP1 PUSH1 0x0 MSTORE PUSH1 0x20 PUSH1 0x0 KECCAK256 SWAP1 PUSH1 0x4 MUL ADD PUSH1 0x2 ADD SLOAD SWAP2 POP POP PUSH2 0x9E6 JUMP JUMPDEST DUP1 DUP1 PUSH2 0x9D7 SWAP1 PUSH2 0x1353 JUMP JUMPDEST SWAP2 POP POP PUSH2 0x918 JUMP JUMPDEST POP PUSH2 0x3E7 SWAP1 POP JUMPDEST SWAP2 SWAP1 POP JUMP JUMPDEST PUSH1 0x0 DUP1 SLOAD SWAP1 PUSH2 0x100 EXP SWAP1 DIV PUSH20 0xFFFFFFFFFFFFFFFFFFFFFFFFFFFFFFFFFFFFFFFF AND PUSH20 0xFFFFFFFFFFFFFFFFFFFFFFFFFFFFFFFFFFFFFFFF AND CALLER PUSH20 0xFFFFFFFFFFFFFFFFFFFFFFFFFFFFFFFFFFFFFFFF AND EQ PUSH2 0xA79 JUMPI PUSH1 0x40 MLOAD PUSH32 0x8C379A000000000000000000000000000000000000000000000000000000000 DUP2 MSTORE PUSH1 0x4 ADD PUSH2 0xA70 SWAP1 PUSH2 0x1110 JUMP JUMPDEST PUSH1 0x40 MLOAD DUP1 SWAP2 SUB SWAP1 REVERT JUMPDEST PUSH1 0x0 PUSH2 0xA84 DUP3 PUSH2 0x5C7 JUMP JUMPDEST SWAP1 POP PUSH2 0xA93 DUP2 PUSH1 0x0 ADD MLOAD PUSH2 0x26D JUMP JUMPDEST ISZERO PUSH2 0xB6A JUMPI DUP1 PUSH1 0x2 PUSH1 0x0 DUP5 PUSH20 0xFFFFFFFFFFFFFFFFFFFFFFFFFFFFFFFFFFFFFFFF AND PUSH20 0xFFFFFFFFFFFFFFFFFFFFFFFFFFFFFFFFFFFFFFFF AND DUP2 MSTORE PUSH1 0x20 ADD SWAP1 DUP2 MSTORE PUSH1 0x20 ADD PUSH1 0x0 KECCAK256 PUSH1 0x0 DUP3 ADD MLOAD DUP2 PUSH1 0x0 ADD PUSH1 0x0 PUSH2 0x100 EXP DUP2 SLOAD DUP2 PUSH20 0xFFFFFFFFFFFFFFFFFFFFFFFFFFFFFFFFFFFFFFFF MUL NOT AND SWAP1 DUP4 PUSH20 0xFFFFFFFFFFFFFFFFFFFFFFFFFFFFFFFFFFFFFFFF AND MUL OR SWAP1 SSTORE POP PUSH1 0x20 DUP3 ADD MLOAD DUP2 PUSH1 0x1 ADD SWAP1 DUP1 MLOAD SWAP1 PUSH1 0x20 ADD SWAP1 PUSH2 0xB3B SWAP3 SWAP2 SWAP1 PUSH2 0xC82 JUMP JUMPDEST POP PUSH1 0x40 DUP3 ADD MLOAD DUP2 PUSH1 0x2 ADD SSTORE PUSH1 0x60 DUP3 ADD MLOAD DUP2 PUSH1 0x3 ADD PUSH1 0x0 PUSH2 0x100 EXP DUP2 SLOAD DUP2 PUSH1 0xFF MUL NOT AND SWAP1 DUP4 ISZERO ISZERO MUL OR SWAP1 SSTORE POP SWAP1 POP POP JUMPDEST PUSH1 0x40 MLOAD PUSH32 0x8C379A000000000000000000000000000000000000000000000000000000000 DUP2 MSTORE PUSH1 0x4 ADD PUSH2 0xB9C SWAP1 PUSH2 0x1130 JUMP JUMPDEST PUSH1 0x40 MLOAD DUP1 SWAP2 SUB SWAP1 REVERT JUMPDEST PUSH1 0x0 JUMPDEST PUSH1 0x1 DUP1 SLOAD SWAP1 POP DUP2 LT ISZERO PUSH2 0xC7E JUMPI DUP2 PUSH20 0xFFFFFFFFFFFFFFFFFFFFFFFFFFFFFFFFFFFFFFFF AND PUSH1 0x1 DUP3 DUP2 SLOAD DUP2 LT PUSH2 0xBE0 JUMPI PUSH2 0xBDF PUSH2 0x13FA JUMP JUMPDEST JUMPDEST SWAP1 PUSH1 0x0 MSTORE PUSH1 0x20 PUSH1 0x0 KECCAK256 SWAP1 PUSH1 0x4 MUL ADD PUSH1 0x0 ADD PUSH1 0x0 SWAP1 SLOAD SWAP1 PUSH2 0x100 EXP SWAP1 DIV PUSH20 0xFFFFFFFFFFFFFFFFFFFFFFFFFFFFFFFFFFFFFFFF AND PUSH20 0xFFFFFFFFFFFFFFFFFFFFFFFFFFFFFFFFFFFFFFFF AND EQ ISZERO PUSH2 0xC6B JUMPI CALLVALUE PUSH1 0x1 DUP3 DUP2 SLOAD DUP2 LT PUSH2 0xC43 JUMPI PUSH2 0xC42 PUSH2 0x13FA JUMP JUMPDEST JUMPDEST SWAP1 PUSH1 0x0 MSTORE PUSH1 0x20 PUSH1 0x0 KECCAK256 SWAP1 PUSH1 0x4 MUL ADD PUSH1 0x2 ADD PUSH1 0x0 DUP3 DUP3 SLOAD PUSH2 0xC63 SWAP2 SWAP1 PUSH2 0x1210 JUMP JUMPDEST SWAP3 POP POP DUP2 SWAP1 SSTORE POP JUMPDEST DUP1 DUP1 PUSH2 0xC76 SWAP1 PUSH2 0x1353 JUMP JUMPDEST SWAP2 POP POP PUSH2 0xBA8 JUMP JUMPDEST POP POP JUMP JUMPDEST DUP3 DUP1 SLOAD PUSH2 0xC8E SWAP1 PUSH2 0x12F0 JUMP JUMPDEST SWAP1 PUSH1 0x0 MSTORE PUSH1 0x20 PUSH1 0x0 KECCAK256 SWAP1 PUSH1 0x1F ADD PUSH1 0x20 SWAP1 DIV DUP2 ADD SWAP3 DUP3 PUSH2 0xCB0 JUMPI PUSH1 0x0 DUP6 SSTORE PUSH2 0xCF7 JUMP JUMPDEST DUP3 PUSH1 0x1F LT PUSH2 0xCC9 JUMPI DUP1 MLOAD PUSH1 0xFF NOT AND DUP4 DUP1 ADD OR DUP6 SSTORE PUSH2 0xCF7 JUMP JUMPDEST DUP3 DUP1 ADD PUSH1 0x1 ADD DUP6 SSTORE DUP3 ISZERO PUSH2 0xCF7 JUMPI SWAP2 DUP3 ADD JUMPDEST DUP3 DUP2 GT ISZERO PUSH2 0xCF6 JUMPI DUP3 MLOAD DUP3 SSTORE SWAP2 PUSH1 0x20 ADD SWAP2 SWAP1 PUSH1 0x1 ADD SWAP1 PUSH2 0xCDB JUMP JUMPDEST JUMPDEST POP SWAP1 POP PUSH2 0xD04 SWAP2 SWAP1 PUSH2 0xD48 JUMP JUMPDEST POP SWAP1 JUMP JUMPDEST PUSH1 0x40 MLOAD DUP1 PUSH1 0x80 ADD PUSH1 0x40 MSTORE DUP1 PUSH1 0x0 PUSH20 0xFFFFFFFFFFFFFFFFFFFFFFFFFFFFFFFFFFFFFFFF AND DUP2 MSTORE PUSH1 0x20 ADD PUSH1 0x60 DUP2 MSTORE PUSH1 0x20 ADD PUSH1 0x0 DUP2 MSTORE PUSH1 0x20 ADD PUSH1 0x0 ISZERO ISZERO DUP2 MSTORE POP SWAP1 JUMP JUMPDEST JUMPDEST DUP1 DUP3 GT ISZERO PUSH2 0xD61 JUMPI PUSH1 0x0 DUP2 PUSH1 0x0 SWAP1 SSTORE POP PUSH1 0x1 ADD PUSH2 0xD49 JUMP JUMPDEST POP SWAP1 JUMP JUMPDEST PUSH1 0x0 PUSH2 0xD78 PUSH2 0xD73 DUP5 PUSH2 0x11B2 JUMP JUMPDEST PUSH2 0x118D JUMP JUMPDEST SWAP1 POP DUP3 DUP2 MSTORE PUSH1 0x20 DUP2 ADD DUP5 DUP5 DUP5 ADD GT ISZERO PUSH2 0xD94 JUMPI PUSH2 0xD93 PUSH2 0x145D JUMP JUMPDEST JUMPDEST PUSH2 0xD9F DUP5 DUP3 DUP6 PUSH2 0x12AE JUMP JUMPDEST POP SWAP4 SWAP3 POP POP POP JUMP JUMPDEST PUSH1 0x0 DUP2 CALLDATALOAD SWAP1 POP PUSH2 0xDB6 DUP2 PUSH2 0x14F8 JUMP JUMPDEST SWAP3 SWAP2 POP POP JUMP JUMPDEST PUSH1 0x0 DUP2 CALLDATALOAD SWAP1 POP PUSH2 0xDCB DUP2 PUSH2 0x150F JUMP JUMPDEST SWAP3 SWAP2 POP POP JUMP JUMPDEST PUSH1 0x0 DUP3 PUSH1 0x1F DUP4 ADD SLT PUSH2 0xDE6 JUMPI PUSH2 0xDE5 PUSH2 0x1458 JUMP JUMPDEST JUMPDEST DUP2 CALLDATALOAD PUSH2 0xDF6 DUP5 DUP3 PUSH1 0x20 DUP7 ADD PUSH2 0xD65 JUMP JUMPDEST SWAP2 POP POP SWAP3 SWAP2 POP POP JUMP JUMPDEST PUSH1 0x0 DUP2 CALLDATALOAD SWAP1 POP PUSH2 0xE0E DUP2 PUSH2 0x1526 JUMP JUMPDEST SWAP3 SWAP2 POP POP JUMP JUMPDEST PUSH1 0x0 PUSH1 0x20 DUP3 DUP5 SUB SLT ISZERO PUSH2 0xE2A JUMPI PUSH2 0xE29 PUSH2 0x1467 JUMP JUMPDEST JUMPDEST PUSH1 0x0 PUSH2 0xE38 DUP5 DUP3 DUP6 ADD PUSH2 0xDA7 JUMP JUMPDEST SWAP2 POP POP SWAP3 SWAP2 POP POP JUMP JUMPDEST PUSH1 0x0 DUP1 PUSH1 0x0 DUP1 PUSH1 0x80 DUP6 DUP8 SUB SLT ISZERO PUSH2 0xE5B JUMPI PUSH2 0xE5A PUSH2 0x1467 JUMP JUMPDEST JUMPDEST PUSH1 0x0 PUSH2 0xE69 DUP8 DUP3 DUP9 ADD PUSH2 0xDA7 JUMP JUMPDEST SWAP5 POP POP PUSH1 0x20 DUP6 ADD CALLDATALOAD PUSH8 0xFFFFFFFFFFFFFFFF DUP2 GT ISZERO PUSH2 0xE8A JUMPI PUSH2 0xE89 PUSH2 0x1462 JUMP JUMPDEST JUMPDEST PUSH2 0xE96 DUP8 DUP3 DUP9 ADD PUSH2 0xDD1 JUMP JUMPDEST SWAP4 POP POP PUSH1 0x40 PUSH2 0xEA7 DUP8 DUP3 DUP9 ADD PUSH2 0xDFF JUMP JUMPDEST SWAP3 POP POP PUSH1 0x60 PUSH2 0xEB8 DUP8 DUP3 DUP9 ADD PUSH2 0xDBC JUMP JUMPDEST SWAP2 POP POP SWAP3 SWAP6 SWAP2 SWAP5 POP SWAP3 POP JUMP JUMPDEST PUSH1 0x0 PUSH1 0x20 DUP3 DUP5 SUB SLT ISZERO PUSH2 0xEDA JUMPI PUSH2 0xED9 PUSH2 0x1467 JUMP JUMPDEST JUMPDEST PUSH1 0x0 PUSH2 0xEE8 DUP5 DUP3 DUP6 ADD PUSH2 0xDFF JUMP JUMPDEST SWAP2 POP POP SWAP3 SWAP2 POP POP JUMP JUMPDEST PUSH2 0xEFA DUP2 PUSH2 0x1266 JUMP JUMPDEST DUP3 MSTORE POP POP JUMP JUMPDEST PUSH2 0xF09 DUP2 PUSH2 0x1266 JUMP JUMPDEST DUP3 MSTORE POP POP JUMP JUMPDEST PUSH2 0xF18 DUP2 PUSH2 0x1278 JUMP JUMPDEST DUP3 MSTORE POP POP JUMP JUMPDEST PUSH2 0xF27 DUP2 PUSH2 0x1278 JUMP JUMPDEST DUP3 MSTORE POP POP JUMP JUMPDEST PUSH1 0x0 PUSH2 0xF38 DUP3 PUSH2 0x11E3 JUMP JUMPDEST PUSH2 0xF42 DUP2 DUP6 PUSH2 0x11EE JUMP JUMPDEST SWAP4 POP PUSH2 0xF52 DUP2 DUP6 PUSH1 0x20 DUP7 ADD PUSH2 0x12BD JUMP JUMPDEST PUSH2 0xF5B DUP2 PUSH2 0x146C JUMP JUMPDEST DUP5 ADD SWAP2 POP POP SWAP3 SWAP2 POP POP JUMP JUMPDEST PUSH1 0x0 PUSH2 0xF71 DUP3 PUSH2 0x11E3 JUMP JUMPDEST PUSH2 0xF7B DUP2 DUP6 PUSH2 0x11FF JUMP JUMPDEST SWAP4 POP PUSH2 0xF8B DUP2 DUP6 PUSH1 0x20 DUP7 ADD PUSH2 0x12BD JUMP JUMPDEST PUSH2 0xF94 DUP2 PUSH2 0x146C JUMP JUMPDEST DUP5 ADD SWAP2 POP POP SWAP3 SWAP2 POP POP JUMP JUMPDEST PUSH1 0x0 PUSH2 0xFAC PUSH1 0x16 DUP4 PUSH2 0x11FF JUMP JUMPDEST SWAP2 POP PUSH2 0xFB7 DUP3 PUSH2 0x147D JUMP JUMPDEST PUSH1 0x20 DUP3 ADD SWAP1 POP SWAP2 SWAP1 POP JUMP JUMPDEST PUSH1 0x0 PUSH2 0xFCF PUSH1 0x15 DUP4 PUSH2 0x11FF JUMP JUMPDEST SWAP2 POP PUSH2 0xFDA DUP3 PUSH2 0x14A6 JUMP JUMPDEST PUSH1 0x20 DUP3 ADD SWAP1 POP SWAP2 SWAP1 POP JUMP JUMPDEST PUSH1 0x0 PUSH2 0xFF2 PUSH1 0x13 DUP4 PUSH2 0x11FF JUMP JUMPDEST SWAP2 POP PUSH2 0xFFD DUP3 PUSH2 0x14CF JUMP JUMPDEST PUSH1 0x20 DUP3 ADD SWAP1 POP SWAP2 SWAP1 POP JUMP JUMPDEST PUSH1 0x0 PUSH1 0x80 DUP4 ADD PUSH1 0x0 DUP4 ADD MLOAD PUSH2 0x1020 PUSH1 0x0 DUP7 ADD DUP3 PUSH2 0xEF1 JUMP JUMPDEST POP PUSH1 0x20 DUP4 ADD MLOAD DUP5 DUP3 SUB PUSH1 0x20 DUP7 ADD MSTORE PUSH2 0x1038 DUP3 DUP3 PUSH2 0xF2D JUMP JUMPDEST SWAP2 POP POP PUSH1 0x40 DUP4 ADD MLOAD PUSH2 0x104D PUSH1 0x40 DUP7 ADD DUP3 PUSH2 0x106B JUMP JUMPDEST POP PUSH1 0x60 DUP4 ADD MLOAD PUSH2 0x1060 PUSH1 0x60 DUP7 ADD DUP3 PUSH2 0xF0F JUMP JUMPDEST POP DUP1 SWAP2 POP POP SWAP3 SWAP2 POP POP JUMP JUMPDEST PUSH2 0x1074 DUP2 PUSH2 0x12A4 JUMP JUMPDEST DUP3 MSTORE POP POP JUMP JUMPDEST PUSH2 0x1083 DUP2 PUSH2 0x12A4 JUMP JUMPDEST DUP3 MSTORE POP POP JUMP JUMPDEST PUSH1 0x0 PUSH1 0x80 DUP3 ADD SWAP1 POP PUSH2 0x109E PUSH1 0x0 DUP4 ADD DUP8 PUSH2 0xF00 JUMP JUMPDEST DUP2 DUP2 SUB PUSH1 0x20 DUP4 ADD MSTORE PUSH2 0x10B0 DUP2 DUP7 PUSH2 0xF66 JUMP JUMPDEST SWAP1 POP PUSH2 0x10BF PUSH1 0x40 DUP4 ADD DUP6 PUSH2 0x107A JUMP JUMPDEST PUSH2 0x10CC PUSH1 0x60 DUP4 ADD DUP5 PUSH2 0xF1E JUMP JUMPDEST SWAP6 SWAP5 POP POP POP POP POP JUMP JUMPDEST PUSH1 0x0 PUSH1 0x20 DUP3 ADD SWAP1 POP PUSH2 0x10EA PUSH1 0x0 DUP4 ADD DUP5 PUSH2 0xF1E JUMP JUMPDEST SWAP3 SWAP2 POP POP JUMP JUMPDEST PUSH1 0x0 PUSH1 0x20 DUP3 ADD SWAP1 POP DUP2 DUP2 SUB PUSH1 0x0 DUP4 ADD MSTORE PUSH2 0x1109 DUP2 PUSH2 0xF9F JUMP JUMPDEST SWAP1 POP SWAP2 SWAP1 POP JUMP JUMPDEST PUSH1 0x0 PUSH1 0x20 DUP3 ADD SWAP1 POP DUP2 DUP2 SUB PUSH1 0x0 DUP4 ADD MSTORE PUSH2 0x1129 DUP2 PUSH2 0xFC2 JUMP JUMPDEST SWAP1 POP SWAP2 SWAP1 POP JUMP JUMPDEST PUSH1 0x0 PUSH1 0x20 DUP3 ADD SWAP1 POP DUP2 DUP2 SUB PUSH1 0x0 DUP4 ADD MSTORE PUSH2 0x1149 DUP2 PUSH2 0xFE5 JUMP JUMPDEST SWAP1 POP SWAP2 SWAP1 POP JUMP JUMPDEST PUSH1 0x0 PUSH1 0x20 DUP3 ADD SWAP1 POP DUP2 DUP2 SUB PUSH1 0x0 DUP4 ADD MSTORE PUSH2 0x116A DUP2 DUP5 PUSH2 0x1008 JUMP JUMPDEST SWAP1 POP SWAP3 SWAP2 POP POP JUMP JUMPDEST PUSH1 0x0 PUSH1 0x20 DUP3 ADD SWAP1 POP PUSH2 0x1187 PUSH1 0x0 DUP4 ADD DUP5 PUSH2 0x107A JUMP JUMPDEST SWAP3 SWAP2 POP POP JUMP JUMPDEST PUSH1 0x0 PUSH2 0x1197 PUSH2 0x11A8 JUMP JUMPDEST SWAP1 POP PUSH2 0x11A3 DUP3 DUP3 PUSH2 0x1322 JUMP JUMPDEST SWAP2 SWAP1 POP JUMP JUMPDEST PUSH1 0x0 PUSH1 0x40 MLOAD SWAP1 POP SWAP1 JUMP JUMPDEST PUSH1 0x0 PUSH8 0xFFFFFFFFFFFFFFFF DUP3 GT ISZERO PUSH2 0x11CD JUMPI PUSH2 0x11CC PUSH2 0x1429 JUMP JUMPDEST JUMPDEST PUSH2 0x11D6 DUP3 PUSH2 0x146C JUMP JUMPDEST SWAP1 POP PUSH1 0x20 DUP2 ADD SWAP1 POP SWAP2 SWAP1 POP JUMP JUMPDEST PUSH1 0x0 DUP2 MLOAD SWAP1 POP SWAP2 SWAP1 POP JUMP JUMPDEST PUSH1 0x0 DUP3 DUP3 MSTORE PUSH1 0x20 DUP3 ADD SWAP1 POP SWAP3 SWAP2 POP POP JUMP JUMPDEST PUSH1 0x0 DUP3 DUP3 MSTORE PUSH1 0x20 DUP3 ADD SWAP1 POP SWAP3 SWAP2 POP POP JUMP JUMPDEST PUSH1 0x0 PUSH2 0x121B DUP3 PUSH2 0x12A4 JUMP JUMPDEST SWAP2 POP PUSH2 0x1226 DUP4 PUSH2 0x12A4 JUMP JUMPDEST SWAP3 POP DUP3 PUSH32 0xFFFFFFFFFFFFFFFFFFFFFFFFFFFFFFFFFFFFFFFFFFFFFFFFFFFFFFFFFFFFFFFF SUB DUP3 GT ISZERO PUSH2 0x125B JUMPI PUSH2 0x125A PUSH2 0x139C JUMP JUMPDEST JUMPDEST DUP3 DUP3 ADD SWAP1 POP SWAP3 SWAP2 POP POP JUMP JUMPDEST PUSH1 0x0 PUSH2 0x1271 DUP3 PUSH2 0x1284 JUMP JUMPDEST SWAP1 POP SWAP2 SWAP1 POP JUMP JUMPDEST PUSH1 0x0 DUP2 ISZERO ISZERO SWAP1 POP SWAP2 SWAP1 POP JUMP JUMPDEST PUSH1 0x0 PUSH20 0xFFFFFFFFFFFFFFFFFFFFFFFFFFFFFFFFFFFFFFFF DUP3 AND SWAP1 POP SWAP2 SWAP1 POP JUMP JUMPDEST PUSH1 0x0 DUP2 SWAP1 POP SWAP2 SWAP1 POP JUMP JUMPDEST DUP3 DUP2 DUP4 CALLDATACOPY PUSH1 0x0 DUP4 DUP4 ADD MSTORE POP POP POP JUMP JUMPDEST PUSH1 0x0 JUMPDEST DUP4 DUP2 LT ISZERO PUSH2 0x12DB JUMPI DUP1 DUP3 ADD MLOAD DUP2 DUP5 ADD MSTORE PUSH1 0x20 DUP2 ADD SWAP1 POP PUSH2 0x12C0 JUMP JUMPDEST DUP4 DUP2 GT ISZERO PUSH2 0x12EA JUMPI PUSH1 0x0 DUP5 DUP5 ADD MSTORE JUMPDEST POP POP POP POP JUMP JUMPDEST PUSH1 0x0 PUSH1 0x2 DUP3 DIV SWAP1 POP PUSH1 0x1 DUP3 AND DUP1 PUSH2 0x1308 JUMPI PUSH1 0x7F DUP3 AND SWAP2 POP JUMPDEST PUSH1 0x20 DUP3 LT DUP2 EQ ISZERO PUSH2 0x131C JUMPI PUSH2 0x131B PUSH2 0x13CB JUMP JUMPDEST JUMPDEST POP SWAP2 SWAP1 POP JUMP JUMPDEST PUSH2 0x132B DUP3 PUSH2 0x146C JUMP JUMPDEST DUP2 ADD DUP2 DUP2 LT PUSH8 0xFFFFFFFFFFFFFFFF DUP3 GT OR ISZERO PUSH2 0x134A JUMPI PUSH2 0x1349 PUSH2 0x1429 JUMP JUMPDEST JUMPDEST DUP1 PUSH1 0x40 MSTORE POP POP POP JUMP JUMPDEST PUSH1 0x0 PUSH2 0x135E DUP3 PUSH2 0x12A4 JUMP JUMPDEST SWAP2 POP PUSH32 0xFFFFFFFFFFFFFFFFFFFFFFFFFFFFFFFFFFFFFFFFFFFFFFFFFFFFFFFFFFFFFFFF DUP3 EQ ISZERO PUSH2 0x1391 JUMPI PUSH2 0x1390 PUSH2 0x139C JUMP JUMPDEST JUMPDEST PUSH1 0x1 DUP3 ADD SWAP1 POP SWAP2 SWAP1 POP JUMP JUMPDEST PUSH32 0x4E487B7100000000000000000000000000000000000000000000000000000000 PUSH1 0x0 MSTORE PUSH1 0x11 PUSH1 0x4 MSTORE PUSH1 0x24 PUSH1 0x0 REVERT JUMPDEST PUSH32 0x4E487B7100000000000000000000000000000000000000000000000000000000 PUSH1 0x0 MSTORE PUSH1 0x22 PUSH1 0x4 MSTORE PUSH1 0x24 PUSH1 0x0 REVERT JUMPDEST PUSH32 0x4E487B7100000000000000000000000000000000000000000000000000000000 PUSH1 0x0 MSTORE PUSH1 0x32 PUSH1 0x4 MSTORE PUSH1 0x24 PUSH1 0x0 REVERT JUMPDEST PUSH32 0x4E487B7100000000000000000000000000000000000000000000000000000000 PUSH1 0x0 MSTORE PUSH1 0x41 PUSH1 0x4 MSTORE PUSH1 0x24 PUSH1 0x0 REVERT JUMPDEST PUSH1 0x0 DUP1 REVERT JUMPDEST PUSH1 0x0 DUP1 REVERT JUMPDEST PUSH1 0x0 DUP1 REVERT JUMPDEST PUSH1 0x0 DUP1 REVERT JUMPDEST PUSH1 0x0 PUSH1 0x1F NOT PUSH1 0x1F DUP4 ADD AND SWAP1 POP SWAP2 SWAP1 POP JUMP JUMPDEST PUSH32 0x496E76616C69642057616C6C6574204164647265737300000000000000000000 PUSH1 0x0 DUP3 ADD MSTORE POP JUMP JUMPDEST PUSH32 0x596F7520617265206E6F7420746865206F776E65720000000000000000000000 PUSH1 0x0 DUP3 ADD MSTORE POP JUMP JUMPDEST PUSH32 0x5573657220646F6573206E6F7420657869737400000000000000000000000000 PUSH1 0x0 DUP3 ADD MSTORE POP JUMP JUMPDEST PUSH2 0x1501 DUP2 PUSH2 0x1266 JUMP JUMPDEST DUP2 EQ PUSH2 0x150C JUMPI PUSH1 0x0 DUP1 REVERT JUMPDEST POP JUMP JUMPDEST PUSH2 0x1518 DUP2 PUSH2 0x1278 JUMP JUMPDEST DUP2 EQ PUSH2 0x1523 JUMPI PUSH1 0x0 DUP1 REVERT JUMPDEST POP JUMP JUMPDEST PUSH2 0x152F DUP2 PUSH2 0x12A4 JUMP JUMPDEST DUP2 EQ PUSH2 0x153A JUMPI PUSH1 0x0 DUP1 REVERT JUMPDEST POP JUMP INVALID LOG2 PUSH5 0x6970667358 0x22 SLT KECCAK256 MUL 0xC5 0xE9 0xC5 0x2A LOG3 SLOAD 0xB1 0xD5 0x2F SWAP15 0x4A REVERT 0xE9 0x2D SAR 0x5C PUSH11 0x8A3D57EBDD572B8FC5ACB5 0xBB INVALID ADD PUSH5 0x736F6C6343 STOP ADDMOD SMOD STOP CALLER "
				},
				"gasEstimates": {
					"creation": {
						"codeDepositCost": "1098200",
						"executionCost": "25406",
						"totalCost": "1123606"
					},
					"external": {
						"addToInvestors(address)": "infinite",
						"addUser(address,string,uint256,bool)": "infinite",
						"balanceOf(address)": "infinite",
						"getUserByAddress(address)": "infinite",
						"investorPermission(address)": "infinite",
						"investors(address)": "infinite",
						"transfer(address)": "infinite",
						"userExists(address)": "infinite",
						"users(uint256)": "infinite"
					},
					"internal": {
						"transferToAddress(address)": "infinite"
					}
				},
				"methodIdentifiers": {
					"addToInvestors(address)": "d7bed4bc",
					"addUser(address,string,uint256,bool)": "280879e7",
					"balanceOf(address)": "70a08231",
					"getUserByAddress(address)": "69c212f6",
					"investorPermission(address)": "4140eb0d",
					"investors(address)": "6f7bc9be",
					"transfer(address)": "1a695230",
					"userExists(address)": "0e666e49",
					"users(uint256)": "365b98b2"
				}
			},
			"storageLayout": {
				"storage": [
					{
						"astId": 3,
						"contract": "contracts/Test1.sol:Test1",
						"label": "owner",
						"offset": 0,
						"slot": "0",
						"type": "t_address"
					},
					{
						"astId": 37,
						"contract": "contracts/Test1.sol:Test1",
						"label": "users",
						"offset": 0,
						"slot": "1",
						"type": "t_array(t_struct(User)21_storage)dyn_storage"
					},
					{
						"astId": 42,
						"contract": "contracts/Test1.sol:Test1",
						"label": "investors",
						"offset": 0,
						"slot": "2",
						"type": "t_mapping(t_address,t_struct(User)21_storage)"
					}
				],
				"types": {
					"t_address": {
						"encoding": "inplace",
						"label": "address",
						"numberOfBytes": "20"
					},
					"t_array(t_struct(User)21_storage)dyn_storage": {
						"base": "t_struct(User)21_storage",
						"encoding": "dynamic_array",
						"label": "struct Test1.User[]",
						"numberOfBytes": "32"
					},
					"t_bool": {
						"encoding": "inplace",
						"label": "bool",
						"numberOfBytes": "1"
					},
					"t_mapping(t_address,t_struct(User)21_storage)": {
						"encoding": "mapping",
						"key": "t_address",
						"label": "mapping(address => struct Test1.User)",
						"numberOfBytes": "32",
						"value": "t_struct(User)21_storage"
					},
					"t_string_storage": {
						"encoding": "bytes",
						"label": "string",
						"numberOfBytes": "32"
					},
					"t_struct(User)21_storage": {
						"encoding": "inplace",
						"label": "struct Test1.User",
						"members": [
							{
								"astId": 14,
								"contract": "contracts/Test1.sol:Test1",
								"label": "walletAddress",
								"offset": 0,
								"slot": "0",
								"type": "t_address"
							},
							{
								"astId": 16,
								"contract": "contracts/Test1.sol:Test1",
								"label": "name",
								"offset": 0,
								"slot": "1",
								"type": "t_string_storage"
							},
							{
								"astId": 18,
								"contract": "contracts/Test1.sol:Test1",
								"label": "amount",
								"offset": 0,
								"slot": "2",
								"type": "t_uint256"
							},
							{
								"astId": 20,
								"contract": "contracts/Test1.sol:Test1",
								"label": "isInvestor",
								"offset": 0,
								"slot": "3",
								"type": "t_bool"
							}
						],
						"numberOfBytes": "128"
					},
					"t_uint256": {
						"encoding": "inplace",
						"label": "uint256",
						"numberOfBytes": "32"
					}
				}
			},
			"userdoc": {
				"kind": "user",
				"methods": {},
				"version": 1
			}
		}
	}
}