{
	"contracts/CryptoKids.sol": {
		"CryptoKids": {
			"abi": [
				{
					"inputs": [],
					"stateMutability": "nonpayable",
					"type": "constructor"
				},
				{
					"anonymous": false,
					"inputs": [
						{
							"indexed": false,
							"internalType": "address",
							"name": "walletAddress",
							"type": "address"
						},
						{
							"indexed": false,
							"internalType": "uint256",
							"name": "amount",
							"type": "uint256"
						},
						{
							"indexed": false,
							"internalType": "uint256",
							"name": "contractBalance",
							"type": "uint256"
						}
					],
					"name": "LogKidFundingReceived",
					"type": "event"
				},
				{
					"inputs": [
						{
							"internalType": "address payable",
							"name": "walletAddress",
							"type": "address"
						},
						{
							"internalType": "string",
							"name": "firstName",
							"type": "string"
						},
						{
							"internalType": "string",
							"name": "lastName",
							"type": "string"
						},
						{
							"internalType": "uint256",
							"name": "releaseTime",
							"type": "uint256"
						},
						{
							"internalType": "uint256",
							"name": "amount",
							"type": "uint256"
						},
						{
							"internalType": "bool",
							"name": "canWithdraw",
							"type": "bool"
						}
					],
					"name": "addKid",
					"outputs": [],
					"stateMutability": "nonpayable",
					"type": "function"
				},
				{
					"inputs": [
						{
							"internalType": "address",
							"name": "walletAddress",
							"type": "address"
						}
					],
					"name": "availableToWithdraw",
					"outputs": [
						{
							"internalType": "bool",
							"name": "",
							"type": "bool"
						}
					],
					"stateMutability": "nonpayable",
					"type": "function"
				},
				{
					"inputs": [],
					"name": "balanceOf",
					"outputs": [
						{
							"internalType": "uint256",
							"name": "",
							"type": "uint256"
						}
					],
					"stateMutability": "view",
					"type": "function"
				},
				{
					"inputs": [
						{
							"internalType": "address",
							"name": "walletAddress",
							"type": "address"
						}
					],
					"name": "deposit",
					"outputs": [],
					"stateMutability": "payable",
					"type": "function"
				},
				{
					"inputs": [
						{
							"internalType": "uint256",
							"name": "",
							"type": "uint256"
						}
					],
					"name": "kids",
					"outputs": [
						{
							"internalType": "address payable",
							"name": "walletAddress",
							"type": "address"
						},
						{
							"internalType": "string",
							"name": "firstName",
							"type": "string"
						},
						{
							"internalType": "string",
							"name": "lastName",
							"type": "string"
						},
						{
							"internalType": "uint256",
							"name": "releaseTime",
							"type": "uint256"
						},
						{
							"internalType": "uint256",
							"name": "amount",
							"type": "uint256"
						},
						{
							"internalType": "bool",
							"name": "canWithdraw",
							"type": "bool"
						}
					],
					"stateMutability": "view",
					"type": "function"
				},
				{
					"inputs": [
						{
							"internalType": "address payable",
							"name": "walletAddress",
							"type": "address"
						}
					],
					"name": "withdraw",
					"outputs": [],
					"stateMutability": "payable",
					"type": "function"
				}
			],
			"devdoc": {
				"kind": "dev",
				"methods": {},
				"version": 1
			},
			"evm": {
				"assembly": "    /* \"contracts/CryptoKids.sol\":65:2350  contract CryptoKids {... */\n  mstore(0x40, 0x80)\n    /* \"contracts/CryptoKids.sol\":204:253  constructor() {... */\n  callvalue\n  dup1\n  iszero\n  tag_1\n  jumpi\n  0x00\n  dup1\n  revert\ntag_1:\n  pop\n    /* \"contracts/CryptoKids.sol\":236:246  msg.sender */\n  caller\n    /* \"contracts/CryptoKids.sol\":228:233  owner */\n  0x00\n  dup1\n    /* \"contracts/CryptoKids.sol\":228:246  owner = msg.sender */\n  0x0100\n  exp\n  dup2\n  sload\n  dup2\n  0xffffffffffffffffffffffffffffffffffffffff\n  mul\n  not\n  and\n  swap1\n  dup4\n  0xffffffffffffffffffffffffffffffffffffffff\n  and\n  mul\n  or\n  swap1\n  sstore\n  pop\n    /* \"contracts/CryptoKids.sol\":65:2350  contract CryptoKids {... */\n  dataSize(sub_0)\n  dup1\n  dataOffset(sub_0)\n  0x00\n  codecopy\n  0x00\n  return\nstop\n\nsub_0: assembly {\n        /* \"contracts/CryptoKids.sol\":65:2350  contract CryptoKids {... */\n      mstore(0x40, 0x80)\n      jumpi(tag_1, lt(calldatasize, 0x04))\n      shr(0xe0, calldataload(0x00))\n      dup1\n      0x31d575c5\n      eq\n      tag_2\n      jumpi\n      dup1\n      0x51cff8d9\n      eq\n      tag_3\n      jumpi\n      dup1\n      0x722713f7\n      eq\n      tag_4\n      jumpi\n      dup1\n      0x7285fd3a\n      eq\n      tag_5\n      jumpi\n      dup1\n      0xa25db8ce\n      eq\n      tag_6\n      jumpi\n      dup1\n      0xf340fa01\n      eq\n      tag_7\n      jumpi\n    tag_1:\n      0x00\n      dup1\n      revert\n        /* \"contracts/CryptoKids.sol\":579:841  function addKid(address payable walletAddress, string memory firstName, string memory lastName, uint releaseTime, uint amount, bool canWithdraw) public onlyOwner{... */\n    tag_2:\n      callvalue\n      dup1\n      iszero\n      tag_8\n      jumpi\n      0x00\n      dup1\n      revert\n    tag_8:\n      pop\n      tag_9\n      0x04\n      dup1\n      calldatasize\n      sub\n      dup2\n      add\n      swap1\n      tag_10\n      swap2\n      swap1\n      tag_11\n      jump\t// in\n    tag_10:\n      tag_12\n      jump\t// in\n    tag_9:\n      stop\n        /* \"contracts/CryptoKids.sol\":2013:2348  function withdraw(address payable walletAddress) payable public {... */\n    tag_3:\n      tag_13\n      0x04\n      dup1\n      calldatasize\n      sub\n      dup2\n      add\n      swap1\n      tag_14\n      swap2\n      swap1\n      tag_15\n      jump\t// in\n    tag_14:\n      tag_16\n      jump\t// in\n    tag_13:\n      stop\n        /* \"contracts/CryptoKids.sol\":847:938  function balanceOf() public view returns(uint){... */\n    tag_4:\n      callvalue\n      dup1\n      iszero\n      tag_17\n      jumpi\n      0x00\n      dup1\n      revert\n    tag_17:\n      pop\n      tag_18\n      tag_19\n      jump\t// in\n    tag_18:\n      mload(0x40)\n      tag_20\n      swap2\n      swap1\n      tag_21\n      jump\t// in\n    tag_20:\n      mload(0x40)\n      dup1\n      swap2\n      sub\n      swap1\n      return\n        /* \"contracts/CryptoKids.sol\":447:464  Kid[] public kids */\n    tag_5:\n      callvalue\n      dup1\n      iszero\n      tag_22\n      jumpi\n      0x00\n      dup1\n      revert\n    tag_22:\n      pop\n      tag_23\n      0x04\n      dup1\n      calldatasize\n      sub\n      dup2\n      add\n      swap1\n      tag_24\n      swap2\n      swap1\n      tag_25\n      jump\t// in\n    tag_24:\n      tag_26\n      jump\t// in\n    tag_23:\n      mload(0x40)\n      tag_27\n      swap7\n      swap6\n      swap5\n      swap4\n      swap3\n      swap2\n      swap1\n      tag_28\n      jump\t// in\n    tag_27:\n      mload(0x40)\n      dup1\n      swap2\n      sub\n      swap1\n      return\n        /* \"contracts/CryptoKids.sol\":1631:2007  function availableToWithdraw(address walletAddress) public returns(bool) {... */\n    tag_6:\n      callvalue\n      dup1\n      iszero\n      tag_29\n      jumpi\n      0x00\n      dup1\n      revert\n    tag_29:\n      pop\n      tag_30\n      0x04\n      dup1\n      calldatasize\n      sub\n      dup2\n      add\n      swap1\n      tag_31\n      swap2\n      swap1\n      tag_32\n      jump\t// in\n    tag_31:\n      tag_33\n      jump\t// in\n    tag_30:\n      mload(0x40)\n      tag_34\n      swap2\n      swap1\n      tag_35\n      jump\t// in\n    tag_34:\n      mload(0x40)\n      dup1\n      swap2\n      sub\n      swap1\n      return\n        /* \"contracts/CryptoKids.sol\":944:1047  function deposit(address walletAddress) payable public {... */\n    tag_7:\n      tag_36\n      0x04\n      dup1\n      calldatasize\n      sub\n      dup2\n      add\n      swap1\n      tag_37\n      swap2\n      swap1\n      tag_32\n      jump\t// in\n    tag_37:\n      tag_38\n      jump\t// in\n    tag_36:\n      stop\n        /* \"contracts/CryptoKids.sol\":579:841  function addKid(address payable walletAddress, string memory firstName, string memory lastName, uint releaseTime, uint amount, bool canWithdraw) public onlyOwner{... */\n    tag_12:\n        /* \"contracts/CryptoKids.sol\":522:527  owner */\n      0x00\n      dup1\n      sload\n      swap1\n      0x0100\n      exp\n      swap1\n      div\n      0xffffffffffffffffffffffffffffffffffffffff\n      and\n        /* \"contracts/CryptoKids.sol\":508:527  msg.sender == owner */\n      0xffffffffffffffffffffffffffffffffffffffff\n      and\n        /* \"contracts/CryptoKids.sol\":508:518  msg.sender */\n      caller\n        /* \"contracts/CryptoKids.sol\":508:527  msg.sender == owner */\n      0xffffffffffffffffffffffffffffffffffffffff\n      and\n      eq\n        /* \"contracts/CryptoKids.sol\":500:555  require(msg.sender == owner, \"Only owner can add kids\") */\n      tag_40\n      jumpi\n      mload(0x40)\n      0x08c379a000000000000000000000000000000000000000000000000000000000\n      dup2\n      mstore\n      0x04\n      add\n      tag_41\n      swap1\n      tag_42\n      jump\t// in\n    tag_41:\n      mload(0x40)\n      dup1\n      swap2\n      sub\n      swap1\n      revert\n    tag_40:\n        /* \"contracts/CryptoKids.sol\":750:754  kids */\n      0x01\n        /* \"contracts/CryptoKids.sol\":760:833  Kid(walletAddress, firstName, lastName, releaseTime, amount, canWithdraw) */\n      mload(0x40)\n      dup1\n      0xc0\n      add\n      0x40\n      mstore\n      dup1\n        /* \"contracts/CryptoKids.sol\":764:777  walletAddress */\n      dup9\n        /* \"contracts/CryptoKids.sol\":760:833  Kid(walletAddress, firstName, lastName, releaseTime, amount, canWithdraw) */\n      0xffffffffffffffffffffffffffffffffffffffff\n      and\n      dup2\n      mstore\n      0x20\n      add\n        /* \"contracts/CryptoKids.sol\":779:788  firstName */\n      dup8\n        /* \"contracts/CryptoKids.sol\":760:833  Kid(walletAddress, firstName, lastName, releaseTime, amount, canWithdraw) */\n      dup2\n      mstore\n      0x20\n      add\n        /* \"contracts/CryptoKids.sol\":790:798  lastName */\n      dup7\n        /* \"contracts/CryptoKids.sol\":760:833  Kid(walletAddress, firstName, lastName, releaseTime, amount, canWithdraw) */\n      dup2\n      mstore\n      0x20\n      add\n        /* \"contracts/CryptoKids.sol\":800:811  releaseTime */\n      dup6\n        /* \"contracts/CryptoKids.sol\":760:833  Kid(walletAddress, firstName, lastName, releaseTime, amount, canWithdraw) */\n      dup2\n      mstore\n      0x20\n      add\n        /* \"contracts/CryptoKids.sol\":813:819  amount */\n      dup5\n        /* \"contracts/CryptoKids.sol\":760:833  Kid(walletAddress, firstName, lastName, releaseTime, amount, canWithdraw) */\n      dup2\n      mstore\n      0x20\n      add\n        /* \"contracts/CryptoKids.sol\":821:832  canWithdraw */\n      dup4\n        /* \"contracts/CryptoKids.sol\":760:833  Kid(walletAddress, firstName, lastName, releaseTime, amount, canWithdraw) */\n      iszero\n      iszero\n      dup2\n      mstore\n      pop\n        /* \"contracts/CryptoKids.sol\":750:834  kids.push(Kid(walletAddress, firstName, lastName, releaseTime, amount, canWithdraw)) */\n      swap1\n      dup1\n      0x01\n      dup2\n      sload\n      add\n      dup1\n      dup3\n      sstore\n      dup1\n      swap2\n      pop\n      pop\n      0x01\n      swap1\n      sub\n      swap1\n      0x00\n      mstore\n      keccak256(0x00, 0x20)\n      swap1\n      0x06\n      mul\n      add\n      0x00\n      swap1\n      swap2\n      swap1\n      swap2\n      swap1\n      swap2\n      pop\n      0x00\n      dup3\n      add\n      mload\n      dup2\n      0x00\n      add\n      exp(0x0100, 0x00)\n      dup2\n      sload\n      dup2\n      0xffffffffffffffffffffffffffffffffffffffff\n      mul\n      not\n      and\n      swap1\n      dup4\n      0xffffffffffffffffffffffffffffffffffffffff\n      and\n      mul\n      or\n      swap1\n      sstore\n      pop\n      0x20\n      dup3\n      add\n      mload\n      dup2\n      0x01\n      add\n      swap1\n      dup2\n      tag_45\n      swap2\n      swap1\n      tag_46\n      jump\t// in\n    tag_45:\n      pop\n      0x40\n      dup3\n      add\n      mload\n      dup2\n      0x02\n      add\n      swap1\n      dup2\n      tag_47\n      swap2\n      swap1\n      tag_46\n      jump\t// in\n    tag_47:\n      pop\n      0x60\n      dup3\n      add\n      mload\n      dup2\n      0x03\n      add\n      sstore\n      0x80\n      dup3\n      add\n      mload\n      dup2\n      0x04\n      add\n      sstore\n      0xa0\n      dup3\n      add\n      mload\n      dup2\n      0x05\n      add\n      exp(0x0100, 0x00)\n      dup2\n      sload\n      dup2\n      0xff\n      mul\n      not\n      and\n      swap1\n      dup4\n      iszero\n      iszero\n      mul\n      or\n      swap1\n      sstore\n      pop\n      pop\n      pop\n        /* \"contracts/CryptoKids.sol\":579:841  function addKid(address payable walletAddress, string memory firstName, string memory lastName, uint releaseTime, uint amount, bool canWithdraw) public onlyOwner{... */\n      pop\n      pop\n      pop\n      pop\n      pop\n      pop\n      jump\t// out\n        /* \"contracts/CryptoKids.sol\":2013:2348  function withdraw(address payable walletAddress) payable public {... */\n    tag_16:\n        /* \"contracts/CryptoKids.sol\":2087:2093  uint i */\n      0x00\n        /* \"contracts/CryptoKids.sol\":2096:2119  getIndex(walletAddress) */\n      tag_49\n        /* \"contracts/CryptoKids.sol\":2105:2118  walletAddress */\n      dup3\n        /* \"contracts/CryptoKids.sol\":2096:2104  getIndex */\n      tag_50\n        /* \"contracts/CryptoKids.sol\":2096:2119  getIndex(walletAddress) */\n      jump\t// in\n    tag_49:\n        /* \"contracts/CryptoKids.sol\":2087:2119  uint i = getIndex(walletAddress) */\n      swap1\n      pop\n        /* \"contracts/CryptoKids.sol\":2151:2155  kids */\n      0x01\n        /* \"contracts/CryptoKids.sol\":2156:2157  i */\n      dup2\n        /* \"contracts/CryptoKids.sol\":2151:2158  kids[i] */\n      dup2\n      sload\n      dup2\n      lt\n      tag_51\n      jumpi\n      tag_52\n      tag_53\n      jump\t// in\n    tag_52:\n    tag_51:\n      swap1\n      0x00\n      mstore\n      keccak256(0x00, 0x20)\n      swap1\n      0x06\n      mul\n      add\n        /* \"contracts/CryptoKids.sol\":2151:2172  kids[i].walletAddress */\n      0x00\n      add\n      0x00\n      swap1\n      sload\n      swap1\n      0x0100\n      exp\n      swap1\n      div\n      0xffffffffffffffffffffffffffffffffffffffff\n      and\n        /* \"contracts/CryptoKids.sol\":2137:2172  msg.sender == kids[i].walletAddress */\n      0xffffffffffffffffffffffffffffffffffffffff\n      and\n        /* \"contracts/CryptoKids.sol\":2137:2147  msg.sender */\n      caller\n        /* \"contracts/CryptoKids.sol\":2137:2172  msg.sender == kids[i].walletAddress */\n      0xffffffffffffffffffffffffffffffffffffffff\n      and\n      eq\n        /* \"contracts/CryptoKids.sol\":2129:2208  require(msg.sender == kids[i].walletAddress, \"You must be the kid to withdraw\") */\n      tag_55\n      jumpi\n      mload(0x40)\n      0x08c379a000000000000000000000000000000000000000000000000000000000\n      dup2\n      mstore\n      0x04\n      add\n      tag_56\n      swap1\n      tag_57\n      jump\t// in\n    tag_56:\n      mload(0x40)\n      dup1\n      swap2\n      sub\n      swap1\n      revert\n    tag_55:\n        /* \"contracts/CryptoKids.sol\":2249:2253  true */\n      0x01\n        /* \"contracts/CryptoKids.sol\":2226:2253  kids[i].canWithdraw == true */\n      iszero\n      iszero\n        /* \"contracts/CryptoKids.sol\":2226:2230  kids */\n      0x01\n        /* \"contracts/CryptoKids.sol\":2231:2232  i */\n      dup3\n        /* \"contracts/CryptoKids.sol\":2226:2233  kids[i] */\n      dup2\n      sload\n      dup2\n      lt\n      tag_58\n      jumpi\n      tag_59\n      tag_53\n      jump\t// in\n    tag_59:\n    tag_58:\n      swap1\n      0x00\n      mstore\n      keccak256(0x00, 0x20)\n      swap1\n      0x06\n      mul\n      add\n        /* \"contracts/CryptoKids.sol\":2226:2245  kids[i].canWithdraw */\n      0x05\n      add\n      0x00\n      swap1\n      sload\n      swap1\n      0x0100\n      exp\n      swap1\n      div\n      0xff\n      and\n        /* \"contracts/CryptoKids.sol\":2226:2253  kids[i].canWithdraw == true */\n      iszero\n      iszero\n      eq\n        /* \"contracts/CryptoKids.sol\":2218:2285  require(kids[i].canWithdraw == true, \"You aren't able to withdraw\") */\n      tag_61\n      jumpi\n      mload(0x40)\n      0x08c379a000000000000000000000000000000000000000000000000000000000\n      dup2\n      mstore\n      0x04\n      add\n      tag_62\n      swap1\n      tag_63\n      jump\t// in\n    tag_62:\n      mload(0x40)\n      dup1\n      swap2\n      sub\n      swap1\n      revert\n    tag_61:\n        /* \"contracts/CryptoKids.sol\":2295:2299  kids */\n      0x01\n        /* \"contracts/CryptoKids.sol\":2300:2301  i */\n      dup2\n        /* \"contracts/CryptoKids.sol\":2295:2302  kids[i] */\n      dup2\n      sload\n      dup2\n      lt\n      tag_64\n      jumpi\n      tag_65\n      tag_53\n      jump\t// in\n    tag_65:\n    tag_64:\n      swap1\n      0x00\n      mstore\n      keccak256(0x00, 0x20)\n      swap1\n      0x06\n      mul\n      add\n        /* \"contracts/CryptoKids.sol\":2295:2316  kids[i].walletAddress */\n      0x00\n      add\n      0x00\n      swap1\n      sload\n      swap1\n      0x0100\n      exp\n      swap1\n      div\n      0xffffffffffffffffffffffffffffffffffffffff\n      and\n        /* \"contracts/CryptoKids.sol\":2295:2325  kids[i].walletAddress.transfer */\n      0xffffffffffffffffffffffffffffffffffffffff\n      and\n        /* \"contracts/CryptoKids.sol\":2295:2341  kids[i].walletAddress.transfer(kids[i].amount) */\n      0x08fc\n        /* \"contracts/CryptoKids.sol\":2326:2330  kids */\n      0x01\n        /* \"contracts/CryptoKids.sol\":2331:2332  i */\n      dup4\n        /* \"contracts/CryptoKids.sol\":2326:2333  kids[i] */\n      dup2\n      sload\n      dup2\n      lt\n      tag_67\n      jumpi\n      tag_68\n      tag_53\n      jump\t// in\n    tag_68:\n    tag_67:\n      swap1\n      0x00\n      mstore\n      keccak256(0x00, 0x20)\n      swap1\n      0x06\n      mul\n      add\n        /* \"contracts/CryptoKids.sol\":2326:2340  kids[i].amount */\n      0x04\n      add\n      sload\n        /* \"contracts/CryptoKids.sol\":2295:2341  kids[i].walletAddress.transfer(kids[i].amount) */\n      swap1\n      dup2\n      iszero\n      mul\n      swap1\n      mload(0x40)\n      0x00\n      mload(0x40)\n      dup1\n      dup4\n      sub\n      dup2\n      dup6\n      dup9\n      dup9\n      call\n      swap4\n      pop\n      pop\n      pop\n      pop\n      iszero\n      dup1\n      iszero\n      tag_71\n      jumpi\n      returndatasize\n      0x00\n      dup1\n      returndatacopy\n      revert(0x00, returndatasize)\n    tag_71:\n      pop\n        /* \"contracts/CryptoKids.sol\":2077:2348  {... */\n      pop\n        /* \"contracts/CryptoKids.sol\":2013:2348  function withdraw(address payable walletAddress) payable public {... */\n      pop\n      jump\t// out\n        /* \"contracts/CryptoKids.sol\":847:938  function balanceOf() public view returns(uint){... */\n    tag_19:\n        /* \"contracts/CryptoKids.sol\":888:892  uint */\n      0x00\n        /* \"contracts/CryptoKids.sol\":910:931  address(this).balance */\n      selfbalance\n        /* \"contracts/CryptoKids.sol\":903:931  return address(this).balance */\n      swap1\n      pop\n        /* \"contracts/CryptoKids.sol\":847:938  function balanceOf() public view returns(uint){... */\n      swap1\n      jump\t// out\n        /* \"contracts/CryptoKids.sol\":447:464  Kid[] public kids */\n    tag_26:\n      0x01\n      dup2\n      dup2\n      sload\n      dup2\n      lt\n      tag_73\n      jumpi\n      0x00\n      dup1\n      revert\n    tag_73:\n      swap1\n      0x00\n      mstore\n      keccak256(0x00, 0x20)\n      swap1\n      0x06\n      mul\n      add\n      0x00\n      swap2\n      pop\n      swap1\n      pop\n      dup1\n      0x00\n      add\n      0x00\n      swap1\n      sload\n      swap1\n      0x0100\n      exp\n      swap1\n      div\n      0xffffffffffffffffffffffffffffffffffffffff\n      and\n      swap1\n      dup1\n      0x01\n      add\n      dup1\n      sload\n      tag_75\n      swap1\n      tag_76\n      jump\t// in\n    tag_75:\n      dup1\n      0x1f\n      add\n      0x20\n      dup1\n      swap2\n      div\n      mul\n      0x20\n      add\n      mload(0x40)\n      swap1\n      dup2\n      add\n      0x40\n      mstore\n      dup1\n      swap3\n      swap2\n      swap1\n      dup2\n      dup2\n      mstore\n      0x20\n      add\n      dup3\n      dup1\n      sload\n      tag_77\n      swap1\n      tag_76\n      jump\t// in\n    tag_77:\n      dup1\n      iszero\n      tag_78\n      jumpi\n      dup1\n      0x1f\n      lt\n      tag_79\n      jumpi\n      0x0100\n      dup1\n      dup4\n      sload\n      div\n      mul\n      dup4\n      mstore\n      swap2\n      0x20\n      add\n      swap2\n      jump(tag_78)\n    tag_79:\n      dup3\n      add\n      swap2\n      swap1\n      0x00\n      mstore\n      keccak256(0x00, 0x20)\n      swap1\n    tag_80:\n      dup2\n      sload\n      dup2\n      mstore\n      swap1\n      0x01\n      add\n      swap1\n      0x20\n      add\n      dup1\n      dup4\n      gt\n      tag_80\n      jumpi\n      dup3\n      swap1\n      sub\n      0x1f\n      and\n      dup3\n      add\n      swap2\n    tag_78:\n      pop\n      pop\n      pop\n      pop\n      pop\n      swap1\n      dup1\n      0x02\n      add\n      dup1\n      sload\n      tag_81\n      swap1\n      tag_76\n      jump\t// in\n    tag_81:\n      dup1\n      0x1f\n      add\n      0x20\n      dup1\n      swap2\n      div\n      mul\n      0x20\n      add\n      mload(0x40)\n      swap1\n      dup2\n      add\n      0x40\n      mstore\n      dup1\n      swap3\n      swap2\n      swap1\n      dup2\n      dup2\n      mstore\n      0x20\n      add\n      dup3\n      dup1\n      sload\n      tag_82\n      swap1\n      tag_76\n      jump\t// in\n    tag_82:\n      dup1\n      iszero\n      tag_83\n      jumpi\n      dup1\n      0x1f\n      lt\n      tag_84\n      jumpi\n      0x0100\n      dup1\n      dup4\n      sload\n      div\n      mul\n      dup4\n      mstore\n      swap2\n      0x20\n      add\n      swap2\n      jump(tag_83)\n    tag_84:\n      dup3\n      add\n      swap2\n      swap1\n      0x00\n      mstore\n      keccak256(0x00, 0x20)\n      swap1\n    tag_85:\n      dup2\n      sload\n      dup2\n      mstore\n      swap1\n      0x01\n      add\n      swap1\n      0x20\n      add\n      dup1\n      dup4\n      gt\n      tag_85\n      jumpi\n      dup3\n      swap1\n      sub\n      0x1f\n      and\n      dup3\n      add\n      swap2\n    tag_83:\n      pop\n      pop\n      pop\n      pop\n      pop\n      swap1\n      dup1\n      0x03\n      add\n      sload\n      swap1\n      dup1\n      0x04\n      add\n      sload\n      swap1\n      dup1\n      0x05\n      add\n      0x00\n      swap1\n      sload\n      swap1\n      0x0100\n      exp\n      swap1\n      div\n      0xff\n      and\n      swap1\n      pop\n      dup7\n      jump\t// out\n        /* \"contracts/CryptoKids.sol\":1631:2007  function availableToWithdraw(address walletAddress) public returns(bool) {... */\n    tag_33:\n        /* \"contracts/CryptoKids.sol\":1698:1702  bool */\n      0x00\n        /* \"contracts/CryptoKids.sol\":1714:1720  uint i */\n      dup1\n        /* \"contracts/CryptoKids.sol\":1723:1746  getIndex(walletAddress) */\n      tag_87\n        /* \"contracts/CryptoKids.sol\":1732:1745  walletAddress */\n      dup4\n        /* \"contracts/CryptoKids.sol\":1723:1731  getIndex */\n      tag_50\n        /* \"contracts/CryptoKids.sol\":1723:1746  getIndex(walletAddress) */\n      jump\t// in\n    tag_87:\n        /* \"contracts/CryptoKids.sol\":1714:1746  uint i = getIndex(walletAddress) */\n      swap1\n      pop\n        /* \"contracts/CryptoKids.sol\":1782:1786  kids */\n      0x01\n        /* \"contracts/CryptoKids.sol\":1787:1788  i */\n      dup2\n        /* \"contracts/CryptoKids.sol\":1782:1789  kids[i] */\n      dup2\n      sload\n      dup2\n      lt\n      tag_88\n      jumpi\n      tag_89\n      tag_53\n      jump\t// in\n    tag_89:\n    tag_88:\n      swap1\n      0x00\n      mstore\n      keccak256(0x00, 0x20)\n      swap1\n      0x06\n      mul\n      add\n        /* \"contracts/CryptoKids.sol\":1782:1801  kids[i].releaseTime */\n      0x03\n      add\n      sload\n        /* \"contracts/CryptoKids.sol\":1764:1779  block.timestamp */\n      timestamp\n        /* \"contracts/CryptoKids.sol\":1764:1801  block.timestamp > kids[i].releaseTime */\n      gt\n        /* \"contracts/CryptoKids.sol\":1756:1824  require(block.timestamp > kids[i].releaseTime, \"You can't withdraw\") */\n      tag_91\n      jumpi\n      mload(0x40)\n      0x08c379a000000000000000000000000000000000000000000000000000000000\n      dup2\n      mstore\n      0x04\n      add\n      tag_92\n      swap1\n      tag_93\n      jump\t// in\n    tag_92:\n      mload(0x40)\n      dup1\n      swap2\n      sub\n      swap1\n      revert\n    tag_91:\n        /* \"contracts/CryptoKids.sol\":1855:1859  kids */\n      0x01\n        /* \"contracts/CryptoKids.sol\":1860:1861  i */\n      dup2\n        /* \"contracts/CryptoKids.sol\":1855:1862  kids[i] */\n      dup2\n      sload\n      dup2\n      lt\n      tag_94\n      jumpi\n      tag_95\n      tag_53\n      jump\t// in\n    tag_95:\n    tag_94:\n      swap1\n      0x00\n      mstore\n      keccak256(0x00, 0x20)\n      swap1\n      0x06\n      mul\n      add\n        /* \"contracts/CryptoKids.sol\":1855:1874  kids[i].releaseTime */\n      0x03\n      add\n      sload\n        /* \"contracts/CryptoKids.sol\":1837:1852  block.timestamp */\n      timestamp\n        /* \"contracts/CryptoKids.sol\":1837:1874  block.timestamp > kids[i].releaseTime */\n      gt\n        /* \"contracts/CryptoKids.sol\":1834:2001  if(block.timestamp > kids[i].releaseTime){... */\n      iszero\n      tag_97\n      jumpi\n        /* \"contracts/CryptoKids.sol\":1911:1915  true */\n      0x01\n        /* \"contracts/CryptoKids.sol\":1889:1893  kids */\n      dup1\n        /* \"contracts/CryptoKids.sol\":1894:1895  i */\n      dup3\n        /* \"contracts/CryptoKids.sol\":1889:1896  kids[i] */\n      dup2\n      sload\n      dup2\n      lt\n      tag_98\n      jumpi\n      tag_99\n      tag_53\n      jump\t// in\n    tag_99:\n    tag_98:\n      swap1\n      0x00\n      mstore\n      keccak256(0x00, 0x20)\n      swap1\n      0x06\n      mul\n      add\n        /* \"contracts/CryptoKids.sol\":1889:1908  kids[i].canWithdraw */\n      0x05\n      add\n      0x00\n        /* \"contracts/CryptoKids.sol\":1889:1915  kids[i].canWithdraw = true */\n      0x0100\n      exp\n      dup2\n      sload\n      dup2\n      0xff\n      mul\n      not\n      and\n      swap1\n      dup4\n      iszero\n      iszero\n      mul\n      or\n      swap1\n      sstore\n      pop\n        /* \"contracts/CryptoKids.sol\":1936:1940  true */\n      0x01\n        /* \"contracts/CryptoKids.sol\":1929:1940  return true */\n      swap2\n      pop\n      pop\n      jump(tag_86)\n        /* \"contracts/CryptoKids.sol\":1834:2001  if(block.timestamp > kids[i].releaseTime){... */\n    tag_97:\n        /* \"contracts/CryptoKids.sol\":1985:1990  false */\n      0x00\n        /* \"contracts/CryptoKids.sol\":1978:1990  return false */\n      swap2\n      pop\n      pop\n        /* \"contracts/CryptoKids.sol\":1631:2007  function availableToWithdraw(address walletAddress) public returns(bool) {... */\n    tag_86:\n      swap2\n      swap1\n      pop\n      jump\t// out\n        /* \"contracts/CryptoKids.sol\":944:1047  function deposit(address walletAddress) payable public {... */\n    tag_38:\n        /* \"contracts/CryptoKids.sol\":1009:1040  addToKidsBalance(walletAddress) */\n      tag_103\n        /* \"contracts/CryptoKids.sol\":1026:1039  walletAddress */\n      dup2\n        /* \"contracts/CryptoKids.sol\":1009:1025  addToKidsBalance */\n      tag_104\n        /* \"contracts/CryptoKids.sol\":1009:1040  addToKidsBalance(walletAddress) */\n      jump\t// in\n    tag_103:\n        /* \"contracts/CryptoKids.sol\":944:1047  function deposit(address walletAddress) payable public {... */\n      pop\n      jump\t// out\n        /* \"contracts/CryptoKids.sol\":1377:1625  function getIndex(address walletAddress) view private returns(uint){... */\n    tag_50:\n        /* \"contracts/CryptoKids.sol\":1439:1443  uint */\n      0x00\n        /* \"contracts/CryptoKids.sol\":1458:1464  uint i */\n      dup1\n        /* \"contracts/CryptoKids.sol\":1467:1468  0 */\n      0x00\n        /* \"contracts/CryptoKids.sol\":1458:1468  uint i = 0 */\n      swap1\n      pop\n        /* \"contracts/CryptoKids.sol\":1454:1598  for(uint i = 0; i < kids.length; i++){... */\n    tag_106:\n        /* \"contracts/CryptoKids.sol\":1474:1478  kids */\n      0x01\n        /* \"contracts/CryptoKids.sol\":1474:1485  kids.length */\n      dup1\n      sload\n      swap1\n      pop\n        /* \"contracts/CryptoKids.sol\":1470:1471  i */\n      dup2\n        /* \"contracts/CryptoKids.sol\":1470:1485  i < kids.length */\n      lt\n        /* \"contracts/CryptoKids.sol\":1454:1598  for(uint i = 0; i < kids.length; i++){... */\n      iszero\n      tag_107\n      jumpi\n        /* \"contracts/CryptoKids.sol\":1533:1546  walletAddress */\n      dup3\n        /* \"contracts/CryptoKids.sol\":1508:1546  kids[i].walletAddress == walletAddress */\n      0xffffffffffffffffffffffffffffffffffffffff\n      and\n        /* \"contracts/CryptoKids.sol\":1508:1512  kids */\n      0x01\n        /* \"contracts/CryptoKids.sol\":1513:1514  i */\n      dup3\n        /* \"contracts/CryptoKids.sol\":1508:1515  kids[i] */\n      dup2\n      sload\n      dup2\n      lt\n      tag_109\n      jumpi\n      tag_110\n      tag_53\n      jump\t// in\n    tag_110:\n    tag_109:\n      swap1\n      0x00\n      mstore\n      keccak256(0x00, 0x20)\n      swap1\n      0x06\n      mul\n      add\n        /* \"contracts/CryptoKids.sol\":1508:1529  kids[i].walletAddress */\n      0x00\n      add\n      0x00\n      swap1\n      sload\n      swap1\n      0x0100\n      exp\n      swap1\n      div\n      0xffffffffffffffffffffffffffffffffffffffff\n      and\n        /* \"contracts/CryptoKids.sol\":1508:1546  kids[i].walletAddress == walletAddress */\n      0xffffffffffffffffffffffffffffffffffffffff\n      and\n      sub\n        /* \"contracts/CryptoKids.sol\":1505:1588  if(kids[i].walletAddress == walletAddress){... */\n      tag_112\n      jumpi\n        /* \"contracts/CryptoKids.sol\":1572:1573  i */\n      dup1\n        /* \"contracts/CryptoKids.sol\":1565:1573  return i */\n      swap2\n      pop\n      pop\n      jump(tag_105)\n        /* \"contracts/CryptoKids.sol\":1505:1588  if(kids[i].walletAddress == walletAddress){... */\n    tag_112:\n        /* \"contracts/CryptoKids.sol\":1487:1490  i++ */\n      dup1\n      dup1\n      tag_113\n      swap1\n      tag_114\n      jump\t// in\n    tag_113:\n      swap2\n      pop\n      pop\n        /* \"contracts/CryptoKids.sol\":1454:1598  for(uint i = 0; i < kids.length; i++){... */\n      jump(tag_106)\n    tag_107:\n      pop\n        /* \"contracts/CryptoKids.sol\":1615:1618  999 */\n      0x03e7\n        /* \"contracts/CryptoKids.sol\":1608:1618  return 999 */\n      swap1\n      pop\n        /* \"contracts/CryptoKids.sol\":1377:1625  function getIndex(address walletAddress) view private returns(uint){... */\n    tag_105:\n      swap2\n      swap1\n      pop\n      jump\t// out\n        /* \"contracts/CryptoKids.sol\":1053:1371  function addToKidsBalance(address walletAddress) private{... */\n    tag_104:\n        /* \"contracts/CryptoKids.sol\":1123:1129  uint i */\n      0x00\n        /* \"contracts/CryptoKids.sol\":1119:1365  for(uint i = 0; i < kids.length; i++){... */\n    tag_116:\n        /* \"contracts/CryptoKids.sol\":1139:1143  kids */\n      0x01\n        /* \"contracts/CryptoKids.sol\":1139:1150  kids.length */\n      dup1\n      sload\n      swap1\n      pop\n        /* \"contracts/CryptoKids.sol\":1135:1136  i */\n      dup2\n        /* \"contracts/CryptoKids.sol\":1135:1150  i < kids.length */\n      lt\n        /* \"contracts/CryptoKids.sol\":1119:1365  for(uint i = 0; i < kids.length; i++){... */\n      iszero\n      tag_117\n      jumpi\n        /* \"contracts/CryptoKids.sol\":1198:1211  walletAddress */\n      dup2\n        /* \"contracts/CryptoKids.sol\":1173:1211  kids[i].walletAddress == walletAddress */\n      0xffffffffffffffffffffffffffffffffffffffff\n      and\n        /* \"contracts/CryptoKids.sol\":1173:1177  kids */\n      0x01\n        /* \"contracts/CryptoKids.sol\":1178:1179  i */\n      dup3\n        /* \"contracts/CryptoKids.sol\":1173:1180  kids[i] */\n      dup2\n      sload\n      dup2\n      lt\n      tag_119\n      jumpi\n      tag_120\n      tag_53\n      jump\t// in\n    tag_120:\n    tag_119:\n      swap1\n      0x00\n      mstore\n      keccak256(0x00, 0x20)\n      swap1\n      0x06\n      mul\n      add\n        /* \"contracts/CryptoKids.sol\":1173:1194  kids[i].walletAddress */\n      0x00\n      add\n      0x00\n      swap1\n      sload\n      swap1\n      0x0100\n      exp\n      swap1\n      div\n      0xffffffffffffffffffffffffffffffffffffffff\n      and\n        /* \"contracts/CryptoKids.sol\":1173:1211  kids[i].walletAddress == walletAddress */\n      0xffffffffffffffffffffffffffffffffffffffff\n      and\n      sub\n        /* \"contracts/CryptoKids.sol\":1170:1355  if(kids[i].walletAddress == walletAddress){... */\n      tag_122\n      jumpi\n        /* \"contracts/CryptoKids.sol\":1248:1257  msg.value */\n      callvalue\n        /* \"contracts/CryptoKids.sol\":1230:1234  kids */\n      0x01\n        /* \"contracts/CryptoKids.sol\":1235:1236  i */\n      dup3\n        /* \"contracts/CryptoKids.sol\":1230:1237  kids[i] */\n      dup2\n      sload\n      dup2\n      lt\n      tag_123\n      jumpi\n      tag_124\n      tag_53\n      jump\t// in\n    tag_124:\n    tag_123:\n      swap1\n      0x00\n      mstore\n      keccak256(0x00, 0x20)\n      swap1\n      0x06\n      mul\n      add\n        /* \"contracts/CryptoKids.sol\":1230:1244  kids[i].amount */\n      0x04\n      add\n      0x00\n        /* \"contracts/CryptoKids.sol\":1230:1257  kids[i].amount += msg.value */\n      dup3\n      dup3\n      sload\n      tag_126\n      swap2\n      swap1\n      tag_127\n      jump\t// in\n    tag_126:\n      swap3\n      pop\n      pop\n      dup2\n      swap1\n      sstore\n      pop\n        /* \"contracts/CryptoKids.sol\":1280:1340  LogKidFundingReceived(walletAddress, msg.value, balanceOf()) */\n      0xdfa390b0c1c515579c441209b0f88953b3383e444305380136073b84d9ae5eaf\n        /* \"contracts/CryptoKids.sol\":1302:1315  walletAddress */\n      dup3\n        /* \"contracts/CryptoKids.sol\":1317:1326  msg.value */\n      callvalue\n        /* \"contracts/CryptoKids.sol\":1328:1339  balanceOf() */\n      tag_128\n        /* \"contracts/CryptoKids.sol\":1328:1337  balanceOf */\n      tag_19\n        /* \"contracts/CryptoKids.sol\":1328:1339  balanceOf() */\n      jump\t// in\n    tag_128:\n        /* \"contracts/CryptoKids.sol\":1280:1340  LogKidFundingReceived(walletAddress, msg.value, balanceOf()) */\n      mload(0x40)\n      tag_129\n      swap4\n      swap3\n      swap2\n      swap1\n      tag_130\n      jump\t// in\n    tag_129:\n      mload(0x40)\n      dup1\n      swap2\n      sub\n      swap1\n      log1\n        /* \"contracts/CryptoKids.sol\":1170:1355  if(kids[i].walletAddress == walletAddress){... */\n    tag_122:\n        /* \"contracts/CryptoKids.sol\":1152:1155  i++ */\n      dup1\n      dup1\n      tag_131\n      swap1\n      tag_114\n      jump\t// in\n    tag_131:\n      swap2\n      pop\n      pop\n        /* \"contracts/CryptoKids.sol\":1119:1365  for(uint i = 0; i < kids.length; i++){... */\n      jump(tag_116)\n    tag_117:\n      pop\n        /* \"contracts/CryptoKids.sol\":1053:1371  function addToKidsBalance(address walletAddress) private{... */\n      pop\n      jump\t// out\n        /* \"#utility.yul\":7:82   */\n    tag_132:\n        /* \"#utility.yul\":40:46   */\n      0x00\n        /* \"#utility.yul\":73:75   */\n      0x40\n        /* \"#utility.yul\":67:76   */\n      mload\n        /* \"#utility.yul\":57:76   */\n      swap1\n      pop\n        /* \"#utility.yul\":7:82   */\n      swap1\n      jump\t// out\n        /* \"#utility.yul\":88:205   */\n    tag_133:\n        /* \"#utility.yul\":197:198   */\n      0x00\n        /* \"#utility.yul\":194:195   */\n      dup1\n        /* \"#utility.yul\":187:199   */\n      revert\n        /* \"#utility.yul\":211:328   */\n    tag_134:\n        /* \"#utility.yul\":320:321   */\n      0x00\n        /* \"#utility.yul\":317:318   */\n      dup1\n        /* \"#utility.yul\":310:322   */\n      revert\n        /* \"#utility.yul\":334:460   */\n    tag_135:\n        /* \"#utility.yul\":371:378   */\n      0x00\n        /* \"#utility.yul\":411:453   */\n      0xffffffffffffffffffffffffffffffffffffffff\n        /* \"#utility.yul\":404:409   */\n      dup3\n        /* \"#utility.yul\":400:454   */\n      and\n        /* \"#utility.yul\":389:454   */\n      swap1\n      pop\n        /* \"#utility.yul\":334:460   */\n      swap2\n      swap1\n      pop\n      jump\t// out\n        /* \"#utility.yul\":466:570   */\n    tag_136:\n        /* \"#utility.yul\":511:518   */\n      0x00\n        /* \"#utility.yul\":540:564   */\n      tag_197\n        /* \"#utility.yul\":558:563   */\n      dup3\n        /* \"#utility.yul\":540:564   */\n      tag_135\n      jump\t// in\n    tag_197:\n        /* \"#utility.yul\":529:564   */\n      swap1\n      pop\n        /* \"#utility.yul\":466:570   */\n      swap2\n      swap1\n      pop\n      jump\t// out\n        /* \"#utility.yul\":576:714   */\n    tag_137:\n        /* \"#utility.yul\":657:689   */\n      tag_199\n        /* \"#utility.yul\":683:688   */\n      dup2\n        /* \"#utility.yul\":657:689   */\n      tag_136\n      jump\t// in\n    tag_199:\n        /* \"#utility.yul\":650:655   */\n      dup2\n        /* \"#utility.yul\":647:690   */\n      eq\n        /* \"#utility.yul\":637:708   */\n      tag_200\n      jumpi\n        /* \"#utility.yul\":704:705   */\n      0x00\n        /* \"#utility.yul\":701:702   */\n      dup1\n        /* \"#utility.yul\":694:706   */\n      revert\n        /* \"#utility.yul\":637:708   */\n    tag_200:\n        /* \"#utility.yul\":576:714   */\n      pop\n      jump\t// out\n        /* \"#utility.yul\":720:875   */\n    tag_138:\n        /* \"#utility.yul\":774:779   */\n      0x00\n        /* \"#utility.yul\":812:818   */\n      dup2\n        /* \"#utility.yul\":799:819   */\n      calldataload\n        /* \"#utility.yul\":790:819   */\n      swap1\n      pop\n        /* \"#utility.yul\":828:869   */\n      tag_202\n        /* \"#utility.yul\":863:868   */\n      dup2\n        /* \"#utility.yul\":828:869   */\n      tag_137\n      jump\t// in\n    tag_202:\n        /* \"#utility.yul\":720:875   */\n      swap3\n      swap2\n      pop\n      pop\n      jump\t// out\n        /* \"#utility.yul\":881:998   */\n    tag_139:\n        /* \"#utility.yul\":990:991   */\n      0x00\n        /* \"#utility.yul\":987:988   */\n      dup1\n        /* \"#utility.yul\":980:992   */\n      revert\n        /* \"#utility.yul\":1004:1121   */\n    tag_140:\n        /* \"#utility.yul\":1113:1114   */\n      0x00\n        /* \"#utility.yul\":1110:1111   */\n      dup1\n        /* \"#utility.yul\":1103:1115   */\n      revert\n        /* \"#utility.yul\":1127:1229   */\n    tag_141:\n        /* \"#utility.yul\":1168:1174   */\n      0x00\n        /* \"#utility.yul\":1219:1221   */\n      0x1f\n        /* \"#utility.yul\":1215:1222   */\n      not\n        /* \"#utility.yul\":1210:1212   */\n      0x1f\n        /* \"#utility.yul\":1203:1208   */\n      dup4\n        /* \"#utility.yul\":1199:1213   */\n      add\n        /* \"#utility.yul\":1195:1223   */\n      and\n        /* \"#utility.yul\":1185:1223   */\n      swap1\n      pop\n        /* \"#utility.yul\":1127:1229   */\n      swap2\n      swap1\n      pop\n      jump\t// out\n        /* \"#utility.yul\":1235:1415   */\n    tag_142:\n        /* \"#utility.yul\":1283:1360   */\n      0x4e487b7100000000000000000000000000000000000000000000000000000000\n        /* \"#utility.yul\":1280:1281   */\n      0x00\n        /* \"#utility.yul\":1273:1361   */\n      mstore\n        /* \"#utility.yul\":1380:1384   */\n      0x41\n        /* \"#utility.yul\":1377:1378   */\n      0x04\n        /* \"#utility.yul\":1370:1385   */\n      mstore\n        /* \"#utility.yul\":1404:1408   */\n      0x24\n        /* \"#utility.yul\":1401:1402   */\n      0x00\n        /* \"#utility.yul\":1394:1409   */\n      revert\n        /* \"#utility.yul\":1421:1702   */\n    tag_143:\n        /* \"#utility.yul\":1504:1531   */\n      tag_208\n        /* \"#utility.yul\":1526:1530   */\n      dup3\n        /* \"#utility.yul\":1504:1531   */\n      tag_141\n      jump\t// in\n    tag_208:\n        /* \"#utility.yul\":1496:1502   */\n      dup2\n        /* \"#utility.yul\":1492:1532   */\n      add\n        /* \"#utility.yul\":1634:1640   */\n      dup2\n        /* \"#utility.yul\":1622:1632   */\n      dup2\n        /* \"#utility.yul\":1619:1641   */\n      lt\n        /* \"#utility.yul\":1598:1616   */\n      0xffffffffffffffff\n        /* \"#utility.yul\":1586:1596   */\n      dup3\n        /* \"#utility.yul\":1583:1617   */\n      gt\n        /* \"#utility.yul\":1580:1642   */\n      or\n        /* \"#utility.yul\":1577:1665   */\n      iszero\n      tag_209\n      jumpi\n        /* \"#utility.yul\":1645:1663   */\n      tag_210\n      tag_142\n      jump\t// in\n    tag_210:\n        /* \"#utility.yul\":1577:1665   */\n    tag_209:\n        /* \"#utility.yul\":1685:1695   */\n      dup1\n        /* \"#utility.yul\":1681:1683   */\n      0x40\n        /* \"#utility.yul\":1674:1696   */\n      mstore\n        /* \"#utility.yul\":1464:1702   */\n      pop\n        /* \"#utility.yul\":1421:1702   */\n      pop\n      pop\n      jump\t// out\n        /* \"#utility.yul\":1708:1837   */\n    tag_144:\n        /* \"#utility.yul\":1742:1748   */\n      0x00\n        /* \"#utility.yul\":1769:1789   */\n      tag_212\n      tag_132\n      jump\t// in\n    tag_212:\n        /* \"#utility.yul\":1759:1789   */\n      swap1\n      pop\n        /* \"#utility.yul\":1798:1831   */\n      tag_213\n        /* \"#utility.yul\":1826:1830   */\n      dup3\n        /* \"#utility.yul\":1818:1824   */\n      dup3\n        /* \"#utility.yul\":1798:1831   */\n      tag_143\n      jump\t// in\n    tag_213:\n        /* \"#utility.yul\":1708:1837   */\n      swap2\n      swap1\n      pop\n      jump\t// out\n        /* \"#utility.yul\":1843:2151   */\n    tag_145:\n        /* \"#utility.yul\":1905:1909   */\n      0x00\n        /* \"#utility.yul\":1995:2013   */\n      0xffffffffffffffff\n        /* \"#utility.yul\":1987:1993   */\n      dup3\n        /* \"#utility.yul\":1984:2014   */\n      gt\n        /* \"#utility.yul\":1981:2037   */\n      iszero\n      tag_215\n      jumpi\n        /* \"#utility.yul\":2017:2035   */\n      tag_216\n      tag_142\n      jump\t// in\n    tag_216:\n        /* \"#utility.yul\":1981:2037   */\n    tag_215:\n        /* \"#utility.yul\":2055:2084   */\n      tag_217\n        /* \"#utility.yul\":2077:2083   */\n      dup3\n        /* \"#utility.yul\":2055:2084   */\n      tag_141\n      jump\t// in\n    tag_217:\n        /* \"#utility.yul\":2047:2084   */\n      swap1\n      pop\n        /* \"#utility.yul\":2139:2143   */\n      0x20\n        /* \"#utility.yul\":2133:2137   */\n      dup2\n        /* \"#utility.yul\":2129:2144   */\n      add\n        /* \"#utility.yul\":2121:2144   */\n      swap1\n      pop\n        /* \"#utility.yul\":1843:2151   */\n      swap2\n      swap1\n      pop\n      jump\t// out\n        /* \"#utility.yul\":2157:2311   */\n    tag_146:\n        /* \"#utility.yul\":2241:2247   */\n      dup3\n        /* \"#utility.yul\":2236:2239   */\n      dup2\n        /* \"#utility.yul\":2231:2234   */\n      dup4\n        /* \"#utility.yul\":2218:2248   */\n      calldatacopy\n        /* \"#utility.yul\":2303:2304   */\n      0x00\n        /* \"#utility.yul\":2294:2300   */\n      dup4\n        /* \"#utility.yul\":2289:2292   */\n      dup4\n        /* \"#utility.yul\":2285:2301   */\n      add\n        /* \"#utility.yul\":2278:2305   */\n      mstore\n        /* \"#utility.yul\":2157:2311   */\n      pop\n      pop\n      pop\n      jump\t// out\n        /* \"#utility.yul\":2317:2729   */\n    tag_147:\n        /* \"#utility.yul\":2395:2400   */\n      0x00\n        /* \"#utility.yul\":2420:2486   */\n      tag_220\n        /* \"#utility.yul\":2436:2485   */\n      tag_221\n        /* \"#utility.yul\":2478:2484   */\n      dup5\n        /* \"#utility.yul\":2436:2485   */\n      tag_145\n      jump\t// in\n    tag_221:\n        /* \"#utility.yul\":2420:2486   */\n      tag_144\n      jump\t// in\n    tag_220:\n        /* \"#utility.yul\":2411:2486   */\n      swap1\n      pop\n        /* \"#utility.yul\":2509:2515   */\n      dup3\n        /* \"#utility.yul\":2502:2507   */\n      dup2\n        /* \"#utility.yul\":2495:2516   */\n      mstore\n        /* \"#utility.yul\":2547:2551   */\n      0x20\n        /* \"#utility.yul\":2540:2545   */\n      dup2\n        /* \"#utility.yul\":2536:2552   */\n      add\n        /* \"#utility.yul\":2585:2588   */\n      dup5\n        /* \"#utility.yul\":2576:2582   */\n      dup5\n        /* \"#utility.yul\":2571:2574   */\n      dup5\n        /* \"#utility.yul\":2567:2583   */\n      add\n        /* \"#utility.yul\":2564:2589   */\n      gt\n        /* \"#utility.yul\":2561:2673   */\n      iszero\n      tag_222\n      jumpi\n        /* \"#utility.yul\":2592:2671   */\n      tag_223\n      tag_140\n      jump\t// in\n    tag_223:\n        /* \"#utility.yul\":2561:2673   */\n    tag_222:\n        /* \"#utility.yul\":2682:2723   */\n      tag_224\n        /* \"#utility.yul\":2716:2722   */\n      dup5\n        /* \"#utility.yul\":2711:2714   */\n      dup3\n        /* \"#utility.yul\":2706:2709   */\n      dup6\n        /* \"#utility.yul\":2682:2723   */\n      tag_146\n      jump\t// in\n    tag_224:\n        /* \"#utility.yul\":2401:2729   */\n      pop\n        /* \"#utility.yul\":2317:2729   */\n      swap4\n      swap3\n      pop\n      pop\n      pop\n      jump\t// out\n        /* \"#utility.yul\":2749:3089   */\n    tag_148:\n        /* \"#utility.yul\":2805:2810   */\n      0x00\n        /* \"#utility.yul\":2854:2857   */\n      dup3\n        /* \"#utility.yul\":2847:2851   */\n      0x1f\n        /* \"#utility.yul\":2839:2845   */\n      dup4\n        /* \"#utility.yul\":2835:2852   */\n      add\n        /* \"#utility.yul\":2831:2858   */\n      slt\n        /* \"#utility.yul\":2821:2943   */\n      tag_226\n      jumpi\n        /* \"#utility.yul\":2862:2941   */\n      tag_227\n      tag_139\n      jump\t// in\n    tag_227:\n        /* \"#utility.yul\":2821:2943   */\n    tag_226:\n        /* \"#utility.yul\":2979:2985   */\n      dup2\n        /* \"#utility.yul\":2966:2986   */\n      calldataload\n        /* \"#utility.yul\":3004:3083   */\n      tag_228\n        /* \"#utility.yul\":3079:3082   */\n      dup5\n        /* \"#utility.yul\":3071:3077   */\n      dup3\n        /* \"#utility.yul\":3064:3068   */\n      0x20\n        /* \"#utility.yul\":3056:3062   */\n      dup7\n        /* \"#utility.yul\":3052:3069   */\n      add\n        /* \"#utility.yul\":3004:3083   */\n      tag_147\n      jump\t// in\n    tag_228:\n        /* \"#utility.yul\":2995:3083   */\n      swap2\n      pop\n        /* \"#utility.yul\":2811:3089   */\n      pop\n        /* \"#utility.yul\":2749:3089   */\n      swap3\n      swap2\n      pop\n      pop\n      jump\t// out\n        /* \"#utility.yul\":3095:3172   */\n    tag_149:\n        /* \"#utility.yul\":3132:3139   */\n      0x00\n        /* \"#utility.yul\":3161:3166   */\n      dup2\n        /* \"#utility.yul\":3150:3166   */\n      swap1\n      pop\n        /* \"#utility.yul\":3095:3172   */\n      swap2\n      swap1\n      pop\n      jump\t// out\n        /* \"#utility.yul\":3178:3300   */\n    tag_150:\n        /* \"#utility.yul\":3251:3275   */\n      tag_231\n        /* \"#utility.yul\":3269:3274   */\n      dup2\n        /* \"#utility.yul\":3251:3275   */\n      tag_149\n      jump\t// in\n    tag_231:\n        /* \"#utility.yul\":3244:3249   */\n      dup2\n        /* \"#utility.yul\":3241:3276   */\n      eq\n        /* \"#utility.yul\":3231:3294   */\n      tag_232\n      jumpi\n        /* \"#utility.yul\":3290:3291   */\n      0x00\n        /* \"#utility.yul\":3287:3288   */\n      dup1\n        /* \"#utility.yul\":3280:3292   */\n      revert\n        /* \"#utility.yul\":3231:3294   */\n    tag_232:\n        /* \"#utility.yul\":3178:3300   */\n      pop\n      jump\t// out\n        /* \"#utility.yul\":3306:3445   */\n    tag_151:\n        /* \"#utility.yul\":3352:3357   */\n      0x00\n        /* \"#utility.yul\":3390:3396   */\n      dup2\n        /* \"#utility.yul\":3377:3397   */\n      calldataload\n        /* \"#utility.yul\":3368:3397   */\n      swap1\n      pop\n        /* \"#utility.yul\":3406:3439   */\n      tag_234\n        /* \"#utility.yul\":3433:3438   */\n      dup2\n        /* \"#utility.yul\":3406:3439   */\n      tag_150\n      jump\t// in\n    tag_234:\n        /* \"#utility.yul\":3306:3445   */\n      swap3\n      swap2\n      pop\n      pop\n      jump\t// out\n        /* \"#utility.yul\":3451:3541   */\n    tag_152:\n        /* \"#utility.yul\":3485:3492   */\n      0x00\n        /* \"#utility.yul\":3528:3533   */\n      dup2\n        /* \"#utility.yul\":3521:3534   */\n      iszero\n        /* \"#utility.yul\":3514:3535   */\n      iszero\n        /* \"#utility.yul\":3503:3535   */\n      swap1\n      pop\n        /* \"#utility.yul\":3451:3541   */\n      swap2\n      swap1\n      pop\n      jump\t// out\n        /* \"#utility.yul\":3547:3663   */\n    tag_153:\n        /* \"#utility.yul\":3617:3638   */\n      tag_237\n        /* \"#utility.yul\":3632:3637   */\n      dup2\n        /* \"#utility.yul\":3617:3638   */\n      tag_152\n      jump\t// in\n    tag_237:\n        /* \"#utility.yul\":3610:3615   */\n      dup2\n        /* \"#utility.yul\":3607:3639   */\n      eq\n        /* \"#utility.yul\":3597:3657   */\n      tag_238\n      jumpi\n        /* \"#utility.yul\":3653:3654   */\n      0x00\n        /* \"#utility.yul\":3650:3651   */\n      dup1\n        /* \"#utility.yul\":3643:3655   */\n      revert\n        /* \"#utility.yul\":3597:3657   */\n    tag_238:\n        /* \"#utility.yul\":3547:3663   */\n      pop\n      jump\t// out\n        /* \"#utility.yul\":3669:3802   */\n    tag_154:\n        /* \"#utility.yul\":3712:3717   */\n      0x00\n        /* \"#utility.yul\":3750:3756   */\n      dup2\n        /* \"#utility.yul\":3737:3757   */\n      calldataload\n        /* \"#utility.yul\":3728:3757   */\n      swap1\n      pop\n        /* \"#utility.yul\":3766:3796   */\n      tag_240\n        /* \"#utility.yul\":3790:3795   */\n      dup2\n        /* \"#utility.yul\":3766:3796   */\n      tag_153\n      jump\t// in\n    tag_240:\n        /* \"#utility.yul\":3669:3802   */\n      swap3\n      swap2\n      pop\n      pop\n      jump\t// out\n        /* \"#utility.yul\":3808:5235   */\n    tag_11:\n        /* \"#utility.yul\":3937:3943   */\n      0x00\n        /* \"#utility.yul\":3945:3951   */\n      dup1\n        /* \"#utility.yul\":3953:3959   */\n      0x00\n        /* \"#utility.yul\":3961:3967   */\n      dup1\n        /* \"#utility.yul\":3969:3975   */\n      0x00\n        /* \"#utility.yul\":3977:3983   */\n      dup1\n        /* \"#utility.yul\":4026:4029   */\n      0xc0\n        /* \"#utility.yul\":4014:4023   */\n      dup8\n        /* \"#utility.yul\":4005:4012   */\n      dup10\n        /* \"#utility.yul\":4001:4024   */\n      sub\n        /* \"#utility.yul\":3997:4030   */\n      slt\n        /* \"#utility.yul\":3994:4114   */\n      iszero\n      tag_242\n      jumpi\n        /* \"#utility.yul\":4033:4112   */\n      tag_243\n      tag_133\n      jump\t// in\n    tag_243:\n        /* \"#utility.yul\":3994:4114   */\n    tag_242:\n        /* \"#utility.yul\":4153:4154   */\n      0x00\n        /* \"#utility.yul\":4178:4239   */\n      tag_244\n        /* \"#utility.yul\":4231:4238   */\n      dup10\n        /* \"#utility.yul\":4222:4228   */\n      dup3\n        /* \"#utility.yul\":4211:4220   */\n      dup11\n        /* \"#utility.yul\":4207:4229   */\n      add\n        /* \"#utility.yul\":4178:4239   */\n      tag_138\n      jump\t// in\n    tag_244:\n        /* \"#utility.yul\":4168:4239   */\n      swap7\n      pop\n        /* \"#utility.yul\":4124:4249   */\n      pop\n        /* \"#utility.yul\":4316:4318   */\n      0x20\n        /* \"#utility.yul\":4305:4314   */\n      dup8\n        /* \"#utility.yul\":4301:4319   */\n      add\n        /* \"#utility.yul\":4288:4320   */\n      calldataload\n        /* \"#utility.yul\":4347:4365   */\n      0xffffffffffffffff\n        /* \"#utility.yul\":4339:4345   */\n      dup2\n        /* \"#utility.yul\":4336:4366   */\n      gt\n        /* \"#utility.yul\":4333:4450   */\n      iszero\n      tag_245\n      jumpi\n        /* \"#utility.yul\":4369:4448   */\n      tag_246\n      tag_134\n      jump\t// in\n    tag_246:\n        /* \"#utility.yul\":4333:4450   */\n    tag_245:\n        /* \"#utility.yul\":4474:4537   */\n      tag_247\n        /* \"#utility.yul\":4529:4536   */\n      dup10\n        /* \"#utility.yul\":4520:4526   */\n      dup3\n        /* \"#utility.yul\":4509:4518   */\n      dup11\n        /* \"#utility.yul\":4505:4527   */\n      add\n        /* \"#utility.yul\":4474:4537   */\n      tag_148\n      jump\t// in\n    tag_247:\n        /* \"#utility.yul\":4464:4537   */\n      swap6\n      pop\n        /* \"#utility.yul\":4259:4547   */\n      pop\n        /* \"#utility.yul\":4614:4616   */\n      0x40\n        /* \"#utility.yul\":4603:4612   */\n      dup8\n        /* \"#utility.yul\":4599:4617   */\n      add\n        /* \"#utility.yul\":4586:4618   */\n      calldataload\n        /* \"#utility.yul\":4645:4663   */\n      0xffffffffffffffff\n        /* \"#utility.yul\":4637:4643   */\n      dup2\n        /* \"#utility.yul\":4634:4664   */\n      gt\n        /* \"#utility.yul\":4631:4748   */\n      iszero\n      tag_248\n      jumpi\n        /* \"#utility.yul\":4667:4746   */\n      tag_249\n      tag_134\n      jump\t// in\n    tag_249:\n        /* \"#utility.yul\":4631:4748   */\n    tag_248:\n        /* \"#utility.yul\":4772:4835   */\n      tag_250\n        /* \"#utility.yul\":4827:4834   */\n      dup10\n        /* \"#utility.yul\":4818:4824   */\n      dup3\n        /* \"#utility.yul\":4807:4816   */\n      dup11\n        /* \"#utility.yul\":4803:4825   */\n      add\n        /* \"#utility.yul\":4772:4835   */\n      tag_148\n      jump\t// in\n    tag_250:\n        /* \"#utility.yul\":4762:4835   */\n      swap5\n      pop\n        /* \"#utility.yul\":4557:4845   */\n      pop\n        /* \"#utility.yul\":4884:4886   */\n      0x60\n        /* \"#utility.yul\":4910:4963   */\n      tag_251\n        /* \"#utility.yul\":4955:4962   */\n      dup10\n        /* \"#utility.yul\":4946:4952   */\n      dup3\n        /* \"#utility.yul\":4935:4944   */\n      dup11\n        /* \"#utility.yul\":4931:4953   */\n      add\n        /* \"#utility.yul\":4910:4963   */\n      tag_151\n      jump\t// in\n    tag_251:\n        /* \"#utility.yul\":4900:4963   */\n      swap4\n      pop\n        /* \"#utility.yul\":4855:4973   */\n      pop\n        /* \"#utility.yul\":5012:5015   */\n      0x80\n        /* \"#utility.yul\":5039:5092   */\n      tag_252\n        /* \"#utility.yul\":5084:5091   */\n      dup10\n        /* \"#utility.yul\":5075:5081   */\n      dup3\n        /* \"#utility.yul\":5064:5073   */\n      dup11\n        /* \"#utility.yul\":5060:5082   */\n      add\n        /* \"#utility.yul\":5039:5092   */\n      tag_151\n      jump\t// in\n    tag_252:\n        /* \"#utility.yul\":5029:5092   */\n      swap3\n      pop\n        /* \"#utility.yul\":4983:5102   */\n      pop\n        /* \"#utility.yul\":5141:5144   */\n      0xa0\n        /* \"#utility.yul\":5168:5218   */\n      tag_253\n        /* \"#utility.yul\":5210:5217   */\n      dup10\n        /* \"#utility.yul\":5201:5207   */\n      dup3\n        /* \"#utility.yul\":5190:5199   */\n      dup11\n        /* \"#utility.yul\":5186:5208   */\n      add\n        /* \"#utility.yul\":5168:5218   */\n      tag_154\n      jump\t// in\n    tag_253:\n        /* \"#utility.yul\":5158:5218   */\n      swap2\n      pop\n        /* \"#utility.yul\":5112:5228   */\n      pop\n        /* \"#utility.yul\":3808:5235   */\n      swap3\n      swap6\n      pop\n      swap3\n      swap6\n      pop\n      swap3\n      swap6\n      jump\t// out\n        /* \"#utility.yul\":5241:5586   */\n    tag_15:\n        /* \"#utility.yul\":5308:5314   */\n      0x00\n        /* \"#utility.yul\":5357:5359   */\n      0x20\n        /* \"#utility.yul\":5345:5354   */\n      dup3\n        /* \"#utility.yul\":5336:5343   */\n      dup5\n        /* \"#utility.yul\":5332:5355   */\n      sub\n        /* \"#utility.yul\":5328:5360   */\n      slt\n        /* \"#utility.yul\":5325:5444   */\n      iszero\n      tag_255\n      jumpi\n        /* \"#utility.yul\":5363:5442   */\n      tag_256\n      tag_133\n      jump\t// in\n    tag_256:\n        /* \"#utility.yul\":5325:5444   */\n    tag_255:\n        /* \"#utility.yul\":5483:5484   */\n      0x00\n        /* \"#utility.yul\":5508:5569   */\n      tag_257\n        /* \"#utility.yul\":5561:5568   */\n      dup5\n        /* \"#utility.yul\":5552:5558   */\n      dup3\n        /* \"#utility.yul\":5541:5550   */\n      dup6\n        /* \"#utility.yul\":5537:5559   */\n      add\n        /* \"#utility.yul\":5508:5569   */\n      tag_138\n      jump\t// in\n    tag_257:\n        /* \"#utility.yul\":5498:5569   */\n      swap2\n      pop\n        /* \"#utility.yul\":5454:5579   */\n      pop\n        /* \"#utility.yul\":5241:5586   */\n      swap3\n      swap2\n      pop\n      pop\n      jump\t// out\n        /* \"#utility.yul\":5592:5710   */\n    tag_155:\n        /* \"#utility.yul\":5679:5703   */\n      tag_259\n        /* \"#utility.yul\":5697:5702   */\n      dup2\n        /* \"#utility.yul\":5679:5703   */\n      tag_149\n      jump\t// in\n    tag_259:\n        /* \"#utility.yul\":5674:5677   */\n      dup3\n        /* \"#utility.yul\":5667:5704   */\n      mstore\n        /* \"#utility.yul\":5592:5710   */\n      pop\n      pop\n      jump\t// out\n        /* \"#utility.yul\":5716:5938   */\n    tag_21:\n        /* \"#utility.yul\":5809:5813   */\n      0x00\n        /* \"#utility.yul\":5847:5849   */\n      0x20\n        /* \"#utility.yul\":5836:5845   */\n      dup3\n        /* \"#utility.yul\":5832:5850   */\n      add\n        /* \"#utility.yul\":5824:5850   */\n      swap1\n      pop\n        /* \"#utility.yul\":5860:5931   */\n      tag_261\n        /* \"#utility.yul\":5928:5929   */\n      0x00\n        /* \"#utility.yul\":5917:5926   */\n      dup4\n        /* \"#utility.yul\":5913:5930   */\n      add\n        /* \"#utility.yul\":5904:5910   */\n      dup5\n        /* \"#utility.yul\":5860:5931   */\n      tag_155\n      jump\t// in\n    tag_261:\n        /* \"#utility.yul\":5716:5938   */\n      swap3\n      swap2\n      pop\n      pop\n      jump\t// out\n        /* \"#utility.yul\":5944:6273   */\n    tag_25:\n        /* \"#utility.yul\":6003:6009   */\n      0x00\n        /* \"#utility.yul\":6052:6054   */\n      0x20\n        /* \"#utility.yul\":6040:6049   */\n      dup3\n        /* \"#utility.yul\":6031:6038   */\n      dup5\n        /* \"#utility.yul\":6027:6050   */\n      sub\n        /* \"#utility.yul\":6023:6055   */\n      slt\n        /* \"#utility.yul\":6020:6139   */\n      iszero\n      tag_263\n      jumpi\n        /* \"#utility.yul\":6058:6137   */\n      tag_264\n      tag_133\n      jump\t// in\n    tag_264:\n        /* \"#utility.yul\":6020:6139   */\n    tag_263:\n        /* \"#utility.yul\":6178:6179   */\n      0x00\n        /* \"#utility.yul\":6203:6256   */\n      tag_265\n        /* \"#utility.yul\":6248:6255   */\n      dup5\n        /* \"#utility.yul\":6239:6245   */\n      dup3\n        /* \"#utility.yul\":6228:6237   */\n      dup6\n        /* \"#utility.yul\":6224:6246   */\n      add\n        /* \"#utility.yul\":6203:6256   */\n      tag_151\n      jump\t// in\n    tag_265:\n        /* \"#utility.yul\":6193:6256   */\n      swap2\n      pop\n        /* \"#utility.yul\":6149:6266   */\n      pop\n        /* \"#utility.yul\":5944:6273   */\n      swap3\n      swap2\n      pop\n      pop\n      jump\t// out\n        /* \"#utility.yul\":6279:6421   */\n    tag_156:\n        /* \"#utility.yul\":6382:6414   */\n      tag_267\n        /* \"#utility.yul\":6408:6413   */\n      dup2\n        /* \"#utility.yul\":6382:6414   */\n      tag_136\n      jump\t// in\n    tag_267:\n        /* \"#utility.yul\":6377:6380   */\n      dup3\n        /* \"#utility.yul\":6370:6415   */\n      mstore\n        /* \"#utility.yul\":6279:6421   */\n      pop\n      pop\n      jump\t// out\n        /* \"#utility.yul\":6427:6526   */\n    tag_157:\n        /* \"#utility.yul\":6479:6485   */\n      0x00\n        /* \"#utility.yul\":6513:6518   */\n      dup2\n        /* \"#utility.yul\":6507:6519   */\n      mload\n        /* \"#utility.yul\":6497:6519   */\n      swap1\n      pop\n        /* \"#utility.yul\":6427:6526   */\n      swap2\n      swap1\n      pop\n      jump\t// out\n        /* \"#utility.yul\":6532:6701   */\n    tag_158:\n        /* \"#utility.yul\":6616:6627   */\n      0x00\n        /* \"#utility.yul\":6650:6656   */\n      dup3\n        /* \"#utility.yul\":6645:6648   */\n      dup3\n        /* \"#utility.yul\":6638:6657   */\n      mstore\n        /* \"#utility.yul\":6690:6694   */\n      0x20\n        /* \"#utility.yul\":6685:6688   */\n      dup3\n        /* \"#utility.yul\":6681:6695   */\n      add\n        /* \"#utility.yul\":6666:6695   */\n      swap1\n      pop\n        /* \"#utility.yul\":6532:6701   */\n      swap3\n      swap2\n      pop\n      pop\n      jump\t// out\n        /* \"#utility.yul\":6707:7014   */\n    tag_159:\n        /* \"#utility.yul\":6775:6776   */\n      0x00\n        /* \"#utility.yul\":6785:6898   */\n    tag_271:\n        /* \"#utility.yul\":6799:6805   */\n      dup4\n        /* \"#utility.yul\":6796:6797   */\n      dup2\n        /* \"#utility.yul\":6793:6806   */\n      lt\n        /* \"#utility.yul\":6785:6898   */\n      iszero\n      tag_273\n      jumpi\n        /* \"#utility.yul\":6884:6885   */\n      dup1\n        /* \"#utility.yul\":6879:6882   */\n      dup3\n        /* \"#utility.yul\":6875:6886   */\n      add\n        /* \"#utility.yul\":6869:6887   */\n      mload\n        /* \"#utility.yul\":6865:6866   */\n      dup2\n        /* \"#utility.yul\":6860:6863   */\n      dup5\n        /* \"#utility.yul\":6856:6867   */\n      add\n        /* \"#utility.yul\":6849:6888   */\n      mstore\n        /* \"#utility.yul\":6821:6823   */\n      0x20\n        /* \"#utility.yul\":6818:6819   */\n      dup2\n        /* \"#utility.yul\":6814:6824   */\n      add\n        /* \"#utility.yul\":6809:6824   */\n      swap1\n      pop\n        /* \"#utility.yul\":6785:6898   */\n      jump(tag_271)\n    tag_273:\n        /* \"#utility.yul\":6916:6922   */\n      dup4\n        /* \"#utility.yul\":6913:6914   */\n      dup2\n        /* \"#utility.yul\":6910:6923   */\n      gt\n        /* \"#utility.yul\":6907:7008   */\n      iszero\n      tag_274\n      jumpi\n        /* \"#utility.yul\":6996:6997   */\n      0x00\n        /* \"#utility.yul\":6987:6993   */\n      dup5\n        /* \"#utility.yul\":6982:6985   */\n      dup5\n        /* \"#utility.yul\":6978:6994   */\n      add\n        /* \"#utility.yul\":6971:6998   */\n      mstore\n        /* \"#utility.yul\":6907:7008   */\n    tag_274:\n        /* \"#utility.yul\":6756:7014   */\n      pop\n        /* \"#utility.yul\":6707:7014   */\n      pop\n      pop\n      pop\n      jump\t// out\n        /* \"#utility.yul\":7020:7384   */\n    tag_160:\n        /* \"#utility.yul\":7108:7111   */\n      0x00\n        /* \"#utility.yul\":7136:7175   */\n      tag_276\n        /* \"#utility.yul\":7169:7174   */\n      dup3\n        /* \"#utility.yul\":7136:7175   */\n      tag_157\n      jump\t// in\n    tag_276:\n        /* \"#utility.yul\":7191:7262   */\n      tag_277\n        /* \"#utility.yul\":7255:7261   */\n      dup2\n        /* \"#utility.yul\":7250:7253   */\n      dup6\n        /* \"#utility.yul\":7191:7262   */\n      tag_158\n      jump\t// in\n    tag_277:\n        /* \"#utility.yul\":7184:7262   */\n      swap4\n      pop\n        /* \"#utility.yul\":7271:7323   */\n      tag_278\n        /* \"#utility.yul\":7316:7322   */\n      dup2\n        /* \"#utility.yul\":7311:7314   */\n      dup6\n        /* \"#utility.yul\":7304:7308   */\n      0x20\n        /* \"#utility.yul\":7297:7302   */\n      dup7\n        /* \"#utility.yul\":7293:7309   */\n      add\n        /* \"#utility.yul\":7271:7323   */\n      tag_159\n      jump\t// in\n    tag_278:\n        /* \"#utility.yul\":7348:7377   */\n      tag_279\n        /* \"#utility.yul\":7370:7376   */\n      dup2\n        /* \"#utility.yul\":7348:7377   */\n      tag_141\n      jump\t// in\n    tag_279:\n        /* \"#utility.yul\":7343:7346   */\n      dup5\n        /* \"#utility.yul\":7339:7378   */\n      add\n        /* \"#utility.yul\":7332:7378   */\n      swap2\n      pop\n        /* \"#utility.yul\":7112:7384   */\n      pop\n        /* \"#utility.yul\":7020:7384   */\n      swap3\n      swap2\n      pop\n      pop\n      jump\t// out\n        /* \"#utility.yul\":7390:7499   */\n    tag_161:\n        /* \"#utility.yul\":7471:7492   */\n      tag_281\n        /* \"#utility.yul\":7486:7491   */\n      dup2\n        /* \"#utility.yul\":7471:7492   */\n      tag_152\n      jump\t// in\n    tag_281:\n        /* \"#utility.yul\":7466:7469   */\n      dup3\n        /* \"#utility.yul\":7459:7493   */\n      mstore\n        /* \"#utility.yul\":7390:7499   */\n      pop\n      pop\n      jump\t// out\n        /* \"#utility.yul\":7505:8482   */\n    tag_28:\n        /* \"#utility.yul\":7788:7792   */\n      0x00\n        /* \"#utility.yul\":7826:7829   */\n      0xc0\n        /* \"#utility.yul\":7815:7824   */\n      dup3\n        /* \"#utility.yul\":7811:7830   */\n      add\n        /* \"#utility.yul\":7803:7830   */\n      swap1\n      pop\n        /* \"#utility.yul\":7840:7927   */\n      tag_283\n        /* \"#utility.yul\":7924:7925   */\n      0x00\n        /* \"#utility.yul\":7913:7922   */\n      dup4\n        /* \"#utility.yul\":7909:7926   */\n      add\n        /* \"#utility.yul\":7900:7906   */\n      dup10\n        /* \"#utility.yul\":7840:7927   */\n      tag_156\n      jump\t// in\n    tag_283:\n        /* \"#utility.yul\":7974:7983   */\n      dup2\n        /* \"#utility.yul\":7968:7972   */\n      dup2\n        /* \"#utility.yul\":7964:7984   */\n      sub\n        /* \"#utility.yul\":7959:7961   */\n      0x20\n        /* \"#utility.yul\":7948:7957   */\n      dup4\n        /* \"#utility.yul\":7944:7962   */\n      add\n        /* \"#utility.yul\":7937:7985   */\n      mstore\n        /* \"#utility.yul\":8002:8080   */\n      tag_284\n        /* \"#utility.yul\":8075:8079   */\n      dup2\n        /* \"#utility.yul\":8066:8072   */\n      dup9\n        /* \"#utility.yul\":8002:8080   */\n      tag_160\n      jump\t// in\n    tag_284:\n        /* \"#utility.yul\":7994:8080   */\n      swap1\n      pop\n        /* \"#utility.yul\":8127:8136   */\n      dup2\n        /* \"#utility.yul\":8121:8125   */\n      dup2\n        /* \"#utility.yul\":8117:8137   */\n      sub\n        /* \"#utility.yul\":8112:8114   */\n      0x40\n        /* \"#utility.yul\":8101:8110   */\n      dup4\n        /* \"#utility.yul\":8097:8115   */\n      add\n        /* \"#utility.yul\":8090:8138   */\n      mstore\n        /* \"#utility.yul\":8155:8233   */\n      tag_285\n        /* \"#utility.yul\":8228:8232   */\n      dup2\n        /* \"#utility.yul\":8219:8225   */\n      dup8\n        /* \"#utility.yul\":8155:8233   */\n      tag_160\n      jump\t// in\n    tag_285:\n        /* \"#utility.yul\":8147:8233   */\n      swap1\n      pop\n        /* \"#utility.yul\":8243:8315   */\n      tag_286\n        /* \"#utility.yul\":8311:8313   */\n      0x60\n        /* \"#utility.yul\":8300:8309   */\n      dup4\n        /* \"#utility.yul\":8296:8314   */\n      add\n        /* \"#utility.yul\":8287:8293   */\n      dup7\n        /* \"#utility.yul\":8243:8315   */\n      tag_155\n      jump\t// in\n    tag_286:\n        /* \"#utility.yul\":8325:8398   */\n      tag_287\n        /* \"#utility.yul\":8393:8396   */\n      0x80\n        /* \"#utility.yul\":8382:8391   */\n      dup4\n        /* \"#utility.yul\":8378:8397   */\n      add\n        /* \"#utility.yul\":8369:8375   */\n      dup6\n        /* \"#utility.yul\":8325:8398   */\n      tag_155\n      jump\t// in\n    tag_287:\n        /* \"#utility.yul\":8408:8475   */\n      tag_288\n        /* \"#utility.yul\":8470:8473   */\n      0xa0\n        /* \"#utility.yul\":8459:8468   */\n      dup4\n        /* \"#utility.yul\":8455:8474   */\n      add\n        /* \"#utility.yul\":8446:8452   */\n      dup5\n        /* \"#utility.yul\":8408:8475   */\n      tag_161\n      jump\t// in\n    tag_288:\n        /* \"#utility.yul\":7505:8482   */\n      swap8\n      swap7\n      pop\n      pop\n      pop\n      pop\n      pop\n      pop\n      pop\n      jump\t// out\n        /* \"#utility.yul\":8488:8584   */\n    tag_162:\n        /* \"#utility.yul\":8525:8532   */\n      0x00\n        /* \"#utility.yul\":8554:8578   */\n      tag_290\n        /* \"#utility.yul\":8572:8577   */\n      dup3\n        /* \"#utility.yul\":8554:8578   */\n      tag_135\n      jump\t// in\n    tag_290:\n        /* \"#utility.yul\":8543:8578   */\n      swap1\n      pop\n        /* \"#utility.yul\":8488:8584   */\n      swap2\n      swap1\n      pop\n      jump\t// out\n        /* \"#utility.yul\":8590:8712   */\n    tag_163:\n        /* \"#utility.yul\":8663:8687   */\n      tag_292\n        /* \"#utility.yul\":8681:8686   */\n      dup2\n        /* \"#utility.yul\":8663:8687   */\n      tag_162\n      jump\t// in\n    tag_292:\n        /* \"#utility.yul\":8656:8661   */\n      dup2\n        /* \"#utility.yul\":8653:8688   */\n      eq\n        /* \"#utility.yul\":8643:8706   */\n      tag_293\n      jumpi\n        /* \"#utility.yul\":8702:8703   */\n      0x00\n        /* \"#utility.yul\":8699:8700   */\n      dup1\n        /* \"#utility.yul\":8692:8704   */\n      revert\n        /* \"#utility.yul\":8643:8706   */\n    tag_293:\n        /* \"#utility.yul\":8590:8712   */\n      pop\n      jump\t// out\n        /* \"#utility.yul\":8718:8857   */\n    tag_164:\n        /* \"#utility.yul\":8764:8769   */\n      0x00\n        /* \"#utility.yul\":8802:8808   */\n      dup2\n        /* \"#utility.yul\":8789:8809   */\n      calldataload\n        /* \"#utility.yul\":8780:8809   */\n      swap1\n      pop\n        /* \"#utility.yul\":8818:8851   */\n      tag_295\n        /* \"#utility.yul\":8845:8850   */\n      dup2\n        /* \"#utility.yul\":8818:8851   */\n      tag_163\n      jump\t// in\n    tag_295:\n        /* \"#utility.yul\":8718:8857   */\n      swap3\n      swap2\n      pop\n      pop\n      jump\t// out\n        /* \"#utility.yul\":8863:9192   */\n    tag_32:\n        /* \"#utility.yul\":8922:8928   */\n      0x00\n        /* \"#utility.yul\":8971:8973   */\n      0x20\n        /* \"#utility.yul\":8959:8968   */\n      dup3\n        /* \"#utility.yul\":8950:8957   */\n      dup5\n        /* \"#utility.yul\":8946:8969   */\n      sub\n        /* \"#utility.yul\":8942:8974   */\n      slt\n        /* \"#utility.yul\":8939:9058   */\n      iszero\n      tag_297\n      jumpi\n        /* \"#utility.yul\":8977:9056   */\n      tag_298\n      tag_133\n      jump\t// in\n    tag_298:\n        /* \"#utility.yul\":8939:9058   */\n    tag_297:\n        /* \"#utility.yul\":9097:9098   */\n      0x00\n        /* \"#utility.yul\":9122:9175   */\n      tag_299\n        /* \"#utility.yul\":9167:9174   */\n      dup5\n        /* \"#utility.yul\":9158:9164   */\n      dup3\n        /* \"#utility.yul\":9147:9156   */\n      dup6\n        /* \"#utility.yul\":9143:9165   */\n      add\n        /* \"#utility.yul\":9122:9175   */\n      tag_164\n      jump\t// in\n    tag_299:\n        /* \"#utility.yul\":9112:9175   */\n      swap2\n      pop\n        /* \"#utility.yul\":9068:9185   */\n      pop\n        /* \"#utility.yul\":8863:9192   */\n      swap3\n      swap2\n      pop\n      pop\n      jump\t// out\n        /* \"#utility.yul\":9198:9408   */\n    tag_35:\n        /* \"#utility.yul\":9285:9289   */\n      0x00\n        /* \"#utility.yul\":9323:9325   */\n      0x20\n        /* \"#utility.yul\":9312:9321   */\n      dup3\n        /* \"#utility.yul\":9308:9326   */\n      add\n        /* \"#utility.yul\":9300:9326   */\n      swap1\n      pop\n        /* \"#utility.yul\":9336:9401   */\n      tag_301\n        /* \"#utility.yul\":9398:9399   */\n      0x00\n        /* \"#utility.yul\":9387:9396   */\n      dup4\n        /* \"#utility.yul\":9383:9400   */\n      add\n        /* \"#utility.yul\":9374:9380   */\n      dup5\n        /* \"#utility.yul\":9336:9401   */\n      tag_161\n      jump\t// in\n    tag_301:\n        /* \"#utility.yul\":9198:9408   */\n      swap3\n      swap2\n      pop\n      pop\n      jump\t// out\n        /* \"#utility.yul\":9414:9587   */\n    tag_165:\n        /* \"#utility.yul\":9554:9579   */\n      0x4f6e6c79206f776e65722063616e20616464206b696473000000000000000000\n        /* \"#utility.yul\":9550:9551   */\n      0x00\n        /* \"#utility.yul\":9542:9548   */\n      dup3\n        /* \"#utility.yul\":9538:9552   */\n      add\n        /* \"#utility.yul\":9531:9580   */\n      mstore\n        /* \"#utility.yul\":9414:9587   */\n      pop\n      jump\t// out\n        /* \"#utility.yul\":9593:9959   */\n    tag_166:\n        /* \"#utility.yul\":9735:9738   */\n      0x00\n        /* \"#utility.yul\":9756:9823   */\n      tag_304\n        /* \"#utility.yul\":9820:9822   */\n      0x17\n        /* \"#utility.yul\":9815:9818   */\n      dup4\n        /* \"#utility.yul\":9756:9823   */\n      tag_158\n      jump\t// in\n    tag_304:\n        /* \"#utility.yul\":9749:9823   */\n      swap2\n      pop\n        /* \"#utility.yul\":9832:9925   */\n      tag_305\n        /* \"#utility.yul\":9921:9924   */\n      dup3\n        /* \"#utility.yul\":9832:9925   */\n      tag_165\n      jump\t// in\n    tag_305:\n        /* \"#utility.yul\":9950:9952   */\n      0x20\n        /* \"#utility.yul\":9945:9948   */\n      dup3\n        /* \"#utility.yul\":9941:9953   */\n      add\n        /* \"#utility.yul\":9934:9953   */\n      swap1\n      pop\n        /* \"#utility.yul\":9593:9959   */\n      swap2\n      swap1\n      pop\n      jump\t// out\n        /* \"#utility.yul\":9965:10384   */\n    tag_42:\n        /* \"#utility.yul\":10131:10135   */\n      0x00\n        /* \"#utility.yul\":10169:10171   */\n      0x20\n        /* \"#utility.yul\":10158:10167   */\n      dup3\n        /* \"#utility.yul\":10154:10172   */\n      add\n        /* \"#utility.yul\":10146:10172   */\n      swap1\n      pop\n        /* \"#utility.yul\":10218:10227   */\n      dup2\n        /* \"#utility.yul\":10212:10216   */\n      dup2\n        /* \"#utility.yul\":10208:10228   */\n      sub\n        /* \"#utility.yul\":10204:10205   */\n      0x00\n        /* \"#utility.yul\":10193:10202   */\n      dup4\n        /* \"#utility.yul\":10189:10206   */\n      add\n        /* \"#utility.yul\":10182:10229   */\n      mstore\n        /* \"#utility.yul\":10246:10377   */\n      tag_307\n        /* \"#utility.yul\":10372:10376   */\n      dup2\n        /* \"#utility.yul\":10246:10377   */\n      tag_166\n      jump\t// in\n    tag_307:\n        /* \"#utility.yul\":10238:10377   */\n      swap1\n      pop\n        /* \"#utility.yul\":9965:10384   */\n      swap2\n      swap1\n      pop\n      jump\t// out\n        /* \"#utility.yul\":10390:10570   */\n    tag_167:\n        /* \"#utility.yul\":10438:10515   */\n      0x4e487b7100000000000000000000000000000000000000000000000000000000\n        /* \"#utility.yul\":10435:10436   */\n      0x00\n        /* \"#utility.yul\":10428:10516   */\n      mstore\n        /* \"#utility.yul\":10535:10539   */\n      0x22\n        /* \"#utility.yul\":10532:10533   */\n      0x04\n        /* \"#utility.yul\":10525:10540   */\n      mstore\n        /* \"#utility.yul\":10559:10563   */\n      0x24\n        /* \"#utility.yul\":10556:10557   */\n      0x00\n        /* \"#utility.yul\":10549:10564   */\n      revert\n        /* \"#utility.yul\":10576:10896   */\n    tag_76:\n        /* \"#utility.yul\":10620:10626   */\n      0x00\n        /* \"#utility.yul\":10657:10658   */\n      0x02\n        /* \"#utility.yul\":10651:10655   */\n      dup3\n        /* \"#utility.yul\":10647:10659   */\n      div\n        /* \"#utility.yul\":10637:10659   */\n      swap1\n      pop\n        /* \"#utility.yul\":10704:10705   */\n      0x01\n        /* \"#utility.yul\":10698:10702   */\n      dup3\n        /* \"#utility.yul\":10694:10706   */\n      and\n        /* \"#utility.yul\":10725:10743   */\n      dup1\n        /* \"#utility.yul\":10715:10796   */\n      tag_310\n      jumpi\n        /* \"#utility.yul\":10781:10785   */\n      0x7f\n        /* \"#utility.yul\":10773:10779   */\n      dup3\n        /* \"#utility.yul\":10769:10786   */\n      and\n        /* \"#utility.yul\":10759:10786   */\n      swap2\n      pop\n        /* \"#utility.yul\":10715:10796   */\n    tag_310:\n        /* \"#utility.yul\":10843:10845   */\n      0x20\n        /* \"#utility.yul\":10835:10841   */\n      dup3\n        /* \"#utility.yul\":10832:10846   */\n      lt\n        /* \"#utility.yul\":10812:10830   */\n      dup2\n        /* \"#utility.yul\":10809:10847   */\n      sub\n        /* \"#utility.yul\":10806:10890   */\n      tag_311\n      jumpi\n        /* \"#utility.yul\":10862:10880   */\n      tag_312\n      tag_167\n      jump\t// in\n    tag_312:\n        /* \"#utility.yul\":10806:10890   */\n    tag_311:\n        /* \"#utility.yul\":10627:10896   */\n      pop\n        /* \"#utility.yul\":10576:10896   */\n      swap2\n      swap1\n      pop\n      jump\t// out\n        /* \"#utility.yul\":10902:11043   */\n    tag_168:\n        /* \"#utility.yul\":10951:10955   */\n      0x00\n        /* \"#utility.yul\":10974:10977   */\n      dup2\n        /* \"#utility.yul\":10966:10977   */\n      swap1\n      pop\n        /* \"#utility.yul\":10997:11000   */\n      dup2\n        /* \"#utility.yul\":10994:10995   */\n      0x00\n        /* \"#utility.yul\":10987:11001   */\n      mstore\n        /* \"#utility.yul\":11031:11035   */\n      0x20\n        /* \"#utility.yul\":11028:11029   */\n      0x00\n        /* \"#utility.yul\":11018:11036   */\n      keccak256\n        /* \"#utility.yul\":11010:11036   */\n      swap1\n      pop\n        /* \"#utility.yul\":10902:11043   */\n      swap2\n      swap1\n      pop\n      jump\t// out\n        /* \"#utility.yul\":11049:11142   */\n    tag_169:\n        /* \"#utility.yul\":11086:11092   */\n      0x00\n        /* \"#utility.yul\":11133:11135   */\n      0x20\n        /* \"#utility.yul\":11128:11130   */\n      0x1f\n        /* \"#utility.yul\":11121:11126   */\n      dup4\n        /* \"#utility.yul\":11117:11131   */\n      add\n        /* \"#utility.yul\":11113:11136   */\n      div\n        /* \"#utility.yul\":11103:11136   */\n      swap1\n      pop\n        /* \"#utility.yul\":11049:11142   */\n      swap2\n      swap1\n      pop\n      jump\t// out\n        /* \"#utility.yul\":11148:11255   */\n    tag_170:\n        /* \"#utility.yul\":11192:11200   */\n      0x00\n        /* \"#utility.yul\":11242:11247   */\n      dup3\n        /* \"#utility.yul\":11236:11240   */\n      dup3\n        /* \"#utility.yul\":11232:11248   */\n      shl\n        /* \"#utility.yul\":11211:11248   */\n      swap1\n      pop\n        /* \"#utility.yul\":11148:11255   */\n      swap3\n      swap2\n      pop\n      pop\n      jump\t// out\n        /* \"#utility.yul\":11261:11654   */\n    tag_171:\n        /* \"#utility.yul\":11330:11336   */\n      0x00\n        /* \"#utility.yul\":11380:11381   */\n      0x08\n        /* \"#utility.yul\":11368:11378   */\n      dup4\n        /* \"#utility.yul\":11364:11382   */\n      mul\n        /* \"#utility.yul\":11403:11500   */\n      tag_317\n        /* \"#utility.yul\":11433:11499   */\n      0xffffffffffffffffffffffffffffffffffffffffffffffffffffffffffffffff\n        /* \"#utility.yul\":11422:11431   */\n      dup3\n        /* \"#utility.yul\":11403:11500   */\n      tag_170\n      jump\t// in\n    tag_317:\n        /* \"#utility.yul\":11521:11560   */\n      tag_318\n        /* \"#utility.yul\":11551:11559   */\n      dup7\n        /* \"#utility.yul\":11540:11549   */\n      dup4\n        /* \"#utility.yul\":11521:11560   */\n      tag_170\n      jump\t// in\n    tag_318:\n        /* \"#utility.yul\":11509:11560   */\n      swap6\n      pop\n        /* \"#utility.yul\":11593:11597   */\n      dup1\n        /* \"#utility.yul\":11589:11598   */\n      not\n        /* \"#utility.yul\":11582:11587   */\n      dup5\n        /* \"#utility.yul\":11578:11599   */\n      and\n        /* \"#utility.yul\":11569:11599   */\n      swap4\n      pop\n        /* \"#utility.yul\":11642:11646   */\n      dup1\n        /* \"#utility.yul\":11632:11640   */\n      dup7\n        /* \"#utility.yul\":11628:11647   */\n      and\n        /* \"#utility.yul\":11621:11626   */\n      dup5\n        /* \"#utility.yul\":11618:11648   */\n      or\n        /* \"#utility.yul\":11608:11648   */\n      swap3\n      pop\n        /* \"#utility.yul\":11337:11654   */\n      pop\n      pop\n        /* \"#utility.yul\":11261:11654   */\n      swap4\n      swap3\n      pop\n      pop\n      pop\n      jump\t// out\n        /* \"#utility.yul\":11660:11720   */\n    tag_172:\n        /* \"#utility.yul\":11688:11691   */\n      0x00\n        /* \"#utility.yul\":11709:11714   */\n      dup2\n        /* \"#utility.yul\":11702:11714   */\n      swap1\n      pop\n        /* \"#utility.yul\":11660:11720   */\n      swap2\n      swap1\n      pop\n      jump\t// out\n        /* \"#utility.yul\":11726:11868   */\n    tag_173:\n        /* \"#utility.yul\":11776:11785   */\n      0x00\n        /* \"#utility.yul\":11809:11862   */\n      tag_321\n        /* \"#utility.yul\":11827:11861   */\n      tag_322\n        /* \"#utility.yul\":11836:11860   */\n      tag_323\n        /* \"#utility.yul\":11854:11859   */\n      dup5\n        /* \"#utility.yul\":11836:11860   */\n      tag_149\n      jump\t// in\n    tag_323:\n        /* \"#utility.yul\":11827:11861   */\n      tag_172\n      jump\t// in\n    tag_322:\n        /* \"#utility.yul\":11809:11862   */\n      tag_149\n      jump\t// in\n    tag_321:\n        /* \"#utility.yul\":11796:11862   */\n      swap1\n      pop\n        /* \"#utility.yul\":11726:11868   */\n      swap2\n      swap1\n      pop\n      jump\t// out\n        /* \"#utility.yul\":11874:11949   */\n    tag_174:\n        /* \"#utility.yul\":11917:11920   */\n      0x00\n        /* \"#utility.yul\":11938:11943   */\n      dup2\n        /* \"#utility.yul\":11931:11943   */\n      swap1\n      pop\n        /* \"#utility.yul\":11874:11949   */\n      swap2\n      swap1\n      pop\n      jump\t// out\n        /* \"#utility.yul\":11955:12224   */\n    tag_175:\n        /* \"#utility.yul\":12065:12104   */\n      tag_326\n        /* \"#utility.yul\":12096:12103   */\n      dup4\n        /* \"#utility.yul\":12065:12104   */\n      tag_173\n      jump\t// in\n    tag_326:\n        /* \"#utility.yul\":12126:12217   */\n      tag_327\n        /* \"#utility.yul\":12175:12216   */\n      tag_328\n        /* \"#utility.yul\":12199:12215   */\n      dup3\n        /* \"#utility.yul\":12175:12216   */\n      tag_174\n      jump\t// in\n    tag_328:\n        /* \"#utility.yul\":12167:12173   */\n      dup5\n        /* \"#utility.yul\":12160:12164   */\n      dup5\n        /* \"#utility.yul\":12154:12165   */\n      sload\n        /* \"#utility.yul\":12126:12217   */\n      tag_171\n      jump\t// in\n    tag_327:\n        /* \"#utility.yul\":12120:12124   */\n      dup3\n        /* \"#utility.yul\":12113:12218   */\n      sstore\n        /* \"#utility.yul\":12031:12224   */\n      pop\n        /* \"#utility.yul\":11955:12224   */\n      pop\n      pop\n      pop\n      jump\t// out\n        /* \"#utility.yul\":12230:12303   */\n    tag_176:\n        /* \"#utility.yul\":12275:12278   */\n      0x00\n        /* \"#utility.yul\":12230:12303   */\n      swap1\n      jump\t// out\n        /* \"#utility.yul\":12309:12498   */\n    tag_177:\n        /* \"#utility.yul\":12386:12418   */\n      tag_331\n      tag_176\n      jump\t// in\n    tag_331:\n        /* \"#utility.yul\":12427:12492   */\n      tag_332\n        /* \"#utility.yul\":12485:12491   */\n      dup2\n        /* \"#utility.yul\":12477:12483   */\n      dup5\n        /* \"#utility.yul\":12471:12475   */\n      dup5\n        /* \"#utility.yul\":12427:12492   */\n      tag_175\n      jump\t// in\n    tag_332:\n        /* \"#utility.yul\":12362:12498   */\n      pop\n        /* \"#utility.yul\":12309:12498   */\n      pop\n      pop\n      jump\t// out\n        /* \"#utility.yul\":12504:12690   */\n    tag_178:\n        /* \"#utility.yul\":12564:12684   */\n    tag_334:\n        /* \"#utility.yul\":12581:12584   */\n      dup2\n        /* \"#utility.yul\":12574:12579   */\n      dup2\n        /* \"#utility.yul\":12571:12585   */\n      lt\n        /* \"#utility.yul\":12564:12684   */\n      iszero\n      tag_336\n      jumpi\n        /* \"#utility.yul\":12635:12674   */\n      tag_337\n        /* \"#utility.yul\":12672:12673   */\n      0x00\n        /* \"#utility.yul\":12665:12670   */\n      dup3\n        /* \"#utility.yul\":12635:12674   */\n      tag_177\n      jump\t// in\n    tag_337:\n        /* \"#utility.yul\":12608:12609   */\n      0x01\n        /* \"#utility.yul\":12601:12606   */\n      dup2\n        /* \"#utility.yul\":12597:12610   */\n      add\n        /* \"#utility.yul\":12588:12610   */\n      swap1\n      pop\n        /* \"#utility.yul\":12564:12684   */\n      jump(tag_334)\n    tag_336:\n        /* \"#utility.yul\":12504:12690   */\n      pop\n      pop\n      jump\t// out\n        /* \"#utility.yul\":12696:13239   */\n    tag_179:\n        /* \"#utility.yul\":12797:12799   */\n      0x1f\n        /* \"#utility.yul\":12792:12795   */\n      dup3\n        /* \"#utility.yul\":12789:12800   */\n      gt\n        /* \"#utility.yul\":12786:13232   */\n      iszero\n      tag_339\n      jumpi\n        /* \"#utility.yul\":12831:12869   */\n      tag_340\n        /* \"#utility.yul\":12863:12868   */\n      dup2\n        /* \"#utility.yul\":12831:12869   */\n      tag_168\n      jump\t// in\n    tag_340:\n        /* \"#utility.yul\":12915:12944   */\n      tag_341\n        /* \"#utility.yul\":12933:12943   */\n      dup5\n        /* \"#utility.yul\":12915:12944   */\n      tag_169\n      jump\t// in\n    tag_341:\n        /* \"#utility.yul\":12905:12913   */\n      dup2\n        /* \"#utility.yul\":12901:12945   */\n      add\n        /* \"#utility.yul\":13098:13100   */\n      0x20\n        /* \"#utility.yul\":13086:13096   */\n      dup6\n        /* \"#utility.yul\":13083:13101   */\n      lt\n        /* \"#utility.yul\":13080:13129   */\n      iszero\n      tag_342\n      jumpi\n        /* \"#utility.yul\":13119:13127   */\n      dup2\n        /* \"#utility.yul\":13104:13127   */\n      swap1\n      pop\n        /* \"#utility.yul\":13080:13129   */\n    tag_342:\n        /* \"#utility.yul\":13142:13222   */\n      tag_343\n        /* \"#utility.yul\":13198:13220   */\n      tag_344\n        /* \"#utility.yul\":13216:13219   */\n      dup6\n        /* \"#utility.yul\":13198:13220   */\n      tag_169\n      jump\t// in\n    tag_344:\n        /* \"#utility.yul\":13188:13196   */\n      dup4\n        /* \"#utility.yul\":13184:13221   */\n      add\n        /* \"#utility.yul\":13171:13182   */\n      dup3\n        /* \"#utility.yul\":13142:13222   */\n      tag_178\n      jump\t// in\n    tag_343:\n        /* \"#utility.yul\":12801:13232   */\n      pop\n      pop\n        /* \"#utility.yul\":12786:13232   */\n    tag_339:\n        /* \"#utility.yul\":12696:13239   */\n      pop\n      pop\n      pop\n      jump\t// out\n        /* \"#utility.yul\":13245:13362   */\n    tag_180:\n        /* \"#utility.yul\":13299:13307   */\n      0x00\n        /* \"#utility.yul\":13349:13354   */\n      dup3\n        /* \"#utility.yul\":13343:13347   */\n      dup3\n        /* \"#utility.yul\":13339:13355   */\n      shr\n        /* \"#utility.yul\":13318:13355   */\n      swap1\n      pop\n        /* \"#utility.yul\":13245:13362   */\n      swap3\n      swap2\n      pop\n      pop\n      jump\t// out\n        /* \"#utility.yul\":13368:13537   */\n    tag_181:\n        /* \"#utility.yul\":13412:13418   */\n      0x00\n        /* \"#utility.yul\":13445:13496   */\n      tag_347\n        /* \"#utility.yul\":13493:13494   */\n      0x00\n        /* \"#utility.yul\":13489:13495   */\n      not\n        /* \"#utility.yul\":13481:13486   */\n      dup5\n        /* \"#utility.yul\":13478:13479   */\n      0x08\n        /* \"#utility.yul\":13474:13487   */\n      mul\n        /* \"#utility.yul\":13445:13496   */\n      tag_180\n      jump\t// in\n    tag_347:\n        /* \"#utility.yul\":13441:13497   */\n      not\n        /* \"#utility.yul\":13526:13530   */\n      dup1\n        /* \"#utility.yul\":13520:13524   */\n      dup4\n        /* \"#utility.yul\":13516:13531   */\n      and\n        /* \"#utility.yul\":13506:13531   */\n      swap2\n      pop\n        /* \"#utility.yul\":13419:13537   */\n      pop\n        /* \"#utility.yul\":13368:13537   */\n      swap3\n      swap2\n      pop\n      pop\n      jump\t// out\n        /* \"#utility.yul\":13542:13837   */\n    tag_182:\n        /* \"#utility.yul\":13618:13622   */\n      0x00\n        /* \"#utility.yul\":13764:13793   */\n      tag_349\n        /* \"#utility.yul\":13789:13792   */\n      dup4\n        /* \"#utility.yul\":13783:13787   */\n      dup4\n        /* \"#utility.yul\":13764:13793   */\n      tag_181\n      jump\t// in\n    tag_349:\n        /* \"#utility.yul\":13756:13793   */\n      swap2\n      pop\n        /* \"#utility.yul\":13826:13829   */\n      dup3\n        /* \"#utility.yul\":13823:13824   */\n      0x02\n        /* \"#utility.yul\":13819:13830   */\n      mul\n        /* \"#utility.yul\":13813:13817   */\n      dup3\n        /* \"#utility.yul\":13810:13831   */\n      or\n        /* \"#utility.yul\":13802:13831   */\n      swap1\n      pop\n        /* \"#utility.yul\":13542:13837   */\n      swap3\n      swap2\n      pop\n      pop\n      jump\t// out\n        /* \"#utility.yul\":13842:15237   */\n    tag_46:\n        /* \"#utility.yul\":13959:13996   */\n      tag_351\n        /* \"#utility.yul\":13992:13995   */\n      dup3\n        /* \"#utility.yul\":13959:13996   */\n      tag_157\n      jump\t// in\n    tag_351:\n        /* \"#utility.yul\":14061:14079   */\n      0xffffffffffffffff\n        /* \"#utility.yul\":14053:14059   */\n      dup2\n        /* \"#utility.yul\":14050:14080   */\n      gt\n        /* \"#utility.yul\":14047:14103   */\n      iszero\n      tag_352\n      jumpi\n        /* \"#utility.yul\":14083:14101   */\n      tag_353\n      tag_142\n      jump\t// in\n    tag_353:\n        /* \"#utility.yul\":14047:14103   */\n    tag_352:\n        /* \"#utility.yul\":14127:14165   */\n      tag_354\n        /* \"#utility.yul\":14159:14163   */\n      dup3\n        /* \"#utility.yul\":14153:14164   */\n      sload\n        /* \"#utility.yul\":14127:14165   */\n      tag_76\n      jump\t// in\n    tag_354:\n        /* \"#utility.yul\":14212:14279   */\n      tag_355\n        /* \"#utility.yul\":14272:14278   */\n      dup3\n        /* \"#utility.yul\":14264:14270   */\n      dup3\n        /* \"#utility.yul\":14258:14262   */\n      dup6\n        /* \"#utility.yul\":14212:14279   */\n      tag_179\n      jump\t// in\n    tag_355:\n        /* \"#utility.yul\":14306:14307   */\n      0x00\n        /* \"#utility.yul\":14330:14334   */\n      0x20\n        /* \"#utility.yul\":14317:14334   */\n      swap1\n      pop\n        /* \"#utility.yul\":14362:14364   */\n      0x1f\n        /* \"#utility.yul\":14354:14360   */\n      dup4\n        /* \"#utility.yul\":14351:14365   */\n      gt\n        /* \"#utility.yul\":14379:14380   */\n      0x01\n        /* \"#utility.yul\":14374:14992   */\n      dup2\n      eq\n      tag_357\n      jumpi\n        /* \"#utility.yul\":15036:15037   */\n      0x00\n        /* \"#utility.yul\":15053:15059   */\n      dup5\n        /* \"#utility.yul\":15050:15127   */\n      iszero\n      tag_358\n      jumpi\n        /* \"#utility.yul\":15102:15111   */\n      dup3\n        /* \"#utility.yul\":15097:15100   */\n      dup8\n        /* \"#utility.yul\":15093:15112   */\n      add\n        /* \"#utility.yul\":15087:15113   */\n      mload\n        /* \"#utility.yul\":15078:15113   */\n      swap1\n      pop\n        /* \"#utility.yul\":15050:15127   */\n    tag_358:\n        /* \"#utility.yul\":15153:15220   */\n      tag_359\n        /* \"#utility.yul\":15213:15219   */\n      dup6\n        /* \"#utility.yul\":15206:15211   */\n      dup3\n        /* \"#utility.yul\":15153:15220   */\n      tag_182\n      jump\t// in\n    tag_359:\n        /* \"#utility.yul\":15147:15151   */\n      dup7\n        /* \"#utility.yul\":15140:15221   */\n      sstore\n        /* \"#utility.yul\":15009:15231   */\n      pop\n        /* \"#utility.yul\":14344:15231   */\n      jump(tag_356)\n        /* \"#utility.yul\":14374:14992   */\n    tag_357:\n        /* \"#utility.yul\":14426:14430   */\n      0x1f\n        /* \"#utility.yul\":14422:14431   */\n      not\n        /* \"#utility.yul\":14414:14420   */\n      dup5\n        /* \"#utility.yul\":14410:14432   */\n      and\n        /* \"#utility.yul\":14460:14497   */\n      tag_360\n        /* \"#utility.yul\":14492:14496   */\n      dup7\n        /* \"#utility.yul\":14460:14497   */\n      tag_168\n      jump\t// in\n    tag_360:\n        /* \"#utility.yul\":14519:14520   */\n      0x00\n        /* \"#utility.yul\":14533:14741   */\n    tag_361:\n        /* \"#utility.yul\":14547:14554   */\n      dup3\n        /* \"#utility.yul\":14544:14545   */\n      dup2\n        /* \"#utility.yul\":14541:14555   */\n      lt\n        /* \"#utility.yul\":14533:14741   */\n      iszero\n      tag_363\n      jumpi\n        /* \"#utility.yul\":14626:14635   */\n      dup5\n        /* \"#utility.yul\":14621:14624   */\n      dup10\n        /* \"#utility.yul\":14617:14636   */\n      add\n        /* \"#utility.yul\":14611:14637   */\n      mload\n        /* \"#utility.yul\":14603:14609   */\n      dup3\n        /* \"#utility.yul\":14596:14638   */\n      sstore\n        /* \"#utility.yul\":14677:14678   */\n      0x01\n        /* \"#utility.yul\":14669:14675   */\n      dup3\n        /* \"#utility.yul\":14665:14679   */\n      add\n        /* \"#utility.yul\":14655:14679   */\n      swap2\n      pop\n        /* \"#utility.yul\":14724:14726   */\n      0x20\n        /* \"#utility.yul\":14713:14722   */\n      dup6\n        /* \"#utility.yul\":14709:14727   */\n      add\n        /* \"#utility.yul\":14696:14727   */\n      swap5\n      pop\n        /* \"#utility.yul\":14570:14574   */\n      0x20\n        /* \"#utility.yul\":14567:14568   */\n      dup2\n        /* \"#utility.yul\":14563:14575   */\n      add\n        /* \"#utility.yul\":14558:14575   */\n      swap1\n      pop\n        /* \"#utility.yul\":14533:14741   */\n      jump(tag_361)\n    tag_363:\n        /* \"#utility.yul\":14769:14775   */\n      dup7\n        /* \"#utility.yul\":14760:14767   */\n      dup4\n        /* \"#utility.yul\":14757:14776   */\n      lt\n        /* \"#utility.yul\":14754:14933   */\n      iszero\n      tag_364\n      jumpi\n        /* \"#utility.yul\":14827:14836   */\n      dup5\n        /* \"#utility.yul\":14822:14825   */\n      dup10\n        /* \"#utility.yul\":14818:14837   */\n      add\n        /* \"#utility.yul\":14812:14838   */\n      mload\n        /* \"#utility.yul\":14870:14918   */\n      tag_365\n        /* \"#utility.yul\":14912:14916   */\n      0x1f\n        /* \"#utility.yul\":14904:14910   */\n      dup10\n        /* \"#utility.yul\":14900:14917   */\n      and\n        /* \"#utility.yul\":14889:14898   */\n      dup3\n        /* \"#utility.yul\":14870:14918   */\n      tag_181\n      jump\t// in\n    tag_365:\n        /* \"#utility.yul\":14862:14868   */\n      dup4\n        /* \"#utility.yul\":14855:14919   */\n      sstore\n        /* \"#utility.yul\":14777:14933   */\n      pop\n        /* \"#utility.yul\":14754:14933   */\n    tag_364:\n        /* \"#utility.yul\":14979:14980   */\n      0x01\n        /* \"#utility.yul\":14975:14976   */\n      0x02\n        /* \"#utility.yul\":14967:14973   */\n      dup9\n        /* \"#utility.yul\":14963:14977   */\n      mul\n        /* \"#utility.yul\":14959:14981   */\n      add\n        /* \"#utility.yul\":14953:14957   */\n      dup9\n        /* \"#utility.yul\":14946:14982   */\n      sstore\n        /* \"#utility.yul\":14381:14992   */\n      pop\n      pop\n      pop\n        /* \"#utility.yul\":14344:15231   */\n    tag_356:\n      pop\n        /* \"#utility.yul\":13934:15237   */\n      pop\n      pop\n      pop\n        /* \"#utility.yul\":13842:15237   */\n      pop\n      pop\n      jump\t// out\n        /* \"#utility.yul\":15243:15423   */\n    tag_53:\n        /* \"#utility.yul\":15291:15368   */\n      0x4e487b7100000000000000000000000000000000000000000000000000000000\n        /* \"#utility.yul\":15288:15289   */\n      0x00\n        /* \"#utility.yul\":15281:15369   */\n      mstore\n        /* \"#utility.yul\":15388:15392   */\n      0x32\n        /* \"#utility.yul\":15385:15386   */\n      0x04\n        /* \"#utility.yul\":15378:15393   */\n      mstore\n        /* \"#utility.yul\":15412:15416   */\n      0x24\n        /* \"#utility.yul\":15409:15410   */\n      0x00\n        /* \"#utility.yul\":15402:15417   */\n      revert\n        /* \"#utility.yul\":15429:15610   */\n    tag_183:\n        /* \"#utility.yul\":15569:15602   */\n      0x596f75206d75737420626520746865206b696420746f20776974686472617700\n        /* \"#utility.yul\":15565:15566   */\n      0x00\n        /* \"#utility.yul\":15557:15563   */\n      dup3\n        /* \"#utility.yul\":15553:15567   */\n      add\n        /* \"#utility.yul\":15546:15603   */\n      mstore\n        /* \"#utility.yul\":15429:15610   */\n      pop\n      jump\t// out\n        /* \"#utility.yul\":15616:15982   */\n    tag_184:\n        /* \"#utility.yul\":15758:15761   */\n      0x00\n        /* \"#utility.yul\":15779:15846   */\n      tag_369\n        /* \"#utility.yul\":15843:15845   */\n      0x1f\n        /* \"#utility.yul\":15838:15841   */\n      dup4\n        /* \"#utility.yul\":15779:15846   */\n      tag_158\n      jump\t// in\n    tag_369:\n        /* \"#utility.yul\":15772:15846   */\n      swap2\n      pop\n        /* \"#utility.yul\":15855:15948   */\n      tag_370\n        /* \"#utility.yul\":15944:15947   */\n      dup3\n        /* \"#utility.yul\":15855:15948   */\n      tag_183\n      jump\t// in\n    tag_370:\n        /* \"#utility.yul\":15973:15975   */\n      0x20\n        /* \"#utility.yul\":15968:15971   */\n      dup3\n        /* \"#utility.yul\":15964:15976   */\n      add\n        /* \"#utility.yul\":15957:15976   */\n      swap1\n      pop\n        /* \"#utility.yul\":15616:15982   */\n      swap2\n      swap1\n      pop\n      jump\t// out\n        /* \"#utility.yul\":15988:16407   */\n    tag_57:\n        /* \"#utility.yul\":16154:16158   */\n      0x00\n        /* \"#utility.yul\":16192:16194   */\n      0x20\n        /* \"#utility.yul\":16181:16190   */\n      dup3\n        /* \"#utility.yul\":16177:16195   */\n      add\n        /* \"#utility.yul\":16169:16195   */\n      swap1\n      pop\n        /* \"#utility.yul\":16241:16250   */\n      dup2\n        /* \"#utility.yul\":16235:16239   */\n      dup2\n        /* \"#utility.yul\":16231:16251   */\n      sub\n        /* \"#utility.yul\":16227:16228   */\n      0x00\n        /* \"#utility.yul\":16216:16225   */\n      dup4\n        /* \"#utility.yul\":16212:16229   */\n      add\n        /* \"#utility.yul\":16205:16252   */\n      mstore\n        /* \"#utility.yul\":16269:16400   */\n      tag_372\n        /* \"#utility.yul\":16395:16399   */\n      dup2\n        /* \"#utility.yul\":16269:16400   */\n      tag_184\n      jump\t// in\n    tag_372:\n        /* \"#utility.yul\":16261:16400   */\n      swap1\n      pop\n        /* \"#utility.yul\":15988:16407   */\n      swap2\n      swap1\n      pop\n      jump\t// out\n        /* \"#utility.yul\":16413:16590   */\n    tag_185:\n        /* \"#utility.yul\":16553:16582   */\n      0x596f75206172656e27742061626c6520746f2077697468647261770000000000\n        /* \"#utility.yul\":16549:16550   */\n      0x00\n        /* \"#utility.yul\":16541:16547   */\n      dup3\n        /* \"#utility.yul\":16537:16551   */\n      add\n        /* \"#utility.yul\":16530:16583   */\n      mstore\n        /* \"#utility.yul\":16413:16590   */\n      pop\n      jump\t// out\n        /* \"#utility.yul\":16596:16962   */\n    tag_186:\n        /* \"#utility.yul\":16738:16741   */\n      0x00\n        /* \"#utility.yul\":16759:16826   */\n      tag_375\n        /* \"#utility.yul\":16823:16825   */\n      0x1b\n        /* \"#utility.yul\":16818:16821   */\n      dup4\n        /* \"#utility.yul\":16759:16826   */\n      tag_158\n      jump\t// in\n    tag_375:\n        /* \"#utility.yul\":16752:16826   */\n      swap2\n      pop\n        /* \"#utility.yul\":16835:16928   */\n      tag_376\n        /* \"#utility.yul\":16924:16927   */\n      dup3\n        /* \"#utility.yul\":16835:16928   */\n      tag_185\n      jump\t// in\n    tag_376:\n        /* \"#utility.yul\":16953:16955   */\n      0x20\n        /* \"#utility.yul\":16948:16951   */\n      dup3\n        /* \"#utility.yul\":16944:16956   */\n      add\n        /* \"#utility.yul\":16937:16956   */\n      swap1\n      pop\n        /* \"#utility.yul\":16596:16962   */\n      swap2\n      swap1\n      pop\n      jump\t// out\n        /* \"#utility.yul\":16968:17387   */\n    tag_63:\n        /* \"#utility.yul\":17134:17138   */\n      0x00\n        /* \"#utility.yul\":17172:17174   */\n      0x20\n        /* \"#utility.yul\":17161:17170   */\n      dup3\n        /* \"#utility.yul\":17157:17175   */\n      add\n        /* \"#utility.yul\":17149:17175   */\n      swap1\n      pop\n        /* \"#utility.yul\":17221:17230   */\n      dup2\n        /* \"#utility.yul\":17215:17219   */\n      dup2\n        /* \"#utility.yul\":17211:17231   */\n      sub\n        /* \"#utility.yul\":17207:17208   */\n      0x00\n        /* \"#utility.yul\":17196:17205   */\n      dup4\n        /* \"#utility.yul\":17192:17209   */\n      add\n        /* \"#utility.yul\":17185:17232   */\n      mstore\n        /* \"#utility.yul\":17249:17380   */\n      tag_378\n        /* \"#utility.yul\":17375:17379   */\n      dup2\n        /* \"#utility.yul\":17249:17380   */\n      tag_186\n      jump\t// in\n    tag_378:\n        /* \"#utility.yul\":17241:17380   */\n      swap1\n      pop\n        /* \"#utility.yul\":16968:17387   */\n      swap2\n      swap1\n      pop\n      jump\t// out\n        /* \"#utility.yul\":17393:17561   */\n    tag_187:\n        /* \"#utility.yul\":17533:17553   */\n      0x596f752063616e27742077697468647261770000000000000000000000000000\n        /* \"#utility.yul\":17529:17530   */\n      0x00\n        /* \"#utility.yul\":17521:17527   */\n      dup3\n        /* \"#utility.yul\":17517:17531   */\n      add\n        /* \"#utility.yul\":17510:17554   */\n      mstore\n        /* \"#utility.yul\":17393:17561   */\n      pop\n      jump\t// out\n        /* \"#utility.yul\":17567:17933   */\n    tag_188:\n        /* \"#utility.yul\":17709:17712   */\n      0x00\n        /* \"#utility.yul\":17730:17797   */\n      tag_381\n        /* \"#utility.yul\":17794:17796   */\n      0x12\n        /* \"#utility.yul\":17789:17792   */\n      dup4\n        /* \"#utility.yul\":17730:17797   */\n      tag_158\n      jump\t// in\n    tag_381:\n        /* \"#utility.yul\":17723:17797   */\n      swap2\n      pop\n        /* \"#utility.yul\":17806:17899   */\n      tag_382\n        /* \"#utility.yul\":17895:17898   */\n      dup3\n        /* \"#utility.yul\":17806:17899   */\n      tag_187\n      jump\t// in\n    tag_382:\n        /* \"#utility.yul\":17924:17926   */\n      0x20\n        /* \"#utility.yul\":17919:17922   */\n      dup3\n        /* \"#utility.yul\":17915:17927   */\n      add\n        /* \"#utility.yul\":17908:17927   */\n      swap1\n      pop\n        /* \"#utility.yul\":17567:17933   */\n      swap2\n      swap1\n      pop\n      jump\t// out\n        /* \"#utility.yul\":17939:18358   */\n    tag_93:\n        /* \"#utility.yul\":18105:18109   */\n      0x00\n        /* \"#utility.yul\":18143:18145   */\n      0x20\n        /* \"#utility.yul\":18132:18141   */\n      dup3\n        /* \"#utility.yul\":18128:18146   */\n      add\n        /* \"#utility.yul\":18120:18146   */\n      swap1\n      pop\n        /* \"#utility.yul\":18192:18201   */\n      dup2\n        /* \"#utility.yul\":18186:18190   */\n      dup2\n        /* \"#utility.yul\":18182:18202   */\n      sub\n        /* \"#utility.yul\":18178:18179   */\n      0x00\n        /* \"#utility.yul\":18167:18176   */\n      dup4\n        /* \"#utility.yul\":18163:18180   */\n      add\n        /* \"#utility.yul\":18156:18203   */\n      mstore\n        /* \"#utility.yul\":18220:18351   */\n      tag_384\n        /* \"#utility.yul\":18346:18350   */\n      dup2\n        /* \"#utility.yul\":18220:18351   */\n      tag_188\n      jump\t// in\n    tag_384:\n        /* \"#utility.yul\":18212:18351   */\n      swap1\n      pop\n        /* \"#utility.yul\":17939:18358   */\n      swap2\n      swap1\n      pop\n      jump\t// out\n        /* \"#utility.yul\":18364:18544   */\n    tag_189:\n        /* \"#utility.yul\":18412:18489   */\n      0x4e487b7100000000000000000000000000000000000000000000000000000000\n        /* \"#utility.yul\":18409:18410   */\n      0x00\n        /* \"#utility.yul\":18402:18490   */\n      mstore\n        /* \"#utility.yul\":18509:18513   */\n      0x11\n        /* \"#utility.yul\":18506:18507   */\n      0x04\n        /* \"#utility.yul\":18499:18514   */\n      mstore\n        /* \"#utility.yul\":18533:18537   */\n      0x24\n        /* \"#utility.yul\":18530:18531   */\n      0x00\n        /* \"#utility.yul\":18523:18538   */\n      revert\n        /* \"#utility.yul\":18550:18783   */\n    tag_114:\n        /* \"#utility.yul\":18589:18592   */\n      0x00\n        /* \"#utility.yul\":18612:18636   */\n      tag_387\n        /* \"#utility.yul\":18630:18635   */\n      dup3\n        /* \"#utility.yul\":18612:18636   */\n      tag_149\n      jump\t// in\n    tag_387:\n        /* \"#utility.yul\":18603:18636   */\n      swap2\n      pop\n        /* \"#utility.yul\":18658:18724   */\n      0xffffffffffffffffffffffffffffffffffffffffffffffffffffffffffffffff\n        /* \"#utility.yul\":18651:18656   */\n      dup3\n        /* \"#utility.yul\":18648:18725   */\n      sub\n        /* \"#utility.yul\":18645:18748   */\n      tag_388\n      jumpi\n        /* \"#utility.yul\":18728:18746   */\n      tag_389\n      tag_189\n      jump\t// in\n    tag_389:\n        /* \"#utility.yul\":18645:18748   */\n    tag_388:\n        /* \"#utility.yul\":18775:18776   */\n      0x01\n        /* \"#utility.yul\":18768:18773   */\n      dup3\n        /* \"#utility.yul\":18764:18777   */\n      add\n        /* \"#utility.yul\":18757:18777   */\n      swap1\n      pop\n        /* \"#utility.yul\":18550:18783   */\n      swap2\n      swap1\n      pop\n      jump\t// out\n        /* \"#utility.yul\":18789:19094   */\n    tag_127:\n        /* \"#utility.yul\":18829:18832   */\n      0x00\n        /* \"#utility.yul\":18848:18868   */\n      tag_391\n        /* \"#utility.yul\":18866:18867   */\n      dup3\n        /* \"#utility.yul\":18848:18868   */\n      tag_149\n      jump\t// in\n    tag_391:\n        /* \"#utility.yul\":18843:18868   */\n      swap2\n      pop\n        /* \"#utility.yul\":18882:18902   */\n      tag_392\n        /* \"#utility.yul\":18900:18901   */\n      dup4\n        /* \"#utility.yul\":18882:18902   */\n      tag_149\n      jump\t// in\n    tag_392:\n        /* \"#utility.yul\":18877:18902   */\n      swap3\n      pop\n        /* \"#utility.yul\":19036:19037   */\n      dup3\n        /* \"#utility.yul\":18968:19034   */\n      0xffffffffffffffffffffffffffffffffffffffffffffffffffffffffffffffff\n        /* \"#utility.yul\":18964:19038   */\n      sub\n        /* \"#utility.yul\":18961:18962   */\n      dup3\n        /* \"#utility.yul\":18958:19039   */\n      gt\n        /* \"#utility.yul\":18955:19062   */\n      iszero\n      tag_393\n      jumpi\n        /* \"#utility.yul\":19042:19060   */\n      tag_394\n      tag_189\n      jump\t// in\n    tag_394:\n        /* \"#utility.yul\":18955:19062   */\n    tag_393:\n        /* \"#utility.yul\":19086:19087   */\n      dup3\n        /* \"#utility.yul\":19083:19084   */\n      dup3\n        /* \"#utility.yul\":19079:19088   */\n      add\n        /* \"#utility.yul\":19072:19088   */\n      swap1\n      pop\n        /* \"#utility.yul\":18789:19094   */\n      swap3\n      swap2\n      pop\n      pop\n      jump\t// out\n        /* \"#utility.yul\":19100:19218   */\n    tag_190:\n        /* \"#utility.yul\":19187:19211   */\n      tag_396\n        /* \"#utility.yul\":19205:19210   */\n      dup2\n        /* \"#utility.yul\":19187:19211   */\n      tag_162\n      jump\t// in\n    tag_396:\n        /* \"#utility.yul\":19182:19185   */\n      dup3\n        /* \"#utility.yul\":19175:19212   */\n      mstore\n        /* \"#utility.yul\":19100:19218   */\n      pop\n      pop\n      jump\t// out\n        /* \"#utility.yul\":19224:19666   */\n    tag_130:\n        /* \"#utility.yul\":19373:19377   */\n      0x00\n        /* \"#utility.yul\":19411:19413   */\n      0x60\n        /* \"#utility.yul\":19400:19409   */\n      dup3\n        /* \"#utility.yul\":19396:19414   */\n      add\n        /* \"#utility.yul\":19388:19414   */\n      swap1\n      pop\n        /* \"#utility.yul\":19424:19495   */\n      tag_398\n        /* \"#utility.yul\":19492:19493   */\n      0x00\n        /* \"#utility.yul\":19481:19490   */\n      dup4\n        /* \"#utility.yul\":19477:19494   */\n      add\n        /* \"#utility.yul\":19468:19474   */\n      dup7\n        /* \"#utility.yul\":19424:19495   */\n      tag_190\n      jump\t// in\n    tag_398:\n        /* \"#utility.yul\":19505:19577   */\n      tag_399\n        /* \"#utility.yul\":19573:19575   */\n      0x20\n        /* \"#utility.yul\":19562:19571   */\n      dup4\n        /* \"#utility.yul\":19558:19576   */\n      add\n        /* \"#utility.yul\":19549:19555   */\n      dup6\n        /* \"#utility.yul\":19505:19577   */\n      tag_155\n      jump\t// in\n    tag_399:\n        /* \"#utility.yul\":19587:19659   */\n      tag_400\n        /* \"#utility.yul\":19655:19657   */\n      0x40\n        /* \"#utility.yul\":19644:19653   */\n      dup4\n        /* \"#utility.yul\":19640:19658   */\n      add\n        /* \"#utility.yul\":19631:19637   */\n      dup5\n        /* \"#utility.yul\":19587:19659   */\n      tag_155\n      jump\t// in\n    tag_400:\n        /* \"#utility.yul\":19224:19666   */\n      swap5\n      swap4\n      pop\n      pop\n      pop\n      pop\n      jump\t// out\n\n    auxdata: 0xa26469706673582212202cf501d9aad2cb550cb6cdb04ecd83d6749d82c1ca8efe9d188b3b44e7fe332a64736f6c634300080f0033\n}\n",
				"bytecode": {
					"linkReferences": {},
					"object": "608060405234801561001057600080fd5b50336000806101000a81548173ffffffffffffffffffffffffffffffffffffffff021916908373ffffffffffffffffffffffffffffffffffffffff160217905550611476806100606000396000f3fe6080604052600436106100555760003560e01c806331d575c51461005a57806351cff8d914610083578063722713f71461009f5780637285fd3a146100ca578063a25db8ce1461010c578063f340fa0114610149575b600080fd5b34801561006657600080fd5b50610081600480360381019061007c9190610b8c565b610165565b005b61009d60048036038101906100989190610c51565b610314565b005b3480156100ab57600080fd5b506100b4610502565b6040516100c19190610c8d565b60405180910390f35b3480156100d657600080fd5b506100f160048036038101906100ec9190610ca8565b61050a565b60405161010396959493929190610d7b565b60405180910390f35b34801561011857600080fd5b50610133600480360381019061012e9190610e28565b610693565b6040516101409190610e55565b60405180910390f35b610163600480360381019061015e9190610e28565b610787565b005b60008054906101000a900473ffffffffffffffffffffffffffffffffffffffff1673ffffffffffffffffffffffffffffffffffffffff163373ffffffffffffffffffffffffffffffffffffffff16146101f3576040517f08c379a00000000000000000000000000000000000000000000000000000000081526004016101ea90610ebc565b60405180910390fd5b60016040518060c001604052808873ffffffffffffffffffffffffffffffffffffffff168152602001878152602001868152602001858152602001848152602001831515815250908060018154018082558091505060019003906000526020600020906006020160009091909190915060008201518160000160006101000a81548173ffffffffffffffffffffffffffffffffffffffff021916908373ffffffffffffffffffffffffffffffffffffffff16021790555060208201518160010190816102bf91906110e8565b5060408201518160020190816102d591906110e8565b50606082015181600301556080820151816004015560a08201518160050160006101000a81548160ff0219169083151502179055505050505050505050565b600061031f82610793565b905060018181548110610335576103346111ba565b5b906000526020600020906006020160000160009054906101000a900473ffffffffffffffffffffffffffffffffffffffff1673ffffffffffffffffffffffffffffffffffffffff163373ffffffffffffffffffffffffffffffffffffffff16146103d4576040517f08c379a00000000000000000000000000000000000000000000000000000000081526004016103cb90611235565b60405180910390fd5b60011515600182815481106103ec576103eb6111ba565b5b906000526020600020906006020160050160009054906101000a900460ff1615151461044d576040517f08c379a0000000000000000000000000000000000000000000000000000000008152600401610444906112a1565b60405180910390fd5b60018181548110610461576104606111ba565b5b906000526020600020906006020160000160009054906101000a900473ffffffffffffffffffffffffffffffffffffffff1673ffffffffffffffffffffffffffffffffffffffff166108fc600183815481106104c0576104bf6111ba565b5b9060005260206000209060060201600401549081150290604051600060405180830381858888f193505050501580156104fd573d6000803e3d6000fd5b505050565b600047905090565b6001818154811061051a57600080fd5b90600052602060002090600602016000915090508060000160009054906101000a900473ffffffffffffffffffffffffffffffffffffffff169080600101805461056390610f0b565b80601f016020809104026020016040519081016040528092919081815260200182805461058f90610f0b565b80156105dc5780601f106105b1576101008083540402835291602001916105dc565b820191906000526020600020905b8154815290600101906020018083116105bf57829003601f168201915b5050505050908060020180546105f190610f0b565b80601f016020809104026020016040519081016040528092919081815260200182805461061d90610f0b565b801561066a5780601f1061063f5761010080835404028352916020019161066a565b820191906000526020600020905b81548152906001019060200180831161064d57829003601f168201915b5050505050908060030154908060040154908060050160009054906101000a900460ff16905086565b60008061069f83610793565b9050600181815481106106b5576106b46111ba565b5b9060005260206000209060060201600301544211610708576040517f08c379a00000000000000000000000000000000000000000000000000000000081526004016106ff9061130d565b60405180910390fd5b6001818154811061071c5761071b6111ba565b5b90600052602060002090600602016003015442111561077c57600180828154811061074a576107496111ba565b5b906000526020600020906006020160050160006101000a81548160ff0219169083151502179055506001915050610782565b60009150505b919050565b61079081610848565b50565b600080600090505b60018054905081101561083c578273ffffffffffffffffffffffffffffffffffffffff16600182815481106107d3576107d26111ba565b5b906000526020600020906006020160000160009054906101000a900473ffffffffffffffffffffffffffffffffffffffff1673ffffffffffffffffffffffffffffffffffffffff16036108295780915050610843565b80806108349061135c565b91505061079b565b506103e790505b919050565b60005b600180549050811015610962578173ffffffffffffffffffffffffffffffffffffffff1660018281548110610883576108826111ba565b5b906000526020600020906006020160000160009054906101000a900473ffffffffffffffffffffffffffffffffffffffff1673ffffffffffffffffffffffffffffffffffffffff160361094f5734600182815481106108e5576108e46111ba565b5b9060005260206000209060060201600401600082825461090591906113a4565b925050819055507fdfa390b0c1c515579c441209b0f88953b3383e444305380136073b84d9ae5eaf8234610937610502565b60405161094693929190611409565b60405180910390a15b808061095a9061135c565b91505061084b565b5050565b6000604051905090565b600080fd5b600080fd5b600073ffffffffffffffffffffffffffffffffffffffff82169050919050565b60006109a58261097a565b9050919050565b6109b58161099a565b81146109c057600080fd5b50565b6000813590506109d2816109ac565b92915050565b600080fd5b600080fd5b6000601f19601f8301169050919050565b7f4e487b7100000000000000000000000000000000000000000000000000000000600052604160045260246000fd5b610a2b826109e2565b810181811067ffffffffffffffff82111715610a4a57610a496109f3565b5b80604052505050565b6000610a5d610966565b9050610a698282610a22565b919050565b600067ffffffffffffffff821115610a8957610a886109f3565b5b610a92826109e2565b9050602081019050919050565b82818337600083830152505050565b6000610ac1610abc84610a6e565b610a53565b905082815260208101848484011115610add57610adc6109dd565b5b610ae8848285610a9f565b509392505050565b600082601f830112610b0557610b046109d8565b5b8135610b15848260208601610aae565b91505092915050565b6000819050919050565b610b3181610b1e565b8114610b3c57600080fd5b50565b600081359050610b4e81610b28565b92915050565b60008115159050919050565b610b6981610b54565b8114610b7457600080fd5b50565b600081359050610b8681610b60565b92915050565b60008060008060008060c08789031215610ba957610ba8610970565b5b6000610bb789828a016109c3565b965050602087013567ffffffffffffffff811115610bd857610bd7610975565b5b610be489828a01610af0565b955050604087013567ffffffffffffffff811115610c0557610c04610975565b5b610c1189828a01610af0565b9450506060610c2289828a01610b3f565b9350506080610c3389828a01610b3f565b92505060a0610c4489828a01610b77565b9150509295509295509295565b600060208284031215610c6757610c66610970565b5b6000610c75848285016109c3565b91505092915050565b610c8781610b1e565b82525050565b6000602082019050610ca26000830184610c7e565b92915050565b600060208284031215610cbe57610cbd610970565b5b6000610ccc84828501610b3f565b91505092915050565b610cde8161099a565b82525050565b600081519050919050565b600082825260208201905092915050565b60005b83811015610d1e578082015181840152602081019050610d03565b83811115610d2d576000848401525b50505050565b6000610d3e82610ce4565b610d488185610cef565b9350610d58818560208601610d00565b610d61816109e2565b840191505092915050565b610d7581610b54565b82525050565b600060c082019050610d906000830189610cd5565b8181036020830152610da28188610d33565b90508181036040830152610db68187610d33565b9050610dc56060830186610c7e565b610dd26080830185610c7e565b610ddf60a0830184610d6c565b979650505050505050565b6000610df58261097a565b9050919050565b610e0581610dea565b8114610e1057600080fd5b50565b600081359050610e2281610dfc565b92915050565b600060208284031215610e3e57610e3d610970565b5b6000610e4c84828501610e13565b91505092915050565b6000602082019050610e6a6000830184610d6c565b92915050565b7f4f6e6c79206f776e65722063616e20616464206b696473000000000000000000600082015250565b6000610ea6601783610cef565b9150610eb182610e70565b602082019050919050565b60006020820190508181036000830152610ed581610e99565b9050919050565b7f4e487b7100000000000000000000000000000000000000000000000000000000600052602260045260246000fd5b60006002820490506001821680610f2357607f821691505b602082108103610f3657610f35610edc565b5b50919050565b60008190508160005260206000209050919050565b60006020601f8301049050919050565b600082821b905092915050565b600060088302610f9e7fffffffffffffffffffffffffffffffffffffffffffffffffffffffffffffffff82610f61565b610fa88683610f61565b95508019841693508086168417925050509392505050565b6000819050919050565b6000610fe5610fe0610fdb84610b1e565b610fc0565b610b1e565b9050919050565b6000819050919050565b610fff83610fca565b61101361100b82610fec565b848454610f6e565b825550505050565b600090565b61102861101b565b611033818484610ff6565b505050565b5b818110156110575761104c600082611020565b600181019050611039565b5050565b601f82111561109c5761106d81610f3c565b61107684610f51565b81016020851015611085578190505b61109961109185610f51565b830182611038565b50505b505050565b600082821c905092915050565b60006110bf600019846008026110a1565b1980831691505092915050565b60006110d883836110ae565b9150826002028217905092915050565b6110f182610ce4565b67ffffffffffffffff81111561110a576111096109f3565b5b6111148254610f0b565b61111f82828561105b565b600060209050601f8311600181146111525760008415611140578287015190505b61114a85826110cc565b8655506111b2565b601f19841661116086610f3c565b60005b8281101561118857848901518255600182019150602085019450602081019050611163565b868310156111a557848901516111a1601f8916826110ae565b8355505b6001600288020188555050505b505050505050565b7f4e487b7100000000000000000000000000000000000000000000000000000000600052603260045260246000fd5b7f596f75206d75737420626520746865206b696420746f20776974686472617700600082015250565b600061121f601f83610cef565b915061122a826111e9565b602082019050919050565b6000602082019050818103600083015261124e81611212565b9050919050565b7f596f75206172656e27742061626c6520746f2077697468647261770000000000600082015250565b600061128b601b83610cef565b915061129682611255565b602082019050919050565b600060208201905081810360008301526112ba8161127e565b9050919050565b7f596f752063616e27742077697468647261770000000000000000000000000000600082015250565b60006112f7601283610cef565b9150611302826112c1565b602082019050919050565b60006020820190508181036000830152611326816112ea565b9050919050565b7f4e487b7100000000000000000000000000000000000000000000000000000000600052601160045260246000fd5b600061136782610b1e565b91507fffffffffffffffffffffffffffffffffffffffffffffffffffffffffffffffff82036113995761139861132d565b5b600182019050919050565b60006113af82610b1e565b91506113ba83610b1e565b9250827fffffffffffffffffffffffffffffffffffffffffffffffffffffffffffffffff038211156113ef576113ee61132d565b5b828201905092915050565b61140381610dea565b82525050565b600060608201905061141e60008301866113fa565b61142b6020830185610c7e565b6114386040830184610c7e565b94935050505056fea26469706673582212202cf501d9aad2cb550cb6cdb04ecd83d6749d82c1ca8efe9d188b3b44e7fe332a64736f6c634300080f0033",
					"opcodes": "PUSH1 0x80 PUSH1 0x40 MSTORE CALLVALUE DUP1 ISZERO PUSH2 0x10 JUMPI PUSH1 0x0 DUP1 REVERT JUMPDEST POP CALLER PUSH1 0x0 DUP1 PUSH2 0x100 EXP DUP2 SLOAD DUP2 PUSH20 0xFFFFFFFFFFFFFFFFFFFFFFFFFFFFFFFFFFFFFFFF MUL NOT AND SWAP1 DUP4 PUSH20 0xFFFFFFFFFFFFFFFFFFFFFFFFFFFFFFFFFFFFFFFF AND MUL OR SWAP1 SSTORE POP PUSH2 0x1476 DUP1 PUSH2 0x60 PUSH1 0x0 CODECOPY PUSH1 0x0 RETURN INVALID PUSH1 0x80 PUSH1 0x40 MSTORE PUSH1 0x4 CALLDATASIZE LT PUSH2 0x55 JUMPI PUSH1 0x0 CALLDATALOAD PUSH1 0xE0 SHR DUP1 PUSH4 0x31D575C5 EQ PUSH2 0x5A JUMPI DUP1 PUSH4 0x51CFF8D9 EQ PUSH2 0x83 JUMPI DUP1 PUSH4 0x722713F7 EQ PUSH2 0x9F JUMPI DUP1 PUSH4 0x7285FD3A EQ PUSH2 0xCA JUMPI DUP1 PUSH4 0xA25DB8CE EQ PUSH2 0x10C JUMPI DUP1 PUSH4 0xF340FA01 EQ PUSH2 0x149 JUMPI JUMPDEST PUSH1 0x0 DUP1 REVERT JUMPDEST CALLVALUE DUP1 ISZERO PUSH2 0x66 JUMPI PUSH1 0x0 DUP1 REVERT JUMPDEST POP PUSH2 0x81 PUSH1 0x4 DUP1 CALLDATASIZE SUB DUP2 ADD SWAP1 PUSH2 0x7C SWAP2 SWAP1 PUSH2 0xB8C JUMP JUMPDEST PUSH2 0x165 JUMP JUMPDEST STOP JUMPDEST PUSH2 0x9D PUSH1 0x4 DUP1 CALLDATASIZE SUB DUP2 ADD SWAP1 PUSH2 0x98 SWAP2 SWAP1 PUSH2 0xC51 JUMP JUMPDEST PUSH2 0x314 JUMP JUMPDEST STOP JUMPDEST CALLVALUE DUP1 ISZERO PUSH2 0xAB JUMPI PUSH1 0x0 DUP1 REVERT JUMPDEST POP PUSH2 0xB4 PUSH2 0x502 JUMP JUMPDEST PUSH1 0x40 MLOAD PUSH2 0xC1 SWAP2 SWAP1 PUSH2 0xC8D JUMP JUMPDEST PUSH1 0x40 MLOAD DUP1 SWAP2 SUB SWAP1 RETURN JUMPDEST CALLVALUE DUP1 ISZERO PUSH2 0xD6 JUMPI PUSH1 0x0 DUP1 REVERT JUMPDEST POP PUSH2 0xF1 PUSH1 0x4 DUP1 CALLDATASIZE SUB DUP2 ADD SWAP1 PUSH2 0xEC SWAP2 SWAP1 PUSH2 0xCA8 JUMP JUMPDEST PUSH2 0x50A JUMP JUMPDEST PUSH1 0x40 MLOAD PUSH2 0x103 SWAP7 SWAP6 SWAP5 SWAP4 SWAP3 SWAP2 SWAP1 PUSH2 0xD7B JUMP JUMPDEST PUSH1 0x40 MLOAD DUP1 SWAP2 SUB SWAP1 RETURN JUMPDEST CALLVALUE DUP1 ISZERO PUSH2 0x118 JUMPI PUSH1 0x0 DUP1 REVERT JUMPDEST POP PUSH2 0x133 PUSH1 0x4 DUP1 CALLDATASIZE SUB DUP2 ADD SWAP1 PUSH2 0x12E SWAP2 SWAP1 PUSH2 0xE28 JUMP JUMPDEST PUSH2 0x693 JUMP JUMPDEST PUSH1 0x40 MLOAD PUSH2 0x140 SWAP2 SWAP1 PUSH2 0xE55 JUMP JUMPDEST PUSH1 0x40 MLOAD DUP1 SWAP2 SUB SWAP1 RETURN JUMPDEST PUSH2 0x163 PUSH1 0x4 DUP1 CALLDATASIZE SUB DUP2 ADD SWAP1 PUSH2 0x15E SWAP2 SWAP1 PUSH2 0xE28 JUMP JUMPDEST PUSH2 0x787 JUMP JUMPDEST STOP JUMPDEST PUSH1 0x0 DUP1 SLOAD SWAP1 PUSH2 0x100 EXP SWAP1 DIV PUSH20 0xFFFFFFFFFFFFFFFFFFFFFFFFFFFFFFFFFFFFFFFF AND PUSH20 0xFFFFFFFFFFFFFFFFFFFFFFFFFFFFFFFFFFFFFFFF AND CALLER PUSH20 0xFFFFFFFFFFFFFFFFFFFFFFFFFFFFFFFFFFFFFFFF AND EQ PUSH2 0x1F3 JUMPI PUSH1 0x40 MLOAD PUSH32 0x8C379A000000000000000000000000000000000000000000000000000000000 DUP2 MSTORE PUSH1 0x4 ADD PUSH2 0x1EA SWAP1 PUSH2 0xEBC JUMP JUMPDEST PUSH1 0x40 MLOAD DUP1 SWAP2 SUB SWAP1 REVERT JUMPDEST PUSH1 0x1 PUSH1 0x40 MLOAD DUP1 PUSH1 0xC0 ADD PUSH1 0x40 MSTORE DUP1 DUP9 PUSH20 0xFFFFFFFFFFFFFFFFFFFFFFFFFFFFFFFFFFFFFFFF AND DUP2 MSTORE PUSH1 0x20 ADD DUP8 DUP2 MSTORE PUSH1 0x20 ADD DUP7 DUP2 MSTORE PUSH1 0x20 ADD DUP6 DUP2 MSTORE PUSH1 0x20 ADD DUP5 DUP2 MSTORE PUSH1 0x20 ADD DUP4 ISZERO ISZERO DUP2 MSTORE POP SWAP1 DUP1 PUSH1 0x1 DUP2 SLOAD ADD DUP1 DUP3 SSTORE DUP1 SWAP2 POP POP PUSH1 0x1 SWAP1 SUB SWAP1 PUSH1 0x0 MSTORE PUSH1 0x20 PUSH1 0x0 KECCAK256 SWAP1 PUSH1 0x6 MUL ADD PUSH1 0x0 SWAP1 SWAP2 SWAP1 SWAP2 SWAP1 SWAP2 POP PUSH1 0x0 DUP3 ADD MLOAD DUP2 PUSH1 0x0 ADD PUSH1 0x0 PUSH2 0x100 EXP DUP2 SLOAD DUP2 PUSH20 0xFFFFFFFFFFFFFFFFFFFFFFFFFFFFFFFFFFFFFFFF MUL NOT AND SWAP1 DUP4 PUSH20 0xFFFFFFFFFFFFFFFFFFFFFFFFFFFFFFFFFFFFFFFF AND MUL OR SWAP1 SSTORE POP PUSH1 0x20 DUP3 ADD MLOAD DUP2 PUSH1 0x1 ADD SWAP1 DUP2 PUSH2 0x2BF SWAP2 SWAP1 PUSH2 0x10E8 JUMP JUMPDEST POP PUSH1 0x40 DUP3 ADD MLOAD DUP2 PUSH1 0x2 ADD SWAP1 DUP2 PUSH2 0x2D5 SWAP2 SWAP1 PUSH2 0x10E8 JUMP JUMPDEST POP PUSH1 0x60 DUP3 ADD MLOAD DUP2 PUSH1 0x3 ADD SSTORE PUSH1 0x80 DUP3 ADD MLOAD DUP2 PUSH1 0x4 ADD SSTORE PUSH1 0xA0 DUP3 ADD MLOAD DUP2 PUSH1 0x5 ADD PUSH1 0x0 PUSH2 0x100 EXP DUP2 SLOAD DUP2 PUSH1 0xFF MUL NOT AND SWAP1 DUP4 ISZERO ISZERO MUL OR SWAP1 SSTORE POP POP POP POP POP POP POP POP POP JUMP JUMPDEST PUSH1 0x0 PUSH2 0x31F DUP3 PUSH2 0x793 JUMP JUMPDEST SWAP1 POP PUSH1 0x1 DUP2 DUP2 SLOAD DUP2 LT PUSH2 0x335 JUMPI PUSH2 0x334 PUSH2 0x11BA JUMP JUMPDEST JUMPDEST SWAP1 PUSH1 0x0 MSTORE PUSH1 0x20 PUSH1 0x0 KECCAK256 SWAP1 PUSH1 0x6 MUL ADD PUSH1 0x0 ADD PUSH1 0x0 SWAP1 SLOAD SWAP1 PUSH2 0x100 EXP SWAP1 DIV PUSH20 0xFFFFFFFFFFFFFFFFFFFFFFFFFFFFFFFFFFFFFFFF AND PUSH20 0xFFFFFFFFFFFFFFFFFFFFFFFFFFFFFFFFFFFFFFFF AND CALLER PUSH20 0xFFFFFFFFFFFFFFFFFFFFFFFFFFFFFFFFFFFFFFFF AND EQ PUSH2 0x3D4 JUMPI PUSH1 0x40 MLOAD PUSH32 0x8C379A000000000000000000000000000000000000000000000000000000000 DUP2 MSTORE PUSH1 0x4 ADD PUSH2 0x3CB SWAP1 PUSH2 0x1235 JUMP JUMPDEST PUSH1 0x40 MLOAD DUP1 SWAP2 SUB SWAP1 REVERT JUMPDEST PUSH1 0x1 ISZERO ISZERO PUSH1 0x1 DUP3 DUP2 SLOAD DUP2 LT PUSH2 0x3EC JUMPI PUSH2 0x3EB PUSH2 0x11BA JUMP JUMPDEST JUMPDEST SWAP1 PUSH1 0x0 MSTORE PUSH1 0x20 PUSH1 0x0 KECCAK256 SWAP1 PUSH1 0x6 MUL ADD PUSH1 0x5 ADD PUSH1 0x0 SWAP1 SLOAD SWAP1 PUSH2 0x100 EXP SWAP1 DIV PUSH1 0xFF AND ISZERO ISZERO EQ PUSH2 0x44D JUMPI PUSH1 0x40 MLOAD PUSH32 0x8C379A000000000000000000000000000000000000000000000000000000000 DUP2 MSTORE PUSH1 0x4 ADD PUSH2 0x444 SWAP1 PUSH2 0x12A1 JUMP JUMPDEST PUSH1 0x40 MLOAD DUP1 SWAP2 SUB SWAP1 REVERT JUMPDEST PUSH1 0x1 DUP2 DUP2 SLOAD DUP2 LT PUSH2 0x461 JUMPI PUSH2 0x460 PUSH2 0x11BA JUMP JUMPDEST JUMPDEST SWAP1 PUSH1 0x0 MSTORE PUSH1 0x20 PUSH1 0x0 KECCAK256 SWAP1 PUSH1 0x6 MUL ADD PUSH1 0x0 ADD PUSH1 0x0 SWAP1 SLOAD SWAP1 PUSH2 0x100 EXP SWAP1 DIV PUSH20 0xFFFFFFFFFFFFFFFFFFFFFFFFFFFFFFFFFFFFFFFF AND PUSH20 0xFFFFFFFFFFFFFFFFFFFFFFFFFFFFFFFFFFFFFFFF AND PUSH2 0x8FC PUSH1 0x1 DUP4 DUP2 SLOAD DUP2 LT PUSH2 0x4C0 JUMPI PUSH2 0x4BF PUSH2 0x11BA JUMP JUMPDEST JUMPDEST SWAP1 PUSH1 0x0 MSTORE PUSH1 0x20 PUSH1 0x0 KECCAK256 SWAP1 PUSH1 0x6 MUL ADD PUSH1 0x4 ADD SLOAD SWAP1 DUP2 ISZERO MUL SWAP1 PUSH1 0x40 MLOAD PUSH1 0x0 PUSH1 0x40 MLOAD DUP1 DUP4 SUB DUP2 DUP6 DUP9 DUP9 CALL SWAP4 POP POP POP POP ISZERO DUP1 ISZERO PUSH2 0x4FD JUMPI RETURNDATASIZE PUSH1 0x0 DUP1 RETURNDATACOPY RETURNDATASIZE PUSH1 0x0 REVERT JUMPDEST POP POP POP JUMP JUMPDEST PUSH1 0x0 SELFBALANCE SWAP1 POP SWAP1 JUMP JUMPDEST PUSH1 0x1 DUP2 DUP2 SLOAD DUP2 LT PUSH2 0x51A JUMPI PUSH1 0x0 DUP1 REVERT JUMPDEST SWAP1 PUSH1 0x0 MSTORE PUSH1 0x20 PUSH1 0x0 KECCAK256 SWAP1 PUSH1 0x6 MUL ADD PUSH1 0x0 SWAP2 POP SWAP1 POP DUP1 PUSH1 0x0 ADD PUSH1 0x0 SWAP1 SLOAD SWAP1 PUSH2 0x100 EXP SWAP1 DIV PUSH20 0xFFFFFFFFFFFFFFFFFFFFFFFFFFFFFFFFFFFFFFFF AND SWAP1 DUP1 PUSH1 0x1 ADD DUP1 SLOAD PUSH2 0x563 SWAP1 PUSH2 0xF0B JUMP JUMPDEST DUP1 PUSH1 0x1F ADD PUSH1 0x20 DUP1 SWAP2 DIV MUL PUSH1 0x20 ADD PUSH1 0x40 MLOAD SWAP1 DUP2 ADD PUSH1 0x40 MSTORE DUP1 SWAP3 SWAP2 SWAP1 DUP2 DUP2 MSTORE PUSH1 0x20 ADD DUP3 DUP1 SLOAD PUSH2 0x58F SWAP1 PUSH2 0xF0B JUMP JUMPDEST DUP1 ISZERO PUSH2 0x5DC JUMPI DUP1 PUSH1 0x1F LT PUSH2 0x5B1 JUMPI PUSH2 0x100 DUP1 DUP4 SLOAD DIV MUL DUP4 MSTORE SWAP2 PUSH1 0x20 ADD SWAP2 PUSH2 0x5DC JUMP JUMPDEST DUP3 ADD SWAP2 SWAP1 PUSH1 0x0 MSTORE PUSH1 0x20 PUSH1 0x0 KECCAK256 SWAP1 JUMPDEST DUP2 SLOAD DUP2 MSTORE SWAP1 PUSH1 0x1 ADD SWAP1 PUSH1 0x20 ADD DUP1 DUP4 GT PUSH2 0x5BF JUMPI DUP3 SWAP1 SUB PUSH1 0x1F AND DUP3 ADD SWAP2 JUMPDEST POP POP POP POP POP SWAP1 DUP1 PUSH1 0x2 ADD DUP1 SLOAD PUSH2 0x5F1 SWAP1 PUSH2 0xF0B JUMP JUMPDEST DUP1 PUSH1 0x1F ADD PUSH1 0x20 DUP1 SWAP2 DIV MUL PUSH1 0x20 ADD PUSH1 0x40 MLOAD SWAP1 DUP2 ADD PUSH1 0x40 MSTORE DUP1 SWAP3 SWAP2 SWAP1 DUP2 DUP2 MSTORE PUSH1 0x20 ADD DUP3 DUP1 SLOAD PUSH2 0x61D SWAP1 PUSH2 0xF0B JUMP JUMPDEST DUP1 ISZERO PUSH2 0x66A JUMPI DUP1 PUSH1 0x1F LT PUSH2 0x63F JUMPI PUSH2 0x100 DUP1 DUP4 SLOAD DIV MUL DUP4 MSTORE SWAP2 PUSH1 0x20 ADD SWAP2 PUSH2 0x66A JUMP JUMPDEST DUP3 ADD SWAP2 SWAP1 PUSH1 0x0 MSTORE PUSH1 0x20 PUSH1 0x0 KECCAK256 SWAP1 JUMPDEST DUP2 SLOAD DUP2 MSTORE SWAP1 PUSH1 0x1 ADD SWAP1 PUSH1 0x20 ADD DUP1 DUP4 GT PUSH2 0x64D JUMPI DUP3 SWAP1 SUB PUSH1 0x1F AND DUP3 ADD SWAP2 JUMPDEST POP POP POP POP POP SWAP1 DUP1 PUSH1 0x3 ADD SLOAD SWAP1 DUP1 PUSH1 0x4 ADD SLOAD SWAP1 DUP1 PUSH1 0x5 ADD PUSH1 0x0 SWAP1 SLOAD SWAP1 PUSH2 0x100 EXP SWAP1 DIV PUSH1 0xFF AND SWAP1 POP DUP7 JUMP JUMPDEST PUSH1 0x0 DUP1 PUSH2 0x69F DUP4 PUSH2 0x793 JUMP JUMPDEST SWAP1 POP PUSH1 0x1 DUP2 DUP2 SLOAD DUP2 LT PUSH2 0x6B5 JUMPI PUSH2 0x6B4 PUSH2 0x11BA JUMP JUMPDEST JUMPDEST SWAP1 PUSH1 0x0 MSTORE PUSH1 0x20 PUSH1 0x0 KECCAK256 SWAP1 PUSH1 0x6 MUL ADD PUSH1 0x3 ADD SLOAD TIMESTAMP GT PUSH2 0x708 JUMPI PUSH1 0x40 MLOAD PUSH32 0x8C379A000000000000000000000000000000000000000000000000000000000 DUP2 MSTORE PUSH1 0x4 ADD PUSH2 0x6FF SWAP1 PUSH2 0x130D JUMP JUMPDEST PUSH1 0x40 MLOAD DUP1 SWAP2 SUB SWAP1 REVERT JUMPDEST PUSH1 0x1 DUP2 DUP2 SLOAD DUP2 LT PUSH2 0x71C JUMPI PUSH2 0x71B PUSH2 0x11BA JUMP JUMPDEST JUMPDEST SWAP1 PUSH1 0x0 MSTORE PUSH1 0x20 PUSH1 0x0 KECCAK256 SWAP1 PUSH1 0x6 MUL ADD PUSH1 0x3 ADD SLOAD TIMESTAMP GT ISZERO PUSH2 0x77C JUMPI PUSH1 0x1 DUP1 DUP3 DUP2 SLOAD DUP2 LT PUSH2 0x74A JUMPI PUSH2 0x749 PUSH2 0x11BA JUMP JUMPDEST JUMPDEST SWAP1 PUSH1 0x0 MSTORE PUSH1 0x20 PUSH1 0x0 KECCAK256 SWAP1 PUSH1 0x6 MUL ADD PUSH1 0x5 ADD PUSH1 0x0 PUSH2 0x100 EXP DUP2 SLOAD DUP2 PUSH1 0xFF MUL NOT AND SWAP1 DUP4 ISZERO ISZERO MUL OR SWAP1 SSTORE POP PUSH1 0x1 SWAP2 POP POP PUSH2 0x782 JUMP JUMPDEST PUSH1 0x0 SWAP2 POP POP JUMPDEST SWAP2 SWAP1 POP JUMP JUMPDEST PUSH2 0x790 DUP2 PUSH2 0x848 JUMP JUMPDEST POP JUMP JUMPDEST PUSH1 0x0 DUP1 PUSH1 0x0 SWAP1 POP JUMPDEST PUSH1 0x1 DUP1 SLOAD SWAP1 POP DUP2 LT ISZERO PUSH2 0x83C JUMPI DUP3 PUSH20 0xFFFFFFFFFFFFFFFFFFFFFFFFFFFFFFFFFFFFFFFF AND PUSH1 0x1 DUP3 DUP2 SLOAD DUP2 LT PUSH2 0x7D3 JUMPI PUSH2 0x7D2 PUSH2 0x11BA JUMP JUMPDEST JUMPDEST SWAP1 PUSH1 0x0 MSTORE PUSH1 0x20 PUSH1 0x0 KECCAK256 SWAP1 PUSH1 0x6 MUL ADD PUSH1 0x0 ADD PUSH1 0x0 SWAP1 SLOAD SWAP1 PUSH2 0x100 EXP SWAP1 DIV PUSH20 0xFFFFFFFFFFFFFFFFFFFFFFFFFFFFFFFFFFFFFFFF AND PUSH20 0xFFFFFFFFFFFFFFFFFFFFFFFFFFFFFFFFFFFFFFFF AND SUB PUSH2 0x829 JUMPI DUP1 SWAP2 POP POP PUSH2 0x843 JUMP JUMPDEST DUP1 DUP1 PUSH2 0x834 SWAP1 PUSH2 0x135C JUMP JUMPDEST SWAP2 POP POP PUSH2 0x79B JUMP JUMPDEST POP PUSH2 0x3E7 SWAP1 POP JUMPDEST SWAP2 SWAP1 POP JUMP JUMPDEST PUSH1 0x0 JUMPDEST PUSH1 0x1 DUP1 SLOAD SWAP1 POP DUP2 LT ISZERO PUSH2 0x962 JUMPI DUP2 PUSH20 0xFFFFFFFFFFFFFFFFFFFFFFFFFFFFFFFFFFFFFFFF AND PUSH1 0x1 DUP3 DUP2 SLOAD DUP2 LT PUSH2 0x883 JUMPI PUSH2 0x882 PUSH2 0x11BA JUMP JUMPDEST JUMPDEST SWAP1 PUSH1 0x0 MSTORE PUSH1 0x20 PUSH1 0x0 KECCAK256 SWAP1 PUSH1 0x6 MUL ADD PUSH1 0x0 ADD PUSH1 0x0 SWAP1 SLOAD SWAP1 PUSH2 0x100 EXP SWAP1 DIV PUSH20 0xFFFFFFFFFFFFFFFFFFFFFFFFFFFFFFFFFFFFFFFF AND PUSH20 0xFFFFFFFFFFFFFFFFFFFFFFFFFFFFFFFFFFFFFFFF AND SUB PUSH2 0x94F JUMPI CALLVALUE PUSH1 0x1 DUP3 DUP2 SLOAD DUP2 LT PUSH2 0x8E5 JUMPI PUSH2 0x8E4 PUSH2 0x11BA JUMP JUMPDEST JUMPDEST SWAP1 PUSH1 0x0 MSTORE PUSH1 0x20 PUSH1 0x0 KECCAK256 SWAP1 PUSH1 0x6 MUL ADD PUSH1 0x4 ADD PUSH1 0x0 DUP3 DUP3 SLOAD PUSH2 0x905 SWAP2 SWAP1 PUSH2 0x13A4 JUMP JUMPDEST SWAP3 POP POP DUP2 SWAP1 SSTORE POP PUSH32 0xDFA390B0C1C515579C441209B0F88953B3383E444305380136073B84D9AE5EAF DUP3 CALLVALUE PUSH2 0x937 PUSH2 0x502 JUMP JUMPDEST PUSH1 0x40 MLOAD PUSH2 0x946 SWAP4 SWAP3 SWAP2 SWAP1 PUSH2 0x1409 JUMP JUMPDEST PUSH1 0x40 MLOAD DUP1 SWAP2 SUB SWAP1 LOG1 JUMPDEST DUP1 DUP1 PUSH2 0x95A SWAP1 PUSH2 0x135C JUMP JUMPDEST SWAP2 POP POP PUSH2 0x84B JUMP JUMPDEST POP POP JUMP JUMPDEST PUSH1 0x0 PUSH1 0x40 MLOAD SWAP1 POP SWAP1 JUMP JUMPDEST PUSH1 0x0 DUP1 REVERT JUMPDEST PUSH1 0x0 DUP1 REVERT JUMPDEST PUSH1 0x0 PUSH20 0xFFFFFFFFFFFFFFFFFFFFFFFFFFFFFFFFFFFFFFFF DUP3 AND SWAP1 POP SWAP2 SWAP1 POP JUMP JUMPDEST PUSH1 0x0 PUSH2 0x9A5 DUP3 PUSH2 0x97A JUMP JUMPDEST SWAP1 POP SWAP2 SWAP1 POP JUMP JUMPDEST PUSH2 0x9B5 DUP2 PUSH2 0x99A JUMP JUMPDEST DUP2 EQ PUSH2 0x9C0 JUMPI PUSH1 0x0 DUP1 REVERT JUMPDEST POP JUMP JUMPDEST PUSH1 0x0 DUP2 CALLDATALOAD SWAP1 POP PUSH2 0x9D2 DUP2 PUSH2 0x9AC JUMP JUMPDEST SWAP3 SWAP2 POP POP JUMP JUMPDEST PUSH1 0x0 DUP1 REVERT JUMPDEST PUSH1 0x0 DUP1 REVERT JUMPDEST PUSH1 0x0 PUSH1 0x1F NOT PUSH1 0x1F DUP4 ADD AND SWAP1 POP SWAP2 SWAP1 POP JUMP JUMPDEST PUSH32 0x4E487B7100000000000000000000000000000000000000000000000000000000 PUSH1 0x0 MSTORE PUSH1 0x41 PUSH1 0x4 MSTORE PUSH1 0x24 PUSH1 0x0 REVERT JUMPDEST PUSH2 0xA2B DUP3 PUSH2 0x9E2 JUMP JUMPDEST DUP2 ADD DUP2 DUP2 LT PUSH8 0xFFFFFFFFFFFFFFFF DUP3 GT OR ISZERO PUSH2 0xA4A JUMPI PUSH2 0xA49 PUSH2 0x9F3 JUMP JUMPDEST JUMPDEST DUP1 PUSH1 0x40 MSTORE POP POP POP JUMP JUMPDEST PUSH1 0x0 PUSH2 0xA5D PUSH2 0x966 JUMP JUMPDEST SWAP1 POP PUSH2 0xA69 DUP3 DUP3 PUSH2 0xA22 JUMP JUMPDEST SWAP2 SWAP1 POP JUMP JUMPDEST PUSH1 0x0 PUSH8 0xFFFFFFFFFFFFFFFF DUP3 GT ISZERO PUSH2 0xA89 JUMPI PUSH2 0xA88 PUSH2 0x9F3 JUMP JUMPDEST JUMPDEST PUSH2 0xA92 DUP3 PUSH2 0x9E2 JUMP JUMPDEST SWAP1 POP PUSH1 0x20 DUP2 ADD SWAP1 POP SWAP2 SWAP1 POP JUMP JUMPDEST DUP3 DUP2 DUP4 CALLDATACOPY PUSH1 0x0 DUP4 DUP4 ADD MSTORE POP POP POP JUMP JUMPDEST PUSH1 0x0 PUSH2 0xAC1 PUSH2 0xABC DUP5 PUSH2 0xA6E JUMP JUMPDEST PUSH2 0xA53 JUMP JUMPDEST SWAP1 POP DUP3 DUP2 MSTORE PUSH1 0x20 DUP2 ADD DUP5 DUP5 DUP5 ADD GT ISZERO PUSH2 0xADD JUMPI PUSH2 0xADC PUSH2 0x9DD JUMP JUMPDEST JUMPDEST PUSH2 0xAE8 DUP5 DUP3 DUP6 PUSH2 0xA9F JUMP JUMPDEST POP SWAP4 SWAP3 POP POP POP JUMP JUMPDEST PUSH1 0x0 DUP3 PUSH1 0x1F DUP4 ADD SLT PUSH2 0xB05 JUMPI PUSH2 0xB04 PUSH2 0x9D8 JUMP JUMPDEST JUMPDEST DUP2 CALLDATALOAD PUSH2 0xB15 DUP5 DUP3 PUSH1 0x20 DUP7 ADD PUSH2 0xAAE JUMP JUMPDEST SWAP2 POP POP SWAP3 SWAP2 POP POP JUMP JUMPDEST PUSH1 0x0 DUP2 SWAP1 POP SWAP2 SWAP1 POP JUMP JUMPDEST PUSH2 0xB31 DUP2 PUSH2 0xB1E JUMP JUMPDEST DUP2 EQ PUSH2 0xB3C JUMPI PUSH1 0x0 DUP1 REVERT JUMPDEST POP JUMP JUMPDEST PUSH1 0x0 DUP2 CALLDATALOAD SWAP1 POP PUSH2 0xB4E DUP2 PUSH2 0xB28 JUMP JUMPDEST SWAP3 SWAP2 POP POP JUMP JUMPDEST PUSH1 0x0 DUP2 ISZERO ISZERO SWAP1 POP SWAP2 SWAP1 POP JUMP JUMPDEST PUSH2 0xB69 DUP2 PUSH2 0xB54 JUMP JUMPDEST DUP2 EQ PUSH2 0xB74 JUMPI PUSH1 0x0 DUP1 REVERT JUMPDEST POP JUMP JUMPDEST PUSH1 0x0 DUP2 CALLDATALOAD SWAP1 POP PUSH2 0xB86 DUP2 PUSH2 0xB60 JUMP JUMPDEST SWAP3 SWAP2 POP POP JUMP JUMPDEST PUSH1 0x0 DUP1 PUSH1 0x0 DUP1 PUSH1 0x0 DUP1 PUSH1 0xC0 DUP8 DUP10 SUB SLT ISZERO PUSH2 0xBA9 JUMPI PUSH2 0xBA8 PUSH2 0x970 JUMP JUMPDEST JUMPDEST PUSH1 0x0 PUSH2 0xBB7 DUP10 DUP3 DUP11 ADD PUSH2 0x9C3 JUMP JUMPDEST SWAP7 POP POP PUSH1 0x20 DUP8 ADD CALLDATALOAD PUSH8 0xFFFFFFFFFFFFFFFF DUP2 GT ISZERO PUSH2 0xBD8 JUMPI PUSH2 0xBD7 PUSH2 0x975 JUMP JUMPDEST JUMPDEST PUSH2 0xBE4 DUP10 DUP3 DUP11 ADD PUSH2 0xAF0 JUMP JUMPDEST SWAP6 POP POP PUSH1 0x40 DUP8 ADD CALLDATALOAD PUSH8 0xFFFFFFFFFFFFFFFF DUP2 GT ISZERO PUSH2 0xC05 JUMPI PUSH2 0xC04 PUSH2 0x975 JUMP JUMPDEST JUMPDEST PUSH2 0xC11 DUP10 DUP3 DUP11 ADD PUSH2 0xAF0 JUMP JUMPDEST SWAP5 POP POP PUSH1 0x60 PUSH2 0xC22 DUP10 DUP3 DUP11 ADD PUSH2 0xB3F JUMP JUMPDEST SWAP4 POP POP PUSH1 0x80 PUSH2 0xC33 DUP10 DUP3 DUP11 ADD PUSH2 0xB3F JUMP JUMPDEST SWAP3 POP POP PUSH1 0xA0 PUSH2 0xC44 DUP10 DUP3 DUP11 ADD PUSH2 0xB77 JUMP JUMPDEST SWAP2 POP POP SWAP3 SWAP6 POP SWAP3 SWAP6 POP SWAP3 SWAP6 JUMP JUMPDEST PUSH1 0x0 PUSH1 0x20 DUP3 DUP5 SUB SLT ISZERO PUSH2 0xC67 JUMPI PUSH2 0xC66 PUSH2 0x970 JUMP JUMPDEST JUMPDEST PUSH1 0x0 PUSH2 0xC75 DUP5 DUP3 DUP6 ADD PUSH2 0x9C3 JUMP JUMPDEST SWAP2 POP POP SWAP3 SWAP2 POP POP JUMP JUMPDEST PUSH2 0xC87 DUP2 PUSH2 0xB1E JUMP JUMPDEST DUP3 MSTORE POP POP JUMP JUMPDEST PUSH1 0x0 PUSH1 0x20 DUP3 ADD SWAP1 POP PUSH2 0xCA2 PUSH1 0x0 DUP4 ADD DUP5 PUSH2 0xC7E JUMP JUMPDEST SWAP3 SWAP2 POP POP JUMP JUMPDEST PUSH1 0x0 PUSH1 0x20 DUP3 DUP5 SUB SLT ISZERO PUSH2 0xCBE JUMPI PUSH2 0xCBD PUSH2 0x970 JUMP JUMPDEST JUMPDEST PUSH1 0x0 PUSH2 0xCCC DUP5 DUP3 DUP6 ADD PUSH2 0xB3F JUMP JUMPDEST SWAP2 POP POP SWAP3 SWAP2 POP POP JUMP JUMPDEST PUSH2 0xCDE DUP2 PUSH2 0x99A JUMP JUMPDEST DUP3 MSTORE POP POP JUMP JUMPDEST PUSH1 0x0 DUP2 MLOAD SWAP1 POP SWAP2 SWAP1 POP JUMP JUMPDEST PUSH1 0x0 DUP3 DUP3 MSTORE PUSH1 0x20 DUP3 ADD SWAP1 POP SWAP3 SWAP2 POP POP JUMP JUMPDEST PUSH1 0x0 JUMPDEST DUP4 DUP2 LT ISZERO PUSH2 0xD1E JUMPI DUP1 DUP3 ADD MLOAD DUP2 DUP5 ADD MSTORE PUSH1 0x20 DUP2 ADD SWAP1 POP PUSH2 0xD03 JUMP JUMPDEST DUP4 DUP2 GT ISZERO PUSH2 0xD2D JUMPI PUSH1 0x0 DUP5 DUP5 ADD MSTORE JUMPDEST POP POP POP POP JUMP JUMPDEST PUSH1 0x0 PUSH2 0xD3E DUP3 PUSH2 0xCE4 JUMP JUMPDEST PUSH2 0xD48 DUP2 DUP6 PUSH2 0xCEF JUMP JUMPDEST SWAP4 POP PUSH2 0xD58 DUP2 DUP6 PUSH1 0x20 DUP7 ADD PUSH2 0xD00 JUMP JUMPDEST PUSH2 0xD61 DUP2 PUSH2 0x9E2 JUMP JUMPDEST DUP5 ADD SWAP2 POP POP SWAP3 SWAP2 POP POP JUMP JUMPDEST PUSH2 0xD75 DUP2 PUSH2 0xB54 JUMP JUMPDEST DUP3 MSTORE POP POP JUMP JUMPDEST PUSH1 0x0 PUSH1 0xC0 DUP3 ADD SWAP1 POP PUSH2 0xD90 PUSH1 0x0 DUP4 ADD DUP10 PUSH2 0xCD5 JUMP JUMPDEST DUP2 DUP2 SUB PUSH1 0x20 DUP4 ADD MSTORE PUSH2 0xDA2 DUP2 DUP9 PUSH2 0xD33 JUMP JUMPDEST SWAP1 POP DUP2 DUP2 SUB PUSH1 0x40 DUP4 ADD MSTORE PUSH2 0xDB6 DUP2 DUP8 PUSH2 0xD33 JUMP JUMPDEST SWAP1 POP PUSH2 0xDC5 PUSH1 0x60 DUP4 ADD DUP7 PUSH2 0xC7E JUMP JUMPDEST PUSH2 0xDD2 PUSH1 0x80 DUP4 ADD DUP6 PUSH2 0xC7E JUMP JUMPDEST PUSH2 0xDDF PUSH1 0xA0 DUP4 ADD DUP5 PUSH2 0xD6C JUMP JUMPDEST SWAP8 SWAP7 POP POP POP POP POP POP POP JUMP JUMPDEST PUSH1 0x0 PUSH2 0xDF5 DUP3 PUSH2 0x97A JUMP JUMPDEST SWAP1 POP SWAP2 SWAP1 POP JUMP JUMPDEST PUSH2 0xE05 DUP2 PUSH2 0xDEA JUMP JUMPDEST DUP2 EQ PUSH2 0xE10 JUMPI PUSH1 0x0 DUP1 REVERT JUMPDEST POP JUMP JUMPDEST PUSH1 0x0 DUP2 CALLDATALOAD SWAP1 POP PUSH2 0xE22 DUP2 PUSH2 0xDFC JUMP JUMPDEST SWAP3 SWAP2 POP POP JUMP JUMPDEST PUSH1 0x0 PUSH1 0x20 DUP3 DUP5 SUB SLT ISZERO PUSH2 0xE3E JUMPI PUSH2 0xE3D PUSH2 0x970 JUMP JUMPDEST JUMPDEST PUSH1 0x0 PUSH2 0xE4C DUP5 DUP3 DUP6 ADD PUSH2 0xE13 JUMP JUMPDEST SWAP2 POP POP SWAP3 SWAP2 POP POP JUMP JUMPDEST PUSH1 0x0 PUSH1 0x20 DUP3 ADD SWAP1 POP PUSH2 0xE6A PUSH1 0x0 DUP4 ADD DUP5 PUSH2 0xD6C JUMP JUMPDEST SWAP3 SWAP2 POP POP JUMP JUMPDEST PUSH32 0x4F6E6C79206F776E65722063616E20616464206B696473000000000000000000 PUSH1 0x0 DUP3 ADD MSTORE POP JUMP JUMPDEST PUSH1 0x0 PUSH2 0xEA6 PUSH1 0x17 DUP4 PUSH2 0xCEF JUMP JUMPDEST SWAP2 POP PUSH2 0xEB1 DUP3 PUSH2 0xE70 JUMP JUMPDEST PUSH1 0x20 DUP3 ADD SWAP1 POP SWAP2 SWAP1 POP JUMP JUMPDEST PUSH1 0x0 PUSH1 0x20 DUP3 ADD SWAP1 POP DUP2 DUP2 SUB PUSH1 0x0 DUP4 ADD MSTORE PUSH2 0xED5 DUP2 PUSH2 0xE99 JUMP JUMPDEST SWAP1 POP SWAP2 SWAP1 POP JUMP JUMPDEST PUSH32 0x4E487B7100000000000000000000000000000000000000000000000000000000 PUSH1 0x0 MSTORE PUSH1 0x22 PUSH1 0x4 MSTORE PUSH1 0x24 PUSH1 0x0 REVERT JUMPDEST PUSH1 0x0 PUSH1 0x2 DUP3 DIV SWAP1 POP PUSH1 0x1 DUP3 AND DUP1 PUSH2 0xF23 JUMPI PUSH1 0x7F DUP3 AND SWAP2 POP JUMPDEST PUSH1 0x20 DUP3 LT DUP2 SUB PUSH2 0xF36 JUMPI PUSH2 0xF35 PUSH2 0xEDC JUMP JUMPDEST JUMPDEST POP SWAP2 SWAP1 POP JUMP JUMPDEST PUSH1 0x0 DUP2 SWAP1 POP DUP2 PUSH1 0x0 MSTORE PUSH1 0x20 PUSH1 0x0 KECCAK256 SWAP1 POP SWAP2 SWAP1 POP JUMP JUMPDEST PUSH1 0x0 PUSH1 0x20 PUSH1 0x1F DUP4 ADD DIV SWAP1 POP SWAP2 SWAP1 POP JUMP JUMPDEST PUSH1 0x0 DUP3 DUP3 SHL SWAP1 POP SWAP3 SWAP2 POP POP JUMP JUMPDEST PUSH1 0x0 PUSH1 0x8 DUP4 MUL PUSH2 0xF9E PUSH32 0xFFFFFFFFFFFFFFFFFFFFFFFFFFFFFFFFFFFFFFFFFFFFFFFFFFFFFFFFFFFFFFFF DUP3 PUSH2 0xF61 JUMP JUMPDEST PUSH2 0xFA8 DUP7 DUP4 PUSH2 0xF61 JUMP JUMPDEST SWAP6 POP DUP1 NOT DUP5 AND SWAP4 POP DUP1 DUP7 AND DUP5 OR SWAP3 POP POP POP SWAP4 SWAP3 POP POP POP JUMP JUMPDEST PUSH1 0x0 DUP2 SWAP1 POP SWAP2 SWAP1 POP JUMP JUMPDEST PUSH1 0x0 PUSH2 0xFE5 PUSH2 0xFE0 PUSH2 0xFDB DUP5 PUSH2 0xB1E JUMP JUMPDEST PUSH2 0xFC0 JUMP JUMPDEST PUSH2 0xB1E JUMP JUMPDEST SWAP1 POP SWAP2 SWAP1 POP JUMP JUMPDEST PUSH1 0x0 DUP2 SWAP1 POP SWAP2 SWAP1 POP JUMP JUMPDEST PUSH2 0xFFF DUP4 PUSH2 0xFCA JUMP JUMPDEST PUSH2 0x1013 PUSH2 0x100B DUP3 PUSH2 0xFEC JUMP JUMPDEST DUP5 DUP5 SLOAD PUSH2 0xF6E JUMP JUMPDEST DUP3 SSTORE POP POP POP POP JUMP JUMPDEST PUSH1 0x0 SWAP1 JUMP JUMPDEST PUSH2 0x1028 PUSH2 0x101B JUMP JUMPDEST PUSH2 0x1033 DUP2 DUP5 DUP5 PUSH2 0xFF6 JUMP JUMPDEST POP POP POP JUMP JUMPDEST JUMPDEST DUP2 DUP2 LT ISZERO PUSH2 0x1057 JUMPI PUSH2 0x104C PUSH1 0x0 DUP3 PUSH2 0x1020 JUMP JUMPDEST PUSH1 0x1 DUP2 ADD SWAP1 POP PUSH2 0x1039 JUMP JUMPDEST POP POP JUMP JUMPDEST PUSH1 0x1F DUP3 GT ISZERO PUSH2 0x109C JUMPI PUSH2 0x106D DUP2 PUSH2 0xF3C JUMP JUMPDEST PUSH2 0x1076 DUP5 PUSH2 0xF51 JUMP JUMPDEST DUP2 ADD PUSH1 0x20 DUP6 LT ISZERO PUSH2 0x1085 JUMPI DUP2 SWAP1 POP JUMPDEST PUSH2 0x1099 PUSH2 0x1091 DUP6 PUSH2 0xF51 JUMP JUMPDEST DUP4 ADD DUP3 PUSH2 0x1038 JUMP JUMPDEST POP POP JUMPDEST POP POP POP JUMP JUMPDEST PUSH1 0x0 DUP3 DUP3 SHR SWAP1 POP SWAP3 SWAP2 POP POP JUMP JUMPDEST PUSH1 0x0 PUSH2 0x10BF PUSH1 0x0 NOT DUP5 PUSH1 0x8 MUL PUSH2 0x10A1 JUMP JUMPDEST NOT DUP1 DUP4 AND SWAP2 POP POP SWAP3 SWAP2 POP POP JUMP JUMPDEST PUSH1 0x0 PUSH2 0x10D8 DUP4 DUP4 PUSH2 0x10AE JUMP JUMPDEST SWAP2 POP DUP3 PUSH1 0x2 MUL DUP3 OR SWAP1 POP SWAP3 SWAP2 POP POP JUMP JUMPDEST PUSH2 0x10F1 DUP3 PUSH2 0xCE4 JUMP JUMPDEST PUSH8 0xFFFFFFFFFFFFFFFF DUP2 GT ISZERO PUSH2 0x110A JUMPI PUSH2 0x1109 PUSH2 0x9F3 JUMP JUMPDEST JUMPDEST PUSH2 0x1114 DUP3 SLOAD PUSH2 0xF0B JUMP JUMPDEST PUSH2 0x111F DUP3 DUP3 DUP6 PUSH2 0x105B JUMP JUMPDEST PUSH1 0x0 PUSH1 0x20 SWAP1 POP PUSH1 0x1F DUP4 GT PUSH1 0x1 DUP2 EQ PUSH2 0x1152 JUMPI PUSH1 0x0 DUP5 ISZERO PUSH2 0x1140 JUMPI DUP3 DUP8 ADD MLOAD SWAP1 POP JUMPDEST PUSH2 0x114A DUP6 DUP3 PUSH2 0x10CC JUMP JUMPDEST DUP7 SSTORE POP PUSH2 0x11B2 JUMP JUMPDEST PUSH1 0x1F NOT DUP5 AND PUSH2 0x1160 DUP7 PUSH2 0xF3C JUMP JUMPDEST PUSH1 0x0 JUMPDEST DUP3 DUP2 LT ISZERO PUSH2 0x1188 JUMPI DUP5 DUP10 ADD MLOAD DUP3 SSTORE PUSH1 0x1 DUP3 ADD SWAP2 POP PUSH1 0x20 DUP6 ADD SWAP5 POP PUSH1 0x20 DUP2 ADD SWAP1 POP PUSH2 0x1163 JUMP JUMPDEST DUP7 DUP4 LT ISZERO PUSH2 0x11A5 JUMPI DUP5 DUP10 ADD MLOAD PUSH2 0x11A1 PUSH1 0x1F DUP10 AND DUP3 PUSH2 0x10AE JUMP JUMPDEST DUP4 SSTORE POP JUMPDEST PUSH1 0x1 PUSH1 0x2 DUP9 MUL ADD DUP9 SSTORE POP POP POP JUMPDEST POP POP POP POP POP POP JUMP JUMPDEST PUSH32 0x4E487B7100000000000000000000000000000000000000000000000000000000 PUSH1 0x0 MSTORE PUSH1 0x32 PUSH1 0x4 MSTORE PUSH1 0x24 PUSH1 0x0 REVERT JUMPDEST PUSH32 0x596F75206D75737420626520746865206B696420746F20776974686472617700 PUSH1 0x0 DUP3 ADD MSTORE POP JUMP JUMPDEST PUSH1 0x0 PUSH2 0x121F PUSH1 0x1F DUP4 PUSH2 0xCEF JUMP JUMPDEST SWAP2 POP PUSH2 0x122A DUP3 PUSH2 0x11E9 JUMP JUMPDEST PUSH1 0x20 DUP3 ADD SWAP1 POP SWAP2 SWAP1 POP JUMP JUMPDEST PUSH1 0x0 PUSH1 0x20 DUP3 ADD SWAP1 POP DUP2 DUP2 SUB PUSH1 0x0 DUP4 ADD MSTORE PUSH2 0x124E DUP2 PUSH2 0x1212 JUMP JUMPDEST SWAP1 POP SWAP2 SWAP1 POP JUMP JUMPDEST PUSH32 0x596F75206172656E27742061626C6520746F2077697468647261770000000000 PUSH1 0x0 DUP3 ADD MSTORE POP JUMP JUMPDEST PUSH1 0x0 PUSH2 0x128B PUSH1 0x1B DUP4 PUSH2 0xCEF JUMP JUMPDEST SWAP2 POP PUSH2 0x1296 DUP3 PUSH2 0x1255 JUMP JUMPDEST PUSH1 0x20 DUP3 ADD SWAP1 POP SWAP2 SWAP1 POP JUMP JUMPDEST PUSH1 0x0 PUSH1 0x20 DUP3 ADD SWAP1 POP DUP2 DUP2 SUB PUSH1 0x0 DUP4 ADD MSTORE PUSH2 0x12BA DUP2 PUSH2 0x127E JUMP JUMPDEST SWAP1 POP SWAP2 SWAP1 POP JUMP JUMPDEST PUSH32 0x596F752063616E27742077697468647261770000000000000000000000000000 PUSH1 0x0 DUP3 ADD MSTORE POP JUMP JUMPDEST PUSH1 0x0 PUSH2 0x12F7 PUSH1 0x12 DUP4 PUSH2 0xCEF JUMP JUMPDEST SWAP2 POP PUSH2 0x1302 DUP3 PUSH2 0x12C1 JUMP JUMPDEST PUSH1 0x20 DUP3 ADD SWAP1 POP SWAP2 SWAP1 POP JUMP JUMPDEST PUSH1 0x0 PUSH1 0x20 DUP3 ADD SWAP1 POP DUP2 DUP2 SUB PUSH1 0x0 DUP4 ADD MSTORE PUSH2 0x1326 DUP2 PUSH2 0x12EA JUMP JUMPDEST SWAP1 POP SWAP2 SWAP1 POP JUMP JUMPDEST PUSH32 0x4E487B7100000000000000000000000000000000000000000000000000000000 PUSH1 0x0 MSTORE PUSH1 0x11 PUSH1 0x4 MSTORE PUSH1 0x24 PUSH1 0x0 REVERT JUMPDEST PUSH1 0x0 PUSH2 0x1367 DUP3 PUSH2 0xB1E JUMP JUMPDEST SWAP2 POP PUSH32 0xFFFFFFFFFFFFFFFFFFFFFFFFFFFFFFFFFFFFFFFFFFFFFFFFFFFFFFFFFFFFFFFF DUP3 SUB PUSH2 0x1399 JUMPI PUSH2 0x1398 PUSH2 0x132D JUMP JUMPDEST JUMPDEST PUSH1 0x1 DUP3 ADD SWAP1 POP SWAP2 SWAP1 POP JUMP JUMPDEST PUSH1 0x0 PUSH2 0x13AF DUP3 PUSH2 0xB1E JUMP JUMPDEST SWAP2 POP PUSH2 0x13BA DUP4 PUSH2 0xB1E JUMP JUMPDEST SWAP3 POP DUP3 PUSH32 0xFFFFFFFFFFFFFFFFFFFFFFFFFFFFFFFFFFFFFFFFFFFFFFFFFFFFFFFFFFFFFFFF SUB DUP3 GT ISZERO PUSH2 0x13EF JUMPI PUSH2 0x13EE PUSH2 0x132D JUMP JUMPDEST JUMPDEST DUP3 DUP3 ADD SWAP1 POP SWAP3 SWAP2 POP POP JUMP JUMPDEST PUSH2 0x1403 DUP2 PUSH2 0xDEA JUMP JUMPDEST DUP3 MSTORE POP POP JUMP JUMPDEST PUSH1 0x0 PUSH1 0x60 DUP3 ADD SWAP1 POP PUSH2 0x141E PUSH1 0x0 DUP4 ADD DUP7 PUSH2 0x13FA JUMP JUMPDEST PUSH2 0x142B PUSH1 0x20 DUP4 ADD DUP6 PUSH2 0xC7E JUMP JUMPDEST PUSH2 0x1438 PUSH1 0x40 DUP4 ADD DUP5 PUSH2 0xC7E JUMP JUMPDEST SWAP5 SWAP4 POP POP POP POP JUMP INVALID LOG2 PUSH5 0x6970667358 0x22 SLT KECCAK256 0x2C CREATE2 ADD 0xD9 0xAA 0xD2 0xCB SSTORE 0xC 0xB6 0xCD 0xB0 0x4E 0xCD DUP4 0xD6 PUSH21 0x9D82C1CA8EFE9D188B3B44E7FE332A64736F6C6343 STOP ADDMOD 0xF STOP CALLER "
				},
				"gasEstimates": {
					"creation": {
						"codeDepositCost": "1047600",
						"executionCost": "25353",
						"totalCost": "1072953"
					},
					"external": {
						"addKid(address,string,string,uint256,uint256,bool)": "infinite",
						"availableToWithdraw(address)": "infinite",
						"balanceOf()": "361",
						"deposit(address)": "infinite",
						"kids(uint256)": "infinite",
						"withdraw(address)": "infinite"
					},
					"internal": {
						"addToKidsBalance(address)": "infinite",
						"getIndex(address)": "infinite"
					}
				},
				"methodIdentifiers": {
					"addKid(address,string,string,uint256,uint256,bool)": "31d575c5",
					"availableToWithdraw(address)": "a25db8ce",
					"balanceOf()": "722713f7",
					"deposit(address)": "f340fa01",
					"kids(uint256)": "7285fd3a",
					"withdraw(address)": "51cff8d9"
				}
			},
			"storageLayout": {
				"storage": [
					{
						"astId": 3,
						"contract": "contracts/CryptoKids.sol:CryptoKids",
						"label": "owner",
						"offset": 0,
						"slot": "0",
						"type": "t_address"
					},
					{
						"astId": 37,
						"contract": "contracts/CryptoKids.sol:CryptoKids",
						"label": "kids",
						"offset": 0,
						"slot": "1",
						"type": "t_array(t_struct(Kid)33_storage)dyn_storage"
					}
				],
				"types": {
					"t_address": {
						"encoding": "inplace",
						"label": "address",
						"numberOfBytes": "20"
					},
					"t_address_payable": {
						"encoding": "inplace",
						"label": "address payable",
						"numberOfBytes": "20"
					},
					"t_array(t_struct(Kid)33_storage)dyn_storage": {
						"base": "t_struct(Kid)33_storage",
						"encoding": "dynamic_array",
						"label": "struct CryptoKids.Kid[]",
						"numberOfBytes": "32"
					},
					"t_bool": {
						"encoding": "inplace",
						"label": "bool",
						"numberOfBytes": "1"
					},
					"t_string_storage": {
						"encoding": "bytes",
						"label": "string",
						"numberOfBytes": "32"
					},
					"t_struct(Kid)33_storage": {
						"encoding": "inplace",
						"label": "struct CryptoKids.Kid",
						"members": [
							{
								"astId": 22,
								"contract": "contracts/CryptoKids.sol:CryptoKids",
								"label": "walletAddress",
								"offset": 0,
								"slot": "0",
								"type": "t_address_payable"
							},
							{
								"astId": 24,
								"contract": "contracts/CryptoKids.sol:CryptoKids",
								"label": "firstName",
								"offset": 0,
								"slot": "1",
								"type": "t_string_storage"
							},
							{
								"astId": 26,
								"contract": "contracts/CryptoKids.sol:CryptoKids",
								"label": "lastName",
								"offset": 0,
								"slot": "2",
								"type": "t_string_storage"
							},
							{
								"astId": 28,
								"contract": "contracts/CryptoKids.sol:CryptoKids",
								"label": "releaseTime",
								"offset": 0,
								"slot": "3",
								"type": "t_uint256"
							},
							{
								"astId": 30,
								"contract": "contracts/CryptoKids.sol:CryptoKids",
								"label": "amount",
								"offset": 0,
								"slot": "4",
								"type": "t_uint256"
							},
							{
								"astId": 32,
								"contract": "contracts/CryptoKids.sol:CryptoKids",
								"label": "canWithdraw",
								"offset": 0,
								"slot": "5",
								"type": "t_bool"
							}
						],
						"numberOfBytes": "192"
					},
					"t_uint256": {
						"encoding": "inplace",
						"label": "uint256",
						"numberOfBytes": "32"
					}
				}
			},
			"userdoc": {
				"kind": "user",
				"methods": {},
				"version": 1
			}
		}
	}
}