{
	"contracts/Test1.sol": {
		"Test1": {
			"abi": [
				{
					"inputs": [],
					"stateMutability": "nonpayable",
					"type": "constructor"
				},
				{
					"inputs": [
						{
							"internalType": "address",
							"name": "walletAddress",
							"type": "address"
						},
						{
							"internalType": "uint256",
							"name": "amount",
							"type": "uint256"
						}
					],
					"name": "addToInvestors",
					"outputs": [],
					"stateMutability": "nonpayable",
					"type": "function"
				},
				{
					"inputs": [
						{
							"internalType": "address",
							"name": "walletAddress",
							"type": "address"
						},
						{
							"internalType": "string",
							"name": "name",
							"type": "string"
						},
						{
							"internalType": "uint256",
							"name": "amount",
							"type": "uint256"
						},
						{
							"internalType": "bool",
							"name": "isInvestor",
							"type": "bool"
						}
					],
					"name": "addUser",
					"outputs": [],
					"stateMutability": "nonpayable",
					"type": "function"
				},
				{
					"inputs": [
						{
							"internalType": "address",
							"name": "walletAddress",
							"type": "address"
						}
					],
					"name": "balanceOf",
					"outputs": [
						{
							"internalType": "uint256",
							"name": "",
							"type": "uint256"
						}
					],
					"stateMutability": "view",
					"type": "function"
				},
				{
					"inputs": [
						{
							"internalType": "address",
							"name": "walletAddress",
							"type": "address"
						}
					],
					"name": "getUserByAddress",
					"outputs": [
						{
							"components": [
								{
									"internalType": "address",
									"name": "walletAddress",
									"type": "address"
								},
								{
									"internalType": "string",
									"name": "name",
									"type": "string"
								},
								{
									"internalType": "uint256",
									"name": "amount",
									"type": "uint256"
								},
								{
									"internalType": "bool",
									"name": "isInvestor",
									"type": "bool"
								}
							],
							"internalType": "struct Test1.User",
							"name": "",
							"type": "tuple"
						}
					],
					"stateMutability": "nonpayable",
					"type": "function"
				},
				{
					"inputs": [
						{
							"internalType": "address",
							"name": "",
							"type": "address"
						}
					],
					"name": "investors",
					"outputs": [
						{
							"internalType": "uint256",
							"name": "",
							"type": "uint256"
						}
					],
					"stateMutability": "view",
					"type": "function"
				},
				{
					"inputs": [
						{
							"internalType": "address",
							"name": "walletAddress",
							"type": "address"
						}
					],
					"name": "transfer",
					"outputs": [],
					"stateMutability": "payable",
					"type": "function"
				},
				{
					"inputs": [
						{
							"internalType": "uint256",
							"name": "",
							"type": "uint256"
						}
					],
					"name": "users",
					"outputs": [
						{
							"internalType": "address",
							"name": "walletAddress",
							"type": "address"
						},
						{
							"internalType": "string",
							"name": "name",
							"type": "string"
						},
						{
							"internalType": "uint256",
							"name": "amount",
							"type": "uint256"
						},
						{
							"internalType": "bool",
							"name": "isInvestor",
							"type": "bool"
						}
					],
					"stateMutability": "view",
					"type": "function"
				}
			],
			"devdoc": {
				"kind": "dev",
				"methods": {},
				"version": 1
			},
			"evm": {
				"assembly": "    /* \"contracts/Test1.sol\":65:1725  contract Test1{... */\n  mstore(0x40, 0x80)\n    /* \"contracts/Test1.sol\":106:154  constructor(){... */\n  callvalue\n  dup1\n  iszero\n  tag_1\n  jumpi\n  0x00\n  dup1\n  revert\ntag_1:\n  pop\n    /* \"contracts/Test1.sol\":137:147  msg.sender */\n  caller\n    /* \"contracts/Test1.sol\":129:134  owner */\n  0x00\n  dup1\n    /* \"contracts/Test1.sol\":129:147  owner = msg.sender */\n  0x0100\n  exp\n  dup2\n  sload\n  dup2\n  0xffffffffffffffffffffffffffffffffffffffff\n  mul\n  not\n  and\n  swap1\n  dup4\n  0xffffffffffffffffffffffffffffffffffffffff\n  and\n  mul\n  or\n  swap1\n  sstore\n  pop\n    /* \"contracts/Test1.sol\":65:1725  contract Test1{... */\n  dataSize(sub_0)\n  dup1\n  dataOffset(sub_0)\n  0x00\n  codecopy\n  0x00\n  return\nstop\n\nsub_0: assembly {\n        /* \"contracts/Test1.sol\":65:1725  contract Test1{... */\n      mstore(0x40, 0x80)\n      jumpi(tag_1, lt(calldatasize, 0x04))\n      shr(0xe0, calldataload(0x00))\n      dup1\n      0x365b98b2\n      gt\n      tag_9\n      jumpi\n      dup1\n      0x365b98b2\n      eq\n      tag_5\n      jumpi\n      dup1\n      0x69c212f6\n      eq\n      tag_6\n      jumpi\n      dup1\n      0x6f7bc9be\n      eq\n      tag_7\n      jumpi\n      dup1\n      0x70a08231\n      eq\n      tag_8\n      jumpi\n      jump(tag_1)\n    tag_9:\n      dup1\n      0x0b1019f0\n      eq\n      tag_2\n      jumpi\n      dup1\n      0x1a695230\n      eq\n      tag_3\n      jumpi\n      dup1\n      0x280879e7\n      eq\n      tag_4\n      jumpi\n    tag_1:\n      0x00\n      dup1\n      revert\n        /* \"contracts/Test1.sol\":766:925  function addToInvestors(address walletAddress, uint amount) public {... */\n    tag_2:\n      callvalue\n      dup1\n      iszero\n      tag_10\n      jumpi\n      0x00\n      dup1\n      revert\n    tag_10:\n      pop\n      tag_11\n      0x04\n      dup1\n      calldatasize\n      sub\n      dup2\n      add\n      swap1\n      tag_12\n      swap2\n      swap1\n      tag_13\n      jump\t// in\n    tag_12:\n      tag_14\n      jump\t// in\n    tag_11:\n      stop\n        /* \"contracts/Test1.sol\":1099:1204  function transfer(address walletAddress) payable public {... */\n    tag_3:\n      tag_15\n      0x04\n      dup1\n      calldatasize\n      sub\n      dup2\n      add\n      swap1\n      tag_16\n      swap2\n      swap1\n      tag_17\n      jump\t// in\n    tag_16:\n      tag_18\n      jump\t// in\n    tag_15:\n      stop\n        /* \"contracts/Test1.sol\":585:756  function addUser(address walletAddress, string memory name, uint amount, bool isInvestor) public {... */\n    tag_4:\n      callvalue\n      dup1\n      iszero\n      tag_19\n      jumpi\n      0x00\n      dup1\n      revert\n    tag_19:\n      pop\n      tag_20\n      0x04\n      dup1\n      calldatasize\n      sub\n      dup2\n      add\n      swap1\n      tag_21\n      swap2\n      swap1\n      tag_22\n      jump\t// in\n    tag_21:\n      tag_23\n      jump\t// in\n    tag_20:\n      stop\n        /* \"contracts/Test1.sol\":282:301  User[] public users */\n    tag_5:\n      callvalue\n      dup1\n      iszero\n      tag_24\n      jumpi\n      0x00\n      dup1\n      revert\n    tag_24:\n      pop\n      tag_25\n      0x04\n      dup1\n      calldatasize\n      sub\n      dup2\n      add\n      swap1\n      tag_26\n      swap2\n      swap1\n      tag_27\n      jump\t// in\n    tag_26:\n      tag_28\n      jump\t// in\n    tag_25:\n      mload(0x40)\n      tag_29\n      swap5\n      swap4\n      swap3\n      swap2\n      swap1\n      tag_30\n      jump\t// in\n    tag_29:\n      mload(0x40)\n      dup1\n      swap2\n      sub\n      swap1\n      return\n        /* \"contracts/Test1.sol\":931:1015  function getUserByAddress(address walletAddress) public returns(User memory){... */\n    tag_6:\n      callvalue\n      dup1\n      iszero\n      tag_31\n      jumpi\n      0x00\n      dup1\n      revert\n    tag_31:\n      pop\n      tag_32\n      0x04\n      dup1\n      calldatasize\n      sub\n      dup2\n      add\n      swap1\n      tag_33\n      swap2\n      swap1\n      tag_17\n      jump\t// in\n    tag_33:\n      tag_34\n      jump\t// in\n    tag_32:\n      mload(0x40)\n      tag_35\n      swap2\n      swap1\n      tag_36\n      jump\t// in\n    tag_35:\n      mload(0x40)\n      dup1\n      swap2\n      sub\n      swap1\n      return\n        /* \"contracts/Test1.sol\":307:348  mapping(address => uint) public investors */\n    tag_7:\n      callvalue\n      dup1\n      iszero\n      tag_37\n      jumpi\n      0x00\n      dup1\n      revert\n    tag_37:\n      pop\n      tag_38\n      0x04\n      dup1\n      calldatasize\n      sub\n      dup2\n      add\n      swap1\n      tag_39\n      swap2\n      swap1\n      tag_17\n      jump\t// in\n    tag_39:\n      tag_40\n      jump\t// in\n    tag_38:\n      mload(0x40)\n      tag_41\n      swap2\n      swap1\n      tag_42\n      jump\t// in\n    tag_41:\n      mload(0x40)\n      dup1\n      swap2\n      sub\n      swap1\n      return\n        /* \"contracts/Test1.sol\":1456:1719  function balanceOf(address walletAddress) public view returns(uint){... */\n    tag_8:\n      callvalue\n      dup1\n      iszero\n      tag_43\n      jumpi\n      0x00\n      dup1\n      revert\n    tag_43:\n      pop\n      tag_44\n      0x04\n      dup1\n      calldatasize\n      sub\n      dup2\n      add\n      swap1\n      tag_45\n      swap2\n      swap1\n      tag_17\n      jump\t// in\n    tag_45:\n      tag_46\n      jump\t// in\n    tag_44:\n      mload(0x40)\n      tag_47\n      swap2\n      swap1\n      tag_42\n      jump\t// in\n    tag_47:\n      mload(0x40)\n      dup1\n      swap2\n      sub\n      swap1\n      return\n        /* \"contracts/Test1.sol\":766:925  function addToInvestors(address walletAddress, uint amount) public {... */\n    tag_14:\n        /* \"contracts/Test1.sol\":870:876  amount */\n      dup1\n        /* \"contracts/Test1.sol\":843:852  investors */\n      0x02\n        /* \"contracts/Test1.sol\":843:867  investors[walletAddress] */\n      0x00\n        /* \"contracts/Test1.sol\":853:866  walletAddress */\n      dup5\n        /* \"contracts/Test1.sol\":843:867  investors[walletAddress] */\n      0xffffffffffffffffffffffffffffffffffffffff\n      and\n      0xffffffffffffffffffffffffffffffffffffffff\n      and\n      dup2\n      mstore\n      0x20\n      add\n      swap1\n      dup2\n      mstore\n      0x20\n      add\n      0x00\n      keccak256\n        /* \"contracts/Test1.sol\":843:876  investors[walletAddress] = amount */\n      dup2\n      swap1\n      sstore\n      pop\n        /* \"contracts/Test1.sol\":886:917  getUserByAddress(walletAddress) */\n      tag_49\n        /* \"contracts/Test1.sol\":903:916  walletAddress */\n      dup3\n        /* \"contracts/Test1.sol\":886:902  getUserByAddress */\n      tag_34\n        /* \"contracts/Test1.sol\":886:917  getUserByAddress(walletAddress) */\n      jump\t// in\n    tag_49:\n      pop\n        /* \"contracts/Test1.sol\":766:925  function addToInvestors(address walletAddress, uint amount) public {... */\n      pop\n      pop\n      jump\t// out\n        /* \"contracts/Test1.sol\":1099:1204  function transfer(address walletAddress) payable public {... */\n    tag_18:\n        /* \"contracts/Test1.sol\":1165:1197  transferToAddress(walletAddress) */\n      tag_51\n        /* \"contracts/Test1.sol\":1183:1196  walletAddress */\n      dup2\n        /* \"contracts/Test1.sol\":1165:1182  transferToAddress */\n      tag_52\n        /* \"contracts/Test1.sol\":1165:1197  transferToAddress(walletAddress) */\n      jump\t// in\n    tag_51:\n        /* \"contracts/Test1.sol\":1099:1204  function transfer(address walletAddress) payable public {... */\n      pop\n      jump\t// out\n        /* \"contracts/Test1.sol\":585:756  function addUser(address walletAddress, string memory name, uint amount, bool isInvestor) public {... */\n    tag_23:\n        /* \"contracts/Test1.sol\":692:697  users */\n      0x01\n        /* \"contracts/Test1.sol\":703:748  User(walletAddress, name, amount, isInvestor) */\n      mload(0x40)\n      dup1\n      0x80\n      add\n      0x40\n      mstore\n      dup1\n        /* \"contracts/Test1.sol\":708:721  walletAddress */\n      dup7\n        /* \"contracts/Test1.sol\":703:748  User(walletAddress, name, amount, isInvestor) */\n      0xffffffffffffffffffffffffffffffffffffffff\n      and\n      dup2\n      mstore\n      0x20\n      add\n        /* \"contracts/Test1.sol\":723:727  name */\n      dup6\n        /* \"contracts/Test1.sol\":703:748  User(walletAddress, name, amount, isInvestor) */\n      dup2\n      mstore\n      0x20\n      add\n        /* \"contracts/Test1.sol\":729:735  amount */\n      dup5\n        /* \"contracts/Test1.sol\":703:748  User(walletAddress, name, amount, isInvestor) */\n      dup2\n      mstore\n      0x20\n      add\n        /* \"contracts/Test1.sol\":737:747  isInvestor */\n      dup4\n        /* \"contracts/Test1.sol\":703:748  User(walletAddress, name, amount, isInvestor) */\n      iszero\n      iszero\n      dup2\n      mstore\n      pop\n        /* \"contracts/Test1.sol\":692:749  users.push(User(walletAddress, name, amount, isInvestor)) */\n      swap1\n      dup1\n      0x01\n      dup2\n      sload\n      add\n      dup1\n      dup3\n      sstore\n      dup1\n      swap2\n      pop\n      pop\n      0x01\n      swap1\n      sub\n      swap1\n      0x00\n      mstore\n      keccak256(0x00, 0x20)\n      swap1\n      0x04\n      mul\n      add\n      0x00\n      swap1\n      swap2\n      swap1\n      swap2\n      swap1\n      swap2\n      pop\n      0x00\n      dup3\n      add\n      mload\n      dup2\n      0x00\n      add\n      exp(0x0100, 0x00)\n      dup2\n      sload\n      dup2\n      0xffffffffffffffffffffffffffffffffffffffff\n      mul\n      not\n      and\n      swap1\n      dup4\n      0xffffffffffffffffffffffffffffffffffffffff\n      and\n      mul\n      or\n      swap1\n      sstore\n      pop\n      0x20\n      dup3\n      add\n      mload\n      dup2\n      0x01\n      add\n      swap1\n      dup1\n      mload\n      swap1\n      0x20\n      add\n      swap1\n      tag_55\n      swap3\n      swap2\n      swap1\n      tag_56\n      jump\t// in\n    tag_55:\n      pop\n      0x40\n      dup3\n      add\n      mload\n      dup2\n      0x02\n      add\n      sstore\n      0x60\n      dup3\n      add\n      mload\n      dup2\n      0x03\n      add\n      exp(0x0100, 0x00)\n      dup2\n      sload\n      dup2\n      0xff\n      mul\n      not\n      and\n      swap1\n      dup4\n      iszero\n      iszero\n      mul\n      or\n      swap1\n      sstore\n      pop\n      pop\n      pop\n        /* \"contracts/Test1.sol\":585:756  function addUser(address walletAddress, string memory name, uint amount, bool isInvestor) public {... */\n      pop\n      pop\n      pop\n      pop\n      jump\t// out\n        /* \"contracts/Test1.sol\":282:301  User[] public users */\n    tag_28:\n      0x01\n      dup2\n      dup2\n      sload\n      dup2\n      lt\n      tag_57\n      jumpi\n      0x00\n      dup1\n      revert\n    tag_57:\n      swap1\n      0x00\n      mstore\n      keccak256(0x00, 0x20)\n      swap1\n      0x04\n      mul\n      add\n      0x00\n      swap2\n      pop\n      swap1\n      pop\n      dup1\n      0x00\n      add\n      0x00\n      swap1\n      sload\n      swap1\n      0x0100\n      exp\n      swap1\n      div\n      0xffffffffffffffffffffffffffffffffffffffff\n      and\n      swap1\n      dup1\n      0x01\n      add\n      dup1\n      sload\n      tag_59\n      swap1\n      tag_60\n      jump\t// in\n    tag_59:\n      dup1\n      0x1f\n      add\n      0x20\n      dup1\n      swap2\n      div\n      mul\n      0x20\n      add\n      mload(0x40)\n      swap1\n      dup2\n      add\n      0x40\n      mstore\n      dup1\n      swap3\n      swap2\n      swap1\n      dup2\n      dup2\n      mstore\n      0x20\n      add\n      dup3\n      dup1\n      sload\n      tag_61\n      swap1\n      tag_60\n      jump\t// in\n    tag_61:\n      dup1\n      iszero\n      tag_62\n      jumpi\n      dup1\n      0x1f\n      lt\n      tag_63\n      jumpi\n      0x0100\n      dup1\n      dup4\n      sload\n      div\n      mul\n      dup4\n      mstore\n      swap2\n      0x20\n      add\n      swap2\n      jump(tag_62)\n    tag_63:\n      dup3\n      add\n      swap2\n      swap1\n      0x00\n      mstore\n      keccak256(0x00, 0x20)\n      swap1\n    tag_64:\n      dup2\n      sload\n      dup2\n      mstore\n      swap1\n      0x01\n      add\n      swap1\n      0x20\n      add\n      dup1\n      dup4\n      gt\n      tag_64\n      jumpi\n      dup3\n      swap1\n      sub\n      0x1f\n      and\n      dup3\n      add\n      swap2\n    tag_62:\n      pop\n      pop\n      pop\n      pop\n      pop\n      swap1\n      dup1\n      0x02\n      add\n      sload\n      swap1\n      dup1\n      0x03\n      add\n      0x00\n      swap1\n      sload\n      swap1\n      0x0100\n      exp\n      swap1\n      div\n      0xff\n      and\n      swap1\n      pop\n      dup5\n      jump\t// out\n        /* \"contracts/Test1.sol\":931:1015  function getUserByAddress(address walletAddress) public returns(User memory){... */\n    tag_34:\n        /* \"contracts/Test1.sol\":995:1006  User memory */\n      tag_65\n      tag_66\n      jump\t// in\n    tag_65:\n        /* \"contracts/Test1.sol\":931:1015  function getUserByAddress(address walletAddress) public returns(User memory){... */\n      swap2\n      swap1\n      pop\n      jump\t// out\n        /* \"contracts/Test1.sol\":307:348  mapping(address => uint) public investors */\n    tag_40:\n      mstore(0x20, 0x02)\n      dup1\n      0x00\n      mstore\n      keccak256(0x00, 0x40)\n      0x00\n      swap2\n      pop\n      swap1\n      pop\n      sload\n      dup2\n      jump\t// out\n        /* \"contracts/Test1.sol\":1456:1719  function balanceOf(address walletAddress) public view returns(uint){... */\n    tag_46:\n        /* \"contracts/Test1.sol\":1518:1522  uint */\n      0x00\n        /* \"contracts/Test1.sol\":1537:1543  uint i */\n      dup1\n        /* \"contracts/Test1.sol\":1546:1547  0 */\n      0x00\n        /* \"contracts/Test1.sol\":1537:1547  uint i = 0 */\n      swap1\n      pop\n        /* \"contracts/Test1.sol\":1533:1693  for(uint i = 0; i < users.length; i++){... */\n    tag_69:\n        /* \"contracts/Test1.sol\":1553:1558  users */\n      0x01\n        /* \"contracts/Test1.sol\":1553:1565  users.length */\n      dup1\n      sload\n      swap1\n      pop\n        /* \"contracts/Test1.sol\":1549:1550  i */\n      dup2\n        /* \"contracts/Test1.sol\":1549:1565  i < users.length */\n      lt\n        /* \"contracts/Test1.sol\":1533:1693  for(uint i = 0; i < users.length; i++){... */\n      iszero\n      tag_70\n      jumpi\n        /* \"contracts/Test1.sol\":1614:1627  walletAddress */\n      dup3\n        /* \"contracts/Test1.sol\":1588:1627  users[i].walletAddress == walletAddress */\n      0xffffffffffffffffffffffffffffffffffffffff\n      and\n        /* \"contracts/Test1.sol\":1588:1593  users */\n      0x01\n        /* \"contracts/Test1.sol\":1594:1595  i */\n      dup3\n        /* \"contracts/Test1.sol\":1588:1596  users[i] */\n      dup2\n      sload\n      dup2\n      lt\n      tag_72\n      jumpi\n      tag_73\n      tag_74\n      jump\t// in\n    tag_73:\n    tag_72:\n      swap1\n      0x00\n      mstore\n      keccak256(0x00, 0x20)\n      swap1\n      0x04\n      mul\n      add\n        /* \"contracts/Test1.sol\":1588:1610  users[i].walletAddress */\n      0x00\n      add\n      0x00\n      swap1\n      sload\n      swap1\n      0x0100\n      exp\n      swap1\n      div\n      0xffffffffffffffffffffffffffffffffffffffff\n      and\n        /* \"contracts/Test1.sol\":1588:1627  users[i].walletAddress == walletAddress */\n      0xffffffffffffffffffffffffffffffffffffffff\n      and\n      eq\n        /* \"contracts/Test1.sol\":1585:1683  if(users[i].walletAddress == walletAddress){... */\n      iszero\n      tag_76\n      jumpi\n        /* \"contracts/Test1.sol\":1653:1658  users */\n      0x01\n        /* \"contracts/Test1.sol\":1659:1660  i */\n      dup2\n        /* \"contracts/Test1.sol\":1653:1661  users[i] */\n      dup2\n      sload\n      dup2\n      lt\n      tag_77\n      jumpi\n      tag_78\n      tag_74\n      jump\t// in\n    tag_78:\n    tag_77:\n      swap1\n      0x00\n      mstore\n      keccak256(0x00, 0x20)\n      swap1\n      0x04\n      mul\n      add\n        /* \"contracts/Test1.sol\":1653:1668  users[i].amount */\n      0x02\n      add\n      sload\n        /* \"contracts/Test1.sol\":1646:1668  return users[i].amount */\n      swap2\n      pop\n      pop\n      jump(tag_68)\n        /* \"contracts/Test1.sol\":1585:1683  if(users[i].walletAddress == walletAddress){... */\n    tag_76:\n        /* \"contracts/Test1.sol\":1567:1570  i++ */\n      dup1\n      dup1\n      tag_80\n      swap1\n      tag_81\n      jump\t// in\n    tag_80:\n      swap2\n      pop\n      pop\n        /* \"contracts/Test1.sol\":1533:1693  for(uint i = 0; i < users.length; i++){... */\n      jump(tag_69)\n    tag_70:\n      pop\n        /* \"contracts/Test1.sol\":1709:1712  999 */\n      0x03e7\n        /* \"contracts/Test1.sol\":1702:1712  return 999 */\n      swap1\n      pop\n        /* \"contracts/Test1.sol\":1456:1719  function balanceOf(address walletAddress) public view returns(uint){... */\n    tag_68:\n      swap2\n      swap1\n      pop\n      jump\t// out\n        /* \"contracts/Test1.sol\":1210:1450  function transferToAddress(address walletAddress) private {... */\n    tag_52:\n        /* \"contracts/Test1.sol\":1282:1288  uint i */\n      0x00\n        /* \"contracts/Test1.sol\":1278:1444  for(uint i = 0; i < users.length; i++){... */\n    tag_83:\n        /* \"contracts/Test1.sol\":1298:1303  users */\n      0x01\n        /* \"contracts/Test1.sol\":1298:1310  users.length */\n      dup1\n      sload\n      swap1\n      pop\n        /* \"contracts/Test1.sol\":1294:1295  i */\n      dup2\n        /* \"contracts/Test1.sol\":1294:1310  i < users.length */\n      lt\n        /* \"contracts/Test1.sol\":1278:1444  for(uint i = 0; i < users.length; i++){... */\n      iszero\n      tag_84\n      jumpi\n        /* \"contracts/Test1.sol\":1359:1372  walletAddress */\n      dup2\n        /* \"contracts/Test1.sol\":1333:1372  users[i].walletAddress == walletAddress */\n      0xffffffffffffffffffffffffffffffffffffffff\n      and\n        /* \"contracts/Test1.sol\":1333:1338  users */\n      0x01\n        /* \"contracts/Test1.sol\":1339:1340  i */\n      dup3\n        /* \"contracts/Test1.sol\":1333:1341  users[i] */\n      dup2\n      sload\n      dup2\n      lt\n      tag_86\n      jumpi\n      tag_87\n      tag_74\n      jump\t// in\n    tag_87:\n    tag_86:\n      swap1\n      0x00\n      mstore\n      keccak256(0x00, 0x20)\n      swap1\n      0x04\n      mul\n      add\n        /* \"contracts/Test1.sol\":1333:1355  users[i].walletAddress */\n      0x00\n      add\n      0x00\n      swap1\n      sload\n      swap1\n      0x0100\n      exp\n      swap1\n      div\n      0xffffffffffffffffffffffffffffffffffffffff\n      and\n        /* \"contracts/Test1.sol\":1333:1372  users[i].walletAddress == walletAddress */\n      0xffffffffffffffffffffffffffffffffffffffff\n      and\n      eq\n        /* \"contracts/Test1.sol\":1330:1434  if(users[i].walletAddress == walletAddress){... */\n      iszero\n      tag_89\n      jumpi\n        /* \"contracts/Test1.sol\":1410:1419  msg.value */\n      callvalue\n        /* \"contracts/Test1.sol\":1391:1396  users */\n      0x01\n        /* \"contracts/Test1.sol\":1397:1398  i */\n      dup3\n        /* \"contracts/Test1.sol\":1391:1399  users[i] */\n      dup2\n      sload\n      dup2\n      lt\n      tag_90\n      jumpi\n      tag_91\n      tag_74\n      jump\t// in\n    tag_91:\n    tag_90:\n      swap1\n      0x00\n      mstore\n      keccak256(0x00, 0x20)\n      swap1\n      0x04\n      mul\n      add\n        /* \"contracts/Test1.sol\":1391:1406  users[i].amount */\n      0x02\n      add\n      0x00\n        /* \"contracts/Test1.sol\":1391:1419  users[i].amount += msg.value */\n      dup3\n      dup3\n      sload\n      tag_93\n      swap2\n      swap1\n      tag_94\n      jump\t// in\n    tag_93:\n      swap3\n      pop\n      pop\n      dup2\n      swap1\n      sstore\n      pop\n        /* \"contracts/Test1.sol\":1330:1434  if(users[i].walletAddress == walletAddress){... */\n    tag_89:\n        /* \"contracts/Test1.sol\":1312:1315  i++ */\n      dup1\n      dup1\n      tag_95\n      swap1\n      tag_81\n      jump\t// in\n    tag_95:\n      swap2\n      pop\n      pop\n        /* \"contracts/Test1.sol\":1278:1444  for(uint i = 0; i < users.length; i++){... */\n      jump(tag_83)\n    tag_84:\n      pop\n        /* \"contracts/Test1.sol\":1210:1450  function transferToAddress(address walletAddress) private {... */\n      pop\n      jump\t// out\n    tag_56:\n      dup3\n      dup1\n      sload\n      tag_96\n      swap1\n      tag_60\n      jump\t// in\n    tag_96:\n      swap1\n      0x00\n      mstore\n      keccak256(0x00, 0x20)\n      swap1\n      0x1f\n      add\n      0x20\n      swap1\n      div\n      dup2\n      add\n      swap3\n      dup3\n      tag_98\n      jumpi\n      0x00\n      dup6\n      sstore\n      jump(tag_97)\n    tag_98:\n      dup3\n      0x1f\n      lt\n      tag_99\n      jumpi\n      dup1\n      mload\n      not(0xff)\n      and\n      dup4\n      dup1\n      add\n      or\n      dup6\n      sstore\n      jump(tag_97)\n    tag_99:\n      dup3\n      dup1\n      add\n      0x01\n      add\n      dup6\n      sstore\n      dup3\n      iszero\n      tag_97\n      jumpi\n      swap2\n      dup3\n      add\n    tag_100:\n      dup3\n      dup2\n      gt\n      iszero\n      tag_101\n      jumpi\n      dup3\n      mload\n      dup3\n      sstore\n      swap2\n      0x20\n      add\n      swap2\n      swap1\n      0x01\n      add\n      swap1\n      jump(tag_100)\n    tag_101:\n    tag_97:\n      pop\n      swap1\n      pop\n      tag_102\n      swap2\n      swap1\n      tag_103\n      jump\t// in\n    tag_102:\n      pop\n      swap1\n      jump\t// out\n    tag_66:\n      mload(0x40)\n      dup1\n      0x80\n      add\n      0x40\n      mstore\n      dup1\n      and(0xffffffffffffffffffffffffffffffffffffffff, 0x00)\n      dup2\n      mstore\n      0x20\n      add\n      0x60\n      dup2\n      mstore\n      0x20\n      add\n      0x00\n      dup2\n      mstore\n      0x20\n      add\n      iszero(iszero(0x00))\n      dup2\n      mstore\n      pop\n      swap1\n      jump\t// out\n    tag_103:\n    tag_104:\n      dup1\n      dup3\n      gt\n      iszero\n      tag_105\n      jumpi\n      0x00\n      dup2\n      0x00\n      swap1\n      sstore\n      pop\n      0x01\n      add\n      jump(tag_104)\n    tag_105:\n      pop\n      swap1\n      jump\t// out\n        /* \"#utility.yul\":7:419   */\n    tag_107:\n        /* \"#utility.yul\":85:90   */\n      0x00\n        /* \"#utility.yul\":110:176   */\n      tag_109\n        /* \"#utility.yul\":126:175   */\n      tag_110\n        /* \"#utility.yul\":168:174   */\n      dup5\n        /* \"#utility.yul\":126:175   */\n      tag_111\n      jump\t// in\n    tag_110:\n        /* \"#utility.yul\":110:176   */\n      tag_112\n      jump\t// in\n    tag_109:\n        /* \"#utility.yul\":101:176   */\n      swap1\n      pop\n        /* \"#utility.yul\":199:205   */\n      dup3\n        /* \"#utility.yul\":192:197   */\n      dup2\n        /* \"#utility.yul\":185:206   */\n      mstore\n        /* \"#utility.yul\":237:241   */\n      0x20\n        /* \"#utility.yul\":230:235   */\n      dup2\n        /* \"#utility.yul\":226:242   */\n      add\n        /* \"#utility.yul\":275:278   */\n      dup5\n        /* \"#utility.yul\":266:272   */\n      dup5\n        /* \"#utility.yul\":261:264   */\n      dup5\n        /* \"#utility.yul\":257:273   */\n      add\n        /* \"#utility.yul\":254:279   */\n      gt\n        /* \"#utility.yul\":251:363   */\n      iszero\n      tag_113\n      jumpi\n        /* \"#utility.yul\":282:361   */\n      tag_114\n      tag_115\n      jump\t// in\n    tag_114:\n        /* \"#utility.yul\":251:363   */\n    tag_113:\n        /* \"#utility.yul\":372:413   */\n      tag_116\n        /* \"#utility.yul\":406:412   */\n      dup5\n        /* \"#utility.yul\":401:404   */\n      dup3\n        /* \"#utility.yul\":396:399   */\n      dup6\n        /* \"#utility.yul\":372:413   */\n      tag_117\n      jump\t// in\n    tag_116:\n        /* \"#utility.yul\":91:419   */\n      pop\n        /* \"#utility.yul\":7:419   */\n      swap4\n      swap3\n      pop\n      pop\n      pop\n      jump\t// out\n        /* \"#utility.yul\":425:564   */\n    tag_118:\n        /* \"#utility.yul\":471:476   */\n      0x00\n        /* \"#utility.yul\":509:515   */\n      dup2\n        /* \"#utility.yul\":496:516   */\n      calldataload\n        /* \"#utility.yul\":487:516   */\n      swap1\n      pop\n        /* \"#utility.yul\":525:558   */\n      tag_120\n        /* \"#utility.yul\":552:557   */\n      dup2\n        /* \"#utility.yul\":525:558   */\n      tag_121\n      jump\t// in\n    tag_120:\n        /* \"#utility.yul\":425:564   */\n      swap3\n      swap2\n      pop\n      pop\n      jump\t// out\n        /* \"#utility.yul\":570:703   */\n    tag_122:\n        /* \"#utility.yul\":613:618   */\n      0x00\n        /* \"#utility.yul\":651:657   */\n      dup2\n        /* \"#utility.yul\":638:658   */\n      calldataload\n        /* \"#utility.yul\":629:658   */\n      swap1\n      pop\n        /* \"#utility.yul\":667:697   */\n      tag_124\n        /* \"#utility.yul\":691:696   */\n      dup2\n        /* \"#utility.yul\":667:697   */\n      tag_125\n      jump\t// in\n    tag_124:\n        /* \"#utility.yul\":570:703   */\n      swap3\n      swap2\n      pop\n      pop\n      jump\t// out\n        /* \"#utility.yul\":723:1063   */\n    tag_126:\n        /* \"#utility.yul\":779:784   */\n      0x00\n        /* \"#utility.yul\":828:831   */\n      dup3\n        /* \"#utility.yul\":821:825   */\n      0x1f\n        /* \"#utility.yul\":813:819   */\n      dup4\n        /* \"#utility.yul\":809:826   */\n      add\n        /* \"#utility.yul\":805:832   */\n      slt\n        /* \"#utility.yul\":795:917   */\n      tag_128\n      jumpi\n        /* \"#utility.yul\":836:915   */\n      tag_129\n      tag_130\n      jump\t// in\n    tag_129:\n        /* \"#utility.yul\":795:917   */\n    tag_128:\n        /* \"#utility.yul\":953:959   */\n      dup2\n        /* \"#utility.yul\":940:960   */\n      calldataload\n        /* \"#utility.yul\":978:1057   */\n      tag_131\n        /* \"#utility.yul\":1053:1056   */\n      dup5\n        /* \"#utility.yul\":1045:1051   */\n      dup3\n        /* \"#utility.yul\":1038:1042   */\n      0x20\n        /* \"#utility.yul\":1030:1036   */\n      dup7\n        /* \"#utility.yul\":1026:1043   */\n      add\n        /* \"#utility.yul\":978:1057   */\n      tag_107\n      jump\t// in\n    tag_131:\n        /* \"#utility.yul\":969:1057   */\n      swap2\n      pop\n        /* \"#utility.yul\":785:1063   */\n      pop\n        /* \"#utility.yul\":723:1063   */\n      swap3\n      swap2\n      pop\n      pop\n      jump\t// out\n        /* \"#utility.yul\":1069:1208   */\n    tag_132:\n        /* \"#utility.yul\":1115:1120   */\n      0x00\n        /* \"#utility.yul\":1153:1159   */\n      dup2\n        /* \"#utility.yul\":1140:1160   */\n      calldataload\n        /* \"#utility.yul\":1131:1160   */\n      swap1\n      pop\n        /* \"#utility.yul\":1169:1202   */\n      tag_134\n        /* \"#utility.yul\":1196:1201   */\n      dup2\n        /* \"#utility.yul\":1169:1202   */\n      tag_135\n      jump\t// in\n    tag_134:\n        /* \"#utility.yul\":1069:1208   */\n      swap3\n      swap2\n      pop\n      pop\n      jump\t// out\n        /* \"#utility.yul\":1214:1543   */\n    tag_17:\n        /* \"#utility.yul\":1273:1279   */\n      0x00\n        /* \"#utility.yul\":1322:1324   */\n      0x20\n        /* \"#utility.yul\":1310:1319   */\n      dup3\n        /* \"#utility.yul\":1301:1308   */\n      dup5\n        /* \"#utility.yul\":1297:1320   */\n      sub\n        /* \"#utility.yul\":1293:1325   */\n      slt\n        /* \"#utility.yul\":1290:1409   */\n      iszero\n      tag_137\n      jumpi\n        /* \"#utility.yul\":1328:1407   */\n      tag_138\n      tag_139\n      jump\t// in\n    tag_138:\n        /* \"#utility.yul\":1290:1409   */\n    tag_137:\n        /* \"#utility.yul\":1448:1449   */\n      0x00\n        /* \"#utility.yul\":1473:1526   */\n      tag_140\n        /* \"#utility.yul\":1518:1525   */\n      dup5\n        /* \"#utility.yul\":1509:1515   */\n      dup3\n        /* \"#utility.yul\":1498:1507   */\n      dup6\n        /* \"#utility.yul\":1494:1516   */\n      add\n        /* \"#utility.yul\":1473:1526   */\n      tag_118\n      jump\t// in\n    tag_140:\n        /* \"#utility.yul\":1463:1526   */\n      swap2\n      pop\n        /* \"#utility.yul\":1419:1536   */\n      pop\n        /* \"#utility.yul\":1214:1543   */\n      swap3\n      swap2\n      pop\n      pop\n      jump\t// out\n        /* \"#utility.yul\":1549:2488   */\n    tag_22:\n        /* \"#utility.yul\":1642:1648   */\n      0x00\n        /* \"#utility.yul\":1650:1656   */\n      dup1\n        /* \"#utility.yul\":1658:1664   */\n      0x00\n        /* \"#utility.yul\":1666:1672   */\n      dup1\n        /* \"#utility.yul\":1715:1718   */\n      0x80\n        /* \"#utility.yul\":1703:1712   */\n      dup6\n        /* \"#utility.yul\":1694:1701   */\n      dup8\n        /* \"#utility.yul\":1690:1713   */\n      sub\n        /* \"#utility.yul\":1686:1719   */\n      slt\n        /* \"#utility.yul\":1683:1803   */\n      iszero\n      tag_142\n      jumpi\n        /* \"#utility.yul\":1722:1801   */\n      tag_143\n      tag_139\n      jump\t// in\n    tag_143:\n        /* \"#utility.yul\":1683:1803   */\n    tag_142:\n        /* \"#utility.yul\":1842:1843   */\n      0x00\n        /* \"#utility.yul\":1867:1920   */\n      tag_144\n        /* \"#utility.yul\":1912:1919   */\n      dup8\n        /* \"#utility.yul\":1903:1909   */\n      dup3\n        /* \"#utility.yul\":1892:1901   */\n      dup9\n        /* \"#utility.yul\":1888:1910   */\n      add\n        /* \"#utility.yul\":1867:1920   */\n      tag_118\n      jump\t// in\n    tag_144:\n        /* \"#utility.yul\":1857:1920   */\n      swap5\n      pop\n        /* \"#utility.yul\":1813:1930   */\n      pop\n        /* \"#utility.yul\":1997:1999   */\n      0x20\n        /* \"#utility.yul\":1986:1995   */\n      dup6\n        /* \"#utility.yul\":1982:2000   */\n      add\n        /* \"#utility.yul\":1969:2001   */\n      calldataload\n        /* \"#utility.yul\":2028:2046   */\n      0xffffffffffffffff\n        /* \"#utility.yul\":2020:2026   */\n      dup2\n        /* \"#utility.yul\":2017:2047   */\n      gt\n        /* \"#utility.yul\":2014:2131   */\n      iszero\n      tag_145\n      jumpi\n        /* \"#utility.yul\":2050:2129   */\n      tag_146\n      tag_147\n      jump\t// in\n    tag_146:\n        /* \"#utility.yul\":2014:2131   */\n    tag_145:\n        /* \"#utility.yul\":2155:2218   */\n      tag_148\n        /* \"#utility.yul\":2210:2217   */\n      dup8\n        /* \"#utility.yul\":2201:2207   */\n      dup3\n        /* \"#utility.yul\":2190:2199   */\n      dup9\n        /* \"#utility.yul\":2186:2208   */\n      add\n        /* \"#utility.yul\":2155:2218   */\n      tag_126\n      jump\t// in\n    tag_148:\n        /* \"#utility.yul\":2145:2218   */\n      swap4\n      pop\n        /* \"#utility.yul\":1940:2228   */\n      pop\n        /* \"#utility.yul\":2267:2269   */\n      0x40\n        /* \"#utility.yul\":2293:2346   */\n      tag_149\n        /* \"#utility.yul\":2338:2345   */\n      dup8\n        /* \"#utility.yul\":2329:2335   */\n      dup3\n        /* \"#utility.yul\":2318:2327   */\n      dup9\n        /* \"#utility.yul\":2314:2336   */\n      add\n        /* \"#utility.yul\":2293:2346   */\n      tag_132\n      jump\t// in\n    tag_149:\n        /* \"#utility.yul\":2283:2346   */\n      swap3\n      pop\n        /* \"#utility.yul\":2238:2356   */\n      pop\n        /* \"#utility.yul\":2395:2397   */\n      0x60\n        /* \"#utility.yul\":2421:2471   */\n      tag_150\n        /* \"#utility.yul\":2463:2470   */\n      dup8\n        /* \"#utility.yul\":2454:2460   */\n      dup3\n        /* \"#utility.yul\":2443:2452   */\n      dup9\n        /* \"#utility.yul\":2439:2461   */\n      add\n        /* \"#utility.yul\":2421:2471   */\n      tag_122\n      jump\t// in\n    tag_150:\n        /* \"#utility.yul\":2411:2471   */\n      swap2\n      pop\n        /* \"#utility.yul\":2366:2481   */\n      pop\n        /* \"#utility.yul\":1549:2488   */\n      swap3\n      swap6\n      swap2\n      swap5\n      pop\n      swap3\n      pop\n      jump\t// out\n        /* \"#utility.yul\":2494:2968   */\n    tag_13:\n        /* \"#utility.yul\":2562:2568   */\n      0x00\n        /* \"#utility.yul\":2570:2576   */\n      dup1\n        /* \"#utility.yul\":2619:2621   */\n      0x40\n        /* \"#utility.yul\":2607:2616   */\n      dup4\n        /* \"#utility.yul\":2598:2605   */\n      dup6\n        /* \"#utility.yul\":2594:2617   */\n      sub\n        /* \"#utility.yul\":2590:2622   */\n      slt\n        /* \"#utility.yul\":2587:2706   */\n      iszero\n      tag_152\n      jumpi\n        /* \"#utility.yul\":2625:2704   */\n      tag_153\n      tag_139\n      jump\t// in\n    tag_153:\n        /* \"#utility.yul\":2587:2706   */\n    tag_152:\n        /* \"#utility.yul\":2745:2746   */\n      0x00\n        /* \"#utility.yul\":2770:2823   */\n      tag_154\n        /* \"#utility.yul\":2815:2822   */\n      dup6\n        /* \"#utility.yul\":2806:2812   */\n      dup3\n        /* \"#utility.yul\":2795:2804   */\n      dup7\n        /* \"#utility.yul\":2791:2813   */\n      add\n        /* \"#utility.yul\":2770:2823   */\n      tag_118\n      jump\t// in\n    tag_154:\n        /* \"#utility.yul\":2760:2823   */\n      swap3\n      pop\n        /* \"#utility.yul\":2716:2833   */\n      pop\n        /* \"#utility.yul\":2872:2874   */\n      0x20\n        /* \"#utility.yul\":2898:2951   */\n      tag_155\n        /* \"#utility.yul\":2943:2950   */\n      dup6\n        /* \"#utility.yul\":2934:2940   */\n      dup3\n        /* \"#utility.yul\":2923:2932   */\n      dup7\n        /* \"#utility.yul\":2919:2941   */\n      add\n        /* \"#utility.yul\":2898:2951   */\n      tag_132\n      jump\t// in\n    tag_155:\n        /* \"#utility.yul\":2888:2951   */\n      swap2\n      pop\n        /* \"#utility.yul\":2843:2961   */\n      pop\n        /* \"#utility.yul\":2494:2968   */\n      swap3\n      pop\n      swap3\n      swap1\n      pop\n      jump\t// out\n        /* \"#utility.yul\":2974:3303   */\n    tag_27:\n        /* \"#utility.yul\":3033:3039   */\n      0x00\n        /* \"#utility.yul\":3082:3084   */\n      0x20\n        /* \"#utility.yul\":3070:3079   */\n      dup3\n        /* \"#utility.yul\":3061:3068   */\n      dup5\n        /* \"#utility.yul\":3057:3080   */\n      sub\n        /* \"#utility.yul\":3053:3085   */\n      slt\n        /* \"#utility.yul\":3050:3169   */\n      iszero\n      tag_157\n      jumpi\n        /* \"#utility.yul\":3088:3167   */\n      tag_158\n      tag_139\n      jump\t// in\n    tag_158:\n        /* \"#utility.yul\":3050:3169   */\n    tag_157:\n        /* \"#utility.yul\":3208:3209   */\n      0x00\n        /* \"#utility.yul\":3233:3286   */\n      tag_159\n        /* \"#utility.yul\":3278:3285   */\n      dup5\n        /* \"#utility.yul\":3269:3275   */\n      dup3\n        /* \"#utility.yul\":3258:3267   */\n      dup6\n        /* \"#utility.yul\":3254:3276   */\n      add\n        /* \"#utility.yul\":3233:3286   */\n      tag_132\n      jump\t// in\n    tag_159:\n        /* \"#utility.yul\":3223:3286   */\n      swap2\n      pop\n        /* \"#utility.yul\":3179:3296   */\n      pop\n        /* \"#utility.yul\":2974:3303   */\n      swap3\n      swap2\n      pop\n      pop\n      jump\t// out\n        /* \"#utility.yul\":3309:3417   */\n    tag_160:\n        /* \"#utility.yul\":3386:3410   */\n      tag_162\n        /* \"#utility.yul\":3404:3409   */\n      dup2\n        /* \"#utility.yul\":3386:3410   */\n      tag_163\n      jump\t// in\n    tag_162:\n        /* \"#utility.yul\":3381:3384   */\n      dup3\n        /* \"#utility.yul\":3374:3411   */\n      mstore\n        /* \"#utility.yul\":3309:3417   */\n      pop\n      pop\n      jump\t// out\n        /* \"#utility.yul\":3423:3541   */\n    tag_164:\n        /* \"#utility.yul\":3510:3534   */\n      tag_166\n        /* \"#utility.yul\":3528:3533   */\n      dup2\n        /* \"#utility.yul\":3510:3534   */\n      tag_163\n      jump\t// in\n    tag_166:\n        /* \"#utility.yul\":3505:3508   */\n      dup3\n        /* \"#utility.yul\":3498:3535   */\n      mstore\n        /* \"#utility.yul\":3423:3541   */\n      pop\n      pop\n      jump\t// out\n        /* \"#utility.yul\":3547:3646   */\n    tag_167:\n        /* \"#utility.yul\":3618:3639   */\n      tag_169\n        /* \"#utility.yul\":3633:3638   */\n      dup2\n        /* \"#utility.yul\":3618:3639   */\n      tag_170\n      jump\t// in\n    tag_169:\n        /* \"#utility.yul\":3613:3616   */\n      dup3\n        /* \"#utility.yul\":3606:3640   */\n      mstore\n        /* \"#utility.yul\":3547:3646   */\n      pop\n      pop\n      jump\t// out\n        /* \"#utility.yul\":3652:3761   */\n    tag_171:\n        /* \"#utility.yul\":3733:3754   */\n      tag_173\n        /* \"#utility.yul\":3748:3753   */\n      dup2\n        /* \"#utility.yul\":3733:3754   */\n      tag_170\n      jump\t// in\n    tag_173:\n        /* \"#utility.yul\":3728:3731   */\n      dup3\n        /* \"#utility.yul\":3721:3755   */\n      mstore\n        /* \"#utility.yul\":3652:3761   */\n      pop\n      pop\n      jump\t// out\n        /* \"#utility.yul\":3767:4111   */\n    tag_174:\n        /* \"#utility.yul\":3845:3848   */\n      0x00\n        /* \"#utility.yul\":3873:3912   */\n      tag_176\n        /* \"#utility.yul\":3906:3911   */\n      dup3\n        /* \"#utility.yul\":3873:3912   */\n      tag_177\n      jump\t// in\n    tag_176:\n        /* \"#utility.yul\":3928:3989   */\n      tag_178\n        /* \"#utility.yul\":3982:3988   */\n      dup2\n        /* \"#utility.yul\":3977:3980   */\n      dup6\n        /* \"#utility.yul\":3928:3989   */\n      tag_179\n      jump\t// in\n    tag_178:\n        /* \"#utility.yul\":3921:3989   */\n      swap4\n      pop\n        /* \"#utility.yul\":3998:4050   */\n      tag_180\n        /* \"#utility.yul\":4043:4049   */\n      dup2\n        /* \"#utility.yul\":4038:4041   */\n      dup6\n        /* \"#utility.yul\":4031:4035   */\n      0x20\n        /* \"#utility.yul\":4024:4029   */\n      dup7\n        /* \"#utility.yul\":4020:4036   */\n      add\n        /* \"#utility.yul\":3998:4050   */\n      tag_181\n      jump\t// in\n    tag_180:\n        /* \"#utility.yul\":4075:4104   */\n      tag_182\n        /* \"#utility.yul\":4097:4103   */\n      dup2\n        /* \"#utility.yul\":4075:4104   */\n      tag_183\n      jump\t// in\n    tag_182:\n        /* \"#utility.yul\":4070:4073   */\n      dup5\n        /* \"#utility.yul\":4066:4105   */\n      add\n        /* \"#utility.yul\":4059:4105   */\n      swap2\n      pop\n        /* \"#utility.yul\":3849:4111   */\n      pop\n        /* \"#utility.yul\":3767:4111   */\n      swap3\n      swap2\n      pop\n      pop\n      jump\t// out\n        /* \"#utility.yul\":4117:4481   */\n    tag_184:\n        /* \"#utility.yul\":4205:4208   */\n      0x00\n        /* \"#utility.yul\":4233:4272   */\n      tag_186\n        /* \"#utility.yul\":4266:4271   */\n      dup3\n        /* \"#utility.yul\":4233:4272   */\n      tag_177\n      jump\t// in\n    tag_186:\n        /* \"#utility.yul\":4288:4359   */\n      tag_187\n        /* \"#utility.yul\":4352:4358   */\n      dup2\n        /* \"#utility.yul\":4347:4350   */\n      dup6\n        /* \"#utility.yul\":4288:4359   */\n      tag_188\n      jump\t// in\n    tag_187:\n        /* \"#utility.yul\":4281:4359   */\n      swap4\n      pop\n        /* \"#utility.yul\":4368:4420   */\n      tag_189\n        /* \"#utility.yul\":4413:4419   */\n      dup2\n        /* \"#utility.yul\":4408:4411   */\n      dup6\n        /* \"#utility.yul\":4401:4405   */\n      0x20\n        /* \"#utility.yul\":4394:4399   */\n      dup7\n        /* \"#utility.yul\":4390:4406   */\n      add\n        /* \"#utility.yul\":4368:4420   */\n      tag_181\n      jump\t// in\n    tag_189:\n        /* \"#utility.yul\":4445:4474   */\n      tag_190\n        /* \"#utility.yul\":4467:4473   */\n      dup2\n        /* \"#utility.yul\":4445:4474   */\n      tag_183\n      jump\t// in\n    tag_190:\n        /* \"#utility.yul\":4440:4443   */\n      dup5\n        /* \"#utility.yul\":4436:4475   */\n      add\n        /* \"#utility.yul\":4429:4475   */\n      swap2\n      pop\n        /* \"#utility.yul\":4209:4481   */\n      pop\n        /* \"#utility.yul\":4117:4481   */\n      swap3\n      swap2\n      pop\n      pop\n      jump\t// out\n        /* \"#utility.yul\":4533:5488   */\n    tag_191:\n        /* \"#utility.yul\":4642:4645   */\n      0x00\n        /* \"#utility.yul\":4678:4682   */\n      0x80\n        /* \"#utility.yul\":4673:4676   */\n      dup4\n        /* \"#utility.yul\":4669:4683   */\n      add\n        /* \"#utility.yul\":4774:4778   */\n      0x00\n        /* \"#utility.yul\":4767:4772   */\n      dup4\n        /* \"#utility.yul\":4763:4779   */\n      add\n        /* \"#utility.yul\":4757:4780   */\n      mload\n        /* \"#utility.yul\":4793:4856   */\n      tag_193\n        /* \"#utility.yul\":4850:4854   */\n      0x00\n        /* \"#utility.yul\":4845:4848   */\n      dup7\n        /* \"#utility.yul\":4841:4855   */\n      add\n        /* \"#utility.yul\":4827:4839   */\n      dup3\n        /* \"#utility.yul\":4793:4856   */\n      tag_160\n      jump\t// in\n    tag_193:\n        /* \"#utility.yul\":4693:4866   */\n      pop\n        /* \"#utility.yul\":4948:4952   */\n      0x20\n        /* \"#utility.yul\":4941:4946   */\n      dup4\n        /* \"#utility.yul\":4937:4953   */\n      add\n        /* \"#utility.yul\":4931:4954   */\n      mload\n        /* \"#utility.yul\":5001:5004   */\n      dup5\n        /* \"#utility.yul\":4995:4999   */\n      dup3\n        /* \"#utility.yul\":4991:5005   */\n      sub\n        /* \"#utility.yul\":4984:4988   */\n      0x20\n        /* \"#utility.yul\":4979:4982   */\n      dup7\n        /* \"#utility.yul\":4975:4989   */\n      add\n        /* \"#utility.yul\":4968:5006   */\n      mstore\n        /* \"#utility.yul\":5027:5100   */\n      tag_194\n        /* \"#utility.yul\":5095:5099   */\n      dup3\n        /* \"#utility.yul\":5081:5093   */\n      dup3\n        /* \"#utility.yul\":5027:5100   */\n      tag_174\n      jump\t// in\n    tag_194:\n        /* \"#utility.yul\":5019:5100   */\n      swap2\n      pop\n        /* \"#utility.yul\":4876:5111   */\n      pop\n        /* \"#utility.yul\":5195:5199   */\n      0x40\n        /* \"#utility.yul\":5188:5193   */\n      dup4\n        /* \"#utility.yul\":5184:5200   */\n      add\n        /* \"#utility.yul\":5178:5201   */\n      mload\n        /* \"#utility.yul\":5214:5277   */\n      tag_195\n        /* \"#utility.yul\":5271:5275   */\n      0x40\n        /* \"#utility.yul\":5266:5269   */\n      dup7\n        /* \"#utility.yul\":5262:5276   */\n      add\n        /* \"#utility.yul\":5248:5260   */\n      dup3\n        /* \"#utility.yul\":5214:5277   */\n      tag_196\n      jump\t// in\n    tag_195:\n        /* \"#utility.yul\":5121:5287   */\n      pop\n        /* \"#utility.yul\":5375:5379   */\n      0x60\n        /* \"#utility.yul\":5368:5373   */\n      dup4\n        /* \"#utility.yul\":5364:5380   */\n      add\n        /* \"#utility.yul\":5358:5381   */\n      mload\n        /* \"#utility.yul\":5394:5451   */\n      tag_197\n        /* \"#utility.yul\":5445:5449   */\n      0x60\n        /* \"#utility.yul\":5440:5443   */\n      dup7\n        /* \"#utility.yul\":5436:5450   */\n      add\n        /* \"#utility.yul\":5422:5434   */\n      dup3\n        /* \"#utility.yul\":5394:5451   */\n      tag_167\n      jump\t// in\n    tag_197:\n        /* \"#utility.yul\":5297:5461   */\n      pop\n        /* \"#utility.yul\":5478:5482   */\n      dup1\n        /* \"#utility.yul\":5471:5482   */\n      swap2\n      pop\n        /* \"#utility.yul\":4647:5488   */\n      pop\n        /* \"#utility.yul\":4533:5488   */\n      swap3\n      swap2\n      pop\n      pop\n      jump\t// out\n        /* \"#utility.yul\":5494:5602   */\n    tag_196:\n        /* \"#utility.yul\":5571:5595   */\n      tag_199\n        /* \"#utility.yul\":5589:5594   */\n      dup2\n        /* \"#utility.yul\":5571:5595   */\n      tag_200\n      jump\t// in\n    tag_199:\n        /* \"#utility.yul\":5566:5569   */\n      dup3\n        /* \"#utility.yul\":5559:5596   */\n      mstore\n        /* \"#utility.yul\":5494:5602   */\n      pop\n      pop\n      jump\t// out\n        /* \"#utility.yul\":5608:5726   */\n    tag_201:\n        /* \"#utility.yul\":5695:5719   */\n      tag_203\n        /* \"#utility.yul\":5713:5718   */\n      dup2\n        /* \"#utility.yul\":5695:5719   */\n      tag_200\n      jump\t// in\n    tag_203:\n        /* \"#utility.yul\":5690:5693   */\n      dup3\n        /* \"#utility.yul\":5683:5720   */\n      mstore\n        /* \"#utility.yul\":5608:5726   */\n      pop\n      pop\n      jump\t// out\n        /* \"#utility.yul\":5732:6364   */\n    tag_30:\n        /* \"#utility.yul\":5923:5927   */\n      0x00\n        /* \"#utility.yul\":5961:5964   */\n      0x80\n        /* \"#utility.yul\":5950:5959   */\n      dup3\n        /* \"#utility.yul\":5946:5965   */\n      add\n        /* \"#utility.yul\":5938:5965   */\n      swap1\n      pop\n        /* \"#utility.yul\":5975:6046   */\n      tag_205\n        /* \"#utility.yul\":6043:6044   */\n      0x00\n        /* \"#utility.yul\":6032:6041   */\n      dup4\n        /* \"#utility.yul\":6028:6045   */\n      add\n        /* \"#utility.yul\":6019:6025   */\n      dup8\n        /* \"#utility.yul\":5975:6046   */\n      tag_164\n      jump\t// in\n    tag_205:\n        /* \"#utility.yul\":6093:6102   */\n      dup2\n        /* \"#utility.yul\":6087:6091   */\n      dup2\n        /* \"#utility.yul\":6083:6103   */\n      sub\n        /* \"#utility.yul\":6078:6080   */\n      0x20\n        /* \"#utility.yul\":6067:6076   */\n      dup4\n        /* \"#utility.yul\":6063:6081   */\n      add\n        /* \"#utility.yul\":6056:6104   */\n      mstore\n        /* \"#utility.yul\":6121:6199   */\n      tag_206\n        /* \"#utility.yul\":6194:6198   */\n      dup2\n        /* \"#utility.yul\":6185:6191   */\n      dup7\n        /* \"#utility.yul\":6121:6199   */\n      tag_184\n      jump\t// in\n    tag_206:\n        /* \"#utility.yul\":6113:6199   */\n      swap1\n      pop\n        /* \"#utility.yul\":6209:6281   */\n      tag_207\n        /* \"#utility.yul\":6277:6279   */\n      0x40\n        /* \"#utility.yul\":6266:6275   */\n      dup4\n        /* \"#utility.yul\":6262:6280   */\n      add\n        /* \"#utility.yul\":6253:6259   */\n      dup6\n        /* \"#utility.yul\":6209:6281   */\n      tag_201\n      jump\t// in\n    tag_207:\n        /* \"#utility.yul\":6291:6357   */\n      tag_208\n        /* \"#utility.yul\":6353:6355   */\n      0x60\n        /* \"#utility.yul\":6342:6351   */\n      dup4\n        /* \"#utility.yul\":6338:6356   */\n      add\n        /* \"#utility.yul\":6329:6335   */\n      dup5\n        /* \"#utility.yul\":6291:6357   */\n      tag_171\n      jump\t// in\n    tag_208:\n        /* \"#utility.yul\":5732:6364   */\n      swap6\n      swap5\n      pop\n      pop\n      pop\n      pop\n      pop\n      jump\t// out\n        /* \"#utility.yul\":6370:6723   */\n    tag_36:\n        /* \"#utility.yul\":6503:6507   */\n      0x00\n        /* \"#utility.yul\":6541:6543   */\n      0x20\n        /* \"#utility.yul\":6530:6539   */\n      dup3\n        /* \"#utility.yul\":6526:6544   */\n      add\n        /* \"#utility.yul\":6518:6544   */\n      swap1\n      pop\n        /* \"#utility.yul\":6590:6599   */\n      dup2\n        /* \"#utility.yul\":6584:6588   */\n      dup2\n        /* \"#utility.yul\":6580:6600   */\n      sub\n        /* \"#utility.yul\":6576:6577   */\n      0x00\n        /* \"#utility.yul\":6565:6574   */\n      dup4\n        /* \"#utility.yul\":6561:6578   */\n      add\n        /* \"#utility.yul\":6554:6601   */\n      mstore\n        /* \"#utility.yul\":6618:6716   */\n      tag_210\n        /* \"#utility.yul\":6711:6715   */\n      dup2\n        /* \"#utility.yul\":6702:6708   */\n      dup5\n        /* \"#utility.yul\":6618:6716   */\n      tag_191\n      jump\t// in\n    tag_210:\n        /* \"#utility.yul\":6610:6716   */\n      swap1\n      pop\n        /* \"#utility.yul\":6370:6723   */\n      swap3\n      swap2\n      pop\n      pop\n      jump\t// out\n        /* \"#utility.yul\":6729:6951   */\n    tag_42:\n        /* \"#utility.yul\":6822:6826   */\n      0x00\n        /* \"#utility.yul\":6860:6862   */\n      0x20\n        /* \"#utility.yul\":6849:6858   */\n      dup3\n        /* \"#utility.yul\":6845:6863   */\n      add\n        /* \"#utility.yul\":6837:6863   */\n      swap1\n      pop\n        /* \"#utility.yul\":6873:6944   */\n      tag_212\n        /* \"#utility.yul\":6941:6942   */\n      0x00\n        /* \"#utility.yul\":6930:6939   */\n      dup4\n        /* \"#utility.yul\":6926:6943   */\n      add\n        /* \"#utility.yul\":6917:6923   */\n      dup5\n        /* \"#utility.yul\":6873:6944   */\n      tag_201\n      jump\t// in\n    tag_212:\n        /* \"#utility.yul\":6729:6951   */\n      swap3\n      swap2\n      pop\n      pop\n      jump\t// out\n        /* \"#utility.yul\":6957:7086   */\n    tag_112:\n        /* \"#utility.yul\":6991:6997   */\n      0x00\n        /* \"#utility.yul\":7018:7038   */\n      tag_214\n      tag_215\n      jump\t// in\n    tag_214:\n        /* \"#utility.yul\":7008:7038   */\n      swap1\n      pop\n        /* \"#utility.yul\":7047:7080   */\n      tag_216\n        /* \"#utility.yul\":7075:7079   */\n      dup3\n        /* \"#utility.yul\":7067:7073   */\n      dup3\n        /* \"#utility.yul\":7047:7080   */\n      tag_217\n      jump\t// in\n    tag_216:\n        /* \"#utility.yul\":6957:7086   */\n      swap2\n      swap1\n      pop\n      jump\t// out\n        /* \"#utility.yul\":7092:7167   */\n    tag_215:\n        /* \"#utility.yul\":7125:7131   */\n      0x00\n        /* \"#utility.yul\":7158:7160   */\n      0x40\n        /* \"#utility.yul\":7152:7161   */\n      mload\n        /* \"#utility.yul\":7142:7161   */\n      swap1\n      pop\n        /* \"#utility.yul\":7092:7167   */\n      swap1\n      jump\t// out\n        /* \"#utility.yul\":7173:7481   */\n    tag_111:\n        /* \"#utility.yul\":7235:7239   */\n      0x00\n        /* \"#utility.yul\":7325:7343   */\n      0xffffffffffffffff\n        /* \"#utility.yul\":7317:7323   */\n      dup3\n        /* \"#utility.yul\":7314:7344   */\n      gt\n        /* \"#utility.yul\":7311:7367   */\n      iszero\n      tag_220\n      jumpi\n        /* \"#utility.yul\":7347:7365   */\n      tag_221\n      tag_222\n      jump\t// in\n    tag_221:\n        /* \"#utility.yul\":7311:7367   */\n    tag_220:\n        /* \"#utility.yul\":7385:7414   */\n      tag_223\n        /* \"#utility.yul\":7407:7413   */\n      dup3\n        /* \"#utility.yul\":7385:7414   */\n      tag_183\n      jump\t// in\n    tag_223:\n        /* \"#utility.yul\":7377:7414   */\n      swap1\n      pop\n        /* \"#utility.yul\":7469:7473   */\n      0x20\n        /* \"#utility.yul\":7463:7467   */\n      dup2\n        /* \"#utility.yul\":7459:7474   */\n      add\n        /* \"#utility.yul\":7451:7474   */\n      swap1\n      pop\n        /* \"#utility.yul\":7173:7481   */\n      swap2\n      swap1\n      pop\n      jump\t// out\n        /* \"#utility.yul\":7487:7586   */\n    tag_177:\n        /* \"#utility.yul\":7539:7545   */\n      0x00\n        /* \"#utility.yul\":7573:7578   */\n      dup2\n        /* \"#utility.yul\":7567:7579   */\n      mload\n        /* \"#utility.yul\":7557:7579   */\n      swap1\n      pop\n        /* \"#utility.yul\":7487:7586   */\n      swap2\n      swap1\n      pop\n      jump\t// out\n        /* \"#utility.yul\":7592:7751   */\n    tag_179:\n        /* \"#utility.yul\":7666:7677   */\n      0x00\n        /* \"#utility.yul\":7700:7706   */\n      dup3\n        /* \"#utility.yul\":7695:7698   */\n      dup3\n        /* \"#utility.yul\":7688:7707   */\n      mstore\n        /* \"#utility.yul\":7740:7744   */\n      0x20\n        /* \"#utility.yul\":7735:7738   */\n      dup3\n        /* \"#utility.yul\":7731:7745   */\n      add\n        /* \"#utility.yul\":7716:7745   */\n      swap1\n      pop\n        /* \"#utility.yul\":7592:7751   */\n      swap3\n      swap2\n      pop\n      pop\n      jump\t// out\n        /* \"#utility.yul\":7757:7926   */\n    tag_188:\n        /* \"#utility.yul\":7841:7852   */\n      0x00\n        /* \"#utility.yul\":7875:7881   */\n      dup3\n        /* \"#utility.yul\":7870:7873   */\n      dup3\n        /* \"#utility.yul\":7863:7882   */\n      mstore\n        /* \"#utility.yul\":7915:7919   */\n      0x20\n        /* \"#utility.yul\":7910:7913   */\n      dup3\n        /* \"#utility.yul\":7906:7920   */\n      add\n        /* \"#utility.yul\":7891:7920   */\n      swap1\n      pop\n        /* \"#utility.yul\":7757:7926   */\n      swap3\n      swap2\n      pop\n      pop\n      jump\t// out\n        /* \"#utility.yul\":7932:8237   */\n    tag_94:\n        /* \"#utility.yul\":7972:7975   */\n      0x00\n        /* \"#utility.yul\":7991:8011   */\n      tag_228\n        /* \"#utility.yul\":8009:8010   */\n      dup3\n        /* \"#utility.yul\":7991:8011   */\n      tag_200\n      jump\t// in\n    tag_228:\n        /* \"#utility.yul\":7986:8011   */\n      swap2\n      pop\n        /* \"#utility.yul\":8025:8045   */\n      tag_229\n        /* \"#utility.yul\":8043:8044   */\n      dup4\n        /* \"#utility.yul\":8025:8045   */\n      tag_200\n      jump\t// in\n    tag_229:\n        /* \"#utility.yul\":8020:8045   */\n      swap3\n      pop\n        /* \"#utility.yul\":8179:8180   */\n      dup3\n        /* \"#utility.yul\":8111:8177   */\n      0xffffffffffffffffffffffffffffffffffffffffffffffffffffffffffffffff\n        /* \"#utility.yul\":8107:8181   */\n      sub\n        /* \"#utility.yul\":8104:8105   */\n      dup3\n        /* \"#utility.yul\":8101:8182   */\n      gt\n        /* \"#utility.yul\":8098:8205   */\n      iszero\n      tag_230\n      jumpi\n        /* \"#utility.yul\":8185:8203   */\n      tag_231\n      tag_232\n      jump\t// in\n    tag_231:\n        /* \"#utility.yul\":8098:8205   */\n    tag_230:\n        /* \"#utility.yul\":8229:8230   */\n      dup3\n        /* \"#utility.yul\":8226:8227   */\n      dup3\n        /* \"#utility.yul\":8222:8231   */\n      add\n        /* \"#utility.yul\":8215:8231   */\n      swap1\n      pop\n        /* \"#utility.yul\":7932:8237   */\n      swap3\n      swap2\n      pop\n      pop\n      jump\t// out\n        /* \"#utility.yul\":8243:8339   */\n    tag_163:\n        /* \"#utility.yul\":8280:8287   */\n      0x00\n        /* \"#utility.yul\":8309:8333   */\n      tag_234\n        /* \"#utility.yul\":8327:8332   */\n      dup3\n        /* \"#utility.yul\":8309:8333   */\n      tag_235\n      jump\t// in\n    tag_234:\n        /* \"#utility.yul\":8298:8333   */\n      swap1\n      pop\n        /* \"#utility.yul\":8243:8339   */\n      swap2\n      swap1\n      pop\n      jump\t// out\n        /* \"#utility.yul\":8345:8435   */\n    tag_170:\n        /* \"#utility.yul\":8379:8386   */\n      0x00\n        /* \"#utility.yul\":8422:8427   */\n      dup2\n        /* \"#utility.yul\":8415:8428   */\n      iszero\n        /* \"#utility.yul\":8408:8429   */\n      iszero\n        /* \"#utility.yul\":8397:8429   */\n      swap1\n      pop\n        /* \"#utility.yul\":8345:8435   */\n      swap2\n      swap1\n      pop\n      jump\t// out\n        /* \"#utility.yul\":8441:8567   */\n    tag_235:\n        /* \"#utility.yul\":8478:8485   */\n      0x00\n        /* \"#utility.yul\":8518:8560   */\n      0xffffffffffffffffffffffffffffffffffffffff\n        /* \"#utility.yul\":8511:8516   */\n      dup3\n        /* \"#utility.yul\":8507:8561   */\n      and\n        /* \"#utility.yul\":8496:8561   */\n      swap1\n      pop\n        /* \"#utility.yul\":8441:8567   */\n      swap2\n      swap1\n      pop\n      jump\t// out\n        /* \"#utility.yul\":8573:8650   */\n    tag_200:\n        /* \"#utility.yul\":8610:8617   */\n      0x00\n        /* \"#utility.yul\":8639:8644   */\n      dup2\n        /* \"#utility.yul\":8628:8644   */\n      swap1\n      pop\n        /* \"#utility.yul\":8573:8650   */\n      swap2\n      swap1\n      pop\n      jump\t// out\n        /* \"#utility.yul\":8656:8810   */\n    tag_117:\n        /* \"#utility.yul\":8740:8746   */\n      dup3\n        /* \"#utility.yul\":8735:8738   */\n      dup2\n        /* \"#utility.yul\":8730:8733   */\n      dup4\n        /* \"#utility.yul\":8717:8747   */\n      calldatacopy\n        /* \"#utility.yul\":8802:8803   */\n      0x00\n        /* \"#utility.yul\":8793:8799   */\n      dup4\n        /* \"#utility.yul\":8788:8791   */\n      dup4\n        /* \"#utility.yul\":8784:8800   */\n      add\n        /* \"#utility.yul\":8777:8804   */\n      mstore\n        /* \"#utility.yul\":8656:8810   */\n      pop\n      pop\n      pop\n      jump\t// out\n        /* \"#utility.yul\":8816:9123   */\n    tag_181:\n        /* \"#utility.yul\":8884:8885   */\n      0x00\n        /* \"#utility.yul\":8894:9007   */\n    tag_241:\n        /* \"#utility.yul\":8908:8914   */\n      dup4\n        /* \"#utility.yul\":8905:8906   */\n      dup2\n        /* \"#utility.yul\":8902:8915   */\n      lt\n        /* \"#utility.yul\":8894:9007   */\n      iszero\n      tag_243\n      jumpi\n        /* \"#utility.yul\":8993:8994   */\n      dup1\n        /* \"#utility.yul\":8988:8991   */\n      dup3\n        /* \"#utility.yul\":8984:8995   */\n      add\n        /* \"#utility.yul\":8978:8996   */\n      mload\n        /* \"#utility.yul\":8974:8975   */\n      dup2\n        /* \"#utility.yul\":8969:8972   */\n      dup5\n        /* \"#utility.yul\":8965:8976   */\n      add\n        /* \"#utility.yul\":8958:8997   */\n      mstore\n        /* \"#utility.yul\":8930:8932   */\n      0x20\n        /* \"#utility.yul\":8927:8928   */\n      dup2\n        /* \"#utility.yul\":8923:8933   */\n      add\n        /* \"#utility.yul\":8918:8933   */\n      swap1\n      pop\n        /* \"#utility.yul\":8894:9007   */\n      jump(tag_241)\n    tag_243:\n        /* \"#utility.yul\":9025:9031   */\n      dup4\n        /* \"#utility.yul\":9022:9023   */\n      dup2\n        /* \"#utility.yul\":9019:9032   */\n      gt\n        /* \"#utility.yul\":9016:9117   */\n      iszero\n      tag_244\n      jumpi\n        /* \"#utility.yul\":9105:9106   */\n      0x00\n        /* \"#utility.yul\":9096:9102   */\n      dup5\n        /* \"#utility.yul\":9091:9094   */\n      dup5\n        /* \"#utility.yul\":9087:9103   */\n      add\n        /* \"#utility.yul\":9080:9107   */\n      mstore\n        /* \"#utility.yul\":9016:9117   */\n    tag_244:\n        /* \"#utility.yul\":8865:9123   */\n      pop\n        /* \"#utility.yul\":8816:9123   */\n      pop\n      pop\n      pop\n      jump\t// out\n        /* \"#utility.yul\":9129:9449   */\n    tag_60:\n        /* \"#utility.yul\":9173:9179   */\n      0x00\n        /* \"#utility.yul\":9210:9211   */\n      0x02\n        /* \"#utility.yul\":9204:9208   */\n      dup3\n        /* \"#utility.yul\":9200:9212   */\n      div\n        /* \"#utility.yul\":9190:9212   */\n      swap1\n      pop\n        /* \"#utility.yul\":9257:9258   */\n      0x01\n        /* \"#utility.yul\":9251:9255   */\n      dup3\n        /* \"#utility.yul\":9247:9259   */\n      and\n        /* \"#utility.yul\":9278:9296   */\n      dup1\n        /* \"#utility.yul\":9268:9349   */\n      tag_246\n      jumpi\n        /* \"#utility.yul\":9334:9338   */\n      0x7f\n        /* \"#utility.yul\":9326:9332   */\n      dup3\n        /* \"#utility.yul\":9322:9339   */\n      and\n        /* \"#utility.yul\":9312:9339   */\n      swap2\n      pop\n        /* \"#utility.yul\":9268:9349   */\n    tag_246:\n        /* \"#utility.yul\":9396:9398   */\n      0x20\n        /* \"#utility.yul\":9388:9394   */\n      dup3\n        /* \"#utility.yul\":9385:9399   */\n      lt\n        /* \"#utility.yul\":9365:9383   */\n      dup2\n        /* \"#utility.yul\":9362:9400   */\n      eq\n        /* \"#utility.yul\":9359:9443   */\n      iszero\n      tag_247\n      jumpi\n        /* \"#utility.yul\":9415:9433   */\n      tag_248\n      tag_249\n      jump\t// in\n    tag_248:\n        /* \"#utility.yul\":9359:9443   */\n    tag_247:\n        /* \"#utility.yul\":9180:9449   */\n      pop\n        /* \"#utility.yul\":9129:9449   */\n      swap2\n      swap1\n      pop\n      jump\t// out\n        /* \"#utility.yul\":9455:9736   */\n    tag_217:\n        /* \"#utility.yul\":9538:9565   */\n      tag_251\n        /* \"#utility.yul\":9560:9564   */\n      dup3\n        /* \"#utility.yul\":9538:9565   */\n      tag_183\n      jump\t// in\n    tag_251:\n        /* \"#utility.yul\":9530:9536   */\n      dup2\n        /* \"#utility.yul\":9526:9566   */\n      add\n        /* \"#utility.yul\":9668:9674   */\n      dup2\n        /* \"#utility.yul\":9656:9666   */\n      dup2\n        /* \"#utility.yul\":9653:9675   */\n      lt\n        /* \"#utility.yul\":9632:9650   */\n      0xffffffffffffffff\n        /* \"#utility.yul\":9620:9630   */\n      dup3\n        /* \"#utility.yul\":9617:9651   */\n      gt\n        /* \"#utility.yul\":9614:9676   */\n      or\n        /* \"#utility.yul\":9611:9699   */\n      iszero\n      tag_252\n      jumpi\n        /* \"#utility.yul\":9679:9697   */\n      tag_253\n      tag_222\n      jump\t// in\n    tag_253:\n        /* \"#utility.yul\":9611:9699   */\n    tag_252:\n        /* \"#utility.yul\":9719:9729   */\n      dup1\n        /* \"#utility.yul\":9715:9717   */\n      0x40\n        /* \"#utility.yul\":9708:9730   */\n      mstore\n        /* \"#utility.yul\":9498:9736   */\n      pop\n        /* \"#utility.yul\":9455:9736   */\n      pop\n      pop\n      jump\t// out\n        /* \"#utility.yul\":9742:9975   */\n    tag_81:\n        /* \"#utility.yul\":9781:9784   */\n      0x00\n        /* \"#utility.yul\":9804:9828   */\n      tag_255\n        /* \"#utility.yul\":9822:9827   */\n      dup3\n        /* \"#utility.yul\":9804:9828   */\n      tag_200\n      jump\t// in\n    tag_255:\n        /* \"#utility.yul\":9795:9828   */\n      swap2\n      pop\n        /* \"#utility.yul\":9850:9916   */\n      0xffffffffffffffffffffffffffffffffffffffffffffffffffffffffffffffff\n        /* \"#utility.yul\":9843:9848   */\n      dup3\n        /* \"#utility.yul\":9840:9917   */\n      eq\n        /* \"#utility.yul\":9837:9940   */\n      iszero\n      tag_256\n      jumpi\n        /* \"#utility.yul\":9920:9938   */\n      tag_257\n      tag_232\n      jump\t// in\n    tag_257:\n        /* \"#utility.yul\":9837:9940   */\n    tag_256:\n        /* \"#utility.yul\":9967:9968   */\n      0x01\n        /* \"#utility.yul\":9960:9965   */\n      dup3\n        /* \"#utility.yul\":9956:9969   */\n      add\n        /* \"#utility.yul\":9949:9969   */\n      swap1\n      pop\n        /* \"#utility.yul\":9742:9975   */\n      swap2\n      swap1\n      pop\n      jump\t// out\n        /* \"#utility.yul\":9981:10161   */\n    tag_232:\n        /* \"#utility.yul\":10029:10106   */\n      0x4e487b7100000000000000000000000000000000000000000000000000000000\n        /* \"#utility.yul\":10026:10027   */\n      0x00\n        /* \"#utility.yul\":10019:10107   */\n      mstore\n        /* \"#utility.yul\":10126:10130   */\n      0x11\n        /* \"#utility.yul\":10123:10124   */\n      0x04\n        /* \"#utility.yul\":10116:10131   */\n      mstore\n        /* \"#utility.yul\":10150:10154   */\n      0x24\n        /* \"#utility.yul\":10147:10148   */\n      0x00\n        /* \"#utility.yul\":10140:10155   */\n      revert\n        /* \"#utility.yul\":10167:10347   */\n    tag_249:\n        /* \"#utility.yul\":10215:10292   */\n      0x4e487b7100000000000000000000000000000000000000000000000000000000\n        /* \"#utility.yul\":10212:10213   */\n      0x00\n        /* \"#utility.yul\":10205:10293   */\n      mstore\n        /* \"#utility.yul\":10312:10316   */\n      0x22\n        /* \"#utility.yul\":10309:10310   */\n      0x04\n        /* \"#utility.yul\":10302:10317   */\n      mstore\n        /* \"#utility.yul\":10336:10340   */\n      0x24\n        /* \"#utility.yul\":10333:10334   */\n      0x00\n        /* \"#utility.yul\":10326:10341   */\n      revert\n        /* \"#utility.yul\":10353:10533   */\n    tag_74:\n        /* \"#utility.yul\":10401:10478   */\n      0x4e487b7100000000000000000000000000000000000000000000000000000000\n        /* \"#utility.yul\":10398:10399   */\n      0x00\n        /* \"#utility.yul\":10391:10479   */\n      mstore\n        /* \"#utility.yul\":10498:10502   */\n      0x32\n        /* \"#utility.yul\":10495:10496   */\n      0x04\n        /* \"#utility.yul\":10488:10503   */\n      mstore\n        /* \"#utility.yul\":10522:10526   */\n      0x24\n        /* \"#utility.yul\":10519:10520   */\n      0x00\n        /* \"#utility.yul\":10512:10527   */\n      revert\n        /* \"#utility.yul\":10539:10719   */\n    tag_222:\n        /* \"#utility.yul\":10587:10664   */\n      0x4e487b7100000000000000000000000000000000000000000000000000000000\n        /* \"#utility.yul\":10584:10585   */\n      0x00\n        /* \"#utility.yul\":10577:10665   */\n      mstore\n        /* \"#utility.yul\":10684:10688   */\n      0x41\n        /* \"#utility.yul\":10681:10682   */\n      0x04\n        /* \"#utility.yul\":10674:10689   */\n      mstore\n        /* \"#utility.yul\":10708:10712   */\n      0x24\n        /* \"#utility.yul\":10705:10706   */\n      0x00\n        /* \"#utility.yul\":10698:10713   */\n      revert\n        /* \"#utility.yul\":10725:10842   */\n    tag_130:\n        /* \"#utility.yul\":10834:10835   */\n      0x00\n        /* \"#utility.yul\":10831:10832   */\n      dup1\n        /* \"#utility.yul\":10824:10836   */\n      revert\n        /* \"#utility.yul\":10848:10965   */\n    tag_115:\n        /* \"#utility.yul\":10957:10958   */\n      0x00\n        /* \"#utility.yul\":10954:10955   */\n      dup1\n        /* \"#utility.yul\":10947:10959   */\n      revert\n        /* \"#utility.yul\":10971:11088   */\n    tag_147:\n        /* \"#utility.yul\":11080:11081   */\n      0x00\n        /* \"#utility.yul\":11077:11078   */\n      dup1\n        /* \"#utility.yul\":11070:11082   */\n      revert\n        /* \"#utility.yul\":11094:11211   */\n    tag_139:\n        /* \"#utility.yul\":11203:11204   */\n      0x00\n        /* \"#utility.yul\":11200:11201   */\n      dup1\n        /* \"#utility.yul\":11193:11205   */\n      revert\n        /* \"#utility.yul\":11217:11319   */\n    tag_183:\n        /* \"#utility.yul\":11258:11264   */\n      0x00\n        /* \"#utility.yul\":11309:11311   */\n      0x1f\n        /* \"#utility.yul\":11305:11312   */\n      not\n        /* \"#utility.yul\":11300:11302   */\n      0x1f\n        /* \"#utility.yul\":11293:11298   */\n      dup4\n        /* \"#utility.yul\":11289:11303   */\n      add\n        /* \"#utility.yul\":11285:11313   */\n      and\n        /* \"#utility.yul\":11275:11313   */\n      swap1\n      pop\n        /* \"#utility.yul\":11217:11319   */\n      swap2\n      swap1\n      pop\n      jump\t// out\n        /* \"#utility.yul\":11325:11447   */\n    tag_121:\n        /* \"#utility.yul\":11398:11422   */\n      tag_268\n        /* \"#utility.yul\":11416:11421   */\n      dup2\n        /* \"#utility.yul\":11398:11422   */\n      tag_163\n      jump\t// in\n    tag_268:\n        /* \"#utility.yul\":11391:11396   */\n      dup2\n        /* \"#utility.yul\":11388:11423   */\n      eq\n        /* \"#utility.yul\":11378:11441   */\n      tag_269\n      jumpi\n        /* \"#utility.yul\":11437:11438   */\n      0x00\n        /* \"#utility.yul\":11434:11435   */\n      dup1\n        /* \"#utility.yul\":11427:11439   */\n      revert\n        /* \"#utility.yul\":11378:11441   */\n    tag_269:\n        /* \"#utility.yul\":11325:11447   */\n      pop\n      jump\t// out\n        /* \"#utility.yul\":11453:11569   */\n    tag_125:\n        /* \"#utility.yul\":11523:11544   */\n      tag_271\n        /* \"#utility.yul\":11538:11543   */\n      dup2\n        /* \"#utility.yul\":11523:11544   */\n      tag_170\n      jump\t// in\n    tag_271:\n        /* \"#utility.yul\":11516:11521   */\n      dup2\n        /* \"#utility.yul\":11513:11545   */\n      eq\n        /* \"#utility.yul\":11503:11563   */\n      tag_272\n      jumpi\n        /* \"#utility.yul\":11559:11560   */\n      0x00\n        /* \"#utility.yul\":11556:11557   */\n      dup1\n        /* \"#utility.yul\":11549:11561   */\n      revert\n        /* \"#utility.yul\":11503:11563   */\n    tag_272:\n        /* \"#utility.yul\":11453:11569   */\n      pop\n      jump\t// out\n        /* \"#utility.yul\":11575:11697   */\n    tag_135:\n        /* \"#utility.yul\":11648:11672   */\n      tag_274\n        /* \"#utility.yul\":11666:11671   */\n      dup2\n        /* \"#utility.yul\":11648:11672   */\n      tag_200\n      jump\t// in\n    tag_274:\n        /* \"#utility.yul\":11641:11646   */\n      dup2\n        /* \"#utility.yul\":11638:11673   */\n      eq\n        /* \"#utility.yul\":11628:11691   */\n      tag_275\n      jumpi\n        /* \"#utility.yul\":11687:11688   */\n      0x00\n        /* \"#utility.yul\":11684:11685   */\n      dup1\n        /* \"#utility.yul\":11677:11689   */\n      revert\n        /* \"#utility.yul\":11628:11691   */\n    tag_275:\n        /* \"#utility.yul\":11575:11697   */\n      pop\n      jump\t// out\n\n    auxdata: 0xa2646970667358221220b1dac267a162ed662fcd321e89b81d7840d32254132af91d8eff66880c8184be64736f6c63430008070033\n}\n",
				"bytecode": {
					"linkReferences": {},
					"object": "608060405234801561001057600080fd5b50336000806101000a81548173ffffffffffffffffffffffffffffffffffffffff021916908373ffffffffffffffffffffffffffffffffffffffff160217905550610dd6806100606000396000f3fe6080604052600436106100705760003560e01c8063365b98b21161004e578063365b98b2146100e357806369c212f6146101235780636f7bc9be1461016057806370a082311461019d57610070565b80630b1019f0146100755780631a6952301461009e578063280879e7146100ba575b600080fd5b34801561008157600080fd5b5061009c60048036038101906100979190610846565b6101da565b005b6100b860048036038101906100b39190610796565b61022c565b005b3480156100c657600080fd5b506100e160048036038101906100dc91906107c3565b610238565b005b3480156100ef57600080fd5b5061010a60048036038101906101059190610886565b610332565b60405161011a94939291906109e2565b60405180910390f35b34801561012f57600080fd5b5061014a60048036038101906101459190610796565b610427565b6040516101579190610a2e565b60405180910390f35b34801561016c57600080fd5b5061018760048036038101906101829190610796565b610434565b6040516101949190610a50565b60405180910390f35b3480156101a957600080fd5b506101c460048036038101906101bf9190610796565b61044c565b6040516101d19190610a50565b60405180910390f35b80600260008473ffffffffffffffffffffffffffffffffffffffff1673ffffffffffffffffffffffffffffffffffffffff1681526020019081526020016000208190555061022782610427565b505050565b61023581610527565b50565b600160405180608001604052808673ffffffffffffffffffffffffffffffffffffffff168152602001858152602001848152602001831515815250908060018154018082558091505060019003906000526020600020906004020160009091909190915060008201518160000160006101000a81548173ffffffffffffffffffffffffffffffffffffffff021916908373ffffffffffffffffffffffffffffffffffffffff16021790555060208201518160010190805190602001906102ff929190610604565b506040820151816002015560608201518160030160006101000a81548160ff021916908315150217905550505050505050565b6001818154811061034257600080fd5b90600052602060002090600402016000915090508060000160009054906101000a900473ffffffffffffffffffffffffffffffffffffffff169080600101805461038b90610bce565b80601f01602080910402602001604051908101604052809291908181526020018280546103b790610bce565b80156104045780601f106103d957610100808354040283529160200191610404565b820191906000526020600020905b8154815290600101906020018083116103e757829003601f168201915b5050505050908060020154908060030160009054906101000a900460ff16905084565b61042f61068a565b919050565b60026020528060005260406000206000915090505481565b600080600090505b60018054905081101561051b578273ffffffffffffffffffffffffffffffffffffffff166001828154811061048c5761048b610cd8565b5b906000526020600020906004020160000160009054906101000a900473ffffffffffffffffffffffffffffffffffffffff1673ffffffffffffffffffffffffffffffffffffffff16141561050857600181815481106104ee576104ed610cd8565b5b906000526020600020906004020160020154915050610522565b808061051390610c31565b915050610454565b506103e790505b919050565b60005b600180549050811015610600578173ffffffffffffffffffffffffffffffffffffffff166001828154811061056257610561610cd8565b5b906000526020600020906004020160000160009054906101000a900473ffffffffffffffffffffffffffffffffffffffff1673ffffffffffffffffffffffffffffffffffffffff1614156105ed5734600182815481106105c5576105c4610cd8565b5b906000526020600020906004020160020160008282546105e59190610aee565b925050819055505b80806105f890610c31565b91505061052a565b5050565b82805461061090610bce565b90600052602060002090601f0160209004810192826106325760008555610679565b82601f1061064b57805160ff1916838001178555610679565b82800160010185558215610679579182015b8281111561067857825182559160200191906001019061065d565b5b50905061068691906106ca565b5090565b6040518060800160405280600073ffffffffffffffffffffffffffffffffffffffff16815260200160608152602001600081526020016000151581525090565b5b808211156106e35760008160009055506001016106cb565b5090565b60006106fa6106f584610a90565b610a6b565b90508281526020810184848401111561071657610715610d3b565b5b610721848285610b8c565b509392505050565b60008135905061073881610d5b565b92915050565b60008135905061074d81610d72565b92915050565b600082601f83011261076857610767610d36565b5b81356107788482602086016106e7565b91505092915050565b60008135905061079081610d89565b92915050565b6000602082840312156107ac576107ab610d45565b5b60006107ba84828501610729565b91505092915050565b600080600080608085870312156107dd576107dc610d45565b5b60006107eb87828801610729565b945050602085013567ffffffffffffffff81111561080c5761080b610d40565b5b61081887828801610753565b935050604061082987828801610781565b925050606061083a8782880161073e565b91505092959194509250565b6000806040838503121561085d5761085c610d45565b5b600061086b85828601610729565b925050602061087c85828601610781565b9150509250929050565b60006020828403121561089c5761089b610d45565b5b60006108aa84828501610781565b91505092915050565b6108bc81610b44565b82525050565b6108cb81610b44565b82525050565b6108da81610b56565b82525050565b6108e981610b56565b82525050565b60006108fa82610ac1565b6109048185610acc565b9350610914818560208601610b9b565b61091d81610d4a565b840191505092915050565b600061093382610ac1565b61093d8185610add565b935061094d818560208601610b9b565b61095681610d4a565b840191505092915050565b600060808301600083015161097960008601826108b3565b506020830151848203602086015261099182826108ef565b91505060408301516109a660408601826109c4565b5060608301516109b960608601826108d1565b508091505092915050565b6109cd81610b82565b82525050565b6109dc81610b82565b82525050565b60006080820190506109f760008301876108c2565b8181036020830152610a098186610928565b9050610a1860408301856109d3565b610a2560608301846108e0565b95945050505050565b60006020820190508181036000830152610a488184610961565b905092915050565b6000602082019050610a6560008301846109d3565b92915050565b6000610a75610a86565b9050610a818282610c00565b919050565b6000604051905090565b600067ffffffffffffffff821115610aab57610aaa610d07565b5b610ab482610d4a565b9050602081019050919050565b600081519050919050565b600082825260208201905092915050565b600082825260208201905092915050565b6000610af982610b82565b9150610b0483610b82565b9250827fffffffffffffffffffffffffffffffffffffffffffffffffffffffffffffffff03821115610b3957610b38610c7a565b5b828201905092915050565b6000610b4f82610b62565b9050919050565b60008115159050919050565b600073ffffffffffffffffffffffffffffffffffffffff82169050919050565b6000819050919050565b82818337600083830152505050565b60005b83811015610bb9578082015181840152602081019050610b9e565b83811115610bc8576000848401525b50505050565b60006002820490506001821680610be657607f821691505b60208210811415610bfa57610bf9610ca9565b5b50919050565b610c0982610d4a565b810181811067ffffffffffffffff82111715610c2857610c27610d07565b5b80604052505050565b6000610c3c82610b82565b91507fffffffffffffffffffffffffffffffffffffffffffffffffffffffffffffffff821415610c6f57610c6e610c7a565b5b600182019050919050565b7f4e487b7100000000000000000000000000000000000000000000000000000000600052601160045260246000fd5b7f4e487b7100000000000000000000000000000000000000000000000000000000600052602260045260246000fd5b7f4e487b7100000000000000000000000000000000000000000000000000000000600052603260045260246000fd5b7f4e487b7100000000000000000000000000000000000000000000000000000000600052604160045260246000fd5b600080fd5b600080fd5b600080fd5b600080fd5b6000601f19601f8301169050919050565b610d6481610b44565b8114610d6f57600080fd5b50565b610d7b81610b56565b8114610d8657600080fd5b50565b610d9281610b82565b8114610d9d57600080fd5b5056fea2646970667358221220b1dac267a162ed662fcd321e89b81d7840d32254132af91d8eff66880c8184be64736f6c63430008070033",
					"opcodes": "PUSH1 0x80 PUSH1 0x40 MSTORE CALLVALUE DUP1 ISZERO PUSH2 0x10 JUMPI PUSH1 0x0 DUP1 REVERT JUMPDEST POP CALLER PUSH1 0x0 DUP1 PUSH2 0x100 EXP DUP2 SLOAD DUP2 PUSH20 0xFFFFFFFFFFFFFFFFFFFFFFFFFFFFFFFFFFFFFFFF MUL NOT AND SWAP1 DUP4 PUSH20 0xFFFFFFFFFFFFFFFFFFFFFFFFFFFFFFFFFFFFFFFF AND MUL OR SWAP1 SSTORE POP PUSH2 0xDD6 DUP1 PUSH2 0x60 PUSH1 0x0 CODECOPY PUSH1 0x0 RETURN INVALID PUSH1 0x80 PUSH1 0x40 MSTORE PUSH1 0x4 CALLDATASIZE LT PUSH2 0x70 JUMPI PUSH1 0x0 CALLDATALOAD PUSH1 0xE0 SHR DUP1 PUSH4 0x365B98B2 GT PUSH2 0x4E JUMPI DUP1 PUSH4 0x365B98B2 EQ PUSH2 0xE3 JUMPI DUP1 PUSH4 0x69C212F6 EQ PUSH2 0x123 JUMPI DUP1 PUSH4 0x6F7BC9BE EQ PUSH2 0x160 JUMPI DUP1 PUSH4 0x70A08231 EQ PUSH2 0x19D JUMPI PUSH2 0x70 JUMP JUMPDEST DUP1 PUSH4 0xB1019F0 EQ PUSH2 0x75 JUMPI DUP1 PUSH4 0x1A695230 EQ PUSH2 0x9E JUMPI DUP1 PUSH4 0x280879E7 EQ PUSH2 0xBA JUMPI JUMPDEST PUSH1 0x0 DUP1 REVERT JUMPDEST CALLVALUE DUP1 ISZERO PUSH2 0x81 JUMPI PUSH1 0x0 DUP1 REVERT JUMPDEST POP PUSH2 0x9C PUSH1 0x4 DUP1 CALLDATASIZE SUB DUP2 ADD SWAP1 PUSH2 0x97 SWAP2 SWAP1 PUSH2 0x846 JUMP JUMPDEST PUSH2 0x1DA JUMP JUMPDEST STOP JUMPDEST PUSH2 0xB8 PUSH1 0x4 DUP1 CALLDATASIZE SUB DUP2 ADD SWAP1 PUSH2 0xB3 SWAP2 SWAP1 PUSH2 0x796 JUMP JUMPDEST PUSH2 0x22C JUMP JUMPDEST STOP JUMPDEST CALLVALUE DUP1 ISZERO PUSH2 0xC6 JUMPI PUSH1 0x0 DUP1 REVERT JUMPDEST POP PUSH2 0xE1 PUSH1 0x4 DUP1 CALLDATASIZE SUB DUP2 ADD SWAP1 PUSH2 0xDC SWAP2 SWAP1 PUSH2 0x7C3 JUMP JUMPDEST PUSH2 0x238 JUMP JUMPDEST STOP JUMPDEST CALLVALUE DUP1 ISZERO PUSH2 0xEF JUMPI PUSH1 0x0 DUP1 REVERT JUMPDEST POP PUSH2 0x10A PUSH1 0x4 DUP1 CALLDATASIZE SUB DUP2 ADD SWAP1 PUSH2 0x105 SWAP2 SWAP1 PUSH2 0x886 JUMP JUMPDEST PUSH2 0x332 JUMP JUMPDEST PUSH1 0x40 MLOAD PUSH2 0x11A SWAP5 SWAP4 SWAP3 SWAP2 SWAP1 PUSH2 0x9E2 JUMP JUMPDEST PUSH1 0x40 MLOAD DUP1 SWAP2 SUB SWAP1 RETURN JUMPDEST CALLVALUE DUP1 ISZERO PUSH2 0x12F JUMPI PUSH1 0x0 DUP1 REVERT JUMPDEST POP PUSH2 0x14A PUSH1 0x4 DUP1 CALLDATASIZE SUB DUP2 ADD SWAP1 PUSH2 0x145 SWAP2 SWAP1 PUSH2 0x796 JUMP JUMPDEST PUSH2 0x427 JUMP JUMPDEST PUSH1 0x40 MLOAD PUSH2 0x157 SWAP2 SWAP1 PUSH2 0xA2E JUMP JUMPDEST PUSH1 0x40 MLOAD DUP1 SWAP2 SUB SWAP1 RETURN JUMPDEST CALLVALUE DUP1 ISZERO PUSH2 0x16C JUMPI PUSH1 0x0 DUP1 REVERT JUMPDEST POP PUSH2 0x187 PUSH1 0x4 DUP1 CALLDATASIZE SUB DUP2 ADD SWAP1 PUSH2 0x182 SWAP2 SWAP1 PUSH2 0x796 JUMP JUMPDEST PUSH2 0x434 JUMP JUMPDEST PUSH1 0x40 MLOAD PUSH2 0x194 SWAP2 SWAP1 PUSH2 0xA50 JUMP JUMPDEST PUSH1 0x40 MLOAD DUP1 SWAP2 SUB SWAP1 RETURN JUMPDEST CALLVALUE DUP1 ISZERO PUSH2 0x1A9 JUMPI PUSH1 0x0 DUP1 REVERT JUMPDEST POP PUSH2 0x1C4 PUSH1 0x4 DUP1 CALLDATASIZE SUB DUP2 ADD SWAP1 PUSH2 0x1BF SWAP2 SWAP1 PUSH2 0x796 JUMP JUMPDEST PUSH2 0x44C JUMP JUMPDEST PUSH1 0x40 MLOAD PUSH2 0x1D1 SWAP2 SWAP1 PUSH2 0xA50 JUMP JUMPDEST PUSH1 0x40 MLOAD DUP1 SWAP2 SUB SWAP1 RETURN JUMPDEST DUP1 PUSH1 0x2 PUSH1 0x0 DUP5 PUSH20 0xFFFFFFFFFFFFFFFFFFFFFFFFFFFFFFFFFFFFFFFF AND PUSH20 0xFFFFFFFFFFFFFFFFFFFFFFFFFFFFFFFFFFFFFFFF AND DUP2 MSTORE PUSH1 0x20 ADD SWAP1 DUP2 MSTORE PUSH1 0x20 ADD PUSH1 0x0 KECCAK256 DUP2 SWAP1 SSTORE POP PUSH2 0x227 DUP3 PUSH2 0x427 JUMP JUMPDEST POP POP POP JUMP JUMPDEST PUSH2 0x235 DUP2 PUSH2 0x527 JUMP JUMPDEST POP JUMP JUMPDEST PUSH1 0x1 PUSH1 0x40 MLOAD DUP1 PUSH1 0x80 ADD PUSH1 0x40 MSTORE DUP1 DUP7 PUSH20 0xFFFFFFFFFFFFFFFFFFFFFFFFFFFFFFFFFFFFFFFF AND DUP2 MSTORE PUSH1 0x20 ADD DUP6 DUP2 MSTORE PUSH1 0x20 ADD DUP5 DUP2 MSTORE PUSH1 0x20 ADD DUP4 ISZERO ISZERO DUP2 MSTORE POP SWAP1 DUP1 PUSH1 0x1 DUP2 SLOAD ADD DUP1 DUP3 SSTORE DUP1 SWAP2 POP POP PUSH1 0x1 SWAP1 SUB SWAP1 PUSH1 0x0 MSTORE PUSH1 0x20 PUSH1 0x0 KECCAK256 SWAP1 PUSH1 0x4 MUL ADD PUSH1 0x0 SWAP1 SWAP2 SWAP1 SWAP2 SWAP1 SWAP2 POP PUSH1 0x0 DUP3 ADD MLOAD DUP2 PUSH1 0x0 ADD PUSH1 0x0 PUSH2 0x100 EXP DUP2 SLOAD DUP2 PUSH20 0xFFFFFFFFFFFFFFFFFFFFFFFFFFFFFFFFFFFFFFFF MUL NOT AND SWAP1 DUP4 PUSH20 0xFFFFFFFFFFFFFFFFFFFFFFFFFFFFFFFFFFFFFFFF AND MUL OR SWAP1 SSTORE POP PUSH1 0x20 DUP3 ADD MLOAD DUP2 PUSH1 0x1 ADD SWAP1 DUP1 MLOAD SWAP1 PUSH1 0x20 ADD SWAP1 PUSH2 0x2FF SWAP3 SWAP2 SWAP1 PUSH2 0x604 JUMP JUMPDEST POP PUSH1 0x40 DUP3 ADD MLOAD DUP2 PUSH1 0x2 ADD SSTORE PUSH1 0x60 DUP3 ADD MLOAD DUP2 PUSH1 0x3 ADD PUSH1 0x0 PUSH2 0x100 EXP DUP2 SLOAD DUP2 PUSH1 0xFF MUL NOT AND SWAP1 DUP4 ISZERO ISZERO MUL OR SWAP1 SSTORE POP POP POP POP POP POP POP JUMP JUMPDEST PUSH1 0x1 DUP2 DUP2 SLOAD DUP2 LT PUSH2 0x342 JUMPI PUSH1 0x0 DUP1 REVERT JUMPDEST SWAP1 PUSH1 0x0 MSTORE PUSH1 0x20 PUSH1 0x0 KECCAK256 SWAP1 PUSH1 0x4 MUL ADD PUSH1 0x0 SWAP2 POP SWAP1 POP DUP1 PUSH1 0x0 ADD PUSH1 0x0 SWAP1 SLOAD SWAP1 PUSH2 0x100 EXP SWAP1 DIV PUSH20 0xFFFFFFFFFFFFFFFFFFFFFFFFFFFFFFFFFFFFFFFF AND SWAP1 DUP1 PUSH1 0x1 ADD DUP1 SLOAD PUSH2 0x38B SWAP1 PUSH2 0xBCE JUMP JUMPDEST DUP1 PUSH1 0x1F ADD PUSH1 0x20 DUP1 SWAP2 DIV MUL PUSH1 0x20 ADD PUSH1 0x40 MLOAD SWAP1 DUP2 ADD PUSH1 0x40 MSTORE DUP1 SWAP3 SWAP2 SWAP1 DUP2 DUP2 MSTORE PUSH1 0x20 ADD DUP3 DUP1 SLOAD PUSH2 0x3B7 SWAP1 PUSH2 0xBCE JUMP JUMPDEST DUP1 ISZERO PUSH2 0x404 JUMPI DUP1 PUSH1 0x1F LT PUSH2 0x3D9 JUMPI PUSH2 0x100 DUP1 DUP4 SLOAD DIV MUL DUP4 MSTORE SWAP2 PUSH1 0x20 ADD SWAP2 PUSH2 0x404 JUMP JUMPDEST DUP3 ADD SWAP2 SWAP1 PUSH1 0x0 MSTORE PUSH1 0x20 PUSH1 0x0 KECCAK256 SWAP1 JUMPDEST DUP2 SLOAD DUP2 MSTORE SWAP1 PUSH1 0x1 ADD SWAP1 PUSH1 0x20 ADD DUP1 DUP4 GT PUSH2 0x3E7 JUMPI DUP3 SWAP1 SUB PUSH1 0x1F AND DUP3 ADD SWAP2 JUMPDEST POP POP POP POP POP SWAP1 DUP1 PUSH1 0x2 ADD SLOAD SWAP1 DUP1 PUSH1 0x3 ADD PUSH1 0x0 SWAP1 SLOAD SWAP1 PUSH2 0x100 EXP SWAP1 DIV PUSH1 0xFF AND SWAP1 POP DUP5 JUMP JUMPDEST PUSH2 0x42F PUSH2 0x68A JUMP JUMPDEST SWAP2 SWAP1 POP JUMP JUMPDEST PUSH1 0x2 PUSH1 0x20 MSTORE DUP1 PUSH1 0x0 MSTORE PUSH1 0x40 PUSH1 0x0 KECCAK256 PUSH1 0x0 SWAP2 POP SWAP1 POP SLOAD DUP2 JUMP JUMPDEST PUSH1 0x0 DUP1 PUSH1 0x0 SWAP1 POP JUMPDEST PUSH1 0x1 DUP1 SLOAD SWAP1 POP DUP2 LT ISZERO PUSH2 0x51B JUMPI DUP3 PUSH20 0xFFFFFFFFFFFFFFFFFFFFFFFFFFFFFFFFFFFFFFFF AND PUSH1 0x1 DUP3 DUP2 SLOAD DUP2 LT PUSH2 0x48C JUMPI PUSH2 0x48B PUSH2 0xCD8 JUMP JUMPDEST JUMPDEST SWAP1 PUSH1 0x0 MSTORE PUSH1 0x20 PUSH1 0x0 KECCAK256 SWAP1 PUSH1 0x4 MUL ADD PUSH1 0x0 ADD PUSH1 0x0 SWAP1 SLOAD SWAP1 PUSH2 0x100 EXP SWAP1 DIV PUSH20 0xFFFFFFFFFFFFFFFFFFFFFFFFFFFFFFFFFFFFFFFF AND PUSH20 0xFFFFFFFFFFFFFFFFFFFFFFFFFFFFFFFFFFFFFFFF AND EQ ISZERO PUSH2 0x508 JUMPI PUSH1 0x1 DUP2 DUP2 SLOAD DUP2 LT PUSH2 0x4EE JUMPI PUSH2 0x4ED PUSH2 0xCD8 JUMP JUMPDEST JUMPDEST SWAP1 PUSH1 0x0 MSTORE PUSH1 0x20 PUSH1 0x0 KECCAK256 SWAP1 PUSH1 0x4 MUL ADD PUSH1 0x2 ADD SLOAD SWAP2 POP POP PUSH2 0x522 JUMP JUMPDEST DUP1 DUP1 PUSH2 0x513 SWAP1 PUSH2 0xC31 JUMP JUMPDEST SWAP2 POP POP PUSH2 0x454 JUMP JUMPDEST POP PUSH2 0x3E7 SWAP1 POP JUMPDEST SWAP2 SWAP1 POP JUMP JUMPDEST PUSH1 0x0 JUMPDEST PUSH1 0x1 DUP1 SLOAD SWAP1 POP DUP2 LT ISZERO PUSH2 0x600 JUMPI DUP2 PUSH20 0xFFFFFFFFFFFFFFFFFFFFFFFFFFFFFFFFFFFFFFFF AND PUSH1 0x1 DUP3 DUP2 SLOAD DUP2 LT PUSH2 0x562 JUMPI PUSH2 0x561 PUSH2 0xCD8 JUMP JUMPDEST JUMPDEST SWAP1 PUSH1 0x0 MSTORE PUSH1 0x20 PUSH1 0x0 KECCAK256 SWAP1 PUSH1 0x4 MUL ADD PUSH1 0x0 ADD PUSH1 0x0 SWAP1 SLOAD SWAP1 PUSH2 0x100 EXP SWAP1 DIV PUSH20 0xFFFFFFFFFFFFFFFFFFFFFFFFFFFFFFFFFFFFFFFF AND PUSH20 0xFFFFFFFFFFFFFFFFFFFFFFFFFFFFFFFFFFFFFFFF AND EQ ISZERO PUSH2 0x5ED JUMPI CALLVALUE PUSH1 0x1 DUP3 DUP2 SLOAD DUP2 LT PUSH2 0x5C5 JUMPI PUSH2 0x5C4 PUSH2 0xCD8 JUMP JUMPDEST JUMPDEST SWAP1 PUSH1 0x0 MSTORE PUSH1 0x20 PUSH1 0x0 KECCAK256 SWAP1 PUSH1 0x4 MUL ADD PUSH1 0x2 ADD PUSH1 0x0 DUP3 DUP3 SLOAD PUSH2 0x5E5 SWAP2 SWAP1 PUSH2 0xAEE JUMP JUMPDEST SWAP3 POP POP DUP2 SWAP1 SSTORE POP JUMPDEST DUP1 DUP1 PUSH2 0x5F8 SWAP1 PUSH2 0xC31 JUMP JUMPDEST SWAP2 POP POP PUSH2 0x52A JUMP JUMPDEST POP POP JUMP JUMPDEST DUP3 DUP1 SLOAD PUSH2 0x610 SWAP1 PUSH2 0xBCE JUMP JUMPDEST SWAP1 PUSH1 0x0 MSTORE PUSH1 0x20 PUSH1 0x0 KECCAK256 SWAP1 PUSH1 0x1F ADD PUSH1 0x20 SWAP1 DIV DUP2 ADD SWAP3 DUP3 PUSH2 0x632 JUMPI PUSH1 0x0 DUP6 SSTORE PUSH2 0x679 JUMP JUMPDEST DUP3 PUSH1 0x1F LT PUSH2 0x64B JUMPI DUP1 MLOAD PUSH1 0xFF NOT AND DUP4 DUP1 ADD OR DUP6 SSTORE PUSH2 0x679 JUMP JUMPDEST DUP3 DUP1 ADD PUSH1 0x1 ADD DUP6 SSTORE DUP3 ISZERO PUSH2 0x679 JUMPI SWAP2 DUP3 ADD JUMPDEST DUP3 DUP2 GT ISZERO PUSH2 0x678 JUMPI DUP3 MLOAD DUP3 SSTORE SWAP2 PUSH1 0x20 ADD SWAP2 SWAP1 PUSH1 0x1 ADD SWAP1 PUSH2 0x65D JUMP JUMPDEST JUMPDEST POP SWAP1 POP PUSH2 0x686 SWAP2 SWAP1 PUSH2 0x6CA JUMP JUMPDEST POP SWAP1 JUMP JUMPDEST PUSH1 0x40 MLOAD DUP1 PUSH1 0x80 ADD PUSH1 0x40 MSTORE DUP1 PUSH1 0x0 PUSH20 0xFFFFFFFFFFFFFFFFFFFFFFFFFFFFFFFFFFFFFFFF AND DUP2 MSTORE PUSH1 0x20 ADD PUSH1 0x60 DUP2 MSTORE PUSH1 0x20 ADD PUSH1 0x0 DUP2 MSTORE PUSH1 0x20 ADD PUSH1 0x0 ISZERO ISZERO DUP2 MSTORE POP SWAP1 JUMP JUMPDEST JUMPDEST DUP1 DUP3 GT ISZERO PUSH2 0x6E3 JUMPI PUSH1 0x0 DUP2 PUSH1 0x0 SWAP1 SSTORE POP PUSH1 0x1 ADD PUSH2 0x6CB JUMP JUMPDEST POP SWAP1 JUMP JUMPDEST PUSH1 0x0 PUSH2 0x6FA PUSH2 0x6F5 DUP5 PUSH2 0xA90 JUMP JUMPDEST PUSH2 0xA6B JUMP JUMPDEST SWAP1 POP DUP3 DUP2 MSTORE PUSH1 0x20 DUP2 ADD DUP5 DUP5 DUP5 ADD GT ISZERO PUSH2 0x716 JUMPI PUSH2 0x715 PUSH2 0xD3B JUMP JUMPDEST JUMPDEST PUSH2 0x721 DUP5 DUP3 DUP6 PUSH2 0xB8C JUMP JUMPDEST POP SWAP4 SWAP3 POP POP POP JUMP JUMPDEST PUSH1 0x0 DUP2 CALLDATALOAD SWAP1 POP PUSH2 0x738 DUP2 PUSH2 0xD5B JUMP JUMPDEST SWAP3 SWAP2 POP POP JUMP JUMPDEST PUSH1 0x0 DUP2 CALLDATALOAD SWAP1 POP PUSH2 0x74D DUP2 PUSH2 0xD72 JUMP JUMPDEST SWAP3 SWAP2 POP POP JUMP JUMPDEST PUSH1 0x0 DUP3 PUSH1 0x1F DUP4 ADD SLT PUSH2 0x768 JUMPI PUSH2 0x767 PUSH2 0xD36 JUMP JUMPDEST JUMPDEST DUP2 CALLDATALOAD PUSH2 0x778 DUP5 DUP3 PUSH1 0x20 DUP7 ADD PUSH2 0x6E7 JUMP JUMPDEST SWAP2 POP POP SWAP3 SWAP2 POP POP JUMP JUMPDEST PUSH1 0x0 DUP2 CALLDATALOAD SWAP1 POP PUSH2 0x790 DUP2 PUSH2 0xD89 JUMP JUMPDEST SWAP3 SWAP2 POP POP JUMP JUMPDEST PUSH1 0x0 PUSH1 0x20 DUP3 DUP5 SUB SLT ISZERO PUSH2 0x7AC JUMPI PUSH2 0x7AB PUSH2 0xD45 JUMP JUMPDEST JUMPDEST PUSH1 0x0 PUSH2 0x7BA DUP5 DUP3 DUP6 ADD PUSH2 0x729 JUMP JUMPDEST SWAP2 POP POP SWAP3 SWAP2 POP POP JUMP JUMPDEST PUSH1 0x0 DUP1 PUSH1 0x0 DUP1 PUSH1 0x80 DUP6 DUP8 SUB SLT ISZERO PUSH2 0x7DD JUMPI PUSH2 0x7DC PUSH2 0xD45 JUMP JUMPDEST JUMPDEST PUSH1 0x0 PUSH2 0x7EB DUP8 DUP3 DUP9 ADD PUSH2 0x729 JUMP JUMPDEST SWAP5 POP POP PUSH1 0x20 DUP6 ADD CALLDATALOAD PUSH8 0xFFFFFFFFFFFFFFFF DUP2 GT ISZERO PUSH2 0x80C JUMPI PUSH2 0x80B PUSH2 0xD40 JUMP JUMPDEST JUMPDEST PUSH2 0x818 DUP8 DUP3 DUP9 ADD PUSH2 0x753 JUMP JUMPDEST SWAP4 POP POP PUSH1 0x40 PUSH2 0x829 DUP8 DUP3 DUP9 ADD PUSH2 0x781 JUMP JUMPDEST SWAP3 POP POP PUSH1 0x60 PUSH2 0x83A DUP8 DUP3 DUP9 ADD PUSH2 0x73E JUMP JUMPDEST SWAP2 POP POP SWAP3 SWAP6 SWAP2 SWAP5 POP SWAP3 POP JUMP JUMPDEST PUSH1 0x0 DUP1 PUSH1 0x40 DUP4 DUP6 SUB SLT ISZERO PUSH2 0x85D JUMPI PUSH2 0x85C PUSH2 0xD45 JUMP JUMPDEST JUMPDEST PUSH1 0x0 PUSH2 0x86B DUP6 DUP3 DUP7 ADD PUSH2 0x729 JUMP JUMPDEST SWAP3 POP POP PUSH1 0x20 PUSH2 0x87C DUP6 DUP3 DUP7 ADD PUSH2 0x781 JUMP JUMPDEST SWAP2 POP POP SWAP3 POP SWAP3 SWAP1 POP JUMP JUMPDEST PUSH1 0x0 PUSH1 0x20 DUP3 DUP5 SUB SLT ISZERO PUSH2 0x89C JUMPI PUSH2 0x89B PUSH2 0xD45 JUMP JUMPDEST JUMPDEST PUSH1 0x0 PUSH2 0x8AA DUP5 DUP3 DUP6 ADD PUSH2 0x781 JUMP JUMPDEST SWAP2 POP POP SWAP3 SWAP2 POP POP JUMP JUMPDEST PUSH2 0x8BC DUP2 PUSH2 0xB44 JUMP JUMPDEST DUP3 MSTORE POP POP JUMP JUMPDEST PUSH2 0x8CB DUP2 PUSH2 0xB44 JUMP JUMPDEST DUP3 MSTORE POP POP JUMP JUMPDEST PUSH2 0x8DA DUP2 PUSH2 0xB56 JUMP JUMPDEST DUP3 MSTORE POP POP JUMP JUMPDEST PUSH2 0x8E9 DUP2 PUSH2 0xB56 JUMP JUMPDEST DUP3 MSTORE POP POP JUMP JUMPDEST PUSH1 0x0 PUSH2 0x8FA DUP3 PUSH2 0xAC1 JUMP JUMPDEST PUSH2 0x904 DUP2 DUP6 PUSH2 0xACC JUMP JUMPDEST SWAP4 POP PUSH2 0x914 DUP2 DUP6 PUSH1 0x20 DUP7 ADD PUSH2 0xB9B JUMP JUMPDEST PUSH2 0x91D DUP2 PUSH2 0xD4A JUMP JUMPDEST DUP5 ADD SWAP2 POP POP SWAP3 SWAP2 POP POP JUMP JUMPDEST PUSH1 0x0 PUSH2 0x933 DUP3 PUSH2 0xAC1 JUMP JUMPDEST PUSH2 0x93D DUP2 DUP6 PUSH2 0xADD JUMP JUMPDEST SWAP4 POP PUSH2 0x94D DUP2 DUP6 PUSH1 0x20 DUP7 ADD PUSH2 0xB9B JUMP JUMPDEST PUSH2 0x956 DUP2 PUSH2 0xD4A JUMP JUMPDEST DUP5 ADD SWAP2 POP POP SWAP3 SWAP2 POP POP JUMP JUMPDEST PUSH1 0x0 PUSH1 0x80 DUP4 ADD PUSH1 0x0 DUP4 ADD MLOAD PUSH2 0x979 PUSH1 0x0 DUP7 ADD DUP3 PUSH2 0x8B3 JUMP JUMPDEST POP PUSH1 0x20 DUP4 ADD MLOAD DUP5 DUP3 SUB PUSH1 0x20 DUP7 ADD MSTORE PUSH2 0x991 DUP3 DUP3 PUSH2 0x8EF JUMP JUMPDEST SWAP2 POP POP PUSH1 0x40 DUP4 ADD MLOAD PUSH2 0x9A6 PUSH1 0x40 DUP7 ADD DUP3 PUSH2 0x9C4 JUMP JUMPDEST POP PUSH1 0x60 DUP4 ADD MLOAD PUSH2 0x9B9 PUSH1 0x60 DUP7 ADD DUP3 PUSH2 0x8D1 JUMP JUMPDEST POP DUP1 SWAP2 POP POP SWAP3 SWAP2 POP POP JUMP JUMPDEST PUSH2 0x9CD DUP2 PUSH2 0xB82 JUMP JUMPDEST DUP3 MSTORE POP POP JUMP JUMPDEST PUSH2 0x9DC DUP2 PUSH2 0xB82 JUMP JUMPDEST DUP3 MSTORE POP POP JUMP JUMPDEST PUSH1 0x0 PUSH1 0x80 DUP3 ADD SWAP1 POP PUSH2 0x9F7 PUSH1 0x0 DUP4 ADD DUP8 PUSH2 0x8C2 JUMP JUMPDEST DUP2 DUP2 SUB PUSH1 0x20 DUP4 ADD MSTORE PUSH2 0xA09 DUP2 DUP7 PUSH2 0x928 JUMP JUMPDEST SWAP1 POP PUSH2 0xA18 PUSH1 0x40 DUP4 ADD DUP6 PUSH2 0x9D3 JUMP JUMPDEST PUSH2 0xA25 PUSH1 0x60 DUP4 ADD DUP5 PUSH2 0x8E0 JUMP JUMPDEST SWAP6 SWAP5 POP POP POP POP POP JUMP JUMPDEST PUSH1 0x0 PUSH1 0x20 DUP3 ADD SWAP1 POP DUP2 DUP2 SUB PUSH1 0x0 DUP4 ADD MSTORE PUSH2 0xA48 DUP2 DUP5 PUSH2 0x961 JUMP JUMPDEST SWAP1 POP SWAP3 SWAP2 POP POP JUMP JUMPDEST PUSH1 0x0 PUSH1 0x20 DUP3 ADD SWAP1 POP PUSH2 0xA65 PUSH1 0x0 DUP4 ADD DUP5 PUSH2 0x9D3 JUMP JUMPDEST SWAP3 SWAP2 POP POP JUMP JUMPDEST PUSH1 0x0 PUSH2 0xA75 PUSH2 0xA86 JUMP JUMPDEST SWAP1 POP PUSH2 0xA81 DUP3 DUP3 PUSH2 0xC00 JUMP JUMPDEST SWAP2 SWAP1 POP JUMP JUMPDEST PUSH1 0x0 PUSH1 0x40 MLOAD SWAP1 POP SWAP1 JUMP JUMPDEST PUSH1 0x0 PUSH8 0xFFFFFFFFFFFFFFFF DUP3 GT ISZERO PUSH2 0xAAB JUMPI PUSH2 0xAAA PUSH2 0xD07 JUMP JUMPDEST JUMPDEST PUSH2 0xAB4 DUP3 PUSH2 0xD4A JUMP JUMPDEST SWAP1 POP PUSH1 0x20 DUP2 ADD SWAP1 POP SWAP2 SWAP1 POP JUMP JUMPDEST PUSH1 0x0 DUP2 MLOAD SWAP1 POP SWAP2 SWAP1 POP JUMP JUMPDEST PUSH1 0x0 DUP3 DUP3 MSTORE PUSH1 0x20 DUP3 ADD SWAP1 POP SWAP3 SWAP2 POP POP JUMP JUMPDEST PUSH1 0x0 DUP3 DUP3 MSTORE PUSH1 0x20 DUP3 ADD SWAP1 POP SWAP3 SWAP2 POP POP JUMP JUMPDEST PUSH1 0x0 PUSH2 0xAF9 DUP3 PUSH2 0xB82 JUMP JUMPDEST SWAP2 POP PUSH2 0xB04 DUP4 PUSH2 0xB82 JUMP JUMPDEST SWAP3 POP DUP3 PUSH32 0xFFFFFFFFFFFFFFFFFFFFFFFFFFFFFFFFFFFFFFFFFFFFFFFFFFFFFFFFFFFFFFFF SUB DUP3 GT ISZERO PUSH2 0xB39 JUMPI PUSH2 0xB38 PUSH2 0xC7A JUMP JUMPDEST JUMPDEST DUP3 DUP3 ADD SWAP1 POP SWAP3 SWAP2 POP POP JUMP JUMPDEST PUSH1 0x0 PUSH2 0xB4F DUP3 PUSH2 0xB62 JUMP JUMPDEST SWAP1 POP SWAP2 SWAP1 POP JUMP JUMPDEST PUSH1 0x0 DUP2 ISZERO ISZERO SWAP1 POP SWAP2 SWAP1 POP JUMP JUMPDEST PUSH1 0x0 PUSH20 0xFFFFFFFFFFFFFFFFFFFFFFFFFFFFFFFFFFFFFFFF DUP3 AND SWAP1 POP SWAP2 SWAP1 POP JUMP JUMPDEST PUSH1 0x0 DUP2 SWAP1 POP SWAP2 SWAP1 POP JUMP JUMPDEST DUP3 DUP2 DUP4 CALLDATACOPY PUSH1 0x0 DUP4 DUP4 ADD MSTORE POP POP POP JUMP JUMPDEST PUSH1 0x0 JUMPDEST DUP4 DUP2 LT ISZERO PUSH2 0xBB9 JUMPI DUP1 DUP3 ADD MLOAD DUP2 DUP5 ADD MSTORE PUSH1 0x20 DUP2 ADD SWAP1 POP PUSH2 0xB9E JUMP JUMPDEST DUP4 DUP2 GT ISZERO PUSH2 0xBC8 JUMPI PUSH1 0x0 DUP5 DUP5 ADD MSTORE JUMPDEST POP POP POP POP JUMP JUMPDEST PUSH1 0x0 PUSH1 0x2 DUP3 DIV SWAP1 POP PUSH1 0x1 DUP3 AND DUP1 PUSH2 0xBE6 JUMPI PUSH1 0x7F DUP3 AND SWAP2 POP JUMPDEST PUSH1 0x20 DUP3 LT DUP2 EQ ISZERO PUSH2 0xBFA JUMPI PUSH2 0xBF9 PUSH2 0xCA9 JUMP JUMPDEST JUMPDEST POP SWAP2 SWAP1 POP JUMP JUMPDEST PUSH2 0xC09 DUP3 PUSH2 0xD4A JUMP JUMPDEST DUP2 ADD DUP2 DUP2 LT PUSH8 0xFFFFFFFFFFFFFFFF DUP3 GT OR ISZERO PUSH2 0xC28 JUMPI PUSH2 0xC27 PUSH2 0xD07 JUMP JUMPDEST JUMPDEST DUP1 PUSH1 0x40 MSTORE POP POP POP JUMP JUMPDEST PUSH1 0x0 PUSH2 0xC3C DUP3 PUSH2 0xB82 JUMP JUMPDEST SWAP2 POP PUSH32 0xFFFFFFFFFFFFFFFFFFFFFFFFFFFFFFFFFFFFFFFFFFFFFFFFFFFFFFFFFFFFFFFF DUP3 EQ ISZERO PUSH2 0xC6F JUMPI PUSH2 0xC6E PUSH2 0xC7A JUMP JUMPDEST JUMPDEST PUSH1 0x1 DUP3 ADD SWAP1 POP SWAP2 SWAP1 POP JUMP JUMPDEST PUSH32 0x4E487B7100000000000000000000000000000000000000000000000000000000 PUSH1 0x0 MSTORE PUSH1 0x11 PUSH1 0x4 MSTORE PUSH1 0x24 PUSH1 0x0 REVERT JUMPDEST PUSH32 0x4E487B7100000000000000000000000000000000000000000000000000000000 PUSH1 0x0 MSTORE PUSH1 0x22 PUSH1 0x4 MSTORE PUSH1 0x24 PUSH1 0x0 REVERT JUMPDEST PUSH32 0x4E487B7100000000000000000000000000000000000000000000000000000000 PUSH1 0x0 MSTORE PUSH1 0x32 PUSH1 0x4 MSTORE PUSH1 0x24 PUSH1 0x0 REVERT JUMPDEST PUSH32 0x4E487B7100000000000000000000000000000000000000000000000000000000 PUSH1 0x0 MSTORE PUSH1 0x41 PUSH1 0x4 MSTORE PUSH1 0x24 PUSH1 0x0 REVERT JUMPDEST PUSH1 0x0 DUP1 REVERT JUMPDEST PUSH1 0x0 DUP1 REVERT JUMPDEST PUSH1 0x0 DUP1 REVERT JUMPDEST PUSH1 0x0 DUP1 REVERT JUMPDEST PUSH1 0x0 PUSH1 0x1F NOT PUSH1 0x1F DUP4 ADD AND SWAP1 POP SWAP2 SWAP1 POP JUMP JUMPDEST PUSH2 0xD64 DUP2 PUSH2 0xB44 JUMP JUMPDEST DUP2 EQ PUSH2 0xD6F JUMPI PUSH1 0x0 DUP1 REVERT JUMPDEST POP JUMP JUMPDEST PUSH2 0xD7B DUP2 PUSH2 0xB56 JUMP JUMPDEST DUP2 EQ PUSH2 0xD86 JUMPI PUSH1 0x0 DUP1 REVERT JUMPDEST POP JUMP JUMPDEST PUSH2 0xD92 DUP2 PUSH2 0xB82 JUMP JUMPDEST DUP2 EQ PUSH2 0xD9D JUMPI PUSH1 0x0 DUP1 REVERT JUMPDEST POP JUMP INVALID LOG2 PUSH5 0x6970667358 0x22 SLT KECCAK256 0xB1 0xDA 0xC2 PUSH8 0xA162ED662FCD321E DUP10 0xB8 SAR PUSH25 0x40D32254132AF91D8EFF66880C8184BE64736F6C6343000807 STOP CALLER "
				},
				"gasEstimates": {
					"creation": {
						"codeDepositCost": "708400",
						"executionCost": "25007",
						"totalCost": "733407"
					},
					"external": {
						"addToInvestors(address,uint256)": "23004",
						"addUser(address,string,uint256,bool)": "infinite",
						"balanceOf(address)": "infinite",
						"getUserByAddress(address)": "infinite",
						"investors(address)": "2858",
						"transfer(address)": "infinite",
						"users(uint256)": "infinite"
					},
					"internal": {
						"transferToAddress(address)": "infinite"
					}
				},
				"methodIdentifiers": {
					"addToInvestors(address,uint256)": "0b1019f0",
					"addUser(address,string,uint256,bool)": "280879e7",
					"balanceOf(address)": "70a08231",
					"getUserByAddress(address)": "69c212f6",
					"investors(address)": "6f7bc9be",
					"transfer(address)": "1a695230",
					"users(uint256)": "365b98b2"
				}
			},
			"storageLayout": {
				"storage": [
					{
						"astId": 3,
						"contract": "contracts/Test1.sol:Test1",
						"label": "owner",
						"offset": 0,
						"slot": "0",
						"type": "t_address"
					},
					{
						"astId": 25,
						"contract": "contracts/Test1.sol:Test1",
						"label": "users",
						"offset": 0,
						"slot": "1",
						"type": "t_array(t_struct(User)21_storage)dyn_storage"
					},
					{
						"astId": 29,
						"contract": "contracts/Test1.sol:Test1",
						"label": "investors",
						"offset": 0,
						"slot": "2",
						"type": "t_mapping(t_address,t_uint256)"
					}
				],
				"types": {
					"t_address": {
						"encoding": "inplace",
						"label": "address",
						"numberOfBytes": "20"
					},
					"t_array(t_struct(User)21_storage)dyn_storage": {
						"base": "t_struct(User)21_storage",
						"encoding": "dynamic_array",
						"label": "struct Test1.User[]",
						"numberOfBytes": "32"
					},
					"t_bool": {
						"encoding": "inplace",
						"label": "bool",
						"numberOfBytes": "1"
					},
					"t_mapping(t_address,t_uint256)": {
						"encoding": "mapping",
						"key": "t_address",
						"label": "mapping(address => uint256)",
						"numberOfBytes": "32",
						"value": "t_uint256"
					},
					"t_string_storage": {
						"encoding": "bytes",
						"label": "string",
						"numberOfBytes": "32"
					},
					"t_struct(User)21_storage": {
						"encoding": "inplace",
						"label": "struct Test1.User",
						"members": [
							{
								"astId": 14,
								"contract": "contracts/Test1.sol:Test1",
								"label": "walletAddress",
								"offset": 0,
								"slot": "0",
								"type": "t_address"
							},
							{
								"astId": 16,
								"contract": "contracts/Test1.sol:Test1",
								"label": "name",
								"offset": 0,
								"slot": "1",
								"type": "t_string_storage"
							},
							{
								"astId": 18,
								"contract": "contracts/Test1.sol:Test1",
								"label": "amount",
								"offset": 0,
								"slot": "2",
								"type": "t_uint256"
							},
							{
								"astId": 20,
								"contract": "contracts/Test1.sol:Test1",
								"label": "isInvestor",
								"offset": 0,
								"slot": "3",
								"type": "t_bool"
							}
						],
						"numberOfBytes": "128"
					},
					"t_uint256": {
						"encoding": "inplace",
						"label": "uint256",
						"numberOfBytes": "32"
					}
				}
			},
			"userdoc": {
				"kind": "user",
				"methods": {},
				"version": 1
			}
		}
	}
}