{
	"contracts/Test1.sol": {
		"Test1": {
			"abi": [
				{
					"inputs": [],
					"stateMutability": "nonpayable",
					"type": "constructor"
				},
				{
					"inputs": [
						{
							"internalType": "address",
							"name": "walletAddress",
							"type": "address"
						},
						{
							"internalType": "string",
							"name": "name",
							"type": "string"
						},
						{
							"internalType": "uint256",
							"name": "amount",
							"type": "uint256"
						}
					],
					"name": "addUser",
					"outputs": [],
					"stateMutability": "nonpayable",
					"type": "function"
				},
				{
					"inputs": [
						{
							"internalType": "address",
							"name": "walletAddress",
							"type": "address"
						}
					],
					"name": "balanceOf",
					"outputs": [
						{
							"internalType": "uint256",
							"name": "",
							"type": "uint256"
						}
					],
					"stateMutability": "view",
					"type": "function"
				},
				{
					"inputs": [
						{
							"internalType": "address",
							"name": "walletAddress",
							"type": "address"
						}
					],
					"name": "transfer",
					"outputs": [],
					"stateMutability": "payable",
					"type": "function"
				},
				{
					"inputs": [
						{
							"internalType": "uint256",
							"name": "",
							"type": "uint256"
						}
					],
					"name": "users",
					"outputs": [
						{
							"internalType": "address",
							"name": "walletAddress",
							"type": "address"
						},
						{
							"internalType": "string",
							"name": "name",
							"type": "string"
						},
						{
							"internalType": "uint256",
							"name": "amount",
							"type": "uint256"
						}
					],
					"stateMutability": "view",
					"type": "function"
				}
			],
			"devdoc": {
				"kind": "dev",
				"methods": {},
				"version": 1
			},
			"evm": {
				"assembly": "    /* \"contracts/Test1.sol\":65:877  contract Test1{... */\n  mstore(0x40, 0x80)\n    /* \"contracts/Test1.sol\":106:154  constructor(){... */\n  callvalue\n  dup1\n  iszero\n  tag_1\n  jumpi\n  0x00\n  dup1\n  revert\ntag_1:\n  pop\n    /* \"contracts/Test1.sol\":137:147  msg.sender */\n  caller\n    /* \"contracts/Test1.sol\":129:134  owner */\n  0x00\n  dup1\n    /* \"contracts/Test1.sol\":129:147  owner = msg.sender */\n  0x0100\n  exp\n  dup2\n  sload\n  dup2\n  0xffffffffffffffffffffffffffffffffffffffff\n  mul\n  not\n  and\n  swap1\n  dup4\n  0xffffffffffffffffffffffffffffffffffffffff\n  and\n  mul\n  or\n  swap1\n  sstore\n  pop\n    /* \"contracts/Test1.sol\":65:877  contract Test1{... */\n  dataSize(sub_0)\n  dup1\n  dataOffset(sub_0)\n  0x00\n  codecopy\n  0x00\n  return\nstop\n\nsub_0: assembly {\n        /* \"contracts/Test1.sol\":65:877  contract Test1{... */\n      mstore(0x40, 0x80)\n      jumpi(tag_1, lt(calldatasize, 0x04))\n      shr(0xe0, calldataload(0x00))\n      dup1\n      0x1a695230\n      eq\n      tag_2\n      jumpi\n      dup1\n      0x365b98b2\n      eq\n      tag_3\n      jumpi\n      dup1\n      0x70a08231\n      eq\n      tag_4\n      jumpi\n      dup1\n      0xf0384fb6\n      eq\n      tag_5\n      jumpi\n    tag_1:\n      0x00\n      dup1\n      revert\n        /* \"contracts/Test1.sol\":431:536  function transfer(address walletAddress) payable public {... */\n    tag_2:\n      tag_6\n      0x04\n      dup1\n      calldatasize\n      sub\n      dup2\n      add\n      swap1\n      tag_7\n      swap2\n      swap1\n      tag_8\n      jump\t// in\n    tag_7:\n      tag_9\n      jump\t// in\n    tag_6:\n      stop\n        /* \"contracts/Test1.sol\":257:276  User[] public users */\n    tag_3:\n      callvalue\n      dup1\n      iszero\n      tag_10\n      jumpi\n      0x00\n      dup1\n      revert\n    tag_10:\n      pop\n      tag_11\n      0x04\n      dup1\n      calldatasize\n      sub\n      dup2\n      add\n      swap1\n      tag_12\n      swap2\n      swap1\n      tag_13\n      jump\t// in\n    tag_12:\n      tag_14\n      jump\t// in\n    tag_11:\n      mload(0x40)\n      tag_15\n      swap4\n      swap3\n      swap2\n      swap1\n      tag_16\n      jump\t// in\n    tag_15:\n      mload(0x40)\n      dup1\n      swap2\n      sub\n      swap1\n      return\n        /* \"contracts/Test1.sol\":788:871  function balanceOf(address walletAddress) public view returns(uint){... */\n    tag_4:\n      callvalue\n      dup1\n      iszero\n      tag_17\n      jumpi\n      0x00\n      dup1\n      revert\n    tag_17:\n      pop\n      tag_18\n      0x04\n      dup1\n      calldatasize\n      sub\n      dup2\n      add\n      swap1\n      tag_19\n      swap2\n      swap1\n      tag_8\n      jump\t// in\n    tag_19:\n      tag_20\n      jump\t// in\n    tag_18:\n      mload(0x40)\n      tag_21\n      swap2\n      swap1\n      tag_22\n      jump\t// in\n    tag_21:\n      mload(0x40)\n      dup1\n      swap2\n      sub\n      swap1\n      return\n        /* \"contracts/Test1.sol\":283:425  function addUser(address walletAddress, string memory name, uint amount) public {... */\n    tag_5:\n      callvalue\n      dup1\n      iszero\n      tag_23\n      jumpi\n      0x00\n      dup1\n      revert\n    tag_23:\n      pop\n      tag_24\n      0x04\n      dup1\n      calldatasize\n      sub\n      dup2\n      add\n      swap1\n      tag_25\n      swap2\n      swap1\n      tag_26\n      jump\t// in\n    tag_25:\n      tag_27\n      jump\t// in\n    tag_24:\n      stop\n        /* \"contracts/Test1.sol\":431:536  function transfer(address walletAddress) payable public {... */\n    tag_9:\n        /* \"contracts/Test1.sol\":497:529  transferToAddress(walletAddress) */\n      tag_29\n        /* \"contracts/Test1.sol\":515:528  walletAddress */\n      dup2\n        /* \"contracts/Test1.sol\":497:514  transferToAddress */\n      tag_30\n        /* \"contracts/Test1.sol\":497:529  transferToAddress(walletAddress) */\n      jump\t// in\n    tag_29:\n        /* \"contracts/Test1.sol\":431:536  function transfer(address walletAddress) payable public {... */\n      pop\n      jump\t// out\n        /* \"contracts/Test1.sol\":257:276  User[] public users */\n    tag_14:\n      0x01\n      dup2\n      dup2\n      sload\n      dup2\n      lt\n      tag_31\n      jumpi\n      0x00\n      dup1\n      revert\n    tag_31:\n      swap1\n      0x00\n      mstore\n      keccak256(0x00, 0x20)\n      swap1\n      0x03\n      mul\n      add\n      0x00\n      swap2\n      pop\n      swap1\n      pop\n      dup1\n      0x00\n      add\n      0x00\n      swap1\n      sload\n      swap1\n      0x0100\n      exp\n      swap1\n      div\n      0xffffffffffffffffffffffffffffffffffffffff\n      and\n      swap1\n      dup1\n      0x01\n      add\n      dup1\n      sload\n      tag_33\n      swap1\n      tag_34\n      jump\t// in\n    tag_33:\n      dup1\n      0x1f\n      add\n      0x20\n      dup1\n      swap2\n      div\n      mul\n      0x20\n      add\n      mload(0x40)\n      swap1\n      dup2\n      add\n      0x40\n      mstore\n      dup1\n      swap3\n      swap2\n      swap1\n      dup2\n      dup2\n      mstore\n      0x20\n      add\n      dup3\n      dup1\n      sload\n      tag_35\n      swap1\n      tag_34\n      jump\t// in\n    tag_35:\n      dup1\n      iszero\n      tag_36\n      jumpi\n      dup1\n      0x1f\n      lt\n      tag_37\n      jumpi\n      0x0100\n      dup1\n      dup4\n      sload\n      div\n      mul\n      dup4\n      mstore\n      swap2\n      0x20\n      add\n      swap2\n      jump(tag_36)\n    tag_37:\n      dup3\n      add\n      swap2\n      swap1\n      0x00\n      mstore\n      keccak256(0x00, 0x20)\n      swap1\n    tag_38:\n      dup2\n      sload\n      dup2\n      mstore\n      swap1\n      0x01\n      add\n      swap1\n      0x20\n      add\n      dup1\n      dup4\n      gt\n      tag_38\n      jumpi\n      dup3\n      swap1\n      sub\n      0x1f\n      and\n      dup3\n      add\n      swap2\n    tag_36:\n      pop\n      pop\n      pop\n      pop\n      pop\n      swap1\n      dup1\n      0x02\n      add\n      sload\n      swap1\n      pop\n      dup4\n      jump\t// out\n        /* \"contracts/Test1.sol\":788:871  function balanceOf(address walletAddress) public view returns(uint){... */\n    tag_20:\n        /* \"contracts/Test1.sol\":850:854  uint */\n      0x00\n        /* \"contracts/Test1.sol\":788:871  function balanceOf(address walletAddress) public view returns(uint){... */\n      swap2\n      swap1\n      pop\n      jump\t// out\n        /* \"contracts/Test1.sol\":283:425  function addUser(address walletAddress, string memory name, uint amount) public {... */\n    tag_27:\n        /* \"contracts/Test1.sol\":373:378  users */\n      0x01\n        /* \"contracts/Test1.sol\":384:417  User(walletAddress, name, amount) */\n      mload(0x40)\n      dup1\n      0x60\n      add\n      0x40\n      mstore\n      dup1\n        /* \"contracts/Test1.sol\":389:402  walletAddress */\n      dup6\n        /* \"contracts/Test1.sol\":384:417  User(walletAddress, name, amount) */\n      0xffffffffffffffffffffffffffffffffffffffff\n      and\n      dup2\n      mstore\n      0x20\n      add\n        /* \"contracts/Test1.sol\":404:408  name */\n      dup5\n        /* \"contracts/Test1.sol\":384:417  User(walletAddress, name, amount) */\n      dup2\n      mstore\n      0x20\n      add\n        /* \"contracts/Test1.sol\":410:416  amount */\n      dup4\n        /* \"contracts/Test1.sol\":384:417  User(walletAddress, name, amount) */\n      dup2\n      mstore\n      pop\n        /* \"contracts/Test1.sol\":373:418  users.push(User(walletAddress, name, amount)) */\n      swap1\n      dup1\n      0x01\n      dup2\n      sload\n      add\n      dup1\n      dup3\n      sstore\n      dup1\n      swap2\n      pop\n      pop\n      0x01\n      swap1\n      sub\n      swap1\n      0x00\n      mstore\n      keccak256(0x00, 0x20)\n      swap1\n      0x03\n      mul\n      add\n      0x00\n      swap1\n      swap2\n      swap1\n      swap2\n      swap1\n      swap2\n      pop\n      0x00\n      dup3\n      add\n      mload\n      dup2\n      0x00\n      add\n      exp(0x0100, 0x00)\n      dup2\n      sload\n      dup2\n      0xffffffffffffffffffffffffffffffffffffffff\n      mul\n      not\n      and\n      swap1\n      dup4\n      0xffffffffffffffffffffffffffffffffffffffff\n      and\n      mul\n      or\n      swap1\n      sstore\n      pop\n      0x20\n      dup3\n      add\n      mload\n      dup2\n      0x01\n      add\n      swap1\n      dup2\n      tag_42\n      swap2\n      swap1\n      tag_43\n      jump\t// in\n    tag_42:\n      pop\n      0x40\n      dup3\n      add\n      mload\n      dup2\n      0x02\n      add\n      sstore\n      pop\n      pop\n        /* \"contracts/Test1.sol\":283:425  function addUser(address walletAddress, string memory name, uint amount) public {... */\n      pop\n      pop\n      pop\n      jump\t// out\n        /* \"contracts/Test1.sol\":542:782  function transferToAddress(address walletAddress) private {... */\n    tag_30:\n        /* \"contracts/Test1.sol\":614:620  uint i */\n      0x00\n        /* \"contracts/Test1.sol\":610:776  for(uint i = 0; i < users.length; i++){... */\n    tag_45:\n        /* \"contracts/Test1.sol\":630:635  users */\n      0x01\n        /* \"contracts/Test1.sol\":630:642  users.length */\n      dup1\n      sload\n      swap1\n      pop\n        /* \"contracts/Test1.sol\":626:627  i */\n      dup2\n        /* \"contracts/Test1.sol\":626:642  i < users.length */\n      lt\n        /* \"contracts/Test1.sol\":610:776  for(uint i = 0; i < users.length; i++){... */\n      iszero\n      tag_46\n      jumpi\n        /* \"contracts/Test1.sol\":691:704  walletAddress */\n      dup2\n        /* \"contracts/Test1.sol\":665:704  users[i].walletAddress == walletAddress */\n      0xffffffffffffffffffffffffffffffffffffffff\n      and\n        /* \"contracts/Test1.sol\":665:670  users */\n      0x01\n        /* \"contracts/Test1.sol\":671:672  i */\n      dup3\n        /* \"contracts/Test1.sol\":665:673  users[i] */\n      dup2\n      sload\n      dup2\n      lt\n      tag_48\n      jumpi\n      tag_49\n      tag_50\n      jump\t// in\n    tag_49:\n    tag_48:\n      swap1\n      0x00\n      mstore\n      keccak256(0x00, 0x20)\n      swap1\n      0x03\n      mul\n      add\n        /* \"contracts/Test1.sol\":665:687  users[i].walletAddress */\n      0x00\n      add\n      0x00\n      swap1\n      sload\n      swap1\n      0x0100\n      exp\n      swap1\n      div\n      0xffffffffffffffffffffffffffffffffffffffff\n      and\n        /* \"contracts/Test1.sol\":665:704  users[i].walletAddress == walletAddress */\n      0xffffffffffffffffffffffffffffffffffffffff\n      and\n      sub\n        /* \"contracts/Test1.sol\":662:766  if(users[i].walletAddress == walletAddress){... */\n      tag_52\n      jumpi\n        /* \"contracts/Test1.sol\":742:751  msg.value */\n      callvalue\n        /* \"contracts/Test1.sol\":723:728  users */\n      0x01\n        /* \"contracts/Test1.sol\":729:730  i */\n      dup3\n        /* \"contracts/Test1.sol\":723:731  users[i] */\n      dup2\n      sload\n      dup2\n      lt\n      tag_53\n      jumpi\n      tag_54\n      tag_50\n      jump\t// in\n    tag_54:\n    tag_53:\n      swap1\n      0x00\n      mstore\n      keccak256(0x00, 0x20)\n      swap1\n      0x03\n      mul\n      add\n        /* \"contracts/Test1.sol\":723:738  users[i].amount */\n      0x02\n      add\n      0x00\n        /* \"contracts/Test1.sol\":723:751  users[i].amount += msg.value */\n      dup3\n      dup3\n      sload\n      tag_56\n      swap2\n      swap1\n      tag_57\n      jump\t// in\n    tag_56:\n      swap3\n      pop\n      pop\n      dup2\n      swap1\n      sstore\n      pop\n        /* \"contracts/Test1.sol\":662:766  if(users[i].walletAddress == walletAddress){... */\n    tag_52:\n        /* \"contracts/Test1.sol\":644:647  i++ */\n      dup1\n      dup1\n      tag_58\n      swap1\n      tag_59\n      jump\t// in\n    tag_58:\n      swap2\n      pop\n      pop\n        /* \"contracts/Test1.sol\":610:776  for(uint i = 0; i < users.length; i++){... */\n      jump(tag_45)\n    tag_46:\n      pop\n        /* \"contracts/Test1.sol\":542:782  function transferToAddress(address walletAddress) private {... */\n      pop\n      jump\t// out\n        /* \"#utility.yul\":7:82   */\n    tag_60:\n        /* \"#utility.yul\":40:46   */\n      0x00\n        /* \"#utility.yul\":73:75   */\n      0x40\n        /* \"#utility.yul\":67:76   */\n      mload\n        /* \"#utility.yul\":57:76   */\n      swap1\n      pop\n        /* \"#utility.yul\":7:82   */\n      swap1\n      jump\t// out\n        /* \"#utility.yul\":88:205   */\n    tag_61:\n        /* \"#utility.yul\":197:198   */\n      0x00\n        /* \"#utility.yul\":194:195   */\n      dup1\n        /* \"#utility.yul\":187:199   */\n      revert\n        /* \"#utility.yul\":211:328   */\n    tag_62:\n        /* \"#utility.yul\":320:321   */\n      0x00\n        /* \"#utility.yul\":317:318   */\n      dup1\n        /* \"#utility.yul\":310:322   */\n      revert\n        /* \"#utility.yul\":334:460   */\n    tag_63:\n        /* \"#utility.yul\":371:378   */\n      0x00\n        /* \"#utility.yul\":411:453   */\n      0xffffffffffffffffffffffffffffffffffffffff\n        /* \"#utility.yul\":404:409   */\n      dup3\n        /* \"#utility.yul\":400:454   */\n      and\n        /* \"#utility.yul\":389:454   */\n      swap1\n      pop\n        /* \"#utility.yul\":334:460   */\n      swap2\n      swap1\n      pop\n      jump\t// out\n        /* \"#utility.yul\":466:562   */\n    tag_64:\n        /* \"#utility.yul\":503:510   */\n      0x00\n        /* \"#utility.yul\":532:556   */\n      tag_109\n        /* \"#utility.yul\":550:555   */\n      dup3\n        /* \"#utility.yul\":532:556   */\n      tag_63\n      jump\t// in\n    tag_109:\n        /* \"#utility.yul\":521:556   */\n      swap1\n      pop\n        /* \"#utility.yul\":466:562   */\n      swap2\n      swap1\n      pop\n      jump\t// out\n        /* \"#utility.yul\":568:690   */\n    tag_65:\n        /* \"#utility.yul\":641:665   */\n      tag_111\n        /* \"#utility.yul\":659:664   */\n      dup2\n        /* \"#utility.yul\":641:665   */\n      tag_64\n      jump\t// in\n    tag_111:\n        /* \"#utility.yul\":634:639   */\n      dup2\n        /* \"#utility.yul\":631:666   */\n      eq\n        /* \"#utility.yul\":621:684   */\n      tag_112\n      jumpi\n        /* \"#utility.yul\":680:681   */\n      0x00\n        /* \"#utility.yul\":677:678   */\n      dup1\n        /* \"#utility.yul\":670:682   */\n      revert\n        /* \"#utility.yul\":621:684   */\n    tag_112:\n        /* \"#utility.yul\":568:690   */\n      pop\n      jump\t// out\n        /* \"#utility.yul\":696:835   */\n    tag_66:\n        /* \"#utility.yul\":742:747   */\n      0x00\n        /* \"#utility.yul\":780:786   */\n      dup2\n        /* \"#utility.yul\":767:787   */\n      calldataload\n        /* \"#utility.yul\":758:787   */\n      swap1\n      pop\n        /* \"#utility.yul\":796:829   */\n      tag_114\n        /* \"#utility.yul\":823:828   */\n      dup2\n        /* \"#utility.yul\":796:829   */\n      tag_65\n      jump\t// in\n    tag_114:\n        /* \"#utility.yul\":696:835   */\n      swap3\n      swap2\n      pop\n      pop\n      jump\t// out\n        /* \"#utility.yul\":841:1170   */\n    tag_8:\n        /* \"#utility.yul\":900:906   */\n      0x00\n        /* \"#utility.yul\":949:951   */\n      0x20\n        /* \"#utility.yul\":937:946   */\n      dup3\n        /* \"#utility.yul\":928:935   */\n      dup5\n        /* \"#utility.yul\":924:947   */\n      sub\n        /* \"#utility.yul\":920:952   */\n      slt\n        /* \"#utility.yul\":917:1036   */\n      iszero\n      tag_116\n      jumpi\n        /* \"#utility.yul\":955:1034   */\n      tag_117\n      tag_61\n      jump\t// in\n    tag_117:\n        /* \"#utility.yul\":917:1036   */\n    tag_116:\n        /* \"#utility.yul\":1075:1076   */\n      0x00\n        /* \"#utility.yul\":1100:1153   */\n      tag_118\n        /* \"#utility.yul\":1145:1152   */\n      dup5\n        /* \"#utility.yul\":1136:1142   */\n      dup3\n        /* \"#utility.yul\":1125:1134   */\n      dup6\n        /* \"#utility.yul\":1121:1143   */\n      add\n        /* \"#utility.yul\":1100:1153   */\n      tag_66\n      jump\t// in\n    tag_118:\n        /* \"#utility.yul\":1090:1153   */\n      swap2\n      pop\n        /* \"#utility.yul\":1046:1163   */\n      pop\n        /* \"#utility.yul\":841:1170   */\n      swap3\n      swap2\n      pop\n      pop\n      jump\t// out\n        /* \"#utility.yul\":1176:1253   */\n    tag_67:\n        /* \"#utility.yul\":1213:1220   */\n      0x00\n        /* \"#utility.yul\":1242:1247   */\n      dup2\n        /* \"#utility.yul\":1231:1247   */\n      swap1\n      pop\n        /* \"#utility.yul\":1176:1253   */\n      swap2\n      swap1\n      pop\n      jump\t// out\n        /* \"#utility.yul\":1259:1381   */\n    tag_68:\n        /* \"#utility.yul\":1332:1356   */\n      tag_121\n        /* \"#utility.yul\":1350:1355   */\n      dup2\n        /* \"#utility.yul\":1332:1356   */\n      tag_67\n      jump\t// in\n    tag_121:\n        /* \"#utility.yul\":1325:1330   */\n      dup2\n        /* \"#utility.yul\":1322:1357   */\n      eq\n        /* \"#utility.yul\":1312:1375   */\n      tag_122\n      jumpi\n        /* \"#utility.yul\":1371:1372   */\n      0x00\n        /* \"#utility.yul\":1368:1369   */\n      dup1\n        /* \"#utility.yul\":1361:1373   */\n      revert\n        /* \"#utility.yul\":1312:1375   */\n    tag_122:\n        /* \"#utility.yul\":1259:1381   */\n      pop\n      jump\t// out\n        /* \"#utility.yul\":1387:1526   */\n    tag_69:\n        /* \"#utility.yul\":1433:1438   */\n      0x00\n        /* \"#utility.yul\":1471:1477   */\n      dup2\n        /* \"#utility.yul\":1458:1478   */\n      calldataload\n        /* \"#utility.yul\":1449:1478   */\n      swap1\n      pop\n        /* \"#utility.yul\":1487:1520   */\n      tag_124\n        /* \"#utility.yul\":1514:1519   */\n      dup2\n        /* \"#utility.yul\":1487:1520   */\n      tag_68\n      jump\t// in\n    tag_124:\n        /* \"#utility.yul\":1387:1526   */\n      swap3\n      swap2\n      pop\n      pop\n      jump\t// out\n        /* \"#utility.yul\":1532:1861   */\n    tag_13:\n        /* \"#utility.yul\":1591:1597   */\n      0x00\n        /* \"#utility.yul\":1640:1642   */\n      0x20\n        /* \"#utility.yul\":1628:1637   */\n      dup3\n        /* \"#utility.yul\":1619:1626   */\n      dup5\n        /* \"#utility.yul\":1615:1638   */\n      sub\n        /* \"#utility.yul\":1611:1643   */\n      slt\n        /* \"#utility.yul\":1608:1727   */\n      iszero\n      tag_126\n      jumpi\n        /* \"#utility.yul\":1646:1725   */\n      tag_127\n      tag_61\n      jump\t// in\n    tag_127:\n        /* \"#utility.yul\":1608:1727   */\n    tag_126:\n        /* \"#utility.yul\":1766:1767   */\n      0x00\n        /* \"#utility.yul\":1791:1844   */\n      tag_128\n        /* \"#utility.yul\":1836:1843   */\n      dup5\n        /* \"#utility.yul\":1827:1833   */\n      dup3\n        /* \"#utility.yul\":1816:1825   */\n      dup6\n        /* \"#utility.yul\":1812:1834   */\n      add\n        /* \"#utility.yul\":1791:1844   */\n      tag_69\n      jump\t// in\n    tag_128:\n        /* \"#utility.yul\":1781:1844   */\n      swap2\n      pop\n        /* \"#utility.yul\":1737:1854   */\n      pop\n        /* \"#utility.yul\":1532:1861   */\n      swap3\n      swap2\n      pop\n      pop\n      jump\t// out\n        /* \"#utility.yul\":1867:1985   */\n    tag_70:\n        /* \"#utility.yul\":1954:1978   */\n      tag_130\n        /* \"#utility.yul\":1972:1977   */\n      dup2\n        /* \"#utility.yul\":1954:1978   */\n      tag_64\n      jump\t// in\n    tag_130:\n        /* \"#utility.yul\":1949:1952   */\n      dup3\n        /* \"#utility.yul\":1942:1979   */\n      mstore\n        /* \"#utility.yul\":1867:1985   */\n      pop\n      pop\n      jump\t// out\n        /* \"#utility.yul\":1991:2090   */\n    tag_71:\n        /* \"#utility.yul\":2043:2049   */\n      0x00\n        /* \"#utility.yul\":2077:2082   */\n      dup2\n        /* \"#utility.yul\":2071:2083   */\n      mload\n        /* \"#utility.yul\":2061:2083   */\n      swap1\n      pop\n        /* \"#utility.yul\":1991:2090   */\n      swap2\n      swap1\n      pop\n      jump\t// out\n        /* \"#utility.yul\":2096:2265   */\n    tag_72:\n        /* \"#utility.yul\":2180:2191   */\n      0x00\n        /* \"#utility.yul\":2214:2220   */\n      dup3\n        /* \"#utility.yul\":2209:2212   */\n      dup3\n        /* \"#utility.yul\":2202:2221   */\n      mstore\n        /* \"#utility.yul\":2254:2258   */\n      0x20\n        /* \"#utility.yul\":2249:2252   */\n      dup3\n        /* \"#utility.yul\":2245:2259   */\n      add\n        /* \"#utility.yul\":2230:2259   */\n      swap1\n      pop\n        /* \"#utility.yul\":2096:2265   */\n      swap3\n      swap2\n      pop\n      pop\n      jump\t// out\n        /* \"#utility.yul\":2271:2578   */\n    tag_73:\n        /* \"#utility.yul\":2339:2340   */\n      0x00\n        /* \"#utility.yul\":2349:2462   */\n    tag_134:\n        /* \"#utility.yul\":2363:2369   */\n      dup4\n        /* \"#utility.yul\":2360:2361   */\n      dup2\n        /* \"#utility.yul\":2357:2370   */\n      lt\n        /* \"#utility.yul\":2349:2462   */\n      iszero\n      tag_136\n      jumpi\n        /* \"#utility.yul\":2448:2449   */\n      dup1\n        /* \"#utility.yul\":2443:2446   */\n      dup3\n        /* \"#utility.yul\":2439:2450   */\n      add\n        /* \"#utility.yul\":2433:2451   */\n      mload\n        /* \"#utility.yul\":2429:2430   */\n      dup2\n        /* \"#utility.yul\":2424:2427   */\n      dup5\n        /* \"#utility.yul\":2420:2431   */\n      add\n        /* \"#utility.yul\":2413:2452   */\n      mstore\n        /* \"#utility.yul\":2385:2387   */\n      0x20\n        /* \"#utility.yul\":2382:2383   */\n      dup2\n        /* \"#utility.yul\":2378:2388   */\n      add\n        /* \"#utility.yul\":2373:2388   */\n      swap1\n      pop\n        /* \"#utility.yul\":2349:2462   */\n      jump(tag_134)\n    tag_136:\n        /* \"#utility.yul\":2480:2486   */\n      dup4\n        /* \"#utility.yul\":2477:2478   */\n      dup2\n        /* \"#utility.yul\":2474:2487   */\n      gt\n        /* \"#utility.yul\":2471:2572   */\n      iszero\n      tag_137\n      jumpi\n        /* \"#utility.yul\":2560:2561   */\n      0x00\n        /* \"#utility.yul\":2551:2557   */\n      dup5\n        /* \"#utility.yul\":2546:2549   */\n      dup5\n        /* \"#utility.yul\":2542:2558   */\n      add\n        /* \"#utility.yul\":2535:2562   */\n      mstore\n        /* \"#utility.yul\":2471:2572   */\n    tag_137:\n        /* \"#utility.yul\":2320:2578   */\n      pop\n        /* \"#utility.yul\":2271:2578   */\n      pop\n      pop\n      pop\n      jump\t// out\n        /* \"#utility.yul\":2584:2686   */\n    tag_74:\n        /* \"#utility.yul\":2625:2631   */\n      0x00\n        /* \"#utility.yul\":2676:2678   */\n      0x1f\n        /* \"#utility.yul\":2672:2679   */\n      not\n        /* \"#utility.yul\":2667:2669   */\n      0x1f\n        /* \"#utility.yul\":2660:2665   */\n      dup4\n        /* \"#utility.yul\":2656:2670   */\n      add\n        /* \"#utility.yul\":2652:2680   */\n      and\n        /* \"#utility.yul\":2642:2680   */\n      swap1\n      pop\n        /* \"#utility.yul\":2584:2686   */\n      swap2\n      swap1\n      pop\n      jump\t// out\n        /* \"#utility.yul\":2692:3056   */\n    tag_75:\n        /* \"#utility.yul\":2780:2783   */\n      0x00\n        /* \"#utility.yul\":2808:2847   */\n      tag_140\n        /* \"#utility.yul\":2841:2846   */\n      dup3\n        /* \"#utility.yul\":2808:2847   */\n      tag_71\n      jump\t// in\n    tag_140:\n        /* \"#utility.yul\":2863:2934   */\n      tag_141\n        /* \"#utility.yul\":2927:2933   */\n      dup2\n        /* \"#utility.yul\":2922:2925   */\n      dup6\n        /* \"#utility.yul\":2863:2934   */\n      tag_72\n      jump\t// in\n    tag_141:\n        /* \"#utility.yul\":2856:2934   */\n      swap4\n      pop\n        /* \"#utility.yul\":2943:2995   */\n      tag_142\n        /* \"#utility.yul\":2988:2994   */\n      dup2\n        /* \"#utility.yul\":2983:2986   */\n      dup6\n        /* \"#utility.yul\":2976:2980   */\n      0x20\n        /* \"#utility.yul\":2969:2974   */\n      dup7\n        /* \"#utility.yul\":2965:2981   */\n      add\n        /* \"#utility.yul\":2943:2995   */\n      tag_73\n      jump\t// in\n    tag_142:\n        /* \"#utility.yul\":3020:3049   */\n      tag_143\n        /* \"#utility.yul\":3042:3048   */\n      dup2\n        /* \"#utility.yul\":3020:3049   */\n      tag_74\n      jump\t// in\n    tag_143:\n        /* \"#utility.yul\":3015:3018   */\n      dup5\n        /* \"#utility.yul\":3011:3050   */\n      add\n        /* \"#utility.yul\":3004:3050   */\n      swap2\n      pop\n        /* \"#utility.yul\":2784:3056   */\n      pop\n        /* \"#utility.yul\":2692:3056   */\n      swap3\n      swap2\n      pop\n      pop\n      jump\t// out\n        /* \"#utility.yul\":3062:3180   */\n    tag_76:\n        /* \"#utility.yul\":3149:3173   */\n      tag_145\n        /* \"#utility.yul\":3167:3172   */\n      dup2\n        /* \"#utility.yul\":3149:3173   */\n      tag_67\n      jump\t// in\n    tag_145:\n        /* \"#utility.yul\":3144:3147   */\n      dup3\n        /* \"#utility.yul\":3137:3174   */\n      mstore\n        /* \"#utility.yul\":3062:3180   */\n      pop\n      pop\n      jump\t// out\n        /* \"#utility.yul\":3186:3719   */\n    tag_16:\n        /* \"#utility.yul\":3355:3359   */\n      0x00\n        /* \"#utility.yul\":3393:3395   */\n      0x60\n        /* \"#utility.yul\":3382:3391   */\n      dup3\n        /* \"#utility.yul\":3378:3396   */\n      add\n        /* \"#utility.yul\":3370:3396   */\n      swap1\n      pop\n        /* \"#utility.yul\":3406:3477   */\n      tag_147\n        /* \"#utility.yul\":3474:3475   */\n      0x00\n        /* \"#utility.yul\":3463:3472   */\n      dup4\n        /* \"#utility.yul\":3459:3476   */\n      add\n        /* \"#utility.yul\":3450:3456   */\n      dup7\n        /* \"#utility.yul\":3406:3477   */\n      tag_70\n      jump\t// in\n    tag_147:\n        /* \"#utility.yul\":3524:3533   */\n      dup2\n        /* \"#utility.yul\":3518:3522   */\n      dup2\n        /* \"#utility.yul\":3514:3534   */\n      sub\n        /* \"#utility.yul\":3509:3511   */\n      0x20\n        /* \"#utility.yul\":3498:3507   */\n      dup4\n        /* \"#utility.yul\":3494:3512   */\n      add\n        /* \"#utility.yul\":3487:3535   */\n      mstore\n        /* \"#utility.yul\":3552:3630   */\n      tag_148\n        /* \"#utility.yul\":3625:3629   */\n      dup2\n        /* \"#utility.yul\":3616:3622   */\n      dup6\n        /* \"#utility.yul\":3552:3630   */\n      tag_75\n      jump\t// in\n    tag_148:\n        /* \"#utility.yul\":3544:3630   */\n      swap1\n      pop\n        /* \"#utility.yul\":3640:3712   */\n      tag_149\n        /* \"#utility.yul\":3708:3710   */\n      0x40\n        /* \"#utility.yul\":3697:3706   */\n      dup4\n        /* \"#utility.yul\":3693:3711   */\n      add\n        /* \"#utility.yul\":3684:3690   */\n      dup5\n        /* \"#utility.yul\":3640:3712   */\n      tag_76\n      jump\t// in\n    tag_149:\n        /* \"#utility.yul\":3186:3719   */\n      swap5\n      swap4\n      pop\n      pop\n      pop\n      pop\n      jump\t// out\n        /* \"#utility.yul\":3725:3947   */\n    tag_22:\n        /* \"#utility.yul\":3818:3822   */\n      0x00\n        /* \"#utility.yul\":3856:3858   */\n      0x20\n        /* \"#utility.yul\":3845:3854   */\n      dup3\n        /* \"#utility.yul\":3841:3859   */\n      add\n        /* \"#utility.yul\":3833:3859   */\n      swap1\n      pop\n        /* \"#utility.yul\":3869:3940   */\n      tag_151\n        /* \"#utility.yul\":3937:3938   */\n      0x00\n        /* \"#utility.yul\":3926:3935   */\n      dup4\n        /* \"#utility.yul\":3922:3939   */\n      add\n        /* \"#utility.yul\":3913:3919   */\n      dup5\n        /* \"#utility.yul\":3869:3940   */\n      tag_76\n      jump\t// in\n    tag_151:\n        /* \"#utility.yul\":3725:3947   */\n      swap3\n      swap2\n      pop\n      pop\n      jump\t// out\n        /* \"#utility.yul\":3953:4070   */\n    tag_77:\n        /* \"#utility.yul\":4062:4063   */\n      0x00\n        /* \"#utility.yul\":4059:4060   */\n      dup1\n        /* \"#utility.yul\":4052:4064   */\n      revert\n        /* \"#utility.yul\":4076:4193   */\n    tag_78:\n        /* \"#utility.yul\":4185:4186   */\n      0x00\n        /* \"#utility.yul\":4182:4183   */\n      dup1\n        /* \"#utility.yul\":4175:4187   */\n      revert\n        /* \"#utility.yul\":4199:4379   */\n    tag_79:\n        /* \"#utility.yul\":4247:4324   */\n      0x4e487b7100000000000000000000000000000000000000000000000000000000\n        /* \"#utility.yul\":4244:4245   */\n      0x00\n        /* \"#utility.yul\":4237:4325   */\n      mstore\n        /* \"#utility.yul\":4344:4348   */\n      0x41\n        /* \"#utility.yul\":4341:4342   */\n      0x04\n        /* \"#utility.yul\":4334:4349   */\n      mstore\n        /* \"#utility.yul\":4368:4372   */\n      0x24\n        /* \"#utility.yul\":4365:4366   */\n      0x00\n        /* \"#utility.yul\":4358:4373   */\n      revert\n        /* \"#utility.yul\":4385:4666   */\n    tag_80:\n        /* \"#utility.yul\":4468:4495   */\n      tag_156\n        /* \"#utility.yul\":4490:4494   */\n      dup3\n        /* \"#utility.yul\":4468:4495   */\n      tag_74\n      jump\t// in\n    tag_156:\n        /* \"#utility.yul\":4460:4466   */\n      dup2\n        /* \"#utility.yul\":4456:4496   */\n      add\n        /* \"#utility.yul\":4598:4604   */\n      dup2\n        /* \"#utility.yul\":4586:4596   */\n      dup2\n        /* \"#utility.yul\":4583:4605   */\n      lt\n        /* \"#utility.yul\":4562:4580   */\n      0xffffffffffffffff\n        /* \"#utility.yul\":4550:4560   */\n      dup3\n        /* \"#utility.yul\":4547:4581   */\n      gt\n        /* \"#utility.yul\":4544:4606   */\n      or\n        /* \"#utility.yul\":4541:4629   */\n      iszero\n      tag_157\n      jumpi\n        /* \"#utility.yul\":4609:4627   */\n      tag_158\n      tag_79\n      jump\t// in\n    tag_158:\n        /* \"#utility.yul\":4541:4629   */\n    tag_157:\n        /* \"#utility.yul\":4649:4659   */\n      dup1\n        /* \"#utility.yul\":4645:4647   */\n      0x40\n        /* \"#utility.yul\":4638:4660   */\n      mstore\n        /* \"#utility.yul\":4428:4666   */\n      pop\n        /* \"#utility.yul\":4385:4666   */\n      pop\n      pop\n      jump\t// out\n        /* \"#utility.yul\":4672:4801   */\n    tag_81:\n        /* \"#utility.yul\":4706:4712   */\n      0x00\n        /* \"#utility.yul\":4733:4753   */\n      tag_160\n      tag_60\n      jump\t// in\n    tag_160:\n        /* \"#utility.yul\":4723:4753   */\n      swap1\n      pop\n        /* \"#utility.yul\":4762:4795   */\n      tag_161\n        /* \"#utility.yul\":4790:4794   */\n      dup3\n        /* \"#utility.yul\":4782:4788   */\n      dup3\n        /* \"#utility.yul\":4762:4795   */\n      tag_80\n      jump\t// in\n    tag_161:\n        /* \"#utility.yul\":4672:4801   */\n      swap2\n      swap1\n      pop\n      jump\t// out\n        /* \"#utility.yul\":4807:5115   */\n    tag_82:\n        /* \"#utility.yul\":4869:4873   */\n      0x00\n        /* \"#utility.yul\":4959:4977   */\n      0xffffffffffffffff\n        /* \"#utility.yul\":4951:4957   */\n      dup3\n        /* \"#utility.yul\":4948:4978   */\n      gt\n        /* \"#utility.yul\":4945:5001   */\n      iszero\n      tag_163\n      jumpi\n        /* \"#utility.yul\":4981:4999   */\n      tag_164\n      tag_79\n      jump\t// in\n    tag_164:\n        /* \"#utility.yul\":4945:5001   */\n    tag_163:\n        /* \"#utility.yul\":5019:5048   */\n      tag_165\n        /* \"#utility.yul\":5041:5047   */\n      dup3\n        /* \"#utility.yul\":5019:5048   */\n      tag_74\n      jump\t// in\n    tag_165:\n        /* \"#utility.yul\":5011:5048   */\n      swap1\n      pop\n        /* \"#utility.yul\":5103:5107   */\n      0x20\n        /* \"#utility.yul\":5097:5101   */\n      dup2\n        /* \"#utility.yul\":5093:5108   */\n      add\n        /* \"#utility.yul\":5085:5108   */\n      swap1\n      pop\n        /* \"#utility.yul\":4807:5115   */\n      swap2\n      swap1\n      pop\n      jump\t// out\n        /* \"#utility.yul\":5121:5275   */\n    tag_83:\n        /* \"#utility.yul\":5205:5211   */\n      dup3\n        /* \"#utility.yul\":5200:5203   */\n      dup2\n        /* \"#utility.yul\":5195:5198   */\n      dup4\n        /* \"#utility.yul\":5182:5212   */\n      calldatacopy\n        /* \"#utility.yul\":5267:5268   */\n      0x00\n        /* \"#utility.yul\":5258:5264   */\n      dup4\n        /* \"#utility.yul\":5253:5256   */\n      dup4\n        /* \"#utility.yul\":5249:5265   */\n      add\n        /* \"#utility.yul\":5242:5269   */\n      mstore\n        /* \"#utility.yul\":5121:5275   */\n      pop\n      pop\n      pop\n      jump\t// out\n        /* \"#utility.yul\":5281:5693   */\n    tag_84:\n        /* \"#utility.yul\":5359:5364   */\n      0x00\n        /* \"#utility.yul\":5384:5450   */\n      tag_168\n        /* \"#utility.yul\":5400:5449   */\n      tag_169\n        /* \"#utility.yul\":5442:5448   */\n      dup5\n        /* \"#utility.yul\":5400:5449   */\n      tag_82\n      jump\t// in\n    tag_169:\n        /* \"#utility.yul\":5384:5450   */\n      tag_81\n      jump\t// in\n    tag_168:\n        /* \"#utility.yul\":5375:5450   */\n      swap1\n      pop\n        /* \"#utility.yul\":5473:5479   */\n      dup3\n        /* \"#utility.yul\":5466:5471   */\n      dup2\n        /* \"#utility.yul\":5459:5480   */\n      mstore\n        /* \"#utility.yul\":5511:5515   */\n      0x20\n        /* \"#utility.yul\":5504:5509   */\n      dup2\n        /* \"#utility.yul\":5500:5516   */\n      add\n        /* \"#utility.yul\":5549:5552   */\n      dup5\n        /* \"#utility.yul\":5540:5546   */\n      dup5\n        /* \"#utility.yul\":5535:5538   */\n      dup5\n        /* \"#utility.yul\":5531:5547   */\n      add\n        /* \"#utility.yul\":5528:5553   */\n      gt\n        /* \"#utility.yul\":5525:5637   */\n      iszero\n      tag_170\n      jumpi\n        /* \"#utility.yul\":5556:5635   */\n      tag_171\n      tag_78\n      jump\t// in\n    tag_171:\n        /* \"#utility.yul\":5525:5637   */\n    tag_170:\n        /* \"#utility.yul\":5646:5687   */\n      tag_172\n        /* \"#utility.yul\":5680:5686   */\n      dup5\n        /* \"#utility.yul\":5675:5678   */\n      dup3\n        /* \"#utility.yul\":5670:5673   */\n      dup6\n        /* \"#utility.yul\":5646:5687   */\n      tag_83\n      jump\t// in\n    tag_172:\n        /* \"#utility.yul\":5365:5693   */\n      pop\n        /* \"#utility.yul\":5281:5693   */\n      swap4\n      swap3\n      pop\n      pop\n      pop\n      jump\t// out\n        /* \"#utility.yul\":5713:6053   */\n    tag_85:\n        /* \"#utility.yul\":5769:5774   */\n      0x00\n        /* \"#utility.yul\":5818:5821   */\n      dup3\n        /* \"#utility.yul\":5811:5815   */\n      0x1f\n        /* \"#utility.yul\":5803:5809   */\n      dup4\n        /* \"#utility.yul\":5799:5816   */\n      add\n        /* \"#utility.yul\":5795:5822   */\n      slt\n        /* \"#utility.yul\":5785:5907   */\n      tag_174\n      jumpi\n        /* \"#utility.yul\":5826:5905   */\n      tag_175\n      tag_77\n      jump\t// in\n    tag_175:\n        /* \"#utility.yul\":5785:5907   */\n    tag_174:\n        /* \"#utility.yul\":5943:5949   */\n      dup2\n        /* \"#utility.yul\":5930:5950   */\n      calldataload\n        /* \"#utility.yul\":5968:6047   */\n      tag_176\n        /* \"#utility.yul\":6043:6046   */\n      dup5\n        /* \"#utility.yul\":6035:6041   */\n      dup3\n        /* \"#utility.yul\":6028:6032   */\n      0x20\n        /* \"#utility.yul\":6020:6026   */\n      dup7\n        /* \"#utility.yul\":6016:6033   */\n      add\n        /* \"#utility.yul\":5968:6047   */\n      tag_84\n      jump\t// in\n    tag_176:\n        /* \"#utility.yul\":5959:6047   */\n      swap2\n      pop\n        /* \"#utility.yul\":5775:6053   */\n      pop\n        /* \"#utility.yul\":5713:6053   */\n      swap3\n      swap2\n      pop\n      pop\n      jump\t// out\n        /* \"#utility.yul\":6059:6858   */\n    tag_26:\n        /* \"#utility.yul\":6146:6152   */\n      0x00\n        /* \"#utility.yul\":6154:6160   */\n      dup1\n        /* \"#utility.yul\":6162:6168   */\n      0x00\n        /* \"#utility.yul\":6211:6213   */\n      0x60\n        /* \"#utility.yul\":6199:6208   */\n      dup5\n        /* \"#utility.yul\":6190:6197   */\n      dup7\n        /* \"#utility.yul\":6186:6209   */\n      sub\n        /* \"#utility.yul\":6182:6214   */\n      slt\n        /* \"#utility.yul\":6179:6298   */\n      iszero\n      tag_178\n      jumpi\n        /* \"#utility.yul\":6217:6296   */\n      tag_179\n      tag_61\n      jump\t// in\n    tag_179:\n        /* \"#utility.yul\":6179:6298   */\n    tag_178:\n        /* \"#utility.yul\":6337:6338   */\n      0x00\n        /* \"#utility.yul\":6362:6415   */\n      tag_180\n        /* \"#utility.yul\":6407:6414   */\n      dup7\n        /* \"#utility.yul\":6398:6404   */\n      dup3\n        /* \"#utility.yul\":6387:6396   */\n      dup8\n        /* \"#utility.yul\":6383:6405   */\n      add\n        /* \"#utility.yul\":6362:6415   */\n      tag_66\n      jump\t// in\n    tag_180:\n        /* \"#utility.yul\":6352:6415   */\n      swap4\n      pop\n        /* \"#utility.yul\":6308:6425   */\n      pop\n        /* \"#utility.yul\":6492:6494   */\n      0x20\n        /* \"#utility.yul\":6481:6490   */\n      dup5\n        /* \"#utility.yul\":6477:6495   */\n      add\n        /* \"#utility.yul\":6464:6496   */\n      calldataload\n        /* \"#utility.yul\":6523:6541   */\n      0xffffffffffffffff\n        /* \"#utility.yul\":6515:6521   */\n      dup2\n        /* \"#utility.yul\":6512:6542   */\n      gt\n        /* \"#utility.yul\":6509:6626   */\n      iszero\n      tag_181\n      jumpi\n        /* \"#utility.yul\":6545:6624   */\n      tag_182\n      tag_62\n      jump\t// in\n    tag_182:\n        /* \"#utility.yul\":6509:6626   */\n    tag_181:\n        /* \"#utility.yul\":6650:6713   */\n      tag_183\n        /* \"#utility.yul\":6705:6712   */\n      dup7\n        /* \"#utility.yul\":6696:6702   */\n      dup3\n        /* \"#utility.yul\":6685:6694   */\n      dup8\n        /* \"#utility.yul\":6681:6703   */\n      add\n        /* \"#utility.yul\":6650:6713   */\n      tag_85\n      jump\t// in\n    tag_183:\n        /* \"#utility.yul\":6640:6713   */\n      swap3\n      pop\n        /* \"#utility.yul\":6435:6723   */\n      pop\n        /* \"#utility.yul\":6762:6764   */\n      0x40\n        /* \"#utility.yul\":6788:6841   */\n      tag_184\n        /* \"#utility.yul\":6833:6840   */\n      dup7\n        /* \"#utility.yul\":6824:6830   */\n      dup3\n        /* \"#utility.yul\":6813:6822   */\n      dup8\n        /* \"#utility.yul\":6809:6831   */\n      add\n        /* \"#utility.yul\":6788:6841   */\n      tag_69\n      jump\t// in\n    tag_184:\n        /* \"#utility.yul\":6778:6841   */\n      swap2\n      pop\n        /* \"#utility.yul\":6733:6851   */\n      pop\n        /* \"#utility.yul\":6059:6858   */\n      swap3\n      pop\n      swap3\n      pop\n      swap3\n      jump\t// out\n        /* \"#utility.yul\":6864:7044   */\n    tag_86:\n        /* \"#utility.yul\":6912:6989   */\n      0x4e487b7100000000000000000000000000000000000000000000000000000000\n        /* \"#utility.yul\":6909:6910   */\n      0x00\n        /* \"#utility.yul\":6902:6990   */\n      mstore\n        /* \"#utility.yul\":7009:7013   */\n      0x22\n        /* \"#utility.yul\":7006:7007   */\n      0x04\n        /* \"#utility.yul\":6999:7014   */\n      mstore\n        /* \"#utility.yul\":7033:7037   */\n      0x24\n        /* \"#utility.yul\":7030:7031   */\n      0x00\n        /* \"#utility.yul\":7023:7038   */\n      revert\n        /* \"#utility.yul\":7050:7370   */\n    tag_34:\n        /* \"#utility.yul\":7094:7100   */\n      0x00\n        /* \"#utility.yul\":7131:7132   */\n      0x02\n        /* \"#utility.yul\":7125:7129   */\n      dup3\n        /* \"#utility.yul\":7121:7133   */\n      div\n        /* \"#utility.yul\":7111:7133   */\n      swap1\n      pop\n        /* \"#utility.yul\":7178:7179   */\n      0x01\n        /* \"#utility.yul\":7172:7176   */\n      dup3\n        /* \"#utility.yul\":7168:7180   */\n      and\n        /* \"#utility.yul\":7199:7217   */\n      dup1\n        /* \"#utility.yul\":7189:7270   */\n      tag_187\n      jumpi\n        /* \"#utility.yul\":7255:7259   */\n      0x7f\n        /* \"#utility.yul\":7247:7253   */\n      dup3\n        /* \"#utility.yul\":7243:7260   */\n      and\n        /* \"#utility.yul\":7233:7260   */\n      swap2\n      pop\n        /* \"#utility.yul\":7189:7270   */\n    tag_187:\n        /* \"#utility.yul\":7317:7319   */\n      0x20\n        /* \"#utility.yul\":7309:7315   */\n      dup3\n        /* \"#utility.yul\":7306:7320   */\n      lt\n        /* \"#utility.yul\":7286:7304   */\n      dup2\n        /* \"#utility.yul\":7283:7321   */\n      sub\n        /* \"#utility.yul\":7280:7364   */\n      tag_188\n      jumpi\n        /* \"#utility.yul\":7336:7354   */\n      tag_189\n      tag_86\n      jump\t// in\n    tag_189:\n        /* \"#utility.yul\":7280:7364   */\n    tag_188:\n        /* \"#utility.yul\":7101:7370   */\n      pop\n        /* \"#utility.yul\":7050:7370   */\n      swap2\n      swap1\n      pop\n      jump\t// out\n        /* \"#utility.yul\":7376:7517   */\n    tag_87:\n        /* \"#utility.yul\":7425:7429   */\n      0x00\n        /* \"#utility.yul\":7448:7451   */\n      dup2\n        /* \"#utility.yul\":7440:7451   */\n      swap1\n      pop\n        /* \"#utility.yul\":7471:7474   */\n      dup2\n        /* \"#utility.yul\":7468:7469   */\n      0x00\n        /* \"#utility.yul\":7461:7475   */\n      mstore\n        /* \"#utility.yul\":7505:7509   */\n      0x20\n        /* \"#utility.yul\":7502:7503   */\n      0x00\n        /* \"#utility.yul\":7492:7510   */\n      keccak256\n        /* \"#utility.yul\":7484:7510   */\n      swap1\n      pop\n        /* \"#utility.yul\":7376:7517   */\n      swap2\n      swap1\n      pop\n      jump\t// out\n        /* \"#utility.yul\":7523:7616   */\n    tag_88:\n        /* \"#utility.yul\":7560:7566   */\n      0x00\n        /* \"#utility.yul\":7607:7609   */\n      0x20\n        /* \"#utility.yul\":7602:7604   */\n      0x1f\n        /* \"#utility.yul\":7595:7600   */\n      dup4\n        /* \"#utility.yul\":7591:7605   */\n      add\n        /* \"#utility.yul\":7587:7610   */\n      div\n        /* \"#utility.yul\":7577:7610   */\n      swap1\n      pop\n        /* \"#utility.yul\":7523:7616   */\n      swap2\n      swap1\n      pop\n      jump\t// out\n        /* \"#utility.yul\":7622:7729   */\n    tag_89:\n        /* \"#utility.yul\":7666:7674   */\n      0x00\n        /* \"#utility.yul\":7716:7721   */\n      dup3\n        /* \"#utility.yul\":7710:7714   */\n      dup3\n        /* \"#utility.yul\":7706:7722   */\n      shl\n        /* \"#utility.yul\":7685:7722   */\n      swap1\n      pop\n        /* \"#utility.yul\":7622:7729   */\n      swap3\n      swap2\n      pop\n      pop\n      jump\t// out\n        /* \"#utility.yul\":7735:8128   */\n    tag_90:\n        /* \"#utility.yul\":7804:7810   */\n      0x00\n        /* \"#utility.yul\":7854:7855   */\n      0x08\n        /* \"#utility.yul\":7842:7852   */\n      dup4\n        /* \"#utility.yul\":7838:7856   */\n      mul\n        /* \"#utility.yul\":7877:7974   */\n      tag_194\n        /* \"#utility.yul\":7907:7973   */\n      0xffffffffffffffffffffffffffffffffffffffffffffffffffffffffffffffff\n        /* \"#utility.yul\":7896:7905   */\n      dup3\n        /* \"#utility.yul\":7877:7974   */\n      tag_89\n      jump\t// in\n    tag_194:\n        /* \"#utility.yul\":7995:8034   */\n      tag_195\n        /* \"#utility.yul\":8025:8033   */\n      dup7\n        /* \"#utility.yul\":8014:8023   */\n      dup4\n        /* \"#utility.yul\":7995:8034   */\n      tag_89\n      jump\t// in\n    tag_195:\n        /* \"#utility.yul\":7983:8034   */\n      swap6\n      pop\n        /* \"#utility.yul\":8067:8071   */\n      dup1\n        /* \"#utility.yul\":8063:8072   */\n      not\n        /* \"#utility.yul\":8056:8061   */\n      dup5\n        /* \"#utility.yul\":8052:8073   */\n      and\n        /* \"#utility.yul\":8043:8073   */\n      swap4\n      pop\n        /* \"#utility.yul\":8116:8120   */\n      dup1\n        /* \"#utility.yul\":8106:8114   */\n      dup7\n        /* \"#utility.yul\":8102:8121   */\n      and\n        /* \"#utility.yul\":8095:8100   */\n      dup5\n        /* \"#utility.yul\":8092:8122   */\n      or\n        /* \"#utility.yul\":8082:8122   */\n      swap3\n      pop\n        /* \"#utility.yul\":7811:8128   */\n      pop\n      pop\n        /* \"#utility.yul\":7735:8128   */\n      swap4\n      swap3\n      pop\n      pop\n      pop\n      jump\t// out\n        /* \"#utility.yul\":8134:8194   */\n    tag_91:\n        /* \"#utility.yul\":8162:8165   */\n      0x00\n        /* \"#utility.yul\":8183:8188   */\n      dup2\n        /* \"#utility.yul\":8176:8188   */\n      swap1\n      pop\n        /* \"#utility.yul\":8134:8194   */\n      swap2\n      swap1\n      pop\n      jump\t// out\n        /* \"#utility.yul\":8200:8342   */\n    tag_92:\n        /* \"#utility.yul\":8250:8259   */\n      0x00\n        /* \"#utility.yul\":8283:8336   */\n      tag_198\n        /* \"#utility.yul\":8301:8335   */\n      tag_199\n        /* \"#utility.yul\":8310:8334   */\n      tag_200\n        /* \"#utility.yul\":8328:8333   */\n      dup5\n        /* \"#utility.yul\":8310:8334   */\n      tag_67\n      jump\t// in\n    tag_200:\n        /* \"#utility.yul\":8301:8335   */\n      tag_91\n      jump\t// in\n    tag_199:\n        /* \"#utility.yul\":8283:8336   */\n      tag_67\n      jump\t// in\n    tag_198:\n        /* \"#utility.yul\":8270:8336   */\n      swap1\n      pop\n        /* \"#utility.yul\":8200:8342   */\n      swap2\n      swap1\n      pop\n      jump\t// out\n        /* \"#utility.yul\":8348:8423   */\n    tag_93:\n        /* \"#utility.yul\":8391:8394   */\n      0x00\n        /* \"#utility.yul\":8412:8417   */\n      dup2\n        /* \"#utility.yul\":8405:8417   */\n      swap1\n      pop\n        /* \"#utility.yul\":8348:8423   */\n      swap2\n      swap1\n      pop\n      jump\t// out\n        /* \"#utility.yul\":8429:8698   */\n    tag_94:\n        /* \"#utility.yul\":8539:8578   */\n      tag_203\n        /* \"#utility.yul\":8570:8577   */\n      dup4\n        /* \"#utility.yul\":8539:8578   */\n      tag_92\n      jump\t// in\n    tag_203:\n        /* \"#utility.yul\":8600:8691   */\n      tag_204\n        /* \"#utility.yul\":8649:8690   */\n      tag_205\n        /* \"#utility.yul\":8673:8689   */\n      dup3\n        /* \"#utility.yul\":8649:8690   */\n      tag_93\n      jump\t// in\n    tag_205:\n        /* \"#utility.yul\":8641:8647   */\n      dup5\n        /* \"#utility.yul\":8634:8638   */\n      dup5\n        /* \"#utility.yul\":8628:8639   */\n      sload\n        /* \"#utility.yul\":8600:8691   */\n      tag_90\n      jump\t// in\n    tag_204:\n        /* \"#utility.yul\":8594:8598   */\n      dup3\n        /* \"#utility.yul\":8587:8692   */\n      sstore\n        /* \"#utility.yul\":8505:8698   */\n      pop\n        /* \"#utility.yul\":8429:8698   */\n      pop\n      pop\n      pop\n      jump\t// out\n        /* \"#utility.yul\":8704:8777   */\n    tag_95:\n        /* \"#utility.yul\":8749:8752   */\n      0x00\n        /* \"#utility.yul\":8704:8777   */\n      swap1\n      jump\t// out\n        /* \"#utility.yul\":8783:8972   */\n    tag_96:\n        /* \"#utility.yul\":8860:8892   */\n      tag_208\n      tag_95\n      jump\t// in\n    tag_208:\n        /* \"#utility.yul\":8901:8966   */\n      tag_209\n        /* \"#utility.yul\":8959:8965   */\n      dup2\n        /* \"#utility.yul\":8951:8957   */\n      dup5\n        /* \"#utility.yul\":8945:8949   */\n      dup5\n        /* \"#utility.yul\":8901:8966   */\n      tag_94\n      jump\t// in\n    tag_209:\n        /* \"#utility.yul\":8836:8972   */\n      pop\n        /* \"#utility.yul\":8783:8972   */\n      pop\n      pop\n      jump\t// out\n        /* \"#utility.yul\":8978:9164   */\n    tag_97:\n        /* \"#utility.yul\":9038:9158   */\n    tag_211:\n        /* \"#utility.yul\":9055:9058   */\n      dup2\n        /* \"#utility.yul\":9048:9053   */\n      dup2\n        /* \"#utility.yul\":9045:9059   */\n      lt\n        /* \"#utility.yul\":9038:9158   */\n      iszero\n      tag_213\n      jumpi\n        /* \"#utility.yul\":9109:9148   */\n      tag_214\n        /* \"#utility.yul\":9146:9147   */\n      0x00\n        /* \"#utility.yul\":9139:9144   */\n      dup3\n        /* \"#utility.yul\":9109:9148   */\n      tag_96\n      jump\t// in\n    tag_214:\n        /* \"#utility.yul\":9082:9083   */\n      0x01\n        /* \"#utility.yul\":9075:9080   */\n      dup2\n        /* \"#utility.yul\":9071:9084   */\n      add\n        /* \"#utility.yul\":9062:9084   */\n      swap1\n      pop\n        /* \"#utility.yul\":9038:9158   */\n      jump(tag_211)\n    tag_213:\n        /* \"#utility.yul\":8978:9164   */\n      pop\n      pop\n      jump\t// out\n        /* \"#utility.yul\":9170:9713   */\n    tag_98:\n        /* \"#utility.yul\":9271:9273   */\n      0x1f\n        /* \"#utility.yul\":9266:9269   */\n      dup3\n        /* \"#utility.yul\":9263:9274   */\n      gt\n        /* \"#utility.yul\":9260:9706   */\n      iszero\n      tag_216\n      jumpi\n        /* \"#utility.yul\":9305:9343   */\n      tag_217\n        /* \"#utility.yul\":9337:9342   */\n      dup2\n        /* \"#utility.yul\":9305:9343   */\n      tag_87\n      jump\t// in\n    tag_217:\n        /* \"#utility.yul\":9389:9418   */\n      tag_218\n        /* \"#utility.yul\":9407:9417   */\n      dup5\n        /* \"#utility.yul\":9389:9418   */\n      tag_88\n      jump\t// in\n    tag_218:\n        /* \"#utility.yul\":9379:9387   */\n      dup2\n        /* \"#utility.yul\":9375:9419   */\n      add\n        /* \"#utility.yul\":9572:9574   */\n      0x20\n        /* \"#utility.yul\":9560:9570   */\n      dup6\n        /* \"#utility.yul\":9557:9575   */\n      lt\n        /* \"#utility.yul\":9554:9603   */\n      iszero\n      tag_219\n      jumpi\n        /* \"#utility.yul\":9593:9601   */\n      dup2\n        /* \"#utility.yul\":9578:9601   */\n      swap1\n      pop\n        /* \"#utility.yul\":9554:9603   */\n    tag_219:\n        /* \"#utility.yul\":9616:9696   */\n      tag_220\n        /* \"#utility.yul\":9672:9694   */\n      tag_221\n        /* \"#utility.yul\":9690:9693   */\n      dup6\n        /* \"#utility.yul\":9672:9694   */\n      tag_88\n      jump\t// in\n    tag_221:\n        /* \"#utility.yul\":9662:9670   */\n      dup4\n        /* \"#utility.yul\":9658:9695   */\n      add\n        /* \"#utility.yul\":9645:9656   */\n      dup3\n        /* \"#utility.yul\":9616:9696   */\n      tag_97\n      jump\t// in\n    tag_220:\n        /* \"#utility.yul\":9275:9706   */\n      pop\n      pop\n        /* \"#utility.yul\":9260:9706   */\n    tag_216:\n        /* \"#utility.yul\":9170:9713   */\n      pop\n      pop\n      pop\n      jump\t// out\n        /* \"#utility.yul\":9719:9836   */\n    tag_99:\n        /* \"#utility.yul\":9773:9781   */\n      0x00\n        /* \"#utility.yul\":9823:9828   */\n      dup3\n        /* \"#utility.yul\":9817:9821   */\n      dup3\n        /* \"#utility.yul\":9813:9829   */\n      shr\n        /* \"#utility.yul\":9792:9829   */\n      swap1\n      pop\n        /* \"#utility.yul\":9719:9836   */\n      swap3\n      swap2\n      pop\n      pop\n      jump\t// out\n        /* \"#utility.yul\":9842:10011   */\n    tag_100:\n        /* \"#utility.yul\":9886:9892   */\n      0x00\n        /* \"#utility.yul\":9919:9970   */\n      tag_224\n        /* \"#utility.yul\":9967:9968   */\n      0x00\n        /* \"#utility.yul\":9963:9969   */\n      not\n        /* \"#utility.yul\":9955:9960   */\n      dup5\n        /* \"#utility.yul\":9952:9953   */\n      0x08\n        /* \"#utility.yul\":9948:9961   */\n      mul\n        /* \"#utility.yul\":9919:9970   */\n      tag_99\n      jump\t// in\n    tag_224:\n        /* \"#utility.yul\":9915:9971   */\n      not\n        /* \"#utility.yul\":10000:10004   */\n      dup1\n        /* \"#utility.yul\":9994:9998   */\n      dup4\n        /* \"#utility.yul\":9990:10005   */\n      and\n        /* \"#utility.yul\":9980:10005   */\n      swap2\n      pop\n        /* \"#utility.yul\":9893:10011   */\n      pop\n        /* \"#utility.yul\":9842:10011   */\n      swap3\n      swap2\n      pop\n      pop\n      jump\t// out\n        /* \"#utility.yul\":10016:10311   */\n    tag_101:\n        /* \"#utility.yul\":10092:10096   */\n      0x00\n        /* \"#utility.yul\":10238:10267   */\n      tag_226\n        /* \"#utility.yul\":10263:10266   */\n      dup4\n        /* \"#utility.yul\":10257:10261   */\n      dup4\n        /* \"#utility.yul\":10238:10267   */\n      tag_100\n      jump\t// in\n    tag_226:\n        /* \"#utility.yul\":10230:10267   */\n      swap2\n      pop\n        /* \"#utility.yul\":10300:10303   */\n      dup3\n        /* \"#utility.yul\":10297:10298   */\n      0x02\n        /* \"#utility.yul\":10293:10304   */\n      mul\n        /* \"#utility.yul\":10287:10291   */\n      dup3\n        /* \"#utility.yul\":10284:10305   */\n      or\n        /* \"#utility.yul\":10276:10305   */\n      swap1\n      pop\n        /* \"#utility.yul\":10016:10311   */\n      swap3\n      swap2\n      pop\n      pop\n      jump\t// out\n        /* \"#utility.yul\":10316:11711   */\n    tag_43:\n        /* \"#utility.yul\":10433:10470   */\n      tag_228\n        /* \"#utility.yul\":10466:10469   */\n      dup3\n        /* \"#utility.yul\":10433:10470   */\n      tag_71\n      jump\t// in\n    tag_228:\n        /* \"#utility.yul\":10535:10553   */\n      0xffffffffffffffff\n        /* \"#utility.yul\":10527:10533   */\n      dup2\n        /* \"#utility.yul\":10524:10554   */\n      gt\n        /* \"#utility.yul\":10521:10577   */\n      iszero\n      tag_229\n      jumpi\n        /* \"#utility.yul\":10557:10575   */\n      tag_230\n      tag_79\n      jump\t// in\n    tag_230:\n        /* \"#utility.yul\":10521:10577   */\n    tag_229:\n        /* \"#utility.yul\":10601:10639   */\n      tag_231\n        /* \"#utility.yul\":10633:10637   */\n      dup3\n        /* \"#utility.yul\":10627:10638   */\n      sload\n        /* \"#utility.yul\":10601:10639   */\n      tag_34\n      jump\t// in\n    tag_231:\n        /* \"#utility.yul\":10686:10753   */\n      tag_232\n        /* \"#utility.yul\":10746:10752   */\n      dup3\n        /* \"#utility.yul\":10738:10744   */\n      dup3\n        /* \"#utility.yul\":10732:10736   */\n      dup6\n        /* \"#utility.yul\":10686:10753   */\n      tag_98\n      jump\t// in\n    tag_232:\n        /* \"#utility.yul\":10780:10781   */\n      0x00\n        /* \"#utility.yul\":10804:10808   */\n      0x20\n        /* \"#utility.yul\":10791:10808   */\n      swap1\n      pop\n        /* \"#utility.yul\":10836:10838   */\n      0x1f\n        /* \"#utility.yul\":10828:10834   */\n      dup4\n        /* \"#utility.yul\":10825:10839   */\n      gt\n        /* \"#utility.yul\":10853:10854   */\n      0x01\n        /* \"#utility.yul\":10848:11466   */\n      dup2\n      eq\n      tag_234\n      jumpi\n        /* \"#utility.yul\":11510:11511   */\n      0x00\n        /* \"#utility.yul\":11527:11533   */\n      dup5\n        /* \"#utility.yul\":11524:11601   */\n      iszero\n      tag_235\n      jumpi\n        /* \"#utility.yul\":11576:11585   */\n      dup3\n        /* \"#utility.yul\":11571:11574   */\n      dup8\n        /* \"#utility.yul\":11567:11586   */\n      add\n        /* \"#utility.yul\":11561:11587   */\n      mload\n        /* \"#utility.yul\":11552:11587   */\n      swap1\n      pop\n        /* \"#utility.yul\":11524:11601   */\n    tag_235:\n        /* \"#utility.yul\":11627:11694   */\n      tag_236\n        /* \"#utility.yul\":11687:11693   */\n      dup6\n        /* \"#utility.yul\":11680:11685   */\n      dup3\n        /* \"#utility.yul\":11627:11694   */\n      tag_101\n      jump\t// in\n    tag_236:\n        /* \"#utility.yul\":11621:11625   */\n      dup7\n        /* \"#utility.yul\":11614:11695   */\n      sstore\n        /* \"#utility.yul\":11483:11705   */\n      pop\n        /* \"#utility.yul\":10818:11705   */\n      jump(tag_233)\n        /* \"#utility.yul\":10848:11466   */\n    tag_234:\n        /* \"#utility.yul\":10900:10904   */\n      0x1f\n        /* \"#utility.yul\":10896:10905   */\n      not\n        /* \"#utility.yul\":10888:10894   */\n      dup5\n        /* \"#utility.yul\":10884:10906   */\n      and\n        /* \"#utility.yul\":10934:10971   */\n      tag_237\n        /* \"#utility.yul\":10966:10970   */\n      dup7\n        /* \"#utility.yul\":10934:10971   */\n      tag_87\n      jump\t// in\n    tag_237:\n        /* \"#utility.yul\":10993:10994   */\n      0x00\n        /* \"#utility.yul\":11007:11215   */\n    tag_238:\n        /* \"#utility.yul\":11021:11028   */\n      dup3\n        /* \"#utility.yul\":11018:11019   */\n      dup2\n        /* \"#utility.yul\":11015:11029   */\n      lt\n        /* \"#utility.yul\":11007:11215   */\n      iszero\n      tag_240\n      jumpi\n        /* \"#utility.yul\":11100:11109   */\n      dup5\n        /* \"#utility.yul\":11095:11098   */\n      dup10\n        /* \"#utility.yul\":11091:11110   */\n      add\n        /* \"#utility.yul\":11085:11111   */\n      mload\n        /* \"#utility.yul\":11077:11083   */\n      dup3\n        /* \"#utility.yul\":11070:11112   */\n      sstore\n        /* \"#utility.yul\":11151:11152   */\n      0x01\n        /* \"#utility.yul\":11143:11149   */\n      dup3\n        /* \"#utility.yul\":11139:11153   */\n      add\n        /* \"#utility.yul\":11129:11153   */\n      swap2\n      pop\n        /* \"#utility.yul\":11198:11200   */\n      0x20\n        /* \"#utility.yul\":11187:11196   */\n      dup6\n        /* \"#utility.yul\":11183:11201   */\n      add\n        /* \"#utility.yul\":11170:11201   */\n      swap5\n      pop\n        /* \"#utility.yul\":11044:11048   */\n      0x20\n        /* \"#utility.yul\":11041:11042   */\n      dup2\n        /* \"#utility.yul\":11037:11049   */\n      add\n        /* \"#utility.yul\":11032:11049   */\n      swap1\n      pop\n        /* \"#utility.yul\":11007:11215   */\n      jump(tag_238)\n    tag_240:\n        /* \"#utility.yul\":11243:11249   */\n      dup7\n        /* \"#utility.yul\":11234:11241   */\n      dup4\n        /* \"#utility.yul\":11231:11250   */\n      lt\n        /* \"#utility.yul\":11228:11407   */\n      iszero\n      tag_241\n      jumpi\n        /* \"#utility.yul\":11301:11310   */\n      dup5\n        /* \"#utility.yul\":11296:11299   */\n      dup10\n        /* \"#utility.yul\":11292:11311   */\n      add\n        /* \"#utility.yul\":11286:11312   */\n      mload\n        /* \"#utility.yul\":11344:11392   */\n      tag_242\n        /* \"#utility.yul\":11386:11390   */\n      0x1f\n        /* \"#utility.yul\":11378:11384   */\n      dup10\n        /* \"#utility.yul\":11374:11391   */\n      and\n        /* \"#utility.yul\":11363:11372   */\n      dup3\n        /* \"#utility.yul\":11344:11392   */\n      tag_100\n      jump\t// in\n    tag_242:\n        /* \"#utility.yul\":11336:11342   */\n      dup4\n        /* \"#utility.yul\":11329:11393   */\n      sstore\n        /* \"#utility.yul\":11251:11407   */\n      pop\n        /* \"#utility.yul\":11228:11407   */\n    tag_241:\n        /* \"#utility.yul\":11453:11454   */\n      0x01\n        /* \"#utility.yul\":11449:11450   */\n      0x02\n        /* \"#utility.yul\":11441:11447   */\n      dup9\n        /* \"#utility.yul\":11437:11451   */\n      mul\n        /* \"#utility.yul\":11433:11455   */\n      add\n        /* \"#utility.yul\":11427:11431   */\n      dup9\n        /* \"#utility.yul\":11420:11456   */\n      sstore\n        /* \"#utility.yul\":10855:11466   */\n      pop\n      pop\n      pop\n        /* \"#utility.yul\":10818:11705   */\n    tag_233:\n      pop\n        /* \"#utility.yul\":10408:11711   */\n      pop\n      pop\n      pop\n        /* \"#utility.yul\":10316:11711   */\n      pop\n      pop\n      jump\t// out\n        /* \"#utility.yul\":11717:11897   */\n    tag_50:\n        /* \"#utility.yul\":11765:11842   */\n      0x4e487b7100000000000000000000000000000000000000000000000000000000\n        /* \"#utility.yul\":11762:11763   */\n      0x00\n        /* \"#utility.yul\":11755:11843   */\n      mstore\n        /* \"#utility.yul\":11862:11866   */\n      0x32\n        /* \"#utility.yul\":11859:11860   */\n      0x04\n        /* \"#utility.yul\":11852:11867   */\n      mstore\n        /* \"#utility.yul\":11886:11890   */\n      0x24\n        /* \"#utility.yul\":11883:11884   */\n      0x00\n        /* \"#utility.yul\":11876:11891   */\n      revert\n        /* \"#utility.yul\":11903:12083   */\n    tag_102:\n        /* \"#utility.yul\":11951:12028   */\n      0x4e487b7100000000000000000000000000000000000000000000000000000000\n        /* \"#utility.yul\":11948:11949   */\n      0x00\n        /* \"#utility.yul\":11941:12029   */\n      mstore\n        /* \"#utility.yul\":12048:12052   */\n      0x11\n        /* \"#utility.yul\":12045:12046   */\n      0x04\n        /* \"#utility.yul\":12038:12053   */\n      mstore\n        /* \"#utility.yul\":12072:12076   */\n      0x24\n        /* \"#utility.yul\":12069:12070   */\n      0x00\n        /* \"#utility.yul\":12062:12077   */\n      revert\n        /* \"#utility.yul\":12089:12394   */\n    tag_57:\n        /* \"#utility.yul\":12129:12132   */\n      0x00\n        /* \"#utility.yul\":12148:12168   */\n      tag_246\n        /* \"#utility.yul\":12166:12167   */\n      dup3\n        /* \"#utility.yul\":12148:12168   */\n      tag_67\n      jump\t// in\n    tag_246:\n        /* \"#utility.yul\":12143:12168   */\n      swap2\n      pop\n        /* \"#utility.yul\":12182:12202   */\n      tag_247\n        /* \"#utility.yul\":12200:12201   */\n      dup4\n        /* \"#utility.yul\":12182:12202   */\n      tag_67\n      jump\t// in\n    tag_247:\n        /* \"#utility.yul\":12177:12202   */\n      swap3\n      pop\n        /* \"#utility.yul\":12336:12337   */\n      dup3\n        /* \"#utility.yul\":12268:12334   */\n      0xffffffffffffffffffffffffffffffffffffffffffffffffffffffffffffffff\n        /* \"#utility.yul\":12264:12338   */\n      sub\n        /* \"#utility.yul\":12261:12262   */\n      dup3\n        /* \"#utility.yul\":12258:12339   */\n      gt\n        /* \"#utility.yul\":12255:12362   */\n      iszero\n      tag_248\n      jumpi\n        /* \"#utility.yul\":12342:12360   */\n      tag_249\n      tag_102\n      jump\t// in\n    tag_249:\n        /* \"#utility.yul\":12255:12362   */\n    tag_248:\n        /* \"#utility.yul\":12386:12387   */\n      dup3\n        /* \"#utility.yul\":12383:12384   */\n      dup3\n        /* \"#utility.yul\":12379:12388   */\n      add\n        /* \"#utility.yul\":12372:12388   */\n      swap1\n      pop\n        /* \"#utility.yul\":12089:12394   */\n      swap3\n      swap2\n      pop\n      pop\n      jump\t// out\n        /* \"#utility.yul\":12400:12633   */\n    tag_59:\n        /* \"#utility.yul\":12439:12442   */\n      0x00\n        /* \"#utility.yul\":12462:12486   */\n      tag_251\n        /* \"#utility.yul\":12480:12485   */\n      dup3\n        /* \"#utility.yul\":12462:12486   */\n      tag_67\n      jump\t// in\n    tag_251:\n        /* \"#utility.yul\":12453:12486   */\n      swap2\n      pop\n        /* \"#utility.yul\":12508:12574   */\n      0xffffffffffffffffffffffffffffffffffffffffffffffffffffffffffffffff\n        /* \"#utility.yul\":12501:12506   */\n      dup3\n        /* \"#utility.yul\":12498:12575   */\n      sub\n        /* \"#utility.yul\":12495:12598   */\n      tag_252\n      jumpi\n        /* \"#utility.yul\":12578:12596   */\n      tag_253\n      tag_102\n      jump\t// in\n    tag_253:\n        /* \"#utility.yul\":12495:12598   */\n    tag_252:\n        /* \"#utility.yul\":12625:12626   */\n      0x01\n        /* \"#utility.yul\":12618:12623   */\n      dup3\n        /* \"#utility.yul\":12614:12627   */\n      add\n        /* \"#utility.yul\":12607:12627   */\n      swap1\n      pop\n        /* \"#utility.yul\":12400:12633   */\n      swap2\n      swap1\n      pop\n      jump\t// out\n\n    auxdata: 0xa2646970667358221220877287bb667b8bc4d275242f434a2cafb80dfb8789fbf56c484c2542cb8e73c064736f6c634300080f0033\n}\n",
				"bytecode": {
					"linkReferences": {},
					"object": "608060405234801561001057600080fd5b50336000806101000a81548173ffffffffffffffffffffffffffffffffffffffff021916908373ffffffffffffffffffffffffffffffffffffffff160217905550610b66806100606000396000f3fe60806040526004361061003f5760003560e01c80631a69523014610044578063365b98b21461006057806370a082311461009f578063f0384fb6146100dc575b600080fd5b61005e60048036038101906100599190610412565b610105565b005b34801561006c57600080fd5b5061008760048036038101906100829190610475565b610111565b60405161009693929190610559565b60405180910390f35b3480156100ab57600080fd5b506100c660048036038101906100c19190610412565b6101f3565b6040516100d39190610597565b60405180910390f35b3480156100e857600080fd5b5061010360048036038101906100fe91906106e7565b6101fa565b005b61010e816102c4565b50565b6001818154811061012157600080fd5b90600052602060002090600302016000915090508060000160009054906101000a900473ffffffffffffffffffffffffffffffffffffffff169080600101805461016a90610785565b80601f016020809104026020016040519081016040528092919081815260200182805461019690610785565b80156101e35780601f106101b8576101008083540402835291602001916101e3565b820191906000526020600020905b8154815290600101906020018083116101c657829003601f168201915b5050505050908060020154905083565b6000919050565b600160405180606001604052808573ffffffffffffffffffffffffffffffffffffffff16815260200184815260200183815250908060018154018082558091505060019003906000526020600020906003020160009091909190915060008201518160000160006101000a81548173ffffffffffffffffffffffffffffffffffffffff021916908373ffffffffffffffffffffffffffffffffffffffff16021790555060208201518160010190816102b29190610962565b50604082015181600201555050505050565b60005b60018054905081101561039c578173ffffffffffffffffffffffffffffffffffffffff16600182815481106102ff576102fe610a34565b5b906000526020600020906003020160000160009054906101000a900473ffffffffffffffffffffffffffffffffffffffff1673ffffffffffffffffffffffffffffffffffffffff160361038957346001828154811061036157610360610a34565b5b906000526020600020906003020160020160008282546103819190610a92565b925050819055505b808061039490610ae8565b9150506102c7565b5050565b6000604051905090565b600080fd5b600080fd5b600073ffffffffffffffffffffffffffffffffffffffff82169050919050565b60006103df826103b4565b9050919050565b6103ef816103d4565b81146103fa57600080fd5b50565b60008135905061040c816103e6565b92915050565b600060208284031215610428576104276103aa565b5b6000610436848285016103fd565b91505092915050565b6000819050919050565b6104528161043f565b811461045d57600080fd5b50565b60008135905061046f81610449565b92915050565b60006020828403121561048b5761048a6103aa565b5b600061049984828501610460565b91505092915050565b6104ab816103d4565b82525050565b600081519050919050565b600082825260208201905092915050565b60005b838110156104eb5780820151818401526020810190506104d0565b838111156104fa576000848401525b50505050565b6000601f19601f8301169050919050565b600061051c826104b1565b61052681856104bc565b93506105368185602086016104cd565b61053f81610500565b840191505092915050565b6105538161043f565b82525050565b600060608201905061056e60008301866104a2565b81810360208301526105808185610511565b905061058f604083018461054a565b949350505050565b60006020820190506105ac600083018461054a565b92915050565b600080fd5b600080fd5b7f4e487b7100000000000000000000000000000000000000000000000000000000600052604160045260246000fd5b6105f482610500565b810181811067ffffffffffffffff82111715610613576106126105bc565b5b80604052505050565b60006106266103a0565b905061063282826105eb565b919050565b600067ffffffffffffffff821115610652576106516105bc565b5b61065b82610500565b9050602081019050919050565b82818337600083830152505050565b600061068a61068584610637565b61061c565b9050828152602081018484840111156106a6576106a56105b7565b5b6106b1848285610668565b509392505050565b600082601f8301126106ce576106cd6105b2565b5b81356106de848260208601610677565b91505092915050565b600080600060608486031215610700576106ff6103aa565b5b600061070e868287016103fd565b935050602084013567ffffffffffffffff81111561072f5761072e6103af565b5b61073b868287016106b9565b925050604061074c86828701610460565b9150509250925092565b7f4e487b7100000000000000000000000000000000000000000000000000000000600052602260045260246000fd5b6000600282049050600182168061079d57607f821691505b6020821081036107b0576107af610756565b5b50919050565b60008190508160005260206000209050919050565b60006020601f8301049050919050565b600082821b905092915050565b6000600883026108187fffffffffffffffffffffffffffffffffffffffffffffffffffffffffffffffff826107db565b61082286836107db565b95508019841693508086168417925050509392505050565b6000819050919050565b600061085f61085a6108558461043f565b61083a565b61043f565b9050919050565b6000819050919050565b61087983610844565b61088d61088582610866565b8484546107e8565b825550505050565b600090565b6108a2610895565b6108ad818484610870565b505050565b5b818110156108d1576108c660008261089a565b6001810190506108b3565b5050565b601f821115610916576108e7816107b6565b6108f0846107cb565b810160208510156108ff578190505b61091361090b856107cb565b8301826108b2565b50505b505050565b600082821c905092915050565b60006109396000198460080261091b565b1980831691505092915050565b60006109528383610928565b9150826002028217905092915050565b61096b826104b1565b67ffffffffffffffff811115610984576109836105bc565b5b61098e8254610785565b6109998282856108d5565b600060209050601f8311600181146109cc57600084156109ba578287015190505b6109c48582610946565b865550610a2c565b601f1984166109da866107b6565b60005b82811015610a02578489015182556001820191506020850194506020810190506109dd565b86831015610a1f5784890151610a1b601f891682610928565b8355505b6001600288020188555050505b505050505050565b7f4e487b7100000000000000000000000000000000000000000000000000000000600052603260045260246000fd5b7f4e487b7100000000000000000000000000000000000000000000000000000000600052601160045260246000fd5b6000610a9d8261043f565b9150610aa88361043f565b9250827fffffffffffffffffffffffffffffffffffffffffffffffffffffffffffffffff03821115610add57610adc610a63565b5b828201905092915050565b6000610af38261043f565b91507fffffffffffffffffffffffffffffffffffffffffffffffffffffffffffffffff8203610b2557610b24610a63565b5b60018201905091905056fea2646970667358221220877287bb667b8bc4d275242f434a2cafb80dfb8789fbf56c484c2542cb8e73c064736f6c634300080f0033",
					"opcodes": "PUSH1 0x80 PUSH1 0x40 MSTORE CALLVALUE DUP1 ISZERO PUSH2 0x10 JUMPI PUSH1 0x0 DUP1 REVERT JUMPDEST POP CALLER PUSH1 0x0 DUP1 PUSH2 0x100 EXP DUP2 SLOAD DUP2 PUSH20 0xFFFFFFFFFFFFFFFFFFFFFFFFFFFFFFFFFFFFFFFF MUL NOT AND SWAP1 DUP4 PUSH20 0xFFFFFFFFFFFFFFFFFFFFFFFFFFFFFFFFFFFFFFFF AND MUL OR SWAP1 SSTORE POP PUSH2 0xB66 DUP1 PUSH2 0x60 PUSH1 0x0 CODECOPY PUSH1 0x0 RETURN INVALID PUSH1 0x80 PUSH1 0x40 MSTORE PUSH1 0x4 CALLDATASIZE LT PUSH2 0x3F JUMPI PUSH1 0x0 CALLDATALOAD PUSH1 0xE0 SHR DUP1 PUSH4 0x1A695230 EQ PUSH2 0x44 JUMPI DUP1 PUSH4 0x365B98B2 EQ PUSH2 0x60 JUMPI DUP1 PUSH4 0x70A08231 EQ PUSH2 0x9F JUMPI DUP1 PUSH4 0xF0384FB6 EQ PUSH2 0xDC JUMPI JUMPDEST PUSH1 0x0 DUP1 REVERT JUMPDEST PUSH2 0x5E PUSH1 0x4 DUP1 CALLDATASIZE SUB DUP2 ADD SWAP1 PUSH2 0x59 SWAP2 SWAP1 PUSH2 0x412 JUMP JUMPDEST PUSH2 0x105 JUMP JUMPDEST STOP JUMPDEST CALLVALUE DUP1 ISZERO PUSH2 0x6C JUMPI PUSH1 0x0 DUP1 REVERT JUMPDEST POP PUSH2 0x87 PUSH1 0x4 DUP1 CALLDATASIZE SUB DUP2 ADD SWAP1 PUSH2 0x82 SWAP2 SWAP1 PUSH2 0x475 JUMP JUMPDEST PUSH2 0x111 JUMP JUMPDEST PUSH1 0x40 MLOAD PUSH2 0x96 SWAP4 SWAP3 SWAP2 SWAP1 PUSH2 0x559 JUMP JUMPDEST PUSH1 0x40 MLOAD DUP1 SWAP2 SUB SWAP1 RETURN JUMPDEST CALLVALUE DUP1 ISZERO PUSH2 0xAB JUMPI PUSH1 0x0 DUP1 REVERT JUMPDEST POP PUSH2 0xC6 PUSH1 0x4 DUP1 CALLDATASIZE SUB DUP2 ADD SWAP1 PUSH2 0xC1 SWAP2 SWAP1 PUSH2 0x412 JUMP JUMPDEST PUSH2 0x1F3 JUMP JUMPDEST PUSH1 0x40 MLOAD PUSH2 0xD3 SWAP2 SWAP1 PUSH2 0x597 JUMP JUMPDEST PUSH1 0x40 MLOAD DUP1 SWAP2 SUB SWAP1 RETURN JUMPDEST CALLVALUE DUP1 ISZERO PUSH2 0xE8 JUMPI PUSH1 0x0 DUP1 REVERT JUMPDEST POP PUSH2 0x103 PUSH1 0x4 DUP1 CALLDATASIZE SUB DUP2 ADD SWAP1 PUSH2 0xFE SWAP2 SWAP1 PUSH2 0x6E7 JUMP JUMPDEST PUSH2 0x1FA JUMP JUMPDEST STOP JUMPDEST PUSH2 0x10E DUP2 PUSH2 0x2C4 JUMP JUMPDEST POP JUMP JUMPDEST PUSH1 0x1 DUP2 DUP2 SLOAD DUP2 LT PUSH2 0x121 JUMPI PUSH1 0x0 DUP1 REVERT JUMPDEST SWAP1 PUSH1 0x0 MSTORE PUSH1 0x20 PUSH1 0x0 KECCAK256 SWAP1 PUSH1 0x3 MUL ADD PUSH1 0x0 SWAP2 POP SWAP1 POP DUP1 PUSH1 0x0 ADD PUSH1 0x0 SWAP1 SLOAD SWAP1 PUSH2 0x100 EXP SWAP1 DIV PUSH20 0xFFFFFFFFFFFFFFFFFFFFFFFFFFFFFFFFFFFFFFFF AND SWAP1 DUP1 PUSH1 0x1 ADD DUP1 SLOAD PUSH2 0x16A SWAP1 PUSH2 0x785 JUMP JUMPDEST DUP1 PUSH1 0x1F ADD PUSH1 0x20 DUP1 SWAP2 DIV MUL PUSH1 0x20 ADD PUSH1 0x40 MLOAD SWAP1 DUP2 ADD PUSH1 0x40 MSTORE DUP1 SWAP3 SWAP2 SWAP1 DUP2 DUP2 MSTORE PUSH1 0x20 ADD DUP3 DUP1 SLOAD PUSH2 0x196 SWAP1 PUSH2 0x785 JUMP JUMPDEST DUP1 ISZERO PUSH2 0x1E3 JUMPI DUP1 PUSH1 0x1F LT PUSH2 0x1B8 JUMPI PUSH2 0x100 DUP1 DUP4 SLOAD DIV MUL DUP4 MSTORE SWAP2 PUSH1 0x20 ADD SWAP2 PUSH2 0x1E3 JUMP JUMPDEST DUP3 ADD SWAP2 SWAP1 PUSH1 0x0 MSTORE PUSH1 0x20 PUSH1 0x0 KECCAK256 SWAP1 JUMPDEST DUP2 SLOAD DUP2 MSTORE SWAP1 PUSH1 0x1 ADD SWAP1 PUSH1 0x20 ADD DUP1 DUP4 GT PUSH2 0x1C6 JUMPI DUP3 SWAP1 SUB PUSH1 0x1F AND DUP3 ADD SWAP2 JUMPDEST POP POP POP POP POP SWAP1 DUP1 PUSH1 0x2 ADD SLOAD SWAP1 POP DUP4 JUMP JUMPDEST PUSH1 0x0 SWAP2 SWAP1 POP JUMP JUMPDEST PUSH1 0x1 PUSH1 0x40 MLOAD DUP1 PUSH1 0x60 ADD PUSH1 0x40 MSTORE DUP1 DUP6 PUSH20 0xFFFFFFFFFFFFFFFFFFFFFFFFFFFFFFFFFFFFFFFF AND DUP2 MSTORE PUSH1 0x20 ADD DUP5 DUP2 MSTORE PUSH1 0x20 ADD DUP4 DUP2 MSTORE POP SWAP1 DUP1 PUSH1 0x1 DUP2 SLOAD ADD DUP1 DUP3 SSTORE DUP1 SWAP2 POP POP PUSH1 0x1 SWAP1 SUB SWAP1 PUSH1 0x0 MSTORE PUSH1 0x20 PUSH1 0x0 KECCAK256 SWAP1 PUSH1 0x3 MUL ADD PUSH1 0x0 SWAP1 SWAP2 SWAP1 SWAP2 SWAP1 SWAP2 POP PUSH1 0x0 DUP3 ADD MLOAD DUP2 PUSH1 0x0 ADD PUSH1 0x0 PUSH2 0x100 EXP DUP2 SLOAD DUP2 PUSH20 0xFFFFFFFFFFFFFFFFFFFFFFFFFFFFFFFFFFFFFFFF MUL NOT AND SWAP1 DUP4 PUSH20 0xFFFFFFFFFFFFFFFFFFFFFFFFFFFFFFFFFFFFFFFF AND MUL OR SWAP1 SSTORE POP PUSH1 0x20 DUP3 ADD MLOAD DUP2 PUSH1 0x1 ADD SWAP1 DUP2 PUSH2 0x2B2 SWAP2 SWAP1 PUSH2 0x962 JUMP JUMPDEST POP PUSH1 0x40 DUP3 ADD MLOAD DUP2 PUSH1 0x2 ADD SSTORE POP POP POP POP POP JUMP JUMPDEST PUSH1 0x0 JUMPDEST PUSH1 0x1 DUP1 SLOAD SWAP1 POP DUP2 LT ISZERO PUSH2 0x39C JUMPI DUP2 PUSH20 0xFFFFFFFFFFFFFFFFFFFFFFFFFFFFFFFFFFFFFFFF AND PUSH1 0x1 DUP3 DUP2 SLOAD DUP2 LT PUSH2 0x2FF JUMPI PUSH2 0x2FE PUSH2 0xA34 JUMP JUMPDEST JUMPDEST SWAP1 PUSH1 0x0 MSTORE PUSH1 0x20 PUSH1 0x0 KECCAK256 SWAP1 PUSH1 0x3 MUL ADD PUSH1 0x0 ADD PUSH1 0x0 SWAP1 SLOAD SWAP1 PUSH2 0x100 EXP SWAP1 DIV PUSH20 0xFFFFFFFFFFFFFFFFFFFFFFFFFFFFFFFFFFFFFFFF AND PUSH20 0xFFFFFFFFFFFFFFFFFFFFFFFFFFFFFFFFFFFFFFFF AND SUB PUSH2 0x389 JUMPI CALLVALUE PUSH1 0x1 DUP3 DUP2 SLOAD DUP2 LT PUSH2 0x361 JUMPI PUSH2 0x360 PUSH2 0xA34 JUMP JUMPDEST JUMPDEST SWAP1 PUSH1 0x0 MSTORE PUSH1 0x20 PUSH1 0x0 KECCAK256 SWAP1 PUSH1 0x3 MUL ADD PUSH1 0x2 ADD PUSH1 0x0 DUP3 DUP3 SLOAD PUSH2 0x381 SWAP2 SWAP1 PUSH2 0xA92 JUMP JUMPDEST SWAP3 POP POP DUP2 SWAP1 SSTORE POP JUMPDEST DUP1 DUP1 PUSH2 0x394 SWAP1 PUSH2 0xAE8 JUMP JUMPDEST SWAP2 POP POP PUSH2 0x2C7 JUMP JUMPDEST POP POP JUMP JUMPDEST PUSH1 0x0 PUSH1 0x40 MLOAD SWAP1 POP SWAP1 JUMP JUMPDEST PUSH1 0x0 DUP1 REVERT JUMPDEST PUSH1 0x0 DUP1 REVERT JUMPDEST PUSH1 0x0 PUSH20 0xFFFFFFFFFFFFFFFFFFFFFFFFFFFFFFFFFFFFFFFF DUP3 AND SWAP1 POP SWAP2 SWAP1 POP JUMP JUMPDEST PUSH1 0x0 PUSH2 0x3DF DUP3 PUSH2 0x3B4 JUMP JUMPDEST SWAP1 POP SWAP2 SWAP1 POP JUMP JUMPDEST PUSH2 0x3EF DUP2 PUSH2 0x3D4 JUMP JUMPDEST DUP2 EQ PUSH2 0x3FA JUMPI PUSH1 0x0 DUP1 REVERT JUMPDEST POP JUMP JUMPDEST PUSH1 0x0 DUP2 CALLDATALOAD SWAP1 POP PUSH2 0x40C DUP2 PUSH2 0x3E6 JUMP JUMPDEST SWAP3 SWAP2 POP POP JUMP JUMPDEST PUSH1 0x0 PUSH1 0x20 DUP3 DUP5 SUB SLT ISZERO PUSH2 0x428 JUMPI PUSH2 0x427 PUSH2 0x3AA JUMP JUMPDEST JUMPDEST PUSH1 0x0 PUSH2 0x436 DUP5 DUP3 DUP6 ADD PUSH2 0x3FD JUMP JUMPDEST SWAP2 POP POP SWAP3 SWAP2 POP POP JUMP JUMPDEST PUSH1 0x0 DUP2 SWAP1 POP SWAP2 SWAP1 POP JUMP JUMPDEST PUSH2 0x452 DUP2 PUSH2 0x43F JUMP JUMPDEST DUP2 EQ PUSH2 0x45D JUMPI PUSH1 0x0 DUP1 REVERT JUMPDEST POP JUMP JUMPDEST PUSH1 0x0 DUP2 CALLDATALOAD SWAP1 POP PUSH2 0x46F DUP2 PUSH2 0x449 JUMP JUMPDEST SWAP3 SWAP2 POP POP JUMP JUMPDEST PUSH1 0x0 PUSH1 0x20 DUP3 DUP5 SUB SLT ISZERO PUSH2 0x48B JUMPI PUSH2 0x48A PUSH2 0x3AA JUMP JUMPDEST JUMPDEST PUSH1 0x0 PUSH2 0x499 DUP5 DUP3 DUP6 ADD PUSH2 0x460 JUMP JUMPDEST SWAP2 POP POP SWAP3 SWAP2 POP POP JUMP JUMPDEST PUSH2 0x4AB DUP2 PUSH2 0x3D4 JUMP JUMPDEST DUP3 MSTORE POP POP JUMP JUMPDEST PUSH1 0x0 DUP2 MLOAD SWAP1 POP SWAP2 SWAP1 POP JUMP JUMPDEST PUSH1 0x0 DUP3 DUP3 MSTORE PUSH1 0x20 DUP3 ADD SWAP1 POP SWAP3 SWAP2 POP POP JUMP JUMPDEST PUSH1 0x0 JUMPDEST DUP4 DUP2 LT ISZERO PUSH2 0x4EB JUMPI DUP1 DUP3 ADD MLOAD DUP2 DUP5 ADD MSTORE PUSH1 0x20 DUP2 ADD SWAP1 POP PUSH2 0x4D0 JUMP JUMPDEST DUP4 DUP2 GT ISZERO PUSH2 0x4FA JUMPI PUSH1 0x0 DUP5 DUP5 ADD MSTORE JUMPDEST POP POP POP POP JUMP JUMPDEST PUSH1 0x0 PUSH1 0x1F NOT PUSH1 0x1F DUP4 ADD AND SWAP1 POP SWAP2 SWAP1 POP JUMP JUMPDEST PUSH1 0x0 PUSH2 0x51C DUP3 PUSH2 0x4B1 JUMP JUMPDEST PUSH2 0x526 DUP2 DUP6 PUSH2 0x4BC JUMP JUMPDEST SWAP4 POP PUSH2 0x536 DUP2 DUP6 PUSH1 0x20 DUP7 ADD PUSH2 0x4CD JUMP JUMPDEST PUSH2 0x53F DUP2 PUSH2 0x500 JUMP JUMPDEST DUP5 ADD SWAP2 POP POP SWAP3 SWAP2 POP POP JUMP JUMPDEST PUSH2 0x553 DUP2 PUSH2 0x43F JUMP JUMPDEST DUP3 MSTORE POP POP JUMP JUMPDEST PUSH1 0x0 PUSH1 0x60 DUP3 ADD SWAP1 POP PUSH2 0x56E PUSH1 0x0 DUP4 ADD DUP7 PUSH2 0x4A2 JUMP JUMPDEST DUP2 DUP2 SUB PUSH1 0x20 DUP4 ADD MSTORE PUSH2 0x580 DUP2 DUP6 PUSH2 0x511 JUMP JUMPDEST SWAP1 POP PUSH2 0x58F PUSH1 0x40 DUP4 ADD DUP5 PUSH2 0x54A JUMP JUMPDEST SWAP5 SWAP4 POP POP POP POP JUMP JUMPDEST PUSH1 0x0 PUSH1 0x20 DUP3 ADD SWAP1 POP PUSH2 0x5AC PUSH1 0x0 DUP4 ADD DUP5 PUSH2 0x54A JUMP JUMPDEST SWAP3 SWAP2 POP POP JUMP JUMPDEST PUSH1 0x0 DUP1 REVERT JUMPDEST PUSH1 0x0 DUP1 REVERT JUMPDEST PUSH32 0x4E487B7100000000000000000000000000000000000000000000000000000000 PUSH1 0x0 MSTORE PUSH1 0x41 PUSH1 0x4 MSTORE PUSH1 0x24 PUSH1 0x0 REVERT JUMPDEST PUSH2 0x5F4 DUP3 PUSH2 0x500 JUMP JUMPDEST DUP2 ADD DUP2 DUP2 LT PUSH8 0xFFFFFFFFFFFFFFFF DUP3 GT OR ISZERO PUSH2 0x613 JUMPI PUSH2 0x612 PUSH2 0x5BC JUMP JUMPDEST JUMPDEST DUP1 PUSH1 0x40 MSTORE POP POP POP JUMP JUMPDEST PUSH1 0x0 PUSH2 0x626 PUSH2 0x3A0 JUMP JUMPDEST SWAP1 POP PUSH2 0x632 DUP3 DUP3 PUSH2 0x5EB JUMP JUMPDEST SWAP2 SWAP1 POP JUMP JUMPDEST PUSH1 0x0 PUSH8 0xFFFFFFFFFFFFFFFF DUP3 GT ISZERO PUSH2 0x652 JUMPI PUSH2 0x651 PUSH2 0x5BC JUMP JUMPDEST JUMPDEST PUSH2 0x65B DUP3 PUSH2 0x500 JUMP JUMPDEST SWAP1 POP PUSH1 0x20 DUP2 ADD SWAP1 POP SWAP2 SWAP1 POP JUMP JUMPDEST DUP3 DUP2 DUP4 CALLDATACOPY PUSH1 0x0 DUP4 DUP4 ADD MSTORE POP POP POP JUMP JUMPDEST PUSH1 0x0 PUSH2 0x68A PUSH2 0x685 DUP5 PUSH2 0x637 JUMP JUMPDEST PUSH2 0x61C JUMP JUMPDEST SWAP1 POP DUP3 DUP2 MSTORE PUSH1 0x20 DUP2 ADD DUP5 DUP5 DUP5 ADD GT ISZERO PUSH2 0x6A6 JUMPI PUSH2 0x6A5 PUSH2 0x5B7 JUMP JUMPDEST JUMPDEST PUSH2 0x6B1 DUP5 DUP3 DUP6 PUSH2 0x668 JUMP JUMPDEST POP SWAP4 SWAP3 POP POP POP JUMP JUMPDEST PUSH1 0x0 DUP3 PUSH1 0x1F DUP4 ADD SLT PUSH2 0x6CE JUMPI PUSH2 0x6CD PUSH2 0x5B2 JUMP JUMPDEST JUMPDEST DUP2 CALLDATALOAD PUSH2 0x6DE DUP5 DUP3 PUSH1 0x20 DUP7 ADD PUSH2 0x677 JUMP JUMPDEST SWAP2 POP POP SWAP3 SWAP2 POP POP JUMP JUMPDEST PUSH1 0x0 DUP1 PUSH1 0x0 PUSH1 0x60 DUP5 DUP7 SUB SLT ISZERO PUSH2 0x700 JUMPI PUSH2 0x6FF PUSH2 0x3AA JUMP JUMPDEST JUMPDEST PUSH1 0x0 PUSH2 0x70E DUP7 DUP3 DUP8 ADD PUSH2 0x3FD JUMP JUMPDEST SWAP4 POP POP PUSH1 0x20 DUP5 ADD CALLDATALOAD PUSH8 0xFFFFFFFFFFFFFFFF DUP2 GT ISZERO PUSH2 0x72F JUMPI PUSH2 0x72E PUSH2 0x3AF JUMP JUMPDEST JUMPDEST PUSH2 0x73B DUP7 DUP3 DUP8 ADD PUSH2 0x6B9 JUMP JUMPDEST SWAP3 POP POP PUSH1 0x40 PUSH2 0x74C DUP7 DUP3 DUP8 ADD PUSH2 0x460 JUMP JUMPDEST SWAP2 POP POP SWAP3 POP SWAP3 POP SWAP3 JUMP JUMPDEST PUSH32 0x4E487B7100000000000000000000000000000000000000000000000000000000 PUSH1 0x0 MSTORE PUSH1 0x22 PUSH1 0x4 MSTORE PUSH1 0x24 PUSH1 0x0 REVERT JUMPDEST PUSH1 0x0 PUSH1 0x2 DUP3 DIV SWAP1 POP PUSH1 0x1 DUP3 AND DUP1 PUSH2 0x79D JUMPI PUSH1 0x7F DUP3 AND SWAP2 POP JUMPDEST PUSH1 0x20 DUP3 LT DUP2 SUB PUSH2 0x7B0 JUMPI PUSH2 0x7AF PUSH2 0x756 JUMP JUMPDEST JUMPDEST POP SWAP2 SWAP1 POP JUMP JUMPDEST PUSH1 0x0 DUP2 SWAP1 POP DUP2 PUSH1 0x0 MSTORE PUSH1 0x20 PUSH1 0x0 KECCAK256 SWAP1 POP SWAP2 SWAP1 POP JUMP JUMPDEST PUSH1 0x0 PUSH1 0x20 PUSH1 0x1F DUP4 ADD DIV SWAP1 POP SWAP2 SWAP1 POP JUMP JUMPDEST PUSH1 0x0 DUP3 DUP3 SHL SWAP1 POP SWAP3 SWAP2 POP POP JUMP JUMPDEST PUSH1 0x0 PUSH1 0x8 DUP4 MUL PUSH2 0x818 PUSH32 0xFFFFFFFFFFFFFFFFFFFFFFFFFFFFFFFFFFFFFFFFFFFFFFFFFFFFFFFFFFFFFFFF DUP3 PUSH2 0x7DB JUMP JUMPDEST PUSH2 0x822 DUP7 DUP4 PUSH2 0x7DB JUMP JUMPDEST SWAP6 POP DUP1 NOT DUP5 AND SWAP4 POP DUP1 DUP7 AND DUP5 OR SWAP3 POP POP POP SWAP4 SWAP3 POP POP POP JUMP JUMPDEST PUSH1 0x0 DUP2 SWAP1 POP SWAP2 SWAP1 POP JUMP JUMPDEST PUSH1 0x0 PUSH2 0x85F PUSH2 0x85A PUSH2 0x855 DUP5 PUSH2 0x43F JUMP JUMPDEST PUSH2 0x83A JUMP JUMPDEST PUSH2 0x43F JUMP JUMPDEST SWAP1 POP SWAP2 SWAP1 POP JUMP JUMPDEST PUSH1 0x0 DUP2 SWAP1 POP SWAP2 SWAP1 POP JUMP JUMPDEST PUSH2 0x879 DUP4 PUSH2 0x844 JUMP JUMPDEST PUSH2 0x88D PUSH2 0x885 DUP3 PUSH2 0x866 JUMP JUMPDEST DUP5 DUP5 SLOAD PUSH2 0x7E8 JUMP JUMPDEST DUP3 SSTORE POP POP POP POP JUMP JUMPDEST PUSH1 0x0 SWAP1 JUMP JUMPDEST PUSH2 0x8A2 PUSH2 0x895 JUMP JUMPDEST PUSH2 0x8AD DUP2 DUP5 DUP5 PUSH2 0x870 JUMP JUMPDEST POP POP POP JUMP JUMPDEST JUMPDEST DUP2 DUP2 LT ISZERO PUSH2 0x8D1 JUMPI PUSH2 0x8C6 PUSH1 0x0 DUP3 PUSH2 0x89A JUMP JUMPDEST PUSH1 0x1 DUP2 ADD SWAP1 POP PUSH2 0x8B3 JUMP JUMPDEST POP POP JUMP JUMPDEST PUSH1 0x1F DUP3 GT ISZERO PUSH2 0x916 JUMPI PUSH2 0x8E7 DUP2 PUSH2 0x7B6 JUMP JUMPDEST PUSH2 0x8F0 DUP5 PUSH2 0x7CB JUMP JUMPDEST DUP2 ADD PUSH1 0x20 DUP6 LT ISZERO PUSH2 0x8FF JUMPI DUP2 SWAP1 POP JUMPDEST PUSH2 0x913 PUSH2 0x90B DUP6 PUSH2 0x7CB JUMP JUMPDEST DUP4 ADD DUP3 PUSH2 0x8B2 JUMP JUMPDEST POP POP JUMPDEST POP POP POP JUMP JUMPDEST PUSH1 0x0 DUP3 DUP3 SHR SWAP1 POP SWAP3 SWAP2 POP POP JUMP JUMPDEST PUSH1 0x0 PUSH2 0x939 PUSH1 0x0 NOT DUP5 PUSH1 0x8 MUL PUSH2 0x91B JUMP JUMPDEST NOT DUP1 DUP4 AND SWAP2 POP POP SWAP3 SWAP2 POP POP JUMP JUMPDEST PUSH1 0x0 PUSH2 0x952 DUP4 DUP4 PUSH2 0x928 JUMP JUMPDEST SWAP2 POP DUP3 PUSH1 0x2 MUL DUP3 OR SWAP1 POP SWAP3 SWAP2 POP POP JUMP JUMPDEST PUSH2 0x96B DUP3 PUSH2 0x4B1 JUMP JUMPDEST PUSH8 0xFFFFFFFFFFFFFFFF DUP2 GT ISZERO PUSH2 0x984 JUMPI PUSH2 0x983 PUSH2 0x5BC JUMP JUMPDEST JUMPDEST PUSH2 0x98E DUP3 SLOAD PUSH2 0x785 JUMP JUMPDEST PUSH2 0x999 DUP3 DUP3 DUP6 PUSH2 0x8D5 JUMP JUMPDEST PUSH1 0x0 PUSH1 0x20 SWAP1 POP PUSH1 0x1F DUP4 GT PUSH1 0x1 DUP2 EQ PUSH2 0x9CC JUMPI PUSH1 0x0 DUP5 ISZERO PUSH2 0x9BA JUMPI DUP3 DUP8 ADD MLOAD SWAP1 POP JUMPDEST PUSH2 0x9C4 DUP6 DUP3 PUSH2 0x946 JUMP JUMPDEST DUP7 SSTORE POP PUSH2 0xA2C JUMP JUMPDEST PUSH1 0x1F NOT DUP5 AND PUSH2 0x9DA DUP7 PUSH2 0x7B6 JUMP JUMPDEST PUSH1 0x0 JUMPDEST DUP3 DUP2 LT ISZERO PUSH2 0xA02 JUMPI DUP5 DUP10 ADD MLOAD DUP3 SSTORE PUSH1 0x1 DUP3 ADD SWAP2 POP PUSH1 0x20 DUP6 ADD SWAP5 POP PUSH1 0x20 DUP2 ADD SWAP1 POP PUSH2 0x9DD JUMP JUMPDEST DUP7 DUP4 LT ISZERO PUSH2 0xA1F JUMPI DUP5 DUP10 ADD MLOAD PUSH2 0xA1B PUSH1 0x1F DUP10 AND DUP3 PUSH2 0x928 JUMP JUMPDEST DUP4 SSTORE POP JUMPDEST PUSH1 0x1 PUSH1 0x2 DUP9 MUL ADD DUP9 SSTORE POP POP POP JUMPDEST POP POP POP POP POP POP JUMP JUMPDEST PUSH32 0x4E487B7100000000000000000000000000000000000000000000000000000000 PUSH1 0x0 MSTORE PUSH1 0x32 PUSH1 0x4 MSTORE PUSH1 0x24 PUSH1 0x0 REVERT JUMPDEST PUSH32 0x4E487B7100000000000000000000000000000000000000000000000000000000 PUSH1 0x0 MSTORE PUSH1 0x11 PUSH1 0x4 MSTORE PUSH1 0x24 PUSH1 0x0 REVERT JUMPDEST PUSH1 0x0 PUSH2 0xA9D DUP3 PUSH2 0x43F JUMP JUMPDEST SWAP2 POP PUSH2 0xAA8 DUP4 PUSH2 0x43F JUMP JUMPDEST SWAP3 POP DUP3 PUSH32 0xFFFFFFFFFFFFFFFFFFFFFFFFFFFFFFFFFFFFFFFFFFFFFFFFFFFFFFFFFFFFFFFF SUB DUP3 GT ISZERO PUSH2 0xADD JUMPI PUSH2 0xADC PUSH2 0xA63 JUMP JUMPDEST JUMPDEST DUP3 DUP3 ADD SWAP1 POP SWAP3 SWAP2 POP POP JUMP JUMPDEST PUSH1 0x0 PUSH2 0xAF3 DUP3 PUSH2 0x43F JUMP JUMPDEST SWAP2 POP PUSH32 0xFFFFFFFFFFFFFFFFFFFFFFFFFFFFFFFFFFFFFFFFFFFFFFFFFFFFFFFFFFFFFFFF DUP3 SUB PUSH2 0xB25 JUMPI PUSH2 0xB24 PUSH2 0xA63 JUMP JUMPDEST JUMPDEST PUSH1 0x1 DUP3 ADD SWAP1 POP SWAP2 SWAP1 POP JUMP INVALID LOG2 PUSH5 0x6970667358 0x22 SLT KECCAK256 DUP8 PUSH19 0x87BB667B8BC4D275242F434A2CAFB80DFB8789 0xFB CREATE2 PUSH13 0x484C2542CB8E73C064736F6C63 NUMBER STOP ADDMOD 0xF STOP CALLER "
				},
				"gasEstimates": {
					"creation": {
						"codeDepositCost": "583600",
						"executionCost": "24885",
						"totalCost": "608485"
					},
					"external": {
						"addUser(address,string,uint256)": "infinite",
						"balanceOf(address)": "665",
						"transfer(address)": "infinite",
						"users(uint256)": "infinite"
					},
					"internal": {
						"transferToAddress(address)": "infinite"
					}
				},
				"methodIdentifiers": {
					"addUser(address,string,uint256)": "f0384fb6",
					"balanceOf(address)": "70a08231",
					"transfer(address)": "1a695230",
					"users(uint256)": "365b98b2"
				}
			},
			"storageLayout": {
				"storage": [
					{
						"astId": 3,
						"contract": "contracts/Test1.sol:Test1",
						"label": "owner",
						"offset": 0,
						"slot": "0",
						"type": "t_address"
					},
					{
						"astId": 23,
						"contract": "contracts/Test1.sol:Test1",
						"label": "users",
						"offset": 0,
						"slot": "1",
						"type": "t_array(t_struct(User)19_storage)dyn_storage"
					}
				],
				"types": {
					"t_address": {
						"encoding": "inplace",
						"label": "address",
						"numberOfBytes": "20"
					},
					"t_array(t_struct(User)19_storage)dyn_storage": {
						"base": "t_struct(User)19_storage",
						"encoding": "dynamic_array",
						"label": "struct Test1.User[]",
						"numberOfBytes": "32"
					},
					"t_string_storage": {
						"encoding": "bytes",
						"label": "string",
						"numberOfBytes": "32"
					},
					"t_struct(User)19_storage": {
						"encoding": "inplace",
						"label": "struct Test1.User",
						"members": [
							{
								"astId": 14,
								"contract": "contracts/Test1.sol:Test1",
								"label": "walletAddress",
								"offset": 0,
								"slot": "0",
								"type": "t_address"
							},
							{
								"astId": 16,
								"contract": "contracts/Test1.sol:Test1",
								"label": "name",
								"offset": 0,
								"slot": "1",
								"type": "t_string_storage"
							},
							{
								"astId": 18,
								"contract": "contracts/Test1.sol:Test1",
								"label": "amount",
								"offset": 0,
								"slot": "2",
								"type": "t_uint256"
							}
						],
						"numberOfBytes": "96"
					},
					"t_uint256": {
						"encoding": "inplace",
						"label": "uint256",
						"numberOfBytes": "32"
					}
				}
			},
			"userdoc": {
				"kind": "user",
				"methods": {},
				"version": 1
			}
		}
	}
}