{
	"contracts/Test1.sol": {
		"Test1": {
			"abi": [
				{
					"inputs": [],
					"stateMutability": "nonpayable",
					"type": "constructor"
				},
				{
					"inputs": [
						{
							"internalType": "address",
							"name": "walletAddress",
							"type": "address"
						}
					],
					"name": "addToInvestors",
					"outputs": [],
					"stateMutability": "nonpayable",
					"type": "function"
				},
				{
					"inputs": [
						{
							"internalType": "address",
							"name": "walletAddress",
							"type": "address"
						},
						{
							"internalType": "string",
							"name": "name",
							"type": "string"
						},
						{
							"internalType": "uint256",
							"name": "amount",
							"type": "uint256"
						},
						{
							"internalType": "bool",
							"name": "isInvestor",
							"type": "bool"
						}
					],
					"name": "addUser",
					"outputs": [],
					"stateMutability": "nonpayable",
					"type": "function"
				},
				{
					"inputs": [
						{
							"internalType": "address",
							"name": "walletAddress",
							"type": "address"
						}
					],
					"name": "balanceOf",
					"outputs": [
						{
							"internalType": "uint256",
							"name": "",
							"type": "uint256"
						}
					],
					"stateMutability": "view",
					"type": "function"
				},
				{
					"inputs": [
						{
							"internalType": "address",
							"name": "walletAddress",
							"type": "address"
						}
					],
					"name": "getUserByAddress",
					"outputs": [
						{
							"components": [
								{
									"internalType": "address",
									"name": "walletAddress",
									"type": "address"
								},
								{
									"internalType": "string",
									"name": "name",
									"type": "string"
								},
								{
									"internalType": "uint256",
									"name": "amount",
									"type": "uint256"
								},
								{
									"internalType": "bool",
									"name": "isInvestor",
									"type": "bool"
								}
							],
							"internalType": "struct Test1.User",
							"name": "user",
							"type": "tuple"
						}
					],
					"stateMutability": "nonpayable",
					"type": "function"
				},
				{
					"inputs": [
						{
							"internalType": "address",
							"name": "walletAddress",
							"type": "address"
						}
					],
					"name": "investorPermission",
					"outputs": [
						{
							"internalType": "bool",
							"name": "",
							"type": "bool"
						}
					],
					"stateMutability": "nonpayable",
					"type": "function"
				},
				{
					"inputs": [
						{
							"internalType": "address",
							"name": "",
							"type": "address"
						}
					],
					"name": "investors",
					"outputs": [
						{
							"internalType": "address",
							"name": "walletAddress",
							"type": "address"
						},
						{
							"internalType": "string",
							"name": "name",
							"type": "string"
						},
						{
							"internalType": "uint256",
							"name": "amount",
							"type": "uint256"
						},
						{
							"internalType": "bool",
							"name": "isInvestor",
							"type": "bool"
						}
					],
					"stateMutability": "view",
					"type": "function"
				},
				{
					"inputs": [
						{
							"internalType": "address",
							"name": "walletAddress",
							"type": "address"
						}
					],
					"name": "transfer",
					"outputs": [],
					"stateMutability": "payable",
					"type": "function"
				},
				{
					"inputs": [
						{
							"internalType": "string",
							"name": "key",
							"type": "string"
						}
					],
					"name": "userExists",
					"outputs": [
						{
							"internalType": "bool",
							"name": "",
							"type": "bool"
						}
					],
					"stateMutability": "view",
					"type": "function"
				},
				{
					"inputs": [
						{
							"internalType": "uint256",
							"name": "",
							"type": "uint256"
						}
					],
					"name": "users",
					"outputs": [
						{
							"internalType": "address",
							"name": "walletAddress",
							"type": "address"
						},
						{
							"internalType": "string",
							"name": "name",
							"type": "string"
						},
						{
							"internalType": "uint256",
							"name": "amount",
							"type": "uint256"
						},
						{
							"internalType": "bool",
							"name": "isInvestor",
							"type": "bool"
						}
					],
					"stateMutability": "view",
					"type": "function"
				}
			],
			"devdoc": {
				"kind": "dev",
				"methods": {},
				"version": 1
			},
			"evm": {
				"assembly": "    /* \"contracts/Test1.sol\":65:2284  contract Test1{... */\n  mstore(0x40, 0x80)\n    /* \"contracts/Test1.sol\":106:154  constructor(){... */\n  callvalue\n  dup1\n  iszero\n  tag_1\n  jumpi\n  0x00\n  dup1\n  revert\ntag_1:\n  pop\n    /* \"contracts/Test1.sol\":137:147  msg.sender */\n  caller\n    /* \"contracts/Test1.sol\":129:134  owner */\n  0x00\n  dup1\n    /* \"contracts/Test1.sol\":129:147  owner = msg.sender */\n  0x0100\n  exp\n  dup2\n  sload\n  dup2\n  0xffffffffffffffffffffffffffffffffffffffff\n  mul\n  not\n  and\n  swap1\n  dup4\n  0xffffffffffffffffffffffffffffffffffffffff\n  and\n  mul\n  or\n  swap1\n  sstore\n  pop\n    /* \"contracts/Test1.sol\":65:2284  contract Test1{... */\n  dataSize(sub_0)\n  dup1\n  dataOffset(sub_0)\n  0x00\n  codecopy\n  0x00\n  return\nstop\n\nsub_0: assembly {\n        /* \"contracts/Test1.sol\":65:2284  contract Test1{... */\n      mstore(0x40, 0x80)\n      jumpi(tag_1, lt(calldatasize, 0x04))\n      shr(0xe0, calldataload(0x00))\n      dup1\n      0x69c212f6\n      gt\n      tag_11\n      jumpi\n      dup1\n      0x69c212f6\n      eq\n      tag_6\n      jumpi\n      dup1\n      0x6f7bc9be\n      eq\n      tag_7\n      jumpi\n      dup1\n      0x70a08231\n      eq\n      tag_8\n      jumpi\n      dup1\n      0xd7bed4bc\n      eq\n      tag_9\n      jumpi\n      dup1\n      0xfddc968e\n      eq\n      tag_10\n      jumpi\n      jump(tag_1)\n    tag_11:\n      dup1\n      0x1a695230\n      eq\n      tag_2\n      jumpi\n      dup1\n      0x280879e7\n      eq\n      tag_3\n      jumpi\n      dup1\n      0x365b98b2\n      eq\n      tag_4\n      jumpi\n      dup1\n      0x4140eb0d\n      eq\n      tag_5\n      jumpi\n    tag_1:\n      0x00\n      dup1\n      revert\n        /* \"contracts/Test1.sol\":1658:1763  function transfer(address walletAddress) payable public {... */\n    tag_2:\n      tag_12\n      0x04\n      dup1\n      calldatasize\n      sub\n      dup2\n      add\n      swap1\n      tag_13\n      swap2\n      swap1\n      tag_14\n      jump\t// in\n    tag_13:\n      tag_15\n      jump\t// in\n    tag_12:\n      stop\n        /* \"contracts/Test1.sol\":691:871  function addUser(address walletAddress, string memory name, uint amount, bool isInvestor) public onlyOwner{... */\n    tag_3:\n      callvalue\n      dup1\n      iszero\n      tag_16\n      jumpi\n      0x00\n      dup1\n      revert\n    tag_16:\n      pop\n      tag_17\n      0x04\n      dup1\n      calldatasize\n      sub\n      dup2\n      add\n      swap1\n      tag_18\n      swap2\n      swap1\n      tag_19\n      jump\t// in\n    tag_18:\n      tag_20\n      jump\t// in\n    tag_17:\n      stop\n        /* \"contracts/Test1.sol\":618:637  User[] public users */\n    tag_4:\n      callvalue\n      dup1\n      iszero\n      tag_21\n      jumpi\n      0x00\n      dup1\n      revert\n    tag_21:\n      pop\n      tag_22\n      0x04\n      dup1\n      calldatasize\n      sub\n      dup2\n      add\n      swap1\n      tag_23\n      swap2\n      swap1\n      tag_24\n      jump\t// in\n    tag_23:\n      tag_25\n      jump\t// in\n    tag_22:\n      mload(0x40)\n      tag_26\n      swap5\n      swap4\n      swap3\n      swap2\n      swap1\n      tag_27\n      jump\t// in\n    tag_26:\n      mload(0x40)\n      dup1\n      swap2\n      sub\n      swap1\n      return\n        /* \"contracts/Test1.sol\":1396:1566  function investorPermission(address walletAddress) public returns(bool){... */\n    tag_5:\n      callvalue\n      dup1\n      iszero\n      tag_28\n      jumpi\n      0x00\n      dup1\n      revert\n    tag_28:\n      pop\n      tag_29\n      0x04\n      dup1\n      calldatasize\n      sub\n      dup2\n      add\n      swap1\n      tag_30\n      swap2\n      swap1\n      tag_14\n      jump\t// in\n    tag_30:\n      tag_31\n      jump\t// in\n    tag_29:\n      mload(0x40)\n      tag_32\n      swap2\n      swap1\n      tag_33\n      jump\t// in\n    tag_32:\n      mload(0x40)\n      dup1\n      swap2\n      sub\n      swap1\n      return\n        /* \"contracts/Test1.sol\":1054:1390  function getUserByAddress(address walletAddress) public returns(User memory user){... */\n    tag_6:\n      callvalue\n      dup1\n      iszero\n      tag_34\n      jumpi\n      0x00\n      dup1\n      revert\n    tag_34:\n      pop\n      tag_35\n      0x04\n      dup1\n      calldatasize\n      sub\n      dup2\n      add\n      swap1\n      tag_36\n      swap2\n      swap1\n      tag_14\n      jump\t// in\n    tag_36:\n      tag_37\n      jump\t// in\n    tag_35:\n      mload(0x40)\n      tag_38\n      swap2\n      swap1\n      tag_39\n      jump\t// in\n    tag_38:\n      mload(0x40)\n      dup1\n      swap2\n      sub\n      swap1\n      return\n        /* \"contracts/Test1.sol\":643:684  mapping(address => User) public investors */\n    tag_7:\n      callvalue\n      dup1\n      iszero\n      tag_40\n      jumpi\n      0x00\n      dup1\n      revert\n    tag_40:\n      pop\n      tag_41\n      0x04\n      dup1\n      calldatasize\n      sub\n      dup2\n      add\n      swap1\n      tag_42\n      swap2\n      swap1\n      tag_14\n      jump\t// in\n    tag_42:\n      tag_43\n      jump\t// in\n    tag_41:\n      mload(0x40)\n      tag_44\n      swap5\n      swap4\n      swap3\n      swap2\n      swap1\n      tag_27\n      jump\t// in\n    tag_44:\n      mload(0x40)\n      dup1\n      swap2\n      sub\n      swap1\n      return\n        /* \"contracts/Test1.sol\":2015:2278  function balanceOf(address walletAddress) public view returns(uint){... */\n    tag_8:\n      callvalue\n      dup1\n      iszero\n      tag_45\n      jumpi\n      0x00\n      dup1\n      revert\n    tag_45:\n      pop\n      tag_46\n      0x04\n      dup1\n      calldatasize\n      sub\n      dup2\n      add\n      swap1\n      tag_47\n      swap2\n      swap1\n      tag_14\n      jump\t// in\n    tag_47:\n      tag_48\n      jump\t// in\n    tag_46:\n      mload(0x40)\n      tag_49\n      swap2\n      swap1\n      tag_50\n      jump\t// in\n    tag_49:\n      mload(0x40)\n      dup1\n      swap2\n      sub\n      swap1\n      return\n        /* \"contracts/Test1.sol\":877:1048  function addToInvestors(address walletAddress) public onlyOwner{... */\n    tag_9:\n      callvalue\n      dup1\n      iszero\n      tag_51\n      jumpi\n      0x00\n      dup1\n      revert\n    tag_51:\n      pop\n      tag_52\n      0x04\n      dup1\n      calldatasize\n      sub\n      dup2\n      add\n      swap1\n      tag_53\n      swap2\n      swap1\n      tag_14\n      jump\t// in\n    tag_53:\n      tag_54\n      jump\t// in\n    tag_52:\n      stop\n        /* \"contracts/Test1.sol\":1572:1652  function userExists(string memory key) public view returns(bool){... */\n    tag_10:\n      callvalue\n      dup1\n      iszero\n      tag_55\n      jumpi\n      0x00\n      dup1\n      revert\n    tag_55:\n      pop\n      tag_56\n      0x04\n      dup1\n      calldatasize\n      sub\n      dup2\n      add\n      swap1\n      tag_57\n      swap2\n      swap1\n      tag_58\n      jump\t// in\n    tag_57:\n      tag_59\n      jump\t// in\n    tag_56:\n      mload(0x40)\n      tag_60\n      swap2\n      swap1\n      tag_33\n      jump\t// in\n    tag_60:\n      mload(0x40)\n      dup1\n      swap2\n      sub\n      swap1\n      return\n        /* \"contracts/Test1.sol\":1658:1763  function transfer(address walletAddress) payable public {... */\n    tag_15:\n        /* \"contracts/Test1.sol\":1724:1756  transferToAddress(walletAddress) */\n      tag_62\n        /* \"contracts/Test1.sol\":1742:1755  walletAddress */\n      dup2\n        /* \"contracts/Test1.sol\":1724:1741  transferToAddress */\n      tag_63\n        /* \"contracts/Test1.sol\":1724:1756  transferToAddress(walletAddress) */\n      jump\t// in\n    tag_62:\n        /* \"contracts/Test1.sol\":1658:1763  function transfer(address walletAddress) payable public {... */\n      pop\n      jump\t// out\n        /* \"contracts/Test1.sol\":691:871  function addUser(address walletAddress, string memory name, uint amount, bool isInvestor) public onlyOwner{... */\n    tag_20:\n        /* \"contracts/Test1.sol\":334:339  owner */\n      0x00\n      dup1\n      sload\n      swap1\n      0x0100\n      exp\n      swap1\n      div\n      0xffffffffffffffffffffffffffffffffffffffff\n      and\n        /* \"contracts/Test1.sol\":320:339  msg.sender == owner */\n      0xffffffffffffffffffffffffffffffffffffffff\n      and\n        /* \"contracts/Test1.sol\":320:330  msg.sender */\n      caller\n        /* \"contracts/Test1.sol\":320:339  msg.sender == owner */\n      0xffffffffffffffffffffffffffffffffffffffff\n      and\n      eq\n        /* \"contracts/Test1.sol\":312:365  require(msg.sender == owner, \"You are not the owner\") */\n      tag_65\n      jumpi\n      mload(0x40)\n      0x08c379a000000000000000000000000000000000000000000000000000000000\n      dup2\n      mstore\n      0x04\n      add\n      tag_66\n      swap1\n      tag_67\n      jump\t// in\n    tag_66:\n      mload(0x40)\n      dup1\n      swap2\n      sub\n      swap1\n      revert\n    tag_65:\n        /* \"contracts/Test1.sol\":807:812  users */\n      0x01\n        /* \"contracts/Test1.sol\":818:863  User(walletAddress, name, amount, isInvestor) */\n      mload(0x40)\n      dup1\n      0x80\n      add\n      0x40\n      mstore\n      dup1\n        /* \"contracts/Test1.sol\":823:836  walletAddress */\n      dup7\n        /* \"contracts/Test1.sol\":818:863  User(walletAddress, name, amount, isInvestor) */\n      0xffffffffffffffffffffffffffffffffffffffff\n      and\n      dup2\n      mstore\n      0x20\n      add\n        /* \"contracts/Test1.sol\":838:842  name */\n      dup6\n        /* \"contracts/Test1.sol\":818:863  User(walletAddress, name, amount, isInvestor) */\n      dup2\n      mstore\n      0x20\n      add\n        /* \"contracts/Test1.sol\":844:850  amount */\n      dup5\n        /* \"contracts/Test1.sol\":818:863  User(walletAddress, name, amount, isInvestor) */\n      dup2\n      mstore\n      0x20\n      add\n        /* \"contracts/Test1.sol\":852:862  isInvestor */\n      dup4\n        /* \"contracts/Test1.sol\":818:863  User(walletAddress, name, amount, isInvestor) */\n      iszero\n      iszero\n      dup2\n      mstore\n      pop\n        /* \"contracts/Test1.sol\":807:864  users.push(User(walletAddress, name, amount, isInvestor)) */\n      swap1\n      dup1\n      0x01\n      dup2\n      sload\n      add\n      dup1\n      dup3\n      sstore\n      dup1\n      swap2\n      pop\n      pop\n      0x01\n      swap1\n      sub\n      swap1\n      0x00\n      mstore\n      keccak256(0x00, 0x20)\n      swap1\n      0x04\n      mul\n      add\n      0x00\n      swap1\n      swap2\n      swap1\n      swap2\n      swap1\n      swap2\n      pop\n      0x00\n      dup3\n      add\n      mload\n      dup2\n      0x00\n      add\n      exp(0x0100, 0x00)\n      dup2\n      sload\n      dup2\n      0xffffffffffffffffffffffffffffffffffffffff\n      mul\n      not\n      and\n      swap1\n      dup4\n      0xffffffffffffffffffffffffffffffffffffffff\n      and\n      mul\n      or\n      swap1\n      sstore\n      pop\n      0x20\n      dup3\n      add\n      mload\n      dup2\n      0x01\n      add\n      swap1\n      dup1\n      mload\n      swap1\n      0x20\n      add\n      swap1\n      tag_70\n      swap3\n      swap2\n      swap1\n      tag_71\n      jump\t// in\n    tag_70:\n      pop\n      0x40\n      dup3\n      add\n      mload\n      dup2\n      0x02\n      add\n      sstore\n      0x60\n      dup3\n      add\n      mload\n      dup2\n      0x03\n      add\n      exp(0x0100, 0x00)\n      dup2\n      sload\n      dup2\n      0xff\n      mul\n      not\n      and\n      swap1\n      dup4\n      iszero\n      iszero\n      mul\n      or\n      swap1\n      sstore\n      pop\n      pop\n      pop\n        /* \"contracts/Test1.sol\":691:871  function addUser(address walletAddress, string memory name, uint amount, bool isInvestor) public onlyOwner{... */\n      pop\n      pop\n      pop\n      pop\n      jump\t// out\n        /* \"contracts/Test1.sol\":618:637  User[] public users */\n    tag_25:\n      0x01\n      dup2\n      dup2\n      sload\n      dup2\n      lt\n      tag_72\n      jumpi\n      0x00\n      dup1\n      revert\n    tag_72:\n      swap1\n      0x00\n      mstore\n      keccak256(0x00, 0x20)\n      swap1\n      0x04\n      mul\n      add\n      0x00\n      swap2\n      pop\n      swap1\n      pop\n      dup1\n      0x00\n      add\n      0x00\n      swap1\n      sload\n      swap1\n      0x0100\n      exp\n      swap1\n      div\n      0xffffffffffffffffffffffffffffffffffffffff\n      and\n      swap1\n      dup1\n      0x01\n      add\n      dup1\n      sload\n      tag_74\n      swap1\n      tag_75\n      jump\t// in\n    tag_74:\n      dup1\n      0x1f\n      add\n      0x20\n      dup1\n      swap2\n      div\n      mul\n      0x20\n      add\n      mload(0x40)\n      swap1\n      dup2\n      add\n      0x40\n      mstore\n      dup1\n      swap3\n      swap2\n      swap1\n      dup2\n      dup2\n      mstore\n      0x20\n      add\n      dup3\n      dup1\n      sload\n      tag_76\n      swap1\n      tag_75\n      jump\t// in\n    tag_76:\n      dup1\n      iszero\n      tag_77\n      jumpi\n      dup1\n      0x1f\n      lt\n      tag_78\n      jumpi\n      0x0100\n      dup1\n      dup4\n      sload\n      div\n      mul\n      dup4\n      mstore\n      swap2\n      0x20\n      add\n      swap2\n      jump(tag_77)\n    tag_78:\n      dup3\n      add\n      swap2\n      swap1\n      0x00\n      mstore\n      keccak256(0x00, 0x20)\n      swap1\n    tag_79:\n      dup2\n      sload\n      dup2\n      mstore\n      swap1\n      0x01\n      add\n      swap1\n      0x20\n      add\n      dup1\n      dup4\n      gt\n      tag_79\n      jumpi\n      dup3\n      swap1\n      sub\n      0x1f\n      and\n      dup3\n      add\n      swap2\n    tag_77:\n      pop\n      pop\n      pop\n      pop\n      pop\n      swap1\n      dup1\n      0x02\n      add\n      sload\n      swap1\n      dup1\n      0x03\n      add\n      0x00\n      swap1\n      sload\n      swap1\n      0x0100\n      exp\n      swap1\n      div\n      0xff\n      and\n      swap1\n      pop\n      dup5\n      jump\t// out\n        /* \"contracts/Test1.sol\":1396:1566  function investorPermission(address walletAddress) public returns(bool){... */\n    tag_31:\n        /* \"contracts/Test1.sol\":1462:1466  bool */\n      0x00\n        /* \"contracts/Test1.sol\":1477:1493  User memory user */\n      dup1\n        /* \"contracts/Test1.sol\":1496:1527  getUserByAddress(walletAddress) */\n      tag_81\n        /* \"contracts/Test1.sol\":1513:1526  walletAddress */\n      dup4\n        /* \"contracts/Test1.sol\":1496:1512  getUserByAddress */\n      tag_37\n        /* \"contracts/Test1.sol\":1496:1527  getUserByAddress(walletAddress) */\n      jump\t// in\n    tag_81:\n        /* \"contracts/Test1.sol\":1477:1527  User memory user = getUserByAddress(walletAddress) */\n      swap1\n      pop\n        /* \"contracts/Test1.sol\":1544:1548  user */\n      dup1\n        /* \"contracts/Test1.sol\":1544:1559  user.isInvestor */\n      0x60\n      add\n      mload\n        /* \"contracts/Test1.sol\":1537:1559  return user.isInvestor */\n      swap2\n      pop\n      pop\n        /* \"contracts/Test1.sol\":1396:1566  function investorPermission(address walletAddress) public returns(bool){... */\n      swap2\n      swap1\n      pop\n      jump\t// out\n        /* \"contracts/Test1.sol\":1054:1390  function getUserByAddress(address walletAddress) public returns(User memory user){... */\n    tag_37:\n        /* \"contracts/Test1.sol\":1118:1134  User memory user */\n      tag_82\n      tag_83\n      jump\t// in\n    tag_82:\n        /* \"contracts/Test1.sol\":1149:1155  uint i */\n      0x00\n        /* \"contracts/Test1.sol\":1145:1342  for(uint i = 0; i < users.length; i++){... */\n    tag_85:\n        /* \"contracts/Test1.sol\":1165:1170  users */\n      0x01\n        /* \"contracts/Test1.sol\":1165:1177  users.length */\n      dup1\n      sload\n      swap1\n      pop\n        /* \"contracts/Test1.sol\":1161:1162  i */\n      dup2\n        /* \"contracts/Test1.sol\":1161:1177  i < users.length */\n      lt\n        /* \"contracts/Test1.sol\":1145:1342  for(uint i = 0; i < users.length; i++){... */\n      iszero\n      tag_86\n      jumpi\n        /* \"contracts/Test1.sol\":1226:1239  walletAddress */\n      dup3\n        /* \"contracts/Test1.sol\":1200:1239  users[i].walletAddress == walletAddress */\n      0xffffffffffffffffffffffffffffffffffffffff\n      and\n        /* \"contracts/Test1.sol\":1200:1205  users */\n      0x01\n        /* \"contracts/Test1.sol\":1206:1207  i */\n      dup3\n        /* \"contracts/Test1.sol\":1200:1208  users[i] */\n      dup2\n      sload\n      dup2\n      lt\n      tag_88\n      jumpi\n      tag_89\n      tag_90\n      jump\t// in\n    tag_89:\n    tag_88:\n      swap1\n      0x00\n      mstore\n      keccak256(0x00, 0x20)\n      swap1\n      0x04\n      mul\n      add\n        /* \"contracts/Test1.sol\":1200:1222  users[i].walletAddress */\n      0x00\n      add\n      0x00\n      swap1\n      sload\n      swap1\n      0x0100\n      exp\n      swap1\n      div\n      0xffffffffffffffffffffffffffffffffffffffff\n      and\n        /* \"contracts/Test1.sol\":1200:1239  users[i].walletAddress == walletAddress */\n      0xffffffffffffffffffffffffffffffffffffffff\n      and\n      eq\n        /* \"contracts/Test1.sol\":1197:1332  if(users[i].walletAddress == walletAddress){... */\n      iszero\n      tag_92\n      jumpi\n        /* \"contracts/Test1.sol\":1280:1284  true */\n      0x01\n        /* \"contracts/Test1.sol\":1258:1263  users */\n      dup1\n        /* \"contracts/Test1.sol\":1264:1265  i */\n      dup3\n        /* \"contracts/Test1.sol\":1258:1266  users[i] */\n      dup2\n      sload\n      dup2\n      lt\n      tag_93\n      jumpi\n      tag_94\n      tag_90\n      jump\t// in\n    tag_94:\n    tag_93:\n      swap1\n      0x00\n      mstore\n      keccak256(0x00, 0x20)\n      swap1\n      0x04\n      mul\n      add\n        /* \"contracts/Test1.sol\":1258:1277  users[i].isInvestor */\n      0x03\n      add\n      0x00\n        /* \"contracts/Test1.sol\":1258:1284  users[i].isInvestor = true */\n      0x0100\n      exp\n      dup2\n      sload\n      dup2\n      0xff\n      mul\n      not\n      and\n      swap1\n      dup4\n      iszero\n      iszero\n      mul\n      or\n      swap1\n      sstore\n      pop\n        /* \"contracts/Test1.sol\":1309:1314  users */\n      0x01\n        /* \"contracts/Test1.sol\":1315:1316  i */\n      dup2\n        /* \"contracts/Test1.sol\":1309:1317  users[i] */\n      dup2\n      sload\n      dup2\n      lt\n      tag_96\n      jumpi\n      tag_97\n      tag_90\n      jump\t// in\n    tag_97:\n    tag_96:\n      swap1\n      0x00\n      mstore\n      keccak256(0x00, 0x20)\n      swap1\n      0x04\n      mul\n      add\n        /* \"contracts/Test1.sol\":1302:1317  return users[i] */\n      mload(0x40)\n      dup1\n      0x80\n      add\n      0x40\n      mstore\n      swap1\n      dup2\n      0x00\n      dup3\n      add\n      0x00\n      swap1\n      sload\n      swap1\n      0x0100\n      exp\n      swap1\n      div\n      0xffffffffffffffffffffffffffffffffffffffff\n      and\n      0xffffffffffffffffffffffffffffffffffffffff\n      and\n      0xffffffffffffffffffffffffffffffffffffffff\n      and\n      dup2\n      mstore\n      0x20\n      add\n      0x01\n      dup3\n      add\n      dup1\n      sload\n      tag_99\n      swap1\n      tag_75\n      jump\t// in\n    tag_99:\n      dup1\n      0x1f\n      add\n      0x20\n      dup1\n      swap2\n      div\n      mul\n      0x20\n      add\n      mload(0x40)\n      swap1\n      dup2\n      add\n      0x40\n      mstore\n      dup1\n      swap3\n      swap2\n      swap1\n      dup2\n      dup2\n      mstore\n      0x20\n      add\n      dup3\n      dup1\n      sload\n      tag_100\n      swap1\n      tag_75\n      jump\t// in\n    tag_100:\n      dup1\n      iszero\n      tag_101\n      jumpi\n      dup1\n      0x1f\n      lt\n      tag_102\n      jumpi\n      0x0100\n      dup1\n      dup4\n      sload\n      div\n      mul\n      dup4\n      mstore\n      swap2\n      0x20\n      add\n      swap2\n      jump(tag_101)\n    tag_102:\n      dup3\n      add\n      swap2\n      swap1\n      0x00\n      mstore\n      keccak256(0x00, 0x20)\n      swap1\n    tag_103:\n      dup2\n      sload\n      dup2\n      mstore\n      swap1\n      0x01\n      add\n      swap1\n      0x20\n      add\n      dup1\n      dup4\n      gt\n      tag_103\n      jumpi\n      dup3\n      swap1\n      sub\n      0x1f\n      and\n      dup3\n      add\n      swap2\n    tag_101:\n      pop\n      pop\n      pop\n      pop\n      pop\n      dup2\n      mstore\n      0x20\n      add\n      0x02\n      dup3\n      add\n      sload\n      dup2\n      mstore\n      0x20\n      add\n      0x03\n      dup3\n      add\n      0x00\n      swap1\n      sload\n      swap1\n      0x0100\n      exp\n      swap1\n      div\n      0xff\n      and\n      iszero\n      iszero\n      iszero\n      iszero\n      dup2\n      mstore\n      pop\n      pop\n      swap2\n      pop\n      pop\n      jump(tag_84)\n        /* \"contracts/Test1.sol\":1197:1332  if(users[i].walletAddress == walletAddress){... */\n    tag_92:\n        /* \"contracts/Test1.sol\":1179:1182  i++ */\n      dup1\n      dup1\n      tag_104\n      swap1\n      tag_105\n      jump\t// in\n    tag_104:\n      swap2\n      pop\n      pop\n        /* \"contracts/Test1.sol\":1145:1342  for(uint i = 0; i < users.length; i++){... */\n      jump(tag_85)\n    tag_86:\n      pop\n        /* \"contracts/Test1.sol\":1351:1383  revert(\"Invalid Wallet Address\") */\n      mload(0x40)\n      0x08c379a000000000000000000000000000000000000000000000000000000000\n      dup2\n      mstore\n      0x04\n      add\n      tag_106\n      swap1\n      tag_107\n      jump\t// in\n    tag_106:\n      mload(0x40)\n      dup1\n      swap2\n      sub\n      swap1\n      revert\n        /* \"contracts/Test1.sol\":1054:1390  function getUserByAddress(address walletAddress) public returns(User memory user){... */\n    tag_84:\n      swap2\n      swap1\n      pop\n      jump\t// out\n        /* \"contracts/Test1.sol\":643:684  mapping(address => User) public investors */\n    tag_43:\n      mstore(0x20, 0x02)\n      dup1\n      0x00\n      mstore\n      keccak256(0x00, 0x40)\n      0x00\n      swap2\n      pop\n      swap1\n      pop\n      dup1\n      0x00\n      add\n      0x00\n      swap1\n      sload\n      swap1\n      0x0100\n      exp\n      swap1\n      div\n      0xffffffffffffffffffffffffffffffffffffffff\n      and\n      swap1\n      dup1\n      0x01\n      add\n      dup1\n      sload\n      tag_108\n      swap1\n      tag_75\n      jump\t// in\n    tag_108:\n      dup1\n      0x1f\n      add\n      0x20\n      dup1\n      swap2\n      div\n      mul\n      0x20\n      add\n      mload(0x40)\n      swap1\n      dup2\n      add\n      0x40\n      mstore\n      dup1\n      swap3\n      swap2\n      swap1\n      dup2\n      dup2\n      mstore\n      0x20\n      add\n      dup3\n      dup1\n      sload\n      tag_109\n      swap1\n      tag_75\n      jump\t// in\n    tag_109:\n      dup1\n      iszero\n      tag_110\n      jumpi\n      dup1\n      0x1f\n      lt\n      tag_111\n      jumpi\n      0x0100\n      dup1\n      dup4\n      sload\n      div\n      mul\n      dup4\n      mstore\n      swap2\n      0x20\n      add\n      swap2\n      jump(tag_110)\n    tag_111:\n      dup3\n      add\n      swap2\n      swap1\n      0x00\n      mstore\n      keccak256(0x00, 0x20)\n      swap1\n    tag_112:\n      dup2\n      sload\n      dup2\n      mstore\n      swap1\n      0x01\n      add\n      swap1\n      0x20\n      add\n      dup1\n      dup4\n      gt\n      tag_112\n      jumpi\n      dup3\n      swap1\n      sub\n      0x1f\n      and\n      dup3\n      add\n      swap2\n    tag_110:\n      pop\n      pop\n      pop\n      pop\n      pop\n      swap1\n      dup1\n      0x02\n      add\n      sload\n      swap1\n      dup1\n      0x03\n      add\n      0x00\n      swap1\n      sload\n      swap1\n      0x0100\n      exp\n      swap1\n      div\n      0xff\n      and\n      swap1\n      pop\n      dup5\n      jump\t// out\n        /* \"contracts/Test1.sol\":2015:2278  function balanceOf(address walletAddress) public view returns(uint){... */\n    tag_48:\n        /* \"contracts/Test1.sol\":2077:2081  uint */\n      0x00\n        /* \"contracts/Test1.sol\":2096:2102  uint i */\n      dup1\n        /* \"contracts/Test1.sol\":2105:2106  0 */\n      0x00\n        /* \"contracts/Test1.sol\":2096:2106  uint i = 0 */\n      swap1\n      pop\n        /* \"contracts/Test1.sol\":2092:2252  for(uint i = 0; i < users.length; i++){... */\n    tag_114:\n        /* \"contracts/Test1.sol\":2112:2117  users */\n      0x01\n        /* \"contracts/Test1.sol\":2112:2124  users.length */\n      dup1\n      sload\n      swap1\n      pop\n        /* \"contracts/Test1.sol\":2108:2109  i */\n      dup2\n        /* \"contracts/Test1.sol\":2108:2124  i < users.length */\n      lt\n        /* \"contracts/Test1.sol\":2092:2252  for(uint i = 0; i < users.length; i++){... */\n      iszero\n      tag_115\n      jumpi\n        /* \"contracts/Test1.sol\":2173:2186  walletAddress */\n      dup3\n        /* \"contracts/Test1.sol\":2147:2186  users[i].walletAddress == walletAddress */\n      0xffffffffffffffffffffffffffffffffffffffff\n      and\n        /* \"contracts/Test1.sol\":2147:2152  users */\n      0x01\n        /* \"contracts/Test1.sol\":2153:2154  i */\n      dup3\n        /* \"contracts/Test1.sol\":2147:2155  users[i] */\n      dup2\n      sload\n      dup2\n      lt\n      tag_117\n      jumpi\n      tag_118\n      tag_90\n      jump\t// in\n    tag_118:\n    tag_117:\n      swap1\n      0x00\n      mstore\n      keccak256(0x00, 0x20)\n      swap1\n      0x04\n      mul\n      add\n        /* \"contracts/Test1.sol\":2147:2169  users[i].walletAddress */\n      0x00\n      add\n      0x00\n      swap1\n      sload\n      swap1\n      0x0100\n      exp\n      swap1\n      div\n      0xffffffffffffffffffffffffffffffffffffffff\n      and\n        /* \"contracts/Test1.sol\":2147:2186  users[i].walletAddress == walletAddress */\n      0xffffffffffffffffffffffffffffffffffffffff\n      and\n      eq\n        /* \"contracts/Test1.sol\":2144:2242  if(users[i].walletAddress == walletAddress){... */\n      iszero\n      tag_120\n      jumpi\n        /* \"contracts/Test1.sol\":2212:2217  users */\n      0x01\n        /* \"contracts/Test1.sol\":2218:2219  i */\n      dup2\n        /* \"contracts/Test1.sol\":2212:2220  users[i] */\n      dup2\n      sload\n      dup2\n      lt\n      tag_121\n      jumpi\n      tag_122\n      tag_90\n      jump\t// in\n    tag_122:\n    tag_121:\n      swap1\n      0x00\n      mstore\n      keccak256(0x00, 0x20)\n      swap1\n      0x04\n      mul\n      add\n        /* \"contracts/Test1.sol\":2212:2227  users[i].amount */\n      0x02\n      add\n      sload\n        /* \"contracts/Test1.sol\":2205:2227  return users[i].amount */\n      swap2\n      pop\n      pop\n      jump(tag_113)\n        /* \"contracts/Test1.sol\":2144:2242  if(users[i].walletAddress == walletAddress){... */\n    tag_120:\n        /* \"contracts/Test1.sol\":2126:2129  i++ */\n      dup1\n      dup1\n      tag_124\n      swap1\n      tag_105\n      jump\t// in\n    tag_124:\n      swap2\n      pop\n      pop\n        /* \"contracts/Test1.sol\":2092:2252  for(uint i = 0; i < users.length; i++){... */\n      jump(tag_114)\n    tag_115:\n      pop\n        /* \"contracts/Test1.sol\":2268:2271  999 */\n      0x03e7\n        /* \"contracts/Test1.sol\":2261:2271  return 999 */\n      swap1\n      pop\n        /* \"contracts/Test1.sol\":2015:2278  function balanceOf(address walletAddress) public view returns(uint){... */\n    tag_113:\n      swap2\n      swap1\n      pop\n      jump\t// out\n        /* \"contracts/Test1.sol\":877:1048  function addToInvestors(address walletAddress) public onlyOwner{... */\n    tag_54:\n        /* \"contracts/Test1.sol\":334:339  owner */\n      0x00\n      dup1\n      sload\n      swap1\n      0x0100\n      exp\n      swap1\n      div\n      0xffffffffffffffffffffffffffffffffffffffff\n      and\n        /* \"contracts/Test1.sol\":320:339  msg.sender == owner */\n      0xffffffffffffffffffffffffffffffffffffffff\n      and\n        /* \"contracts/Test1.sol\":320:330  msg.sender */\n      caller\n        /* \"contracts/Test1.sol\":320:339  msg.sender == owner */\n      0xffffffffffffffffffffffffffffffffffffffff\n      and\n      eq\n        /* \"contracts/Test1.sol\":312:365  require(msg.sender == owner, \"You are not the owner\") */\n      tag_126\n      jumpi\n      mload(0x40)\n      0x08c379a000000000000000000000000000000000000000000000000000000000\n      dup2\n      mstore\n      0x04\n      add\n      tag_127\n      swap1\n      tag_67\n      jump\t// in\n    tag_127:\n      mload(0x40)\n      dup1\n      swap2\n      sub\n      swap1\n      revert\n    tag_126:\n        /* \"contracts/Test1.sol\":950:966  User memory user */\n      0x00\n        /* \"contracts/Test1.sol\":969:1000  getUserByAddress(walletAddress) */\n      tag_129\n        /* \"contracts/Test1.sol\":986:999  walletAddress */\n      dup3\n        /* \"contracts/Test1.sol\":969:985  getUserByAddress */\n      tag_37\n        /* \"contracts/Test1.sol\":969:1000  getUserByAddress(walletAddress) */\n      jump\t// in\n    tag_129:\n        /* \"contracts/Test1.sol\":950:1000  User memory user = getUserByAddress(walletAddress) */\n      swap1\n      pop\n        /* \"contracts/Test1.sol\":1037:1041  user */\n      dup1\n        /* \"contracts/Test1.sol\":1010:1019  investors */\n      0x02\n        /* \"contracts/Test1.sol\":1010:1034  investors[walletAddress] */\n      0x00\n        /* \"contracts/Test1.sol\":1020:1033  walletAddress */\n      dup5\n        /* \"contracts/Test1.sol\":1010:1034  investors[walletAddress] */\n      0xffffffffffffffffffffffffffffffffffffffff\n      and\n      0xffffffffffffffffffffffffffffffffffffffff\n      and\n      dup2\n      mstore\n      0x20\n      add\n      swap1\n      dup2\n      mstore\n      0x20\n      add\n      0x00\n      keccak256\n        /* \"contracts/Test1.sol\":1010:1041  investors[walletAddress] = user */\n      0x00\n      dup3\n      add\n      mload\n      dup2\n      0x00\n      add\n      exp(0x0100, 0x00)\n      dup2\n      sload\n      dup2\n      0xffffffffffffffffffffffffffffffffffffffff\n      mul\n      not\n      and\n      swap1\n      dup4\n      0xffffffffffffffffffffffffffffffffffffffff\n      and\n      mul\n      or\n      swap1\n      sstore\n      pop\n      0x20\n      dup3\n      add\n      mload\n      dup2\n      0x01\n      add\n      swap1\n      dup1\n      mload\n      swap1\n      0x20\n      add\n      swap1\n      tag_130\n      swap3\n      swap2\n      swap1\n      tag_71\n      jump\t// in\n    tag_130:\n      pop\n      0x40\n      dup3\n      add\n      mload\n      dup2\n      0x02\n      add\n      sstore\n      0x60\n      dup3\n      add\n      mload\n      dup2\n      0x03\n      add\n      exp(0x0100, 0x00)\n      dup2\n      sload\n      dup2\n      0xff\n      mul\n      not\n      and\n      swap1\n      dup4\n      iszero\n      iszero\n      mul\n      or\n      swap1\n      sstore\n      pop\n      swap1\n      pop\n      pop\n        /* \"contracts/Test1.sol\":940:1048  {... */\n      pop\n        /* \"contracts/Test1.sol\":877:1048  function addToInvestors(address walletAddress) public onlyOwner{... */\n      pop\n      jump\t// out\n        /* \"contracts/Test1.sol\":1572:1652  function userExists(string memory key) public view returns(bool){... */\n    tag_59:\n        /* \"contracts/Test1.sol\":1631:1635  bool */\n      0x00\n        /* \"contracts/Test1.sol\":1572:1652  function userExists(string memory key) public view returns(bool){... */\n      swap2\n      swap1\n      pop\n      jump\t// out\n        /* \"contracts/Test1.sol\":1769:2009  function transferToAddress(address walletAddress) private {... */\n    tag_63:\n        /* \"contracts/Test1.sol\":1841:1847  uint i */\n      0x00\n        /* \"contracts/Test1.sol\":1837:2003  for(uint i = 0; i < users.length; i++){... */\n    tag_133:\n        /* \"contracts/Test1.sol\":1857:1862  users */\n      0x01\n        /* \"contracts/Test1.sol\":1857:1869  users.length */\n      dup1\n      sload\n      swap1\n      pop\n        /* \"contracts/Test1.sol\":1853:1854  i */\n      dup2\n        /* \"contracts/Test1.sol\":1853:1869  i < users.length */\n      lt\n        /* \"contracts/Test1.sol\":1837:2003  for(uint i = 0; i < users.length; i++){... */\n      iszero\n      tag_134\n      jumpi\n        /* \"contracts/Test1.sol\":1918:1931  walletAddress */\n      dup2\n        /* \"contracts/Test1.sol\":1892:1931  users[i].walletAddress == walletAddress */\n      0xffffffffffffffffffffffffffffffffffffffff\n      and\n        /* \"contracts/Test1.sol\":1892:1897  users */\n      0x01\n        /* \"contracts/Test1.sol\":1898:1899  i */\n      dup3\n        /* \"contracts/Test1.sol\":1892:1900  users[i] */\n      dup2\n      sload\n      dup2\n      lt\n      tag_136\n      jumpi\n      tag_137\n      tag_90\n      jump\t// in\n    tag_137:\n    tag_136:\n      swap1\n      0x00\n      mstore\n      keccak256(0x00, 0x20)\n      swap1\n      0x04\n      mul\n      add\n        /* \"contracts/Test1.sol\":1892:1914  users[i].walletAddress */\n      0x00\n      add\n      0x00\n      swap1\n      sload\n      swap1\n      0x0100\n      exp\n      swap1\n      div\n      0xffffffffffffffffffffffffffffffffffffffff\n      and\n        /* \"contracts/Test1.sol\":1892:1931  users[i].walletAddress == walletAddress */\n      0xffffffffffffffffffffffffffffffffffffffff\n      and\n      eq\n        /* \"contracts/Test1.sol\":1889:1993  if(users[i].walletAddress == walletAddress){... */\n      iszero\n      tag_139\n      jumpi\n        /* \"contracts/Test1.sol\":1969:1978  msg.value */\n      callvalue\n        /* \"contracts/Test1.sol\":1950:1955  users */\n      0x01\n        /* \"contracts/Test1.sol\":1956:1957  i */\n      dup3\n        /* \"contracts/Test1.sol\":1950:1958  users[i] */\n      dup2\n      sload\n      dup2\n      lt\n      tag_140\n      jumpi\n      tag_141\n      tag_90\n      jump\t// in\n    tag_141:\n    tag_140:\n      swap1\n      0x00\n      mstore\n      keccak256(0x00, 0x20)\n      swap1\n      0x04\n      mul\n      add\n        /* \"contracts/Test1.sol\":1950:1965  users[i].amount */\n      0x02\n      add\n      0x00\n        /* \"contracts/Test1.sol\":1950:1978  users[i].amount += msg.value */\n      dup3\n      dup3\n      sload\n      tag_143\n      swap2\n      swap1\n      tag_144\n      jump\t// in\n    tag_143:\n      swap3\n      pop\n      pop\n      dup2\n      swap1\n      sstore\n      pop\n        /* \"contracts/Test1.sol\":1889:1993  if(users[i].walletAddress == walletAddress){... */\n    tag_139:\n        /* \"contracts/Test1.sol\":1871:1874  i++ */\n      dup1\n      dup1\n      tag_145\n      swap1\n      tag_105\n      jump\t// in\n    tag_145:\n      swap2\n      pop\n      pop\n        /* \"contracts/Test1.sol\":1837:2003  for(uint i = 0; i < users.length; i++){... */\n      jump(tag_133)\n    tag_134:\n      pop\n        /* \"contracts/Test1.sol\":1769:2009  function transferToAddress(address walletAddress) private {... */\n      pop\n      jump\t// out\n    tag_71:\n      dup3\n      dup1\n      sload\n      tag_146\n      swap1\n      tag_75\n      jump\t// in\n    tag_146:\n      swap1\n      0x00\n      mstore\n      keccak256(0x00, 0x20)\n      swap1\n      0x1f\n      add\n      0x20\n      swap1\n      div\n      dup2\n      add\n      swap3\n      dup3\n      tag_148\n      jumpi\n      0x00\n      dup6\n      sstore\n      jump(tag_147)\n    tag_148:\n      dup3\n      0x1f\n      lt\n      tag_149\n      jumpi\n      dup1\n      mload\n      not(0xff)\n      and\n      dup4\n      dup1\n      add\n      or\n      dup6\n      sstore\n      jump(tag_147)\n    tag_149:\n      dup3\n      dup1\n      add\n      0x01\n      add\n      dup6\n      sstore\n      dup3\n      iszero\n      tag_147\n      jumpi\n      swap2\n      dup3\n      add\n    tag_150:\n      dup3\n      dup2\n      gt\n      iszero\n      tag_151\n      jumpi\n      dup3\n      mload\n      dup3\n      sstore\n      swap2\n      0x20\n      add\n      swap2\n      swap1\n      0x01\n      add\n      swap1\n      jump(tag_150)\n    tag_151:\n    tag_147:\n      pop\n      swap1\n      pop\n      tag_152\n      swap2\n      swap1\n      tag_153\n      jump\t// in\n    tag_152:\n      pop\n      swap1\n      jump\t// out\n    tag_83:\n      mload(0x40)\n      dup1\n      0x80\n      add\n      0x40\n      mstore\n      dup1\n      and(0xffffffffffffffffffffffffffffffffffffffff, 0x00)\n      dup2\n      mstore\n      0x20\n      add\n      0x60\n      dup2\n      mstore\n      0x20\n      add\n      0x00\n      dup2\n      mstore\n      0x20\n      add\n      iszero(iszero(0x00))\n      dup2\n      mstore\n      pop\n      swap1\n      jump\t// out\n    tag_153:\n    tag_154:\n      dup1\n      dup3\n      gt\n      iszero\n      tag_155\n      jumpi\n      0x00\n      dup2\n      0x00\n      swap1\n      sstore\n      pop\n      0x01\n      add\n      jump(tag_154)\n    tag_155:\n      pop\n      swap1\n      jump\t// out\n        /* \"#utility.yul\":7:419   */\n    tag_157:\n        /* \"#utility.yul\":85:90   */\n      0x00\n        /* \"#utility.yul\":110:176   */\n      tag_159\n        /* \"#utility.yul\":126:175   */\n      tag_160\n        /* \"#utility.yul\":168:174   */\n      dup5\n        /* \"#utility.yul\":126:175   */\n      tag_161\n      jump\t// in\n    tag_160:\n        /* \"#utility.yul\":110:176   */\n      tag_162\n      jump\t// in\n    tag_159:\n        /* \"#utility.yul\":101:176   */\n      swap1\n      pop\n        /* \"#utility.yul\":199:205   */\n      dup3\n        /* \"#utility.yul\":192:197   */\n      dup2\n        /* \"#utility.yul\":185:206   */\n      mstore\n        /* \"#utility.yul\":237:241   */\n      0x20\n        /* \"#utility.yul\":230:235   */\n      dup2\n        /* \"#utility.yul\":226:242   */\n      add\n        /* \"#utility.yul\":275:278   */\n      dup5\n        /* \"#utility.yul\":266:272   */\n      dup5\n        /* \"#utility.yul\":261:264   */\n      dup5\n        /* \"#utility.yul\":257:273   */\n      add\n        /* \"#utility.yul\":254:279   */\n      gt\n        /* \"#utility.yul\":251:363   */\n      iszero\n      tag_163\n      jumpi\n        /* \"#utility.yul\":282:361   */\n      tag_164\n      tag_165\n      jump\t// in\n    tag_164:\n        /* \"#utility.yul\":251:363   */\n    tag_163:\n        /* \"#utility.yul\":372:413   */\n      tag_166\n        /* \"#utility.yul\":406:412   */\n      dup5\n        /* \"#utility.yul\":401:404   */\n      dup3\n        /* \"#utility.yul\":396:399   */\n      dup6\n        /* \"#utility.yul\":372:413   */\n      tag_167\n      jump\t// in\n    tag_166:\n        /* \"#utility.yul\":91:419   */\n      pop\n        /* \"#utility.yul\":7:419   */\n      swap4\n      swap3\n      pop\n      pop\n      pop\n      jump\t// out\n        /* \"#utility.yul\":425:564   */\n    tag_168:\n        /* \"#utility.yul\":471:476   */\n      0x00\n        /* \"#utility.yul\":509:515   */\n      dup2\n        /* \"#utility.yul\":496:516   */\n      calldataload\n        /* \"#utility.yul\":487:516   */\n      swap1\n      pop\n        /* \"#utility.yul\":525:558   */\n      tag_170\n        /* \"#utility.yul\":552:557   */\n      dup2\n        /* \"#utility.yul\":525:558   */\n      tag_171\n      jump\t// in\n    tag_170:\n        /* \"#utility.yul\":425:564   */\n      swap3\n      swap2\n      pop\n      pop\n      jump\t// out\n        /* \"#utility.yul\":570:703   */\n    tag_172:\n        /* \"#utility.yul\":613:618   */\n      0x00\n        /* \"#utility.yul\":651:657   */\n      dup2\n        /* \"#utility.yul\":638:658   */\n      calldataload\n        /* \"#utility.yul\":629:658   */\n      swap1\n      pop\n        /* \"#utility.yul\":667:697   */\n      tag_174\n        /* \"#utility.yul\":691:696   */\n      dup2\n        /* \"#utility.yul\":667:697   */\n      tag_175\n      jump\t// in\n    tag_174:\n        /* \"#utility.yul\":570:703   */\n      swap3\n      swap2\n      pop\n      pop\n      jump\t// out\n        /* \"#utility.yul\":723:1063   */\n    tag_176:\n        /* \"#utility.yul\":779:784   */\n      0x00\n        /* \"#utility.yul\":828:831   */\n      dup3\n        /* \"#utility.yul\":821:825   */\n      0x1f\n        /* \"#utility.yul\":813:819   */\n      dup4\n        /* \"#utility.yul\":809:826   */\n      add\n        /* \"#utility.yul\":805:832   */\n      slt\n        /* \"#utility.yul\":795:917   */\n      tag_178\n      jumpi\n        /* \"#utility.yul\":836:915   */\n      tag_179\n      tag_180\n      jump\t// in\n    tag_179:\n        /* \"#utility.yul\":795:917   */\n    tag_178:\n        /* \"#utility.yul\":953:959   */\n      dup2\n        /* \"#utility.yul\":940:960   */\n      calldataload\n        /* \"#utility.yul\":978:1057   */\n      tag_181\n        /* \"#utility.yul\":1053:1056   */\n      dup5\n        /* \"#utility.yul\":1045:1051   */\n      dup3\n        /* \"#utility.yul\":1038:1042   */\n      0x20\n        /* \"#utility.yul\":1030:1036   */\n      dup7\n        /* \"#utility.yul\":1026:1043   */\n      add\n        /* \"#utility.yul\":978:1057   */\n      tag_157\n      jump\t// in\n    tag_181:\n        /* \"#utility.yul\":969:1057   */\n      swap2\n      pop\n        /* \"#utility.yul\":785:1063   */\n      pop\n        /* \"#utility.yul\":723:1063   */\n      swap3\n      swap2\n      pop\n      pop\n      jump\t// out\n        /* \"#utility.yul\":1069:1208   */\n    tag_182:\n        /* \"#utility.yul\":1115:1120   */\n      0x00\n        /* \"#utility.yul\":1153:1159   */\n      dup2\n        /* \"#utility.yul\":1140:1160   */\n      calldataload\n        /* \"#utility.yul\":1131:1160   */\n      swap1\n      pop\n        /* \"#utility.yul\":1169:1202   */\n      tag_184\n        /* \"#utility.yul\":1196:1201   */\n      dup2\n        /* \"#utility.yul\":1169:1202   */\n      tag_185\n      jump\t// in\n    tag_184:\n        /* \"#utility.yul\":1069:1208   */\n      swap3\n      swap2\n      pop\n      pop\n      jump\t// out\n        /* \"#utility.yul\":1214:1543   */\n    tag_14:\n        /* \"#utility.yul\":1273:1279   */\n      0x00\n        /* \"#utility.yul\":1322:1324   */\n      0x20\n        /* \"#utility.yul\":1310:1319   */\n      dup3\n        /* \"#utility.yul\":1301:1308   */\n      dup5\n        /* \"#utility.yul\":1297:1320   */\n      sub\n        /* \"#utility.yul\":1293:1325   */\n      slt\n        /* \"#utility.yul\":1290:1409   */\n      iszero\n      tag_187\n      jumpi\n        /* \"#utility.yul\":1328:1407   */\n      tag_188\n      tag_189\n      jump\t// in\n    tag_188:\n        /* \"#utility.yul\":1290:1409   */\n    tag_187:\n        /* \"#utility.yul\":1448:1449   */\n      0x00\n        /* \"#utility.yul\":1473:1526   */\n      tag_190\n        /* \"#utility.yul\":1518:1525   */\n      dup5\n        /* \"#utility.yul\":1509:1515   */\n      dup3\n        /* \"#utility.yul\":1498:1507   */\n      dup6\n        /* \"#utility.yul\":1494:1516   */\n      add\n        /* \"#utility.yul\":1473:1526   */\n      tag_168\n      jump\t// in\n    tag_190:\n        /* \"#utility.yul\":1463:1526   */\n      swap2\n      pop\n        /* \"#utility.yul\":1419:1536   */\n      pop\n        /* \"#utility.yul\":1214:1543   */\n      swap3\n      swap2\n      pop\n      pop\n      jump\t// out\n        /* \"#utility.yul\":1549:2488   */\n    tag_19:\n        /* \"#utility.yul\":1642:1648   */\n      0x00\n        /* \"#utility.yul\":1650:1656   */\n      dup1\n        /* \"#utility.yul\":1658:1664   */\n      0x00\n        /* \"#utility.yul\":1666:1672   */\n      dup1\n        /* \"#utility.yul\":1715:1718   */\n      0x80\n        /* \"#utility.yul\":1703:1712   */\n      dup6\n        /* \"#utility.yul\":1694:1701   */\n      dup8\n        /* \"#utility.yul\":1690:1713   */\n      sub\n        /* \"#utility.yul\":1686:1719   */\n      slt\n        /* \"#utility.yul\":1683:1803   */\n      iszero\n      tag_192\n      jumpi\n        /* \"#utility.yul\":1722:1801   */\n      tag_193\n      tag_189\n      jump\t// in\n    tag_193:\n        /* \"#utility.yul\":1683:1803   */\n    tag_192:\n        /* \"#utility.yul\":1842:1843   */\n      0x00\n        /* \"#utility.yul\":1867:1920   */\n      tag_194\n        /* \"#utility.yul\":1912:1919   */\n      dup8\n        /* \"#utility.yul\":1903:1909   */\n      dup3\n        /* \"#utility.yul\":1892:1901   */\n      dup9\n        /* \"#utility.yul\":1888:1910   */\n      add\n        /* \"#utility.yul\":1867:1920   */\n      tag_168\n      jump\t// in\n    tag_194:\n        /* \"#utility.yul\":1857:1920   */\n      swap5\n      pop\n        /* \"#utility.yul\":1813:1930   */\n      pop\n        /* \"#utility.yul\":1997:1999   */\n      0x20\n        /* \"#utility.yul\":1986:1995   */\n      dup6\n        /* \"#utility.yul\":1982:2000   */\n      add\n        /* \"#utility.yul\":1969:2001   */\n      calldataload\n        /* \"#utility.yul\":2028:2046   */\n      0xffffffffffffffff\n        /* \"#utility.yul\":2020:2026   */\n      dup2\n        /* \"#utility.yul\":2017:2047   */\n      gt\n        /* \"#utility.yul\":2014:2131   */\n      iszero\n      tag_195\n      jumpi\n        /* \"#utility.yul\":2050:2129   */\n      tag_196\n      tag_197\n      jump\t// in\n    tag_196:\n        /* \"#utility.yul\":2014:2131   */\n    tag_195:\n        /* \"#utility.yul\":2155:2218   */\n      tag_198\n        /* \"#utility.yul\":2210:2217   */\n      dup8\n        /* \"#utility.yul\":2201:2207   */\n      dup3\n        /* \"#utility.yul\":2190:2199   */\n      dup9\n        /* \"#utility.yul\":2186:2208   */\n      add\n        /* \"#utility.yul\":2155:2218   */\n      tag_176\n      jump\t// in\n    tag_198:\n        /* \"#utility.yul\":2145:2218   */\n      swap4\n      pop\n        /* \"#utility.yul\":1940:2228   */\n      pop\n        /* \"#utility.yul\":2267:2269   */\n      0x40\n        /* \"#utility.yul\":2293:2346   */\n      tag_199\n        /* \"#utility.yul\":2338:2345   */\n      dup8\n        /* \"#utility.yul\":2329:2335   */\n      dup3\n        /* \"#utility.yul\":2318:2327   */\n      dup9\n        /* \"#utility.yul\":2314:2336   */\n      add\n        /* \"#utility.yul\":2293:2346   */\n      tag_182\n      jump\t// in\n    tag_199:\n        /* \"#utility.yul\":2283:2346   */\n      swap3\n      pop\n        /* \"#utility.yul\":2238:2356   */\n      pop\n        /* \"#utility.yul\":2395:2397   */\n      0x60\n        /* \"#utility.yul\":2421:2471   */\n      tag_200\n        /* \"#utility.yul\":2463:2470   */\n      dup8\n        /* \"#utility.yul\":2454:2460   */\n      dup3\n        /* \"#utility.yul\":2443:2452   */\n      dup9\n        /* \"#utility.yul\":2439:2461   */\n      add\n        /* \"#utility.yul\":2421:2471   */\n      tag_172\n      jump\t// in\n    tag_200:\n        /* \"#utility.yul\":2411:2471   */\n      swap2\n      pop\n        /* \"#utility.yul\":2366:2481   */\n      pop\n        /* \"#utility.yul\":1549:2488   */\n      swap3\n      swap6\n      swap2\n      swap5\n      pop\n      swap3\n      pop\n      jump\t// out\n        /* \"#utility.yul\":2494:3003   */\n    tag_58:\n        /* \"#utility.yul\":2563:2569   */\n      0x00\n        /* \"#utility.yul\":2612:2614   */\n      0x20\n        /* \"#utility.yul\":2600:2609   */\n      dup3\n        /* \"#utility.yul\":2591:2598   */\n      dup5\n        /* \"#utility.yul\":2587:2610   */\n      sub\n        /* \"#utility.yul\":2583:2615   */\n      slt\n        /* \"#utility.yul\":2580:2699   */\n      iszero\n      tag_202\n      jumpi\n        /* \"#utility.yul\":2618:2697   */\n      tag_203\n      tag_189\n      jump\t// in\n    tag_203:\n        /* \"#utility.yul\":2580:2699   */\n    tag_202:\n        /* \"#utility.yul\":2766:2767   */\n      0x00\n        /* \"#utility.yul\":2755:2764   */\n      dup3\n        /* \"#utility.yul\":2751:2768   */\n      add\n        /* \"#utility.yul\":2738:2769   */\n      calldataload\n        /* \"#utility.yul\":2796:2814   */\n      0xffffffffffffffff\n        /* \"#utility.yul\":2788:2794   */\n      dup2\n        /* \"#utility.yul\":2785:2815   */\n      gt\n        /* \"#utility.yul\":2782:2899   */\n      iszero\n      tag_204\n      jumpi\n        /* \"#utility.yul\":2818:2897   */\n      tag_205\n      tag_197\n      jump\t// in\n    tag_205:\n        /* \"#utility.yul\":2782:2899   */\n    tag_204:\n        /* \"#utility.yul\":2923:2986   */\n      tag_206\n        /* \"#utility.yul\":2978:2985   */\n      dup5\n        /* \"#utility.yul\":2969:2975   */\n      dup3\n        /* \"#utility.yul\":2958:2967   */\n      dup6\n        /* \"#utility.yul\":2954:2976   */\n      add\n        /* \"#utility.yul\":2923:2986   */\n      tag_176\n      jump\t// in\n    tag_206:\n        /* \"#utility.yul\":2913:2986   */\n      swap2\n      pop\n        /* \"#utility.yul\":2709:2996   */\n      pop\n        /* \"#utility.yul\":2494:3003   */\n      swap3\n      swap2\n      pop\n      pop\n      jump\t// out\n        /* \"#utility.yul\":3009:3338   */\n    tag_24:\n        /* \"#utility.yul\":3068:3074   */\n      0x00\n        /* \"#utility.yul\":3117:3119   */\n      0x20\n        /* \"#utility.yul\":3105:3114   */\n      dup3\n        /* \"#utility.yul\":3096:3103   */\n      dup5\n        /* \"#utility.yul\":3092:3115   */\n      sub\n        /* \"#utility.yul\":3088:3120   */\n      slt\n        /* \"#utility.yul\":3085:3204   */\n      iszero\n      tag_208\n      jumpi\n        /* \"#utility.yul\":3123:3202   */\n      tag_209\n      tag_189\n      jump\t// in\n    tag_209:\n        /* \"#utility.yul\":3085:3204   */\n    tag_208:\n        /* \"#utility.yul\":3243:3244   */\n      0x00\n        /* \"#utility.yul\":3268:3321   */\n      tag_210\n        /* \"#utility.yul\":3313:3320   */\n      dup5\n        /* \"#utility.yul\":3304:3310   */\n      dup3\n        /* \"#utility.yul\":3293:3302   */\n      dup6\n        /* \"#utility.yul\":3289:3311   */\n      add\n        /* \"#utility.yul\":3268:3321   */\n      tag_182\n      jump\t// in\n    tag_210:\n        /* \"#utility.yul\":3258:3321   */\n      swap2\n      pop\n        /* \"#utility.yul\":3214:3331   */\n      pop\n        /* \"#utility.yul\":3009:3338   */\n      swap3\n      swap2\n      pop\n      pop\n      jump\t// out\n        /* \"#utility.yul\":3344:3452   */\n    tag_211:\n        /* \"#utility.yul\":3421:3445   */\n      tag_213\n        /* \"#utility.yul\":3439:3444   */\n      dup2\n        /* \"#utility.yul\":3421:3445   */\n      tag_214\n      jump\t// in\n    tag_213:\n        /* \"#utility.yul\":3416:3419   */\n      dup3\n        /* \"#utility.yul\":3409:3446   */\n      mstore\n        /* \"#utility.yul\":3344:3452   */\n      pop\n      pop\n      jump\t// out\n        /* \"#utility.yul\":3458:3576   */\n    tag_215:\n        /* \"#utility.yul\":3545:3569   */\n      tag_217\n        /* \"#utility.yul\":3563:3568   */\n      dup2\n        /* \"#utility.yul\":3545:3569   */\n      tag_214\n      jump\t// in\n    tag_217:\n        /* \"#utility.yul\":3540:3543   */\n      dup3\n        /* \"#utility.yul\":3533:3570   */\n      mstore\n        /* \"#utility.yul\":3458:3576   */\n      pop\n      pop\n      jump\t// out\n        /* \"#utility.yul\":3582:3681   */\n    tag_218:\n        /* \"#utility.yul\":3653:3674   */\n      tag_220\n        /* \"#utility.yul\":3668:3673   */\n      dup2\n        /* \"#utility.yul\":3653:3674   */\n      tag_221\n      jump\t// in\n    tag_220:\n        /* \"#utility.yul\":3648:3651   */\n      dup3\n        /* \"#utility.yul\":3641:3675   */\n      mstore\n        /* \"#utility.yul\":3582:3681   */\n      pop\n      pop\n      jump\t// out\n        /* \"#utility.yul\":3687:3796   */\n    tag_222:\n        /* \"#utility.yul\":3768:3789   */\n      tag_224\n        /* \"#utility.yul\":3783:3788   */\n      dup2\n        /* \"#utility.yul\":3768:3789   */\n      tag_221\n      jump\t// in\n    tag_224:\n        /* \"#utility.yul\":3763:3766   */\n      dup3\n        /* \"#utility.yul\":3756:3790   */\n      mstore\n        /* \"#utility.yul\":3687:3796   */\n      pop\n      pop\n      jump\t// out\n        /* \"#utility.yul\":3802:4146   */\n    tag_225:\n        /* \"#utility.yul\":3880:3883   */\n      0x00\n        /* \"#utility.yul\":3908:3947   */\n      tag_227\n        /* \"#utility.yul\":3941:3946   */\n      dup3\n        /* \"#utility.yul\":3908:3947   */\n      tag_228\n      jump\t// in\n    tag_227:\n        /* \"#utility.yul\":3963:4024   */\n      tag_229\n        /* \"#utility.yul\":4017:4023   */\n      dup2\n        /* \"#utility.yul\":4012:4015   */\n      dup6\n        /* \"#utility.yul\":3963:4024   */\n      tag_230\n      jump\t// in\n    tag_229:\n        /* \"#utility.yul\":3956:4024   */\n      swap4\n      pop\n        /* \"#utility.yul\":4033:4085   */\n      tag_231\n        /* \"#utility.yul\":4078:4084   */\n      dup2\n        /* \"#utility.yul\":4073:4076   */\n      dup6\n        /* \"#utility.yul\":4066:4070   */\n      0x20\n        /* \"#utility.yul\":4059:4064   */\n      dup7\n        /* \"#utility.yul\":4055:4071   */\n      add\n        /* \"#utility.yul\":4033:4085   */\n      tag_232\n      jump\t// in\n    tag_231:\n        /* \"#utility.yul\":4110:4139   */\n      tag_233\n        /* \"#utility.yul\":4132:4138   */\n      dup2\n        /* \"#utility.yul\":4110:4139   */\n      tag_234\n      jump\t// in\n    tag_233:\n        /* \"#utility.yul\":4105:4108   */\n      dup5\n        /* \"#utility.yul\":4101:4140   */\n      add\n        /* \"#utility.yul\":4094:4140   */\n      swap2\n      pop\n        /* \"#utility.yul\":3884:4146   */\n      pop\n        /* \"#utility.yul\":3802:4146   */\n      swap3\n      swap2\n      pop\n      pop\n      jump\t// out\n        /* \"#utility.yul\":4152:4516   */\n    tag_235:\n        /* \"#utility.yul\":4240:4243   */\n      0x00\n        /* \"#utility.yul\":4268:4307   */\n      tag_237\n        /* \"#utility.yul\":4301:4306   */\n      dup3\n        /* \"#utility.yul\":4268:4307   */\n      tag_228\n      jump\t// in\n    tag_237:\n        /* \"#utility.yul\":4323:4394   */\n      tag_238\n        /* \"#utility.yul\":4387:4393   */\n      dup2\n        /* \"#utility.yul\":4382:4385   */\n      dup6\n        /* \"#utility.yul\":4323:4394   */\n      tag_239\n      jump\t// in\n    tag_238:\n        /* \"#utility.yul\":4316:4394   */\n      swap4\n      pop\n        /* \"#utility.yul\":4403:4455   */\n      tag_240\n        /* \"#utility.yul\":4448:4454   */\n      dup2\n        /* \"#utility.yul\":4443:4446   */\n      dup6\n        /* \"#utility.yul\":4436:4440   */\n      0x20\n        /* \"#utility.yul\":4429:4434   */\n      dup7\n        /* \"#utility.yul\":4425:4441   */\n      add\n        /* \"#utility.yul\":4403:4455   */\n      tag_232\n      jump\t// in\n    tag_240:\n        /* \"#utility.yul\":4480:4509   */\n      tag_241\n        /* \"#utility.yul\":4502:4508   */\n      dup2\n        /* \"#utility.yul\":4480:4509   */\n      tag_234\n      jump\t// in\n    tag_241:\n        /* \"#utility.yul\":4475:4478   */\n      dup5\n        /* \"#utility.yul\":4471:4510   */\n      add\n        /* \"#utility.yul\":4464:4510   */\n      swap2\n      pop\n        /* \"#utility.yul\":4244:4516   */\n      pop\n        /* \"#utility.yul\":4152:4516   */\n      swap3\n      swap2\n      pop\n      pop\n      jump\t// out\n        /* \"#utility.yul\":4522:4888   */\n    tag_242:\n        /* \"#utility.yul\":4664:4667   */\n      0x00\n        /* \"#utility.yul\":4685:4752   */\n      tag_244\n        /* \"#utility.yul\":4749:4751   */\n      0x16\n        /* \"#utility.yul\":4744:4747   */\n      dup4\n        /* \"#utility.yul\":4685:4752   */\n      tag_239\n      jump\t// in\n    tag_244:\n        /* \"#utility.yul\":4678:4752   */\n      swap2\n      pop\n        /* \"#utility.yul\":4761:4854   */\n      tag_245\n        /* \"#utility.yul\":4850:4853   */\n      dup3\n        /* \"#utility.yul\":4761:4854   */\n      tag_246\n      jump\t// in\n    tag_245:\n        /* \"#utility.yul\":4879:4881   */\n      0x20\n        /* \"#utility.yul\":4874:4877   */\n      dup3\n        /* \"#utility.yul\":4870:4882   */\n      add\n        /* \"#utility.yul\":4863:4882   */\n      swap1\n      pop\n        /* \"#utility.yul\":4522:4888   */\n      swap2\n      swap1\n      pop\n      jump\t// out\n        /* \"#utility.yul\":4894:5260   */\n    tag_247:\n        /* \"#utility.yul\":5036:5039   */\n      0x00\n        /* \"#utility.yul\":5057:5124   */\n      tag_249\n        /* \"#utility.yul\":5121:5123   */\n      0x15\n        /* \"#utility.yul\":5116:5119   */\n      dup4\n        /* \"#utility.yul\":5057:5124   */\n      tag_239\n      jump\t// in\n    tag_249:\n        /* \"#utility.yul\":5050:5124   */\n      swap2\n      pop\n        /* \"#utility.yul\":5133:5226   */\n      tag_250\n        /* \"#utility.yul\":5222:5225   */\n      dup3\n        /* \"#utility.yul\":5133:5226   */\n      tag_251\n      jump\t// in\n    tag_250:\n        /* \"#utility.yul\":5251:5253   */\n      0x20\n        /* \"#utility.yul\":5246:5249   */\n      dup3\n        /* \"#utility.yul\":5242:5254   */\n      add\n        /* \"#utility.yul\":5235:5254   */\n      swap1\n      pop\n        /* \"#utility.yul\":4894:5260   */\n      swap2\n      swap1\n      pop\n      jump\t// out\n        /* \"#utility.yul\":5312:6267   */\n    tag_252:\n        /* \"#utility.yul\":5421:5424   */\n      0x00\n        /* \"#utility.yul\":5457:5461   */\n      0x80\n        /* \"#utility.yul\":5452:5455   */\n      dup4\n        /* \"#utility.yul\":5448:5462   */\n      add\n        /* \"#utility.yul\":5553:5557   */\n      0x00\n        /* \"#utility.yul\":5546:5551   */\n      dup4\n        /* \"#utility.yul\":5542:5558   */\n      add\n        /* \"#utility.yul\":5536:5559   */\n      mload\n        /* \"#utility.yul\":5572:5635   */\n      tag_254\n        /* \"#utility.yul\":5629:5633   */\n      0x00\n        /* \"#utility.yul\":5624:5627   */\n      dup7\n        /* \"#utility.yul\":5620:5634   */\n      add\n        /* \"#utility.yul\":5606:5618   */\n      dup3\n        /* \"#utility.yul\":5572:5635   */\n      tag_211\n      jump\t// in\n    tag_254:\n        /* \"#utility.yul\":5472:5645   */\n      pop\n        /* \"#utility.yul\":5727:5731   */\n      0x20\n        /* \"#utility.yul\":5720:5725   */\n      dup4\n        /* \"#utility.yul\":5716:5732   */\n      add\n        /* \"#utility.yul\":5710:5733   */\n      mload\n        /* \"#utility.yul\":5780:5783   */\n      dup5\n        /* \"#utility.yul\":5774:5778   */\n      dup3\n        /* \"#utility.yul\":5770:5784   */\n      sub\n        /* \"#utility.yul\":5763:5767   */\n      0x20\n        /* \"#utility.yul\":5758:5761   */\n      dup7\n        /* \"#utility.yul\":5754:5768   */\n      add\n        /* \"#utility.yul\":5747:5785   */\n      mstore\n        /* \"#utility.yul\":5806:5879   */\n      tag_255\n        /* \"#utility.yul\":5874:5878   */\n      dup3\n        /* \"#utility.yul\":5860:5872   */\n      dup3\n        /* \"#utility.yul\":5806:5879   */\n      tag_225\n      jump\t// in\n    tag_255:\n        /* \"#utility.yul\":5798:5879   */\n      swap2\n      pop\n        /* \"#utility.yul\":5655:5890   */\n      pop\n        /* \"#utility.yul\":5974:5978   */\n      0x40\n        /* \"#utility.yul\":5967:5972   */\n      dup4\n        /* \"#utility.yul\":5963:5979   */\n      add\n        /* \"#utility.yul\":5957:5980   */\n      mload\n        /* \"#utility.yul\":5993:6056   */\n      tag_256\n        /* \"#utility.yul\":6050:6054   */\n      0x40\n        /* \"#utility.yul\":6045:6048   */\n      dup7\n        /* \"#utility.yul\":6041:6055   */\n      add\n        /* \"#utility.yul\":6027:6039   */\n      dup3\n        /* \"#utility.yul\":5993:6056   */\n      tag_257\n      jump\t// in\n    tag_256:\n        /* \"#utility.yul\":5900:6066   */\n      pop\n        /* \"#utility.yul\":6154:6158   */\n      0x60\n        /* \"#utility.yul\":6147:6152   */\n      dup4\n        /* \"#utility.yul\":6143:6159   */\n      add\n        /* \"#utility.yul\":6137:6160   */\n      mload\n        /* \"#utility.yul\":6173:6230   */\n      tag_258\n        /* \"#utility.yul\":6224:6228   */\n      0x60\n        /* \"#utility.yul\":6219:6222   */\n      dup7\n        /* \"#utility.yul\":6215:6229   */\n      add\n        /* \"#utility.yul\":6201:6213   */\n      dup3\n        /* \"#utility.yul\":6173:6230   */\n      tag_218\n      jump\t// in\n    tag_258:\n        /* \"#utility.yul\":6076:6240   */\n      pop\n        /* \"#utility.yul\":6257:6261   */\n      dup1\n        /* \"#utility.yul\":6250:6261   */\n      swap2\n      pop\n        /* \"#utility.yul\":5426:6267   */\n      pop\n        /* \"#utility.yul\":5312:6267   */\n      swap3\n      swap2\n      pop\n      pop\n      jump\t// out\n        /* \"#utility.yul\":6273:6381   */\n    tag_257:\n        /* \"#utility.yul\":6350:6374   */\n      tag_260\n        /* \"#utility.yul\":6368:6373   */\n      dup2\n        /* \"#utility.yul\":6350:6374   */\n      tag_261\n      jump\t// in\n    tag_260:\n        /* \"#utility.yul\":6345:6348   */\n      dup3\n        /* \"#utility.yul\":6338:6375   */\n      mstore\n        /* \"#utility.yul\":6273:6381   */\n      pop\n      pop\n      jump\t// out\n        /* \"#utility.yul\":6387:6505   */\n    tag_262:\n        /* \"#utility.yul\":6474:6498   */\n      tag_264\n        /* \"#utility.yul\":6492:6497   */\n      dup2\n        /* \"#utility.yul\":6474:6498   */\n      tag_261\n      jump\t// in\n    tag_264:\n        /* \"#utility.yul\":6469:6472   */\n      dup3\n        /* \"#utility.yul\":6462:6499   */\n      mstore\n        /* \"#utility.yul\":6387:6505   */\n      pop\n      pop\n      jump\t// out\n        /* \"#utility.yul\":6511:7143   */\n    tag_27:\n        /* \"#utility.yul\":6702:6706   */\n      0x00\n        /* \"#utility.yul\":6740:6743   */\n      0x80\n        /* \"#utility.yul\":6729:6738   */\n      dup3\n        /* \"#utility.yul\":6725:6744   */\n      add\n        /* \"#utility.yul\":6717:6744   */\n      swap1\n      pop\n        /* \"#utility.yul\":6754:6825   */\n      tag_266\n        /* \"#utility.yul\":6822:6823   */\n      0x00\n        /* \"#utility.yul\":6811:6820   */\n      dup4\n        /* \"#utility.yul\":6807:6824   */\n      add\n        /* \"#utility.yul\":6798:6804   */\n      dup8\n        /* \"#utility.yul\":6754:6825   */\n      tag_215\n      jump\t// in\n    tag_266:\n        /* \"#utility.yul\":6872:6881   */\n      dup2\n        /* \"#utility.yul\":6866:6870   */\n      dup2\n        /* \"#utility.yul\":6862:6882   */\n      sub\n        /* \"#utility.yul\":6857:6859   */\n      0x20\n        /* \"#utility.yul\":6846:6855   */\n      dup4\n        /* \"#utility.yul\":6842:6860   */\n      add\n        /* \"#utility.yul\":6835:6883   */\n      mstore\n        /* \"#utility.yul\":6900:6978   */\n      tag_267\n        /* \"#utility.yul\":6973:6977   */\n      dup2\n        /* \"#utility.yul\":6964:6970   */\n      dup7\n        /* \"#utility.yul\":6900:6978   */\n      tag_235\n      jump\t// in\n    tag_267:\n        /* \"#utility.yul\":6892:6978   */\n      swap1\n      pop\n        /* \"#utility.yul\":6988:7060   */\n      tag_268\n        /* \"#utility.yul\":7056:7058   */\n      0x40\n        /* \"#utility.yul\":7045:7054   */\n      dup4\n        /* \"#utility.yul\":7041:7059   */\n      add\n        /* \"#utility.yul\":7032:7038   */\n      dup6\n        /* \"#utility.yul\":6988:7060   */\n      tag_262\n      jump\t// in\n    tag_268:\n        /* \"#utility.yul\":7070:7136   */\n      tag_269\n        /* \"#utility.yul\":7132:7134   */\n      0x60\n        /* \"#utility.yul\":7121:7130   */\n      dup4\n        /* \"#utility.yul\":7117:7135   */\n      add\n        /* \"#utility.yul\":7108:7114   */\n      dup5\n        /* \"#utility.yul\":7070:7136   */\n      tag_222\n      jump\t// in\n    tag_269:\n        /* \"#utility.yul\":6511:7143   */\n      swap6\n      swap5\n      pop\n      pop\n      pop\n      pop\n      pop\n      jump\t// out\n        /* \"#utility.yul\":7149:7359   */\n    tag_33:\n        /* \"#utility.yul\":7236:7240   */\n      0x00\n        /* \"#utility.yul\":7274:7276   */\n      0x20\n        /* \"#utility.yul\":7263:7272   */\n      dup3\n        /* \"#utility.yul\":7259:7277   */\n      add\n        /* \"#utility.yul\":7251:7277   */\n      swap1\n      pop\n        /* \"#utility.yul\":7287:7352   */\n      tag_271\n        /* \"#utility.yul\":7349:7350   */\n      0x00\n        /* \"#utility.yul\":7338:7347   */\n      dup4\n        /* \"#utility.yul\":7334:7351   */\n      add\n        /* \"#utility.yul\":7325:7331   */\n      dup5\n        /* \"#utility.yul\":7287:7352   */\n      tag_222\n      jump\t// in\n    tag_271:\n        /* \"#utility.yul\":7149:7359   */\n      swap3\n      swap2\n      pop\n      pop\n      jump\t// out\n        /* \"#utility.yul\":7365:7784   */\n    tag_107:\n        /* \"#utility.yul\":7531:7535   */\n      0x00\n        /* \"#utility.yul\":7569:7571   */\n      0x20\n        /* \"#utility.yul\":7558:7567   */\n      dup3\n        /* \"#utility.yul\":7554:7572   */\n      add\n        /* \"#utility.yul\":7546:7572   */\n      swap1\n      pop\n        /* \"#utility.yul\":7618:7627   */\n      dup2\n        /* \"#utility.yul\":7612:7616   */\n      dup2\n        /* \"#utility.yul\":7608:7628   */\n      sub\n        /* \"#utility.yul\":7604:7605   */\n      0x00\n        /* \"#utility.yul\":7593:7602   */\n      dup4\n        /* \"#utility.yul\":7589:7606   */\n      add\n        /* \"#utility.yul\":7582:7629   */\n      mstore\n        /* \"#utility.yul\":7646:7777   */\n      tag_273\n        /* \"#utility.yul\":7772:7776   */\n      dup2\n        /* \"#utility.yul\":7646:7777   */\n      tag_242\n      jump\t// in\n    tag_273:\n        /* \"#utility.yul\":7638:7777   */\n      swap1\n      pop\n        /* \"#utility.yul\":7365:7784   */\n      swap2\n      swap1\n      pop\n      jump\t// out\n        /* \"#utility.yul\":7790:8209   */\n    tag_67:\n        /* \"#utility.yul\":7956:7960   */\n      0x00\n        /* \"#utility.yul\":7994:7996   */\n      0x20\n        /* \"#utility.yul\":7983:7992   */\n      dup3\n        /* \"#utility.yul\":7979:7997   */\n      add\n        /* \"#utility.yul\":7971:7997   */\n      swap1\n      pop\n        /* \"#utility.yul\":8043:8052   */\n      dup2\n        /* \"#utility.yul\":8037:8041   */\n      dup2\n        /* \"#utility.yul\":8033:8053   */\n      sub\n        /* \"#utility.yul\":8029:8030   */\n      0x00\n        /* \"#utility.yul\":8018:8027   */\n      dup4\n        /* \"#utility.yul\":8014:8031   */\n      add\n        /* \"#utility.yul\":8007:8054   */\n      mstore\n        /* \"#utility.yul\":8071:8202   */\n      tag_275\n        /* \"#utility.yul\":8197:8201   */\n      dup2\n        /* \"#utility.yul\":8071:8202   */\n      tag_247\n      jump\t// in\n    tag_275:\n        /* \"#utility.yul\":8063:8202   */\n      swap1\n      pop\n        /* \"#utility.yul\":7790:8209   */\n      swap2\n      swap1\n      pop\n      jump\t// out\n        /* \"#utility.yul\":8215:8568   */\n    tag_39:\n        /* \"#utility.yul\":8348:8352   */\n      0x00\n        /* \"#utility.yul\":8386:8388   */\n      0x20\n        /* \"#utility.yul\":8375:8384   */\n      dup3\n        /* \"#utility.yul\":8371:8389   */\n      add\n        /* \"#utility.yul\":8363:8389   */\n      swap1\n      pop\n        /* \"#utility.yul\":8435:8444   */\n      dup2\n        /* \"#utility.yul\":8429:8433   */\n      dup2\n        /* \"#utility.yul\":8425:8445   */\n      sub\n        /* \"#utility.yul\":8421:8422   */\n      0x00\n        /* \"#utility.yul\":8410:8419   */\n      dup4\n        /* \"#utility.yul\":8406:8423   */\n      add\n        /* \"#utility.yul\":8399:8446   */\n      mstore\n        /* \"#utility.yul\":8463:8561   */\n      tag_277\n        /* \"#utility.yul\":8556:8560   */\n      dup2\n        /* \"#utility.yul\":8547:8553   */\n      dup5\n        /* \"#utility.yul\":8463:8561   */\n      tag_252\n      jump\t// in\n    tag_277:\n        /* \"#utility.yul\":8455:8561   */\n      swap1\n      pop\n        /* \"#utility.yul\":8215:8568   */\n      swap3\n      swap2\n      pop\n      pop\n      jump\t// out\n        /* \"#utility.yul\":8574:8796   */\n    tag_50:\n        /* \"#utility.yul\":8667:8671   */\n      0x00\n        /* \"#utility.yul\":8705:8707   */\n      0x20\n        /* \"#utility.yul\":8694:8703   */\n      dup3\n        /* \"#utility.yul\":8690:8708   */\n      add\n        /* \"#utility.yul\":8682:8708   */\n      swap1\n      pop\n        /* \"#utility.yul\":8718:8789   */\n      tag_279\n        /* \"#utility.yul\":8786:8787   */\n      0x00\n        /* \"#utility.yul\":8775:8784   */\n      dup4\n        /* \"#utility.yul\":8771:8788   */\n      add\n        /* \"#utility.yul\":8762:8768   */\n      dup5\n        /* \"#utility.yul\":8718:8789   */\n      tag_262\n      jump\t// in\n    tag_279:\n        /* \"#utility.yul\":8574:8796   */\n      swap3\n      swap2\n      pop\n      pop\n      jump\t// out\n        /* \"#utility.yul\":8802:8931   */\n    tag_162:\n        /* \"#utility.yul\":8836:8842   */\n      0x00\n        /* \"#utility.yul\":8863:8883   */\n      tag_281\n      tag_282\n      jump\t// in\n    tag_281:\n        /* \"#utility.yul\":8853:8883   */\n      swap1\n      pop\n        /* \"#utility.yul\":8892:8925   */\n      tag_283\n        /* \"#utility.yul\":8920:8924   */\n      dup3\n        /* \"#utility.yul\":8912:8918   */\n      dup3\n        /* \"#utility.yul\":8892:8925   */\n      tag_284\n      jump\t// in\n    tag_283:\n        /* \"#utility.yul\":8802:8931   */\n      swap2\n      swap1\n      pop\n      jump\t// out\n        /* \"#utility.yul\":8937:9012   */\n    tag_282:\n        /* \"#utility.yul\":8970:8976   */\n      0x00\n        /* \"#utility.yul\":9003:9005   */\n      0x40\n        /* \"#utility.yul\":8997:9006   */\n      mload\n        /* \"#utility.yul\":8987:9006   */\n      swap1\n      pop\n        /* \"#utility.yul\":8937:9012   */\n      swap1\n      jump\t// out\n        /* \"#utility.yul\":9018:9326   */\n    tag_161:\n        /* \"#utility.yul\":9080:9084   */\n      0x00\n        /* \"#utility.yul\":9170:9188   */\n      0xffffffffffffffff\n        /* \"#utility.yul\":9162:9168   */\n      dup3\n        /* \"#utility.yul\":9159:9189   */\n      gt\n        /* \"#utility.yul\":9156:9212   */\n      iszero\n      tag_287\n      jumpi\n        /* \"#utility.yul\":9192:9210   */\n      tag_288\n      tag_289\n      jump\t// in\n    tag_288:\n        /* \"#utility.yul\":9156:9212   */\n    tag_287:\n        /* \"#utility.yul\":9230:9259   */\n      tag_290\n        /* \"#utility.yul\":9252:9258   */\n      dup3\n        /* \"#utility.yul\":9230:9259   */\n      tag_234\n      jump\t// in\n    tag_290:\n        /* \"#utility.yul\":9222:9259   */\n      swap1\n      pop\n        /* \"#utility.yul\":9314:9318   */\n      0x20\n        /* \"#utility.yul\":9308:9312   */\n      dup2\n        /* \"#utility.yul\":9304:9319   */\n      add\n        /* \"#utility.yul\":9296:9319   */\n      swap1\n      pop\n        /* \"#utility.yul\":9018:9326   */\n      swap2\n      swap1\n      pop\n      jump\t// out\n        /* \"#utility.yul\":9332:9431   */\n    tag_228:\n        /* \"#utility.yul\":9384:9390   */\n      0x00\n        /* \"#utility.yul\":9418:9423   */\n      dup2\n        /* \"#utility.yul\":9412:9424   */\n      mload\n        /* \"#utility.yul\":9402:9424   */\n      swap1\n      pop\n        /* \"#utility.yul\":9332:9431   */\n      swap2\n      swap1\n      pop\n      jump\t// out\n        /* \"#utility.yul\":9437:9596   */\n    tag_230:\n        /* \"#utility.yul\":9511:9522   */\n      0x00\n        /* \"#utility.yul\":9545:9551   */\n      dup3\n        /* \"#utility.yul\":9540:9543   */\n      dup3\n        /* \"#utility.yul\":9533:9552   */\n      mstore\n        /* \"#utility.yul\":9585:9589   */\n      0x20\n        /* \"#utility.yul\":9580:9583   */\n      dup3\n        /* \"#utility.yul\":9576:9590   */\n      add\n        /* \"#utility.yul\":9561:9590   */\n      swap1\n      pop\n        /* \"#utility.yul\":9437:9596   */\n      swap3\n      swap2\n      pop\n      pop\n      jump\t// out\n        /* \"#utility.yul\":9602:9771   */\n    tag_239:\n        /* \"#utility.yul\":9686:9697   */\n      0x00\n        /* \"#utility.yul\":9720:9726   */\n      dup3\n        /* \"#utility.yul\":9715:9718   */\n      dup3\n        /* \"#utility.yul\":9708:9727   */\n      mstore\n        /* \"#utility.yul\":9760:9764   */\n      0x20\n        /* \"#utility.yul\":9755:9758   */\n      dup3\n        /* \"#utility.yul\":9751:9765   */\n      add\n        /* \"#utility.yul\":9736:9765   */\n      swap1\n      pop\n        /* \"#utility.yul\":9602:9771   */\n      swap3\n      swap2\n      pop\n      pop\n      jump\t// out\n        /* \"#utility.yul\":9777:10082   */\n    tag_144:\n        /* \"#utility.yul\":9817:9820   */\n      0x00\n        /* \"#utility.yul\":9836:9856   */\n      tag_295\n        /* \"#utility.yul\":9854:9855   */\n      dup3\n        /* \"#utility.yul\":9836:9856   */\n      tag_261\n      jump\t// in\n    tag_295:\n        /* \"#utility.yul\":9831:9856   */\n      swap2\n      pop\n        /* \"#utility.yul\":9870:9890   */\n      tag_296\n        /* \"#utility.yul\":9888:9889   */\n      dup4\n        /* \"#utility.yul\":9870:9890   */\n      tag_261\n      jump\t// in\n    tag_296:\n        /* \"#utility.yul\":9865:9890   */\n      swap3\n      pop\n        /* \"#utility.yul\":10024:10025   */\n      dup3\n        /* \"#utility.yul\":9956:10022   */\n      0xffffffffffffffffffffffffffffffffffffffffffffffffffffffffffffffff\n        /* \"#utility.yul\":9952:10026   */\n      sub\n        /* \"#utility.yul\":9949:9950   */\n      dup3\n        /* \"#utility.yul\":9946:10027   */\n      gt\n        /* \"#utility.yul\":9943:10050   */\n      iszero\n      tag_297\n      jumpi\n        /* \"#utility.yul\":10030:10048   */\n      tag_298\n      tag_299\n      jump\t// in\n    tag_298:\n        /* \"#utility.yul\":9943:10050   */\n    tag_297:\n        /* \"#utility.yul\":10074:10075   */\n      dup3\n        /* \"#utility.yul\":10071:10072   */\n      dup3\n        /* \"#utility.yul\":10067:10076   */\n      add\n        /* \"#utility.yul\":10060:10076   */\n      swap1\n      pop\n        /* \"#utility.yul\":9777:10082   */\n      swap3\n      swap2\n      pop\n      pop\n      jump\t// out\n        /* \"#utility.yul\":10088:10184   */\n    tag_214:\n        /* \"#utility.yul\":10125:10132   */\n      0x00\n        /* \"#utility.yul\":10154:10178   */\n      tag_301\n        /* \"#utility.yul\":10172:10177   */\n      dup3\n        /* \"#utility.yul\":10154:10178   */\n      tag_302\n      jump\t// in\n    tag_301:\n        /* \"#utility.yul\":10143:10178   */\n      swap1\n      pop\n        /* \"#utility.yul\":10088:10184   */\n      swap2\n      swap1\n      pop\n      jump\t// out\n        /* \"#utility.yul\":10190:10280   */\n    tag_221:\n        /* \"#utility.yul\":10224:10231   */\n      0x00\n        /* \"#utility.yul\":10267:10272   */\n      dup2\n        /* \"#utility.yul\":10260:10273   */\n      iszero\n        /* \"#utility.yul\":10253:10274   */\n      iszero\n        /* \"#utility.yul\":10242:10274   */\n      swap1\n      pop\n        /* \"#utility.yul\":10190:10280   */\n      swap2\n      swap1\n      pop\n      jump\t// out\n        /* \"#utility.yul\":10286:10412   */\n    tag_302:\n        /* \"#utility.yul\":10323:10330   */\n      0x00\n        /* \"#utility.yul\":10363:10405   */\n      0xffffffffffffffffffffffffffffffffffffffff\n        /* \"#utility.yul\":10356:10361   */\n      dup3\n        /* \"#utility.yul\":10352:10406   */\n      and\n        /* \"#utility.yul\":10341:10406   */\n      swap1\n      pop\n        /* \"#utility.yul\":10286:10412   */\n      swap2\n      swap1\n      pop\n      jump\t// out\n        /* \"#utility.yul\":10418:10495   */\n    tag_261:\n        /* \"#utility.yul\":10455:10462   */\n      0x00\n        /* \"#utility.yul\":10484:10489   */\n      dup2\n        /* \"#utility.yul\":10473:10489   */\n      swap1\n      pop\n        /* \"#utility.yul\":10418:10495   */\n      swap2\n      swap1\n      pop\n      jump\t// out\n        /* \"#utility.yul\":10501:10655   */\n    tag_167:\n        /* \"#utility.yul\":10585:10591   */\n      dup3\n        /* \"#utility.yul\":10580:10583   */\n      dup2\n        /* \"#utility.yul\":10575:10578   */\n      dup4\n        /* \"#utility.yul\":10562:10592   */\n      calldatacopy\n        /* \"#utility.yul\":10647:10648   */\n      0x00\n        /* \"#utility.yul\":10638:10644   */\n      dup4\n        /* \"#utility.yul\":10633:10636   */\n      dup4\n        /* \"#utility.yul\":10629:10645   */\n      add\n        /* \"#utility.yul\":10622:10649   */\n      mstore\n        /* \"#utility.yul\":10501:10655   */\n      pop\n      pop\n      pop\n      jump\t// out\n        /* \"#utility.yul\":10661:10968   */\n    tag_232:\n        /* \"#utility.yul\":10729:10730   */\n      0x00\n        /* \"#utility.yul\":10739:10852   */\n    tag_308:\n        /* \"#utility.yul\":10753:10759   */\n      dup4\n        /* \"#utility.yul\":10750:10751   */\n      dup2\n        /* \"#utility.yul\":10747:10760   */\n      lt\n        /* \"#utility.yul\":10739:10852   */\n      iszero\n      tag_310\n      jumpi\n        /* \"#utility.yul\":10838:10839   */\n      dup1\n        /* \"#utility.yul\":10833:10836   */\n      dup3\n        /* \"#utility.yul\":10829:10840   */\n      add\n        /* \"#utility.yul\":10823:10841   */\n      mload\n        /* \"#utility.yul\":10819:10820   */\n      dup2\n        /* \"#utility.yul\":10814:10817   */\n      dup5\n        /* \"#utility.yul\":10810:10821   */\n      add\n        /* \"#utility.yul\":10803:10842   */\n      mstore\n        /* \"#utility.yul\":10775:10777   */\n      0x20\n        /* \"#utility.yul\":10772:10773   */\n      dup2\n        /* \"#utility.yul\":10768:10778   */\n      add\n        /* \"#utility.yul\":10763:10778   */\n      swap1\n      pop\n        /* \"#utility.yul\":10739:10852   */\n      jump(tag_308)\n    tag_310:\n        /* \"#utility.yul\":10870:10876   */\n      dup4\n        /* \"#utility.yul\":10867:10868   */\n      dup2\n        /* \"#utility.yul\":10864:10877   */\n      gt\n        /* \"#utility.yul\":10861:10962   */\n      iszero\n      tag_311\n      jumpi\n        /* \"#utility.yul\":10950:10951   */\n      0x00\n        /* \"#utility.yul\":10941:10947   */\n      dup5\n        /* \"#utility.yul\":10936:10939   */\n      dup5\n        /* \"#utility.yul\":10932:10948   */\n      add\n        /* \"#utility.yul\":10925:10952   */\n      mstore\n        /* \"#utility.yul\":10861:10962   */\n    tag_311:\n        /* \"#utility.yul\":10710:10968   */\n      pop\n        /* \"#utility.yul\":10661:10968   */\n      pop\n      pop\n      pop\n      jump\t// out\n        /* \"#utility.yul\":10974:11294   */\n    tag_75:\n        /* \"#utility.yul\":11018:11024   */\n      0x00\n        /* \"#utility.yul\":11055:11056   */\n      0x02\n        /* \"#utility.yul\":11049:11053   */\n      dup3\n        /* \"#utility.yul\":11045:11057   */\n      div\n        /* \"#utility.yul\":11035:11057   */\n      swap1\n      pop\n        /* \"#utility.yul\":11102:11103   */\n      0x01\n        /* \"#utility.yul\":11096:11100   */\n      dup3\n        /* \"#utility.yul\":11092:11104   */\n      and\n        /* \"#utility.yul\":11123:11141   */\n      dup1\n        /* \"#utility.yul\":11113:11194   */\n      tag_313\n      jumpi\n        /* \"#utility.yul\":11179:11183   */\n      0x7f\n        /* \"#utility.yul\":11171:11177   */\n      dup3\n        /* \"#utility.yul\":11167:11184   */\n      and\n        /* \"#utility.yul\":11157:11184   */\n      swap2\n      pop\n        /* \"#utility.yul\":11113:11194   */\n    tag_313:\n        /* \"#utility.yul\":11241:11243   */\n      0x20\n        /* \"#utility.yul\":11233:11239   */\n      dup3\n        /* \"#utility.yul\":11230:11244   */\n      lt\n        /* \"#utility.yul\":11210:11228   */\n      dup2\n        /* \"#utility.yul\":11207:11245   */\n      eq\n        /* \"#utility.yul\":11204:11288   */\n      iszero\n      tag_314\n      jumpi\n        /* \"#utility.yul\":11260:11278   */\n      tag_315\n      tag_316\n      jump\t// in\n    tag_315:\n        /* \"#utility.yul\":11204:11288   */\n    tag_314:\n        /* \"#utility.yul\":11025:11294   */\n      pop\n        /* \"#utility.yul\":10974:11294   */\n      swap2\n      swap1\n      pop\n      jump\t// out\n        /* \"#utility.yul\":11300:11581   */\n    tag_284:\n        /* \"#utility.yul\":11383:11410   */\n      tag_318\n        /* \"#utility.yul\":11405:11409   */\n      dup3\n        /* \"#utility.yul\":11383:11410   */\n      tag_234\n      jump\t// in\n    tag_318:\n        /* \"#utility.yul\":11375:11381   */\n      dup2\n        /* \"#utility.yul\":11371:11411   */\n      add\n        /* \"#utility.yul\":11513:11519   */\n      dup2\n        /* \"#utility.yul\":11501:11511   */\n      dup2\n        /* \"#utility.yul\":11498:11520   */\n      lt\n        /* \"#utility.yul\":11477:11495   */\n      0xffffffffffffffff\n        /* \"#utility.yul\":11465:11475   */\n      dup3\n        /* \"#utility.yul\":11462:11496   */\n      gt\n        /* \"#utility.yul\":11459:11521   */\n      or\n        /* \"#utility.yul\":11456:11544   */\n      iszero\n      tag_319\n      jumpi\n        /* \"#utility.yul\":11524:11542   */\n      tag_320\n      tag_289\n      jump\t// in\n    tag_320:\n        /* \"#utility.yul\":11456:11544   */\n    tag_319:\n        /* \"#utility.yul\":11564:11574   */\n      dup1\n        /* \"#utility.yul\":11560:11562   */\n      0x40\n        /* \"#utility.yul\":11553:11575   */\n      mstore\n        /* \"#utility.yul\":11343:11581   */\n      pop\n        /* \"#utility.yul\":11300:11581   */\n      pop\n      pop\n      jump\t// out\n        /* \"#utility.yul\":11587:11820   */\n    tag_105:\n        /* \"#utility.yul\":11626:11629   */\n      0x00\n        /* \"#utility.yul\":11649:11673   */\n      tag_322\n        /* \"#utility.yul\":11667:11672   */\n      dup3\n        /* \"#utility.yul\":11649:11673   */\n      tag_261\n      jump\t// in\n    tag_322:\n        /* \"#utility.yul\":11640:11673   */\n      swap2\n      pop\n        /* \"#utility.yul\":11695:11761   */\n      0xffffffffffffffffffffffffffffffffffffffffffffffffffffffffffffffff\n        /* \"#utility.yul\":11688:11693   */\n      dup3\n        /* \"#utility.yul\":11685:11762   */\n      eq\n        /* \"#utility.yul\":11682:11785   */\n      iszero\n      tag_323\n      jumpi\n        /* \"#utility.yul\":11765:11783   */\n      tag_324\n      tag_299\n      jump\t// in\n    tag_324:\n        /* \"#utility.yul\":11682:11785   */\n    tag_323:\n        /* \"#utility.yul\":11812:11813   */\n      0x01\n        /* \"#utility.yul\":11805:11810   */\n      dup3\n        /* \"#utility.yul\":11801:11814   */\n      add\n        /* \"#utility.yul\":11794:11814   */\n      swap1\n      pop\n        /* \"#utility.yul\":11587:11820   */\n      swap2\n      swap1\n      pop\n      jump\t// out\n        /* \"#utility.yul\":11826:12006   */\n    tag_299:\n        /* \"#utility.yul\":11874:11951   */\n      0x4e487b7100000000000000000000000000000000000000000000000000000000\n        /* \"#utility.yul\":11871:11872   */\n      0x00\n        /* \"#utility.yul\":11864:11952   */\n      mstore\n        /* \"#utility.yul\":11971:11975   */\n      0x11\n        /* \"#utility.yul\":11968:11969   */\n      0x04\n        /* \"#utility.yul\":11961:11976   */\n      mstore\n        /* \"#utility.yul\":11995:11999   */\n      0x24\n        /* \"#utility.yul\":11992:11993   */\n      0x00\n        /* \"#utility.yul\":11985:12000   */\n      revert\n        /* \"#utility.yul\":12012:12192   */\n    tag_316:\n        /* \"#utility.yul\":12060:12137   */\n      0x4e487b7100000000000000000000000000000000000000000000000000000000\n        /* \"#utility.yul\":12057:12058   */\n      0x00\n        /* \"#utility.yul\":12050:12138   */\n      mstore\n        /* \"#utility.yul\":12157:12161   */\n      0x22\n        /* \"#utility.yul\":12154:12155   */\n      0x04\n        /* \"#utility.yul\":12147:12162   */\n      mstore\n        /* \"#utility.yul\":12181:12185   */\n      0x24\n        /* \"#utility.yul\":12178:12179   */\n      0x00\n        /* \"#utility.yul\":12171:12186   */\n      revert\n        /* \"#utility.yul\":12198:12378   */\n    tag_90:\n        /* \"#utility.yul\":12246:12323   */\n      0x4e487b7100000000000000000000000000000000000000000000000000000000\n        /* \"#utility.yul\":12243:12244   */\n      0x00\n        /* \"#utility.yul\":12236:12324   */\n      mstore\n        /* \"#utility.yul\":12343:12347   */\n      0x32\n        /* \"#utility.yul\":12340:12341   */\n      0x04\n        /* \"#utility.yul\":12333:12348   */\n      mstore\n        /* \"#utility.yul\":12367:12371   */\n      0x24\n        /* \"#utility.yul\":12364:12365   */\n      0x00\n        /* \"#utility.yul\":12357:12372   */\n      revert\n        /* \"#utility.yul\":12384:12564   */\n    tag_289:\n        /* \"#utility.yul\":12432:12509   */\n      0x4e487b7100000000000000000000000000000000000000000000000000000000\n        /* \"#utility.yul\":12429:12430   */\n      0x00\n        /* \"#utility.yul\":12422:12510   */\n      mstore\n        /* \"#utility.yul\":12529:12533   */\n      0x41\n        /* \"#utility.yul\":12526:12527   */\n      0x04\n        /* \"#utility.yul\":12519:12534   */\n      mstore\n        /* \"#utility.yul\":12553:12557   */\n      0x24\n        /* \"#utility.yul\":12550:12551   */\n      0x00\n        /* \"#utility.yul\":12543:12558   */\n      revert\n        /* \"#utility.yul\":12570:12687   */\n    tag_180:\n        /* \"#utility.yul\":12679:12680   */\n      0x00\n        /* \"#utility.yul\":12676:12677   */\n      dup1\n        /* \"#utility.yul\":12669:12681   */\n      revert\n        /* \"#utility.yul\":12693:12810   */\n    tag_165:\n        /* \"#utility.yul\":12802:12803   */\n      0x00\n        /* \"#utility.yul\":12799:12800   */\n      dup1\n        /* \"#utility.yul\":12792:12804   */\n      revert\n        /* \"#utility.yul\":12816:12933   */\n    tag_197:\n        /* \"#utility.yul\":12925:12926   */\n      0x00\n        /* \"#utility.yul\":12922:12923   */\n      dup1\n        /* \"#utility.yul\":12915:12927   */\n      revert\n        /* \"#utility.yul\":12939:13056   */\n    tag_189:\n        /* \"#utility.yul\":13048:13049   */\n      0x00\n        /* \"#utility.yul\":13045:13046   */\n      dup1\n        /* \"#utility.yul\":13038:13050   */\n      revert\n        /* \"#utility.yul\":13062:13164   */\n    tag_234:\n        /* \"#utility.yul\":13103:13109   */\n      0x00\n        /* \"#utility.yul\":13154:13156   */\n      0x1f\n        /* \"#utility.yul\":13150:13157   */\n      not\n        /* \"#utility.yul\":13145:13147   */\n      0x1f\n        /* \"#utility.yul\":13138:13143   */\n      dup4\n        /* \"#utility.yul\":13134:13148   */\n      add\n        /* \"#utility.yul\":13130:13158   */\n      and\n        /* \"#utility.yul\":13120:13158   */\n      swap1\n      pop\n        /* \"#utility.yul\":13062:13164   */\n      swap2\n      swap1\n      pop\n      jump\t// out\n        /* \"#utility.yul\":13170:13342   */\n    tag_246:\n        /* \"#utility.yul\":13310:13334   */\n      0x496e76616c69642057616c6c6574204164647265737300000000000000000000\n        /* \"#utility.yul\":13306:13307   */\n      0x00\n        /* \"#utility.yul\":13298:13304   */\n      dup3\n        /* \"#utility.yul\":13294:13308   */\n      add\n        /* \"#utility.yul\":13287:13335   */\n      mstore\n        /* \"#utility.yul\":13170:13342   */\n      pop\n      jump\t// out\n        /* \"#utility.yul\":13348:13519   */\n    tag_251:\n        /* \"#utility.yul\":13488:13511   */\n      0x596f7520617265206e6f7420746865206f776e65720000000000000000000000\n        /* \"#utility.yul\":13484:13485   */\n      0x00\n        /* \"#utility.yul\":13476:13482   */\n      dup3\n        /* \"#utility.yul\":13472:13486   */\n      add\n        /* \"#utility.yul\":13465:13512   */\n      mstore\n        /* \"#utility.yul\":13348:13519   */\n      pop\n      jump\t// out\n        /* \"#utility.yul\":13525:13647   */\n    tag_171:\n        /* \"#utility.yul\":13598:13622   */\n      tag_337\n        /* \"#utility.yul\":13616:13621   */\n      dup2\n        /* \"#utility.yul\":13598:13622   */\n      tag_214\n      jump\t// in\n    tag_337:\n        /* \"#utility.yul\":13591:13596   */\n      dup2\n        /* \"#utility.yul\":13588:13623   */\n      eq\n        /* \"#utility.yul\":13578:13641   */\n      tag_338\n      jumpi\n        /* \"#utility.yul\":13637:13638   */\n      0x00\n        /* \"#utility.yul\":13634:13635   */\n      dup1\n        /* \"#utility.yul\":13627:13639   */\n      revert\n        /* \"#utility.yul\":13578:13641   */\n    tag_338:\n        /* \"#utility.yul\":13525:13647   */\n      pop\n      jump\t// out\n        /* \"#utility.yul\":13653:13769   */\n    tag_175:\n        /* \"#utility.yul\":13723:13744   */\n      tag_340\n        /* \"#utility.yul\":13738:13743   */\n      dup2\n        /* \"#utility.yul\":13723:13744   */\n      tag_221\n      jump\t// in\n    tag_340:\n        /* \"#utility.yul\":13716:13721   */\n      dup2\n        /* \"#utility.yul\":13713:13745   */\n      eq\n        /* \"#utility.yul\":13703:13763   */\n      tag_341\n      jumpi\n        /* \"#utility.yul\":13759:13760   */\n      0x00\n        /* \"#utility.yul\":13756:13757   */\n      dup1\n        /* \"#utility.yul\":13749:13761   */\n      revert\n        /* \"#utility.yul\":13703:13763   */\n    tag_341:\n        /* \"#utility.yul\":13653:13769   */\n      pop\n      jump\t// out\n        /* \"#utility.yul\":13775:13897   */\n    tag_185:\n        /* \"#utility.yul\":13848:13872   */\n      tag_343\n        /* \"#utility.yul\":13866:13871   */\n      dup2\n        /* \"#utility.yul\":13848:13872   */\n      tag_261\n      jump\t// in\n    tag_343:\n        /* \"#utility.yul\":13841:13846   */\n      dup2\n        /* \"#utility.yul\":13838:13873   */\n      eq\n        /* \"#utility.yul\":13828:13891   */\n      tag_344\n      jumpi\n        /* \"#utility.yul\":13887:13888   */\n      0x00\n        /* \"#utility.yul\":13884:13885   */\n      dup1\n        /* \"#utility.yul\":13877:13889   */\n      revert\n        /* \"#utility.yul\":13828:13891   */\n    tag_344:\n        /* \"#utility.yul\":13775:13897   */\n      pop\n      jump\t// out\n\n    auxdata: 0xa264697066735822122016b83be7eecac2ae848e467df7260c7577337a25a683f8b963862339d7e06d4264736f6c63430008070033\n}\n",
				"bytecode": {
					"linkReferences": {},
					"object": "608060405234801561001057600080fd5b50336000806101000a81548173ffffffffffffffffffffffffffffffffffffffff021916908373ffffffffffffffffffffffffffffffffffffffff160217905550611457806100606000396000f3fe6080604052600436106100865760003560e01c806369c212f61161005957806369c212f61461014d5780636f7bc9be1461018a57806370a08231146101ca578063d7bed4bc14610207578063fddc968e1461023057610086565b80631a6952301461008b578063280879e7146100a7578063365b98b2146100d05780634140eb0d14610110575b600080fd5b6100a560048036038101906100a09190610d1b565b61026d565b005b3480156100b357600080fd5b506100ce60048036038101906100c99190610d48565b610279565b005b3480156100dc57600080fd5b506100f760048036038101906100f29190610e14565b610401565b6040516101079493929190610fb6565b60405180910390f35b34801561011c57600080fd5b5061013760048036038101906101329190610d1b565b6104f6565b6040516101449190611002565b60405180910390f35b34801561015957600080fd5b50610174600480360381019061016f9190610d1b565b610511565b604051610181919061105d565b60405180910390f35b34801561019657600080fd5b506101b160048036038101906101ac9190610d1b565b610775565b6040516101c19493929190610fb6565b60405180910390f35b3480156101d657600080fd5b506101f160048036038101906101ec9190610d1b565b61085a565b6040516101fe919061107f565b60405180910390f35b34801561021357600080fd5b5061022e60048036038101906102299190610d1b565b610935565b005b34801561023c57600080fd5b5061025760048036038101906102529190610dcb565b610aa5565b6040516102649190611002565b60405180910390f35b61027681610aac565b50565b60008054906101000a900473ffffffffffffffffffffffffffffffffffffffff1673ffffffffffffffffffffffffffffffffffffffff163373ffffffffffffffffffffffffffffffffffffffff1614610307576040517f08c379a00000000000000000000000000000000000000000000000000000000081526004016102fe9061103d565b60405180910390fd5b600160405180608001604052808673ffffffffffffffffffffffffffffffffffffffff168152602001858152602001848152602001831515815250908060018154018082558091505060019003906000526020600020906004020160009091909190915060008201518160000160006101000a81548173ffffffffffffffffffffffffffffffffffffffff021916908373ffffffffffffffffffffffffffffffffffffffff16021790555060208201518160010190805190602001906103ce929190610b89565b506040820151816002015560608201518160030160006101000a81548160ff021916908315150217905550505050505050565b6001818154811061041157600080fd5b90600052602060002090600402016000915090508060000160009054906101000a900473ffffffffffffffffffffffffffffffffffffffff169080600101805461045a906111fd565b80601f0160208091040260200160405190810160405280929190818152602001828054610486906111fd565b80156104d35780601f106104a8576101008083540402835291602001916104d3565b820191906000526020600020905b8154815290600101906020018083116104b657829003601f168201915b5050505050908060020154908060030160009054906101000a900460ff16905084565b60008061050283610511565b90508060600151915050919050565b610519610c0f565b60005b600180549050811015610734578273ffffffffffffffffffffffffffffffffffffffff166001828154811061055457610553611307565b5b906000526020600020906004020160000160009054906101000a900473ffffffffffffffffffffffffffffffffffffffff1673ffffffffffffffffffffffffffffffffffffffff1614156107215760018082815481106105b7576105b6611307565b5b906000526020600020906004020160030160006101000a81548160ff021916908315150217905550600181815481106105f3576105f2611307565b5b90600052602060002090600402016040518060800160405290816000820160009054906101000a900473ffffffffffffffffffffffffffffffffffffffff1673ffffffffffffffffffffffffffffffffffffffff1673ffffffffffffffffffffffffffffffffffffffff168152602001600182018054610672906111fd565b80601f016020809104026020016040519081016040528092919081815260200182805461069e906111fd565b80156106eb5780601f106106c0576101008083540402835291602001916106eb565b820191906000526020600020905b8154815290600101906020018083116106ce57829003601f168201915b50505050508152602001600282015481526020016003820160009054906101000a900460ff161515151581525050915050610770565b808061072c90611260565b91505061051c565b506040517f08c379a00000000000000000000000000000000000000000000000000000000081526004016107679061101d565b60405180910390fd5b919050565b60026020528060005260406000206000915090508060000160009054906101000a900473ffffffffffffffffffffffffffffffffffffffff16908060010180546107be906111fd565b80601f01602080910402602001604051908101604052809291908181526020018280546107ea906111fd565b80156108375780601f1061080c57610100808354040283529160200191610837565b820191906000526020600020905b81548152906001019060200180831161081a57829003601f168201915b5050505050908060020154908060030160009054906101000a900460ff16905084565b600080600090505b600180549050811015610929578273ffffffffffffffffffffffffffffffffffffffff166001828154811061089a57610899611307565b5b906000526020600020906004020160000160009054906101000a900473ffffffffffffffffffffffffffffffffffffffff1673ffffffffffffffffffffffffffffffffffffffff16141561091657600181815481106108fc576108fb611307565b5b906000526020600020906004020160020154915050610930565b808061092190611260565b915050610862565b506103e790505b919050565b60008054906101000a900473ffffffffffffffffffffffffffffffffffffffff1673ffffffffffffffffffffffffffffffffffffffff163373ffffffffffffffffffffffffffffffffffffffff16146109c3576040517f08c379a00000000000000000000000000000000000000000000000000000000081526004016109ba9061103d565b60405180910390fd5b60006109ce82610511565b905080600260008473ffffffffffffffffffffffffffffffffffffffff1673ffffffffffffffffffffffffffffffffffffffff16815260200190815260200160002060008201518160000160006101000a81548173ffffffffffffffffffffffffffffffffffffffff021916908373ffffffffffffffffffffffffffffffffffffffff1602179055506020820151816001019080519060200190610a73929190610b89565b506040820151816002015560608201518160030160006101000a81548160ff0219169083151502179055509050505050565b6000919050565b60005b600180549050811015610b85578173ffffffffffffffffffffffffffffffffffffffff1660018281548110610ae757610ae6611307565b5b906000526020600020906004020160000160009054906101000a900473ffffffffffffffffffffffffffffffffffffffff1673ffffffffffffffffffffffffffffffffffffffff161415610b72573460018281548110610b4a57610b49611307565b5b90600052602060002090600402016002016000828254610b6a919061111d565b925050819055505b8080610b7d90611260565b915050610aaf565b5050565b828054610b95906111fd565b90600052602060002090601f016020900481019282610bb75760008555610bfe565b82601f10610bd057805160ff1916838001178555610bfe565b82800160010185558215610bfe579182015b82811115610bfd578251825591602001919060010190610be2565b5b509050610c0b9190610c4f565b5090565b6040518060800160405280600073ffffffffffffffffffffffffffffffffffffffff16815260200160608152602001600081526020016000151581525090565b5b80821115610c68576000816000905550600101610c50565b5090565b6000610c7f610c7a846110bf565b61109a565b905082815260208101848484011115610c9b57610c9a61136a565b5b610ca68482856111bb565b509392505050565b600081359050610cbd816113dc565b92915050565b600081359050610cd2816113f3565b92915050565b600082601f830112610ced57610cec611365565b5b8135610cfd848260208601610c6c565b91505092915050565b600081359050610d158161140a565b92915050565b600060208284031215610d3157610d30611374565b5b6000610d3f84828501610cae565b91505092915050565b60008060008060808587031215610d6257610d61611374565b5b6000610d7087828801610cae565b945050602085013567ffffffffffffffff811115610d9157610d9061136f565b5b610d9d87828801610cd8565b9350506040610dae87828801610d06565b9250506060610dbf87828801610cc3565b91505092959194509250565b600060208284031215610de157610de0611374565b5b600082013567ffffffffffffffff811115610dff57610dfe61136f565b5b610e0b84828501610cd8565b91505092915050565b600060208284031215610e2a57610e29611374565b5b6000610e3884828501610d06565b91505092915050565b610e4a81611173565b82525050565b610e5981611173565b82525050565b610e6881611185565b82525050565b610e7781611185565b82525050565b6000610e88826110f0565b610e9281856110fb565b9350610ea28185602086016111ca565b610eab81611379565b840191505092915050565b6000610ec1826110f0565b610ecb818561110c565b9350610edb8185602086016111ca565b610ee481611379565b840191505092915050565b6000610efc60168361110c565b9150610f078261138a565b602082019050919050565b6000610f1f60158361110c565b9150610f2a826113b3565b602082019050919050565b6000608083016000830151610f4d6000860182610e41565b5060208301518482036020860152610f658282610e7d565b9150506040830151610f7a6040860182610f98565b506060830151610f8d6060860182610e5f565b508091505092915050565b610fa1816111b1565b82525050565b610fb0816111b1565b82525050565b6000608082019050610fcb6000830187610e50565b8181036020830152610fdd8186610eb6565b9050610fec6040830185610fa7565b610ff96060830184610e6e565b95945050505050565b60006020820190506110176000830184610e6e565b92915050565b6000602082019050818103600083015261103681610eef565b9050919050565b6000602082019050818103600083015261105681610f12565b9050919050565b600060208201905081810360008301526110778184610f35565b905092915050565b60006020820190506110946000830184610fa7565b92915050565b60006110a46110b5565b90506110b0828261122f565b919050565b6000604051905090565b600067ffffffffffffffff8211156110da576110d9611336565b5b6110e382611379565b9050602081019050919050565b600081519050919050565b600082825260208201905092915050565b600082825260208201905092915050565b6000611128826111b1565b9150611133836111b1565b9250827fffffffffffffffffffffffffffffffffffffffffffffffffffffffffffffffff03821115611168576111676112a9565b5b828201905092915050565b600061117e82611191565b9050919050565b60008115159050919050565b600073ffffffffffffffffffffffffffffffffffffffff82169050919050565b6000819050919050565b82818337600083830152505050565b60005b838110156111e85780820151818401526020810190506111cd565b838111156111f7576000848401525b50505050565b6000600282049050600182168061121557607f821691505b60208210811415611229576112286112d8565b5b50919050565b61123882611379565b810181811067ffffffffffffffff8211171561125757611256611336565b5b80604052505050565b600061126b826111b1565b91507fffffffffffffffffffffffffffffffffffffffffffffffffffffffffffffffff82141561129e5761129d6112a9565b5b600182019050919050565b7f4e487b7100000000000000000000000000000000000000000000000000000000600052601160045260246000fd5b7f4e487b7100000000000000000000000000000000000000000000000000000000600052602260045260246000fd5b7f4e487b7100000000000000000000000000000000000000000000000000000000600052603260045260246000fd5b7f4e487b7100000000000000000000000000000000000000000000000000000000600052604160045260246000fd5b600080fd5b600080fd5b600080fd5b600080fd5b6000601f19601f8301169050919050565b7f496e76616c69642057616c6c6574204164647265737300000000000000000000600082015250565b7f596f7520617265206e6f7420746865206f776e65720000000000000000000000600082015250565b6113e581611173565b81146113f057600080fd5b50565b6113fc81611185565b811461140757600080fd5b50565b611413816111b1565b811461141e57600080fd5b5056fea264697066735822122016b83be7eecac2ae848e467df7260c7577337a25a683f8b963862339d7e06d4264736f6c63430008070033",
					"opcodes": "PUSH1 0x80 PUSH1 0x40 MSTORE CALLVALUE DUP1 ISZERO PUSH2 0x10 JUMPI PUSH1 0x0 DUP1 REVERT JUMPDEST POP CALLER PUSH1 0x0 DUP1 PUSH2 0x100 EXP DUP2 SLOAD DUP2 PUSH20 0xFFFFFFFFFFFFFFFFFFFFFFFFFFFFFFFFFFFFFFFF MUL NOT AND SWAP1 DUP4 PUSH20 0xFFFFFFFFFFFFFFFFFFFFFFFFFFFFFFFFFFFFFFFF AND MUL OR SWAP1 SSTORE POP PUSH2 0x1457 DUP1 PUSH2 0x60 PUSH1 0x0 CODECOPY PUSH1 0x0 RETURN INVALID PUSH1 0x80 PUSH1 0x40 MSTORE PUSH1 0x4 CALLDATASIZE LT PUSH2 0x86 JUMPI PUSH1 0x0 CALLDATALOAD PUSH1 0xE0 SHR DUP1 PUSH4 0x69C212F6 GT PUSH2 0x59 JUMPI DUP1 PUSH4 0x69C212F6 EQ PUSH2 0x14D JUMPI DUP1 PUSH4 0x6F7BC9BE EQ PUSH2 0x18A JUMPI DUP1 PUSH4 0x70A08231 EQ PUSH2 0x1CA JUMPI DUP1 PUSH4 0xD7BED4BC EQ PUSH2 0x207 JUMPI DUP1 PUSH4 0xFDDC968E EQ PUSH2 0x230 JUMPI PUSH2 0x86 JUMP JUMPDEST DUP1 PUSH4 0x1A695230 EQ PUSH2 0x8B JUMPI DUP1 PUSH4 0x280879E7 EQ PUSH2 0xA7 JUMPI DUP1 PUSH4 0x365B98B2 EQ PUSH2 0xD0 JUMPI DUP1 PUSH4 0x4140EB0D EQ PUSH2 0x110 JUMPI JUMPDEST PUSH1 0x0 DUP1 REVERT JUMPDEST PUSH2 0xA5 PUSH1 0x4 DUP1 CALLDATASIZE SUB DUP2 ADD SWAP1 PUSH2 0xA0 SWAP2 SWAP1 PUSH2 0xD1B JUMP JUMPDEST PUSH2 0x26D JUMP JUMPDEST STOP JUMPDEST CALLVALUE DUP1 ISZERO PUSH2 0xB3 JUMPI PUSH1 0x0 DUP1 REVERT JUMPDEST POP PUSH2 0xCE PUSH1 0x4 DUP1 CALLDATASIZE SUB DUP2 ADD SWAP1 PUSH2 0xC9 SWAP2 SWAP1 PUSH2 0xD48 JUMP JUMPDEST PUSH2 0x279 JUMP JUMPDEST STOP JUMPDEST CALLVALUE DUP1 ISZERO PUSH2 0xDC JUMPI PUSH1 0x0 DUP1 REVERT JUMPDEST POP PUSH2 0xF7 PUSH1 0x4 DUP1 CALLDATASIZE SUB DUP2 ADD SWAP1 PUSH2 0xF2 SWAP2 SWAP1 PUSH2 0xE14 JUMP JUMPDEST PUSH2 0x401 JUMP JUMPDEST PUSH1 0x40 MLOAD PUSH2 0x107 SWAP5 SWAP4 SWAP3 SWAP2 SWAP1 PUSH2 0xFB6 JUMP JUMPDEST PUSH1 0x40 MLOAD DUP1 SWAP2 SUB SWAP1 RETURN JUMPDEST CALLVALUE DUP1 ISZERO PUSH2 0x11C JUMPI PUSH1 0x0 DUP1 REVERT JUMPDEST POP PUSH2 0x137 PUSH1 0x4 DUP1 CALLDATASIZE SUB DUP2 ADD SWAP1 PUSH2 0x132 SWAP2 SWAP1 PUSH2 0xD1B JUMP JUMPDEST PUSH2 0x4F6 JUMP JUMPDEST PUSH1 0x40 MLOAD PUSH2 0x144 SWAP2 SWAP1 PUSH2 0x1002 JUMP JUMPDEST PUSH1 0x40 MLOAD DUP1 SWAP2 SUB SWAP1 RETURN JUMPDEST CALLVALUE DUP1 ISZERO PUSH2 0x159 JUMPI PUSH1 0x0 DUP1 REVERT JUMPDEST POP PUSH2 0x174 PUSH1 0x4 DUP1 CALLDATASIZE SUB DUP2 ADD SWAP1 PUSH2 0x16F SWAP2 SWAP1 PUSH2 0xD1B JUMP JUMPDEST PUSH2 0x511 JUMP JUMPDEST PUSH1 0x40 MLOAD PUSH2 0x181 SWAP2 SWAP1 PUSH2 0x105D JUMP JUMPDEST PUSH1 0x40 MLOAD DUP1 SWAP2 SUB SWAP1 RETURN JUMPDEST CALLVALUE DUP1 ISZERO PUSH2 0x196 JUMPI PUSH1 0x0 DUP1 REVERT JUMPDEST POP PUSH2 0x1B1 PUSH1 0x4 DUP1 CALLDATASIZE SUB DUP2 ADD SWAP1 PUSH2 0x1AC SWAP2 SWAP1 PUSH2 0xD1B JUMP JUMPDEST PUSH2 0x775 JUMP JUMPDEST PUSH1 0x40 MLOAD PUSH2 0x1C1 SWAP5 SWAP4 SWAP3 SWAP2 SWAP1 PUSH2 0xFB6 JUMP JUMPDEST PUSH1 0x40 MLOAD DUP1 SWAP2 SUB SWAP1 RETURN JUMPDEST CALLVALUE DUP1 ISZERO PUSH2 0x1D6 JUMPI PUSH1 0x0 DUP1 REVERT JUMPDEST POP PUSH2 0x1F1 PUSH1 0x4 DUP1 CALLDATASIZE SUB DUP2 ADD SWAP1 PUSH2 0x1EC SWAP2 SWAP1 PUSH2 0xD1B JUMP JUMPDEST PUSH2 0x85A JUMP JUMPDEST PUSH1 0x40 MLOAD PUSH2 0x1FE SWAP2 SWAP1 PUSH2 0x107F JUMP JUMPDEST PUSH1 0x40 MLOAD DUP1 SWAP2 SUB SWAP1 RETURN JUMPDEST CALLVALUE DUP1 ISZERO PUSH2 0x213 JUMPI PUSH1 0x0 DUP1 REVERT JUMPDEST POP PUSH2 0x22E PUSH1 0x4 DUP1 CALLDATASIZE SUB DUP2 ADD SWAP1 PUSH2 0x229 SWAP2 SWAP1 PUSH2 0xD1B JUMP JUMPDEST PUSH2 0x935 JUMP JUMPDEST STOP JUMPDEST CALLVALUE DUP1 ISZERO PUSH2 0x23C JUMPI PUSH1 0x0 DUP1 REVERT JUMPDEST POP PUSH2 0x257 PUSH1 0x4 DUP1 CALLDATASIZE SUB DUP2 ADD SWAP1 PUSH2 0x252 SWAP2 SWAP1 PUSH2 0xDCB JUMP JUMPDEST PUSH2 0xAA5 JUMP JUMPDEST PUSH1 0x40 MLOAD PUSH2 0x264 SWAP2 SWAP1 PUSH2 0x1002 JUMP JUMPDEST PUSH1 0x40 MLOAD DUP1 SWAP2 SUB SWAP1 RETURN JUMPDEST PUSH2 0x276 DUP2 PUSH2 0xAAC JUMP JUMPDEST POP JUMP JUMPDEST PUSH1 0x0 DUP1 SLOAD SWAP1 PUSH2 0x100 EXP SWAP1 DIV PUSH20 0xFFFFFFFFFFFFFFFFFFFFFFFFFFFFFFFFFFFFFFFF AND PUSH20 0xFFFFFFFFFFFFFFFFFFFFFFFFFFFFFFFFFFFFFFFF AND CALLER PUSH20 0xFFFFFFFFFFFFFFFFFFFFFFFFFFFFFFFFFFFFFFFF AND EQ PUSH2 0x307 JUMPI PUSH1 0x40 MLOAD PUSH32 0x8C379A000000000000000000000000000000000000000000000000000000000 DUP2 MSTORE PUSH1 0x4 ADD PUSH2 0x2FE SWAP1 PUSH2 0x103D JUMP JUMPDEST PUSH1 0x40 MLOAD DUP1 SWAP2 SUB SWAP1 REVERT JUMPDEST PUSH1 0x1 PUSH1 0x40 MLOAD DUP1 PUSH1 0x80 ADD PUSH1 0x40 MSTORE DUP1 DUP7 PUSH20 0xFFFFFFFFFFFFFFFFFFFFFFFFFFFFFFFFFFFFFFFF AND DUP2 MSTORE PUSH1 0x20 ADD DUP6 DUP2 MSTORE PUSH1 0x20 ADD DUP5 DUP2 MSTORE PUSH1 0x20 ADD DUP4 ISZERO ISZERO DUP2 MSTORE POP SWAP1 DUP1 PUSH1 0x1 DUP2 SLOAD ADD DUP1 DUP3 SSTORE DUP1 SWAP2 POP POP PUSH1 0x1 SWAP1 SUB SWAP1 PUSH1 0x0 MSTORE PUSH1 0x20 PUSH1 0x0 KECCAK256 SWAP1 PUSH1 0x4 MUL ADD PUSH1 0x0 SWAP1 SWAP2 SWAP1 SWAP2 SWAP1 SWAP2 POP PUSH1 0x0 DUP3 ADD MLOAD DUP2 PUSH1 0x0 ADD PUSH1 0x0 PUSH2 0x100 EXP DUP2 SLOAD DUP2 PUSH20 0xFFFFFFFFFFFFFFFFFFFFFFFFFFFFFFFFFFFFFFFF MUL NOT AND SWAP1 DUP4 PUSH20 0xFFFFFFFFFFFFFFFFFFFFFFFFFFFFFFFFFFFFFFFF AND MUL OR SWAP1 SSTORE POP PUSH1 0x20 DUP3 ADD MLOAD DUP2 PUSH1 0x1 ADD SWAP1 DUP1 MLOAD SWAP1 PUSH1 0x20 ADD SWAP1 PUSH2 0x3CE SWAP3 SWAP2 SWAP1 PUSH2 0xB89 JUMP JUMPDEST POP PUSH1 0x40 DUP3 ADD MLOAD DUP2 PUSH1 0x2 ADD SSTORE PUSH1 0x60 DUP3 ADD MLOAD DUP2 PUSH1 0x3 ADD PUSH1 0x0 PUSH2 0x100 EXP DUP2 SLOAD DUP2 PUSH1 0xFF MUL NOT AND SWAP1 DUP4 ISZERO ISZERO MUL OR SWAP1 SSTORE POP POP POP POP POP POP POP JUMP JUMPDEST PUSH1 0x1 DUP2 DUP2 SLOAD DUP2 LT PUSH2 0x411 JUMPI PUSH1 0x0 DUP1 REVERT JUMPDEST SWAP1 PUSH1 0x0 MSTORE PUSH1 0x20 PUSH1 0x0 KECCAK256 SWAP1 PUSH1 0x4 MUL ADD PUSH1 0x0 SWAP2 POP SWAP1 POP DUP1 PUSH1 0x0 ADD PUSH1 0x0 SWAP1 SLOAD SWAP1 PUSH2 0x100 EXP SWAP1 DIV PUSH20 0xFFFFFFFFFFFFFFFFFFFFFFFFFFFFFFFFFFFFFFFF AND SWAP1 DUP1 PUSH1 0x1 ADD DUP1 SLOAD PUSH2 0x45A SWAP1 PUSH2 0x11FD JUMP JUMPDEST DUP1 PUSH1 0x1F ADD PUSH1 0x20 DUP1 SWAP2 DIV MUL PUSH1 0x20 ADD PUSH1 0x40 MLOAD SWAP1 DUP2 ADD PUSH1 0x40 MSTORE DUP1 SWAP3 SWAP2 SWAP1 DUP2 DUP2 MSTORE PUSH1 0x20 ADD DUP3 DUP1 SLOAD PUSH2 0x486 SWAP1 PUSH2 0x11FD JUMP JUMPDEST DUP1 ISZERO PUSH2 0x4D3 JUMPI DUP1 PUSH1 0x1F LT PUSH2 0x4A8 JUMPI PUSH2 0x100 DUP1 DUP4 SLOAD DIV MUL DUP4 MSTORE SWAP2 PUSH1 0x20 ADD SWAP2 PUSH2 0x4D3 JUMP JUMPDEST DUP3 ADD SWAP2 SWAP1 PUSH1 0x0 MSTORE PUSH1 0x20 PUSH1 0x0 KECCAK256 SWAP1 JUMPDEST DUP2 SLOAD DUP2 MSTORE SWAP1 PUSH1 0x1 ADD SWAP1 PUSH1 0x20 ADD DUP1 DUP4 GT PUSH2 0x4B6 JUMPI DUP3 SWAP1 SUB PUSH1 0x1F AND DUP3 ADD SWAP2 JUMPDEST POP POP POP POP POP SWAP1 DUP1 PUSH1 0x2 ADD SLOAD SWAP1 DUP1 PUSH1 0x3 ADD PUSH1 0x0 SWAP1 SLOAD SWAP1 PUSH2 0x100 EXP SWAP1 DIV PUSH1 0xFF AND SWAP1 POP DUP5 JUMP JUMPDEST PUSH1 0x0 DUP1 PUSH2 0x502 DUP4 PUSH2 0x511 JUMP JUMPDEST SWAP1 POP DUP1 PUSH1 0x60 ADD MLOAD SWAP2 POP POP SWAP2 SWAP1 POP JUMP JUMPDEST PUSH2 0x519 PUSH2 0xC0F JUMP JUMPDEST PUSH1 0x0 JUMPDEST PUSH1 0x1 DUP1 SLOAD SWAP1 POP DUP2 LT ISZERO PUSH2 0x734 JUMPI DUP3 PUSH20 0xFFFFFFFFFFFFFFFFFFFFFFFFFFFFFFFFFFFFFFFF AND PUSH1 0x1 DUP3 DUP2 SLOAD DUP2 LT PUSH2 0x554 JUMPI PUSH2 0x553 PUSH2 0x1307 JUMP JUMPDEST JUMPDEST SWAP1 PUSH1 0x0 MSTORE PUSH1 0x20 PUSH1 0x0 KECCAK256 SWAP1 PUSH1 0x4 MUL ADD PUSH1 0x0 ADD PUSH1 0x0 SWAP1 SLOAD SWAP1 PUSH2 0x100 EXP SWAP1 DIV PUSH20 0xFFFFFFFFFFFFFFFFFFFFFFFFFFFFFFFFFFFFFFFF AND PUSH20 0xFFFFFFFFFFFFFFFFFFFFFFFFFFFFFFFFFFFFFFFF AND EQ ISZERO PUSH2 0x721 JUMPI PUSH1 0x1 DUP1 DUP3 DUP2 SLOAD DUP2 LT PUSH2 0x5B7 JUMPI PUSH2 0x5B6 PUSH2 0x1307 JUMP JUMPDEST JUMPDEST SWAP1 PUSH1 0x0 MSTORE PUSH1 0x20 PUSH1 0x0 KECCAK256 SWAP1 PUSH1 0x4 MUL ADD PUSH1 0x3 ADD PUSH1 0x0 PUSH2 0x100 EXP DUP2 SLOAD DUP2 PUSH1 0xFF MUL NOT AND SWAP1 DUP4 ISZERO ISZERO MUL OR SWAP1 SSTORE POP PUSH1 0x1 DUP2 DUP2 SLOAD DUP2 LT PUSH2 0x5F3 JUMPI PUSH2 0x5F2 PUSH2 0x1307 JUMP JUMPDEST JUMPDEST SWAP1 PUSH1 0x0 MSTORE PUSH1 0x20 PUSH1 0x0 KECCAK256 SWAP1 PUSH1 0x4 MUL ADD PUSH1 0x40 MLOAD DUP1 PUSH1 0x80 ADD PUSH1 0x40 MSTORE SWAP1 DUP2 PUSH1 0x0 DUP3 ADD PUSH1 0x0 SWAP1 SLOAD SWAP1 PUSH2 0x100 EXP SWAP1 DIV PUSH20 0xFFFFFFFFFFFFFFFFFFFFFFFFFFFFFFFFFFFFFFFF AND PUSH20 0xFFFFFFFFFFFFFFFFFFFFFFFFFFFFFFFFFFFFFFFF AND PUSH20 0xFFFFFFFFFFFFFFFFFFFFFFFFFFFFFFFFFFFFFFFF AND DUP2 MSTORE PUSH1 0x20 ADD PUSH1 0x1 DUP3 ADD DUP1 SLOAD PUSH2 0x672 SWAP1 PUSH2 0x11FD JUMP JUMPDEST DUP1 PUSH1 0x1F ADD PUSH1 0x20 DUP1 SWAP2 DIV MUL PUSH1 0x20 ADD PUSH1 0x40 MLOAD SWAP1 DUP2 ADD PUSH1 0x40 MSTORE DUP1 SWAP3 SWAP2 SWAP1 DUP2 DUP2 MSTORE PUSH1 0x20 ADD DUP3 DUP1 SLOAD PUSH2 0x69E SWAP1 PUSH2 0x11FD JUMP JUMPDEST DUP1 ISZERO PUSH2 0x6EB JUMPI DUP1 PUSH1 0x1F LT PUSH2 0x6C0 JUMPI PUSH2 0x100 DUP1 DUP4 SLOAD DIV MUL DUP4 MSTORE SWAP2 PUSH1 0x20 ADD SWAP2 PUSH2 0x6EB JUMP JUMPDEST DUP3 ADD SWAP2 SWAP1 PUSH1 0x0 MSTORE PUSH1 0x20 PUSH1 0x0 KECCAK256 SWAP1 JUMPDEST DUP2 SLOAD DUP2 MSTORE SWAP1 PUSH1 0x1 ADD SWAP1 PUSH1 0x20 ADD DUP1 DUP4 GT PUSH2 0x6CE JUMPI DUP3 SWAP1 SUB PUSH1 0x1F AND DUP3 ADD SWAP2 JUMPDEST POP POP POP POP POP DUP2 MSTORE PUSH1 0x20 ADD PUSH1 0x2 DUP3 ADD SLOAD DUP2 MSTORE PUSH1 0x20 ADD PUSH1 0x3 DUP3 ADD PUSH1 0x0 SWAP1 SLOAD SWAP1 PUSH2 0x100 EXP SWAP1 DIV PUSH1 0xFF AND ISZERO ISZERO ISZERO ISZERO DUP2 MSTORE POP POP SWAP2 POP POP PUSH2 0x770 JUMP JUMPDEST DUP1 DUP1 PUSH2 0x72C SWAP1 PUSH2 0x1260 JUMP JUMPDEST SWAP2 POP POP PUSH2 0x51C JUMP JUMPDEST POP PUSH1 0x40 MLOAD PUSH32 0x8C379A000000000000000000000000000000000000000000000000000000000 DUP2 MSTORE PUSH1 0x4 ADD PUSH2 0x767 SWAP1 PUSH2 0x101D JUMP JUMPDEST PUSH1 0x40 MLOAD DUP1 SWAP2 SUB SWAP1 REVERT JUMPDEST SWAP2 SWAP1 POP JUMP JUMPDEST PUSH1 0x2 PUSH1 0x20 MSTORE DUP1 PUSH1 0x0 MSTORE PUSH1 0x40 PUSH1 0x0 KECCAK256 PUSH1 0x0 SWAP2 POP SWAP1 POP DUP1 PUSH1 0x0 ADD PUSH1 0x0 SWAP1 SLOAD SWAP1 PUSH2 0x100 EXP SWAP1 DIV PUSH20 0xFFFFFFFFFFFFFFFFFFFFFFFFFFFFFFFFFFFFFFFF AND SWAP1 DUP1 PUSH1 0x1 ADD DUP1 SLOAD PUSH2 0x7BE SWAP1 PUSH2 0x11FD JUMP JUMPDEST DUP1 PUSH1 0x1F ADD PUSH1 0x20 DUP1 SWAP2 DIV MUL PUSH1 0x20 ADD PUSH1 0x40 MLOAD SWAP1 DUP2 ADD PUSH1 0x40 MSTORE DUP1 SWAP3 SWAP2 SWAP1 DUP2 DUP2 MSTORE PUSH1 0x20 ADD DUP3 DUP1 SLOAD PUSH2 0x7EA SWAP1 PUSH2 0x11FD JUMP JUMPDEST DUP1 ISZERO PUSH2 0x837 JUMPI DUP1 PUSH1 0x1F LT PUSH2 0x80C JUMPI PUSH2 0x100 DUP1 DUP4 SLOAD DIV MUL DUP4 MSTORE SWAP2 PUSH1 0x20 ADD SWAP2 PUSH2 0x837 JUMP JUMPDEST DUP3 ADD SWAP2 SWAP1 PUSH1 0x0 MSTORE PUSH1 0x20 PUSH1 0x0 KECCAK256 SWAP1 JUMPDEST DUP2 SLOAD DUP2 MSTORE SWAP1 PUSH1 0x1 ADD SWAP1 PUSH1 0x20 ADD DUP1 DUP4 GT PUSH2 0x81A JUMPI DUP3 SWAP1 SUB PUSH1 0x1F AND DUP3 ADD SWAP2 JUMPDEST POP POP POP POP POP SWAP1 DUP1 PUSH1 0x2 ADD SLOAD SWAP1 DUP1 PUSH1 0x3 ADD PUSH1 0x0 SWAP1 SLOAD SWAP1 PUSH2 0x100 EXP SWAP1 DIV PUSH1 0xFF AND SWAP1 POP DUP5 JUMP JUMPDEST PUSH1 0x0 DUP1 PUSH1 0x0 SWAP1 POP JUMPDEST PUSH1 0x1 DUP1 SLOAD SWAP1 POP DUP2 LT ISZERO PUSH2 0x929 JUMPI DUP3 PUSH20 0xFFFFFFFFFFFFFFFFFFFFFFFFFFFFFFFFFFFFFFFF AND PUSH1 0x1 DUP3 DUP2 SLOAD DUP2 LT PUSH2 0x89A JUMPI PUSH2 0x899 PUSH2 0x1307 JUMP JUMPDEST JUMPDEST SWAP1 PUSH1 0x0 MSTORE PUSH1 0x20 PUSH1 0x0 KECCAK256 SWAP1 PUSH1 0x4 MUL ADD PUSH1 0x0 ADD PUSH1 0x0 SWAP1 SLOAD SWAP1 PUSH2 0x100 EXP SWAP1 DIV PUSH20 0xFFFFFFFFFFFFFFFFFFFFFFFFFFFFFFFFFFFFFFFF AND PUSH20 0xFFFFFFFFFFFFFFFFFFFFFFFFFFFFFFFFFFFFFFFF AND EQ ISZERO PUSH2 0x916 JUMPI PUSH1 0x1 DUP2 DUP2 SLOAD DUP2 LT PUSH2 0x8FC JUMPI PUSH2 0x8FB PUSH2 0x1307 JUMP JUMPDEST JUMPDEST SWAP1 PUSH1 0x0 MSTORE PUSH1 0x20 PUSH1 0x0 KECCAK256 SWAP1 PUSH1 0x4 MUL ADD PUSH1 0x2 ADD SLOAD SWAP2 POP POP PUSH2 0x930 JUMP JUMPDEST DUP1 DUP1 PUSH2 0x921 SWAP1 PUSH2 0x1260 JUMP JUMPDEST SWAP2 POP POP PUSH2 0x862 JUMP JUMPDEST POP PUSH2 0x3E7 SWAP1 POP JUMPDEST SWAP2 SWAP1 POP JUMP JUMPDEST PUSH1 0x0 DUP1 SLOAD SWAP1 PUSH2 0x100 EXP SWAP1 DIV PUSH20 0xFFFFFFFFFFFFFFFFFFFFFFFFFFFFFFFFFFFFFFFF AND PUSH20 0xFFFFFFFFFFFFFFFFFFFFFFFFFFFFFFFFFFFFFFFF AND CALLER PUSH20 0xFFFFFFFFFFFFFFFFFFFFFFFFFFFFFFFFFFFFFFFF AND EQ PUSH2 0x9C3 JUMPI PUSH1 0x40 MLOAD PUSH32 0x8C379A000000000000000000000000000000000000000000000000000000000 DUP2 MSTORE PUSH1 0x4 ADD PUSH2 0x9BA SWAP1 PUSH2 0x103D JUMP JUMPDEST PUSH1 0x40 MLOAD DUP1 SWAP2 SUB SWAP1 REVERT JUMPDEST PUSH1 0x0 PUSH2 0x9CE DUP3 PUSH2 0x511 JUMP JUMPDEST SWAP1 POP DUP1 PUSH1 0x2 PUSH1 0x0 DUP5 PUSH20 0xFFFFFFFFFFFFFFFFFFFFFFFFFFFFFFFFFFFFFFFF AND PUSH20 0xFFFFFFFFFFFFFFFFFFFFFFFFFFFFFFFFFFFFFFFF AND DUP2 MSTORE PUSH1 0x20 ADD SWAP1 DUP2 MSTORE PUSH1 0x20 ADD PUSH1 0x0 KECCAK256 PUSH1 0x0 DUP3 ADD MLOAD DUP2 PUSH1 0x0 ADD PUSH1 0x0 PUSH2 0x100 EXP DUP2 SLOAD DUP2 PUSH20 0xFFFFFFFFFFFFFFFFFFFFFFFFFFFFFFFFFFFFFFFF MUL NOT AND SWAP1 DUP4 PUSH20 0xFFFFFFFFFFFFFFFFFFFFFFFFFFFFFFFFFFFFFFFF AND MUL OR SWAP1 SSTORE POP PUSH1 0x20 DUP3 ADD MLOAD DUP2 PUSH1 0x1 ADD SWAP1 DUP1 MLOAD SWAP1 PUSH1 0x20 ADD SWAP1 PUSH2 0xA73 SWAP3 SWAP2 SWAP1 PUSH2 0xB89 JUMP JUMPDEST POP PUSH1 0x40 DUP3 ADD MLOAD DUP2 PUSH1 0x2 ADD SSTORE PUSH1 0x60 DUP3 ADD MLOAD DUP2 PUSH1 0x3 ADD PUSH1 0x0 PUSH2 0x100 EXP DUP2 SLOAD DUP2 PUSH1 0xFF MUL NOT AND SWAP1 DUP4 ISZERO ISZERO MUL OR SWAP1 SSTORE POP SWAP1 POP POP POP POP JUMP JUMPDEST PUSH1 0x0 SWAP2 SWAP1 POP JUMP JUMPDEST PUSH1 0x0 JUMPDEST PUSH1 0x1 DUP1 SLOAD SWAP1 POP DUP2 LT ISZERO PUSH2 0xB85 JUMPI DUP2 PUSH20 0xFFFFFFFFFFFFFFFFFFFFFFFFFFFFFFFFFFFFFFFF AND PUSH1 0x1 DUP3 DUP2 SLOAD DUP2 LT PUSH2 0xAE7 JUMPI PUSH2 0xAE6 PUSH2 0x1307 JUMP JUMPDEST JUMPDEST SWAP1 PUSH1 0x0 MSTORE PUSH1 0x20 PUSH1 0x0 KECCAK256 SWAP1 PUSH1 0x4 MUL ADD PUSH1 0x0 ADD PUSH1 0x0 SWAP1 SLOAD SWAP1 PUSH2 0x100 EXP SWAP1 DIV PUSH20 0xFFFFFFFFFFFFFFFFFFFFFFFFFFFFFFFFFFFFFFFF AND PUSH20 0xFFFFFFFFFFFFFFFFFFFFFFFFFFFFFFFFFFFFFFFF AND EQ ISZERO PUSH2 0xB72 JUMPI CALLVALUE PUSH1 0x1 DUP3 DUP2 SLOAD DUP2 LT PUSH2 0xB4A JUMPI PUSH2 0xB49 PUSH2 0x1307 JUMP JUMPDEST JUMPDEST SWAP1 PUSH1 0x0 MSTORE PUSH1 0x20 PUSH1 0x0 KECCAK256 SWAP1 PUSH1 0x4 MUL ADD PUSH1 0x2 ADD PUSH1 0x0 DUP3 DUP3 SLOAD PUSH2 0xB6A SWAP2 SWAP1 PUSH2 0x111D JUMP JUMPDEST SWAP3 POP POP DUP2 SWAP1 SSTORE POP JUMPDEST DUP1 DUP1 PUSH2 0xB7D SWAP1 PUSH2 0x1260 JUMP JUMPDEST SWAP2 POP POP PUSH2 0xAAF JUMP JUMPDEST POP POP JUMP JUMPDEST DUP3 DUP1 SLOAD PUSH2 0xB95 SWAP1 PUSH2 0x11FD JUMP JUMPDEST SWAP1 PUSH1 0x0 MSTORE PUSH1 0x20 PUSH1 0x0 KECCAK256 SWAP1 PUSH1 0x1F ADD PUSH1 0x20 SWAP1 DIV DUP2 ADD SWAP3 DUP3 PUSH2 0xBB7 JUMPI PUSH1 0x0 DUP6 SSTORE PUSH2 0xBFE JUMP JUMPDEST DUP3 PUSH1 0x1F LT PUSH2 0xBD0 JUMPI DUP1 MLOAD PUSH1 0xFF NOT AND DUP4 DUP1 ADD OR DUP6 SSTORE PUSH2 0xBFE JUMP JUMPDEST DUP3 DUP1 ADD PUSH1 0x1 ADD DUP6 SSTORE DUP3 ISZERO PUSH2 0xBFE JUMPI SWAP2 DUP3 ADD JUMPDEST DUP3 DUP2 GT ISZERO PUSH2 0xBFD JUMPI DUP3 MLOAD DUP3 SSTORE SWAP2 PUSH1 0x20 ADD SWAP2 SWAP1 PUSH1 0x1 ADD SWAP1 PUSH2 0xBE2 JUMP JUMPDEST JUMPDEST POP SWAP1 POP PUSH2 0xC0B SWAP2 SWAP1 PUSH2 0xC4F JUMP JUMPDEST POP SWAP1 JUMP JUMPDEST PUSH1 0x40 MLOAD DUP1 PUSH1 0x80 ADD PUSH1 0x40 MSTORE DUP1 PUSH1 0x0 PUSH20 0xFFFFFFFFFFFFFFFFFFFFFFFFFFFFFFFFFFFFFFFF AND DUP2 MSTORE PUSH1 0x20 ADD PUSH1 0x60 DUP2 MSTORE PUSH1 0x20 ADD PUSH1 0x0 DUP2 MSTORE PUSH1 0x20 ADD PUSH1 0x0 ISZERO ISZERO DUP2 MSTORE POP SWAP1 JUMP JUMPDEST JUMPDEST DUP1 DUP3 GT ISZERO PUSH2 0xC68 JUMPI PUSH1 0x0 DUP2 PUSH1 0x0 SWAP1 SSTORE POP PUSH1 0x1 ADD PUSH2 0xC50 JUMP JUMPDEST POP SWAP1 JUMP JUMPDEST PUSH1 0x0 PUSH2 0xC7F PUSH2 0xC7A DUP5 PUSH2 0x10BF JUMP JUMPDEST PUSH2 0x109A JUMP JUMPDEST SWAP1 POP DUP3 DUP2 MSTORE PUSH1 0x20 DUP2 ADD DUP5 DUP5 DUP5 ADD GT ISZERO PUSH2 0xC9B JUMPI PUSH2 0xC9A PUSH2 0x136A JUMP JUMPDEST JUMPDEST PUSH2 0xCA6 DUP5 DUP3 DUP6 PUSH2 0x11BB JUMP JUMPDEST POP SWAP4 SWAP3 POP POP POP JUMP JUMPDEST PUSH1 0x0 DUP2 CALLDATALOAD SWAP1 POP PUSH2 0xCBD DUP2 PUSH2 0x13DC JUMP JUMPDEST SWAP3 SWAP2 POP POP JUMP JUMPDEST PUSH1 0x0 DUP2 CALLDATALOAD SWAP1 POP PUSH2 0xCD2 DUP2 PUSH2 0x13F3 JUMP JUMPDEST SWAP3 SWAP2 POP POP JUMP JUMPDEST PUSH1 0x0 DUP3 PUSH1 0x1F DUP4 ADD SLT PUSH2 0xCED JUMPI PUSH2 0xCEC PUSH2 0x1365 JUMP JUMPDEST JUMPDEST DUP2 CALLDATALOAD PUSH2 0xCFD DUP5 DUP3 PUSH1 0x20 DUP7 ADD PUSH2 0xC6C JUMP JUMPDEST SWAP2 POP POP SWAP3 SWAP2 POP POP JUMP JUMPDEST PUSH1 0x0 DUP2 CALLDATALOAD SWAP1 POP PUSH2 0xD15 DUP2 PUSH2 0x140A JUMP JUMPDEST SWAP3 SWAP2 POP POP JUMP JUMPDEST PUSH1 0x0 PUSH1 0x20 DUP3 DUP5 SUB SLT ISZERO PUSH2 0xD31 JUMPI PUSH2 0xD30 PUSH2 0x1374 JUMP JUMPDEST JUMPDEST PUSH1 0x0 PUSH2 0xD3F DUP5 DUP3 DUP6 ADD PUSH2 0xCAE JUMP JUMPDEST SWAP2 POP POP SWAP3 SWAP2 POP POP JUMP JUMPDEST PUSH1 0x0 DUP1 PUSH1 0x0 DUP1 PUSH1 0x80 DUP6 DUP8 SUB SLT ISZERO PUSH2 0xD62 JUMPI PUSH2 0xD61 PUSH2 0x1374 JUMP JUMPDEST JUMPDEST PUSH1 0x0 PUSH2 0xD70 DUP8 DUP3 DUP9 ADD PUSH2 0xCAE JUMP JUMPDEST SWAP5 POP POP PUSH1 0x20 DUP6 ADD CALLDATALOAD PUSH8 0xFFFFFFFFFFFFFFFF DUP2 GT ISZERO PUSH2 0xD91 JUMPI PUSH2 0xD90 PUSH2 0x136F JUMP JUMPDEST JUMPDEST PUSH2 0xD9D DUP8 DUP3 DUP9 ADD PUSH2 0xCD8 JUMP JUMPDEST SWAP4 POP POP PUSH1 0x40 PUSH2 0xDAE DUP8 DUP3 DUP9 ADD PUSH2 0xD06 JUMP JUMPDEST SWAP3 POP POP PUSH1 0x60 PUSH2 0xDBF DUP8 DUP3 DUP9 ADD PUSH2 0xCC3 JUMP JUMPDEST SWAP2 POP POP SWAP3 SWAP6 SWAP2 SWAP5 POP SWAP3 POP JUMP JUMPDEST PUSH1 0x0 PUSH1 0x20 DUP3 DUP5 SUB SLT ISZERO PUSH2 0xDE1 JUMPI PUSH2 0xDE0 PUSH2 0x1374 JUMP JUMPDEST JUMPDEST PUSH1 0x0 DUP3 ADD CALLDATALOAD PUSH8 0xFFFFFFFFFFFFFFFF DUP2 GT ISZERO PUSH2 0xDFF JUMPI PUSH2 0xDFE PUSH2 0x136F JUMP JUMPDEST JUMPDEST PUSH2 0xE0B DUP5 DUP3 DUP6 ADD PUSH2 0xCD8 JUMP JUMPDEST SWAP2 POP POP SWAP3 SWAP2 POP POP JUMP JUMPDEST PUSH1 0x0 PUSH1 0x20 DUP3 DUP5 SUB SLT ISZERO PUSH2 0xE2A JUMPI PUSH2 0xE29 PUSH2 0x1374 JUMP JUMPDEST JUMPDEST PUSH1 0x0 PUSH2 0xE38 DUP5 DUP3 DUP6 ADD PUSH2 0xD06 JUMP JUMPDEST SWAP2 POP POP SWAP3 SWAP2 POP POP JUMP JUMPDEST PUSH2 0xE4A DUP2 PUSH2 0x1173 JUMP JUMPDEST DUP3 MSTORE POP POP JUMP JUMPDEST PUSH2 0xE59 DUP2 PUSH2 0x1173 JUMP JUMPDEST DUP3 MSTORE POP POP JUMP JUMPDEST PUSH2 0xE68 DUP2 PUSH2 0x1185 JUMP JUMPDEST DUP3 MSTORE POP POP JUMP JUMPDEST PUSH2 0xE77 DUP2 PUSH2 0x1185 JUMP JUMPDEST DUP3 MSTORE POP POP JUMP JUMPDEST PUSH1 0x0 PUSH2 0xE88 DUP3 PUSH2 0x10F0 JUMP JUMPDEST PUSH2 0xE92 DUP2 DUP6 PUSH2 0x10FB JUMP JUMPDEST SWAP4 POP PUSH2 0xEA2 DUP2 DUP6 PUSH1 0x20 DUP7 ADD PUSH2 0x11CA JUMP JUMPDEST PUSH2 0xEAB DUP2 PUSH2 0x1379 JUMP JUMPDEST DUP5 ADD SWAP2 POP POP SWAP3 SWAP2 POP POP JUMP JUMPDEST PUSH1 0x0 PUSH2 0xEC1 DUP3 PUSH2 0x10F0 JUMP JUMPDEST PUSH2 0xECB DUP2 DUP6 PUSH2 0x110C JUMP JUMPDEST SWAP4 POP PUSH2 0xEDB DUP2 DUP6 PUSH1 0x20 DUP7 ADD PUSH2 0x11CA JUMP JUMPDEST PUSH2 0xEE4 DUP2 PUSH2 0x1379 JUMP JUMPDEST DUP5 ADD SWAP2 POP POP SWAP3 SWAP2 POP POP JUMP JUMPDEST PUSH1 0x0 PUSH2 0xEFC PUSH1 0x16 DUP4 PUSH2 0x110C JUMP JUMPDEST SWAP2 POP PUSH2 0xF07 DUP3 PUSH2 0x138A JUMP JUMPDEST PUSH1 0x20 DUP3 ADD SWAP1 POP SWAP2 SWAP1 POP JUMP JUMPDEST PUSH1 0x0 PUSH2 0xF1F PUSH1 0x15 DUP4 PUSH2 0x110C JUMP JUMPDEST SWAP2 POP PUSH2 0xF2A DUP3 PUSH2 0x13B3 JUMP JUMPDEST PUSH1 0x20 DUP3 ADD SWAP1 POP SWAP2 SWAP1 POP JUMP JUMPDEST PUSH1 0x0 PUSH1 0x80 DUP4 ADD PUSH1 0x0 DUP4 ADD MLOAD PUSH2 0xF4D PUSH1 0x0 DUP7 ADD DUP3 PUSH2 0xE41 JUMP JUMPDEST POP PUSH1 0x20 DUP4 ADD MLOAD DUP5 DUP3 SUB PUSH1 0x20 DUP7 ADD MSTORE PUSH2 0xF65 DUP3 DUP3 PUSH2 0xE7D JUMP JUMPDEST SWAP2 POP POP PUSH1 0x40 DUP4 ADD MLOAD PUSH2 0xF7A PUSH1 0x40 DUP7 ADD DUP3 PUSH2 0xF98 JUMP JUMPDEST POP PUSH1 0x60 DUP4 ADD MLOAD PUSH2 0xF8D PUSH1 0x60 DUP7 ADD DUP3 PUSH2 0xE5F JUMP JUMPDEST POP DUP1 SWAP2 POP POP SWAP3 SWAP2 POP POP JUMP JUMPDEST PUSH2 0xFA1 DUP2 PUSH2 0x11B1 JUMP JUMPDEST DUP3 MSTORE POP POP JUMP JUMPDEST PUSH2 0xFB0 DUP2 PUSH2 0x11B1 JUMP JUMPDEST DUP3 MSTORE POP POP JUMP JUMPDEST PUSH1 0x0 PUSH1 0x80 DUP3 ADD SWAP1 POP PUSH2 0xFCB PUSH1 0x0 DUP4 ADD DUP8 PUSH2 0xE50 JUMP JUMPDEST DUP2 DUP2 SUB PUSH1 0x20 DUP4 ADD MSTORE PUSH2 0xFDD DUP2 DUP7 PUSH2 0xEB6 JUMP JUMPDEST SWAP1 POP PUSH2 0xFEC PUSH1 0x40 DUP4 ADD DUP6 PUSH2 0xFA7 JUMP JUMPDEST PUSH2 0xFF9 PUSH1 0x60 DUP4 ADD DUP5 PUSH2 0xE6E JUMP JUMPDEST SWAP6 SWAP5 POP POP POP POP POP JUMP JUMPDEST PUSH1 0x0 PUSH1 0x20 DUP3 ADD SWAP1 POP PUSH2 0x1017 PUSH1 0x0 DUP4 ADD DUP5 PUSH2 0xE6E JUMP JUMPDEST SWAP3 SWAP2 POP POP JUMP JUMPDEST PUSH1 0x0 PUSH1 0x20 DUP3 ADD SWAP1 POP DUP2 DUP2 SUB PUSH1 0x0 DUP4 ADD MSTORE PUSH2 0x1036 DUP2 PUSH2 0xEEF JUMP JUMPDEST SWAP1 POP SWAP2 SWAP1 POP JUMP JUMPDEST PUSH1 0x0 PUSH1 0x20 DUP3 ADD SWAP1 POP DUP2 DUP2 SUB PUSH1 0x0 DUP4 ADD MSTORE PUSH2 0x1056 DUP2 PUSH2 0xF12 JUMP JUMPDEST SWAP1 POP SWAP2 SWAP1 POP JUMP JUMPDEST PUSH1 0x0 PUSH1 0x20 DUP3 ADD SWAP1 POP DUP2 DUP2 SUB PUSH1 0x0 DUP4 ADD MSTORE PUSH2 0x1077 DUP2 DUP5 PUSH2 0xF35 JUMP JUMPDEST SWAP1 POP SWAP3 SWAP2 POP POP JUMP JUMPDEST PUSH1 0x0 PUSH1 0x20 DUP3 ADD SWAP1 POP PUSH2 0x1094 PUSH1 0x0 DUP4 ADD DUP5 PUSH2 0xFA7 JUMP JUMPDEST SWAP3 SWAP2 POP POP JUMP JUMPDEST PUSH1 0x0 PUSH2 0x10A4 PUSH2 0x10B5 JUMP JUMPDEST SWAP1 POP PUSH2 0x10B0 DUP3 DUP3 PUSH2 0x122F JUMP JUMPDEST SWAP2 SWAP1 POP JUMP JUMPDEST PUSH1 0x0 PUSH1 0x40 MLOAD SWAP1 POP SWAP1 JUMP JUMPDEST PUSH1 0x0 PUSH8 0xFFFFFFFFFFFFFFFF DUP3 GT ISZERO PUSH2 0x10DA JUMPI PUSH2 0x10D9 PUSH2 0x1336 JUMP JUMPDEST JUMPDEST PUSH2 0x10E3 DUP3 PUSH2 0x1379 JUMP JUMPDEST SWAP1 POP PUSH1 0x20 DUP2 ADD SWAP1 POP SWAP2 SWAP1 POP JUMP JUMPDEST PUSH1 0x0 DUP2 MLOAD SWAP1 POP SWAP2 SWAP1 POP JUMP JUMPDEST PUSH1 0x0 DUP3 DUP3 MSTORE PUSH1 0x20 DUP3 ADD SWAP1 POP SWAP3 SWAP2 POP POP JUMP JUMPDEST PUSH1 0x0 DUP3 DUP3 MSTORE PUSH1 0x20 DUP3 ADD SWAP1 POP SWAP3 SWAP2 POP POP JUMP JUMPDEST PUSH1 0x0 PUSH2 0x1128 DUP3 PUSH2 0x11B1 JUMP JUMPDEST SWAP2 POP PUSH2 0x1133 DUP4 PUSH2 0x11B1 JUMP JUMPDEST SWAP3 POP DUP3 PUSH32 0xFFFFFFFFFFFFFFFFFFFFFFFFFFFFFFFFFFFFFFFFFFFFFFFFFFFFFFFFFFFFFFFF SUB DUP3 GT ISZERO PUSH2 0x1168 JUMPI PUSH2 0x1167 PUSH2 0x12A9 JUMP JUMPDEST JUMPDEST DUP3 DUP3 ADD SWAP1 POP SWAP3 SWAP2 POP POP JUMP JUMPDEST PUSH1 0x0 PUSH2 0x117E DUP3 PUSH2 0x1191 JUMP JUMPDEST SWAP1 POP SWAP2 SWAP1 POP JUMP JUMPDEST PUSH1 0x0 DUP2 ISZERO ISZERO SWAP1 POP SWAP2 SWAP1 POP JUMP JUMPDEST PUSH1 0x0 PUSH20 0xFFFFFFFFFFFFFFFFFFFFFFFFFFFFFFFFFFFFFFFF DUP3 AND SWAP1 POP SWAP2 SWAP1 POP JUMP JUMPDEST PUSH1 0x0 DUP2 SWAP1 POP SWAP2 SWAP1 POP JUMP JUMPDEST DUP3 DUP2 DUP4 CALLDATACOPY PUSH1 0x0 DUP4 DUP4 ADD MSTORE POP POP POP JUMP JUMPDEST PUSH1 0x0 JUMPDEST DUP4 DUP2 LT ISZERO PUSH2 0x11E8 JUMPI DUP1 DUP3 ADD MLOAD DUP2 DUP5 ADD MSTORE PUSH1 0x20 DUP2 ADD SWAP1 POP PUSH2 0x11CD JUMP JUMPDEST DUP4 DUP2 GT ISZERO PUSH2 0x11F7 JUMPI PUSH1 0x0 DUP5 DUP5 ADD MSTORE JUMPDEST POP POP POP POP JUMP JUMPDEST PUSH1 0x0 PUSH1 0x2 DUP3 DIV SWAP1 POP PUSH1 0x1 DUP3 AND DUP1 PUSH2 0x1215 JUMPI PUSH1 0x7F DUP3 AND SWAP2 POP JUMPDEST PUSH1 0x20 DUP3 LT DUP2 EQ ISZERO PUSH2 0x1229 JUMPI PUSH2 0x1228 PUSH2 0x12D8 JUMP JUMPDEST JUMPDEST POP SWAP2 SWAP1 POP JUMP JUMPDEST PUSH2 0x1238 DUP3 PUSH2 0x1379 JUMP JUMPDEST DUP2 ADD DUP2 DUP2 LT PUSH8 0xFFFFFFFFFFFFFFFF DUP3 GT OR ISZERO PUSH2 0x1257 JUMPI PUSH2 0x1256 PUSH2 0x1336 JUMP JUMPDEST JUMPDEST DUP1 PUSH1 0x40 MSTORE POP POP POP JUMP JUMPDEST PUSH1 0x0 PUSH2 0x126B DUP3 PUSH2 0x11B1 JUMP JUMPDEST SWAP2 POP PUSH32 0xFFFFFFFFFFFFFFFFFFFFFFFFFFFFFFFFFFFFFFFFFFFFFFFFFFFFFFFFFFFFFFFF DUP3 EQ ISZERO PUSH2 0x129E JUMPI PUSH2 0x129D PUSH2 0x12A9 JUMP JUMPDEST JUMPDEST PUSH1 0x1 DUP3 ADD SWAP1 POP SWAP2 SWAP1 POP JUMP JUMPDEST PUSH32 0x4E487B7100000000000000000000000000000000000000000000000000000000 PUSH1 0x0 MSTORE PUSH1 0x11 PUSH1 0x4 MSTORE PUSH1 0x24 PUSH1 0x0 REVERT JUMPDEST PUSH32 0x4E487B7100000000000000000000000000000000000000000000000000000000 PUSH1 0x0 MSTORE PUSH1 0x22 PUSH1 0x4 MSTORE PUSH1 0x24 PUSH1 0x0 REVERT JUMPDEST PUSH32 0x4E487B7100000000000000000000000000000000000000000000000000000000 PUSH1 0x0 MSTORE PUSH1 0x32 PUSH1 0x4 MSTORE PUSH1 0x24 PUSH1 0x0 REVERT JUMPDEST PUSH32 0x4E487B7100000000000000000000000000000000000000000000000000000000 PUSH1 0x0 MSTORE PUSH1 0x41 PUSH1 0x4 MSTORE PUSH1 0x24 PUSH1 0x0 REVERT JUMPDEST PUSH1 0x0 DUP1 REVERT JUMPDEST PUSH1 0x0 DUP1 REVERT JUMPDEST PUSH1 0x0 DUP1 REVERT JUMPDEST PUSH1 0x0 DUP1 REVERT JUMPDEST PUSH1 0x0 PUSH1 0x1F NOT PUSH1 0x1F DUP4 ADD AND SWAP1 POP SWAP2 SWAP1 POP JUMP JUMPDEST PUSH32 0x496E76616C69642057616C6C6574204164647265737300000000000000000000 PUSH1 0x0 DUP3 ADD MSTORE POP JUMP JUMPDEST PUSH32 0x596F7520617265206E6F7420746865206F776E65720000000000000000000000 PUSH1 0x0 DUP3 ADD MSTORE POP JUMP JUMPDEST PUSH2 0x13E5 DUP2 PUSH2 0x1173 JUMP JUMPDEST DUP2 EQ PUSH2 0x13F0 JUMPI PUSH1 0x0 DUP1 REVERT JUMPDEST POP JUMP JUMPDEST PUSH2 0x13FC DUP2 PUSH2 0x1185 JUMP JUMPDEST DUP2 EQ PUSH2 0x1407 JUMPI PUSH1 0x0 DUP1 REVERT JUMPDEST POP JUMP JUMPDEST PUSH2 0x1413 DUP2 PUSH2 0x11B1 JUMP JUMPDEST DUP2 EQ PUSH2 0x141E JUMPI PUSH1 0x0 DUP1 REVERT JUMPDEST POP JUMP INVALID LOG2 PUSH5 0x6970667358 0x22 SLT KECCAK256 AND 0xB8 EXTCODESIZE 0xE7 0xEE 0xCA 0xC2 0xAE DUP5 DUP15 CHAINID PUSH30 0xF7260C7577337A25A683F8B963862339D7E06D4264736F6C634300080700 CALLER "
				},
				"gasEstimates": {
					"creation": {
						"codeDepositCost": "1041400",
						"executionCost": "25346",
						"totalCost": "1066746"
					},
					"external": {
						"addToInvestors(address)": "infinite",
						"addUser(address,string,uint256,bool)": "infinite",
						"balanceOf(address)": "infinite",
						"getUserByAddress(address)": "infinite",
						"investorPermission(address)": "infinite",
						"investors(address)": "infinite",
						"transfer(address)": "infinite",
						"userExists(string)": "infinite",
						"users(uint256)": "infinite"
					},
					"internal": {
						"transferToAddress(address)": "infinite"
					}
				},
				"methodIdentifiers": {
					"addToInvestors(address)": "d7bed4bc",
					"addUser(address,string,uint256,bool)": "280879e7",
					"balanceOf(address)": "70a08231",
					"getUserByAddress(address)": "69c212f6",
					"investorPermission(address)": "4140eb0d",
					"investors(address)": "6f7bc9be",
					"transfer(address)": "1a695230",
					"userExists(string)": "fddc968e",
					"users(uint256)": "365b98b2"
				}
			},
			"storageLayout": {
				"storage": [
					{
						"astId": 3,
						"contract": "contracts/Test1.sol:Test1",
						"label": "owner",
						"offset": 0,
						"slot": "0",
						"type": "t_address"
					},
					{
						"astId": 37,
						"contract": "contracts/Test1.sol:Test1",
						"label": "users",
						"offset": 0,
						"slot": "1",
						"type": "t_array(t_struct(User)21_storage)dyn_storage"
					},
					{
						"astId": 42,
						"contract": "contracts/Test1.sol:Test1",
						"label": "investors",
						"offset": 0,
						"slot": "2",
						"type": "t_mapping(t_address,t_struct(User)21_storage)"
					}
				],
				"types": {
					"t_address": {
						"encoding": "inplace",
						"label": "address",
						"numberOfBytes": "20"
					},
					"t_array(t_struct(User)21_storage)dyn_storage": {
						"base": "t_struct(User)21_storage",
						"encoding": "dynamic_array",
						"label": "struct Test1.User[]",
						"numberOfBytes": "32"
					},
					"t_bool": {
						"encoding": "inplace",
						"label": "bool",
						"numberOfBytes": "1"
					},
					"t_mapping(t_address,t_struct(User)21_storage)": {
						"encoding": "mapping",
						"key": "t_address",
						"label": "mapping(address => struct Test1.User)",
						"numberOfBytes": "32",
						"value": "t_struct(User)21_storage"
					},
					"t_string_storage": {
						"encoding": "bytes",
						"label": "string",
						"numberOfBytes": "32"
					},
					"t_struct(User)21_storage": {
						"encoding": "inplace",
						"label": "struct Test1.User",
						"members": [
							{
								"astId": 14,
								"contract": "contracts/Test1.sol:Test1",
								"label": "walletAddress",
								"offset": 0,
								"slot": "0",
								"type": "t_address"
							},
							{
								"astId": 16,
								"contract": "contracts/Test1.sol:Test1",
								"label": "name",
								"offset": 0,
								"slot": "1",
								"type": "t_string_storage"
							},
							{
								"astId": 18,
								"contract": "contracts/Test1.sol:Test1",
								"label": "amount",
								"offset": 0,
								"slot": "2",
								"type": "t_uint256"
							},
							{
								"astId": 20,
								"contract": "contracts/Test1.sol:Test1",
								"label": "isInvestor",
								"offset": 0,
								"slot": "3",
								"type": "t_bool"
							}
						],
						"numberOfBytes": "128"
					},
					"t_uint256": {
						"encoding": "inplace",
						"label": "uint256",
						"numberOfBytes": "32"
					}
				}
			},
			"userdoc": {
				"kind": "user",
				"methods": {},
				"version": 1
			}
		}
	}
}