{
	"contracts/Test1.sol": {
		"Test1": {
			"abi": [
				{
					"inputs": [],
					"stateMutability": "nonpayable",
					"type": "constructor"
				},
				{
					"inputs": [
						{
							"internalType": "address",
							"name": "walletAddress",
							"type": "address"
						},
						{
							"internalType": "string",
							"name": "name",
							"type": "string"
						},
						{
							"internalType": "uint256",
							"name": "amount",
							"type": "uint256"
						}
					],
					"name": "addUser",
					"outputs": [],
					"stateMutability": "nonpayable",
					"type": "function"
				},
				{
					"inputs": [
						{
							"internalType": "address",
							"name": "walletAddress",
							"type": "address"
						}
					],
					"name": "balanceOf",
					"outputs": [
						{
							"internalType": "uint256",
							"name": "",
							"type": "uint256"
						}
					],
					"stateMutability": "view",
					"type": "function"
				},
				{
					"inputs": [
						{
							"internalType": "address",
							"name": "walletAddress",
							"type": "address"
						}
					],
					"name": "transfer",
					"outputs": [],
					"stateMutability": "payable",
					"type": "function"
				},
				{
					"inputs": [
						{
							"internalType": "uint256",
							"name": "",
							"type": "uint256"
						}
					],
					"name": "users",
					"outputs": [
						{
							"internalType": "address",
							"name": "walletAddress",
							"type": "address"
						},
						{
							"internalType": "string",
							"name": "name",
							"type": "string"
						},
						{
							"internalType": "uint256",
							"name": "amount",
							"type": "uint256"
						}
					],
					"stateMutability": "view",
					"type": "function"
				}
			],
			"devdoc": {
				"kind": "dev",
				"methods": {},
				"version": 1
			},
			"evm": {
				"assembly": "    /* \"contracts/Test1.sol\":65:1014  contract Test1{... */\n  mstore(0x40, 0x80)\n    /* \"contracts/Test1.sol\":106:154  constructor(){... */\n  callvalue\n  dup1\n  iszero\n  tag_1\n  jumpi\n  0x00\n  dup1\n  revert\ntag_1:\n  pop\n    /* \"contracts/Test1.sol\":137:147  msg.sender */\n  caller\n    /* \"contracts/Test1.sol\":129:134  owner */\n  0x00\n  dup1\n    /* \"contracts/Test1.sol\":129:147  owner = msg.sender */\n  0x0100\n  exp\n  dup2\n  sload\n  dup2\n  0xffffffffffffffffffffffffffffffffffffffff\n  mul\n  not\n  and\n  swap1\n  dup4\n  0xffffffffffffffffffffffffffffffffffffffff\n  and\n  mul\n  or\n  swap1\n  sstore\n  pop\n    /* \"contracts/Test1.sol\":65:1014  contract Test1{... */\n  dataSize(sub_0)\n  dup1\n  dataOffset(sub_0)\n  0x00\n  codecopy\n  0x00\n  return\nstop\n\nsub_0: assembly {\n        /* \"contracts/Test1.sol\":65:1014  contract Test1{... */\n      mstore(0x40, 0x80)\n      jumpi(tag_1, lt(calldatasize, 0x04))\n      shr(0xe0, calldataload(0x00))\n      dup1\n      0x1a695230\n      eq\n      tag_2\n      jumpi\n      dup1\n      0x365b98b2\n      eq\n      tag_3\n      jumpi\n      dup1\n      0x70a08231\n      eq\n      tag_4\n      jumpi\n      dup1\n      0xf0384fb6\n      eq\n      tag_5\n      jumpi\n    tag_1:\n      0x00\n      dup1\n      revert\n        /* \"contracts/Test1.sol\":431:536  function transfer(address walletAddress) payable public {... */\n    tag_2:\n      tag_6\n      0x04\n      dup1\n      calldatasize\n      sub\n      dup2\n      add\n      swap1\n      tag_7\n      swap2\n      swap1\n      tag_8\n      jump\t// in\n    tag_7:\n      tag_9\n      jump\t// in\n    tag_6:\n      stop\n        /* \"contracts/Test1.sol\":257:276  User[] public users */\n    tag_3:\n      callvalue\n      dup1\n      iszero\n      tag_10\n      jumpi\n      0x00\n      dup1\n      revert\n    tag_10:\n      pop\n      tag_11\n      0x04\n      dup1\n      calldatasize\n      sub\n      dup2\n      add\n      swap1\n      tag_12\n      swap2\n      swap1\n      tag_13\n      jump\t// in\n    tag_12:\n      tag_14\n      jump\t// in\n    tag_11:\n      mload(0x40)\n      tag_15\n      swap4\n      swap3\n      swap2\n      swap1\n      tag_16\n      jump\t// in\n    tag_15:\n      mload(0x40)\n      dup1\n      swap2\n      sub\n      swap1\n      return\n        /* \"contracts/Test1.sol\":788:1008  function balanceOf(address walletAddress) public view returns(uint){... */\n    tag_4:\n      callvalue\n      dup1\n      iszero\n      tag_17\n      jumpi\n      0x00\n      dup1\n      revert\n    tag_17:\n      pop\n      tag_18\n      0x04\n      dup1\n      calldatasize\n      sub\n      dup2\n      add\n      swap1\n      tag_19\n      swap2\n      swap1\n      tag_8\n      jump\t// in\n    tag_19:\n      tag_20\n      jump\t// in\n    tag_18:\n      mload(0x40)\n      tag_21\n      swap2\n      swap1\n      tag_22\n      jump\t// in\n    tag_21:\n      mload(0x40)\n      dup1\n      swap2\n      sub\n      swap1\n      return\n        /* \"contracts/Test1.sol\":283:425  function addUser(address walletAddress, string memory name, uint amount) public {... */\n    tag_5:\n      callvalue\n      dup1\n      iszero\n      tag_23\n      jumpi\n      0x00\n      dup1\n      revert\n    tag_23:\n      pop\n      tag_24\n      0x04\n      dup1\n      calldatasize\n      sub\n      dup2\n      add\n      swap1\n      tag_25\n      swap2\n      swap1\n      tag_26\n      jump\t// in\n    tag_25:\n      tag_27\n      jump\t// in\n    tag_24:\n      stop\n        /* \"contracts/Test1.sol\":431:536  function transfer(address walletAddress) payable public {... */\n    tag_9:\n        /* \"contracts/Test1.sol\":497:529  transferToAddress(walletAddress) */\n      tag_29\n        /* \"contracts/Test1.sol\":515:528  walletAddress */\n      dup2\n        /* \"contracts/Test1.sol\":497:514  transferToAddress */\n      tag_30\n        /* \"contracts/Test1.sol\":497:529  transferToAddress(walletAddress) */\n      jump\t// in\n    tag_29:\n        /* \"contracts/Test1.sol\":431:536  function transfer(address walletAddress) payable public {... */\n      pop\n      jump\t// out\n        /* \"contracts/Test1.sol\":257:276  User[] public users */\n    tag_14:\n      0x01\n      dup2\n      dup2\n      sload\n      dup2\n      lt\n      tag_31\n      jumpi\n      0x00\n      dup1\n      revert\n    tag_31:\n      swap1\n      0x00\n      mstore\n      keccak256(0x00, 0x20)\n      swap1\n      0x03\n      mul\n      add\n      0x00\n      swap2\n      pop\n      swap1\n      pop\n      dup1\n      0x00\n      add\n      0x00\n      swap1\n      sload\n      swap1\n      0x0100\n      exp\n      swap1\n      div\n      0xffffffffffffffffffffffffffffffffffffffff\n      and\n      swap1\n      dup1\n      0x01\n      add\n      dup1\n      sload\n      tag_33\n      swap1\n      tag_34\n      jump\t// in\n    tag_33:\n      dup1\n      0x1f\n      add\n      0x20\n      dup1\n      swap2\n      div\n      mul\n      0x20\n      add\n      mload(0x40)\n      swap1\n      dup2\n      add\n      0x40\n      mstore\n      dup1\n      swap3\n      swap2\n      swap1\n      dup2\n      dup2\n      mstore\n      0x20\n      add\n      dup3\n      dup1\n      sload\n      tag_35\n      swap1\n      tag_34\n      jump\t// in\n    tag_35:\n      dup1\n      iszero\n      tag_36\n      jumpi\n      dup1\n      0x1f\n      lt\n      tag_37\n      jumpi\n      0x0100\n      dup1\n      dup4\n      sload\n      div\n      mul\n      dup4\n      mstore\n      swap2\n      0x20\n      add\n      swap2\n      jump(tag_36)\n    tag_37:\n      dup3\n      add\n      swap2\n      swap1\n      0x00\n      mstore\n      keccak256(0x00, 0x20)\n      swap1\n    tag_38:\n      dup2\n      sload\n      dup2\n      mstore\n      swap1\n      0x01\n      add\n      swap1\n      0x20\n      add\n      dup1\n      dup4\n      gt\n      tag_38\n      jumpi\n      dup3\n      swap1\n      sub\n      0x1f\n      and\n      dup3\n      add\n      swap2\n    tag_36:\n      pop\n      pop\n      pop\n      pop\n      pop\n      swap1\n      dup1\n      0x02\n      add\n      sload\n      swap1\n      pop\n      dup4\n      jump\t// out\n        /* \"contracts/Test1.sol\":788:1008  function balanceOf(address walletAddress) public view returns(uint){... */\n    tag_20:\n        /* \"contracts/Test1.sol\":850:854  uint */\n      0x00\n        /* \"contracts/Test1.sol\":869:875  uint i */\n      dup1\n        /* \"contracts/Test1.sol\":878:879  0 */\n      0x00\n        /* \"contracts/Test1.sol\":869:879  uint i = 0 */\n      swap1\n      pop\n        /* \"contracts/Test1.sol\":865:1002  for(uint i = 0; i < users.length; i++){... */\n    tag_40:\n        /* \"contracts/Test1.sol\":885:890  users */\n      0x01\n        /* \"contracts/Test1.sol\":885:897  users.length */\n      dup1\n      sload\n      swap1\n      pop\n        /* \"contracts/Test1.sol\":881:882  i */\n      dup2\n        /* \"contracts/Test1.sol\":881:897  i < users.length */\n      lt\n        /* \"contracts/Test1.sol\":865:1002  for(uint i = 0; i < users.length; i++){... */\n      iszero\n      tag_41\n      jumpi\n        /* \"contracts/Test1.sol\":946:959  walletAddress */\n      dup3\n        /* \"contracts/Test1.sol\":920:959  users[i].walletAddress == walletAddress */\n      0xffffffffffffffffffffffffffffffffffffffff\n      and\n        /* \"contracts/Test1.sol\":920:925  users */\n      0x01\n        /* \"contracts/Test1.sol\":926:927  i */\n      dup3\n        /* \"contracts/Test1.sol\":920:928  users[i] */\n      dup2\n      sload\n      dup2\n      lt\n      tag_43\n      jumpi\n      tag_44\n      tag_45\n      jump\t// in\n    tag_44:\n    tag_43:\n      swap1\n      0x00\n      mstore\n      keccak256(0x00, 0x20)\n      swap1\n      0x03\n      mul\n      add\n        /* \"contracts/Test1.sol\":920:942  users[i].walletAddress */\n      0x00\n      add\n      0x00\n      swap1\n      sload\n      swap1\n      0x0100\n      exp\n      swap1\n      pop\n      pop\n        /* \"contracts/Test1.sol\":920:959  users[i].walletAddress == walletAddress */\n      pop\n        /* \"contracts/Test1.sol\":899:902  i++ */\n      dup1\n      dup1\n      tag_48\n      swap1\n      tag_49\n      jump\t// in\n    tag_48:\n      swap2\n      pop\n      pop\n        /* \"contracts/Test1.sol\":865:1002  for(uint i = 0; i < users.length; i++){... */\n      jump(tag_40)\n    tag_41:\n      pop\n        /* \"contracts/Test1.sol\":788:1008  function balanceOf(address walletAddress) public view returns(uint){... */\n      swap2\n      swap1\n      pop\n      jump\t// out\n        /* \"contracts/Test1.sol\":283:425  function addUser(address walletAddress, string memory name, uint amount) public {... */\n    tag_27:\n        /* \"contracts/Test1.sol\":373:378  users */\n      0x01\n        /* \"contracts/Test1.sol\":384:417  User(walletAddress, name, amount) */\n      mload(0x40)\n      dup1\n      0x60\n      add\n      0x40\n      mstore\n      dup1\n        /* \"contracts/Test1.sol\":389:402  walletAddress */\n      dup6\n        /* \"contracts/Test1.sol\":384:417  User(walletAddress, name, amount) */\n      0xffffffffffffffffffffffffffffffffffffffff\n      and\n      dup2\n      mstore\n      0x20\n      add\n        /* \"contracts/Test1.sol\":404:408  name */\n      dup5\n        /* \"contracts/Test1.sol\":384:417  User(walletAddress, name, amount) */\n      dup2\n      mstore\n      0x20\n      add\n        /* \"contracts/Test1.sol\":410:416  amount */\n      dup4\n        /* \"contracts/Test1.sol\":384:417  User(walletAddress, name, amount) */\n      dup2\n      mstore\n      pop\n        /* \"contracts/Test1.sol\":373:418  users.push(User(walletAddress, name, amount)) */\n      swap1\n      dup1\n      0x01\n      dup2\n      sload\n      add\n      dup1\n      dup3\n      sstore\n      dup1\n      swap2\n      pop\n      pop\n      0x01\n      swap1\n      sub\n      swap1\n      0x00\n      mstore\n      keccak256(0x00, 0x20)\n      swap1\n      0x03\n      mul\n      add\n      0x00\n      swap1\n      swap2\n      swap1\n      swap2\n      swap1\n      swap2\n      pop\n      0x00\n      dup3\n      add\n      mload\n      dup2\n      0x00\n      add\n      exp(0x0100, 0x00)\n      dup2\n      sload\n      dup2\n      0xffffffffffffffffffffffffffffffffffffffff\n      mul\n      not\n      and\n      swap1\n      dup4\n      0xffffffffffffffffffffffffffffffffffffffff\n      and\n      mul\n      or\n      swap1\n      sstore\n      pop\n      0x20\n      dup3\n      add\n      mload\n      dup2\n      0x01\n      add\n      swap1\n      dup2\n      tag_52\n      swap2\n      swap1\n      tag_53\n      jump\t// in\n    tag_52:\n      pop\n      0x40\n      dup3\n      add\n      mload\n      dup2\n      0x02\n      add\n      sstore\n      pop\n      pop\n        /* \"contracts/Test1.sol\":283:425  function addUser(address walletAddress, string memory name, uint amount) public {... */\n      pop\n      pop\n      pop\n      jump\t// out\n        /* \"contracts/Test1.sol\":542:782  function transferToAddress(address walletAddress) private {... */\n    tag_30:\n        /* \"contracts/Test1.sol\":614:620  uint i */\n      0x00\n        /* \"contracts/Test1.sol\":610:776  for(uint i = 0; i < users.length; i++){... */\n    tag_55:\n        /* \"contracts/Test1.sol\":630:635  users */\n      0x01\n        /* \"contracts/Test1.sol\":630:642  users.length */\n      dup1\n      sload\n      swap1\n      pop\n        /* \"contracts/Test1.sol\":626:627  i */\n      dup2\n        /* \"contracts/Test1.sol\":626:642  i < users.length */\n      lt\n        /* \"contracts/Test1.sol\":610:776  for(uint i = 0; i < users.length; i++){... */\n      iszero\n      tag_56\n      jumpi\n        /* \"contracts/Test1.sol\":691:704  walletAddress */\n      dup2\n        /* \"contracts/Test1.sol\":665:704  users[i].walletAddress == walletAddress */\n      0xffffffffffffffffffffffffffffffffffffffff\n      and\n        /* \"contracts/Test1.sol\":665:670  users */\n      0x01\n        /* \"contracts/Test1.sol\":671:672  i */\n      dup3\n        /* \"contracts/Test1.sol\":665:673  users[i] */\n      dup2\n      sload\n      dup2\n      lt\n      tag_58\n      jumpi\n      tag_59\n      tag_45\n      jump\t// in\n    tag_59:\n    tag_58:\n      swap1\n      0x00\n      mstore\n      keccak256(0x00, 0x20)\n      swap1\n      0x03\n      mul\n      add\n        /* \"contracts/Test1.sol\":665:687  users[i].walletAddress */\n      0x00\n      add\n      0x00\n      swap1\n      sload\n      swap1\n      0x0100\n      exp\n      swap1\n      div\n      0xffffffffffffffffffffffffffffffffffffffff\n      and\n        /* \"contracts/Test1.sol\":665:704  users[i].walletAddress == walletAddress */\n      0xffffffffffffffffffffffffffffffffffffffff\n      and\n      sub\n        /* \"contracts/Test1.sol\":662:766  if(users[i].walletAddress == walletAddress){... */\n      tag_61\n      jumpi\n        /* \"contracts/Test1.sol\":742:751  msg.value */\n      callvalue\n        /* \"contracts/Test1.sol\":723:728  users */\n      0x01\n        /* \"contracts/Test1.sol\":729:730  i */\n      dup3\n        /* \"contracts/Test1.sol\":723:731  users[i] */\n      dup2\n      sload\n      dup2\n      lt\n      tag_62\n      jumpi\n      tag_63\n      tag_45\n      jump\t// in\n    tag_63:\n    tag_62:\n      swap1\n      0x00\n      mstore\n      keccak256(0x00, 0x20)\n      swap1\n      0x03\n      mul\n      add\n        /* \"contracts/Test1.sol\":723:738  users[i].amount */\n      0x02\n      add\n      0x00\n        /* \"contracts/Test1.sol\":723:751  users[i].amount += msg.value */\n      dup3\n      dup3\n      sload\n      tag_65\n      swap2\n      swap1\n      tag_66\n      jump\t// in\n    tag_65:\n      swap3\n      pop\n      pop\n      dup2\n      swap1\n      sstore\n      pop\n        /* \"contracts/Test1.sol\":662:766  if(users[i].walletAddress == walletAddress){... */\n    tag_61:\n        /* \"contracts/Test1.sol\":644:647  i++ */\n      dup1\n      dup1\n      tag_67\n      swap1\n      tag_49\n      jump\t// in\n    tag_67:\n      swap2\n      pop\n      pop\n        /* \"contracts/Test1.sol\":610:776  for(uint i = 0; i < users.length; i++){... */\n      jump(tag_55)\n    tag_56:\n      pop\n        /* \"contracts/Test1.sol\":542:782  function transferToAddress(address walletAddress) private {... */\n      pop\n      jump\t// out\n        /* \"#utility.yul\":7:82   */\n    tag_68:\n        /* \"#utility.yul\":40:46   */\n      0x00\n        /* \"#utility.yul\":73:75   */\n      0x40\n        /* \"#utility.yul\":67:76   */\n      mload\n        /* \"#utility.yul\":57:76   */\n      swap1\n      pop\n        /* \"#utility.yul\":7:82   */\n      swap1\n      jump\t// out\n        /* \"#utility.yul\":88:205   */\n    tag_69:\n        /* \"#utility.yul\":197:198   */\n      0x00\n        /* \"#utility.yul\":194:195   */\n      dup1\n        /* \"#utility.yul\":187:199   */\n      revert\n        /* \"#utility.yul\":211:328   */\n    tag_70:\n        /* \"#utility.yul\":320:321   */\n      0x00\n        /* \"#utility.yul\":317:318   */\n      dup1\n        /* \"#utility.yul\":310:322   */\n      revert\n        /* \"#utility.yul\":334:460   */\n    tag_71:\n        /* \"#utility.yul\":371:378   */\n      0x00\n        /* \"#utility.yul\":411:453   */\n      0xffffffffffffffffffffffffffffffffffffffff\n        /* \"#utility.yul\":404:409   */\n      dup3\n        /* \"#utility.yul\":400:454   */\n      and\n        /* \"#utility.yul\":389:454   */\n      swap1\n      pop\n        /* \"#utility.yul\":334:460   */\n      swap2\n      swap1\n      pop\n      jump\t// out\n        /* \"#utility.yul\":466:562   */\n    tag_72:\n        /* \"#utility.yul\":503:510   */\n      0x00\n        /* \"#utility.yul\":532:556   */\n      tag_117\n        /* \"#utility.yul\":550:555   */\n      dup3\n        /* \"#utility.yul\":532:556   */\n      tag_71\n      jump\t// in\n    tag_117:\n        /* \"#utility.yul\":521:556   */\n      swap1\n      pop\n        /* \"#utility.yul\":466:562   */\n      swap2\n      swap1\n      pop\n      jump\t// out\n        /* \"#utility.yul\":568:690   */\n    tag_73:\n        /* \"#utility.yul\":641:665   */\n      tag_119\n        /* \"#utility.yul\":659:664   */\n      dup2\n        /* \"#utility.yul\":641:665   */\n      tag_72\n      jump\t// in\n    tag_119:\n        /* \"#utility.yul\":634:639   */\n      dup2\n        /* \"#utility.yul\":631:666   */\n      eq\n        /* \"#utility.yul\":621:684   */\n      tag_120\n      jumpi\n        /* \"#utility.yul\":680:681   */\n      0x00\n        /* \"#utility.yul\":677:678   */\n      dup1\n        /* \"#utility.yul\":670:682   */\n      revert\n        /* \"#utility.yul\":621:684   */\n    tag_120:\n        /* \"#utility.yul\":568:690   */\n      pop\n      jump\t// out\n        /* \"#utility.yul\":696:835   */\n    tag_74:\n        /* \"#utility.yul\":742:747   */\n      0x00\n        /* \"#utility.yul\":780:786   */\n      dup2\n        /* \"#utility.yul\":767:787   */\n      calldataload\n        /* \"#utility.yul\":758:787   */\n      swap1\n      pop\n        /* \"#utility.yul\":796:829   */\n      tag_122\n        /* \"#utility.yul\":823:828   */\n      dup2\n        /* \"#utility.yul\":796:829   */\n      tag_73\n      jump\t// in\n    tag_122:\n        /* \"#utility.yul\":696:835   */\n      swap3\n      swap2\n      pop\n      pop\n      jump\t// out\n        /* \"#utility.yul\":841:1170   */\n    tag_8:\n        /* \"#utility.yul\":900:906   */\n      0x00\n        /* \"#utility.yul\":949:951   */\n      0x20\n        /* \"#utility.yul\":937:946   */\n      dup3\n        /* \"#utility.yul\":928:935   */\n      dup5\n        /* \"#utility.yul\":924:947   */\n      sub\n        /* \"#utility.yul\":920:952   */\n      slt\n        /* \"#utility.yul\":917:1036   */\n      iszero\n      tag_124\n      jumpi\n        /* \"#utility.yul\":955:1034   */\n      tag_125\n      tag_69\n      jump\t// in\n    tag_125:\n        /* \"#utility.yul\":917:1036   */\n    tag_124:\n        /* \"#utility.yul\":1075:1076   */\n      0x00\n        /* \"#utility.yul\":1100:1153   */\n      tag_126\n        /* \"#utility.yul\":1145:1152   */\n      dup5\n        /* \"#utility.yul\":1136:1142   */\n      dup3\n        /* \"#utility.yul\":1125:1134   */\n      dup6\n        /* \"#utility.yul\":1121:1143   */\n      add\n        /* \"#utility.yul\":1100:1153   */\n      tag_74\n      jump\t// in\n    tag_126:\n        /* \"#utility.yul\":1090:1153   */\n      swap2\n      pop\n        /* \"#utility.yul\":1046:1163   */\n      pop\n        /* \"#utility.yul\":841:1170   */\n      swap3\n      swap2\n      pop\n      pop\n      jump\t// out\n        /* \"#utility.yul\":1176:1253   */\n    tag_75:\n        /* \"#utility.yul\":1213:1220   */\n      0x00\n        /* \"#utility.yul\":1242:1247   */\n      dup2\n        /* \"#utility.yul\":1231:1247   */\n      swap1\n      pop\n        /* \"#utility.yul\":1176:1253   */\n      swap2\n      swap1\n      pop\n      jump\t// out\n        /* \"#utility.yul\":1259:1381   */\n    tag_76:\n        /* \"#utility.yul\":1332:1356   */\n      tag_129\n        /* \"#utility.yul\":1350:1355   */\n      dup2\n        /* \"#utility.yul\":1332:1356   */\n      tag_75\n      jump\t// in\n    tag_129:\n        /* \"#utility.yul\":1325:1330   */\n      dup2\n        /* \"#utility.yul\":1322:1357   */\n      eq\n        /* \"#utility.yul\":1312:1375   */\n      tag_130\n      jumpi\n        /* \"#utility.yul\":1371:1372   */\n      0x00\n        /* \"#utility.yul\":1368:1369   */\n      dup1\n        /* \"#utility.yul\":1361:1373   */\n      revert\n        /* \"#utility.yul\":1312:1375   */\n    tag_130:\n        /* \"#utility.yul\":1259:1381   */\n      pop\n      jump\t// out\n        /* \"#utility.yul\":1387:1526   */\n    tag_77:\n        /* \"#utility.yul\":1433:1438   */\n      0x00\n        /* \"#utility.yul\":1471:1477   */\n      dup2\n        /* \"#utility.yul\":1458:1478   */\n      calldataload\n        /* \"#utility.yul\":1449:1478   */\n      swap1\n      pop\n        /* \"#utility.yul\":1487:1520   */\n      tag_132\n        /* \"#utility.yul\":1514:1519   */\n      dup2\n        /* \"#utility.yul\":1487:1520   */\n      tag_76\n      jump\t// in\n    tag_132:\n        /* \"#utility.yul\":1387:1526   */\n      swap3\n      swap2\n      pop\n      pop\n      jump\t// out\n        /* \"#utility.yul\":1532:1861   */\n    tag_13:\n        /* \"#utility.yul\":1591:1597   */\n      0x00\n        /* \"#utility.yul\":1640:1642   */\n      0x20\n        /* \"#utility.yul\":1628:1637   */\n      dup3\n        /* \"#utility.yul\":1619:1626   */\n      dup5\n        /* \"#utility.yul\":1615:1638   */\n      sub\n        /* \"#utility.yul\":1611:1643   */\n      slt\n        /* \"#utility.yul\":1608:1727   */\n      iszero\n      tag_134\n      jumpi\n        /* \"#utility.yul\":1646:1725   */\n      tag_135\n      tag_69\n      jump\t// in\n    tag_135:\n        /* \"#utility.yul\":1608:1727   */\n    tag_134:\n        /* \"#utility.yul\":1766:1767   */\n      0x00\n        /* \"#utility.yul\":1791:1844   */\n      tag_136\n        /* \"#utility.yul\":1836:1843   */\n      dup5\n        /* \"#utility.yul\":1827:1833   */\n      dup3\n        /* \"#utility.yul\":1816:1825   */\n      dup6\n        /* \"#utility.yul\":1812:1834   */\n      add\n        /* \"#utility.yul\":1791:1844   */\n      tag_77\n      jump\t// in\n    tag_136:\n        /* \"#utility.yul\":1781:1844   */\n      swap2\n      pop\n        /* \"#utility.yul\":1737:1854   */\n      pop\n        /* \"#utility.yul\":1532:1861   */\n      swap3\n      swap2\n      pop\n      pop\n      jump\t// out\n        /* \"#utility.yul\":1867:1985   */\n    tag_78:\n        /* \"#utility.yul\":1954:1978   */\n      tag_138\n        /* \"#utility.yul\":1972:1977   */\n      dup2\n        /* \"#utility.yul\":1954:1978   */\n      tag_72\n      jump\t// in\n    tag_138:\n        /* \"#utility.yul\":1949:1952   */\n      dup3\n        /* \"#utility.yul\":1942:1979   */\n      mstore\n        /* \"#utility.yul\":1867:1985   */\n      pop\n      pop\n      jump\t// out\n        /* \"#utility.yul\":1991:2090   */\n    tag_79:\n        /* \"#utility.yul\":2043:2049   */\n      0x00\n        /* \"#utility.yul\":2077:2082   */\n      dup2\n        /* \"#utility.yul\":2071:2083   */\n      mload\n        /* \"#utility.yul\":2061:2083   */\n      swap1\n      pop\n        /* \"#utility.yul\":1991:2090   */\n      swap2\n      swap1\n      pop\n      jump\t// out\n        /* \"#utility.yul\":2096:2265   */\n    tag_80:\n        /* \"#utility.yul\":2180:2191   */\n      0x00\n        /* \"#utility.yul\":2214:2220   */\n      dup3\n        /* \"#utility.yul\":2209:2212   */\n      dup3\n        /* \"#utility.yul\":2202:2221   */\n      mstore\n        /* \"#utility.yul\":2254:2258   */\n      0x20\n        /* \"#utility.yul\":2249:2252   */\n      dup3\n        /* \"#utility.yul\":2245:2259   */\n      add\n        /* \"#utility.yul\":2230:2259   */\n      swap1\n      pop\n        /* \"#utility.yul\":2096:2265   */\n      swap3\n      swap2\n      pop\n      pop\n      jump\t// out\n        /* \"#utility.yul\":2271:2578   */\n    tag_81:\n        /* \"#utility.yul\":2339:2340   */\n      0x00\n        /* \"#utility.yul\":2349:2462   */\n    tag_142:\n        /* \"#utility.yul\":2363:2369   */\n      dup4\n        /* \"#utility.yul\":2360:2361   */\n      dup2\n        /* \"#utility.yul\":2357:2370   */\n      lt\n        /* \"#utility.yul\":2349:2462   */\n      iszero\n      tag_144\n      jumpi\n        /* \"#utility.yul\":2448:2449   */\n      dup1\n        /* \"#utility.yul\":2443:2446   */\n      dup3\n        /* \"#utility.yul\":2439:2450   */\n      add\n        /* \"#utility.yul\":2433:2451   */\n      mload\n        /* \"#utility.yul\":2429:2430   */\n      dup2\n        /* \"#utility.yul\":2424:2427   */\n      dup5\n        /* \"#utility.yul\":2420:2431   */\n      add\n        /* \"#utility.yul\":2413:2452   */\n      mstore\n        /* \"#utility.yul\":2385:2387   */\n      0x20\n        /* \"#utility.yul\":2382:2383   */\n      dup2\n        /* \"#utility.yul\":2378:2388   */\n      add\n        /* \"#utility.yul\":2373:2388   */\n      swap1\n      pop\n        /* \"#utility.yul\":2349:2462   */\n      jump(tag_142)\n    tag_144:\n        /* \"#utility.yul\":2480:2486   */\n      dup4\n        /* \"#utility.yul\":2477:2478   */\n      dup2\n        /* \"#utility.yul\":2474:2487   */\n      gt\n        /* \"#utility.yul\":2471:2572   */\n      iszero\n      tag_145\n      jumpi\n        /* \"#utility.yul\":2560:2561   */\n      0x00\n        /* \"#utility.yul\":2551:2557   */\n      dup5\n        /* \"#utility.yul\":2546:2549   */\n      dup5\n        /* \"#utility.yul\":2542:2558   */\n      add\n        /* \"#utility.yul\":2535:2562   */\n      mstore\n        /* \"#utility.yul\":2471:2572   */\n    tag_145:\n        /* \"#utility.yul\":2320:2578   */\n      pop\n        /* \"#utility.yul\":2271:2578   */\n      pop\n      pop\n      pop\n      jump\t// out\n        /* \"#utility.yul\":2584:2686   */\n    tag_82:\n        /* \"#utility.yul\":2625:2631   */\n      0x00\n        /* \"#utility.yul\":2676:2678   */\n      0x1f\n        /* \"#utility.yul\":2672:2679   */\n      not\n        /* \"#utility.yul\":2667:2669   */\n      0x1f\n        /* \"#utility.yul\":2660:2665   */\n      dup4\n        /* \"#utility.yul\":2656:2670   */\n      add\n        /* \"#utility.yul\":2652:2680   */\n      and\n        /* \"#utility.yul\":2642:2680   */\n      swap1\n      pop\n        /* \"#utility.yul\":2584:2686   */\n      swap2\n      swap1\n      pop\n      jump\t// out\n        /* \"#utility.yul\":2692:3056   */\n    tag_83:\n        /* \"#utility.yul\":2780:2783   */\n      0x00\n        /* \"#utility.yul\":2808:2847   */\n      tag_148\n        /* \"#utility.yul\":2841:2846   */\n      dup3\n        /* \"#utility.yul\":2808:2847   */\n      tag_79\n      jump\t// in\n    tag_148:\n        /* \"#utility.yul\":2863:2934   */\n      tag_149\n        /* \"#utility.yul\":2927:2933   */\n      dup2\n        /* \"#utility.yul\":2922:2925   */\n      dup6\n        /* \"#utility.yul\":2863:2934   */\n      tag_80\n      jump\t// in\n    tag_149:\n        /* \"#utility.yul\":2856:2934   */\n      swap4\n      pop\n        /* \"#utility.yul\":2943:2995   */\n      tag_150\n        /* \"#utility.yul\":2988:2994   */\n      dup2\n        /* \"#utility.yul\":2983:2986   */\n      dup6\n        /* \"#utility.yul\":2976:2980   */\n      0x20\n        /* \"#utility.yul\":2969:2974   */\n      dup7\n        /* \"#utility.yul\":2965:2981   */\n      add\n        /* \"#utility.yul\":2943:2995   */\n      tag_81\n      jump\t// in\n    tag_150:\n        /* \"#utility.yul\":3020:3049   */\n      tag_151\n        /* \"#utility.yul\":3042:3048   */\n      dup2\n        /* \"#utility.yul\":3020:3049   */\n      tag_82\n      jump\t// in\n    tag_151:\n        /* \"#utility.yul\":3015:3018   */\n      dup5\n        /* \"#utility.yul\":3011:3050   */\n      add\n        /* \"#utility.yul\":3004:3050   */\n      swap2\n      pop\n        /* \"#utility.yul\":2784:3056   */\n      pop\n        /* \"#utility.yul\":2692:3056   */\n      swap3\n      swap2\n      pop\n      pop\n      jump\t// out\n        /* \"#utility.yul\":3062:3180   */\n    tag_84:\n        /* \"#utility.yul\":3149:3173   */\n      tag_153\n        /* \"#utility.yul\":3167:3172   */\n      dup2\n        /* \"#utility.yul\":3149:3173   */\n      tag_75\n      jump\t// in\n    tag_153:\n        /* \"#utility.yul\":3144:3147   */\n      dup3\n        /* \"#utility.yul\":3137:3174   */\n      mstore\n        /* \"#utility.yul\":3062:3180   */\n      pop\n      pop\n      jump\t// out\n        /* \"#utility.yul\":3186:3719   */\n    tag_16:\n        /* \"#utility.yul\":3355:3359   */\n      0x00\n        /* \"#utility.yul\":3393:3395   */\n      0x60\n        /* \"#utility.yul\":3382:3391   */\n      dup3\n        /* \"#utility.yul\":3378:3396   */\n      add\n        /* \"#utility.yul\":3370:3396   */\n      swap1\n      pop\n        /* \"#utility.yul\":3406:3477   */\n      tag_155\n        /* \"#utility.yul\":3474:3475   */\n      0x00\n        /* \"#utility.yul\":3463:3472   */\n      dup4\n        /* \"#utility.yul\":3459:3476   */\n      add\n        /* \"#utility.yul\":3450:3456   */\n      dup7\n        /* \"#utility.yul\":3406:3477   */\n      tag_78\n      jump\t// in\n    tag_155:\n        /* \"#utility.yul\":3524:3533   */\n      dup2\n        /* \"#utility.yul\":3518:3522   */\n      dup2\n        /* \"#utility.yul\":3514:3534   */\n      sub\n        /* \"#utility.yul\":3509:3511   */\n      0x20\n        /* \"#utility.yul\":3498:3507   */\n      dup4\n        /* \"#utility.yul\":3494:3512   */\n      add\n        /* \"#utility.yul\":3487:3535   */\n      mstore\n        /* \"#utility.yul\":3552:3630   */\n      tag_156\n        /* \"#utility.yul\":3625:3629   */\n      dup2\n        /* \"#utility.yul\":3616:3622   */\n      dup6\n        /* \"#utility.yul\":3552:3630   */\n      tag_83\n      jump\t// in\n    tag_156:\n        /* \"#utility.yul\":3544:3630   */\n      swap1\n      pop\n        /* \"#utility.yul\":3640:3712   */\n      tag_157\n        /* \"#utility.yul\":3708:3710   */\n      0x40\n        /* \"#utility.yul\":3697:3706   */\n      dup4\n        /* \"#utility.yul\":3693:3711   */\n      add\n        /* \"#utility.yul\":3684:3690   */\n      dup5\n        /* \"#utility.yul\":3640:3712   */\n      tag_84\n      jump\t// in\n    tag_157:\n        /* \"#utility.yul\":3186:3719   */\n      swap5\n      swap4\n      pop\n      pop\n      pop\n      pop\n      jump\t// out\n        /* \"#utility.yul\":3725:3947   */\n    tag_22:\n        /* \"#utility.yul\":3818:3822   */\n      0x00\n        /* \"#utility.yul\":3856:3858   */\n      0x20\n        /* \"#utility.yul\":3845:3854   */\n      dup3\n        /* \"#utility.yul\":3841:3859   */\n      add\n        /* \"#utility.yul\":3833:3859   */\n      swap1\n      pop\n        /* \"#utility.yul\":3869:3940   */\n      tag_159\n        /* \"#utility.yul\":3937:3938   */\n      0x00\n        /* \"#utility.yul\":3926:3935   */\n      dup4\n        /* \"#utility.yul\":3922:3939   */\n      add\n        /* \"#utility.yul\":3913:3919   */\n      dup5\n        /* \"#utility.yul\":3869:3940   */\n      tag_84\n      jump\t// in\n    tag_159:\n        /* \"#utility.yul\":3725:3947   */\n      swap3\n      swap2\n      pop\n      pop\n      jump\t// out\n        /* \"#utility.yul\":3953:4070   */\n    tag_85:\n        /* \"#utility.yul\":4062:4063   */\n      0x00\n        /* \"#utility.yul\":4059:4060   */\n      dup1\n        /* \"#utility.yul\":4052:4064   */\n      revert\n        /* \"#utility.yul\":4076:4193   */\n    tag_86:\n        /* \"#utility.yul\":4185:4186   */\n      0x00\n        /* \"#utility.yul\":4182:4183   */\n      dup1\n        /* \"#utility.yul\":4175:4187   */\n      revert\n        /* \"#utility.yul\":4199:4379   */\n    tag_87:\n        /* \"#utility.yul\":4247:4324   */\n      0x4e487b7100000000000000000000000000000000000000000000000000000000\n        /* \"#utility.yul\":4244:4245   */\n      0x00\n        /* \"#utility.yul\":4237:4325   */\n      mstore\n        /* \"#utility.yul\":4344:4348   */\n      0x41\n        /* \"#utility.yul\":4341:4342   */\n      0x04\n        /* \"#utility.yul\":4334:4349   */\n      mstore\n        /* \"#utility.yul\":4368:4372   */\n      0x24\n        /* \"#utility.yul\":4365:4366   */\n      0x00\n        /* \"#utility.yul\":4358:4373   */\n      revert\n        /* \"#utility.yul\":4385:4666   */\n    tag_88:\n        /* \"#utility.yul\":4468:4495   */\n      tag_164\n        /* \"#utility.yul\":4490:4494   */\n      dup3\n        /* \"#utility.yul\":4468:4495   */\n      tag_82\n      jump\t// in\n    tag_164:\n        /* \"#utility.yul\":4460:4466   */\n      dup2\n        /* \"#utility.yul\":4456:4496   */\n      add\n        /* \"#utility.yul\":4598:4604   */\n      dup2\n        /* \"#utility.yul\":4586:4596   */\n      dup2\n        /* \"#utility.yul\":4583:4605   */\n      lt\n        /* \"#utility.yul\":4562:4580   */\n      0xffffffffffffffff\n        /* \"#utility.yul\":4550:4560   */\n      dup3\n        /* \"#utility.yul\":4547:4581   */\n      gt\n        /* \"#utility.yul\":4544:4606   */\n      or\n        /* \"#utility.yul\":4541:4629   */\n      iszero\n      tag_165\n      jumpi\n        /* \"#utility.yul\":4609:4627   */\n      tag_166\n      tag_87\n      jump\t// in\n    tag_166:\n        /* \"#utility.yul\":4541:4629   */\n    tag_165:\n        /* \"#utility.yul\":4649:4659   */\n      dup1\n        /* \"#utility.yul\":4645:4647   */\n      0x40\n        /* \"#utility.yul\":4638:4660   */\n      mstore\n        /* \"#utility.yul\":4428:4666   */\n      pop\n        /* \"#utility.yul\":4385:4666   */\n      pop\n      pop\n      jump\t// out\n        /* \"#utility.yul\":4672:4801   */\n    tag_89:\n        /* \"#utility.yul\":4706:4712   */\n      0x00\n        /* \"#utility.yul\":4733:4753   */\n      tag_168\n      tag_68\n      jump\t// in\n    tag_168:\n        /* \"#utility.yul\":4723:4753   */\n      swap1\n      pop\n        /* \"#utility.yul\":4762:4795   */\n      tag_169\n        /* \"#utility.yul\":4790:4794   */\n      dup3\n        /* \"#utility.yul\":4782:4788   */\n      dup3\n        /* \"#utility.yul\":4762:4795   */\n      tag_88\n      jump\t// in\n    tag_169:\n        /* \"#utility.yul\":4672:4801   */\n      swap2\n      swap1\n      pop\n      jump\t// out\n        /* \"#utility.yul\":4807:5115   */\n    tag_90:\n        /* \"#utility.yul\":4869:4873   */\n      0x00\n        /* \"#utility.yul\":4959:4977   */\n      0xffffffffffffffff\n        /* \"#utility.yul\":4951:4957   */\n      dup3\n        /* \"#utility.yul\":4948:4978   */\n      gt\n        /* \"#utility.yul\":4945:5001   */\n      iszero\n      tag_171\n      jumpi\n        /* \"#utility.yul\":4981:4999   */\n      tag_172\n      tag_87\n      jump\t// in\n    tag_172:\n        /* \"#utility.yul\":4945:5001   */\n    tag_171:\n        /* \"#utility.yul\":5019:5048   */\n      tag_173\n        /* \"#utility.yul\":5041:5047   */\n      dup3\n        /* \"#utility.yul\":5019:5048   */\n      tag_82\n      jump\t// in\n    tag_173:\n        /* \"#utility.yul\":5011:5048   */\n      swap1\n      pop\n        /* \"#utility.yul\":5103:5107   */\n      0x20\n        /* \"#utility.yul\":5097:5101   */\n      dup2\n        /* \"#utility.yul\":5093:5108   */\n      add\n        /* \"#utility.yul\":5085:5108   */\n      swap1\n      pop\n        /* \"#utility.yul\":4807:5115   */\n      swap2\n      swap1\n      pop\n      jump\t// out\n        /* \"#utility.yul\":5121:5275   */\n    tag_91:\n        /* \"#utility.yul\":5205:5211   */\n      dup3\n        /* \"#utility.yul\":5200:5203   */\n      dup2\n        /* \"#utility.yul\":5195:5198   */\n      dup4\n        /* \"#utility.yul\":5182:5212   */\n      calldatacopy\n        /* \"#utility.yul\":5267:5268   */\n      0x00\n        /* \"#utility.yul\":5258:5264   */\n      dup4\n        /* \"#utility.yul\":5253:5256   */\n      dup4\n        /* \"#utility.yul\":5249:5265   */\n      add\n        /* \"#utility.yul\":5242:5269   */\n      mstore\n        /* \"#utility.yul\":5121:5275   */\n      pop\n      pop\n      pop\n      jump\t// out\n        /* \"#utility.yul\":5281:5693   */\n    tag_92:\n        /* \"#utility.yul\":5359:5364   */\n      0x00\n        /* \"#utility.yul\":5384:5450   */\n      tag_176\n        /* \"#utility.yul\":5400:5449   */\n      tag_177\n        /* \"#utility.yul\":5442:5448   */\n      dup5\n        /* \"#utility.yul\":5400:5449   */\n      tag_90\n      jump\t// in\n    tag_177:\n        /* \"#utility.yul\":5384:5450   */\n      tag_89\n      jump\t// in\n    tag_176:\n        /* \"#utility.yul\":5375:5450   */\n      swap1\n      pop\n        /* \"#utility.yul\":5473:5479   */\n      dup3\n        /* \"#utility.yul\":5466:5471   */\n      dup2\n        /* \"#utility.yul\":5459:5480   */\n      mstore\n        /* \"#utility.yul\":5511:5515   */\n      0x20\n        /* \"#utility.yul\":5504:5509   */\n      dup2\n        /* \"#utility.yul\":5500:5516   */\n      add\n        /* \"#utility.yul\":5549:5552   */\n      dup5\n        /* \"#utility.yul\":5540:5546   */\n      dup5\n        /* \"#utility.yul\":5535:5538   */\n      dup5\n        /* \"#utility.yul\":5531:5547   */\n      add\n        /* \"#utility.yul\":5528:5553   */\n      gt\n        /* \"#utility.yul\":5525:5637   */\n      iszero\n      tag_178\n      jumpi\n        /* \"#utility.yul\":5556:5635   */\n      tag_179\n      tag_86\n      jump\t// in\n    tag_179:\n        /* \"#utility.yul\":5525:5637   */\n    tag_178:\n        /* \"#utility.yul\":5646:5687   */\n      tag_180\n        /* \"#utility.yul\":5680:5686   */\n      dup5\n        /* \"#utility.yul\":5675:5678   */\n      dup3\n        /* \"#utility.yul\":5670:5673   */\n      dup6\n        /* \"#utility.yul\":5646:5687   */\n      tag_91\n      jump\t// in\n    tag_180:\n        /* \"#utility.yul\":5365:5693   */\n      pop\n        /* \"#utility.yul\":5281:5693   */\n      swap4\n      swap3\n      pop\n      pop\n      pop\n      jump\t// out\n        /* \"#utility.yul\":5713:6053   */\n    tag_93:\n        /* \"#utility.yul\":5769:5774   */\n      0x00\n        /* \"#utility.yul\":5818:5821   */\n      dup3\n        /* \"#utility.yul\":5811:5815   */\n      0x1f\n        /* \"#utility.yul\":5803:5809   */\n      dup4\n        /* \"#utility.yul\":5799:5816   */\n      add\n        /* \"#utility.yul\":5795:5822   */\n      slt\n        /* \"#utility.yul\":5785:5907   */\n      tag_182\n      jumpi\n        /* \"#utility.yul\":5826:5905   */\n      tag_183\n      tag_85\n      jump\t// in\n    tag_183:\n        /* \"#utility.yul\":5785:5907   */\n    tag_182:\n        /* \"#utility.yul\":5943:5949   */\n      dup2\n        /* \"#utility.yul\":5930:5950   */\n      calldataload\n        /* \"#utility.yul\":5968:6047   */\n      tag_184\n        /* \"#utility.yul\":6043:6046   */\n      dup5\n        /* \"#utility.yul\":6035:6041   */\n      dup3\n        /* \"#utility.yul\":6028:6032   */\n      0x20\n        /* \"#utility.yul\":6020:6026   */\n      dup7\n        /* \"#utility.yul\":6016:6033   */\n      add\n        /* \"#utility.yul\":5968:6047   */\n      tag_92\n      jump\t// in\n    tag_184:\n        /* \"#utility.yul\":5959:6047   */\n      swap2\n      pop\n        /* \"#utility.yul\":5775:6053   */\n      pop\n        /* \"#utility.yul\":5713:6053   */\n      swap3\n      swap2\n      pop\n      pop\n      jump\t// out\n        /* \"#utility.yul\":6059:6858   */\n    tag_26:\n        /* \"#utility.yul\":6146:6152   */\n      0x00\n        /* \"#utility.yul\":6154:6160   */\n      dup1\n        /* \"#utility.yul\":6162:6168   */\n      0x00\n        /* \"#utility.yul\":6211:6213   */\n      0x60\n        /* \"#utility.yul\":6199:6208   */\n      dup5\n        /* \"#utility.yul\":6190:6197   */\n      dup7\n        /* \"#utility.yul\":6186:6209   */\n      sub\n        /* \"#utility.yul\":6182:6214   */\n      slt\n        /* \"#utility.yul\":6179:6298   */\n      iszero\n      tag_186\n      jumpi\n        /* \"#utility.yul\":6217:6296   */\n      tag_187\n      tag_69\n      jump\t// in\n    tag_187:\n        /* \"#utility.yul\":6179:6298   */\n    tag_186:\n        /* \"#utility.yul\":6337:6338   */\n      0x00\n        /* \"#utility.yul\":6362:6415   */\n      tag_188\n        /* \"#utility.yul\":6407:6414   */\n      dup7\n        /* \"#utility.yul\":6398:6404   */\n      dup3\n        /* \"#utility.yul\":6387:6396   */\n      dup8\n        /* \"#utility.yul\":6383:6405   */\n      add\n        /* \"#utility.yul\":6362:6415   */\n      tag_74\n      jump\t// in\n    tag_188:\n        /* \"#utility.yul\":6352:6415   */\n      swap4\n      pop\n        /* \"#utility.yul\":6308:6425   */\n      pop\n        /* \"#utility.yul\":6492:6494   */\n      0x20\n        /* \"#utility.yul\":6481:6490   */\n      dup5\n        /* \"#utility.yul\":6477:6495   */\n      add\n        /* \"#utility.yul\":6464:6496   */\n      calldataload\n        /* \"#utility.yul\":6523:6541   */\n      0xffffffffffffffff\n        /* \"#utility.yul\":6515:6521   */\n      dup2\n        /* \"#utility.yul\":6512:6542   */\n      gt\n        /* \"#utility.yul\":6509:6626   */\n      iszero\n      tag_189\n      jumpi\n        /* \"#utility.yul\":6545:6624   */\n      tag_190\n      tag_70\n      jump\t// in\n    tag_190:\n        /* \"#utility.yul\":6509:6626   */\n    tag_189:\n        /* \"#utility.yul\":6650:6713   */\n      tag_191\n        /* \"#utility.yul\":6705:6712   */\n      dup7\n        /* \"#utility.yul\":6696:6702   */\n      dup3\n        /* \"#utility.yul\":6685:6694   */\n      dup8\n        /* \"#utility.yul\":6681:6703   */\n      add\n        /* \"#utility.yul\":6650:6713   */\n      tag_93\n      jump\t// in\n    tag_191:\n        /* \"#utility.yul\":6640:6713   */\n      swap3\n      pop\n        /* \"#utility.yul\":6435:6723   */\n      pop\n        /* \"#utility.yul\":6762:6764   */\n      0x40\n        /* \"#utility.yul\":6788:6841   */\n      tag_192\n        /* \"#utility.yul\":6833:6840   */\n      dup7\n        /* \"#utility.yul\":6824:6830   */\n      dup3\n        /* \"#utility.yul\":6813:6822   */\n      dup8\n        /* \"#utility.yul\":6809:6831   */\n      add\n        /* \"#utility.yul\":6788:6841   */\n      tag_77\n      jump\t// in\n    tag_192:\n        /* \"#utility.yul\":6778:6841   */\n      swap2\n      pop\n        /* \"#utility.yul\":6733:6851   */\n      pop\n        /* \"#utility.yul\":6059:6858   */\n      swap3\n      pop\n      swap3\n      pop\n      swap3\n      jump\t// out\n        /* \"#utility.yul\":6864:7044   */\n    tag_94:\n        /* \"#utility.yul\":6912:6989   */\n      0x4e487b7100000000000000000000000000000000000000000000000000000000\n        /* \"#utility.yul\":6909:6910   */\n      0x00\n        /* \"#utility.yul\":6902:6990   */\n      mstore\n        /* \"#utility.yul\":7009:7013   */\n      0x22\n        /* \"#utility.yul\":7006:7007   */\n      0x04\n        /* \"#utility.yul\":6999:7014   */\n      mstore\n        /* \"#utility.yul\":7033:7037   */\n      0x24\n        /* \"#utility.yul\":7030:7031   */\n      0x00\n        /* \"#utility.yul\":7023:7038   */\n      revert\n        /* \"#utility.yul\":7050:7370   */\n    tag_34:\n        /* \"#utility.yul\":7094:7100   */\n      0x00\n        /* \"#utility.yul\":7131:7132   */\n      0x02\n        /* \"#utility.yul\":7125:7129   */\n      dup3\n        /* \"#utility.yul\":7121:7133   */\n      div\n        /* \"#utility.yul\":7111:7133   */\n      swap1\n      pop\n        /* \"#utility.yul\":7178:7179   */\n      0x01\n        /* \"#utility.yul\":7172:7176   */\n      dup3\n        /* \"#utility.yul\":7168:7180   */\n      and\n        /* \"#utility.yul\":7199:7217   */\n      dup1\n        /* \"#utility.yul\":7189:7270   */\n      tag_195\n      jumpi\n        /* \"#utility.yul\":7255:7259   */\n      0x7f\n        /* \"#utility.yul\":7247:7253   */\n      dup3\n        /* \"#utility.yul\":7243:7260   */\n      and\n        /* \"#utility.yul\":7233:7260   */\n      swap2\n      pop\n        /* \"#utility.yul\":7189:7270   */\n    tag_195:\n        /* \"#utility.yul\":7317:7319   */\n      0x20\n        /* \"#utility.yul\":7309:7315   */\n      dup3\n        /* \"#utility.yul\":7306:7320   */\n      lt\n        /* \"#utility.yul\":7286:7304   */\n      dup2\n        /* \"#utility.yul\":7283:7321   */\n      sub\n        /* \"#utility.yul\":7280:7364   */\n      tag_196\n      jumpi\n        /* \"#utility.yul\":7336:7354   */\n      tag_197\n      tag_94\n      jump\t// in\n    tag_197:\n        /* \"#utility.yul\":7280:7364   */\n    tag_196:\n        /* \"#utility.yul\":7101:7370   */\n      pop\n        /* \"#utility.yul\":7050:7370   */\n      swap2\n      swap1\n      pop\n      jump\t// out\n        /* \"#utility.yul\":7376:7556   */\n    tag_45:\n        /* \"#utility.yul\":7424:7501   */\n      0x4e487b7100000000000000000000000000000000000000000000000000000000\n        /* \"#utility.yul\":7421:7422   */\n      0x00\n        /* \"#utility.yul\":7414:7502   */\n      mstore\n        /* \"#utility.yul\":7521:7525   */\n      0x32\n        /* \"#utility.yul\":7518:7519   */\n      0x04\n        /* \"#utility.yul\":7511:7526   */\n      mstore\n        /* \"#utility.yul\":7545:7549   */\n      0x24\n        /* \"#utility.yul\":7542:7543   */\n      0x00\n        /* \"#utility.yul\":7535:7550   */\n      revert\n        /* \"#utility.yul\":7562:7742   */\n    tag_95:\n        /* \"#utility.yul\":7610:7687   */\n      0x4e487b7100000000000000000000000000000000000000000000000000000000\n        /* \"#utility.yul\":7607:7608   */\n      0x00\n        /* \"#utility.yul\":7600:7688   */\n      mstore\n        /* \"#utility.yul\":7707:7711   */\n      0x11\n        /* \"#utility.yul\":7704:7705   */\n      0x04\n        /* \"#utility.yul\":7697:7712   */\n      mstore\n        /* \"#utility.yul\":7731:7735   */\n      0x24\n        /* \"#utility.yul\":7728:7729   */\n      0x00\n        /* \"#utility.yul\":7721:7736   */\n      revert\n        /* \"#utility.yul\":7748:7981   */\n    tag_49:\n        /* \"#utility.yul\":7787:7790   */\n      0x00\n        /* \"#utility.yul\":7810:7834   */\n      tag_201\n        /* \"#utility.yul\":7828:7833   */\n      dup3\n        /* \"#utility.yul\":7810:7834   */\n      tag_75\n      jump\t// in\n    tag_201:\n        /* \"#utility.yul\":7801:7834   */\n      swap2\n      pop\n        /* \"#utility.yul\":7856:7922   */\n      0xffffffffffffffffffffffffffffffffffffffffffffffffffffffffffffffff\n        /* \"#utility.yul\":7849:7854   */\n      dup3\n        /* \"#utility.yul\":7846:7923   */\n      sub\n        /* \"#utility.yul\":7843:7946   */\n      tag_202\n      jumpi\n        /* \"#utility.yul\":7926:7944   */\n      tag_203\n      tag_95\n      jump\t// in\n    tag_203:\n        /* \"#utility.yul\":7843:7946   */\n    tag_202:\n        /* \"#utility.yul\":7973:7974   */\n      0x01\n        /* \"#utility.yul\":7966:7971   */\n      dup3\n        /* \"#utility.yul\":7962:7975   */\n      add\n        /* \"#utility.yul\":7955:7975   */\n      swap1\n      pop\n        /* \"#utility.yul\":7748:7981   */\n      swap2\n      swap1\n      pop\n      jump\t// out\n        /* \"#utility.yul\":7987:8128   */\n    tag_96:\n        /* \"#utility.yul\":8036:8040   */\n      0x00\n        /* \"#utility.yul\":8059:8062   */\n      dup2\n        /* \"#utility.yul\":8051:8062   */\n      swap1\n      pop\n        /* \"#utility.yul\":8082:8085   */\n      dup2\n        /* \"#utility.yul\":8079:8080   */\n      0x00\n        /* \"#utility.yul\":8072:8086   */\n      mstore\n        /* \"#utility.yul\":8116:8120   */\n      0x20\n        /* \"#utility.yul\":8113:8114   */\n      0x00\n        /* \"#utility.yul\":8103:8121   */\n      keccak256\n        /* \"#utility.yul\":8095:8121   */\n      swap1\n      pop\n        /* \"#utility.yul\":7987:8128   */\n      swap2\n      swap1\n      pop\n      jump\t// out\n        /* \"#utility.yul\":8134:8227   */\n    tag_97:\n        /* \"#utility.yul\":8171:8177   */\n      0x00\n        /* \"#utility.yul\":8218:8220   */\n      0x20\n        /* \"#utility.yul\":8213:8215   */\n      0x1f\n        /* \"#utility.yul\":8206:8211   */\n      dup4\n        /* \"#utility.yul\":8202:8216   */\n      add\n        /* \"#utility.yul\":8198:8221   */\n      div\n        /* \"#utility.yul\":8188:8221   */\n      swap1\n      pop\n        /* \"#utility.yul\":8134:8227   */\n      swap2\n      swap1\n      pop\n      jump\t// out\n        /* \"#utility.yul\":8233:8340   */\n    tag_98:\n        /* \"#utility.yul\":8277:8285   */\n      0x00\n        /* \"#utility.yul\":8327:8332   */\n      dup3\n        /* \"#utility.yul\":8321:8325   */\n      dup3\n        /* \"#utility.yul\":8317:8333   */\n      shl\n        /* \"#utility.yul\":8296:8333   */\n      swap1\n      pop\n        /* \"#utility.yul\":8233:8340   */\n      swap3\n      swap2\n      pop\n      pop\n      jump\t// out\n        /* \"#utility.yul\":8346:8739   */\n    tag_99:\n        /* \"#utility.yul\":8415:8421   */\n      0x00\n        /* \"#utility.yul\":8465:8466   */\n      0x08\n        /* \"#utility.yul\":8453:8463   */\n      dup4\n        /* \"#utility.yul\":8449:8467   */\n      mul\n        /* \"#utility.yul\":8488:8585   */\n      tag_208\n        /* \"#utility.yul\":8518:8584   */\n      0xffffffffffffffffffffffffffffffffffffffffffffffffffffffffffffffff\n        /* \"#utility.yul\":8507:8516   */\n      dup3\n        /* \"#utility.yul\":8488:8585   */\n      tag_98\n      jump\t// in\n    tag_208:\n        /* \"#utility.yul\":8606:8645   */\n      tag_209\n        /* \"#utility.yul\":8636:8644   */\n      dup7\n        /* \"#utility.yul\":8625:8634   */\n      dup4\n        /* \"#utility.yul\":8606:8645   */\n      tag_98\n      jump\t// in\n    tag_209:\n        /* \"#utility.yul\":8594:8645   */\n      swap6\n      pop\n        /* \"#utility.yul\":8678:8682   */\n      dup1\n        /* \"#utility.yul\":8674:8683   */\n      not\n        /* \"#utility.yul\":8667:8672   */\n      dup5\n        /* \"#utility.yul\":8663:8684   */\n      and\n        /* \"#utility.yul\":8654:8684   */\n      swap4\n      pop\n        /* \"#utility.yul\":8727:8731   */\n      dup1\n        /* \"#utility.yul\":8717:8725   */\n      dup7\n        /* \"#utility.yul\":8713:8732   */\n      and\n        /* \"#utility.yul\":8706:8711   */\n      dup5\n        /* \"#utility.yul\":8703:8733   */\n      or\n        /* \"#utility.yul\":8693:8733   */\n      swap3\n      pop\n        /* \"#utility.yul\":8422:8739   */\n      pop\n      pop\n        /* \"#utility.yul\":8346:8739   */\n      swap4\n      swap3\n      pop\n      pop\n      pop\n      jump\t// out\n        /* \"#utility.yul\":8745:8805   */\n    tag_100:\n        /* \"#utility.yul\":8773:8776   */\n      0x00\n        /* \"#utility.yul\":8794:8799   */\n      dup2\n        /* \"#utility.yul\":8787:8799   */\n      swap1\n      pop\n        /* \"#utility.yul\":8745:8805   */\n      swap2\n      swap1\n      pop\n      jump\t// out\n        /* \"#utility.yul\":8811:8953   */\n    tag_101:\n        /* \"#utility.yul\":8861:8870   */\n      0x00\n        /* \"#utility.yul\":8894:8947   */\n      tag_212\n        /* \"#utility.yul\":8912:8946   */\n      tag_213\n        /* \"#utility.yul\":8921:8945   */\n      tag_214\n        /* \"#utility.yul\":8939:8944   */\n      dup5\n        /* \"#utility.yul\":8921:8945   */\n      tag_75\n      jump\t// in\n    tag_214:\n        /* \"#utility.yul\":8912:8946   */\n      tag_100\n      jump\t// in\n    tag_213:\n        /* \"#utility.yul\":8894:8947   */\n      tag_75\n      jump\t// in\n    tag_212:\n        /* \"#utility.yul\":8881:8947   */\n      swap1\n      pop\n        /* \"#utility.yul\":8811:8953   */\n      swap2\n      swap1\n      pop\n      jump\t// out\n        /* \"#utility.yul\":8959:9034   */\n    tag_102:\n        /* \"#utility.yul\":9002:9005   */\n      0x00\n        /* \"#utility.yul\":9023:9028   */\n      dup2\n        /* \"#utility.yul\":9016:9028   */\n      swap1\n      pop\n        /* \"#utility.yul\":8959:9034   */\n      swap2\n      swap1\n      pop\n      jump\t// out\n        /* \"#utility.yul\":9040:9309   */\n    tag_103:\n        /* \"#utility.yul\":9150:9189   */\n      tag_217\n        /* \"#utility.yul\":9181:9188   */\n      dup4\n        /* \"#utility.yul\":9150:9189   */\n      tag_101\n      jump\t// in\n    tag_217:\n        /* \"#utility.yul\":9211:9302   */\n      tag_218\n        /* \"#utility.yul\":9260:9301   */\n      tag_219\n        /* \"#utility.yul\":9284:9300   */\n      dup3\n        /* \"#utility.yul\":9260:9301   */\n      tag_102\n      jump\t// in\n    tag_219:\n        /* \"#utility.yul\":9252:9258   */\n      dup5\n        /* \"#utility.yul\":9245:9249   */\n      dup5\n        /* \"#utility.yul\":9239:9250   */\n      sload\n        /* \"#utility.yul\":9211:9302   */\n      tag_99\n      jump\t// in\n    tag_218:\n        /* \"#utility.yul\":9205:9209   */\n      dup3\n        /* \"#utility.yul\":9198:9303   */\n      sstore\n        /* \"#utility.yul\":9116:9309   */\n      pop\n        /* \"#utility.yul\":9040:9309   */\n      pop\n      pop\n      pop\n      jump\t// out\n        /* \"#utility.yul\":9315:9388   */\n    tag_104:\n        /* \"#utility.yul\":9360:9363   */\n      0x00\n        /* \"#utility.yul\":9315:9388   */\n      swap1\n      jump\t// out\n        /* \"#utility.yul\":9394:9583   */\n    tag_105:\n        /* \"#utility.yul\":9471:9503   */\n      tag_222\n      tag_104\n      jump\t// in\n    tag_222:\n        /* \"#utility.yul\":9512:9577   */\n      tag_223\n        /* \"#utility.yul\":9570:9576   */\n      dup2\n        /* \"#utility.yul\":9562:9568   */\n      dup5\n        /* \"#utility.yul\":9556:9560   */\n      dup5\n        /* \"#utility.yul\":9512:9577   */\n      tag_103\n      jump\t// in\n    tag_223:\n        /* \"#utility.yul\":9447:9583   */\n      pop\n        /* \"#utility.yul\":9394:9583   */\n      pop\n      pop\n      jump\t// out\n        /* \"#utility.yul\":9589:9775   */\n    tag_106:\n        /* \"#utility.yul\":9649:9769   */\n    tag_225:\n        /* \"#utility.yul\":9666:9669   */\n      dup2\n        /* \"#utility.yul\":9659:9664   */\n      dup2\n        /* \"#utility.yul\":9656:9670   */\n      lt\n        /* \"#utility.yul\":9649:9769   */\n      iszero\n      tag_227\n      jumpi\n        /* \"#utility.yul\":9720:9759   */\n      tag_228\n        /* \"#utility.yul\":9757:9758   */\n      0x00\n        /* \"#utility.yul\":9750:9755   */\n      dup3\n        /* \"#utility.yul\":9720:9759   */\n      tag_105\n      jump\t// in\n    tag_228:\n        /* \"#utility.yul\":9693:9694   */\n      0x01\n        /* \"#utility.yul\":9686:9691   */\n      dup2\n        /* \"#utility.yul\":9682:9695   */\n      add\n        /* \"#utility.yul\":9673:9695   */\n      swap1\n      pop\n        /* \"#utility.yul\":9649:9769   */\n      jump(tag_225)\n    tag_227:\n        /* \"#utility.yul\":9589:9775   */\n      pop\n      pop\n      jump\t// out\n        /* \"#utility.yul\":9781:10324   */\n    tag_107:\n        /* \"#utility.yul\":9882:9884   */\n      0x1f\n        /* \"#utility.yul\":9877:9880   */\n      dup3\n        /* \"#utility.yul\":9874:9885   */\n      gt\n        /* \"#utility.yul\":9871:10317   */\n      iszero\n      tag_230\n      jumpi\n        /* \"#utility.yul\":9916:9954   */\n      tag_231\n        /* \"#utility.yul\":9948:9953   */\n      dup2\n        /* \"#utility.yul\":9916:9954   */\n      tag_96\n      jump\t// in\n    tag_231:\n        /* \"#utility.yul\":10000:10029   */\n      tag_232\n        /* \"#utility.yul\":10018:10028   */\n      dup5\n        /* \"#utility.yul\":10000:10029   */\n      tag_97\n      jump\t// in\n    tag_232:\n        /* \"#utility.yul\":9990:9998   */\n      dup2\n        /* \"#utility.yul\":9986:10030   */\n      add\n        /* \"#utility.yul\":10183:10185   */\n      0x20\n        /* \"#utility.yul\":10171:10181   */\n      dup6\n        /* \"#utility.yul\":10168:10186   */\n      lt\n        /* \"#utility.yul\":10165:10214   */\n      iszero\n      tag_233\n      jumpi\n        /* \"#utility.yul\":10204:10212   */\n      dup2\n        /* \"#utility.yul\":10189:10212   */\n      swap1\n      pop\n        /* \"#utility.yul\":10165:10214   */\n    tag_233:\n        /* \"#utility.yul\":10227:10307   */\n      tag_234\n        /* \"#utility.yul\":10283:10305   */\n      tag_235\n        /* \"#utility.yul\":10301:10304   */\n      dup6\n        /* \"#utility.yul\":10283:10305   */\n      tag_97\n      jump\t// in\n    tag_235:\n        /* \"#utility.yul\":10273:10281   */\n      dup4\n        /* \"#utility.yul\":10269:10306   */\n      add\n        /* \"#utility.yul\":10256:10267   */\n      dup3\n        /* \"#utility.yul\":10227:10307   */\n      tag_106\n      jump\t// in\n    tag_234:\n        /* \"#utility.yul\":9886:10317   */\n      pop\n      pop\n        /* \"#utility.yul\":9871:10317   */\n    tag_230:\n        /* \"#utility.yul\":9781:10324   */\n      pop\n      pop\n      pop\n      jump\t// out\n        /* \"#utility.yul\":10330:10447   */\n    tag_108:\n        /* \"#utility.yul\":10384:10392   */\n      0x00\n        /* \"#utility.yul\":10434:10439   */\n      dup3\n        /* \"#utility.yul\":10428:10432   */\n      dup3\n        /* \"#utility.yul\":10424:10440   */\n      shr\n        /* \"#utility.yul\":10403:10440   */\n      swap1\n      pop\n        /* \"#utility.yul\":10330:10447   */\n      swap3\n      swap2\n      pop\n      pop\n      jump\t// out\n        /* \"#utility.yul\":10453:10622   */\n    tag_109:\n        /* \"#utility.yul\":10497:10503   */\n      0x00\n        /* \"#utility.yul\":10530:10581   */\n      tag_238\n        /* \"#utility.yul\":10578:10579   */\n      0x00\n        /* \"#utility.yul\":10574:10580   */\n      not\n        /* \"#utility.yul\":10566:10571   */\n      dup5\n        /* \"#utility.yul\":10563:10564   */\n      0x08\n        /* \"#utility.yul\":10559:10572   */\n      mul\n        /* \"#utility.yul\":10530:10581   */\n      tag_108\n      jump\t// in\n    tag_238:\n        /* \"#utility.yul\":10526:10582   */\n      not\n        /* \"#utility.yul\":10611:10615   */\n      dup1\n        /* \"#utility.yul\":10605:10609   */\n      dup4\n        /* \"#utility.yul\":10601:10616   */\n      and\n        /* \"#utility.yul\":10591:10616   */\n      swap2\n      pop\n        /* \"#utility.yul\":10504:10622   */\n      pop\n        /* \"#utility.yul\":10453:10622   */\n      swap3\n      swap2\n      pop\n      pop\n      jump\t// out\n        /* \"#utility.yul\":10627:10922   */\n    tag_110:\n        /* \"#utility.yul\":10703:10707   */\n      0x00\n        /* \"#utility.yul\":10849:10878   */\n      tag_240\n        /* \"#utility.yul\":10874:10877   */\n      dup4\n        /* \"#utility.yul\":10868:10872   */\n      dup4\n        /* \"#utility.yul\":10849:10878   */\n      tag_109\n      jump\t// in\n    tag_240:\n        /* \"#utility.yul\":10841:10878   */\n      swap2\n      pop\n        /* \"#utility.yul\":10911:10914   */\n      dup3\n        /* \"#utility.yul\":10908:10909   */\n      0x02\n        /* \"#utility.yul\":10904:10915   */\n      mul\n        /* \"#utility.yul\":10898:10902   */\n      dup3\n        /* \"#utility.yul\":10895:10916   */\n      or\n        /* \"#utility.yul\":10887:10916   */\n      swap1\n      pop\n        /* \"#utility.yul\":10627:10922   */\n      swap3\n      swap2\n      pop\n      pop\n      jump\t// out\n        /* \"#utility.yul\":10927:12322   */\n    tag_53:\n        /* \"#utility.yul\":11044:11081   */\n      tag_242\n        /* \"#utility.yul\":11077:11080   */\n      dup3\n        /* \"#utility.yul\":11044:11081   */\n      tag_79\n      jump\t// in\n    tag_242:\n        /* \"#utility.yul\":11146:11164   */\n      0xffffffffffffffff\n        /* \"#utility.yul\":11138:11144   */\n      dup2\n        /* \"#utility.yul\":11135:11165   */\n      gt\n        /* \"#utility.yul\":11132:11188   */\n      iszero\n      tag_243\n      jumpi\n        /* \"#utility.yul\":11168:11186   */\n      tag_244\n      tag_87\n      jump\t// in\n    tag_244:\n        /* \"#utility.yul\":11132:11188   */\n    tag_243:\n        /* \"#utility.yul\":11212:11250   */\n      tag_245\n        /* \"#utility.yul\":11244:11248   */\n      dup3\n        /* \"#utility.yul\":11238:11249   */\n      sload\n        /* \"#utility.yul\":11212:11250   */\n      tag_34\n      jump\t// in\n    tag_245:\n        /* \"#utility.yul\":11297:11364   */\n      tag_246\n        /* \"#utility.yul\":11357:11363   */\n      dup3\n        /* \"#utility.yul\":11349:11355   */\n      dup3\n        /* \"#utility.yul\":11343:11347   */\n      dup6\n        /* \"#utility.yul\":11297:11364   */\n      tag_107\n      jump\t// in\n    tag_246:\n        /* \"#utility.yul\":11391:11392   */\n      0x00\n        /* \"#utility.yul\":11415:11419   */\n      0x20\n        /* \"#utility.yul\":11402:11419   */\n      swap1\n      pop\n        /* \"#utility.yul\":11447:11449   */\n      0x1f\n        /* \"#utility.yul\":11439:11445   */\n      dup4\n        /* \"#utility.yul\":11436:11450   */\n      gt\n        /* \"#utility.yul\":11464:11465   */\n      0x01\n        /* \"#utility.yul\":11459:12077   */\n      dup2\n      eq\n      tag_248\n      jumpi\n        /* \"#utility.yul\":12121:12122   */\n      0x00\n        /* \"#utility.yul\":12138:12144   */\n      dup5\n        /* \"#utility.yul\":12135:12212   */\n      iszero\n      tag_249\n      jumpi\n        /* \"#utility.yul\":12187:12196   */\n      dup3\n        /* \"#utility.yul\":12182:12185   */\n      dup8\n        /* \"#utility.yul\":12178:12197   */\n      add\n        /* \"#utility.yul\":12172:12198   */\n      mload\n        /* \"#utility.yul\":12163:12198   */\n      swap1\n      pop\n        /* \"#utility.yul\":12135:12212   */\n    tag_249:\n        /* \"#utility.yul\":12238:12305   */\n      tag_250\n        /* \"#utility.yul\":12298:12304   */\n      dup6\n        /* \"#utility.yul\":12291:12296   */\n      dup3\n        /* \"#utility.yul\":12238:12305   */\n      tag_110\n      jump\t// in\n    tag_250:\n        /* \"#utility.yul\":12232:12236   */\n      dup7\n        /* \"#utility.yul\":12225:12306   */\n      sstore\n        /* \"#utility.yul\":12094:12316   */\n      pop\n        /* \"#utility.yul\":11429:12316   */\n      jump(tag_247)\n        /* \"#utility.yul\":11459:12077   */\n    tag_248:\n        /* \"#utility.yul\":11511:11515   */\n      0x1f\n        /* \"#utility.yul\":11507:11516   */\n      not\n        /* \"#utility.yul\":11499:11505   */\n      dup5\n        /* \"#utility.yul\":11495:11517   */\n      and\n        /* \"#utility.yul\":11545:11582   */\n      tag_251\n        /* \"#utility.yul\":11577:11581   */\n      dup7\n        /* \"#utility.yul\":11545:11582   */\n      tag_96\n      jump\t// in\n    tag_251:\n        /* \"#utility.yul\":11604:11605   */\n      0x00\n        /* \"#utility.yul\":11618:11826   */\n    tag_252:\n        /* \"#utility.yul\":11632:11639   */\n      dup3\n        /* \"#utility.yul\":11629:11630   */\n      dup2\n        /* \"#utility.yul\":11626:11640   */\n      lt\n        /* \"#utility.yul\":11618:11826   */\n      iszero\n      tag_254\n      jumpi\n        /* \"#utility.yul\":11711:11720   */\n      dup5\n        /* \"#utility.yul\":11706:11709   */\n      dup10\n        /* \"#utility.yul\":11702:11721   */\n      add\n        /* \"#utility.yul\":11696:11722   */\n      mload\n        /* \"#utility.yul\":11688:11694   */\n      dup3\n        /* \"#utility.yul\":11681:11723   */\n      sstore\n        /* \"#utility.yul\":11762:11763   */\n      0x01\n        /* \"#utility.yul\":11754:11760   */\n      dup3\n        /* \"#utility.yul\":11750:11764   */\n      add\n        /* \"#utility.yul\":11740:11764   */\n      swap2\n      pop\n        /* \"#utility.yul\":11809:11811   */\n      0x20\n        /* \"#utility.yul\":11798:11807   */\n      dup6\n        /* \"#utility.yul\":11794:11812   */\n      add\n        /* \"#utility.yul\":11781:11812   */\n      swap5\n      pop\n        /* \"#utility.yul\":11655:11659   */\n      0x20\n        /* \"#utility.yul\":11652:11653   */\n      dup2\n        /* \"#utility.yul\":11648:11660   */\n      add\n        /* \"#utility.yul\":11643:11660   */\n      swap1\n      pop\n        /* \"#utility.yul\":11618:11826   */\n      jump(tag_252)\n    tag_254:\n        /* \"#utility.yul\":11854:11860   */\n      dup7\n        /* \"#utility.yul\":11845:11852   */\n      dup4\n        /* \"#utility.yul\":11842:11861   */\n      lt\n        /* \"#utility.yul\":11839:12018   */\n      iszero\n      tag_255\n      jumpi\n        /* \"#utility.yul\":11912:11921   */\n      dup5\n        /* \"#utility.yul\":11907:11910   */\n      dup10\n        /* \"#utility.yul\":11903:11922   */\n      add\n        /* \"#utility.yul\":11897:11923   */\n      mload\n        /* \"#utility.yul\":11955:12003   */\n      tag_256\n        /* \"#utility.yul\":11997:12001   */\n      0x1f\n        /* \"#utility.yul\":11989:11995   */\n      dup10\n        /* \"#utility.yul\":11985:12002   */\n      and\n        /* \"#utility.yul\":11974:11983   */\n      dup3\n        /* \"#utility.yul\":11955:12003   */\n      tag_109\n      jump\t// in\n    tag_256:\n        /* \"#utility.yul\":11947:11953   */\n      dup4\n        /* \"#utility.yul\":11940:12004   */\n      sstore\n        /* \"#utility.yul\":11862:12018   */\n      pop\n        /* \"#utility.yul\":11839:12018   */\n    tag_255:\n        /* \"#utility.yul\":12064:12065   */\n      0x01\n        /* \"#utility.yul\":12060:12061   */\n      0x02\n        /* \"#utility.yul\":12052:12058   */\n      dup9\n        /* \"#utility.yul\":12048:12062   */\n      mul\n        /* \"#utility.yul\":12044:12066   */\n      add\n        /* \"#utility.yul\":12038:12042   */\n      dup9\n        /* \"#utility.yul\":12031:12067   */\n      sstore\n        /* \"#utility.yul\":11466:12077   */\n      pop\n      pop\n      pop\n        /* \"#utility.yul\":11429:12316   */\n    tag_247:\n      pop\n        /* \"#utility.yul\":11019:12322   */\n      pop\n      pop\n      pop\n        /* \"#utility.yul\":10927:12322   */\n      pop\n      pop\n      jump\t// out\n        /* \"#utility.yul\":12328:12633   */\n    tag_66:\n        /* \"#utility.yul\":12368:12371   */\n      0x00\n        /* \"#utility.yul\":12387:12407   */\n      tag_258\n        /* \"#utility.yul\":12405:12406   */\n      dup3\n        /* \"#utility.yul\":12387:12407   */\n      tag_75\n      jump\t// in\n    tag_258:\n        /* \"#utility.yul\":12382:12407   */\n      swap2\n      pop\n        /* \"#utility.yul\":12421:12441   */\n      tag_259\n        /* \"#utility.yul\":12439:12440   */\n      dup4\n        /* \"#utility.yul\":12421:12441   */\n      tag_75\n      jump\t// in\n    tag_259:\n        /* \"#utility.yul\":12416:12441   */\n      swap3\n      pop\n        /* \"#utility.yul\":12575:12576   */\n      dup3\n        /* \"#utility.yul\":12507:12573   */\n      0xffffffffffffffffffffffffffffffffffffffffffffffffffffffffffffffff\n        /* \"#utility.yul\":12503:12577   */\n      sub\n        /* \"#utility.yul\":12500:12501   */\n      dup3\n        /* \"#utility.yul\":12497:12578   */\n      gt\n        /* \"#utility.yul\":12494:12601   */\n      iszero\n      tag_260\n      jumpi\n        /* \"#utility.yul\":12581:12599   */\n      tag_261\n      tag_95\n      jump\t// in\n    tag_261:\n        /* \"#utility.yul\":12494:12601   */\n    tag_260:\n        /* \"#utility.yul\":12625:12626   */\n      dup3\n        /* \"#utility.yul\":12622:12623   */\n      dup3\n        /* \"#utility.yul\":12618:12627   */\n      add\n        /* \"#utility.yul\":12611:12627   */\n      swap1\n      pop\n        /* \"#utility.yul\":12328:12633   */\n      swap3\n      swap2\n      pop\n      pop\n      jump\t// out\n\n    auxdata: 0xa26469706673582212206a4b6f4756095330286ce890b3ec36a2ecd221ffc67d979117cfbe74c871b70d64736f6c634300080f0033\n}\n",
				"bytecode": {
					"linkReferences": {},
					"object": "608060405234801561001057600080fd5b50336000806101000a81548173ffffffffffffffffffffffffffffffffffffffff021916908373ffffffffffffffffffffffffffffffffffffffff160217905550610bd6806100606000396000f3fe60806040526004361061003f5760003560e01c80631a69523014610044578063365b98b21461006057806370a082311461009f578063f0384fb6146100dc575b600080fd5b61005e60048036038101906100599190610482565b610105565b005b34801561006c57600080fd5b50610087600480360381019061008291906104e5565b610111565b604051610096939291906105c9565b60405180910390f35b3480156100ab57600080fd5b506100c660048036038101906100c19190610482565b6101f3565b6040516100d39190610607565b60405180910390f35b3480156100e857600080fd5b5061010360048036038101906100fe9190610757565b61026a565b005b61010e81610334565b50565b6001818154811061012157600080fd5b90600052602060002090600302016000915090508060000160009054906101000a900473ffffffffffffffffffffffffffffffffffffffff169080600101805461016a906107f5565b80601f0160208091040260200160405190810160405280929190818152602001828054610196906107f5565b80156101e35780601f106101b8576101008083540402835291602001916101e3565b820191906000526020600020905b8154815290600101906020018083116101c657829003601f168201915b5050505050908060020154905083565b600080600090505b600180549050811015610264578273ffffffffffffffffffffffffffffffffffffffff166001828154811061023357610232610826565b5b906000526020600020906003020160000160009054906101000a90505050808061025c90610884565b9150506101fb565b50919050565b600160405180606001604052808573ffffffffffffffffffffffffffffffffffffffff16815260200184815260200183815250908060018154018082558091505060019003906000526020600020906003020160009091909190915060008201518160000160006101000a81548173ffffffffffffffffffffffffffffffffffffffff021916908373ffffffffffffffffffffffffffffffffffffffff16021790555060208201518160010190816103229190610a78565b50604082015181600201555050505050565b60005b60018054905081101561040c578173ffffffffffffffffffffffffffffffffffffffff166001828154811061036f5761036e610826565b5b906000526020600020906003020160000160009054906101000a900473ffffffffffffffffffffffffffffffffffffffff1673ffffffffffffffffffffffffffffffffffffffff16036103f95734600182815481106103d1576103d0610826565b5b906000526020600020906003020160020160008282546103f19190610b4a565b925050819055505b808061040490610884565b915050610337565b5050565b6000604051905090565b600080fd5b600080fd5b600073ffffffffffffffffffffffffffffffffffffffff82169050919050565b600061044f82610424565b9050919050565b61045f81610444565b811461046a57600080fd5b50565b60008135905061047c81610456565b92915050565b6000602082840312156104985761049761041a565b5b60006104a68482850161046d565b91505092915050565b6000819050919050565b6104c2816104af565b81146104cd57600080fd5b50565b6000813590506104df816104b9565b92915050565b6000602082840312156104fb576104fa61041a565b5b6000610509848285016104d0565b91505092915050565b61051b81610444565b82525050565b600081519050919050565b600082825260208201905092915050565b60005b8381101561055b578082015181840152602081019050610540565b8381111561056a576000848401525b50505050565b6000601f19601f8301169050919050565b600061058c82610521565b610596818561052c565b93506105a681856020860161053d565b6105af81610570565b840191505092915050565b6105c3816104af565b82525050565b60006060820190506105de6000830186610512565b81810360208301526105f08185610581565b90506105ff60408301846105ba565b949350505050565b600060208201905061061c60008301846105ba565b92915050565b600080fd5b600080fd5b7f4e487b7100000000000000000000000000000000000000000000000000000000600052604160045260246000fd5b61066482610570565b810181811067ffffffffffffffff821117156106835761068261062c565b5b80604052505050565b6000610696610410565b90506106a2828261065b565b919050565b600067ffffffffffffffff8211156106c2576106c161062c565b5b6106cb82610570565b9050602081019050919050565b82818337600083830152505050565b60006106fa6106f5846106a7565b61068c565b90508281526020810184848401111561071657610715610627565b5b6107218482856106d8565b509392505050565b600082601f83011261073e5761073d610622565b5b813561074e8482602086016106e7565b91505092915050565b6000806000606084860312156107705761076f61041a565b5b600061077e8682870161046d565b935050602084013567ffffffffffffffff81111561079f5761079e61041f565b5b6107ab86828701610729565b92505060406107bc868287016104d0565b9150509250925092565b7f4e487b7100000000000000000000000000000000000000000000000000000000600052602260045260246000fd5b6000600282049050600182168061080d57607f821691505b6020821081036108205761081f6107c6565b5b50919050565b7f4e487b7100000000000000000000000000000000000000000000000000000000600052603260045260246000fd5b7f4e487b7100000000000000000000000000000000000000000000000000000000600052601160045260246000fd5b600061088f826104af565b91507fffffffffffffffffffffffffffffffffffffffffffffffffffffffffffffffff82036108c1576108c0610855565b5b600182019050919050565b60008190508160005260206000209050919050565b60006020601f8301049050919050565b600082821b905092915050565b60006008830261092e7fffffffffffffffffffffffffffffffffffffffffffffffffffffffffffffffff826108f1565b61093886836108f1565b95508019841693508086168417925050509392505050565b6000819050919050565b600061097561097061096b846104af565b610950565b6104af565b9050919050565b6000819050919050565b61098f8361095a565b6109a361099b8261097c565b8484546108fe565b825550505050565b600090565b6109b86109ab565b6109c3818484610986565b505050565b5b818110156109e7576109dc6000826109b0565b6001810190506109c9565b5050565b601f821115610a2c576109fd816108cc565b610a06846108e1565b81016020851015610a15578190505b610a29610a21856108e1565b8301826109c8565b50505b505050565b600082821c905092915050565b6000610a4f60001984600802610a31565b1980831691505092915050565b6000610a688383610a3e565b9150826002028217905092915050565b610a8182610521565b67ffffffffffffffff811115610a9a57610a9961062c565b5b610aa482546107f5565b610aaf8282856109eb565b600060209050601f831160018114610ae25760008415610ad0578287015190505b610ada8582610a5c565b865550610b42565b601f198416610af0866108cc565b60005b82811015610b1857848901518255600182019150602085019450602081019050610af3565b86831015610b355784890151610b31601f891682610a3e565b8355505b6001600288020188555050505b505050505050565b6000610b55826104af565b9150610b60836104af565b9250827fffffffffffffffffffffffffffffffffffffffffffffffffffffffffffffffff03821115610b9557610b94610855565b5b82820190509291505056fea26469706673582212206a4b6f4756095330286ce890b3ec36a2ecd221ffc67d979117cfbe74c871b70d64736f6c634300080f0033",
					"opcodes": "PUSH1 0x80 PUSH1 0x40 MSTORE CALLVALUE DUP1 ISZERO PUSH2 0x10 JUMPI PUSH1 0x0 DUP1 REVERT JUMPDEST POP CALLER PUSH1 0x0 DUP1 PUSH2 0x100 EXP DUP2 SLOAD DUP2 PUSH20 0xFFFFFFFFFFFFFFFFFFFFFFFFFFFFFFFFFFFFFFFF MUL NOT AND SWAP1 DUP4 PUSH20 0xFFFFFFFFFFFFFFFFFFFFFFFFFFFFFFFFFFFFFFFF AND MUL OR SWAP1 SSTORE POP PUSH2 0xBD6 DUP1 PUSH2 0x60 PUSH1 0x0 CODECOPY PUSH1 0x0 RETURN INVALID PUSH1 0x80 PUSH1 0x40 MSTORE PUSH1 0x4 CALLDATASIZE LT PUSH2 0x3F JUMPI PUSH1 0x0 CALLDATALOAD PUSH1 0xE0 SHR DUP1 PUSH4 0x1A695230 EQ PUSH2 0x44 JUMPI DUP1 PUSH4 0x365B98B2 EQ PUSH2 0x60 JUMPI DUP1 PUSH4 0x70A08231 EQ PUSH2 0x9F JUMPI DUP1 PUSH4 0xF0384FB6 EQ PUSH2 0xDC JUMPI JUMPDEST PUSH1 0x0 DUP1 REVERT JUMPDEST PUSH2 0x5E PUSH1 0x4 DUP1 CALLDATASIZE SUB DUP2 ADD SWAP1 PUSH2 0x59 SWAP2 SWAP1 PUSH2 0x482 JUMP JUMPDEST PUSH2 0x105 JUMP JUMPDEST STOP JUMPDEST CALLVALUE DUP1 ISZERO PUSH2 0x6C JUMPI PUSH1 0x0 DUP1 REVERT JUMPDEST POP PUSH2 0x87 PUSH1 0x4 DUP1 CALLDATASIZE SUB DUP2 ADD SWAP1 PUSH2 0x82 SWAP2 SWAP1 PUSH2 0x4E5 JUMP JUMPDEST PUSH2 0x111 JUMP JUMPDEST PUSH1 0x40 MLOAD PUSH2 0x96 SWAP4 SWAP3 SWAP2 SWAP1 PUSH2 0x5C9 JUMP JUMPDEST PUSH1 0x40 MLOAD DUP1 SWAP2 SUB SWAP1 RETURN JUMPDEST CALLVALUE DUP1 ISZERO PUSH2 0xAB JUMPI PUSH1 0x0 DUP1 REVERT JUMPDEST POP PUSH2 0xC6 PUSH1 0x4 DUP1 CALLDATASIZE SUB DUP2 ADD SWAP1 PUSH2 0xC1 SWAP2 SWAP1 PUSH2 0x482 JUMP JUMPDEST PUSH2 0x1F3 JUMP JUMPDEST PUSH1 0x40 MLOAD PUSH2 0xD3 SWAP2 SWAP1 PUSH2 0x607 JUMP JUMPDEST PUSH1 0x40 MLOAD DUP1 SWAP2 SUB SWAP1 RETURN JUMPDEST CALLVALUE DUP1 ISZERO PUSH2 0xE8 JUMPI PUSH1 0x0 DUP1 REVERT JUMPDEST POP PUSH2 0x103 PUSH1 0x4 DUP1 CALLDATASIZE SUB DUP2 ADD SWAP1 PUSH2 0xFE SWAP2 SWAP1 PUSH2 0x757 JUMP JUMPDEST PUSH2 0x26A JUMP JUMPDEST STOP JUMPDEST PUSH2 0x10E DUP2 PUSH2 0x334 JUMP JUMPDEST POP JUMP JUMPDEST PUSH1 0x1 DUP2 DUP2 SLOAD DUP2 LT PUSH2 0x121 JUMPI PUSH1 0x0 DUP1 REVERT JUMPDEST SWAP1 PUSH1 0x0 MSTORE PUSH1 0x20 PUSH1 0x0 KECCAK256 SWAP1 PUSH1 0x3 MUL ADD PUSH1 0x0 SWAP2 POP SWAP1 POP DUP1 PUSH1 0x0 ADD PUSH1 0x0 SWAP1 SLOAD SWAP1 PUSH2 0x100 EXP SWAP1 DIV PUSH20 0xFFFFFFFFFFFFFFFFFFFFFFFFFFFFFFFFFFFFFFFF AND SWAP1 DUP1 PUSH1 0x1 ADD DUP1 SLOAD PUSH2 0x16A SWAP1 PUSH2 0x7F5 JUMP JUMPDEST DUP1 PUSH1 0x1F ADD PUSH1 0x20 DUP1 SWAP2 DIV MUL PUSH1 0x20 ADD PUSH1 0x40 MLOAD SWAP1 DUP2 ADD PUSH1 0x40 MSTORE DUP1 SWAP3 SWAP2 SWAP1 DUP2 DUP2 MSTORE PUSH1 0x20 ADD DUP3 DUP1 SLOAD PUSH2 0x196 SWAP1 PUSH2 0x7F5 JUMP JUMPDEST DUP1 ISZERO PUSH2 0x1E3 JUMPI DUP1 PUSH1 0x1F LT PUSH2 0x1B8 JUMPI PUSH2 0x100 DUP1 DUP4 SLOAD DIV MUL DUP4 MSTORE SWAP2 PUSH1 0x20 ADD SWAP2 PUSH2 0x1E3 JUMP JUMPDEST DUP3 ADD SWAP2 SWAP1 PUSH1 0x0 MSTORE PUSH1 0x20 PUSH1 0x0 KECCAK256 SWAP1 JUMPDEST DUP2 SLOAD DUP2 MSTORE SWAP1 PUSH1 0x1 ADD SWAP1 PUSH1 0x20 ADD DUP1 DUP4 GT PUSH2 0x1C6 JUMPI DUP3 SWAP1 SUB PUSH1 0x1F AND DUP3 ADD SWAP2 JUMPDEST POP POP POP POP POP SWAP1 DUP1 PUSH1 0x2 ADD SLOAD SWAP1 POP DUP4 JUMP JUMPDEST PUSH1 0x0 DUP1 PUSH1 0x0 SWAP1 POP JUMPDEST PUSH1 0x1 DUP1 SLOAD SWAP1 POP DUP2 LT ISZERO PUSH2 0x264 JUMPI DUP3 PUSH20 0xFFFFFFFFFFFFFFFFFFFFFFFFFFFFFFFFFFFFFFFF AND PUSH1 0x1 DUP3 DUP2 SLOAD DUP2 LT PUSH2 0x233 JUMPI PUSH2 0x232 PUSH2 0x826 JUMP JUMPDEST JUMPDEST SWAP1 PUSH1 0x0 MSTORE PUSH1 0x20 PUSH1 0x0 KECCAK256 SWAP1 PUSH1 0x3 MUL ADD PUSH1 0x0 ADD PUSH1 0x0 SWAP1 SLOAD SWAP1 PUSH2 0x100 EXP SWAP1 POP POP POP DUP1 DUP1 PUSH2 0x25C SWAP1 PUSH2 0x884 JUMP JUMPDEST SWAP2 POP POP PUSH2 0x1FB JUMP JUMPDEST POP SWAP2 SWAP1 POP JUMP JUMPDEST PUSH1 0x1 PUSH1 0x40 MLOAD DUP1 PUSH1 0x60 ADD PUSH1 0x40 MSTORE DUP1 DUP6 PUSH20 0xFFFFFFFFFFFFFFFFFFFFFFFFFFFFFFFFFFFFFFFF AND DUP2 MSTORE PUSH1 0x20 ADD DUP5 DUP2 MSTORE PUSH1 0x20 ADD DUP4 DUP2 MSTORE POP SWAP1 DUP1 PUSH1 0x1 DUP2 SLOAD ADD DUP1 DUP3 SSTORE DUP1 SWAP2 POP POP PUSH1 0x1 SWAP1 SUB SWAP1 PUSH1 0x0 MSTORE PUSH1 0x20 PUSH1 0x0 KECCAK256 SWAP1 PUSH1 0x3 MUL ADD PUSH1 0x0 SWAP1 SWAP2 SWAP1 SWAP2 SWAP1 SWAP2 POP PUSH1 0x0 DUP3 ADD MLOAD DUP2 PUSH1 0x0 ADD PUSH1 0x0 PUSH2 0x100 EXP DUP2 SLOAD DUP2 PUSH20 0xFFFFFFFFFFFFFFFFFFFFFFFFFFFFFFFFFFFFFFFF MUL NOT AND SWAP1 DUP4 PUSH20 0xFFFFFFFFFFFFFFFFFFFFFFFFFFFFFFFFFFFFFFFF AND MUL OR SWAP1 SSTORE POP PUSH1 0x20 DUP3 ADD MLOAD DUP2 PUSH1 0x1 ADD SWAP1 DUP2 PUSH2 0x322 SWAP2 SWAP1 PUSH2 0xA78 JUMP JUMPDEST POP PUSH1 0x40 DUP3 ADD MLOAD DUP2 PUSH1 0x2 ADD SSTORE POP POP POP POP POP JUMP JUMPDEST PUSH1 0x0 JUMPDEST PUSH1 0x1 DUP1 SLOAD SWAP1 POP DUP2 LT ISZERO PUSH2 0x40C JUMPI DUP2 PUSH20 0xFFFFFFFFFFFFFFFFFFFFFFFFFFFFFFFFFFFFFFFF AND PUSH1 0x1 DUP3 DUP2 SLOAD DUP2 LT PUSH2 0x36F JUMPI PUSH2 0x36E PUSH2 0x826 JUMP JUMPDEST JUMPDEST SWAP1 PUSH1 0x0 MSTORE PUSH1 0x20 PUSH1 0x0 KECCAK256 SWAP1 PUSH1 0x3 MUL ADD PUSH1 0x0 ADD PUSH1 0x0 SWAP1 SLOAD SWAP1 PUSH2 0x100 EXP SWAP1 DIV PUSH20 0xFFFFFFFFFFFFFFFFFFFFFFFFFFFFFFFFFFFFFFFF AND PUSH20 0xFFFFFFFFFFFFFFFFFFFFFFFFFFFFFFFFFFFFFFFF AND SUB PUSH2 0x3F9 JUMPI CALLVALUE PUSH1 0x1 DUP3 DUP2 SLOAD DUP2 LT PUSH2 0x3D1 JUMPI PUSH2 0x3D0 PUSH2 0x826 JUMP JUMPDEST JUMPDEST SWAP1 PUSH1 0x0 MSTORE PUSH1 0x20 PUSH1 0x0 KECCAK256 SWAP1 PUSH1 0x3 MUL ADD PUSH1 0x2 ADD PUSH1 0x0 DUP3 DUP3 SLOAD PUSH2 0x3F1 SWAP2 SWAP1 PUSH2 0xB4A JUMP JUMPDEST SWAP3 POP POP DUP2 SWAP1 SSTORE POP JUMPDEST DUP1 DUP1 PUSH2 0x404 SWAP1 PUSH2 0x884 JUMP JUMPDEST SWAP2 POP POP PUSH2 0x337 JUMP JUMPDEST POP POP JUMP JUMPDEST PUSH1 0x0 PUSH1 0x40 MLOAD SWAP1 POP SWAP1 JUMP JUMPDEST PUSH1 0x0 DUP1 REVERT JUMPDEST PUSH1 0x0 DUP1 REVERT JUMPDEST PUSH1 0x0 PUSH20 0xFFFFFFFFFFFFFFFFFFFFFFFFFFFFFFFFFFFFFFFF DUP3 AND SWAP1 POP SWAP2 SWAP1 POP JUMP JUMPDEST PUSH1 0x0 PUSH2 0x44F DUP3 PUSH2 0x424 JUMP JUMPDEST SWAP1 POP SWAP2 SWAP1 POP JUMP JUMPDEST PUSH2 0x45F DUP2 PUSH2 0x444 JUMP JUMPDEST DUP2 EQ PUSH2 0x46A JUMPI PUSH1 0x0 DUP1 REVERT JUMPDEST POP JUMP JUMPDEST PUSH1 0x0 DUP2 CALLDATALOAD SWAP1 POP PUSH2 0x47C DUP2 PUSH2 0x456 JUMP JUMPDEST SWAP3 SWAP2 POP POP JUMP JUMPDEST PUSH1 0x0 PUSH1 0x20 DUP3 DUP5 SUB SLT ISZERO PUSH2 0x498 JUMPI PUSH2 0x497 PUSH2 0x41A JUMP JUMPDEST JUMPDEST PUSH1 0x0 PUSH2 0x4A6 DUP5 DUP3 DUP6 ADD PUSH2 0x46D JUMP JUMPDEST SWAP2 POP POP SWAP3 SWAP2 POP POP JUMP JUMPDEST PUSH1 0x0 DUP2 SWAP1 POP SWAP2 SWAP1 POP JUMP JUMPDEST PUSH2 0x4C2 DUP2 PUSH2 0x4AF JUMP JUMPDEST DUP2 EQ PUSH2 0x4CD JUMPI PUSH1 0x0 DUP1 REVERT JUMPDEST POP JUMP JUMPDEST PUSH1 0x0 DUP2 CALLDATALOAD SWAP1 POP PUSH2 0x4DF DUP2 PUSH2 0x4B9 JUMP JUMPDEST SWAP3 SWAP2 POP POP JUMP JUMPDEST PUSH1 0x0 PUSH1 0x20 DUP3 DUP5 SUB SLT ISZERO PUSH2 0x4FB JUMPI PUSH2 0x4FA PUSH2 0x41A JUMP JUMPDEST JUMPDEST PUSH1 0x0 PUSH2 0x509 DUP5 DUP3 DUP6 ADD PUSH2 0x4D0 JUMP JUMPDEST SWAP2 POP POP SWAP3 SWAP2 POP POP JUMP JUMPDEST PUSH2 0x51B DUP2 PUSH2 0x444 JUMP JUMPDEST DUP3 MSTORE POP POP JUMP JUMPDEST PUSH1 0x0 DUP2 MLOAD SWAP1 POP SWAP2 SWAP1 POP JUMP JUMPDEST PUSH1 0x0 DUP3 DUP3 MSTORE PUSH1 0x20 DUP3 ADD SWAP1 POP SWAP3 SWAP2 POP POP JUMP JUMPDEST PUSH1 0x0 JUMPDEST DUP4 DUP2 LT ISZERO PUSH2 0x55B JUMPI DUP1 DUP3 ADD MLOAD DUP2 DUP5 ADD MSTORE PUSH1 0x20 DUP2 ADD SWAP1 POP PUSH2 0x540 JUMP JUMPDEST DUP4 DUP2 GT ISZERO PUSH2 0x56A JUMPI PUSH1 0x0 DUP5 DUP5 ADD MSTORE JUMPDEST POP POP POP POP JUMP JUMPDEST PUSH1 0x0 PUSH1 0x1F NOT PUSH1 0x1F DUP4 ADD AND SWAP1 POP SWAP2 SWAP1 POP JUMP JUMPDEST PUSH1 0x0 PUSH2 0x58C DUP3 PUSH2 0x521 JUMP JUMPDEST PUSH2 0x596 DUP2 DUP6 PUSH2 0x52C JUMP JUMPDEST SWAP4 POP PUSH2 0x5A6 DUP2 DUP6 PUSH1 0x20 DUP7 ADD PUSH2 0x53D JUMP JUMPDEST PUSH2 0x5AF DUP2 PUSH2 0x570 JUMP JUMPDEST DUP5 ADD SWAP2 POP POP SWAP3 SWAP2 POP POP JUMP JUMPDEST PUSH2 0x5C3 DUP2 PUSH2 0x4AF JUMP JUMPDEST DUP3 MSTORE POP POP JUMP JUMPDEST PUSH1 0x0 PUSH1 0x60 DUP3 ADD SWAP1 POP PUSH2 0x5DE PUSH1 0x0 DUP4 ADD DUP7 PUSH2 0x512 JUMP JUMPDEST DUP2 DUP2 SUB PUSH1 0x20 DUP4 ADD MSTORE PUSH2 0x5F0 DUP2 DUP6 PUSH2 0x581 JUMP JUMPDEST SWAP1 POP PUSH2 0x5FF PUSH1 0x40 DUP4 ADD DUP5 PUSH2 0x5BA JUMP JUMPDEST SWAP5 SWAP4 POP POP POP POP JUMP JUMPDEST PUSH1 0x0 PUSH1 0x20 DUP3 ADD SWAP1 POP PUSH2 0x61C PUSH1 0x0 DUP4 ADD DUP5 PUSH2 0x5BA JUMP JUMPDEST SWAP3 SWAP2 POP POP JUMP JUMPDEST PUSH1 0x0 DUP1 REVERT JUMPDEST PUSH1 0x0 DUP1 REVERT JUMPDEST PUSH32 0x4E487B7100000000000000000000000000000000000000000000000000000000 PUSH1 0x0 MSTORE PUSH1 0x41 PUSH1 0x4 MSTORE PUSH1 0x24 PUSH1 0x0 REVERT JUMPDEST PUSH2 0x664 DUP3 PUSH2 0x570 JUMP JUMPDEST DUP2 ADD DUP2 DUP2 LT PUSH8 0xFFFFFFFFFFFFFFFF DUP3 GT OR ISZERO PUSH2 0x683 JUMPI PUSH2 0x682 PUSH2 0x62C JUMP JUMPDEST JUMPDEST DUP1 PUSH1 0x40 MSTORE POP POP POP JUMP JUMPDEST PUSH1 0x0 PUSH2 0x696 PUSH2 0x410 JUMP JUMPDEST SWAP1 POP PUSH2 0x6A2 DUP3 DUP3 PUSH2 0x65B JUMP JUMPDEST SWAP2 SWAP1 POP JUMP JUMPDEST PUSH1 0x0 PUSH8 0xFFFFFFFFFFFFFFFF DUP3 GT ISZERO PUSH2 0x6C2 JUMPI PUSH2 0x6C1 PUSH2 0x62C JUMP JUMPDEST JUMPDEST PUSH2 0x6CB DUP3 PUSH2 0x570 JUMP JUMPDEST SWAP1 POP PUSH1 0x20 DUP2 ADD SWAP1 POP SWAP2 SWAP1 POP JUMP JUMPDEST DUP3 DUP2 DUP4 CALLDATACOPY PUSH1 0x0 DUP4 DUP4 ADD MSTORE POP POP POP JUMP JUMPDEST PUSH1 0x0 PUSH2 0x6FA PUSH2 0x6F5 DUP5 PUSH2 0x6A7 JUMP JUMPDEST PUSH2 0x68C JUMP JUMPDEST SWAP1 POP DUP3 DUP2 MSTORE PUSH1 0x20 DUP2 ADD DUP5 DUP5 DUP5 ADD GT ISZERO PUSH2 0x716 JUMPI PUSH2 0x715 PUSH2 0x627 JUMP JUMPDEST JUMPDEST PUSH2 0x721 DUP5 DUP3 DUP6 PUSH2 0x6D8 JUMP JUMPDEST POP SWAP4 SWAP3 POP POP POP JUMP JUMPDEST PUSH1 0x0 DUP3 PUSH1 0x1F DUP4 ADD SLT PUSH2 0x73E JUMPI PUSH2 0x73D PUSH2 0x622 JUMP JUMPDEST JUMPDEST DUP2 CALLDATALOAD PUSH2 0x74E DUP5 DUP3 PUSH1 0x20 DUP7 ADD PUSH2 0x6E7 JUMP JUMPDEST SWAP2 POP POP SWAP3 SWAP2 POP POP JUMP JUMPDEST PUSH1 0x0 DUP1 PUSH1 0x0 PUSH1 0x60 DUP5 DUP7 SUB SLT ISZERO PUSH2 0x770 JUMPI PUSH2 0x76F PUSH2 0x41A JUMP JUMPDEST JUMPDEST PUSH1 0x0 PUSH2 0x77E DUP7 DUP3 DUP8 ADD PUSH2 0x46D JUMP JUMPDEST SWAP4 POP POP PUSH1 0x20 DUP5 ADD CALLDATALOAD PUSH8 0xFFFFFFFFFFFFFFFF DUP2 GT ISZERO PUSH2 0x79F JUMPI PUSH2 0x79E PUSH2 0x41F JUMP JUMPDEST JUMPDEST PUSH2 0x7AB DUP7 DUP3 DUP8 ADD PUSH2 0x729 JUMP JUMPDEST SWAP3 POP POP PUSH1 0x40 PUSH2 0x7BC DUP7 DUP3 DUP8 ADD PUSH2 0x4D0 JUMP JUMPDEST SWAP2 POP POP SWAP3 POP SWAP3 POP SWAP3 JUMP JUMPDEST PUSH32 0x4E487B7100000000000000000000000000000000000000000000000000000000 PUSH1 0x0 MSTORE PUSH1 0x22 PUSH1 0x4 MSTORE PUSH1 0x24 PUSH1 0x0 REVERT JUMPDEST PUSH1 0x0 PUSH1 0x2 DUP3 DIV SWAP1 POP PUSH1 0x1 DUP3 AND DUP1 PUSH2 0x80D JUMPI PUSH1 0x7F DUP3 AND SWAP2 POP JUMPDEST PUSH1 0x20 DUP3 LT DUP2 SUB PUSH2 0x820 JUMPI PUSH2 0x81F PUSH2 0x7C6 JUMP JUMPDEST JUMPDEST POP SWAP2 SWAP1 POP JUMP JUMPDEST PUSH32 0x4E487B7100000000000000000000000000000000000000000000000000000000 PUSH1 0x0 MSTORE PUSH1 0x32 PUSH1 0x4 MSTORE PUSH1 0x24 PUSH1 0x0 REVERT JUMPDEST PUSH32 0x4E487B7100000000000000000000000000000000000000000000000000000000 PUSH1 0x0 MSTORE PUSH1 0x11 PUSH1 0x4 MSTORE PUSH1 0x24 PUSH1 0x0 REVERT JUMPDEST PUSH1 0x0 PUSH2 0x88F DUP3 PUSH2 0x4AF JUMP JUMPDEST SWAP2 POP PUSH32 0xFFFFFFFFFFFFFFFFFFFFFFFFFFFFFFFFFFFFFFFFFFFFFFFFFFFFFFFFFFFFFFFF DUP3 SUB PUSH2 0x8C1 JUMPI PUSH2 0x8C0 PUSH2 0x855 JUMP JUMPDEST JUMPDEST PUSH1 0x1 DUP3 ADD SWAP1 POP SWAP2 SWAP1 POP JUMP JUMPDEST PUSH1 0x0 DUP2 SWAP1 POP DUP2 PUSH1 0x0 MSTORE PUSH1 0x20 PUSH1 0x0 KECCAK256 SWAP1 POP SWAP2 SWAP1 POP JUMP JUMPDEST PUSH1 0x0 PUSH1 0x20 PUSH1 0x1F DUP4 ADD DIV SWAP1 POP SWAP2 SWAP1 POP JUMP JUMPDEST PUSH1 0x0 DUP3 DUP3 SHL SWAP1 POP SWAP3 SWAP2 POP POP JUMP JUMPDEST PUSH1 0x0 PUSH1 0x8 DUP4 MUL PUSH2 0x92E PUSH32 0xFFFFFFFFFFFFFFFFFFFFFFFFFFFFFFFFFFFFFFFFFFFFFFFFFFFFFFFFFFFFFFFF DUP3 PUSH2 0x8F1 JUMP JUMPDEST PUSH2 0x938 DUP7 DUP4 PUSH2 0x8F1 JUMP JUMPDEST SWAP6 POP DUP1 NOT DUP5 AND SWAP4 POP DUP1 DUP7 AND DUP5 OR SWAP3 POP POP POP SWAP4 SWAP3 POP POP POP JUMP JUMPDEST PUSH1 0x0 DUP2 SWAP1 POP SWAP2 SWAP1 POP JUMP JUMPDEST PUSH1 0x0 PUSH2 0x975 PUSH2 0x970 PUSH2 0x96B DUP5 PUSH2 0x4AF JUMP JUMPDEST PUSH2 0x950 JUMP JUMPDEST PUSH2 0x4AF JUMP JUMPDEST SWAP1 POP SWAP2 SWAP1 POP JUMP JUMPDEST PUSH1 0x0 DUP2 SWAP1 POP SWAP2 SWAP1 POP JUMP JUMPDEST PUSH2 0x98F DUP4 PUSH2 0x95A JUMP JUMPDEST PUSH2 0x9A3 PUSH2 0x99B DUP3 PUSH2 0x97C JUMP JUMPDEST DUP5 DUP5 SLOAD PUSH2 0x8FE JUMP JUMPDEST DUP3 SSTORE POP POP POP POP JUMP JUMPDEST PUSH1 0x0 SWAP1 JUMP JUMPDEST PUSH2 0x9B8 PUSH2 0x9AB JUMP JUMPDEST PUSH2 0x9C3 DUP2 DUP5 DUP5 PUSH2 0x986 JUMP JUMPDEST POP POP POP JUMP JUMPDEST JUMPDEST DUP2 DUP2 LT ISZERO PUSH2 0x9E7 JUMPI PUSH2 0x9DC PUSH1 0x0 DUP3 PUSH2 0x9B0 JUMP JUMPDEST PUSH1 0x1 DUP2 ADD SWAP1 POP PUSH2 0x9C9 JUMP JUMPDEST POP POP JUMP JUMPDEST PUSH1 0x1F DUP3 GT ISZERO PUSH2 0xA2C JUMPI PUSH2 0x9FD DUP2 PUSH2 0x8CC JUMP JUMPDEST PUSH2 0xA06 DUP5 PUSH2 0x8E1 JUMP JUMPDEST DUP2 ADD PUSH1 0x20 DUP6 LT ISZERO PUSH2 0xA15 JUMPI DUP2 SWAP1 POP JUMPDEST PUSH2 0xA29 PUSH2 0xA21 DUP6 PUSH2 0x8E1 JUMP JUMPDEST DUP4 ADD DUP3 PUSH2 0x9C8 JUMP JUMPDEST POP POP JUMPDEST POP POP POP JUMP JUMPDEST PUSH1 0x0 DUP3 DUP3 SHR SWAP1 POP SWAP3 SWAP2 POP POP JUMP JUMPDEST PUSH1 0x0 PUSH2 0xA4F PUSH1 0x0 NOT DUP5 PUSH1 0x8 MUL PUSH2 0xA31 JUMP JUMPDEST NOT DUP1 DUP4 AND SWAP2 POP POP SWAP3 SWAP2 POP POP JUMP JUMPDEST PUSH1 0x0 PUSH2 0xA68 DUP4 DUP4 PUSH2 0xA3E JUMP JUMPDEST SWAP2 POP DUP3 PUSH1 0x2 MUL DUP3 OR SWAP1 POP SWAP3 SWAP2 POP POP JUMP JUMPDEST PUSH2 0xA81 DUP3 PUSH2 0x521 JUMP JUMPDEST PUSH8 0xFFFFFFFFFFFFFFFF DUP2 GT ISZERO PUSH2 0xA9A JUMPI PUSH2 0xA99 PUSH2 0x62C JUMP JUMPDEST JUMPDEST PUSH2 0xAA4 DUP3 SLOAD PUSH2 0x7F5 JUMP JUMPDEST PUSH2 0xAAF DUP3 DUP3 DUP6 PUSH2 0x9EB JUMP JUMPDEST PUSH1 0x0 PUSH1 0x20 SWAP1 POP PUSH1 0x1F DUP4 GT PUSH1 0x1 DUP2 EQ PUSH2 0xAE2 JUMPI PUSH1 0x0 DUP5 ISZERO PUSH2 0xAD0 JUMPI DUP3 DUP8 ADD MLOAD SWAP1 POP JUMPDEST PUSH2 0xADA DUP6 DUP3 PUSH2 0xA5C JUMP JUMPDEST DUP7 SSTORE POP PUSH2 0xB42 JUMP JUMPDEST PUSH1 0x1F NOT DUP5 AND PUSH2 0xAF0 DUP7 PUSH2 0x8CC JUMP JUMPDEST PUSH1 0x0 JUMPDEST DUP3 DUP2 LT ISZERO PUSH2 0xB18 JUMPI DUP5 DUP10 ADD MLOAD DUP3 SSTORE PUSH1 0x1 DUP3 ADD SWAP2 POP PUSH1 0x20 DUP6 ADD SWAP5 POP PUSH1 0x20 DUP2 ADD SWAP1 POP PUSH2 0xAF3 JUMP JUMPDEST DUP7 DUP4 LT ISZERO PUSH2 0xB35 JUMPI DUP5 DUP10 ADD MLOAD PUSH2 0xB31 PUSH1 0x1F DUP10 AND DUP3 PUSH2 0xA3E JUMP JUMPDEST DUP4 SSTORE POP JUMPDEST PUSH1 0x1 PUSH1 0x2 DUP9 MUL ADD DUP9 SSTORE POP POP POP JUMPDEST POP POP POP POP POP POP JUMP JUMPDEST PUSH1 0x0 PUSH2 0xB55 DUP3 PUSH2 0x4AF JUMP JUMPDEST SWAP2 POP PUSH2 0xB60 DUP4 PUSH2 0x4AF JUMP JUMPDEST SWAP3 POP DUP3 PUSH32 0xFFFFFFFFFFFFFFFFFFFFFFFFFFFFFFFFFFFFFFFFFFFFFFFFFFFFFFFFFFFFFFFF SUB DUP3 GT ISZERO PUSH2 0xB95 JUMPI PUSH2 0xB94 PUSH2 0x855 JUMP JUMPDEST JUMPDEST DUP3 DUP3 ADD SWAP1 POP SWAP3 SWAP2 POP POP JUMP INVALID LOG2 PUSH5 0x6970667358 0x22 SLT KECCAK256 PUSH11 0x4B6F4756095330286CE890 0xB3 0xEC CALLDATASIZE LOG2 0xEC 0xD2 0x21 SELFDESTRUCT 0xC6 PUSH30 0x979117CFBE74C871B70D64736F6C634300080F0033000000000000000000 "
				},
				"gasEstimates": {
					"creation": {
						"codeDepositCost": "606000",
						"executionCost": "24904",
						"totalCost": "630904"
					},
					"external": {
						"addUser(address,string,uint256)": "infinite",
						"balanceOf(address)": "infinite",
						"transfer(address)": "infinite",
						"users(uint256)": "infinite"
					},
					"internal": {
						"transferToAddress(address)": "infinite"
					}
				},
				"methodIdentifiers": {
					"addUser(address,string,uint256)": "f0384fb6",
					"balanceOf(address)": "70a08231",
					"transfer(address)": "1a695230",
					"users(uint256)": "365b98b2"
				}
			},
			"storageLayout": {
				"storage": [
					{
						"astId": 3,
						"contract": "contracts/Test1.sol:Test1",
						"label": "owner",
						"offset": 0,
						"slot": "0",
						"type": "t_address"
					},
					{
						"astId": 23,
						"contract": "contracts/Test1.sol:Test1",
						"label": "users",
						"offset": 0,
						"slot": "1",
						"type": "t_array(t_struct(User)19_storage)dyn_storage"
					}
				],
				"types": {
					"t_address": {
						"encoding": "inplace",
						"label": "address",
						"numberOfBytes": "20"
					},
					"t_array(t_struct(User)19_storage)dyn_storage": {
						"base": "t_struct(User)19_storage",
						"encoding": "dynamic_array",
						"label": "struct Test1.User[]",
						"numberOfBytes": "32"
					},
					"t_string_storage": {
						"encoding": "bytes",
						"label": "string",
						"numberOfBytes": "32"
					},
					"t_struct(User)19_storage": {
						"encoding": "inplace",
						"label": "struct Test1.User",
						"members": [
							{
								"astId": 14,
								"contract": "contracts/Test1.sol:Test1",
								"label": "walletAddress",
								"offset": 0,
								"slot": "0",
								"type": "t_address"
							},
							{
								"astId": 16,
								"contract": "contracts/Test1.sol:Test1",
								"label": "name",
								"offset": 0,
								"slot": "1",
								"type": "t_string_storage"
							},
							{
								"astId": 18,
								"contract": "contracts/Test1.sol:Test1",
								"label": "amount",
								"offset": 0,
								"slot": "2",
								"type": "t_uint256"
							}
						],
						"numberOfBytes": "96"
					},
					"t_uint256": {
						"encoding": "inplace",
						"label": "uint256",
						"numberOfBytes": "32"
					}
				}
			},
			"userdoc": {
				"kind": "user",
				"methods": {},
				"version": 1
			}
		}
	}
}