{
	"contracts/Test1.sol": {
		"StringUtils": {
			"abi": [
				{
					"inputs": [
						{
							"internalType": "string",
							"name": "_a",
							"type": "string"
						},
						{
							"internalType": "string",
							"name": "_b",
							"type": "string"
						}
					],
					"name": "compare",
					"outputs": [
						{
							"internalType": "int256",
							"name": "",
							"type": "int256"
						}
					],
					"stateMutability": "pure",
					"type": "function"
				},
				{
					"inputs": [
						{
							"internalType": "string",
							"name": "_a",
							"type": "string"
						},
						{
							"internalType": "string",
							"name": "_b",
							"type": "string"
						}
					],
					"name": "equal",
					"outputs": [
						{
							"internalType": "bool",
							"name": "",
							"type": "bool"
						}
					],
					"stateMutability": "pure",
					"type": "function"
				},
				{
					"inputs": [
						{
							"internalType": "string",
							"name": "_haystack",
							"type": "string"
						},
						{
							"internalType": "string",
							"name": "_needle",
							"type": "string"
						}
					],
					"name": "indexOf",
					"outputs": [
						{
							"internalType": "int256",
							"name": "",
							"type": "int256"
						}
					],
					"stateMutability": "pure",
					"type": "function"
				}
			],
			"devdoc": {
				"kind": "dev",
				"methods": {
					"compare(string,string)": {
						"details": "Does a byte-by-byte lexicographical comparison of two strings.",
						"returns": {
							"_0": "a negative number if `_a` is smaller, zero if they are equal and a positive numbe if `_b` is smaller."
						}
					},
					"equal(string,string)": {
						"details": "Compares two strings and returns true iff they are equal."
					},
					"indexOf(string,string)": {
						"details": "Finds the index of the first occurrence of _needle in _haystack"
					}
				},
				"version": 1
			},
			"evm": {
				"assembly": "    /* \"contracts/Test1.sol\":67:2196  library StringUtils {... */\n  dataSize(sub_0)\n  dataOffset(sub_0)\n  0x0b\n  dup3\n  dup3\n  dup3\n  codecopy\n  dup1\n  mload\n  0x00\n  byte\n  0x73\n  eq\n  tag_1\n  jumpi\n  mstore(0x00, 0x4e487b7100000000000000000000000000000000000000000000000000000000)\n  mstore(0x04, 0x00)\n  revert(0x00, 0x24)\ntag_1:\n  mstore(0x00, address)\n  0x73\n  dup2\n  mstore8\n  dup3\n  dup2\n  return\nstop\n\nsub_0: assembly {\n        /* \"contracts/Test1.sol\":67:2196  library StringUtils {... */\n      eq(address, deployTimeAddress())\n      mstore(0x40, 0x80)\n      jumpi(tag_1, lt(calldatasize, 0x04))\n      shr(0xe0, calldataload(0x00))\n      dup1\n      0x3a96fdd7\n      eq\n      tag_2\n      jumpi\n      dup1\n      0x46bdca9a\n      eq\n      tag_3\n      jumpi\n      dup1\n      0x8a0807b7\n      eq\n      tag_4\n      jumpi\n    tag_1:\n      0x00\n      dup1\n      revert\n        /* \"contracts/Test1.sol\":295:943  function compare(string memory _a, string memory _b) public pure returns (int) {... */\n    tag_2:\n      tag_5\n      0x04\n      dup1\n      calldatasize\n      sub\n      dup2\n      add\n      swap1\n      tag_6\n      swap2\n      swap1\n      tag_7\n      jump\t// in\n    tag_6:\n      tag_8\n      jump\t// in\n    tag_5:\n      mload(0x40)\n      tag_9\n      swap2\n      swap1\n      tag_10\n      jump\t// in\n    tag_9:\n      mload(0x40)\n      dup1\n      swap2\n      sub\n      swap1\n      return\n        /* \"contracts/Test1.sol\":1019:1141  function equal(string memory _a, string memory _b) public pure returns (bool) {... */\n    tag_3:\n      tag_11\n      0x04\n      dup1\n      calldatasize\n      sub\n      dup2\n      add\n      swap1\n      tag_12\n      swap2\n      swap1\n      tag_7\n      jump\t// in\n    tag_12:\n      tag_13\n      jump\t// in\n    tag_11:\n      mload(0x40)\n      tag_14\n      swap2\n      swap1\n      tag_15\n      jump\t// in\n    tag_14:\n      mload(0x40)\n      dup1\n      swap2\n      sub\n      swap1\n      return\n        /* \"contracts/Test1.sol\":1223:2194  function indexOf(string memory _haystack, string memory _needle) public pure returns (int)... */\n    tag_4:\n      tag_16\n      0x04\n      dup1\n      calldatasize\n      sub\n      dup2\n      add\n      swap1\n      tag_17\n      swap2\n      swap1\n      tag_7\n      jump\t// in\n    tag_17:\n      tag_18\n      jump\t// in\n    tag_16:\n      mload(0x40)\n      tag_19\n      swap2\n      swap1\n      tag_10\n      jump\t// in\n    tag_19:\n      mload(0x40)\n      dup1\n      swap2\n      sub\n      swap1\n      return\n        /* \"contracts/Test1.sol\":295:943  function compare(string memory _a, string memory _b) public pure returns (int) {... */\n    tag_8:\n        /* \"contracts/Test1.sol\":369:372  int */\n      0x00\n        /* \"contracts/Test1.sol\":384:398  bytes memory a */\n      dup1\n        /* \"contracts/Test1.sol\":407:409  _a */\n      dup4\n        /* \"contracts/Test1.sol\":384:410  bytes memory a = bytes(_a) */\n      swap1\n      pop\n        /* \"contracts/Test1.sol\":420:434  bytes memory b */\n      0x00\n        /* \"contracts/Test1.sol\":443:445  _b */\n      dup4\n        /* \"contracts/Test1.sol\":420:446  bytes memory b = bytes(_b) */\n      swap1\n      pop\n        /* \"contracts/Test1.sol\":456:470  uint minLength */\n      0x00\n        /* \"contracts/Test1.sol\":473:474  a */\n      dup3\n        /* \"contracts/Test1.sol\":473:481  a.length */\n      mload\n        /* \"contracts/Test1.sol\":456:481  uint minLength = a.length */\n      swap1\n      pop\n        /* \"contracts/Test1.sol\":506:515  minLength */\n      dup1\n        /* \"contracts/Test1.sol\":495:496  b */\n      dup3\n        /* \"contracts/Test1.sol\":495:503  b.length */\n      mload\n        /* \"contracts/Test1.sol\":495:515  b.length < minLength */\n      lt\n        /* \"contracts/Test1.sol\":491:537  if (b.length < minLength) minLength = b.length */\n      iszero\n      tag_21\n      jumpi\n        /* \"contracts/Test1.sol\":529:530  b */\n      dup2\n        /* \"contracts/Test1.sol\":529:537  b.length */\n      mload\n        /* \"contracts/Test1.sol\":517:537  minLength = b.length */\n      swap1\n      pop\n        /* \"contracts/Test1.sol\":491:537  if (b.length < minLength) minLength = b.length */\n    tag_21:\n        /* \"contracts/Test1.sol\":638:644  uint i */\n      0x00\n        /* \"contracts/Test1.sol\":633:785  for (uint i = 0; i < minLength; i ++)... */\n    tag_22:\n        /* \"contracts/Test1.sol\":654:663  minLength */\n      dup2\n        /* \"contracts/Test1.sol\":650:651  i */\n      dup2\n        /* \"contracts/Test1.sol\":650:663  i < minLength */\n      lt\n        /* \"contracts/Test1.sol\":633:785  for (uint i = 0; i < minLength; i ++)... */\n      iszero\n      tag_23\n      jumpi\n        /* \"contracts/Test1.sol\":694:695  b */\n      dup3\n        /* \"contracts/Test1.sol\":696:697  i */\n      dup2\n        /* \"contracts/Test1.sol\":694:698  b[i] */\n      dup2\n      mload\n      dup2\n      lt\n      tag_25\n      jumpi\n      tag_26\n      tag_27\n      jump\t// in\n    tag_26:\n    tag_25:\n      0x20\n      add\n      add\n      mload\n      0xf8\n      shr\n      0xf8\n      shl\n        /* \"contracts/Test1.sol\":687:698  a[i] < b[i] */\n      not(0xffffffffffffffffffffffffffffffffffffffffffffffffffffffffffffff)\n      and\n        /* \"contracts/Test1.sol\":687:688  a */\n      dup5\n        /* \"contracts/Test1.sol\":689:690  i */\n      dup3\n        /* \"contracts/Test1.sol\":687:691  a[i] */\n      dup2\n      mload\n      dup2\n      lt\n      tag_28\n      jumpi\n      tag_29\n      tag_27\n      jump\t// in\n    tag_29:\n    tag_28:\n      0x20\n      add\n      add\n      mload\n      0xf8\n      shr\n      0xf8\n      shl\n        /* \"contracts/Test1.sol\":687:698  a[i] < b[i] */\n      not(0xffffffffffffffffffffffffffffffffffffffffffffffffffffffffffffff)\n      and\n      lt\n        /* \"contracts/Test1.sol\":683:785  if (a[i] < b[i])... */\n      iszero\n      tag_30\n      jumpi\n        /* \"contracts/Test1.sol\":723:725  -1 */\n      0xffffffffffffffffffffffffffffffffffffffffffffffffffffffffffffffff\n        /* \"contracts/Test1.sol\":716:725  return -1 */\n      swap5\n      pop\n      pop\n      pop\n      pop\n      pop\n      jump(tag_20)\n        /* \"contracts/Test1.sol\":683:785  if (a[i] < b[i])... */\n    tag_30:\n        /* \"contracts/Test1.sol\":755:756  b */\n      dup3\n        /* \"contracts/Test1.sol\":757:758  i */\n      dup2\n        /* \"contracts/Test1.sol\":755:759  b[i] */\n      dup2\n      mload\n      dup2\n      lt\n      tag_32\n      jumpi\n      tag_33\n      tag_27\n      jump\t// in\n    tag_33:\n    tag_32:\n      0x20\n      add\n      add\n      mload\n      0xf8\n      shr\n      0xf8\n      shl\n        /* \"contracts/Test1.sol\":748:759  a[i] > b[i] */\n      not(0xffffffffffffffffffffffffffffffffffffffffffffffffffffffffffffff)\n      and\n        /* \"contracts/Test1.sol\":748:749  a */\n      dup5\n        /* \"contracts/Test1.sol\":750:751  i */\n      dup3\n        /* \"contracts/Test1.sol\":748:752  a[i] */\n      dup2\n      mload\n      dup2\n      lt\n      tag_34\n      jumpi\n      tag_35\n      tag_27\n      jump\t// in\n    tag_35:\n    tag_34:\n      0x20\n      add\n      add\n      mload\n      0xf8\n      shr\n      0xf8\n      shl\n        /* \"contracts/Test1.sol\":748:759  a[i] > b[i] */\n      not(0xffffffffffffffffffffffffffffffffffffffffffffffffffffffffffffff)\n      and\n      gt\n        /* \"contracts/Test1.sol\":744:785  if (a[i] > b[i])... */\n      iszero\n      tag_36\n      jumpi\n        /* \"contracts/Test1.sol\":784:785  1 */\n      0x01\n        /* \"contracts/Test1.sol\":777:785  return 1 */\n      swap5\n      pop\n      pop\n      pop\n      pop\n      pop\n      jump(tag_20)\n        /* \"contracts/Test1.sol\":744:785  if (a[i] > b[i])... */\n    tag_36:\n        /* \"contracts/Test1.sol\":665:669  i ++ */\n      dup1\n      dup1\n      tag_37\n      swap1\n      tag_38\n      jump\t// in\n    tag_37:\n      swap2\n      pop\n      pop\n        /* \"contracts/Test1.sol\":633:785  for (uint i = 0; i < minLength; i ++)... */\n      jump(tag_22)\n    tag_23:\n      pop\n        /* \"contracts/Test1.sol\":810:811  b */\n      dup2\n        /* \"contracts/Test1.sol\":810:818  b.length */\n      mload\n        /* \"contracts/Test1.sol\":799:800  a */\n      dup4\n        /* \"contracts/Test1.sol\":799:807  a.length */\n      mload\n        /* \"contracts/Test1.sol\":799:818  a.length < b.length */\n      lt\n        /* \"contracts/Test1.sol\":795:936  if (a.length < b.length)... */\n      iszero\n      tag_39\n      jumpi\n        /* \"contracts/Test1.sol\":839:841  -1 */\n      0xffffffffffffffffffffffffffffffffffffffffffffffffffffffffffffffff\n        /* \"contracts/Test1.sol\":832:841  return -1 */\n      swap4\n      pop\n      pop\n      pop\n      pop\n      jump(tag_20)\n        /* \"contracts/Test1.sol\":795:936  if (a.length < b.length)... */\n    tag_39:\n        /* \"contracts/Test1.sol\":871:872  b */\n      dup2\n        /* \"contracts/Test1.sol\":871:879  b.length */\n      mload\n        /* \"contracts/Test1.sol\":860:861  a */\n      dup4\n        /* \"contracts/Test1.sol\":860:868  a.length */\n      mload\n        /* \"contracts/Test1.sol\":860:879  a.length > b.length */\n      gt\n        /* \"contracts/Test1.sol\":856:936  if (a.length > b.length)... */\n      iszero\n      tag_41\n      jumpi\n        /* \"contracts/Test1.sol\":900:901  1 */\n      0x01\n        /* \"contracts/Test1.sol\":893:901  return 1 */\n      swap4\n      pop\n      pop\n      pop\n      pop\n      jump(tag_20)\n        /* \"contracts/Test1.sol\":856:936  if (a.length > b.length)... */\n    tag_41:\n        /* \"contracts/Test1.sol\":935:936  0 */\n      0x00\n        /* \"contracts/Test1.sol\":928:936  return 0 */\n      swap4\n      pop\n      pop\n      pop\n      pop\n        /* \"contracts/Test1.sol\":295:943  function compare(string memory _a, string memory _b) public pure returns (int) {... */\n    tag_20:\n      swap3\n      swap2\n      pop\n      pop\n      jump\t// out\n        /* \"contracts/Test1.sol\":1019:1141  function equal(string memory _a, string memory _b) public pure returns (bool) {... */\n    tag_13:\n        /* \"contracts/Test1.sol\":1091:1095  bool */\n      0x00\n        /* \"contracts/Test1.sol\":1133:1134  0 */\n      dup1\n        /* \"contracts/Test1.sol\":1114:1129  compare(_a, _b) */\n      tag_44\n        /* \"contracts/Test1.sol\":1122:1124  _a */\n      dup5\n        /* \"contracts/Test1.sol\":1126:1128  _b */\n      dup5\n        /* \"contracts/Test1.sol\":1114:1121  compare */\n      tag_8\n        /* \"contracts/Test1.sol\":1114:1129  compare(_a, _b) */\n      jump\t// in\n    tag_44:\n        /* \"contracts/Test1.sol\":1114:1134  compare(_a, _b) == 0 */\n      eq\n        /* \"contracts/Test1.sol\":1107:1134  return compare(_a, _b) == 0 */\n      swap1\n      pop\n        /* \"contracts/Test1.sol\":1019:1141  function equal(string memory _a, string memory _b) public pure returns (bool) {... */\n      swap3\n      swap2\n      pop\n      pop\n      jump\t// out\n        /* \"contracts/Test1.sol\":1223:2194  function indexOf(string memory _haystack, string memory _needle) public pure returns (int)... */\n    tag_18:\n        /* \"contracts/Test1.sol\":1309:1312  int */\n      0x00\n        /* \"contracts/Test1.sol\":1325:1339  bytes memory h */\n      dup1\n        /* \"contracts/Test1.sol\":1348:1357  _haystack */\n      dup4\n        /* \"contracts/Test1.sol\":1325:1358  bytes memory h = bytes(_haystack) */\n      swap1\n      pop\n        /* \"contracts/Test1.sol\":1365:1379  bytes memory n */\n      0x00\n        /* \"contracts/Test1.sol\":1388:1395  _needle */\n      dup4\n        /* \"contracts/Test1.sol\":1365:1396  bytes memory n = bytes(_needle) */\n      swap1\n      pop\n        /* \"contracts/Test1.sol\":1417:1418  1 */\n      0x01\n        /* \"contracts/Test1.sol\":1406:1407  h */\n      dup3\n        /* \"contracts/Test1.sol\":1406:1414  h.length */\n      mload\n        /* \"contracts/Test1.sol\":1406:1418  h.length < 1 */\n      lt\n        /* \"contracts/Test1.sol\":1406:1434  h.length < 1 || n.length < 1 */\n      dup1\n      tag_46\n      jumpi\n      pop\n        /* \"contracts/Test1.sol\":1433:1434  1 */\n      0x01\n        /* \"contracts/Test1.sol\":1422:1423  n */\n      dup2\n        /* \"contracts/Test1.sol\":1422:1430  n.length */\n      mload\n        /* \"contracts/Test1.sol\":1422:1434  n.length < 1 */\n      lt\n        /* \"contracts/Test1.sol\":1406:1434  h.length < 1 || n.length < 1 */\n    tag_46:\n        /* \"contracts/Test1.sol\":1406:1459  h.length < 1 || n.length < 1 || (n.length > h.length) */\n      dup1\n      tag_47\n      jumpi\n      pop\n        /* \"contracts/Test1.sol\":1450:1451  h */\n      dup2\n        /* \"contracts/Test1.sol\":1450:1458  h.length */\n      mload\n        /* \"contracts/Test1.sol\":1439:1440  n */\n      dup2\n        /* \"contracts/Test1.sol\":1439:1447  n.length */\n      mload\n        /* \"contracts/Test1.sol\":1439:1458  n.length > h.length */\n      gt\n        /* \"contracts/Test1.sol\":1406:1459  h.length < 1 || n.length < 1 || (n.length > h.length) */\n    tag_47:\n        /* \"contracts/Test1.sol\":1403:2187  if(h.length < 1 || n.length < 1 || (n.length > h.length)) ... */\n      iszero\n      tag_48\n      jumpi\n        /* \"contracts/Test1.sol\":1475:1477  -1 */\n      0xffffffffffffffffffffffffffffffffffffffffffffffffffffffffffffffff\n        /* \"contracts/Test1.sol\":1468:1477  return -1 */\n      swap3\n      pop\n      pop\n      pop\n      jump(tag_45)\n        /* \"contracts/Test1.sol\":1403:2187  if(h.length < 1 || n.length < 1 || (n.length > h.length)) ... */\n    tag_48:\n        /* \"contracts/Test1.sol\":1504:1513  2**128 -1 */\n      0xffffffffffffffffffffffffffffffff\n        /* \"contracts/Test1.sol\":1492:1493  h */\n      dup3\n        /* \"contracts/Test1.sol\":1492:1500  h.length */\n      mload\n        /* \"contracts/Test1.sol\":1492:1514  h.length > (2**128 -1) */\n      gt\n        /* \"contracts/Test1.sol\":1489:2187  if(h.length > (2**128 -1)) // since we have to be able to return -1 (if the char isn't found or input error), this function must return an \"int\" type with a max length of (2^128 - 1)... */\n      iszero\n      tag_50\n      jumpi\n        /* \"contracts/Test1.sol\":1685:1687  -1 */\n      0xffffffffffffffffffffffffffffffffffffffffffffffffffffffffffffffff\n        /* \"contracts/Test1.sol\":1678:1687  return -1 */\n      swap3\n      pop\n      pop\n      pop\n      jump(tag_45)\n        /* \"contracts/Test1.sol\":1489:2187  if(h.length > (2**128 -1)) // since we have to be able to return -1 (if the char isn't found or input error), this function must return an \"int\" type with a max length of (2^128 - 1)... */\n    tag_50:\n        /* \"contracts/Test1.sol\":1721:1734  uint subindex */\n      0x00\n        /* \"contracts/Test1.sol\":1751:1757  uint i */\n      dup1\n        /* \"contracts/Test1.sol\":1746:2163  for (uint i = 0; i < h.length; i ++)... */\n    tag_52:\n        /* \"contracts/Test1.sol\":1767:1768  h */\n      dup4\n        /* \"contracts/Test1.sol\":1767:1775  h.length */\n      mload\n        /* \"contracts/Test1.sol\":1763:1764  i */\n      dup2\n        /* \"contracts/Test1.sol\":1763:1775  i < h.length */\n      lt\n        /* \"contracts/Test1.sol\":1746:2163  for (uint i = 0; i < h.length; i ++)... */\n      iszero\n      tag_53\n      jumpi\n        /* \"contracts/Test1.sol\":1810:1811  n */\n      dup3\n        /* \"contracts/Test1.sol\":1812:1813  0 */\n      0x00\n        /* \"contracts/Test1.sol\":1810:1814  n[0] */\n      dup2\n      mload\n      dup2\n      lt\n      tag_55\n      jumpi\n      tag_56\n      tag_27\n      jump\t// in\n    tag_56:\n    tag_55:\n      0x20\n      add\n      add\n      mload\n      0xf8\n      shr\n      0xf8\n      shl\n        /* \"contracts/Test1.sol\":1802:1814  h[i] == n[0] */\n      not(0xffffffffffffffffffffffffffffffffffffffffffffffffffffffffffffff)\n      and\n        /* \"contracts/Test1.sol\":1802:1803  h */\n      dup5\n        /* \"contracts/Test1.sol\":1804:1805  i */\n      dup3\n        /* \"contracts/Test1.sol\":1802:1806  h[i] */\n      dup2\n      mload\n      dup2\n      lt\n      tag_57\n      jumpi\n      tag_58\n      tag_27\n      jump\t// in\n    tag_58:\n    tag_57:\n      0x20\n      add\n      add\n      mload\n      0xf8\n      shr\n      0xf8\n      shl\n        /* \"contracts/Test1.sol\":1802:1814  h[i] == n[0] */\n      not(0xffffffffffffffffffffffffffffffffffffffffffffffffffffffffffffff)\n      and\n      sub\n        /* \"contracts/Test1.sol\":1798:2155  if (h[i] == n[0]) // found the first char of b... */\n      tag_59\n      jumpi\n        /* \"contracts/Test1.sol\":1873:1874  1 */\n      0x01\n        /* \"contracts/Test1.sol\":1862:1874  subindex = 1 */\n      swap2\n      pop\n        /* \"contracts/Test1.sol\":1884:2088  while(subindex < n.length && (i + subindex) < h.length && h[i + subindex] == n[subindex]) // search until the chars don't match or until we reach the end of a or b... */\n    tag_60:\n        /* \"contracts/Test1.sol\":1901:1902  n */\n      dup3\n        /* \"contracts/Test1.sol\":1901:1909  n.length */\n      mload\n        /* \"contracts/Test1.sol\":1890:1898  subindex */\n      dup3\n        /* \"contracts/Test1.sol\":1890:1909  subindex < n.length */\n      lt\n        /* \"contracts/Test1.sol\":1890:1938  subindex < n.length && (i + subindex) < h.length */\n      dup1\n      iszero\n      tag_62\n      jumpi\n      pop\n        /* \"contracts/Test1.sol\":1930:1931  h */\n      dup4\n        /* \"contracts/Test1.sol\":1930:1938  h.length */\n      mload\n        /* \"contracts/Test1.sol\":1918:1926  subindex */\n      dup3\n        /* \"contracts/Test1.sol\":1914:1915  i */\n      dup3\n        /* \"contracts/Test1.sol\":1914:1926  i + subindex */\n      tag_63\n      swap2\n      swap1\n      tag_64\n      jump\t// in\n    tag_63:\n        /* \"contracts/Test1.sol\":1913:1938  (i + subindex) < h.length */\n      lt\n        /* \"contracts/Test1.sol\":1890:1938  subindex < n.length && (i + subindex) < h.length */\n    tag_62:\n        /* \"contracts/Test1.sol\":1890:1972  subindex < n.length && (i + subindex) < h.length && h[i + subindex] == n[subindex] */\n      dup1\n      iszero\n      tag_65\n      jumpi\n      pop\n        /* \"contracts/Test1.sol\":1961:1962  n */\n      dup3\n        /* \"contracts/Test1.sol\":1963:1971  subindex */\n      dup3\n        /* \"contracts/Test1.sol\":1961:1972  n[subindex] */\n      dup2\n      mload\n      dup2\n      lt\n      tag_66\n      jumpi\n      tag_67\n      tag_27\n      jump\t// in\n    tag_67:\n    tag_66:\n      0x20\n      add\n      add\n      mload\n      0xf8\n      shr\n      0xf8\n      shl\n        /* \"contracts/Test1.sol\":1942:1972  h[i + subindex] == n[subindex] */\n      not(0xffffffffffffffffffffffffffffffffffffffffffffffffffffffffffffff)\n      and\n        /* \"contracts/Test1.sol\":1942:1943  h */\n      dup5\n        /* \"contracts/Test1.sol\":1948:1956  subindex */\n      dup4\n        /* \"contracts/Test1.sol\":1944:1945  i */\n      dup4\n        /* \"contracts/Test1.sol\":1944:1956  i + subindex */\n      tag_68\n      swap2\n      swap1\n      tag_64\n      jump\t// in\n    tag_68:\n        /* \"contracts/Test1.sol\":1942:1957  h[i + subindex] */\n      dup2\n      mload\n      dup2\n      lt\n      tag_69\n      jumpi\n      tag_70\n      tag_27\n      jump\t// in\n    tag_70:\n    tag_69:\n      0x20\n      add\n      add\n      mload\n      0xf8\n      shr\n      0xf8\n      shl\n        /* \"contracts/Test1.sol\":1942:1972  h[i + subindex] == n[subindex] */\n      not(0xffffffffffffffffffffffffffffffffffffffffffffffffffffffffffffff)\n      and\n      eq\n        /* \"contracts/Test1.sol\":1890:1972  subindex < n.length && (i + subindex) < h.length && h[i + subindex] == n[subindex] */\n    tag_65:\n        /* \"contracts/Test1.sol\":1884:2088  while(subindex < n.length && (i + subindex) < h.length && h[i + subindex] == n[subindex]) // search until the chars don't match or until we reach the end of a or b... */\n      iszero\n      tag_61\n      jumpi\n        /* \"contracts/Test1.sol\":2067:2077  subindex++ */\n      dup2\n      dup1\n      tag_71\n      swap1\n      tag_38\n      jump\t// in\n    tag_71:\n      swap3\n      pop\n      pop\n        /* \"contracts/Test1.sol\":1884:2088  while(subindex < n.length && (i + subindex) < h.length && h[i + subindex] == n[subindex]) // search until the chars don't match or until we reach the end of a or b... */\n      jump(tag_60)\n    tag_61:\n        /* \"contracts/Test1.sol\":2113:2114  n */\n      dup3\n        /* \"contracts/Test1.sol\":2113:2121  n.length */\n      mload\n        /* \"contracts/Test1.sol\":2101:2109  subindex */\n      dup3\n        /* \"contracts/Test1.sol\":2101:2121  subindex == n.length */\n      sub\n        /* \"contracts/Test1.sol\":2098:2145  if(subindex == n.length)... */\n      tag_72\n      jumpi\n        /* \"contracts/Test1.sol\":2143:2144  i */\n      dup1\n        /* \"contracts/Test1.sol\":2132:2145  return int(i) */\n      swap5\n      pop\n      pop\n      pop\n      pop\n      pop\n      jump(tag_45)\n        /* \"contracts/Test1.sol\":2098:2145  if(subindex == n.length)... */\n    tag_72:\n        /* \"contracts/Test1.sol\":1798:2155  if (h[i] == n[0]) // found the first char of b... */\n    tag_59:\n        /* \"contracts/Test1.sol\":1777:1781  i ++ */\n      dup1\n      dup1\n      tag_73\n      swap1\n      tag_38\n      jump\t// in\n    tag_73:\n      swap2\n      pop\n      pop\n        /* \"contracts/Test1.sol\":1746:2163  for (uint i = 0; i < h.length; i ++)... */\n      jump(tag_52)\n    tag_53:\n      pop\n        /* \"contracts/Test1.sol\":2177:2179  -1 */\n      0xffffffffffffffffffffffffffffffffffffffffffffffffffffffffffffffff\n        /* \"contracts/Test1.sol\":2170:2179  return -1 */\n      swap4\n      pop\n      pop\n      pop\n      pop\n        /* \"contracts/Test1.sol\":1223:2194  function indexOf(string memory _haystack, string memory _needle) public pure returns (int)... */\n    tag_45:\n      swap3\n      swap2\n      pop\n      pop\n      jump\t// out\n        /* \"#utility.yul\":7:82   */\n    tag_74:\n        /* \"#utility.yul\":40:46   */\n      0x00\n        /* \"#utility.yul\":73:75   */\n      0x40\n        /* \"#utility.yul\":67:76   */\n      mload\n        /* \"#utility.yul\":57:76   */\n      swap1\n      pop\n        /* \"#utility.yul\":7:82   */\n      swap1\n      jump\t// out\n        /* \"#utility.yul\":88:205   */\n    tag_75:\n        /* \"#utility.yul\":197:198   */\n      0x00\n        /* \"#utility.yul\":194:195   */\n      dup1\n        /* \"#utility.yul\":187:199   */\n      revert\n        /* \"#utility.yul\":211:328   */\n    tag_76:\n        /* \"#utility.yul\":320:321   */\n      0x00\n        /* \"#utility.yul\":317:318   */\n      dup1\n        /* \"#utility.yul\":310:322   */\n      revert\n        /* \"#utility.yul\":334:451   */\n    tag_77:\n        /* \"#utility.yul\":443:444   */\n      0x00\n        /* \"#utility.yul\":440:441   */\n      dup1\n        /* \"#utility.yul\":433:445   */\n      revert\n        /* \"#utility.yul\":457:574   */\n    tag_78:\n        /* \"#utility.yul\":566:567   */\n      0x00\n        /* \"#utility.yul\":563:564   */\n      dup1\n        /* \"#utility.yul\":556:568   */\n      revert\n        /* \"#utility.yul\":580:682   */\n    tag_79:\n        /* \"#utility.yul\":621:627   */\n      0x00\n        /* \"#utility.yul\":672:674   */\n      0x1f\n        /* \"#utility.yul\":668:675   */\n      not\n        /* \"#utility.yul\":663:665   */\n      0x1f\n        /* \"#utility.yul\":656:661   */\n      dup4\n        /* \"#utility.yul\":652:666   */\n      add\n        /* \"#utility.yul\":648:676   */\n      and\n        /* \"#utility.yul\":638:676   */\n      swap1\n      pop\n        /* \"#utility.yul\":580:682   */\n      swap2\n      swap1\n      pop\n      jump\t// out\n        /* \"#utility.yul\":688:868   */\n    tag_80:\n        /* \"#utility.yul\":736:813   */\n      0x4e487b7100000000000000000000000000000000000000000000000000000000\n        /* \"#utility.yul\":733:734   */\n      0x00\n        /* \"#utility.yul\":726:814   */\n      mstore\n        /* \"#utility.yul\":833:837   */\n      0x41\n        /* \"#utility.yul\":830:831   */\n      0x04\n        /* \"#utility.yul\":823:838   */\n      mstore\n        /* \"#utility.yul\":857:861   */\n      0x24\n        /* \"#utility.yul\":854:855   */\n      0x00\n        /* \"#utility.yul\":847:862   */\n      revert\n        /* \"#utility.yul\":874:1155   */\n    tag_81:\n        /* \"#utility.yul\":957:984   */\n      tag_102\n        /* \"#utility.yul\":979:983   */\n      dup3\n        /* \"#utility.yul\":957:984   */\n      tag_79\n      jump\t// in\n    tag_102:\n        /* \"#utility.yul\":949:955   */\n      dup2\n        /* \"#utility.yul\":945:985   */\n      add\n        /* \"#utility.yul\":1087:1093   */\n      dup2\n        /* \"#utility.yul\":1075:1085   */\n      dup2\n        /* \"#utility.yul\":1072:1094   */\n      lt\n        /* \"#utility.yul\":1051:1069   */\n      0xffffffffffffffff\n        /* \"#utility.yul\":1039:1049   */\n      dup3\n        /* \"#utility.yul\":1036:1070   */\n      gt\n        /* \"#utility.yul\":1033:1095   */\n      or\n        /* \"#utility.yul\":1030:1118   */\n      iszero\n      tag_103\n      jumpi\n        /* \"#utility.yul\":1098:1116   */\n      tag_104\n      tag_80\n      jump\t// in\n    tag_104:\n        /* \"#utility.yul\":1030:1118   */\n    tag_103:\n        /* \"#utility.yul\":1138:1148   */\n      dup1\n        /* \"#utility.yul\":1134:1136   */\n      0x40\n        /* \"#utility.yul\":1127:1149   */\n      mstore\n        /* \"#utility.yul\":917:1155   */\n      pop\n        /* \"#utility.yul\":874:1155   */\n      pop\n      pop\n      jump\t// out\n        /* \"#utility.yul\":1161:1290   */\n    tag_82:\n        /* \"#utility.yul\":1195:1201   */\n      0x00\n        /* \"#utility.yul\":1222:1242   */\n      tag_106\n      tag_74\n      jump\t// in\n    tag_106:\n        /* \"#utility.yul\":1212:1242   */\n      swap1\n      pop\n        /* \"#utility.yul\":1251:1284   */\n      tag_107\n        /* \"#utility.yul\":1279:1283   */\n      dup3\n        /* \"#utility.yul\":1271:1277   */\n      dup3\n        /* \"#utility.yul\":1251:1284   */\n      tag_81\n      jump\t// in\n    tag_107:\n        /* \"#utility.yul\":1161:1290   */\n      swap2\n      swap1\n      pop\n      jump\t// out\n        /* \"#utility.yul\":1296:1604   */\n    tag_83:\n        /* \"#utility.yul\":1358:1362   */\n      0x00\n        /* \"#utility.yul\":1448:1466   */\n      0xffffffffffffffff\n        /* \"#utility.yul\":1440:1446   */\n      dup3\n        /* \"#utility.yul\":1437:1467   */\n      gt\n        /* \"#utility.yul\":1434:1490   */\n      iszero\n      tag_109\n      jumpi\n        /* \"#utility.yul\":1470:1488   */\n      tag_110\n      tag_80\n      jump\t// in\n    tag_110:\n        /* \"#utility.yul\":1434:1490   */\n    tag_109:\n        /* \"#utility.yul\":1508:1537   */\n      tag_111\n        /* \"#utility.yul\":1530:1536   */\n      dup3\n        /* \"#utility.yul\":1508:1537   */\n      tag_79\n      jump\t// in\n    tag_111:\n        /* \"#utility.yul\":1500:1537   */\n      swap1\n      pop\n        /* \"#utility.yul\":1592:1596   */\n      0x20\n        /* \"#utility.yul\":1586:1590   */\n      dup2\n        /* \"#utility.yul\":1582:1597   */\n      add\n        /* \"#utility.yul\":1574:1597   */\n      swap1\n      pop\n        /* \"#utility.yul\":1296:1604   */\n      swap2\n      swap1\n      pop\n      jump\t// out\n        /* \"#utility.yul\":1610:1756   */\n    tag_84:\n        /* \"#utility.yul\":1707:1713   */\n      dup3\n        /* \"#utility.yul\":1702:1705   */\n      dup2\n        /* \"#utility.yul\":1697:1700   */\n      dup4\n        /* \"#utility.yul\":1684:1714   */\n      calldatacopy\n        /* \"#utility.yul\":1748:1749   */\n      0x00\n        /* \"#utility.yul\":1739:1745   */\n      dup4\n        /* \"#utility.yul\":1734:1737   */\n      dup4\n        /* \"#utility.yul\":1730:1746   */\n      add\n        /* \"#utility.yul\":1723:1750   */\n      mstore\n        /* \"#utility.yul\":1610:1756   */\n      pop\n      pop\n      pop\n      jump\t// out\n        /* \"#utility.yul\":1762:2187   */\n    tag_85:\n        /* \"#utility.yul\":1840:1845   */\n      0x00\n        /* \"#utility.yul\":1865:1931   */\n      tag_114\n        /* \"#utility.yul\":1881:1930   */\n      tag_115\n        /* \"#utility.yul\":1923:1929   */\n      dup5\n        /* \"#utility.yul\":1881:1930   */\n      tag_83\n      jump\t// in\n    tag_115:\n        /* \"#utility.yul\":1865:1931   */\n      tag_82\n      jump\t// in\n    tag_114:\n        /* \"#utility.yul\":1856:1931   */\n      swap1\n      pop\n        /* \"#utility.yul\":1954:1960   */\n      dup3\n        /* \"#utility.yul\":1947:1952   */\n      dup2\n        /* \"#utility.yul\":1940:1961   */\n      mstore\n        /* \"#utility.yul\":1992:1996   */\n      0x20\n        /* \"#utility.yul\":1985:1990   */\n      dup2\n        /* \"#utility.yul\":1981:1997   */\n      add\n        /* \"#utility.yul\":2030:2033   */\n      dup5\n        /* \"#utility.yul\":2021:2027   */\n      dup5\n        /* \"#utility.yul\":2016:2019   */\n      dup5\n        /* \"#utility.yul\":2012:2028   */\n      add\n        /* \"#utility.yul\":2009:2034   */\n      gt\n        /* \"#utility.yul\":2006:2118   */\n      iszero\n      tag_116\n      jumpi\n        /* \"#utility.yul\":2037:2116   */\n      tag_117\n      tag_78\n      jump\t// in\n    tag_117:\n        /* \"#utility.yul\":2006:2118   */\n    tag_116:\n        /* \"#utility.yul\":2127:2181   */\n      tag_118\n        /* \"#utility.yul\":2174:2180   */\n      dup5\n        /* \"#utility.yul\":2169:2172   */\n      dup3\n        /* \"#utility.yul\":2164:2167   */\n      dup6\n        /* \"#utility.yul\":2127:2181   */\n      tag_84\n      jump\t// in\n    tag_118:\n        /* \"#utility.yul\":1846:2187   */\n      pop\n        /* \"#utility.yul\":1762:2187   */\n      swap4\n      swap3\n      pop\n      pop\n      pop\n      jump\t// out\n        /* \"#utility.yul\":2207:2547   */\n    tag_86:\n        /* \"#utility.yul\":2263:2268   */\n      0x00\n        /* \"#utility.yul\":2312:2315   */\n      dup3\n        /* \"#utility.yul\":2305:2309   */\n      0x1f\n        /* \"#utility.yul\":2297:2303   */\n      dup4\n        /* \"#utility.yul\":2293:2310   */\n      add\n        /* \"#utility.yul\":2289:2316   */\n      slt\n        /* \"#utility.yul\":2279:2401   */\n      tag_120\n      jumpi\n        /* \"#utility.yul\":2320:2399   */\n      tag_121\n      tag_77\n      jump\t// in\n    tag_121:\n        /* \"#utility.yul\":2279:2401   */\n    tag_120:\n        /* \"#utility.yul\":2437:2443   */\n      dup2\n        /* \"#utility.yul\":2424:2444   */\n      calldataload\n        /* \"#utility.yul\":2462:2541   */\n      tag_122\n        /* \"#utility.yul\":2537:2540   */\n      dup5\n        /* \"#utility.yul\":2529:2535   */\n      dup3\n        /* \"#utility.yul\":2522:2526   */\n      0x20\n        /* \"#utility.yul\":2514:2520   */\n      dup7\n        /* \"#utility.yul\":2510:2527   */\n      add\n        /* \"#utility.yul\":2462:2541   */\n      tag_85\n      jump\t// in\n    tag_122:\n        /* \"#utility.yul\":2453:2541   */\n      swap2\n      pop\n        /* \"#utility.yul\":2269:2547   */\n      pop\n        /* \"#utility.yul\":2207:2547   */\n      swap3\n      swap2\n      pop\n      pop\n      jump\t// out\n        /* \"#utility.yul\":2553:3387   */\n    tag_7:\n        /* \"#utility.yul\":2641:2647   */\n      0x00\n        /* \"#utility.yul\":2649:2655   */\n      dup1\n        /* \"#utility.yul\":2698:2700   */\n      0x40\n        /* \"#utility.yul\":2686:2695   */\n      dup4\n        /* \"#utility.yul\":2677:2684   */\n      dup6\n        /* \"#utility.yul\":2673:2696   */\n      sub\n        /* \"#utility.yul\":2669:2701   */\n      slt\n        /* \"#utility.yul\":2666:2785   */\n      iszero\n      tag_124\n      jumpi\n        /* \"#utility.yul\":2704:2783   */\n      tag_125\n      tag_75\n      jump\t// in\n    tag_125:\n        /* \"#utility.yul\":2666:2785   */\n    tag_124:\n        /* \"#utility.yul\":2852:2853   */\n      0x00\n        /* \"#utility.yul\":2841:2850   */\n      dup4\n        /* \"#utility.yul\":2837:2854   */\n      add\n        /* \"#utility.yul\":2824:2855   */\n      calldataload\n        /* \"#utility.yul\":2882:2900   */\n      0xffffffffffffffff\n        /* \"#utility.yul\":2874:2880   */\n      dup2\n        /* \"#utility.yul\":2871:2901   */\n      gt\n        /* \"#utility.yul\":2868:2985   */\n      iszero\n      tag_126\n      jumpi\n        /* \"#utility.yul\":2904:2983   */\n      tag_127\n      tag_76\n      jump\t// in\n    tag_127:\n        /* \"#utility.yul\":2868:2985   */\n    tag_126:\n        /* \"#utility.yul\":3009:3072   */\n      tag_128\n        /* \"#utility.yul\":3064:3071   */\n      dup6\n        /* \"#utility.yul\":3055:3061   */\n      dup3\n        /* \"#utility.yul\":3044:3053   */\n      dup7\n        /* \"#utility.yul\":3040:3062   */\n      add\n        /* \"#utility.yul\":3009:3072   */\n      tag_86\n      jump\t// in\n    tag_128:\n        /* \"#utility.yul\":2999:3072   */\n      swap3\n      pop\n        /* \"#utility.yul\":2795:3082   */\n      pop\n        /* \"#utility.yul\":3149:3151   */\n      0x20\n        /* \"#utility.yul\":3138:3147   */\n      dup4\n        /* \"#utility.yul\":3134:3152   */\n      add\n        /* \"#utility.yul\":3121:3153   */\n      calldataload\n        /* \"#utility.yul\":3180:3198   */\n      0xffffffffffffffff\n        /* \"#utility.yul\":3172:3178   */\n      dup2\n        /* \"#utility.yul\":3169:3199   */\n      gt\n        /* \"#utility.yul\":3166:3283   */\n      iszero\n      tag_129\n      jumpi\n        /* \"#utility.yul\":3202:3281   */\n      tag_130\n      tag_76\n      jump\t// in\n    tag_130:\n        /* \"#utility.yul\":3166:3283   */\n    tag_129:\n        /* \"#utility.yul\":3307:3370   */\n      tag_131\n        /* \"#utility.yul\":3362:3369   */\n      dup6\n        /* \"#utility.yul\":3353:3359   */\n      dup3\n        /* \"#utility.yul\":3342:3351   */\n      dup7\n        /* \"#utility.yul\":3338:3360   */\n      add\n        /* \"#utility.yul\":3307:3370   */\n      tag_86\n      jump\t// in\n    tag_131:\n        /* \"#utility.yul\":3297:3370   */\n      swap2\n      pop\n        /* \"#utility.yul\":3092:3380   */\n      pop\n        /* \"#utility.yul\":2553:3387   */\n      swap3\n      pop\n      swap3\n      swap1\n      pop\n      jump\t// out\n        /* \"#utility.yul\":3393:3469   */\n    tag_87:\n        /* \"#utility.yul\":3429:3436   */\n      0x00\n        /* \"#utility.yul\":3458:3463   */\n      dup2\n        /* \"#utility.yul\":3447:3463   */\n      swap1\n      pop\n        /* \"#utility.yul\":3393:3469   */\n      swap2\n      swap1\n      pop\n      jump\t// out\n        /* \"#utility.yul\":3475:3598   */\n    tag_88:\n        /* \"#utility.yul\":3568:3591   */\n      tag_134\n        /* \"#utility.yul\":3585:3590   */\n      dup2\n        /* \"#utility.yul\":3568:3591   */\n      tag_87\n      jump\t// in\n    tag_134:\n        /* \"#utility.yul\":3563:3566   */\n      dup3\n        /* \"#utility.yul\":3556:3592   */\n      mstore\n        /* \"#utility.yul\":3475:3598   */\n      pop\n      pop\n      jump\t// out\n        /* \"#utility.yul\":3604:3838   */\n    tag_10:\n        /* \"#utility.yul\":3703:3707   */\n      0x00\n        /* \"#utility.yul\":3741:3743   */\n      0x20\n        /* \"#utility.yul\":3730:3739   */\n      dup3\n        /* \"#utility.yul\":3726:3744   */\n      add\n        /* \"#utility.yul\":3718:3744   */\n      swap1\n      pop\n        /* \"#utility.yul\":3754:3831   */\n      tag_136\n        /* \"#utility.yul\":3828:3829   */\n      0x00\n        /* \"#utility.yul\":3817:3826   */\n      dup4\n        /* \"#utility.yul\":3813:3830   */\n      add\n        /* \"#utility.yul\":3804:3810   */\n      dup5\n        /* \"#utility.yul\":3754:3831   */\n      tag_88\n      jump\t// in\n    tag_136:\n        /* \"#utility.yul\":3604:3838   */\n      swap3\n      swap2\n      pop\n      pop\n      jump\t// out\n        /* \"#utility.yul\":3844:3934   */\n    tag_89:\n        /* \"#utility.yul\":3878:3885   */\n      0x00\n        /* \"#utility.yul\":3921:3926   */\n      dup2\n        /* \"#utility.yul\":3914:3927   */\n      iszero\n        /* \"#utility.yul\":3907:3928   */\n      iszero\n        /* \"#utility.yul\":3896:3928   */\n      swap1\n      pop\n        /* \"#utility.yul\":3844:3934   */\n      swap2\n      swap1\n      pop\n      jump\t// out\n        /* \"#utility.yul\":3940:4057   */\n    tag_90:\n        /* \"#utility.yul\":4029:4050   */\n      tag_139\n        /* \"#utility.yul\":4044:4049   */\n      dup2\n        /* \"#utility.yul\":4029:4050   */\n      tag_89\n      jump\t// in\n    tag_139:\n        /* \"#utility.yul\":4024:4027   */\n      dup3\n        /* \"#utility.yul\":4017:4051   */\n      mstore\n        /* \"#utility.yul\":3940:4057   */\n      pop\n      pop\n      jump\t// out\n        /* \"#utility.yul\":4063:4289   */\n    tag_15:\n        /* \"#utility.yul\":4158:4162   */\n      0x00\n        /* \"#utility.yul\":4196:4198   */\n      0x20\n        /* \"#utility.yul\":4185:4194   */\n      dup3\n        /* \"#utility.yul\":4181:4199   */\n      add\n        /* \"#utility.yul\":4173:4199   */\n      swap1\n      pop\n        /* \"#utility.yul\":4209:4282   */\n      tag_141\n        /* \"#utility.yul\":4279:4280   */\n      0x00\n        /* \"#utility.yul\":4268:4277   */\n      dup4\n        /* \"#utility.yul\":4264:4281   */\n      add\n        /* \"#utility.yul\":4255:4261   */\n      dup5\n        /* \"#utility.yul\":4209:4282   */\n      tag_90\n      jump\t// in\n    tag_141:\n        /* \"#utility.yul\":4063:4289   */\n      swap3\n      swap2\n      pop\n      pop\n      jump\t// out\n        /* \"#utility.yul\":4295:4475   */\n    tag_27:\n        /* \"#utility.yul\":4343:4420   */\n      0x4e487b7100000000000000000000000000000000000000000000000000000000\n        /* \"#utility.yul\":4340:4341   */\n      0x00\n        /* \"#utility.yul\":4333:4421   */\n      mstore\n        /* \"#utility.yul\":4440:4444   */\n      0x32\n        /* \"#utility.yul\":4437:4438   */\n      0x04\n        /* \"#utility.yul\":4430:4445   */\n      mstore\n        /* \"#utility.yul\":4464:4468   */\n      0x24\n        /* \"#utility.yul\":4461:4462   */\n      0x00\n        /* \"#utility.yul\":4454:4469   */\n      revert\n        /* \"#utility.yul\":4481:4661   */\n    tag_91:\n        /* \"#utility.yul\":4529:4606   */\n      0x4e487b7100000000000000000000000000000000000000000000000000000000\n        /* \"#utility.yul\":4526:4527   */\n      0x00\n        /* \"#utility.yul\":4519:4607   */\n      mstore\n        /* \"#utility.yul\":4626:4630   */\n      0x11\n        /* \"#utility.yul\":4623:4624   */\n      0x04\n        /* \"#utility.yul\":4616:4631   */\n      mstore\n        /* \"#utility.yul\":4650:4654   */\n      0x24\n        /* \"#utility.yul\":4647:4648   */\n      0x00\n        /* \"#utility.yul\":4640:4655   */\n      revert\n        /* \"#utility.yul\":4667:4744   */\n    tag_92:\n        /* \"#utility.yul\":4704:4711   */\n      0x00\n        /* \"#utility.yul\":4733:4738   */\n      dup2\n        /* \"#utility.yul\":4722:4738   */\n      swap1\n      pop\n        /* \"#utility.yul\":4667:4744   */\n      swap2\n      swap1\n      pop\n      jump\t// out\n        /* \"#utility.yul\":4750:4983   */\n    tag_38:\n        /* \"#utility.yul\":4789:4792   */\n      0x00\n        /* \"#utility.yul\":4812:4836   */\n      tag_146\n        /* \"#utility.yul\":4830:4835   */\n      dup3\n        /* \"#utility.yul\":4812:4836   */\n      tag_92\n      jump\t// in\n    tag_146:\n        /* \"#utility.yul\":4803:4836   */\n      swap2\n      pop\n        /* \"#utility.yul\":4858:4924   */\n      0xffffffffffffffffffffffffffffffffffffffffffffffffffffffffffffffff\n        /* \"#utility.yul\":4851:4856   */\n      dup3\n        /* \"#utility.yul\":4848:4925   */\n      sub\n        /* \"#utility.yul\":4845:4948   */\n      tag_147\n      jumpi\n        /* \"#utility.yul\":4928:4946   */\n      tag_148\n      tag_91\n      jump\t// in\n    tag_148:\n        /* \"#utility.yul\":4845:4948   */\n    tag_147:\n        /* \"#utility.yul\":4975:4976   */\n      0x01\n        /* \"#utility.yul\":4968:4973   */\n      dup3\n        /* \"#utility.yul\":4964:4977   */\n      add\n        /* \"#utility.yul\":4957:4977   */\n      swap1\n      pop\n        /* \"#utility.yul\":4750:4983   */\n      swap2\n      swap1\n      pop\n      jump\t// out\n        /* \"#utility.yul\":4989:5180   */\n    tag_64:\n        /* \"#utility.yul\":5029:5032   */\n      0x00\n        /* \"#utility.yul\":5048:5068   */\n      tag_150\n        /* \"#utility.yul\":5066:5067   */\n      dup3\n        /* \"#utility.yul\":5048:5068   */\n      tag_92\n      jump\t// in\n    tag_150:\n        /* \"#utility.yul\":5043:5068   */\n      swap2\n      pop\n        /* \"#utility.yul\":5082:5102   */\n      tag_151\n        /* \"#utility.yul\":5100:5101   */\n      dup4\n        /* \"#utility.yul\":5082:5102   */\n      tag_92\n      jump\t// in\n    tag_151:\n        /* \"#utility.yul\":5077:5102   */\n      swap3\n      pop\n        /* \"#utility.yul\":5125:5126   */\n      dup3\n        /* \"#utility.yul\":5122:5123   */\n      dup3\n        /* \"#utility.yul\":5118:5127   */\n      add\n        /* \"#utility.yul\":5111:5127   */\n      swap1\n      pop\n        /* \"#utility.yul\":5146:5149   */\n      dup1\n        /* \"#utility.yul\":5143:5144   */\n      dup3\n        /* \"#utility.yul\":5140:5150   */\n      gt\n        /* \"#utility.yul\":5137:5173   */\n      iszero\n      tag_152\n      jumpi\n        /* \"#utility.yul\":5153:5171   */\n      tag_153\n      tag_91\n      jump\t// in\n    tag_153:\n        /* \"#utility.yul\":5137:5173   */\n    tag_152:\n        /* \"#utility.yul\":4989:5180   */\n      swap3\n      swap2\n      pop\n      pop\n      jump\t// out\n\n    auxdata: 0xa2646970667358221220a757a9ed98d8a5cd3fd10f4d47fd4872d9d57b7b26bdec1765068a3975eb5ff564736f6c63430008100033\n}\n",
				"bytecode": {
					"linkReferences": {},
					"object": "610877610053600b82828239805160001a607314610046577f4e487b7100000000000000000000000000000000000000000000000000000000600052600060045260246000fd5b30600052607381538281f3fe730000000000000000000000000000000000000000301460806040526004361061004b5760003560e01c80633a96fdd71461005057806346bdca9a146100805780638a0807b7146100b0575b600080fd5b61006a6004803603810190610065919061067b565b6100e0565b604051610077919061070c565b60405180910390f35b61009a6004803603810190610095919061067b565b6102bc565b6040516100a79190610742565b60405180910390f35b6100ca60048036038101906100c5919061067b565b6102d2565b6040516100d7919061070c565b60405180910390f35b600080839050600083905060008251905080825110156100ff57815190505b60005b818110156102625782818151811061011d5761011c61075d565b5b602001015160f81c60f81b7effffffffffffffffffffffffffffffffffffffffffffffffffffffffffffff191684828151811061015d5761015c61075d565b5b602001015160f81c60f81b7effffffffffffffffffffffffffffffffffffffffffffffffffffffffffffff191610156101bc577fffffffffffffffffffffffffffffffffffffffffffffffffffffffffffffffff9450505050506102b6565b8281815181106101cf576101ce61075d565b5b602001015160f81c60f81b7effffffffffffffffffffffffffffffffffffffffffffffffffffffffffffff191684828151811061020f5761020e61075d565b5b602001015160f81c60f81b7effffffffffffffffffffffffffffffffffffffffffffffffffffffffffffff1916111561024f5760019450505050506102b6565b808061025a906107c5565b915050610102565b50815183511015610298577fffffffffffffffffffffffffffffffffffffffffffffffffffffffffffffffff93505050506102b6565b8151835111156102ae57600193505050506102b6565b600093505050505b92915050565b6000806102c984846100e0565b14905092915050565b60008083905060008390506001825110806102ee575060018151105b806102fa575081518151115b15610329577fffffffffffffffffffffffffffffffffffffffffffffffffffffffffffffffff9250505061051b565b6fffffffffffffffffffffffffffffffff8251111561036c577fffffffffffffffffffffffffffffffffffffffffffffffffffffffffffffffff9250505061051b565b6000805b83518110156104f3578260008151811061038d5761038c61075d565b5b602001015160f81c60f81b7effffffffffffffffffffffffffffffffffffffffffffffffffffffffffffff19168482815181106103cd576103cc61075d565b5b602001015160f81c60f81b7effffffffffffffffffffffffffffffffffffffffffffffffffffffffffffff1916036104e057600191505b82518210801561041f57508351828261041d919061080d565b105b80156104b357508282815181106104395761043861075d565b5b602001015160f81c60f81b7effffffffffffffffffffffffffffffffffffffffffffffffffffffffffffff1916848383610473919061080d565b815181106104845761048361075d565b5b602001015160f81c60f81b7effffffffffffffffffffffffffffffffffffffffffffffffffffffffffffff1916145b156104cb5781806104c3906107c5565b925050610404565b825182036104df578094505050505061051b565b5b80806104eb906107c5565b915050610370565b507fffffffffffffffffffffffffffffffffffffffffffffffffffffffffffffffff93505050505b92915050565b6000604051905090565b600080fd5b600080fd5b600080fd5b600080fd5b6000601f19601f8301169050919050565b7f4e487b7100000000000000000000000000000000000000000000000000000000600052604160045260246000fd5b6105888261053f565b810181811067ffffffffffffffff821117156105a7576105a6610550565b5b80604052505050565b60006105ba610521565b90506105c6828261057f565b919050565b600067ffffffffffffffff8211156105e6576105e5610550565b5b6105ef8261053f565b9050602081019050919050565b82818337600083830152505050565b600061061e610619846105cb565b6105b0565b90508281526020810184848401111561063a5761063961053a565b5b6106458482856105fc565b509392505050565b600082601f83011261066257610661610535565b5b813561067284826020860161060b565b91505092915050565b600080604083850312156106925761069161052b565b5b600083013567ffffffffffffffff8111156106b0576106af610530565b5b6106bc8582860161064d565b925050602083013567ffffffffffffffff8111156106dd576106dc610530565b5b6106e98582860161064d565b9150509250929050565b6000819050919050565b610706816106f3565b82525050565b600060208201905061072160008301846106fd565b92915050565b60008115159050919050565b61073c81610727565b82525050565b60006020820190506107576000830184610733565b92915050565b7f4e487b7100000000000000000000000000000000000000000000000000000000600052603260045260246000fd5b7f4e487b7100000000000000000000000000000000000000000000000000000000600052601160045260246000fd5b6000819050919050565b60006107d0826107bb565b91507fffffffffffffffffffffffffffffffffffffffffffffffffffffffffffffffff82036108025761080161078c565b5b600182019050919050565b6000610818826107bb565b9150610823836107bb565b925082820190508082111561083b5761083a61078c565b5b9291505056fea2646970667358221220a757a9ed98d8a5cd3fd10f4d47fd4872d9d57b7b26bdec1765068a3975eb5ff564736f6c63430008100033",
					"opcodes": "PUSH2 0x877 PUSH2 0x53 PUSH1 0xB DUP3 DUP3 DUP3 CODECOPY DUP1 MLOAD PUSH1 0x0 BYTE PUSH1 0x73 EQ PUSH2 0x46 JUMPI PUSH32 0x4E487B7100000000000000000000000000000000000000000000000000000000 PUSH1 0x0 MSTORE PUSH1 0x0 PUSH1 0x4 MSTORE PUSH1 0x24 PUSH1 0x0 REVERT JUMPDEST ADDRESS PUSH1 0x0 MSTORE PUSH1 0x73 DUP2 MSTORE8 DUP3 DUP2 RETURN INVALID PUSH20 0x0 ADDRESS EQ PUSH1 0x80 PUSH1 0x40 MSTORE PUSH1 0x4 CALLDATASIZE LT PUSH2 0x4B JUMPI PUSH1 0x0 CALLDATALOAD PUSH1 0xE0 SHR DUP1 PUSH4 0x3A96FDD7 EQ PUSH2 0x50 JUMPI DUP1 PUSH4 0x46BDCA9A EQ PUSH2 0x80 JUMPI DUP1 PUSH4 0x8A0807B7 EQ PUSH2 0xB0 JUMPI JUMPDEST PUSH1 0x0 DUP1 REVERT JUMPDEST PUSH2 0x6A PUSH1 0x4 DUP1 CALLDATASIZE SUB DUP2 ADD SWAP1 PUSH2 0x65 SWAP2 SWAP1 PUSH2 0x67B JUMP JUMPDEST PUSH2 0xE0 JUMP JUMPDEST PUSH1 0x40 MLOAD PUSH2 0x77 SWAP2 SWAP1 PUSH2 0x70C JUMP JUMPDEST PUSH1 0x40 MLOAD DUP1 SWAP2 SUB SWAP1 RETURN JUMPDEST PUSH2 0x9A PUSH1 0x4 DUP1 CALLDATASIZE SUB DUP2 ADD SWAP1 PUSH2 0x95 SWAP2 SWAP1 PUSH2 0x67B JUMP JUMPDEST PUSH2 0x2BC JUMP JUMPDEST PUSH1 0x40 MLOAD PUSH2 0xA7 SWAP2 SWAP1 PUSH2 0x742 JUMP JUMPDEST PUSH1 0x40 MLOAD DUP1 SWAP2 SUB SWAP1 RETURN JUMPDEST PUSH2 0xCA PUSH1 0x4 DUP1 CALLDATASIZE SUB DUP2 ADD SWAP1 PUSH2 0xC5 SWAP2 SWAP1 PUSH2 0x67B JUMP JUMPDEST PUSH2 0x2D2 JUMP JUMPDEST PUSH1 0x40 MLOAD PUSH2 0xD7 SWAP2 SWAP1 PUSH2 0x70C JUMP JUMPDEST PUSH1 0x40 MLOAD DUP1 SWAP2 SUB SWAP1 RETURN JUMPDEST PUSH1 0x0 DUP1 DUP4 SWAP1 POP PUSH1 0x0 DUP4 SWAP1 POP PUSH1 0x0 DUP3 MLOAD SWAP1 POP DUP1 DUP3 MLOAD LT ISZERO PUSH2 0xFF JUMPI DUP2 MLOAD SWAP1 POP JUMPDEST PUSH1 0x0 JUMPDEST DUP2 DUP2 LT ISZERO PUSH2 0x262 JUMPI DUP3 DUP2 DUP2 MLOAD DUP2 LT PUSH2 0x11D JUMPI PUSH2 0x11C PUSH2 0x75D JUMP JUMPDEST JUMPDEST PUSH1 0x20 ADD ADD MLOAD PUSH1 0xF8 SHR PUSH1 0xF8 SHL PUSH31 0xFFFFFFFFFFFFFFFFFFFFFFFFFFFFFFFFFFFFFFFFFFFFFFFFFFFFFFFFFFFFFF NOT AND DUP5 DUP3 DUP2 MLOAD DUP2 LT PUSH2 0x15D JUMPI PUSH2 0x15C PUSH2 0x75D JUMP JUMPDEST JUMPDEST PUSH1 0x20 ADD ADD MLOAD PUSH1 0xF8 SHR PUSH1 0xF8 SHL PUSH31 0xFFFFFFFFFFFFFFFFFFFFFFFFFFFFFFFFFFFFFFFFFFFFFFFFFFFFFFFFFFFFFF NOT AND LT ISZERO PUSH2 0x1BC JUMPI PUSH32 0xFFFFFFFFFFFFFFFFFFFFFFFFFFFFFFFFFFFFFFFFFFFFFFFFFFFFFFFFFFFFFFFF SWAP5 POP POP POP POP POP PUSH2 0x2B6 JUMP JUMPDEST DUP3 DUP2 DUP2 MLOAD DUP2 LT PUSH2 0x1CF JUMPI PUSH2 0x1CE PUSH2 0x75D JUMP JUMPDEST JUMPDEST PUSH1 0x20 ADD ADD MLOAD PUSH1 0xF8 SHR PUSH1 0xF8 SHL PUSH31 0xFFFFFFFFFFFFFFFFFFFFFFFFFFFFFFFFFFFFFFFFFFFFFFFFFFFFFFFFFFFFFF NOT AND DUP5 DUP3 DUP2 MLOAD DUP2 LT PUSH2 0x20F JUMPI PUSH2 0x20E PUSH2 0x75D JUMP JUMPDEST JUMPDEST PUSH1 0x20 ADD ADD MLOAD PUSH1 0xF8 SHR PUSH1 0xF8 SHL PUSH31 0xFFFFFFFFFFFFFFFFFFFFFFFFFFFFFFFFFFFFFFFFFFFFFFFFFFFFFFFFFFFFFF NOT AND GT ISZERO PUSH2 0x24F JUMPI PUSH1 0x1 SWAP5 POP POP POP POP POP PUSH2 0x2B6 JUMP JUMPDEST DUP1 DUP1 PUSH2 0x25A SWAP1 PUSH2 0x7C5 JUMP JUMPDEST SWAP2 POP POP PUSH2 0x102 JUMP JUMPDEST POP DUP2 MLOAD DUP4 MLOAD LT ISZERO PUSH2 0x298 JUMPI PUSH32 0xFFFFFFFFFFFFFFFFFFFFFFFFFFFFFFFFFFFFFFFFFFFFFFFFFFFFFFFFFFFFFFFF SWAP4 POP POP POP POP PUSH2 0x2B6 JUMP JUMPDEST DUP2 MLOAD DUP4 MLOAD GT ISZERO PUSH2 0x2AE JUMPI PUSH1 0x1 SWAP4 POP POP POP POP PUSH2 0x2B6 JUMP JUMPDEST PUSH1 0x0 SWAP4 POP POP POP POP JUMPDEST SWAP3 SWAP2 POP POP JUMP JUMPDEST PUSH1 0x0 DUP1 PUSH2 0x2C9 DUP5 DUP5 PUSH2 0xE0 JUMP JUMPDEST EQ SWAP1 POP SWAP3 SWAP2 POP POP JUMP JUMPDEST PUSH1 0x0 DUP1 DUP4 SWAP1 POP PUSH1 0x0 DUP4 SWAP1 POP PUSH1 0x1 DUP3 MLOAD LT DUP1 PUSH2 0x2EE JUMPI POP PUSH1 0x1 DUP2 MLOAD LT JUMPDEST DUP1 PUSH2 0x2FA JUMPI POP DUP2 MLOAD DUP2 MLOAD GT JUMPDEST ISZERO PUSH2 0x329 JUMPI PUSH32 0xFFFFFFFFFFFFFFFFFFFFFFFFFFFFFFFFFFFFFFFFFFFFFFFFFFFFFFFFFFFFFFFF SWAP3 POP POP POP PUSH2 0x51B JUMP JUMPDEST PUSH16 0xFFFFFFFFFFFFFFFFFFFFFFFFFFFFFFFF DUP3 MLOAD GT ISZERO PUSH2 0x36C JUMPI PUSH32 0xFFFFFFFFFFFFFFFFFFFFFFFFFFFFFFFFFFFFFFFFFFFFFFFFFFFFFFFFFFFFFFFF SWAP3 POP POP POP PUSH2 0x51B JUMP JUMPDEST PUSH1 0x0 DUP1 JUMPDEST DUP4 MLOAD DUP2 LT ISZERO PUSH2 0x4F3 JUMPI DUP3 PUSH1 0x0 DUP2 MLOAD DUP2 LT PUSH2 0x38D JUMPI PUSH2 0x38C PUSH2 0x75D JUMP JUMPDEST JUMPDEST PUSH1 0x20 ADD ADD MLOAD PUSH1 0xF8 SHR PUSH1 0xF8 SHL PUSH31 0xFFFFFFFFFFFFFFFFFFFFFFFFFFFFFFFFFFFFFFFFFFFFFFFFFFFFFFFFFFFFFF NOT AND DUP5 DUP3 DUP2 MLOAD DUP2 LT PUSH2 0x3CD JUMPI PUSH2 0x3CC PUSH2 0x75D JUMP JUMPDEST JUMPDEST PUSH1 0x20 ADD ADD MLOAD PUSH1 0xF8 SHR PUSH1 0xF8 SHL PUSH31 0xFFFFFFFFFFFFFFFFFFFFFFFFFFFFFFFFFFFFFFFFFFFFFFFFFFFFFFFFFFFFFF NOT AND SUB PUSH2 0x4E0 JUMPI PUSH1 0x1 SWAP2 POP JUMPDEST DUP3 MLOAD DUP3 LT DUP1 ISZERO PUSH2 0x41F JUMPI POP DUP4 MLOAD DUP3 DUP3 PUSH2 0x41D SWAP2 SWAP1 PUSH2 0x80D JUMP JUMPDEST LT JUMPDEST DUP1 ISZERO PUSH2 0x4B3 JUMPI POP DUP3 DUP3 DUP2 MLOAD DUP2 LT PUSH2 0x439 JUMPI PUSH2 0x438 PUSH2 0x75D JUMP JUMPDEST JUMPDEST PUSH1 0x20 ADD ADD MLOAD PUSH1 0xF8 SHR PUSH1 0xF8 SHL PUSH31 0xFFFFFFFFFFFFFFFFFFFFFFFFFFFFFFFFFFFFFFFFFFFFFFFFFFFFFFFFFFFFFF NOT AND DUP5 DUP4 DUP4 PUSH2 0x473 SWAP2 SWAP1 PUSH2 0x80D JUMP JUMPDEST DUP2 MLOAD DUP2 LT PUSH2 0x484 JUMPI PUSH2 0x483 PUSH2 0x75D JUMP JUMPDEST JUMPDEST PUSH1 0x20 ADD ADD MLOAD PUSH1 0xF8 SHR PUSH1 0xF8 SHL PUSH31 0xFFFFFFFFFFFFFFFFFFFFFFFFFFFFFFFFFFFFFFFFFFFFFFFFFFFFFFFFFFFFFF NOT AND EQ JUMPDEST ISZERO PUSH2 0x4CB JUMPI DUP2 DUP1 PUSH2 0x4C3 SWAP1 PUSH2 0x7C5 JUMP JUMPDEST SWAP3 POP POP PUSH2 0x404 JUMP JUMPDEST DUP3 MLOAD DUP3 SUB PUSH2 0x4DF JUMPI DUP1 SWAP5 POP POP POP POP POP PUSH2 0x51B JUMP JUMPDEST JUMPDEST DUP1 DUP1 PUSH2 0x4EB SWAP1 PUSH2 0x7C5 JUMP JUMPDEST SWAP2 POP POP PUSH2 0x370 JUMP JUMPDEST POP PUSH32 0xFFFFFFFFFFFFFFFFFFFFFFFFFFFFFFFFFFFFFFFFFFFFFFFFFFFFFFFFFFFFFFFF SWAP4 POP POP POP POP JUMPDEST SWAP3 SWAP2 POP POP JUMP JUMPDEST PUSH1 0x0 PUSH1 0x40 MLOAD SWAP1 POP SWAP1 JUMP JUMPDEST PUSH1 0x0 DUP1 REVERT JUMPDEST PUSH1 0x0 DUP1 REVERT JUMPDEST PUSH1 0x0 DUP1 REVERT JUMPDEST PUSH1 0x0 DUP1 REVERT JUMPDEST PUSH1 0x0 PUSH1 0x1F NOT PUSH1 0x1F DUP4 ADD AND SWAP1 POP SWAP2 SWAP1 POP JUMP JUMPDEST PUSH32 0x4E487B7100000000000000000000000000000000000000000000000000000000 PUSH1 0x0 MSTORE PUSH1 0x41 PUSH1 0x4 MSTORE PUSH1 0x24 PUSH1 0x0 REVERT JUMPDEST PUSH2 0x588 DUP3 PUSH2 0x53F JUMP JUMPDEST DUP2 ADD DUP2 DUP2 LT PUSH8 0xFFFFFFFFFFFFFFFF DUP3 GT OR ISZERO PUSH2 0x5A7 JUMPI PUSH2 0x5A6 PUSH2 0x550 JUMP JUMPDEST JUMPDEST DUP1 PUSH1 0x40 MSTORE POP POP POP JUMP JUMPDEST PUSH1 0x0 PUSH2 0x5BA PUSH2 0x521 JUMP JUMPDEST SWAP1 POP PUSH2 0x5C6 DUP3 DUP3 PUSH2 0x57F JUMP JUMPDEST SWAP2 SWAP1 POP JUMP JUMPDEST PUSH1 0x0 PUSH8 0xFFFFFFFFFFFFFFFF DUP3 GT ISZERO PUSH2 0x5E6 JUMPI PUSH2 0x5E5 PUSH2 0x550 JUMP JUMPDEST JUMPDEST PUSH2 0x5EF DUP3 PUSH2 0x53F JUMP JUMPDEST SWAP1 POP PUSH1 0x20 DUP2 ADD SWAP1 POP SWAP2 SWAP1 POP JUMP JUMPDEST DUP3 DUP2 DUP4 CALLDATACOPY PUSH1 0x0 DUP4 DUP4 ADD MSTORE POP POP POP JUMP JUMPDEST PUSH1 0x0 PUSH2 0x61E PUSH2 0x619 DUP5 PUSH2 0x5CB JUMP JUMPDEST PUSH2 0x5B0 JUMP JUMPDEST SWAP1 POP DUP3 DUP2 MSTORE PUSH1 0x20 DUP2 ADD DUP5 DUP5 DUP5 ADD GT ISZERO PUSH2 0x63A JUMPI PUSH2 0x639 PUSH2 0x53A JUMP JUMPDEST JUMPDEST PUSH2 0x645 DUP5 DUP3 DUP6 PUSH2 0x5FC JUMP JUMPDEST POP SWAP4 SWAP3 POP POP POP JUMP JUMPDEST PUSH1 0x0 DUP3 PUSH1 0x1F DUP4 ADD SLT PUSH2 0x662 JUMPI PUSH2 0x661 PUSH2 0x535 JUMP JUMPDEST JUMPDEST DUP2 CALLDATALOAD PUSH2 0x672 DUP5 DUP3 PUSH1 0x20 DUP7 ADD PUSH2 0x60B JUMP JUMPDEST SWAP2 POP POP SWAP3 SWAP2 POP POP JUMP JUMPDEST PUSH1 0x0 DUP1 PUSH1 0x40 DUP4 DUP6 SUB SLT ISZERO PUSH2 0x692 JUMPI PUSH2 0x691 PUSH2 0x52B JUMP JUMPDEST JUMPDEST PUSH1 0x0 DUP4 ADD CALLDATALOAD PUSH8 0xFFFFFFFFFFFFFFFF DUP2 GT ISZERO PUSH2 0x6B0 JUMPI PUSH2 0x6AF PUSH2 0x530 JUMP JUMPDEST JUMPDEST PUSH2 0x6BC DUP6 DUP3 DUP7 ADD PUSH2 0x64D JUMP JUMPDEST SWAP3 POP POP PUSH1 0x20 DUP4 ADD CALLDATALOAD PUSH8 0xFFFFFFFFFFFFFFFF DUP2 GT ISZERO PUSH2 0x6DD JUMPI PUSH2 0x6DC PUSH2 0x530 JUMP JUMPDEST JUMPDEST PUSH2 0x6E9 DUP6 DUP3 DUP7 ADD PUSH2 0x64D JUMP JUMPDEST SWAP2 POP POP SWAP3 POP SWAP3 SWAP1 POP JUMP JUMPDEST PUSH1 0x0 DUP2 SWAP1 POP SWAP2 SWAP1 POP JUMP JUMPDEST PUSH2 0x706 DUP2 PUSH2 0x6F3 JUMP JUMPDEST DUP3 MSTORE POP POP JUMP JUMPDEST PUSH1 0x0 PUSH1 0x20 DUP3 ADD SWAP1 POP PUSH2 0x721 PUSH1 0x0 DUP4 ADD DUP5 PUSH2 0x6FD JUMP JUMPDEST SWAP3 SWAP2 POP POP JUMP JUMPDEST PUSH1 0x0 DUP2 ISZERO ISZERO SWAP1 POP SWAP2 SWAP1 POP JUMP JUMPDEST PUSH2 0x73C DUP2 PUSH2 0x727 JUMP JUMPDEST DUP3 MSTORE POP POP JUMP JUMPDEST PUSH1 0x0 PUSH1 0x20 DUP3 ADD SWAP1 POP PUSH2 0x757 PUSH1 0x0 DUP4 ADD DUP5 PUSH2 0x733 JUMP JUMPDEST SWAP3 SWAP2 POP POP JUMP JUMPDEST PUSH32 0x4E487B7100000000000000000000000000000000000000000000000000000000 PUSH1 0x0 MSTORE PUSH1 0x32 PUSH1 0x4 MSTORE PUSH1 0x24 PUSH1 0x0 REVERT JUMPDEST PUSH32 0x4E487B7100000000000000000000000000000000000000000000000000000000 PUSH1 0x0 MSTORE PUSH1 0x11 PUSH1 0x4 MSTORE PUSH1 0x24 PUSH1 0x0 REVERT JUMPDEST PUSH1 0x0 DUP2 SWAP1 POP SWAP2 SWAP1 POP JUMP JUMPDEST PUSH1 0x0 PUSH2 0x7D0 DUP3 PUSH2 0x7BB JUMP JUMPDEST SWAP2 POP PUSH32 0xFFFFFFFFFFFFFFFFFFFFFFFFFFFFFFFFFFFFFFFFFFFFFFFFFFFFFFFFFFFFFFFF DUP3 SUB PUSH2 0x802 JUMPI PUSH2 0x801 PUSH2 0x78C JUMP JUMPDEST JUMPDEST PUSH1 0x1 DUP3 ADD SWAP1 POP SWAP2 SWAP1 POP JUMP JUMPDEST PUSH1 0x0 PUSH2 0x818 DUP3 PUSH2 0x7BB JUMP JUMPDEST SWAP2 POP PUSH2 0x823 DUP4 PUSH2 0x7BB JUMP JUMPDEST SWAP3 POP DUP3 DUP3 ADD SWAP1 POP DUP1 DUP3 GT ISZERO PUSH2 0x83B JUMPI PUSH2 0x83A PUSH2 0x78C JUMP JUMPDEST JUMPDEST SWAP3 SWAP2 POP POP JUMP INVALID LOG2 PUSH5 0x6970667358 0x22 SLT KECCAK256 0xA7 JUMPI 0xA9 0xED SWAP9 0xD8 0xA5 0xCD EXTCODEHASH 0xD1 0xF 0x4D SELFBALANCE REVERT BASEFEE PUSH19 0xD9D57B7B26BDEC1765068A3975EB5FF564736F PUSH13 0x63430008100033000000000000 "
				},
				"gasEstimates": {
					"creation": {
						"codeDepositCost": "433400",
						"executionCost": "496",
						"totalCost": "433896"
					},
					"external": {
						"compare(string,string)": "infinite",
						"equal(string,string)": "infinite",
						"indexOf(string,string)": "infinite"
					}
				},
				"methodIdentifiers": {
					"compare(string,string)": "3a96fdd7",
					"equal(string,string)": "46bdca9a",
					"indexOf(string,string)": "8a0807b7"
				}
			},
			"storageLayout": {
				"storage": [],
				"types": null
			},
			"userdoc": {
				"kind": "user",
				"methods": {},
				"version": 1
			}
		}
	}
}