{
	"contracts/Test1.sol": {
		"Test1": {
			"abi": [
				{
					"inputs": [],
					"stateMutability": "nonpayable",
					"type": "constructor"
				},
				{
					"inputs": [
						{
							"internalType": "address",
							"name": "walletAddress",
							"type": "address"
						}
					],
					"name": "addToInvestors",
					"outputs": [],
					"stateMutability": "nonpayable",
					"type": "function"
				},
				{
					"inputs": [
						{
							"internalType": "address",
							"name": "walletAddress",
							"type": "address"
						},
						{
							"internalType": "string",
							"name": "name",
							"type": "string"
						},
						{
							"internalType": "uint256",
							"name": "amount",
							"type": "uint256"
						},
						{
							"internalType": "bool",
							"name": "isInvestor",
							"type": "bool"
						}
					],
					"name": "addUser",
					"outputs": [],
					"stateMutability": "nonpayable",
					"type": "function"
				},
				{
					"inputs": [
						{
							"internalType": "address",
							"name": "walletAddress",
							"type": "address"
						}
					],
					"name": "balanceOf",
					"outputs": [
						{
							"internalType": "uint256",
							"name": "",
							"type": "uint256"
						}
					],
					"stateMutability": "view",
					"type": "function"
				},
				{
					"inputs": [
						{
							"internalType": "address",
							"name": "walletAddress",
							"type": "address"
						}
					],
					"name": "getUserByAddress",
					"outputs": [
						{
							"components": [
								{
									"internalType": "address",
									"name": "walletAddress",
									"type": "address"
								},
								{
									"internalType": "string",
									"name": "name",
									"type": "string"
								},
								{
									"internalType": "uint256",
									"name": "amount",
									"type": "uint256"
								},
								{
									"internalType": "bool",
									"name": "isInvestor",
									"type": "bool"
								}
							],
							"internalType": "struct Test1.User",
							"name": "user",
							"type": "tuple"
						}
					],
					"stateMutability": "nonpayable",
					"type": "function"
				},
				{
					"inputs": [
						{
							"internalType": "address",
							"name": "walletAddress",
							"type": "address"
						}
					],
					"name": "investorExists",
					"outputs": [
						{
							"internalType": "bool",
							"name": "",
							"type": "bool"
						}
					],
					"stateMutability": "view",
					"type": "function"
				},
				{
					"inputs": [
						{
							"internalType": "address",
							"name": "walletAddress",
							"type": "address"
						}
					],
					"name": "investorPermission",
					"outputs": [
						{
							"internalType": "bool",
							"name": "",
							"type": "bool"
						}
					],
					"stateMutability": "nonpayable",
					"type": "function"
				},
				{
					"inputs": [
						{
							"internalType": "address",
							"name": "",
							"type": "address"
						}
					],
					"name": "investors",
					"outputs": [
						{
							"internalType": "address",
							"name": "walletAddress",
							"type": "address"
						},
						{
							"internalType": "string",
							"name": "name",
							"type": "string"
						},
						{
							"internalType": "uint256",
							"name": "amount",
							"type": "uint256"
						},
						{
							"internalType": "bool",
							"name": "isInvestor",
							"type": "bool"
						}
					],
					"stateMutability": "view",
					"type": "function"
				},
				{
					"inputs": [
						{
							"internalType": "address",
							"name": "walletAddress",
							"type": "address"
						}
					],
					"name": "transfer",
					"outputs": [],
					"stateMutability": "payable",
					"type": "function"
				},
				{
					"inputs": [
						{
							"internalType": "address",
							"name": "walletAddress",
							"type": "address"
						}
					],
					"name": "userExists",
					"outputs": [
						{
							"internalType": "bool",
							"name": "",
							"type": "bool"
						}
					],
					"stateMutability": "view",
					"type": "function"
				},
				{
					"inputs": [
						{
							"internalType": "uint256",
							"name": "",
							"type": "uint256"
						}
					],
					"name": "users",
					"outputs": [
						{
							"internalType": "address",
							"name": "walletAddress",
							"type": "address"
						},
						{
							"internalType": "string",
							"name": "name",
							"type": "string"
						},
						{
							"internalType": "uint256",
							"name": "amount",
							"type": "uint256"
						},
						{
							"internalType": "bool",
							"name": "isInvestor",
							"type": "bool"
						}
					],
					"stateMutability": "view",
					"type": "function"
				}
			],
			"devdoc": {
				"kind": "dev",
				"methods": {},
				"version": 1
			},
			"evm": {
				"assembly": "    /* \"contracts/Test1.sol\":2198:4926  contract Test1{... */\n  mstore(0x40, 0x80)\n    /* \"contracts/Test1.sol\":2239:2287  constructor(){... */\n  callvalue\n  dup1\n  iszero\n  tag_1\n  jumpi\n  0x00\n  dup1\n  revert\ntag_1:\n  pop\n    /* \"contracts/Test1.sol\":2270:2280  msg.sender */\n  caller\n    /* \"contracts/Test1.sol\":2262:2267  owner */\n  0x00\n  dup1\n    /* \"contracts/Test1.sol\":2262:2280  owner = msg.sender */\n  0x0100\n  exp\n  dup2\n  sload\n  dup2\n  0xffffffffffffffffffffffffffffffffffffffff\n  mul\n  not\n  and\n  swap1\n  dup4\n  0xffffffffffffffffffffffffffffffffffffffff\n  and\n  mul\n  or\n  swap1\n  sstore\n  pop\n    /* \"contracts/Test1.sol\":2198:4926  contract Test1{... */\n  dataSize(sub_0)\n  dup1\n  dataOffset(sub_0)\n  0x00\n  codecopy\n  0x00\n  return\nstop\n\nsub_0: assembly {\n        /* \"contracts/Test1.sol\":2198:4926  contract Test1{... */\n      mstore(0x40, 0x80)\n      jumpi(tag_1, lt(calldatasize, 0x04))\n      shr(0xe0, calldataload(0x00))\n      dup1\n      0x5b83b7f1\n      gt\n      tag_12\n      jumpi\n      dup1\n      0x5b83b7f1\n      eq\n      tag_7\n      jumpi\n      dup1\n      0x69c212f6\n      eq\n      tag_8\n      jumpi\n      dup1\n      0x6f7bc9be\n      eq\n      tag_9\n      jumpi\n      dup1\n      0x70a08231\n      eq\n      tag_10\n      jumpi\n      dup1\n      0xd7bed4bc\n      eq\n      tag_11\n      jumpi\n      jump(tag_1)\n    tag_12:\n      dup1\n      0x0e666e49\n      eq\n      tag_2\n      jumpi\n      dup1\n      0x1a695230\n      eq\n      tag_3\n      jumpi\n      dup1\n      0x280879e7\n      eq\n      tag_4\n      jumpi\n      dup1\n      0x365b98b2\n      eq\n      tag_5\n      jumpi\n      dup1\n      0x4140eb0d\n      eq\n      tag_6\n      jumpi\n    tag_1:\n      0x00\n      dup1\n      revert\n        /* \"contracts/Test1.sol\":3830:4085  function userExists(address walletAddress) public view returns(bool){... */\n    tag_2:\n      callvalue\n      dup1\n      iszero\n      tag_13\n      jumpi\n      0x00\n      dup1\n      revert\n    tag_13:\n      pop\n      tag_14\n      0x04\n      dup1\n      calldatasize\n      sub\n      dup2\n      add\n      swap1\n      tag_15\n      swap2\n      swap1\n      tag_16\n      jump\t// in\n    tag_15:\n      tag_17\n      jump\t// in\n    tag_14:\n      mload(0x40)\n      tag_18\n      swap2\n      swap1\n      tag_19\n      jump\t// in\n    tag_18:\n      mload(0x40)\n      dup1\n      swap2\n      sub\n      swap1\n      return\n        /* \"contracts/Test1.sol\":4300:4405  function transfer(address walletAddress) payable public {... */\n    tag_3:\n      tag_20\n      0x04\n      dup1\n      calldatasize\n      sub\n      dup2\n      add\n      swap1\n      tag_21\n      swap2\n      swap1\n      tag_16\n      jump\t// in\n    tag_21:\n      tag_22\n      jump\t// in\n    tag_20:\n      stop\n        /* \"contracts/Test1.sol\":2824:3004  function addUser(address walletAddress, string memory name, uint amount, bool isInvestor) public onlyOwner{... */\n    tag_4:\n      callvalue\n      dup1\n      iszero\n      tag_23\n      jumpi\n      0x00\n      dup1\n      revert\n    tag_23:\n      pop\n      tag_24\n      0x04\n      dup1\n      calldatasize\n      sub\n      dup2\n      add\n      swap1\n      tag_25\n      swap2\n      swap1\n      tag_26\n      jump\t// in\n    tag_25:\n      tag_27\n      jump\t// in\n    tag_24:\n      stop\n        /* \"contracts/Test1.sol\":2751:2770  User[] public users */\n    tag_5:\n      callvalue\n      dup1\n      iszero\n      tag_28\n      jumpi\n      0x00\n      dup1\n      revert\n    tag_28:\n      pop\n      tag_29\n      0x04\n      dup1\n      calldatasize\n      sub\n      dup2\n      add\n      swap1\n      tag_30\n      swap2\n      swap1\n      tag_31\n      jump\t// in\n    tag_30:\n      tag_32\n      jump\t// in\n    tag_29:\n      mload(0x40)\n      tag_33\n      swap5\n      swap4\n      swap3\n      swap2\n      swap1\n      tag_34\n      jump\t// in\n    tag_33:\n      mload(0x40)\n      dup1\n      swap2\n      sub\n      swap1\n      return\n        /* \"contracts/Test1.sol\":3654:3824  function investorPermission(address walletAddress) public returns(bool){... */\n    tag_6:\n      callvalue\n      dup1\n      iszero\n      tag_35\n      jumpi\n      0x00\n      dup1\n      revert\n    tag_35:\n      pop\n      tag_36\n      0x04\n      dup1\n      calldatasize\n      sub\n      dup2\n      add\n      swap1\n      tag_37\n      swap2\n      swap1\n      tag_16\n      jump\t// in\n    tag_37:\n      tag_38\n      jump\t// in\n    tag_36:\n      mload(0x40)\n      tag_39\n      swap2\n      swap1\n      tag_19\n      jump\t// in\n    tag_39:\n      mload(0x40)\n      dup1\n      swap2\n      sub\n      swap1\n      return\n        /* \"contracts/Test1.sol\":4091:4294  function investorExists(address walletAddress) public view returns(bool){... */\n    tag_7:\n      callvalue\n      dup1\n      iszero\n      tag_40\n      jumpi\n      0x00\n      dup1\n      revert\n    tag_40:\n      pop\n      tag_41\n      0x04\n      dup1\n      calldatasize\n      sub\n      dup2\n      add\n      swap1\n      tag_42\n      swap2\n      swap1\n      tag_16\n      jump\t// in\n    tag_42:\n      tag_43\n      jump\t// in\n    tag_41:\n      mload(0x40)\n      tag_44\n      swap2\n      swap1\n      tag_19\n      jump\t// in\n    tag_44:\n      mload(0x40)\n      dup1\n      swap2\n      sub\n      swap1\n      return\n        /* \"contracts/Test1.sol\":3312:3648  function getUserByAddress(address walletAddress) public returns(User memory user){... */\n    tag_8:\n      callvalue\n      dup1\n      iszero\n      tag_45\n      jumpi\n      0x00\n      dup1\n      revert\n    tag_45:\n      pop\n      tag_46\n      0x04\n      dup1\n      calldatasize\n      sub\n      dup2\n      add\n      swap1\n      tag_47\n      swap2\n      swap1\n      tag_16\n      jump\t// in\n    tag_47:\n      tag_48\n      jump\t// in\n    tag_46:\n      mload(0x40)\n      tag_49\n      swap2\n      swap1\n      tag_50\n      jump\t// in\n    tag_49:\n      mload(0x40)\n      dup1\n      swap2\n      sub\n      swap1\n      return\n        /* \"contracts/Test1.sol\":2776:2817  mapping(address => User) public investors */\n    tag_9:\n      callvalue\n      dup1\n      iszero\n      tag_51\n      jumpi\n      0x00\n      dup1\n      revert\n    tag_51:\n      pop\n      tag_52\n      0x04\n      dup1\n      calldatasize\n      sub\n      dup2\n      add\n      swap1\n      tag_53\n      swap2\n      swap1\n      tag_16\n      jump\t// in\n    tag_53:\n      tag_54\n      jump\t// in\n    tag_52:\n      mload(0x40)\n      tag_55\n      swap5\n      swap4\n      swap3\n      swap2\n      swap1\n      tag_34\n      jump\t// in\n    tag_55:\n      mload(0x40)\n      dup1\n      swap2\n      sub\n      swap1\n      return\n        /* \"contracts/Test1.sol\":4657:4920  function balanceOf(address walletAddress) public view returns(uint){... */\n    tag_10:\n      callvalue\n      dup1\n      iszero\n      tag_56\n      jumpi\n      0x00\n      dup1\n      revert\n    tag_56:\n      pop\n      tag_57\n      0x04\n      dup1\n      calldatasize\n      sub\n      dup2\n      add\n      swap1\n      tag_58\n      swap2\n      swap1\n      tag_16\n      jump\t// in\n    tag_58:\n      tag_59\n      jump\t// in\n    tag_57:\n      mload(0x40)\n      tag_60\n      swap2\n      swap1\n      tag_61\n      jump\t// in\n    tag_60:\n      mload(0x40)\n      dup1\n      swap2\n      sub\n      swap1\n      return\n        /* \"contracts/Test1.sol\":3010:3306  function addToInvestors(address walletAddress) public onlyOwner{... */\n    tag_11:\n      callvalue\n      dup1\n      iszero\n      tag_62\n      jumpi\n      0x00\n      dup1\n      revert\n    tag_62:\n      pop\n      tag_63\n      0x04\n      dup1\n      calldatasize\n      sub\n      dup2\n      add\n      swap1\n      tag_64\n      swap2\n      swap1\n      tag_16\n      jump\t// in\n    tag_64:\n      tag_65\n      jump\t// in\n    tag_63:\n      stop\n        /* \"contracts/Test1.sol\":3830:4085  function userExists(address walletAddress) public view returns(bool){... */\n    tag_17:\n        /* \"contracts/Test1.sol\":3893:3897  bool */\n      0x00\n        /* \"contracts/Test1.sol\":3912:3918  uint i */\n      dup1\n        /* \"contracts/Test1.sol\":3921:3922  0 */\n      0x00\n        /* \"contracts/Test1.sol\":3912:3922  uint i = 0 */\n      swap1\n      pop\n        /* \"contracts/Test1.sol\":3908:4057  for(uint i = 0; i < users.length; i++){... */\n    tag_67:\n        /* \"contracts/Test1.sol\":3928:3933  users */\n      0x01\n        /* \"contracts/Test1.sol\":3928:3940  users.length */\n      dup1\n      sload\n      swap1\n      pop\n        /* \"contracts/Test1.sol\":3924:3925  i */\n      dup2\n        /* \"contracts/Test1.sol\":3924:3940  i < users.length */\n      lt\n        /* \"contracts/Test1.sol\":3908:4057  for(uint i = 0; i < users.length; i++){... */\n      iszero\n      tag_68\n      jumpi\n        /* \"contracts/Test1.sol\":3989:4002  walletAddress */\n      dup3\n        /* \"contracts/Test1.sol\":3963:4002  users[i].walletAddress == walletAddress */\n      0xffffffffffffffffffffffffffffffffffffffff\n      and\n        /* \"contracts/Test1.sol\":3963:3968  users */\n      0x01\n        /* \"contracts/Test1.sol\":3969:3970  i */\n      dup3\n        /* \"contracts/Test1.sol\":3963:3971  users[i] */\n      dup2\n      sload\n      dup2\n      lt\n      tag_70\n      jumpi\n      tag_71\n      tag_72\n      jump\t// in\n    tag_71:\n    tag_70:\n      swap1\n      0x00\n      mstore\n      keccak256(0x00, 0x20)\n      swap1\n      0x04\n      mul\n      add\n        /* \"contracts/Test1.sol\":3963:3985  users[i].walletAddress */\n      0x00\n      add\n      0x00\n      swap1\n      sload\n      swap1\n      0x0100\n      exp\n      swap1\n      div\n      0xffffffffffffffffffffffffffffffffffffffff\n      and\n        /* \"contracts/Test1.sol\":3963:4002  users[i].walletAddress == walletAddress */\n      0xffffffffffffffffffffffffffffffffffffffff\n      and\n      sub\n        /* \"contracts/Test1.sol\":3960:4047  if(users[i].walletAddress == walletAddress){... */\n      tag_74\n      jumpi\n        /* \"contracts/Test1.sol\":4028:4032  true */\n      0x01\n        /* \"contracts/Test1.sol\":4021:4032  return true */\n      swap2\n      pop\n      pop\n      jump(tag_66)\n        /* \"contracts/Test1.sol\":3960:4047  if(users[i].walletAddress == walletAddress){... */\n    tag_74:\n        /* \"contracts/Test1.sol\":3942:3945  i++ */\n      dup1\n      dup1\n      tag_75\n      swap1\n      tag_76\n      jump\t// in\n    tag_75:\n      swap2\n      pop\n      pop\n        /* \"contracts/Test1.sol\":3908:4057  for(uint i = 0; i < users.length; i++){... */\n      jump(tag_67)\n    tag_68:\n      pop\n        /* \"contracts/Test1.sol\":4073:4078  false */\n      0x00\n        /* \"contracts/Test1.sol\":4066:4078  return false */\n      swap1\n      pop\n        /* \"contracts/Test1.sol\":3830:4085  function userExists(address walletAddress) public view returns(bool){... */\n    tag_66:\n      swap2\n      swap1\n      pop\n      jump\t// out\n        /* \"contracts/Test1.sol\":4300:4405  function transfer(address walletAddress) payable public {... */\n    tag_22:\n        /* \"contracts/Test1.sol\":4366:4398  transferToAddress(walletAddress) */\n      tag_78\n        /* \"contracts/Test1.sol\":4384:4397  walletAddress */\n      dup2\n        /* \"contracts/Test1.sol\":4366:4383  transferToAddress */\n      tag_79\n        /* \"contracts/Test1.sol\":4366:4398  transferToAddress(walletAddress) */\n      jump\t// in\n    tag_78:\n        /* \"contracts/Test1.sol\":4300:4405  function transfer(address walletAddress) payable public {... */\n      pop\n      jump\t// out\n        /* \"contracts/Test1.sol\":2824:3004  function addUser(address walletAddress, string memory name, uint amount, bool isInvestor) public onlyOwner{... */\n    tag_27:\n        /* \"contracts/Test1.sol\":2467:2472  owner */\n      0x00\n      dup1\n      sload\n      swap1\n      0x0100\n      exp\n      swap1\n      div\n      0xffffffffffffffffffffffffffffffffffffffff\n      and\n        /* \"contracts/Test1.sol\":2453:2472  msg.sender == owner */\n      0xffffffffffffffffffffffffffffffffffffffff\n      and\n        /* \"contracts/Test1.sol\":2453:2463  msg.sender */\n      caller\n        /* \"contracts/Test1.sol\":2453:2472  msg.sender == owner */\n      0xffffffffffffffffffffffffffffffffffffffff\n      and\n      eq\n        /* \"contracts/Test1.sol\":2445:2498  require(msg.sender == owner, \"You are not the owner\") */\n      tag_81\n      jumpi\n      mload(0x40)\n      0x08c379a000000000000000000000000000000000000000000000000000000000\n      dup2\n      mstore\n      0x04\n      add\n      tag_82\n      swap1\n      tag_83\n      jump\t// in\n    tag_82:\n      mload(0x40)\n      dup1\n      swap2\n      sub\n      swap1\n      revert\n    tag_81:\n        /* \"contracts/Test1.sol\":2940:2945  users */\n      0x01\n        /* \"contracts/Test1.sol\":2951:2996  User(walletAddress, name, amount, isInvestor) */\n      mload(0x40)\n      dup1\n      0x80\n      add\n      0x40\n      mstore\n      dup1\n        /* \"contracts/Test1.sol\":2956:2969  walletAddress */\n      dup7\n        /* \"contracts/Test1.sol\":2951:2996  User(walletAddress, name, amount, isInvestor) */\n      0xffffffffffffffffffffffffffffffffffffffff\n      and\n      dup2\n      mstore\n      0x20\n      add\n        /* \"contracts/Test1.sol\":2971:2975  name */\n      dup6\n        /* \"contracts/Test1.sol\":2951:2996  User(walletAddress, name, amount, isInvestor) */\n      dup2\n      mstore\n      0x20\n      add\n        /* \"contracts/Test1.sol\":2977:2983  amount */\n      dup5\n        /* \"contracts/Test1.sol\":2951:2996  User(walletAddress, name, amount, isInvestor) */\n      dup2\n      mstore\n      0x20\n      add\n        /* \"contracts/Test1.sol\":2985:2995  isInvestor */\n      dup4\n        /* \"contracts/Test1.sol\":2951:2996  User(walletAddress, name, amount, isInvestor) */\n      iszero\n      iszero\n      dup2\n      mstore\n      pop\n        /* \"contracts/Test1.sol\":2940:2997  users.push(User(walletAddress, name, amount, isInvestor)) */\n      swap1\n      dup1\n      0x01\n      dup2\n      sload\n      add\n      dup1\n      dup3\n      sstore\n      dup1\n      swap2\n      pop\n      pop\n      0x01\n      swap1\n      sub\n      swap1\n      0x00\n      mstore\n      keccak256(0x00, 0x20)\n      swap1\n      0x04\n      mul\n      add\n      0x00\n      swap1\n      swap2\n      swap1\n      swap2\n      swap1\n      swap2\n      pop\n      0x00\n      dup3\n      add\n      mload\n      dup2\n      0x00\n      add\n      exp(0x0100, 0x00)\n      dup2\n      sload\n      dup2\n      0xffffffffffffffffffffffffffffffffffffffff\n      mul\n      not\n      and\n      swap1\n      dup4\n      0xffffffffffffffffffffffffffffffffffffffff\n      and\n      mul\n      or\n      swap1\n      sstore\n      pop\n      0x20\n      dup3\n      add\n      mload\n      dup2\n      0x01\n      add\n      swap1\n      dup2\n      tag_86\n      swap2\n      swap1\n      tag_87\n      jump\t// in\n    tag_86:\n      pop\n      0x40\n      dup3\n      add\n      mload\n      dup2\n      0x02\n      add\n      sstore\n      0x60\n      dup3\n      add\n      mload\n      dup2\n      0x03\n      add\n      exp(0x0100, 0x00)\n      dup2\n      sload\n      dup2\n      0xff\n      mul\n      not\n      and\n      swap1\n      dup4\n      iszero\n      iszero\n      mul\n      or\n      swap1\n      sstore\n      pop\n      pop\n      pop\n        /* \"contracts/Test1.sol\":2824:3004  function addUser(address walletAddress, string memory name, uint amount, bool isInvestor) public onlyOwner{... */\n      pop\n      pop\n      pop\n      pop\n      jump\t// out\n        /* \"contracts/Test1.sol\":2751:2770  User[] public users */\n    tag_32:\n      0x01\n      dup2\n      dup2\n      sload\n      dup2\n      lt\n      tag_88\n      jumpi\n      0x00\n      dup1\n      revert\n    tag_88:\n      swap1\n      0x00\n      mstore\n      keccak256(0x00, 0x20)\n      swap1\n      0x04\n      mul\n      add\n      0x00\n      swap2\n      pop\n      swap1\n      pop\n      dup1\n      0x00\n      add\n      0x00\n      swap1\n      sload\n      swap1\n      0x0100\n      exp\n      swap1\n      div\n      0xffffffffffffffffffffffffffffffffffffffff\n      and\n      swap1\n      dup1\n      0x01\n      add\n      dup1\n      sload\n      tag_90\n      swap1\n      tag_91\n      jump\t// in\n    tag_90:\n      dup1\n      0x1f\n      add\n      0x20\n      dup1\n      swap2\n      div\n      mul\n      0x20\n      add\n      mload(0x40)\n      swap1\n      dup2\n      add\n      0x40\n      mstore\n      dup1\n      swap3\n      swap2\n      swap1\n      dup2\n      dup2\n      mstore\n      0x20\n      add\n      dup3\n      dup1\n      sload\n      tag_92\n      swap1\n      tag_91\n      jump\t// in\n    tag_92:\n      dup1\n      iszero\n      tag_93\n      jumpi\n      dup1\n      0x1f\n      lt\n      tag_94\n      jumpi\n      0x0100\n      dup1\n      dup4\n      sload\n      div\n      mul\n      dup4\n      mstore\n      swap2\n      0x20\n      add\n      swap2\n      jump(tag_93)\n    tag_94:\n      dup3\n      add\n      swap2\n      swap1\n      0x00\n      mstore\n      keccak256(0x00, 0x20)\n      swap1\n    tag_95:\n      dup2\n      sload\n      dup2\n      mstore\n      swap1\n      0x01\n      add\n      swap1\n      0x20\n      add\n      dup1\n      dup4\n      gt\n      tag_95\n      jumpi\n      dup3\n      swap1\n      sub\n      0x1f\n      and\n      dup3\n      add\n      swap2\n    tag_93:\n      pop\n      pop\n      pop\n      pop\n      pop\n      swap1\n      dup1\n      0x02\n      add\n      sload\n      swap1\n      dup1\n      0x03\n      add\n      0x00\n      swap1\n      sload\n      swap1\n      0x0100\n      exp\n      swap1\n      div\n      0xff\n      and\n      swap1\n      pop\n      dup5\n      jump\t// out\n        /* \"contracts/Test1.sol\":3654:3824  function investorPermission(address walletAddress) public returns(bool){... */\n    tag_38:\n        /* \"contracts/Test1.sol\":3720:3724  bool */\n      0x00\n        /* \"contracts/Test1.sol\":3735:3751  User memory user */\n      dup1\n        /* \"contracts/Test1.sol\":3754:3785  getUserByAddress(walletAddress) */\n      tag_97\n        /* \"contracts/Test1.sol\":3771:3784  walletAddress */\n      dup4\n        /* \"contracts/Test1.sol\":3754:3770  getUserByAddress */\n      tag_48\n        /* \"contracts/Test1.sol\":3754:3785  getUserByAddress(walletAddress) */\n      jump\t// in\n    tag_97:\n        /* \"contracts/Test1.sol\":3735:3785  User memory user = getUserByAddress(walletAddress) */\n      swap1\n      pop\n        /* \"contracts/Test1.sol\":3802:3806  user */\n      dup1\n        /* \"contracts/Test1.sol\":3802:3817  user.isInvestor */\n      0x60\n      add\n      mload\n        /* \"contracts/Test1.sol\":3795:3817  return user.isInvestor */\n      swap2\n      pop\n      pop\n        /* \"contracts/Test1.sol\":3654:3824  function investorPermission(address walletAddress) public returns(bool){... */\n      swap2\n      swap1\n      pop\n      jump\t// out\n        /* \"contracts/Test1.sol\":4091:4294  function investorExists(address walletAddress) public view returns(bool){... */\n    tag_43:\n        /* \"contracts/Test1.sol\":4158:4162  bool */\n      0x00\n        /* \"contracts/Test1.sol\":4177:4188  StringUtils */\n      linkerSymbol(\"08c12a1e75e73256f67245938a086822331733df257c705d4d78863e73374c37\")\n        /* \"contracts/Test1.sol\":4177:4194  StringUtils.equal */\n      0x46bdca9a\n        /* \"contracts/Test1.sol\":4195:4204  investors */\n      0x02\n        /* \"contracts/Test1.sol\":4195:4219  investors[walletAddress] */\n      0x00\n        /* \"contracts/Test1.sol\":4205:4218  walletAddress */\n      dup6\n        /* \"contracts/Test1.sol\":4195:4219  investors[walletAddress] */\n      0xffffffffffffffffffffffffffffffffffffffff\n      and\n      0xffffffffffffffffffffffffffffffffffffffff\n      and\n      dup2\n      mstore\n      0x20\n      add\n      swap1\n      dup2\n      mstore\n      0x20\n      add\n      0x00\n      keccak256\n        /* \"contracts/Test1.sol\":4195:4224  investors[walletAddress].name */\n      0x01\n      add\n        /* \"contracts/Test1.sol\":4177:4228  StringUtils.equal(investors[walletAddress].name,\"\") */\n      mload(0x40)\n      dup3\n      0xffffffff\n      and\n      0xe0\n      shl\n      dup2\n      mstore\n      0x04\n      add\n      tag_99\n      swap2\n      swap1\n      tag_100\n      jump\t// in\n    tag_99:\n      0x20\n      mload(0x40)\n      dup1\n      dup4\n      sub\n      dup2\n      dup7\n      gas\n      delegatecall\n      iszero\n      dup1\n      iszero\n      tag_102\n      jumpi\n      returndatasize\n      0x00\n      dup1\n      returndatacopy\n      revert(0x00, returndatasize)\n    tag_102:\n      pop\n      pop\n      pop\n      pop\n      mload(0x40)\n      returndatasize\n      not(0x1f)\n      0x1f\n      dup3\n      add\n      and\n      dup3\n      add\n      dup1\n      0x40\n      mstore\n      pop\n      dup2\n      add\n      swap1\n      tag_103\n      swap2\n      swap1\n      tag_104\n      jump\t// in\n    tag_103:\n        /* \"contracts/Test1.sol\":4174:4266  if(StringUtils.equal(investors[walletAddress].name,\"\")){... */\n      iszero\n      tag_105\n      jumpi\n        /* \"contracts/Test1.sol\":4250:4255  false */\n      0x00\n        /* \"contracts/Test1.sol\":4243:4255  return false */\n      swap1\n      pop\n      jump(tag_98)\n        /* \"contracts/Test1.sol\":4174:4266  if(StringUtils.equal(investors[walletAddress].name,\"\")){... */\n    tag_105:\n        /* \"contracts/Test1.sol\":4283:4287  true */\n      0x01\n        /* \"contracts/Test1.sol\":4276:4287  return true */\n      swap1\n      pop\n        /* \"contracts/Test1.sol\":4091:4294  function investorExists(address walletAddress) public view returns(bool){... */\n    tag_98:\n      swap2\n      swap1\n      pop\n      jump\t// out\n        /* \"contracts/Test1.sol\":3312:3648  function getUserByAddress(address walletAddress) public returns(User memory user){... */\n    tag_48:\n        /* \"contracts/Test1.sol\":3376:3392  User memory user */\n      tag_106\n      tag_107\n      jump\t// in\n    tag_106:\n        /* \"contracts/Test1.sol\":3407:3413  uint i */\n      0x00\n        /* \"contracts/Test1.sol\":3403:3600  for(uint i = 0; i < users.length; i++){... */\n    tag_109:\n        /* \"contracts/Test1.sol\":3423:3428  users */\n      0x01\n        /* \"contracts/Test1.sol\":3423:3435  users.length */\n      dup1\n      sload\n      swap1\n      pop\n        /* \"contracts/Test1.sol\":3419:3420  i */\n      dup2\n        /* \"contracts/Test1.sol\":3419:3435  i < users.length */\n      lt\n        /* \"contracts/Test1.sol\":3403:3600  for(uint i = 0; i < users.length; i++){... */\n      iszero\n      tag_110\n      jumpi\n        /* \"contracts/Test1.sol\":3484:3497  walletAddress */\n      dup3\n        /* \"contracts/Test1.sol\":3458:3497  users[i].walletAddress == walletAddress */\n      0xffffffffffffffffffffffffffffffffffffffff\n      and\n        /* \"contracts/Test1.sol\":3458:3463  users */\n      0x01\n        /* \"contracts/Test1.sol\":3464:3465  i */\n      dup3\n        /* \"contracts/Test1.sol\":3458:3466  users[i] */\n      dup2\n      sload\n      dup2\n      lt\n      tag_112\n      jumpi\n      tag_113\n      tag_72\n      jump\t// in\n    tag_113:\n    tag_112:\n      swap1\n      0x00\n      mstore\n      keccak256(0x00, 0x20)\n      swap1\n      0x04\n      mul\n      add\n        /* \"contracts/Test1.sol\":3458:3480  users[i].walletAddress */\n      0x00\n      add\n      0x00\n      swap1\n      sload\n      swap1\n      0x0100\n      exp\n      swap1\n      div\n      0xffffffffffffffffffffffffffffffffffffffff\n      and\n        /* \"contracts/Test1.sol\":3458:3497  users[i].walletAddress == walletAddress */\n      0xffffffffffffffffffffffffffffffffffffffff\n      and\n      sub\n        /* \"contracts/Test1.sol\":3455:3590  if(users[i].walletAddress == walletAddress){... */\n      tag_115\n      jumpi\n        /* \"contracts/Test1.sol\":3538:3542  true */\n      0x01\n        /* \"contracts/Test1.sol\":3516:3521  users */\n      dup1\n        /* \"contracts/Test1.sol\":3522:3523  i */\n      dup3\n        /* \"contracts/Test1.sol\":3516:3524  users[i] */\n      dup2\n      sload\n      dup2\n      lt\n      tag_116\n      jumpi\n      tag_117\n      tag_72\n      jump\t// in\n    tag_117:\n    tag_116:\n      swap1\n      0x00\n      mstore\n      keccak256(0x00, 0x20)\n      swap1\n      0x04\n      mul\n      add\n        /* \"contracts/Test1.sol\":3516:3535  users[i].isInvestor */\n      0x03\n      add\n      0x00\n        /* \"contracts/Test1.sol\":3516:3542  users[i].isInvestor = true */\n      0x0100\n      exp\n      dup2\n      sload\n      dup2\n      0xff\n      mul\n      not\n      and\n      swap1\n      dup4\n      iszero\n      iszero\n      mul\n      or\n      swap1\n      sstore\n      pop\n        /* \"contracts/Test1.sol\":3567:3572  users */\n      0x01\n        /* \"contracts/Test1.sol\":3573:3574  i */\n      dup2\n        /* \"contracts/Test1.sol\":3567:3575  users[i] */\n      dup2\n      sload\n      dup2\n      lt\n      tag_119\n      jumpi\n      tag_120\n      tag_72\n      jump\t// in\n    tag_120:\n    tag_119:\n      swap1\n      0x00\n      mstore\n      keccak256(0x00, 0x20)\n      swap1\n      0x04\n      mul\n      add\n        /* \"contracts/Test1.sol\":3560:3575  return users[i] */\n      mload(0x40)\n      dup1\n      0x80\n      add\n      0x40\n      mstore\n      swap1\n      dup2\n      0x00\n      dup3\n      add\n      0x00\n      swap1\n      sload\n      swap1\n      0x0100\n      exp\n      swap1\n      div\n      0xffffffffffffffffffffffffffffffffffffffff\n      and\n      0xffffffffffffffffffffffffffffffffffffffff\n      and\n      0xffffffffffffffffffffffffffffffffffffffff\n      and\n      dup2\n      mstore\n      0x20\n      add\n      0x01\n      dup3\n      add\n      dup1\n      sload\n      tag_122\n      swap1\n      tag_91\n      jump\t// in\n    tag_122:\n      dup1\n      0x1f\n      add\n      0x20\n      dup1\n      swap2\n      div\n      mul\n      0x20\n      add\n      mload(0x40)\n      swap1\n      dup2\n      add\n      0x40\n      mstore\n      dup1\n      swap3\n      swap2\n      swap1\n      dup2\n      dup2\n      mstore\n      0x20\n      add\n      dup3\n      dup1\n      sload\n      tag_123\n      swap1\n      tag_91\n      jump\t// in\n    tag_123:\n      dup1\n      iszero\n      tag_124\n      jumpi\n      dup1\n      0x1f\n      lt\n      tag_125\n      jumpi\n      0x0100\n      dup1\n      dup4\n      sload\n      div\n      mul\n      dup4\n      mstore\n      swap2\n      0x20\n      add\n      swap2\n      jump(tag_124)\n    tag_125:\n      dup3\n      add\n      swap2\n      swap1\n      0x00\n      mstore\n      keccak256(0x00, 0x20)\n      swap1\n    tag_126:\n      dup2\n      sload\n      dup2\n      mstore\n      swap1\n      0x01\n      add\n      swap1\n      0x20\n      add\n      dup1\n      dup4\n      gt\n      tag_126\n      jumpi\n      dup3\n      swap1\n      sub\n      0x1f\n      and\n      dup3\n      add\n      swap2\n    tag_124:\n      pop\n      pop\n      pop\n      pop\n      pop\n      dup2\n      mstore\n      0x20\n      add\n      0x02\n      dup3\n      add\n      sload\n      dup2\n      mstore\n      0x20\n      add\n      0x03\n      dup3\n      add\n      0x00\n      swap1\n      sload\n      swap1\n      0x0100\n      exp\n      swap1\n      div\n      0xff\n      and\n      iszero\n      iszero\n      iszero\n      iszero\n      dup2\n      mstore\n      pop\n      pop\n      swap2\n      pop\n      pop\n      jump(tag_108)\n        /* \"contracts/Test1.sol\":3455:3590  if(users[i].walletAddress == walletAddress){... */\n    tag_115:\n        /* \"contracts/Test1.sol\":3437:3440  i++ */\n      dup1\n      dup1\n      tag_127\n      swap1\n      tag_76\n      jump\t// in\n    tag_127:\n      swap2\n      pop\n      pop\n        /* \"contracts/Test1.sol\":3403:3600  for(uint i = 0; i < users.length; i++){... */\n      jump(tag_109)\n    tag_110:\n      pop\n        /* \"contracts/Test1.sol\":3609:3641  revert(\"Invalid Wallet Address\") */\n      mload(0x40)\n      0x08c379a000000000000000000000000000000000000000000000000000000000\n      dup2\n      mstore\n      0x04\n      add\n      tag_128\n      swap1\n      tag_129\n      jump\t// in\n    tag_128:\n      mload(0x40)\n      dup1\n      swap2\n      sub\n      swap1\n      revert\n        /* \"contracts/Test1.sol\":3312:3648  function getUserByAddress(address walletAddress) public returns(User memory user){... */\n    tag_108:\n      swap2\n      swap1\n      pop\n      jump\t// out\n        /* \"contracts/Test1.sol\":2776:2817  mapping(address => User) public investors */\n    tag_54:\n      mstore(0x20, 0x02)\n      dup1\n      0x00\n      mstore\n      keccak256(0x00, 0x40)\n      0x00\n      swap2\n      pop\n      swap1\n      pop\n      dup1\n      0x00\n      add\n      0x00\n      swap1\n      sload\n      swap1\n      0x0100\n      exp\n      swap1\n      div\n      0xffffffffffffffffffffffffffffffffffffffff\n      and\n      swap1\n      dup1\n      0x01\n      add\n      dup1\n      sload\n      tag_130\n      swap1\n      tag_91\n      jump\t// in\n    tag_130:\n      dup1\n      0x1f\n      add\n      0x20\n      dup1\n      swap2\n      div\n      mul\n      0x20\n      add\n      mload(0x40)\n      swap1\n      dup2\n      add\n      0x40\n      mstore\n      dup1\n      swap3\n      swap2\n      swap1\n      dup2\n      dup2\n      mstore\n      0x20\n      add\n      dup3\n      dup1\n      sload\n      tag_131\n      swap1\n      tag_91\n      jump\t// in\n    tag_131:\n      dup1\n      iszero\n      tag_132\n      jumpi\n      dup1\n      0x1f\n      lt\n      tag_133\n      jumpi\n      0x0100\n      dup1\n      dup4\n      sload\n      div\n      mul\n      dup4\n      mstore\n      swap2\n      0x20\n      add\n      swap2\n      jump(tag_132)\n    tag_133:\n      dup3\n      add\n      swap2\n      swap1\n      0x00\n      mstore\n      keccak256(0x00, 0x20)\n      swap1\n    tag_134:\n      dup2\n      sload\n      dup2\n      mstore\n      swap1\n      0x01\n      add\n      swap1\n      0x20\n      add\n      dup1\n      dup4\n      gt\n      tag_134\n      jumpi\n      dup3\n      swap1\n      sub\n      0x1f\n      and\n      dup3\n      add\n      swap2\n    tag_132:\n      pop\n      pop\n      pop\n      pop\n      pop\n      swap1\n      dup1\n      0x02\n      add\n      sload\n      swap1\n      dup1\n      0x03\n      add\n      0x00\n      swap1\n      sload\n      swap1\n      0x0100\n      exp\n      swap1\n      div\n      0xff\n      and\n      swap1\n      pop\n      dup5\n      jump\t// out\n        /* \"contracts/Test1.sol\":4657:4920  function balanceOf(address walletAddress) public view returns(uint){... */\n    tag_59:\n        /* \"contracts/Test1.sol\":4719:4723  uint */\n      0x00\n        /* \"contracts/Test1.sol\":4738:4744  uint i */\n      dup1\n        /* \"contracts/Test1.sol\":4747:4748  0 */\n      0x00\n        /* \"contracts/Test1.sol\":4738:4748  uint i = 0 */\n      swap1\n      pop\n        /* \"contracts/Test1.sol\":4734:4894  for(uint i = 0; i < users.length; i++){... */\n    tag_136:\n        /* \"contracts/Test1.sol\":4754:4759  users */\n      0x01\n        /* \"contracts/Test1.sol\":4754:4766  users.length */\n      dup1\n      sload\n      swap1\n      pop\n        /* \"contracts/Test1.sol\":4750:4751  i */\n      dup2\n        /* \"contracts/Test1.sol\":4750:4766  i < users.length */\n      lt\n        /* \"contracts/Test1.sol\":4734:4894  for(uint i = 0; i < users.length; i++){... */\n      iszero\n      tag_137\n      jumpi\n        /* \"contracts/Test1.sol\":4815:4828  walletAddress */\n      dup3\n        /* \"contracts/Test1.sol\":4789:4828  users[i].walletAddress == walletAddress */\n      0xffffffffffffffffffffffffffffffffffffffff\n      and\n        /* \"contracts/Test1.sol\":4789:4794  users */\n      0x01\n        /* \"contracts/Test1.sol\":4795:4796  i */\n      dup3\n        /* \"contracts/Test1.sol\":4789:4797  users[i] */\n      dup2\n      sload\n      dup2\n      lt\n      tag_139\n      jumpi\n      tag_140\n      tag_72\n      jump\t// in\n    tag_140:\n    tag_139:\n      swap1\n      0x00\n      mstore\n      keccak256(0x00, 0x20)\n      swap1\n      0x04\n      mul\n      add\n        /* \"contracts/Test1.sol\":4789:4811  users[i].walletAddress */\n      0x00\n      add\n      0x00\n      swap1\n      sload\n      swap1\n      0x0100\n      exp\n      swap1\n      div\n      0xffffffffffffffffffffffffffffffffffffffff\n      and\n        /* \"contracts/Test1.sol\":4789:4828  users[i].walletAddress == walletAddress */\n      0xffffffffffffffffffffffffffffffffffffffff\n      and\n      sub\n        /* \"contracts/Test1.sol\":4786:4884  if(users[i].walletAddress == walletAddress){... */\n      tag_142\n      jumpi\n        /* \"contracts/Test1.sol\":4854:4859  users */\n      0x01\n        /* \"contracts/Test1.sol\":4860:4861  i */\n      dup2\n        /* \"contracts/Test1.sol\":4854:4862  users[i] */\n      dup2\n      sload\n      dup2\n      lt\n      tag_143\n      jumpi\n      tag_144\n      tag_72\n      jump\t// in\n    tag_144:\n    tag_143:\n      swap1\n      0x00\n      mstore\n      keccak256(0x00, 0x20)\n      swap1\n      0x04\n      mul\n      add\n        /* \"contracts/Test1.sol\":4854:4869  users[i].amount */\n      0x02\n      add\n      sload\n        /* \"contracts/Test1.sol\":4847:4869  return users[i].amount */\n      swap2\n      pop\n      pop\n      jump(tag_135)\n        /* \"contracts/Test1.sol\":4786:4884  if(users[i].walletAddress == walletAddress){... */\n    tag_142:\n        /* \"contracts/Test1.sol\":4768:4771  i++ */\n      dup1\n      dup1\n      tag_146\n      swap1\n      tag_76\n      jump\t// in\n    tag_146:\n      swap2\n      pop\n      pop\n        /* \"contracts/Test1.sol\":4734:4894  for(uint i = 0; i < users.length; i++){... */\n      jump(tag_136)\n    tag_137:\n      pop\n        /* \"contracts/Test1.sol\":4910:4913  999 */\n      0x03e7\n        /* \"contracts/Test1.sol\":4903:4913  return 999 */\n      swap1\n      pop\n        /* \"contracts/Test1.sol\":4657:4920  function balanceOf(address walletAddress) public view returns(uint){... */\n    tag_135:\n      swap2\n      swap1\n      pop\n      jump\t// out\n        /* \"contracts/Test1.sol\":3010:3306  function addToInvestors(address walletAddress) public onlyOwner{... */\n    tag_65:\n        /* \"contracts/Test1.sol\":2467:2472  owner */\n      0x00\n      dup1\n      sload\n      swap1\n      0x0100\n      exp\n      swap1\n      div\n      0xffffffffffffffffffffffffffffffffffffffff\n      and\n        /* \"contracts/Test1.sol\":2453:2472  msg.sender == owner */\n      0xffffffffffffffffffffffffffffffffffffffff\n      and\n        /* \"contracts/Test1.sol\":2453:2463  msg.sender */\n      caller\n        /* \"contracts/Test1.sol\":2453:2472  msg.sender == owner */\n      0xffffffffffffffffffffffffffffffffffffffff\n      and\n      eq\n        /* \"contracts/Test1.sol\":2445:2498  require(msg.sender == owner, \"You are not the owner\") */\n      tag_148\n      jumpi\n      mload(0x40)\n      0x08c379a000000000000000000000000000000000000000000000000000000000\n      dup2\n      mstore\n      0x04\n      add\n      tag_149\n      swap1\n      tag_83\n      jump\t// in\n    tag_149:\n      mload(0x40)\n      dup1\n      swap2\n      sub\n      swap1\n      revert\n    tag_148:\n        /* \"contracts/Test1.sol\":3083:3099  User memory user */\n      0x00\n        /* \"contracts/Test1.sol\":3102:3133  getUserByAddress(walletAddress) */\n      tag_151\n        /* \"contracts/Test1.sol\":3119:3132  walletAddress */\n      dup3\n        /* \"contracts/Test1.sol\":3102:3118  getUserByAddress */\n      tag_48\n        /* \"contracts/Test1.sol\":3102:3133  getUserByAddress(walletAddress) */\n      jump\t// in\n    tag_151:\n        /* \"contracts/Test1.sol\":3083:3133  User memory user = getUserByAddress(walletAddress) */\n      swap1\n      pop\n        /* \"contracts/Test1.sol\":3146:3176  userExists(user.walletAddress) */\n      tag_152\n        /* \"contracts/Test1.sol\":3157:3161  user */\n      dup2\n        /* \"contracts/Test1.sol\":3157:3175  user.walletAddress */\n      0x00\n      add\n      mload\n        /* \"contracts/Test1.sol\":3146:3156  userExists */\n      tag_17\n        /* \"contracts/Test1.sol\":3146:3176  userExists(user.walletAddress) */\n      jump\t// in\n    tag_152:\n        /* \"contracts/Test1.sol\":3143:3300  if(userExists(user.walletAddress)){... */\n      iszero\n      tag_153\n      jumpi\n        /* \"contracts/Test1.sol\":3218:3222  user */\n      dup1\n        /* \"contracts/Test1.sol\":3191:3200  investors */\n      0x02\n        /* \"contracts/Test1.sol\":3191:3215  investors[walletAddress] */\n      0x00\n        /* \"contracts/Test1.sol\":3201:3214  walletAddress */\n      dup5\n        /* \"contracts/Test1.sol\":3191:3215  investors[walletAddress] */\n      0xffffffffffffffffffffffffffffffffffffffff\n      and\n      0xffffffffffffffffffffffffffffffffffffffff\n      and\n      dup2\n      mstore\n      0x20\n      add\n      swap1\n      dup2\n      mstore\n      0x20\n      add\n      0x00\n      keccak256\n        /* \"contracts/Test1.sol\":3191:3222  investors[walletAddress] = user */\n      0x00\n      dup3\n      add\n      mload\n      dup2\n      0x00\n      add\n      exp(0x0100, 0x00)\n      dup2\n      sload\n      dup2\n      0xffffffffffffffffffffffffffffffffffffffff\n      mul\n      not\n      and\n      swap1\n      dup4\n      0xffffffffffffffffffffffffffffffffffffffff\n      and\n      mul\n      or\n      swap1\n      sstore\n      pop\n      0x20\n      dup3\n      add\n      mload\n      dup2\n      0x01\n      add\n      swap1\n      dup2\n      tag_154\n      swap2\n      swap1\n      tag_87\n      jump\t// in\n    tag_154:\n      pop\n      0x40\n      dup3\n      add\n      mload\n      dup2\n      0x02\n      add\n      sstore\n      0x60\n      dup3\n      add\n      mload\n      dup2\n      0x03\n      add\n      exp(0x0100, 0x00)\n      dup2\n      sload\n      dup2\n      0xff\n      mul\n      not\n      and\n      swap1\n      dup4\n      iszero\n      iszero\n      mul\n      or\n      swap1\n      sstore\n      pop\n      swap1\n      pop\n      pop\n        /* \"contracts/Test1.sol\":3143:3300  if(userExists(user.walletAddress)){... */\n      jump(tag_155)\n    tag_153:\n        /* \"contracts/Test1.sol\":3260:3289  revert(\"User does not exist\") */\n      mload(0x40)\n      0x08c379a000000000000000000000000000000000000000000000000000000000\n      dup2\n      mstore\n      0x04\n      add\n      tag_156\n      swap1\n      tag_157\n      jump\t// in\n    tag_156:\n      mload(0x40)\n      dup1\n      swap2\n      sub\n      swap1\n      revert\n        /* \"contracts/Test1.sol\":3143:3300  if(userExists(user.walletAddress)){... */\n    tag_155:\n        /* \"contracts/Test1.sol\":3073:3306  {... */\n      pop\n        /* \"contracts/Test1.sol\":3010:3306  function addToInvestors(address walletAddress) public onlyOwner{... */\n      pop\n      jump\t// out\n        /* \"contracts/Test1.sol\":4411:4651  function transferToAddress(address walletAddress) private {... */\n    tag_79:\n        /* \"contracts/Test1.sol\":4483:4489  uint i */\n      0x00\n        /* \"contracts/Test1.sol\":4479:4645  for(uint i = 0; i < users.length; i++){... */\n    tag_159:\n        /* \"contracts/Test1.sol\":4499:4504  users */\n      0x01\n        /* \"contracts/Test1.sol\":4499:4511  users.length */\n      dup1\n      sload\n      swap1\n      pop\n        /* \"contracts/Test1.sol\":4495:4496  i */\n      dup2\n        /* \"contracts/Test1.sol\":4495:4511  i < users.length */\n      lt\n        /* \"contracts/Test1.sol\":4479:4645  for(uint i = 0; i < users.length; i++){... */\n      iszero\n      tag_160\n      jumpi\n        /* \"contracts/Test1.sol\":4560:4573  walletAddress */\n      dup2\n        /* \"contracts/Test1.sol\":4534:4573  users[i].walletAddress == walletAddress */\n      0xffffffffffffffffffffffffffffffffffffffff\n      and\n        /* \"contracts/Test1.sol\":4534:4539  users */\n      0x01\n        /* \"contracts/Test1.sol\":4540:4541  i */\n      dup3\n        /* \"contracts/Test1.sol\":4534:4542  users[i] */\n      dup2\n      sload\n      dup2\n      lt\n      tag_162\n      jumpi\n      tag_163\n      tag_72\n      jump\t// in\n    tag_163:\n    tag_162:\n      swap1\n      0x00\n      mstore\n      keccak256(0x00, 0x20)\n      swap1\n      0x04\n      mul\n      add\n        /* \"contracts/Test1.sol\":4534:4556  users[i].walletAddress */\n      0x00\n      add\n      0x00\n      swap1\n      sload\n      swap1\n      0x0100\n      exp\n      swap1\n      div\n      0xffffffffffffffffffffffffffffffffffffffff\n      and\n        /* \"contracts/Test1.sol\":4534:4573  users[i].walletAddress == walletAddress */\n      0xffffffffffffffffffffffffffffffffffffffff\n      and\n      sub\n        /* \"contracts/Test1.sol\":4531:4635  if(users[i].walletAddress == walletAddress){... */\n      tag_165\n      jumpi\n        /* \"contracts/Test1.sol\":4611:4620  msg.value */\n      callvalue\n        /* \"contracts/Test1.sol\":4592:4597  users */\n      0x01\n        /* \"contracts/Test1.sol\":4598:4599  i */\n      dup3\n        /* \"contracts/Test1.sol\":4592:4600  users[i] */\n      dup2\n      sload\n      dup2\n      lt\n      tag_166\n      jumpi\n      tag_167\n      tag_72\n      jump\t// in\n    tag_167:\n    tag_166:\n      swap1\n      0x00\n      mstore\n      keccak256(0x00, 0x20)\n      swap1\n      0x04\n      mul\n      add\n        /* \"contracts/Test1.sol\":4592:4607  users[i].amount */\n      0x02\n      add\n      0x00\n        /* \"contracts/Test1.sol\":4592:4620  users[i].amount += msg.value */\n      dup3\n      dup3\n      sload\n      tag_169\n      swap2\n      swap1\n      tag_170\n      jump\t// in\n    tag_169:\n      swap3\n      pop\n      pop\n      dup2\n      swap1\n      sstore\n      pop\n        /* \"contracts/Test1.sol\":4531:4635  if(users[i].walletAddress == walletAddress){... */\n    tag_165:\n        /* \"contracts/Test1.sol\":4513:4516  i++ */\n      dup1\n      dup1\n      tag_171\n      swap1\n      tag_76\n      jump\t// in\n    tag_171:\n      swap2\n      pop\n      pop\n        /* \"contracts/Test1.sol\":4479:4645  for(uint i = 0; i < users.length; i++){... */\n      jump(tag_159)\n    tag_160:\n      pop\n        /* \"contracts/Test1.sol\":4411:4651  function transferToAddress(address walletAddress) private {... */\n      pop\n      jump\t// out\n    tag_107:\n      mload(0x40)\n      dup1\n      0x80\n      add\n      0x40\n      mstore\n      dup1\n      and(0xffffffffffffffffffffffffffffffffffffffff, 0x00)\n      dup2\n      mstore\n      0x20\n      add\n      0x60\n      dup2\n      mstore\n      0x20\n      add\n      0x00\n      dup2\n      mstore\n      0x20\n      add\n      iszero(iszero(0x00))\n      dup2\n      mstore\n      pop\n      swap1\n      jump\t// out\n        /* \"#utility.yul\":7:82   */\n    tag_172:\n        /* \"#utility.yul\":40:46   */\n      0x00\n        /* \"#utility.yul\":73:75   */\n      0x40\n        /* \"#utility.yul\":67:76   */\n      mload\n        /* \"#utility.yul\":57:76   */\n      swap1\n      pop\n        /* \"#utility.yul\":7:82   */\n      swap1\n      jump\t// out\n        /* \"#utility.yul\":88:205   */\n    tag_173:\n        /* \"#utility.yul\":197:198   */\n      0x00\n        /* \"#utility.yul\":194:195   */\n      dup1\n        /* \"#utility.yul\":187:199   */\n      revert\n        /* \"#utility.yul\":211:328   */\n    tag_174:\n        /* \"#utility.yul\":320:321   */\n      0x00\n        /* \"#utility.yul\":317:318   */\n      dup1\n        /* \"#utility.yul\":310:322   */\n      revert\n        /* \"#utility.yul\":334:460   */\n    tag_175:\n        /* \"#utility.yul\":371:378   */\n      0x00\n        /* \"#utility.yul\":411:453   */\n      0xffffffffffffffffffffffffffffffffffffffff\n        /* \"#utility.yul\":404:409   */\n      dup3\n        /* \"#utility.yul\":400:454   */\n      and\n        /* \"#utility.yul\":389:454   */\n      swap1\n      pop\n        /* \"#utility.yul\":334:460   */\n      swap2\n      swap1\n      pop\n      jump\t// out\n        /* \"#utility.yul\":466:562   */\n    tag_176:\n        /* \"#utility.yul\":503:510   */\n      0x00\n        /* \"#utility.yul\":532:556   */\n      tag_242\n        /* \"#utility.yul\":550:555   */\n      dup3\n        /* \"#utility.yul\":532:556   */\n      tag_175\n      jump\t// in\n    tag_242:\n        /* \"#utility.yul\":521:556   */\n      swap1\n      pop\n        /* \"#utility.yul\":466:562   */\n      swap2\n      swap1\n      pop\n      jump\t// out\n        /* \"#utility.yul\":568:690   */\n    tag_177:\n        /* \"#utility.yul\":641:665   */\n      tag_244\n        /* \"#utility.yul\":659:664   */\n      dup2\n        /* \"#utility.yul\":641:665   */\n      tag_176\n      jump\t// in\n    tag_244:\n        /* \"#utility.yul\":634:639   */\n      dup2\n        /* \"#utility.yul\":631:666   */\n      eq\n        /* \"#utility.yul\":621:684   */\n      tag_245\n      jumpi\n        /* \"#utility.yul\":680:681   */\n      0x00\n        /* \"#utility.yul\":677:678   */\n      dup1\n        /* \"#utility.yul\":670:682   */\n      revert\n        /* \"#utility.yul\":621:684   */\n    tag_245:\n        /* \"#utility.yul\":568:690   */\n      pop\n      jump\t// out\n        /* \"#utility.yul\":696:835   */\n    tag_178:\n        /* \"#utility.yul\":742:747   */\n      0x00\n        /* \"#utility.yul\":780:786   */\n      dup2\n        /* \"#utility.yul\":767:787   */\n      calldataload\n        /* \"#utility.yul\":758:787   */\n      swap1\n      pop\n        /* \"#utility.yul\":796:829   */\n      tag_247\n        /* \"#utility.yul\":823:828   */\n      dup2\n        /* \"#utility.yul\":796:829   */\n      tag_177\n      jump\t// in\n    tag_247:\n        /* \"#utility.yul\":696:835   */\n      swap3\n      swap2\n      pop\n      pop\n      jump\t// out\n        /* \"#utility.yul\":841:1170   */\n    tag_16:\n        /* \"#utility.yul\":900:906   */\n      0x00\n        /* \"#utility.yul\":949:951   */\n      0x20\n        /* \"#utility.yul\":937:946   */\n      dup3\n        /* \"#utility.yul\":928:935   */\n      dup5\n        /* \"#utility.yul\":924:947   */\n      sub\n        /* \"#utility.yul\":920:952   */\n      slt\n        /* \"#utility.yul\":917:1036   */\n      iszero\n      tag_249\n      jumpi\n        /* \"#utility.yul\":955:1034   */\n      tag_250\n      tag_173\n      jump\t// in\n    tag_250:\n        /* \"#utility.yul\":917:1036   */\n    tag_249:\n        /* \"#utility.yul\":1075:1076   */\n      0x00\n        /* \"#utility.yul\":1100:1153   */\n      tag_251\n        /* \"#utility.yul\":1145:1152   */\n      dup5\n        /* \"#utility.yul\":1136:1142   */\n      dup3\n        /* \"#utility.yul\":1125:1134   */\n      dup6\n        /* \"#utility.yul\":1121:1143   */\n      add\n        /* \"#utility.yul\":1100:1153   */\n      tag_178\n      jump\t// in\n    tag_251:\n        /* \"#utility.yul\":1090:1153   */\n      swap2\n      pop\n        /* \"#utility.yul\":1046:1163   */\n      pop\n        /* \"#utility.yul\":841:1170   */\n      swap3\n      swap2\n      pop\n      pop\n      jump\t// out\n        /* \"#utility.yul\":1176:1266   */\n    tag_179:\n        /* \"#utility.yul\":1210:1217   */\n      0x00\n        /* \"#utility.yul\":1253:1258   */\n      dup2\n        /* \"#utility.yul\":1246:1259   */\n      iszero\n        /* \"#utility.yul\":1239:1260   */\n      iszero\n        /* \"#utility.yul\":1228:1260   */\n      swap1\n      pop\n        /* \"#utility.yul\":1176:1266   */\n      swap2\n      swap1\n      pop\n      jump\t// out\n        /* \"#utility.yul\":1272:1381   */\n    tag_180:\n        /* \"#utility.yul\":1353:1374   */\n      tag_254\n        /* \"#utility.yul\":1368:1373   */\n      dup2\n        /* \"#utility.yul\":1353:1374   */\n      tag_179\n      jump\t// in\n    tag_254:\n        /* \"#utility.yul\":1348:1351   */\n      dup3\n        /* \"#utility.yul\":1341:1375   */\n      mstore\n        /* \"#utility.yul\":1272:1381   */\n      pop\n      pop\n      jump\t// out\n        /* \"#utility.yul\":1387:1597   */\n    tag_19:\n        /* \"#utility.yul\":1474:1478   */\n      0x00\n        /* \"#utility.yul\":1512:1514   */\n      0x20\n        /* \"#utility.yul\":1501:1510   */\n      dup3\n        /* \"#utility.yul\":1497:1515   */\n      add\n        /* \"#utility.yul\":1489:1515   */\n      swap1\n      pop\n        /* \"#utility.yul\":1525:1590   */\n      tag_256\n        /* \"#utility.yul\":1587:1588   */\n      0x00\n        /* \"#utility.yul\":1576:1585   */\n      dup4\n        /* \"#utility.yul\":1572:1589   */\n      add\n        /* \"#utility.yul\":1563:1569   */\n      dup5\n        /* \"#utility.yul\":1525:1590   */\n      tag_180\n      jump\t// in\n    tag_256:\n        /* \"#utility.yul\":1387:1597   */\n      swap3\n      swap2\n      pop\n      pop\n      jump\t// out\n        /* \"#utility.yul\":1603:1720   */\n    tag_181:\n        /* \"#utility.yul\":1712:1713   */\n      0x00\n        /* \"#utility.yul\":1709:1710   */\n      dup1\n        /* \"#utility.yul\":1702:1714   */\n      revert\n        /* \"#utility.yul\":1726:1843   */\n    tag_182:\n        /* \"#utility.yul\":1835:1836   */\n      0x00\n        /* \"#utility.yul\":1832:1833   */\n      dup1\n        /* \"#utility.yul\":1825:1837   */\n      revert\n        /* \"#utility.yul\":1849:1951   */\n    tag_183:\n        /* \"#utility.yul\":1890:1896   */\n      0x00\n        /* \"#utility.yul\":1941:1943   */\n      0x1f\n        /* \"#utility.yul\":1937:1944   */\n      not\n        /* \"#utility.yul\":1932:1934   */\n      0x1f\n        /* \"#utility.yul\":1925:1930   */\n      dup4\n        /* \"#utility.yul\":1921:1935   */\n      add\n        /* \"#utility.yul\":1917:1945   */\n      and\n        /* \"#utility.yul\":1907:1945   */\n      swap1\n      pop\n        /* \"#utility.yul\":1849:1951   */\n      swap2\n      swap1\n      pop\n      jump\t// out\n        /* \"#utility.yul\":1957:2137   */\n    tag_184:\n        /* \"#utility.yul\":2005:2082   */\n      0x4e487b7100000000000000000000000000000000000000000000000000000000\n        /* \"#utility.yul\":2002:2003   */\n      0x00\n        /* \"#utility.yul\":1995:2083   */\n      mstore\n        /* \"#utility.yul\":2102:2106   */\n      0x41\n        /* \"#utility.yul\":2099:2100   */\n      0x04\n        /* \"#utility.yul\":2092:2107   */\n      mstore\n        /* \"#utility.yul\":2126:2130   */\n      0x24\n        /* \"#utility.yul\":2123:2124   */\n      0x00\n        /* \"#utility.yul\":2116:2131   */\n      revert\n        /* \"#utility.yul\":2143:2424   */\n    tag_185:\n        /* \"#utility.yul\":2226:2253   */\n      tag_262\n        /* \"#utility.yul\":2248:2252   */\n      dup3\n        /* \"#utility.yul\":2226:2253   */\n      tag_183\n      jump\t// in\n    tag_262:\n        /* \"#utility.yul\":2218:2224   */\n      dup2\n        /* \"#utility.yul\":2214:2254   */\n      add\n        /* \"#utility.yul\":2356:2362   */\n      dup2\n        /* \"#utility.yul\":2344:2354   */\n      dup2\n        /* \"#utility.yul\":2341:2363   */\n      lt\n        /* \"#utility.yul\":2320:2338   */\n      0xffffffffffffffff\n        /* \"#utility.yul\":2308:2318   */\n      dup3\n        /* \"#utility.yul\":2305:2339   */\n      gt\n        /* \"#utility.yul\":2302:2364   */\n      or\n        /* \"#utility.yul\":2299:2387   */\n      iszero\n      tag_263\n      jumpi\n        /* \"#utility.yul\":2367:2385   */\n      tag_264\n      tag_184\n      jump\t// in\n    tag_264:\n        /* \"#utility.yul\":2299:2387   */\n    tag_263:\n        /* \"#utility.yul\":2407:2417   */\n      dup1\n        /* \"#utility.yul\":2403:2405   */\n      0x40\n        /* \"#utility.yul\":2396:2418   */\n      mstore\n        /* \"#utility.yul\":2186:2424   */\n      pop\n        /* \"#utility.yul\":2143:2424   */\n      pop\n      pop\n      jump\t// out\n        /* \"#utility.yul\":2430:2559   */\n    tag_186:\n        /* \"#utility.yul\":2464:2470   */\n      0x00\n        /* \"#utility.yul\":2491:2511   */\n      tag_266\n      tag_172\n      jump\t// in\n    tag_266:\n        /* \"#utility.yul\":2481:2511   */\n      swap1\n      pop\n        /* \"#utility.yul\":2520:2553   */\n      tag_267\n        /* \"#utility.yul\":2548:2552   */\n      dup3\n        /* \"#utility.yul\":2540:2546   */\n      dup3\n        /* \"#utility.yul\":2520:2553   */\n      tag_185\n      jump\t// in\n    tag_267:\n        /* \"#utility.yul\":2430:2559   */\n      swap2\n      swap1\n      pop\n      jump\t// out\n        /* \"#utility.yul\":2565:2873   */\n    tag_187:\n        /* \"#utility.yul\":2627:2631   */\n      0x00\n        /* \"#utility.yul\":2717:2735   */\n      0xffffffffffffffff\n        /* \"#utility.yul\":2709:2715   */\n      dup3\n        /* \"#utility.yul\":2706:2736   */\n      gt\n        /* \"#utility.yul\":2703:2759   */\n      iszero\n      tag_269\n      jumpi\n        /* \"#utility.yul\":2739:2757   */\n      tag_270\n      tag_184\n      jump\t// in\n    tag_270:\n        /* \"#utility.yul\":2703:2759   */\n    tag_269:\n        /* \"#utility.yul\":2777:2806   */\n      tag_271\n        /* \"#utility.yul\":2799:2805   */\n      dup3\n        /* \"#utility.yul\":2777:2806   */\n      tag_183\n      jump\t// in\n    tag_271:\n        /* \"#utility.yul\":2769:2806   */\n      swap1\n      pop\n        /* \"#utility.yul\":2861:2865   */\n      0x20\n        /* \"#utility.yul\":2855:2859   */\n      dup2\n        /* \"#utility.yul\":2851:2866   */\n      add\n        /* \"#utility.yul\":2843:2866   */\n      swap1\n      pop\n        /* \"#utility.yul\":2565:2873   */\n      swap2\n      swap1\n      pop\n      jump\t// out\n        /* \"#utility.yul\":2879:3025   */\n    tag_188:\n        /* \"#utility.yul\":2976:2982   */\n      dup3\n        /* \"#utility.yul\":2971:2974   */\n      dup2\n        /* \"#utility.yul\":2966:2969   */\n      dup4\n        /* \"#utility.yul\":2953:2983   */\n      calldatacopy\n        /* \"#utility.yul\":3017:3018   */\n      0x00\n        /* \"#utility.yul\":3008:3014   */\n      dup4\n        /* \"#utility.yul\":3003:3006   */\n      dup4\n        /* \"#utility.yul\":2999:3015   */\n      add\n        /* \"#utility.yul\":2992:3019   */\n      mstore\n        /* \"#utility.yul\":2879:3025   */\n      pop\n      pop\n      pop\n      jump\t// out\n        /* \"#utility.yul\":3031:3456   */\n    tag_189:\n        /* \"#utility.yul\":3109:3114   */\n      0x00\n        /* \"#utility.yul\":3134:3200   */\n      tag_274\n        /* \"#utility.yul\":3150:3199   */\n      tag_275\n        /* \"#utility.yul\":3192:3198   */\n      dup5\n        /* \"#utility.yul\":3150:3199   */\n      tag_187\n      jump\t// in\n    tag_275:\n        /* \"#utility.yul\":3134:3200   */\n      tag_186\n      jump\t// in\n    tag_274:\n        /* \"#utility.yul\":3125:3200   */\n      swap1\n      pop\n        /* \"#utility.yul\":3223:3229   */\n      dup3\n        /* \"#utility.yul\":3216:3221   */\n      dup2\n        /* \"#utility.yul\":3209:3230   */\n      mstore\n        /* \"#utility.yul\":3261:3265   */\n      0x20\n        /* \"#utility.yul\":3254:3259   */\n      dup2\n        /* \"#utility.yul\":3250:3266   */\n      add\n        /* \"#utility.yul\":3299:3302   */\n      dup5\n        /* \"#utility.yul\":3290:3296   */\n      dup5\n        /* \"#utility.yul\":3285:3288   */\n      dup5\n        /* \"#utility.yul\":3281:3297   */\n      add\n        /* \"#utility.yul\":3278:3303   */\n      gt\n        /* \"#utility.yul\":3275:3387   */\n      iszero\n      tag_276\n      jumpi\n        /* \"#utility.yul\":3306:3385   */\n      tag_277\n      tag_182\n      jump\t// in\n    tag_277:\n        /* \"#utility.yul\":3275:3387   */\n    tag_276:\n        /* \"#utility.yul\":3396:3450   */\n      tag_278\n        /* \"#utility.yul\":3443:3449   */\n      dup5\n        /* \"#utility.yul\":3438:3441   */\n      dup3\n        /* \"#utility.yul\":3433:3436   */\n      dup6\n        /* \"#utility.yul\":3396:3450   */\n      tag_188\n      jump\t// in\n    tag_278:\n        /* \"#utility.yul\":3115:3456   */\n      pop\n        /* \"#utility.yul\":3031:3456   */\n      swap4\n      swap3\n      pop\n      pop\n      pop\n      jump\t// out\n        /* \"#utility.yul\":3476:3816   */\n    tag_190:\n        /* \"#utility.yul\":3532:3537   */\n      0x00\n        /* \"#utility.yul\":3581:3584   */\n      dup3\n        /* \"#utility.yul\":3574:3578   */\n      0x1f\n        /* \"#utility.yul\":3566:3572   */\n      dup4\n        /* \"#utility.yul\":3562:3579   */\n      add\n        /* \"#utility.yul\":3558:3585   */\n      slt\n        /* \"#utility.yul\":3548:3670   */\n      tag_280\n      jumpi\n        /* \"#utility.yul\":3589:3668   */\n      tag_281\n      tag_181\n      jump\t// in\n    tag_281:\n        /* \"#utility.yul\":3548:3670   */\n    tag_280:\n        /* \"#utility.yul\":3706:3712   */\n      dup2\n        /* \"#utility.yul\":3693:3713   */\n      calldataload\n        /* \"#utility.yul\":3731:3810   */\n      tag_282\n        /* \"#utility.yul\":3806:3809   */\n      dup5\n        /* \"#utility.yul\":3798:3804   */\n      dup3\n        /* \"#utility.yul\":3791:3795   */\n      0x20\n        /* \"#utility.yul\":3783:3789   */\n      dup7\n        /* \"#utility.yul\":3779:3796   */\n      add\n        /* \"#utility.yul\":3731:3810   */\n      tag_189\n      jump\t// in\n    tag_282:\n        /* \"#utility.yul\":3722:3810   */\n      swap2\n      pop\n        /* \"#utility.yul\":3538:3816   */\n      pop\n        /* \"#utility.yul\":3476:3816   */\n      swap3\n      swap2\n      pop\n      pop\n      jump\t// out\n        /* \"#utility.yul\":3822:3899   */\n    tag_191:\n        /* \"#utility.yul\":3859:3866   */\n      0x00\n        /* \"#utility.yul\":3888:3893   */\n      dup2\n        /* \"#utility.yul\":3877:3893   */\n      swap1\n      pop\n        /* \"#utility.yul\":3822:3899   */\n      swap2\n      swap1\n      pop\n      jump\t// out\n        /* \"#utility.yul\":3905:4027   */\n    tag_192:\n        /* \"#utility.yul\":3978:4002   */\n      tag_285\n        /* \"#utility.yul\":3996:4001   */\n      dup2\n        /* \"#utility.yul\":3978:4002   */\n      tag_191\n      jump\t// in\n    tag_285:\n        /* \"#utility.yul\":3971:3976   */\n      dup2\n        /* \"#utility.yul\":3968:4003   */\n      eq\n        /* \"#utility.yul\":3958:4021   */\n      tag_286\n      jumpi\n        /* \"#utility.yul\":4017:4018   */\n      0x00\n        /* \"#utility.yul\":4014:4015   */\n      dup1\n        /* \"#utility.yul\":4007:4019   */\n      revert\n        /* \"#utility.yul\":3958:4021   */\n    tag_286:\n        /* \"#utility.yul\":3905:4027   */\n      pop\n      jump\t// out\n        /* \"#utility.yul\":4033:4172   */\n    tag_193:\n        /* \"#utility.yul\":4079:4084   */\n      0x00\n        /* \"#utility.yul\":4117:4123   */\n      dup2\n        /* \"#utility.yul\":4104:4124   */\n      calldataload\n        /* \"#utility.yul\":4095:4124   */\n      swap1\n      pop\n        /* \"#utility.yul\":4133:4166   */\n      tag_288\n        /* \"#utility.yul\":4160:4165   */\n      dup2\n        /* \"#utility.yul\":4133:4166   */\n      tag_192\n      jump\t// in\n    tag_288:\n        /* \"#utility.yul\":4033:4172   */\n      swap3\n      swap2\n      pop\n      pop\n      jump\t// out\n        /* \"#utility.yul\":4178:4294   */\n    tag_194:\n        /* \"#utility.yul\":4248:4269   */\n      tag_290\n        /* \"#utility.yul\":4263:4268   */\n      dup2\n        /* \"#utility.yul\":4248:4269   */\n      tag_179\n      jump\t// in\n    tag_290:\n        /* \"#utility.yul\":4241:4246   */\n      dup2\n        /* \"#utility.yul\":4238:4270   */\n      eq\n        /* \"#utility.yul\":4228:4288   */\n      tag_291\n      jumpi\n        /* \"#utility.yul\":4284:4285   */\n      0x00\n        /* \"#utility.yul\":4281:4282   */\n      dup1\n        /* \"#utility.yul\":4274:4286   */\n      revert\n        /* \"#utility.yul\":4228:4288   */\n    tag_291:\n        /* \"#utility.yul\":4178:4294   */\n      pop\n      jump\t// out\n        /* \"#utility.yul\":4300:4433   */\n    tag_195:\n        /* \"#utility.yul\":4343:4348   */\n      0x00\n        /* \"#utility.yul\":4381:4387   */\n      dup2\n        /* \"#utility.yul\":4368:4388   */\n      calldataload\n        /* \"#utility.yul\":4359:4388   */\n      swap1\n      pop\n        /* \"#utility.yul\":4397:4427   */\n      tag_293\n        /* \"#utility.yul\":4421:4426   */\n      dup2\n        /* \"#utility.yul\":4397:4427   */\n      tag_194\n      jump\t// in\n    tag_293:\n        /* \"#utility.yul\":4300:4433   */\n      swap3\n      swap2\n      pop\n      pop\n      jump\t// out\n        /* \"#utility.yul\":4439:5378   */\n    tag_26:\n        /* \"#utility.yul\":4532:4538   */\n      0x00\n        /* \"#utility.yul\":4540:4546   */\n      dup1\n        /* \"#utility.yul\":4548:4554   */\n      0x00\n        /* \"#utility.yul\":4556:4562   */\n      dup1\n        /* \"#utility.yul\":4605:4608   */\n      0x80\n        /* \"#utility.yul\":4593:4602   */\n      dup6\n        /* \"#utility.yul\":4584:4591   */\n      dup8\n        /* \"#utility.yul\":4580:4603   */\n      sub\n        /* \"#utility.yul\":4576:4609   */\n      slt\n        /* \"#utility.yul\":4573:4693   */\n      iszero\n      tag_295\n      jumpi\n        /* \"#utility.yul\":4612:4691   */\n      tag_296\n      tag_173\n      jump\t// in\n    tag_296:\n        /* \"#utility.yul\":4573:4693   */\n    tag_295:\n        /* \"#utility.yul\":4732:4733   */\n      0x00\n        /* \"#utility.yul\":4757:4810   */\n      tag_297\n        /* \"#utility.yul\":4802:4809   */\n      dup8\n        /* \"#utility.yul\":4793:4799   */\n      dup3\n        /* \"#utility.yul\":4782:4791   */\n      dup9\n        /* \"#utility.yul\":4778:4800   */\n      add\n        /* \"#utility.yul\":4757:4810   */\n      tag_178\n      jump\t// in\n    tag_297:\n        /* \"#utility.yul\":4747:4810   */\n      swap5\n      pop\n        /* \"#utility.yul\":4703:4820   */\n      pop\n        /* \"#utility.yul\":4887:4889   */\n      0x20\n        /* \"#utility.yul\":4876:4885   */\n      dup6\n        /* \"#utility.yul\":4872:4890   */\n      add\n        /* \"#utility.yul\":4859:4891   */\n      calldataload\n        /* \"#utility.yul\":4918:4936   */\n      0xffffffffffffffff\n        /* \"#utility.yul\":4910:4916   */\n      dup2\n        /* \"#utility.yul\":4907:4937   */\n      gt\n        /* \"#utility.yul\":4904:5021   */\n      iszero\n      tag_298\n      jumpi\n        /* \"#utility.yul\":4940:5019   */\n      tag_299\n      tag_174\n      jump\t// in\n    tag_299:\n        /* \"#utility.yul\":4904:5021   */\n    tag_298:\n        /* \"#utility.yul\":5045:5108   */\n      tag_300\n        /* \"#utility.yul\":5100:5107   */\n      dup8\n        /* \"#utility.yul\":5091:5097   */\n      dup3\n        /* \"#utility.yul\":5080:5089   */\n      dup9\n        /* \"#utility.yul\":5076:5098   */\n      add\n        /* \"#utility.yul\":5045:5108   */\n      tag_190\n      jump\t// in\n    tag_300:\n        /* \"#utility.yul\":5035:5108   */\n      swap4\n      pop\n        /* \"#utility.yul\":4830:5118   */\n      pop\n        /* \"#utility.yul\":5157:5159   */\n      0x40\n        /* \"#utility.yul\":5183:5236   */\n      tag_301\n        /* \"#utility.yul\":5228:5235   */\n      dup8\n        /* \"#utility.yul\":5219:5225   */\n      dup3\n        /* \"#utility.yul\":5208:5217   */\n      dup9\n        /* \"#utility.yul\":5204:5226   */\n      add\n        /* \"#utility.yul\":5183:5236   */\n      tag_193\n      jump\t// in\n    tag_301:\n        /* \"#utility.yul\":5173:5236   */\n      swap3\n      pop\n        /* \"#utility.yul\":5128:5246   */\n      pop\n        /* \"#utility.yul\":5285:5287   */\n      0x60\n        /* \"#utility.yul\":5311:5361   */\n      tag_302\n        /* \"#utility.yul\":5353:5360   */\n      dup8\n        /* \"#utility.yul\":5344:5350   */\n      dup3\n        /* \"#utility.yul\":5333:5342   */\n      dup9\n        /* \"#utility.yul\":5329:5351   */\n      add\n        /* \"#utility.yul\":5311:5361   */\n      tag_195\n      jump\t// in\n    tag_302:\n        /* \"#utility.yul\":5301:5361   */\n      swap2\n      pop\n        /* \"#utility.yul\":5256:5371   */\n      pop\n        /* \"#utility.yul\":4439:5378   */\n      swap3\n      swap6\n      swap2\n      swap5\n      pop\n      swap3\n      pop\n      jump\t// out\n        /* \"#utility.yul\":5384:5713   */\n    tag_31:\n        /* \"#utility.yul\":5443:5449   */\n      0x00\n        /* \"#utility.yul\":5492:5494   */\n      0x20\n        /* \"#utility.yul\":5480:5489   */\n      dup3\n        /* \"#utility.yul\":5471:5478   */\n      dup5\n        /* \"#utility.yul\":5467:5490   */\n      sub\n        /* \"#utility.yul\":5463:5495   */\n      slt\n        /* \"#utility.yul\":5460:5579   */\n      iszero\n      tag_304\n      jumpi\n        /* \"#utility.yul\":5498:5577   */\n      tag_305\n      tag_173\n      jump\t// in\n    tag_305:\n        /* \"#utility.yul\":5460:5579   */\n    tag_304:\n        /* \"#utility.yul\":5618:5619   */\n      0x00\n        /* \"#utility.yul\":5643:5696   */\n      tag_306\n        /* \"#utility.yul\":5688:5695   */\n      dup5\n        /* \"#utility.yul\":5679:5685   */\n      dup3\n        /* \"#utility.yul\":5668:5677   */\n      dup6\n        /* \"#utility.yul\":5664:5686   */\n      add\n        /* \"#utility.yul\":5643:5696   */\n      tag_193\n      jump\t// in\n    tag_306:\n        /* \"#utility.yul\":5633:5696   */\n      swap2\n      pop\n        /* \"#utility.yul\":5589:5706   */\n      pop\n        /* \"#utility.yul\":5384:5713   */\n      swap3\n      swap2\n      pop\n      pop\n      jump\t// out\n        /* \"#utility.yul\":5719:5837   */\n    tag_196:\n        /* \"#utility.yul\":5806:5830   */\n      tag_308\n        /* \"#utility.yul\":5824:5829   */\n      dup2\n        /* \"#utility.yul\":5806:5830   */\n      tag_176\n      jump\t// in\n    tag_308:\n        /* \"#utility.yul\":5801:5804   */\n      dup3\n        /* \"#utility.yul\":5794:5831   */\n      mstore\n        /* \"#utility.yul\":5719:5837   */\n      pop\n      pop\n      jump\t// out\n        /* \"#utility.yul\":5843:5942   */\n    tag_197:\n        /* \"#utility.yul\":5895:5901   */\n      0x00\n        /* \"#utility.yul\":5929:5934   */\n      dup2\n        /* \"#utility.yul\":5923:5935   */\n      mload\n        /* \"#utility.yul\":5913:5935   */\n      swap1\n      pop\n        /* \"#utility.yul\":5843:5942   */\n      swap2\n      swap1\n      pop\n      jump\t// out\n        /* \"#utility.yul\":5948:6117   */\n    tag_198:\n        /* \"#utility.yul\":6032:6043   */\n      0x00\n        /* \"#utility.yul\":6066:6072   */\n      dup3\n        /* \"#utility.yul\":6061:6064   */\n      dup3\n        /* \"#utility.yul\":6054:6073   */\n      mstore\n        /* \"#utility.yul\":6106:6110   */\n      0x20\n        /* \"#utility.yul\":6101:6104   */\n      dup3\n        /* \"#utility.yul\":6097:6111   */\n      add\n        /* \"#utility.yul\":6082:6111   */\n      swap1\n      pop\n        /* \"#utility.yul\":5948:6117   */\n      swap3\n      swap2\n      pop\n      pop\n      jump\t// out\n        /* \"#utility.yul\":6123:6369   */\n    tag_199:\n        /* \"#utility.yul\":6204:6205   */\n      0x00\n        /* \"#utility.yul\":6214:6327   */\n    tag_312:\n        /* \"#utility.yul\":6228:6234   */\n      dup4\n        /* \"#utility.yul\":6225:6226   */\n      dup2\n        /* \"#utility.yul\":6222:6235   */\n      lt\n        /* \"#utility.yul\":6214:6327   */\n      iszero\n      tag_314\n      jumpi\n        /* \"#utility.yul\":6313:6314   */\n      dup1\n        /* \"#utility.yul\":6308:6311   */\n      dup3\n        /* \"#utility.yul\":6304:6315   */\n      add\n        /* \"#utility.yul\":6298:6316   */\n      mload\n        /* \"#utility.yul\":6294:6295   */\n      dup2\n        /* \"#utility.yul\":6289:6292   */\n      dup5\n        /* \"#utility.yul\":6285:6296   */\n      add\n        /* \"#utility.yul\":6278:6317   */\n      mstore\n        /* \"#utility.yul\":6250:6252   */\n      0x20\n        /* \"#utility.yul\":6247:6248   */\n      dup2\n        /* \"#utility.yul\":6243:6253   */\n      add\n        /* \"#utility.yul\":6238:6253   */\n      swap1\n      pop\n        /* \"#utility.yul\":6214:6327   */\n      jump(tag_312)\n    tag_314:\n        /* \"#utility.yul\":6361:6362   */\n      0x00\n        /* \"#utility.yul\":6352:6358   */\n      dup5\n        /* \"#utility.yul\":6347:6350   */\n      dup5\n        /* \"#utility.yul\":6343:6359   */\n      add\n        /* \"#utility.yul\":6336:6363   */\n      mstore\n        /* \"#utility.yul\":6185:6369   */\n      pop\n        /* \"#utility.yul\":6123:6369   */\n      pop\n      pop\n      pop\n      jump\t// out\n        /* \"#utility.yul\":6375:6752   */\n    tag_200:\n        /* \"#utility.yul\":6463:6466   */\n      0x00\n        /* \"#utility.yul\":6491:6530   */\n      tag_316\n        /* \"#utility.yul\":6524:6529   */\n      dup3\n        /* \"#utility.yul\":6491:6530   */\n      tag_197\n      jump\t// in\n    tag_316:\n        /* \"#utility.yul\":6546:6617   */\n      tag_317\n        /* \"#utility.yul\":6610:6616   */\n      dup2\n        /* \"#utility.yul\":6605:6608   */\n      dup6\n        /* \"#utility.yul\":6546:6617   */\n      tag_198\n      jump\t// in\n    tag_317:\n        /* \"#utility.yul\":6539:6617   */\n      swap4\n      pop\n        /* \"#utility.yul\":6626:6691   */\n      tag_318\n        /* \"#utility.yul\":6684:6690   */\n      dup2\n        /* \"#utility.yul\":6679:6682   */\n      dup6\n        /* \"#utility.yul\":6672:6676   */\n      0x20\n        /* \"#utility.yul\":6665:6670   */\n      dup7\n        /* \"#utility.yul\":6661:6677   */\n      add\n        /* \"#utility.yul\":6626:6691   */\n      tag_199\n      jump\t// in\n    tag_318:\n        /* \"#utility.yul\":6716:6745   */\n      tag_319\n        /* \"#utility.yul\":6738:6744   */\n      dup2\n        /* \"#utility.yul\":6716:6745   */\n      tag_183\n      jump\t// in\n    tag_319:\n        /* \"#utility.yul\":6711:6714   */\n      dup5\n        /* \"#utility.yul\":6707:6746   */\n      add\n        /* \"#utility.yul\":6700:6746   */\n      swap2\n      pop\n        /* \"#utility.yul\":6467:6752   */\n      pop\n        /* \"#utility.yul\":6375:6752   */\n      swap3\n      swap2\n      pop\n      pop\n      jump\t// out\n        /* \"#utility.yul\":6758:6876   */\n    tag_201:\n        /* \"#utility.yul\":6845:6869   */\n      tag_321\n        /* \"#utility.yul\":6863:6868   */\n      dup2\n        /* \"#utility.yul\":6845:6869   */\n      tag_191\n      jump\t// in\n    tag_321:\n        /* \"#utility.yul\":6840:6843   */\n      dup3\n        /* \"#utility.yul\":6833:6870   */\n      mstore\n        /* \"#utility.yul\":6758:6876   */\n      pop\n      pop\n      jump\t// out\n        /* \"#utility.yul\":6882:7514   */\n    tag_34:\n        /* \"#utility.yul\":7073:7077   */\n      0x00\n        /* \"#utility.yul\":7111:7114   */\n      0x80\n        /* \"#utility.yul\":7100:7109   */\n      dup3\n        /* \"#utility.yul\":7096:7115   */\n      add\n        /* \"#utility.yul\":7088:7115   */\n      swap1\n      pop\n        /* \"#utility.yul\":7125:7196   */\n      tag_323\n        /* \"#utility.yul\":7193:7194   */\n      0x00\n        /* \"#utility.yul\":7182:7191   */\n      dup4\n        /* \"#utility.yul\":7178:7195   */\n      add\n        /* \"#utility.yul\":7169:7175   */\n      dup8\n        /* \"#utility.yul\":7125:7196   */\n      tag_196\n      jump\t// in\n    tag_323:\n        /* \"#utility.yul\":7243:7252   */\n      dup2\n        /* \"#utility.yul\":7237:7241   */\n      dup2\n        /* \"#utility.yul\":7233:7253   */\n      sub\n        /* \"#utility.yul\":7228:7230   */\n      0x20\n        /* \"#utility.yul\":7217:7226   */\n      dup4\n        /* \"#utility.yul\":7213:7231   */\n      add\n        /* \"#utility.yul\":7206:7254   */\n      mstore\n        /* \"#utility.yul\":7271:7349   */\n      tag_324\n        /* \"#utility.yul\":7344:7348   */\n      dup2\n        /* \"#utility.yul\":7335:7341   */\n      dup7\n        /* \"#utility.yul\":7271:7349   */\n      tag_200\n      jump\t// in\n    tag_324:\n        /* \"#utility.yul\":7263:7349   */\n      swap1\n      pop\n        /* \"#utility.yul\":7359:7431   */\n      tag_325\n        /* \"#utility.yul\":7427:7429   */\n      0x40\n        /* \"#utility.yul\":7416:7425   */\n      dup4\n        /* \"#utility.yul\":7412:7430   */\n      add\n        /* \"#utility.yul\":7403:7409   */\n      dup6\n        /* \"#utility.yul\":7359:7431   */\n      tag_201\n      jump\t// in\n    tag_325:\n        /* \"#utility.yul\":7441:7507   */\n      tag_326\n        /* \"#utility.yul\":7503:7505   */\n      0x60\n        /* \"#utility.yul\":7492:7501   */\n      dup4\n        /* \"#utility.yul\":7488:7506   */\n      add\n        /* \"#utility.yul\":7479:7485   */\n      dup5\n        /* \"#utility.yul\":7441:7507   */\n      tag_180\n      jump\t// in\n    tag_326:\n        /* \"#utility.yul\":6882:7514   */\n      swap6\n      swap5\n      pop\n      pop\n      pop\n      pop\n      pop\n      jump\t// out\n        /* \"#utility.yul\":7520:7628   */\n    tag_202:\n        /* \"#utility.yul\":7597:7621   */\n      tag_328\n        /* \"#utility.yul\":7615:7620   */\n      dup2\n        /* \"#utility.yul\":7597:7621   */\n      tag_176\n      jump\t// in\n    tag_328:\n        /* \"#utility.yul\":7592:7595   */\n      dup3\n        /* \"#utility.yul\":7585:7622   */\n      mstore\n        /* \"#utility.yul\":7520:7628   */\n      pop\n      pop\n      jump\t// out\n        /* \"#utility.yul\":7634:7793   */\n    tag_203:\n        /* \"#utility.yul\":7708:7719   */\n      0x00\n        /* \"#utility.yul\":7742:7748   */\n      dup3\n        /* \"#utility.yul\":7737:7740   */\n      dup3\n        /* \"#utility.yul\":7730:7749   */\n      mstore\n        /* \"#utility.yul\":7782:7786   */\n      0x20\n        /* \"#utility.yul\":7777:7780   */\n      dup3\n        /* \"#utility.yul\":7773:7787   */\n      add\n        /* \"#utility.yul\":7758:7787   */\n      swap1\n      pop\n        /* \"#utility.yul\":7634:7793   */\n      swap3\n      swap2\n      pop\n      pop\n      jump\t// out\n        /* \"#utility.yul\":7799:8156   */\n    tag_204:\n        /* \"#utility.yul\":7877:7880   */\n      0x00\n        /* \"#utility.yul\":7905:7944   */\n      tag_331\n        /* \"#utility.yul\":7938:7943   */\n      dup3\n        /* \"#utility.yul\":7905:7944   */\n      tag_197\n      jump\t// in\n    tag_331:\n        /* \"#utility.yul\":7960:8021   */\n      tag_332\n        /* \"#utility.yul\":8014:8020   */\n      dup2\n        /* \"#utility.yul\":8009:8012   */\n      dup6\n        /* \"#utility.yul\":7960:8021   */\n      tag_203\n      jump\t// in\n    tag_332:\n        /* \"#utility.yul\":7953:8021   */\n      swap4\n      pop\n        /* \"#utility.yul\":8030:8095   */\n      tag_333\n        /* \"#utility.yul\":8088:8094   */\n      dup2\n        /* \"#utility.yul\":8083:8086   */\n      dup6\n        /* \"#utility.yul\":8076:8080   */\n      0x20\n        /* \"#utility.yul\":8069:8074   */\n      dup7\n        /* \"#utility.yul\":8065:8081   */\n      add\n        /* \"#utility.yul\":8030:8095   */\n      tag_199\n      jump\t// in\n    tag_333:\n        /* \"#utility.yul\":8120:8149   */\n      tag_334\n        /* \"#utility.yul\":8142:8148   */\n      dup2\n        /* \"#utility.yul\":8120:8149   */\n      tag_183\n      jump\t// in\n    tag_334:\n        /* \"#utility.yul\":8115:8118   */\n      dup5\n        /* \"#utility.yul\":8111:8150   */\n      add\n        /* \"#utility.yul\":8104:8150   */\n      swap2\n      pop\n        /* \"#utility.yul\":7881:8156   */\n      pop\n        /* \"#utility.yul\":7799:8156   */\n      swap3\n      swap2\n      pop\n      pop\n      jump\t// out\n        /* \"#utility.yul\":8162:8270   */\n    tag_205:\n        /* \"#utility.yul\":8239:8263   */\n      tag_336\n        /* \"#utility.yul\":8257:8262   */\n      dup2\n        /* \"#utility.yul\":8239:8263   */\n      tag_191\n      jump\t// in\n    tag_336:\n        /* \"#utility.yul\":8234:8237   */\n      dup3\n        /* \"#utility.yul\":8227:8264   */\n      mstore\n        /* \"#utility.yul\":8162:8270   */\n      pop\n      pop\n      jump\t// out\n        /* \"#utility.yul\":8276:8375   */\n    tag_206:\n        /* \"#utility.yul\":8347:8368   */\n      tag_338\n        /* \"#utility.yul\":8362:8367   */\n      dup2\n        /* \"#utility.yul\":8347:8368   */\n      tag_179\n      jump\t// in\n    tag_338:\n        /* \"#utility.yul\":8342:8345   */\n      dup3\n        /* \"#utility.yul\":8335:8369   */\n      mstore\n        /* \"#utility.yul\":8276:8375   */\n      pop\n      pop\n      jump\t// out\n        /* \"#utility.yul\":8427:9384   */\n    tag_207:\n        /* \"#utility.yul\":8538:8541   */\n      0x00\n        /* \"#utility.yul\":8574:8578   */\n      0x80\n        /* \"#utility.yul\":8569:8572   */\n      dup4\n        /* \"#utility.yul\":8565:8579   */\n      add\n        /* \"#utility.yul\":8670:8674   */\n      0x00\n        /* \"#utility.yul\":8663:8668   */\n      dup4\n        /* \"#utility.yul\":8659:8675   */\n      add\n        /* \"#utility.yul\":8653:8676   */\n      mload\n        /* \"#utility.yul\":8689:8752   */\n      tag_340\n        /* \"#utility.yul\":8746:8750   */\n      0x00\n        /* \"#utility.yul\":8741:8744   */\n      dup7\n        /* \"#utility.yul\":8737:8751   */\n      add\n        /* \"#utility.yul\":8723:8735   */\n      dup3\n        /* \"#utility.yul\":8689:8752   */\n      tag_202\n      jump\t// in\n    tag_340:\n        /* \"#utility.yul\":8589:8762   */\n      pop\n        /* \"#utility.yul\":8844:8848   */\n      0x20\n        /* \"#utility.yul\":8837:8842   */\n      dup4\n        /* \"#utility.yul\":8833:8849   */\n      add\n        /* \"#utility.yul\":8827:8850   */\n      mload\n        /* \"#utility.yul\":8897:8900   */\n      dup5\n        /* \"#utility.yul\":8891:8895   */\n      dup3\n        /* \"#utility.yul\":8887:8901   */\n      sub\n        /* \"#utility.yul\":8880:8884   */\n      0x20\n        /* \"#utility.yul\":8875:8878   */\n      dup7\n        /* \"#utility.yul\":8871:8885   */\n      add\n        /* \"#utility.yul\":8864:8902   */\n      mstore\n        /* \"#utility.yul\":8923:8996   */\n      tag_341\n        /* \"#utility.yul\":8991:8995   */\n      dup3\n        /* \"#utility.yul\":8977:8989   */\n      dup3\n        /* \"#utility.yul\":8923:8996   */\n      tag_204\n      jump\t// in\n    tag_341:\n        /* \"#utility.yul\":8915:8996   */\n      swap2\n      pop\n        /* \"#utility.yul\":8772:9007   */\n      pop\n        /* \"#utility.yul\":9091:9095   */\n      0x40\n        /* \"#utility.yul\":9084:9089   */\n      dup4\n        /* \"#utility.yul\":9080:9096   */\n      add\n        /* \"#utility.yul\":9074:9097   */\n      mload\n        /* \"#utility.yul\":9110:9173   */\n      tag_342\n        /* \"#utility.yul\":9167:9171   */\n      0x40\n        /* \"#utility.yul\":9162:9165   */\n      dup7\n        /* \"#utility.yul\":9158:9172   */\n      add\n        /* \"#utility.yul\":9144:9156   */\n      dup3\n        /* \"#utility.yul\":9110:9173   */\n      tag_205\n      jump\t// in\n    tag_342:\n        /* \"#utility.yul\":9017:9183   */\n      pop\n        /* \"#utility.yul\":9271:9275   */\n      0x60\n        /* \"#utility.yul\":9264:9269   */\n      dup4\n        /* \"#utility.yul\":9260:9276   */\n      add\n        /* \"#utility.yul\":9254:9277   */\n      mload\n        /* \"#utility.yul\":9290:9347   */\n      tag_343\n        /* \"#utility.yul\":9341:9345   */\n      0x60\n        /* \"#utility.yul\":9336:9339   */\n      dup7\n        /* \"#utility.yul\":9332:9346   */\n      add\n        /* \"#utility.yul\":9318:9330   */\n      dup3\n        /* \"#utility.yul\":9290:9347   */\n      tag_206\n      jump\t// in\n    tag_343:\n        /* \"#utility.yul\":9193:9357   */\n      pop\n        /* \"#utility.yul\":9374:9378   */\n      dup1\n        /* \"#utility.yul\":9367:9378   */\n      swap2\n      pop\n        /* \"#utility.yul\":8543:9384   */\n      pop\n        /* \"#utility.yul\":8427:9384   */\n      swap3\n      swap2\n      pop\n      pop\n      jump\t// out\n        /* \"#utility.yul\":9390:9747   */\n    tag_50:\n        /* \"#utility.yul\":9525:9529   */\n      0x00\n        /* \"#utility.yul\":9563:9565   */\n      0x20\n        /* \"#utility.yul\":9552:9561   */\n      dup3\n        /* \"#utility.yul\":9548:9566   */\n      add\n        /* \"#utility.yul\":9540:9566   */\n      swap1\n      pop\n        /* \"#utility.yul\":9612:9621   */\n      dup2\n        /* \"#utility.yul\":9606:9610   */\n      dup2\n        /* \"#utility.yul\":9602:9622   */\n      sub\n        /* \"#utility.yul\":9598:9599   */\n      0x00\n        /* \"#utility.yul\":9587:9596   */\n      dup4\n        /* \"#utility.yul\":9583:9600   */\n      add\n        /* \"#utility.yul\":9576:9623   */\n      mstore\n        /* \"#utility.yul\":9640:9740   */\n      tag_345\n        /* \"#utility.yul\":9735:9739   */\n      dup2\n        /* \"#utility.yul\":9726:9732   */\n      dup5\n        /* \"#utility.yul\":9640:9740   */\n      tag_207\n      jump\t// in\n    tag_345:\n        /* \"#utility.yul\":9632:9740   */\n      swap1\n      pop\n        /* \"#utility.yul\":9390:9747   */\n      swap3\n      swap2\n      pop\n      pop\n      jump\t// out\n        /* \"#utility.yul\":9753:9975   */\n    tag_61:\n        /* \"#utility.yul\":9846:9850   */\n      0x00\n        /* \"#utility.yul\":9884:9886   */\n      0x20\n        /* \"#utility.yul\":9873:9882   */\n      dup3\n        /* \"#utility.yul\":9869:9887   */\n      add\n        /* \"#utility.yul\":9861:9887   */\n      swap1\n      pop\n        /* \"#utility.yul\":9897:9968   */\n      tag_347\n        /* \"#utility.yul\":9965:9966   */\n      0x00\n        /* \"#utility.yul\":9954:9963   */\n      dup4\n        /* \"#utility.yul\":9950:9967   */\n      add\n        /* \"#utility.yul\":9941:9947   */\n      dup5\n        /* \"#utility.yul\":9897:9968   */\n      tag_201\n      jump\t// in\n    tag_347:\n        /* \"#utility.yul\":9753:9975   */\n      swap3\n      swap2\n      pop\n      pop\n      jump\t// out\n        /* \"#utility.yul\":9981:10161   */\n    tag_72:\n        /* \"#utility.yul\":10029:10106   */\n      0x4e487b7100000000000000000000000000000000000000000000000000000000\n        /* \"#utility.yul\":10026:10027   */\n      0x00\n        /* \"#utility.yul\":10019:10107   */\n      mstore\n        /* \"#utility.yul\":10126:10130   */\n      0x32\n        /* \"#utility.yul\":10123:10124   */\n      0x04\n        /* \"#utility.yul\":10116:10131   */\n      mstore\n        /* \"#utility.yul\":10150:10154   */\n      0x24\n        /* \"#utility.yul\":10147:10148   */\n      0x00\n        /* \"#utility.yul\":10140:10155   */\n      revert\n        /* \"#utility.yul\":10167:10347   */\n    tag_208:\n        /* \"#utility.yul\":10215:10292   */\n      0x4e487b7100000000000000000000000000000000000000000000000000000000\n        /* \"#utility.yul\":10212:10213   */\n      0x00\n        /* \"#utility.yul\":10205:10293   */\n      mstore\n        /* \"#utility.yul\":10312:10316   */\n      0x11\n        /* \"#utility.yul\":10309:10310   */\n      0x04\n        /* \"#utility.yul\":10302:10317   */\n      mstore\n        /* \"#utility.yul\":10336:10340   */\n      0x24\n        /* \"#utility.yul\":10333:10334   */\n      0x00\n        /* \"#utility.yul\":10326:10341   */\n      revert\n        /* \"#utility.yul\":10353:10586   */\n    tag_76:\n        /* \"#utility.yul\":10392:10395   */\n      0x00\n        /* \"#utility.yul\":10415:10439   */\n      tag_351\n        /* \"#utility.yul\":10433:10438   */\n      dup3\n        /* \"#utility.yul\":10415:10439   */\n      tag_191\n      jump\t// in\n    tag_351:\n        /* \"#utility.yul\":10406:10439   */\n      swap2\n      pop\n        /* \"#utility.yul\":10461:10527   */\n      0xffffffffffffffffffffffffffffffffffffffffffffffffffffffffffffffff\n        /* \"#utility.yul\":10454:10459   */\n      dup3\n        /* \"#utility.yul\":10451:10528   */\n      sub\n        /* \"#utility.yul\":10448:10551   */\n      tag_352\n      jumpi\n        /* \"#utility.yul\":10531:10549   */\n      tag_353\n      tag_208\n      jump\t// in\n    tag_353:\n        /* \"#utility.yul\":10448:10551   */\n    tag_352:\n        /* \"#utility.yul\":10578:10579   */\n      0x01\n        /* \"#utility.yul\":10571:10576   */\n      dup3\n        /* \"#utility.yul\":10567:10580   */\n      add\n        /* \"#utility.yul\":10560:10580   */\n      swap1\n      pop\n        /* \"#utility.yul\":10353:10586   */\n      swap2\n      swap1\n      pop\n      jump\t// out\n        /* \"#utility.yul\":10592:10763   */\n    tag_209:\n        /* \"#utility.yul\":10732:10755   */\n      0x596f7520617265206e6f7420746865206f776e65720000000000000000000000\n        /* \"#utility.yul\":10728:10729   */\n      0x00\n        /* \"#utility.yul\":10720:10726   */\n      dup3\n        /* \"#utility.yul\":10716:10730   */\n      add\n        /* \"#utility.yul\":10709:10756   */\n      mstore\n        /* \"#utility.yul\":10592:10763   */\n      pop\n      jump\t// out\n        /* \"#utility.yul\":10769:11135   */\n    tag_210:\n        /* \"#utility.yul\":10911:10914   */\n      0x00\n        /* \"#utility.yul\":10932:10999   */\n      tag_356\n        /* \"#utility.yul\":10996:10998   */\n      0x15\n        /* \"#utility.yul\":10991:10994   */\n      dup4\n        /* \"#utility.yul\":10932:10999   */\n      tag_198\n      jump\t// in\n    tag_356:\n        /* \"#utility.yul\":10925:10999   */\n      swap2\n      pop\n        /* \"#utility.yul\":11008:11101   */\n      tag_357\n        /* \"#utility.yul\":11097:11100   */\n      dup3\n        /* \"#utility.yul\":11008:11101   */\n      tag_209\n      jump\t// in\n    tag_357:\n        /* \"#utility.yul\":11126:11128   */\n      0x20\n        /* \"#utility.yul\":11121:11124   */\n      dup3\n        /* \"#utility.yul\":11117:11129   */\n      add\n        /* \"#utility.yul\":11110:11129   */\n      swap1\n      pop\n        /* \"#utility.yul\":10769:11135   */\n      swap2\n      swap1\n      pop\n      jump\t// out\n        /* \"#utility.yul\":11141:11560   */\n    tag_83:\n        /* \"#utility.yul\":11307:11311   */\n      0x00\n        /* \"#utility.yul\":11345:11347   */\n      0x20\n        /* \"#utility.yul\":11334:11343   */\n      dup3\n        /* \"#utility.yul\":11330:11348   */\n      add\n        /* \"#utility.yul\":11322:11348   */\n      swap1\n      pop\n        /* \"#utility.yul\":11394:11403   */\n      dup2\n        /* \"#utility.yul\":11388:11392   */\n      dup2\n        /* \"#utility.yul\":11384:11404   */\n      sub\n        /* \"#utility.yul\":11380:11381   */\n      0x00\n        /* \"#utility.yul\":11369:11378   */\n      dup4\n        /* \"#utility.yul\":11365:11382   */\n      add\n        /* \"#utility.yul\":11358:11405   */\n      mstore\n        /* \"#utility.yul\":11422:11553   */\n      tag_359\n        /* \"#utility.yul\":11548:11552   */\n      dup2\n        /* \"#utility.yul\":11422:11553   */\n      tag_210\n      jump\t// in\n    tag_359:\n        /* \"#utility.yul\":11414:11553   */\n      swap1\n      pop\n        /* \"#utility.yul\":11141:11560   */\n      swap2\n      swap1\n      pop\n      jump\t// out\n        /* \"#utility.yul\":11566:11746   */\n    tag_211:\n        /* \"#utility.yul\":11614:11691   */\n      0x4e487b7100000000000000000000000000000000000000000000000000000000\n        /* \"#utility.yul\":11611:11612   */\n      0x00\n        /* \"#utility.yul\":11604:11692   */\n      mstore\n        /* \"#utility.yul\":11711:11715   */\n      0x22\n        /* \"#utility.yul\":11708:11709   */\n      0x04\n        /* \"#utility.yul\":11701:11716   */\n      mstore\n        /* \"#utility.yul\":11735:11739   */\n      0x24\n        /* \"#utility.yul\":11732:11733   */\n      0x00\n        /* \"#utility.yul\":11725:11740   */\n      revert\n        /* \"#utility.yul\":11752:12072   */\n    tag_91:\n        /* \"#utility.yul\":11796:11802   */\n      0x00\n        /* \"#utility.yul\":11833:11834   */\n      0x02\n        /* \"#utility.yul\":11827:11831   */\n      dup3\n        /* \"#utility.yul\":11823:11835   */\n      div\n        /* \"#utility.yul\":11813:11835   */\n      swap1\n      pop\n        /* \"#utility.yul\":11880:11881   */\n      0x01\n        /* \"#utility.yul\":11874:11878   */\n      dup3\n        /* \"#utility.yul\":11870:11882   */\n      and\n        /* \"#utility.yul\":11901:11919   */\n      dup1\n        /* \"#utility.yul\":11891:11972   */\n      tag_362\n      jumpi\n        /* \"#utility.yul\":11957:11961   */\n      0x7f\n        /* \"#utility.yul\":11949:11955   */\n      dup3\n        /* \"#utility.yul\":11945:11962   */\n      and\n        /* \"#utility.yul\":11935:11962   */\n      swap2\n      pop\n        /* \"#utility.yul\":11891:11972   */\n    tag_362:\n        /* \"#utility.yul\":12019:12021   */\n      0x20\n        /* \"#utility.yul\":12011:12017   */\n      dup3\n        /* \"#utility.yul\":12008:12022   */\n      lt\n        /* \"#utility.yul\":11988:12006   */\n      dup2\n        /* \"#utility.yul\":11985:12023   */\n      sub\n        /* \"#utility.yul\":11982:12066   */\n      tag_363\n      jumpi\n        /* \"#utility.yul\":12038:12056   */\n      tag_364\n      tag_211\n      jump\t// in\n    tag_364:\n        /* \"#utility.yul\":11982:12066   */\n    tag_363:\n        /* \"#utility.yul\":11803:12072   */\n      pop\n        /* \"#utility.yul\":11752:12072   */\n      swap2\n      swap1\n      pop\n      jump\t// out\n        /* \"#utility.yul\":12078:12219   */\n    tag_212:\n        /* \"#utility.yul\":12127:12131   */\n      0x00\n        /* \"#utility.yul\":12150:12153   */\n      dup2\n        /* \"#utility.yul\":12142:12153   */\n      swap1\n      pop\n        /* \"#utility.yul\":12173:12176   */\n      dup2\n        /* \"#utility.yul\":12170:12171   */\n      0x00\n        /* \"#utility.yul\":12163:12177   */\n      mstore\n        /* \"#utility.yul\":12207:12211   */\n      0x20\n        /* \"#utility.yul\":12204:12205   */\n      0x00\n        /* \"#utility.yul\":12194:12212   */\n      keccak256\n        /* \"#utility.yul\":12186:12212   */\n      swap1\n      pop\n        /* \"#utility.yul\":12078:12219   */\n      swap2\n      swap1\n      pop\n      jump\t// out\n        /* \"#utility.yul\":12225:12318   */\n    tag_213:\n        /* \"#utility.yul\":12262:12268   */\n      0x00\n        /* \"#utility.yul\":12309:12311   */\n      0x20\n        /* \"#utility.yul\":12304:12306   */\n      0x1f\n        /* \"#utility.yul\":12297:12302   */\n      dup4\n        /* \"#utility.yul\":12293:12307   */\n      add\n        /* \"#utility.yul\":12289:12312   */\n      div\n        /* \"#utility.yul\":12279:12312   */\n      swap1\n      pop\n        /* \"#utility.yul\":12225:12318   */\n      swap2\n      swap1\n      pop\n      jump\t// out\n        /* \"#utility.yul\":12324:12431   */\n    tag_214:\n        /* \"#utility.yul\":12368:12376   */\n      0x00\n        /* \"#utility.yul\":12418:12423   */\n      dup3\n        /* \"#utility.yul\":12412:12416   */\n      dup3\n        /* \"#utility.yul\":12408:12424   */\n      shl\n        /* \"#utility.yul\":12387:12424   */\n      swap1\n      pop\n        /* \"#utility.yul\":12324:12431   */\n      swap3\n      swap2\n      pop\n      pop\n      jump\t// out\n        /* \"#utility.yul\":12437:12830   */\n    tag_215:\n        /* \"#utility.yul\":12506:12512   */\n      0x00\n        /* \"#utility.yul\":12556:12557   */\n      0x08\n        /* \"#utility.yul\":12544:12554   */\n      dup4\n        /* \"#utility.yul\":12540:12558   */\n      mul\n        /* \"#utility.yul\":12579:12676   */\n      tag_369\n        /* \"#utility.yul\":12609:12675   */\n      0xffffffffffffffffffffffffffffffffffffffffffffffffffffffffffffffff\n        /* \"#utility.yul\":12598:12607   */\n      dup3\n        /* \"#utility.yul\":12579:12676   */\n      tag_214\n      jump\t// in\n    tag_369:\n        /* \"#utility.yul\":12697:12736   */\n      tag_370\n        /* \"#utility.yul\":12727:12735   */\n      dup7\n        /* \"#utility.yul\":12716:12725   */\n      dup4\n        /* \"#utility.yul\":12697:12736   */\n      tag_214\n      jump\t// in\n    tag_370:\n        /* \"#utility.yul\":12685:12736   */\n      swap6\n      pop\n        /* \"#utility.yul\":12769:12773   */\n      dup1\n        /* \"#utility.yul\":12765:12774   */\n      not\n        /* \"#utility.yul\":12758:12763   */\n      dup5\n        /* \"#utility.yul\":12754:12775   */\n      and\n        /* \"#utility.yul\":12745:12775   */\n      swap4\n      pop\n        /* \"#utility.yul\":12818:12822   */\n      dup1\n        /* \"#utility.yul\":12808:12816   */\n      dup7\n        /* \"#utility.yul\":12804:12823   */\n      and\n        /* \"#utility.yul\":12797:12802   */\n      dup5\n        /* \"#utility.yul\":12794:12824   */\n      or\n        /* \"#utility.yul\":12784:12824   */\n      swap3\n      pop\n        /* \"#utility.yul\":12513:12830   */\n      pop\n      pop\n        /* \"#utility.yul\":12437:12830   */\n      swap4\n      swap3\n      pop\n      pop\n      pop\n      jump\t// out\n        /* \"#utility.yul\":12836:12896   */\n    tag_216:\n        /* \"#utility.yul\":12864:12867   */\n      0x00\n        /* \"#utility.yul\":12885:12890   */\n      dup2\n        /* \"#utility.yul\":12878:12890   */\n      swap1\n      pop\n        /* \"#utility.yul\":12836:12896   */\n      swap2\n      swap1\n      pop\n      jump\t// out\n        /* \"#utility.yul\":12902:13044   */\n    tag_217:\n        /* \"#utility.yul\":12952:12961   */\n      0x00\n        /* \"#utility.yul\":12985:13038   */\n      tag_373\n        /* \"#utility.yul\":13003:13037   */\n      tag_374\n        /* \"#utility.yul\":13012:13036   */\n      tag_375\n        /* \"#utility.yul\":13030:13035   */\n      dup5\n        /* \"#utility.yul\":13012:13036   */\n      tag_191\n      jump\t// in\n    tag_375:\n        /* \"#utility.yul\":13003:13037   */\n      tag_216\n      jump\t// in\n    tag_374:\n        /* \"#utility.yul\":12985:13038   */\n      tag_191\n      jump\t// in\n    tag_373:\n        /* \"#utility.yul\":12972:13038   */\n      swap1\n      pop\n        /* \"#utility.yul\":12902:13044   */\n      swap2\n      swap1\n      pop\n      jump\t// out\n        /* \"#utility.yul\":13050:13125   */\n    tag_218:\n        /* \"#utility.yul\":13093:13096   */\n      0x00\n        /* \"#utility.yul\":13114:13119   */\n      dup2\n        /* \"#utility.yul\":13107:13119   */\n      swap1\n      pop\n        /* \"#utility.yul\":13050:13125   */\n      swap2\n      swap1\n      pop\n      jump\t// out\n        /* \"#utility.yul\":13131:13400   */\n    tag_219:\n        /* \"#utility.yul\":13241:13280   */\n      tag_378\n        /* \"#utility.yul\":13272:13279   */\n      dup4\n        /* \"#utility.yul\":13241:13280   */\n      tag_217\n      jump\t// in\n    tag_378:\n        /* \"#utility.yul\":13302:13393   */\n      tag_379\n        /* \"#utility.yul\":13351:13392   */\n      tag_380\n        /* \"#utility.yul\":13375:13391   */\n      dup3\n        /* \"#utility.yul\":13351:13392   */\n      tag_218\n      jump\t// in\n    tag_380:\n        /* \"#utility.yul\":13343:13349   */\n      dup5\n        /* \"#utility.yul\":13336:13340   */\n      dup5\n        /* \"#utility.yul\":13330:13341   */\n      sload\n        /* \"#utility.yul\":13302:13393   */\n      tag_215\n      jump\t// in\n    tag_379:\n        /* \"#utility.yul\":13296:13300   */\n      dup3\n        /* \"#utility.yul\":13289:13394   */\n      sstore\n        /* \"#utility.yul\":13207:13400   */\n      pop\n        /* \"#utility.yul\":13131:13400   */\n      pop\n      pop\n      pop\n      jump\t// out\n        /* \"#utility.yul\":13406:13479   */\n    tag_220:\n        /* \"#utility.yul\":13451:13454   */\n      0x00\n        /* \"#utility.yul\":13406:13479   */\n      swap1\n      jump\t// out\n        /* \"#utility.yul\":13485:13674   */\n    tag_221:\n        /* \"#utility.yul\":13562:13594   */\n      tag_383\n      tag_220\n      jump\t// in\n    tag_383:\n        /* \"#utility.yul\":13603:13668   */\n      tag_384\n        /* \"#utility.yul\":13661:13667   */\n      dup2\n        /* \"#utility.yul\":13653:13659   */\n      dup5\n        /* \"#utility.yul\":13647:13651   */\n      dup5\n        /* \"#utility.yul\":13603:13668   */\n      tag_219\n      jump\t// in\n    tag_384:\n        /* \"#utility.yul\":13538:13674   */\n      pop\n        /* \"#utility.yul\":13485:13674   */\n      pop\n      pop\n      jump\t// out\n        /* \"#utility.yul\":13680:13866   */\n    tag_222:\n        /* \"#utility.yul\":13740:13860   */\n    tag_386:\n        /* \"#utility.yul\":13757:13760   */\n      dup2\n        /* \"#utility.yul\":13750:13755   */\n      dup2\n        /* \"#utility.yul\":13747:13761   */\n      lt\n        /* \"#utility.yul\":13740:13860   */\n      iszero\n      tag_388\n      jumpi\n        /* \"#utility.yul\":13811:13850   */\n      tag_389\n        /* \"#utility.yul\":13848:13849   */\n      0x00\n        /* \"#utility.yul\":13841:13846   */\n      dup3\n        /* \"#utility.yul\":13811:13850   */\n      tag_221\n      jump\t// in\n    tag_389:\n        /* \"#utility.yul\":13784:13785   */\n      0x01\n        /* \"#utility.yul\":13777:13782   */\n      dup2\n        /* \"#utility.yul\":13773:13786   */\n      add\n        /* \"#utility.yul\":13764:13786   */\n      swap1\n      pop\n        /* \"#utility.yul\":13740:13860   */\n      jump(tag_386)\n    tag_388:\n        /* \"#utility.yul\":13680:13866   */\n      pop\n      pop\n      jump\t// out\n        /* \"#utility.yul\":13872:14415   */\n    tag_223:\n        /* \"#utility.yul\":13973:13975   */\n      0x1f\n        /* \"#utility.yul\":13968:13971   */\n      dup3\n        /* \"#utility.yul\":13965:13976   */\n      gt\n        /* \"#utility.yul\":13962:14408   */\n      iszero\n      tag_391\n      jumpi\n        /* \"#utility.yul\":14007:14045   */\n      tag_392\n        /* \"#utility.yul\":14039:14044   */\n      dup2\n        /* \"#utility.yul\":14007:14045   */\n      tag_212\n      jump\t// in\n    tag_392:\n        /* \"#utility.yul\":14091:14120   */\n      tag_393\n        /* \"#utility.yul\":14109:14119   */\n      dup5\n        /* \"#utility.yul\":14091:14120   */\n      tag_213\n      jump\t// in\n    tag_393:\n        /* \"#utility.yul\":14081:14089   */\n      dup2\n        /* \"#utility.yul\":14077:14121   */\n      add\n        /* \"#utility.yul\":14274:14276   */\n      0x20\n        /* \"#utility.yul\":14262:14272   */\n      dup6\n        /* \"#utility.yul\":14259:14277   */\n      lt\n        /* \"#utility.yul\":14256:14305   */\n      iszero\n      tag_394\n      jumpi\n        /* \"#utility.yul\":14295:14303   */\n      dup2\n        /* \"#utility.yul\":14280:14303   */\n      swap1\n      pop\n        /* \"#utility.yul\":14256:14305   */\n    tag_394:\n        /* \"#utility.yul\":14318:14398   */\n      tag_395\n        /* \"#utility.yul\":14374:14396   */\n      tag_396\n        /* \"#utility.yul\":14392:14395   */\n      dup6\n        /* \"#utility.yul\":14374:14396   */\n      tag_213\n      jump\t// in\n    tag_396:\n        /* \"#utility.yul\":14364:14372   */\n      dup4\n        /* \"#utility.yul\":14360:14397   */\n      add\n        /* \"#utility.yul\":14347:14358   */\n      dup3\n        /* \"#utility.yul\":14318:14398   */\n      tag_222\n      jump\t// in\n    tag_395:\n        /* \"#utility.yul\":13977:14408   */\n      pop\n      pop\n        /* \"#utility.yul\":13962:14408   */\n    tag_391:\n        /* \"#utility.yul\":13872:14415   */\n      pop\n      pop\n      pop\n      jump\t// out\n        /* \"#utility.yul\":14421:14538   */\n    tag_224:\n        /* \"#utility.yul\":14475:14483   */\n      0x00\n        /* \"#utility.yul\":14525:14530   */\n      dup3\n        /* \"#utility.yul\":14519:14523   */\n      dup3\n        /* \"#utility.yul\":14515:14531   */\n      shr\n        /* \"#utility.yul\":14494:14531   */\n      swap1\n      pop\n        /* \"#utility.yul\":14421:14538   */\n      swap3\n      swap2\n      pop\n      pop\n      jump\t// out\n        /* \"#utility.yul\":14544:14713   */\n    tag_225:\n        /* \"#utility.yul\":14588:14594   */\n      0x00\n        /* \"#utility.yul\":14621:14672   */\n      tag_399\n        /* \"#utility.yul\":14669:14670   */\n      0x00\n        /* \"#utility.yul\":14665:14671   */\n      not\n        /* \"#utility.yul\":14657:14662   */\n      dup5\n        /* \"#utility.yul\":14654:14655   */\n      0x08\n        /* \"#utility.yul\":14650:14663   */\n      mul\n        /* \"#utility.yul\":14621:14672   */\n      tag_224\n      jump\t// in\n    tag_399:\n        /* \"#utility.yul\":14617:14673   */\n      not\n        /* \"#utility.yul\":14702:14706   */\n      dup1\n        /* \"#utility.yul\":14696:14700   */\n      dup4\n        /* \"#utility.yul\":14692:14707   */\n      and\n        /* \"#utility.yul\":14682:14707   */\n      swap2\n      pop\n        /* \"#utility.yul\":14595:14713   */\n      pop\n        /* \"#utility.yul\":14544:14713   */\n      swap3\n      swap2\n      pop\n      pop\n      jump\t// out\n        /* \"#utility.yul\":14718:15013   */\n    tag_226:\n        /* \"#utility.yul\":14794:14798   */\n      0x00\n        /* \"#utility.yul\":14940:14969   */\n      tag_401\n        /* \"#utility.yul\":14965:14968   */\n      dup4\n        /* \"#utility.yul\":14959:14963   */\n      dup4\n        /* \"#utility.yul\":14940:14969   */\n      tag_225\n      jump\t// in\n    tag_401:\n        /* \"#utility.yul\":14932:14969   */\n      swap2\n      pop\n        /* \"#utility.yul\":15002:15005   */\n      dup3\n        /* \"#utility.yul\":14999:15000   */\n      0x02\n        /* \"#utility.yul\":14995:15006   */\n      mul\n        /* \"#utility.yul\":14989:14993   */\n      dup3\n        /* \"#utility.yul\":14986:15007   */\n      or\n        /* \"#utility.yul\":14978:15007   */\n      swap1\n      pop\n        /* \"#utility.yul\":14718:15013   */\n      swap3\n      swap2\n      pop\n      pop\n      jump\t// out\n        /* \"#utility.yul\":15018:16413   */\n    tag_87:\n        /* \"#utility.yul\":15135:15172   */\n      tag_403\n        /* \"#utility.yul\":15168:15171   */\n      dup3\n        /* \"#utility.yul\":15135:15172   */\n      tag_197\n      jump\t// in\n    tag_403:\n        /* \"#utility.yul\":15237:15255   */\n      0xffffffffffffffff\n        /* \"#utility.yul\":15229:15235   */\n      dup2\n        /* \"#utility.yul\":15226:15256   */\n      gt\n        /* \"#utility.yul\":15223:15279   */\n      iszero\n      tag_404\n      jumpi\n        /* \"#utility.yul\":15259:15277   */\n      tag_405\n      tag_184\n      jump\t// in\n    tag_405:\n        /* \"#utility.yul\":15223:15279   */\n    tag_404:\n        /* \"#utility.yul\":15303:15341   */\n      tag_406\n        /* \"#utility.yul\":15335:15339   */\n      dup3\n        /* \"#utility.yul\":15329:15340   */\n      sload\n        /* \"#utility.yul\":15303:15341   */\n      tag_91\n      jump\t// in\n    tag_406:\n        /* \"#utility.yul\":15388:15455   */\n      tag_407\n        /* \"#utility.yul\":15448:15454   */\n      dup3\n        /* \"#utility.yul\":15440:15446   */\n      dup3\n        /* \"#utility.yul\":15434:15438   */\n      dup6\n        /* \"#utility.yul\":15388:15455   */\n      tag_223\n      jump\t// in\n    tag_407:\n        /* \"#utility.yul\":15482:15483   */\n      0x00\n        /* \"#utility.yul\":15506:15510   */\n      0x20\n        /* \"#utility.yul\":15493:15510   */\n      swap1\n      pop\n        /* \"#utility.yul\":15538:15540   */\n      0x1f\n        /* \"#utility.yul\":15530:15536   */\n      dup4\n        /* \"#utility.yul\":15527:15541   */\n      gt\n        /* \"#utility.yul\":15555:15556   */\n      0x01\n        /* \"#utility.yul\":15550:16168   */\n      dup2\n      eq\n      tag_409\n      jumpi\n        /* \"#utility.yul\":16212:16213   */\n      0x00\n        /* \"#utility.yul\":16229:16235   */\n      dup5\n        /* \"#utility.yul\":16226:16303   */\n      iszero\n      tag_410\n      jumpi\n        /* \"#utility.yul\":16278:16287   */\n      dup3\n        /* \"#utility.yul\":16273:16276   */\n      dup8\n        /* \"#utility.yul\":16269:16288   */\n      add\n        /* \"#utility.yul\":16263:16289   */\n      mload\n        /* \"#utility.yul\":16254:16289   */\n      swap1\n      pop\n        /* \"#utility.yul\":16226:16303   */\n    tag_410:\n        /* \"#utility.yul\":16329:16396   */\n      tag_411\n        /* \"#utility.yul\":16389:16395   */\n      dup6\n        /* \"#utility.yul\":16382:16387   */\n      dup3\n        /* \"#utility.yul\":16329:16396   */\n      tag_226\n      jump\t// in\n    tag_411:\n        /* \"#utility.yul\":16323:16327   */\n      dup7\n        /* \"#utility.yul\":16316:16397   */\n      sstore\n        /* \"#utility.yul\":16185:16407   */\n      pop\n        /* \"#utility.yul\":15520:16407   */\n      jump(tag_408)\n        /* \"#utility.yul\":15550:16168   */\n    tag_409:\n        /* \"#utility.yul\":15602:15606   */\n      0x1f\n        /* \"#utility.yul\":15598:15607   */\n      not\n        /* \"#utility.yul\":15590:15596   */\n      dup5\n        /* \"#utility.yul\":15586:15608   */\n      and\n        /* \"#utility.yul\":15636:15673   */\n      tag_412\n        /* \"#utility.yul\":15668:15672   */\n      dup7\n        /* \"#utility.yul\":15636:15673   */\n      tag_212\n      jump\t// in\n    tag_412:\n        /* \"#utility.yul\":15695:15696   */\n      0x00\n        /* \"#utility.yul\":15709:15917   */\n    tag_413:\n        /* \"#utility.yul\":15723:15730   */\n      dup3\n        /* \"#utility.yul\":15720:15721   */\n      dup2\n        /* \"#utility.yul\":15717:15731   */\n      lt\n        /* \"#utility.yul\":15709:15917   */\n      iszero\n      tag_415\n      jumpi\n        /* \"#utility.yul\":15802:15811   */\n      dup5\n        /* \"#utility.yul\":15797:15800   */\n      dup10\n        /* \"#utility.yul\":15793:15812   */\n      add\n        /* \"#utility.yul\":15787:15813   */\n      mload\n        /* \"#utility.yul\":15779:15785   */\n      dup3\n        /* \"#utility.yul\":15772:15814   */\n      sstore\n        /* \"#utility.yul\":15853:15854   */\n      0x01\n        /* \"#utility.yul\":15845:15851   */\n      dup3\n        /* \"#utility.yul\":15841:15855   */\n      add\n        /* \"#utility.yul\":15831:15855   */\n      swap2\n      pop\n        /* \"#utility.yul\":15900:15902   */\n      0x20\n        /* \"#utility.yul\":15889:15898   */\n      dup6\n        /* \"#utility.yul\":15885:15903   */\n      add\n        /* \"#utility.yul\":15872:15903   */\n      swap5\n      pop\n        /* \"#utility.yul\":15746:15750   */\n      0x20\n        /* \"#utility.yul\":15743:15744   */\n      dup2\n        /* \"#utility.yul\":15739:15751   */\n      add\n        /* \"#utility.yul\":15734:15751   */\n      swap1\n      pop\n        /* \"#utility.yul\":15709:15917   */\n      jump(tag_413)\n    tag_415:\n        /* \"#utility.yul\":15945:15951   */\n      dup7\n        /* \"#utility.yul\":15936:15943   */\n      dup4\n        /* \"#utility.yul\":15933:15952   */\n      lt\n        /* \"#utility.yul\":15930:16109   */\n      iszero\n      tag_416\n      jumpi\n        /* \"#utility.yul\":16003:16012   */\n      dup5\n        /* \"#utility.yul\":15998:16001   */\n      dup10\n        /* \"#utility.yul\":15994:16013   */\n      add\n        /* \"#utility.yul\":15988:16014   */\n      mload\n        /* \"#utility.yul\":16046:16094   */\n      tag_417\n        /* \"#utility.yul\":16088:16092   */\n      0x1f\n        /* \"#utility.yul\":16080:16086   */\n      dup10\n        /* \"#utility.yul\":16076:16093   */\n      and\n        /* \"#utility.yul\":16065:16074   */\n      dup3\n        /* \"#utility.yul\":16046:16094   */\n      tag_225\n      jump\t// in\n    tag_417:\n        /* \"#utility.yul\":16038:16044   */\n      dup4\n        /* \"#utility.yul\":16031:16095   */\n      sstore\n        /* \"#utility.yul\":15953:16109   */\n      pop\n        /* \"#utility.yul\":15930:16109   */\n    tag_416:\n        /* \"#utility.yul\":16155:16156   */\n      0x01\n        /* \"#utility.yul\":16151:16152   */\n      0x02\n        /* \"#utility.yul\":16143:16149   */\n      dup9\n        /* \"#utility.yul\":16139:16153   */\n      mul\n        /* \"#utility.yul\":16135:16157   */\n      add\n        /* \"#utility.yul\":16129:16133   */\n      dup9\n        /* \"#utility.yul\":16122:16158   */\n      sstore\n        /* \"#utility.yul\":15557:16168   */\n      pop\n      pop\n      pop\n        /* \"#utility.yul\":15520:16407   */\n    tag_408:\n      pop\n        /* \"#utility.yul\":15110:16413   */\n      pop\n      pop\n      pop\n        /* \"#utility.yul\":15018:16413   */\n      pop\n      pop\n      jump\t// out\n        /* \"#utility.yul\":16419:16596   */\n    tag_227:\n        /* \"#utility.yul\":16511:16522   */\n      0x00\n        /* \"#utility.yul\":16545:16551   */\n      dup3\n        /* \"#utility.yul\":16540:16543   */\n      dup3\n        /* \"#utility.yul\":16533:16552   */\n      mstore\n        /* \"#utility.yul\":16585:16589   */\n      0x20\n        /* \"#utility.yul\":16580:16583   */\n      dup3\n        /* \"#utility.yul\":16576:16590   */\n      add\n        /* \"#utility.yul\":16561:16590   */\n      swap1\n      pop\n        /* \"#utility.yul\":16419:16596   */\n      swap3\n      swap2\n      pop\n      pop\n      jump\t// out\n        /* \"#utility.yul\":16626:17473   */\n    tag_228:\n        /* \"#utility.yul\":16719:16722   */\n      0x00\n        /* \"#utility.yul\":16756:16761   */\n      dup2\n        /* \"#utility.yul\":16750:16762   */\n      sload\n        /* \"#utility.yul\":16785:16821   */\n      tag_420\n        /* \"#utility.yul\":16811:16820   */\n      dup2\n        /* \"#utility.yul\":16785:16821   */\n      tag_91\n      jump\t// in\n    tag_420:\n        /* \"#utility.yul\":16837:16916   */\n      tag_421\n        /* \"#utility.yul\":16909:16915   */\n      dup2\n        /* \"#utility.yul\":16904:16907   */\n      dup7\n        /* \"#utility.yul\":16837:16916   */\n      tag_227\n      jump\t// in\n    tag_421:\n        /* \"#utility.yul\":16830:16916   */\n      swap5\n      pop\n        /* \"#utility.yul\":16947:16948   */\n      0x01\n        /* \"#utility.yul\":16936:16945   */\n      dup3\n        /* \"#utility.yul\":16932:16949   */\n      and\n        /* \"#utility.yul\":16963:16964   */\n      0x00\n        /* \"#utility.yul\":16958:17122   */\n      dup2\n      eq\n      tag_423\n      jumpi\n        /* \"#utility.yul\":17136:17137   */\n      0x01\n        /* \"#utility.yul\":17131:17467   */\n      dup2\n      eq\n      tag_424\n      jumpi\n        /* \"#utility.yul\":16925:17467   */\n      jump(tag_422)\n        /* \"#utility.yul\":16958:17122   */\n    tag_423:\n        /* \"#utility.yul\":17042:17046   */\n      0xff\n        /* \"#utility.yul\":17038:17047   */\n      not\n        /* \"#utility.yul\":17027:17036   */\n      dup4\n        /* \"#utility.yul\":17023:17048   */\n      and\n        /* \"#utility.yul\":17018:17021   */\n      dup7\n        /* \"#utility.yul\":17011:17049   */\n      mstore\n        /* \"#utility.yul\":17102:17108   */\n      dup2\n        /* \"#utility.yul\":17095:17109   */\n      iszero\n        /* \"#utility.yul\":17088:17110   */\n      iszero\n        /* \"#utility.yul\":17082:17086   */\n      0x20\n        /* \"#utility.yul\":17078:17111   */\n      mul\n        /* \"#utility.yul\":17073:17076   */\n      dup7\n        /* \"#utility.yul\":17069:17112   */\n      add\n        /* \"#utility.yul\":17062:17112   */\n      swap4\n      pop\n        /* \"#utility.yul\":16958:17122   */\n      jump(tag_422)\n        /* \"#utility.yul\":17131:17467   */\n    tag_424:\n        /* \"#utility.yul\":17198:17236   */\n      tag_425\n        /* \"#utility.yul\":17230:17235   */\n      dup6\n        /* \"#utility.yul\":17198:17236   */\n      tag_212\n      jump\t// in\n    tag_425:\n        /* \"#utility.yul\":17258:17259   */\n      0x00\n        /* \"#utility.yul\":17272:17426   */\n    tag_426:\n        /* \"#utility.yul\":17286:17292   */\n      dup4\n        /* \"#utility.yul\":17283:17284   */\n      dup2\n        /* \"#utility.yul\":17280:17293   */\n      lt\n        /* \"#utility.yul\":17272:17426   */\n      iszero\n      tag_428\n      jumpi\n        /* \"#utility.yul\":17360:17367   */\n      dup2\n        /* \"#utility.yul\":17354:17368   */\n      sload\n        /* \"#utility.yul\":17350:17351   */\n      dup2\n        /* \"#utility.yul\":17345:17348   */\n      dup10\n        /* \"#utility.yul\":17341:17352   */\n      add\n        /* \"#utility.yul\":17334:17369   */\n      mstore\n        /* \"#utility.yul\":17410:17411   */\n      0x01\n        /* \"#utility.yul\":17401:17408   */\n      dup3\n        /* \"#utility.yul\":17397:17412   */\n      add\n        /* \"#utility.yul\":17386:17412   */\n      swap2\n      pop\n        /* \"#utility.yul\":17308:17312   */\n      0x20\n        /* \"#utility.yul\":17305:17306   */\n      dup2\n        /* \"#utility.yul\":17301:17313   */\n      add\n        /* \"#utility.yul\":17296:17313   */\n      swap1\n      pop\n        /* \"#utility.yul\":17272:17426   */\n      jump(tag_426)\n    tag_428:\n        /* \"#utility.yul\":17455:17456   */\n      dup1\n        /* \"#utility.yul\":17450:17453   */\n      dup9\n        /* \"#utility.yul\":17446:17457   */\n      add\n        /* \"#utility.yul\":17439:17457   */\n      swap6\n      pop\n        /* \"#utility.yul\":17138:17467   */\n      pop\n      pop\n        /* \"#utility.yul\":16925:17467   */\n    tag_422:\n      pop\n        /* \"#utility.yul\":16723:17473   */\n      pop\n      pop\n        /* \"#utility.yul\":16626:17473   */\n      swap3\n      swap2\n      pop\n      pop\n      jump\t// out\n        /* \"#utility.yul\":17479:17593   */\n    tag_229:\n      pop\n      jump\t// out\n        /* \"#utility.yul\":17599:17979   */\n    tag_230:\n        /* \"#utility.yul\":17749:17752   */\n      0x00\n        /* \"#utility.yul\":17770:17844   */\n      tag_431\n        /* \"#utility.yul\":17842:17843   */\n      0x00\n        /* \"#utility.yul\":17837:17840   */\n      dup4\n        /* \"#utility.yul\":17770:17844   */\n      tag_227\n      jump\t// in\n    tag_431:\n        /* \"#utility.yul\":17763:17844   */\n      swap2\n      pop\n        /* \"#utility.yul\":17853:17946   */\n      tag_432\n        /* \"#utility.yul\":17942:17945   */\n      dup3\n        /* \"#utility.yul\":17853:17946   */\n      tag_229\n      jump\t// in\n    tag_432:\n        /* \"#utility.yul\":17971:17972   */\n      0x00\n        /* \"#utility.yul\":17966:17969   */\n      dup3\n        /* \"#utility.yul\":17962:17973   */\n      add\n        /* \"#utility.yul\":17955:17973   */\n      swap1\n      pop\n        /* \"#utility.yul\":17599:17979   */\n      swap2\n      swap1\n      pop\n      jump\t// out\n        /* \"#utility.yul\":17985:18623   */\n    tag_100:\n        /* \"#utility.yul\":18204:18208   */\n      0x00\n        /* \"#utility.yul\":18242:18244   */\n      0x40\n        /* \"#utility.yul\":18231:18240   */\n      dup3\n        /* \"#utility.yul\":18227:18245   */\n      add\n        /* \"#utility.yul\":18219:18245   */\n      swap1\n      pop\n        /* \"#utility.yul\":18291:18300   */\n      dup2\n        /* \"#utility.yul\":18285:18289   */\n      dup2\n        /* \"#utility.yul\":18281:18301   */\n      sub\n        /* \"#utility.yul\":18277:18278   */\n      0x00\n        /* \"#utility.yul\":18266:18275   */\n      dup4\n        /* \"#utility.yul\":18262:18279   */\n      add\n        /* \"#utility.yul\":18255:18302   */\n      mstore\n        /* \"#utility.yul\":18319:18402   */\n      tag_434\n        /* \"#utility.yul\":18397:18401   */\n      dup2\n        /* \"#utility.yul\":18388:18394   */\n      dup5\n        /* \"#utility.yul\":18319:18402   */\n      tag_228\n      jump\t// in\n    tag_434:\n        /* \"#utility.yul\":18311:18402   */\n      swap1\n      pop\n        /* \"#utility.yul\":18449:18458   */\n      dup2\n        /* \"#utility.yul\":18443:18447   */\n      dup2\n        /* \"#utility.yul\":18439:18459   */\n      sub\n        /* \"#utility.yul\":18434:18436   */\n      0x20\n        /* \"#utility.yul\":18423:18432   */\n      dup4\n        /* \"#utility.yul\":18419:18437   */\n      add\n        /* \"#utility.yul\":18412:18460   */\n      mstore\n        /* \"#utility.yul\":18477:18616   */\n      tag_435\n        /* \"#utility.yul\":18611:18615   */\n      dup2\n        /* \"#utility.yul\":18477:18616   */\n      tag_230\n      jump\t// in\n    tag_435:\n        /* \"#utility.yul\":18469:18616   */\n      swap1\n      pop\n        /* \"#utility.yul\":17985:18623   */\n      swap3\n      swap2\n      pop\n      pop\n      jump\t// out\n        /* \"#utility.yul\":18629:18766   */\n    tag_231:\n        /* \"#utility.yul\":18683:18688   */\n      0x00\n        /* \"#utility.yul\":18714:18720   */\n      dup2\n        /* \"#utility.yul\":18708:18721   */\n      mload\n        /* \"#utility.yul\":18699:18721   */\n      swap1\n      pop\n        /* \"#utility.yul\":18730:18760   */\n      tag_437\n        /* \"#utility.yul\":18754:18759   */\n      dup2\n        /* \"#utility.yul\":18730:18760   */\n      tag_194\n      jump\t// in\n    tag_437:\n        /* \"#utility.yul\":18629:18766   */\n      swap3\n      swap2\n      pop\n      pop\n      jump\t// out\n        /* \"#utility.yul\":18772:19117   */\n    tag_104:\n        /* \"#utility.yul\":18839:18845   */\n      0x00\n        /* \"#utility.yul\":18888:18890   */\n      0x20\n        /* \"#utility.yul\":18876:18885   */\n      dup3\n        /* \"#utility.yul\":18867:18874   */\n      dup5\n        /* \"#utility.yul\":18863:18886   */\n      sub\n        /* \"#utility.yul\":18859:18891   */\n      slt\n        /* \"#utility.yul\":18856:18975   */\n      iszero\n      tag_439\n      jumpi\n        /* \"#utility.yul\":18894:18973   */\n      tag_440\n      tag_173\n      jump\t// in\n    tag_440:\n        /* \"#utility.yul\":18856:18975   */\n    tag_439:\n        /* \"#utility.yul\":19014:19015   */\n      0x00\n        /* \"#utility.yul\":19039:19100   */\n      tag_441\n        /* \"#utility.yul\":19092:19099   */\n      dup5\n        /* \"#utility.yul\":19083:19089   */\n      dup3\n        /* \"#utility.yul\":19072:19081   */\n      dup6\n        /* \"#utility.yul\":19068:19090   */\n      add\n        /* \"#utility.yul\":19039:19100   */\n      tag_231\n      jump\t// in\n    tag_441:\n        /* \"#utility.yul\":19029:19100   */\n      swap2\n      pop\n        /* \"#utility.yul\":18985:19110   */\n      pop\n        /* \"#utility.yul\":18772:19117   */\n      swap3\n      swap2\n      pop\n      pop\n      jump\t// out\n        /* \"#utility.yul\":19123:19295   */\n    tag_232:\n        /* \"#utility.yul\":19263:19287   */\n      0x496e76616c69642057616c6c6574204164647265737300000000000000000000\n        /* \"#utility.yul\":19259:19260   */\n      0x00\n        /* \"#utility.yul\":19251:19257   */\n      dup3\n        /* \"#utility.yul\":19247:19261   */\n      add\n        /* \"#utility.yul\":19240:19288   */\n      mstore\n        /* \"#utility.yul\":19123:19295   */\n      pop\n      jump\t// out\n        /* \"#utility.yul\":19301:19667   */\n    tag_233:\n        /* \"#utility.yul\":19443:19446   */\n      0x00\n        /* \"#utility.yul\":19464:19531   */\n      tag_444\n        /* \"#utility.yul\":19528:19530   */\n      0x16\n        /* \"#utility.yul\":19523:19526   */\n      dup4\n        /* \"#utility.yul\":19464:19531   */\n      tag_198\n      jump\t// in\n    tag_444:\n        /* \"#utility.yul\":19457:19531   */\n      swap2\n      pop\n        /* \"#utility.yul\":19540:19633   */\n      tag_445\n        /* \"#utility.yul\":19629:19632   */\n      dup3\n        /* \"#utility.yul\":19540:19633   */\n      tag_232\n      jump\t// in\n    tag_445:\n        /* \"#utility.yul\":19658:19660   */\n      0x20\n        /* \"#utility.yul\":19653:19656   */\n      dup3\n        /* \"#utility.yul\":19649:19661   */\n      add\n        /* \"#utility.yul\":19642:19661   */\n      swap1\n      pop\n        /* \"#utility.yul\":19301:19667   */\n      swap2\n      swap1\n      pop\n      jump\t// out\n        /* \"#utility.yul\":19673:20092   */\n    tag_129:\n        /* \"#utility.yul\":19839:19843   */\n      0x00\n        /* \"#utility.yul\":19877:19879   */\n      0x20\n        /* \"#utility.yul\":19866:19875   */\n      dup3\n        /* \"#utility.yul\":19862:19880   */\n      add\n        /* \"#utility.yul\":19854:19880   */\n      swap1\n      pop\n        /* \"#utility.yul\":19926:19935   */\n      dup2\n        /* \"#utility.yul\":19920:19924   */\n      dup2\n        /* \"#utility.yul\":19916:19936   */\n      sub\n        /* \"#utility.yul\":19912:19913   */\n      0x00\n        /* \"#utility.yul\":19901:19910   */\n      dup4\n        /* \"#utility.yul\":19897:19914   */\n      add\n        /* \"#utility.yul\":19890:19937   */\n      mstore\n        /* \"#utility.yul\":19954:20085   */\n      tag_447\n        /* \"#utility.yul\":20080:20084   */\n      dup2\n        /* \"#utility.yul\":19954:20085   */\n      tag_233\n      jump\t// in\n    tag_447:\n        /* \"#utility.yul\":19946:20085   */\n      swap1\n      pop\n        /* \"#utility.yul\":19673:20092   */\n      swap2\n      swap1\n      pop\n      jump\t// out\n        /* \"#utility.yul\":20098:20267   */\n    tag_234:\n        /* \"#utility.yul\":20238:20259   */\n      0x5573657220646f6573206e6f7420657869737400000000000000000000000000\n        /* \"#utility.yul\":20234:20235   */\n      0x00\n        /* \"#utility.yul\":20226:20232   */\n      dup3\n        /* \"#utility.yul\":20222:20236   */\n      add\n        /* \"#utility.yul\":20215:20260   */\n      mstore\n        /* \"#utility.yul\":20098:20267   */\n      pop\n      jump\t// out\n        /* \"#utility.yul\":20273:20639   */\n    tag_235:\n        /* \"#utility.yul\":20415:20418   */\n      0x00\n        /* \"#utility.yul\":20436:20503   */\n      tag_450\n        /* \"#utility.yul\":20500:20502   */\n      0x13\n        /* \"#utility.yul\":20495:20498   */\n      dup4\n        /* \"#utility.yul\":20436:20503   */\n      tag_198\n      jump\t// in\n    tag_450:\n        /* \"#utility.yul\":20429:20503   */\n      swap2\n      pop\n        /* \"#utility.yul\":20512:20605   */\n      tag_451\n        /* \"#utility.yul\":20601:20604   */\n      dup3\n        /* \"#utility.yul\":20512:20605   */\n      tag_234\n      jump\t// in\n    tag_451:\n        /* \"#utility.yul\":20630:20632   */\n      0x20\n        /* \"#utility.yul\":20625:20628   */\n      dup3\n        /* \"#utility.yul\":20621:20633   */\n      add\n        /* \"#utility.yul\":20614:20633   */\n      swap1\n      pop\n        /* \"#utility.yul\":20273:20639   */\n      swap2\n      swap1\n      pop\n      jump\t// out\n        /* \"#utility.yul\":20645:21064   */\n    tag_157:\n        /* \"#utility.yul\":20811:20815   */\n      0x00\n        /* \"#utility.yul\":20849:20851   */\n      0x20\n        /* \"#utility.yul\":20838:20847   */\n      dup3\n        /* \"#utility.yul\":20834:20852   */\n      add\n        /* \"#utility.yul\":20826:20852   */\n      swap1\n      pop\n        /* \"#utility.yul\":20898:20907   */\n      dup2\n        /* \"#utility.yul\":20892:20896   */\n      dup2\n        /* \"#utility.yul\":20888:20908   */\n      sub\n        /* \"#utility.yul\":20884:20885   */\n      0x00\n        /* \"#utility.yul\":20873:20882   */\n      dup4\n        /* \"#utility.yul\":20869:20886   */\n      add\n        /* \"#utility.yul\":20862:20909   */\n      mstore\n        /* \"#utility.yul\":20926:21057   */\n      tag_453\n        /* \"#utility.yul\":21052:21056   */\n      dup2\n        /* \"#utility.yul\":20926:21057   */\n      tag_235\n      jump\t// in\n    tag_453:\n        /* \"#utility.yul\":20918:21057   */\n      swap1\n      pop\n        /* \"#utility.yul\":20645:21064   */\n      swap2\n      swap1\n      pop\n      jump\t// out\n        /* \"#utility.yul\":21070:21261   */\n    tag_170:\n        /* \"#utility.yul\":21110:21113   */\n      0x00\n        /* \"#utility.yul\":21129:21149   */\n      tag_455\n        /* \"#utility.yul\":21147:21148   */\n      dup3\n        /* \"#utility.yul\":21129:21149   */\n      tag_191\n      jump\t// in\n    tag_455:\n        /* \"#utility.yul\":21124:21149   */\n      swap2\n      pop\n        /* \"#utility.yul\":21163:21183   */\n      tag_456\n        /* \"#utility.yul\":21181:21182   */\n      dup4\n        /* \"#utility.yul\":21163:21183   */\n      tag_191\n      jump\t// in\n    tag_456:\n        /* \"#utility.yul\":21158:21183   */\n      swap3\n      pop\n        /* \"#utility.yul\":21206:21207   */\n      dup3\n        /* \"#utility.yul\":21203:21204   */\n      dup3\n        /* \"#utility.yul\":21199:21208   */\n      add\n        /* \"#utility.yul\":21192:21208   */\n      swap1\n      pop\n        /* \"#utility.yul\":21227:21230   */\n      dup1\n        /* \"#utility.yul\":21224:21225   */\n      dup3\n        /* \"#utility.yul\":21221:21231   */\n      gt\n        /* \"#utility.yul\":21218:21254   */\n      iszero\n      tag_457\n      jumpi\n        /* \"#utility.yul\":21234:21252   */\n      tag_458\n      tag_208\n      jump\t// in\n    tag_458:\n        /* \"#utility.yul\":21218:21254   */\n    tag_457:\n        /* \"#utility.yul\":21070:21261   */\n      swap3\n      swap2\n      pop\n      pop\n      jump\t// out\n\n    auxdata: 0xa264697066735822122050e72ecabbabad8b71a1ee1eb03887b37c17a9d4e57aee8713247123870e82c964736f6c63430008100033\n}\n",
				"bytecode": {
					"linkReferences": {
						"contracts/Test1.sol": {
							"StringUtils": [
								{
									"length": 20,
									"start": 1643
								}
							]
						}
					},
					"object": "608060405234801561001057600080fd5b50336000806101000a81548173ffffffffffffffffffffffffffffffffffffffff021916908373ffffffffffffffffffffffffffffffffffffffff160217905550611964806100606000396000f3fe6080604052600436106100915760003560e01c80635b83b7f1116100595780635b83b7f11461019557806369c212f6146101d25780636f7bc9be1461020f57806370a082311461024f578063d7bed4bc1461028c57610091565b80630e666e49146100965780631a695230146100d3578063280879e7146100ef578063365b98b2146101185780634140eb0d14610158575b600080fd5b3480156100a257600080fd5b506100bd60048036038101906100b89190610e45565b6102b5565b6040516100ca9190610e8d565b60405180910390f35b6100ed60048036038101906100e89190610e45565b61036a565b005b3480156100fb57600080fd5b5061011660048036038101906101119190611050565b610376565b005b34801561012457600080fd5b5061013f600480360381019061013a91906110d3565b6104f7565b60405161014f949392919061119d565b60405180910390f35b34801561016457600080fd5b5061017f600480360381019061017a9190610e45565b6105ec565b60405161018c9190610e8d565b60405180910390f35b3480156101a157600080fd5b506101bc60048036038101906101b79190610e45565b610607565b6040516101c99190610e8d565b60405180910390f35b3480156101de57600080fd5b506101f960048036038101906101f49190610e45565b6106da565b60405161020691906112c3565b60405180910390f35b34801561021b57600080fd5b5061023660048036038101906102319190610e45565b61093d565b604051610246949392919061119d565b60405180910390f35b34801561025b57600080fd5b5061027660048036038101906102719190610e45565b610a22565b60405161028391906112e5565b60405180910390f35b34801561029857600080fd5b506102b360048036038101906102ae9190610e45565b610afc565b005b600080600090505b60018054905081101561035f578273ffffffffffffffffffffffffffffffffffffffff16600182815481106102f5576102f4611300565b5b906000526020600020906004020160000160009054906101000a900473ffffffffffffffffffffffffffffffffffffffff1673ffffffffffffffffffffffffffffffffffffffff160361034c576001915050610365565b80806103579061135e565b9150506102bd565b50600090505b919050565b61037381610cb7565b50565b60008054906101000a900473ffffffffffffffffffffffffffffffffffffffff1673ffffffffffffffffffffffffffffffffffffffff163373ffffffffffffffffffffffffffffffffffffffff1614610404576040517f08c379a00000000000000000000000000000000000000000000000000000000081526004016103fb906113f2565b60405180910390fd5b600160405180608001604052808673ffffffffffffffffffffffffffffffffffffffff168152602001858152602001848152602001831515815250908060018154018082558091505060019003906000526020600020906004020160009091909190915060008201518160000160006101000a81548173ffffffffffffffffffffffffffffffffffffffff021916908373ffffffffffffffffffffffffffffffffffffffff16021790555060208201518160010190816104c4919061161e565b506040820151816002015560608201518160030160006101000a81548160ff021916908315150217905550505050505050565b6001818154811061050757600080fd5b90600052602060002090600402016000915090508060000160009054906101000a900473ffffffffffffffffffffffffffffffffffffffff169080600101805461055090611441565b80601f016020809104026020016040519081016040528092919081815260200182805461057c90611441565b80156105c95780601f1061059e576101008083540402835291602001916105c9565b820191906000526020600020905b8154815290600101906020018083116105ac57829003601f168201915b5050505050908060020154908060030160009054906101000a900460ff16905084565b6000806105f8836106da565b90508060600151915050919050565b600073__$08c12a1e75e73256f67245938a08682233$__6346bdca9a600260008573ffffffffffffffffffffffffffffffffffffffff1673ffffffffffffffffffffffffffffffffffffffff1681526020019081526020016000206001016040518263ffffffff1660e01b815260040161068191906117ab565b602060405180830381865af415801561069e573d6000803e3d6000fd5b505050506040513d601f19601f820116820180604052508101906106c291906117f5565b156106d057600090506106d5565b600190505b919050565b6106e2610d93565b60005b6001805490508110156108fc578273ffffffffffffffffffffffffffffffffffffffff166001828154811061071d5761071c611300565b5b906000526020600020906004020160000160009054906101000a900473ffffffffffffffffffffffffffffffffffffffff1673ffffffffffffffffffffffffffffffffffffffff16036108e957600180828154811061077f5761077e611300565b5b906000526020600020906004020160030160006101000a81548160ff021916908315150217905550600181815481106107bb576107ba611300565b5b90600052602060002090600402016040518060800160405290816000820160009054906101000a900473ffffffffffffffffffffffffffffffffffffffff1673ffffffffffffffffffffffffffffffffffffffff1673ffffffffffffffffffffffffffffffffffffffff16815260200160018201805461083a90611441565b80601f016020809104026020016040519081016040528092919081815260200182805461086690611441565b80156108b35780601f10610888576101008083540402835291602001916108b3565b820191906000526020600020905b81548152906001019060200180831161089657829003601f168201915b50505050508152602001600282015481526020016003820160009054906101000a900460ff161515151581525050915050610938565b80806108f49061135e565b9150506106e5565b506040517f08c379a000000000000000000000000000000000000000000000000000000000815260040161092f9061186e565b60405180910390fd5b919050565b60026020528060005260406000206000915090508060000160009054906101000a900473ffffffffffffffffffffffffffffffffffffffff169080600101805461098690611441565b80601f01602080910402602001604051908101604052809291908181526020018280546109b290611441565b80156109ff5780601f106109d4576101008083540402835291602001916109ff565b820191906000526020600020905b8154815290600101906020018083116109e257829003601f168201915b5050505050908060020154908060030160009054906101000a900460ff16905084565b600080600090505b600180549050811015610af0578273ffffffffffffffffffffffffffffffffffffffff1660018281548110610a6257610a61611300565b5b906000526020600020906004020160000160009054906101000a900473ffffffffffffffffffffffffffffffffffffffff1673ffffffffffffffffffffffffffffffffffffffff1603610add5760018181548110610ac357610ac2611300565b5b906000526020600020906004020160020154915050610af7565b8080610ae89061135e565b915050610a2a565b506103e790505b919050565b60008054906101000a900473ffffffffffffffffffffffffffffffffffffffff1673ffffffffffffffffffffffffffffffffffffffff163373ffffffffffffffffffffffffffffffffffffffff1614610b8a576040517f08c379a0000000000000000000000000000000000000000000000000000000008152600401610b81906113f2565b60405180910390fd5b6000610b95826106da565b9050610ba481600001516102b5565b15610c785780600260008473ffffffffffffffffffffffffffffffffffffffff1673ffffffffffffffffffffffffffffffffffffffff16815260200190815260200160002060008201518160000160006101000a81548173ffffffffffffffffffffffffffffffffffffffff021916908373ffffffffffffffffffffffffffffffffffffffff1602179055506020820151816001019081610c45919061161e565b506040820151816002015560608201518160030160006101000a81548160ff021916908315150217905550905050610cb3565b6040517f08c379a0000000000000000000000000000000000000000000000000000000008152600401610caa906118da565b60405180910390fd5b5050565b60005b600180549050811015610d8f578173ffffffffffffffffffffffffffffffffffffffff1660018281548110610cf257610cf1611300565b5b906000526020600020906004020160000160009054906101000a900473ffffffffffffffffffffffffffffffffffffffff1673ffffffffffffffffffffffffffffffffffffffff1603610d7c573460018281548110610d5457610d53611300565b5b90600052602060002090600402016002016000828254610d7491906118fa565b925050819055505b8080610d879061135e565b915050610cba565b5050565b6040518060800160405280600073ffffffffffffffffffffffffffffffffffffffff16815260200160608152602001600081526020016000151581525090565b6000604051905090565b600080fd5b600080fd5b600073ffffffffffffffffffffffffffffffffffffffff82169050919050565b6000610e1282610de7565b9050919050565b610e2281610e07565b8114610e2d57600080fd5b50565b600081359050610e3f81610e19565b92915050565b600060208284031215610e5b57610e5a610ddd565b5b6000610e6984828501610e30565b91505092915050565b60008115159050919050565b610e8781610e72565b82525050565b6000602082019050610ea26000830184610e7e565b92915050565b600080fd5b600080fd5b6000601f19601f8301169050919050565b7f4e487b7100000000000000000000000000000000000000000000000000000000600052604160045260246000fd5b610efb82610eb2565b810181811067ffffffffffffffff82111715610f1a57610f19610ec3565b5b80604052505050565b6000610f2d610dd3565b9050610f398282610ef2565b919050565b600067ffffffffffffffff821115610f5957610f58610ec3565b5b610f6282610eb2565b9050602081019050919050565b82818337600083830152505050565b6000610f91610f8c84610f3e565b610f23565b905082815260208101848484011115610fad57610fac610ead565b5b610fb8848285610f6f565b509392505050565b600082601f830112610fd557610fd4610ea8565b5b8135610fe5848260208601610f7e565b91505092915050565b6000819050919050565b61100181610fee565b811461100c57600080fd5b50565b60008135905061101e81610ff8565b92915050565b61102d81610e72565b811461103857600080fd5b50565b60008135905061104a81611024565b92915050565b6000806000806080858703121561106a57611069610ddd565b5b600061107887828801610e30565b945050602085013567ffffffffffffffff81111561109957611098610de2565b5b6110a587828801610fc0565b93505060406110b68782880161100f565b92505060606110c78782880161103b565b91505092959194509250565b6000602082840312156110e9576110e8610ddd565b5b60006110f78482850161100f565b91505092915050565b61110981610e07565b82525050565b600081519050919050565b600082825260208201905092915050565b60005b8381101561114957808201518184015260208101905061112e565b60008484015250505050565b60006111608261110f565b61116a818561111a565b935061117a81856020860161112b565b61118381610eb2565b840191505092915050565b61119781610fee565b82525050565b60006080820190506111b26000830187611100565b81810360208301526111c48186611155565b90506111d3604083018561118e565b6111e06060830184610e7e565b95945050505050565b6111f281610e07565b82525050565b600082825260208201905092915050565b60006112148261110f565b61121e81856111f8565b935061122e81856020860161112b565b61123781610eb2565b840191505092915050565b61124b81610fee565b82525050565b61125a81610e72565b82525050565b600060808301600083015161127860008601826111e9565b50602083015184820360208601526112908282611209565b91505060408301516112a56040860182611242565b5060608301516112b86060860182611251565b508091505092915050565b600060208201905081810360008301526112dd8184611260565b905092915050565b60006020820190506112fa600083018461118e565b92915050565b7f4e487b7100000000000000000000000000000000000000000000000000000000600052603260045260246000fd5b7f4e487b7100000000000000000000000000000000000000000000000000000000600052601160045260246000fd5b600061136982610fee565b91507fffffffffffffffffffffffffffffffffffffffffffffffffffffffffffffffff820361139b5761139a61132f565b5b600182019050919050565b7f596f7520617265206e6f7420746865206f776e65720000000000000000000000600082015250565b60006113dc60158361111a565b91506113e7826113a6565b602082019050919050565b6000602082019050818103600083015261140b816113cf565b9050919050565b7f4e487b7100000000000000000000000000000000000000000000000000000000600052602260045260246000fd5b6000600282049050600182168061145957607f821691505b60208210810361146c5761146b611412565b5b50919050565b60008190508160005260206000209050919050565b60006020601f8301049050919050565b600082821b905092915050565b6000600883026114d47fffffffffffffffffffffffffffffffffffffffffffffffffffffffffffffffff82611497565b6114de8683611497565b95508019841693508086168417925050509392505050565b6000819050919050565b600061151b61151661151184610fee565b6114f6565b610fee565b9050919050565b6000819050919050565b61153583611500565b61154961154182611522565b8484546114a4565b825550505050565b600090565b61155e611551565b61156981848461152c565b505050565b5b8181101561158d57611582600082611556565b60018101905061156f565b5050565b601f8211156115d2576115a381611472565b6115ac84611487565b810160208510156115bb578190505b6115cf6115c785611487565b83018261156e565b50505b505050565b600082821c905092915050565b60006115f5600019846008026115d7565b1980831691505092915050565b600061160e83836115e4565b9150826002028217905092915050565b6116278261110f565b67ffffffffffffffff8111156116405761163f610ec3565b5b61164a8254611441565b611655828285611591565b600060209050601f8311600181146116885760008415611676578287015190505b6116808582611602565b8655506116e8565b601f19841661169686611472565b60005b828110156116be57848901518255600182019150602085019450602081019050611699565b868310156116db57848901516116d7601f8916826115e4565b8355505b6001600288020188555050505b505050505050565b600082825260208201905092915050565b6000815461170e81611441565b61171881866116f0565b9450600182166000811461173357600181146117495761177c565b60ff19831686528115156020028601935061177c565b61175285611472565b60005b8381101561177457815481890152600182019150602081019050611755565b808801955050505b50505092915050565b50565b60006117956000836116f0565b91506117a082611785565b600082019050919050565b600060408201905081810360008301526117c58184611701565b905081810360208301526117d881611788565b905092915050565b6000815190506117ef81611024565b92915050565b60006020828403121561180b5761180a610ddd565b5b6000611819848285016117e0565b91505092915050565b7f496e76616c69642057616c6c6574204164647265737300000000000000000000600082015250565b600061185860168361111a565b915061186382611822565b602082019050919050565b600060208201905081810360008301526118878161184b565b9050919050565b7f5573657220646f6573206e6f7420657869737400000000000000000000000000600082015250565b60006118c460138361111a565b91506118cf8261188e565b602082019050919050565b600060208201905081810360008301526118f3816118b7565b9050919050565b600061190582610fee565b915061191083610fee565b92508282019050808211156119285761192761132f565b5b9291505056fea264697066735822122050e72ecabbabad8b71a1ee1eb03887b37c17a9d4e57aee8713247123870e82c964736f6c63430008100033",
					"opcodes": "PUSH1 0x80 PUSH1 0x40 MSTORE CALLVALUE DUP1 ISZERO PUSH2 0x10 JUMPI PUSH1 0x0 DUP1 REVERT JUMPDEST POP CALLER PUSH1 0x0 DUP1 PUSH2 0x100 EXP DUP2 SLOAD DUP2 PUSH20 0xFFFFFFFFFFFFFFFFFFFFFFFFFFFFFFFFFFFFFFFF MUL NOT AND SWAP1 DUP4 PUSH20 0xFFFFFFFFFFFFFFFFFFFFFFFFFFFFFFFFFFFFFFFF AND MUL OR SWAP1 SSTORE POP PUSH2 0x1964 DUP1 PUSH2 0x60 PUSH1 0x0 CODECOPY PUSH1 0x0 RETURN INVALID PUSH1 0x80 PUSH1 0x40 MSTORE PUSH1 0x4 CALLDATASIZE LT PUSH2 0x91 JUMPI PUSH1 0x0 CALLDATALOAD PUSH1 0xE0 SHR DUP1 PUSH4 0x5B83B7F1 GT PUSH2 0x59 JUMPI DUP1 PUSH4 0x5B83B7F1 EQ PUSH2 0x195 JUMPI DUP1 PUSH4 0x69C212F6 EQ PUSH2 0x1D2 JUMPI DUP1 PUSH4 0x6F7BC9BE EQ PUSH2 0x20F JUMPI DUP1 PUSH4 0x70A08231 EQ PUSH2 0x24F JUMPI DUP1 PUSH4 0xD7BED4BC EQ PUSH2 0x28C JUMPI PUSH2 0x91 JUMP JUMPDEST DUP1 PUSH4 0xE666E49 EQ PUSH2 0x96 JUMPI DUP1 PUSH4 0x1A695230 EQ PUSH2 0xD3 JUMPI DUP1 PUSH4 0x280879E7 EQ PUSH2 0xEF JUMPI DUP1 PUSH4 0x365B98B2 EQ PUSH2 0x118 JUMPI DUP1 PUSH4 0x4140EB0D EQ PUSH2 0x158 JUMPI JUMPDEST PUSH1 0x0 DUP1 REVERT JUMPDEST CALLVALUE DUP1 ISZERO PUSH2 0xA2 JUMPI PUSH1 0x0 DUP1 REVERT JUMPDEST POP PUSH2 0xBD PUSH1 0x4 DUP1 CALLDATASIZE SUB DUP2 ADD SWAP1 PUSH2 0xB8 SWAP2 SWAP1 PUSH2 0xE45 JUMP JUMPDEST PUSH2 0x2B5 JUMP JUMPDEST PUSH1 0x40 MLOAD PUSH2 0xCA SWAP2 SWAP1 PUSH2 0xE8D JUMP JUMPDEST PUSH1 0x40 MLOAD DUP1 SWAP2 SUB SWAP1 RETURN JUMPDEST PUSH2 0xED PUSH1 0x4 DUP1 CALLDATASIZE SUB DUP2 ADD SWAP1 PUSH2 0xE8 SWAP2 SWAP1 PUSH2 0xE45 JUMP JUMPDEST PUSH2 0x36A JUMP JUMPDEST STOP JUMPDEST CALLVALUE DUP1 ISZERO PUSH2 0xFB JUMPI PUSH1 0x0 DUP1 REVERT JUMPDEST POP PUSH2 0x116 PUSH1 0x4 DUP1 CALLDATASIZE SUB DUP2 ADD SWAP1 PUSH2 0x111 SWAP2 SWAP1 PUSH2 0x1050 JUMP JUMPDEST PUSH2 0x376 JUMP JUMPDEST STOP JUMPDEST CALLVALUE DUP1 ISZERO PUSH2 0x124 JUMPI PUSH1 0x0 DUP1 REVERT JUMPDEST POP PUSH2 0x13F PUSH1 0x4 DUP1 CALLDATASIZE SUB DUP2 ADD SWAP1 PUSH2 0x13A SWAP2 SWAP1 PUSH2 0x10D3 JUMP JUMPDEST PUSH2 0x4F7 JUMP JUMPDEST PUSH1 0x40 MLOAD PUSH2 0x14F SWAP5 SWAP4 SWAP3 SWAP2 SWAP1 PUSH2 0x119D JUMP JUMPDEST PUSH1 0x40 MLOAD DUP1 SWAP2 SUB SWAP1 RETURN JUMPDEST CALLVALUE DUP1 ISZERO PUSH2 0x164 JUMPI PUSH1 0x0 DUP1 REVERT JUMPDEST POP PUSH2 0x17F PUSH1 0x4 DUP1 CALLDATASIZE SUB DUP2 ADD SWAP1 PUSH2 0x17A SWAP2 SWAP1 PUSH2 0xE45 JUMP JUMPDEST PUSH2 0x5EC JUMP JUMPDEST PUSH1 0x40 MLOAD PUSH2 0x18C SWAP2 SWAP1 PUSH2 0xE8D JUMP JUMPDEST PUSH1 0x40 MLOAD DUP1 SWAP2 SUB SWAP1 RETURN JUMPDEST CALLVALUE DUP1 ISZERO PUSH2 0x1A1 JUMPI PUSH1 0x0 DUP1 REVERT JUMPDEST POP PUSH2 0x1BC PUSH1 0x4 DUP1 CALLDATASIZE SUB DUP2 ADD SWAP1 PUSH2 0x1B7 SWAP2 SWAP1 PUSH2 0xE45 JUMP JUMPDEST PUSH2 0x607 JUMP JUMPDEST PUSH1 0x40 MLOAD PUSH2 0x1C9 SWAP2 SWAP1 PUSH2 0xE8D JUMP JUMPDEST PUSH1 0x40 MLOAD DUP1 SWAP2 SUB SWAP1 RETURN JUMPDEST CALLVALUE DUP1 ISZERO PUSH2 0x1DE JUMPI PUSH1 0x0 DUP1 REVERT JUMPDEST POP PUSH2 0x1F9 PUSH1 0x4 DUP1 CALLDATASIZE SUB DUP2 ADD SWAP1 PUSH2 0x1F4 SWAP2 SWAP1 PUSH2 0xE45 JUMP JUMPDEST PUSH2 0x6DA JUMP JUMPDEST PUSH1 0x40 MLOAD PUSH2 0x206 SWAP2 SWAP1 PUSH2 0x12C3 JUMP JUMPDEST PUSH1 0x40 MLOAD DUP1 SWAP2 SUB SWAP1 RETURN JUMPDEST CALLVALUE DUP1 ISZERO PUSH2 0x21B JUMPI PUSH1 0x0 DUP1 REVERT JUMPDEST POP PUSH2 0x236 PUSH1 0x4 DUP1 CALLDATASIZE SUB DUP2 ADD SWAP1 PUSH2 0x231 SWAP2 SWAP1 PUSH2 0xE45 JUMP JUMPDEST PUSH2 0x93D JUMP JUMPDEST PUSH1 0x40 MLOAD PUSH2 0x246 SWAP5 SWAP4 SWAP3 SWAP2 SWAP1 PUSH2 0x119D JUMP JUMPDEST PUSH1 0x40 MLOAD DUP1 SWAP2 SUB SWAP1 RETURN JUMPDEST CALLVALUE DUP1 ISZERO PUSH2 0x25B JUMPI PUSH1 0x0 DUP1 REVERT JUMPDEST POP PUSH2 0x276 PUSH1 0x4 DUP1 CALLDATASIZE SUB DUP2 ADD SWAP1 PUSH2 0x271 SWAP2 SWAP1 PUSH2 0xE45 JUMP JUMPDEST PUSH2 0xA22 JUMP JUMPDEST PUSH1 0x40 MLOAD PUSH2 0x283 SWAP2 SWAP1 PUSH2 0x12E5 JUMP JUMPDEST PUSH1 0x40 MLOAD DUP1 SWAP2 SUB SWAP1 RETURN JUMPDEST CALLVALUE DUP1 ISZERO PUSH2 0x298 JUMPI PUSH1 0x0 DUP1 REVERT JUMPDEST POP PUSH2 0x2B3 PUSH1 0x4 DUP1 CALLDATASIZE SUB DUP2 ADD SWAP1 PUSH2 0x2AE SWAP2 SWAP1 PUSH2 0xE45 JUMP JUMPDEST PUSH2 0xAFC JUMP JUMPDEST STOP JUMPDEST PUSH1 0x0 DUP1 PUSH1 0x0 SWAP1 POP JUMPDEST PUSH1 0x1 DUP1 SLOAD SWAP1 POP DUP2 LT ISZERO PUSH2 0x35F JUMPI DUP3 PUSH20 0xFFFFFFFFFFFFFFFFFFFFFFFFFFFFFFFFFFFFFFFF AND PUSH1 0x1 DUP3 DUP2 SLOAD DUP2 LT PUSH2 0x2F5 JUMPI PUSH2 0x2F4 PUSH2 0x1300 JUMP JUMPDEST JUMPDEST SWAP1 PUSH1 0x0 MSTORE PUSH1 0x20 PUSH1 0x0 KECCAK256 SWAP1 PUSH1 0x4 MUL ADD PUSH1 0x0 ADD PUSH1 0x0 SWAP1 SLOAD SWAP1 PUSH2 0x100 EXP SWAP1 DIV PUSH20 0xFFFFFFFFFFFFFFFFFFFFFFFFFFFFFFFFFFFFFFFF AND PUSH20 0xFFFFFFFFFFFFFFFFFFFFFFFFFFFFFFFFFFFFFFFF AND SUB PUSH2 0x34C JUMPI PUSH1 0x1 SWAP2 POP POP PUSH2 0x365 JUMP JUMPDEST DUP1 DUP1 PUSH2 0x357 SWAP1 PUSH2 0x135E JUMP JUMPDEST SWAP2 POP POP PUSH2 0x2BD JUMP JUMPDEST POP PUSH1 0x0 SWAP1 POP JUMPDEST SWAP2 SWAP1 POP JUMP JUMPDEST PUSH2 0x373 DUP2 PUSH2 0xCB7 JUMP JUMPDEST POP JUMP JUMPDEST PUSH1 0x0 DUP1 SLOAD SWAP1 PUSH2 0x100 EXP SWAP1 DIV PUSH20 0xFFFFFFFFFFFFFFFFFFFFFFFFFFFFFFFFFFFFFFFF AND PUSH20 0xFFFFFFFFFFFFFFFFFFFFFFFFFFFFFFFFFFFFFFFF AND CALLER PUSH20 0xFFFFFFFFFFFFFFFFFFFFFFFFFFFFFFFFFFFFFFFF AND EQ PUSH2 0x404 JUMPI PUSH1 0x40 MLOAD PUSH32 0x8C379A000000000000000000000000000000000000000000000000000000000 DUP2 MSTORE PUSH1 0x4 ADD PUSH2 0x3FB SWAP1 PUSH2 0x13F2 JUMP JUMPDEST PUSH1 0x40 MLOAD DUP1 SWAP2 SUB SWAP1 REVERT JUMPDEST PUSH1 0x1 PUSH1 0x40 MLOAD DUP1 PUSH1 0x80 ADD PUSH1 0x40 MSTORE DUP1 DUP7 PUSH20 0xFFFFFFFFFFFFFFFFFFFFFFFFFFFFFFFFFFFFFFFF AND DUP2 MSTORE PUSH1 0x20 ADD DUP6 DUP2 MSTORE PUSH1 0x20 ADD DUP5 DUP2 MSTORE PUSH1 0x20 ADD DUP4 ISZERO ISZERO DUP2 MSTORE POP SWAP1 DUP1 PUSH1 0x1 DUP2 SLOAD ADD DUP1 DUP3 SSTORE DUP1 SWAP2 POP POP PUSH1 0x1 SWAP1 SUB SWAP1 PUSH1 0x0 MSTORE PUSH1 0x20 PUSH1 0x0 KECCAK256 SWAP1 PUSH1 0x4 MUL ADD PUSH1 0x0 SWAP1 SWAP2 SWAP1 SWAP2 SWAP1 SWAP2 POP PUSH1 0x0 DUP3 ADD MLOAD DUP2 PUSH1 0x0 ADD PUSH1 0x0 PUSH2 0x100 EXP DUP2 SLOAD DUP2 PUSH20 0xFFFFFFFFFFFFFFFFFFFFFFFFFFFFFFFFFFFFFFFF MUL NOT AND SWAP1 DUP4 PUSH20 0xFFFFFFFFFFFFFFFFFFFFFFFFFFFFFFFFFFFFFFFF AND MUL OR SWAP1 SSTORE POP PUSH1 0x20 DUP3 ADD MLOAD DUP2 PUSH1 0x1 ADD SWAP1 DUP2 PUSH2 0x4C4 SWAP2 SWAP1 PUSH2 0x161E JUMP JUMPDEST POP PUSH1 0x40 DUP3 ADD MLOAD DUP2 PUSH1 0x2 ADD SSTORE PUSH1 0x60 DUP3 ADD MLOAD DUP2 PUSH1 0x3 ADD PUSH1 0x0 PUSH2 0x100 EXP DUP2 SLOAD DUP2 PUSH1 0xFF MUL NOT AND SWAP1 DUP4 ISZERO ISZERO MUL OR SWAP1 SSTORE POP POP POP POP POP POP POP JUMP JUMPDEST PUSH1 0x1 DUP2 DUP2 SLOAD DUP2 LT PUSH2 0x507 JUMPI PUSH1 0x0 DUP1 REVERT JUMPDEST SWAP1 PUSH1 0x0 MSTORE PUSH1 0x20 PUSH1 0x0 KECCAK256 SWAP1 PUSH1 0x4 MUL ADD PUSH1 0x0 SWAP2 POP SWAP1 POP DUP1 PUSH1 0x0 ADD PUSH1 0x0 SWAP1 SLOAD SWAP1 PUSH2 0x100 EXP SWAP1 DIV PUSH20 0xFFFFFFFFFFFFFFFFFFFFFFFFFFFFFFFFFFFFFFFF AND SWAP1 DUP1 PUSH1 0x1 ADD DUP1 SLOAD PUSH2 0x550 SWAP1 PUSH2 0x1441 JUMP JUMPDEST DUP1 PUSH1 0x1F ADD PUSH1 0x20 DUP1 SWAP2 DIV MUL PUSH1 0x20 ADD PUSH1 0x40 MLOAD SWAP1 DUP2 ADD PUSH1 0x40 MSTORE DUP1 SWAP3 SWAP2 SWAP1 DUP2 DUP2 MSTORE PUSH1 0x20 ADD DUP3 DUP1 SLOAD PUSH2 0x57C SWAP1 PUSH2 0x1441 JUMP JUMPDEST DUP1 ISZERO PUSH2 0x5C9 JUMPI DUP1 PUSH1 0x1F LT PUSH2 0x59E JUMPI PUSH2 0x100 DUP1 DUP4 SLOAD DIV MUL DUP4 MSTORE SWAP2 PUSH1 0x20 ADD SWAP2 PUSH2 0x5C9 JUMP JUMPDEST DUP3 ADD SWAP2 SWAP1 PUSH1 0x0 MSTORE PUSH1 0x20 PUSH1 0x0 KECCAK256 SWAP1 JUMPDEST DUP2 SLOAD DUP2 MSTORE SWAP1 PUSH1 0x1 ADD SWAP1 PUSH1 0x20 ADD DUP1 DUP4 GT PUSH2 0x5AC JUMPI DUP3 SWAP1 SUB PUSH1 0x1F AND DUP3 ADD SWAP2 JUMPDEST POP POP POP POP POP SWAP1 DUP1 PUSH1 0x2 ADD SLOAD SWAP1 DUP1 PUSH1 0x3 ADD PUSH1 0x0 SWAP1 SLOAD SWAP1 PUSH2 0x100 EXP SWAP1 DIV PUSH1 0xFF AND SWAP1 POP DUP5 JUMP JUMPDEST PUSH1 0x0 DUP1 PUSH2 0x5F8 DUP4 PUSH2 0x6DA JUMP JUMPDEST SWAP1 POP DUP1 PUSH1 0x60 ADD MLOAD SWAP2 POP POP SWAP2 SWAP1 POP JUMP JUMPDEST PUSH1 0x0 PUSH20 0x0 PUSH4 0x46BDCA9A PUSH1 0x2 PUSH1 0x0 DUP6 PUSH20 0xFFFFFFFFFFFFFFFFFFFFFFFFFFFFFFFFFFFFFFFF AND PUSH20 0xFFFFFFFFFFFFFFFFFFFFFFFFFFFFFFFFFFFFFFFF AND DUP2 MSTORE PUSH1 0x20 ADD SWAP1 DUP2 MSTORE PUSH1 0x20 ADD PUSH1 0x0 KECCAK256 PUSH1 0x1 ADD PUSH1 0x40 MLOAD DUP3 PUSH4 0xFFFFFFFF AND PUSH1 0xE0 SHL DUP2 MSTORE PUSH1 0x4 ADD PUSH2 0x681 SWAP2 SWAP1 PUSH2 0x17AB JUMP JUMPDEST PUSH1 0x20 PUSH1 0x40 MLOAD DUP1 DUP4 SUB DUP2 DUP7 GAS DELEGATECALL ISZERO DUP1 ISZERO PUSH2 0x69E JUMPI RETURNDATASIZE PUSH1 0x0 DUP1 RETURNDATACOPY RETURNDATASIZE PUSH1 0x0 REVERT JUMPDEST POP POP POP POP PUSH1 0x40 MLOAD RETURNDATASIZE PUSH1 0x1F NOT PUSH1 0x1F DUP3 ADD AND DUP3 ADD DUP1 PUSH1 0x40 MSTORE POP DUP2 ADD SWAP1 PUSH2 0x6C2 SWAP2 SWAP1 PUSH2 0x17F5 JUMP JUMPDEST ISZERO PUSH2 0x6D0 JUMPI PUSH1 0x0 SWAP1 POP PUSH2 0x6D5 JUMP JUMPDEST PUSH1 0x1 SWAP1 POP JUMPDEST SWAP2 SWAP1 POP JUMP JUMPDEST PUSH2 0x6E2 PUSH2 0xD93 JUMP JUMPDEST PUSH1 0x0 JUMPDEST PUSH1 0x1 DUP1 SLOAD SWAP1 POP DUP2 LT ISZERO PUSH2 0x8FC JUMPI DUP3 PUSH20 0xFFFFFFFFFFFFFFFFFFFFFFFFFFFFFFFFFFFFFFFF AND PUSH1 0x1 DUP3 DUP2 SLOAD DUP2 LT PUSH2 0x71D JUMPI PUSH2 0x71C PUSH2 0x1300 JUMP JUMPDEST JUMPDEST SWAP1 PUSH1 0x0 MSTORE PUSH1 0x20 PUSH1 0x0 KECCAK256 SWAP1 PUSH1 0x4 MUL ADD PUSH1 0x0 ADD PUSH1 0x0 SWAP1 SLOAD SWAP1 PUSH2 0x100 EXP SWAP1 DIV PUSH20 0xFFFFFFFFFFFFFFFFFFFFFFFFFFFFFFFFFFFFFFFF AND PUSH20 0xFFFFFFFFFFFFFFFFFFFFFFFFFFFFFFFFFFFFFFFF AND SUB PUSH2 0x8E9 JUMPI PUSH1 0x1 DUP1 DUP3 DUP2 SLOAD DUP2 LT PUSH2 0x77F JUMPI PUSH2 0x77E PUSH2 0x1300 JUMP JUMPDEST JUMPDEST SWAP1 PUSH1 0x0 MSTORE PUSH1 0x20 PUSH1 0x0 KECCAK256 SWAP1 PUSH1 0x4 MUL ADD PUSH1 0x3 ADD PUSH1 0x0 PUSH2 0x100 EXP DUP2 SLOAD DUP2 PUSH1 0xFF MUL NOT AND SWAP1 DUP4 ISZERO ISZERO MUL OR SWAP1 SSTORE POP PUSH1 0x1 DUP2 DUP2 SLOAD DUP2 LT PUSH2 0x7BB JUMPI PUSH2 0x7BA PUSH2 0x1300 JUMP JUMPDEST JUMPDEST SWAP1 PUSH1 0x0 MSTORE PUSH1 0x20 PUSH1 0x0 KECCAK256 SWAP1 PUSH1 0x4 MUL ADD PUSH1 0x40 MLOAD DUP1 PUSH1 0x80 ADD PUSH1 0x40 MSTORE SWAP1 DUP2 PUSH1 0x0 DUP3 ADD PUSH1 0x0 SWAP1 SLOAD SWAP1 PUSH2 0x100 EXP SWAP1 DIV PUSH20 0xFFFFFFFFFFFFFFFFFFFFFFFFFFFFFFFFFFFFFFFF AND PUSH20 0xFFFFFFFFFFFFFFFFFFFFFFFFFFFFFFFFFFFFFFFF AND PUSH20 0xFFFFFFFFFFFFFFFFFFFFFFFFFFFFFFFFFFFFFFFF AND DUP2 MSTORE PUSH1 0x20 ADD PUSH1 0x1 DUP3 ADD DUP1 SLOAD PUSH2 0x83A SWAP1 PUSH2 0x1441 JUMP JUMPDEST DUP1 PUSH1 0x1F ADD PUSH1 0x20 DUP1 SWAP2 DIV MUL PUSH1 0x20 ADD PUSH1 0x40 MLOAD SWAP1 DUP2 ADD PUSH1 0x40 MSTORE DUP1 SWAP3 SWAP2 SWAP1 DUP2 DUP2 MSTORE PUSH1 0x20 ADD DUP3 DUP1 SLOAD PUSH2 0x866 SWAP1 PUSH2 0x1441 JUMP JUMPDEST DUP1 ISZERO PUSH2 0x8B3 JUMPI DUP1 PUSH1 0x1F LT PUSH2 0x888 JUMPI PUSH2 0x100 DUP1 DUP4 SLOAD DIV MUL DUP4 MSTORE SWAP2 PUSH1 0x20 ADD SWAP2 PUSH2 0x8B3 JUMP JUMPDEST DUP3 ADD SWAP2 SWAP1 PUSH1 0x0 MSTORE PUSH1 0x20 PUSH1 0x0 KECCAK256 SWAP1 JUMPDEST DUP2 SLOAD DUP2 MSTORE SWAP1 PUSH1 0x1 ADD SWAP1 PUSH1 0x20 ADD DUP1 DUP4 GT PUSH2 0x896 JUMPI DUP3 SWAP1 SUB PUSH1 0x1F AND DUP3 ADD SWAP2 JUMPDEST POP POP POP POP POP DUP2 MSTORE PUSH1 0x20 ADD PUSH1 0x2 DUP3 ADD SLOAD DUP2 MSTORE PUSH1 0x20 ADD PUSH1 0x3 DUP3 ADD PUSH1 0x0 SWAP1 SLOAD SWAP1 PUSH2 0x100 EXP SWAP1 DIV PUSH1 0xFF AND ISZERO ISZERO ISZERO ISZERO DUP2 MSTORE POP POP SWAP2 POP POP PUSH2 0x938 JUMP JUMPDEST DUP1 DUP1 PUSH2 0x8F4 SWAP1 PUSH2 0x135E JUMP JUMPDEST SWAP2 POP POP PUSH2 0x6E5 JUMP JUMPDEST POP PUSH1 0x40 MLOAD PUSH32 0x8C379A000000000000000000000000000000000000000000000000000000000 DUP2 MSTORE PUSH1 0x4 ADD PUSH2 0x92F SWAP1 PUSH2 0x186E JUMP JUMPDEST PUSH1 0x40 MLOAD DUP1 SWAP2 SUB SWAP1 REVERT JUMPDEST SWAP2 SWAP1 POP JUMP JUMPDEST PUSH1 0x2 PUSH1 0x20 MSTORE DUP1 PUSH1 0x0 MSTORE PUSH1 0x40 PUSH1 0x0 KECCAK256 PUSH1 0x0 SWAP2 POP SWAP1 POP DUP1 PUSH1 0x0 ADD PUSH1 0x0 SWAP1 SLOAD SWAP1 PUSH2 0x100 EXP SWAP1 DIV PUSH20 0xFFFFFFFFFFFFFFFFFFFFFFFFFFFFFFFFFFFFFFFF AND SWAP1 DUP1 PUSH1 0x1 ADD DUP1 SLOAD PUSH2 0x986 SWAP1 PUSH2 0x1441 JUMP JUMPDEST DUP1 PUSH1 0x1F ADD PUSH1 0x20 DUP1 SWAP2 DIV MUL PUSH1 0x20 ADD PUSH1 0x40 MLOAD SWAP1 DUP2 ADD PUSH1 0x40 MSTORE DUP1 SWAP3 SWAP2 SWAP1 DUP2 DUP2 MSTORE PUSH1 0x20 ADD DUP3 DUP1 SLOAD PUSH2 0x9B2 SWAP1 PUSH2 0x1441 JUMP JUMPDEST DUP1 ISZERO PUSH2 0x9FF JUMPI DUP1 PUSH1 0x1F LT PUSH2 0x9D4 JUMPI PUSH2 0x100 DUP1 DUP4 SLOAD DIV MUL DUP4 MSTORE SWAP2 PUSH1 0x20 ADD SWAP2 PUSH2 0x9FF JUMP JUMPDEST DUP3 ADD SWAP2 SWAP1 PUSH1 0x0 MSTORE PUSH1 0x20 PUSH1 0x0 KECCAK256 SWAP1 JUMPDEST DUP2 SLOAD DUP2 MSTORE SWAP1 PUSH1 0x1 ADD SWAP1 PUSH1 0x20 ADD DUP1 DUP4 GT PUSH2 0x9E2 JUMPI DUP3 SWAP1 SUB PUSH1 0x1F AND DUP3 ADD SWAP2 JUMPDEST POP POP POP POP POP SWAP1 DUP1 PUSH1 0x2 ADD SLOAD SWAP1 DUP1 PUSH1 0x3 ADD PUSH1 0x0 SWAP1 SLOAD SWAP1 PUSH2 0x100 EXP SWAP1 DIV PUSH1 0xFF AND SWAP1 POP DUP5 JUMP JUMPDEST PUSH1 0x0 DUP1 PUSH1 0x0 SWAP1 POP JUMPDEST PUSH1 0x1 DUP1 SLOAD SWAP1 POP DUP2 LT ISZERO PUSH2 0xAF0 JUMPI DUP3 PUSH20 0xFFFFFFFFFFFFFFFFFFFFFFFFFFFFFFFFFFFFFFFF AND PUSH1 0x1 DUP3 DUP2 SLOAD DUP2 LT PUSH2 0xA62 JUMPI PUSH2 0xA61 PUSH2 0x1300 JUMP JUMPDEST JUMPDEST SWAP1 PUSH1 0x0 MSTORE PUSH1 0x20 PUSH1 0x0 KECCAK256 SWAP1 PUSH1 0x4 MUL ADD PUSH1 0x0 ADD PUSH1 0x0 SWAP1 SLOAD SWAP1 PUSH2 0x100 EXP SWAP1 DIV PUSH20 0xFFFFFFFFFFFFFFFFFFFFFFFFFFFFFFFFFFFFFFFF AND PUSH20 0xFFFFFFFFFFFFFFFFFFFFFFFFFFFFFFFFFFFFFFFF AND SUB PUSH2 0xADD JUMPI PUSH1 0x1 DUP2 DUP2 SLOAD DUP2 LT PUSH2 0xAC3 JUMPI PUSH2 0xAC2 PUSH2 0x1300 JUMP JUMPDEST JUMPDEST SWAP1 PUSH1 0x0 MSTORE PUSH1 0x20 PUSH1 0x0 KECCAK256 SWAP1 PUSH1 0x4 MUL ADD PUSH1 0x2 ADD SLOAD SWAP2 POP POP PUSH2 0xAF7 JUMP JUMPDEST DUP1 DUP1 PUSH2 0xAE8 SWAP1 PUSH2 0x135E JUMP JUMPDEST SWAP2 POP POP PUSH2 0xA2A JUMP JUMPDEST POP PUSH2 0x3E7 SWAP1 POP JUMPDEST SWAP2 SWAP1 POP JUMP JUMPDEST PUSH1 0x0 DUP1 SLOAD SWAP1 PUSH2 0x100 EXP SWAP1 DIV PUSH20 0xFFFFFFFFFFFFFFFFFFFFFFFFFFFFFFFFFFFFFFFF AND PUSH20 0xFFFFFFFFFFFFFFFFFFFFFFFFFFFFFFFFFFFFFFFF AND CALLER PUSH20 0xFFFFFFFFFFFFFFFFFFFFFFFFFFFFFFFFFFFFFFFF AND EQ PUSH2 0xB8A JUMPI PUSH1 0x40 MLOAD PUSH32 0x8C379A000000000000000000000000000000000000000000000000000000000 DUP2 MSTORE PUSH1 0x4 ADD PUSH2 0xB81 SWAP1 PUSH2 0x13F2 JUMP JUMPDEST PUSH1 0x40 MLOAD DUP1 SWAP2 SUB SWAP1 REVERT JUMPDEST PUSH1 0x0 PUSH2 0xB95 DUP3 PUSH2 0x6DA JUMP JUMPDEST SWAP1 POP PUSH2 0xBA4 DUP2 PUSH1 0x0 ADD MLOAD PUSH2 0x2B5 JUMP JUMPDEST ISZERO PUSH2 0xC78 JUMPI DUP1 PUSH1 0x2 PUSH1 0x0 DUP5 PUSH20 0xFFFFFFFFFFFFFFFFFFFFFFFFFFFFFFFFFFFFFFFF AND PUSH20 0xFFFFFFFFFFFFFFFFFFFFFFFFFFFFFFFFFFFFFFFF AND DUP2 MSTORE PUSH1 0x20 ADD SWAP1 DUP2 MSTORE PUSH1 0x20 ADD PUSH1 0x0 KECCAK256 PUSH1 0x0 DUP3 ADD MLOAD DUP2 PUSH1 0x0 ADD PUSH1 0x0 PUSH2 0x100 EXP DUP2 SLOAD DUP2 PUSH20 0xFFFFFFFFFFFFFFFFFFFFFFFFFFFFFFFFFFFFFFFF MUL NOT AND SWAP1 DUP4 PUSH20 0xFFFFFFFFFFFFFFFFFFFFFFFFFFFFFFFFFFFFFFFF AND MUL OR SWAP1 SSTORE POP PUSH1 0x20 DUP3 ADD MLOAD DUP2 PUSH1 0x1 ADD SWAP1 DUP2 PUSH2 0xC45 SWAP2 SWAP1 PUSH2 0x161E JUMP JUMPDEST POP PUSH1 0x40 DUP3 ADD MLOAD DUP2 PUSH1 0x2 ADD SSTORE PUSH1 0x60 DUP3 ADD MLOAD DUP2 PUSH1 0x3 ADD PUSH1 0x0 PUSH2 0x100 EXP DUP2 SLOAD DUP2 PUSH1 0xFF MUL NOT AND SWAP1 DUP4 ISZERO ISZERO MUL OR SWAP1 SSTORE POP SWAP1 POP POP PUSH2 0xCB3 JUMP JUMPDEST PUSH1 0x40 MLOAD PUSH32 0x8C379A000000000000000000000000000000000000000000000000000000000 DUP2 MSTORE PUSH1 0x4 ADD PUSH2 0xCAA SWAP1 PUSH2 0x18DA JUMP JUMPDEST PUSH1 0x40 MLOAD DUP1 SWAP2 SUB SWAP1 REVERT JUMPDEST POP POP JUMP JUMPDEST PUSH1 0x0 JUMPDEST PUSH1 0x1 DUP1 SLOAD SWAP1 POP DUP2 LT ISZERO PUSH2 0xD8F JUMPI DUP2 PUSH20 0xFFFFFFFFFFFFFFFFFFFFFFFFFFFFFFFFFFFFFFFF AND PUSH1 0x1 DUP3 DUP2 SLOAD DUP2 LT PUSH2 0xCF2 JUMPI PUSH2 0xCF1 PUSH2 0x1300 JUMP JUMPDEST JUMPDEST SWAP1 PUSH1 0x0 MSTORE PUSH1 0x20 PUSH1 0x0 KECCAK256 SWAP1 PUSH1 0x4 MUL ADD PUSH1 0x0 ADD PUSH1 0x0 SWAP1 SLOAD SWAP1 PUSH2 0x100 EXP SWAP1 DIV PUSH20 0xFFFFFFFFFFFFFFFFFFFFFFFFFFFFFFFFFFFFFFFF AND PUSH20 0xFFFFFFFFFFFFFFFFFFFFFFFFFFFFFFFFFFFFFFFF AND SUB PUSH2 0xD7C JUMPI CALLVALUE PUSH1 0x1 DUP3 DUP2 SLOAD DUP2 LT PUSH2 0xD54 JUMPI PUSH2 0xD53 PUSH2 0x1300 JUMP JUMPDEST JUMPDEST SWAP1 PUSH1 0x0 MSTORE PUSH1 0x20 PUSH1 0x0 KECCAK256 SWAP1 PUSH1 0x4 MUL ADD PUSH1 0x2 ADD PUSH1 0x0 DUP3 DUP3 SLOAD PUSH2 0xD74 SWAP2 SWAP1 PUSH2 0x18FA JUMP JUMPDEST SWAP3 POP POP DUP2 SWAP1 SSTORE POP JUMPDEST DUP1 DUP1 PUSH2 0xD87 SWAP1 PUSH2 0x135E JUMP JUMPDEST SWAP2 POP POP PUSH2 0xCBA JUMP JUMPDEST POP POP JUMP JUMPDEST PUSH1 0x40 MLOAD DUP1 PUSH1 0x80 ADD PUSH1 0x40 MSTORE DUP1 PUSH1 0x0 PUSH20 0xFFFFFFFFFFFFFFFFFFFFFFFFFFFFFFFFFFFFFFFF AND DUP2 MSTORE PUSH1 0x20 ADD PUSH1 0x60 DUP2 MSTORE PUSH1 0x20 ADD PUSH1 0x0 DUP2 MSTORE PUSH1 0x20 ADD PUSH1 0x0 ISZERO ISZERO DUP2 MSTORE POP SWAP1 JUMP JUMPDEST PUSH1 0x0 PUSH1 0x40 MLOAD SWAP1 POP SWAP1 JUMP JUMPDEST PUSH1 0x0 DUP1 REVERT JUMPDEST PUSH1 0x0 DUP1 REVERT JUMPDEST PUSH1 0x0 PUSH20 0xFFFFFFFFFFFFFFFFFFFFFFFFFFFFFFFFFFFFFFFF DUP3 AND SWAP1 POP SWAP2 SWAP1 POP JUMP JUMPDEST PUSH1 0x0 PUSH2 0xE12 DUP3 PUSH2 0xDE7 JUMP JUMPDEST SWAP1 POP SWAP2 SWAP1 POP JUMP JUMPDEST PUSH2 0xE22 DUP2 PUSH2 0xE07 JUMP JUMPDEST DUP2 EQ PUSH2 0xE2D JUMPI PUSH1 0x0 DUP1 REVERT JUMPDEST POP JUMP JUMPDEST PUSH1 0x0 DUP2 CALLDATALOAD SWAP1 POP PUSH2 0xE3F DUP2 PUSH2 0xE19 JUMP JUMPDEST SWAP3 SWAP2 POP POP JUMP JUMPDEST PUSH1 0x0 PUSH1 0x20 DUP3 DUP5 SUB SLT ISZERO PUSH2 0xE5B JUMPI PUSH2 0xE5A PUSH2 0xDDD JUMP JUMPDEST JUMPDEST PUSH1 0x0 PUSH2 0xE69 DUP5 DUP3 DUP6 ADD PUSH2 0xE30 JUMP JUMPDEST SWAP2 POP POP SWAP3 SWAP2 POP POP JUMP JUMPDEST PUSH1 0x0 DUP2 ISZERO ISZERO SWAP1 POP SWAP2 SWAP1 POP JUMP JUMPDEST PUSH2 0xE87 DUP2 PUSH2 0xE72 JUMP JUMPDEST DUP3 MSTORE POP POP JUMP JUMPDEST PUSH1 0x0 PUSH1 0x20 DUP3 ADD SWAP1 POP PUSH2 0xEA2 PUSH1 0x0 DUP4 ADD DUP5 PUSH2 0xE7E JUMP JUMPDEST SWAP3 SWAP2 POP POP JUMP JUMPDEST PUSH1 0x0 DUP1 REVERT JUMPDEST PUSH1 0x0 DUP1 REVERT JUMPDEST PUSH1 0x0 PUSH1 0x1F NOT PUSH1 0x1F DUP4 ADD AND SWAP1 POP SWAP2 SWAP1 POP JUMP JUMPDEST PUSH32 0x4E487B7100000000000000000000000000000000000000000000000000000000 PUSH1 0x0 MSTORE PUSH1 0x41 PUSH1 0x4 MSTORE PUSH1 0x24 PUSH1 0x0 REVERT JUMPDEST PUSH2 0xEFB DUP3 PUSH2 0xEB2 JUMP JUMPDEST DUP2 ADD DUP2 DUP2 LT PUSH8 0xFFFFFFFFFFFFFFFF DUP3 GT OR ISZERO PUSH2 0xF1A JUMPI PUSH2 0xF19 PUSH2 0xEC3 JUMP JUMPDEST JUMPDEST DUP1 PUSH1 0x40 MSTORE POP POP POP JUMP JUMPDEST PUSH1 0x0 PUSH2 0xF2D PUSH2 0xDD3 JUMP JUMPDEST SWAP1 POP PUSH2 0xF39 DUP3 DUP3 PUSH2 0xEF2 JUMP JUMPDEST SWAP2 SWAP1 POP JUMP JUMPDEST PUSH1 0x0 PUSH8 0xFFFFFFFFFFFFFFFF DUP3 GT ISZERO PUSH2 0xF59 JUMPI PUSH2 0xF58 PUSH2 0xEC3 JUMP JUMPDEST JUMPDEST PUSH2 0xF62 DUP3 PUSH2 0xEB2 JUMP JUMPDEST SWAP1 POP PUSH1 0x20 DUP2 ADD SWAP1 POP SWAP2 SWAP1 POP JUMP JUMPDEST DUP3 DUP2 DUP4 CALLDATACOPY PUSH1 0x0 DUP4 DUP4 ADD MSTORE POP POP POP JUMP JUMPDEST PUSH1 0x0 PUSH2 0xF91 PUSH2 0xF8C DUP5 PUSH2 0xF3E JUMP JUMPDEST PUSH2 0xF23 JUMP JUMPDEST SWAP1 POP DUP3 DUP2 MSTORE PUSH1 0x20 DUP2 ADD DUP5 DUP5 DUP5 ADD GT ISZERO PUSH2 0xFAD JUMPI PUSH2 0xFAC PUSH2 0xEAD JUMP JUMPDEST JUMPDEST PUSH2 0xFB8 DUP5 DUP3 DUP6 PUSH2 0xF6F JUMP JUMPDEST POP SWAP4 SWAP3 POP POP POP JUMP JUMPDEST PUSH1 0x0 DUP3 PUSH1 0x1F DUP4 ADD SLT PUSH2 0xFD5 JUMPI PUSH2 0xFD4 PUSH2 0xEA8 JUMP JUMPDEST JUMPDEST DUP2 CALLDATALOAD PUSH2 0xFE5 DUP5 DUP3 PUSH1 0x20 DUP7 ADD PUSH2 0xF7E JUMP JUMPDEST SWAP2 POP POP SWAP3 SWAP2 POP POP JUMP JUMPDEST PUSH1 0x0 DUP2 SWAP1 POP SWAP2 SWAP1 POP JUMP JUMPDEST PUSH2 0x1001 DUP2 PUSH2 0xFEE JUMP JUMPDEST DUP2 EQ PUSH2 0x100C JUMPI PUSH1 0x0 DUP1 REVERT JUMPDEST POP JUMP JUMPDEST PUSH1 0x0 DUP2 CALLDATALOAD SWAP1 POP PUSH2 0x101E DUP2 PUSH2 0xFF8 JUMP JUMPDEST SWAP3 SWAP2 POP POP JUMP JUMPDEST PUSH2 0x102D DUP2 PUSH2 0xE72 JUMP JUMPDEST DUP2 EQ PUSH2 0x1038 JUMPI PUSH1 0x0 DUP1 REVERT JUMPDEST POP JUMP JUMPDEST PUSH1 0x0 DUP2 CALLDATALOAD SWAP1 POP PUSH2 0x104A DUP2 PUSH2 0x1024 JUMP JUMPDEST SWAP3 SWAP2 POP POP JUMP JUMPDEST PUSH1 0x0 DUP1 PUSH1 0x0 DUP1 PUSH1 0x80 DUP6 DUP8 SUB SLT ISZERO PUSH2 0x106A JUMPI PUSH2 0x1069 PUSH2 0xDDD JUMP JUMPDEST JUMPDEST PUSH1 0x0 PUSH2 0x1078 DUP8 DUP3 DUP9 ADD PUSH2 0xE30 JUMP JUMPDEST SWAP5 POP POP PUSH1 0x20 DUP6 ADD CALLDATALOAD PUSH8 0xFFFFFFFFFFFFFFFF DUP2 GT ISZERO PUSH2 0x1099 JUMPI PUSH2 0x1098 PUSH2 0xDE2 JUMP JUMPDEST JUMPDEST PUSH2 0x10A5 DUP8 DUP3 DUP9 ADD PUSH2 0xFC0 JUMP JUMPDEST SWAP4 POP POP PUSH1 0x40 PUSH2 0x10B6 DUP8 DUP3 DUP9 ADD PUSH2 0x100F JUMP JUMPDEST SWAP3 POP POP PUSH1 0x60 PUSH2 0x10C7 DUP8 DUP3 DUP9 ADD PUSH2 0x103B JUMP JUMPDEST SWAP2 POP POP SWAP3 SWAP6 SWAP2 SWAP5 POP SWAP3 POP JUMP JUMPDEST PUSH1 0x0 PUSH1 0x20 DUP3 DUP5 SUB SLT ISZERO PUSH2 0x10E9 JUMPI PUSH2 0x10E8 PUSH2 0xDDD JUMP JUMPDEST JUMPDEST PUSH1 0x0 PUSH2 0x10F7 DUP5 DUP3 DUP6 ADD PUSH2 0x100F JUMP JUMPDEST SWAP2 POP POP SWAP3 SWAP2 POP POP JUMP JUMPDEST PUSH2 0x1109 DUP2 PUSH2 0xE07 JUMP JUMPDEST DUP3 MSTORE POP POP JUMP JUMPDEST PUSH1 0x0 DUP2 MLOAD SWAP1 POP SWAP2 SWAP1 POP JUMP JUMPDEST PUSH1 0x0 DUP3 DUP3 MSTORE PUSH1 0x20 DUP3 ADD SWAP1 POP SWAP3 SWAP2 POP POP JUMP JUMPDEST PUSH1 0x0 JUMPDEST DUP4 DUP2 LT ISZERO PUSH2 0x1149 JUMPI DUP1 DUP3 ADD MLOAD DUP2 DUP5 ADD MSTORE PUSH1 0x20 DUP2 ADD SWAP1 POP PUSH2 0x112E JUMP JUMPDEST PUSH1 0x0 DUP5 DUP5 ADD MSTORE POP POP POP POP JUMP JUMPDEST PUSH1 0x0 PUSH2 0x1160 DUP3 PUSH2 0x110F JUMP JUMPDEST PUSH2 0x116A DUP2 DUP6 PUSH2 0x111A JUMP JUMPDEST SWAP4 POP PUSH2 0x117A DUP2 DUP6 PUSH1 0x20 DUP7 ADD PUSH2 0x112B JUMP JUMPDEST PUSH2 0x1183 DUP2 PUSH2 0xEB2 JUMP JUMPDEST DUP5 ADD SWAP2 POP POP SWAP3 SWAP2 POP POP JUMP JUMPDEST PUSH2 0x1197 DUP2 PUSH2 0xFEE JUMP JUMPDEST DUP3 MSTORE POP POP JUMP JUMPDEST PUSH1 0x0 PUSH1 0x80 DUP3 ADD SWAP1 POP PUSH2 0x11B2 PUSH1 0x0 DUP4 ADD DUP8 PUSH2 0x1100 JUMP JUMPDEST DUP2 DUP2 SUB PUSH1 0x20 DUP4 ADD MSTORE PUSH2 0x11C4 DUP2 DUP7 PUSH2 0x1155 JUMP JUMPDEST SWAP1 POP PUSH2 0x11D3 PUSH1 0x40 DUP4 ADD DUP6 PUSH2 0x118E JUMP JUMPDEST PUSH2 0x11E0 PUSH1 0x60 DUP4 ADD DUP5 PUSH2 0xE7E JUMP JUMPDEST SWAP6 SWAP5 POP POP POP POP POP JUMP JUMPDEST PUSH2 0x11F2 DUP2 PUSH2 0xE07 JUMP JUMPDEST DUP3 MSTORE POP POP JUMP JUMPDEST PUSH1 0x0 DUP3 DUP3 MSTORE PUSH1 0x20 DUP3 ADD SWAP1 POP SWAP3 SWAP2 POP POP JUMP JUMPDEST PUSH1 0x0 PUSH2 0x1214 DUP3 PUSH2 0x110F JUMP JUMPDEST PUSH2 0x121E DUP2 DUP6 PUSH2 0x11F8 JUMP JUMPDEST SWAP4 POP PUSH2 0x122E DUP2 DUP6 PUSH1 0x20 DUP7 ADD PUSH2 0x112B JUMP JUMPDEST PUSH2 0x1237 DUP2 PUSH2 0xEB2 JUMP JUMPDEST DUP5 ADD SWAP2 POP POP SWAP3 SWAP2 POP POP JUMP JUMPDEST PUSH2 0x124B DUP2 PUSH2 0xFEE JUMP JUMPDEST DUP3 MSTORE POP POP JUMP JUMPDEST PUSH2 0x125A DUP2 PUSH2 0xE72 JUMP JUMPDEST DUP3 MSTORE POP POP JUMP JUMPDEST PUSH1 0x0 PUSH1 0x80 DUP4 ADD PUSH1 0x0 DUP4 ADD MLOAD PUSH2 0x1278 PUSH1 0x0 DUP7 ADD DUP3 PUSH2 0x11E9 JUMP JUMPDEST POP PUSH1 0x20 DUP4 ADD MLOAD DUP5 DUP3 SUB PUSH1 0x20 DUP7 ADD MSTORE PUSH2 0x1290 DUP3 DUP3 PUSH2 0x1209 JUMP JUMPDEST SWAP2 POP POP PUSH1 0x40 DUP4 ADD MLOAD PUSH2 0x12A5 PUSH1 0x40 DUP7 ADD DUP3 PUSH2 0x1242 JUMP JUMPDEST POP PUSH1 0x60 DUP4 ADD MLOAD PUSH2 0x12B8 PUSH1 0x60 DUP7 ADD DUP3 PUSH2 0x1251 JUMP JUMPDEST POP DUP1 SWAP2 POP POP SWAP3 SWAP2 POP POP JUMP JUMPDEST PUSH1 0x0 PUSH1 0x20 DUP3 ADD SWAP1 POP DUP2 DUP2 SUB PUSH1 0x0 DUP4 ADD MSTORE PUSH2 0x12DD DUP2 DUP5 PUSH2 0x1260 JUMP JUMPDEST SWAP1 POP SWAP3 SWAP2 POP POP JUMP JUMPDEST PUSH1 0x0 PUSH1 0x20 DUP3 ADD SWAP1 POP PUSH2 0x12FA PUSH1 0x0 DUP4 ADD DUP5 PUSH2 0x118E JUMP JUMPDEST SWAP3 SWAP2 POP POP JUMP JUMPDEST PUSH32 0x4E487B7100000000000000000000000000000000000000000000000000000000 PUSH1 0x0 MSTORE PUSH1 0x32 PUSH1 0x4 MSTORE PUSH1 0x24 PUSH1 0x0 REVERT JUMPDEST PUSH32 0x4E487B7100000000000000000000000000000000000000000000000000000000 PUSH1 0x0 MSTORE PUSH1 0x11 PUSH1 0x4 MSTORE PUSH1 0x24 PUSH1 0x0 REVERT JUMPDEST PUSH1 0x0 PUSH2 0x1369 DUP3 PUSH2 0xFEE JUMP JUMPDEST SWAP2 POP PUSH32 0xFFFFFFFFFFFFFFFFFFFFFFFFFFFFFFFFFFFFFFFFFFFFFFFFFFFFFFFFFFFFFFFF DUP3 SUB PUSH2 0x139B JUMPI PUSH2 0x139A PUSH2 0x132F JUMP JUMPDEST JUMPDEST PUSH1 0x1 DUP3 ADD SWAP1 POP SWAP2 SWAP1 POP JUMP JUMPDEST PUSH32 0x596F7520617265206E6F7420746865206F776E65720000000000000000000000 PUSH1 0x0 DUP3 ADD MSTORE POP JUMP JUMPDEST PUSH1 0x0 PUSH2 0x13DC PUSH1 0x15 DUP4 PUSH2 0x111A JUMP JUMPDEST SWAP2 POP PUSH2 0x13E7 DUP3 PUSH2 0x13A6 JUMP JUMPDEST PUSH1 0x20 DUP3 ADD SWAP1 POP SWAP2 SWAP1 POP JUMP JUMPDEST PUSH1 0x0 PUSH1 0x20 DUP3 ADD SWAP1 POP DUP2 DUP2 SUB PUSH1 0x0 DUP4 ADD MSTORE PUSH2 0x140B DUP2 PUSH2 0x13CF JUMP JUMPDEST SWAP1 POP SWAP2 SWAP1 POP JUMP JUMPDEST PUSH32 0x4E487B7100000000000000000000000000000000000000000000000000000000 PUSH1 0x0 MSTORE PUSH1 0x22 PUSH1 0x4 MSTORE PUSH1 0x24 PUSH1 0x0 REVERT JUMPDEST PUSH1 0x0 PUSH1 0x2 DUP3 DIV SWAP1 POP PUSH1 0x1 DUP3 AND DUP1 PUSH2 0x1459 JUMPI PUSH1 0x7F DUP3 AND SWAP2 POP JUMPDEST PUSH1 0x20 DUP3 LT DUP2 SUB PUSH2 0x146C JUMPI PUSH2 0x146B PUSH2 0x1412 JUMP JUMPDEST JUMPDEST POP SWAP2 SWAP1 POP JUMP JUMPDEST PUSH1 0x0 DUP2 SWAP1 POP DUP2 PUSH1 0x0 MSTORE PUSH1 0x20 PUSH1 0x0 KECCAK256 SWAP1 POP SWAP2 SWAP1 POP JUMP JUMPDEST PUSH1 0x0 PUSH1 0x20 PUSH1 0x1F DUP4 ADD DIV SWAP1 POP SWAP2 SWAP1 POP JUMP JUMPDEST PUSH1 0x0 DUP3 DUP3 SHL SWAP1 POP SWAP3 SWAP2 POP POP JUMP JUMPDEST PUSH1 0x0 PUSH1 0x8 DUP4 MUL PUSH2 0x14D4 PUSH32 0xFFFFFFFFFFFFFFFFFFFFFFFFFFFFFFFFFFFFFFFFFFFFFFFFFFFFFFFFFFFFFFFF DUP3 PUSH2 0x1497 JUMP JUMPDEST PUSH2 0x14DE DUP7 DUP4 PUSH2 0x1497 JUMP JUMPDEST SWAP6 POP DUP1 NOT DUP5 AND SWAP4 POP DUP1 DUP7 AND DUP5 OR SWAP3 POP POP POP SWAP4 SWAP3 POP POP POP JUMP JUMPDEST PUSH1 0x0 DUP2 SWAP1 POP SWAP2 SWAP1 POP JUMP JUMPDEST PUSH1 0x0 PUSH2 0x151B PUSH2 0x1516 PUSH2 0x1511 DUP5 PUSH2 0xFEE JUMP JUMPDEST PUSH2 0x14F6 JUMP JUMPDEST PUSH2 0xFEE JUMP JUMPDEST SWAP1 POP SWAP2 SWAP1 POP JUMP JUMPDEST PUSH1 0x0 DUP2 SWAP1 POP SWAP2 SWAP1 POP JUMP JUMPDEST PUSH2 0x1535 DUP4 PUSH2 0x1500 JUMP JUMPDEST PUSH2 0x1549 PUSH2 0x1541 DUP3 PUSH2 0x1522 JUMP JUMPDEST DUP5 DUP5 SLOAD PUSH2 0x14A4 JUMP JUMPDEST DUP3 SSTORE POP POP POP POP JUMP JUMPDEST PUSH1 0x0 SWAP1 JUMP JUMPDEST PUSH2 0x155E PUSH2 0x1551 JUMP JUMPDEST PUSH2 0x1569 DUP2 DUP5 DUP5 PUSH2 0x152C JUMP JUMPDEST POP POP POP JUMP JUMPDEST JUMPDEST DUP2 DUP2 LT ISZERO PUSH2 0x158D JUMPI PUSH2 0x1582 PUSH1 0x0 DUP3 PUSH2 0x1556 JUMP JUMPDEST PUSH1 0x1 DUP2 ADD SWAP1 POP PUSH2 0x156F JUMP JUMPDEST POP POP JUMP JUMPDEST PUSH1 0x1F DUP3 GT ISZERO PUSH2 0x15D2 JUMPI PUSH2 0x15A3 DUP2 PUSH2 0x1472 JUMP JUMPDEST PUSH2 0x15AC DUP5 PUSH2 0x1487 JUMP JUMPDEST DUP2 ADD PUSH1 0x20 DUP6 LT ISZERO PUSH2 0x15BB JUMPI DUP2 SWAP1 POP JUMPDEST PUSH2 0x15CF PUSH2 0x15C7 DUP6 PUSH2 0x1487 JUMP JUMPDEST DUP4 ADD DUP3 PUSH2 0x156E JUMP JUMPDEST POP POP JUMPDEST POP POP POP JUMP JUMPDEST PUSH1 0x0 DUP3 DUP3 SHR SWAP1 POP SWAP3 SWAP2 POP POP JUMP JUMPDEST PUSH1 0x0 PUSH2 0x15F5 PUSH1 0x0 NOT DUP5 PUSH1 0x8 MUL PUSH2 0x15D7 JUMP JUMPDEST NOT DUP1 DUP4 AND SWAP2 POP POP SWAP3 SWAP2 POP POP JUMP JUMPDEST PUSH1 0x0 PUSH2 0x160E DUP4 DUP4 PUSH2 0x15E4 JUMP JUMPDEST SWAP2 POP DUP3 PUSH1 0x2 MUL DUP3 OR SWAP1 POP SWAP3 SWAP2 POP POP JUMP JUMPDEST PUSH2 0x1627 DUP3 PUSH2 0x110F JUMP JUMPDEST PUSH8 0xFFFFFFFFFFFFFFFF DUP2 GT ISZERO PUSH2 0x1640 JUMPI PUSH2 0x163F PUSH2 0xEC3 JUMP JUMPDEST JUMPDEST PUSH2 0x164A DUP3 SLOAD PUSH2 0x1441 JUMP JUMPDEST PUSH2 0x1655 DUP3 DUP3 DUP6 PUSH2 0x1591 JUMP JUMPDEST PUSH1 0x0 PUSH1 0x20 SWAP1 POP PUSH1 0x1F DUP4 GT PUSH1 0x1 DUP2 EQ PUSH2 0x1688 JUMPI PUSH1 0x0 DUP5 ISZERO PUSH2 0x1676 JUMPI DUP3 DUP8 ADD MLOAD SWAP1 POP JUMPDEST PUSH2 0x1680 DUP6 DUP3 PUSH2 0x1602 JUMP JUMPDEST DUP7 SSTORE POP PUSH2 0x16E8 JUMP JUMPDEST PUSH1 0x1F NOT DUP5 AND PUSH2 0x1696 DUP7 PUSH2 0x1472 JUMP JUMPDEST PUSH1 0x0 JUMPDEST DUP3 DUP2 LT ISZERO PUSH2 0x16BE JUMPI DUP5 DUP10 ADD MLOAD DUP3 SSTORE PUSH1 0x1 DUP3 ADD SWAP2 POP PUSH1 0x20 DUP6 ADD SWAP5 POP PUSH1 0x20 DUP2 ADD SWAP1 POP PUSH2 0x1699 JUMP JUMPDEST DUP7 DUP4 LT ISZERO PUSH2 0x16DB JUMPI DUP5 DUP10 ADD MLOAD PUSH2 0x16D7 PUSH1 0x1F DUP10 AND DUP3 PUSH2 0x15E4 JUMP JUMPDEST DUP4 SSTORE POP JUMPDEST PUSH1 0x1 PUSH1 0x2 DUP9 MUL ADD DUP9 SSTORE POP POP POP JUMPDEST POP POP POP POP POP POP JUMP JUMPDEST PUSH1 0x0 DUP3 DUP3 MSTORE PUSH1 0x20 DUP3 ADD SWAP1 POP SWAP3 SWAP2 POP POP JUMP JUMPDEST PUSH1 0x0 DUP2 SLOAD PUSH2 0x170E DUP2 PUSH2 0x1441 JUMP JUMPDEST PUSH2 0x1718 DUP2 DUP7 PUSH2 0x16F0 JUMP JUMPDEST SWAP5 POP PUSH1 0x1 DUP3 AND PUSH1 0x0 DUP2 EQ PUSH2 0x1733 JUMPI PUSH1 0x1 DUP2 EQ PUSH2 0x1749 JUMPI PUSH2 0x177C JUMP JUMPDEST PUSH1 0xFF NOT DUP4 AND DUP7 MSTORE DUP2 ISZERO ISZERO PUSH1 0x20 MUL DUP7 ADD SWAP4 POP PUSH2 0x177C JUMP JUMPDEST PUSH2 0x1752 DUP6 PUSH2 0x1472 JUMP JUMPDEST PUSH1 0x0 JUMPDEST DUP4 DUP2 LT ISZERO PUSH2 0x1774 JUMPI DUP2 SLOAD DUP2 DUP10 ADD MSTORE PUSH1 0x1 DUP3 ADD SWAP2 POP PUSH1 0x20 DUP2 ADD SWAP1 POP PUSH2 0x1755 JUMP JUMPDEST DUP1 DUP9 ADD SWAP6 POP POP POP JUMPDEST POP POP POP SWAP3 SWAP2 POP POP JUMP JUMPDEST POP JUMP JUMPDEST PUSH1 0x0 PUSH2 0x1795 PUSH1 0x0 DUP4 PUSH2 0x16F0 JUMP JUMPDEST SWAP2 POP PUSH2 0x17A0 DUP3 PUSH2 0x1785 JUMP JUMPDEST PUSH1 0x0 DUP3 ADD SWAP1 POP SWAP2 SWAP1 POP JUMP JUMPDEST PUSH1 0x0 PUSH1 0x40 DUP3 ADD SWAP1 POP DUP2 DUP2 SUB PUSH1 0x0 DUP4 ADD MSTORE PUSH2 0x17C5 DUP2 DUP5 PUSH2 0x1701 JUMP JUMPDEST SWAP1 POP DUP2 DUP2 SUB PUSH1 0x20 DUP4 ADD MSTORE PUSH2 0x17D8 DUP2 PUSH2 0x1788 JUMP JUMPDEST SWAP1 POP SWAP3 SWAP2 POP POP JUMP JUMPDEST PUSH1 0x0 DUP2 MLOAD SWAP1 POP PUSH2 0x17EF DUP2 PUSH2 0x1024 JUMP JUMPDEST SWAP3 SWAP2 POP POP JUMP JUMPDEST PUSH1 0x0 PUSH1 0x20 DUP3 DUP5 SUB SLT ISZERO PUSH2 0x180B JUMPI PUSH2 0x180A PUSH2 0xDDD JUMP JUMPDEST JUMPDEST PUSH1 0x0 PUSH2 0x1819 DUP5 DUP3 DUP6 ADD PUSH2 0x17E0 JUMP JUMPDEST SWAP2 POP POP SWAP3 SWAP2 POP POP JUMP JUMPDEST PUSH32 0x496E76616C69642057616C6C6574204164647265737300000000000000000000 PUSH1 0x0 DUP3 ADD MSTORE POP JUMP JUMPDEST PUSH1 0x0 PUSH2 0x1858 PUSH1 0x16 DUP4 PUSH2 0x111A JUMP JUMPDEST SWAP2 POP PUSH2 0x1863 DUP3 PUSH2 0x1822 JUMP JUMPDEST PUSH1 0x20 DUP3 ADD SWAP1 POP SWAP2 SWAP1 POP JUMP JUMPDEST PUSH1 0x0 PUSH1 0x20 DUP3 ADD SWAP1 POP DUP2 DUP2 SUB PUSH1 0x0 DUP4 ADD MSTORE PUSH2 0x1887 DUP2 PUSH2 0x184B JUMP JUMPDEST SWAP1 POP SWAP2 SWAP1 POP JUMP JUMPDEST PUSH32 0x5573657220646F6573206E6F7420657869737400000000000000000000000000 PUSH1 0x0 DUP3 ADD MSTORE POP JUMP JUMPDEST PUSH1 0x0 PUSH2 0x18C4 PUSH1 0x13 DUP4 PUSH2 0x111A JUMP JUMPDEST SWAP2 POP PUSH2 0x18CF DUP3 PUSH2 0x188E JUMP JUMPDEST PUSH1 0x20 DUP3 ADD SWAP1 POP SWAP2 SWAP1 POP JUMP JUMPDEST PUSH1 0x0 PUSH1 0x20 DUP3 ADD SWAP1 POP DUP2 DUP2 SUB PUSH1 0x0 DUP4 ADD MSTORE PUSH2 0x18F3 DUP2 PUSH2 0x18B7 JUMP JUMPDEST SWAP1 POP SWAP2 SWAP1 POP JUMP JUMPDEST PUSH1 0x0 PUSH2 0x1905 DUP3 PUSH2 0xFEE JUMP JUMPDEST SWAP2 POP PUSH2 0x1910 DUP4 PUSH2 0xFEE JUMP JUMPDEST SWAP3 POP DUP3 DUP3 ADD SWAP1 POP DUP1 DUP3 GT ISZERO PUSH2 0x1928 JUMPI PUSH2 0x1927 PUSH2 0x132F JUMP JUMPDEST JUMPDEST SWAP3 SWAP2 POP POP JUMP INVALID LOG2 PUSH5 0x6970667358 0x22 SLT KECCAK256 POP 0xE7 0x2E 0xCA 0xBB 0xAB 0xAD DUP12 PUSH18 0xA1EE1EB03887B37C17A9D4E57AEE87132471 0x23 DUP8 0xE DUP3 0xC9 PUSH5 0x736F6C6343 STOP ADDMOD LT STOP CALLER "
				},
				"gasEstimates": {
					"creation": {
						"codeDepositCost": "1300000",
						"executionCost": "25622",
						"totalCost": "1325622"
					},
					"external": {
						"addToInvestors(address)": "infinite",
						"addUser(address,string,uint256,bool)": "infinite",
						"balanceOf(address)": "infinite",
						"getUserByAddress(address)": "infinite",
						"investorExists(address)": "infinite",
						"investorPermission(address)": "infinite",
						"investors(address)": "infinite",
						"transfer(address)": "infinite",
						"userExists(address)": "infinite",
						"users(uint256)": "infinite"
					},
					"internal": {
						"transferToAddress(address)": "infinite"
					}
				},
				"methodIdentifiers": {
					"addToInvestors(address)": "d7bed4bc",
					"addUser(address,string,uint256,bool)": "280879e7",
					"balanceOf(address)": "70a08231",
					"getUserByAddress(address)": "69c212f6",
					"investorExists(address)": "5b83b7f1",
					"investorPermission(address)": "4140eb0d",
					"investors(address)": "6f7bc9be",
					"transfer(address)": "1a695230",
					"userExists(address)": "0e666e49",
					"users(uint256)": "365b98b2"
				}
			},
			"storageLayout": {
				"storage": [
					{
						"astId": 242,
						"contract": "contracts/Test1.sol:Test1",
						"label": "owner",
						"offset": 0,
						"slot": "0",
						"type": "t_address"
					},
					{
						"astId": 276,
						"contract": "contracts/Test1.sol:Test1",
						"label": "users",
						"offset": 0,
						"slot": "1",
						"type": "t_array(t_struct(User)260_storage)dyn_storage"
					},
					{
						"astId": 281,
						"contract": "contracts/Test1.sol:Test1",
						"label": "investors",
						"offset": 0,
						"slot": "2",
						"type": "t_mapping(t_address,t_struct(User)260_storage)"
					}
				],
				"types": {
					"t_address": {
						"encoding": "inplace",
						"label": "address",
						"numberOfBytes": "20"
					},
					"t_array(t_struct(User)260_storage)dyn_storage": {
						"base": "t_struct(User)260_storage",
						"encoding": "dynamic_array",
						"label": "struct Test1.User[]",
						"numberOfBytes": "32"
					},
					"t_bool": {
						"encoding": "inplace",
						"label": "bool",
						"numberOfBytes": "1"
					},
					"t_mapping(t_address,t_struct(User)260_storage)": {
						"encoding": "mapping",
						"key": "t_address",
						"label": "mapping(address => struct Test1.User)",
						"numberOfBytes": "32",
						"value": "t_struct(User)260_storage"
					},
					"t_string_storage": {
						"encoding": "bytes",
						"label": "string",
						"numberOfBytes": "32"
					},
					"t_struct(User)260_storage": {
						"encoding": "inplace",
						"label": "struct Test1.User",
						"members": [
							{
								"astId": 253,
								"contract": "contracts/Test1.sol:Test1",
								"label": "walletAddress",
								"offset": 0,
								"slot": "0",
								"type": "t_address"
							},
							{
								"astId": 255,
								"contract": "contracts/Test1.sol:Test1",
								"label": "name",
								"offset": 0,
								"slot": "1",
								"type": "t_string_storage"
							},
							{
								"astId": 257,
								"contract": "contracts/Test1.sol:Test1",
								"label": "amount",
								"offset": 0,
								"slot": "2",
								"type": "t_uint256"
							},
							{
								"astId": 259,
								"contract": "contracts/Test1.sol:Test1",
								"label": "isInvestor",
								"offset": 0,
								"slot": "3",
								"type": "t_bool"
							}
						],
						"numberOfBytes": "128"
					},
					"t_uint256": {
						"encoding": "inplace",
						"label": "uint256",
						"numberOfBytes": "32"
					}
				}
			},
			"userdoc": {
				"kind": "user",
				"methods": {},
				"version": 1
			}
		}
	}
}