{
	"contracts/Test1.sol": {
		"Test1": {
			"abi": [
				{
					"inputs": [],
					"stateMutability": "nonpayable",
					"type": "constructor"
				},
				{
					"inputs": [
						{
							"internalType": "address",
							"name": "walletAddress",
							"type": "address"
						}
					],
					"name": "addToInvestors",
					"outputs": [],
					"stateMutability": "nonpayable",
					"type": "function"
				},
				{
					"inputs": [
						{
							"internalType": "address",
							"name": "walletAddress",
							"type": "address"
						},
						{
							"internalType": "string",
							"name": "name",
							"type": "string"
						},
						{
							"internalType": "uint256",
							"name": "amount",
							"type": "uint256"
						},
						{
							"internalType": "bool",
							"name": "isInvestor",
							"type": "bool"
						}
					],
					"name": "addUser",
					"outputs": [],
					"stateMutability": "nonpayable",
					"type": "function"
				},
				{
					"inputs": [
						{
							"internalType": "address",
							"name": "walletAddress",
							"type": "address"
						}
					],
					"name": "balanceOf",
					"outputs": [
						{
							"internalType": "uint256",
							"name": "",
							"type": "uint256"
						}
					],
					"stateMutability": "view",
					"type": "function"
				},
				{
					"inputs": [
						{
							"internalType": "address",
							"name": "walletAddress",
							"type": "address"
						}
					],
					"name": "getUserByAddress",
					"outputs": [
						{
							"components": [
								{
									"internalType": "address",
									"name": "walletAddress",
									"type": "address"
								},
								{
									"internalType": "string",
									"name": "name",
									"type": "string"
								},
								{
									"internalType": "uint256",
									"name": "amount",
									"type": "uint256"
								},
								{
									"internalType": "bool",
									"name": "isInvestor",
									"type": "bool"
								}
							],
							"internalType": "struct Test1.User",
							"name": "user",
							"type": "tuple"
						}
					],
					"stateMutability": "nonpayable",
					"type": "function"
				},
				{
					"inputs": [
						{
							"internalType": "address",
							"name": "walletAddress",
							"type": "address"
						}
					],
					"name": "investorExists",
					"outputs": [
						{
							"internalType": "bool",
							"name": "",
							"type": "bool"
						}
					],
					"stateMutability": "view",
					"type": "function"
				},
				{
					"inputs": [
						{
							"internalType": "address",
							"name": "walletAddress",
							"type": "address"
						}
					],
					"name": "investorPermission",
					"outputs": [
						{
							"internalType": "bool",
							"name": "",
							"type": "bool"
						}
					],
					"stateMutability": "nonpayable",
					"type": "function"
				},
				{
					"inputs": [
						{
							"internalType": "address",
							"name": "",
							"type": "address"
						}
					],
					"name": "investors",
					"outputs": [
						{
							"internalType": "address",
							"name": "walletAddress",
							"type": "address"
						},
						{
							"internalType": "string",
							"name": "name",
							"type": "string"
						},
						{
							"internalType": "uint256",
							"name": "amount",
							"type": "uint256"
						},
						{
							"internalType": "bool",
							"name": "isInvestor",
							"type": "bool"
						}
					],
					"stateMutability": "view",
					"type": "function"
				},
				{
					"inputs": [
						{
							"internalType": "address",
							"name": "walletAddress",
							"type": "address"
						}
					],
					"name": "transfer",
					"outputs": [],
					"stateMutability": "payable",
					"type": "function"
				},
				{
					"inputs": [
						{
							"internalType": "address",
							"name": "walletAddress",
							"type": "address"
						}
					],
					"name": "userExists",
					"outputs": [
						{
							"internalType": "bool",
							"name": "",
							"type": "bool"
						}
					],
					"stateMutability": "view",
					"type": "function"
				},
				{
					"inputs": [
						{
							"internalType": "uint256",
							"name": "",
							"type": "uint256"
						}
					],
					"name": "users",
					"outputs": [
						{
							"internalType": "address",
							"name": "walletAddress",
							"type": "address"
						},
						{
							"internalType": "string",
							"name": "name",
							"type": "string"
						},
						{
							"internalType": "uint256",
							"name": "amount",
							"type": "uint256"
						},
						{
							"internalType": "bool",
							"name": "isInvestor",
							"type": "bool"
						}
					],
					"stateMutability": "view",
					"type": "function"
				}
			],
			"devdoc": {
				"kind": "dev",
				"methods": {},
				"version": 1
			},
			"evm": {
				"assembly": "    /* \"contracts/Test1.sol\":2198:4884  contract Test1{... */\n  mstore(0x40, 0x80)\n    /* \"contracts/Test1.sol\":2239:2287  constructor(){... */\n  callvalue\n  dup1\n  iszero\n  tag_1\n  jumpi\n  0x00\n  dup1\n  revert\ntag_1:\n  pop\n    /* \"contracts/Test1.sol\":2270:2280  msg.sender */\n  caller\n    /* \"contracts/Test1.sol\":2262:2267  owner */\n  0x00\n  dup1\n    /* \"contracts/Test1.sol\":2262:2280  owner = msg.sender */\n  0x0100\n  exp\n  dup2\n  sload\n  dup2\n  0xffffffffffffffffffffffffffffffffffffffff\n  mul\n  not\n  and\n  swap1\n  dup4\n  0xffffffffffffffffffffffffffffffffffffffff\n  and\n  mul\n  or\n  swap1\n  sstore\n  pop\n    /* \"contracts/Test1.sol\":2198:4884  contract Test1{... */\n  dataSize(sub_0)\n  dup1\n  dataOffset(sub_0)\n  0x00\n  codecopy\n  0x00\n  return\nstop\n\nsub_0: assembly {\n        /* \"contracts/Test1.sol\":2198:4884  contract Test1{... */\n      mstore(0x40, 0x80)\n      jumpi(tag_1, lt(calldatasize, 0x04))\n      shr(0xe0, calldataload(0x00))\n      dup1\n      0x5b83b7f1\n      gt\n      tag_12\n      jumpi\n      dup1\n      0x5b83b7f1\n      eq\n      tag_7\n      jumpi\n      dup1\n      0x69c212f6\n      eq\n      tag_8\n      jumpi\n      dup1\n      0x6f7bc9be\n      eq\n      tag_9\n      jumpi\n      dup1\n      0x70a08231\n      eq\n      tag_10\n      jumpi\n      dup1\n      0xd7bed4bc\n      eq\n      tag_11\n      jumpi\n      jump(tag_1)\n    tag_12:\n      dup1\n      0x0e666e49\n      eq\n      tag_2\n      jumpi\n      dup1\n      0x1a695230\n      eq\n      tag_3\n      jumpi\n      dup1\n      0x280879e7\n      eq\n      tag_4\n      jumpi\n      dup1\n      0x365b98b2\n      eq\n      tag_5\n      jumpi\n      dup1\n      0x4140eb0d\n      eq\n      tag_6\n      jumpi\n    tag_1:\n      0x00\n      dup1\n      revert\n        /* \"contracts/Test1.sol\":3788:4043  function userExists(address walletAddress) public view returns(bool){... */\n    tag_2:\n      callvalue\n      dup1\n      iszero\n      tag_13\n      jumpi\n      0x00\n      dup1\n      revert\n    tag_13:\n      pop\n      tag_14\n      0x04\n      dup1\n      calldatasize\n      sub\n      dup2\n      add\n      swap1\n      tag_15\n      swap2\n      swap1\n      tag_16\n      jump\t// in\n    tag_15:\n      tag_17\n      jump\t// in\n    tag_14:\n      mload(0x40)\n      tag_18\n      swap2\n      swap1\n      tag_19\n      jump\t// in\n    tag_18:\n      mload(0x40)\n      dup1\n      swap2\n      sub\n      swap1\n      return\n        /* \"contracts/Test1.sol\":4258:4363  function transfer(address walletAddress) payable public {... */\n    tag_3:\n      tag_20\n      0x04\n      dup1\n      calldatasize\n      sub\n      dup2\n      add\n      swap1\n      tag_21\n      swap2\n      swap1\n      tag_16\n      jump\t// in\n    tag_21:\n      tag_22\n      jump\t// in\n    tag_20:\n      stop\n        /* \"contracts/Test1.sol\":2824:3004  function addUser(address walletAddress, string memory name, uint amount, bool isInvestor) public onlyOwner{... */\n    tag_4:\n      callvalue\n      dup1\n      iszero\n      tag_23\n      jumpi\n      0x00\n      dup1\n      revert\n    tag_23:\n      pop\n      tag_24\n      0x04\n      dup1\n      calldatasize\n      sub\n      dup2\n      add\n      swap1\n      tag_25\n      swap2\n      swap1\n      tag_26\n      jump\t// in\n    tag_25:\n      tag_27\n      jump\t// in\n    tag_24:\n      stop\n        /* \"contracts/Test1.sol\":2751:2770  User[] public users */\n    tag_5:\n      callvalue\n      dup1\n      iszero\n      tag_28\n      jumpi\n      0x00\n      dup1\n      revert\n    tag_28:\n      pop\n      tag_29\n      0x04\n      dup1\n      calldatasize\n      sub\n      dup2\n      add\n      swap1\n      tag_30\n      swap2\n      swap1\n      tag_31\n      jump\t// in\n    tag_30:\n      tag_32\n      jump\t// in\n    tag_29:\n      mload(0x40)\n      tag_33\n      swap5\n      swap4\n      swap3\n      swap2\n      swap1\n      tag_34\n      jump\t// in\n    tag_33:\n      mload(0x40)\n      dup1\n      swap2\n      sub\n      swap1\n      return\n        /* \"contracts/Test1.sol\":3612:3782  function investorPermission(address walletAddress) public returns(bool){... */\n    tag_6:\n      callvalue\n      dup1\n      iszero\n      tag_35\n      jumpi\n      0x00\n      dup1\n      revert\n    tag_35:\n      pop\n      tag_36\n      0x04\n      dup1\n      calldatasize\n      sub\n      dup2\n      add\n      swap1\n      tag_37\n      swap2\n      swap1\n      tag_16\n      jump\t// in\n    tag_37:\n      tag_38\n      jump\t// in\n    tag_36:\n      mload(0x40)\n      tag_39\n      swap2\n      swap1\n      tag_19\n      jump\t// in\n    tag_39:\n      mload(0x40)\n      dup1\n      swap2\n      sub\n      swap1\n      return\n        /* \"contracts/Test1.sol\":4049:4252  function investorExists(address walletAddress) public view returns(bool){... */\n    tag_7:\n      callvalue\n      dup1\n      iszero\n      tag_40\n      jumpi\n      0x00\n      dup1\n      revert\n    tag_40:\n      pop\n      tag_41\n      0x04\n      dup1\n      calldatasize\n      sub\n      dup2\n      add\n      swap1\n      tag_42\n      swap2\n      swap1\n      tag_16\n      jump\t// in\n    tag_42:\n      tag_43\n      jump\t// in\n    tag_41:\n      mload(0x40)\n      tag_44\n      swap2\n      swap1\n      tag_19\n      jump\t// in\n    tag_44:\n      mload(0x40)\n      dup1\n      swap2\n      sub\n      swap1\n      return\n        /* \"contracts/Test1.sol\":3270:3606  function getUserByAddress(address walletAddress) public returns(User memory user){... */\n    tag_8:\n      callvalue\n      dup1\n      iszero\n      tag_45\n      jumpi\n      0x00\n      dup1\n      revert\n    tag_45:\n      pop\n      tag_46\n      0x04\n      dup1\n      calldatasize\n      sub\n      dup2\n      add\n      swap1\n      tag_47\n      swap2\n      swap1\n      tag_16\n      jump\t// in\n    tag_47:\n      tag_48\n      jump\t// in\n    tag_46:\n      mload(0x40)\n      tag_49\n      swap2\n      swap1\n      tag_50\n      jump\t// in\n    tag_49:\n      mload(0x40)\n      dup1\n      swap2\n      sub\n      swap1\n      return\n        /* \"contracts/Test1.sol\":2776:2817  mapping(address => User) public investors */\n    tag_9:\n      callvalue\n      dup1\n      iszero\n      tag_51\n      jumpi\n      0x00\n      dup1\n      revert\n    tag_51:\n      pop\n      tag_52\n      0x04\n      dup1\n      calldatasize\n      sub\n      dup2\n      add\n      swap1\n      tag_53\n      swap2\n      swap1\n      tag_16\n      jump\t// in\n    tag_53:\n      tag_54\n      jump\t// in\n    tag_52:\n      mload(0x40)\n      tag_55\n      swap5\n      swap4\n      swap3\n      swap2\n      swap1\n      tag_34\n      jump\t// in\n    tag_55:\n      mload(0x40)\n      dup1\n      swap2\n      sub\n      swap1\n      return\n        /* \"contracts/Test1.sol\":4615:4878  function balanceOf(address walletAddress) public view returns(uint){... */\n    tag_10:\n      callvalue\n      dup1\n      iszero\n      tag_56\n      jumpi\n      0x00\n      dup1\n      revert\n    tag_56:\n      pop\n      tag_57\n      0x04\n      dup1\n      calldatasize\n      sub\n      dup2\n      add\n      swap1\n      tag_58\n      swap2\n      swap1\n      tag_16\n      jump\t// in\n    tag_58:\n      tag_59\n      jump\t// in\n    tag_57:\n      mload(0x40)\n      tag_60\n      swap2\n      swap1\n      tag_61\n      jump\t// in\n    tag_60:\n      mload(0x40)\n      dup1\n      swap2\n      sub\n      swap1\n      return\n        /* \"contracts/Test1.sol\":3010:3264  function addToInvestors(address walletAddress) public onlyOwner{... */\n    tag_11:\n      callvalue\n      dup1\n      iszero\n      tag_62\n      jumpi\n      0x00\n      dup1\n      revert\n    tag_62:\n      pop\n      tag_63\n      0x04\n      dup1\n      calldatasize\n      sub\n      dup2\n      add\n      swap1\n      tag_64\n      swap2\n      swap1\n      tag_16\n      jump\t// in\n    tag_64:\n      tag_65\n      jump\t// in\n    tag_63:\n      stop\n        /* \"contracts/Test1.sol\":3788:4043  function userExists(address walletAddress) public view returns(bool){... */\n    tag_17:\n        /* \"contracts/Test1.sol\":3851:3855  bool */\n      0x00\n        /* \"contracts/Test1.sol\":3870:3876  uint i */\n      dup1\n        /* \"contracts/Test1.sol\":3879:3880  0 */\n      0x00\n        /* \"contracts/Test1.sol\":3870:3880  uint i = 0 */\n      swap1\n      pop\n        /* \"contracts/Test1.sol\":3866:4015  for(uint i = 0; i < users.length; i++){... */\n    tag_67:\n        /* \"contracts/Test1.sol\":3886:3891  users */\n      0x01\n        /* \"contracts/Test1.sol\":3886:3898  users.length */\n      dup1\n      sload\n      swap1\n      pop\n        /* \"contracts/Test1.sol\":3882:3883  i */\n      dup2\n        /* \"contracts/Test1.sol\":3882:3898  i < users.length */\n      lt\n        /* \"contracts/Test1.sol\":3866:4015  for(uint i = 0; i < users.length; i++){... */\n      iszero\n      tag_68\n      jumpi\n        /* \"contracts/Test1.sol\":3947:3960  walletAddress */\n      dup3\n        /* \"contracts/Test1.sol\":3921:3960  users[i].walletAddress == walletAddress */\n      0xffffffffffffffffffffffffffffffffffffffff\n      and\n        /* \"contracts/Test1.sol\":3921:3926  users */\n      0x01\n        /* \"contracts/Test1.sol\":3927:3928  i */\n      dup3\n        /* \"contracts/Test1.sol\":3921:3929  users[i] */\n      dup2\n      sload\n      dup2\n      lt\n      tag_70\n      jumpi\n      tag_71\n      tag_72\n      jump\t// in\n    tag_71:\n    tag_70:\n      swap1\n      0x00\n      mstore\n      keccak256(0x00, 0x20)\n      swap1\n      0x04\n      mul\n      add\n        /* \"contracts/Test1.sol\":3921:3943  users[i].walletAddress */\n      0x00\n      add\n      0x00\n      swap1\n      sload\n      swap1\n      0x0100\n      exp\n      swap1\n      div\n      0xffffffffffffffffffffffffffffffffffffffff\n      and\n        /* \"contracts/Test1.sol\":3921:3960  users[i].walletAddress == walletAddress */\n      0xffffffffffffffffffffffffffffffffffffffff\n      and\n      eq\n        /* \"contracts/Test1.sol\":3918:4005  if(users[i].walletAddress == walletAddress){... */\n      iszero\n      tag_74\n      jumpi\n        /* \"contracts/Test1.sol\":3986:3990  true */\n      0x01\n        /* \"contracts/Test1.sol\":3979:3990  return true */\n      swap2\n      pop\n      pop\n      jump(tag_66)\n        /* \"contracts/Test1.sol\":3918:4005  if(users[i].walletAddress == walletAddress){... */\n    tag_74:\n        /* \"contracts/Test1.sol\":3900:3903  i++ */\n      dup1\n      dup1\n      tag_75\n      swap1\n      tag_76\n      jump\t// in\n    tag_75:\n      swap2\n      pop\n      pop\n        /* \"contracts/Test1.sol\":3866:4015  for(uint i = 0; i < users.length; i++){... */\n      jump(tag_67)\n    tag_68:\n      pop\n        /* \"contracts/Test1.sol\":4031:4036  false */\n      0x00\n        /* \"contracts/Test1.sol\":4024:4036  return false */\n      swap1\n      pop\n        /* \"contracts/Test1.sol\":3788:4043  function userExists(address walletAddress) public view returns(bool){... */\n    tag_66:\n      swap2\n      swap1\n      pop\n      jump\t// out\n        /* \"contracts/Test1.sol\":4258:4363  function transfer(address walletAddress) payable public {... */\n    tag_22:\n        /* \"contracts/Test1.sol\":4324:4356  transferToAddress(walletAddress) */\n      tag_78\n        /* \"contracts/Test1.sol\":4342:4355  walletAddress */\n      dup2\n        /* \"contracts/Test1.sol\":4324:4341  transferToAddress */\n      tag_79\n        /* \"contracts/Test1.sol\":4324:4356  transferToAddress(walletAddress) */\n      jump\t// in\n    tag_78:\n        /* \"contracts/Test1.sol\":4258:4363  function transfer(address walletAddress) payable public {... */\n      pop\n      jump\t// out\n        /* \"contracts/Test1.sol\":2824:3004  function addUser(address walletAddress, string memory name, uint amount, bool isInvestor) public onlyOwner{... */\n    tag_27:\n        /* \"contracts/Test1.sol\":2467:2472  owner */\n      0x00\n      dup1\n      sload\n      swap1\n      0x0100\n      exp\n      swap1\n      div\n      0xffffffffffffffffffffffffffffffffffffffff\n      and\n        /* \"contracts/Test1.sol\":2453:2472  msg.sender == owner */\n      0xffffffffffffffffffffffffffffffffffffffff\n      and\n        /* \"contracts/Test1.sol\":2453:2463  msg.sender */\n      caller\n        /* \"contracts/Test1.sol\":2453:2472  msg.sender == owner */\n      0xffffffffffffffffffffffffffffffffffffffff\n      and\n      eq\n        /* \"contracts/Test1.sol\":2445:2498  require(msg.sender == owner, \"You are not the owner\") */\n      tag_81\n      jumpi\n      mload(0x40)\n      0x08c379a000000000000000000000000000000000000000000000000000000000\n      dup2\n      mstore\n      0x04\n      add\n      tag_82\n      swap1\n      tag_83\n      jump\t// in\n    tag_82:\n      mload(0x40)\n      dup1\n      swap2\n      sub\n      swap1\n      revert\n    tag_81:\n        /* \"contracts/Test1.sol\":2940:2945  users */\n      0x01\n        /* \"contracts/Test1.sol\":2951:2996  User(walletAddress, name, amount, isInvestor) */\n      mload(0x40)\n      dup1\n      0x80\n      add\n      0x40\n      mstore\n      dup1\n        /* \"contracts/Test1.sol\":2956:2969  walletAddress */\n      dup7\n        /* \"contracts/Test1.sol\":2951:2996  User(walletAddress, name, amount, isInvestor) */\n      0xffffffffffffffffffffffffffffffffffffffff\n      and\n      dup2\n      mstore\n      0x20\n      add\n        /* \"contracts/Test1.sol\":2971:2975  name */\n      dup6\n        /* \"contracts/Test1.sol\":2951:2996  User(walletAddress, name, amount, isInvestor) */\n      dup2\n      mstore\n      0x20\n      add\n        /* \"contracts/Test1.sol\":2977:2983  amount */\n      dup5\n        /* \"contracts/Test1.sol\":2951:2996  User(walletAddress, name, amount, isInvestor) */\n      dup2\n      mstore\n      0x20\n      add\n        /* \"contracts/Test1.sol\":2985:2995  isInvestor */\n      dup4\n        /* \"contracts/Test1.sol\":2951:2996  User(walletAddress, name, amount, isInvestor) */\n      iszero\n      iszero\n      dup2\n      mstore\n      pop\n        /* \"contracts/Test1.sol\":2940:2997  users.push(User(walletAddress, name, amount, isInvestor)) */\n      swap1\n      dup1\n      0x01\n      dup2\n      sload\n      add\n      dup1\n      dup3\n      sstore\n      dup1\n      swap2\n      pop\n      pop\n      0x01\n      swap1\n      sub\n      swap1\n      0x00\n      mstore\n      keccak256(0x00, 0x20)\n      swap1\n      0x04\n      mul\n      add\n      0x00\n      swap1\n      swap2\n      swap1\n      swap2\n      swap1\n      swap2\n      pop\n      0x00\n      dup3\n      add\n      mload\n      dup2\n      0x00\n      add\n      exp(0x0100, 0x00)\n      dup2\n      sload\n      dup2\n      0xffffffffffffffffffffffffffffffffffffffff\n      mul\n      not\n      and\n      swap1\n      dup4\n      0xffffffffffffffffffffffffffffffffffffffff\n      and\n      mul\n      or\n      swap1\n      sstore\n      pop\n      0x20\n      dup3\n      add\n      mload\n      dup2\n      0x01\n      add\n      swap1\n      dup1\n      mload\n      swap1\n      0x20\n      add\n      swap1\n      tag_86\n      swap3\n      swap2\n      swap1\n      tag_87\n      jump\t// in\n    tag_86:\n      pop\n      0x40\n      dup3\n      add\n      mload\n      dup2\n      0x02\n      add\n      sstore\n      0x60\n      dup3\n      add\n      mload\n      dup2\n      0x03\n      add\n      exp(0x0100, 0x00)\n      dup2\n      sload\n      dup2\n      0xff\n      mul\n      not\n      and\n      swap1\n      dup4\n      iszero\n      iszero\n      mul\n      or\n      swap1\n      sstore\n      pop\n      pop\n      pop\n        /* \"contracts/Test1.sol\":2824:3004  function addUser(address walletAddress, string memory name, uint amount, bool isInvestor) public onlyOwner{... */\n      pop\n      pop\n      pop\n      pop\n      jump\t// out\n        /* \"contracts/Test1.sol\":2751:2770  User[] public users */\n    tag_32:\n      0x01\n      dup2\n      dup2\n      sload\n      dup2\n      lt\n      tag_88\n      jumpi\n      0x00\n      dup1\n      revert\n    tag_88:\n      swap1\n      0x00\n      mstore\n      keccak256(0x00, 0x20)\n      swap1\n      0x04\n      mul\n      add\n      0x00\n      swap2\n      pop\n      swap1\n      pop\n      dup1\n      0x00\n      add\n      0x00\n      swap1\n      sload\n      swap1\n      0x0100\n      exp\n      swap1\n      div\n      0xffffffffffffffffffffffffffffffffffffffff\n      and\n      swap1\n      dup1\n      0x01\n      add\n      dup1\n      sload\n      tag_90\n      swap1\n      tag_91\n      jump\t// in\n    tag_90:\n      dup1\n      0x1f\n      add\n      0x20\n      dup1\n      swap2\n      div\n      mul\n      0x20\n      add\n      mload(0x40)\n      swap1\n      dup2\n      add\n      0x40\n      mstore\n      dup1\n      swap3\n      swap2\n      swap1\n      dup2\n      dup2\n      mstore\n      0x20\n      add\n      dup3\n      dup1\n      sload\n      tag_92\n      swap1\n      tag_91\n      jump\t// in\n    tag_92:\n      dup1\n      iszero\n      tag_93\n      jumpi\n      dup1\n      0x1f\n      lt\n      tag_94\n      jumpi\n      0x0100\n      dup1\n      dup4\n      sload\n      div\n      mul\n      dup4\n      mstore\n      swap2\n      0x20\n      add\n      swap2\n      jump(tag_93)\n    tag_94:\n      dup3\n      add\n      swap2\n      swap1\n      0x00\n      mstore\n      keccak256(0x00, 0x20)\n      swap1\n    tag_95:\n      dup2\n      sload\n      dup2\n      mstore\n      swap1\n      0x01\n      add\n      swap1\n      0x20\n      add\n      dup1\n      dup4\n      gt\n      tag_95\n      jumpi\n      dup3\n      swap1\n      sub\n      0x1f\n      and\n      dup3\n      add\n      swap2\n    tag_93:\n      pop\n      pop\n      pop\n      pop\n      pop\n      swap1\n      dup1\n      0x02\n      add\n      sload\n      swap1\n      dup1\n      0x03\n      add\n      0x00\n      swap1\n      sload\n      swap1\n      0x0100\n      exp\n      swap1\n      div\n      0xff\n      and\n      swap1\n      pop\n      dup5\n      jump\t// out\n        /* \"contracts/Test1.sol\":3612:3782  function investorPermission(address walletAddress) public returns(bool){... */\n    tag_38:\n        /* \"contracts/Test1.sol\":3678:3682  bool */\n      0x00\n        /* \"contracts/Test1.sol\":3693:3709  User memory user */\n      dup1\n        /* \"contracts/Test1.sol\":3712:3743  getUserByAddress(walletAddress) */\n      tag_97\n        /* \"contracts/Test1.sol\":3729:3742  walletAddress */\n      dup4\n        /* \"contracts/Test1.sol\":3712:3728  getUserByAddress */\n      tag_48\n        /* \"contracts/Test1.sol\":3712:3743  getUserByAddress(walletAddress) */\n      jump\t// in\n    tag_97:\n        /* \"contracts/Test1.sol\":3693:3743  User memory user = getUserByAddress(walletAddress) */\n      swap1\n      pop\n        /* \"contracts/Test1.sol\":3760:3764  user */\n      dup1\n        /* \"contracts/Test1.sol\":3760:3775  user.isInvestor */\n      0x60\n      add\n      mload\n        /* \"contracts/Test1.sol\":3753:3775  return user.isInvestor */\n      swap2\n      pop\n      pop\n        /* \"contracts/Test1.sol\":3612:3782  function investorPermission(address walletAddress) public returns(bool){... */\n      swap2\n      swap1\n      pop\n      jump\t// out\n        /* \"contracts/Test1.sol\":4049:4252  function investorExists(address walletAddress) public view returns(bool){... */\n    tag_43:\n        /* \"contracts/Test1.sol\":4116:4120  bool */\n      0x00\n        /* \"contracts/Test1.sol\":4135:4146  StringUtils */\n      linkerSymbol(\"08c12a1e75e73256f67245938a086822331733df257c705d4d78863e73374c37\")\n        /* \"contracts/Test1.sol\":4135:4152  StringUtils.equal */\n      0x46bdca9a\n        /* \"contracts/Test1.sol\":4153:4162  investors */\n      0x02\n        /* \"contracts/Test1.sol\":4153:4177  investors[walletAddress] */\n      0x00\n        /* \"contracts/Test1.sol\":4163:4176  walletAddress */\n      dup6\n        /* \"contracts/Test1.sol\":4153:4177  investors[walletAddress] */\n      0xffffffffffffffffffffffffffffffffffffffff\n      and\n      0xffffffffffffffffffffffffffffffffffffffff\n      and\n      dup2\n      mstore\n      0x20\n      add\n      swap1\n      dup2\n      mstore\n      0x20\n      add\n      0x00\n      keccak256\n        /* \"contracts/Test1.sol\":4153:4182  investors[walletAddress].name */\n      0x01\n      add\n        /* \"contracts/Test1.sol\":4135:4186  StringUtils.equal(investors[walletAddress].name,\"\") */\n      mload(0x40)\n      dup3\n      0xffffffff\n      and\n      0xe0\n      shl\n      dup2\n      mstore\n      0x04\n      add\n      tag_99\n      swap2\n      swap1\n      tag_100\n      jump\t// in\n    tag_99:\n      0x20\n      mload(0x40)\n      dup1\n      dup4\n      sub\n      dup2\n      dup7\n      dup1\n      extcodesize\n      iszero\n      dup1\n      iszero\n      tag_101\n      jumpi\n      0x00\n      dup1\n      revert\n    tag_101:\n      pop\n      gas\n      delegatecall\n      iszero\n      dup1\n      iszero\n      tag_103\n      jumpi\n      returndatasize\n      0x00\n      dup1\n      returndatacopy\n      revert(0x00, returndatasize)\n    tag_103:\n      pop\n      pop\n      pop\n      pop\n      mload(0x40)\n      returndatasize\n      not(0x1f)\n      0x1f\n      dup3\n      add\n      and\n      dup3\n      add\n      dup1\n      0x40\n      mstore\n      pop\n      dup2\n      add\n      swap1\n      tag_104\n      swap2\n      swap1\n      tag_105\n      jump\t// in\n    tag_104:\n        /* \"contracts/Test1.sol\":4132:4223  if(StringUtils.equal(investors[walletAddress].name,\"\")){... */\n      iszero\n      tag_106\n      jumpi\n        /* \"contracts/Test1.sol\":4208:4212  true */\n      0x01\n        /* \"contracts/Test1.sol\":4201:4212  return true */\n      swap1\n      pop\n      jump(tag_98)\n        /* \"contracts/Test1.sol\":4132:4223  if(StringUtils.equal(investors[walletAddress].name,\"\")){... */\n    tag_106:\n        /* \"contracts/Test1.sol\":4240:4245  false */\n      0x00\n        /* \"contracts/Test1.sol\":4233:4245  return false */\n      swap1\n      pop\n        /* \"contracts/Test1.sol\":4049:4252  function investorExists(address walletAddress) public view returns(bool){... */\n    tag_98:\n      swap2\n      swap1\n      pop\n      jump\t// out\n        /* \"contracts/Test1.sol\":3270:3606  function getUserByAddress(address walletAddress) public returns(User memory user){... */\n    tag_48:\n        /* \"contracts/Test1.sol\":3334:3350  User memory user */\n      tag_107\n      tag_108\n      jump\t// in\n    tag_107:\n        /* \"contracts/Test1.sol\":3365:3371  uint i */\n      0x00\n        /* \"contracts/Test1.sol\":3361:3558  for(uint i = 0; i < users.length; i++){... */\n    tag_110:\n        /* \"contracts/Test1.sol\":3381:3386  users */\n      0x01\n        /* \"contracts/Test1.sol\":3381:3393  users.length */\n      dup1\n      sload\n      swap1\n      pop\n        /* \"contracts/Test1.sol\":3377:3378  i */\n      dup2\n        /* \"contracts/Test1.sol\":3377:3393  i < users.length */\n      lt\n        /* \"contracts/Test1.sol\":3361:3558  for(uint i = 0; i < users.length; i++){... */\n      iszero\n      tag_111\n      jumpi\n        /* \"contracts/Test1.sol\":3442:3455  walletAddress */\n      dup3\n        /* \"contracts/Test1.sol\":3416:3455  users[i].walletAddress == walletAddress */\n      0xffffffffffffffffffffffffffffffffffffffff\n      and\n        /* \"contracts/Test1.sol\":3416:3421  users */\n      0x01\n        /* \"contracts/Test1.sol\":3422:3423  i */\n      dup3\n        /* \"contracts/Test1.sol\":3416:3424  users[i] */\n      dup2\n      sload\n      dup2\n      lt\n      tag_113\n      jumpi\n      tag_114\n      tag_72\n      jump\t// in\n    tag_114:\n    tag_113:\n      swap1\n      0x00\n      mstore\n      keccak256(0x00, 0x20)\n      swap1\n      0x04\n      mul\n      add\n        /* \"contracts/Test1.sol\":3416:3438  users[i].walletAddress */\n      0x00\n      add\n      0x00\n      swap1\n      sload\n      swap1\n      0x0100\n      exp\n      swap1\n      div\n      0xffffffffffffffffffffffffffffffffffffffff\n      and\n        /* \"contracts/Test1.sol\":3416:3455  users[i].walletAddress == walletAddress */\n      0xffffffffffffffffffffffffffffffffffffffff\n      and\n      eq\n        /* \"contracts/Test1.sol\":3413:3548  if(users[i].walletAddress == walletAddress){... */\n      iszero\n      tag_116\n      jumpi\n        /* \"contracts/Test1.sol\":3496:3500  true */\n      0x01\n        /* \"contracts/Test1.sol\":3474:3479  users */\n      dup1\n        /* \"contracts/Test1.sol\":3480:3481  i */\n      dup3\n        /* \"contracts/Test1.sol\":3474:3482  users[i] */\n      dup2\n      sload\n      dup2\n      lt\n      tag_117\n      jumpi\n      tag_118\n      tag_72\n      jump\t// in\n    tag_118:\n    tag_117:\n      swap1\n      0x00\n      mstore\n      keccak256(0x00, 0x20)\n      swap1\n      0x04\n      mul\n      add\n        /* \"contracts/Test1.sol\":3474:3493  users[i].isInvestor */\n      0x03\n      add\n      0x00\n        /* \"contracts/Test1.sol\":3474:3500  users[i].isInvestor = true */\n      0x0100\n      exp\n      dup2\n      sload\n      dup2\n      0xff\n      mul\n      not\n      and\n      swap1\n      dup4\n      iszero\n      iszero\n      mul\n      or\n      swap1\n      sstore\n      pop\n        /* \"contracts/Test1.sol\":3525:3530  users */\n      0x01\n        /* \"contracts/Test1.sol\":3531:3532  i */\n      dup2\n        /* \"contracts/Test1.sol\":3525:3533  users[i] */\n      dup2\n      sload\n      dup2\n      lt\n      tag_120\n      jumpi\n      tag_121\n      tag_72\n      jump\t// in\n    tag_121:\n    tag_120:\n      swap1\n      0x00\n      mstore\n      keccak256(0x00, 0x20)\n      swap1\n      0x04\n      mul\n      add\n        /* \"contracts/Test1.sol\":3518:3533  return users[i] */\n      mload(0x40)\n      dup1\n      0x80\n      add\n      0x40\n      mstore\n      swap1\n      dup2\n      0x00\n      dup3\n      add\n      0x00\n      swap1\n      sload\n      swap1\n      0x0100\n      exp\n      swap1\n      div\n      0xffffffffffffffffffffffffffffffffffffffff\n      and\n      0xffffffffffffffffffffffffffffffffffffffff\n      and\n      0xffffffffffffffffffffffffffffffffffffffff\n      and\n      dup2\n      mstore\n      0x20\n      add\n      0x01\n      dup3\n      add\n      dup1\n      sload\n      tag_123\n      swap1\n      tag_91\n      jump\t// in\n    tag_123:\n      dup1\n      0x1f\n      add\n      0x20\n      dup1\n      swap2\n      div\n      mul\n      0x20\n      add\n      mload(0x40)\n      swap1\n      dup2\n      add\n      0x40\n      mstore\n      dup1\n      swap3\n      swap2\n      swap1\n      dup2\n      dup2\n      mstore\n      0x20\n      add\n      dup3\n      dup1\n      sload\n      tag_124\n      swap1\n      tag_91\n      jump\t// in\n    tag_124:\n      dup1\n      iszero\n      tag_125\n      jumpi\n      dup1\n      0x1f\n      lt\n      tag_126\n      jumpi\n      0x0100\n      dup1\n      dup4\n      sload\n      div\n      mul\n      dup4\n      mstore\n      swap2\n      0x20\n      add\n      swap2\n      jump(tag_125)\n    tag_126:\n      dup3\n      add\n      swap2\n      swap1\n      0x00\n      mstore\n      keccak256(0x00, 0x20)\n      swap1\n    tag_127:\n      dup2\n      sload\n      dup2\n      mstore\n      swap1\n      0x01\n      add\n      swap1\n      0x20\n      add\n      dup1\n      dup4\n      gt\n      tag_127\n      jumpi\n      dup3\n      swap1\n      sub\n      0x1f\n      and\n      dup3\n      add\n      swap2\n    tag_125:\n      pop\n      pop\n      pop\n      pop\n      pop\n      dup2\n      mstore\n      0x20\n      add\n      0x02\n      dup3\n      add\n      sload\n      dup2\n      mstore\n      0x20\n      add\n      0x03\n      dup3\n      add\n      0x00\n      swap1\n      sload\n      swap1\n      0x0100\n      exp\n      swap1\n      div\n      0xff\n      and\n      iszero\n      iszero\n      iszero\n      iszero\n      dup2\n      mstore\n      pop\n      pop\n      swap2\n      pop\n      pop\n      jump(tag_109)\n        /* \"contracts/Test1.sol\":3413:3548  if(users[i].walletAddress == walletAddress){... */\n    tag_116:\n        /* \"contracts/Test1.sol\":3395:3398  i++ */\n      dup1\n      dup1\n      tag_128\n      swap1\n      tag_76\n      jump\t// in\n    tag_128:\n      swap2\n      pop\n      pop\n        /* \"contracts/Test1.sol\":3361:3558  for(uint i = 0; i < users.length; i++){... */\n      jump(tag_110)\n    tag_111:\n      pop\n        /* \"contracts/Test1.sol\":3567:3599  revert(\"Invalid Wallet Address\") */\n      mload(0x40)\n      0x08c379a000000000000000000000000000000000000000000000000000000000\n      dup2\n      mstore\n      0x04\n      add\n      tag_129\n      swap1\n      tag_130\n      jump\t// in\n    tag_129:\n      mload(0x40)\n      dup1\n      swap2\n      sub\n      swap1\n      revert\n        /* \"contracts/Test1.sol\":3270:3606  function getUserByAddress(address walletAddress) public returns(User memory user){... */\n    tag_109:\n      swap2\n      swap1\n      pop\n      jump\t// out\n        /* \"contracts/Test1.sol\":2776:2817  mapping(address => User) public investors */\n    tag_54:\n      mstore(0x20, 0x02)\n      dup1\n      0x00\n      mstore\n      keccak256(0x00, 0x40)\n      0x00\n      swap2\n      pop\n      swap1\n      pop\n      dup1\n      0x00\n      add\n      0x00\n      swap1\n      sload\n      swap1\n      0x0100\n      exp\n      swap1\n      div\n      0xffffffffffffffffffffffffffffffffffffffff\n      and\n      swap1\n      dup1\n      0x01\n      add\n      dup1\n      sload\n      tag_131\n      swap1\n      tag_91\n      jump\t// in\n    tag_131:\n      dup1\n      0x1f\n      add\n      0x20\n      dup1\n      swap2\n      div\n      mul\n      0x20\n      add\n      mload(0x40)\n      swap1\n      dup2\n      add\n      0x40\n      mstore\n      dup1\n      swap3\n      swap2\n      swap1\n      dup2\n      dup2\n      mstore\n      0x20\n      add\n      dup3\n      dup1\n      sload\n      tag_132\n      swap1\n      tag_91\n      jump\t// in\n    tag_132:\n      dup1\n      iszero\n      tag_133\n      jumpi\n      dup1\n      0x1f\n      lt\n      tag_134\n      jumpi\n      0x0100\n      dup1\n      dup4\n      sload\n      div\n      mul\n      dup4\n      mstore\n      swap2\n      0x20\n      add\n      swap2\n      jump(tag_133)\n    tag_134:\n      dup3\n      add\n      swap2\n      swap1\n      0x00\n      mstore\n      keccak256(0x00, 0x20)\n      swap1\n    tag_135:\n      dup2\n      sload\n      dup2\n      mstore\n      swap1\n      0x01\n      add\n      swap1\n      0x20\n      add\n      dup1\n      dup4\n      gt\n      tag_135\n      jumpi\n      dup3\n      swap1\n      sub\n      0x1f\n      and\n      dup3\n      add\n      swap2\n    tag_133:\n      pop\n      pop\n      pop\n      pop\n      pop\n      swap1\n      dup1\n      0x02\n      add\n      sload\n      swap1\n      dup1\n      0x03\n      add\n      0x00\n      swap1\n      sload\n      swap1\n      0x0100\n      exp\n      swap1\n      div\n      0xff\n      and\n      swap1\n      pop\n      dup5\n      jump\t// out\n        /* \"contracts/Test1.sol\":4615:4878  function balanceOf(address walletAddress) public view returns(uint){... */\n    tag_59:\n        /* \"contracts/Test1.sol\":4677:4681  uint */\n      0x00\n        /* \"contracts/Test1.sol\":4696:4702  uint i */\n      dup1\n        /* \"contracts/Test1.sol\":4705:4706  0 */\n      0x00\n        /* \"contracts/Test1.sol\":4696:4706  uint i = 0 */\n      swap1\n      pop\n        /* \"contracts/Test1.sol\":4692:4852  for(uint i = 0; i < users.length; i++){... */\n    tag_137:\n        /* \"contracts/Test1.sol\":4712:4717  users */\n      0x01\n        /* \"contracts/Test1.sol\":4712:4724  users.length */\n      dup1\n      sload\n      swap1\n      pop\n        /* \"contracts/Test1.sol\":4708:4709  i */\n      dup2\n        /* \"contracts/Test1.sol\":4708:4724  i < users.length */\n      lt\n        /* \"contracts/Test1.sol\":4692:4852  for(uint i = 0; i < users.length; i++){... */\n      iszero\n      tag_138\n      jumpi\n        /* \"contracts/Test1.sol\":4773:4786  walletAddress */\n      dup3\n        /* \"contracts/Test1.sol\":4747:4786  users[i].walletAddress == walletAddress */\n      0xffffffffffffffffffffffffffffffffffffffff\n      and\n        /* \"contracts/Test1.sol\":4747:4752  users */\n      0x01\n        /* \"contracts/Test1.sol\":4753:4754  i */\n      dup3\n        /* \"contracts/Test1.sol\":4747:4755  users[i] */\n      dup2\n      sload\n      dup2\n      lt\n      tag_140\n      jumpi\n      tag_141\n      tag_72\n      jump\t// in\n    tag_141:\n    tag_140:\n      swap1\n      0x00\n      mstore\n      keccak256(0x00, 0x20)\n      swap1\n      0x04\n      mul\n      add\n        /* \"contracts/Test1.sol\":4747:4769  users[i].walletAddress */\n      0x00\n      add\n      0x00\n      swap1\n      sload\n      swap1\n      0x0100\n      exp\n      swap1\n      div\n      0xffffffffffffffffffffffffffffffffffffffff\n      and\n        /* \"contracts/Test1.sol\":4747:4786  users[i].walletAddress == walletAddress */\n      0xffffffffffffffffffffffffffffffffffffffff\n      and\n      eq\n        /* \"contracts/Test1.sol\":4744:4842  if(users[i].walletAddress == walletAddress){... */\n      iszero\n      tag_143\n      jumpi\n        /* \"contracts/Test1.sol\":4812:4817  users */\n      0x01\n        /* \"contracts/Test1.sol\":4818:4819  i */\n      dup2\n        /* \"contracts/Test1.sol\":4812:4820  users[i] */\n      dup2\n      sload\n      dup2\n      lt\n      tag_144\n      jumpi\n      tag_145\n      tag_72\n      jump\t// in\n    tag_145:\n    tag_144:\n      swap1\n      0x00\n      mstore\n      keccak256(0x00, 0x20)\n      swap1\n      0x04\n      mul\n      add\n        /* \"contracts/Test1.sol\":4812:4827  users[i].amount */\n      0x02\n      add\n      sload\n        /* \"contracts/Test1.sol\":4805:4827  return users[i].amount */\n      swap2\n      pop\n      pop\n      jump(tag_136)\n        /* \"contracts/Test1.sol\":4744:4842  if(users[i].walletAddress == walletAddress){... */\n    tag_143:\n        /* \"contracts/Test1.sol\":4726:4729  i++ */\n      dup1\n      dup1\n      tag_147\n      swap1\n      tag_76\n      jump\t// in\n    tag_147:\n      swap2\n      pop\n      pop\n        /* \"contracts/Test1.sol\":4692:4852  for(uint i = 0; i < users.length; i++){... */\n      jump(tag_137)\n    tag_138:\n      pop\n        /* \"contracts/Test1.sol\":4868:4871  999 */\n      0x03e7\n        /* \"contracts/Test1.sol\":4861:4871  return 999 */\n      swap1\n      pop\n        /* \"contracts/Test1.sol\":4615:4878  function balanceOf(address walletAddress) public view returns(uint){... */\n    tag_136:\n      swap2\n      swap1\n      pop\n      jump\t// out\n        /* \"contracts/Test1.sol\":3010:3264  function addToInvestors(address walletAddress) public onlyOwner{... */\n    tag_65:\n        /* \"contracts/Test1.sol\":2467:2472  owner */\n      0x00\n      dup1\n      sload\n      swap1\n      0x0100\n      exp\n      swap1\n      div\n      0xffffffffffffffffffffffffffffffffffffffff\n      and\n        /* \"contracts/Test1.sol\":2453:2472  msg.sender == owner */\n      0xffffffffffffffffffffffffffffffffffffffff\n      and\n        /* \"contracts/Test1.sol\":2453:2463  msg.sender */\n      caller\n        /* \"contracts/Test1.sol\":2453:2472  msg.sender == owner */\n      0xffffffffffffffffffffffffffffffffffffffff\n      and\n      eq\n        /* \"contracts/Test1.sol\":2445:2498  require(msg.sender == owner, \"You are not the owner\") */\n      tag_149\n      jumpi\n      mload(0x40)\n      0x08c379a000000000000000000000000000000000000000000000000000000000\n      dup2\n      mstore\n      0x04\n      add\n      tag_150\n      swap1\n      tag_83\n      jump\t// in\n    tag_150:\n      mload(0x40)\n      dup1\n      swap2\n      sub\n      swap1\n      revert\n    tag_149:\n        /* \"contracts/Test1.sol\":3083:3099  User memory user */\n      0x00\n        /* \"contracts/Test1.sol\":3102:3133  getUserByAddress(walletAddress) */\n      tag_152\n        /* \"contracts/Test1.sol\":3119:3132  walletAddress */\n      dup3\n        /* \"contracts/Test1.sol\":3102:3118  getUserByAddress */\n      tag_48\n        /* \"contracts/Test1.sol\":3102:3133  getUserByAddress(walletAddress) */\n      jump\t// in\n    tag_152:\n        /* \"contracts/Test1.sol\":3083:3133  User memory user = getUserByAddress(walletAddress) */\n      swap1\n      pop\n        /* \"contracts/Test1.sol\":3146:3176  userExists(user.walletAddress) */\n      tag_153\n        /* \"contracts/Test1.sol\":3157:3161  user */\n      dup2\n        /* \"contracts/Test1.sol\":3157:3175  user.walletAddress */\n      0x00\n      add\n      mload\n        /* \"contracts/Test1.sol\":3146:3156  userExists */\n      tag_17\n        /* \"contracts/Test1.sol\":3146:3176  userExists(user.walletAddress) */\n      jump\t// in\n    tag_153:\n        /* \"contracts/Test1.sol\":3143:3258  if(userExists(user.walletAddress)){... */\n      iszero\n      tag_154\n      jumpi\n        /* \"contracts/Test1.sol\":3218:3222  user */\n      dup1\n        /* \"contracts/Test1.sol\":3191:3200  investors */\n      0x02\n        /* \"contracts/Test1.sol\":3191:3215  investors[walletAddress] */\n      0x00\n        /* \"contracts/Test1.sol\":3201:3214  walletAddress */\n      dup5\n        /* \"contracts/Test1.sol\":3191:3215  investors[walletAddress] */\n      0xffffffffffffffffffffffffffffffffffffffff\n      and\n      0xffffffffffffffffffffffffffffffffffffffff\n      and\n      dup2\n      mstore\n      0x20\n      add\n      swap1\n      dup2\n      mstore\n      0x20\n      add\n      0x00\n      keccak256\n        /* \"contracts/Test1.sol\":3191:3222  investors[walletAddress] = user */\n      0x00\n      dup3\n      add\n      mload\n      dup2\n      0x00\n      add\n      exp(0x0100, 0x00)\n      dup2\n      sload\n      dup2\n      0xffffffffffffffffffffffffffffffffffffffff\n      mul\n      not\n      and\n      swap1\n      dup4\n      0xffffffffffffffffffffffffffffffffffffffff\n      and\n      mul\n      or\n      swap1\n      sstore\n      pop\n      0x20\n      dup3\n      add\n      mload\n      dup2\n      0x01\n      add\n      swap1\n      dup1\n      mload\n      swap1\n      0x20\n      add\n      swap1\n      tag_155\n      swap3\n      swap2\n      swap1\n      tag_87\n      jump\t// in\n    tag_155:\n      pop\n      0x40\n      dup3\n      add\n      mload\n      dup2\n      0x02\n      add\n      sstore\n      0x60\n      dup3\n      add\n      mload\n      dup2\n      0x03\n      add\n      exp(0x0100, 0x00)\n      dup2\n      sload\n      dup2\n      0xff\n      mul\n      not\n      and\n      swap1\n      dup4\n      iszero\n      iszero\n      mul\n      or\n      swap1\n      sstore\n      pop\n      swap1\n      pop\n      pop\n        /* \"contracts/Test1.sol\":3143:3258  if(userExists(user.walletAddress)){... */\n      jump(tag_156)\n    tag_154:\n    tag_156:\n        /* \"contracts/Test1.sol\":3073:3264  {... */\n      pop\n        /* \"contracts/Test1.sol\":3010:3264  function addToInvestors(address walletAddress) public onlyOwner{... */\n      pop\n      jump\t// out\n        /* \"contracts/Test1.sol\":4369:4609  function transferToAddress(address walletAddress) private {... */\n    tag_79:\n        /* \"contracts/Test1.sol\":4441:4447  uint i */\n      0x00\n        /* \"contracts/Test1.sol\":4437:4603  for(uint i = 0; i < users.length; i++){... */\n    tag_158:\n        /* \"contracts/Test1.sol\":4457:4462  users */\n      0x01\n        /* \"contracts/Test1.sol\":4457:4469  users.length */\n      dup1\n      sload\n      swap1\n      pop\n        /* \"contracts/Test1.sol\":4453:4454  i */\n      dup2\n        /* \"contracts/Test1.sol\":4453:4469  i < users.length */\n      lt\n        /* \"contracts/Test1.sol\":4437:4603  for(uint i = 0; i < users.length; i++){... */\n      iszero\n      tag_159\n      jumpi\n        /* \"contracts/Test1.sol\":4518:4531  walletAddress */\n      dup2\n        /* \"contracts/Test1.sol\":4492:4531  users[i].walletAddress == walletAddress */\n      0xffffffffffffffffffffffffffffffffffffffff\n      and\n        /* \"contracts/Test1.sol\":4492:4497  users */\n      0x01\n        /* \"contracts/Test1.sol\":4498:4499  i */\n      dup3\n        /* \"contracts/Test1.sol\":4492:4500  users[i] */\n      dup2\n      sload\n      dup2\n      lt\n      tag_161\n      jumpi\n      tag_162\n      tag_72\n      jump\t// in\n    tag_162:\n    tag_161:\n      swap1\n      0x00\n      mstore\n      keccak256(0x00, 0x20)\n      swap1\n      0x04\n      mul\n      add\n        /* \"contracts/Test1.sol\":4492:4514  users[i].walletAddress */\n      0x00\n      add\n      0x00\n      swap1\n      sload\n      swap1\n      0x0100\n      exp\n      swap1\n      div\n      0xffffffffffffffffffffffffffffffffffffffff\n      and\n        /* \"contracts/Test1.sol\":4492:4531  users[i].walletAddress == walletAddress */\n      0xffffffffffffffffffffffffffffffffffffffff\n      and\n      eq\n        /* \"contracts/Test1.sol\":4489:4593  if(users[i].walletAddress == walletAddress){... */\n      iszero\n      tag_164\n      jumpi\n        /* \"contracts/Test1.sol\":4569:4578  msg.value */\n      callvalue\n        /* \"contracts/Test1.sol\":4550:4555  users */\n      0x01\n        /* \"contracts/Test1.sol\":4556:4557  i */\n      dup3\n        /* \"contracts/Test1.sol\":4550:4558  users[i] */\n      dup2\n      sload\n      dup2\n      lt\n      tag_165\n      jumpi\n      tag_166\n      tag_72\n      jump\t// in\n    tag_166:\n    tag_165:\n      swap1\n      0x00\n      mstore\n      keccak256(0x00, 0x20)\n      swap1\n      0x04\n      mul\n      add\n        /* \"contracts/Test1.sol\":4550:4565  users[i].amount */\n      0x02\n      add\n      0x00\n        /* \"contracts/Test1.sol\":4550:4578  users[i].amount += msg.value */\n      dup3\n      dup3\n      sload\n      tag_168\n      swap2\n      swap1\n      tag_169\n      jump\t// in\n    tag_168:\n      swap3\n      pop\n      pop\n      dup2\n      swap1\n      sstore\n      pop\n        /* \"contracts/Test1.sol\":4489:4593  if(users[i].walletAddress == walletAddress){... */\n    tag_164:\n        /* \"contracts/Test1.sol\":4471:4474  i++ */\n      dup1\n      dup1\n      tag_170\n      swap1\n      tag_76\n      jump\t// in\n    tag_170:\n      swap2\n      pop\n      pop\n        /* \"contracts/Test1.sol\":4437:4603  for(uint i = 0; i < users.length; i++){... */\n      jump(tag_158)\n    tag_159:\n      pop\n        /* \"contracts/Test1.sol\":4369:4609  function transferToAddress(address walletAddress) private {... */\n      pop\n      jump\t// out\n    tag_87:\n      dup3\n      dup1\n      sload\n      tag_171\n      swap1\n      tag_91\n      jump\t// in\n    tag_171:\n      swap1\n      0x00\n      mstore\n      keccak256(0x00, 0x20)\n      swap1\n      0x1f\n      add\n      0x20\n      swap1\n      div\n      dup2\n      add\n      swap3\n      dup3\n      tag_173\n      jumpi\n      0x00\n      dup6\n      sstore\n      jump(tag_172)\n    tag_173:\n      dup3\n      0x1f\n      lt\n      tag_174\n      jumpi\n      dup1\n      mload\n      not(0xff)\n      and\n      dup4\n      dup1\n      add\n      or\n      dup6\n      sstore\n      jump(tag_172)\n    tag_174:\n      dup3\n      dup1\n      add\n      0x01\n      add\n      dup6\n      sstore\n      dup3\n      iszero\n      tag_172\n      jumpi\n      swap2\n      dup3\n      add\n    tag_175:\n      dup3\n      dup2\n      gt\n      iszero\n      tag_176\n      jumpi\n      dup3\n      mload\n      dup3\n      sstore\n      swap2\n      0x20\n      add\n      swap2\n      swap1\n      0x01\n      add\n      swap1\n      jump(tag_175)\n    tag_176:\n    tag_172:\n      pop\n      swap1\n      pop\n      tag_177\n      swap2\n      swap1\n      tag_178\n      jump\t// in\n    tag_177:\n      pop\n      swap1\n      jump\t// out\n    tag_108:\n      mload(0x40)\n      dup1\n      0x80\n      add\n      0x40\n      mstore\n      dup1\n      and(0xffffffffffffffffffffffffffffffffffffffff, 0x00)\n      dup2\n      mstore\n      0x20\n      add\n      0x60\n      dup2\n      mstore\n      0x20\n      add\n      0x00\n      dup2\n      mstore\n      0x20\n      add\n      iszero(iszero(0x00))\n      dup2\n      mstore\n      pop\n      swap1\n      jump\t// out\n    tag_178:\n    tag_179:\n      dup1\n      dup3\n      gt\n      iszero\n      tag_180\n      jumpi\n      0x00\n      dup2\n      0x00\n      swap1\n      sstore\n      pop\n      0x01\n      add\n      jump(tag_179)\n    tag_180:\n      pop\n      swap1\n      jump\t// out\n        /* \"#utility.yul\":7:419   */\n    tag_182:\n        /* \"#utility.yul\":85:90   */\n      0x00\n        /* \"#utility.yul\":110:176   */\n      tag_184\n        /* \"#utility.yul\":126:175   */\n      tag_185\n        /* \"#utility.yul\":168:174   */\n      dup5\n        /* \"#utility.yul\":126:175   */\n      tag_186\n      jump\t// in\n    tag_185:\n        /* \"#utility.yul\":110:176   */\n      tag_187\n      jump\t// in\n    tag_184:\n        /* \"#utility.yul\":101:176   */\n      swap1\n      pop\n        /* \"#utility.yul\":199:205   */\n      dup3\n        /* \"#utility.yul\":192:197   */\n      dup2\n        /* \"#utility.yul\":185:206   */\n      mstore\n        /* \"#utility.yul\":237:241   */\n      0x20\n        /* \"#utility.yul\":230:235   */\n      dup2\n        /* \"#utility.yul\":226:242   */\n      add\n        /* \"#utility.yul\":275:278   */\n      dup5\n        /* \"#utility.yul\":266:272   */\n      dup5\n        /* \"#utility.yul\":261:264   */\n      dup5\n        /* \"#utility.yul\":257:273   */\n      add\n        /* \"#utility.yul\":254:279   */\n      gt\n        /* \"#utility.yul\":251:363   */\n      iszero\n      tag_188\n      jumpi\n        /* \"#utility.yul\":282:361   */\n      tag_189\n      tag_190\n      jump\t// in\n    tag_189:\n        /* \"#utility.yul\":251:363   */\n    tag_188:\n        /* \"#utility.yul\":372:413   */\n      tag_191\n        /* \"#utility.yul\":406:412   */\n      dup5\n        /* \"#utility.yul\":401:404   */\n      dup3\n        /* \"#utility.yul\":396:399   */\n      dup6\n        /* \"#utility.yul\":372:413   */\n      tag_192\n      jump\t// in\n    tag_191:\n        /* \"#utility.yul\":91:419   */\n      pop\n        /* \"#utility.yul\":7:419   */\n      swap4\n      swap3\n      pop\n      pop\n      pop\n      jump\t// out\n        /* \"#utility.yul\":425:564   */\n    tag_193:\n        /* \"#utility.yul\":471:476   */\n      0x00\n        /* \"#utility.yul\":509:515   */\n      dup2\n        /* \"#utility.yul\":496:516   */\n      calldataload\n        /* \"#utility.yul\":487:516   */\n      swap1\n      pop\n        /* \"#utility.yul\":525:558   */\n      tag_195\n        /* \"#utility.yul\":552:557   */\n      dup2\n        /* \"#utility.yul\":525:558   */\n      tag_196\n      jump\t// in\n    tag_195:\n        /* \"#utility.yul\":425:564   */\n      swap3\n      swap2\n      pop\n      pop\n      jump\t// out\n        /* \"#utility.yul\":570:703   */\n    tag_197:\n        /* \"#utility.yul\":613:618   */\n      0x00\n        /* \"#utility.yul\":651:657   */\n      dup2\n        /* \"#utility.yul\":638:658   */\n      calldataload\n        /* \"#utility.yul\":629:658   */\n      swap1\n      pop\n        /* \"#utility.yul\":667:697   */\n      tag_199\n        /* \"#utility.yul\":691:696   */\n      dup2\n        /* \"#utility.yul\":667:697   */\n      tag_200\n      jump\t// in\n    tag_199:\n        /* \"#utility.yul\":570:703   */\n      swap3\n      swap2\n      pop\n      pop\n      jump\t// out\n        /* \"#utility.yul\":709:846   */\n    tag_201:\n        /* \"#utility.yul\":763:768   */\n      0x00\n        /* \"#utility.yul\":794:800   */\n      dup2\n        /* \"#utility.yul\":788:801   */\n      mload\n        /* \"#utility.yul\":779:801   */\n      swap1\n      pop\n        /* \"#utility.yul\":810:840   */\n      tag_203\n        /* \"#utility.yul\":834:839   */\n      dup2\n        /* \"#utility.yul\":810:840   */\n      tag_200\n      jump\t// in\n    tag_203:\n        /* \"#utility.yul\":709:846   */\n      swap3\n      swap2\n      pop\n      pop\n      jump\t// out\n        /* \"#utility.yul\":866:1206   */\n    tag_204:\n        /* \"#utility.yul\":922:927   */\n      0x00\n        /* \"#utility.yul\":971:974   */\n      dup3\n        /* \"#utility.yul\":964:968   */\n      0x1f\n        /* \"#utility.yul\":956:962   */\n      dup4\n        /* \"#utility.yul\":952:969   */\n      add\n        /* \"#utility.yul\":948:975   */\n      slt\n        /* \"#utility.yul\":938:1060   */\n      tag_206\n      jumpi\n        /* \"#utility.yul\":979:1058   */\n      tag_207\n      tag_208\n      jump\t// in\n    tag_207:\n        /* \"#utility.yul\":938:1060   */\n    tag_206:\n        /* \"#utility.yul\":1096:1102   */\n      dup2\n        /* \"#utility.yul\":1083:1103   */\n      calldataload\n        /* \"#utility.yul\":1121:1200   */\n      tag_209\n        /* \"#utility.yul\":1196:1199   */\n      dup5\n        /* \"#utility.yul\":1188:1194   */\n      dup3\n        /* \"#utility.yul\":1181:1185   */\n      0x20\n        /* \"#utility.yul\":1173:1179   */\n      dup7\n        /* \"#utility.yul\":1169:1186   */\n      add\n        /* \"#utility.yul\":1121:1200   */\n      tag_182\n      jump\t// in\n    tag_209:\n        /* \"#utility.yul\":1112:1200   */\n      swap2\n      pop\n        /* \"#utility.yul\":928:1206   */\n      pop\n        /* \"#utility.yul\":866:1206   */\n      swap3\n      swap2\n      pop\n      pop\n      jump\t// out\n        /* \"#utility.yul\":1212:1351   */\n    tag_210:\n        /* \"#utility.yul\":1258:1263   */\n      0x00\n        /* \"#utility.yul\":1296:1302   */\n      dup2\n        /* \"#utility.yul\":1283:1303   */\n      calldataload\n        /* \"#utility.yul\":1274:1303   */\n      swap1\n      pop\n        /* \"#utility.yul\":1312:1345   */\n      tag_212\n        /* \"#utility.yul\":1339:1344   */\n      dup2\n        /* \"#utility.yul\":1312:1345   */\n      tag_213\n      jump\t// in\n    tag_212:\n        /* \"#utility.yul\":1212:1351   */\n      swap3\n      swap2\n      pop\n      pop\n      jump\t// out\n        /* \"#utility.yul\":1357:1686   */\n    tag_16:\n        /* \"#utility.yul\":1416:1422   */\n      0x00\n        /* \"#utility.yul\":1465:1467   */\n      0x20\n        /* \"#utility.yul\":1453:1462   */\n      dup3\n        /* \"#utility.yul\":1444:1451   */\n      dup5\n        /* \"#utility.yul\":1440:1463   */\n      sub\n        /* \"#utility.yul\":1436:1468   */\n      slt\n        /* \"#utility.yul\":1433:1552   */\n      iszero\n      tag_215\n      jumpi\n        /* \"#utility.yul\":1471:1550   */\n      tag_216\n      tag_217\n      jump\t// in\n    tag_216:\n        /* \"#utility.yul\":1433:1552   */\n    tag_215:\n        /* \"#utility.yul\":1591:1592   */\n      0x00\n        /* \"#utility.yul\":1616:1669   */\n      tag_218\n        /* \"#utility.yul\":1661:1668   */\n      dup5\n        /* \"#utility.yul\":1652:1658   */\n      dup3\n        /* \"#utility.yul\":1641:1650   */\n      dup6\n        /* \"#utility.yul\":1637:1659   */\n      add\n        /* \"#utility.yul\":1616:1669   */\n      tag_193\n      jump\t// in\n    tag_218:\n        /* \"#utility.yul\":1606:1669   */\n      swap2\n      pop\n        /* \"#utility.yul\":1562:1679   */\n      pop\n        /* \"#utility.yul\":1357:1686   */\n      swap3\n      swap2\n      pop\n      pop\n      jump\t// out\n        /* \"#utility.yul\":1692:2631   */\n    tag_26:\n        /* \"#utility.yul\":1785:1791   */\n      0x00\n        /* \"#utility.yul\":1793:1799   */\n      dup1\n        /* \"#utility.yul\":1801:1807   */\n      0x00\n        /* \"#utility.yul\":1809:1815   */\n      dup1\n        /* \"#utility.yul\":1858:1861   */\n      0x80\n        /* \"#utility.yul\":1846:1855   */\n      dup6\n        /* \"#utility.yul\":1837:1844   */\n      dup8\n        /* \"#utility.yul\":1833:1856   */\n      sub\n        /* \"#utility.yul\":1829:1862   */\n      slt\n        /* \"#utility.yul\":1826:1946   */\n      iszero\n      tag_220\n      jumpi\n        /* \"#utility.yul\":1865:1944   */\n      tag_221\n      tag_217\n      jump\t// in\n    tag_221:\n        /* \"#utility.yul\":1826:1946   */\n    tag_220:\n        /* \"#utility.yul\":1985:1986   */\n      0x00\n        /* \"#utility.yul\":2010:2063   */\n      tag_222\n        /* \"#utility.yul\":2055:2062   */\n      dup8\n        /* \"#utility.yul\":2046:2052   */\n      dup3\n        /* \"#utility.yul\":2035:2044   */\n      dup9\n        /* \"#utility.yul\":2031:2053   */\n      add\n        /* \"#utility.yul\":2010:2063   */\n      tag_193\n      jump\t// in\n    tag_222:\n        /* \"#utility.yul\":2000:2063   */\n      swap5\n      pop\n        /* \"#utility.yul\":1956:2073   */\n      pop\n        /* \"#utility.yul\":2140:2142   */\n      0x20\n        /* \"#utility.yul\":2129:2138   */\n      dup6\n        /* \"#utility.yul\":2125:2143   */\n      add\n        /* \"#utility.yul\":2112:2144   */\n      calldataload\n        /* \"#utility.yul\":2171:2189   */\n      0xffffffffffffffff\n        /* \"#utility.yul\":2163:2169   */\n      dup2\n        /* \"#utility.yul\":2160:2190   */\n      gt\n        /* \"#utility.yul\":2157:2274   */\n      iszero\n      tag_223\n      jumpi\n        /* \"#utility.yul\":2193:2272   */\n      tag_224\n      tag_225\n      jump\t// in\n    tag_224:\n        /* \"#utility.yul\":2157:2274   */\n    tag_223:\n        /* \"#utility.yul\":2298:2361   */\n      tag_226\n        /* \"#utility.yul\":2353:2360   */\n      dup8\n        /* \"#utility.yul\":2344:2350   */\n      dup3\n        /* \"#utility.yul\":2333:2342   */\n      dup9\n        /* \"#utility.yul\":2329:2351   */\n      add\n        /* \"#utility.yul\":2298:2361   */\n      tag_204\n      jump\t// in\n    tag_226:\n        /* \"#utility.yul\":2288:2361   */\n      swap4\n      pop\n        /* \"#utility.yul\":2083:2371   */\n      pop\n        /* \"#utility.yul\":2410:2412   */\n      0x40\n        /* \"#utility.yul\":2436:2489   */\n      tag_227\n        /* \"#utility.yul\":2481:2488   */\n      dup8\n        /* \"#utility.yul\":2472:2478   */\n      dup3\n        /* \"#utility.yul\":2461:2470   */\n      dup9\n        /* \"#utility.yul\":2457:2479   */\n      add\n        /* \"#utility.yul\":2436:2489   */\n      tag_210\n      jump\t// in\n    tag_227:\n        /* \"#utility.yul\":2426:2489   */\n      swap3\n      pop\n        /* \"#utility.yul\":2381:2499   */\n      pop\n        /* \"#utility.yul\":2538:2540   */\n      0x60\n        /* \"#utility.yul\":2564:2614   */\n      tag_228\n        /* \"#utility.yul\":2606:2613   */\n      dup8\n        /* \"#utility.yul\":2597:2603   */\n      dup3\n        /* \"#utility.yul\":2586:2595   */\n      dup9\n        /* \"#utility.yul\":2582:2604   */\n      add\n        /* \"#utility.yul\":2564:2614   */\n      tag_197\n      jump\t// in\n    tag_228:\n        /* \"#utility.yul\":2554:2614   */\n      swap2\n      pop\n        /* \"#utility.yul\":2509:2624   */\n      pop\n        /* \"#utility.yul\":1692:2631   */\n      swap3\n      swap6\n      swap2\n      swap5\n      pop\n      swap3\n      pop\n      jump\t// out\n        /* \"#utility.yul\":2637:2982   */\n    tag_105:\n        /* \"#utility.yul\":2704:2710   */\n      0x00\n        /* \"#utility.yul\":2753:2755   */\n      0x20\n        /* \"#utility.yul\":2741:2750   */\n      dup3\n        /* \"#utility.yul\":2732:2739   */\n      dup5\n        /* \"#utility.yul\":2728:2751   */\n      sub\n        /* \"#utility.yul\":2724:2756   */\n      slt\n        /* \"#utility.yul\":2721:2840   */\n      iszero\n      tag_230\n      jumpi\n        /* \"#utility.yul\":2759:2838   */\n      tag_231\n      tag_217\n      jump\t// in\n    tag_231:\n        /* \"#utility.yul\":2721:2840   */\n    tag_230:\n        /* \"#utility.yul\":2879:2880   */\n      0x00\n        /* \"#utility.yul\":2904:2965   */\n      tag_232\n        /* \"#utility.yul\":2957:2964   */\n      dup5\n        /* \"#utility.yul\":2948:2954   */\n      dup3\n        /* \"#utility.yul\":2937:2946   */\n      dup6\n        /* \"#utility.yul\":2933:2955   */\n      add\n        /* \"#utility.yul\":2904:2965   */\n      tag_201\n      jump\t// in\n    tag_232:\n        /* \"#utility.yul\":2894:2965   */\n      swap2\n      pop\n        /* \"#utility.yul\":2850:2975   */\n      pop\n        /* \"#utility.yul\":2637:2982   */\n      swap3\n      swap2\n      pop\n      pop\n      jump\t// out\n        /* \"#utility.yul\":2988:3317   */\n    tag_31:\n        /* \"#utility.yul\":3047:3053   */\n      0x00\n        /* \"#utility.yul\":3096:3098   */\n      0x20\n        /* \"#utility.yul\":3084:3093   */\n      dup3\n        /* \"#utility.yul\":3075:3082   */\n      dup5\n        /* \"#utility.yul\":3071:3094   */\n      sub\n        /* \"#utility.yul\":3067:3099   */\n      slt\n        /* \"#utility.yul\":3064:3183   */\n      iszero\n      tag_234\n      jumpi\n        /* \"#utility.yul\":3102:3181   */\n      tag_235\n      tag_217\n      jump\t// in\n    tag_235:\n        /* \"#utility.yul\":3064:3183   */\n    tag_234:\n        /* \"#utility.yul\":3222:3223   */\n      0x00\n        /* \"#utility.yul\":3247:3300   */\n      tag_236\n        /* \"#utility.yul\":3292:3299   */\n      dup5\n        /* \"#utility.yul\":3283:3289   */\n      dup3\n        /* \"#utility.yul\":3272:3281   */\n      dup6\n        /* \"#utility.yul\":3268:3290   */\n      add\n        /* \"#utility.yul\":3247:3300   */\n      tag_210\n      jump\t// in\n    tag_236:\n        /* \"#utility.yul\":3237:3300   */\n      swap2\n      pop\n        /* \"#utility.yul\":3193:3310   */\n      pop\n        /* \"#utility.yul\":2988:3317   */\n      swap3\n      swap2\n      pop\n      pop\n      jump\t// out\n        /* \"#utility.yul\":3323:3431   */\n    tag_237:\n        /* \"#utility.yul\":3400:3424   */\n      tag_239\n        /* \"#utility.yul\":3418:3423   */\n      dup2\n        /* \"#utility.yul\":3400:3424   */\n      tag_240\n      jump\t// in\n    tag_239:\n        /* \"#utility.yul\":3395:3398   */\n      dup3\n        /* \"#utility.yul\":3388:3425   */\n      mstore\n        /* \"#utility.yul\":3323:3431   */\n      pop\n      pop\n      jump\t// out\n        /* \"#utility.yul\":3437:3555   */\n    tag_241:\n        /* \"#utility.yul\":3524:3548   */\n      tag_243\n        /* \"#utility.yul\":3542:3547   */\n      dup2\n        /* \"#utility.yul\":3524:3548   */\n      tag_240\n      jump\t// in\n    tag_243:\n        /* \"#utility.yul\":3519:3522   */\n      dup3\n        /* \"#utility.yul\":3512:3549   */\n      mstore\n        /* \"#utility.yul\":3437:3555   */\n      pop\n      pop\n      jump\t// out\n        /* \"#utility.yul\":3561:3660   */\n    tag_244:\n        /* \"#utility.yul\":3632:3653   */\n      tag_246\n        /* \"#utility.yul\":3647:3652   */\n      dup2\n        /* \"#utility.yul\":3632:3653   */\n      tag_247\n      jump\t// in\n    tag_246:\n        /* \"#utility.yul\":3627:3630   */\n      dup3\n        /* \"#utility.yul\":3620:3654   */\n      mstore\n        /* \"#utility.yul\":3561:3660   */\n      pop\n      pop\n      jump\t// out\n        /* \"#utility.yul\":3666:3775   */\n    tag_248:\n        /* \"#utility.yul\":3747:3768   */\n      tag_250\n        /* \"#utility.yul\":3762:3767   */\n      dup2\n        /* \"#utility.yul\":3747:3768   */\n      tag_247\n      jump\t// in\n    tag_250:\n        /* \"#utility.yul\":3742:3745   */\n      dup3\n        /* \"#utility.yul\":3735:3769   */\n      mstore\n        /* \"#utility.yul\":3666:3775   */\n      pop\n      pop\n      jump\t// out\n        /* \"#utility.yul\":3781:4125   */\n    tag_251:\n        /* \"#utility.yul\":3859:3862   */\n      0x00\n        /* \"#utility.yul\":3887:3926   */\n      tag_253\n        /* \"#utility.yul\":3920:3925   */\n      dup3\n        /* \"#utility.yul\":3887:3926   */\n      tag_254\n      jump\t// in\n    tag_253:\n        /* \"#utility.yul\":3942:4003   */\n      tag_255\n        /* \"#utility.yul\":3996:4002   */\n      dup2\n        /* \"#utility.yul\":3991:3994   */\n      dup6\n        /* \"#utility.yul\":3942:4003   */\n      tag_256\n      jump\t// in\n    tag_255:\n        /* \"#utility.yul\":3935:4003   */\n      swap4\n      pop\n        /* \"#utility.yul\":4012:4064   */\n      tag_257\n        /* \"#utility.yul\":4057:4063   */\n      dup2\n        /* \"#utility.yul\":4052:4055   */\n      dup6\n        /* \"#utility.yul\":4045:4049   */\n      0x20\n        /* \"#utility.yul\":4038:4043   */\n      dup7\n        /* \"#utility.yul\":4034:4050   */\n      add\n        /* \"#utility.yul\":4012:4064   */\n      tag_258\n      jump\t// in\n    tag_257:\n        /* \"#utility.yul\":4089:4118   */\n      tag_259\n        /* \"#utility.yul\":4111:4117   */\n      dup2\n        /* \"#utility.yul\":4089:4118   */\n      tag_260\n      jump\t// in\n    tag_259:\n        /* \"#utility.yul\":4084:4087   */\n      dup5\n        /* \"#utility.yul\":4080:4119   */\n      add\n        /* \"#utility.yul\":4073:4119   */\n      swap2\n      pop\n        /* \"#utility.yul\":3863:4125   */\n      pop\n        /* \"#utility.yul\":3781:4125   */\n      swap3\n      swap2\n      pop\n      pop\n      jump\t// out\n        /* \"#utility.yul\":4131:4495   */\n    tag_261:\n        /* \"#utility.yul\":4219:4222   */\n      0x00\n        /* \"#utility.yul\":4247:4286   */\n      tag_263\n        /* \"#utility.yul\":4280:4285   */\n      dup3\n        /* \"#utility.yul\":4247:4286   */\n      tag_254\n      jump\t// in\n    tag_263:\n        /* \"#utility.yul\":4302:4373   */\n      tag_264\n        /* \"#utility.yul\":4366:4372   */\n      dup2\n        /* \"#utility.yul\":4361:4364   */\n      dup6\n        /* \"#utility.yul\":4302:4373   */\n      tag_265\n      jump\t// in\n    tag_264:\n        /* \"#utility.yul\":4295:4373   */\n      swap4\n      pop\n        /* \"#utility.yul\":4382:4434   */\n      tag_266\n        /* \"#utility.yul\":4427:4433   */\n      dup2\n        /* \"#utility.yul\":4422:4425   */\n      dup6\n        /* \"#utility.yul\":4415:4419   */\n      0x20\n        /* \"#utility.yul\":4408:4413   */\n      dup7\n        /* \"#utility.yul\":4404:4420   */\n      add\n        /* \"#utility.yul\":4382:4434   */\n      tag_258\n      jump\t// in\n    tag_266:\n        /* \"#utility.yul\":4459:4488   */\n      tag_267\n        /* \"#utility.yul\":4481:4487   */\n      dup2\n        /* \"#utility.yul\":4459:4488   */\n      tag_260\n      jump\t// in\n    tag_267:\n        /* \"#utility.yul\":4454:4457   */\n      dup5\n        /* \"#utility.yul\":4450:4489   */\n      add\n        /* \"#utility.yul\":4443:4489   */\n      swap2\n      pop\n        /* \"#utility.yul\":4223:4495   */\n      pop\n        /* \"#utility.yul\":4131:4495   */\n      swap3\n      swap2\n      pop\n      pop\n      jump\t// out\n        /* \"#utility.yul\":4525:5343   */\n    tag_268:\n        /* \"#utility.yul\":4618:4621   */\n      0x00\n        /* \"#utility.yul\":4655:4660   */\n      dup2\n        /* \"#utility.yul\":4649:4661   */\n      sload\n        /* \"#utility.yul\":4684:4720   */\n      tag_270\n        /* \"#utility.yul\":4710:4719   */\n      dup2\n        /* \"#utility.yul\":4684:4720   */\n      tag_91\n      jump\t// in\n    tag_270:\n        /* \"#utility.yul\":4736:4815   */\n      tag_271\n        /* \"#utility.yul\":4808:4814   */\n      dup2\n        /* \"#utility.yul\":4803:4806   */\n      dup7\n        /* \"#utility.yul\":4736:4815   */\n      tag_272\n      jump\t// in\n    tag_271:\n        /* \"#utility.yul\":4729:4815   */\n      swap5\n      pop\n        /* \"#utility.yul\":4846:4847   */\n      0x01\n        /* \"#utility.yul\":4835:4844   */\n      dup3\n        /* \"#utility.yul\":4831:4848   */\n      and\n        /* \"#utility.yul\":4862:4863   */\n      0x00\n        /* \"#utility.yul\":4857:4992   */\n      dup2\n      eq\n      tag_274\n      jumpi\n        /* \"#utility.yul\":5006:5007   */\n      0x01\n        /* \"#utility.yul\":5001:5337   */\n      dup2\n      eq\n      tag_275\n      jumpi\n        /* \"#utility.yul\":4824:5337   */\n      jump(tag_273)\n        /* \"#utility.yul\":4857:4992   */\n    tag_274:\n        /* \"#utility.yul\":4941:4945   */\n      0xff\n        /* \"#utility.yul\":4937:4946   */\n      not\n        /* \"#utility.yul\":4926:4935   */\n      dup4\n        /* \"#utility.yul\":4922:4947   */\n      and\n        /* \"#utility.yul\":4917:4920   */\n      dup7\n        /* \"#utility.yul\":4910:4948   */\n      mstore\n        /* \"#utility.yul\":4977:4981   */\n      0x20\n        /* \"#utility.yul\":4972:4975   */\n      dup7\n        /* \"#utility.yul\":4968:4982   */\n      add\n        /* \"#utility.yul\":4961:4982   */\n      swap4\n      pop\n        /* \"#utility.yul\":4857:4992   */\n      jump(tag_273)\n        /* \"#utility.yul\":5001:5337   */\n    tag_275:\n        /* \"#utility.yul\":5068:5106   */\n      tag_276\n        /* \"#utility.yul\":5100:5105   */\n      dup6\n        /* \"#utility.yul\":5068:5106   */\n      tag_277\n      jump\t// in\n    tag_276:\n        /* \"#utility.yul\":5128:5129   */\n      0x00\n        /* \"#utility.yul\":5142:5296   */\n    tag_278:\n        /* \"#utility.yul\":5156:5162   */\n      dup4\n        /* \"#utility.yul\":5153:5154   */\n      dup2\n        /* \"#utility.yul\":5150:5163   */\n      lt\n        /* \"#utility.yul\":5142:5296   */\n      iszero\n      tag_280\n      jumpi\n        /* \"#utility.yul\":5230:5237   */\n      dup2\n        /* \"#utility.yul\":5224:5238   */\n      sload\n        /* \"#utility.yul\":5220:5221   */\n      dup2\n        /* \"#utility.yul\":5215:5218   */\n      dup10\n        /* \"#utility.yul\":5211:5222   */\n      add\n        /* \"#utility.yul\":5204:5239   */\n      mstore\n        /* \"#utility.yul\":5280:5281   */\n      0x01\n        /* \"#utility.yul\":5271:5278   */\n      dup3\n        /* \"#utility.yul\":5267:5282   */\n      add\n        /* \"#utility.yul\":5256:5282   */\n      swap2\n      pop\n        /* \"#utility.yul\":5178:5182   */\n      0x20\n        /* \"#utility.yul\":5175:5176   */\n      dup2\n        /* \"#utility.yul\":5171:5183   */\n      add\n        /* \"#utility.yul\":5166:5183   */\n      swap1\n      pop\n        /* \"#utility.yul\":5142:5296   */\n      jump(tag_278)\n    tag_280:\n        /* \"#utility.yul\":5325:5326   */\n      dup1\n        /* \"#utility.yul\":5320:5323   */\n      dup9\n        /* \"#utility.yul\":5316:5327   */\n      add\n        /* \"#utility.yul\":5309:5327   */\n      swap6\n      pop\n        /* \"#utility.yul\":5008:5337   */\n      pop\n      pop\n        /* \"#utility.yul\":4824:5337   */\n    tag_273:\n      pop\n        /* \"#utility.yul\":4622:5343   */\n      pop\n      pop\n        /* \"#utility.yul\":4525:5343   */\n      swap3\n      swap2\n      pop\n      pop\n      jump\t// out\n        /* \"#utility.yul\":5349:5715   */\n    tag_281:\n        /* \"#utility.yul\":5491:5494   */\n      0x00\n        /* \"#utility.yul\":5512:5579   */\n      tag_283\n        /* \"#utility.yul\":5576:5578   */\n      0x16\n        /* \"#utility.yul\":5571:5574   */\n      dup4\n        /* \"#utility.yul\":5512:5579   */\n      tag_265\n      jump\t// in\n    tag_283:\n        /* \"#utility.yul\":5505:5579   */\n      swap2\n      pop\n        /* \"#utility.yul\":5588:5681   */\n      tag_284\n        /* \"#utility.yul\":5677:5680   */\n      dup3\n        /* \"#utility.yul\":5588:5681   */\n      tag_285\n      jump\t// in\n    tag_284:\n        /* \"#utility.yul\":5706:5708   */\n      0x20\n        /* \"#utility.yul\":5701:5704   */\n      dup3\n        /* \"#utility.yul\":5697:5709   */\n      add\n        /* \"#utility.yul\":5690:5709   */\n      swap1\n      pop\n        /* \"#utility.yul\":5349:5715   */\n      swap2\n      swap1\n      pop\n      jump\t// out\n        /* \"#utility.yul\":5721:6087   */\n    tag_286:\n        /* \"#utility.yul\":5863:5866   */\n      0x00\n        /* \"#utility.yul\":5884:5951   */\n      tag_288\n        /* \"#utility.yul\":5948:5950   */\n      0x15\n        /* \"#utility.yul\":5943:5946   */\n      dup4\n        /* \"#utility.yul\":5884:5951   */\n      tag_265\n      jump\t// in\n    tag_288:\n        /* \"#utility.yul\":5877:5951   */\n      swap2\n      pop\n        /* \"#utility.yul\":5960:6053   */\n      tag_289\n        /* \"#utility.yul\":6049:6052   */\n      dup3\n        /* \"#utility.yul\":5960:6053   */\n      tag_290\n      jump\t// in\n    tag_289:\n        /* \"#utility.yul\":6078:6080   */\n      0x20\n        /* \"#utility.yul\":6073:6076   */\n      dup3\n        /* \"#utility.yul\":6069:6081   */\n      add\n        /* \"#utility.yul\":6062:6081   */\n      swap1\n      pop\n        /* \"#utility.yul\":5721:6087   */\n      swap2\n      swap1\n      pop\n      jump\t// out\n        /* \"#utility.yul\":6093:6473   */\n    tag_291:\n        /* \"#utility.yul\":6243:6246   */\n      0x00\n        /* \"#utility.yul\":6264:6338   */\n      tag_293\n        /* \"#utility.yul\":6336:6337   */\n      0x00\n        /* \"#utility.yul\":6331:6334   */\n      dup4\n        /* \"#utility.yul\":6264:6338   */\n      tag_272\n      jump\t// in\n    tag_293:\n        /* \"#utility.yul\":6257:6338   */\n      swap2\n      pop\n        /* \"#utility.yul\":6347:6440   */\n      tag_294\n        /* \"#utility.yul\":6436:6439   */\n      dup3\n        /* \"#utility.yul\":6347:6440   */\n      tag_295\n      jump\t// in\n    tag_294:\n        /* \"#utility.yul\":6465:6466   */\n      0x00\n        /* \"#utility.yul\":6460:6463   */\n      dup3\n        /* \"#utility.yul\":6456:6467   */\n      add\n        /* \"#utility.yul\":6449:6467   */\n      swap1\n      pop\n        /* \"#utility.yul\":6093:6473   */\n      swap2\n      swap1\n      pop\n      jump\t// out\n        /* \"#utility.yul\":6525:7482   */\n    tag_296:\n        /* \"#utility.yul\":6636:6639   */\n      0x00\n        /* \"#utility.yul\":6672:6676   */\n      0x80\n        /* \"#utility.yul\":6667:6670   */\n      dup4\n        /* \"#utility.yul\":6663:6677   */\n      add\n        /* \"#utility.yul\":6768:6772   */\n      0x00\n        /* \"#utility.yul\":6761:6766   */\n      dup4\n        /* \"#utility.yul\":6757:6773   */\n      add\n        /* \"#utility.yul\":6751:6774   */\n      mload\n        /* \"#utility.yul\":6787:6850   */\n      tag_298\n        /* \"#utility.yul\":6844:6848   */\n      0x00\n        /* \"#utility.yul\":6839:6842   */\n      dup7\n        /* \"#utility.yul\":6835:6849   */\n      add\n        /* \"#utility.yul\":6821:6833   */\n      dup3\n        /* \"#utility.yul\":6787:6850   */\n      tag_237\n      jump\t// in\n    tag_298:\n        /* \"#utility.yul\":6687:6860   */\n      pop\n        /* \"#utility.yul\":6942:6946   */\n      0x20\n        /* \"#utility.yul\":6935:6940   */\n      dup4\n        /* \"#utility.yul\":6931:6947   */\n      add\n        /* \"#utility.yul\":6925:6948   */\n      mload\n        /* \"#utility.yul\":6995:6998   */\n      dup5\n        /* \"#utility.yul\":6989:6993   */\n      dup3\n        /* \"#utility.yul\":6985:6999   */\n      sub\n        /* \"#utility.yul\":6978:6982   */\n      0x20\n        /* \"#utility.yul\":6973:6976   */\n      dup7\n        /* \"#utility.yul\":6969:6983   */\n      add\n        /* \"#utility.yul\":6962:7000   */\n      mstore\n        /* \"#utility.yul\":7021:7094   */\n      tag_299\n        /* \"#utility.yul\":7089:7093   */\n      dup3\n        /* \"#utility.yul\":7075:7087   */\n      dup3\n        /* \"#utility.yul\":7021:7094   */\n      tag_251\n      jump\t// in\n    tag_299:\n        /* \"#utility.yul\":7013:7094   */\n      swap2\n      pop\n        /* \"#utility.yul\":6870:7105   */\n      pop\n        /* \"#utility.yul\":7189:7193   */\n      0x40\n        /* \"#utility.yul\":7182:7187   */\n      dup4\n        /* \"#utility.yul\":7178:7194   */\n      add\n        /* \"#utility.yul\":7172:7195   */\n      mload\n        /* \"#utility.yul\":7208:7271   */\n      tag_300\n        /* \"#utility.yul\":7265:7269   */\n      0x40\n        /* \"#utility.yul\":7260:7263   */\n      dup7\n        /* \"#utility.yul\":7256:7270   */\n      add\n        /* \"#utility.yul\":7242:7254   */\n      dup3\n        /* \"#utility.yul\":7208:7271   */\n      tag_301\n      jump\t// in\n    tag_300:\n        /* \"#utility.yul\":7115:7281   */\n      pop\n        /* \"#utility.yul\":7369:7373   */\n      0x60\n        /* \"#utility.yul\":7362:7367   */\n      dup4\n        /* \"#utility.yul\":7358:7374   */\n      add\n        /* \"#utility.yul\":7352:7375   */\n      mload\n        /* \"#utility.yul\":7388:7445   */\n      tag_302\n        /* \"#utility.yul\":7439:7443   */\n      0x60\n        /* \"#utility.yul\":7434:7437   */\n      dup7\n        /* \"#utility.yul\":7430:7444   */\n      add\n        /* \"#utility.yul\":7416:7428   */\n      dup3\n        /* \"#utility.yul\":7388:7445   */\n      tag_244\n      jump\t// in\n    tag_302:\n        /* \"#utility.yul\":7291:7455   */\n      pop\n        /* \"#utility.yul\":7472:7476   */\n      dup1\n        /* \"#utility.yul\":7465:7476   */\n      swap2\n      pop\n        /* \"#utility.yul\":6641:7482   */\n      pop\n        /* \"#utility.yul\":6525:7482   */\n      swap3\n      swap2\n      pop\n      pop\n      jump\t// out\n        /* \"#utility.yul\":7488:7596   */\n    tag_301:\n        /* \"#utility.yul\":7565:7589   */\n      tag_304\n        /* \"#utility.yul\":7583:7588   */\n      dup2\n        /* \"#utility.yul\":7565:7589   */\n      tag_305\n      jump\t// in\n    tag_304:\n        /* \"#utility.yul\":7560:7563   */\n      dup3\n        /* \"#utility.yul\":7553:7590   */\n      mstore\n        /* \"#utility.yul\":7488:7596   */\n      pop\n      pop\n      jump\t// out\n        /* \"#utility.yul\":7602:7720   */\n    tag_306:\n        /* \"#utility.yul\":7689:7713   */\n      tag_308\n        /* \"#utility.yul\":7707:7712   */\n      dup2\n        /* \"#utility.yul\":7689:7713   */\n      tag_305\n      jump\t// in\n    tag_308:\n        /* \"#utility.yul\":7684:7687   */\n      dup3\n        /* \"#utility.yul\":7677:7714   */\n      mstore\n        /* \"#utility.yul\":7602:7720   */\n      pop\n      pop\n      jump\t// out\n        /* \"#utility.yul\":7726:8358   */\n    tag_34:\n        /* \"#utility.yul\":7917:7921   */\n      0x00\n        /* \"#utility.yul\":7955:7958   */\n      0x80\n        /* \"#utility.yul\":7944:7953   */\n      dup3\n        /* \"#utility.yul\":7940:7959   */\n      add\n        /* \"#utility.yul\":7932:7959   */\n      swap1\n      pop\n        /* \"#utility.yul\":7969:8040   */\n      tag_310\n        /* \"#utility.yul\":8037:8038   */\n      0x00\n        /* \"#utility.yul\":8026:8035   */\n      dup4\n        /* \"#utility.yul\":8022:8039   */\n      add\n        /* \"#utility.yul\":8013:8019   */\n      dup8\n        /* \"#utility.yul\":7969:8040   */\n      tag_241\n      jump\t// in\n    tag_310:\n        /* \"#utility.yul\":8087:8096   */\n      dup2\n        /* \"#utility.yul\":8081:8085   */\n      dup2\n        /* \"#utility.yul\":8077:8097   */\n      sub\n        /* \"#utility.yul\":8072:8074   */\n      0x20\n        /* \"#utility.yul\":8061:8070   */\n      dup4\n        /* \"#utility.yul\":8057:8075   */\n      add\n        /* \"#utility.yul\":8050:8098   */\n      mstore\n        /* \"#utility.yul\":8115:8193   */\n      tag_311\n        /* \"#utility.yul\":8188:8192   */\n      dup2\n        /* \"#utility.yul\":8179:8185   */\n      dup7\n        /* \"#utility.yul\":8115:8193   */\n      tag_261\n      jump\t// in\n    tag_311:\n        /* \"#utility.yul\":8107:8193   */\n      swap1\n      pop\n        /* \"#utility.yul\":8203:8275   */\n      tag_312\n        /* \"#utility.yul\":8271:8273   */\n      0x40\n        /* \"#utility.yul\":8260:8269   */\n      dup4\n        /* \"#utility.yul\":8256:8274   */\n      add\n        /* \"#utility.yul\":8247:8253   */\n      dup6\n        /* \"#utility.yul\":8203:8275   */\n      tag_306\n      jump\t// in\n    tag_312:\n        /* \"#utility.yul\":8285:8351   */\n      tag_313\n        /* \"#utility.yul\":8347:8349   */\n      0x60\n        /* \"#utility.yul\":8336:8345   */\n      dup4\n        /* \"#utility.yul\":8332:8350   */\n      add\n        /* \"#utility.yul\":8323:8329   */\n      dup5\n        /* \"#utility.yul\":8285:8351   */\n      tag_248\n      jump\t// in\n    tag_313:\n        /* \"#utility.yul\":7726:8358   */\n      swap6\n      swap5\n      pop\n      pop\n      pop\n      pop\n      pop\n      jump\t// out\n        /* \"#utility.yul\":8364:8574   */\n    tag_19:\n        /* \"#utility.yul\":8451:8455   */\n      0x00\n        /* \"#utility.yul\":8489:8491   */\n      0x20\n        /* \"#utility.yul\":8478:8487   */\n      dup3\n        /* \"#utility.yul\":8474:8492   */\n      add\n        /* \"#utility.yul\":8466:8492   */\n      swap1\n      pop\n        /* \"#utility.yul\":8502:8567   */\n      tag_315\n        /* \"#utility.yul\":8564:8565   */\n      0x00\n        /* \"#utility.yul\":8553:8562   */\n      dup4\n        /* \"#utility.yul\":8549:8566   */\n      add\n        /* \"#utility.yul\":8540:8546   */\n      dup5\n        /* \"#utility.yul\":8502:8567   */\n      tag_248\n      jump\t// in\n    tag_315:\n        /* \"#utility.yul\":8364:8574   */\n      swap3\n      swap2\n      pop\n      pop\n      jump\t// out\n        /* \"#utility.yul\":8580:9218   */\n    tag_100:\n        /* \"#utility.yul\":8799:8803   */\n      0x00\n        /* \"#utility.yul\":8837:8839   */\n      0x40\n        /* \"#utility.yul\":8826:8835   */\n      dup3\n        /* \"#utility.yul\":8822:8840   */\n      add\n        /* \"#utility.yul\":8814:8840   */\n      swap1\n      pop\n        /* \"#utility.yul\":8886:8895   */\n      dup2\n        /* \"#utility.yul\":8880:8884   */\n      dup2\n        /* \"#utility.yul\":8876:8896   */\n      sub\n        /* \"#utility.yul\":8872:8873   */\n      0x00\n        /* \"#utility.yul\":8861:8870   */\n      dup4\n        /* \"#utility.yul\":8857:8874   */\n      add\n        /* \"#utility.yul\":8850:8897   */\n      mstore\n        /* \"#utility.yul\":8914:8997   */\n      tag_317\n        /* \"#utility.yul\":8992:8996   */\n      dup2\n        /* \"#utility.yul\":8983:8989   */\n      dup5\n        /* \"#utility.yul\":8914:8997   */\n      tag_268\n      jump\t// in\n    tag_317:\n        /* \"#utility.yul\":8906:8997   */\n      swap1\n      pop\n        /* \"#utility.yul\":9044:9053   */\n      dup2\n        /* \"#utility.yul\":9038:9042   */\n      dup2\n        /* \"#utility.yul\":9034:9054   */\n      sub\n        /* \"#utility.yul\":9029:9031   */\n      0x20\n        /* \"#utility.yul\":9018:9027   */\n      dup4\n        /* \"#utility.yul\":9014:9032   */\n      add\n        /* \"#utility.yul\":9007:9055   */\n      mstore\n        /* \"#utility.yul\":9072:9211   */\n      tag_318\n        /* \"#utility.yul\":9206:9210   */\n      dup2\n        /* \"#utility.yul\":9072:9211   */\n      tag_291\n      jump\t// in\n    tag_318:\n        /* \"#utility.yul\":9064:9211   */\n      swap1\n      pop\n        /* \"#utility.yul\":8580:9218   */\n      swap3\n      swap2\n      pop\n      pop\n      jump\t// out\n        /* \"#utility.yul\":9224:9643   */\n    tag_130:\n        /* \"#utility.yul\":9390:9394   */\n      0x00\n        /* \"#utility.yul\":9428:9430   */\n      0x20\n        /* \"#utility.yul\":9417:9426   */\n      dup3\n        /* \"#utility.yul\":9413:9431   */\n      add\n        /* \"#utility.yul\":9405:9431   */\n      swap1\n      pop\n        /* \"#utility.yul\":9477:9486   */\n      dup2\n        /* \"#utility.yul\":9471:9475   */\n      dup2\n        /* \"#utility.yul\":9467:9487   */\n      sub\n        /* \"#utility.yul\":9463:9464   */\n      0x00\n        /* \"#utility.yul\":9452:9461   */\n      dup4\n        /* \"#utility.yul\":9448:9465   */\n      add\n        /* \"#utility.yul\":9441:9488   */\n      mstore\n        /* \"#utility.yul\":9505:9636   */\n      tag_320\n        /* \"#utility.yul\":9631:9635   */\n      dup2\n        /* \"#utility.yul\":9505:9636   */\n      tag_281\n      jump\t// in\n    tag_320:\n        /* \"#utility.yul\":9497:9636   */\n      swap1\n      pop\n        /* \"#utility.yul\":9224:9643   */\n      swap2\n      swap1\n      pop\n      jump\t// out\n        /* \"#utility.yul\":9649:10068   */\n    tag_83:\n        /* \"#utility.yul\":9815:9819   */\n      0x00\n        /* \"#utility.yul\":9853:9855   */\n      0x20\n        /* \"#utility.yul\":9842:9851   */\n      dup3\n        /* \"#utility.yul\":9838:9856   */\n      add\n        /* \"#utility.yul\":9830:9856   */\n      swap1\n      pop\n        /* \"#utility.yul\":9902:9911   */\n      dup2\n        /* \"#utility.yul\":9896:9900   */\n      dup2\n        /* \"#utility.yul\":9892:9912   */\n      sub\n        /* \"#utility.yul\":9888:9889   */\n      0x00\n        /* \"#utility.yul\":9877:9886   */\n      dup4\n        /* \"#utility.yul\":9873:9890   */\n      add\n        /* \"#utility.yul\":9866:9913   */\n      mstore\n        /* \"#utility.yul\":9930:10061   */\n      tag_322\n        /* \"#utility.yul\":10056:10060   */\n      dup2\n        /* \"#utility.yul\":9930:10061   */\n      tag_286\n      jump\t// in\n    tag_322:\n        /* \"#utility.yul\":9922:10061   */\n      swap1\n      pop\n        /* \"#utility.yul\":9649:10068   */\n      swap2\n      swap1\n      pop\n      jump\t// out\n        /* \"#utility.yul\":10074:10431   */\n    tag_50:\n        /* \"#utility.yul\":10209:10213   */\n      0x00\n        /* \"#utility.yul\":10247:10249   */\n      0x20\n        /* \"#utility.yul\":10236:10245   */\n      dup3\n        /* \"#utility.yul\":10232:10250   */\n      add\n        /* \"#utility.yul\":10224:10250   */\n      swap1\n      pop\n        /* \"#utility.yul\":10296:10305   */\n      dup2\n        /* \"#utility.yul\":10290:10294   */\n      dup2\n        /* \"#utility.yul\":10286:10306   */\n      sub\n        /* \"#utility.yul\":10282:10283   */\n      0x00\n        /* \"#utility.yul\":10271:10280   */\n      dup4\n        /* \"#utility.yul\":10267:10284   */\n      add\n        /* \"#utility.yul\":10260:10307   */\n      mstore\n        /* \"#utility.yul\":10324:10424   */\n      tag_324\n        /* \"#utility.yul\":10419:10423   */\n      dup2\n        /* \"#utility.yul\":10410:10416   */\n      dup5\n        /* \"#utility.yul\":10324:10424   */\n      tag_296\n      jump\t// in\n    tag_324:\n        /* \"#utility.yul\":10316:10424   */\n      swap1\n      pop\n        /* \"#utility.yul\":10074:10431   */\n      swap3\n      swap2\n      pop\n      pop\n      jump\t// out\n        /* \"#utility.yul\":10437:10659   */\n    tag_61:\n        /* \"#utility.yul\":10530:10534   */\n      0x00\n        /* \"#utility.yul\":10568:10570   */\n      0x20\n        /* \"#utility.yul\":10557:10566   */\n      dup3\n        /* \"#utility.yul\":10553:10571   */\n      add\n        /* \"#utility.yul\":10545:10571   */\n      swap1\n      pop\n        /* \"#utility.yul\":10581:10652   */\n      tag_326\n        /* \"#utility.yul\":10649:10650   */\n      0x00\n        /* \"#utility.yul\":10638:10647   */\n      dup4\n        /* \"#utility.yul\":10634:10651   */\n      add\n        /* \"#utility.yul\":10625:10631   */\n      dup5\n        /* \"#utility.yul\":10581:10652   */\n      tag_306\n      jump\t// in\n    tag_326:\n        /* \"#utility.yul\":10437:10659   */\n      swap3\n      swap2\n      pop\n      pop\n      jump\t// out\n        /* \"#utility.yul\":10665:10794   */\n    tag_187:\n        /* \"#utility.yul\":10699:10705   */\n      0x00\n        /* \"#utility.yul\":10726:10746   */\n      tag_328\n      tag_329\n      jump\t// in\n    tag_328:\n        /* \"#utility.yul\":10716:10746   */\n      swap1\n      pop\n        /* \"#utility.yul\":10755:10788   */\n      tag_330\n        /* \"#utility.yul\":10783:10787   */\n      dup3\n        /* \"#utility.yul\":10775:10781   */\n      dup3\n        /* \"#utility.yul\":10755:10788   */\n      tag_331\n      jump\t// in\n    tag_330:\n        /* \"#utility.yul\":10665:10794   */\n      swap2\n      swap1\n      pop\n      jump\t// out\n        /* \"#utility.yul\":10800:10875   */\n    tag_329:\n        /* \"#utility.yul\":10833:10839   */\n      0x00\n        /* \"#utility.yul\":10866:10868   */\n      0x40\n        /* \"#utility.yul\":10860:10869   */\n      mload\n        /* \"#utility.yul\":10850:10869   */\n      swap1\n      pop\n        /* \"#utility.yul\":10800:10875   */\n      swap1\n      jump\t// out\n        /* \"#utility.yul\":10881:11189   */\n    tag_186:\n        /* \"#utility.yul\":10943:10947   */\n      0x00\n        /* \"#utility.yul\":11033:11051   */\n      0xffffffffffffffff\n        /* \"#utility.yul\":11025:11031   */\n      dup3\n        /* \"#utility.yul\":11022:11052   */\n      gt\n        /* \"#utility.yul\":11019:11075   */\n      iszero\n      tag_334\n      jumpi\n        /* \"#utility.yul\":11055:11073   */\n      tag_335\n      tag_336\n      jump\t// in\n    tag_335:\n        /* \"#utility.yul\":11019:11075   */\n    tag_334:\n        /* \"#utility.yul\":11093:11122   */\n      tag_337\n        /* \"#utility.yul\":11115:11121   */\n      dup3\n        /* \"#utility.yul\":11093:11122   */\n      tag_260\n      jump\t// in\n    tag_337:\n        /* \"#utility.yul\":11085:11122   */\n      swap1\n      pop\n        /* \"#utility.yul\":11177:11181   */\n      0x20\n        /* \"#utility.yul\":11171:11175   */\n      dup2\n        /* \"#utility.yul\":11167:11182   */\n      add\n        /* \"#utility.yul\":11159:11182   */\n      swap1\n      pop\n        /* \"#utility.yul\":10881:11189   */\n      swap2\n      swap1\n      pop\n      jump\t// out\n        /* \"#utility.yul\":11195:11336   */\n    tag_277:\n        /* \"#utility.yul\":11244:11248   */\n      0x00\n        /* \"#utility.yul\":11267:11270   */\n      dup2\n        /* \"#utility.yul\":11259:11270   */\n      swap1\n      pop\n        /* \"#utility.yul\":11290:11293   */\n      dup2\n        /* \"#utility.yul\":11287:11288   */\n      0x00\n        /* \"#utility.yul\":11280:11294   */\n      mstore\n        /* \"#utility.yul\":11324:11328   */\n      0x20\n        /* \"#utility.yul\":11321:11322   */\n      0x00\n        /* \"#utility.yul\":11311:11329   */\n      keccak256\n        /* \"#utility.yul\":11303:11329   */\n      swap1\n      pop\n        /* \"#utility.yul\":11195:11336   */\n      swap2\n      swap1\n      pop\n      jump\t// out\n        /* \"#utility.yul\":11342:11441   */\n    tag_254:\n        /* \"#utility.yul\":11394:11400   */\n      0x00\n        /* \"#utility.yul\":11428:11433   */\n      dup2\n        /* \"#utility.yul\":11422:11434   */\n      mload\n        /* \"#utility.yul\":11412:11434   */\n      swap1\n      pop\n        /* \"#utility.yul\":11342:11441   */\n      swap2\n      swap1\n      pop\n      jump\t// out\n        /* \"#utility.yul\":11447:11606   */\n    tag_256:\n        /* \"#utility.yul\":11521:11532   */\n      0x00\n        /* \"#utility.yul\":11555:11561   */\n      dup3\n        /* \"#utility.yul\":11550:11553   */\n      dup3\n        /* \"#utility.yul\":11543:11562   */\n      mstore\n        /* \"#utility.yul\":11595:11599   */\n      0x20\n        /* \"#utility.yul\":11590:11593   */\n      dup3\n        /* \"#utility.yul\":11586:11600   */\n      add\n        /* \"#utility.yul\":11571:11600   */\n      swap1\n      pop\n        /* \"#utility.yul\":11447:11606   */\n      swap3\n      swap2\n      pop\n      pop\n      jump\t// out\n        /* \"#utility.yul\":11612:11781   */\n    tag_265:\n        /* \"#utility.yul\":11696:11707   */\n      0x00\n        /* \"#utility.yul\":11730:11736   */\n      dup3\n        /* \"#utility.yul\":11725:11728   */\n      dup3\n        /* \"#utility.yul\":11718:11737   */\n      mstore\n        /* \"#utility.yul\":11770:11774   */\n      0x20\n        /* \"#utility.yul\":11765:11768   */\n      dup3\n        /* \"#utility.yul\":11761:11775   */\n      add\n        /* \"#utility.yul\":11746:11775   */\n      swap1\n      pop\n        /* \"#utility.yul\":11612:11781   */\n      swap3\n      swap2\n      pop\n      pop\n      jump\t// out\n        /* \"#utility.yul\":11787:11964   */\n    tag_272:\n        /* \"#utility.yul\":11879:11890   */\n      0x00\n        /* \"#utility.yul\":11913:11919   */\n      dup3\n        /* \"#utility.yul\":11908:11911   */\n      dup3\n        /* \"#utility.yul\":11901:11920   */\n      mstore\n        /* \"#utility.yul\":11953:11957   */\n      0x20\n        /* \"#utility.yul\":11948:11951   */\n      dup3\n        /* \"#utility.yul\":11944:11958   */\n      add\n        /* \"#utility.yul\":11929:11958   */\n      swap1\n      pop\n        /* \"#utility.yul\":11787:11964   */\n      swap3\n      swap2\n      pop\n      pop\n      jump\t// out\n        /* \"#utility.yul\":11970:12275   */\n    tag_169:\n        /* \"#utility.yul\":12010:12013   */\n      0x00\n        /* \"#utility.yul\":12029:12049   */\n      tag_344\n        /* \"#utility.yul\":12047:12048   */\n      dup3\n        /* \"#utility.yul\":12029:12049   */\n      tag_305\n      jump\t// in\n    tag_344:\n        /* \"#utility.yul\":12024:12049   */\n      swap2\n      pop\n        /* \"#utility.yul\":12063:12083   */\n      tag_345\n        /* \"#utility.yul\":12081:12082   */\n      dup4\n        /* \"#utility.yul\":12063:12083   */\n      tag_305\n      jump\t// in\n    tag_345:\n        /* \"#utility.yul\":12058:12083   */\n      swap3\n      pop\n        /* \"#utility.yul\":12217:12218   */\n      dup3\n        /* \"#utility.yul\":12149:12215   */\n      0xffffffffffffffffffffffffffffffffffffffffffffffffffffffffffffffff\n        /* \"#utility.yul\":12145:12219   */\n      sub\n        /* \"#utility.yul\":12142:12143   */\n      dup3\n        /* \"#utility.yul\":12139:12220   */\n      gt\n        /* \"#utility.yul\":12136:12243   */\n      iszero\n      tag_346\n      jumpi\n        /* \"#utility.yul\":12223:12241   */\n      tag_347\n      tag_348\n      jump\t// in\n    tag_347:\n        /* \"#utility.yul\":12136:12243   */\n    tag_346:\n        /* \"#utility.yul\":12267:12268   */\n      dup3\n        /* \"#utility.yul\":12264:12265   */\n      dup3\n        /* \"#utility.yul\":12260:12269   */\n      add\n        /* \"#utility.yul\":12253:12269   */\n      swap1\n      pop\n        /* \"#utility.yul\":11970:12275   */\n      swap3\n      swap2\n      pop\n      pop\n      jump\t// out\n        /* \"#utility.yul\":12281:12377   */\n    tag_240:\n        /* \"#utility.yul\":12318:12325   */\n      0x00\n        /* \"#utility.yul\":12347:12371   */\n      tag_350\n        /* \"#utility.yul\":12365:12370   */\n      dup3\n        /* \"#utility.yul\":12347:12371   */\n      tag_351\n      jump\t// in\n    tag_350:\n        /* \"#utility.yul\":12336:12371   */\n      swap1\n      pop\n        /* \"#utility.yul\":12281:12377   */\n      swap2\n      swap1\n      pop\n      jump\t// out\n        /* \"#utility.yul\":12383:12473   */\n    tag_247:\n        /* \"#utility.yul\":12417:12424   */\n      0x00\n        /* \"#utility.yul\":12460:12465   */\n      dup2\n        /* \"#utility.yul\":12453:12466   */\n      iszero\n        /* \"#utility.yul\":12446:12467   */\n      iszero\n        /* \"#utility.yul\":12435:12467   */\n      swap1\n      pop\n        /* \"#utility.yul\":12383:12473   */\n      swap2\n      swap1\n      pop\n      jump\t// out\n        /* \"#utility.yul\":12479:12605   */\n    tag_351:\n        /* \"#utility.yul\":12516:12523   */\n      0x00\n        /* \"#utility.yul\":12556:12598   */\n      0xffffffffffffffffffffffffffffffffffffffff\n        /* \"#utility.yul\":12549:12554   */\n      dup3\n        /* \"#utility.yul\":12545:12599   */\n      and\n        /* \"#utility.yul\":12534:12599   */\n      swap1\n      pop\n        /* \"#utility.yul\":12479:12605   */\n      swap2\n      swap1\n      pop\n      jump\t// out\n        /* \"#utility.yul\":12611:12688   */\n    tag_305:\n        /* \"#utility.yul\":12648:12655   */\n      0x00\n        /* \"#utility.yul\":12677:12682   */\n      dup2\n        /* \"#utility.yul\":12666:12682   */\n      swap1\n      pop\n        /* \"#utility.yul\":12611:12688   */\n      swap2\n      swap1\n      pop\n      jump\t// out\n        /* \"#utility.yul\":12694:12848   */\n    tag_192:\n        /* \"#utility.yul\":12778:12784   */\n      dup3\n        /* \"#utility.yul\":12773:12776   */\n      dup2\n        /* \"#utility.yul\":12768:12771   */\n      dup4\n        /* \"#utility.yul\":12755:12785   */\n      calldatacopy\n        /* \"#utility.yul\":12840:12841   */\n      0x00\n        /* \"#utility.yul\":12831:12837   */\n      dup4\n        /* \"#utility.yul\":12826:12829   */\n      dup4\n        /* \"#utility.yul\":12822:12838   */\n      add\n        /* \"#utility.yul\":12815:12842   */\n      mstore\n        /* \"#utility.yul\":12694:12848   */\n      pop\n      pop\n      pop\n      jump\t// out\n        /* \"#utility.yul\":12854:13161   */\n    tag_258:\n        /* \"#utility.yul\":12922:12923   */\n      0x00\n        /* \"#utility.yul\":12932:13045   */\n    tag_357:\n        /* \"#utility.yul\":12946:12952   */\n      dup4\n        /* \"#utility.yul\":12943:12944   */\n      dup2\n        /* \"#utility.yul\":12940:12953   */\n      lt\n        /* \"#utility.yul\":12932:13045   */\n      iszero\n      tag_359\n      jumpi\n        /* \"#utility.yul\":13031:13032   */\n      dup1\n        /* \"#utility.yul\":13026:13029   */\n      dup3\n        /* \"#utility.yul\":13022:13033   */\n      add\n        /* \"#utility.yul\":13016:13034   */\n      mload\n        /* \"#utility.yul\":13012:13013   */\n      dup2\n        /* \"#utility.yul\":13007:13010   */\n      dup5\n        /* \"#utility.yul\":13003:13014   */\n      add\n        /* \"#utility.yul\":12996:13035   */\n      mstore\n        /* \"#utility.yul\":12968:12970   */\n      0x20\n        /* \"#utility.yul\":12965:12966   */\n      dup2\n        /* \"#utility.yul\":12961:12971   */\n      add\n        /* \"#utility.yul\":12956:12971   */\n      swap1\n      pop\n        /* \"#utility.yul\":12932:13045   */\n      jump(tag_357)\n    tag_359:\n        /* \"#utility.yul\":13063:13069   */\n      dup4\n        /* \"#utility.yul\":13060:13061   */\n      dup2\n        /* \"#utility.yul\":13057:13070   */\n      gt\n        /* \"#utility.yul\":13054:13155   */\n      iszero\n      tag_360\n      jumpi\n        /* \"#utility.yul\":13143:13144   */\n      0x00\n        /* \"#utility.yul\":13134:13140   */\n      dup5\n        /* \"#utility.yul\":13129:13132   */\n      dup5\n        /* \"#utility.yul\":13125:13141   */\n      add\n        /* \"#utility.yul\":13118:13145   */\n      mstore\n        /* \"#utility.yul\":13054:13155   */\n    tag_360:\n        /* \"#utility.yul\":12903:13161   */\n      pop\n        /* \"#utility.yul\":12854:13161   */\n      pop\n      pop\n      pop\n      jump\t// out\n        /* \"#utility.yul\":13167:13487   */\n    tag_91:\n        /* \"#utility.yul\":13211:13217   */\n      0x00\n        /* \"#utility.yul\":13248:13249   */\n      0x02\n        /* \"#utility.yul\":13242:13246   */\n      dup3\n        /* \"#utility.yul\":13238:13250   */\n      div\n        /* \"#utility.yul\":13228:13250   */\n      swap1\n      pop\n        /* \"#utility.yul\":13295:13296   */\n      0x01\n        /* \"#utility.yul\":13289:13293   */\n      dup3\n        /* \"#utility.yul\":13285:13297   */\n      and\n        /* \"#utility.yul\":13316:13334   */\n      dup1\n        /* \"#utility.yul\":13306:13387   */\n      tag_362\n      jumpi\n        /* \"#utility.yul\":13372:13376   */\n      0x7f\n        /* \"#utility.yul\":13364:13370   */\n      dup3\n        /* \"#utility.yul\":13360:13377   */\n      and\n        /* \"#utility.yul\":13350:13377   */\n      swap2\n      pop\n        /* \"#utility.yul\":13306:13387   */\n    tag_362:\n        /* \"#utility.yul\":13434:13436   */\n      0x20\n        /* \"#utility.yul\":13426:13432   */\n      dup3\n        /* \"#utility.yul\":13423:13437   */\n      lt\n        /* \"#utility.yul\":13403:13421   */\n      dup2\n        /* \"#utility.yul\":13400:13438   */\n      eq\n        /* \"#utility.yul\":13397:13481   */\n      iszero\n      tag_363\n      jumpi\n        /* \"#utility.yul\":13453:13471   */\n      tag_364\n      tag_365\n      jump\t// in\n    tag_364:\n        /* \"#utility.yul\":13397:13481   */\n    tag_363:\n        /* \"#utility.yul\":13218:13487   */\n      pop\n        /* \"#utility.yul\":13167:13487   */\n      swap2\n      swap1\n      pop\n      jump\t// out\n        /* \"#utility.yul\":13493:13774   */\n    tag_331:\n        /* \"#utility.yul\":13576:13603   */\n      tag_367\n        /* \"#utility.yul\":13598:13602   */\n      dup3\n        /* \"#utility.yul\":13576:13603   */\n      tag_260\n      jump\t// in\n    tag_367:\n        /* \"#utility.yul\":13568:13574   */\n      dup2\n        /* \"#utility.yul\":13564:13604   */\n      add\n        /* \"#utility.yul\":13706:13712   */\n      dup2\n        /* \"#utility.yul\":13694:13704   */\n      dup2\n        /* \"#utility.yul\":13691:13713   */\n      lt\n        /* \"#utility.yul\":13670:13688   */\n      0xffffffffffffffff\n        /* \"#utility.yul\":13658:13668   */\n      dup3\n        /* \"#utility.yul\":13655:13689   */\n      gt\n        /* \"#utility.yul\":13652:13714   */\n      or\n        /* \"#utility.yul\":13649:13737   */\n      iszero\n      tag_368\n      jumpi\n        /* \"#utility.yul\":13717:13735   */\n      tag_369\n      tag_336\n      jump\t// in\n    tag_369:\n        /* \"#utility.yul\":13649:13737   */\n    tag_368:\n        /* \"#utility.yul\":13757:13767   */\n      dup1\n        /* \"#utility.yul\":13753:13755   */\n      0x40\n        /* \"#utility.yul\":13746:13768   */\n      mstore\n        /* \"#utility.yul\":13536:13774   */\n      pop\n        /* \"#utility.yul\":13493:13774   */\n      pop\n      pop\n      jump\t// out\n        /* \"#utility.yul\":13780:14013   */\n    tag_76:\n        /* \"#utility.yul\":13819:13822   */\n      0x00\n        /* \"#utility.yul\":13842:13866   */\n      tag_371\n        /* \"#utility.yul\":13860:13865   */\n      dup3\n        /* \"#utility.yul\":13842:13866   */\n      tag_305\n      jump\t// in\n    tag_371:\n        /* \"#utility.yul\":13833:13866   */\n      swap2\n      pop\n        /* \"#utility.yul\":13888:13954   */\n      0xffffffffffffffffffffffffffffffffffffffffffffffffffffffffffffffff\n        /* \"#utility.yul\":13881:13886   */\n      dup3\n        /* \"#utility.yul\":13878:13955   */\n      eq\n        /* \"#utility.yul\":13875:13978   */\n      iszero\n      tag_372\n      jumpi\n        /* \"#utility.yul\":13958:13976   */\n      tag_373\n      tag_348\n      jump\t// in\n    tag_373:\n        /* \"#utility.yul\":13875:13978   */\n    tag_372:\n        /* \"#utility.yul\":14005:14006   */\n      0x01\n        /* \"#utility.yul\":13998:14003   */\n      dup3\n        /* \"#utility.yul\":13994:14007   */\n      add\n        /* \"#utility.yul\":13987:14007   */\n      swap1\n      pop\n        /* \"#utility.yul\":13780:14013   */\n      swap2\n      swap1\n      pop\n      jump\t// out\n        /* \"#utility.yul\":14019:14199   */\n    tag_348:\n        /* \"#utility.yul\":14067:14144   */\n      0x4e487b7100000000000000000000000000000000000000000000000000000000\n        /* \"#utility.yul\":14064:14065   */\n      0x00\n        /* \"#utility.yul\":14057:14145   */\n      mstore\n        /* \"#utility.yul\":14164:14168   */\n      0x11\n        /* \"#utility.yul\":14161:14162   */\n      0x04\n        /* \"#utility.yul\":14154:14169   */\n      mstore\n        /* \"#utility.yul\":14188:14192   */\n      0x24\n        /* \"#utility.yul\":14185:14186   */\n      0x00\n        /* \"#utility.yul\":14178:14193   */\n      revert\n        /* \"#utility.yul\":14205:14385   */\n    tag_365:\n        /* \"#utility.yul\":14253:14330   */\n      0x4e487b7100000000000000000000000000000000000000000000000000000000\n        /* \"#utility.yul\":14250:14251   */\n      0x00\n        /* \"#utility.yul\":14243:14331   */\n      mstore\n        /* \"#utility.yul\":14350:14354   */\n      0x22\n        /* \"#utility.yul\":14347:14348   */\n      0x04\n        /* \"#utility.yul\":14340:14355   */\n      mstore\n        /* \"#utility.yul\":14374:14378   */\n      0x24\n        /* \"#utility.yul\":14371:14372   */\n      0x00\n        /* \"#utility.yul\":14364:14379   */\n      revert\n        /* \"#utility.yul\":14391:14571   */\n    tag_72:\n        /* \"#utility.yul\":14439:14516   */\n      0x4e487b7100000000000000000000000000000000000000000000000000000000\n        /* \"#utility.yul\":14436:14437   */\n      0x00\n        /* \"#utility.yul\":14429:14517   */\n      mstore\n        /* \"#utility.yul\":14536:14540   */\n      0x32\n        /* \"#utility.yul\":14533:14534   */\n      0x04\n        /* \"#utility.yul\":14526:14541   */\n      mstore\n        /* \"#utility.yul\":14560:14564   */\n      0x24\n        /* \"#utility.yul\":14557:14558   */\n      0x00\n        /* \"#utility.yul\":14550:14565   */\n      revert\n        /* \"#utility.yul\":14577:14757   */\n    tag_336:\n        /* \"#utility.yul\":14625:14702   */\n      0x4e487b7100000000000000000000000000000000000000000000000000000000\n        /* \"#utility.yul\":14622:14623   */\n      0x00\n        /* \"#utility.yul\":14615:14703   */\n      mstore\n        /* \"#utility.yul\":14722:14726   */\n      0x41\n        /* \"#utility.yul\":14719:14720   */\n      0x04\n        /* \"#utility.yul\":14712:14727   */\n      mstore\n        /* \"#utility.yul\":14746:14750   */\n      0x24\n        /* \"#utility.yul\":14743:14744   */\n      0x00\n        /* \"#utility.yul\":14736:14751   */\n      revert\n        /* \"#utility.yul\":14763:14880   */\n    tag_208:\n        /* \"#utility.yul\":14872:14873   */\n      0x00\n        /* \"#utility.yul\":14869:14870   */\n      dup1\n        /* \"#utility.yul\":14862:14874   */\n      revert\n        /* \"#utility.yul\":14886:15003   */\n    tag_190:\n        /* \"#utility.yul\":14995:14996   */\n      0x00\n        /* \"#utility.yul\":14992:14993   */\n      dup1\n        /* \"#utility.yul\":14985:14997   */\n      revert\n        /* \"#utility.yul\":15009:15126   */\n    tag_225:\n        /* \"#utility.yul\":15118:15119   */\n      0x00\n        /* \"#utility.yul\":15115:15116   */\n      dup1\n        /* \"#utility.yul\":15108:15120   */\n      revert\n        /* \"#utility.yul\":15132:15249   */\n    tag_217:\n        /* \"#utility.yul\":15241:15242   */\n      0x00\n        /* \"#utility.yul\":15238:15239   */\n      dup1\n        /* \"#utility.yul\":15231:15243   */\n      revert\n        /* \"#utility.yul\":15255:15357   */\n    tag_260:\n        /* \"#utility.yul\":15296:15302   */\n      0x00\n        /* \"#utility.yul\":15347:15349   */\n      0x1f\n        /* \"#utility.yul\":15343:15350   */\n      not\n        /* \"#utility.yul\":15338:15340   */\n      0x1f\n        /* \"#utility.yul\":15331:15336   */\n      dup4\n        /* \"#utility.yul\":15327:15341   */\n      add\n        /* \"#utility.yul\":15323:15351   */\n      and\n        /* \"#utility.yul\":15313:15351   */\n      swap1\n      pop\n        /* \"#utility.yul\":15255:15357   */\n      swap2\n      swap1\n      pop\n      jump\t// out\n        /* \"#utility.yul\":15363:15535   */\n    tag_285:\n        /* \"#utility.yul\":15503:15527   */\n      0x496e76616c69642057616c6c6574204164647265737300000000000000000000\n        /* \"#utility.yul\":15499:15500   */\n      0x00\n        /* \"#utility.yul\":15491:15497   */\n      dup3\n        /* \"#utility.yul\":15487:15501   */\n      add\n        /* \"#utility.yul\":15480:15528   */\n      mstore\n        /* \"#utility.yul\":15363:15535   */\n      pop\n      jump\t// out\n        /* \"#utility.yul\":15541:15712   */\n    tag_290:\n        /* \"#utility.yul\":15681:15704   */\n      0x596f7520617265206e6f7420746865206f776e65720000000000000000000000\n        /* \"#utility.yul\":15677:15678   */\n      0x00\n        /* \"#utility.yul\":15669:15675   */\n      dup3\n        /* \"#utility.yul\":15665:15679   */\n      add\n        /* \"#utility.yul\":15658:15705   */\n      mstore\n        /* \"#utility.yul\":15541:15712   */\n      pop\n      jump\t// out\n        /* \"#utility.yul\":15718:15832   */\n    tag_295:\n      pop\n      jump\t// out\n        /* \"#utility.yul\":15838:15960   */\n    tag_196:\n        /* \"#utility.yul\":15911:15935   */\n      tag_387\n        /* \"#utility.yul\":15929:15934   */\n      dup2\n        /* \"#utility.yul\":15911:15935   */\n      tag_240\n      jump\t// in\n    tag_387:\n        /* \"#utility.yul\":15904:15909   */\n      dup2\n        /* \"#utility.yul\":15901:15936   */\n      eq\n        /* \"#utility.yul\":15891:15954   */\n      tag_388\n      jumpi\n        /* \"#utility.yul\":15950:15951   */\n      0x00\n        /* \"#utility.yul\":15947:15948   */\n      dup1\n        /* \"#utility.yul\":15940:15952   */\n      revert\n        /* \"#utility.yul\":15891:15954   */\n    tag_388:\n        /* \"#utility.yul\":15838:15960   */\n      pop\n      jump\t// out\n        /* \"#utility.yul\":15966:16082   */\n    tag_200:\n        /* \"#utility.yul\":16036:16057   */\n      tag_390\n        /* \"#utility.yul\":16051:16056   */\n      dup2\n        /* \"#utility.yul\":16036:16057   */\n      tag_247\n      jump\t// in\n    tag_390:\n        /* \"#utility.yul\":16029:16034   */\n      dup2\n        /* \"#utility.yul\":16026:16058   */\n      eq\n        /* \"#utility.yul\":16016:16076   */\n      tag_391\n      jumpi\n        /* \"#utility.yul\":16072:16073   */\n      0x00\n        /* \"#utility.yul\":16069:16070   */\n      dup1\n        /* \"#utility.yul\":16062:16074   */\n      revert\n        /* \"#utility.yul\":16016:16076   */\n    tag_391:\n        /* \"#utility.yul\":15966:16082   */\n      pop\n      jump\t// out\n        /* \"#utility.yul\":16088:16210   */\n    tag_213:\n        /* \"#utility.yul\":16161:16185   */\n      tag_393\n        /* \"#utility.yul\":16179:16184   */\n      dup2\n        /* \"#utility.yul\":16161:16185   */\n      tag_305\n      jump\t// in\n    tag_393:\n        /* \"#utility.yul\":16154:16159   */\n      dup2\n        /* \"#utility.yul\":16151:16186   */\n      eq\n        /* \"#utility.yul\":16141:16204   */\n      tag_394\n      jumpi\n        /* \"#utility.yul\":16200:16201   */\n      0x00\n        /* \"#utility.yul\":16197:16198   */\n      dup1\n        /* \"#utility.yul\":16190:16202   */\n      revert\n        /* \"#utility.yul\":16141:16204   */\n    tag_394:\n        /* \"#utility.yul\":16088:16210   */\n      pop\n      jump\t// out\n\n    auxdata: 0xa26469706673582212206125cd242c1eb7f84d56bb974fcd869e0d201922100a9fdac7c61acefba5c0ee64736f6c63430008070033\n}\n",
				"bytecode": {
					"linkReferences": {
						"contracts/Test1.sol": {
							"StringUtils": [
								{
									"length": 20,
									"start": 1651
								}
							]
						}
					},
					"object": "608060405234801561001057600080fd5b50336000806101000a81548173ffffffffffffffffffffffffffffffffffffffff021916908373ffffffffffffffffffffffffffffffffffffffff160217905550611742806100606000396000f3fe6080604052600436106100915760003560e01c80635b83b7f1116100595780635b83b7f11461019557806369c212f6146101d25780636f7bc9be1461020f57806370a082311461024f578063d7bed4bc1461028c57610091565b80630e666e49146100965780631a695230146100d3578063280879e7146100ef578063365b98b2146101185780634140eb0d14610158575b600080fd5b3480156100a257600080fd5b506100bd60048036038101906100b89190610f21565b6102b5565b6040516100ca919061128f565b60405180910390f35b6100ed60048036038101906100e89190610f21565b61036b565b005b3480156100fb57600080fd5b5061011660048036038101906101119190610f4e565b610377565b005b34801561012457600080fd5b5061013f600480360381019061013a9190610ffe565b6104ff565b60405161014f9493929190611243565b60405180910390f35b34801561016457600080fd5b5061017f600480360381019061017a9190610f21565b6105f4565b60405161018c919061128f565b60405180910390f35b3480156101a157600080fd5b506101bc60048036038101906101b79190610f21565b61060f565b6040516101c9919061128f565b60405180910390f35b3480156101de57600080fd5b506101f960048036038101906101f49190610f21565b6106f1565b604051610206919061131f565b60405180910390f35b34801561021b57600080fd5b5061023660048036038101906102319190610f21565b610955565b6040516102469493929190611243565b60405180910390f35b34801561025b57600080fd5b5061027660048036038101906102719190610f21565b610a3a565b6040516102839190611341565b60405180910390f35b34801561029857600080fd5b506102b360048036038101906102ae9190610f21565b610b15565b005b600080600090505b600180549050811015610360578273ffffffffffffffffffffffffffffffffffffffff16600182815481106102f5576102f46115ef565b5b906000526020600020906004020160000160009054906101000a900473ffffffffffffffffffffffffffffffffffffffff1673ffffffffffffffffffffffffffffffffffffffff16141561034d576001915050610366565b808061035890611548565b9150506102bd565b50600090505b919050565b61037481610c9d565b50565b60008054906101000a900473ffffffffffffffffffffffffffffffffffffffff1673ffffffffffffffffffffffffffffffffffffffff163373ffffffffffffffffffffffffffffffffffffffff1614610405576040517f08c379a00000000000000000000000000000000000000000000000000000000081526004016103fc906112ff565b60405180910390fd5b600160405180608001604052808673ffffffffffffffffffffffffffffffffffffffff168152602001858152602001848152602001831515815250908060018154018082558091505060019003906000526020600020906004020160009091909190915060008201518160000160006101000a81548173ffffffffffffffffffffffffffffffffffffffff021916908373ffffffffffffffffffffffffffffffffffffffff16021790555060208201518160010190805190602001906104cc929190610d7a565b506040820151816002015560608201518160030160006101000a81548160ff021916908315150217905550505050505050565b6001818154811061050f57600080fd5b90600052602060002090600402016000915090508060000160009054906101000a900473ffffffffffffffffffffffffffffffffffffffff1690806001018054610558906114e5565b80601f0160208091040260200160405190810160405280929190818152602001828054610584906114e5565b80156105d15780601f106105a6576101008083540402835291602001916105d1565b820191906000526020600020905b8154815290600101906020018083116105b457829003601f168201915b5050505050908060020154908060030160009054906101000a900460ff16905084565b600080610600836106f1565b90508060600151915050919050565b600073__$08c12a1e75e73256f67245938a08682233$__6346bdca9a600260008573ffffffffffffffffffffffffffffffffffffffff1673ffffffffffffffffffffffffffffffffffffffff1681526020019081526020016000206001016040518263ffffffff1660e01b815260040161068991906112aa565b60206040518083038186803b1580156106a157600080fd5b505af41580156106b5573d6000803e3d6000fd5b505050506040513d601f19601f820116820180604052508101906106d99190610fd1565b156106e757600190506106ec565b600090505b919050565b6106f9610e00565b60005b600180549050811015610914578273ffffffffffffffffffffffffffffffffffffffff1660018281548110610734576107336115ef565b5b906000526020600020906004020160000160009054906101000a900473ffffffffffffffffffffffffffffffffffffffff1673ffffffffffffffffffffffffffffffffffffffff161415610901576001808281548110610797576107966115ef565b5b906000526020600020906004020160030160006101000a81548160ff021916908315150217905550600181815481106107d3576107d26115ef565b5b90600052602060002090600402016040518060800160405290816000820160009054906101000a900473ffffffffffffffffffffffffffffffffffffffff1673ffffffffffffffffffffffffffffffffffffffff1673ffffffffffffffffffffffffffffffffffffffff168152602001600182018054610852906114e5565b80601f016020809104026020016040519081016040528092919081815260200182805461087e906114e5565b80156108cb5780601f106108a0576101008083540402835291602001916108cb565b820191906000526020600020905b8154815290600101906020018083116108ae57829003601f168201915b50505050508152602001600282015481526020016003820160009054906101000a900460ff161515151581525050915050610950565b808061090c90611548565b9150506106fc565b506040517f08c379a0000000000000000000000000000000000000000000000000000000008152600401610947906112df565b60405180910390fd5b919050565b60026020528060005260406000206000915090508060000160009054906101000a900473ffffffffffffffffffffffffffffffffffffffff169080600101805461099e906114e5565b80601f01602080910402602001604051908101604052809291908181526020018280546109ca906114e5565b8015610a175780601f106109ec57610100808354040283529160200191610a17565b820191906000526020600020905b8154815290600101906020018083116109fa57829003601f168201915b5050505050908060020154908060030160009054906101000a900460ff16905084565b600080600090505b600180549050811015610b09578273ffffffffffffffffffffffffffffffffffffffff1660018281548110610a7a57610a796115ef565b5b906000526020600020906004020160000160009054906101000a900473ffffffffffffffffffffffffffffffffffffffff1673ffffffffffffffffffffffffffffffffffffffff161415610af65760018181548110610adc57610adb6115ef565b5b906000526020600020906004020160020154915050610b10565b8080610b0190611548565b915050610a42565b506103e790505b919050565b60008054906101000a900473ffffffffffffffffffffffffffffffffffffffff1673ffffffffffffffffffffffffffffffffffffffff163373ffffffffffffffffffffffffffffffffffffffff1614610ba3576040517f08c379a0000000000000000000000000000000000000000000000000000000008152600401610b9a906112ff565b60405180910390fd5b6000610bae826106f1565b9050610bbd81600001516102b5565b15610c985780600260008473ffffffffffffffffffffffffffffffffffffffff1673ffffffffffffffffffffffffffffffffffffffff16815260200190815260200160002060008201518160000160006101000a81548173ffffffffffffffffffffffffffffffffffffffff021916908373ffffffffffffffffffffffffffffffffffffffff1602179055506020820151816001019080519060200190610c65929190610d7a565b506040820151816002015560608201518160030160006101000a81548160ff021916908315150217905550905050610c99565b5b5050565b60005b600180549050811015610d76578173ffffffffffffffffffffffffffffffffffffffff1660018281548110610cd857610cd76115ef565b5b906000526020600020906004020160000160009054906101000a900473ffffffffffffffffffffffffffffffffffffffff1673ffffffffffffffffffffffffffffffffffffffff161415610d63573460018281548110610d3b57610d3a6115ef565b5b90600052602060002090600402016002016000828254610d5b9190611405565b925050819055505b8080610d6e90611548565b915050610ca0565b5050565b828054610d86906114e5565b90600052602060002090601f016020900481019282610da85760008555610def565b82601f10610dc157805160ff1916838001178555610def565b82800160010185558215610def579182015b82811115610dee578251825591602001919060010190610dd3565b5b509050610dfc9190610e40565b5090565b6040518060800160405280600073ffffffffffffffffffffffffffffffffffffffff16815260200160608152602001600081526020016000151581525090565b5b80821115610e59576000816000905550600101610e41565b5090565b6000610e70610e6b84611381565b61135c565b905082815260208101848484011115610e8c57610e8b611652565b5b610e978482856114a3565b509392505050565b600081359050610eae816116c7565b92915050565b600081359050610ec3816116de565b92915050565b600081519050610ed8816116de565b92915050565b600082601f830112610ef357610ef261164d565b5b8135610f03848260208601610e5d565b91505092915050565b600081359050610f1b816116f5565b92915050565b600060208284031215610f3757610f3661165c565b5b6000610f4584828501610e9f565b91505092915050565b60008060008060808587031215610f6857610f6761165c565b5b6000610f7687828801610e9f565b945050602085013567ffffffffffffffff811115610f9757610f96611657565b5b610fa387828801610ede565b9350506040610fb487828801610f0c565b9250506060610fc587828801610eb4565b91505092959194509250565b600060208284031215610fe757610fe661165c565b5b6000610ff584828501610ec9565b91505092915050565b6000602082840312156110145761101361165c565b5b600061102284828501610f0c565b91505092915050565b6110348161145b565b82525050565b6110438161145b565b82525050565b6110528161146d565b82525050565b6110618161146d565b82525050565b6000611072826113c7565b61107c81856113d2565b935061108c8185602086016114b2565b61109581611661565b840191505092915050565b60006110ab826113c7565b6110b581856113e3565b93506110c58185602086016114b2565b6110ce81611661565b840191505092915050565b600081546110e6816114e5565b6110f081866113f4565b9450600182166000811461110b576001811461111d57611150565b60ff1983168652602086019350611150565b611126856113b2565b60005b8381101561114857815481890152600182019150602081019050611129565b808801955050505b50505092915050565b60006111666016836113e3565b915061117182611672565b602082019050919050565b60006111896015836113e3565b91506111948261169b565b602082019050919050565b60006111ac6000836113f4565b91506111b7826116c4565b600082019050919050565b60006080830160008301516111da600086018261102b565b50602083015184820360208601526111f28282611067565b91505060408301516112076040860182611225565b50606083015161121a6060860182611049565b508091505092915050565b61122e81611499565b82525050565b61123d81611499565b82525050565b6000608082019050611258600083018761103a565b818103602083015261126a81866110a0565b90506112796040830185611234565b6112866060830184611058565b95945050505050565b60006020820190506112a46000830184611058565b92915050565b600060408201905081810360008301526112c481846110d9565b905081810360208301526112d78161119f565b905092915050565b600060208201905081810360008301526112f881611159565b9050919050565b600060208201905081810360008301526113188161117c565b9050919050565b6000602082019050818103600083015261133981846111c2565b905092915050565b60006020820190506113566000830184611234565b92915050565b6000611366611377565b90506113728282611517565b919050565b6000604051905090565b600067ffffffffffffffff82111561139c5761139b61161e565b5b6113a582611661565b9050602081019050919050565b60008190508160005260206000209050919050565b600081519050919050565b600082825260208201905092915050565b600082825260208201905092915050565b600082825260208201905092915050565b600061141082611499565b915061141b83611499565b9250827fffffffffffffffffffffffffffffffffffffffffffffffffffffffffffffffff038211156114505761144f611591565b5b828201905092915050565b600061146682611479565b9050919050565b60008115159050919050565b600073ffffffffffffffffffffffffffffffffffffffff82169050919050565b6000819050919050565b82818337600083830152505050565b60005b838110156114d05780820151818401526020810190506114b5565b838111156114df576000848401525b50505050565b600060028204905060018216806114fd57607f821691505b60208210811415611511576115106115c0565b5b50919050565b61152082611661565b810181811067ffffffffffffffff8211171561153f5761153e61161e565b5b80604052505050565b600061155382611499565b91507fffffffffffffffffffffffffffffffffffffffffffffffffffffffffffffffff82141561158657611585611591565b5b600182019050919050565b7f4e487b7100000000000000000000000000000000000000000000000000000000600052601160045260246000fd5b7f4e487b7100000000000000000000000000000000000000000000000000000000600052602260045260246000fd5b7f4e487b7100000000000000000000000000000000000000000000000000000000600052603260045260246000fd5b7f4e487b7100000000000000000000000000000000000000000000000000000000600052604160045260246000fd5b600080fd5b600080fd5b600080fd5b600080fd5b6000601f19601f8301169050919050565b7f496e76616c69642057616c6c6574204164647265737300000000000000000000600082015250565b7f596f7520617265206e6f7420746865206f776e65720000000000000000000000600082015250565b50565b6116d08161145b565b81146116db57600080fd5b50565b6116e78161146d565b81146116f257600080fd5b50565b6116fe81611499565b811461170957600080fd5b5056fea26469706673582212206125cd242c1eb7f84d56bb974fcd869e0d201922100a9fdac7c61acefba5c0ee64736f6c63430008070033",
					"opcodes": "PUSH1 0x80 PUSH1 0x40 MSTORE CALLVALUE DUP1 ISZERO PUSH2 0x10 JUMPI PUSH1 0x0 DUP1 REVERT JUMPDEST POP CALLER PUSH1 0x0 DUP1 PUSH2 0x100 EXP DUP2 SLOAD DUP2 PUSH20 0xFFFFFFFFFFFFFFFFFFFFFFFFFFFFFFFFFFFFFFFF MUL NOT AND SWAP1 DUP4 PUSH20 0xFFFFFFFFFFFFFFFFFFFFFFFFFFFFFFFFFFFFFFFF AND MUL OR SWAP1 SSTORE POP PUSH2 0x1742 DUP1 PUSH2 0x60 PUSH1 0x0 CODECOPY PUSH1 0x0 RETURN INVALID PUSH1 0x80 PUSH1 0x40 MSTORE PUSH1 0x4 CALLDATASIZE LT PUSH2 0x91 JUMPI PUSH1 0x0 CALLDATALOAD PUSH1 0xE0 SHR DUP1 PUSH4 0x5B83B7F1 GT PUSH2 0x59 JUMPI DUP1 PUSH4 0x5B83B7F1 EQ PUSH2 0x195 JUMPI DUP1 PUSH4 0x69C212F6 EQ PUSH2 0x1D2 JUMPI DUP1 PUSH4 0x6F7BC9BE EQ PUSH2 0x20F JUMPI DUP1 PUSH4 0x70A08231 EQ PUSH2 0x24F JUMPI DUP1 PUSH4 0xD7BED4BC EQ PUSH2 0x28C JUMPI PUSH2 0x91 JUMP JUMPDEST DUP1 PUSH4 0xE666E49 EQ PUSH2 0x96 JUMPI DUP1 PUSH4 0x1A695230 EQ PUSH2 0xD3 JUMPI DUP1 PUSH4 0x280879E7 EQ PUSH2 0xEF JUMPI DUP1 PUSH4 0x365B98B2 EQ PUSH2 0x118 JUMPI DUP1 PUSH4 0x4140EB0D EQ PUSH2 0x158 JUMPI JUMPDEST PUSH1 0x0 DUP1 REVERT JUMPDEST CALLVALUE DUP1 ISZERO PUSH2 0xA2 JUMPI PUSH1 0x0 DUP1 REVERT JUMPDEST POP PUSH2 0xBD PUSH1 0x4 DUP1 CALLDATASIZE SUB DUP2 ADD SWAP1 PUSH2 0xB8 SWAP2 SWAP1 PUSH2 0xF21 JUMP JUMPDEST PUSH2 0x2B5 JUMP JUMPDEST PUSH1 0x40 MLOAD PUSH2 0xCA SWAP2 SWAP1 PUSH2 0x128F JUMP JUMPDEST PUSH1 0x40 MLOAD DUP1 SWAP2 SUB SWAP1 RETURN JUMPDEST PUSH2 0xED PUSH1 0x4 DUP1 CALLDATASIZE SUB DUP2 ADD SWAP1 PUSH2 0xE8 SWAP2 SWAP1 PUSH2 0xF21 JUMP JUMPDEST PUSH2 0x36B JUMP JUMPDEST STOP JUMPDEST CALLVALUE DUP1 ISZERO PUSH2 0xFB JUMPI PUSH1 0x0 DUP1 REVERT JUMPDEST POP PUSH2 0x116 PUSH1 0x4 DUP1 CALLDATASIZE SUB DUP2 ADD SWAP1 PUSH2 0x111 SWAP2 SWAP1 PUSH2 0xF4E JUMP JUMPDEST PUSH2 0x377 JUMP JUMPDEST STOP JUMPDEST CALLVALUE DUP1 ISZERO PUSH2 0x124 JUMPI PUSH1 0x0 DUP1 REVERT JUMPDEST POP PUSH2 0x13F PUSH1 0x4 DUP1 CALLDATASIZE SUB DUP2 ADD SWAP1 PUSH2 0x13A SWAP2 SWAP1 PUSH2 0xFFE JUMP JUMPDEST PUSH2 0x4FF JUMP JUMPDEST PUSH1 0x40 MLOAD PUSH2 0x14F SWAP5 SWAP4 SWAP3 SWAP2 SWAP1 PUSH2 0x1243 JUMP JUMPDEST PUSH1 0x40 MLOAD DUP1 SWAP2 SUB SWAP1 RETURN JUMPDEST CALLVALUE DUP1 ISZERO PUSH2 0x164 JUMPI PUSH1 0x0 DUP1 REVERT JUMPDEST POP PUSH2 0x17F PUSH1 0x4 DUP1 CALLDATASIZE SUB DUP2 ADD SWAP1 PUSH2 0x17A SWAP2 SWAP1 PUSH2 0xF21 JUMP JUMPDEST PUSH2 0x5F4 JUMP JUMPDEST PUSH1 0x40 MLOAD PUSH2 0x18C SWAP2 SWAP1 PUSH2 0x128F JUMP JUMPDEST PUSH1 0x40 MLOAD DUP1 SWAP2 SUB SWAP1 RETURN JUMPDEST CALLVALUE DUP1 ISZERO PUSH2 0x1A1 JUMPI PUSH1 0x0 DUP1 REVERT JUMPDEST POP PUSH2 0x1BC PUSH1 0x4 DUP1 CALLDATASIZE SUB DUP2 ADD SWAP1 PUSH2 0x1B7 SWAP2 SWAP1 PUSH2 0xF21 JUMP JUMPDEST PUSH2 0x60F JUMP JUMPDEST PUSH1 0x40 MLOAD PUSH2 0x1C9 SWAP2 SWAP1 PUSH2 0x128F JUMP JUMPDEST PUSH1 0x40 MLOAD DUP1 SWAP2 SUB SWAP1 RETURN JUMPDEST CALLVALUE DUP1 ISZERO PUSH2 0x1DE JUMPI PUSH1 0x0 DUP1 REVERT JUMPDEST POP PUSH2 0x1F9 PUSH1 0x4 DUP1 CALLDATASIZE SUB DUP2 ADD SWAP1 PUSH2 0x1F4 SWAP2 SWAP1 PUSH2 0xF21 JUMP JUMPDEST PUSH2 0x6F1 JUMP JUMPDEST PUSH1 0x40 MLOAD PUSH2 0x206 SWAP2 SWAP1 PUSH2 0x131F JUMP JUMPDEST PUSH1 0x40 MLOAD DUP1 SWAP2 SUB SWAP1 RETURN JUMPDEST CALLVALUE DUP1 ISZERO PUSH2 0x21B JUMPI PUSH1 0x0 DUP1 REVERT JUMPDEST POP PUSH2 0x236 PUSH1 0x4 DUP1 CALLDATASIZE SUB DUP2 ADD SWAP1 PUSH2 0x231 SWAP2 SWAP1 PUSH2 0xF21 JUMP JUMPDEST PUSH2 0x955 JUMP JUMPDEST PUSH1 0x40 MLOAD PUSH2 0x246 SWAP5 SWAP4 SWAP3 SWAP2 SWAP1 PUSH2 0x1243 JUMP JUMPDEST PUSH1 0x40 MLOAD DUP1 SWAP2 SUB SWAP1 RETURN JUMPDEST CALLVALUE DUP1 ISZERO PUSH2 0x25B JUMPI PUSH1 0x0 DUP1 REVERT JUMPDEST POP PUSH2 0x276 PUSH1 0x4 DUP1 CALLDATASIZE SUB DUP2 ADD SWAP1 PUSH2 0x271 SWAP2 SWAP1 PUSH2 0xF21 JUMP JUMPDEST PUSH2 0xA3A JUMP JUMPDEST PUSH1 0x40 MLOAD PUSH2 0x283 SWAP2 SWAP1 PUSH2 0x1341 JUMP JUMPDEST PUSH1 0x40 MLOAD DUP1 SWAP2 SUB SWAP1 RETURN JUMPDEST CALLVALUE DUP1 ISZERO PUSH2 0x298 JUMPI PUSH1 0x0 DUP1 REVERT JUMPDEST POP PUSH2 0x2B3 PUSH1 0x4 DUP1 CALLDATASIZE SUB DUP2 ADD SWAP1 PUSH2 0x2AE SWAP2 SWAP1 PUSH2 0xF21 JUMP JUMPDEST PUSH2 0xB15 JUMP JUMPDEST STOP JUMPDEST PUSH1 0x0 DUP1 PUSH1 0x0 SWAP1 POP JUMPDEST PUSH1 0x1 DUP1 SLOAD SWAP1 POP DUP2 LT ISZERO PUSH2 0x360 JUMPI DUP3 PUSH20 0xFFFFFFFFFFFFFFFFFFFFFFFFFFFFFFFFFFFFFFFF AND PUSH1 0x1 DUP3 DUP2 SLOAD DUP2 LT PUSH2 0x2F5 JUMPI PUSH2 0x2F4 PUSH2 0x15EF JUMP JUMPDEST JUMPDEST SWAP1 PUSH1 0x0 MSTORE PUSH1 0x20 PUSH1 0x0 KECCAK256 SWAP1 PUSH1 0x4 MUL ADD PUSH1 0x0 ADD PUSH1 0x0 SWAP1 SLOAD SWAP1 PUSH2 0x100 EXP SWAP1 DIV PUSH20 0xFFFFFFFFFFFFFFFFFFFFFFFFFFFFFFFFFFFFFFFF AND PUSH20 0xFFFFFFFFFFFFFFFFFFFFFFFFFFFFFFFFFFFFFFFF AND EQ ISZERO PUSH2 0x34D JUMPI PUSH1 0x1 SWAP2 POP POP PUSH2 0x366 JUMP JUMPDEST DUP1 DUP1 PUSH2 0x358 SWAP1 PUSH2 0x1548 JUMP JUMPDEST SWAP2 POP POP PUSH2 0x2BD JUMP JUMPDEST POP PUSH1 0x0 SWAP1 POP JUMPDEST SWAP2 SWAP1 POP JUMP JUMPDEST PUSH2 0x374 DUP2 PUSH2 0xC9D JUMP JUMPDEST POP JUMP JUMPDEST PUSH1 0x0 DUP1 SLOAD SWAP1 PUSH2 0x100 EXP SWAP1 DIV PUSH20 0xFFFFFFFFFFFFFFFFFFFFFFFFFFFFFFFFFFFFFFFF AND PUSH20 0xFFFFFFFFFFFFFFFFFFFFFFFFFFFFFFFFFFFFFFFF AND CALLER PUSH20 0xFFFFFFFFFFFFFFFFFFFFFFFFFFFFFFFFFFFFFFFF AND EQ PUSH2 0x405 JUMPI PUSH1 0x40 MLOAD PUSH32 0x8C379A000000000000000000000000000000000000000000000000000000000 DUP2 MSTORE PUSH1 0x4 ADD PUSH2 0x3FC SWAP1 PUSH2 0x12FF JUMP JUMPDEST PUSH1 0x40 MLOAD DUP1 SWAP2 SUB SWAP1 REVERT JUMPDEST PUSH1 0x1 PUSH1 0x40 MLOAD DUP1 PUSH1 0x80 ADD PUSH1 0x40 MSTORE DUP1 DUP7 PUSH20 0xFFFFFFFFFFFFFFFFFFFFFFFFFFFFFFFFFFFFFFFF AND DUP2 MSTORE PUSH1 0x20 ADD DUP6 DUP2 MSTORE PUSH1 0x20 ADD DUP5 DUP2 MSTORE PUSH1 0x20 ADD DUP4 ISZERO ISZERO DUP2 MSTORE POP SWAP1 DUP1 PUSH1 0x1 DUP2 SLOAD ADD DUP1 DUP3 SSTORE DUP1 SWAP2 POP POP PUSH1 0x1 SWAP1 SUB SWAP1 PUSH1 0x0 MSTORE PUSH1 0x20 PUSH1 0x0 KECCAK256 SWAP1 PUSH1 0x4 MUL ADD PUSH1 0x0 SWAP1 SWAP2 SWAP1 SWAP2 SWAP1 SWAP2 POP PUSH1 0x0 DUP3 ADD MLOAD DUP2 PUSH1 0x0 ADD PUSH1 0x0 PUSH2 0x100 EXP DUP2 SLOAD DUP2 PUSH20 0xFFFFFFFFFFFFFFFFFFFFFFFFFFFFFFFFFFFFFFFF MUL NOT AND SWAP1 DUP4 PUSH20 0xFFFFFFFFFFFFFFFFFFFFFFFFFFFFFFFFFFFFFFFF AND MUL OR SWAP1 SSTORE POP PUSH1 0x20 DUP3 ADD MLOAD DUP2 PUSH1 0x1 ADD SWAP1 DUP1 MLOAD SWAP1 PUSH1 0x20 ADD SWAP1 PUSH2 0x4CC SWAP3 SWAP2 SWAP1 PUSH2 0xD7A JUMP JUMPDEST POP PUSH1 0x40 DUP3 ADD MLOAD DUP2 PUSH1 0x2 ADD SSTORE PUSH1 0x60 DUP3 ADD MLOAD DUP2 PUSH1 0x3 ADD PUSH1 0x0 PUSH2 0x100 EXP DUP2 SLOAD DUP2 PUSH1 0xFF MUL NOT AND SWAP1 DUP4 ISZERO ISZERO MUL OR SWAP1 SSTORE POP POP POP POP POP POP POP JUMP JUMPDEST PUSH1 0x1 DUP2 DUP2 SLOAD DUP2 LT PUSH2 0x50F JUMPI PUSH1 0x0 DUP1 REVERT JUMPDEST SWAP1 PUSH1 0x0 MSTORE PUSH1 0x20 PUSH1 0x0 KECCAK256 SWAP1 PUSH1 0x4 MUL ADD PUSH1 0x0 SWAP2 POP SWAP1 POP DUP1 PUSH1 0x0 ADD PUSH1 0x0 SWAP1 SLOAD SWAP1 PUSH2 0x100 EXP SWAP1 DIV PUSH20 0xFFFFFFFFFFFFFFFFFFFFFFFFFFFFFFFFFFFFFFFF AND SWAP1 DUP1 PUSH1 0x1 ADD DUP1 SLOAD PUSH2 0x558 SWAP1 PUSH2 0x14E5 JUMP JUMPDEST DUP1 PUSH1 0x1F ADD PUSH1 0x20 DUP1 SWAP2 DIV MUL PUSH1 0x20 ADD PUSH1 0x40 MLOAD SWAP1 DUP2 ADD PUSH1 0x40 MSTORE DUP1 SWAP3 SWAP2 SWAP1 DUP2 DUP2 MSTORE PUSH1 0x20 ADD DUP3 DUP1 SLOAD PUSH2 0x584 SWAP1 PUSH2 0x14E5 JUMP JUMPDEST DUP1 ISZERO PUSH2 0x5D1 JUMPI DUP1 PUSH1 0x1F LT PUSH2 0x5A6 JUMPI PUSH2 0x100 DUP1 DUP4 SLOAD DIV MUL DUP4 MSTORE SWAP2 PUSH1 0x20 ADD SWAP2 PUSH2 0x5D1 JUMP JUMPDEST DUP3 ADD SWAP2 SWAP1 PUSH1 0x0 MSTORE PUSH1 0x20 PUSH1 0x0 KECCAK256 SWAP1 JUMPDEST DUP2 SLOAD DUP2 MSTORE SWAP1 PUSH1 0x1 ADD SWAP1 PUSH1 0x20 ADD DUP1 DUP4 GT PUSH2 0x5B4 JUMPI DUP3 SWAP1 SUB PUSH1 0x1F AND DUP3 ADD SWAP2 JUMPDEST POP POP POP POP POP SWAP1 DUP1 PUSH1 0x2 ADD SLOAD SWAP1 DUP1 PUSH1 0x3 ADD PUSH1 0x0 SWAP1 SLOAD SWAP1 PUSH2 0x100 EXP SWAP1 DIV PUSH1 0xFF AND SWAP1 POP DUP5 JUMP JUMPDEST PUSH1 0x0 DUP1 PUSH2 0x600 DUP4 PUSH2 0x6F1 JUMP JUMPDEST SWAP1 POP DUP1 PUSH1 0x60 ADD MLOAD SWAP2 POP POP SWAP2 SWAP1 POP JUMP JUMPDEST PUSH1 0x0 PUSH20 0x0 PUSH4 0x46BDCA9A PUSH1 0x2 PUSH1 0x0 DUP6 PUSH20 0xFFFFFFFFFFFFFFFFFFFFFFFFFFFFFFFFFFFFFFFF AND PUSH20 0xFFFFFFFFFFFFFFFFFFFFFFFFFFFFFFFFFFFFFFFF AND DUP2 MSTORE PUSH1 0x20 ADD SWAP1 DUP2 MSTORE PUSH1 0x20 ADD PUSH1 0x0 KECCAK256 PUSH1 0x1 ADD PUSH1 0x40 MLOAD DUP3 PUSH4 0xFFFFFFFF AND PUSH1 0xE0 SHL DUP2 MSTORE PUSH1 0x4 ADD PUSH2 0x689 SWAP2 SWAP1 PUSH2 0x12AA JUMP JUMPDEST PUSH1 0x20 PUSH1 0x40 MLOAD DUP1 DUP4 SUB DUP2 DUP7 DUP1 EXTCODESIZE ISZERO DUP1 ISZERO PUSH2 0x6A1 JUMPI PUSH1 0x0 DUP1 REVERT JUMPDEST POP GAS DELEGATECALL ISZERO DUP1 ISZERO PUSH2 0x6B5 JUMPI RETURNDATASIZE PUSH1 0x0 DUP1 RETURNDATACOPY RETURNDATASIZE PUSH1 0x0 REVERT JUMPDEST POP POP POP POP PUSH1 0x40 MLOAD RETURNDATASIZE PUSH1 0x1F NOT PUSH1 0x1F DUP3 ADD AND DUP3 ADD DUP1 PUSH1 0x40 MSTORE POP DUP2 ADD SWAP1 PUSH2 0x6D9 SWAP2 SWAP1 PUSH2 0xFD1 JUMP JUMPDEST ISZERO PUSH2 0x6E7 JUMPI PUSH1 0x1 SWAP1 POP PUSH2 0x6EC JUMP JUMPDEST PUSH1 0x0 SWAP1 POP JUMPDEST SWAP2 SWAP1 POP JUMP JUMPDEST PUSH2 0x6F9 PUSH2 0xE00 JUMP JUMPDEST PUSH1 0x0 JUMPDEST PUSH1 0x1 DUP1 SLOAD SWAP1 POP DUP2 LT ISZERO PUSH2 0x914 JUMPI DUP3 PUSH20 0xFFFFFFFFFFFFFFFFFFFFFFFFFFFFFFFFFFFFFFFF AND PUSH1 0x1 DUP3 DUP2 SLOAD DUP2 LT PUSH2 0x734 JUMPI PUSH2 0x733 PUSH2 0x15EF JUMP JUMPDEST JUMPDEST SWAP1 PUSH1 0x0 MSTORE PUSH1 0x20 PUSH1 0x0 KECCAK256 SWAP1 PUSH1 0x4 MUL ADD PUSH1 0x0 ADD PUSH1 0x0 SWAP1 SLOAD SWAP1 PUSH2 0x100 EXP SWAP1 DIV PUSH20 0xFFFFFFFFFFFFFFFFFFFFFFFFFFFFFFFFFFFFFFFF AND PUSH20 0xFFFFFFFFFFFFFFFFFFFFFFFFFFFFFFFFFFFFFFFF AND EQ ISZERO PUSH2 0x901 JUMPI PUSH1 0x1 DUP1 DUP3 DUP2 SLOAD DUP2 LT PUSH2 0x797 JUMPI PUSH2 0x796 PUSH2 0x15EF JUMP JUMPDEST JUMPDEST SWAP1 PUSH1 0x0 MSTORE PUSH1 0x20 PUSH1 0x0 KECCAK256 SWAP1 PUSH1 0x4 MUL ADD PUSH1 0x3 ADD PUSH1 0x0 PUSH2 0x100 EXP DUP2 SLOAD DUP2 PUSH1 0xFF MUL NOT AND SWAP1 DUP4 ISZERO ISZERO MUL OR SWAP1 SSTORE POP PUSH1 0x1 DUP2 DUP2 SLOAD DUP2 LT PUSH2 0x7D3 JUMPI PUSH2 0x7D2 PUSH2 0x15EF JUMP JUMPDEST JUMPDEST SWAP1 PUSH1 0x0 MSTORE PUSH1 0x20 PUSH1 0x0 KECCAK256 SWAP1 PUSH1 0x4 MUL ADD PUSH1 0x40 MLOAD DUP1 PUSH1 0x80 ADD PUSH1 0x40 MSTORE SWAP1 DUP2 PUSH1 0x0 DUP3 ADD PUSH1 0x0 SWAP1 SLOAD SWAP1 PUSH2 0x100 EXP SWAP1 DIV PUSH20 0xFFFFFFFFFFFFFFFFFFFFFFFFFFFFFFFFFFFFFFFF AND PUSH20 0xFFFFFFFFFFFFFFFFFFFFFFFFFFFFFFFFFFFFFFFF AND PUSH20 0xFFFFFFFFFFFFFFFFFFFFFFFFFFFFFFFFFFFFFFFF AND DUP2 MSTORE PUSH1 0x20 ADD PUSH1 0x1 DUP3 ADD DUP1 SLOAD PUSH2 0x852 SWAP1 PUSH2 0x14E5 JUMP JUMPDEST DUP1 PUSH1 0x1F ADD PUSH1 0x20 DUP1 SWAP2 DIV MUL PUSH1 0x20 ADD PUSH1 0x40 MLOAD SWAP1 DUP2 ADD PUSH1 0x40 MSTORE DUP1 SWAP3 SWAP2 SWAP1 DUP2 DUP2 MSTORE PUSH1 0x20 ADD DUP3 DUP1 SLOAD PUSH2 0x87E SWAP1 PUSH2 0x14E5 JUMP JUMPDEST DUP1 ISZERO PUSH2 0x8CB JUMPI DUP1 PUSH1 0x1F LT PUSH2 0x8A0 JUMPI PUSH2 0x100 DUP1 DUP4 SLOAD DIV MUL DUP4 MSTORE SWAP2 PUSH1 0x20 ADD SWAP2 PUSH2 0x8CB JUMP JUMPDEST DUP3 ADD SWAP2 SWAP1 PUSH1 0x0 MSTORE PUSH1 0x20 PUSH1 0x0 KECCAK256 SWAP1 JUMPDEST DUP2 SLOAD DUP2 MSTORE SWAP1 PUSH1 0x1 ADD SWAP1 PUSH1 0x20 ADD DUP1 DUP4 GT PUSH2 0x8AE JUMPI DUP3 SWAP1 SUB PUSH1 0x1F AND DUP3 ADD SWAP2 JUMPDEST POP POP POP POP POP DUP2 MSTORE PUSH1 0x20 ADD PUSH1 0x2 DUP3 ADD SLOAD DUP2 MSTORE PUSH1 0x20 ADD PUSH1 0x3 DUP3 ADD PUSH1 0x0 SWAP1 SLOAD SWAP1 PUSH2 0x100 EXP SWAP1 DIV PUSH1 0xFF AND ISZERO ISZERO ISZERO ISZERO DUP2 MSTORE POP POP SWAP2 POP POP PUSH2 0x950 JUMP JUMPDEST DUP1 DUP1 PUSH2 0x90C SWAP1 PUSH2 0x1548 JUMP JUMPDEST SWAP2 POP POP PUSH2 0x6FC JUMP JUMPDEST POP PUSH1 0x40 MLOAD PUSH32 0x8C379A000000000000000000000000000000000000000000000000000000000 DUP2 MSTORE PUSH1 0x4 ADD PUSH2 0x947 SWAP1 PUSH2 0x12DF JUMP JUMPDEST PUSH1 0x40 MLOAD DUP1 SWAP2 SUB SWAP1 REVERT JUMPDEST SWAP2 SWAP1 POP JUMP JUMPDEST PUSH1 0x2 PUSH1 0x20 MSTORE DUP1 PUSH1 0x0 MSTORE PUSH1 0x40 PUSH1 0x0 KECCAK256 PUSH1 0x0 SWAP2 POP SWAP1 POP DUP1 PUSH1 0x0 ADD PUSH1 0x0 SWAP1 SLOAD SWAP1 PUSH2 0x100 EXP SWAP1 DIV PUSH20 0xFFFFFFFFFFFFFFFFFFFFFFFFFFFFFFFFFFFFFFFF AND SWAP1 DUP1 PUSH1 0x1 ADD DUP1 SLOAD PUSH2 0x99E SWAP1 PUSH2 0x14E5 JUMP JUMPDEST DUP1 PUSH1 0x1F ADD PUSH1 0x20 DUP1 SWAP2 DIV MUL PUSH1 0x20 ADD PUSH1 0x40 MLOAD SWAP1 DUP2 ADD PUSH1 0x40 MSTORE DUP1 SWAP3 SWAP2 SWAP1 DUP2 DUP2 MSTORE PUSH1 0x20 ADD DUP3 DUP1 SLOAD PUSH2 0x9CA SWAP1 PUSH2 0x14E5 JUMP JUMPDEST DUP1 ISZERO PUSH2 0xA17 JUMPI DUP1 PUSH1 0x1F LT PUSH2 0x9EC JUMPI PUSH2 0x100 DUP1 DUP4 SLOAD DIV MUL DUP4 MSTORE SWAP2 PUSH1 0x20 ADD SWAP2 PUSH2 0xA17 JUMP JUMPDEST DUP3 ADD SWAP2 SWAP1 PUSH1 0x0 MSTORE PUSH1 0x20 PUSH1 0x0 KECCAK256 SWAP1 JUMPDEST DUP2 SLOAD DUP2 MSTORE SWAP1 PUSH1 0x1 ADD SWAP1 PUSH1 0x20 ADD DUP1 DUP4 GT PUSH2 0x9FA JUMPI DUP3 SWAP1 SUB PUSH1 0x1F AND DUP3 ADD SWAP2 JUMPDEST POP POP POP POP POP SWAP1 DUP1 PUSH1 0x2 ADD SLOAD SWAP1 DUP1 PUSH1 0x3 ADD PUSH1 0x0 SWAP1 SLOAD SWAP1 PUSH2 0x100 EXP SWAP1 DIV PUSH1 0xFF AND SWAP1 POP DUP5 JUMP JUMPDEST PUSH1 0x0 DUP1 PUSH1 0x0 SWAP1 POP JUMPDEST PUSH1 0x1 DUP1 SLOAD SWAP1 POP DUP2 LT ISZERO PUSH2 0xB09 JUMPI DUP3 PUSH20 0xFFFFFFFFFFFFFFFFFFFFFFFFFFFFFFFFFFFFFFFF AND PUSH1 0x1 DUP3 DUP2 SLOAD DUP2 LT PUSH2 0xA7A JUMPI PUSH2 0xA79 PUSH2 0x15EF JUMP JUMPDEST JUMPDEST SWAP1 PUSH1 0x0 MSTORE PUSH1 0x20 PUSH1 0x0 KECCAK256 SWAP1 PUSH1 0x4 MUL ADD PUSH1 0x0 ADD PUSH1 0x0 SWAP1 SLOAD SWAP1 PUSH2 0x100 EXP SWAP1 DIV PUSH20 0xFFFFFFFFFFFFFFFFFFFFFFFFFFFFFFFFFFFFFFFF AND PUSH20 0xFFFFFFFFFFFFFFFFFFFFFFFFFFFFFFFFFFFFFFFF AND EQ ISZERO PUSH2 0xAF6 JUMPI PUSH1 0x1 DUP2 DUP2 SLOAD DUP2 LT PUSH2 0xADC JUMPI PUSH2 0xADB PUSH2 0x15EF JUMP JUMPDEST JUMPDEST SWAP1 PUSH1 0x0 MSTORE PUSH1 0x20 PUSH1 0x0 KECCAK256 SWAP1 PUSH1 0x4 MUL ADD PUSH1 0x2 ADD SLOAD SWAP2 POP POP PUSH2 0xB10 JUMP JUMPDEST DUP1 DUP1 PUSH2 0xB01 SWAP1 PUSH2 0x1548 JUMP JUMPDEST SWAP2 POP POP PUSH2 0xA42 JUMP JUMPDEST POP PUSH2 0x3E7 SWAP1 POP JUMPDEST SWAP2 SWAP1 POP JUMP JUMPDEST PUSH1 0x0 DUP1 SLOAD SWAP1 PUSH2 0x100 EXP SWAP1 DIV PUSH20 0xFFFFFFFFFFFFFFFFFFFFFFFFFFFFFFFFFFFFFFFF AND PUSH20 0xFFFFFFFFFFFFFFFFFFFFFFFFFFFFFFFFFFFFFFFF AND CALLER PUSH20 0xFFFFFFFFFFFFFFFFFFFFFFFFFFFFFFFFFFFFFFFF AND EQ PUSH2 0xBA3 JUMPI PUSH1 0x40 MLOAD PUSH32 0x8C379A000000000000000000000000000000000000000000000000000000000 DUP2 MSTORE PUSH1 0x4 ADD PUSH2 0xB9A SWAP1 PUSH2 0x12FF JUMP JUMPDEST PUSH1 0x40 MLOAD DUP1 SWAP2 SUB SWAP1 REVERT JUMPDEST PUSH1 0x0 PUSH2 0xBAE DUP3 PUSH2 0x6F1 JUMP JUMPDEST SWAP1 POP PUSH2 0xBBD DUP2 PUSH1 0x0 ADD MLOAD PUSH2 0x2B5 JUMP JUMPDEST ISZERO PUSH2 0xC98 JUMPI DUP1 PUSH1 0x2 PUSH1 0x0 DUP5 PUSH20 0xFFFFFFFFFFFFFFFFFFFFFFFFFFFFFFFFFFFFFFFF AND PUSH20 0xFFFFFFFFFFFFFFFFFFFFFFFFFFFFFFFFFFFFFFFF AND DUP2 MSTORE PUSH1 0x20 ADD SWAP1 DUP2 MSTORE PUSH1 0x20 ADD PUSH1 0x0 KECCAK256 PUSH1 0x0 DUP3 ADD MLOAD DUP2 PUSH1 0x0 ADD PUSH1 0x0 PUSH2 0x100 EXP DUP2 SLOAD DUP2 PUSH20 0xFFFFFFFFFFFFFFFFFFFFFFFFFFFFFFFFFFFFFFFF MUL NOT AND SWAP1 DUP4 PUSH20 0xFFFFFFFFFFFFFFFFFFFFFFFFFFFFFFFFFFFFFFFF AND MUL OR SWAP1 SSTORE POP PUSH1 0x20 DUP3 ADD MLOAD DUP2 PUSH1 0x1 ADD SWAP1 DUP1 MLOAD SWAP1 PUSH1 0x20 ADD SWAP1 PUSH2 0xC65 SWAP3 SWAP2 SWAP1 PUSH2 0xD7A JUMP JUMPDEST POP PUSH1 0x40 DUP3 ADD MLOAD DUP2 PUSH1 0x2 ADD SSTORE PUSH1 0x60 DUP3 ADD MLOAD DUP2 PUSH1 0x3 ADD PUSH1 0x0 PUSH2 0x100 EXP DUP2 SLOAD DUP2 PUSH1 0xFF MUL NOT AND SWAP1 DUP4 ISZERO ISZERO MUL OR SWAP1 SSTORE POP SWAP1 POP POP PUSH2 0xC99 JUMP JUMPDEST JUMPDEST POP POP JUMP JUMPDEST PUSH1 0x0 JUMPDEST PUSH1 0x1 DUP1 SLOAD SWAP1 POP DUP2 LT ISZERO PUSH2 0xD76 JUMPI DUP2 PUSH20 0xFFFFFFFFFFFFFFFFFFFFFFFFFFFFFFFFFFFFFFFF AND PUSH1 0x1 DUP3 DUP2 SLOAD DUP2 LT PUSH2 0xCD8 JUMPI PUSH2 0xCD7 PUSH2 0x15EF JUMP JUMPDEST JUMPDEST SWAP1 PUSH1 0x0 MSTORE PUSH1 0x20 PUSH1 0x0 KECCAK256 SWAP1 PUSH1 0x4 MUL ADD PUSH1 0x0 ADD PUSH1 0x0 SWAP1 SLOAD SWAP1 PUSH2 0x100 EXP SWAP1 DIV PUSH20 0xFFFFFFFFFFFFFFFFFFFFFFFFFFFFFFFFFFFFFFFF AND PUSH20 0xFFFFFFFFFFFFFFFFFFFFFFFFFFFFFFFFFFFFFFFF AND EQ ISZERO PUSH2 0xD63 JUMPI CALLVALUE PUSH1 0x1 DUP3 DUP2 SLOAD DUP2 LT PUSH2 0xD3B JUMPI PUSH2 0xD3A PUSH2 0x15EF JUMP JUMPDEST JUMPDEST SWAP1 PUSH1 0x0 MSTORE PUSH1 0x20 PUSH1 0x0 KECCAK256 SWAP1 PUSH1 0x4 MUL ADD PUSH1 0x2 ADD PUSH1 0x0 DUP3 DUP3 SLOAD PUSH2 0xD5B SWAP2 SWAP1 PUSH2 0x1405 JUMP JUMPDEST SWAP3 POP POP DUP2 SWAP1 SSTORE POP JUMPDEST DUP1 DUP1 PUSH2 0xD6E SWAP1 PUSH2 0x1548 JUMP JUMPDEST SWAP2 POP POP PUSH2 0xCA0 JUMP JUMPDEST POP POP JUMP JUMPDEST DUP3 DUP1 SLOAD PUSH2 0xD86 SWAP1 PUSH2 0x14E5 JUMP JUMPDEST SWAP1 PUSH1 0x0 MSTORE PUSH1 0x20 PUSH1 0x0 KECCAK256 SWAP1 PUSH1 0x1F ADD PUSH1 0x20 SWAP1 DIV DUP2 ADD SWAP3 DUP3 PUSH2 0xDA8 JUMPI PUSH1 0x0 DUP6 SSTORE PUSH2 0xDEF JUMP JUMPDEST DUP3 PUSH1 0x1F LT PUSH2 0xDC1 JUMPI DUP1 MLOAD PUSH1 0xFF NOT AND DUP4 DUP1 ADD OR DUP6 SSTORE PUSH2 0xDEF JUMP JUMPDEST DUP3 DUP1 ADD PUSH1 0x1 ADD DUP6 SSTORE DUP3 ISZERO PUSH2 0xDEF JUMPI SWAP2 DUP3 ADD JUMPDEST DUP3 DUP2 GT ISZERO PUSH2 0xDEE JUMPI DUP3 MLOAD DUP3 SSTORE SWAP2 PUSH1 0x20 ADD SWAP2 SWAP1 PUSH1 0x1 ADD SWAP1 PUSH2 0xDD3 JUMP JUMPDEST JUMPDEST POP SWAP1 POP PUSH2 0xDFC SWAP2 SWAP1 PUSH2 0xE40 JUMP JUMPDEST POP SWAP1 JUMP JUMPDEST PUSH1 0x40 MLOAD DUP1 PUSH1 0x80 ADD PUSH1 0x40 MSTORE DUP1 PUSH1 0x0 PUSH20 0xFFFFFFFFFFFFFFFFFFFFFFFFFFFFFFFFFFFFFFFF AND DUP2 MSTORE PUSH1 0x20 ADD PUSH1 0x60 DUP2 MSTORE PUSH1 0x20 ADD PUSH1 0x0 DUP2 MSTORE PUSH1 0x20 ADD PUSH1 0x0 ISZERO ISZERO DUP2 MSTORE POP SWAP1 JUMP JUMPDEST JUMPDEST DUP1 DUP3 GT ISZERO PUSH2 0xE59 JUMPI PUSH1 0x0 DUP2 PUSH1 0x0 SWAP1 SSTORE POP PUSH1 0x1 ADD PUSH2 0xE41 JUMP JUMPDEST POP SWAP1 JUMP JUMPDEST PUSH1 0x0 PUSH2 0xE70 PUSH2 0xE6B DUP5 PUSH2 0x1381 JUMP JUMPDEST PUSH2 0x135C JUMP JUMPDEST SWAP1 POP DUP3 DUP2 MSTORE PUSH1 0x20 DUP2 ADD DUP5 DUP5 DUP5 ADD GT ISZERO PUSH2 0xE8C JUMPI PUSH2 0xE8B PUSH2 0x1652 JUMP JUMPDEST JUMPDEST PUSH2 0xE97 DUP5 DUP3 DUP6 PUSH2 0x14A3 JUMP JUMPDEST POP SWAP4 SWAP3 POP POP POP JUMP JUMPDEST PUSH1 0x0 DUP2 CALLDATALOAD SWAP1 POP PUSH2 0xEAE DUP2 PUSH2 0x16C7 JUMP JUMPDEST SWAP3 SWAP2 POP POP JUMP JUMPDEST PUSH1 0x0 DUP2 CALLDATALOAD SWAP1 POP PUSH2 0xEC3 DUP2 PUSH2 0x16DE JUMP JUMPDEST SWAP3 SWAP2 POP POP JUMP JUMPDEST PUSH1 0x0 DUP2 MLOAD SWAP1 POP PUSH2 0xED8 DUP2 PUSH2 0x16DE JUMP JUMPDEST SWAP3 SWAP2 POP POP JUMP JUMPDEST PUSH1 0x0 DUP3 PUSH1 0x1F DUP4 ADD SLT PUSH2 0xEF3 JUMPI PUSH2 0xEF2 PUSH2 0x164D JUMP JUMPDEST JUMPDEST DUP2 CALLDATALOAD PUSH2 0xF03 DUP5 DUP3 PUSH1 0x20 DUP7 ADD PUSH2 0xE5D JUMP JUMPDEST SWAP2 POP POP SWAP3 SWAP2 POP POP JUMP JUMPDEST PUSH1 0x0 DUP2 CALLDATALOAD SWAP1 POP PUSH2 0xF1B DUP2 PUSH2 0x16F5 JUMP JUMPDEST SWAP3 SWAP2 POP POP JUMP JUMPDEST PUSH1 0x0 PUSH1 0x20 DUP3 DUP5 SUB SLT ISZERO PUSH2 0xF37 JUMPI PUSH2 0xF36 PUSH2 0x165C JUMP JUMPDEST JUMPDEST PUSH1 0x0 PUSH2 0xF45 DUP5 DUP3 DUP6 ADD PUSH2 0xE9F JUMP JUMPDEST SWAP2 POP POP SWAP3 SWAP2 POP POP JUMP JUMPDEST PUSH1 0x0 DUP1 PUSH1 0x0 DUP1 PUSH1 0x80 DUP6 DUP8 SUB SLT ISZERO PUSH2 0xF68 JUMPI PUSH2 0xF67 PUSH2 0x165C JUMP JUMPDEST JUMPDEST PUSH1 0x0 PUSH2 0xF76 DUP8 DUP3 DUP9 ADD PUSH2 0xE9F JUMP JUMPDEST SWAP5 POP POP PUSH1 0x20 DUP6 ADD CALLDATALOAD PUSH8 0xFFFFFFFFFFFFFFFF DUP2 GT ISZERO PUSH2 0xF97 JUMPI PUSH2 0xF96 PUSH2 0x1657 JUMP JUMPDEST JUMPDEST PUSH2 0xFA3 DUP8 DUP3 DUP9 ADD PUSH2 0xEDE JUMP JUMPDEST SWAP4 POP POP PUSH1 0x40 PUSH2 0xFB4 DUP8 DUP3 DUP9 ADD PUSH2 0xF0C JUMP JUMPDEST SWAP3 POP POP PUSH1 0x60 PUSH2 0xFC5 DUP8 DUP3 DUP9 ADD PUSH2 0xEB4 JUMP JUMPDEST SWAP2 POP POP SWAP3 SWAP6 SWAP2 SWAP5 POP SWAP3 POP JUMP JUMPDEST PUSH1 0x0 PUSH1 0x20 DUP3 DUP5 SUB SLT ISZERO PUSH2 0xFE7 JUMPI PUSH2 0xFE6 PUSH2 0x165C JUMP JUMPDEST JUMPDEST PUSH1 0x0 PUSH2 0xFF5 DUP5 DUP3 DUP6 ADD PUSH2 0xEC9 JUMP JUMPDEST SWAP2 POP POP SWAP3 SWAP2 POP POP JUMP JUMPDEST PUSH1 0x0 PUSH1 0x20 DUP3 DUP5 SUB SLT ISZERO PUSH2 0x1014 JUMPI PUSH2 0x1013 PUSH2 0x165C JUMP JUMPDEST JUMPDEST PUSH1 0x0 PUSH2 0x1022 DUP5 DUP3 DUP6 ADD PUSH2 0xF0C JUMP JUMPDEST SWAP2 POP POP SWAP3 SWAP2 POP POP JUMP JUMPDEST PUSH2 0x1034 DUP2 PUSH2 0x145B JUMP JUMPDEST DUP3 MSTORE POP POP JUMP JUMPDEST PUSH2 0x1043 DUP2 PUSH2 0x145B JUMP JUMPDEST DUP3 MSTORE POP POP JUMP JUMPDEST PUSH2 0x1052 DUP2 PUSH2 0x146D JUMP JUMPDEST DUP3 MSTORE POP POP JUMP JUMPDEST PUSH2 0x1061 DUP2 PUSH2 0x146D JUMP JUMPDEST DUP3 MSTORE POP POP JUMP JUMPDEST PUSH1 0x0 PUSH2 0x1072 DUP3 PUSH2 0x13C7 JUMP JUMPDEST PUSH2 0x107C DUP2 DUP6 PUSH2 0x13D2 JUMP JUMPDEST SWAP4 POP PUSH2 0x108C DUP2 DUP6 PUSH1 0x20 DUP7 ADD PUSH2 0x14B2 JUMP JUMPDEST PUSH2 0x1095 DUP2 PUSH2 0x1661 JUMP JUMPDEST DUP5 ADD SWAP2 POP POP SWAP3 SWAP2 POP POP JUMP JUMPDEST PUSH1 0x0 PUSH2 0x10AB DUP3 PUSH2 0x13C7 JUMP JUMPDEST PUSH2 0x10B5 DUP2 DUP6 PUSH2 0x13E3 JUMP JUMPDEST SWAP4 POP PUSH2 0x10C5 DUP2 DUP6 PUSH1 0x20 DUP7 ADD PUSH2 0x14B2 JUMP JUMPDEST PUSH2 0x10CE DUP2 PUSH2 0x1661 JUMP JUMPDEST DUP5 ADD SWAP2 POP POP SWAP3 SWAP2 POP POP JUMP JUMPDEST PUSH1 0x0 DUP2 SLOAD PUSH2 0x10E6 DUP2 PUSH2 0x14E5 JUMP JUMPDEST PUSH2 0x10F0 DUP2 DUP7 PUSH2 0x13F4 JUMP JUMPDEST SWAP5 POP PUSH1 0x1 DUP3 AND PUSH1 0x0 DUP2 EQ PUSH2 0x110B JUMPI PUSH1 0x1 DUP2 EQ PUSH2 0x111D JUMPI PUSH2 0x1150 JUMP JUMPDEST PUSH1 0xFF NOT DUP4 AND DUP7 MSTORE PUSH1 0x20 DUP7 ADD SWAP4 POP PUSH2 0x1150 JUMP JUMPDEST PUSH2 0x1126 DUP6 PUSH2 0x13B2 JUMP JUMPDEST PUSH1 0x0 JUMPDEST DUP4 DUP2 LT ISZERO PUSH2 0x1148 JUMPI DUP2 SLOAD DUP2 DUP10 ADD MSTORE PUSH1 0x1 DUP3 ADD SWAP2 POP PUSH1 0x20 DUP2 ADD SWAP1 POP PUSH2 0x1129 JUMP JUMPDEST DUP1 DUP9 ADD SWAP6 POP POP POP JUMPDEST POP POP POP SWAP3 SWAP2 POP POP JUMP JUMPDEST PUSH1 0x0 PUSH2 0x1166 PUSH1 0x16 DUP4 PUSH2 0x13E3 JUMP JUMPDEST SWAP2 POP PUSH2 0x1171 DUP3 PUSH2 0x1672 JUMP JUMPDEST PUSH1 0x20 DUP3 ADD SWAP1 POP SWAP2 SWAP1 POP JUMP JUMPDEST PUSH1 0x0 PUSH2 0x1189 PUSH1 0x15 DUP4 PUSH2 0x13E3 JUMP JUMPDEST SWAP2 POP PUSH2 0x1194 DUP3 PUSH2 0x169B JUMP JUMPDEST PUSH1 0x20 DUP3 ADD SWAP1 POP SWAP2 SWAP1 POP JUMP JUMPDEST PUSH1 0x0 PUSH2 0x11AC PUSH1 0x0 DUP4 PUSH2 0x13F4 JUMP JUMPDEST SWAP2 POP PUSH2 0x11B7 DUP3 PUSH2 0x16C4 JUMP JUMPDEST PUSH1 0x0 DUP3 ADD SWAP1 POP SWAP2 SWAP1 POP JUMP JUMPDEST PUSH1 0x0 PUSH1 0x80 DUP4 ADD PUSH1 0x0 DUP4 ADD MLOAD PUSH2 0x11DA PUSH1 0x0 DUP7 ADD DUP3 PUSH2 0x102B JUMP JUMPDEST POP PUSH1 0x20 DUP4 ADD MLOAD DUP5 DUP3 SUB PUSH1 0x20 DUP7 ADD MSTORE PUSH2 0x11F2 DUP3 DUP3 PUSH2 0x1067 JUMP JUMPDEST SWAP2 POP POP PUSH1 0x40 DUP4 ADD MLOAD PUSH2 0x1207 PUSH1 0x40 DUP7 ADD DUP3 PUSH2 0x1225 JUMP JUMPDEST POP PUSH1 0x60 DUP4 ADD MLOAD PUSH2 0x121A PUSH1 0x60 DUP7 ADD DUP3 PUSH2 0x1049 JUMP JUMPDEST POP DUP1 SWAP2 POP POP SWAP3 SWAP2 POP POP JUMP JUMPDEST PUSH2 0x122E DUP2 PUSH2 0x1499 JUMP JUMPDEST DUP3 MSTORE POP POP JUMP JUMPDEST PUSH2 0x123D DUP2 PUSH2 0x1499 JUMP JUMPDEST DUP3 MSTORE POP POP JUMP JUMPDEST PUSH1 0x0 PUSH1 0x80 DUP3 ADD SWAP1 POP PUSH2 0x1258 PUSH1 0x0 DUP4 ADD DUP8 PUSH2 0x103A JUMP JUMPDEST DUP2 DUP2 SUB PUSH1 0x20 DUP4 ADD MSTORE PUSH2 0x126A DUP2 DUP7 PUSH2 0x10A0 JUMP JUMPDEST SWAP1 POP PUSH2 0x1279 PUSH1 0x40 DUP4 ADD DUP6 PUSH2 0x1234 JUMP JUMPDEST PUSH2 0x1286 PUSH1 0x60 DUP4 ADD DUP5 PUSH2 0x1058 JUMP JUMPDEST SWAP6 SWAP5 POP POP POP POP POP JUMP JUMPDEST PUSH1 0x0 PUSH1 0x20 DUP3 ADD SWAP1 POP PUSH2 0x12A4 PUSH1 0x0 DUP4 ADD DUP5 PUSH2 0x1058 JUMP JUMPDEST SWAP3 SWAP2 POP POP JUMP JUMPDEST PUSH1 0x0 PUSH1 0x40 DUP3 ADD SWAP1 POP DUP2 DUP2 SUB PUSH1 0x0 DUP4 ADD MSTORE PUSH2 0x12C4 DUP2 DUP5 PUSH2 0x10D9 JUMP JUMPDEST SWAP1 POP DUP2 DUP2 SUB PUSH1 0x20 DUP4 ADD MSTORE PUSH2 0x12D7 DUP2 PUSH2 0x119F JUMP JUMPDEST SWAP1 POP SWAP3 SWAP2 POP POP JUMP JUMPDEST PUSH1 0x0 PUSH1 0x20 DUP3 ADD SWAP1 POP DUP2 DUP2 SUB PUSH1 0x0 DUP4 ADD MSTORE PUSH2 0x12F8 DUP2 PUSH2 0x1159 JUMP JUMPDEST SWAP1 POP SWAP2 SWAP1 POP JUMP JUMPDEST PUSH1 0x0 PUSH1 0x20 DUP3 ADD SWAP1 POP DUP2 DUP2 SUB PUSH1 0x0 DUP4 ADD MSTORE PUSH2 0x1318 DUP2 PUSH2 0x117C JUMP JUMPDEST SWAP1 POP SWAP2 SWAP1 POP JUMP JUMPDEST PUSH1 0x0 PUSH1 0x20 DUP3 ADD SWAP1 POP DUP2 DUP2 SUB PUSH1 0x0 DUP4 ADD MSTORE PUSH2 0x1339 DUP2 DUP5 PUSH2 0x11C2 JUMP JUMPDEST SWAP1 POP SWAP3 SWAP2 POP POP JUMP JUMPDEST PUSH1 0x0 PUSH1 0x20 DUP3 ADD SWAP1 POP PUSH2 0x1356 PUSH1 0x0 DUP4 ADD DUP5 PUSH2 0x1234 JUMP JUMPDEST SWAP3 SWAP2 POP POP JUMP JUMPDEST PUSH1 0x0 PUSH2 0x1366 PUSH2 0x1377 JUMP JUMPDEST SWAP1 POP PUSH2 0x1372 DUP3 DUP3 PUSH2 0x1517 JUMP JUMPDEST SWAP2 SWAP1 POP JUMP JUMPDEST PUSH1 0x0 PUSH1 0x40 MLOAD SWAP1 POP SWAP1 JUMP JUMPDEST PUSH1 0x0 PUSH8 0xFFFFFFFFFFFFFFFF DUP3 GT ISZERO PUSH2 0x139C JUMPI PUSH2 0x139B PUSH2 0x161E JUMP JUMPDEST JUMPDEST PUSH2 0x13A5 DUP3 PUSH2 0x1661 JUMP JUMPDEST SWAP1 POP PUSH1 0x20 DUP2 ADD SWAP1 POP SWAP2 SWAP1 POP JUMP JUMPDEST PUSH1 0x0 DUP2 SWAP1 POP DUP2 PUSH1 0x0 MSTORE PUSH1 0x20 PUSH1 0x0 KECCAK256 SWAP1 POP SWAP2 SWAP1 POP JUMP JUMPDEST PUSH1 0x0 DUP2 MLOAD SWAP1 POP SWAP2 SWAP1 POP JUMP JUMPDEST PUSH1 0x0 DUP3 DUP3 MSTORE PUSH1 0x20 DUP3 ADD SWAP1 POP SWAP3 SWAP2 POP POP JUMP JUMPDEST PUSH1 0x0 DUP3 DUP3 MSTORE PUSH1 0x20 DUP3 ADD SWAP1 POP SWAP3 SWAP2 POP POP JUMP JUMPDEST PUSH1 0x0 DUP3 DUP3 MSTORE PUSH1 0x20 DUP3 ADD SWAP1 POP SWAP3 SWAP2 POP POP JUMP JUMPDEST PUSH1 0x0 PUSH2 0x1410 DUP3 PUSH2 0x1499 JUMP JUMPDEST SWAP2 POP PUSH2 0x141B DUP4 PUSH2 0x1499 JUMP JUMPDEST SWAP3 POP DUP3 PUSH32 0xFFFFFFFFFFFFFFFFFFFFFFFFFFFFFFFFFFFFFFFFFFFFFFFFFFFFFFFFFFFFFFFF SUB DUP3 GT ISZERO PUSH2 0x1450 JUMPI PUSH2 0x144F PUSH2 0x1591 JUMP JUMPDEST JUMPDEST DUP3 DUP3 ADD SWAP1 POP SWAP3 SWAP2 POP POP JUMP JUMPDEST PUSH1 0x0 PUSH2 0x1466 DUP3 PUSH2 0x1479 JUMP JUMPDEST SWAP1 POP SWAP2 SWAP1 POP JUMP JUMPDEST PUSH1 0x0 DUP2 ISZERO ISZERO SWAP1 POP SWAP2 SWAP1 POP JUMP JUMPDEST PUSH1 0x0 PUSH20 0xFFFFFFFFFFFFFFFFFFFFFFFFFFFFFFFFFFFFFFFF DUP3 AND SWAP1 POP SWAP2 SWAP1 POP JUMP JUMPDEST PUSH1 0x0 DUP2 SWAP1 POP SWAP2 SWAP1 POP JUMP JUMPDEST DUP3 DUP2 DUP4 CALLDATACOPY PUSH1 0x0 DUP4 DUP4 ADD MSTORE POP POP POP JUMP JUMPDEST PUSH1 0x0 JUMPDEST DUP4 DUP2 LT ISZERO PUSH2 0x14D0 JUMPI DUP1 DUP3 ADD MLOAD DUP2 DUP5 ADD MSTORE PUSH1 0x20 DUP2 ADD SWAP1 POP PUSH2 0x14B5 JUMP JUMPDEST DUP4 DUP2 GT ISZERO PUSH2 0x14DF JUMPI PUSH1 0x0 DUP5 DUP5 ADD MSTORE JUMPDEST POP POP POP POP JUMP JUMPDEST PUSH1 0x0 PUSH1 0x2 DUP3 DIV SWAP1 POP PUSH1 0x1 DUP3 AND DUP1 PUSH2 0x14FD JUMPI PUSH1 0x7F DUP3 AND SWAP2 POP JUMPDEST PUSH1 0x20 DUP3 LT DUP2 EQ ISZERO PUSH2 0x1511 JUMPI PUSH2 0x1510 PUSH2 0x15C0 JUMP JUMPDEST JUMPDEST POP SWAP2 SWAP1 POP JUMP JUMPDEST PUSH2 0x1520 DUP3 PUSH2 0x1661 JUMP JUMPDEST DUP2 ADD DUP2 DUP2 LT PUSH8 0xFFFFFFFFFFFFFFFF DUP3 GT OR ISZERO PUSH2 0x153F JUMPI PUSH2 0x153E PUSH2 0x161E JUMP JUMPDEST JUMPDEST DUP1 PUSH1 0x40 MSTORE POP POP POP JUMP JUMPDEST PUSH1 0x0 PUSH2 0x1553 DUP3 PUSH2 0x1499 JUMP JUMPDEST SWAP2 POP PUSH32 0xFFFFFFFFFFFFFFFFFFFFFFFFFFFFFFFFFFFFFFFFFFFFFFFFFFFFFFFFFFFFFFFF DUP3 EQ ISZERO PUSH2 0x1586 JUMPI PUSH2 0x1585 PUSH2 0x1591 JUMP JUMPDEST JUMPDEST PUSH1 0x1 DUP3 ADD SWAP1 POP SWAP2 SWAP1 POP JUMP JUMPDEST PUSH32 0x4E487B7100000000000000000000000000000000000000000000000000000000 PUSH1 0x0 MSTORE PUSH1 0x11 PUSH1 0x4 MSTORE PUSH1 0x24 PUSH1 0x0 REVERT JUMPDEST PUSH32 0x4E487B7100000000000000000000000000000000000000000000000000000000 PUSH1 0x0 MSTORE PUSH1 0x22 PUSH1 0x4 MSTORE PUSH1 0x24 PUSH1 0x0 REVERT JUMPDEST PUSH32 0x4E487B7100000000000000000000000000000000000000000000000000000000 PUSH1 0x0 MSTORE PUSH1 0x32 PUSH1 0x4 MSTORE PUSH1 0x24 PUSH1 0x0 REVERT JUMPDEST PUSH32 0x4E487B7100000000000000000000000000000000000000000000000000000000 PUSH1 0x0 MSTORE PUSH1 0x41 PUSH1 0x4 MSTORE PUSH1 0x24 PUSH1 0x0 REVERT JUMPDEST PUSH1 0x0 DUP1 REVERT JUMPDEST PUSH1 0x0 DUP1 REVERT JUMPDEST PUSH1 0x0 DUP1 REVERT JUMPDEST PUSH1 0x0 DUP1 REVERT JUMPDEST PUSH1 0x0 PUSH1 0x1F NOT PUSH1 0x1F DUP4 ADD AND SWAP1 POP SWAP2 SWAP1 POP JUMP JUMPDEST PUSH32 0x496E76616C69642057616C6C6574204164647265737300000000000000000000 PUSH1 0x0 DUP3 ADD MSTORE POP JUMP JUMPDEST PUSH32 0x596F7520617265206E6F7420746865206F776E65720000000000000000000000 PUSH1 0x0 DUP3 ADD MSTORE POP JUMP JUMPDEST POP JUMP JUMPDEST PUSH2 0x16D0 DUP2 PUSH2 0x145B JUMP JUMPDEST DUP2 EQ PUSH2 0x16DB JUMPI PUSH1 0x0 DUP1 REVERT JUMPDEST POP JUMP JUMPDEST PUSH2 0x16E7 DUP2 PUSH2 0x146D JUMP JUMPDEST DUP2 EQ PUSH2 0x16F2 JUMPI PUSH1 0x0 DUP1 REVERT JUMPDEST POP JUMP JUMPDEST PUSH2 0x16FE DUP2 PUSH2 0x1499 JUMP JUMPDEST DUP2 EQ PUSH2 0x1709 JUMPI PUSH1 0x0 DUP1 REVERT JUMPDEST POP JUMP INVALID LOG2 PUSH5 0x6970667358 0x22 SLT KECCAK256 PUSH2 0x25CD 0x24 0x2C 0x1E 0xB7 0xF8 0x4D JUMP 0xBB SWAP8 0x4F 0xCD DUP7 SWAP15 0xD KECCAK256 NOT 0x22 LT EXP SWAP16 0xDA 0xC7 0xC6 BYTE 0xCE 0xFB 0xA5 0xC0 0xEE PUSH5 0x736F6C6343 STOP ADDMOD SMOD STOP CALLER "
				},
				"gasEstimates": {
					"creation": {
						"codeDepositCost": "1190800",
						"executionCost": "25507",
						"totalCost": "1216307"
					},
					"external": {
						"addToInvestors(address)": "infinite",
						"addUser(address,string,uint256,bool)": "infinite",
						"balanceOf(address)": "infinite",
						"getUserByAddress(address)": "infinite",
						"investorExists(address)": "infinite",
						"investorPermission(address)": "infinite",
						"investors(address)": "infinite",
						"transfer(address)": "infinite",
						"userExists(address)": "infinite",
						"users(uint256)": "infinite"
					},
					"internal": {
						"transferToAddress(address)": "infinite"
					}
				},
				"methodIdentifiers": {
					"addToInvestors(address)": "d7bed4bc",
					"addUser(address,string,uint256,bool)": "280879e7",
					"balanceOf(address)": "70a08231",
					"getUserByAddress(address)": "69c212f6",
					"investorExists(address)": "5b83b7f1",
					"investorPermission(address)": "4140eb0d",
					"investors(address)": "6f7bc9be",
					"transfer(address)": "1a695230",
					"userExists(address)": "0e666e49",
					"users(uint256)": "365b98b2"
				}
			},
			"storageLayout": {
				"storage": [
					{
						"astId": 242,
						"contract": "contracts/Test1.sol:Test1",
						"label": "owner",
						"offset": 0,
						"slot": "0",
						"type": "t_address"
					},
					{
						"astId": 276,
						"contract": "contracts/Test1.sol:Test1",
						"label": "users",
						"offset": 0,
						"slot": "1",
						"type": "t_array(t_struct(User)260_storage)dyn_storage"
					},
					{
						"astId": 281,
						"contract": "contracts/Test1.sol:Test1",
						"label": "investors",
						"offset": 0,
						"slot": "2",
						"type": "t_mapping(t_address,t_struct(User)260_storage)"
					}
				],
				"types": {
					"t_address": {
						"encoding": "inplace",
						"label": "address",
						"numberOfBytes": "20"
					},
					"t_array(t_struct(User)260_storage)dyn_storage": {
						"base": "t_struct(User)260_storage",
						"encoding": "dynamic_array",
						"label": "struct Test1.User[]",
						"numberOfBytes": "32"
					},
					"t_bool": {
						"encoding": "inplace",
						"label": "bool",
						"numberOfBytes": "1"
					},
					"t_mapping(t_address,t_struct(User)260_storage)": {
						"encoding": "mapping",
						"key": "t_address",
						"label": "mapping(address => struct Test1.User)",
						"numberOfBytes": "32",
						"value": "t_struct(User)260_storage"
					},
					"t_string_storage": {
						"encoding": "bytes",
						"label": "string",
						"numberOfBytes": "32"
					},
					"t_struct(User)260_storage": {
						"encoding": "inplace",
						"label": "struct Test1.User",
						"members": [
							{
								"astId": 253,
								"contract": "contracts/Test1.sol:Test1",
								"label": "walletAddress",
								"offset": 0,
								"slot": "0",
								"type": "t_address"
							},
							{
								"astId": 255,
								"contract": "contracts/Test1.sol:Test1",
								"label": "name",
								"offset": 0,
								"slot": "1",
								"type": "t_string_storage"
							},
							{
								"astId": 257,
								"contract": "contracts/Test1.sol:Test1",
								"label": "amount",
								"offset": 0,
								"slot": "2",
								"type": "t_uint256"
							},
							{
								"astId": 259,
								"contract": "contracts/Test1.sol:Test1",
								"label": "isInvestor",
								"offset": 0,
								"slot": "3",
								"type": "t_bool"
							}
						],
						"numberOfBytes": "128"
					},
					"t_uint256": {
						"encoding": "inplace",
						"label": "uint256",
						"numberOfBytes": "32"
					}
				}
			},
			"userdoc": {
				"kind": "user",
				"methods": {},
				"version": 1
			}
		}
	}
}