{
	"contracts/Test1.sol": {
		"Test1": {
			"abi": [
				{
					"inputs": [],
					"stateMutability": "nonpayable",
					"type": "constructor"
				},
				{
					"inputs": [
						{
							"internalType": "address",
							"name": "walletAddress",
							"type": "address"
						},
						{
							"internalType": "uint256",
							"name": "amount",
							"type": "uint256"
						}
					],
					"name": "addToInvestors",
					"outputs": [],
					"stateMutability": "nonpayable",
					"type": "function"
				},
				{
					"inputs": [
						{
							"internalType": "address",
							"name": "walletAddress",
							"type": "address"
						},
						{
							"internalType": "string",
							"name": "name",
							"type": "string"
						},
						{
							"internalType": "uint256",
							"name": "amount",
							"type": "uint256"
						},
						{
							"internalType": "bool",
							"name": "isInvestor",
							"type": "bool"
						}
					],
					"name": "addUser",
					"outputs": [],
					"stateMutability": "nonpayable",
					"type": "function"
				},
				{
					"inputs": [
						{
							"internalType": "address",
							"name": "walletAddress",
							"type": "address"
						}
					],
					"name": "balanceOf",
					"outputs": [
						{
							"internalType": "uint256",
							"name": "",
							"type": "uint256"
						}
					],
					"stateMutability": "view",
					"type": "function"
				},
				{
					"inputs": [
						{
							"internalType": "address",
							"name": "walletAddress",
							"type": "address"
						}
					],
					"name": "getUserByAddress",
					"outputs": [
						{
							"components": [
								{
									"internalType": "address",
									"name": "walletAddress",
									"type": "address"
								},
								{
									"internalType": "string",
									"name": "name",
									"type": "string"
								},
								{
									"internalType": "uint256",
									"name": "amount",
									"type": "uint256"
								},
								{
									"internalType": "bool",
									"name": "isInvestor",
									"type": "bool"
								}
							],
							"internalType": "struct Test1.User",
							"name": "",
							"type": "tuple"
						}
					],
					"stateMutability": "nonpayable",
					"type": "function"
				},
				{
					"inputs": [
						{
							"internalType": "address",
							"name": "",
							"type": "address"
						}
					],
					"name": "investors",
					"outputs": [
						{
							"internalType": "uint256",
							"name": "",
							"type": "uint256"
						}
					],
					"stateMutability": "view",
					"type": "function"
				},
				{
					"inputs": [
						{
							"internalType": "address",
							"name": "walletAddress",
							"type": "address"
						}
					],
					"name": "transfer",
					"outputs": [],
					"stateMutability": "payable",
					"type": "function"
				},
				{
					"inputs": [
						{
							"internalType": "uint256",
							"name": "",
							"type": "uint256"
						}
					],
					"name": "users",
					"outputs": [
						{
							"internalType": "address",
							"name": "walletAddress",
							"type": "address"
						},
						{
							"internalType": "string",
							"name": "name",
							"type": "string"
						},
						{
							"internalType": "uint256",
							"name": "amount",
							"type": "uint256"
						},
						{
							"internalType": "bool",
							"name": "isInvestor",
							"type": "bool"
						}
					],
					"stateMutability": "view",
					"type": "function"
				}
			],
			"devdoc": {
				"kind": "dev",
				"methods": {},
				"version": 1
			},
			"evm": {
				"assembly": "    /* \"contracts/Test1.sol\":65:1870  contract Test1{... */\n  mstore(0x40, 0x80)\n    /* \"contracts/Test1.sol\":106:154  constructor(){... */\n  callvalue\n  dup1\n  iszero\n  tag_1\n  jumpi\n  0x00\n  dup1\n  revert\ntag_1:\n  pop\n    /* \"contracts/Test1.sol\":137:147  msg.sender */\n  caller\n    /* \"contracts/Test1.sol\":129:134  owner */\n  0x00\n  dup1\n    /* \"contracts/Test1.sol\":129:147  owner = msg.sender */\n  0x0100\n  exp\n  dup2\n  sload\n  dup2\n  0xffffffffffffffffffffffffffffffffffffffff\n  mul\n  not\n  and\n  swap1\n  dup4\n  0xffffffffffffffffffffffffffffffffffffffff\n  and\n  mul\n  or\n  swap1\n  sstore\n  pop\n    /* \"contracts/Test1.sol\":65:1870  contract Test1{... */\n  dataSize(sub_0)\n  dup1\n  dataOffset(sub_0)\n  0x00\n  codecopy\n  0x00\n  return\nstop\n\nsub_0: assembly {\n        /* \"contracts/Test1.sol\":65:1870  contract Test1{... */\n      mstore(0x40, 0x80)\n      jumpi(tag_1, lt(calldatasize, 0x04))\n      shr(0xe0, calldataload(0x00))\n      dup1\n      0x365b98b2\n      gt\n      tag_9\n      jumpi\n      dup1\n      0x365b98b2\n      eq\n      tag_5\n      jumpi\n      dup1\n      0x69c212f6\n      eq\n      tag_6\n      jumpi\n      dup1\n      0x6f7bc9be\n      eq\n      tag_7\n      jumpi\n      dup1\n      0x70a08231\n      eq\n      tag_8\n      jumpi\n      jump(tag_1)\n    tag_9:\n      dup1\n      0x0b1019f0\n      eq\n      tag_2\n      jumpi\n      dup1\n      0x1a695230\n      eq\n      tag_3\n      jumpi\n      dup1\n      0x280879e7\n      eq\n      tag_4\n      jumpi\n    tag_1:\n      0x00\n      dup1\n      revert\n        /* \"contracts/Test1.sol\":766:925  function addToInvestors(address walletAddress, uint amount) public {... */\n    tag_2:\n      callvalue\n      dup1\n      iszero\n      tag_10\n      jumpi\n      0x00\n      dup1\n      revert\n    tag_10:\n      pop\n      tag_11\n      0x04\n      dup1\n      calldatasize\n      sub\n      dup2\n      add\n      swap1\n      tag_12\n      swap2\n      swap1\n      tag_13\n      jump\t// in\n    tag_12:\n      tag_14\n      jump\t// in\n    tag_11:\n      stop\n        /* \"contracts/Test1.sol\":1244:1349  function transfer(address walletAddress) payable public {... */\n    tag_3:\n      tag_15\n      0x04\n      dup1\n      calldatasize\n      sub\n      dup2\n      add\n      swap1\n      tag_16\n      swap2\n      swap1\n      tag_17\n      jump\t// in\n    tag_16:\n      tag_18\n      jump\t// in\n    tag_15:\n      stop\n        /* \"contracts/Test1.sol\":585:756  function addUser(address walletAddress, string memory name, uint amount, bool isInvestor) public {... */\n    tag_4:\n      callvalue\n      dup1\n      iszero\n      tag_19\n      jumpi\n      0x00\n      dup1\n      revert\n    tag_19:\n      pop\n      tag_20\n      0x04\n      dup1\n      calldatasize\n      sub\n      dup2\n      add\n      swap1\n      tag_21\n      swap2\n      swap1\n      tag_22\n      jump\t// in\n    tag_21:\n      tag_23\n      jump\t// in\n    tag_20:\n      stop\n        /* \"contracts/Test1.sol\":282:301  User[] public users */\n    tag_5:\n      callvalue\n      dup1\n      iszero\n      tag_24\n      jumpi\n      0x00\n      dup1\n      revert\n    tag_24:\n      pop\n      tag_25\n      0x04\n      dup1\n      calldatasize\n      sub\n      dup2\n      add\n      swap1\n      tag_26\n      swap2\n      swap1\n      tag_27\n      jump\t// in\n    tag_26:\n      tag_28\n      jump\t// in\n    tag_25:\n      mload(0x40)\n      tag_29\n      swap5\n      swap4\n      swap3\n      swap2\n      swap1\n      tag_30\n      jump\t// in\n    tag_29:\n      mload(0x40)\n      dup1\n      swap2\n      sub\n      swap1\n      return\n        /* \"contracts/Test1.sol\":931:1160  function getUserByAddress(address walletAddress) public returns(User memory){... */\n    tag_6:\n      callvalue\n      dup1\n      iszero\n      tag_31\n      jumpi\n      0x00\n      dup1\n      revert\n    tag_31:\n      pop\n      tag_32\n      0x04\n      dup1\n      calldatasize\n      sub\n      dup2\n      add\n      swap1\n      tag_33\n      swap2\n      swap1\n      tag_17\n      jump\t// in\n    tag_33:\n      tag_34\n      jump\t// in\n    tag_32:\n      mload(0x40)\n      tag_35\n      swap2\n      swap1\n      tag_36\n      jump\t// in\n    tag_35:\n      mload(0x40)\n      dup1\n      swap2\n      sub\n      swap1\n      return\n        /* \"contracts/Test1.sol\":307:348  mapping(address => uint) public investors */\n    tag_7:\n      callvalue\n      dup1\n      iszero\n      tag_37\n      jumpi\n      0x00\n      dup1\n      revert\n    tag_37:\n      pop\n      tag_38\n      0x04\n      dup1\n      calldatasize\n      sub\n      dup2\n      add\n      swap1\n      tag_39\n      swap2\n      swap1\n      tag_17\n      jump\t// in\n    tag_39:\n      tag_40\n      jump\t// in\n    tag_38:\n      mload(0x40)\n      tag_41\n      swap2\n      swap1\n      tag_42\n      jump\t// in\n    tag_41:\n      mload(0x40)\n      dup1\n      swap2\n      sub\n      swap1\n      return\n        /* \"contracts/Test1.sol\":1601:1864  function balanceOf(address walletAddress) public view returns(uint){... */\n    tag_8:\n      callvalue\n      dup1\n      iszero\n      tag_43\n      jumpi\n      0x00\n      dup1\n      revert\n    tag_43:\n      pop\n      tag_44\n      0x04\n      dup1\n      calldatasize\n      sub\n      dup2\n      add\n      swap1\n      tag_45\n      swap2\n      swap1\n      tag_17\n      jump\t// in\n    tag_45:\n      tag_46\n      jump\t// in\n    tag_44:\n      mload(0x40)\n      tag_47\n      swap2\n      swap1\n      tag_42\n      jump\t// in\n    tag_47:\n      mload(0x40)\n      dup1\n      swap2\n      sub\n      swap1\n      return\n        /* \"contracts/Test1.sol\":766:925  function addToInvestors(address walletAddress, uint amount) public {... */\n    tag_14:\n        /* \"contracts/Test1.sol\":870:876  amount */\n      dup1\n        /* \"contracts/Test1.sol\":843:852  investors */\n      0x02\n        /* \"contracts/Test1.sol\":843:867  investors[walletAddress] */\n      0x00\n        /* \"contracts/Test1.sol\":853:866  walletAddress */\n      dup5\n        /* \"contracts/Test1.sol\":843:867  investors[walletAddress] */\n      0xffffffffffffffffffffffffffffffffffffffff\n      and\n      0xffffffffffffffffffffffffffffffffffffffff\n      and\n      dup2\n      mstore\n      0x20\n      add\n      swap1\n      dup2\n      mstore\n      0x20\n      add\n      0x00\n      keccak256\n        /* \"contracts/Test1.sol\":843:876  investors[walletAddress] = amount */\n      dup2\n      swap1\n      sstore\n      pop\n        /* \"contracts/Test1.sol\":886:917  getUserByAddress(walletAddress) */\n      tag_49\n        /* \"contracts/Test1.sol\":903:916  walletAddress */\n      dup3\n        /* \"contracts/Test1.sol\":886:902  getUserByAddress */\n      tag_34\n        /* \"contracts/Test1.sol\":886:917  getUserByAddress(walletAddress) */\n      jump\t// in\n    tag_49:\n      pop\n        /* \"contracts/Test1.sol\":766:925  function addToInvestors(address walletAddress, uint amount) public {... */\n      pop\n      pop\n      jump\t// out\n        /* \"contracts/Test1.sol\":1244:1349  function transfer(address walletAddress) payable public {... */\n    tag_18:\n        /* \"contracts/Test1.sol\":1310:1342  transferToAddress(walletAddress) */\n      tag_51\n        /* \"contracts/Test1.sol\":1328:1341  walletAddress */\n      dup2\n        /* \"contracts/Test1.sol\":1310:1327  transferToAddress */\n      tag_52\n        /* \"contracts/Test1.sol\":1310:1342  transferToAddress(walletAddress) */\n      jump\t// in\n    tag_51:\n        /* \"contracts/Test1.sol\":1244:1349  function transfer(address walletAddress) payable public {... */\n      pop\n      jump\t// out\n        /* \"contracts/Test1.sol\":585:756  function addUser(address walletAddress, string memory name, uint amount, bool isInvestor) public {... */\n    tag_23:\n        /* \"contracts/Test1.sol\":692:697  users */\n      0x01\n        /* \"contracts/Test1.sol\":703:748  User(walletAddress, name, amount, isInvestor) */\n      mload(0x40)\n      dup1\n      0x80\n      add\n      0x40\n      mstore\n      dup1\n        /* \"contracts/Test1.sol\":708:721  walletAddress */\n      dup7\n        /* \"contracts/Test1.sol\":703:748  User(walletAddress, name, amount, isInvestor) */\n      0xffffffffffffffffffffffffffffffffffffffff\n      and\n      dup2\n      mstore\n      0x20\n      add\n        /* \"contracts/Test1.sol\":723:727  name */\n      dup6\n        /* \"contracts/Test1.sol\":703:748  User(walletAddress, name, amount, isInvestor) */\n      dup2\n      mstore\n      0x20\n      add\n        /* \"contracts/Test1.sol\":729:735  amount */\n      dup5\n        /* \"contracts/Test1.sol\":703:748  User(walletAddress, name, amount, isInvestor) */\n      dup2\n      mstore\n      0x20\n      add\n        /* \"contracts/Test1.sol\":737:747  isInvestor */\n      dup4\n        /* \"contracts/Test1.sol\":703:748  User(walletAddress, name, amount, isInvestor) */\n      iszero\n      iszero\n      dup2\n      mstore\n      pop\n        /* \"contracts/Test1.sol\":692:749  users.push(User(walletAddress, name, amount, isInvestor)) */\n      swap1\n      dup1\n      0x01\n      dup2\n      sload\n      add\n      dup1\n      dup3\n      sstore\n      dup1\n      swap2\n      pop\n      pop\n      0x01\n      swap1\n      sub\n      swap1\n      0x00\n      mstore\n      keccak256(0x00, 0x20)\n      swap1\n      0x04\n      mul\n      add\n      0x00\n      swap1\n      swap2\n      swap1\n      swap2\n      swap1\n      swap2\n      pop\n      0x00\n      dup3\n      add\n      mload\n      dup2\n      0x00\n      add\n      exp(0x0100, 0x00)\n      dup2\n      sload\n      dup2\n      0xffffffffffffffffffffffffffffffffffffffff\n      mul\n      not\n      and\n      swap1\n      dup4\n      0xffffffffffffffffffffffffffffffffffffffff\n      and\n      mul\n      or\n      swap1\n      sstore\n      pop\n      0x20\n      dup3\n      add\n      mload\n      dup2\n      0x01\n      add\n      swap1\n      dup1\n      mload\n      swap1\n      0x20\n      add\n      swap1\n      tag_55\n      swap3\n      swap2\n      swap1\n      tag_56\n      jump\t// in\n    tag_55:\n      pop\n      0x40\n      dup3\n      add\n      mload\n      dup2\n      0x02\n      add\n      sstore\n      0x60\n      dup3\n      add\n      mload\n      dup2\n      0x03\n      add\n      exp(0x0100, 0x00)\n      dup2\n      sload\n      dup2\n      0xff\n      mul\n      not\n      and\n      swap1\n      dup4\n      iszero\n      iszero\n      mul\n      or\n      swap1\n      sstore\n      pop\n      pop\n      pop\n        /* \"contracts/Test1.sol\":585:756  function addUser(address walletAddress, string memory name, uint amount, bool isInvestor) public {... */\n      pop\n      pop\n      pop\n      pop\n      jump\t// out\n        /* \"contracts/Test1.sol\":282:301  User[] public users */\n    tag_28:\n      0x01\n      dup2\n      dup2\n      sload\n      dup2\n      lt\n      tag_57\n      jumpi\n      0x00\n      dup1\n      revert\n    tag_57:\n      swap1\n      0x00\n      mstore\n      keccak256(0x00, 0x20)\n      swap1\n      0x04\n      mul\n      add\n      0x00\n      swap2\n      pop\n      swap1\n      pop\n      dup1\n      0x00\n      add\n      0x00\n      swap1\n      sload\n      swap1\n      0x0100\n      exp\n      swap1\n      div\n      0xffffffffffffffffffffffffffffffffffffffff\n      and\n      swap1\n      dup1\n      0x01\n      add\n      dup1\n      sload\n      tag_59\n      swap1\n      tag_60\n      jump\t// in\n    tag_59:\n      dup1\n      0x1f\n      add\n      0x20\n      dup1\n      swap2\n      div\n      mul\n      0x20\n      add\n      mload(0x40)\n      swap1\n      dup2\n      add\n      0x40\n      mstore\n      dup1\n      swap3\n      swap2\n      swap1\n      dup2\n      dup2\n      mstore\n      0x20\n      add\n      dup3\n      dup1\n      sload\n      tag_61\n      swap1\n      tag_60\n      jump\t// in\n    tag_61:\n      dup1\n      iszero\n      tag_62\n      jumpi\n      dup1\n      0x1f\n      lt\n      tag_63\n      jumpi\n      0x0100\n      dup1\n      dup4\n      sload\n      div\n      mul\n      dup4\n      mstore\n      swap2\n      0x20\n      add\n      swap2\n      jump(tag_62)\n    tag_63:\n      dup3\n      add\n      swap2\n      swap1\n      0x00\n      mstore\n      keccak256(0x00, 0x20)\n      swap1\n    tag_64:\n      dup2\n      sload\n      dup2\n      mstore\n      swap1\n      0x01\n      add\n      swap1\n      0x20\n      add\n      dup1\n      dup4\n      gt\n      tag_64\n      jumpi\n      dup3\n      swap1\n      sub\n      0x1f\n      and\n      dup3\n      add\n      swap2\n    tag_62:\n      pop\n      pop\n      pop\n      pop\n      pop\n      swap1\n      dup1\n      0x02\n      add\n      sload\n      swap1\n      dup1\n      0x03\n      add\n      0x00\n      swap1\n      sload\n      swap1\n      0x0100\n      exp\n      swap1\n      div\n      0xff\n      and\n      swap1\n      pop\n      dup5\n      jump\t// out\n        /* \"contracts/Test1.sol\":931:1160  function getUserByAddress(address walletAddress) public returns(User memory){... */\n    tag_34:\n        /* \"contracts/Test1.sol\":995:1006  User memory */\n      tag_65\n      tag_66\n      jump\t// in\n    tag_65:\n        /* \"contracts/Test1.sol\":1021:1027  uint i */\n      0x00\n        /* \"contracts/Test1.sol\":1017:1154  for(uint i = 0; i < users.length; i++){... */\n    tag_68:\n        /* \"contracts/Test1.sol\":1037:1042  users */\n      0x01\n        /* \"contracts/Test1.sol\":1037:1049  users.length */\n      dup1\n      sload\n      swap1\n      pop\n        /* \"contracts/Test1.sol\":1033:1034  i */\n      dup2\n        /* \"contracts/Test1.sol\":1033:1049  i < users.length */\n      lt\n        /* \"contracts/Test1.sol\":1017:1154  for(uint i = 0; i < users.length; i++){... */\n      iszero\n      tag_69\n      jumpi\n        /* \"contracts/Test1.sol\":1098:1111  walletAddress */\n      dup3\n        /* \"contracts/Test1.sol\":1072:1111  users[i].walletAddress == walletAddress */\n      0xffffffffffffffffffffffffffffffffffffffff\n      and\n        /* \"contracts/Test1.sol\":1072:1077  users */\n      0x01\n        /* \"contracts/Test1.sol\":1078:1079  i */\n      dup3\n        /* \"contracts/Test1.sol\":1072:1080  users[i] */\n      dup2\n      sload\n      dup2\n      lt\n      tag_71\n      jumpi\n      tag_72\n      tag_73\n      jump\t// in\n    tag_72:\n    tag_71:\n      swap1\n      0x00\n      mstore\n      keccak256(0x00, 0x20)\n      swap1\n      0x04\n      mul\n      add\n        /* \"contracts/Test1.sol\":1072:1094  users[i].walletAddress */\n      0x00\n      add\n      0x00\n      swap1\n      sload\n      swap1\n      0x0100\n      exp\n      swap1\n      pop\n      pop\n        /* \"contracts/Test1.sol\":1072:1111  users[i].walletAddress == walletAddress */\n      pop\n        /* \"contracts/Test1.sol\":1051:1054  i++ */\n      dup1\n      dup1\n      tag_76\n      swap1\n      tag_77\n      jump\t// in\n    tag_76:\n      swap2\n      pop\n      pop\n        /* \"contracts/Test1.sol\":1017:1154  for(uint i = 0; i < users.length; i++){... */\n      jump(tag_68)\n    tag_69:\n      pop\n        /* \"contracts/Test1.sol\":931:1160  function getUserByAddress(address walletAddress) public returns(User memory){... */\n      swap2\n      swap1\n      pop\n      jump\t// out\n        /* \"contracts/Test1.sol\":307:348  mapping(address => uint) public investors */\n    tag_40:\n      mstore(0x20, 0x02)\n      dup1\n      0x00\n      mstore\n      keccak256(0x00, 0x40)\n      0x00\n      swap2\n      pop\n      swap1\n      pop\n      sload\n      dup2\n      jump\t// out\n        /* \"contracts/Test1.sol\":1601:1864  function balanceOf(address walletAddress) public view returns(uint){... */\n    tag_46:\n        /* \"contracts/Test1.sol\":1663:1667  uint */\n      0x00\n        /* \"contracts/Test1.sol\":1682:1688  uint i */\n      dup1\n        /* \"contracts/Test1.sol\":1691:1692  0 */\n      0x00\n        /* \"contracts/Test1.sol\":1682:1692  uint i = 0 */\n      swap1\n      pop\n        /* \"contracts/Test1.sol\":1678:1838  for(uint i = 0; i < users.length; i++){... */\n    tag_79:\n        /* \"contracts/Test1.sol\":1698:1703  users */\n      0x01\n        /* \"contracts/Test1.sol\":1698:1710  users.length */\n      dup1\n      sload\n      swap1\n      pop\n        /* \"contracts/Test1.sol\":1694:1695  i */\n      dup2\n        /* \"contracts/Test1.sol\":1694:1710  i < users.length */\n      lt\n        /* \"contracts/Test1.sol\":1678:1838  for(uint i = 0; i < users.length; i++){... */\n      iszero\n      tag_80\n      jumpi\n        /* \"contracts/Test1.sol\":1759:1772  walletAddress */\n      dup3\n        /* \"contracts/Test1.sol\":1733:1772  users[i].walletAddress == walletAddress */\n      0xffffffffffffffffffffffffffffffffffffffff\n      and\n        /* \"contracts/Test1.sol\":1733:1738  users */\n      0x01\n        /* \"contracts/Test1.sol\":1739:1740  i */\n      dup3\n        /* \"contracts/Test1.sol\":1733:1741  users[i] */\n      dup2\n      sload\n      dup2\n      lt\n      tag_82\n      jumpi\n      tag_83\n      tag_73\n      jump\t// in\n    tag_83:\n    tag_82:\n      swap1\n      0x00\n      mstore\n      keccak256(0x00, 0x20)\n      swap1\n      0x04\n      mul\n      add\n        /* \"contracts/Test1.sol\":1733:1755  users[i].walletAddress */\n      0x00\n      add\n      0x00\n      swap1\n      sload\n      swap1\n      0x0100\n      exp\n      swap1\n      div\n      0xffffffffffffffffffffffffffffffffffffffff\n      and\n        /* \"contracts/Test1.sol\":1733:1772  users[i].walletAddress == walletAddress */\n      0xffffffffffffffffffffffffffffffffffffffff\n      and\n      eq\n        /* \"contracts/Test1.sol\":1730:1828  if(users[i].walletAddress == walletAddress){... */\n      iszero\n      tag_85\n      jumpi\n        /* \"contracts/Test1.sol\":1798:1803  users */\n      0x01\n        /* \"contracts/Test1.sol\":1804:1805  i */\n      dup2\n        /* \"contracts/Test1.sol\":1798:1806  users[i] */\n      dup2\n      sload\n      dup2\n      lt\n      tag_86\n      jumpi\n      tag_87\n      tag_73\n      jump\t// in\n    tag_87:\n    tag_86:\n      swap1\n      0x00\n      mstore\n      keccak256(0x00, 0x20)\n      swap1\n      0x04\n      mul\n      add\n        /* \"contracts/Test1.sol\":1798:1813  users[i].amount */\n      0x02\n      add\n      sload\n        /* \"contracts/Test1.sol\":1791:1813  return users[i].amount */\n      swap2\n      pop\n      pop\n      jump(tag_78)\n        /* \"contracts/Test1.sol\":1730:1828  if(users[i].walletAddress == walletAddress){... */\n    tag_85:\n        /* \"contracts/Test1.sol\":1712:1715  i++ */\n      dup1\n      dup1\n      tag_89\n      swap1\n      tag_77\n      jump\t// in\n    tag_89:\n      swap2\n      pop\n      pop\n        /* \"contracts/Test1.sol\":1678:1838  for(uint i = 0; i < users.length; i++){... */\n      jump(tag_79)\n    tag_80:\n      pop\n        /* \"contracts/Test1.sol\":1854:1857  999 */\n      0x03e7\n        /* \"contracts/Test1.sol\":1847:1857  return 999 */\n      swap1\n      pop\n        /* \"contracts/Test1.sol\":1601:1864  function balanceOf(address walletAddress) public view returns(uint){... */\n    tag_78:\n      swap2\n      swap1\n      pop\n      jump\t// out\n        /* \"contracts/Test1.sol\":1355:1595  function transferToAddress(address walletAddress) private {... */\n    tag_52:\n        /* \"contracts/Test1.sol\":1427:1433  uint i */\n      0x00\n        /* \"contracts/Test1.sol\":1423:1589  for(uint i = 0; i < users.length; i++){... */\n    tag_91:\n        /* \"contracts/Test1.sol\":1443:1448  users */\n      0x01\n        /* \"contracts/Test1.sol\":1443:1455  users.length */\n      dup1\n      sload\n      swap1\n      pop\n        /* \"contracts/Test1.sol\":1439:1440  i */\n      dup2\n        /* \"contracts/Test1.sol\":1439:1455  i < users.length */\n      lt\n        /* \"contracts/Test1.sol\":1423:1589  for(uint i = 0; i < users.length; i++){... */\n      iszero\n      tag_92\n      jumpi\n        /* \"contracts/Test1.sol\":1504:1517  walletAddress */\n      dup2\n        /* \"contracts/Test1.sol\":1478:1517  users[i].walletAddress == walletAddress */\n      0xffffffffffffffffffffffffffffffffffffffff\n      and\n        /* \"contracts/Test1.sol\":1478:1483  users */\n      0x01\n        /* \"contracts/Test1.sol\":1484:1485  i */\n      dup3\n        /* \"contracts/Test1.sol\":1478:1486  users[i] */\n      dup2\n      sload\n      dup2\n      lt\n      tag_94\n      jumpi\n      tag_95\n      tag_73\n      jump\t// in\n    tag_95:\n    tag_94:\n      swap1\n      0x00\n      mstore\n      keccak256(0x00, 0x20)\n      swap1\n      0x04\n      mul\n      add\n        /* \"contracts/Test1.sol\":1478:1500  users[i].walletAddress */\n      0x00\n      add\n      0x00\n      swap1\n      sload\n      swap1\n      0x0100\n      exp\n      swap1\n      div\n      0xffffffffffffffffffffffffffffffffffffffff\n      and\n        /* \"contracts/Test1.sol\":1478:1517  users[i].walletAddress == walletAddress */\n      0xffffffffffffffffffffffffffffffffffffffff\n      and\n      eq\n        /* \"contracts/Test1.sol\":1475:1579  if(users[i].walletAddress == walletAddress){... */\n      iszero\n      tag_97\n      jumpi\n        /* \"contracts/Test1.sol\":1555:1564  msg.value */\n      callvalue\n        /* \"contracts/Test1.sol\":1536:1541  users */\n      0x01\n        /* \"contracts/Test1.sol\":1542:1543  i */\n      dup3\n        /* \"contracts/Test1.sol\":1536:1544  users[i] */\n      dup2\n      sload\n      dup2\n      lt\n      tag_98\n      jumpi\n      tag_99\n      tag_73\n      jump\t// in\n    tag_99:\n    tag_98:\n      swap1\n      0x00\n      mstore\n      keccak256(0x00, 0x20)\n      swap1\n      0x04\n      mul\n      add\n        /* \"contracts/Test1.sol\":1536:1551  users[i].amount */\n      0x02\n      add\n      0x00\n        /* \"contracts/Test1.sol\":1536:1564  users[i].amount += msg.value */\n      dup3\n      dup3\n      sload\n      tag_101\n      swap2\n      swap1\n      tag_102\n      jump\t// in\n    tag_101:\n      swap3\n      pop\n      pop\n      dup2\n      swap1\n      sstore\n      pop\n        /* \"contracts/Test1.sol\":1475:1579  if(users[i].walletAddress == walletAddress){... */\n    tag_97:\n        /* \"contracts/Test1.sol\":1457:1460  i++ */\n      dup1\n      dup1\n      tag_103\n      swap1\n      tag_77\n      jump\t// in\n    tag_103:\n      swap2\n      pop\n      pop\n        /* \"contracts/Test1.sol\":1423:1589  for(uint i = 0; i < users.length; i++){... */\n      jump(tag_91)\n    tag_92:\n      pop\n        /* \"contracts/Test1.sol\":1355:1595  function transferToAddress(address walletAddress) private {... */\n      pop\n      jump\t// out\n    tag_56:\n      dup3\n      dup1\n      sload\n      tag_104\n      swap1\n      tag_60\n      jump\t// in\n    tag_104:\n      swap1\n      0x00\n      mstore\n      keccak256(0x00, 0x20)\n      swap1\n      0x1f\n      add\n      0x20\n      swap1\n      div\n      dup2\n      add\n      swap3\n      dup3\n      tag_106\n      jumpi\n      0x00\n      dup6\n      sstore\n      jump(tag_105)\n    tag_106:\n      dup3\n      0x1f\n      lt\n      tag_107\n      jumpi\n      dup1\n      mload\n      not(0xff)\n      and\n      dup4\n      dup1\n      add\n      or\n      dup6\n      sstore\n      jump(tag_105)\n    tag_107:\n      dup3\n      dup1\n      add\n      0x01\n      add\n      dup6\n      sstore\n      dup3\n      iszero\n      tag_105\n      jumpi\n      swap2\n      dup3\n      add\n    tag_108:\n      dup3\n      dup2\n      gt\n      iszero\n      tag_109\n      jumpi\n      dup3\n      mload\n      dup3\n      sstore\n      swap2\n      0x20\n      add\n      swap2\n      swap1\n      0x01\n      add\n      swap1\n      jump(tag_108)\n    tag_109:\n    tag_105:\n      pop\n      swap1\n      pop\n      tag_110\n      swap2\n      swap1\n      tag_111\n      jump\t// in\n    tag_110:\n      pop\n      swap1\n      jump\t// out\n    tag_66:\n      mload(0x40)\n      dup1\n      0x80\n      add\n      0x40\n      mstore\n      dup1\n      and(0xffffffffffffffffffffffffffffffffffffffff, 0x00)\n      dup2\n      mstore\n      0x20\n      add\n      0x60\n      dup2\n      mstore\n      0x20\n      add\n      0x00\n      dup2\n      mstore\n      0x20\n      add\n      iszero(iszero(0x00))\n      dup2\n      mstore\n      pop\n      swap1\n      jump\t// out\n    tag_111:\n    tag_112:\n      dup1\n      dup3\n      gt\n      iszero\n      tag_113\n      jumpi\n      0x00\n      dup2\n      0x00\n      swap1\n      sstore\n      pop\n      0x01\n      add\n      jump(tag_112)\n    tag_113:\n      pop\n      swap1\n      jump\t// out\n        /* \"#utility.yul\":7:419   */\n    tag_115:\n        /* \"#utility.yul\":85:90   */\n      0x00\n        /* \"#utility.yul\":110:176   */\n      tag_117\n        /* \"#utility.yul\":126:175   */\n      tag_118\n        /* \"#utility.yul\":168:174   */\n      dup5\n        /* \"#utility.yul\":126:175   */\n      tag_119\n      jump\t// in\n    tag_118:\n        /* \"#utility.yul\":110:176   */\n      tag_120\n      jump\t// in\n    tag_117:\n        /* \"#utility.yul\":101:176   */\n      swap1\n      pop\n        /* \"#utility.yul\":199:205   */\n      dup3\n        /* \"#utility.yul\":192:197   */\n      dup2\n        /* \"#utility.yul\":185:206   */\n      mstore\n        /* \"#utility.yul\":237:241   */\n      0x20\n        /* \"#utility.yul\":230:235   */\n      dup2\n        /* \"#utility.yul\":226:242   */\n      add\n        /* \"#utility.yul\":275:278   */\n      dup5\n        /* \"#utility.yul\":266:272   */\n      dup5\n        /* \"#utility.yul\":261:264   */\n      dup5\n        /* \"#utility.yul\":257:273   */\n      add\n        /* \"#utility.yul\":254:279   */\n      gt\n        /* \"#utility.yul\":251:363   */\n      iszero\n      tag_121\n      jumpi\n        /* \"#utility.yul\":282:361   */\n      tag_122\n      tag_123\n      jump\t// in\n    tag_122:\n        /* \"#utility.yul\":251:363   */\n    tag_121:\n        /* \"#utility.yul\":372:413   */\n      tag_124\n        /* \"#utility.yul\":406:412   */\n      dup5\n        /* \"#utility.yul\":401:404   */\n      dup3\n        /* \"#utility.yul\":396:399   */\n      dup6\n        /* \"#utility.yul\":372:413   */\n      tag_125\n      jump\t// in\n    tag_124:\n        /* \"#utility.yul\":91:419   */\n      pop\n        /* \"#utility.yul\":7:419   */\n      swap4\n      swap3\n      pop\n      pop\n      pop\n      jump\t// out\n        /* \"#utility.yul\":425:564   */\n    tag_126:\n        /* \"#utility.yul\":471:476   */\n      0x00\n        /* \"#utility.yul\":509:515   */\n      dup2\n        /* \"#utility.yul\":496:516   */\n      calldataload\n        /* \"#utility.yul\":487:516   */\n      swap1\n      pop\n        /* \"#utility.yul\":525:558   */\n      tag_128\n        /* \"#utility.yul\":552:557   */\n      dup2\n        /* \"#utility.yul\":525:558   */\n      tag_129\n      jump\t// in\n    tag_128:\n        /* \"#utility.yul\":425:564   */\n      swap3\n      swap2\n      pop\n      pop\n      jump\t// out\n        /* \"#utility.yul\":570:703   */\n    tag_130:\n        /* \"#utility.yul\":613:618   */\n      0x00\n        /* \"#utility.yul\":651:657   */\n      dup2\n        /* \"#utility.yul\":638:658   */\n      calldataload\n        /* \"#utility.yul\":629:658   */\n      swap1\n      pop\n        /* \"#utility.yul\":667:697   */\n      tag_132\n        /* \"#utility.yul\":691:696   */\n      dup2\n        /* \"#utility.yul\":667:697   */\n      tag_133\n      jump\t// in\n    tag_132:\n        /* \"#utility.yul\":570:703   */\n      swap3\n      swap2\n      pop\n      pop\n      jump\t// out\n        /* \"#utility.yul\":723:1063   */\n    tag_134:\n        /* \"#utility.yul\":779:784   */\n      0x00\n        /* \"#utility.yul\":828:831   */\n      dup3\n        /* \"#utility.yul\":821:825   */\n      0x1f\n        /* \"#utility.yul\":813:819   */\n      dup4\n        /* \"#utility.yul\":809:826   */\n      add\n        /* \"#utility.yul\":805:832   */\n      slt\n        /* \"#utility.yul\":795:917   */\n      tag_136\n      jumpi\n        /* \"#utility.yul\":836:915   */\n      tag_137\n      tag_138\n      jump\t// in\n    tag_137:\n        /* \"#utility.yul\":795:917   */\n    tag_136:\n        /* \"#utility.yul\":953:959   */\n      dup2\n        /* \"#utility.yul\":940:960   */\n      calldataload\n        /* \"#utility.yul\":978:1057   */\n      tag_139\n        /* \"#utility.yul\":1053:1056   */\n      dup5\n        /* \"#utility.yul\":1045:1051   */\n      dup3\n        /* \"#utility.yul\":1038:1042   */\n      0x20\n        /* \"#utility.yul\":1030:1036   */\n      dup7\n        /* \"#utility.yul\":1026:1043   */\n      add\n        /* \"#utility.yul\":978:1057   */\n      tag_115\n      jump\t// in\n    tag_139:\n        /* \"#utility.yul\":969:1057   */\n      swap2\n      pop\n        /* \"#utility.yul\":785:1063   */\n      pop\n        /* \"#utility.yul\":723:1063   */\n      swap3\n      swap2\n      pop\n      pop\n      jump\t// out\n        /* \"#utility.yul\":1069:1208   */\n    tag_140:\n        /* \"#utility.yul\":1115:1120   */\n      0x00\n        /* \"#utility.yul\":1153:1159   */\n      dup2\n        /* \"#utility.yul\":1140:1160   */\n      calldataload\n        /* \"#utility.yul\":1131:1160   */\n      swap1\n      pop\n        /* \"#utility.yul\":1169:1202   */\n      tag_142\n        /* \"#utility.yul\":1196:1201   */\n      dup2\n        /* \"#utility.yul\":1169:1202   */\n      tag_143\n      jump\t// in\n    tag_142:\n        /* \"#utility.yul\":1069:1208   */\n      swap3\n      swap2\n      pop\n      pop\n      jump\t// out\n        /* \"#utility.yul\":1214:1543   */\n    tag_17:\n        /* \"#utility.yul\":1273:1279   */\n      0x00\n        /* \"#utility.yul\":1322:1324   */\n      0x20\n        /* \"#utility.yul\":1310:1319   */\n      dup3\n        /* \"#utility.yul\":1301:1308   */\n      dup5\n        /* \"#utility.yul\":1297:1320   */\n      sub\n        /* \"#utility.yul\":1293:1325   */\n      slt\n        /* \"#utility.yul\":1290:1409   */\n      iszero\n      tag_145\n      jumpi\n        /* \"#utility.yul\":1328:1407   */\n      tag_146\n      tag_147\n      jump\t// in\n    tag_146:\n        /* \"#utility.yul\":1290:1409   */\n    tag_145:\n        /* \"#utility.yul\":1448:1449   */\n      0x00\n        /* \"#utility.yul\":1473:1526   */\n      tag_148\n        /* \"#utility.yul\":1518:1525   */\n      dup5\n        /* \"#utility.yul\":1509:1515   */\n      dup3\n        /* \"#utility.yul\":1498:1507   */\n      dup6\n        /* \"#utility.yul\":1494:1516   */\n      add\n        /* \"#utility.yul\":1473:1526   */\n      tag_126\n      jump\t// in\n    tag_148:\n        /* \"#utility.yul\":1463:1526   */\n      swap2\n      pop\n        /* \"#utility.yul\":1419:1536   */\n      pop\n        /* \"#utility.yul\":1214:1543   */\n      swap3\n      swap2\n      pop\n      pop\n      jump\t// out\n        /* \"#utility.yul\":1549:2488   */\n    tag_22:\n        /* \"#utility.yul\":1642:1648   */\n      0x00\n        /* \"#utility.yul\":1650:1656   */\n      dup1\n        /* \"#utility.yul\":1658:1664   */\n      0x00\n        /* \"#utility.yul\":1666:1672   */\n      dup1\n        /* \"#utility.yul\":1715:1718   */\n      0x80\n        /* \"#utility.yul\":1703:1712   */\n      dup6\n        /* \"#utility.yul\":1694:1701   */\n      dup8\n        /* \"#utility.yul\":1690:1713   */\n      sub\n        /* \"#utility.yul\":1686:1719   */\n      slt\n        /* \"#utility.yul\":1683:1803   */\n      iszero\n      tag_150\n      jumpi\n        /* \"#utility.yul\":1722:1801   */\n      tag_151\n      tag_147\n      jump\t// in\n    tag_151:\n        /* \"#utility.yul\":1683:1803   */\n    tag_150:\n        /* \"#utility.yul\":1842:1843   */\n      0x00\n        /* \"#utility.yul\":1867:1920   */\n      tag_152\n        /* \"#utility.yul\":1912:1919   */\n      dup8\n        /* \"#utility.yul\":1903:1909   */\n      dup3\n        /* \"#utility.yul\":1892:1901   */\n      dup9\n        /* \"#utility.yul\":1888:1910   */\n      add\n        /* \"#utility.yul\":1867:1920   */\n      tag_126\n      jump\t// in\n    tag_152:\n        /* \"#utility.yul\":1857:1920   */\n      swap5\n      pop\n        /* \"#utility.yul\":1813:1930   */\n      pop\n        /* \"#utility.yul\":1997:1999   */\n      0x20\n        /* \"#utility.yul\":1986:1995   */\n      dup6\n        /* \"#utility.yul\":1982:2000   */\n      add\n        /* \"#utility.yul\":1969:2001   */\n      calldataload\n        /* \"#utility.yul\":2028:2046   */\n      0xffffffffffffffff\n        /* \"#utility.yul\":2020:2026   */\n      dup2\n        /* \"#utility.yul\":2017:2047   */\n      gt\n        /* \"#utility.yul\":2014:2131   */\n      iszero\n      tag_153\n      jumpi\n        /* \"#utility.yul\":2050:2129   */\n      tag_154\n      tag_155\n      jump\t// in\n    tag_154:\n        /* \"#utility.yul\":2014:2131   */\n    tag_153:\n        /* \"#utility.yul\":2155:2218   */\n      tag_156\n        /* \"#utility.yul\":2210:2217   */\n      dup8\n        /* \"#utility.yul\":2201:2207   */\n      dup3\n        /* \"#utility.yul\":2190:2199   */\n      dup9\n        /* \"#utility.yul\":2186:2208   */\n      add\n        /* \"#utility.yul\":2155:2218   */\n      tag_134\n      jump\t// in\n    tag_156:\n        /* \"#utility.yul\":2145:2218   */\n      swap4\n      pop\n        /* \"#utility.yul\":1940:2228   */\n      pop\n        /* \"#utility.yul\":2267:2269   */\n      0x40\n        /* \"#utility.yul\":2293:2346   */\n      tag_157\n        /* \"#utility.yul\":2338:2345   */\n      dup8\n        /* \"#utility.yul\":2329:2335   */\n      dup3\n        /* \"#utility.yul\":2318:2327   */\n      dup9\n        /* \"#utility.yul\":2314:2336   */\n      add\n        /* \"#utility.yul\":2293:2346   */\n      tag_140\n      jump\t// in\n    tag_157:\n        /* \"#utility.yul\":2283:2346   */\n      swap3\n      pop\n        /* \"#utility.yul\":2238:2356   */\n      pop\n        /* \"#utility.yul\":2395:2397   */\n      0x60\n        /* \"#utility.yul\":2421:2471   */\n      tag_158\n        /* \"#utility.yul\":2463:2470   */\n      dup8\n        /* \"#utility.yul\":2454:2460   */\n      dup3\n        /* \"#utility.yul\":2443:2452   */\n      dup9\n        /* \"#utility.yul\":2439:2461   */\n      add\n        /* \"#utility.yul\":2421:2471   */\n      tag_130\n      jump\t// in\n    tag_158:\n        /* \"#utility.yul\":2411:2471   */\n      swap2\n      pop\n        /* \"#utility.yul\":2366:2481   */\n      pop\n        /* \"#utility.yul\":1549:2488   */\n      swap3\n      swap6\n      swap2\n      swap5\n      pop\n      swap3\n      pop\n      jump\t// out\n        /* \"#utility.yul\":2494:2968   */\n    tag_13:\n        /* \"#utility.yul\":2562:2568   */\n      0x00\n        /* \"#utility.yul\":2570:2576   */\n      dup1\n        /* \"#utility.yul\":2619:2621   */\n      0x40\n        /* \"#utility.yul\":2607:2616   */\n      dup4\n        /* \"#utility.yul\":2598:2605   */\n      dup6\n        /* \"#utility.yul\":2594:2617   */\n      sub\n        /* \"#utility.yul\":2590:2622   */\n      slt\n        /* \"#utility.yul\":2587:2706   */\n      iszero\n      tag_160\n      jumpi\n        /* \"#utility.yul\":2625:2704   */\n      tag_161\n      tag_147\n      jump\t// in\n    tag_161:\n        /* \"#utility.yul\":2587:2706   */\n    tag_160:\n        /* \"#utility.yul\":2745:2746   */\n      0x00\n        /* \"#utility.yul\":2770:2823   */\n      tag_162\n        /* \"#utility.yul\":2815:2822   */\n      dup6\n        /* \"#utility.yul\":2806:2812   */\n      dup3\n        /* \"#utility.yul\":2795:2804   */\n      dup7\n        /* \"#utility.yul\":2791:2813   */\n      add\n        /* \"#utility.yul\":2770:2823   */\n      tag_126\n      jump\t// in\n    tag_162:\n        /* \"#utility.yul\":2760:2823   */\n      swap3\n      pop\n        /* \"#utility.yul\":2716:2833   */\n      pop\n        /* \"#utility.yul\":2872:2874   */\n      0x20\n        /* \"#utility.yul\":2898:2951   */\n      tag_163\n        /* \"#utility.yul\":2943:2950   */\n      dup6\n        /* \"#utility.yul\":2934:2940   */\n      dup3\n        /* \"#utility.yul\":2923:2932   */\n      dup7\n        /* \"#utility.yul\":2919:2941   */\n      add\n        /* \"#utility.yul\":2898:2951   */\n      tag_140\n      jump\t// in\n    tag_163:\n        /* \"#utility.yul\":2888:2951   */\n      swap2\n      pop\n        /* \"#utility.yul\":2843:2961   */\n      pop\n        /* \"#utility.yul\":2494:2968   */\n      swap3\n      pop\n      swap3\n      swap1\n      pop\n      jump\t// out\n        /* \"#utility.yul\":2974:3303   */\n    tag_27:\n        /* \"#utility.yul\":3033:3039   */\n      0x00\n        /* \"#utility.yul\":3082:3084   */\n      0x20\n        /* \"#utility.yul\":3070:3079   */\n      dup3\n        /* \"#utility.yul\":3061:3068   */\n      dup5\n        /* \"#utility.yul\":3057:3080   */\n      sub\n        /* \"#utility.yul\":3053:3085   */\n      slt\n        /* \"#utility.yul\":3050:3169   */\n      iszero\n      tag_165\n      jumpi\n        /* \"#utility.yul\":3088:3167   */\n      tag_166\n      tag_147\n      jump\t// in\n    tag_166:\n        /* \"#utility.yul\":3050:3169   */\n    tag_165:\n        /* \"#utility.yul\":3208:3209   */\n      0x00\n        /* \"#utility.yul\":3233:3286   */\n      tag_167\n        /* \"#utility.yul\":3278:3285   */\n      dup5\n        /* \"#utility.yul\":3269:3275   */\n      dup3\n        /* \"#utility.yul\":3258:3267   */\n      dup6\n        /* \"#utility.yul\":3254:3276   */\n      add\n        /* \"#utility.yul\":3233:3286   */\n      tag_140\n      jump\t// in\n    tag_167:\n        /* \"#utility.yul\":3223:3286   */\n      swap2\n      pop\n        /* \"#utility.yul\":3179:3296   */\n      pop\n        /* \"#utility.yul\":2974:3303   */\n      swap3\n      swap2\n      pop\n      pop\n      jump\t// out\n        /* \"#utility.yul\":3309:3417   */\n    tag_168:\n        /* \"#utility.yul\":3386:3410   */\n      tag_170\n        /* \"#utility.yul\":3404:3409   */\n      dup2\n        /* \"#utility.yul\":3386:3410   */\n      tag_171\n      jump\t// in\n    tag_170:\n        /* \"#utility.yul\":3381:3384   */\n      dup3\n        /* \"#utility.yul\":3374:3411   */\n      mstore\n        /* \"#utility.yul\":3309:3417   */\n      pop\n      pop\n      jump\t// out\n        /* \"#utility.yul\":3423:3541   */\n    tag_172:\n        /* \"#utility.yul\":3510:3534   */\n      tag_174\n        /* \"#utility.yul\":3528:3533   */\n      dup2\n        /* \"#utility.yul\":3510:3534   */\n      tag_171\n      jump\t// in\n    tag_174:\n        /* \"#utility.yul\":3505:3508   */\n      dup3\n        /* \"#utility.yul\":3498:3535   */\n      mstore\n        /* \"#utility.yul\":3423:3541   */\n      pop\n      pop\n      jump\t// out\n        /* \"#utility.yul\":3547:3646   */\n    tag_175:\n        /* \"#utility.yul\":3618:3639   */\n      tag_177\n        /* \"#utility.yul\":3633:3638   */\n      dup2\n        /* \"#utility.yul\":3618:3639   */\n      tag_178\n      jump\t// in\n    tag_177:\n        /* \"#utility.yul\":3613:3616   */\n      dup3\n        /* \"#utility.yul\":3606:3640   */\n      mstore\n        /* \"#utility.yul\":3547:3646   */\n      pop\n      pop\n      jump\t// out\n        /* \"#utility.yul\":3652:3761   */\n    tag_179:\n        /* \"#utility.yul\":3733:3754   */\n      tag_181\n        /* \"#utility.yul\":3748:3753   */\n      dup2\n        /* \"#utility.yul\":3733:3754   */\n      tag_178\n      jump\t// in\n    tag_181:\n        /* \"#utility.yul\":3728:3731   */\n      dup3\n        /* \"#utility.yul\":3721:3755   */\n      mstore\n        /* \"#utility.yul\":3652:3761   */\n      pop\n      pop\n      jump\t// out\n        /* \"#utility.yul\":3767:4111   */\n    tag_182:\n        /* \"#utility.yul\":3845:3848   */\n      0x00\n        /* \"#utility.yul\":3873:3912   */\n      tag_184\n        /* \"#utility.yul\":3906:3911   */\n      dup3\n        /* \"#utility.yul\":3873:3912   */\n      tag_185\n      jump\t// in\n    tag_184:\n        /* \"#utility.yul\":3928:3989   */\n      tag_186\n        /* \"#utility.yul\":3982:3988   */\n      dup2\n        /* \"#utility.yul\":3977:3980   */\n      dup6\n        /* \"#utility.yul\":3928:3989   */\n      tag_187\n      jump\t// in\n    tag_186:\n        /* \"#utility.yul\":3921:3989   */\n      swap4\n      pop\n        /* \"#utility.yul\":3998:4050   */\n      tag_188\n        /* \"#utility.yul\":4043:4049   */\n      dup2\n        /* \"#utility.yul\":4038:4041   */\n      dup6\n        /* \"#utility.yul\":4031:4035   */\n      0x20\n        /* \"#utility.yul\":4024:4029   */\n      dup7\n        /* \"#utility.yul\":4020:4036   */\n      add\n        /* \"#utility.yul\":3998:4050   */\n      tag_189\n      jump\t// in\n    tag_188:\n        /* \"#utility.yul\":4075:4104   */\n      tag_190\n        /* \"#utility.yul\":4097:4103   */\n      dup2\n        /* \"#utility.yul\":4075:4104   */\n      tag_191\n      jump\t// in\n    tag_190:\n        /* \"#utility.yul\":4070:4073   */\n      dup5\n        /* \"#utility.yul\":4066:4105   */\n      add\n        /* \"#utility.yul\":4059:4105   */\n      swap2\n      pop\n        /* \"#utility.yul\":3849:4111   */\n      pop\n        /* \"#utility.yul\":3767:4111   */\n      swap3\n      swap2\n      pop\n      pop\n      jump\t// out\n        /* \"#utility.yul\":4117:4481   */\n    tag_192:\n        /* \"#utility.yul\":4205:4208   */\n      0x00\n        /* \"#utility.yul\":4233:4272   */\n      tag_194\n        /* \"#utility.yul\":4266:4271   */\n      dup3\n        /* \"#utility.yul\":4233:4272   */\n      tag_185\n      jump\t// in\n    tag_194:\n        /* \"#utility.yul\":4288:4359   */\n      tag_195\n        /* \"#utility.yul\":4352:4358   */\n      dup2\n        /* \"#utility.yul\":4347:4350   */\n      dup6\n        /* \"#utility.yul\":4288:4359   */\n      tag_196\n      jump\t// in\n    tag_195:\n        /* \"#utility.yul\":4281:4359   */\n      swap4\n      pop\n        /* \"#utility.yul\":4368:4420   */\n      tag_197\n        /* \"#utility.yul\":4413:4419   */\n      dup2\n        /* \"#utility.yul\":4408:4411   */\n      dup6\n        /* \"#utility.yul\":4401:4405   */\n      0x20\n        /* \"#utility.yul\":4394:4399   */\n      dup7\n        /* \"#utility.yul\":4390:4406   */\n      add\n        /* \"#utility.yul\":4368:4420   */\n      tag_189\n      jump\t// in\n    tag_197:\n        /* \"#utility.yul\":4445:4474   */\n      tag_198\n        /* \"#utility.yul\":4467:4473   */\n      dup2\n        /* \"#utility.yul\":4445:4474   */\n      tag_191\n      jump\t// in\n    tag_198:\n        /* \"#utility.yul\":4440:4443   */\n      dup5\n        /* \"#utility.yul\":4436:4475   */\n      add\n        /* \"#utility.yul\":4429:4475   */\n      swap2\n      pop\n        /* \"#utility.yul\":4209:4481   */\n      pop\n        /* \"#utility.yul\":4117:4481   */\n      swap3\n      swap2\n      pop\n      pop\n      jump\t// out\n        /* \"#utility.yul\":4533:5488   */\n    tag_199:\n        /* \"#utility.yul\":4642:4645   */\n      0x00\n        /* \"#utility.yul\":4678:4682   */\n      0x80\n        /* \"#utility.yul\":4673:4676   */\n      dup4\n        /* \"#utility.yul\":4669:4683   */\n      add\n        /* \"#utility.yul\":4774:4778   */\n      0x00\n        /* \"#utility.yul\":4767:4772   */\n      dup4\n        /* \"#utility.yul\":4763:4779   */\n      add\n        /* \"#utility.yul\":4757:4780   */\n      mload\n        /* \"#utility.yul\":4793:4856   */\n      tag_201\n        /* \"#utility.yul\":4850:4854   */\n      0x00\n        /* \"#utility.yul\":4845:4848   */\n      dup7\n        /* \"#utility.yul\":4841:4855   */\n      add\n        /* \"#utility.yul\":4827:4839   */\n      dup3\n        /* \"#utility.yul\":4793:4856   */\n      tag_168\n      jump\t// in\n    tag_201:\n        /* \"#utility.yul\":4693:4866   */\n      pop\n        /* \"#utility.yul\":4948:4952   */\n      0x20\n        /* \"#utility.yul\":4941:4946   */\n      dup4\n        /* \"#utility.yul\":4937:4953   */\n      add\n        /* \"#utility.yul\":4931:4954   */\n      mload\n        /* \"#utility.yul\":5001:5004   */\n      dup5\n        /* \"#utility.yul\":4995:4999   */\n      dup3\n        /* \"#utility.yul\":4991:5005   */\n      sub\n        /* \"#utility.yul\":4984:4988   */\n      0x20\n        /* \"#utility.yul\":4979:4982   */\n      dup7\n        /* \"#utility.yul\":4975:4989   */\n      add\n        /* \"#utility.yul\":4968:5006   */\n      mstore\n        /* \"#utility.yul\":5027:5100   */\n      tag_202\n        /* \"#utility.yul\":5095:5099   */\n      dup3\n        /* \"#utility.yul\":5081:5093   */\n      dup3\n        /* \"#utility.yul\":5027:5100   */\n      tag_182\n      jump\t// in\n    tag_202:\n        /* \"#utility.yul\":5019:5100   */\n      swap2\n      pop\n        /* \"#utility.yul\":4876:5111   */\n      pop\n        /* \"#utility.yul\":5195:5199   */\n      0x40\n        /* \"#utility.yul\":5188:5193   */\n      dup4\n        /* \"#utility.yul\":5184:5200   */\n      add\n        /* \"#utility.yul\":5178:5201   */\n      mload\n        /* \"#utility.yul\":5214:5277   */\n      tag_203\n        /* \"#utility.yul\":5271:5275   */\n      0x40\n        /* \"#utility.yul\":5266:5269   */\n      dup7\n        /* \"#utility.yul\":5262:5276   */\n      add\n        /* \"#utility.yul\":5248:5260   */\n      dup3\n        /* \"#utility.yul\":5214:5277   */\n      tag_204\n      jump\t// in\n    tag_203:\n        /* \"#utility.yul\":5121:5287   */\n      pop\n        /* \"#utility.yul\":5375:5379   */\n      0x60\n        /* \"#utility.yul\":5368:5373   */\n      dup4\n        /* \"#utility.yul\":5364:5380   */\n      add\n        /* \"#utility.yul\":5358:5381   */\n      mload\n        /* \"#utility.yul\":5394:5451   */\n      tag_205\n        /* \"#utility.yul\":5445:5449   */\n      0x60\n        /* \"#utility.yul\":5440:5443   */\n      dup7\n        /* \"#utility.yul\":5436:5450   */\n      add\n        /* \"#utility.yul\":5422:5434   */\n      dup3\n        /* \"#utility.yul\":5394:5451   */\n      tag_175\n      jump\t// in\n    tag_205:\n        /* \"#utility.yul\":5297:5461   */\n      pop\n        /* \"#utility.yul\":5478:5482   */\n      dup1\n        /* \"#utility.yul\":5471:5482   */\n      swap2\n      pop\n        /* \"#utility.yul\":4647:5488   */\n      pop\n        /* \"#utility.yul\":4533:5488   */\n      swap3\n      swap2\n      pop\n      pop\n      jump\t// out\n        /* \"#utility.yul\":5494:5602   */\n    tag_204:\n        /* \"#utility.yul\":5571:5595   */\n      tag_207\n        /* \"#utility.yul\":5589:5594   */\n      dup2\n        /* \"#utility.yul\":5571:5595   */\n      tag_208\n      jump\t// in\n    tag_207:\n        /* \"#utility.yul\":5566:5569   */\n      dup3\n        /* \"#utility.yul\":5559:5596   */\n      mstore\n        /* \"#utility.yul\":5494:5602   */\n      pop\n      pop\n      jump\t// out\n        /* \"#utility.yul\":5608:5726   */\n    tag_209:\n        /* \"#utility.yul\":5695:5719   */\n      tag_211\n        /* \"#utility.yul\":5713:5718   */\n      dup2\n        /* \"#utility.yul\":5695:5719   */\n      tag_208\n      jump\t// in\n    tag_211:\n        /* \"#utility.yul\":5690:5693   */\n      dup3\n        /* \"#utility.yul\":5683:5720   */\n      mstore\n        /* \"#utility.yul\":5608:5726   */\n      pop\n      pop\n      jump\t// out\n        /* \"#utility.yul\":5732:6364   */\n    tag_30:\n        /* \"#utility.yul\":5923:5927   */\n      0x00\n        /* \"#utility.yul\":5961:5964   */\n      0x80\n        /* \"#utility.yul\":5950:5959   */\n      dup3\n        /* \"#utility.yul\":5946:5965   */\n      add\n        /* \"#utility.yul\":5938:5965   */\n      swap1\n      pop\n        /* \"#utility.yul\":5975:6046   */\n      tag_213\n        /* \"#utility.yul\":6043:6044   */\n      0x00\n        /* \"#utility.yul\":6032:6041   */\n      dup4\n        /* \"#utility.yul\":6028:6045   */\n      add\n        /* \"#utility.yul\":6019:6025   */\n      dup8\n        /* \"#utility.yul\":5975:6046   */\n      tag_172\n      jump\t// in\n    tag_213:\n        /* \"#utility.yul\":6093:6102   */\n      dup2\n        /* \"#utility.yul\":6087:6091   */\n      dup2\n        /* \"#utility.yul\":6083:6103   */\n      sub\n        /* \"#utility.yul\":6078:6080   */\n      0x20\n        /* \"#utility.yul\":6067:6076   */\n      dup4\n        /* \"#utility.yul\":6063:6081   */\n      add\n        /* \"#utility.yul\":6056:6104   */\n      mstore\n        /* \"#utility.yul\":6121:6199   */\n      tag_214\n        /* \"#utility.yul\":6194:6198   */\n      dup2\n        /* \"#utility.yul\":6185:6191   */\n      dup7\n        /* \"#utility.yul\":6121:6199   */\n      tag_192\n      jump\t// in\n    tag_214:\n        /* \"#utility.yul\":6113:6199   */\n      swap1\n      pop\n        /* \"#utility.yul\":6209:6281   */\n      tag_215\n        /* \"#utility.yul\":6277:6279   */\n      0x40\n        /* \"#utility.yul\":6266:6275   */\n      dup4\n        /* \"#utility.yul\":6262:6280   */\n      add\n        /* \"#utility.yul\":6253:6259   */\n      dup6\n        /* \"#utility.yul\":6209:6281   */\n      tag_209\n      jump\t// in\n    tag_215:\n        /* \"#utility.yul\":6291:6357   */\n      tag_216\n        /* \"#utility.yul\":6353:6355   */\n      0x60\n        /* \"#utility.yul\":6342:6351   */\n      dup4\n        /* \"#utility.yul\":6338:6356   */\n      add\n        /* \"#utility.yul\":6329:6335   */\n      dup5\n        /* \"#utility.yul\":6291:6357   */\n      tag_179\n      jump\t// in\n    tag_216:\n        /* \"#utility.yul\":5732:6364   */\n      swap6\n      swap5\n      pop\n      pop\n      pop\n      pop\n      pop\n      jump\t// out\n        /* \"#utility.yul\":6370:6723   */\n    tag_36:\n        /* \"#utility.yul\":6503:6507   */\n      0x00\n        /* \"#utility.yul\":6541:6543   */\n      0x20\n        /* \"#utility.yul\":6530:6539   */\n      dup3\n        /* \"#utility.yul\":6526:6544   */\n      add\n        /* \"#utility.yul\":6518:6544   */\n      swap1\n      pop\n        /* \"#utility.yul\":6590:6599   */\n      dup2\n        /* \"#utility.yul\":6584:6588   */\n      dup2\n        /* \"#utility.yul\":6580:6600   */\n      sub\n        /* \"#utility.yul\":6576:6577   */\n      0x00\n        /* \"#utility.yul\":6565:6574   */\n      dup4\n        /* \"#utility.yul\":6561:6578   */\n      add\n        /* \"#utility.yul\":6554:6601   */\n      mstore\n        /* \"#utility.yul\":6618:6716   */\n      tag_218\n        /* \"#utility.yul\":6711:6715   */\n      dup2\n        /* \"#utility.yul\":6702:6708   */\n      dup5\n        /* \"#utility.yul\":6618:6716   */\n      tag_199\n      jump\t// in\n    tag_218:\n        /* \"#utility.yul\":6610:6716   */\n      swap1\n      pop\n        /* \"#utility.yul\":6370:6723   */\n      swap3\n      swap2\n      pop\n      pop\n      jump\t// out\n        /* \"#utility.yul\":6729:6951   */\n    tag_42:\n        /* \"#utility.yul\":6822:6826   */\n      0x00\n        /* \"#utility.yul\":6860:6862   */\n      0x20\n        /* \"#utility.yul\":6849:6858   */\n      dup3\n        /* \"#utility.yul\":6845:6863   */\n      add\n        /* \"#utility.yul\":6837:6863   */\n      swap1\n      pop\n        /* \"#utility.yul\":6873:6944   */\n      tag_220\n        /* \"#utility.yul\":6941:6942   */\n      0x00\n        /* \"#utility.yul\":6930:6939   */\n      dup4\n        /* \"#utility.yul\":6926:6943   */\n      add\n        /* \"#utility.yul\":6917:6923   */\n      dup5\n        /* \"#utility.yul\":6873:6944   */\n      tag_209\n      jump\t// in\n    tag_220:\n        /* \"#utility.yul\":6729:6951   */\n      swap3\n      swap2\n      pop\n      pop\n      jump\t// out\n        /* \"#utility.yul\":6957:7086   */\n    tag_120:\n        /* \"#utility.yul\":6991:6997   */\n      0x00\n        /* \"#utility.yul\":7018:7038   */\n      tag_222\n      tag_223\n      jump\t// in\n    tag_222:\n        /* \"#utility.yul\":7008:7038   */\n      swap1\n      pop\n        /* \"#utility.yul\":7047:7080   */\n      tag_224\n        /* \"#utility.yul\":7075:7079   */\n      dup3\n        /* \"#utility.yul\":7067:7073   */\n      dup3\n        /* \"#utility.yul\":7047:7080   */\n      tag_225\n      jump\t// in\n    tag_224:\n        /* \"#utility.yul\":6957:7086   */\n      swap2\n      swap1\n      pop\n      jump\t// out\n        /* \"#utility.yul\":7092:7167   */\n    tag_223:\n        /* \"#utility.yul\":7125:7131   */\n      0x00\n        /* \"#utility.yul\":7158:7160   */\n      0x40\n        /* \"#utility.yul\":7152:7161   */\n      mload\n        /* \"#utility.yul\":7142:7161   */\n      swap1\n      pop\n        /* \"#utility.yul\":7092:7167   */\n      swap1\n      jump\t// out\n        /* \"#utility.yul\":7173:7481   */\n    tag_119:\n        /* \"#utility.yul\":7235:7239   */\n      0x00\n        /* \"#utility.yul\":7325:7343   */\n      0xffffffffffffffff\n        /* \"#utility.yul\":7317:7323   */\n      dup3\n        /* \"#utility.yul\":7314:7344   */\n      gt\n        /* \"#utility.yul\":7311:7367   */\n      iszero\n      tag_228\n      jumpi\n        /* \"#utility.yul\":7347:7365   */\n      tag_229\n      tag_230\n      jump\t// in\n    tag_229:\n        /* \"#utility.yul\":7311:7367   */\n    tag_228:\n        /* \"#utility.yul\":7385:7414   */\n      tag_231\n        /* \"#utility.yul\":7407:7413   */\n      dup3\n        /* \"#utility.yul\":7385:7414   */\n      tag_191\n      jump\t// in\n    tag_231:\n        /* \"#utility.yul\":7377:7414   */\n      swap1\n      pop\n        /* \"#utility.yul\":7469:7473   */\n      0x20\n        /* \"#utility.yul\":7463:7467   */\n      dup2\n        /* \"#utility.yul\":7459:7474   */\n      add\n        /* \"#utility.yul\":7451:7474   */\n      swap1\n      pop\n        /* \"#utility.yul\":7173:7481   */\n      swap2\n      swap1\n      pop\n      jump\t// out\n        /* \"#utility.yul\":7487:7586   */\n    tag_185:\n        /* \"#utility.yul\":7539:7545   */\n      0x00\n        /* \"#utility.yul\":7573:7578   */\n      dup2\n        /* \"#utility.yul\":7567:7579   */\n      mload\n        /* \"#utility.yul\":7557:7579   */\n      swap1\n      pop\n        /* \"#utility.yul\":7487:7586   */\n      swap2\n      swap1\n      pop\n      jump\t// out\n        /* \"#utility.yul\":7592:7751   */\n    tag_187:\n        /* \"#utility.yul\":7666:7677   */\n      0x00\n        /* \"#utility.yul\":7700:7706   */\n      dup3\n        /* \"#utility.yul\":7695:7698   */\n      dup3\n        /* \"#utility.yul\":7688:7707   */\n      mstore\n        /* \"#utility.yul\":7740:7744   */\n      0x20\n        /* \"#utility.yul\":7735:7738   */\n      dup3\n        /* \"#utility.yul\":7731:7745   */\n      add\n        /* \"#utility.yul\":7716:7745   */\n      swap1\n      pop\n        /* \"#utility.yul\":7592:7751   */\n      swap3\n      swap2\n      pop\n      pop\n      jump\t// out\n        /* \"#utility.yul\":7757:7926   */\n    tag_196:\n        /* \"#utility.yul\":7841:7852   */\n      0x00\n        /* \"#utility.yul\":7875:7881   */\n      dup3\n        /* \"#utility.yul\":7870:7873   */\n      dup3\n        /* \"#utility.yul\":7863:7882   */\n      mstore\n        /* \"#utility.yul\":7915:7919   */\n      0x20\n        /* \"#utility.yul\":7910:7913   */\n      dup3\n        /* \"#utility.yul\":7906:7920   */\n      add\n        /* \"#utility.yul\":7891:7920   */\n      swap1\n      pop\n        /* \"#utility.yul\":7757:7926   */\n      swap3\n      swap2\n      pop\n      pop\n      jump\t// out\n        /* \"#utility.yul\":7932:8237   */\n    tag_102:\n        /* \"#utility.yul\":7972:7975   */\n      0x00\n        /* \"#utility.yul\":7991:8011   */\n      tag_236\n        /* \"#utility.yul\":8009:8010   */\n      dup3\n        /* \"#utility.yul\":7991:8011   */\n      tag_208\n      jump\t// in\n    tag_236:\n        /* \"#utility.yul\":7986:8011   */\n      swap2\n      pop\n        /* \"#utility.yul\":8025:8045   */\n      tag_237\n        /* \"#utility.yul\":8043:8044   */\n      dup4\n        /* \"#utility.yul\":8025:8045   */\n      tag_208\n      jump\t// in\n    tag_237:\n        /* \"#utility.yul\":8020:8045   */\n      swap3\n      pop\n        /* \"#utility.yul\":8179:8180   */\n      dup3\n        /* \"#utility.yul\":8111:8177   */\n      0xffffffffffffffffffffffffffffffffffffffffffffffffffffffffffffffff\n        /* \"#utility.yul\":8107:8181   */\n      sub\n        /* \"#utility.yul\":8104:8105   */\n      dup3\n        /* \"#utility.yul\":8101:8182   */\n      gt\n        /* \"#utility.yul\":8098:8205   */\n      iszero\n      tag_238\n      jumpi\n        /* \"#utility.yul\":8185:8203   */\n      tag_239\n      tag_240\n      jump\t// in\n    tag_239:\n        /* \"#utility.yul\":8098:8205   */\n    tag_238:\n        /* \"#utility.yul\":8229:8230   */\n      dup3\n        /* \"#utility.yul\":8226:8227   */\n      dup3\n        /* \"#utility.yul\":8222:8231   */\n      add\n        /* \"#utility.yul\":8215:8231   */\n      swap1\n      pop\n        /* \"#utility.yul\":7932:8237   */\n      swap3\n      swap2\n      pop\n      pop\n      jump\t// out\n        /* \"#utility.yul\":8243:8339   */\n    tag_171:\n        /* \"#utility.yul\":8280:8287   */\n      0x00\n        /* \"#utility.yul\":8309:8333   */\n      tag_242\n        /* \"#utility.yul\":8327:8332   */\n      dup3\n        /* \"#utility.yul\":8309:8333   */\n      tag_243\n      jump\t// in\n    tag_242:\n        /* \"#utility.yul\":8298:8333   */\n      swap1\n      pop\n        /* \"#utility.yul\":8243:8339   */\n      swap2\n      swap1\n      pop\n      jump\t// out\n        /* \"#utility.yul\":8345:8435   */\n    tag_178:\n        /* \"#utility.yul\":8379:8386   */\n      0x00\n        /* \"#utility.yul\":8422:8427   */\n      dup2\n        /* \"#utility.yul\":8415:8428   */\n      iszero\n        /* \"#utility.yul\":8408:8429   */\n      iszero\n        /* \"#utility.yul\":8397:8429   */\n      swap1\n      pop\n        /* \"#utility.yul\":8345:8435   */\n      swap2\n      swap1\n      pop\n      jump\t// out\n        /* \"#utility.yul\":8441:8567   */\n    tag_243:\n        /* \"#utility.yul\":8478:8485   */\n      0x00\n        /* \"#utility.yul\":8518:8560   */\n      0xffffffffffffffffffffffffffffffffffffffff\n        /* \"#utility.yul\":8511:8516   */\n      dup3\n        /* \"#utility.yul\":8507:8561   */\n      and\n        /* \"#utility.yul\":8496:8561   */\n      swap1\n      pop\n        /* \"#utility.yul\":8441:8567   */\n      swap2\n      swap1\n      pop\n      jump\t// out\n        /* \"#utility.yul\":8573:8650   */\n    tag_208:\n        /* \"#utility.yul\":8610:8617   */\n      0x00\n        /* \"#utility.yul\":8639:8644   */\n      dup2\n        /* \"#utility.yul\":8628:8644   */\n      swap1\n      pop\n        /* \"#utility.yul\":8573:8650   */\n      swap2\n      swap1\n      pop\n      jump\t// out\n        /* \"#utility.yul\":8656:8810   */\n    tag_125:\n        /* \"#utility.yul\":8740:8746   */\n      dup3\n        /* \"#utility.yul\":8735:8738   */\n      dup2\n        /* \"#utility.yul\":8730:8733   */\n      dup4\n        /* \"#utility.yul\":8717:8747   */\n      calldatacopy\n        /* \"#utility.yul\":8802:8803   */\n      0x00\n        /* \"#utility.yul\":8793:8799   */\n      dup4\n        /* \"#utility.yul\":8788:8791   */\n      dup4\n        /* \"#utility.yul\":8784:8800   */\n      add\n        /* \"#utility.yul\":8777:8804   */\n      mstore\n        /* \"#utility.yul\":8656:8810   */\n      pop\n      pop\n      pop\n      jump\t// out\n        /* \"#utility.yul\":8816:9123   */\n    tag_189:\n        /* \"#utility.yul\":8884:8885   */\n      0x00\n        /* \"#utility.yul\":8894:9007   */\n    tag_249:\n        /* \"#utility.yul\":8908:8914   */\n      dup4\n        /* \"#utility.yul\":8905:8906   */\n      dup2\n        /* \"#utility.yul\":8902:8915   */\n      lt\n        /* \"#utility.yul\":8894:9007   */\n      iszero\n      tag_251\n      jumpi\n        /* \"#utility.yul\":8993:8994   */\n      dup1\n        /* \"#utility.yul\":8988:8991   */\n      dup3\n        /* \"#utility.yul\":8984:8995   */\n      add\n        /* \"#utility.yul\":8978:8996   */\n      mload\n        /* \"#utility.yul\":8974:8975   */\n      dup2\n        /* \"#utility.yul\":8969:8972   */\n      dup5\n        /* \"#utility.yul\":8965:8976   */\n      add\n        /* \"#utility.yul\":8958:8997   */\n      mstore\n        /* \"#utility.yul\":8930:8932   */\n      0x20\n        /* \"#utility.yul\":8927:8928   */\n      dup2\n        /* \"#utility.yul\":8923:8933   */\n      add\n        /* \"#utility.yul\":8918:8933   */\n      swap1\n      pop\n        /* \"#utility.yul\":8894:9007   */\n      jump(tag_249)\n    tag_251:\n        /* \"#utility.yul\":9025:9031   */\n      dup4\n        /* \"#utility.yul\":9022:9023   */\n      dup2\n        /* \"#utility.yul\":9019:9032   */\n      gt\n        /* \"#utility.yul\":9016:9117   */\n      iszero\n      tag_252\n      jumpi\n        /* \"#utility.yul\":9105:9106   */\n      0x00\n        /* \"#utility.yul\":9096:9102   */\n      dup5\n        /* \"#utility.yul\":9091:9094   */\n      dup5\n        /* \"#utility.yul\":9087:9103   */\n      add\n        /* \"#utility.yul\":9080:9107   */\n      mstore\n        /* \"#utility.yul\":9016:9117   */\n    tag_252:\n        /* \"#utility.yul\":8865:9123   */\n      pop\n        /* \"#utility.yul\":8816:9123   */\n      pop\n      pop\n      pop\n      jump\t// out\n        /* \"#utility.yul\":9129:9449   */\n    tag_60:\n        /* \"#utility.yul\":9173:9179   */\n      0x00\n        /* \"#utility.yul\":9210:9211   */\n      0x02\n        /* \"#utility.yul\":9204:9208   */\n      dup3\n        /* \"#utility.yul\":9200:9212   */\n      div\n        /* \"#utility.yul\":9190:9212   */\n      swap1\n      pop\n        /* \"#utility.yul\":9257:9258   */\n      0x01\n        /* \"#utility.yul\":9251:9255   */\n      dup3\n        /* \"#utility.yul\":9247:9259   */\n      and\n        /* \"#utility.yul\":9278:9296   */\n      dup1\n        /* \"#utility.yul\":9268:9349   */\n      tag_254\n      jumpi\n        /* \"#utility.yul\":9334:9338   */\n      0x7f\n        /* \"#utility.yul\":9326:9332   */\n      dup3\n        /* \"#utility.yul\":9322:9339   */\n      and\n        /* \"#utility.yul\":9312:9339   */\n      swap2\n      pop\n        /* \"#utility.yul\":9268:9349   */\n    tag_254:\n        /* \"#utility.yul\":9396:9398   */\n      0x20\n        /* \"#utility.yul\":9388:9394   */\n      dup3\n        /* \"#utility.yul\":9385:9399   */\n      lt\n        /* \"#utility.yul\":9365:9383   */\n      dup2\n        /* \"#utility.yul\":9362:9400   */\n      eq\n        /* \"#utility.yul\":9359:9443   */\n      iszero\n      tag_255\n      jumpi\n        /* \"#utility.yul\":9415:9433   */\n      tag_256\n      tag_257\n      jump\t// in\n    tag_256:\n        /* \"#utility.yul\":9359:9443   */\n    tag_255:\n        /* \"#utility.yul\":9180:9449   */\n      pop\n        /* \"#utility.yul\":9129:9449   */\n      swap2\n      swap1\n      pop\n      jump\t// out\n        /* \"#utility.yul\":9455:9736   */\n    tag_225:\n        /* \"#utility.yul\":9538:9565   */\n      tag_259\n        /* \"#utility.yul\":9560:9564   */\n      dup3\n        /* \"#utility.yul\":9538:9565   */\n      tag_191\n      jump\t// in\n    tag_259:\n        /* \"#utility.yul\":9530:9536   */\n      dup2\n        /* \"#utility.yul\":9526:9566   */\n      add\n        /* \"#utility.yul\":9668:9674   */\n      dup2\n        /* \"#utility.yul\":9656:9666   */\n      dup2\n        /* \"#utility.yul\":9653:9675   */\n      lt\n        /* \"#utility.yul\":9632:9650   */\n      0xffffffffffffffff\n        /* \"#utility.yul\":9620:9630   */\n      dup3\n        /* \"#utility.yul\":9617:9651   */\n      gt\n        /* \"#utility.yul\":9614:9676   */\n      or\n        /* \"#utility.yul\":9611:9699   */\n      iszero\n      tag_260\n      jumpi\n        /* \"#utility.yul\":9679:9697   */\n      tag_261\n      tag_230\n      jump\t// in\n    tag_261:\n        /* \"#utility.yul\":9611:9699   */\n    tag_260:\n        /* \"#utility.yul\":9719:9729   */\n      dup1\n        /* \"#utility.yul\":9715:9717   */\n      0x40\n        /* \"#utility.yul\":9708:9730   */\n      mstore\n        /* \"#utility.yul\":9498:9736   */\n      pop\n        /* \"#utility.yul\":9455:9736   */\n      pop\n      pop\n      jump\t// out\n        /* \"#utility.yul\":9742:9975   */\n    tag_77:\n        /* \"#utility.yul\":9781:9784   */\n      0x00\n        /* \"#utility.yul\":9804:9828   */\n      tag_263\n        /* \"#utility.yul\":9822:9827   */\n      dup3\n        /* \"#utility.yul\":9804:9828   */\n      tag_208\n      jump\t// in\n    tag_263:\n        /* \"#utility.yul\":9795:9828   */\n      swap2\n      pop\n        /* \"#utility.yul\":9850:9916   */\n      0xffffffffffffffffffffffffffffffffffffffffffffffffffffffffffffffff\n        /* \"#utility.yul\":9843:9848   */\n      dup3\n        /* \"#utility.yul\":9840:9917   */\n      eq\n        /* \"#utility.yul\":9837:9940   */\n      iszero\n      tag_264\n      jumpi\n        /* \"#utility.yul\":9920:9938   */\n      tag_265\n      tag_240\n      jump\t// in\n    tag_265:\n        /* \"#utility.yul\":9837:9940   */\n    tag_264:\n        /* \"#utility.yul\":9967:9968   */\n      0x01\n        /* \"#utility.yul\":9960:9965   */\n      dup3\n        /* \"#utility.yul\":9956:9969   */\n      add\n        /* \"#utility.yul\":9949:9969   */\n      swap1\n      pop\n        /* \"#utility.yul\":9742:9975   */\n      swap2\n      swap1\n      pop\n      jump\t// out\n        /* \"#utility.yul\":9981:10161   */\n    tag_240:\n        /* \"#utility.yul\":10029:10106   */\n      0x4e487b7100000000000000000000000000000000000000000000000000000000\n        /* \"#utility.yul\":10026:10027   */\n      0x00\n        /* \"#utility.yul\":10019:10107   */\n      mstore\n        /* \"#utility.yul\":10126:10130   */\n      0x11\n        /* \"#utility.yul\":10123:10124   */\n      0x04\n        /* \"#utility.yul\":10116:10131   */\n      mstore\n        /* \"#utility.yul\":10150:10154   */\n      0x24\n        /* \"#utility.yul\":10147:10148   */\n      0x00\n        /* \"#utility.yul\":10140:10155   */\n      revert\n        /* \"#utility.yul\":10167:10347   */\n    tag_257:\n        /* \"#utility.yul\":10215:10292   */\n      0x4e487b7100000000000000000000000000000000000000000000000000000000\n        /* \"#utility.yul\":10212:10213   */\n      0x00\n        /* \"#utility.yul\":10205:10293   */\n      mstore\n        /* \"#utility.yul\":10312:10316   */\n      0x22\n        /* \"#utility.yul\":10309:10310   */\n      0x04\n        /* \"#utility.yul\":10302:10317   */\n      mstore\n        /* \"#utility.yul\":10336:10340   */\n      0x24\n        /* \"#utility.yul\":10333:10334   */\n      0x00\n        /* \"#utility.yul\":10326:10341   */\n      revert\n        /* \"#utility.yul\":10353:10533   */\n    tag_73:\n        /* \"#utility.yul\":10401:10478   */\n      0x4e487b7100000000000000000000000000000000000000000000000000000000\n        /* \"#utility.yul\":10398:10399   */\n      0x00\n        /* \"#utility.yul\":10391:10479   */\n      mstore\n        /* \"#utility.yul\":10498:10502   */\n      0x32\n        /* \"#utility.yul\":10495:10496   */\n      0x04\n        /* \"#utility.yul\":10488:10503   */\n      mstore\n        /* \"#utility.yul\":10522:10526   */\n      0x24\n        /* \"#utility.yul\":10519:10520   */\n      0x00\n        /* \"#utility.yul\":10512:10527   */\n      revert\n        /* \"#utility.yul\":10539:10719   */\n    tag_230:\n        /* \"#utility.yul\":10587:10664   */\n      0x4e487b7100000000000000000000000000000000000000000000000000000000\n        /* \"#utility.yul\":10584:10585   */\n      0x00\n        /* \"#utility.yul\":10577:10665   */\n      mstore\n        /* \"#utility.yul\":10684:10688   */\n      0x41\n        /* \"#utility.yul\":10681:10682   */\n      0x04\n        /* \"#utility.yul\":10674:10689   */\n      mstore\n        /* \"#utility.yul\":10708:10712   */\n      0x24\n        /* \"#utility.yul\":10705:10706   */\n      0x00\n        /* \"#utility.yul\":10698:10713   */\n      revert\n        /* \"#utility.yul\":10725:10842   */\n    tag_138:\n        /* \"#utility.yul\":10834:10835   */\n      0x00\n        /* \"#utility.yul\":10831:10832   */\n      dup1\n        /* \"#utility.yul\":10824:10836   */\n      revert\n        /* \"#utility.yul\":10848:10965   */\n    tag_123:\n        /* \"#utility.yul\":10957:10958   */\n      0x00\n        /* \"#utility.yul\":10954:10955   */\n      dup1\n        /* \"#utility.yul\":10947:10959   */\n      revert\n        /* \"#utility.yul\":10971:11088   */\n    tag_155:\n        /* \"#utility.yul\":11080:11081   */\n      0x00\n        /* \"#utility.yul\":11077:11078   */\n      dup1\n        /* \"#utility.yul\":11070:11082   */\n      revert\n        /* \"#utility.yul\":11094:11211   */\n    tag_147:\n        /* \"#utility.yul\":11203:11204   */\n      0x00\n        /* \"#utility.yul\":11200:11201   */\n      dup1\n        /* \"#utility.yul\":11193:11205   */\n      revert\n        /* \"#utility.yul\":11217:11319   */\n    tag_191:\n        /* \"#utility.yul\":11258:11264   */\n      0x00\n        /* \"#utility.yul\":11309:11311   */\n      0x1f\n        /* \"#utility.yul\":11305:11312   */\n      not\n        /* \"#utility.yul\":11300:11302   */\n      0x1f\n        /* \"#utility.yul\":11293:11298   */\n      dup4\n        /* \"#utility.yul\":11289:11303   */\n      add\n        /* \"#utility.yul\":11285:11313   */\n      and\n        /* \"#utility.yul\":11275:11313   */\n      swap1\n      pop\n        /* \"#utility.yul\":11217:11319   */\n      swap2\n      swap1\n      pop\n      jump\t// out\n        /* \"#utility.yul\":11325:11447   */\n    tag_129:\n        /* \"#utility.yul\":11398:11422   */\n      tag_276\n        /* \"#utility.yul\":11416:11421   */\n      dup2\n        /* \"#utility.yul\":11398:11422   */\n      tag_171\n      jump\t// in\n    tag_276:\n        /* \"#utility.yul\":11391:11396   */\n      dup2\n        /* \"#utility.yul\":11388:11423   */\n      eq\n        /* \"#utility.yul\":11378:11441   */\n      tag_277\n      jumpi\n        /* \"#utility.yul\":11437:11438   */\n      0x00\n        /* \"#utility.yul\":11434:11435   */\n      dup1\n        /* \"#utility.yul\":11427:11439   */\n      revert\n        /* \"#utility.yul\":11378:11441   */\n    tag_277:\n        /* \"#utility.yul\":11325:11447   */\n      pop\n      jump\t// out\n        /* \"#utility.yul\":11453:11569   */\n    tag_133:\n        /* \"#utility.yul\":11523:11544   */\n      tag_279\n        /* \"#utility.yul\":11538:11543   */\n      dup2\n        /* \"#utility.yul\":11523:11544   */\n      tag_178\n      jump\t// in\n    tag_279:\n        /* \"#utility.yul\":11516:11521   */\n      dup2\n        /* \"#utility.yul\":11513:11545   */\n      eq\n        /* \"#utility.yul\":11503:11563   */\n      tag_280\n      jumpi\n        /* \"#utility.yul\":11559:11560   */\n      0x00\n        /* \"#utility.yul\":11556:11557   */\n      dup1\n        /* \"#utility.yul\":11549:11561   */\n      revert\n        /* \"#utility.yul\":11503:11563   */\n    tag_280:\n        /* \"#utility.yul\":11453:11569   */\n      pop\n      jump\t// out\n        /* \"#utility.yul\":11575:11697   */\n    tag_143:\n        /* \"#utility.yul\":11648:11672   */\n      tag_282\n        /* \"#utility.yul\":11666:11671   */\n      dup2\n        /* \"#utility.yul\":11648:11672   */\n      tag_208\n      jump\t// in\n    tag_282:\n        /* \"#utility.yul\":11641:11646   */\n      dup2\n        /* \"#utility.yul\":11638:11673   */\n      eq\n        /* \"#utility.yul\":11628:11691   */\n      tag_283\n      jumpi\n        /* \"#utility.yul\":11687:11688   */\n      0x00\n        /* \"#utility.yul\":11684:11685   */\n      dup1\n        /* \"#utility.yul\":11677:11689   */\n      revert\n        /* \"#utility.yul\":11628:11691   */\n    tag_283:\n        /* \"#utility.yul\":11575:11697   */\n      pop\n      jump\t// out\n\n    auxdata: 0xa2646970667358221220f52b5235f267798770e885b4ab51fd5f2c786f16939483bfd53ed4cb0beb9a9064736f6c63430008070033\n}\n",
				"bytecode": {
					"linkReferences": {},
					"object": "608060405234801561001057600080fd5b50336000806101000a81548173ffffffffffffffffffffffffffffffffffffffff021916908373ffffffffffffffffffffffffffffffffffffffff160217905550610e43806100606000396000f3fe6080604052600436106100705760003560e01c8063365b98b21161004e578063365b98b2146100e357806369c212f6146101235780636f7bc9be1461016057806370a082311461019d57610070565b80630b1019f0146100755780631a6952301461009e578063280879e7146100ba575b600080fd5b34801561008157600080fd5b5061009c600480360381019061009791906108b3565b6101da565b005b6100b860048036038101906100b39190610803565b61022c565b005b3480156100c657600080fd5b506100e160048036038101906100dc9190610830565b610238565b005b3480156100ef57600080fd5b5061010a600480360381019061010591906108f3565b610332565b60405161011a9493929190610a4f565b60405180910390f35b34801561012f57600080fd5b5061014a60048036038101906101459190610803565b610427565b6040516101579190610a9b565b60405180910390f35b34801561016c57600080fd5b5061018760048036038101906101829190610803565b6104a1565b6040516101949190610abd565b60405180910390f35b3480156101a957600080fd5b506101c460048036038101906101bf9190610803565b6104b9565b6040516101d19190610abd565b60405180910390f35b80600260008473ffffffffffffffffffffffffffffffffffffffff1673ffffffffffffffffffffffffffffffffffffffff1681526020019081526020016000208190555061022782610427565b505050565b61023581610594565b50565b600160405180608001604052808673ffffffffffffffffffffffffffffffffffffffff168152602001858152602001848152602001831515815250908060018154018082558091505060019003906000526020600020906004020160009091909190915060008201518160000160006101000a81548173ffffffffffffffffffffffffffffffffffffffff021916908373ffffffffffffffffffffffffffffffffffffffff16021790555060208201518160010190805190602001906102ff929190610671565b506040820151816002015560608201518160030160006101000a81548160ff021916908315150217905550505050505050565b6001818154811061034257600080fd5b90600052602060002090600402016000915090508060000160009054906101000a900473ffffffffffffffffffffffffffffffffffffffff169080600101805461038b90610c3b565b80601f01602080910402602001604051908101604052809291908181526020018280546103b790610c3b565b80156104045780601f106103d957610100808354040283529160200191610404565b820191906000526020600020905b8154815290600101906020018083116103e757829003601f168201915b5050505050908060020154908060030160009054906101000a900460ff16905084565b61042f6106f7565b60005b60018054905081101561049b578273ffffffffffffffffffffffffffffffffffffffff166001828154811061046a57610469610d45565b5b906000526020600020906004020160000160009054906101000a90505050808061049390610c9e565b915050610432565b50919050565b60026020528060005260406000206000915090505481565b600080600090505b600180549050811015610588578273ffffffffffffffffffffffffffffffffffffffff16600182815481106104f9576104f8610d45565b5b906000526020600020906004020160000160009054906101000a900473ffffffffffffffffffffffffffffffffffffffff1673ffffffffffffffffffffffffffffffffffffffff161415610575576001818154811061055b5761055a610d45565b5b90600052602060002090600402016002015491505061058f565b808061058090610c9e565b9150506104c1565b506103e790505b919050565b60005b60018054905081101561066d578173ffffffffffffffffffffffffffffffffffffffff16600182815481106105cf576105ce610d45565b5b906000526020600020906004020160000160009054906101000a900473ffffffffffffffffffffffffffffffffffffffff1673ffffffffffffffffffffffffffffffffffffffff16141561065a57346001828154811061063257610631610d45565b5b906000526020600020906004020160020160008282546106529190610b5b565b925050819055505b808061066590610c9e565b915050610597565b5050565b82805461067d90610c3b565b90600052602060002090601f01602090048101928261069f57600085556106e6565b82601f106106b857805160ff19168380011785556106e6565b828001600101855582156106e6579182015b828111156106e55782518255916020019190600101906106ca565b5b5090506106f39190610737565b5090565b6040518060800160405280600073ffffffffffffffffffffffffffffffffffffffff16815260200160608152602001600081526020016000151581525090565b5b80821115610750576000816000905550600101610738565b5090565b600061076761076284610afd565b610ad8565b90508281526020810184848401111561078357610782610da8565b5b61078e848285610bf9565b509392505050565b6000813590506107a581610dc8565b92915050565b6000813590506107ba81610ddf565b92915050565b600082601f8301126107d5576107d4610da3565b5b81356107e5848260208601610754565b91505092915050565b6000813590506107fd81610df6565b92915050565b60006020828403121561081957610818610db2565b5b600061082784828501610796565b91505092915050565b6000806000806080858703121561084a57610849610db2565b5b600061085887828801610796565b945050602085013567ffffffffffffffff81111561087957610878610dad565b5b610885878288016107c0565b9350506040610896878288016107ee565b92505060606108a7878288016107ab565b91505092959194509250565b600080604083850312156108ca576108c9610db2565b5b60006108d885828601610796565b92505060206108e9858286016107ee565b9150509250929050565b60006020828403121561090957610908610db2565b5b6000610917848285016107ee565b91505092915050565b61092981610bb1565b82525050565b61093881610bb1565b82525050565b61094781610bc3565b82525050565b61095681610bc3565b82525050565b600061096782610b2e565b6109718185610b39565b9350610981818560208601610c08565b61098a81610db7565b840191505092915050565b60006109a082610b2e565b6109aa8185610b4a565b93506109ba818560208601610c08565b6109c381610db7565b840191505092915050565b60006080830160008301516109e66000860182610920565b50602083015184820360208601526109fe828261095c565b9150506040830151610a136040860182610a31565b506060830151610a26606086018261093e565b508091505092915050565b610a3a81610bef565b82525050565b610a4981610bef565b82525050565b6000608082019050610a64600083018761092f565b8181036020830152610a768186610995565b9050610a856040830185610a40565b610a92606083018461094d565b95945050505050565b60006020820190508181036000830152610ab581846109ce565b905092915050565b6000602082019050610ad26000830184610a40565b92915050565b6000610ae2610af3565b9050610aee8282610c6d565b919050565b6000604051905090565b600067ffffffffffffffff821115610b1857610b17610d74565b5b610b2182610db7565b9050602081019050919050565b600081519050919050565b600082825260208201905092915050565b600082825260208201905092915050565b6000610b6682610bef565b9150610b7183610bef565b9250827fffffffffffffffffffffffffffffffffffffffffffffffffffffffffffffffff03821115610ba657610ba5610ce7565b5b828201905092915050565b6000610bbc82610bcf565b9050919050565b60008115159050919050565b600073ffffffffffffffffffffffffffffffffffffffff82169050919050565b6000819050919050565b82818337600083830152505050565b60005b83811015610c26578082015181840152602081019050610c0b565b83811115610c35576000848401525b50505050565b60006002820490506001821680610c5357607f821691505b60208210811415610c6757610c66610d16565b5b50919050565b610c7682610db7565b810181811067ffffffffffffffff82111715610c9557610c94610d74565b5b80604052505050565b6000610ca982610bef565b91507fffffffffffffffffffffffffffffffffffffffffffffffffffffffffffffffff821415610cdc57610cdb610ce7565b5b600182019050919050565b7f4e487b7100000000000000000000000000000000000000000000000000000000600052601160045260246000fd5b7f4e487b7100000000000000000000000000000000000000000000000000000000600052602260045260246000fd5b7f4e487b7100000000000000000000000000000000000000000000000000000000600052603260045260246000fd5b7f4e487b7100000000000000000000000000000000000000000000000000000000600052604160045260246000fd5b600080fd5b600080fd5b600080fd5b600080fd5b6000601f19601f8301169050919050565b610dd181610bb1565b8114610ddc57600080fd5b50565b610de881610bc3565b8114610df357600080fd5b50565b610dff81610bef565b8114610e0a57600080fd5b5056fea2646970667358221220f52b5235f267798770e885b4ab51fd5f2c786f16939483bfd53ed4cb0beb9a9064736f6c63430008070033",
					"opcodes": "PUSH1 0x80 PUSH1 0x40 MSTORE CALLVALUE DUP1 ISZERO PUSH2 0x10 JUMPI PUSH1 0x0 DUP1 REVERT JUMPDEST POP CALLER PUSH1 0x0 DUP1 PUSH2 0x100 EXP DUP2 SLOAD DUP2 PUSH20 0xFFFFFFFFFFFFFFFFFFFFFFFFFFFFFFFFFFFFFFFF MUL NOT AND SWAP1 DUP4 PUSH20 0xFFFFFFFFFFFFFFFFFFFFFFFFFFFFFFFFFFFFFFFF AND MUL OR SWAP1 SSTORE POP PUSH2 0xE43 DUP1 PUSH2 0x60 PUSH1 0x0 CODECOPY PUSH1 0x0 RETURN INVALID PUSH1 0x80 PUSH1 0x40 MSTORE PUSH1 0x4 CALLDATASIZE LT PUSH2 0x70 JUMPI PUSH1 0x0 CALLDATALOAD PUSH1 0xE0 SHR DUP1 PUSH4 0x365B98B2 GT PUSH2 0x4E JUMPI DUP1 PUSH4 0x365B98B2 EQ PUSH2 0xE3 JUMPI DUP1 PUSH4 0x69C212F6 EQ PUSH2 0x123 JUMPI DUP1 PUSH4 0x6F7BC9BE EQ PUSH2 0x160 JUMPI DUP1 PUSH4 0x70A08231 EQ PUSH2 0x19D JUMPI PUSH2 0x70 JUMP JUMPDEST DUP1 PUSH4 0xB1019F0 EQ PUSH2 0x75 JUMPI DUP1 PUSH4 0x1A695230 EQ PUSH2 0x9E JUMPI DUP1 PUSH4 0x280879E7 EQ PUSH2 0xBA JUMPI JUMPDEST PUSH1 0x0 DUP1 REVERT JUMPDEST CALLVALUE DUP1 ISZERO PUSH2 0x81 JUMPI PUSH1 0x0 DUP1 REVERT JUMPDEST POP PUSH2 0x9C PUSH1 0x4 DUP1 CALLDATASIZE SUB DUP2 ADD SWAP1 PUSH2 0x97 SWAP2 SWAP1 PUSH2 0x8B3 JUMP JUMPDEST PUSH2 0x1DA JUMP JUMPDEST STOP JUMPDEST PUSH2 0xB8 PUSH1 0x4 DUP1 CALLDATASIZE SUB DUP2 ADD SWAP1 PUSH2 0xB3 SWAP2 SWAP1 PUSH2 0x803 JUMP JUMPDEST PUSH2 0x22C JUMP JUMPDEST STOP JUMPDEST CALLVALUE DUP1 ISZERO PUSH2 0xC6 JUMPI PUSH1 0x0 DUP1 REVERT JUMPDEST POP PUSH2 0xE1 PUSH1 0x4 DUP1 CALLDATASIZE SUB DUP2 ADD SWAP1 PUSH2 0xDC SWAP2 SWAP1 PUSH2 0x830 JUMP JUMPDEST PUSH2 0x238 JUMP JUMPDEST STOP JUMPDEST CALLVALUE DUP1 ISZERO PUSH2 0xEF JUMPI PUSH1 0x0 DUP1 REVERT JUMPDEST POP PUSH2 0x10A PUSH1 0x4 DUP1 CALLDATASIZE SUB DUP2 ADD SWAP1 PUSH2 0x105 SWAP2 SWAP1 PUSH2 0x8F3 JUMP JUMPDEST PUSH2 0x332 JUMP JUMPDEST PUSH1 0x40 MLOAD PUSH2 0x11A SWAP5 SWAP4 SWAP3 SWAP2 SWAP1 PUSH2 0xA4F JUMP JUMPDEST PUSH1 0x40 MLOAD DUP1 SWAP2 SUB SWAP1 RETURN JUMPDEST CALLVALUE DUP1 ISZERO PUSH2 0x12F JUMPI PUSH1 0x0 DUP1 REVERT JUMPDEST POP PUSH2 0x14A PUSH1 0x4 DUP1 CALLDATASIZE SUB DUP2 ADD SWAP1 PUSH2 0x145 SWAP2 SWAP1 PUSH2 0x803 JUMP JUMPDEST PUSH2 0x427 JUMP JUMPDEST PUSH1 0x40 MLOAD PUSH2 0x157 SWAP2 SWAP1 PUSH2 0xA9B JUMP JUMPDEST PUSH1 0x40 MLOAD DUP1 SWAP2 SUB SWAP1 RETURN JUMPDEST CALLVALUE DUP1 ISZERO PUSH2 0x16C JUMPI PUSH1 0x0 DUP1 REVERT JUMPDEST POP PUSH2 0x187 PUSH1 0x4 DUP1 CALLDATASIZE SUB DUP2 ADD SWAP1 PUSH2 0x182 SWAP2 SWAP1 PUSH2 0x803 JUMP JUMPDEST PUSH2 0x4A1 JUMP JUMPDEST PUSH1 0x40 MLOAD PUSH2 0x194 SWAP2 SWAP1 PUSH2 0xABD JUMP JUMPDEST PUSH1 0x40 MLOAD DUP1 SWAP2 SUB SWAP1 RETURN JUMPDEST CALLVALUE DUP1 ISZERO PUSH2 0x1A9 JUMPI PUSH1 0x0 DUP1 REVERT JUMPDEST POP PUSH2 0x1C4 PUSH1 0x4 DUP1 CALLDATASIZE SUB DUP2 ADD SWAP1 PUSH2 0x1BF SWAP2 SWAP1 PUSH2 0x803 JUMP JUMPDEST PUSH2 0x4B9 JUMP JUMPDEST PUSH1 0x40 MLOAD PUSH2 0x1D1 SWAP2 SWAP1 PUSH2 0xABD JUMP JUMPDEST PUSH1 0x40 MLOAD DUP1 SWAP2 SUB SWAP1 RETURN JUMPDEST DUP1 PUSH1 0x2 PUSH1 0x0 DUP5 PUSH20 0xFFFFFFFFFFFFFFFFFFFFFFFFFFFFFFFFFFFFFFFF AND PUSH20 0xFFFFFFFFFFFFFFFFFFFFFFFFFFFFFFFFFFFFFFFF AND DUP2 MSTORE PUSH1 0x20 ADD SWAP1 DUP2 MSTORE PUSH1 0x20 ADD PUSH1 0x0 KECCAK256 DUP2 SWAP1 SSTORE POP PUSH2 0x227 DUP3 PUSH2 0x427 JUMP JUMPDEST POP POP POP JUMP JUMPDEST PUSH2 0x235 DUP2 PUSH2 0x594 JUMP JUMPDEST POP JUMP JUMPDEST PUSH1 0x1 PUSH1 0x40 MLOAD DUP1 PUSH1 0x80 ADD PUSH1 0x40 MSTORE DUP1 DUP7 PUSH20 0xFFFFFFFFFFFFFFFFFFFFFFFFFFFFFFFFFFFFFFFF AND DUP2 MSTORE PUSH1 0x20 ADD DUP6 DUP2 MSTORE PUSH1 0x20 ADD DUP5 DUP2 MSTORE PUSH1 0x20 ADD DUP4 ISZERO ISZERO DUP2 MSTORE POP SWAP1 DUP1 PUSH1 0x1 DUP2 SLOAD ADD DUP1 DUP3 SSTORE DUP1 SWAP2 POP POP PUSH1 0x1 SWAP1 SUB SWAP1 PUSH1 0x0 MSTORE PUSH1 0x20 PUSH1 0x0 KECCAK256 SWAP1 PUSH1 0x4 MUL ADD PUSH1 0x0 SWAP1 SWAP2 SWAP1 SWAP2 SWAP1 SWAP2 POP PUSH1 0x0 DUP3 ADD MLOAD DUP2 PUSH1 0x0 ADD PUSH1 0x0 PUSH2 0x100 EXP DUP2 SLOAD DUP2 PUSH20 0xFFFFFFFFFFFFFFFFFFFFFFFFFFFFFFFFFFFFFFFF MUL NOT AND SWAP1 DUP4 PUSH20 0xFFFFFFFFFFFFFFFFFFFFFFFFFFFFFFFFFFFFFFFF AND MUL OR SWAP1 SSTORE POP PUSH1 0x20 DUP3 ADD MLOAD DUP2 PUSH1 0x1 ADD SWAP1 DUP1 MLOAD SWAP1 PUSH1 0x20 ADD SWAP1 PUSH2 0x2FF SWAP3 SWAP2 SWAP1 PUSH2 0x671 JUMP JUMPDEST POP PUSH1 0x40 DUP3 ADD MLOAD DUP2 PUSH1 0x2 ADD SSTORE PUSH1 0x60 DUP3 ADD MLOAD DUP2 PUSH1 0x3 ADD PUSH1 0x0 PUSH2 0x100 EXP DUP2 SLOAD DUP2 PUSH1 0xFF MUL NOT AND SWAP1 DUP4 ISZERO ISZERO MUL OR SWAP1 SSTORE POP POP POP POP POP POP POP JUMP JUMPDEST PUSH1 0x1 DUP2 DUP2 SLOAD DUP2 LT PUSH2 0x342 JUMPI PUSH1 0x0 DUP1 REVERT JUMPDEST SWAP1 PUSH1 0x0 MSTORE PUSH1 0x20 PUSH1 0x0 KECCAK256 SWAP1 PUSH1 0x4 MUL ADD PUSH1 0x0 SWAP2 POP SWAP1 POP DUP1 PUSH1 0x0 ADD PUSH1 0x0 SWAP1 SLOAD SWAP1 PUSH2 0x100 EXP SWAP1 DIV PUSH20 0xFFFFFFFFFFFFFFFFFFFFFFFFFFFFFFFFFFFFFFFF AND SWAP1 DUP1 PUSH1 0x1 ADD DUP1 SLOAD PUSH2 0x38B SWAP1 PUSH2 0xC3B JUMP JUMPDEST DUP1 PUSH1 0x1F ADD PUSH1 0x20 DUP1 SWAP2 DIV MUL PUSH1 0x20 ADD PUSH1 0x40 MLOAD SWAP1 DUP2 ADD PUSH1 0x40 MSTORE DUP1 SWAP3 SWAP2 SWAP1 DUP2 DUP2 MSTORE PUSH1 0x20 ADD DUP3 DUP1 SLOAD PUSH2 0x3B7 SWAP1 PUSH2 0xC3B JUMP JUMPDEST DUP1 ISZERO PUSH2 0x404 JUMPI DUP1 PUSH1 0x1F LT PUSH2 0x3D9 JUMPI PUSH2 0x100 DUP1 DUP4 SLOAD DIV MUL DUP4 MSTORE SWAP2 PUSH1 0x20 ADD SWAP2 PUSH2 0x404 JUMP JUMPDEST DUP3 ADD SWAP2 SWAP1 PUSH1 0x0 MSTORE PUSH1 0x20 PUSH1 0x0 KECCAK256 SWAP1 JUMPDEST DUP2 SLOAD DUP2 MSTORE SWAP1 PUSH1 0x1 ADD SWAP1 PUSH1 0x20 ADD DUP1 DUP4 GT PUSH2 0x3E7 JUMPI DUP3 SWAP1 SUB PUSH1 0x1F AND DUP3 ADD SWAP2 JUMPDEST POP POP POP POP POP SWAP1 DUP1 PUSH1 0x2 ADD SLOAD SWAP1 DUP1 PUSH1 0x3 ADD PUSH1 0x0 SWAP1 SLOAD SWAP1 PUSH2 0x100 EXP SWAP1 DIV PUSH1 0xFF AND SWAP1 POP DUP5 JUMP JUMPDEST PUSH2 0x42F PUSH2 0x6F7 JUMP JUMPDEST PUSH1 0x0 JUMPDEST PUSH1 0x1 DUP1 SLOAD SWAP1 POP DUP2 LT ISZERO PUSH2 0x49B JUMPI DUP3 PUSH20 0xFFFFFFFFFFFFFFFFFFFFFFFFFFFFFFFFFFFFFFFF AND PUSH1 0x1 DUP3 DUP2 SLOAD DUP2 LT PUSH2 0x46A JUMPI PUSH2 0x469 PUSH2 0xD45 JUMP JUMPDEST JUMPDEST SWAP1 PUSH1 0x0 MSTORE PUSH1 0x20 PUSH1 0x0 KECCAK256 SWAP1 PUSH1 0x4 MUL ADD PUSH1 0x0 ADD PUSH1 0x0 SWAP1 SLOAD SWAP1 PUSH2 0x100 EXP SWAP1 POP POP POP DUP1 DUP1 PUSH2 0x493 SWAP1 PUSH2 0xC9E JUMP JUMPDEST SWAP2 POP POP PUSH2 0x432 JUMP JUMPDEST POP SWAP2 SWAP1 POP JUMP JUMPDEST PUSH1 0x2 PUSH1 0x20 MSTORE DUP1 PUSH1 0x0 MSTORE PUSH1 0x40 PUSH1 0x0 KECCAK256 PUSH1 0x0 SWAP2 POP SWAP1 POP SLOAD DUP2 JUMP JUMPDEST PUSH1 0x0 DUP1 PUSH1 0x0 SWAP1 POP JUMPDEST PUSH1 0x1 DUP1 SLOAD SWAP1 POP DUP2 LT ISZERO PUSH2 0x588 JUMPI DUP3 PUSH20 0xFFFFFFFFFFFFFFFFFFFFFFFFFFFFFFFFFFFFFFFF AND PUSH1 0x1 DUP3 DUP2 SLOAD DUP2 LT PUSH2 0x4F9 JUMPI PUSH2 0x4F8 PUSH2 0xD45 JUMP JUMPDEST JUMPDEST SWAP1 PUSH1 0x0 MSTORE PUSH1 0x20 PUSH1 0x0 KECCAK256 SWAP1 PUSH1 0x4 MUL ADD PUSH1 0x0 ADD PUSH1 0x0 SWAP1 SLOAD SWAP1 PUSH2 0x100 EXP SWAP1 DIV PUSH20 0xFFFFFFFFFFFFFFFFFFFFFFFFFFFFFFFFFFFFFFFF AND PUSH20 0xFFFFFFFFFFFFFFFFFFFFFFFFFFFFFFFFFFFFFFFF AND EQ ISZERO PUSH2 0x575 JUMPI PUSH1 0x1 DUP2 DUP2 SLOAD DUP2 LT PUSH2 0x55B JUMPI PUSH2 0x55A PUSH2 0xD45 JUMP JUMPDEST JUMPDEST SWAP1 PUSH1 0x0 MSTORE PUSH1 0x20 PUSH1 0x0 KECCAK256 SWAP1 PUSH1 0x4 MUL ADD PUSH1 0x2 ADD SLOAD SWAP2 POP POP PUSH2 0x58F JUMP JUMPDEST DUP1 DUP1 PUSH2 0x580 SWAP1 PUSH2 0xC9E JUMP JUMPDEST SWAP2 POP POP PUSH2 0x4C1 JUMP JUMPDEST POP PUSH2 0x3E7 SWAP1 POP JUMPDEST SWAP2 SWAP1 POP JUMP JUMPDEST PUSH1 0x0 JUMPDEST PUSH1 0x1 DUP1 SLOAD SWAP1 POP DUP2 LT ISZERO PUSH2 0x66D JUMPI DUP2 PUSH20 0xFFFFFFFFFFFFFFFFFFFFFFFFFFFFFFFFFFFFFFFF AND PUSH1 0x1 DUP3 DUP2 SLOAD DUP2 LT PUSH2 0x5CF JUMPI PUSH2 0x5CE PUSH2 0xD45 JUMP JUMPDEST JUMPDEST SWAP1 PUSH1 0x0 MSTORE PUSH1 0x20 PUSH1 0x0 KECCAK256 SWAP1 PUSH1 0x4 MUL ADD PUSH1 0x0 ADD PUSH1 0x0 SWAP1 SLOAD SWAP1 PUSH2 0x100 EXP SWAP1 DIV PUSH20 0xFFFFFFFFFFFFFFFFFFFFFFFFFFFFFFFFFFFFFFFF AND PUSH20 0xFFFFFFFFFFFFFFFFFFFFFFFFFFFFFFFFFFFFFFFF AND EQ ISZERO PUSH2 0x65A JUMPI CALLVALUE PUSH1 0x1 DUP3 DUP2 SLOAD DUP2 LT PUSH2 0x632 JUMPI PUSH2 0x631 PUSH2 0xD45 JUMP JUMPDEST JUMPDEST SWAP1 PUSH1 0x0 MSTORE PUSH1 0x20 PUSH1 0x0 KECCAK256 SWAP1 PUSH1 0x4 MUL ADD PUSH1 0x2 ADD PUSH1 0x0 DUP3 DUP3 SLOAD PUSH2 0x652 SWAP2 SWAP1 PUSH2 0xB5B JUMP JUMPDEST SWAP3 POP POP DUP2 SWAP1 SSTORE POP JUMPDEST DUP1 DUP1 PUSH2 0x665 SWAP1 PUSH2 0xC9E JUMP JUMPDEST SWAP2 POP POP PUSH2 0x597 JUMP JUMPDEST POP POP JUMP JUMPDEST DUP3 DUP1 SLOAD PUSH2 0x67D SWAP1 PUSH2 0xC3B JUMP JUMPDEST SWAP1 PUSH1 0x0 MSTORE PUSH1 0x20 PUSH1 0x0 KECCAK256 SWAP1 PUSH1 0x1F ADD PUSH1 0x20 SWAP1 DIV DUP2 ADD SWAP3 DUP3 PUSH2 0x69F JUMPI PUSH1 0x0 DUP6 SSTORE PUSH2 0x6E6 JUMP JUMPDEST DUP3 PUSH1 0x1F LT PUSH2 0x6B8 JUMPI DUP1 MLOAD PUSH1 0xFF NOT AND DUP4 DUP1 ADD OR DUP6 SSTORE PUSH2 0x6E6 JUMP JUMPDEST DUP3 DUP1 ADD PUSH1 0x1 ADD DUP6 SSTORE DUP3 ISZERO PUSH2 0x6E6 JUMPI SWAP2 DUP3 ADD JUMPDEST DUP3 DUP2 GT ISZERO PUSH2 0x6E5 JUMPI DUP3 MLOAD DUP3 SSTORE SWAP2 PUSH1 0x20 ADD SWAP2 SWAP1 PUSH1 0x1 ADD SWAP1 PUSH2 0x6CA JUMP JUMPDEST JUMPDEST POP SWAP1 POP PUSH2 0x6F3 SWAP2 SWAP1 PUSH2 0x737 JUMP JUMPDEST POP SWAP1 JUMP JUMPDEST PUSH1 0x40 MLOAD DUP1 PUSH1 0x80 ADD PUSH1 0x40 MSTORE DUP1 PUSH1 0x0 PUSH20 0xFFFFFFFFFFFFFFFFFFFFFFFFFFFFFFFFFFFFFFFF AND DUP2 MSTORE PUSH1 0x20 ADD PUSH1 0x60 DUP2 MSTORE PUSH1 0x20 ADD PUSH1 0x0 DUP2 MSTORE PUSH1 0x20 ADD PUSH1 0x0 ISZERO ISZERO DUP2 MSTORE POP SWAP1 JUMP JUMPDEST JUMPDEST DUP1 DUP3 GT ISZERO PUSH2 0x750 JUMPI PUSH1 0x0 DUP2 PUSH1 0x0 SWAP1 SSTORE POP PUSH1 0x1 ADD PUSH2 0x738 JUMP JUMPDEST POP SWAP1 JUMP JUMPDEST PUSH1 0x0 PUSH2 0x767 PUSH2 0x762 DUP5 PUSH2 0xAFD JUMP JUMPDEST PUSH2 0xAD8 JUMP JUMPDEST SWAP1 POP DUP3 DUP2 MSTORE PUSH1 0x20 DUP2 ADD DUP5 DUP5 DUP5 ADD GT ISZERO PUSH2 0x783 JUMPI PUSH2 0x782 PUSH2 0xDA8 JUMP JUMPDEST JUMPDEST PUSH2 0x78E DUP5 DUP3 DUP6 PUSH2 0xBF9 JUMP JUMPDEST POP SWAP4 SWAP3 POP POP POP JUMP JUMPDEST PUSH1 0x0 DUP2 CALLDATALOAD SWAP1 POP PUSH2 0x7A5 DUP2 PUSH2 0xDC8 JUMP JUMPDEST SWAP3 SWAP2 POP POP JUMP JUMPDEST PUSH1 0x0 DUP2 CALLDATALOAD SWAP1 POP PUSH2 0x7BA DUP2 PUSH2 0xDDF JUMP JUMPDEST SWAP3 SWAP2 POP POP JUMP JUMPDEST PUSH1 0x0 DUP3 PUSH1 0x1F DUP4 ADD SLT PUSH2 0x7D5 JUMPI PUSH2 0x7D4 PUSH2 0xDA3 JUMP JUMPDEST JUMPDEST DUP2 CALLDATALOAD PUSH2 0x7E5 DUP5 DUP3 PUSH1 0x20 DUP7 ADD PUSH2 0x754 JUMP JUMPDEST SWAP2 POP POP SWAP3 SWAP2 POP POP JUMP JUMPDEST PUSH1 0x0 DUP2 CALLDATALOAD SWAP1 POP PUSH2 0x7FD DUP2 PUSH2 0xDF6 JUMP JUMPDEST SWAP3 SWAP2 POP POP JUMP JUMPDEST PUSH1 0x0 PUSH1 0x20 DUP3 DUP5 SUB SLT ISZERO PUSH2 0x819 JUMPI PUSH2 0x818 PUSH2 0xDB2 JUMP JUMPDEST JUMPDEST PUSH1 0x0 PUSH2 0x827 DUP5 DUP3 DUP6 ADD PUSH2 0x796 JUMP JUMPDEST SWAP2 POP POP SWAP3 SWAP2 POP POP JUMP JUMPDEST PUSH1 0x0 DUP1 PUSH1 0x0 DUP1 PUSH1 0x80 DUP6 DUP8 SUB SLT ISZERO PUSH2 0x84A JUMPI PUSH2 0x849 PUSH2 0xDB2 JUMP JUMPDEST JUMPDEST PUSH1 0x0 PUSH2 0x858 DUP8 DUP3 DUP9 ADD PUSH2 0x796 JUMP JUMPDEST SWAP5 POP POP PUSH1 0x20 DUP6 ADD CALLDATALOAD PUSH8 0xFFFFFFFFFFFFFFFF DUP2 GT ISZERO PUSH2 0x879 JUMPI PUSH2 0x878 PUSH2 0xDAD JUMP JUMPDEST JUMPDEST PUSH2 0x885 DUP8 DUP3 DUP9 ADD PUSH2 0x7C0 JUMP JUMPDEST SWAP4 POP POP PUSH1 0x40 PUSH2 0x896 DUP8 DUP3 DUP9 ADD PUSH2 0x7EE JUMP JUMPDEST SWAP3 POP POP PUSH1 0x60 PUSH2 0x8A7 DUP8 DUP3 DUP9 ADD PUSH2 0x7AB JUMP JUMPDEST SWAP2 POP POP SWAP3 SWAP6 SWAP2 SWAP5 POP SWAP3 POP JUMP JUMPDEST PUSH1 0x0 DUP1 PUSH1 0x40 DUP4 DUP6 SUB SLT ISZERO PUSH2 0x8CA JUMPI PUSH2 0x8C9 PUSH2 0xDB2 JUMP JUMPDEST JUMPDEST PUSH1 0x0 PUSH2 0x8D8 DUP6 DUP3 DUP7 ADD PUSH2 0x796 JUMP JUMPDEST SWAP3 POP POP PUSH1 0x20 PUSH2 0x8E9 DUP6 DUP3 DUP7 ADD PUSH2 0x7EE JUMP JUMPDEST SWAP2 POP POP SWAP3 POP SWAP3 SWAP1 POP JUMP JUMPDEST PUSH1 0x0 PUSH1 0x20 DUP3 DUP5 SUB SLT ISZERO PUSH2 0x909 JUMPI PUSH2 0x908 PUSH2 0xDB2 JUMP JUMPDEST JUMPDEST PUSH1 0x0 PUSH2 0x917 DUP5 DUP3 DUP6 ADD PUSH2 0x7EE JUMP JUMPDEST SWAP2 POP POP SWAP3 SWAP2 POP POP JUMP JUMPDEST PUSH2 0x929 DUP2 PUSH2 0xBB1 JUMP JUMPDEST DUP3 MSTORE POP POP JUMP JUMPDEST PUSH2 0x938 DUP2 PUSH2 0xBB1 JUMP JUMPDEST DUP3 MSTORE POP POP JUMP JUMPDEST PUSH2 0x947 DUP2 PUSH2 0xBC3 JUMP JUMPDEST DUP3 MSTORE POP POP JUMP JUMPDEST PUSH2 0x956 DUP2 PUSH2 0xBC3 JUMP JUMPDEST DUP3 MSTORE POP POP JUMP JUMPDEST PUSH1 0x0 PUSH2 0x967 DUP3 PUSH2 0xB2E JUMP JUMPDEST PUSH2 0x971 DUP2 DUP6 PUSH2 0xB39 JUMP JUMPDEST SWAP4 POP PUSH2 0x981 DUP2 DUP6 PUSH1 0x20 DUP7 ADD PUSH2 0xC08 JUMP JUMPDEST PUSH2 0x98A DUP2 PUSH2 0xDB7 JUMP JUMPDEST DUP5 ADD SWAP2 POP POP SWAP3 SWAP2 POP POP JUMP JUMPDEST PUSH1 0x0 PUSH2 0x9A0 DUP3 PUSH2 0xB2E JUMP JUMPDEST PUSH2 0x9AA DUP2 DUP6 PUSH2 0xB4A JUMP JUMPDEST SWAP4 POP PUSH2 0x9BA DUP2 DUP6 PUSH1 0x20 DUP7 ADD PUSH2 0xC08 JUMP JUMPDEST PUSH2 0x9C3 DUP2 PUSH2 0xDB7 JUMP JUMPDEST DUP5 ADD SWAP2 POP POP SWAP3 SWAP2 POP POP JUMP JUMPDEST PUSH1 0x0 PUSH1 0x80 DUP4 ADD PUSH1 0x0 DUP4 ADD MLOAD PUSH2 0x9E6 PUSH1 0x0 DUP7 ADD DUP3 PUSH2 0x920 JUMP JUMPDEST POP PUSH1 0x20 DUP4 ADD MLOAD DUP5 DUP3 SUB PUSH1 0x20 DUP7 ADD MSTORE PUSH2 0x9FE DUP3 DUP3 PUSH2 0x95C JUMP JUMPDEST SWAP2 POP POP PUSH1 0x40 DUP4 ADD MLOAD PUSH2 0xA13 PUSH1 0x40 DUP7 ADD DUP3 PUSH2 0xA31 JUMP JUMPDEST POP PUSH1 0x60 DUP4 ADD MLOAD PUSH2 0xA26 PUSH1 0x60 DUP7 ADD DUP3 PUSH2 0x93E JUMP JUMPDEST POP DUP1 SWAP2 POP POP SWAP3 SWAP2 POP POP JUMP JUMPDEST PUSH2 0xA3A DUP2 PUSH2 0xBEF JUMP JUMPDEST DUP3 MSTORE POP POP JUMP JUMPDEST PUSH2 0xA49 DUP2 PUSH2 0xBEF JUMP JUMPDEST DUP3 MSTORE POP POP JUMP JUMPDEST PUSH1 0x0 PUSH1 0x80 DUP3 ADD SWAP1 POP PUSH2 0xA64 PUSH1 0x0 DUP4 ADD DUP8 PUSH2 0x92F JUMP JUMPDEST DUP2 DUP2 SUB PUSH1 0x20 DUP4 ADD MSTORE PUSH2 0xA76 DUP2 DUP7 PUSH2 0x995 JUMP JUMPDEST SWAP1 POP PUSH2 0xA85 PUSH1 0x40 DUP4 ADD DUP6 PUSH2 0xA40 JUMP JUMPDEST PUSH2 0xA92 PUSH1 0x60 DUP4 ADD DUP5 PUSH2 0x94D JUMP JUMPDEST SWAP6 SWAP5 POP POP POP POP POP JUMP JUMPDEST PUSH1 0x0 PUSH1 0x20 DUP3 ADD SWAP1 POP DUP2 DUP2 SUB PUSH1 0x0 DUP4 ADD MSTORE PUSH2 0xAB5 DUP2 DUP5 PUSH2 0x9CE JUMP JUMPDEST SWAP1 POP SWAP3 SWAP2 POP POP JUMP JUMPDEST PUSH1 0x0 PUSH1 0x20 DUP3 ADD SWAP1 POP PUSH2 0xAD2 PUSH1 0x0 DUP4 ADD DUP5 PUSH2 0xA40 JUMP JUMPDEST SWAP3 SWAP2 POP POP JUMP JUMPDEST PUSH1 0x0 PUSH2 0xAE2 PUSH2 0xAF3 JUMP JUMPDEST SWAP1 POP PUSH2 0xAEE DUP3 DUP3 PUSH2 0xC6D JUMP JUMPDEST SWAP2 SWAP1 POP JUMP JUMPDEST PUSH1 0x0 PUSH1 0x40 MLOAD SWAP1 POP SWAP1 JUMP JUMPDEST PUSH1 0x0 PUSH8 0xFFFFFFFFFFFFFFFF DUP3 GT ISZERO PUSH2 0xB18 JUMPI PUSH2 0xB17 PUSH2 0xD74 JUMP JUMPDEST JUMPDEST PUSH2 0xB21 DUP3 PUSH2 0xDB7 JUMP JUMPDEST SWAP1 POP PUSH1 0x20 DUP2 ADD SWAP1 POP SWAP2 SWAP1 POP JUMP JUMPDEST PUSH1 0x0 DUP2 MLOAD SWAP1 POP SWAP2 SWAP1 POP JUMP JUMPDEST PUSH1 0x0 DUP3 DUP3 MSTORE PUSH1 0x20 DUP3 ADD SWAP1 POP SWAP3 SWAP2 POP POP JUMP JUMPDEST PUSH1 0x0 DUP3 DUP3 MSTORE PUSH1 0x20 DUP3 ADD SWAP1 POP SWAP3 SWAP2 POP POP JUMP JUMPDEST PUSH1 0x0 PUSH2 0xB66 DUP3 PUSH2 0xBEF JUMP JUMPDEST SWAP2 POP PUSH2 0xB71 DUP4 PUSH2 0xBEF JUMP JUMPDEST SWAP3 POP DUP3 PUSH32 0xFFFFFFFFFFFFFFFFFFFFFFFFFFFFFFFFFFFFFFFFFFFFFFFFFFFFFFFFFFFFFFFF SUB DUP3 GT ISZERO PUSH2 0xBA6 JUMPI PUSH2 0xBA5 PUSH2 0xCE7 JUMP JUMPDEST JUMPDEST DUP3 DUP3 ADD SWAP1 POP SWAP3 SWAP2 POP POP JUMP JUMPDEST PUSH1 0x0 PUSH2 0xBBC DUP3 PUSH2 0xBCF JUMP JUMPDEST SWAP1 POP SWAP2 SWAP1 POP JUMP JUMPDEST PUSH1 0x0 DUP2 ISZERO ISZERO SWAP1 POP SWAP2 SWAP1 POP JUMP JUMPDEST PUSH1 0x0 PUSH20 0xFFFFFFFFFFFFFFFFFFFFFFFFFFFFFFFFFFFFFFFF DUP3 AND SWAP1 POP SWAP2 SWAP1 POP JUMP JUMPDEST PUSH1 0x0 DUP2 SWAP1 POP SWAP2 SWAP1 POP JUMP JUMPDEST DUP3 DUP2 DUP4 CALLDATACOPY PUSH1 0x0 DUP4 DUP4 ADD MSTORE POP POP POP JUMP JUMPDEST PUSH1 0x0 JUMPDEST DUP4 DUP2 LT ISZERO PUSH2 0xC26 JUMPI DUP1 DUP3 ADD MLOAD DUP2 DUP5 ADD MSTORE PUSH1 0x20 DUP2 ADD SWAP1 POP PUSH2 0xC0B JUMP JUMPDEST DUP4 DUP2 GT ISZERO PUSH2 0xC35 JUMPI PUSH1 0x0 DUP5 DUP5 ADD MSTORE JUMPDEST POP POP POP POP JUMP JUMPDEST PUSH1 0x0 PUSH1 0x2 DUP3 DIV SWAP1 POP PUSH1 0x1 DUP3 AND DUP1 PUSH2 0xC53 JUMPI PUSH1 0x7F DUP3 AND SWAP2 POP JUMPDEST PUSH1 0x20 DUP3 LT DUP2 EQ ISZERO PUSH2 0xC67 JUMPI PUSH2 0xC66 PUSH2 0xD16 JUMP JUMPDEST JUMPDEST POP SWAP2 SWAP1 POP JUMP JUMPDEST PUSH2 0xC76 DUP3 PUSH2 0xDB7 JUMP JUMPDEST DUP2 ADD DUP2 DUP2 LT PUSH8 0xFFFFFFFFFFFFFFFF DUP3 GT OR ISZERO PUSH2 0xC95 JUMPI PUSH2 0xC94 PUSH2 0xD74 JUMP JUMPDEST JUMPDEST DUP1 PUSH1 0x40 MSTORE POP POP POP JUMP JUMPDEST PUSH1 0x0 PUSH2 0xCA9 DUP3 PUSH2 0xBEF JUMP JUMPDEST SWAP2 POP PUSH32 0xFFFFFFFFFFFFFFFFFFFFFFFFFFFFFFFFFFFFFFFFFFFFFFFFFFFFFFFFFFFFFFFF DUP3 EQ ISZERO PUSH2 0xCDC JUMPI PUSH2 0xCDB PUSH2 0xCE7 JUMP JUMPDEST JUMPDEST PUSH1 0x1 DUP3 ADD SWAP1 POP SWAP2 SWAP1 POP JUMP JUMPDEST PUSH32 0x4E487B7100000000000000000000000000000000000000000000000000000000 PUSH1 0x0 MSTORE PUSH1 0x11 PUSH1 0x4 MSTORE PUSH1 0x24 PUSH1 0x0 REVERT JUMPDEST PUSH32 0x4E487B7100000000000000000000000000000000000000000000000000000000 PUSH1 0x0 MSTORE PUSH1 0x22 PUSH1 0x4 MSTORE PUSH1 0x24 PUSH1 0x0 REVERT JUMPDEST PUSH32 0x4E487B7100000000000000000000000000000000000000000000000000000000 PUSH1 0x0 MSTORE PUSH1 0x32 PUSH1 0x4 MSTORE PUSH1 0x24 PUSH1 0x0 REVERT JUMPDEST PUSH32 0x4E487B7100000000000000000000000000000000000000000000000000000000 PUSH1 0x0 MSTORE PUSH1 0x41 PUSH1 0x4 MSTORE PUSH1 0x24 PUSH1 0x0 REVERT JUMPDEST PUSH1 0x0 DUP1 REVERT JUMPDEST PUSH1 0x0 DUP1 REVERT JUMPDEST PUSH1 0x0 DUP1 REVERT JUMPDEST PUSH1 0x0 DUP1 REVERT JUMPDEST PUSH1 0x0 PUSH1 0x1F NOT PUSH1 0x1F DUP4 ADD AND SWAP1 POP SWAP2 SWAP1 POP JUMP JUMPDEST PUSH2 0xDD1 DUP2 PUSH2 0xBB1 JUMP JUMPDEST DUP2 EQ PUSH2 0xDDC JUMPI PUSH1 0x0 DUP1 REVERT JUMPDEST POP JUMP JUMPDEST PUSH2 0xDE8 DUP2 PUSH2 0xBC3 JUMP JUMPDEST DUP2 EQ PUSH2 0xDF3 JUMPI PUSH1 0x0 DUP1 REVERT JUMPDEST POP JUMP JUMPDEST PUSH2 0xDFF DUP2 PUSH2 0xBEF JUMP JUMPDEST DUP2 EQ PUSH2 0xE0A JUMPI PUSH1 0x0 DUP1 REVERT JUMPDEST POP JUMP INVALID LOG2 PUSH5 0x6970667358 0x22 SLT KECCAK256 CREATE2 0x2B MSTORE CALLDATALOAD CALLCODE PUSH8 0x798770E885B4AB51 REVERT 0x5F 0x2C PUSH25 0x6F16939483BFD53ED4CB0BEB9A9064736F6C63430008070033 "
				},
				"gasEstimates": {
					"creation": {
						"codeDepositCost": "730200",
						"executionCost": "25032",
						"totalCost": "755232"
					},
					"external": {
						"addToInvestors(address,uint256)": "infinite",
						"addUser(address,string,uint256,bool)": "infinite",
						"balanceOf(address)": "infinite",
						"getUserByAddress(address)": "infinite",
						"investors(address)": "2858",
						"transfer(address)": "infinite",
						"users(uint256)": "infinite"
					},
					"internal": {
						"transferToAddress(address)": "infinite"
					}
				},
				"methodIdentifiers": {
					"addToInvestors(address,uint256)": "0b1019f0",
					"addUser(address,string,uint256,bool)": "280879e7",
					"balanceOf(address)": "70a08231",
					"getUserByAddress(address)": "69c212f6",
					"investors(address)": "6f7bc9be",
					"transfer(address)": "1a695230",
					"users(uint256)": "365b98b2"
				}
			},
			"storageLayout": {
				"storage": [
					{
						"astId": 3,
						"contract": "contracts/Test1.sol:Test1",
						"label": "owner",
						"offset": 0,
						"slot": "0",
						"type": "t_address"
					},
					{
						"astId": 25,
						"contract": "contracts/Test1.sol:Test1",
						"label": "users",
						"offset": 0,
						"slot": "1",
						"type": "t_array(t_struct(User)21_storage)dyn_storage"
					},
					{
						"astId": 29,
						"contract": "contracts/Test1.sol:Test1",
						"label": "investors",
						"offset": 0,
						"slot": "2",
						"type": "t_mapping(t_address,t_uint256)"
					}
				],
				"types": {
					"t_address": {
						"encoding": "inplace",
						"label": "address",
						"numberOfBytes": "20"
					},
					"t_array(t_struct(User)21_storage)dyn_storage": {
						"base": "t_struct(User)21_storage",
						"encoding": "dynamic_array",
						"label": "struct Test1.User[]",
						"numberOfBytes": "32"
					},
					"t_bool": {
						"encoding": "inplace",
						"label": "bool",
						"numberOfBytes": "1"
					},
					"t_mapping(t_address,t_uint256)": {
						"encoding": "mapping",
						"key": "t_address",
						"label": "mapping(address => uint256)",
						"numberOfBytes": "32",
						"value": "t_uint256"
					},
					"t_string_storage": {
						"encoding": "bytes",
						"label": "string",
						"numberOfBytes": "32"
					},
					"t_struct(User)21_storage": {
						"encoding": "inplace",
						"label": "struct Test1.User",
						"members": [
							{
								"astId": 14,
								"contract": "contracts/Test1.sol:Test1",
								"label": "walletAddress",
								"offset": 0,
								"slot": "0",
								"type": "t_address"
							},
							{
								"astId": 16,
								"contract": "contracts/Test1.sol:Test1",
								"label": "name",
								"offset": 0,
								"slot": "1",
								"type": "t_string_storage"
							},
							{
								"astId": 18,
								"contract": "contracts/Test1.sol:Test1",
								"label": "amount",
								"offset": 0,
								"slot": "2",
								"type": "t_uint256"
							},
							{
								"astId": 20,
								"contract": "contracts/Test1.sol:Test1",
								"label": "isInvestor",
								"offset": 0,
								"slot": "3",
								"type": "t_bool"
							}
						],
						"numberOfBytes": "128"
					},
					"t_uint256": {
						"encoding": "inplace",
						"label": "uint256",
						"numberOfBytes": "32"
					}
				}
			},
			"userdoc": {
				"kind": "user",
				"methods": {},
				"version": 1
			}
		}
	}
}