{
	"data": {
		"bytecode": {
			"linkReferences": {},
			"object": "61089c610053600b82828239805160001a607314610046577f4e487b7100000000000000000000000000000000000000000000000000000000600052600060045260246000fd5b30600052607381538281f3fe730000000000000000000000000000000000000000301460806040526004361061004b5760003560e01c80633a96fdd71461005057806346bdca9a146100805780638a0807b7146100b0575b600080fd5b61006a60048036038101906100659190610593565b6100e0565b6040516100779190610644565b60405180910390f35b61009a60048036038101906100959190610593565b6102bc565b6040516100a79190610629565b60405180910390f35b6100ca60048036038101906100c59190610593565b6102d2565b6040516100d79190610644565b60405180910390f35b600080839050600083905060008251905080825110156100ff57815190505b60005b818110156102625782818151811061011d5761011c6107e3565b5b602001015160f81c60f81b7effffffffffffffffffffffffffffffffffffffffffffffffffffffffffffff191684828151811061015d5761015c6107e3565b5b602001015160f81c60f81b7effffffffffffffffffffffffffffffffffffffffffffffffffffffffffffff191610156101bc577fffffffffffffffffffffffffffffffffffffffffffffffffffffffffffffffff9450505050506102b6565b8281815181106101cf576101ce6107e3565b5b602001015160f81c60f81b7effffffffffffffffffffffffffffffffffffffffffffffffffffffffffffff191684828151811061020f5761020e6107e3565b5b602001015160f81c60f81b7effffffffffffffffffffffffffffffffffffffffffffffffffffffffffffff1916111561024f5760019450505050506102b6565b808061025a9061076b565b915050610102565b50815183511015610298577fffffffffffffffffffffffffffffffffffffffffffffffffffffffffffffffff93505050506102b6565b8151835111156102ae57600193505050506102b6565b600093505050505b92915050565b6000806102c984846100e0565b14905092915050565b60008083905060008390506001825110806102ee575060018151105b806102fa575081518151115b15610329577fffffffffffffffffffffffffffffffffffffffffffffffffffffffffffffffff9250505061051d565b6fffffffffffffffffffffffffffffffff8251111561036c577fffffffffffffffffffffffffffffffffffffffffffffffffffffffffffffffff9250505061051d565b6000805b83518110156104f5578260008151811061038d5761038c6107e3565b5b602001015160f81c60f81b7effffffffffffffffffffffffffffffffffffffffffffffffffffffffffffff19168482815181106103cd576103cc6107e3565b5b602001015160f81c60f81b7effffffffffffffffffffffffffffffffffffffffffffffffffffffffffffff191614156104e257600191505b82518210801561042057508351828261041e91906106b5565b105b80156104b4575082828151811061043a576104396107e3565b5b602001015160f81c60f81b7effffffffffffffffffffffffffffffffffffffffffffffffffffffffffffff191684838361047491906106b5565b81518110610485576104846107e3565b5b602001015160f81c60f81b7effffffffffffffffffffffffffffffffffffffffffffffffffffffffffffff1916145b156104cc5781806104c49061076b565b925050610405565b82518214156104e1578094505050505061051d565b5b80806104ed9061076b565b915050610370565b507fffffffffffffffffffffffffffffffffffffffffffffffffffffffffffffffff93505050505b92915050565b600061053661053184610684565b61065f565b90508281526020810184848401111561055257610551610846565b5b61055d84828561072b565b509392505050565b600082601f83011261057a57610579610841565b5b813561058a848260208601610523565b91505092915050565b600080604083850312156105aa576105a9610850565b5b600083013567ffffffffffffffff8111156105c8576105c761084b565b5b6105d485828601610565565b925050602083013567ffffffffffffffff8111156105f5576105f461084b565b5b61060185828601610565565b9150509250929050565b6106148161070b565b82525050565b61062381610717565b82525050565b600060208201905061063e600083018461060b565b92915050565b6000602082019050610659600083018461061a565b92915050565b600061066961067a565b9050610675828261073a565b919050565b6000604051905090565b600067ffffffffffffffff82111561069f5761069e610812565b5b6106a882610855565b9050602081019050919050565b60006106c082610721565b91506106cb83610721565b9250827fffffffffffffffffffffffffffffffffffffffffffffffffffffffffffffffff03821115610700576106ff6107b4565b5b828201905092915050565b60008115159050919050565b6000819050919050565b6000819050919050565b82818337600083830152505050565b61074382610855565b810181811067ffffffffffffffff8211171561076257610761610812565b5b80604052505050565b600061077682610721565b91507fffffffffffffffffffffffffffffffffffffffffffffffffffffffffffffffff8214156107a9576107a86107b4565b5b600182019050919050565b7f4e487b7100000000000000000000000000000000000000000000000000000000600052601160045260246000fd5b7f4e487b7100000000000000000000000000000000000000000000000000000000600052603260045260246000fd5b7f4e487b7100000000000000000000000000000000000000000000000000000000600052604160045260246000fd5b600080fd5b600080fd5b600080fd5b600080fd5b6000601f19601f830116905091905056fea26469706673582212206c941ca443374c253429de5573536cab5f37710d81f50d1d2cd013dc0d0b0f5664736f6c63430008070033",
			"opcodes": "PUSH2 0x89C PUSH2 0x53 PUSH1 0xB DUP3 DUP3 DUP3 CODECOPY DUP1 MLOAD PUSH1 0x0 BYTE PUSH1 0x73 EQ PUSH2 0x46 JUMPI PUSH32 0x4E487B7100000000000000000000000000000000000000000000000000000000 PUSH1 0x0 MSTORE PUSH1 0x0 PUSH1 0x4 MSTORE PUSH1 0x24 PUSH1 0x0 REVERT JUMPDEST ADDRESS PUSH1 0x0 MSTORE PUSH1 0x73 DUP2 MSTORE8 DUP3 DUP2 RETURN INVALID PUSH20 0x0 ADDRESS EQ PUSH1 0x80 PUSH1 0x40 MSTORE PUSH1 0x4 CALLDATASIZE LT PUSH2 0x4B JUMPI PUSH1 0x0 CALLDATALOAD PUSH1 0xE0 SHR DUP1 PUSH4 0x3A96FDD7 EQ PUSH2 0x50 JUMPI DUP1 PUSH4 0x46BDCA9A EQ PUSH2 0x80 JUMPI DUP1 PUSH4 0x8A0807B7 EQ PUSH2 0xB0 JUMPI JUMPDEST PUSH1 0x0 DUP1 REVERT JUMPDEST PUSH2 0x6A PUSH1 0x4 DUP1 CALLDATASIZE SUB DUP2 ADD SWAP1 PUSH2 0x65 SWAP2 SWAP1 PUSH2 0x593 JUMP JUMPDEST PUSH2 0xE0 JUMP JUMPDEST PUSH1 0x40 MLOAD PUSH2 0x77 SWAP2 SWAP1 PUSH2 0x644 JUMP JUMPDEST PUSH1 0x40 MLOAD DUP1 SWAP2 SUB SWAP1 RETURN JUMPDEST PUSH2 0x9A PUSH1 0x4 DUP1 CALLDATASIZE SUB DUP2 ADD SWAP1 PUSH2 0x95 SWAP2 SWAP1 PUSH2 0x593 JUMP JUMPDEST PUSH2 0x2BC JUMP JUMPDEST PUSH1 0x40 MLOAD PUSH2 0xA7 SWAP2 SWAP1 PUSH2 0x629 JUMP JUMPDEST PUSH1 0x40 MLOAD DUP1 SWAP2 SUB SWAP1 RETURN JUMPDEST PUSH2 0xCA PUSH1 0x4 DUP1 CALLDATASIZE SUB DUP2 ADD SWAP1 PUSH2 0xC5 SWAP2 SWAP1 PUSH2 0x593 JUMP JUMPDEST PUSH2 0x2D2 JUMP JUMPDEST PUSH1 0x40 MLOAD PUSH2 0xD7 SWAP2 SWAP1 PUSH2 0x644 JUMP JUMPDEST PUSH1 0x40 MLOAD DUP1 SWAP2 SUB SWAP1 RETURN JUMPDEST PUSH1 0x0 DUP1 DUP4 SWAP1 POP PUSH1 0x0 DUP4 SWAP1 POP PUSH1 0x0 DUP3 MLOAD SWAP1 POP DUP1 DUP3 MLOAD LT ISZERO PUSH2 0xFF JUMPI DUP2 MLOAD SWAP1 POP JUMPDEST PUSH1 0x0 JUMPDEST DUP2 DUP2 LT ISZERO PUSH2 0x262 JUMPI DUP3 DUP2 DUP2 MLOAD DUP2 LT PUSH2 0x11D JUMPI PUSH2 0x11C PUSH2 0x7E3 JUMP JUMPDEST JUMPDEST PUSH1 0x20 ADD ADD MLOAD PUSH1 0xF8 SHR PUSH1 0xF8 SHL PUSH31 0xFFFFFFFFFFFFFFFFFFFFFFFFFFFFFFFFFFFFFFFFFFFFFFFFFFFFFFFFFFFFFF NOT AND DUP5 DUP3 DUP2 MLOAD DUP2 LT PUSH2 0x15D JUMPI PUSH2 0x15C PUSH2 0x7E3 JUMP JUMPDEST JUMPDEST PUSH1 0x20 ADD ADD MLOAD PUSH1 0xF8 SHR PUSH1 0xF8 SHL PUSH31 0xFFFFFFFFFFFFFFFFFFFFFFFFFFFFFFFFFFFFFFFFFFFFFFFFFFFFFFFFFFFFFF NOT AND LT ISZERO PUSH2 0x1BC JUMPI PUSH32 0xFFFFFFFFFFFFFFFFFFFFFFFFFFFFFFFFFFFFFFFFFFFFFFFFFFFFFFFFFFFFFFFF SWAP5 POP POP POP POP POP PUSH2 0x2B6 JUMP JUMPDEST DUP3 DUP2 DUP2 MLOAD DUP2 LT PUSH2 0x1CF JUMPI PUSH2 0x1CE PUSH2 0x7E3 JUMP JUMPDEST JUMPDEST PUSH1 0x20 ADD ADD MLOAD PUSH1 0xF8 SHR PUSH1 0xF8 SHL PUSH31 0xFFFFFFFFFFFFFFFFFFFFFFFFFFFFFFFFFFFFFFFFFFFFFFFFFFFFFFFFFFFFFF NOT AND DUP5 DUP3 DUP2 MLOAD DUP2 LT PUSH2 0x20F JUMPI PUSH2 0x20E PUSH2 0x7E3 JUMP JUMPDEST JUMPDEST PUSH1 0x20 ADD ADD MLOAD PUSH1 0xF8 SHR PUSH1 0xF8 SHL PUSH31 0xFFFFFFFFFFFFFFFFFFFFFFFFFFFFFFFFFFFFFFFFFFFFFFFFFFFFFFFFFFFFFF NOT AND GT ISZERO PUSH2 0x24F JUMPI PUSH1 0x1 SWAP5 POP POP POP POP POP PUSH2 0x2B6 JUMP JUMPDEST DUP1 DUP1 PUSH2 0x25A SWAP1 PUSH2 0x76B JUMP JUMPDEST SWAP2 POP POP PUSH2 0x102 JUMP JUMPDEST POP DUP2 MLOAD DUP4 MLOAD LT ISZERO PUSH2 0x298 JUMPI PUSH32 0xFFFFFFFFFFFFFFFFFFFFFFFFFFFFFFFFFFFFFFFFFFFFFFFFFFFFFFFFFFFFFFFF SWAP4 POP POP POP POP PUSH2 0x2B6 JUMP JUMPDEST DUP2 MLOAD DUP4 MLOAD GT ISZERO PUSH2 0x2AE JUMPI PUSH1 0x1 SWAP4 POP POP POP POP PUSH2 0x2B6 JUMP JUMPDEST PUSH1 0x0 SWAP4 POP POP POP POP JUMPDEST SWAP3 SWAP2 POP POP JUMP JUMPDEST PUSH1 0x0 DUP1 PUSH2 0x2C9 DUP5 DUP5 PUSH2 0xE0 JUMP JUMPDEST EQ SWAP1 POP SWAP3 SWAP2 POP POP JUMP JUMPDEST PUSH1 0x0 DUP1 DUP4 SWAP1 POP PUSH1 0x0 DUP4 SWAP1 POP PUSH1 0x1 DUP3 MLOAD LT DUP1 PUSH2 0x2EE JUMPI POP PUSH1 0x1 DUP2 MLOAD LT JUMPDEST DUP1 PUSH2 0x2FA JUMPI POP DUP2 MLOAD DUP2 MLOAD GT JUMPDEST ISZERO PUSH2 0x329 JUMPI PUSH32 0xFFFFFFFFFFFFFFFFFFFFFFFFFFFFFFFFFFFFFFFFFFFFFFFFFFFFFFFFFFFFFFFF SWAP3 POP POP POP PUSH2 0x51D JUMP JUMPDEST PUSH16 0xFFFFFFFFFFFFFFFFFFFFFFFFFFFFFFFF DUP3 MLOAD GT ISZERO PUSH2 0x36C JUMPI PUSH32 0xFFFFFFFFFFFFFFFFFFFFFFFFFFFFFFFFFFFFFFFFFFFFFFFFFFFFFFFFFFFFFFFF SWAP3 POP POP POP PUSH2 0x51D JUMP JUMPDEST PUSH1 0x0 DUP1 JUMPDEST DUP4 MLOAD DUP2 LT ISZERO PUSH2 0x4F5 JUMPI DUP3 PUSH1 0x0 DUP2 MLOAD DUP2 LT PUSH2 0x38D JUMPI PUSH2 0x38C PUSH2 0x7E3 JUMP JUMPDEST JUMPDEST PUSH1 0x20 ADD ADD MLOAD PUSH1 0xF8 SHR PUSH1 0xF8 SHL PUSH31 0xFFFFFFFFFFFFFFFFFFFFFFFFFFFFFFFFFFFFFFFFFFFFFFFFFFFFFFFFFFFFFF NOT AND DUP5 DUP3 DUP2 MLOAD DUP2 LT PUSH2 0x3CD JUMPI PUSH2 0x3CC PUSH2 0x7E3 JUMP JUMPDEST JUMPDEST PUSH1 0x20 ADD ADD MLOAD PUSH1 0xF8 SHR PUSH1 0xF8 SHL PUSH31 0xFFFFFFFFFFFFFFFFFFFFFFFFFFFFFFFFFFFFFFFFFFFFFFFFFFFFFFFFFFFFFF NOT AND EQ ISZERO PUSH2 0x4E2 JUMPI PUSH1 0x1 SWAP2 POP JUMPDEST DUP3 MLOAD DUP3 LT DUP1 ISZERO PUSH2 0x420 JUMPI POP DUP4 MLOAD DUP3 DUP3 PUSH2 0x41E SWAP2 SWAP1 PUSH2 0x6B5 JUMP JUMPDEST LT JUMPDEST DUP1 ISZERO PUSH2 0x4B4 JUMPI POP DUP3 DUP3 DUP2 MLOAD DUP2 LT PUSH2 0x43A JUMPI PUSH2 0x439 PUSH2 0x7E3 JUMP JUMPDEST JUMPDEST PUSH1 0x20 ADD ADD MLOAD PUSH1 0xF8 SHR PUSH1 0xF8 SHL PUSH31 0xFFFFFFFFFFFFFFFFFFFFFFFFFFFFFFFFFFFFFFFFFFFFFFFFFFFFFFFFFFFFFF NOT AND DUP5 DUP4 DUP4 PUSH2 0x474 SWAP2 SWAP1 PUSH2 0x6B5 JUMP JUMPDEST DUP2 MLOAD DUP2 LT PUSH2 0x485 JUMPI PUSH2 0x484 PUSH2 0x7E3 JUMP JUMPDEST JUMPDEST PUSH1 0x20 ADD ADD MLOAD PUSH1 0xF8 SHR PUSH1 0xF8 SHL PUSH31 0xFFFFFFFFFFFFFFFFFFFFFFFFFFFFFFFFFFFFFFFFFFFFFFFFFFFFFFFFFFFFFF NOT AND EQ JUMPDEST ISZERO PUSH2 0x4CC JUMPI DUP2 DUP1 PUSH2 0x4C4 SWAP1 PUSH2 0x76B JUMP JUMPDEST SWAP3 POP POP PUSH2 0x405 JUMP JUMPDEST DUP3 MLOAD DUP3 EQ ISZERO PUSH2 0x4E1 JUMPI DUP1 SWAP5 POP POP POP POP POP PUSH2 0x51D JUMP JUMPDEST JUMPDEST DUP1 DUP1 PUSH2 0x4ED SWAP1 PUSH2 0x76B JUMP JUMPDEST SWAP2 POP POP PUSH2 0x370 JUMP JUMPDEST POP PUSH32 0xFFFFFFFFFFFFFFFFFFFFFFFFFFFFFFFFFFFFFFFFFFFFFFFFFFFFFFFFFFFFFFFF SWAP4 POP POP POP POP JUMPDEST SWAP3 SWAP2 POP POP JUMP JUMPDEST PUSH1 0x0 PUSH2 0x536 PUSH2 0x531 DUP5 PUSH2 0x684 JUMP JUMPDEST PUSH2 0x65F JUMP JUMPDEST SWAP1 POP DUP3 DUP2 MSTORE PUSH1 0x20 DUP2 ADD DUP5 DUP5 DUP5 ADD GT ISZERO PUSH2 0x552 JUMPI PUSH2 0x551 PUSH2 0x846 JUMP JUMPDEST JUMPDEST PUSH2 0x55D DUP5 DUP3 DUP6 PUSH2 0x72B JUMP JUMPDEST POP SWAP4 SWAP3 POP POP POP JUMP JUMPDEST PUSH1 0x0 DUP3 PUSH1 0x1F DUP4 ADD SLT PUSH2 0x57A JUMPI PUSH2 0x579 PUSH2 0x841 JUMP JUMPDEST JUMPDEST DUP2 CALLDATALOAD PUSH2 0x58A DUP5 DUP3 PUSH1 0x20 DUP7 ADD PUSH2 0x523 JUMP JUMPDEST SWAP2 POP POP SWAP3 SWAP2 POP POP JUMP JUMPDEST PUSH1 0x0 DUP1 PUSH1 0x40 DUP4 DUP6 SUB SLT ISZERO PUSH2 0x5AA JUMPI PUSH2 0x5A9 PUSH2 0x850 JUMP JUMPDEST JUMPDEST PUSH1 0x0 DUP4 ADD CALLDATALOAD PUSH8 0xFFFFFFFFFFFFFFFF DUP2 GT ISZERO PUSH2 0x5C8 JUMPI PUSH2 0x5C7 PUSH2 0x84B JUMP JUMPDEST JUMPDEST PUSH2 0x5D4 DUP6 DUP3 DUP7 ADD PUSH2 0x565 JUMP JUMPDEST SWAP3 POP POP PUSH1 0x20 DUP4 ADD CALLDATALOAD PUSH8 0xFFFFFFFFFFFFFFFF DUP2 GT ISZERO PUSH2 0x5F5 JUMPI PUSH2 0x5F4 PUSH2 0x84B JUMP JUMPDEST JUMPDEST PUSH2 0x601 DUP6 DUP3 DUP7 ADD PUSH2 0x565 JUMP JUMPDEST SWAP2 POP POP SWAP3 POP SWAP3 SWAP1 POP JUMP JUMPDEST PUSH2 0x614 DUP2 PUSH2 0x70B JUMP JUMPDEST DUP3 MSTORE POP POP JUMP JUMPDEST PUSH2 0x623 DUP2 PUSH2 0x717 JUMP JUMPDEST DUP3 MSTORE POP POP JUMP JUMPDEST PUSH1 0x0 PUSH1 0x20 DUP3 ADD SWAP1 POP PUSH2 0x63E PUSH1 0x0 DUP4 ADD DUP5 PUSH2 0x60B JUMP JUMPDEST SWAP3 SWAP2 POP POP JUMP JUMPDEST PUSH1 0x0 PUSH1 0x20 DUP3 ADD SWAP1 POP PUSH2 0x659 PUSH1 0x0 DUP4 ADD DUP5 PUSH2 0x61A JUMP JUMPDEST SWAP3 SWAP2 POP POP JUMP JUMPDEST PUSH1 0x0 PUSH2 0x669 PUSH2 0x67A JUMP JUMPDEST SWAP1 POP PUSH2 0x675 DUP3 DUP3 PUSH2 0x73A JUMP JUMPDEST SWAP2 SWAP1 POP JUMP JUMPDEST PUSH1 0x0 PUSH1 0x40 MLOAD SWAP1 POP SWAP1 JUMP JUMPDEST PUSH1 0x0 PUSH8 0xFFFFFFFFFFFFFFFF DUP3 GT ISZERO PUSH2 0x69F JUMPI PUSH2 0x69E PUSH2 0x812 JUMP JUMPDEST JUMPDEST PUSH2 0x6A8 DUP3 PUSH2 0x855 JUMP JUMPDEST SWAP1 POP PUSH1 0x20 DUP2 ADD SWAP1 POP SWAP2 SWAP1 POP JUMP JUMPDEST PUSH1 0x0 PUSH2 0x6C0 DUP3 PUSH2 0x721 JUMP JUMPDEST SWAP2 POP PUSH2 0x6CB DUP4 PUSH2 0x721 JUMP JUMPDEST SWAP3 POP DUP3 PUSH32 0xFFFFFFFFFFFFFFFFFFFFFFFFFFFFFFFFFFFFFFFFFFFFFFFFFFFFFFFFFFFFFFFF SUB DUP3 GT ISZERO PUSH2 0x700 JUMPI PUSH2 0x6FF PUSH2 0x7B4 JUMP JUMPDEST JUMPDEST DUP3 DUP3 ADD SWAP1 POP SWAP3 SWAP2 POP POP JUMP JUMPDEST PUSH1 0x0 DUP2 ISZERO ISZERO SWAP1 POP SWAP2 SWAP1 POP JUMP JUMPDEST PUSH1 0x0 DUP2 SWAP1 POP SWAP2 SWAP1 POP JUMP JUMPDEST PUSH1 0x0 DUP2 SWAP1 POP SWAP2 SWAP1 POP JUMP JUMPDEST DUP3 DUP2 DUP4 CALLDATACOPY PUSH1 0x0 DUP4 DUP4 ADD MSTORE POP POP POP JUMP JUMPDEST PUSH2 0x743 DUP3 PUSH2 0x855 JUMP JUMPDEST DUP2 ADD DUP2 DUP2 LT PUSH8 0xFFFFFFFFFFFFFFFF DUP3 GT OR ISZERO PUSH2 0x762 JUMPI PUSH2 0x761 PUSH2 0x812 JUMP JUMPDEST JUMPDEST DUP1 PUSH1 0x40 MSTORE POP POP POP JUMP JUMPDEST PUSH1 0x0 PUSH2 0x776 DUP3 PUSH2 0x721 JUMP JUMPDEST SWAP2 POP PUSH32 0xFFFFFFFFFFFFFFFFFFFFFFFFFFFFFFFFFFFFFFFFFFFFFFFFFFFFFFFFFFFFFFFF DUP3 EQ ISZERO PUSH2 0x7A9 JUMPI PUSH2 0x7A8 PUSH2 0x7B4 JUMP JUMPDEST JUMPDEST PUSH1 0x1 DUP3 ADD SWAP1 POP SWAP2 SWAP1 POP JUMP JUMPDEST PUSH32 0x4E487B7100000000000000000000000000000000000000000000000000000000 PUSH1 0x0 MSTORE PUSH1 0x11 PUSH1 0x4 MSTORE PUSH1 0x24 PUSH1 0x0 REVERT JUMPDEST PUSH32 0x4E487B7100000000000000000000000000000000000000000000000000000000 PUSH1 0x0 MSTORE PUSH1 0x32 PUSH1 0x4 MSTORE PUSH1 0x24 PUSH1 0x0 REVERT JUMPDEST PUSH32 0x4E487B7100000000000000000000000000000000000000000000000000000000 PUSH1 0x0 MSTORE PUSH1 0x41 PUSH1 0x4 MSTORE PUSH1 0x24 PUSH1 0x0 REVERT JUMPDEST PUSH1 0x0 DUP1 REVERT JUMPDEST PUSH1 0x0 DUP1 REVERT JUMPDEST PUSH1 0x0 DUP1 REVERT JUMPDEST PUSH1 0x0 DUP1 REVERT JUMPDEST PUSH1 0x0 PUSH1 0x1F NOT PUSH1 0x1F DUP4 ADD AND SWAP1 POP SWAP2 SWAP1 POP JUMP INVALID LOG2 PUSH5 0x6970667358 0x22 SLT KECCAK256 PUSH13 0x941CA443374C253429DE557353 PUSH13 0xAB5F37710D81F50D1D2CD013DC 0xD SIGNEXTEND 0xF JUMP PUSH5 0x736F6C6343 STOP ADDMOD SMOD STOP CALLER "
		},
		"gasEstimates": {
			"creation": {
				"codeDepositCost": "440800",
				"executionCost": "502",
				"totalCost": "441302"
			},
			"external": {
				"compare(string,string)": "infinite",
				"equal(string,string)": "infinite",
				"indexOf(string,string)": "infinite"
			}
		},
		"methodIdentifiers": {
			"compare(string,string)": "3a96fdd7",
			"equal(string,string)": "46bdca9a",
			"indexOf(string,string)": "8a0807b7"
		}
	},
	"abi": [
		{
			"inputs": [
				{
					"internalType": "string",
					"name": "_a",
					"type": "string"
				},
				{
					"internalType": "string",
					"name": "_b",
					"type": "string"
				}
			],
			"name": "compare",
			"outputs": [
				{
					"internalType": "int256",
					"name": "",
					"type": "int256"
				}
			],
			"stateMutability": "pure",
			"type": "function"
		},
		{
			"inputs": [
				{
					"internalType": "string",
					"name": "_a",
					"type": "string"
				},
				{
					"internalType": "string",
					"name": "_b",
					"type": "string"
				}
			],
			"name": "equal",
			"outputs": [
				{
					"internalType": "bool",
					"name": "",
					"type": "bool"
				}
			],
			"stateMutability": "pure",
			"type": "function"
		},
		{
			"inputs": [
				{
					"internalType": "string",
					"name": "_haystack",
					"type": "string"
				},
				{
					"internalType": "string",
					"name": "_needle",
					"type": "string"
				}
			],
			"name": "indexOf",
			"outputs": [
				{
					"internalType": "int256",
					"name": "",
					"type": "int256"
				}
			],
			"stateMutability": "pure",
			"type": "function"
		}
	]
}